{
  "abi": [
    {
      "inputs": [
        {
          "internalType": "contract IEntryPoint",
          "name": "_entrypoint",
          "type": "address"
        }
      ],
      "stateMutability": "nonpayable",
      "type": "constructor"
    },
    {
      "anonymous": false,
      "inputs": [
        {
          "indexed": true,
          "internalType": "address",
          "name": "account",
          "type": "address"
        },
        {
          "indexed": true,
          "internalType": "address",
          "name": "accountAdmin",
          "type": "address"
        }
      ],
      "name": "AccountCreated",
      "type": "event"
    },
    {
      "anonymous": false,
      "inputs": [
        {
          "indexed": false,
          "internalType": "string",
          "name": "prevURI",
          "type": "string"
        },
        {
          "indexed": false,
          "internalType": "string",
          "name": "newURI",
          "type": "string"
        }
      ],
      "name": "ContractURIUpdated",
      "type": "event"
    },
    {
      "anonymous": false,
      "inputs": [
        {
          "indexed": true,
          "internalType": "bytes32",
          "name": "role",
          "type": "bytes32"
        },
        {
          "indexed": true,
          "internalType": "bytes32",
          "name": "previousAdminRole",
          "type": "bytes32"
        },
        {
          "indexed": true,
          "internalType": "bytes32",
          "name": "newAdminRole",
          "type": "bytes32"
        }
      ],
      "name": "RoleAdminChanged",
      "type": "event"
    },
    {
      "anonymous": false,
      "inputs": [
        {
          "indexed": true,
          "internalType": "bytes32",
          "name": "role",
          "type": "bytes32"
        },
        {
          "indexed": true,
          "internalType": "address",
          "name": "account",
          "type": "address"
        },
        {
          "indexed": true,
          "internalType": "address",
          "name": "sender",
          "type": "address"
        }
      ],
      "name": "RoleGranted",
      "type": "event"
    },
    {
      "anonymous": false,
      "inputs": [
        {
          "indexed": true,
          "internalType": "bytes32",
          "name": "role",
          "type": "bytes32"
        },
        {
          "indexed": true,
          "internalType": "address",
          "name": "account",
          "type": "address"
        },
        {
          "indexed": true,
          "internalType": "address",
          "name": "sender",
          "type": "address"
        }
      ],
      "name": "RoleRevoked",
      "type": "event"
    },
    {
      "anonymous": false,
      "inputs": [
        {
          "indexed": true,
          "internalType": "address",
          "name": "account",
          "type": "address"
        },
        {
          "indexed": true,
          "internalType": "address",
          "name": "signer",
          "type": "address"
        }
      ],
      "name": "SignerAdded",
      "type": "event"
    },
    {
      "anonymous": false,
      "inputs": [
        {
          "indexed": true,
          "internalType": "address",
          "name": "account",
          "type": "address"
        },
        {
          "indexed": true,
          "internalType": "address",
          "name": "signer",
          "type": "address"
        }
      ],
      "name": "SignerRemoved",
      "type": "event"
    },
    {
      "inputs": [],
      "name": "DEFAULT_ADMIN_ROLE",
      "outputs": [
        {
          "internalType": "bytes32",
          "name": "",
          "type": "bytes32"
        }
      ],
      "stateMutability": "view",
      "type": "function"
    },
    {
      "inputs": [],
      "name": "accountImplementation",
      "outputs": [
        {
          "internalType": "address",
          "name": "",
          "type": "address"
        }
      ],
      "stateMutability": "view",
      "type": "function"
    },
    {
      "inputs": [],
      "name": "contractURI",
      "outputs": [
        {
          "internalType": "string",
          "name": "",
          "type": "string"
        }
      ],
      "stateMutability": "view",
      "type": "function"
    },
    {
      "inputs": [
        {
          "internalType": "address",
          "name": "_admin",
          "type": "address"
        },
        {
          "internalType": "bytes",
          "name": "_data",
          "type": "bytes"
        }
      ],
      "name": "createAccount",
      "outputs": [
        {
          "internalType": "address",
          "name": "",
          "type": "address"
        }
      ],
      "stateMutability": "nonpayable",
      "type": "function"
    },
    {
      "inputs": [
        {
          "internalType": "address",
          "name": "signer",
          "type": "address"
        }
      ],
      "name": "getAccountsOfSigner",
      "outputs": [
        {
          "internalType": "address[]",
          "name": "accounts",
          "type": "address[]"
        }
      ],
      "stateMutability": "view",
      "type": "function"
    },
    {
      "inputs": [
        {
          "internalType": "address",
          "name": "_adminSigner",
          "type": "address"
        },
        {
          "internalType": "bytes",
          "name": "_data",
          "type": "bytes"
        }
      ],
      "name": "getAddress",
      "outputs": [
        {
          "internalType": "address",
          "name": "",
          "type": "address"
        }
      ],
      "stateMutability": "view",
      "type": "function"
    },
    {
      "inputs": [
        {
          "internalType": "bytes32",
          "name": "role",
          "type": "bytes32"
        }
      ],
      "name": "getRoleAdmin",
      "outputs": [
        {
          "internalType": "bytes32",
          "name": "",
          "type": "bytes32"
        }
      ],
      "stateMutability": "view",
      "type": "function"
    },
    {
      "inputs": [
        {
          "internalType": "bytes32",
          "name": "role",
          "type": "bytes32"
        },
        {
          "internalType": "uint256",
          "name": "index",
          "type": "uint256"
        }
      ],
      "name": "getRoleMember",
      "outputs": [
        {
          "internalType": "address",
          "name": "member",
          "type": "address"
        }
      ],
      "stateMutability": "view",
      "type": "function"
    },
    {
      "inputs": [
        {
          "internalType": "bytes32",
          "name": "role",
          "type": "bytes32"
        }
      ],
      "name": "getRoleMemberCount",
      "outputs": [
        {
          "internalType": "uint256",
          "name": "count",
          "type": "uint256"
        }
      ],
      "stateMutability": "view",
      "type": "function"
    },
    {
      "inputs": [
        {
          "internalType": "address",
          "name": "account",
          "type": "address"
        }
      ],
      "name": "getSignersOfAccount",
      "outputs": [
        {
          "internalType": "address[]",
          "name": "signers",
          "type": "address[]"
        }
      ],
      "stateMutability": "view",
      "type": "function"
    },
    {
      "inputs": [
        {
          "internalType": "bytes32",
          "name": "role",
          "type": "bytes32"
        },
        {
          "internalType": "address",
          "name": "account",
          "type": "address"
        }
      ],
      "name": "grantRole",
      "outputs": [],
      "stateMutability": "nonpayable",
      "type": "function"
    },
    {
      "inputs": [
        {
          "internalType": "bytes32",
          "name": "role",
          "type": "bytes32"
        },
        {
          "internalType": "address",
          "name": "account",
          "type": "address"
        }
      ],
      "name": "hasRole",
      "outputs": [
        {
          "internalType": "bool",
          "name": "",
          "type": "bool"
        }
      ],
      "stateMutability": "view",
      "type": "function"
    },
    {
      "inputs": [
        {
          "internalType": "bytes32",
          "name": "role",
          "type": "bytes32"
        },
        {
          "internalType": "address",
          "name": "account",
          "type": "address"
        }
      ],
      "name": "hasRoleWithSwitch",
      "outputs": [
        {
          "internalType": "bool",
          "name": "",
          "type": "bool"
        }
      ],
      "stateMutability": "view",
      "type": "function"
    },
    {
      "inputs": [
        {
          "internalType": "bytes[]",
          "name": "data",
          "type": "bytes[]"
        }
      ],
      "name": "multicall",
      "outputs": [
        {
          "internalType": "bytes[]",
          "name": "results",
          "type": "bytes[]"
        }
      ],
      "stateMutability": "nonpayable",
      "type": "function"
    },
    {
      "inputs": [
        {
          "internalType": "address",
          "name": "_signer",
          "type": "address"
        }
      ],
      "name": "onSignerAdded",
      "outputs": [],
      "stateMutability": "nonpayable",
      "type": "function"
    },
    {
      "inputs": [
        {
          "internalType": "address",
          "name": "_signer",
          "type": "address"
        }
      ],
      "name": "onSignerRemoved",
      "outputs": [],
      "stateMutability": "nonpayable",
      "type": "function"
    },
    {
      "inputs": [
        {
          "internalType": "bytes32",
          "name": "role",
          "type": "bytes32"
        },
        {
          "internalType": "address",
          "name": "account",
          "type": "address"
        }
      ],
      "name": "renounceRole",
      "outputs": [],
      "stateMutability": "nonpayable",
      "type": "function"
    },
    {
      "inputs": [
        {
          "internalType": "bytes32",
          "name": "role",
          "type": "bytes32"
        },
        {
          "internalType": "address",
          "name": "account",
          "type": "address"
        }
      ],
      "name": "revokeRole",
      "outputs": [],
      "stateMutability": "nonpayable",
      "type": "function"
    },
    {
      "inputs": [
        {
          "internalType": "string",
          "name": "_uri",
          "type": "string"
        }
      ],
      "name": "setContractURI",
      "outputs": [],
      "stateMutability": "nonpayable",
      "type": "function"
    }
  ],
  "bytecode": {
    "object": "0x60a06040523480156200001157600080fd5b5060405162005d7b38038062005d7b83398101604081905262000034916200022d565b803060405162000044906200021f565b6001600160a01b03928316815291166020820152604001604051809103906000f08015801562000078573d6000803e3d6000fd5b506001600160a01b03166080526200009260003362000099565b5062000286565b620000b08282620000c060201b62000cf51760201c565b620000bc828262000151565b5050565b6000620000d7620001d760201b62000d781760201c565b6000848152602082815260408083206001600160a01b03871684529091529020805460ff1916600117905590506200010c3390565b6001600160a01b0316826001600160a01b0316847f2f8788117e7eff1d82e926ec794901d17c78024a50270940304540a733656f0d60405160405180910390a4505050565b600062000168620001fb60201b62000d9c1760201c565b600084815260208290526040812080549293506001916200018a83856200025f565b909155505060009384526020918252604080852082865260018101845281862080546001600160a01b039096166001600160a01b0319909616861790559385526002909301909152912055565b7fd0ebebe8e6445c62babf8fef767eb39f1002bb957bb5b83258275a4e46428ed590565b7f0c4ba382c0009cf238e4c1ca1a52f51c61e6248a70bdfb34e5ed49d5578a5c0c90565b613b48806200223383390190565b6000602082840312156200024057600080fd5b81516001600160a01b03811681146200025857600080fd5b9392505050565b600082198211156200028157634e487b7160e01b600052601160045260246000fd5b500190565b608051611f83620002b06000396000818161012401528181610429015261081e0152611f836000f3fe608060405234801561001057600080fd5b50600436106100f15760003560e01c80630e6254fd146100f657806311464fbe1461011f578063248a9ca3146101535780632f2ff15d1461017457806336568abe146101895780638878ed331461019c5780639010d07c146101af57806391d14854146101c2578063938e3d7b146101e5578063a217fddf146101f8578063a32fa5b314610200578063ac9650d814610213578063ca15c87314610233578063cafba3a414610246578063d547741f14610259578063d8fd8f441461026c578063e8a3d4851461027f578063ed9e4b7d14610294578063eed89d72146102a7575b600080fd5b6101096101043660046117b5565b6102ba565b60405161011691906117d2565b60405180910390f35b6101467f000000000000000000000000000000000000000000000000000000000000000081565b604051610116919061181f565b610166610161366004611833565b6102e4565b604051908152602001610116565b61018761018236600461184c565b610304565b005b61018761019736600461184c565b6103b1565b6101466101aa36600461187c565b610414565b6101466101bd366004611900565b610459565b6101d56101d036600461184c565b610553565b6040519015158152602001610116565b6101876101f3366004611990565b610589565b610166600081565b6101d561020e36600461184c565b6105da565b610226610221366004611a24565b61063b565b6040516101169190611af4565b610166610241366004611833565b61072f565b6101096102543660046117b5565b6107c4565b61018761026736600461184c565b6107e8565b61014661027a36600461187c565b61081a565b6102876108d5565b6040516101169190611b56565b6101876102a23660046117b5565b610976565b6101876102b53660046117b5565b610bee565b6001600160a01b03811660009081526020819052604090206060906102de90610dc0565b92915050565b6000806102ef610d78565b60009384526001016020525050604090205490565b600061030e610d78565b600084815260018201602052604090205490915061032c9033610dcd565b6000838152602082815260408083206001600160a01b038616845290915290205460ff16156103a25760405162461bcd60e51b815260206004820152601d60248201527f43616e206f6e6c79206772616e7420746f206e6f6e20686f6c6465727300000060448201526064015b60405180910390fd5b6103ac8383610e58565b505050565b336001600160a01b038216146104065760405162461bcd60e51b815260206004820152601a60248201527921b0b71037b7363c903932b737bab731b2903337b91039b2b63360311b6044820152606401610399565b6104108282610e6c565b5050565b600080610422858585610e80565b905061044e7f000000000000000000000000000000000000000000000000000000000000000082610eb2565b9150505b9392505050565b600080610464610d9c565b600085815260208290526040812054919250805b82811015610549576000878152602085815260408083208484526001019091529020546001600160a01b0316156104f457858214156104e2576000878152602094855260408082209282526001909201909452909220546001600160a01b031692506102de915050565b6104ed600183611b7f565b9150610537565b6104ff876000610553565b8015610524575060008781526020858152604080832083805260020190915290205481145b1561053757610534600183611b7f565b91505b610542600182611b7f565b9050610478565b5050505092915050565b60008061055e610d78565b6000948552602090815260408086206001600160a01b03959095168652939052505090205460ff1690565b610591610f0c565b6105ce5760405162461bcd60e51b815260206004820152600e60248201526d139bdd08185d5d1a1bdc9a5e995960921b6044820152606401610399565b6105d781610f1d565b50565b6000806105e5610d78565b60008581526020828152604080832083805290915290205490915060ff16610631576000848152602091825260408082206001600160a01b0386168352909252205460ff1690506102de565b5060019392505050565b6060816001600160401b0381111561065557610655611922565b60405190808252806020026020018201604052801561068857816020015b60608152602001906001900390816106735790505b50905060005b82811015610728576106f8308585848181106106ac576106ac611b97565b90506020028101906106be9190611bad565b8080601f01602080910402602001604051908101604052809392919081815260200183838082843760009201919091525061100d92505050565b82828151811061070a5761070a611b97565b6020026020010181905250808061072090611bfa565b91505061068e565b5092915050565b60008061073a610d9c565b6000848152602082905260408120549192505b8181101561079e576000858152602084815260408083208484526001019091529020546001600160a01b03161561078c57610789600185611b7f565b93505b610797600182611b7f565b905061074d565b506107aa846000610553565b156107bd576107ba600184611b7f565b92505b5050919050565b6001600160a01b03811660009081526001602052604090206060906102de90610dc0565b60006107f2610d78565b60008481526001820160205260409020549091506108109033610dcd565b6103ac8383610e6c565b60007f000000000000000000000000000000000000000000000000000000000000000081610849868686610e80565b905060006108578383610eb2565b90506001600160a01b0381163b15610873579250610452915050565b61087d8383611032565b905061088b818888886110c9565b866001600160a01b0316816001600160a01b03167fac631f3001b55ea1509cf3d7e74898f85392a61a76e8149181ae1259622dabc860405160405180910390a39695505050505050565b606060006108e1611131565b90508060000180546108f290611c15565b80601f016020809104026020016040519081016040528092919081815260200182805461091e90611c15565b801561096b5780601f106109405761010080835404028352916020019161096b565b820191906000526020600020905b81548152906001019060200180831161094e57829003601f168201915b505050505091505090565b33803b6109955760405162461bcd60e51b815260040161039990611c50565b604051630935e01b60e21b81526000906001600160a01b038316906324d7806c906109c490869060040161181f565b602060405180830381865afa1580156109e1573d6000803e3d6000fd5b505050506040513d601f19601f82011682018060405250810190610a059190611c87565b905080610af957604051630995f8e360e21b81526000906001600160a01b03841690632657e38c90610a3b90879060040161181f565b600060405180830381865afa158015610a58573d6000803e3d6000fd5b505050506040513d6000823e601f3d908101601f19168201604052610a809190810190611cc5565b90504281606001516001600160801b031611158015610aab575080608001516001600160801b031642105b610af75760405162461bcd60e51b815260206004820152601f60248201527f4163636f756e74466163746f72793a20696e76616c6964207369676e65722e006044820152606401610399565b505b6001600160a01b0383166000908152602081905260408120610b1b9084611155565b6001600160a01b038416600090815260016020526040812091925090610b419086611155565b9050811580610b4e575080155b15610ba75760405162461bcd60e51b8152602060048201526024808201527f4163636f756e74466163746f72793a207369676e657220616c726561647920616044820152631919195960e21b6064820152608401610399565b846001600160a01b0316846001600160a01b03167f12146497b3b826918ec47f0cac7272a09ed06b30c16c030e99ec48ff5dd60b4760405160405180910390a35050505050565b33803b610c0d5760405162461bcd60e51b815260040161039990611c50565b6001600160a01b0382166000908152602081905260408120610c2f908361116a565b6001600160a01b038316600090815260016020526040812091925090610c55908561116a565b9050811580610c62575080155b15610caf5760405162461bcd60e51b815260206004820181905260248201527f4163636f756e74466163746f72793a207369676e6572206e6f7420666f756e646044820152606401610399565b836001600160a01b0316836001600160a01b03167f98d1ebbe00ae92a5de96a0f49742a8afa89f42363592bc2e7cfaaed68b45e7a660405160405180910390a350505050565b6000610cff610d78565b6000848152602082815260408083206001600160a01b03871684529091529020805460ff191660011790559050610d333390565b6001600160a01b0316826001600160a01b0316847f2f8788117e7eff1d82e926ec794901d17c78024a50270940304540a733656f0d60405160405180910390a4505050565b7fd0ebebe8e6445c62babf8fef767eb39f1002bb957bb5b83258275a4e46428ed590565b7f0c4ba382c0009cf238e4c1ca1a52f51c61e6248a70bdfb34e5ed49d5578a5c0c90565b606060006104528361117f565b6000610dd7610d78565b6000848152602082815260408083206001600160a01b038716845290915290205490915060ff166103ac57610e16826001600160a01b031660146111db565b610e218460206111db565b604051602001610e32929190611dd5565b60408051601f198184030181529082905262461bcd60e51b825261039991600401611b56565b610e628282610cf5565b6104108282611376565b610e7682826113ed565b610410828261145a565b600083604051602001610e93919061181f565b6040516020818303038152906040528051906020012090509392505050565b6040513060388201526f5af43d82803e903d91602b57fd5bf3ff60248201526014810192909252733d602d80600a3d3981f3363d3d373d3d3d363d73825260588201526037600c8201206078820152605560439091012090565b6000610f188133610553565b905090565b6000610f27611131565b90506000816000018054610f3a90611c15565b80601f0160208091040260200160405190810160405280929190818152602001828054610f6690611c15565b8015610fb35780601f10610f8857610100808354040283529160200191610fb3565b820191906000526020600020905b815481529060010190602001808311610f9657829003601f168201915b50508651939450610fce938693506020880192509050611707565b507fc9c7c3fe08b88b4df9d4d47ef47d2c43d55c025a0ba88ca442580ed9e7348a168184604051611000929190611e42565b60405180910390a1505050565b60606104528383604051806060016040528060278152602001611f27602791396114af565b6000763d602d80600a3d3981f3363d3d373d3d3d363d730000008360601b60e81c176000526e5af43d82803e903d91602b57fd5bf38360781b1760205281603760096000f590506001600160a01b0381166102de5760405162461bcd60e51b8152602060048201526017602482015276115490cc4c4d8dce8818dc99585d194c8819985a5b1959604a1b6044820152606401610399565b60405163347d5e2560e21b81526001600160a01b0385169063d1f57894906110f990869086908690600401611e67565b600060405180830381600087803b15801561111357600080fd5b505af1158015611127573d6000803e3d6000fd5b5050505050505050565b7fa7d40346e44ca145e94a946aa34a7d4a67245577dc18699a626fe0ffc6ce328190565b6000610452836001600160a01b03841661158c565b6000610452836001600160a01b0384166115db565b6060816000018054806020026020016040519081016040528092919081815260200182805480156111cf57602002820191906000526020600020905b8154815260200190600101908083116111bb575b50505050509050919050565b606060006111ea836002611ea7565b6111f5906002611b7f565b6001600160401b0381111561120c5761120c611922565b6040519080825280601f01601f191660200182016040528015611236576020820181803683370190505b509050600360fc1b8160008151811061125157611251611b97565b60200101906001600160f81b031916908160001a905350600f60fb1b8160018151811061128057611280611b97565b60200101906001600160f81b031916908160001a90535060006112a4846002611ea7565b6112af906001611b7f565b90505b6001811115611327576f181899199a1a9b1b9c1cb0b131b232b360811b85600f16601081106112e3576112e3611b97565b1a60f81b8282815181106112f9576112f9611b97565b60200101906001600160f81b031916908160001a90535060049490941c9361132081611ec6565b90506112b2565b5083156104525760405162461bcd60e51b815260206004820181905260248201527f537472696e67733a20686578206c656e67746820696e73756666696369656e746044820152606401610399565b6000611380610d9c565b600084815260208290526040812080549293506001916113a08385611b7f565b909155505060009384526020918252604080852082865260018101845281862080546001600160a01b039096166001600160a01b0319909616861790559385526002909301909152912055565b60006113f7610d78565b90506114038383610dcd565b6000838152602082815260408083206001600160a01b0386168085529252808320805460ff1916905551339286917ff6391f5c32d9c69d2a47ea670b442974b53935d1edc7fd64eb21e047a839171b9190a4505050565b6000611464610d9c565b6000938452602090815260408085206001600160a01b0390941680865260028501808452828720805488526001909601845291862080546001600160a01b0319169055855290525055565b60606001600160a01b0384163b6115175760405162461bcd60e51b815260206004820152602660248201527f416464726573733a2064656c65676174652063616c6c20746f206e6f6e2d636f6044820152651b9d1c9858dd60d21b6064820152608401610399565b600080856001600160a01b0316856040516115329190611edd565b600060405180830381855af49150503d806000811461156d576040519150601f19603f3d011682016040523d82523d6000602084013e611572565b606091505b50915091506115828282866116ce565b9695505050505050565b60008181526001830160205260408120546115d3575081546001818101845560008481526020808220909301849055845484825282860190935260409020919091556102de565b5060006102de565b600081815260018301602052604081205480156116c45760006115ff600183611ef9565b855490915060009061161390600190611ef9565b905081811461167857600086600001828154811061163357611633611b97565b906000526020600020015490508087600001848154811061165657611656611b97565b6000918252602080832090910192909255918252600188019052604090208390555b855486908061168957611689611f10565b6001900381819060005260206000200160009055905585600101600086815260200190815260200160002060009055600193505050506102de565b60009150506102de565b606083156116dd575081610452565b8251156116ed5782518084602001fd5b8160405162461bcd60e51b81526004016103999190611b56565b82805461171390611c15565b90600052602060002090601f016020900481019282611735576000855561177b565b82601f1061174e57805160ff191683800117855561177b565b8280016001018555821561177b579182015b8281111561177b578251825591602001919060010190611760565b5061178792915061178b565b5090565b5b80821115611787576000815560010161178c565b6001600160a01b03811681146105d757600080fd5b6000602082840312156117c757600080fd5b8135610452816117a0565b6020808252825182820181905260009190848201906040850190845b818110156118135783516001600160a01b0316835292840192918401916001016117ee565b50909695505050505050565b6001600160a01b0391909116815260200190565b60006020828403121561184557600080fd5b5035919050565b6000806040838503121561185f57600080fd5b823591506020830135611871816117a0565b809150509250929050565b60008060006040848603121561189157600080fd5b833561189c816117a0565b925060208401356001600160401b03808211156118b857600080fd5b818601915086601f8301126118cc57600080fd5b8135818111156118db57600080fd5b8760208285010111156118ed57600080fd5b6020830194508093505050509250925092565b6000806040838503121561191357600080fd5b50508035926020909101359150565b634e487b7160e01b600052604160045260246000fd5b60405160a081016001600160401b038111828210171561195a5761195a611922565b60405290565b604051601f8201601f191681016001600160401b038111828210171561198857611988611922565b604052919050565b600060208083850312156119a357600080fd5b82356001600160401b03808211156119ba57600080fd5b818501915085601f8301126119ce57600080fd5b8135818111156119e0576119e0611922565b6119f2601f8201601f19168501611960565b91508082528684828501011115611a0857600080fd5b8084840185840137600090820190930192909252509392505050565b60008060208385031215611a3757600080fd5b82356001600160401b0380821115611a4e57600080fd5b818501915085601f830112611a6257600080fd5b813581811115611a7157600080fd5b8660208260051b8501011115611a8657600080fd5b60209290920196919550909350505050565b60005b83811015611ab3578181015183820152602001611a9b565b83811115611ac2576000848401525b50505050565b60008151808452611ae0816020860160208601611a98565b601f01601f19169290920160200192915050565b6000602080830181845280855180835260408601915060408160051b870101925083870160005b82811015611b4957603f19888603018452611b37858351611ac8565b94509285019290850190600101611b1b565b5092979650505050505050565b6020815260006104526020830184611ac8565b634e487b7160e01b600052601160045260246000fd5b60008219821115611b9257611b92611b69565b500190565b634e487b7160e01b600052603260045260246000fd5b6000808335601e19843603018112611bc457600080fd5b8301803591506001600160401b03821115611bde57600080fd5b602001915036819003821315611bf357600080fd5b9250929050565b6000600019821415611c0e57611c0e611b69565b5060010190565b600181811c90821680611c2957607f821691505b60208210811415611c4a57634e487b7160e01b600052602260045260246000fd5b50919050565b6020808252601f908201527f4163636f756e74466163746f72793a206e6f7420616e206163636f756e742e00604082015260600190565b600060208284031215611c9957600080fd5b8151801515811461045257600080fd5b80516001600160801b0381168114611cc057600080fd5b919050565b60006020808385031215611cd857600080fd5b82516001600160401b0380821115611cef57600080fd5b9084019060a08287031215611d0357600080fd5b611d0b611938565b825181528383015182811115611d2057600080fd5b8301601f81018813611d3157600080fd5b805183811115611d4357611d43611922565b8060051b9350611d54868501611960565b818152938201860193868101908a861115611d6e57600080fd5b928701925b85841015611d985783519250611d88836117a0565b8282529287019290870190611d73565b8488015250505060408381015190820152611db560608401611ca9565b6060820152611dc660808401611ca9565b60808201529695505050505050565b7402832b936b4b9b9b4b7b7399d1030b1b1b7bab73a1605d1b815260008351611e05816015850160208801611a98565b7001034b99036b4b9b9b4b733903937b6329607d1b6015918401918201528351611e36816026840160208801611a98565b01602601949350505050565b604081526000611e556040830185611ac8565b828103602084015261044e8185611ac8565b6001600160a01b03841681526040602082018190528101829052818360608301376000818301606090810191909152601f909201601f1916010192915050565b6000816000190483118215151615611ec157611ec1611b69565b500290565b600081611ed557611ed5611b69565b506000190190565b60008251611eef818460208701611a98565b9190910192915050565b600082821015611f0b57611f0b611b69565b500390565b634e487b7160e01b600052603160045260246000fdfe416464726573733a206c6f772d6c6576656c2064656c65676174652063616c6c206661696c6564a26469706673582212208966d60782c708774d7ee7d849f034ee755ac5206a3b32fb4398ee5af886420d64736f6c634300080c00336101806040523480156200001257600080fd5b5060405162003b4838038062003b48833981016040819052620000359162000261565b60408051808201825260078152661058d8dbdd5b9d60ca1b6020808301918252835180850190945260018452603160f81b908401528151902060e08190527fc89efdaa54c0f20c7adf612882df0950f5a951637e0307cdcb4c672f298b8bc66101008190524660a0529192917f8b73c3c69bb8fe3d512ecc4cf759cc79239f7b179b0ffacaa9a75d522b39400f620001128184846040805160208101859052908101839052606081018290524660808201523060a082015260009060c0016040516020818303038152906040528051906020012090509392505050565b6080523060c05261012052506200012d925050620001479050565b6001600160a01b03908116610140521661016052620002a0565b60006200015e6200022460201b620017b71760201c565b805490915060ff808216916101009004168015620001d25760405162461bcd60e51b815260206004820152602760248201527f496e697469616c697a61626c653a20636f6e747261637420697320696e697469604482015266616c697a696e6760c81b606482015260840160405180910390fd5b60ff82811610156200021f57825460ff191660ff90811784556040519081527f7f26b83ff96e1f2b6a682f133852f6798a09c465da95921460cefb38474024989060200160405180910390a15b505050565b7f627d6cbb4eb558f37de3c2ec08b04710e54e06be936a302f087f7bfb80f39ae090565b6001600160a01b03811681146200025e57600080fd5b50565b600080604083850312156200027557600080fd5b8251620002828162000248565b6020840151909250620002958162000248565b809150509250929050565b60805160a05160c05160e0516101005161012051610140516101605161380a6200033e60003960008181610d650152818161142b015261145801526000818161049801528181611b7c01528181611bbf01528181611c0b01528181611d4501528181611d9e0152611e3c015260006125e1015260006126300152600061260b015260006125650152600061258f015260006125b9015261380a6000f3fe6080604052600436106101405760003560e01c806301ffc9a71461014c578063150b7a02146101815780631626ba7e146101c55780631dd756c5146101e55780631df923c3146102055780632354ed591461023257806324d7806c146102545780632657e38c146102745780633a871cdd1461029457806347e1da2a146102c25780634a58db19146102e25780634b0bddd2146102ea5780634d44560d1461030a578063938e3d7b1461032a578063a6fa0cb41461034a578063aa3ef59114610377578063ac9650d814610397578063b0d691fe146103c4578063b61d27f6146103e6578063b63f119d14610406578063bc197c8114610445578063c399ec8814610471578063c45a015514610486578063d087d288146104ba578063d1f57894146104cf578063e8a3d485146104ef578063f23a6e611461051157600080fd5b3661014757005b600080fd5b34801561015857600080fd5b5061016c610167366004612748565b61053d565b60405190151581526020015b60405180910390f35b34801561018d57600080fd5b506101ac61019c366004612844565b630a85bd0160e11b949350505050565b6040516001600160e01b03199091168152602001610178565b3480156101d157600080fd5b506101ac6101e03660046128af565b610583565b3480156101f157600080fd5b5061016c61020036600461290e565b61063c565b34801561021157600080fd5b50610225610220366004612953565b610946565b6040516101789190612979565b34801561023e57600080fd5b5061025261024d366004612a03565b610a05565b005b34801561026057600080fd5b5061016c61026f366004612a3d565b610c29565b34801561028057600080fd5b5061022561028f366004612a3d565b610c57565b3480156102a057600080fd5b506102b46102af366004612a5a565b610d34565b604051908152602001610178565b3480156102ce57600080fd5b506102526102dd366004612aeb565b610d5a565b610252610ed3565b3480156102f657600080fd5b50610252610305366004612b84565b610f3b565b34801561031657600080fd5b50610252610325366004612bc2565b610f6e565b34801561033657600080fd5b50610252610345366004612bee565b611004565b34801561035657600080fd5b5061036a610365366004612953565b611055565b6040516101789190612c36565b34801561038357600080fd5b50610252610392366004612cc4565b61107d565b3480156103a357600080fd5b506103b76103b2366004612d1e565b61133c565b6040516101789190612dbb565b3480156103d057600080fd5b506103d9611429565b6040516101789190612e1d565b3480156103f257600080fd5b50610252610401366004612e31565b61144d565b34801561041257600080fd5b50610426610421366004612cc4565b6114e5565b6040805192151583526001600160a01b03909116602083015201610178565b34801561045157600080fd5b506101ac610460366004612f1a565b63bc197c8160e01b95945050505050565b34801561047d57600080fd5b506102b4611537565b34801561049257600080fd5b506103d97f000000000000000000000000000000000000000000000000000000000000000081565b3480156104c657600080fd5b506102b46115b2565b3480156104db57600080fd5b506102526104ea366004612fc7565b6115f1565b3480156104fb57600080fd5b50610504611716565b6040516101789190613002565b34801561051d57600080fd5b506101ac61052c366004613015565b63f23a6e6160e01b95945050505050565b60006001600160e01b03198216630271189760e51b148061056e57506001600160e01b03198216630a85bd0160e11b145b8061057d575061057d826117db565b92915050565b6000806105908484611810565b9050600061059c611834565b6001600160a01b0383166000908152600280830160209081526040808420548085526001808701845294829020825160808101845281548152958101549386019390935291909201546001600160801b03808216938501849052600160801b909104166060840152929350421080159061062257504281606001516001600160801b0316105b1561063257630b135d3f60e11b94505b5050505092915050565b600080610647611834565b6001600160a01b03851660009081526020829052604090205490915060ff161561067557600191505061057d565b6001600160a01b0384166000908152600280830160209081526040808420548085526001808701845294829020825160808101845281548152958101549386019390935291909201546001600160801b03808216938501849052600160801b909104166060840152919042108015906106fa575080606001516001600160801b031642105b6107475760405162461bcd60e51b815260206004820152601960248201527820b1b1b7bab73a1d103937b632903737ba1030b1ba34bb329760391b60448201526064015b60405180910390fd5b600061075e610759606088018861307d565b611858565b90506001600160e01b03198116635b0e93fb60e11b14156107f65760008061079161078c60608a018a61307d565b611892565b9150915080846020015110156107b95760405162461bcd60e51b815260040161073e906130c3565b600085815260048701602052604090206107d390836118f7565b6107ef5760405162461bcd60e51b815260040161073e906130f5565b5050610932565b6001600160e01b031981166323f0ed1560e11b14156108eb5760008061082761082260608a018a61307d565b611919565b509150915060005b82518110156108e35761087883828151811061084d5761084d61312c565b60200260200101518860040160008981526020019081526020016000206118f790919063ffffffff16565b6108945760405162461bcd60e51b815260040161073e906130f5565b8181815181106108a6576108a661312c565b6020026020010151856020015110156108d15760405162461bcd60e51b815260040161073e906130c3565b806108db81613158565b91505061082f565b505050610932565b60405162461bcd60e51b815260206004820152601c60248201527b20b1b1b7bab73a1d1031b0b63634b7339034b73b30b634b21033371760211b604482015260640161073e565b600194505050505061057d565b5092915050565b61094e612680565b6000610958611834565b60008481526001808301602090815260408084208151608081018352815481529381015484840152600201546001600160801b0380821685840152600160801b909104166060840152805160a08101825288815288855260048601835293209394509092908201906109c990611966565b81526020018260200151815260200182604001516001600160801b0316815260200182606001516001600160801b031681525092505050919050565b610a0e33610c29565b610a2a5760405162461bcd60e51b815260040161073e90613173565b803580610a495760405162461bcd60e51b815260040161073e906131bd565b6000610a53611834565b9050604051806080016040528083815260200184604001358152602001846060016020810190610a839190613221565b6001600160801b03168152602001610aa160a0860160808701613221565b6001600160801b039081169091526000848152600180850160209081526040808420865181558683015193810193909355858101516060909601518516600160801b029590941694909417600290910155600484019092528120610b0490611966565b805190915060005b81811015610b6757610b54838281518110610b2957610b2961312c565b602002602001015185600401600088815260200190815260200160002061197390919063ffffffff16565b50610b6060018261323c565b9050610b0c565b506000610b776020870187613254565b9050905060005b81811015610be457610bd1610b966020890189613254565b83818110610ba657610ba661312c565b9050602002016020810190610bbb9190612a3d565b6000888152600488016020526040902090611988565b50610bdd60018261323c565b9050610b7e565b5085600001357f38d9451889af9fc05cb7aa5e45f0582787f5f9e91bc1cb94c3b7a3363984685e87604051610c1991906132e6565b60405180910390a2505050505050565b600080610c34611834565b6001600160a01b0390931660009081526020939093525050604090205460ff1690565b610c5f612680565b6000610c69611834565b6001600160a01b038416600090815260028083016020908152604080842054808552600180870184528286208351608081018552815481529181015482860152909401546001600160801b0380821686850152600160801b909104166060850152815160a08101835281815281865260048701845291909420949550929391929190820190610cf790611966565b81526020018260200151815260200182604001516001600160801b0316815260200182606001516001600160801b03168152509350505050919050565b6000610d3e61199d565b610d488484611a06565b9050610d5382611aaa565b9392505050565b336001600160a01b037f0000000000000000000000000000000000000000000000000000000000000000161480610d955750610d9533610c29565b610db15760405162461bcd60e51b815260040161073e9061338c565b8481148015610dbf57508483145b610e0b5760405162461bcd60e51b815260206004820152601d60248201527f4163636f756e743a2077726f6e67206172726179206c656e677468732e000000604482015260640161073e565b60005b85811015610eca57610eb7878783818110610e2b57610e2b61312c565b9050602002016020810190610e409190612a3d565b868684818110610e5257610e5261312c565b90506020020135858585818110610e6b57610e6b61312c565b9050602002810190610e7d919061307d565b8080601f016020809104026020016040519081016040528093929190818152602001838380828437600092019190915250611af792505050565b5080610ec281613158565b915050610e0e565b50505050505050565b610edb611429565b6001600160a01b031663b760faf934306040518363ffffffff1660e01b8152600401610f079190612e1d565b6000604051808303818588803b158015610f2057600080fd5b505af1158015610f34573d6000803e3d6000fd5b5050505050565b610f4433610c29565b610f605760405162461bcd60e51b815260040161073e90613173565b610f6a8282611b68565b5050565b610f7733610c29565b610f935760405162461bcd60e51b815260040161073e90613173565b610f9b611429565b60405163040b850f60e31b81526001600160a01b03848116600483015260248201849052919091169063205c2878906044015b600060405180830381600087803b158015610fe857600080fd5b505af1158015610ffc573d6000803e3d6000fd5b505050505050565b61100c611c40565b6110495760405162461bcd60e51b815260206004820152600e60248201526d139bdd08185d5d1a1bdc9a5e995960921b604482015260640161073e565b61105281611c4b565b50565b60606000611061611834565b60008481526005820160205260409020909150610d5390611966565b823561109b5760405162461bcd60e51b815260040161073e906131bd565b426110ac6080850160608601613221565b6001600160801b03161080156110d957506110cd60a0840160808501613221565b6001600160801b031642105b6111395760405162461bcd60e51b815260206004820152602b60248201527f4163636f756e745065726d697373696f6e733a20696e76616c69642076616c6960448201526a191a5d1e481c195c9a5bd960aa1b606482015260840161073e565b6000806111478585856114e5565b91509150816111a65760405162461bcd60e51b815260206004820152602560248201527f4163636f756e745065726d697373696f6e733a20696e76616c6964207369676e604482015264617475726560d81b606482015260840161073e565b60006111b0611834565b60a087013560009081526003820160205260408120805460ff191660011790559091506111e360608801604089016133f2565b60018111156111f4576111f46133cd565b141561126a57853560028201600061121260408a0160208b01612a3d565b6001600160a01b03166001600160a01b031681526020019081526020016000208190555061126486602001602081019061124c9190612a3d565b87356000908152600584016020526040902090611988565b506112d4565b6002810160006112806040890160208a01612a3d565b6001600160a01b03166001600160a01b03168152602001908152602001600020600090556112d28660200160208101906112ba9190612a3d565b87356000908152600584016020526040902090611973565b505b6001600160a01b0382166112ee6040880160208901612a3d565b6001600160a01b031687600001357f230d0b85c856a5f84bce690ef9726f4b90c291f8000fe278c9246e46a284f6328960405161132b919061342f565b60405180910390a4610ffc86611d3b565b6060816001600160401b0381111561135657611356612787565b60405190808252806020026020018201604052801561138957816020015b60608152602001906001900390816113745790505b50905060005b8281101561093f576113f9308585848181106113ad576113ad61312c565b90506020028101906113bf919061307d565b8080601f016020809104026020016040519081016040528093929190818152602001838380828437600092019190915250611e7192505050565b82828151811061140b5761140b61312c565b6020026020010181905250808061142190613158565b91505061138f565b7f000000000000000000000000000000000000000000000000000000000000000090565b336001600160a01b037f0000000000000000000000000000000000000000000000000000000000000000161480611488575061148833610c29565b6114a45760405162461bcd60e51b815260040161073e9061338c565b610f34848484848080601f016020809104026020016040519081016040528093929190818152602001838380828437600092019190915250611af792505050565b60008060006114f2611834565b90506114ff868686611e96565b60a0870135600090815260038301602052604090205490925060ff1615801561152c575061152c82610c29565b925050935093915050565b6000611541611429565b6001600160a01b03166370a08231306040518263ffffffff1660e01b815260040161156c9190612e1d565b602060405180830381865afa158015611589573d6000803e3d6000fd5b505050506040513d601f19601f820116820180604052508101906115ad91906134ae565b905090565b60006115bc611429565b604051631aab3f0d60e11b8152306004820152600060248201526001600160a01b0391909116906335567e1a9060440161156c565b60006115fb6117b7565b805490915060ff80821691610100900416801580801561161e575060018360ff16105b8061163d575061162d30611efa565b15801561163d57508260ff166001145b6116a05760405162461bcd60e51b815260206004820152602e60248201527f496e697469616c697a61626c653a20636f6e747261637420697320616c72656160448201526d191e481a5b9a5d1a585b1a5e995960921b606482015260840161073e565b835460ff1916600117845580156116bf57835461ff0019166101001784555b6116ca876001611b68565b8015610eca57835461ff0019168455604051600181527f7f26b83ff96e1f2b6a682f133852f6798a09c465da95921460cefb38474024989060200160405180910390a150505050505050565b60606000611722611f09565b9050806000018054611733906134c7565b80601f016020809104026020016040519081016040528092919081815260200182805461175f906134c7565b80156117ac5780601f10611781576101008083540402835291602001916117ac565b820191906000526020600020905b81548152906001019060200180831161178f57829003601f168201915b505050505091505090565b7f627d6cbb4eb558f37de3c2ec08b04710e54e06be936a302f087f7bfb80f39ae090565b60006001600160e01b03198216630271189760e51b148061057d57506301ffc9a760e01b6001600160e01b031983161461057d565b600080600061181f8585611f2d565b9150915061182c81611f73565b509392505050565b7ff2776159535489b2c8217c06dac58993e45cb245272f968642d4d3ef6aa7615090565b6000600482101561187b5760405162461bcd60e51b815260040161073e906134fc565b611889600460008486613524565b610d539161354e565b60008060448310156118b65760405162461bcd60e51b815260040161073e906134fc565b6118c4602460048587613524565b8101906118d19190612a3d565b91506118e1604460248587613524565b8101906118ee9190612953565b90509250929050565b6001600160a01b03811660009081526001830160205260408120541515610d53565b60608080606484101561193e5760405162461bcd60e51b815260040161073e906134fc565b61194b8460048188613524565b81019061195891906135fd565b919790965090945092505050565b60606000610d53836120bc565b6000610d53836001600160a01b038416612118565b6000610d53836001600160a01b03841661220b565b6119a5611429565b6001600160a01b0316336001600160a01b031614611a045760405162461bcd60e51b815260206004820152601c60248201527b1858d8dbdd5b9d0e881b9bdd08199c9bdb48115b9d1c9e541bda5b9d60221b604482015260640161073e565b565b7b0ca2ba3432b932bab69029b4b3b732b21026b2b9b9b0b3b29d05199960211b6000908152601c829052603c81206000611a84611a4761014087018761307d565b8080601f01602080910402602001604051908101604052809392919081815260200183838082843760009201919091525086939250506118109050565b9050611a90818661063c565b611a9f5760019250505061057d565b506000949350505050565b801561105257604051600090339060001990849084818181858888f193505050503d8060008114610f34576040519150601f19603f3d011682016040523d82523d6000602084013e610f34565b60606000846001600160a01b03168484604051611b1491906136e2565b60006040518083038185875af1925050503d8060008114611b51576040519150601f19603f3d011682016040523d82523d6000602084013e611b56565b606091505b50925090508061182c57815160208301fd5b611b72828261225a565b6001600160a01b037f0000000000000000000000000000000000000000000000000000000000000000163b15610f6a578015611bf45760405163ed9e4b7d60e01b81526001600160a01b037f0000000000000000000000000000000000000000000000000000000000000000169063ed9e4b7d90610fce908590600401612e1d565b60405163776c4eb960e11b81526001600160a01b037f0000000000000000000000000000000000000000000000000000000000000000169063eed89d7290610fce908590600401612e1d565b60006115ad33610c29565b6000611c55611f09565b90506000816000018054611c68906134c7565b80601f0160208091040260200160405190810160405280929190818152602001828054611c94906134c7565b8015611ce15780601f10611cb657610100808354040283529160200191611ce1565b820191906000526020600020905b815481529060010190602001808311611cc457829003601f168201915b50508651939450611cfc9386935060208801925090506126af565b507fc9c7c3fe08b88b4df9d4d47ef47d2c43d55c025a0ba88ca442580ed9e7348a168184604051611d2e9291906136fe565b60405180910390a1505050565b6001600160a01b037f0000000000000000000000000000000000000000000000000000000000000000163b15611052576000611d7d60608301604084016133f2565b6001811115611d8e57611d8e6133cd565b1415611e09576001600160a01b037f00000000000000000000000000000000000000000000000000000000000000001663ed9e4b7d611dd36040840160208501612a3d565b6040518263ffffffff1660e01b8152600401611def9190612e1d565b600060405180830381600087803b158015610f2057600080fd5b6001611e1b60608301604084016133f2565b6001811115611e2c57611e2c6133cd565b1415611052576001600160a01b037f00000000000000000000000000000000000000000000000000000000000000001663eed89d72611dd36040840160208501612a3d565b6060610d5383836040518060600160405280602781526020016137ae602791396122c7565b6000611ef283838080601f016020809104026020016040519081016040528093929190818152602001838380828437600092019190915250611eec9250611ee091508890506123a2565b80519060200120612438565b90611810565b949350505050565b6001600160a01b03163b151590565b7fa7d40346e44ca145e94a946aa34a7d4a67245577dc18699a626fe0ffc6ce328190565b600080825160411415611f645760208301516040840151606085015160001a611f5887828585612465565b94509450505050611f6c565b506000905060025b9250929050565b6000816004811115611f8757611f876133cd565b1415611f905750565b6001816004811115611fa457611fa46133cd565b1415611fed5760405162461bcd60e51b815260206004820152601860248201527745434453413a20696e76616c6964207369676e617475726560401b604482015260640161073e565b6002816004811115612001576120016133cd565b141561204f5760405162461bcd60e51b815260206004820152601f60248201527f45434453413a20696e76616c6964207369676e6174757265206c656e67746800604482015260640161073e565b6003816004811115612063576120636133cd565b14156110525760405162461bcd60e51b815260206004820152602260248201527f45434453413a20696e76616c6964207369676e6174757265202773272076616c604482015261756560f01b606482015260840161073e565b60608160000180548060200260200160405190810160405280929190818152602001828054801561210c57602002820191906000526020600020905b8154815260200190600101908083116120f8575b50505050509050919050565b6000818152600183016020526040812054801561220157600061213c60018361372c565b85549091506000906121509060019061372c565b90508181146121b55760008660000182815481106121705761217061312c565b90600052602060002001549050808760000184815481106121935761219361312c565b6000918252602080832090910192909255918252600188019052604090208390555b85548690806121c6576121c6613743565b60019003818190600052602060002001600090559055856001016000868152602001908152602001600020600090556001935050505061057d565b600091505061057d565b60008181526001830160205260408120546122525750815460018181018455600084815260208082209093018490558454848252828601909352604090209190915561057d565b50600061057d565b6000612264611834565b6001600160a01b03841660008181526020838152604091829020805460ff1916871515908117909155915191825292935090917f235bc17e7930760029e9f4d860a2a8089976de5b381cf8380fc11c1d88a11133910160405180910390a2505050565b60606122d284611efa565b61232d5760405162461bcd60e51b815260206004820152602660248201527f416464726573733a2064656c65676174652063616c6c20746f206e6f6e2d636f6044820152651b9d1c9858dd60d21b606482015260840161073e565b600080856001600160a01b03168560405161234891906136e2565b600060405180830381855af49150503d8060008114612383576040519150601f19603f3d011682016040523d82523d6000602084013e612388565b606091505b509150915061239882828661251f565b9695505050505050565b60607f633dd7662365dad9114dda167df2bc8b5e996b3cf8d1abdffa2b3e2b54d8e39982356123d76040850160208601612a3d565b6123e760608601604087016133f2565b6123f76080870160608801613221565b61240760a0880160808901613221565b8760a001356040516020016124229796959493929190613759565b6040516020818303038152906040529050919050565b600061057d612445612558565b8360405161190160f01b8152600281019290925260228201526042902090565b6000806fa2a8918ca85bafe22016d0b997e4df60600160ff1b038311156124925750600090506003612516565b6040805160008082526020820180845289905260ff881692820192909252606081018690526080810185905260019060a0016020604051602081039080840390855afa1580156124e6573d6000803e3d6000fd5b5050604051601f1901519150506001600160a01b03811661250f57600060019250925050612516565b9150600090505b94509492505050565b6060831561252e575081610d53565b82511561253e5782518084602001fd5b8160405162461bcd60e51b815260040161073e9190613002565b6000306001600160a01b037f0000000000000000000000000000000000000000000000000000000000000000161480156125b157507f000000000000000000000000000000000000000000000000000000000000000046145b156125db57507f000000000000000000000000000000000000000000000000000000000000000090565b604080517f00000000000000000000000000000000000000000000000000000000000000006020808301919091527f0000000000000000000000000000000000000000000000000000000000000000828401527f000000000000000000000000000000000000000000000000000000000000000060608301524660808301523060a0808401919091528351808403909101815260c090920190925280519101206115ad565b6040805160a0810182526000808252606060208301819052928201819052918101829052608081019190915290565b8280546126bb906134c7565b90600052602060002090601f0160209004810192826126dd5760008555612723565b82601f106126f657805160ff1916838001178555612723565b82800160010185558215612723579182015b82811115612723578251825591602001919060010190612708565b5061272f929150612733565b5090565b5b8082111561272f5760008155600101612734565b60006020828403121561275a57600080fd5b81356001600160e01b031981168114610d5357600080fd5b6001600160a01b038116811461105257600080fd5b634e487b7160e01b600052604160045260246000fd5b604051601f8201601f191681016001600160401b03811182821017156127c5576127c5612787565b604052919050565b60006001600160401b038311156127e6576127e6612787565b6127f9601f8401601f191660200161279d565b905082815283838301111561280d57600080fd5b828260208301376000602084830101529392505050565b600082601f83011261283557600080fd5b610d53838335602085016127cd565b6000806000806080858703121561285a57600080fd5b843561286581612772565b9350602085013561287581612772565b92506040850135915060608501356001600160401b0381111561289757600080fd5b6128a387828801612824565b91505092959194509250565b600080604083850312156128c257600080fd5b8235915060208301356001600160401b038111156128df57600080fd5b6128eb85828601612824565b9150509250929050565b6000610160828403121561290857600080fd5b50919050565b6000806040838503121561292157600080fd5b823561292c81612772565b915060208301356001600160401b0381111561294757600080fd5b6128eb858286016128f5565b60006020828403121561296557600080fd5b5035919050565b6001600160801b03169052565b60208082528251828201528281015160a06040840152805160c0840181905260009291820190839060e08601905b808310156129d05783516001600160a01b031682529284019260019290920191908401906129a7565b5060408701516060870152606087015193506129ef608087018561296c565b6080870151935061239860a087018561296c565b600060208284031215612a1557600080fd5b81356001600160401b03811115612a2b57600080fd5b820160a08185031215610d5357600080fd5b600060208284031215612a4f57600080fd5b8135610d5381612772565b600080600060608486031215612a6f57600080fd5b83356001600160401b03811115612a8557600080fd5b612a91868287016128f5565b9660208601359650604090950135949350505050565b60008083601f840112612ab957600080fd5b5081356001600160401b03811115612ad057600080fd5b6020830191508360208260051b8501011115611f6c57600080fd5b60008060008060008060608789031215612b0457600080fd5b86356001600160401b0380821115612b1b57600080fd5b612b278a838b01612aa7565b90985096506020890135915080821115612b4057600080fd5b612b4c8a838b01612aa7565b90965094506040890135915080821115612b6557600080fd5b50612b7289828a01612aa7565b979a9699509497509295939492505050565b60008060408385031215612b9757600080fd5b8235612ba281612772565b915060208301358015158114612bb757600080fd5b809150509250929050565b60008060408385031215612bd557600080fd5b8235612be081612772565b946020939093013593505050565b600060208284031215612c0057600080fd5b81356001600160401b03811115612c1657600080fd5b8201601f81018413612c2757600080fd5b611ef2848235602084016127cd565b6020808252825182820181905260009190848201906040850190845b81811015612c775783516001600160a01b031683529284019291840191600101612c52565b50909695505050505050565b60008083601f840112612c9557600080fd5b5081356001600160401b03811115612cac57600080fd5b602083019150836020828501011115611f6c57600080fd5b600080600083850360e0811215612cda57600080fd5b60c0811215612ce857600080fd5b5083925060c08401356001600160401b03811115612d0557600080fd5b612d1186828701612c83565b9497909650939450505050565b60008060208385031215612d3157600080fd5b82356001600160401b03811115612d4757600080fd5b612d5385828601612aa7565b90969095509350505050565b60005b83811015612d7a578181015183820152602001612d62565b83811115612d89576000848401525b50505050565b60008151808452612da7816020860160208601612d5f565b601f01601f19169290920160200192915050565b6000602080830181845280855180835260408601915060408160051b870101925083870160005b82811015612e1057603f19888603018452612dfe858351612d8f565b94509285019290850190600101612de2565b5092979650505050505050565b6001600160a01b0391909116815260200190565b60008060008060608587031215612e4757600080fd5b8435612e5281612772565b93506020850135925060408501356001600160401b03811115612e7457600080fd5b612e8087828801612c83565b95989497509550505050565b60006001600160401b03821115612ea557612ea5612787565b5060051b60200190565b600082601f830112612ec057600080fd5b81356020612ed5612ed083612e8c565b61279d565b82815260059290921b84018101918181019086841115612ef457600080fd5b8286015b84811015612f0f5780358352918301918301612ef8565b509695505050505050565b600080600080600060a08688031215612f3257600080fd5b8535612f3d81612772565b94506020860135612f4d81612772565b935060408601356001600160401b0380821115612f6957600080fd5b612f7589838a01612eaf565b94506060880135915080821115612f8b57600080fd5b612f9789838a01612eaf565b93506080880135915080821115612fad57600080fd5b50612fba88828901612824565b9150509295509295909350565b600080600060408486031215612fdc57600080fd5b8335612fe781612772565b925060208401356001600160401b03811115612d0557600080fd5b602081526000610d536020830184612d8f565b600080600080600060a0868803121561302d57600080fd5b853561303881612772565b9450602086013561304881612772565b9350604086013592506060860135915060808601356001600160401b0381111561307157600080fd5b612fba88828901612824565b6000808335601e1984360301811261309457600080fd5b8301803591506001600160401b038211156130ae57600080fd5b602001915036819003821315611f6c57600080fd5b60208082526018908201527720b1b1b7bab73a1d103b30b63ab2903a37b7903434b3b41760411b604082015260600190565b6020808252601d908201527f4163636f756e743a20746172676574206e6f7420617070726f7665642e000000604082015260600190565b634e487b7160e01b600052603260045260246000fd5b634e487b7160e01b600052601160045260246000fd5b600060001982141561316c5761316c613142565b5060010190565b6020808252602a908201527f4163636f756e745065726d697373696f6e733a2063616c6c6572206973206e6f6040820152693a1030b71030b236b4b760b11b606082015260800190565b60208082526028908201527f4163636f756e745065726d697373696f6e733a20726f6c652063616e6e6f7420604082015267626520656d70747960c01b606082015260800190565b80356001600160801b038116811461321c57600080fd5b919050565b60006020828403121561323357600080fd5b610d5382613205565b6000821982111561324f5761324f613142565b500190565b6000808335601e1984360301811261326b57600080fd5b8301803591506001600160401b0382111561328557600080fd5b6020019150600581901b3603821315611f6c57600080fd5b8183526000602080850194508260005b858110156132db5781356132c081612772565b6001600160a01b0316875295820195908201906001016132ad565b509495945050505050565b602081528135602082015260006020830135601e1984360301811261330a57600080fd5b830180356001600160401b0381111561332257600080fd5b8060051b360385131561333457600080fd5b60a0604085015261334c60c08501826020850161329d565b9150506040840135606084015261336560608501613205565b613372608085018261296c565b5061337f60808501613205565b61182c60a085018261296c565b60208082526021908201527f4163636f756e743a206e6f742061646d696e206f7220456e747279506f696e746040820152601760f91b606082015260800190565b634e487b7160e01b600052602160045260246000fd5b80356002811061321c57600080fd5b60006020828403121561340457600080fd5b610d53826133e3565b6002811061342b57634e487b7160e01b600052602160045260246000fd5b9052565b8135815260c08101602083013561344581612772565b6001600160a01b0316602083015261345f604084016133e3565b61346c604084018261340d565b5061347960608401613205565b6001600160801b0381811660608501528061349660808701613205565b166080850152505060a083013560a083015292915050565b6000602082840312156134c057600080fd5b5051919050565b600181811c908216806134db57607f821691505b6020821081141561290857634e487b7160e01b600052602260045260246000fd5b6020808252600e908201526d11185d18481d1bdbc81cda1bdc9d60921b604082015260600190565b6000808585111561353457600080fd5b8386111561354157600080fd5b5050820193919092039150565b6001600160e01b031981358181169160048510156135765780818660040360031b1b83161692505b505092915050565b600082601f83011261358f57600080fd5b8135602061359f612ed083612e8c565b82815260059290921b840181019181810190868411156135be57600080fd5b8286015b84811015612f0f5780356001600160401b038111156135e15760008081fd5b6135ef8986838b0101612824565b8452509183019183016135c2565b60008060006060848603121561361257600080fd5b83356001600160401b038082111561362957600080fd5b818601915086601f83011261363d57600080fd5b8135602061364d612ed083612e8c565b82815260059290921b8401810191818101908a84111561366c57600080fd5b948201945b8386101561369357853561368481612772565b82529482019490820190613671565b975050870135925050808211156136a957600080fd5b6136b587838801612eaf565b935060408601359150808211156136cb57600080fd5b506136d88682870161357e565b9150509250925092565b600082516136f4818460208701612d5f565b9190910192915050565b6040815260006137116040830185612d8f565b82810360208401526137238185612d8f565b95945050505050565b60008282101561373e5761373e613142565b500390565b634e487b7160e01b600052603160045260246000fd5b878152602081018790526001600160a01b038616604082015260e08101613783606083018761340d565b6001600160801b0394851660808301529290931660a084015260c09092019190915294935050505056fe416464726573733a206c6f772d6c6576656c2064656c65676174652063616c6c206661696c6564a2646970667358221220c5899c332006a8df6cbf261067e74cdfbd8a39ca0af4d5b3cd5ae15707c4577064736f6c634300080c0033",
    "linkReferences": {}
  },
  "methodIdentifiers": {
    "DEFAULT_ADMIN_ROLE()": "a217fddf",
    "accountImplementation()": "11464fbe",
    "contractURI()": "e8a3d485",
    "createAccount(address,bytes)": "d8fd8f44",
    "getAccountsOfSigner(address)": "0e6254fd",
    "getAddress(address,bytes)": "8878ed33",
    "getRoleAdmin(bytes32)": "248a9ca3",
    "getRoleMember(bytes32,uint256)": "9010d07c",
    "getRoleMemberCount(bytes32)": "ca15c873",
    "getSignersOfAccount(address)": "cafba3a4",
    "grantRole(bytes32,address)": "2f2ff15d",
    "hasRole(bytes32,address)": "91d14854",
    "hasRoleWithSwitch(bytes32,address)": "a32fa5b3",
    "multicall(bytes[])": "ac9650d8",
    "onSignerAdded(address)": "ed9e4b7d",
    "onSignerRemoved(address)": "eed89d72",
    "renounceRole(bytes32,address)": "36568abe",
    "revokeRole(bytes32,address)": "d547741f",
    "setContractURI(string)": "938e3d7b"
  },
  "id": 302
}