{
  "abi": [
    {
      "inputs": [
        {
          "internalType": "contract IEntryPoint",
          "name": "_entrypoint",
          "type": "address"
        }
      ],
      "stateMutability": "nonpayable",
      "type": "constructor"
    },
    {
      "anonymous": false,
      "inputs": [
        {
          "indexed": true,
          "internalType": "address",
          "name": "account",
          "type": "address"
        },
        {
          "indexed": true,
          "internalType": "address",
          "name": "accountAdmin",
          "type": "address"
        }
      ],
      "name": "AccountCreated",
      "type": "event"
    },
    {
      "anonymous": false,
      "inputs": [
        {
          "indexed": false,
          "internalType": "string",
          "name": "prevURI",
          "type": "string"
        },
        {
          "indexed": false,
          "internalType": "string",
          "name": "newURI",
          "type": "string"
        }
      ],
      "name": "ContractURIUpdated",
      "type": "event"
    },
    {
      "anonymous": false,
      "inputs": [
        {
          "indexed": true,
          "internalType": "bytes32",
          "name": "role",
          "type": "bytes32"
        },
        {
          "indexed": true,
          "internalType": "bytes32",
          "name": "previousAdminRole",
          "type": "bytes32"
        },
        {
          "indexed": true,
          "internalType": "bytes32",
          "name": "newAdminRole",
          "type": "bytes32"
        }
      ],
      "name": "RoleAdminChanged",
      "type": "event"
    },
    {
      "anonymous": false,
      "inputs": [
        {
          "indexed": true,
          "internalType": "bytes32",
          "name": "role",
          "type": "bytes32"
        },
        {
          "indexed": true,
          "internalType": "address",
          "name": "account",
          "type": "address"
        },
        {
          "indexed": true,
          "internalType": "address",
          "name": "sender",
          "type": "address"
        }
      ],
      "name": "RoleGranted",
      "type": "event"
    },
    {
      "anonymous": false,
      "inputs": [
        {
          "indexed": true,
          "internalType": "bytes32",
          "name": "role",
          "type": "bytes32"
        },
        {
          "indexed": true,
          "internalType": "address",
          "name": "account",
          "type": "address"
        },
        {
          "indexed": true,
          "internalType": "address",
          "name": "sender",
          "type": "address"
        }
      ],
      "name": "RoleRevoked",
      "type": "event"
    },
    {
      "anonymous": false,
      "inputs": [
        {
          "indexed": true,
          "internalType": "address",
          "name": "account",
          "type": "address"
        },
        {
          "indexed": true,
          "internalType": "address",
          "name": "signer",
          "type": "address"
        }
      ],
      "name": "SignerAdded",
      "type": "event"
    },
    {
      "anonymous": false,
      "inputs": [
        {
          "indexed": true,
          "internalType": "address",
          "name": "account",
          "type": "address"
        },
        {
          "indexed": true,
          "internalType": "address",
          "name": "signer",
          "type": "address"
        }
      ],
      "name": "SignerRemoved",
      "type": "event"
    },
    {
      "inputs": [],
      "name": "DEFAULT_ADMIN_ROLE",
      "outputs": [
        {
          "internalType": "bytes32",
          "name": "",
          "type": "bytes32"
        }
      ],
      "stateMutability": "view",
      "type": "function"
    },
    {
      "inputs": [],
      "name": "accountImplementation",
      "outputs": [
        {
          "internalType": "address",
          "name": "",
          "type": "address"
        }
      ],
      "stateMutability": "view",
      "type": "function"
    },
    {
      "inputs": [],
      "name": "contractURI",
      "outputs": [
        {
          "internalType": "string",
          "name": "",
          "type": "string"
        }
      ],
      "stateMutability": "view",
      "type": "function"
    },
    {
      "inputs": [
        {
          "internalType": "address",
          "name": "_admin",
          "type": "address"
        },
        {
          "internalType": "bytes",
          "name": "_data",
          "type": "bytes"
        }
      ],
      "name": "createAccount",
      "outputs": [
        {
          "internalType": "address",
          "name": "",
          "type": "address"
        }
      ],
      "stateMutability": "nonpayable",
      "type": "function"
    },
    {
      "inputs": [],
      "name": "entrypoint",
      "outputs": [
        {
          "internalType": "address",
          "name": "",
          "type": "address"
        }
      ],
      "stateMutability": "view",
      "type": "function"
    },
    {
      "inputs": [
        {
          "internalType": "address",
          "name": "signer",
          "type": "address"
        }
      ],
      "name": "getAccountsOfSigner",
      "outputs": [
        {
          "internalType": "address[]",
          "name": "accounts",
          "type": "address[]"
        }
      ],
      "stateMutability": "view",
      "type": "function"
    },
    {
      "inputs": [
        {
          "internalType": "address",
          "name": "_adminSigner",
          "type": "address"
        },
        {
          "internalType": "bytes",
          "name": "_data",
          "type": "bytes"
        }
      ],
      "name": "getAddress",
      "outputs": [
        {
          "internalType": "address",
          "name": "",
          "type": "address"
        }
      ],
      "stateMutability": "view",
      "type": "function"
    },
    {
      "inputs": [],
      "name": "getAllAccounts",
      "outputs": [
        {
          "internalType": "address[]",
          "name": "",
          "type": "address[]"
        }
      ],
      "stateMutability": "view",
      "type": "function"
    },
    {
      "inputs": [
        {
          "internalType": "bytes32",
          "name": "role",
          "type": "bytes32"
        }
      ],
      "name": "getRoleAdmin",
      "outputs": [
        {
          "internalType": "bytes32",
          "name": "",
          "type": "bytes32"
        }
      ],
      "stateMutability": "view",
      "type": "function"
    },
    {
      "inputs": [
        {
          "internalType": "bytes32",
          "name": "role",
          "type": "bytes32"
        },
        {
          "internalType": "uint256",
          "name": "index",
          "type": "uint256"
        }
      ],
      "name": "getRoleMember",
      "outputs": [
        {
          "internalType": "address",
          "name": "member",
          "type": "address"
        }
      ],
      "stateMutability": "view",
      "type": "function"
    },
    {
      "inputs": [
        {
          "internalType": "bytes32",
          "name": "role",
          "type": "bytes32"
        }
      ],
      "name": "getRoleMemberCount",
      "outputs": [
        {
          "internalType": "uint256",
          "name": "count",
          "type": "uint256"
        }
      ],
      "stateMutability": "view",
      "type": "function"
    },
    {
      "inputs": [
        {
          "internalType": "address",
          "name": "account",
          "type": "address"
        }
      ],
      "name": "getSignersOfAccount",
      "outputs": [
        {
          "internalType": "address[]",
          "name": "signers",
          "type": "address[]"
        }
      ],
      "stateMutability": "view",
      "type": "function"
    },
    {
      "inputs": [
        {
          "internalType": "bytes32",
          "name": "role",
          "type": "bytes32"
        },
        {
          "internalType": "address",
          "name": "account",
          "type": "address"
        }
      ],
      "name": "grantRole",
      "outputs": [],
      "stateMutability": "nonpayable",
      "type": "function"
    },
    {
      "inputs": [
        {
          "internalType": "bytes32",
          "name": "role",
          "type": "bytes32"
        },
        {
          "internalType": "address",
          "name": "account",
          "type": "address"
        }
      ],
      "name": "hasRole",
      "outputs": [
        {
          "internalType": "bool",
          "name": "",
          "type": "bool"
        }
      ],
      "stateMutability": "view",
      "type": "function"
    },
    {
      "inputs": [
        {
          "internalType": "bytes32",
          "name": "role",
          "type": "bytes32"
        },
        {
          "internalType": "address",
          "name": "account",
          "type": "address"
        }
      ],
      "name": "hasRoleWithSwitch",
      "outputs": [
        {
          "internalType": "bool",
          "name": "",
          "type": "bool"
        }
      ],
      "stateMutability": "view",
      "type": "function"
    },
    {
      "inputs": [
        {
          "internalType": "address",
          "name": "_account",
          "type": "address"
        }
      ],
      "name": "isRegistered",
      "outputs": [
        {
          "internalType": "bool",
          "name": "",
          "type": "bool"
        }
      ],
      "stateMutability": "view",
      "type": "function"
    },
    {
      "inputs": [
        {
          "internalType": "bytes[]",
          "name": "data",
          "type": "bytes[]"
        }
      ],
      "name": "multicall",
      "outputs": [
        {
          "internalType": "bytes[]",
          "name": "results",
          "type": "bytes[]"
        }
      ],
      "stateMutability": "nonpayable",
      "type": "function"
    },
    {
      "inputs": [],
      "name": "onRegister",
      "outputs": [],
      "stateMutability": "nonpayable",
      "type": "function"
    },
    {
      "inputs": [
        {
          "internalType": "address",
          "name": "_signer",
          "type": "address"
        }
      ],
      "name": "onSignerAdded",
      "outputs": [],
      "stateMutability": "nonpayable",
      "type": "function"
    },
    {
      "inputs": [
        {
          "internalType": "address",
          "name": "_signer",
          "type": "address"
        }
      ],
      "name": "onSignerRemoved",
      "outputs": [],
      "stateMutability": "nonpayable",
      "type": "function"
    },
    {
      "inputs": [
        {
          "internalType": "bytes32",
          "name": "role",
          "type": "bytes32"
        },
        {
          "internalType": "address",
          "name": "account",
          "type": "address"
        }
      ],
      "name": "renounceRole",
      "outputs": [],
      "stateMutability": "nonpayable",
      "type": "function"
    },
    {
      "inputs": [
        {
          "internalType": "bytes32",
          "name": "role",
          "type": "bytes32"
        },
        {
          "internalType": "address",
          "name": "account",
          "type": "address"
        }
      ],
      "name": "revokeRole",
      "outputs": [],
      "stateMutability": "nonpayable",
      "type": "function"
    },
    {
      "inputs": [
        {
          "internalType": "string",
          "name": "_uri",
          "type": "string"
        }
      ],
      "name": "setContractURI",
      "outputs": [],
      "stateMutability": "nonpayable",
      "type": "function"
    }
  ],
  "bytecode": {
    "object": "0x60c06040523480156200001157600080fd5b506040516200614b3803806200614b833981016040819052620000349162000234565b8030604051620000449062000226565b6001600160a01b03928316815291166020820152604001604051809103906000f08015801562000078573d6000803e3d6000fd5b506001600160a01b03908116608052811660a05262000099600033620000a0565b506200028d565b620000b78282620000c760201b62000e3a1760201c565b620000c3828262000158565b5050565b6000620000de620001de60201b62000ebd1760201c565b6000848152602082815260408083206001600160a01b03871684529091529020805460ff191660011790559050620001133390565b6001600160a01b0316826001600160a01b0316847f2f8788117e7eff1d82e926ec794901d17c78024a50270940304540a733656f0d60405160405180910390a4505050565b60006200016f6200020260201b62000ee11760201c565b6000848152602082905260408120805492935060019162000191838562000266565b909155505060009384526020918252604080852082865260018101845281862080546001600160a01b039096166001600160a01b0319909616861790559385526002909301909152912055565b7fd0ebebe8e6445c62babf8fef767eb39f1002bb957bb5b83258275a4e46428ed590565b7f0c4ba382c0009cf238e4c1ca1a52f51c61e6248a70bdfb34e5ed49d5578a5c0c90565b613c5380620024f883390190565b6000602082840312156200024757600080fd5b81516001600160a01b03811681146200025f57600080fd5b9392505050565b600082198211156200028857634e487b7160e01b600052601160045260246000fd5b500190565b60805160a051612229620002cf6000396000818161024c015261096a015260008181610158015281816104b0015281816108fe01526111b901526122296000f3fe608060405234801561001057600080fd5b506004361061011d5760003560e01c806308e93d0a146101225780630e6254fd1461014057806311464fbe14610153578063248a9ca3146101875780632f2ff15d146101a857806336568abe146101bd5780638878ed33146101d05780639010d07c146101e357806391d14854146101f6578063938e3d7b14610219578063a217fddf1461022c578063a32fa5b314610234578063a65d69d414610247578063ac9650d81461026e578063c3c5a5471461028e578063c7b90cc3146102a1578063ca15c873146102a9578063cafba3a4146102bc578063d547741f146102cf578063d8fd8f44146102e2578063e8a3d485146102f5578063ed9e4b7d1461030a578063eed89d721461031d575b600080fd5b61012a610330565b60405161013791906119fc565b60405180910390f35b61012a61014e366004611a5e565b610341565b61017a7f000000000000000000000000000000000000000000000000000000000000000081565b6040516101379190611a7b565b61019a610195366004611a8f565b61036b565b604051908152602001610137565b6101bb6101b6366004611aa8565b61038b565b005b6101bb6101cb366004611aa8565b610438565b61017a6101de366004611ad8565b61049b565b61017a6101f1366004611b5c565b6104e0565b610209610204366004611aa8565b6105da565b6040519015158152602001610137565b6101bb610227366004611bec565b610610565b61019a600081565b610209610242366004611aa8565b610661565b61017a7f000000000000000000000000000000000000000000000000000000000000000081565b61028161027c366004611c80565b6106c2565b6040516101379190611d50565b61020961029c366004611a5e565b6107b6565b6101bb6107c2565b61019a6102b7366004611a8f565b61080f565b61012a6102ca366004611a5e565b6108a4565b6101bb6102dd366004611aa8565b6108c8565b61017a6102f0366004611ad8565b6108fa565b6102fd610a0c565b6040516101379190611db2565b6101bb610318366004611a5e565b610aad565b6101bb61032b366004611a5e565b610d2c565b606061033c6000610f05565b905090565b6001600160a01b038116600090815260026020526040902060609061036590610f05565b92915050565b600080610376610ebd565b60009384526001016020525050604090205490565b6000610395610ebd565b60008481526001820160205260409020549091506103b39033610f12565b6000838152602082815260408083206001600160a01b038616845290915290205460ff16156104295760405162461bcd60e51b815260206004820152601d60248201527f43616e206f6e6c79206772616e7420746f206e6f6e20686f6c6465727300000060448201526064015b60405180910390fd5b6104338383610f9d565b505050565b336001600160a01b0382161461048d5760405162461bcd60e51b815260206004820152601a60248201527921b0b71037b7363c903932b737bab731b2903337b91039b2b63360311b6044820152606401610420565b6104978282610fb1565b5050565b6000806104a9858585610fc5565b90506104d57f000000000000000000000000000000000000000000000000000000000000000082610ff7565b9150505b9392505050565b6000806104eb610ee1565b600085815260208290526040812054919250805b828110156105d0576000878152602085815260408083208484526001019091529020546001600160a01b03161561057b5785821415610569576000878152602094855260408082209282526001909201909452909220546001600160a01b03169250610365915050565b610574600183611ddb565b91506105be565b6105868760006105da565b80156105ab575060008781526020858152604080832083805260020190915290205481145b156105be576105bb600183611ddb565b91505b6105c9600182611ddb565b90506104ff565b5050505092915050565b6000806105e5610ebd565b6000948552602090815260408086206001600160a01b03959095168652939052505090205460ff1690565b610618611051565b6106555760405162461bcd60e51b815260206004820152600e60248201526d139bdd08185d5d1a1bdc9a5e995960921b6044820152606401610420565b61065e8161105d565b50565b60008061066c610ebd565b60008581526020828152604080832083805290915290205490915060ff166106b8576000848152602091825260408082206001600160a01b0386168352909252205460ff169050610365565b5060019392505050565b6060816001600160401b038111156106dc576106dc611b7e565b60405190808252806020026020018201604052801561070f57816020015b60608152602001906001900390816106fa5790505b50905060005b828110156107af5761077f3085858481811061073357610733611df3565b90506020028101906107459190611e09565b8080601f01602080910402602001604051908101604052809392919081815260200183838082843760009201919091525061114d92505050565b82828151811061079157610791611df3565b602002602001018190525080806107a790611e56565b915050610715565b5092915050565b60006103658183611172565b336107cc81611194565b6107e85760405162461bcd60e51b815260040161042090611e71565b6107f36000826111f3565b61065e5760405162461bcd60e51b815260040161042090611ea8565b60008061081a610ee1565b6000848152602082905260408120549192505b8181101561087e576000858152602084815260408083208484526001019091529020546001600160a01b03161561086c57610869600185611ddb565b93505b610877600182611ddb565b905061082d565b5061088a8460006105da565b1561089d5761089a600184611ddb565b92505b5050919050565b6001600160a01b038116600090815260036020526040902060609061036590610f05565b60006108d2610ebd565b60008481526001820160205260409020549091506108f09033610f12565b6104338383610fb1565b60007f000000000000000000000000000000000000000000000000000000000000000081610929868686610fc5565b905060006109378383610ff7565b90506001600160a01b0381163b156109535792506104d9915050565b61095d8383611208565b9050336001600160a01b037f000000000000000000000000000000000000000000000000000000000000000016146109b65761099a6000826111f3565b6109b65760405162461bcd60e51b815260040161042090611ea8565b6109c28188888861129f565b866001600160a01b0316816001600160a01b03167fac631f3001b55ea1509cf3d7e74898f85392a61a76e8149181ae1259622dabc860405160405180910390a39695505050505050565b60606000610a18611307565b9050806000018054610a2990611ef2565b80601f0160208091040260200160405190810160405280929190818152602001828054610a5590611ef2565b8015610aa25780601f10610a7757610100808354040283529160200191610aa2565b820191906000526020600020905b815481529060010190602001808311610a8557829003601f168201915b505050505091505090565b33610ab781611194565b610ad35760405162461bcd60e51b815260040161042090611e71565b604051630935e01b60e21b81526000906001600160a01b038316906324d7806c90610b02908690600401611a7b565b602060405180830381865afa158015610b1f573d6000803e3d6000fd5b505050506040513d601f19601f82011682018060405250810190610b439190611f2d565b905080610c3757604051630995f8e360e21b81526000906001600160a01b03841690632657e38c90610b79908790600401611a7b565b600060405180830381865afa158015610b96573d6000803e3d6000fd5b505050506040513d6000823e601f3d908101601f19168201604052610bbe9190810190611f6b565b90504281606001516001600160801b031611158015610be9575080608001516001600160801b031642105b610c355760405162461bcd60e51b815260206004820152601f60248201527f4163636f756e74466163746f72793a20696e76616c6964207369676e65722e006044820152606401610420565b505b6001600160a01b0383166000908152600260205260408120610c5990846111f3565b6001600160a01b038416600090815260036020526040812091925090610c7f90866111f3565b9050811580610c8c575080155b15610ce55760405162461bcd60e51b8152602060048201526024808201527f4163636f756e74466163746f72793a207369676e657220616c726561647920616044820152631919195960e21b6064820152608401610420565b846001600160a01b0316846001600160a01b03167f12146497b3b826918ec47f0cac7272a09ed06b30c16c030e99ec48ff5dd60b4760405160405180910390a35050505050565b33610d3681611194565b610d525760405162461bcd60e51b815260040161042090611e71565b6001600160a01b0382166000908152600260205260408120610d74908361132b565b6001600160a01b038316600090815260036020526040812091925090610d9a908561132b565b9050811580610da7575080155b15610df45760405162461bcd60e51b815260206004820181905260248201527f4163636f756e74466163746f72793a207369676e6572206e6f7420666f756e646044820152606401610420565b836001600160a01b0316836001600160a01b03167f98d1ebbe00ae92a5de96a0f49742a8afa89f42363592bc2e7cfaaed68b45e7a660405160405180910390a350505050565b6000610e44610ebd565b6000848152602082815260408083206001600160a01b03871684529091529020805460ff191660011790559050610e783390565b6001600160a01b0316826001600160a01b0316847f2f8788117e7eff1d82e926ec794901d17c78024a50270940304540a733656f0d60405160405180910390a4505050565b7fd0ebebe8e6445c62babf8fef767eb39f1002bb957bb5b83258275a4e46428ed590565b7f0c4ba382c0009cf238e4c1ca1a52f51c61e6248a70bdfb34e5ed49d5578a5c0c90565b606060006104d983611340565b6000610f1c610ebd565b6000848152602082815260408083206001600160a01b038716845290915290205490915060ff1661043357610f5b826001600160a01b0316601461139c565b610f6684602061139c565b604051602001610f7792919061207b565b60408051601f198184030181529082905262461bcd60e51b825261042091600401611db2565b610fa78282610e3a565b6104978282611537565b610fbb82826115ae565b610497828261161b565b600083604051602001610fd89190611a7b565b6040516020818303038152906040528051906020012090509392505050565b6040513060388201526f5af43d82803e903d91602b57fd5bf3ff60248201526014810192909252733d602d80600a3d3981f3363d3d373d3d3d363d73825260588201526037600c8201206078820152605560439091012090565b600061033c81336105da565b6000611067611307565b9050600081600001805461107a90611ef2565b80601f01602080910402602001604051908101604052809291908181526020018280546110a690611ef2565b80156110f35780601f106110c8576101008083540402835291602001916110f3565b820191906000526020600020905b8154815290600101906020018083116110d657829003601f168201915b5050865193945061110e938693506020880192509050611963565b507fc9c7c3fe08b88b4df9d4d47ef47d2c43d55c025a0ba88ca442580ed9e7348a1681846040516111409291906120e8565b60405180910390a1505050565b60606104d983836040518060600160405280602781526020016121cd60279139611670565b6001600160a01b038116600090815260018301602052604081205415156104d9565b6000806111a08361174d565b90506000836001600160a01b03163b1180156104d957507f00000000000000000000000000000000000000000000000000000000000000006001600160a01b0316816001600160a01b0316149392505050565b60006104d9836001600160a01b038416611783565b6000763d602d80600a3d3981f3363d3d373d3d3d363d730000008360601b60e81c176000526e5af43d82803e903d91602b57fd5bf38360781b1760205281603760096000f590506001600160a01b0381166103655760405162461bcd60e51b8152602060048201526017602482015276115490cc4c4d8dce8818dc99585d194c8819985a5b1959604a1b6044820152606401610420565b60405163347d5e2560e21b81526001600160a01b0385169063d1f57894906112cf9086908690869060040161210d565b600060405180830381600087803b1580156112e957600080fd5b505af11580156112fd573d6000803e3d6000fd5b5050505050505050565b7fa7d40346e44ca145e94a946aa34a7d4a67245577dc18699a626fe0ffc6ce328190565b60006104d9836001600160a01b0384166117d2565b60608160000180548060200260200160405190810160405280929190818152602001828054801561139057602002820191906000526020600020905b81548152602001906001019080831161137c575b50505050509050919050565b606060006113ab83600261214d565b6113b6906002611ddb565b6001600160401b038111156113cd576113cd611b7e565b6040519080825280601f01601f1916602001820160405280156113f7576020820181803683370190505b509050600360fc1b8160008151811061141257611412611df3565b60200101906001600160f81b031916908160001a905350600f60fb1b8160018151811061144157611441611df3565b60200101906001600160f81b031916908160001a905350600061146584600261214d565b611470906001611ddb565b90505b60018111156114e8576f181899199a1a9b1b9c1cb0b131b232b360811b85600f16601081106114a4576114a4611df3565b1a60f81b8282815181106114ba576114ba611df3565b60200101906001600160f81b031916908160001a90535060049490941c936114e18161216c565b9050611473565b5083156104d95760405162461bcd60e51b815260206004820181905260248201527f537472696e67733a20686578206c656e67746820696e73756666696369656e746044820152606401610420565b6000611541610ee1565b600084815260208290526040812080549293506001916115618385611ddb565b909155505060009384526020918252604080852082865260018101845281862080546001600160a01b039096166001600160a01b0319909616861790559385526002909301909152912055565b60006115b8610ebd565b90506115c48383610f12565b6000838152602082815260408083206001600160a01b0386168085529252808320805460ff1916905551339286917ff6391f5c32d9c69d2a47ea670b442974b53935d1edc7fd64eb21e047a839171b9190a4505050565b6000611625610ee1565b6000938452602090815260408085206001600160a01b0390941680865260028501808452828720805488526001909601845291862080546001600160a01b0319169055855290525055565b60606001600160a01b0384163b6116d85760405162461bcd60e51b815260206004820152602660248201527f416464726573733a2064656c65676174652063616c6c20746f206e6f6e2d636f6044820152651b9d1c9858dd60d21b6064820152608401610420565b600080856001600160a01b0316856040516116f39190612183565b600060405180830381855af49150503d806000811461172e576040519150601f19603f3d011682016040523d82523d6000602084013e611733565b606091505b50915091506117438282866118c5565b9695505050505050565b600080826001600160a01b0316803b806020016040519081016040528181526000908060200190933c90506104d981600a6118fe565b60008181526001830160205260408120546117ca57508154600181810184556000848152602080822090930184905584548482528286019093526040902091909155610365565b506000610365565b600081815260018301602052604081205480156118bb5760006117f660018361219f565b855490915060009061180a9060019061219f565b905081811461186f57600086600001828154811061182a5761182a611df3565b906000526020600020015490508087600001848154811061184d5761184d611df3565b6000918252602080832090910192909255918252600188019052604090208390555b8554869080611880576118806121b6565b600190038181906000526020600020016000905590558560010160008681526020019081526020016000206000905560019350505050610365565b6000915050610365565b606083156118d45750816104d9565b8251156118e45782518084602001fd5b8160405162461bcd60e51b81526004016104209190611db2565b600061190b826014611ddb565b835110156119535760405162461bcd60e51b8152602060048201526015602482015274746f416464726573735f6f75744f66426f756e647360581b6044820152606401610420565b500160200151600160601b900490565b82805461196f90611ef2565b90600052602060002090601f01602090048101928261199157600085556119d7565b82601f106119aa57805160ff19168380011785556119d7565b828001600101855582156119d7579182015b828111156119d75782518255916020019190600101906119bc565b506119e39291506119e7565b5090565b5b808211156119e357600081556001016119e8565b6020808252825182820181905260009190848201906040850190845b81811015611a3d5783516001600160a01b031683529284019291840191600101611a18565b50909695505050505050565b6001600160a01b038116811461065e57600080fd5b600060208284031215611a7057600080fd5b81356104d981611a49565b6001600160a01b0391909116815260200190565b600060208284031215611aa157600080fd5b5035919050565b60008060408385031215611abb57600080fd5b823591506020830135611acd81611a49565b809150509250929050565b600080600060408486031215611aed57600080fd5b8335611af881611a49565b925060208401356001600160401b0380821115611b1457600080fd5b818601915086601f830112611b2857600080fd5b813581811115611b3757600080fd5b876020828501011115611b4957600080fd5b6020830194508093505050509250925092565b60008060408385031215611b6f57600080fd5b50508035926020909101359150565b634e487b7160e01b600052604160045260246000fd5b60405160a081016001600160401b0381118282101715611bb657611bb6611b7e565b60405290565b604051601f8201601f191681016001600160401b0381118282101715611be457611be4611b7e565b604052919050565b60006020808385031215611bff57600080fd5b82356001600160401b0380821115611c1657600080fd5b818501915085601f830112611c2a57600080fd5b813581811115611c3c57611c3c611b7e565b611c4e601f8201601f19168501611bbc565b91508082528684828501011115611c6457600080fd5b8084840185840137600090820190930192909252509392505050565b60008060208385031215611c9357600080fd5b82356001600160401b0380821115611caa57600080fd5b818501915085601f830112611cbe57600080fd5b813581811115611ccd57600080fd5b8660208260051b8501011115611ce257600080fd5b60209290920196919550909350505050565b60005b83811015611d0f578181015183820152602001611cf7565b83811115611d1e576000848401525b50505050565b60008151808452611d3c816020860160208601611cf4565b601f01601f19169290920160200192915050565b6000602080830181845280855180835260408601915060408160051b870101925083870160005b82811015611da557603f19888603018452611d93858351611d24565b94509285019290850190600101611d77565b5092979650505050505050565b6020815260006104d96020830184611d24565b634e487b7160e01b600052601160045260246000fd5b60008219821115611dee57611dee611dc5565b500190565b634e487b7160e01b600052603260045260246000fd5b6000808335601e19843603018112611e2057600080fd5b8301803591506001600160401b03821115611e3a57600080fd5b602001915036819003821315611e4f57600080fd5b9250929050565b6000600019821415611e6a57611e6a611dc5565b5060010190565b6020808252601f908201527f4163636f756e74466163746f72793a206e6f7420616e206163636f756e742e00604082015260600190565b6020808252602a908201527f4163636f756e74466163746f72793a206163636f756e7420616c7265616479206040820152691c9959da5cdd195c995960b21b606082015260800190565b600181811c90821680611f0657607f821691505b60208210811415611f2757634e487b7160e01b600052602260045260246000fd5b50919050565b600060208284031215611f3f57600080fd5b815180151581146104d957600080fd5b80516001600160801b0381168114611f6657600080fd5b919050565b60006020808385031215611f7e57600080fd5b82516001600160401b0380821115611f9557600080fd5b9084019060a08287031215611fa957600080fd5b611fb1611b94565b825181528383015182811115611fc657600080fd5b8301601f81018813611fd757600080fd5b805183811115611fe957611fe9611b7e565b8060051b9350611ffa868501611bbc565b818152938201860193868101908a86111561201457600080fd5b928701925b8584101561203e578351925061202e83611a49565b8282529287019290870190612019565b848801525050506040838101519082015261205b60608401611f4f565b606082015261206c60808401611f4f565b60808201529695505050505050565b7402832b936b4b9b9b4b7b7399d1030b1b1b7bab73a1605d1b8152600083516120ab816015850160208801611cf4565b7001034b99036b4b9b9b4b733903937b6329607d1b60159184019182015283516120dc816026840160208801611cf4565b01602601949350505050565b6040815260006120fb6040830185611d24565b82810360208401526104d58185611d24565b6001600160a01b03841681526040602082018190528101829052818360608301376000818301606090810191909152601f909201601f1916010192915050565b600081600019048311821515161561216757612167611dc5565b500290565b60008161217b5761217b611dc5565b506000190190565b60008251612195818460208701611cf4565b9190910192915050565b6000828210156121b1576121b1611dc5565b500390565b634e487b7160e01b600052603160045260246000fdfe416464726573733a206c6f772d6c6576656c2064656c65676174652063616c6c206661696c6564a2646970667358221220d50a36958eb5ebab317542acbca29f063d1108c326692817cf976adc1c27de3e64736f6c634300080c00336101806040523480156200001257600080fd5b5060405162003c5338038062003c53833981016040819052620000359162000261565b60408051808201825260078152661058d8dbdd5b9d60ca1b6020808301918252835180850190945260018452603160f81b908401528151902060e08190527fc89efdaa54c0f20c7adf612882df0950f5a951637e0307cdcb4c672f298b8bc66101008190524660a0529192917f8b73c3c69bb8fe3d512ecc4cf759cc79239f7b179b0ffacaa9a75d522b39400f620001128184846040805160208101859052908101839052606081018290524660808201523060a082015260009060c0016040516020818303038152906040528051906020012090509392505050565b6080523060c05261012052506200012d925050620001479050565b6001600160a01b03908116610140521661016052620002a0565b60006200015e6200022460201b620017c71760201c565b805490915060ff808216916101009004168015620001d25760405162461bcd60e51b815260206004820152602760248201527f496e697469616c697a61626c653a20636f6e747261637420697320696e697469604482015266616c697a696e6760c81b606482015260840160405180910390fd5b60ff82811610156200021f57825460ff191660ff90811784556040519081527f7f26b83ff96e1f2b6a682f133852f6798a09c465da95921460cefb38474024989060200160405180910390a15b505050565b7f627d6cbb4eb558f37de3c2ec08b04710e54e06be936a302f087f7bfb80f39ae090565b6001600160a01b03811681146200025e57600080fd5b50565b600080604083850312156200027557600080fd5b8251620002828162000248565b6020840151909250620002958162000248565b809150509250929050565b60805160a05160c05160e0516101005161012051610140516101605161390e6200034560003960008181610d6501528181611433015261146001526000818161049801528181611b1601528181611c5a01528181611c9d01528181611ce901528181611e2301528181611e7c0152611f1a015260006126bf0152600061270e015260006126e9015260006126430152600061266d01526000612697015261390e6000f3fe6080604052600436106101405760003560e01c806301ffc9a71461014c578063150b7a02146101815780631626ba7e146101c55780631dd756c5146101e55780631df923c3146102055780632354ed591461023257806324d7806c146102545780632657e38c146102745780633a871cdd1461029457806347e1da2a146102c25780634a58db19146102e25780634b0bddd2146102ea5780634d44560d1461030a578063938e3d7b1461032a578063a6fa0cb41461034a578063aa3ef59114610377578063ac9650d814610397578063b0d691fe146103c4578063b61d27f6146103e6578063b63f119d14610406578063bc197c8114610445578063c399ec8814610471578063c45a015514610486578063d087d288146104ba578063d1f57894146104cf578063e8a3d485146104ef578063f23a6e611461051157600080fd5b3661014757005b600080fd5b34801561015857600080fd5b5061016c610167366004612826565b61053d565b60405190151581526020015b60405180910390f35b34801561018d57600080fd5b506101ac61019c366004612922565b630a85bd0160e11b949350505050565b6040516001600160e01b03199091168152602001610178565b3480156101d157600080fd5b506101ac6101e036600461298d565b610583565b3480156101f157600080fd5b5061016c6102003660046129ec565b61063c565b34801561021157600080fd5b50610225610220366004612a31565b610946565b6040516101789190612a57565b34801561023e57600080fd5b5061025261024d366004612ae1565b610a05565b005b34801561026057600080fd5b5061016c61026f366004612b1b565b610c29565b34801561028057600080fd5b5061022561028f366004612b1b565b610c57565b3480156102a057600080fd5b506102b46102af366004612b38565b610d34565b604051908152602001610178565b3480156102ce57600080fd5b506102526102dd366004612bc9565b610d5a565b610252610edb565b3480156102f657600080fd5b50610252610305366004612c70565b610f43565b34801561031657600080fd5b50610252610325366004612ca9565b610f76565b34801561033657600080fd5b50610252610345366004612cd5565b61100c565b34801561035657600080fd5b5061036a610365366004612a31565b61105d565b6040516101789190612d1d565b34801561038357600080fd5b50610252610392366004612dab565b611085565b3480156103a357600080fd5b506103b76103b2366004612e05565b611344565b6040516101789190612ea2565b3480156103d057600080fd5b506103d9611431565b6040516101789190612f04565b3480156103f257600080fd5b50610252610401366004612f18565b611455565b34801561041257600080fd5b50610426610421366004612dab565b6114f5565b6040805192151583526001600160a01b03909116602083015201610178565b34801561045157600080fd5b506101ac610460366004613001565b63bc197c8160e01b95945050505050565b34801561047d57600080fd5b506102b4611547565b34801561049257600080fd5b506103d97f000000000000000000000000000000000000000000000000000000000000000081565b3480156104c657600080fd5b506102b46115c2565b3480156104db57600080fd5b506102526104ea3660046130ae565b611601565b3480156104fb57600080fd5b50610504611726565b60405161017891906130e9565b34801561051d57600080fd5b506101ac61052c3660046130fc565b63f23a6e6160e01b95945050505050565b60006001600160e01b03198216630271189760e51b148061056e57506001600160e01b03198216630a85bd0160e11b145b8061057d575061057d826117eb565b92915050565b6000806105908484611820565b9050600061059c611844565b6001600160a01b0383166000908152600280830160209081526040808420548085526001808701845294829020825160808101845281548152958101549386019390935291909201546001600160801b03808216938501849052600160801b909104166060840152929350421080159061062257504281606001516001600160801b0316105b1561063257630b135d3f60e11b94505b5050505092915050565b600080610647611844565b6001600160a01b03851660009081526020829052604090205490915060ff161561067557600191505061057d565b6001600160a01b0384166000908152600280830160209081526040808420548085526001808701845294829020825160808101845281548152958101549386019390935291909201546001600160801b03808216938501849052600160801b909104166060840152919042108015906106fa575080606001516001600160801b031642105b6107475760405162461bcd60e51b815260206004820152601960248201527820b1b1b7bab73a1d103937b632903737ba1030b1ba34bb329760391b60448201526064015b60405180910390fd5b600061075e6107596060880188613164565b611868565b90506001600160e01b03198116635b0e93fb60e11b14156107f65760008061079161078c60608a018a613164565b6118a2565b9150915080846020015110156107b95760405162461bcd60e51b815260040161073e906131aa565b600085815260048701602052604090206107d39083611907565b6107ef5760405162461bcd60e51b815260040161073e906131dc565b5050610932565b6001600160e01b031981166323f0ed1560e11b14156108eb5760008061082761082260608a018a613164565b611929565b509150915060005b82518110156108e35761087883828151811061084d5761084d613213565b602002602001015188600401600089815260200190815260200160002061190790919063ffffffff16565b6108945760405162461bcd60e51b815260040161073e906131dc565b8181815181106108a6576108a6613213565b6020026020010151856020015110156108d15760405162461bcd60e51b815260040161073e906131aa565b806108db8161323f565b91505061082f565b505050610932565b60405162461bcd60e51b815260206004820152601c60248201527b20b1b1b7bab73a1d1031b0b63634b7339034b73b30b634b21033371760211b604482015260640161073e565b600194505050505061057d565b5092915050565b61094e61275e565b6000610958611844565b60008481526001808301602090815260408084208151608081018352815481529381015484840152600201546001600160801b0380821685840152600160801b909104166060840152805160a08101825288815288855260048601835293209394509092908201906109c990611976565b81526020018260200151815260200182604001516001600160801b0316815260200182606001516001600160801b031681525092505050919050565b610a0e33610c29565b610a2a5760405162461bcd60e51b815260040161073e9061325a565b803580610a495760405162461bcd60e51b815260040161073e906132a4565b6000610a53611844565b9050604051806080016040528083815260200184604001358152602001846060016020810190610a839190613308565b6001600160801b03168152602001610aa160a0860160808701613308565b6001600160801b039081169091526000848152600180850160209081526040808420865181558683015193810193909355858101516060909601518516600160801b029590941694909417600290910155600484019092528120610b0490611976565b805190915060005b81811015610b6757610b54838281518110610b2957610b29613213565b602002602001015185600401600088815260200190815260200160002061198390919063ffffffff16565b50610b60600182613323565b9050610b0c565b506000610b77602087018761333b565b9050905060005b81811015610be457610bd1610b96602089018961333b565b83818110610ba657610ba6613213565b9050602002016020810190610bbb9190612b1b565b6000888152600488016020526040902090611998565b50610bdd600182613323565b9050610b7e565b5085600001357f38d9451889af9fc05cb7aa5e45f0582787f5f9e91bc1cb94c3b7a3363984685e87604051610c1991906133cd565b60405180910390a2505050505050565b600080610c34611844565b6001600160a01b0390931660009081526020939093525050604090205460ff1690565b610c5f61275e565b6000610c69611844565b6001600160a01b038416600090815260028083016020908152604080842054808552600180870184528286208351608081018552815481529181015482860152909401546001600160801b0380821686850152600160801b909104166060850152815160a08101835281815281865260048701845291909420949550929391929190820190610cf790611976565b81526020018260200151815260200182604001516001600160801b0316815260200182606001516001600160801b03168152509350505050919050565b6000610d3e6119ad565b610d488484611a16565b9050610d5382611aba565b9392505050565b336001600160a01b037f0000000000000000000000000000000000000000000000000000000000000000161480610d955750610d9533610c29565b610db15760405162461bcd60e51b815260040161073e90613473565b610db9611b07565b8481148015610dc757508483145b610e135760405162461bcd60e51b815260206004820152601d60248201527f4163636f756e743a2077726f6e67206172726179206c656e677468732e000000604482015260640161073e565b60005b85811015610ed257610ebf878783818110610e3357610e33613213565b9050602002016020810190610e489190612b1b565b868684818110610e5a57610e5a613213565b90506020020135858585818110610e7357610e73613213565b9050602002810190610e859190613164565b8080601f016020809104026020016040519081016040528093929190818152602001838380828437600092019190915250611bd592505050565b5080610eca8161323f565b915050610e16565b50505050505050565b610ee3611431565b6001600160a01b031663b760faf934306040518363ffffffff1660e01b8152600401610f0f9190612f04565b6000604051808303818588803b158015610f2857600080fd5b505af1158015610f3c573d6000803e3d6000fd5b5050505050565b610f4c33610c29565b610f685760405162461bcd60e51b815260040161073e9061325a565b610f728282611c46565b5050565b610f7f33610c29565b610f9b5760405162461bcd60e51b815260040161073e9061325a565b610fa3611431565b60405163040b850f60e31b81526001600160a01b03848116600483015260248201849052919091169063205c2878906044015b600060405180830381600087803b158015610ff057600080fd5b505af1158015611004573d6000803e3d6000fd5b505050505050565b611014611d1e565b6110515760405162461bcd60e51b815260206004820152600e60248201526d139bdd08185d5d1a1bdc9a5e995960921b604482015260640161073e565b61105a81611d29565b50565b60606000611069611844565b60008481526005820160205260409020909150610d5390611976565b82356110a35760405162461bcd60e51b815260040161073e906132a4565b426110b46080850160608601613308565b6001600160801b03161080156110e157506110d560a0840160808501613308565b6001600160801b031642105b6111415760405162461bcd60e51b815260206004820152602b60248201527f4163636f756e745065726d697373696f6e733a20696e76616c69642076616c6960448201526a191a5d1e481c195c9a5bd960aa1b606482015260840161073e565b60008061114f8585856114f5565b91509150816111ae5760405162461bcd60e51b815260206004820152602560248201527f4163636f756e745065726d697373696f6e733a20696e76616c6964207369676e604482015264617475726560d81b606482015260840161073e565b60006111b8611844565b60a087013560009081526003820160205260408120805460ff191660011790559091506111eb60608801604089016134d9565b60018111156111fc576111fc6134b4565b141561127257853560028201600061121a60408a0160208b01612b1b565b6001600160a01b03166001600160a01b031681526020019081526020016000208190555061126c8660200160208101906112549190612b1b565b87356000908152600584016020526040902090611998565b506112dc565b6002810160006112886040890160208a01612b1b565b6001600160a01b03166001600160a01b03168152602001908152602001600020600090556112da8660200160208101906112c29190612b1b565b87356000908152600584016020526040902090611983565b505b6001600160a01b0382166112f66040880160208901612b1b565b6001600160a01b031687600001357f230d0b85c856a5f84bce690ef9726f4b90c291f8000fe278c9246e46a284f632896040516113339190613516565b60405180910390a461100486611e19565b6060816001600160401b0381111561135e5761135e612865565b60405190808252806020026020018201604052801561139157816020015b606081526020019060019003908161137c5790505b50905060005b8281101561093f57611401308585848181106113b5576113b5613213565b90506020028101906113c79190613164565b8080601f016020809104026020016040519081016040528093929190818152602001838380828437600092019190915250611f4f92505050565b82828151811061141357611413613213565b602002602001018190525080806114299061323f565b915050611397565b7f000000000000000000000000000000000000000000000000000000000000000090565b336001600160a01b037f0000000000000000000000000000000000000000000000000000000000000000161480611490575061149033610c29565b6114ac5760405162461bcd60e51b815260040161073e90613473565b6114b4611b07565b610f3c848484848080601f016020809104026020016040519081016040528093929190818152602001838380828437600092019190915250611bd592505050565b6000806000611502611844565b905061150f868686611f74565b60a0870135600090815260038301602052604090205490925060ff1615801561153c575061153c82610c29565b925050935093915050565b6000611551611431565b6001600160a01b03166370a08231306040518263ffffffff1660e01b815260040161157c9190612f04565b602060405180830381865afa158015611599573d6000803e3d6000fd5b505050506040513d601f19601f820116820180604052508101906115bd9190613595565b905090565b60006115cc611431565b604051631aab3f0d60e11b8152306004820152600060248201526001600160a01b0391909116906335567e1a9060440161157c565b600061160b6117c7565b805490915060ff80821691610100900416801580801561162e575060018360ff16105b8061164d575061163d30611fd8565b15801561164d57508260ff166001145b6116b05760405162461bcd60e51b815260206004820152602e60248201527f496e697469616c697a61626c653a20636f6e747261637420697320616c72656160448201526d191e481a5b9a5d1a585b1a5e995960921b606482015260840161073e565b835460ff1916600117845580156116cf57835461ff0019166101001784555b6116da876001611c46565b8015610ed257835461ff0019168455604051600181527f7f26b83ff96e1f2b6a682f133852f6798a09c465da95921460cefb38474024989060200160405180910390a150505050505050565b60606000611732611fe7565b9050806000018054611743906135ae565b80601f016020809104026020016040519081016040528092919081815260200182805461176f906135ae565b80156117bc5780601f10611791576101008083540402835291602001916117bc565b820191906000526020600020905b81548152906001019060200180831161179f57829003601f168201915b505050505091505090565b7f627d6cbb4eb558f37de3c2ec08b04710e54e06be936a302f087f7bfb80f39ae090565b60006001600160e01b03198216630271189760e51b148061057d57506301ffc9a760e01b6001600160e01b031983161461057d565b600080600061182f858561200b565b9150915061183c81612051565b509392505050565b7ff2776159535489b2c8217c06dac58993e45cb245272f968642d4d3ef6aa7615090565b6000600482101561188b5760405162461bcd60e51b815260040161073e906135e3565b61189960046000848661360b565b610d5391613635565b60008060448310156118c65760405162461bcd60e51b815260040161073e906135e3565b6118d460246004858761360b565b8101906118e19190612b1b565b91506118f160446024858761360b565b8101906118fe9190612a31565b90509250929050565b6001600160a01b03811660009081526001830160205260408120541515610d53565b60608080606484101561194e5760405162461bcd60e51b815260040161073e906135e3565b61195b846004818861360b565b81019061196891906136e4565b919790965090945092505050565b60606000610d538361219a565b6000610d53836001600160a01b0384166121f6565b6000610d53836001600160a01b0384166122e9565b6119b5611431565b6001600160a01b0316336001600160a01b031614611a145760405162461bcd60e51b815260206004820152601c60248201527b1858d8dbdd5b9d0e881b9bdd08199c9bdb48115b9d1c9e541bda5b9d60221b604482015260640161073e565b565b7b0ca2ba3432b932bab69029b4b3b732b21026b2b9b9b0b3b29d05199960211b6000908152601c829052603c81206000611a94611a57610140870187613164565b8080601f01602080910402602001604051908101604052809392919081815260200183838082843760009201919091525086939250506118209050565b9050611aa0818661063c565b611aaf5760019250505061057d565b506000949350505050565b801561105a57604051600090339060001990849084818181858888f193505050503d8060008114610f3c576040519150601f19603f3d011682016040523d82523d6000602084013e610f3c565b60405163c3c5a54760e01b81527f0000000000000000000000000000000000000000000000000000000000000000906001600160a01b0382169063c3c5a54790611b55903090600401612f04565b602060405180830381865afa158015611b72573d6000803e3d6000fd5b505050506040513d601f19601f82011682018060405250810190611b9691906137c9565b61105a57806001600160a01b031663c7b90cc36040518163ffffffff1660e01b8152600401600060405180830381600087803b158015610f2857600080fd5b60606000846001600160a01b03168484604051611bf291906137e6565b60006040518083038185875af1925050503d8060008114611c2f576040519150601f19603f3d011682016040523d82523d6000602084013e611c34565b606091505b50925090508061183c57815160208301fd5b611c508282612338565b6001600160a01b037f0000000000000000000000000000000000000000000000000000000000000000163b15610f72578015611cd25760405163ed9e4b7d60e01b81526001600160a01b037f0000000000000000000000000000000000000000000000000000000000000000169063ed9e4b7d90610fd6908590600401612f04565b60405163776c4eb960e11b81526001600160a01b037f0000000000000000000000000000000000000000000000000000000000000000169063eed89d7290610fd6908590600401612f04565b60006115bd33610c29565b6000611d33611fe7565b90506000816000018054611d46906135ae565b80601f0160208091040260200160405190810160405280929190818152602001828054611d72906135ae565b8015611dbf5780601f10611d9457610100808354040283529160200191611dbf565b820191906000526020600020905b815481529060010190602001808311611da257829003601f168201915b50508651939450611dda93869350602088019250905061278d565b507fc9c7c3fe08b88b4df9d4d47ef47d2c43d55c025a0ba88ca442580ed9e7348a168184604051611e0c929190613802565b60405180910390a1505050565b6001600160a01b037f0000000000000000000000000000000000000000000000000000000000000000163b1561105a576000611e5b60608301604084016134d9565b6001811115611e6c57611e6c6134b4565b1415611ee7576001600160a01b037f00000000000000000000000000000000000000000000000000000000000000001663ed9e4b7d611eb16040840160208501612b1b565b6040518263ffffffff1660e01b8152600401611ecd9190612f04565b600060405180830381600087803b158015610f2857600080fd5b6001611ef960608301604084016134d9565b6001811115611f0a57611f0a6134b4565b141561105a576001600160a01b037f00000000000000000000000000000000000000000000000000000000000000001663eed89d72611eb16040840160208501612b1b565b6060610d5383836040518060600160405280602781526020016138b2602791396123a5565b6000611fd083838080601f016020809104026020016040519081016040528093929190818152602001838380828437600092019190915250611fca9250611fbe9150889050612480565b80519060200120612516565b90611820565b949350505050565b6001600160a01b03163b151590565b7fa7d40346e44ca145e94a946aa34a7d4a67245577dc18699a626fe0ffc6ce328190565b6000808251604114156120425760208301516040840151606085015160001a61203687828585612543565b9450945050505061204a565b506000905060025b9250929050565b6000816004811115612065576120656134b4565b141561206e5750565b6001816004811115612082576120826134b4565b14156120cb5760405162461bcd60e51b815260206004820152601860248201527745434453413a20696e76616c6964207369676e617475726560401b604482015260640161073e565b60028160048111156120df576120df6134b4565b141561212d5760405162461bcd60e51b815260206004820152601f60248201527f45434453413a20696e76616c6964207369676e6174757265206c656e67746800604482015260640161073e565b6003816004811115612141576121416134b4565b141561105a5760405162461bcd60e51b815260206004820152602260248201527f45434453413a20696e76616c6964207369676e6174757265202773272076616c604482015261756560f01b606482015260840161073e565b6060816000018054806020026020016040519081016040528092919081815260200182805480156121ea57602002820191906000526020600020905b8154815260200190600101908083116121d6575b50505050509050919050565b600081815260018301602052604081205480156122df57600061221a600183613830565b855490915060009061222e90600190613830565b905081811461229357600086600001828154811061224e5761224e613213565b906000526020600020015490508087600001848154811061227157612271613213565b6000918252602080832090910192909255918252600188019052604090208390555b85548690806122a4576122a4613847565b60019003818190600052602060002001600090559055856001016000868152602001908152602001600020600090556001935050505061057d565b600091505061057d565b60008181526001830160205260408120546123305750815460018181018455600084815260208082209093018490558454848252828601909352604090209190915561057d565b50600061057d565b6000612342611844565b6001600160a01b03841660008181526020838152604091829020805460ff1916871515908117909155915191825292935090917f235bc17e7930760029e9f4d860a2a8089976de5b381cf8380fc11c1d88a11133910160405180910390a2505050565b60606123b084611fd8565b61240b5760405162461bcd60e51b815260206004820152602660248201527f416464726573733a2064656c65676174652063616c6c20746f206e6f6e2d636f6044820152651b9d1c9858dd60d21b606482015260840161073e565b600080856001600160a01b03168560405161242691906137e6565b600060405180830381855af49150503d8060008114612461576040519150601f19603f3d011682016040523d82523d6000602084013e612466565b606091505b50915091506124768282866125fd565b9695505050505050565b60607f633dd7662365dad9114dda167df2bc8b5e996b3cf8d1abdffa2b3e2b54d8e39982356124b56040850160208601612b1b565b6124c560608601604087016134d9565b6124d56080870160608801613308565b6124e560a0880160808901613308565b8760a00135604051602001612500979695949392919061385d565b6040516020818303038152906040529050919050565b600061057d612523612636565b8360405161190160f01b8152600281019290925260228201526042902090565b6000806fa2a8918ca85bafe22016d0b997e4df60600160ff1b0383111561257057506000905060036125f4565b6040805160008082526020820180845289905260ff881692820192909252606081018690526080810185905260019060a0016020604051602081039080840390855afa1580156125c4573d6000803e3d6000fd5b5050604051601f1901519150506001600160a01b0381166125ed576000600192509250506125f4565b9150600090505b94509492505050565b6060831561260c575081610d53565b82511561261c5782518084602001fd5b8160405162461bcd60e51b815260040161073e91906130e9565b6000306001600160a01b037f00000000000000000000000000000000000000000000000000000000000000001614801561268f57507f000000000000000000000000000000000000000000000000000000000000000046145b156126b957507f000000000000000000000000000000000000000000000000000000000000000090565b604080517f00000000000000000000000000000000000000000000000000000000000000006020808301919091527f0000000000000000000000000000000000000000000000000000000000000000828401527f000000000000000000000000000000000000000000000000000000000000000060608301524660808301523060a0808401919091528351808403909101815260c090920190925280519101206115bd565b6040805160a0810182526000808252606060208301819052928201819052918101829052608081019190915290565b828054612799906135ae565b90600052602060002090601f0160209004810192826127bb5760008555612801565b82601f106127d457805160ff1916838001178555612801565b82800160010185558215612801579182015b828111156128015782518255916020019190600101906127e6565b5061280d929150612811565b5090565b5b8082111561280d5760008155600101612812565b60006020828403121561283857600080fd5b81356001600160e01b031981168114610d5357600080fd5b6001600160a01b038116811461105a57600080fd5b634e487b7160e01b600052604160045260246000fd5b604051601f8201601f191681016001600160401b03811182821017156128a3576128a3612865565b604052919050565b60006001600160401b038311156128c4576128c4612865565b6128d7601f8401601f191660200161287b565b90508281528383830111156128eb57600080fd5b828260208301376000602084830101529392505050565b600082601f83011261291357600080fd5b610d53838335602085016128ab565b6000806000806080858703121561293857600080fd5b843561294381612850565b9350602085013561295381612850565b92506040850135915060608501356001600160401b0381111561297557600080fd5b61298187828801612902565b91505092959194509250565b600080604083850312156129a057600080fd5b8235915060208301356001600160401b038111156129bd57600080fd5b6129c985828601612902565b9150509250929050565b600061016082840312156129e657600080fd5b50919050565b600080604083850312156129ff57600080fd5b8235612a0a81612850565b915060208301356001600160401b03811115612a2557600080fd5b6129c9858286016129d3565b600060208284031215612a4357600080fd5b5035919050565b6001600160801b03169052565b60208082528251828201528281015160a06040840152805160c0840181905260009291820190839060e08601905b80831015612aae5783516001600160a01b03168252928401926001929092019190840190612a85565b506040870151606087015260608701519350612acd6080870185612a4a565b6080870151935061247660a0870185612a4a565b600060208284031215612af357600080fd5b81356001600160401b03811115612b0957600080fd5b820160a08185031215610d5357600080fd5b600060208284031215612b2d57600080fd5b8135610d5381612850565b600080600060608486031215612b4d57600080fd5b83356001600160401b03811115612b6357600080fd5b612b6f868287016129d3565b9660208601359650604090950135949350505050565b60008083601f840112612b9757600080fd5b5081356001600160401b03811115612bae57600080fd5b6020830191508360208260051b850101111561204a57600080fd5b60008060008060008060608789031215612be257600080fd5b86356001600160401b0380821115612bf957600080fd5b612c058a838b01612b85565b90985096506020890135915080821115612c1e57600080fd5b612c2a8a838b01612b85565b90965094506040890135915080821115612c4357600080fd5b50612c5089828a01612b85565b979a9699509497509295939492505050565b801515811461105a57600080fd5b60008060408385031215612c8357600080fd5b8235612c8e81612850565b91506020830135612c9e81612c62565b809150509250929050565b60008060408385031215612cbc57600080fd5b8235612cc781612850565b946020939093013593505050565b600060208284031215612ce757600080fd5b81356001600160401b03811115612cfd57600080fd5b8201601f81018413612d0e57600080fd5b611fd0848235602084016128ab565b6020808252825182820181905260009190848201906040850190845b81811015612d5e5783516001600160a01b031683529284019291840191600101612d39565b50909695505050505050565b60008083601f840112612d7c57600080fd5b5081356001600160401b03811115612d9357600080fd5b60208301915083602082850101111561204a57600080fd5b600080600083850360e0811215612dc157600080fd5b60c0811215612dcf57600080fd5b5083925060c08401356001600160401b03811115612dec57600080fd5b612df886828701612d6a565b9497909650939450505050565b60008060208385031215612e1857600080fd5b82356001600160401b03811115612e2e57600080fd5b612e3a85828601612b85565b90969095509350505050565b60005b83811015612e61578181015183820152602001612e49565b83811115612e70576000848401525b50505050565b60008151808452612e8e816020860160208601612e46565b601f01601f19169290920160200192915050565b6000602080830181845280855180835260408601915060408160051b870101925083870160005b82811015612ef757603f19888603018452612ee5858351612e76565b94509285019290850190600101612ec9565b5092979650505050505050565b6001600160a01b0391909116815260200190565b60008060008060608587031215612f2e57600080fd5b8435612f3981612850565b93506020850135925060408501356001600160401b03811115612f5b57600080fd5b612f6787828801612d6a565b95989497509550505050565b60006001600160401b03821115612f8c57612f8c612865565b5060051b60200190565b600082601f830112612fa757600080fd5b81356020612fbc612fb783612f73565b61287b565b82815260059290921b84018101918181019086841115612fdb57600080fd5b8286015b84811015612ff65780358352918301918301612fdf565b509695505050505050565b600080600080600060a0868803121561301957600080fd5b853561302481612850565b9450602086013561303481612850565b935060408601356001600160401b038082111561305057600080fd5b61305c89838a01612f96565b9450606088013591508082111561307257600080fd5b61307e89838a01612f96565b9350608088013591508082111561309457600080fd5b506130a188828901612902565b9150509295509295909350565b6000806000604084860312156130c357600080fd5b83356130ce81612850565b925060208401356001600160401b03811115612dec57600080fd5b602081526000610d536020830184612e76565b600080600080600060a0868803121561311457600080fd5b853561311f81612850565b9450602086013561312f81612850565b9350604086013592506060860135915060808601356001600160401b0381111561315857600080fd5b6130a188828901612902565b6000808335601e1984360301811261317b57600080fd5b8301803591506001600160401b0382111561319557600080fd5b60200191503681900382131561204a57600080fd5b60208082526018908201527720b1b1b7bab73a1d103b30b63ab2903a37b7903434b3b41760411b604082015260600190565b6020808252601d908201527f4163636f756e743a20746172676574206e6f7420617070726f7665642e000000604082015260600190565b634e487b7160e01b600052603260045260246000fd5b634e487b7160e01b600052601160045260246000fd5b600060001982141561325357613253613229565b5060010190565b6020808252602a908201527f4163636f756e745065726d697373696f6e733a2063616c6c6572206973206e6f6040820152693a1030b71030b236b4b760b11b606082015260800190565b60208082526028908201527f4163636f756e745065726d697373696f6e733a20726f6c652063616e6e6f7420604082015267626520656d70747960c01b606082015260800190565b80356001600160801b038116811461330357600080fd5b919050565b60006020828403121561331a57600080fd5b610d53826132ec565b6000821982111561333657613336613229565b500190565b6000808335601e1984360301811261335257600080fd5b8301803591506001600160401b0382111561336c57600080fd5b6020019150600581901b360382131561204a57600080fd5b8183526000602080850194508260005b858110156133c25781356133a781612850565b6001600160a01b031687529582019590820190600101613394565b509495945050505050565b602081528135602082015260006020830135601e198436030181126133f157600080fd5b830180356001600160401b0381111561340957600080fd5b8060051b360385131561341b57600080fd5b60a0604085015261343360c085018260208501613384565b9150506040840135606084015261344c606085016132ec565b6134596080850182612a4a565b50613466608085016132ec565b61183c60a0850182612a4a565b60208082526021908201527f4163636f756e743a206e6f742061646d696e206f7220456e747279506f696e746040820152601760f91b606082015260800190565b634e487b7160e01b600052602160045260246000fd5b80356002811061330357600080fd5b6000602082840312156134eb57600080fd5b610d53826134ca565b6002811061351257634e487b7160e01b600052602160045260246000fd5b9052565b8135815260c08101602083013561352c81612850565b6001600160a01b03166020830152613546604084016134ca565b61355360408401826134f4565b50613560606084016132ec565b6001600160801b0381811660608501528061357d608087016132ec565b166080850152505060a083013560a083015292915050565b6000602082840312156135a757600080fd5b5051919050565b600181811c908216806135c257607f821691505b602082108114156129e657634e487b7160e01b600052602260045260246000fd5b6020808252600e908201526d11185d18481d1bdbc81cda1bdc9d60921b604082015260600190565b6000808585111561361b57600080fd5b8386111561362857600080fd5b5050820193919092039150565b6001600160e01b0319813581811691600485101561365d5780818660040360031b1b83161692505b505092915050565b600082601f83011261367657600080fd5b81356020613686612fb783612f73565b82815260059290921b840181019181810190868411156136a557600080fd5b8286015b84811015612ff65780356001600160401b038111156136c85760008081fd5b6136d68986838b0101612902565b8452509183019183016136a9565b6000806000606084860312156136f957600080fd5b83356001600160401b038082111561371057600080fd5b818601915086601f83011261372457600080fd5b81356020613734612fb783612f73565b82815260059290921b8401810191818101908a84111561375357600080fd5b948201945b8386101561377a57853561376b81612850565b82529482019490820190613758565b9750508701359250508082111561379057600080fd5b61379c87838801612f96565b935060408601359150808211156137b257600080fd5b506137bf86828701613665565b9150509250925092565b6000602082840312156137db57600080fd5b8151610d5381612c62565b600082516137f8818460208701612e46565b9190910192915050565b6040815260006138156040830185612e76565b82810360208401526138278185612e76565b95945050505050565b60008282101561384257613842613229565b500390565b634e487b7160e01b600052603160045260246000fd5b878152602081018790526001600160a01b038616604082015260e0810161388760608301876134f4565b6001600160801b0394851660808301529290931660a084015260c09092019190915294935050505056fe416464726573733a206c6f772d6c6576656c2064656c65676174652063616c6c206661696c6564a264697066735822122009111d12b98e71e8e8809ca3b226b50bc0918367e6ed3fc7d4c02a45fc2d6df664736f6c634300080c0033",
    "linkReferences": {}
  },
  "methodIdentifiers": {
    "DEFAULT_ADMIN_ROLE()": "a217fddf",
    "accountImplementation()": "11464fbe",
    "contractURI()": "e8a3d485",
    "createAccount(address,bytes)": "d8fd8f44",
    "entrypoint()": "a65d69d4",
    "getAccountsOfSigner(address)": "0e6254fd",
    "getAddress(address,bytes)": "8878ed33",
    "getAllAccounts()": "08e93d0a",
    "getRoleAdmin(bytes32)": "248a9ca3",
    "getRoleMember(bytes32,uint256)": "9010d07c",
    "getRoleMemberCount(bytes32)": "ca15c873",
    "getSignersOfAccount(address)": "cafba3a4",
    "grantRole(bytes32,address)": "2f2ff15d",
    "hasRole(bytes32,address)": "91d14854",
    "hasRoleWithSwitch(bytes32,address)": "a32fa5b3",
    "isRegistered(address)": "c3c5a547",
    "multicall(bytes[])": "ac9650d8",
    "onRegister()": "c7b90cc3",
    "onSignerAdded(address)": "ed9e4b7d",
    "onSignerRemoved(address)": "eed89d72",
    "renounceRole(bytes32,address)": "36568abe",
    "revokeRole(bytes32,address)": "d547741f",
    "setContractURI(string)": "938e3d7b"
  },
  "id": 303
}