{
  "_format": "hh-sol-artifact-1",
  "contractName": "AirdropERC20",
  "sourceName": "contracts/airdrop/AirdropERC20.sol",
  "abi": [
    {
      "inputs": [],
      "stateMutability": "nonpayable",
      "type": "constructor"
    },
    {
      "anonymous": false,
      "inputs": [
        {
          "indexed": true,
          "internalType": "address",
          "name": "recipient",
          "type": "address"
        },
        {
          "components": [
            {
              "internalType": "address",
              "name": "tokenAddress",
              "type": "address"
            },
            {
              "internalType": "address",
              "name": "tokenOwner",
              "type": "address"
            },
            {
              "internalType": "address",
              "name": "recipient",
              "type": "address"
            },
            {
              "internalType": "uint256",
              "name": "amount",
              "type": "uint256"
            }
          ],
          "indexed": false,
          "internalType": "struct IAirdropERC20.AirdropContent",
          "name": "content",
          "type": "tuple"
        }
      ],
      "name": "AirdropPayment",
      "type": "event"
    },
    {
      "anonymous": false,
      "inputs": [
        {
          "indexed": false,
          "internalType": "uint8",
          "name": "version",
          "type": "uint8"
        }
      ],
      "name": "Initialized",
      "type": "event"
    },
    {
      "anonymous": false,
      "inputs": [
        {
          "indexed": true,
          "internalType": "address",
          "name": "prevOwner",
          "type": "address"
        },
        {
          "indexed": true,
          "internalType": "address",
          "name": "newOwner",
          "type": "address"
        }
      ],
      "name": "OwnerUpdated",
      "type": "event"
    },
    {
      "anonymous": false,
      "inputs": [
        {
          "components": [
            {
              "internalType": "address",
              "name": "tokenAddress",
              "type": "address"
            },
            {
              "internalType": "address",
              "name": "tokenOwner",
              "type": "address"
            },
            {
              "internalType": "address",
              "name": "recipient",
              "type": "address"
            },
            {
              "internalType": "uint256",
              "name": "amount",
              "type": "uint256"
            }
          ],
          "indexed": false,
          "internalType": "struct IAirdropERC20.AirdropContent[]",
          "name": "_contents",
          "type": "tuple[]"
        }
      ],
      "name": "RecipientsAdded",
      "type": "event"
    },
    {
      "anonymous": false,
      "inputs": [
        {
          "indexed": true,
          "internalType": "bytes32",
          "name": "role",
          "type": "bytes32"
        },
        {
          "indexed": true,
          "internalType": "bytes32",
          "name": "previousAdminRole",
          "type": "bytes32"
        },
        {
          "indexed": true,
          "internalType": "bytes32",
          "name": "newAdminRole",
          "type": "bytes32"
        }
      ],
      "name": "RoleAdminChanged",
      "type": "event"
    },
    {
      "anonymous": false,
      "inputs": [
        {
          "indexed": true,
          "internalType": "bytes32",
          "name": "role",
          "type": "bytes32"
        },
        {
          "indexed": true,
          "internalType": "address",
          "name": "account",
          "type": "address"
        },
        {
          "indexed": true,
          "internalType": "address",
          "name": "sender",
          "type": "address"
        }
      ],
      "name": "RoleGranted",
      "type": "event"
    },
    {
      "anonymous": false,
      "inputs": [
        {
          "indexed": true,
          "internalType": "bytes32",
          "name": "role",
          "type": "bytes32"
        },
        {
          "indexed": true,
          "internalType": "address",
          "name": "account",
          "type": "address"
        },
        {
          "indexed": true,
          "internalType": "address",
          "name": "sender",
          "type": "address"
        }
      ],
      "name": "RoleRevoked",
      "type": "event"
    },
    {
      "inputs": [],
      "name": "DEFAULT_ADMIN_ROLE",
      "outputs": [
        {
          "internalType": "bytes32",
          "name": "",
          "type": "bytes32"
        }
      ],
      "stateMutability": "view",
      "type": "function"
    },
    {
      "inputs": [
        {
          "components": [
            {
              "internalType": "address",
              "name": "tokenAddress",
              "type": "address"
            },
            {
              "internalType": "address",
              "name": "tokenOwner",
              "type": "address"
            },
            {
              "internalType": "address",
              "name": "recipient",
              "type": "address"
            },
            {
              "internalType": "uint256",
              "name": "amount",
              "type": "uint256"
            }
          ],
          "internalType": "struct IAirdropERC20.AirdropContent[]",
          "name": "_contents",
          "type": "tuple[]"
        }
      ],
      "name": "addAirdropRecipients",
      "outputs": [],
      "stateMutability": "payable",
      "type": "function"
    },
    {
      "inputs": [
        {
          "internalType": "uint256",
          "name": "paymentsToProcess",
          "type": "uint256"
        }
      ],
      "name": "airdrop",
      "outputs": [],
      "stateMutability": "nonpayable",
      "type": "function"
    },
    {
      "inputs": [],
      "name": "contractType",
      "outputs": [
        {
          "internalType": "bytes32",
          "name": "",
          "type": "bytes32"
        }
      ],
      "stateMutability": "pure",
      "type": "function"
    },
    {
      "inputs": [],
      "name": "contractVersion",
      "outputs": [
        {
          "internalType": "uint8",
          "name": "",
          "type": "uint8"
        }
      ],
      "stateMutability": "pure",
      "type": "function"
    },
    {
      "inputs": [],
      "name": "getAllAirdropPayments",
      "outputs": [
        {
          "components": [
            {
              "internalType": "address",
              "name": "tokenAddress",
              "type": "address"
            },
            {
              "internalType": "address",
              "name": "tokenOwner",
              "type": "address"
            },
            {
              "internalType": "address",
              "name": "recipient",
              "type": "address"
            },
            {
              "internalType": "uint256",
              "name": "amount",
              "type": "uint256"
            }
          ],
          "internalType": "struct IAirdropERC20.AirdropContent[]",
          "name": "contents",
          "type": "tuple[]"
        }
      ],
      "stateMutability": "view",
      "type": "function"
    },
    {
      "inputs": [],
      "name": "getAllAirdropPaymentsFailed",
      "outputs": [
        {
          "components": [
            {
              "internalType": "address",
              "name": "tokenAddress",
              "type": "address"
            },
            {
              "internalType": "address",
              "name": "tokenOwner",
              "type": "address"
            },
            {
              "internalType": "address",
              "name": "recipient",
              "type": "address"
            },
            {
              "internalType": "uint256",
              "name": "amount",
              "type": "uint256"
            }
          ],
          "internalType": "struct IAirdropERC20.AirdropContent[]",
          "name": "contents",
          "type": "tuple[]"
        }
      ],
      "stateMutability": "view",
      "type": "function"
    },
    {
      "inputs": [],
      "name": "getAllAirdropPaymentsPending",
      "outputs": [
        {
          "components": [
            {
              "internalType": "address",
              "name": "tokenAddress",
              "type": "address"
            },
            {
              "internalType": "address",
              "name": "tokenOwner",
              "type": "address"
            },
            {
              "internalType": "address",
              "name": "recipient",
              "type": "address"
            },
            {
              "internalType": "uint256",
              "name": "amount",
              "type": "uint256"
            }
          ],
          "internalType": "struct IAirdropERC20.AirdropContent[]",
          "name": "contents",
          "type": "tuple[]"
        }
      ],
      "stateMutability": "view",
      "type": "function"
    },
    {
      "inputs": [],
      "name": "getAllAirdropPaymentsProcessed",
      "outputs": [
        {
          "components": [
            {
              "internalType": "address",
              "name": "tokenAddress",
              "type": "address"
            },
            {
              "internalType": "address",
              "name": "tokenOwner",
              "type": "address"
            },
            {
              "internalType": "address",
              "name": "recipient",
              "type": "address"
            },
            {
              "internalType": "uint256",
              "name": "amount",
              "type": "uint256"
            }
          ],
          "internalType": "struct IAirdropERC20.AirdropContent[]",
          "name": "contents",
          "type": "tuple[]"
        }
      ],
      "stateMutability": "view",
      "type": "function"
    },
    {
      "inputs": [
        {
          "internalType": "bytes32",
          "name": "role",
          "type": "bytes32"
        }
      ],
      "name": "getRoleAdmin",
      "outputs": [
        {
          "internalType": "bytes32",
          "name": "",
          "type": "bytes32"
        }
      ],
      "stateMutability": "view",
      "type": "function"
    },
    {
      "inputs": [
        {
          "internalType": "bytes32",
          "name": "role",
          "type": "bytes32"
        },
        {
          "internalType": "uint256",
          "name": "index",
          "type": "uint256"
        }
      ],
      "name": "getRoleMember",
      "outputs": [
        {
          "internalType": "address",
          "name": "member",
          "type": "address"
        }
      ],
      "stateMutability": "view",
      "type": "function"
    },
    {
      "inputs": [
        {
          "internalType": "bytes32",
          "name": "role",
          "type": "bytes32"
        }
      ],
      "name": "getRoleMemberCount",
      "outputs": [
        {
          "internalType": "uint256",
          "name": "count",
          "type": "uint256"
        }
      ],
      "stateMutability": "view",
      "type": "function"
    },
    {
      "inputs": [
        {
          "internalType": "bytes32",
          "name": "role",
          "type": "bytes32"
        },
        {
          "internalType": "address",
          "name": "account",
          "type": "address"
        }
      ],
      "name": "grantRole",
      "outputs": [],
      "stateMutability": "nonpayable",
      "type": "function"
    },
    {
      "inputs": [
        {
          "internalType": "bytes32",
          "name": "role",
          "type": "bytes32"
        },
        {
          "internalType": "address",
          "name": "account",
          "type": "address"
        }
      ],
      "name": "hasRole",
      "outputs": [
        {
          "internalType": "bool",
          "name": "",
          "type": "bool"
        }
      ],
      "stateMutability": "view",
      "type": "function"
    },
    {
      "inputs": [
        {
          "internalType": "bytes32",
          "name": "role",
          "type": "bytes32"
        },
        {
          "internalType": "address",
          "name": "account",
          "type": "address"
        }
      ],
      "name": "hasRoleWithSwitch",
      "outputs": [
        {
          "internalType": "bool",
          "name": "",
          "type": "bool"
        }
      ],
      "stateMutability": "view",
      "type": "function"
    },
    {
      "inputs": [
        {
          "internalType": "address",
          "name": "_defaultAdmin",
          "type": "address"
        }
      ],
      "name": "initialize",
      "outputs": [],
      "stateMutability": "nonpayable",
      "type": "function"
    },
    {
      "inputs": [
        {
          "internalType": "bytes[]",
          "name": "data",
          "type": "bytes[]"
        }
      ],
      "name": "multicall",
      "outputs": [
        {
          "internalType": "bytes[]",
          "name": "results",
          "type": "bytes[]"
        }
      ],
      "stateMutability": "nonpayable",
      "type": "function"
    },
    {
      "inputs": [],
      "name": "owner",
      "outputs": [
        {
          "internalType": "address",
          "name": "",
          "type": "address"
        }
      ],
      "stateMutability": "view",
      "type": "function"
    },
    {
      "inputs": [],
      "name": "payeeCount",
      "outputs": [
        {
          "internalType": "uint256",
          "name": "",
          "type": "uint256"
        }
      ],
      "stateMutability": "view",
      "type": "function"
    },
    {
      "inputs": [],
      "name": "processedCount",
      "outputs": [
        {
          "internalType": "uint256",
          "name": "",
          "type": "uint256"
        }
      ],
      "stateMutability": "view",
      "type": "function"
    },
    {
      "inputs": [
        {
          "internalType": "bytes32",
          "name": "role",
          "type": "bytes32"
        },
        {
          "internalType": "address",
          "name": "account",
          "type": "address"
        }
      ],
      "name": "renounceRole",
      "outputs": [],
      "stateMutability": "nonpayable",
      "type": "function"
    },
    {
      "inputs": [
        {
          "internalType": "bytes32",
          "name": "role",
          "type": "bytes32"
        },
        {
          "internalType": "address",
          "name": "account",
          "type": "address"
        }
      ],
      "name": "revokeRole",
      "outputs": [],
      "stateMutability": "nonpayable",
      "type": "function"
    },
    {
      "inputs": [
        {
          "internalType": "address",
          "name": "_newOwner",
          "type": "address"
        }
      ],
      "name": "setOwner",
      "outputs": [],
      "stateMutability": "nonpayable",
      "type": "function"
    }
  ],
  "bytecode": "0x60806040523480156200001157600080fd5b50600054610100900460ff1615808015620000335750600054600160ff909116105b8062000063575062000050306200013d60201b620011c91760201c565b15801562000063575060005460ff166001145b620000cb5760405162461bcd60e51b815260206004820152602e60248201527f496e697469616c697a61626c653a20636f6e747261637420697320616c72656160448201526d191e481a5b9a5d1a585b1a5e995960921b606482015260840160405180910390fd5b6000805460ff191660011790558015620000ef576000805461ff0019166101001790555b801562000136576000805461ff0019169055604051600181527f7f26b83ff96e1f2b6a682f133852f6798a09c465da95921460cefb38474024989060200160405180910390a15b506200014c565b6001600160a01b03163b151590565b61228a806200015c6000396000f3fe60806040526004361061016f5760003560e01c806397dc4a13116100d6578063ca15c8731161007f578063d237f87011610059578063d237f8701461043a578063d547741f1461044f578063d982f43d1461046f57600080fd5b8063ca15c873146103e3578063cadacac014610403578063cb2ef6f71461041857600080fd5b8063a32fa5b3116100b0578063a32fa5b314610376578063ac9650d814610396578063c4d66de8146103c357600080fd5b806397dc4a1314610325578063a0a8e46014610345578063a217fddf1461036157600080fd5b806336568abe116101385780638da5cb5b116101125780638da5cb5b146102775780639010d07c146102af57806391d14854146102cf57600080fd5b806336568abe1461021f578063629432981461023f578063803f0f651461025557600080fd5b8062dbe1091461017457806313af40351461019d578063248a9ca3146101bf5780632f2ff15d146101ec578063329103ee1461020c575b600080fd5b34801561018057600080fd5b5061018a60685481565b6040519081526020015b60405180910390f35b3480156101a957600080fd5b506101bd6101b8366004611c63565b610484565b005b3480156101cb57600080fd5b5061018a6101da366004611c80565b60009081526002602052604090205490565b3480156101f857600080fd5b506101bd610207366004611c99565b6104e6565b6101bd61021a366004611cc9565b610580565b34801561022b57600080fd5b506101bd61023a366004611c99565b610752565b34801561024b57600080fd5b5061018a60695481565b34801561026157600080fd5b5061026a6107b4565b6040516101949190611d3e565b34801561028357600080fd5b506000546201000090046001600160a01b03165b6040516001600160a01b039091168152602001610194565b3480156102bb57600080fd5b506102976102ca366004611dbc565b6108d7565b3480156102db57600080fd5b506103156102ea366004611c99565b60009182526001602090815260408084206001600160a01b0393909316845291905290205460ff1690565b6040519015158152602001610194565b34801561033157600080fd5b506101bd610340366004611c80565b6109d9565b34801561035157600080fd5b5060405160018152602001610194565b34801561036d57600080fd5b5061018a600081565b34801561038257600080fd5b50610315610391366004611c99565b610b7c565b3480156103a257600080fd5b506103b66103b1366004611dde565b610bd2565b6040516101949190611e99565b3480156103cf57600080fd5b506101bd6103de366004611c63565b610cc7565b3480156103ef57600080fd5b5061018a6103fe366004611c80565b610dec565b34801561040f57600080fd5b5061026a610e87565b34801561042457600080fd5b506b041697264726f7045524332360a41b61018a565b34801561044657600080fd5b5061026a610f8d565b34801561045b57600080fd5b506101bd61046a366004611c99565b61108e565b34801561047b57600080fd5b5061026a6110a7565b6000546201000090046001600160a01b031633146104da5760405162461bcd60e51b815260206004820152600e60248201526d139bdd08185d5d1a1bdc9a5e995960921b60448201526064015b60405180910390fd5b6104e3816111d8565b50565b6000828152600260205260409020546104ff9033611240565b60008281526001602090815260408083206001600160a01b038516845290915290205460ff16156105725760405162461bcd60e51b815260206004820152601d60248201527f43616e206f6e6c79206772616e7420746f206e6f6e20686f6c6465727300000060448201526064016104d1565b61057c82826112c0565b5050565b600061058c8133611240565b81806105da5760405162461bcd60e51b815260206004820152601360248201527f4e6f207061796565732070726f76696465642e0000000000000000000000000060448201526064016104d1565b6068805490829060006105ed8385611f11565b9091555060009050815b838110156106c15786868281811061061157610611611f29565b905060800201606b600083815260200190815260200160002081816106369190611f3f565b5073eeeeeeeeeeeeeeeeeeeeeeeeeeeeeeeeeeeeeeee905087878381811061066057610660611f29565b6106769260206080909202019081019150611c63565b6001600160a01b031614156106af5786868281811061069757610697611f29565b90506080020160600135826106ac9190611f11565b91505b6106ba600182611f11565b90506105f7565b503481146107115760405162461bcd60e51b815260206004820152601d60248201527f496e636f7272656374206e617469766520746f6b656e20616d6f756e7400000060448201526064016104d1565b7f07003cd072189ad8187b4f32f5c5e451714bed4a08ab7f388ecbfa6062d60a628686604051610742929190611fca565b60405180910390a1505050505050565b336001600160a01b038216146107aa5760405162461bcd60e51b815260206004820152601a60248201527f43616e206f6e6c792072656e6f756e636520666f722073656c6600000000000060448201526064016104d1565b61057c82826112d4565b606854606954606091906107c88183612051565b67ffffffffffffffff8111156107e0576107e0612068565b60405190808252806020026020018201604052801561083257816020015b6040805160808101825260008082526020808301829052928201819052606082015282526000199092019101816107fe5790505b5092506000815b838110156108d0576000818152606b6020908152604091829020825160808101845281546001600160a01b0390811682526001830154811693820193909352600282015490921692820192909252600390910154606082015285518690849081106108a6576108a6611f29565b60209081029190910101526108bc600183611f11565b91506108c9600182611f11565b9050610839565b5050505090565b60008281526003602052604081205481805b828110156109cf5760008681526003602090815260408083208484526001019091529020546001600160a01b03161561096657848214156109545760008681526003602090815260408083209383526001909301905220546001600160a01b031692506109d3915050565b61095f600183611f11565b91506109bd565b600086815260016020908152604080832083805290915290205460ff1680156109aa5750600086815260036020908152604080832083805260020190915290205481145b156109bd576109ba600183611f11565b91505b6109c8600182611f11565b90506108e9565b5050505b92915050565b60026004541415610a2c5760405162461bcd60e51b815260206004820152601f60248201527f5265656e7472616e637947756172643a207265656e7472616e742063616c6c0060448201526064016104d1565b600260045560685460695481610a428483611f11565b1115610a905760405162461bcd60e51b815260206004820152601760248201527f696e76616c6964206e6f2e206f66207061796d656e747300000000000000000060448201526064016104d1565b8260696000828254610aa29190611f11565b909155508190505b610ab48483611f11565b811015610b71576000818152606b6020908152604091829020825160808101845281546001600160a01b03908116808352600184015482169483018590526002840154909116948201859052600390920154606082018190529093610b19939161132b565b80604001516001600160a01b03167f061dccacfa2f30597906a7a8523a29794aec82495d6304d5dde83666df71ecf582604051610b56919061207e565b60405180910390a250610b6a600182611f11565b9050610aaa565b505060016004555050565b600082815260016020908152604080832083805290915281205460ff16610bc9575060008281526001602090815260408083206001600160a01b038516845290915290205460ff166109d3565b50600192915050565b60608167ffffffffffffffff811115610bed57610bed612068565b604051908082528060200260200182016040528015610c2057816020015b6060815260200190600190039081610c0b5790505b50905060005b82811015610cc057610c9030858584818110610c4457610c44611f29565b9050602002810190610c5691906120bc565b8080601f01602080910402602001604051908101604052809392919081815260200183838082843760009201919091525061137b92505050565b828281518110610ca257610ca2611f29565b60200260200101819052508080610cb89061210a565b915050610c26565b5092915050565b600054610100900460ff1615808015610ce75750600054600160ff909116105b80610d015750303b158015610d01575060005460ff166001145b610d645760405162461bcd60e51b815260206004820152602e60248201527f496e697469616c697a61626c653a20636f6e747261637420697320616c72656160448201526d191e481a5b9a5d1a585b1a5e995960921b60648201526084016104d1565b6000805460ff191660011790558015610d87576000805461ff0019166101001790555b610d926000836112c0565b610d9b826111d8565b610da361146f565b801561057c576000805461ff0019169055604051600181527f7f26b83ff96e1f2b6a682f133852f6798a09c465da95921460cefb38474024989060200160405180910390a15050565b600081815260036020526040812054815b81811015610e505760008481526003602090815260408083208484526001019091529020546001600160a01b031615610e3e57610e3b600184611f11565b92505b610e49600182611f11565b9050610dfd565b50600083815260016020908152604080832083805290915290205460ff1615610e8157610e7e600183611f11565b91505b50919050565b6068546060908067ffffffffffffffff811115610ea657610ea6612068565b604051908082528060200260200182016040528015610ef857816020015b604080516080810182526000808252602080830182905292820181905260608201528252600019909201910181610ec45790505b50915060005b81811015610f88576000818152606b6020908152604091829020825160808101845281546001600160a01b039081168252600183015481169382019390935260028201549092169282019290925260039091015460608201528351849083908110610f6b57610f6b611f29565b6020908102919091010152610f81600182611f11565b9050610efe565b505090565b6069546060908067ffffffffffffffff811115610fac57610fac612068565b604051908082528060200260200182016040528015610ffe57816020015b604080516080810182526000808252602080830182905292820181905260608201528252600019909201910181610fca5790505b50915060005b81811015610f88576000818152606b6020908152604091829020825160808101845281546001600160a01b03908116825260018301548116938201939093526002820154909216928201929092526003909101546060820152835184908390811061107157611071611f29565b6020908102919091010152611087600182611f11565b9050611004565b6000828152600260205260409020546107aa9033611240565b606a546060908067ffffffffffffffff8111156110c6576110c6612068565b60405190808252806020026020018201604052801561111857816020015b6040805160808101825260008082526020808301829052928201819052606082015282526000199092019101816110e45790505b50915060005b81811015610f8857606b6000606a838154811061113d5761113d611f29565b600091825260208083209091015483528281019390935260409182019020815160808101835281546001600160a01b039081168252600183015481169482019490945260028201549093169183019190915260030154606082015283518490839081106111ac576111ac611f29565b60209081029190910101526111c2600182611f11565b905061111e565b6001600160a01b03163b151590565b600080546001600160a01b038381166201000081810275ffffffffffffffffffffffffffffffffffffffff000019851617855560405193049190911692909183917f8292fce18fa69edf4db7b94ea2e58241df0ae57f97e0a6c9b29067028bf92d7691a35050565b60008281526001602090815260408083206001600160a01b038516845290915290205460ff1661057c5761127e816001600160a01b031660146114e4565b6112898360206114e4565b60405160200161129a929190612125565b60408051601f198184030181529082905262461bcd60e51b82526104d1916004016121a6565b6112ca8282611694565b61057c82826116f1565b6112de828261175e565b60008281526003602090815260408083206001600160a01b03851680855260028201808552838620805487526001909301855292852080546001600160a01b031916905584529152555050565b8061133557611375565b6001600160a01b03841673eeeeeeeeeeeeeeeeeeeeeeeeeeeeeeeeeeeeeeee14156113695761136482826117c0565b611375565b61137584848484611868565b50505050565b60606001600160a01b0383163b6113e35760405162461bcd60e51b815260206004820152602660248201527f416464726573733a2064656c65676174652063616c6c20746f206e6f6e2d636f6044820152651b9d1c9858dd60d21b60648201526084016104d1565b600080846001600160a01b0316846040516113fe91906121b9565b600060405180830381855af49150503d8060008114611439576040519150601f19603f3d011682016040523d82523d6000602084013e61143e565b606091505b5091509150611466828260405180606001604052806027815260200161222e602791396118c1565b95945050505050565b600054610100900460ff166114da5760405162461bcd60e51b815260206004820152602b60248201527f496e697469616c697a61626c653a20636f6e7472616374206973206e6f74206960448201526a6e697469616c697a696e6760a81b60648201526084016104d1565b6114e26118fa565b565b606060006114f38360026121d5565b6114fe906002611f11565b67ffffffffffffffff81111561151657611516612068565b6040519080825280601f01601f191660200182016040528015611540576020820181803683370190505b509050600360fc1b8160008151811061155b5761155b611f29565b60200101906001600160f81b031916908160001a905350600f60fb1b8160018151811061158a5761158a611f29565b60200101906001600160f81b031916908160001a90535060006115ae8460026121d5565b6115b9906001611f11565b90505b600181111561163e577f303132333435363738396162636465660000000000000000000000000000000085600f16601081106115fa576115fa611f29565b1a60f81b82828151811061161057611610611f29565b60200101906001600160f81b031916908160001a90535060049490941c93611637816121f4565b90506115bc565b50831561168d5760405162461bcd60e51b815260206004820181905260248201527f537472696e67733a20686578206c656e67746820696e73756666696369656e7460448201526064016104d1565b9392505050565b60008281526001602081815260408084206001600160a01b0386168086529252808420805460ff19169093179092559051339285917f2f8788117e7eff1d82e926ec794901d17c78024a50270940304540a733656f0d9190a45050565b6000828152600360205260408120805491600191906117108385611f11565b9091555050600092835260036020908152604080852083865260018101835281862080546001600160a01b039096166001600160a01b03199096168617905593855260029093019052912055565b6117688282611240565b60008281526001602090815260408083206001600160a01b0385168085529252808320805460ff1916905551339285917ff6391f5c32d9c69d2a47ea670b442974b53935d1edc7fd64eb21e047a839171b9190a45050565b6000826001600160a01b03168260405160006040518083038185875af1925050503d806000811461180d576040519150601f19603f3d011682016040523d82523d6000602084013e611812565b606091505b50509050806118635760405162461bcd60e51b815260206004820152601c60248201527f6e617469766520746f6b656e207472616e73666572206661696c65640000000060448201526064016104d1565b505050565b816001600160a01b0316836001600160a01b0316141561188757611375565b6001600160a01b0383163014156118ac576113646001600160a01b038516838361196c565b6113756001600160a01b0385168484846119fc565b606083156118d057508161168d565b8251156118e05782518084602001fd5b8160405162461bcd60e51b81526004016104d191906121a6565b600054610100900460ff166119655760405162461bcd60e51b815260206004820152602b60248201527f496e697469616c697a61626c653a20636f6e7472616374206973206e6f74206960448201526a6e697469616c697a696e6760a81b60648201526084016104d1565b6001600455565b6040516001600160a01b03831660248201526044810182905261186390849063a9059cbb60e01b906064015b60408051601f198184030181529190526020810180517bffffffffffffffffffffffffffffffffffffffffffffffffffffffff167fffffffff0000000000000000000000000000000000000000000000000000000090931692909217909152611a34565b6040516001600160a01b03808516602483015283166044820152606481018290526113759085906323b872dd60e01b90608401611998565b6000611a89826040518060400160405280602081526020017f5361666545524332303a206c6f772d6c6576656c2063616c6c206661696c6564815250856001600160a01b0316611b069092919063ffffffff16565b8051909150156118635780806020019051810190611aa7919061220b565b6118635760405162461bcd60e51b815260206004820152602a60248201527f5361666545524332303a204552433230206f7065726174696f6e20646964206e6044820152691bdd081cdd58d8d9595960b21b60648201526084016104d1565b6060611b158484600085611b1d565b949350505050565b606082471015611b7e5760405162461bcd60e51b815260206004820152602660248201527f416464726573733a20696e73756666696369656e742062616c616e636520666f6044820152651c8818d85b1b60d21b60648201526084016104d1565b6001600160a01b0385163b611bd55760405162461bcd60e51b815260206004820152601d60248201527f416464726573733a2063616c6c20746f206e6f6e2d636f6e747261637400000060448201526064016104d1565b600080866001600160a01b03168587604051611bf191906121b9565b60006040518083038185875af1925050503d8060008114611c2e576040519150601f19603f3d011682016040523d82523d6000602084013e611c33565b606091505b5091509150611c438282866118c1565b979650505050505050565b6001600160a01b03811681146104e357600080fd5b600060208284031215611c7557600080fd5b813561168d81611c4e565b600060208284031215611c9257600080fd5b5035919050565b60008060408385031215611cac57600080fd5b823591506020830135611cbe81611c4e565b809150509250929050565b60008060208385031215611cdc57600080fd5b823567ffffffffffffffff80821115611cf457600080fd5b818501915085601f830112611d0857600080fd5b813581811115611d1757600080fd5b8660208260071b8501011115611d2c57600080fd5b60209290920196919550909350505050565b6020808252825182820181905260009190848201906040850190845b81811015611db057611d9d8385516001600160a01b0380825116835280602083015116602084015280604083015116604084015250606081015160608301525050565b9284019260809290920191600101611d5a565b50909695505050505050565b60008060408385031215611dcf57600080fd5b50508035926020909101359150565b60008060208385031215611df157600080fd5b823567ffffffffffffffff80821115611e0957600080fd5b818501915085601f830112611e1d57600080fd5b813581811115611e2c57600080fd5b8660208260051b8501011115611d2c57600080fd5b60005b83811015611e5c578181015183820152602001611e44565b838111156113755750506000910152565b60008151808452611e85816020860160208601611e41565b601f01601f19169290920160200192915050565b6000602080830181845280855180835260408601915060408160051b870101925083870160005b82811015611eee57603f19888603018452611edc858351611e6d565b94509285019290850190600101611ec0565b5092979650505050505050565b634e487b7160e01b600052601160045260246000fd5b60008219821115611f2457611f24611efb565b500190565b634e487b7160e01b600052603260045260246000fd5b8135611f4a81611c4e565b81546001600160a01b0319166001600160a01b038216178255506020820135611f7281611c4e565b6001820180546001600160a01b0319166001600160a01b038316179055506040820135611f9e81611c4e565b6002820180546001600160a01b0319166001600160a01b03831617905550606082013560038201555050565b6020808252818101839052600090604080840186845b87811015612044578135611ff381611c4e565b6001600160a01b039081168452828601359061200e82611c4e565b90811684870152828501359061202382611c4e565b16838501526060828101359084015260809283019290910190600101611fe0565b5090979650505050505050565b60008282101561206357612063611efb565b500390565b634e487b7160e01b600052604160045260246000fd5b608081016109d382846001600160a01b0380825116835280602083015116602084015280604083015116604084015250606081015160608301525050565b6000808335601e198436030181126120d357600080fd5b83018035915067ffffffffffffffff8211156120ee57600080fd5b60200191503681900382131561210357600080fd5b9250929050565b600060001982141561211e5761211e611efb565b5060010190565b7f5065726d697373696f6e733a206163636f756e7420000000000000000000000081526000835161215d816015850160208801611e41565b7f206973206d697373696e6720726f6c6520000000000000000000000000000000601591840191820152835161219a816026840160208801611e41565b01602601949350505050565b60208152600061168d6020830184611e6d565b600082516121cb818460208701611e41565b9190910192915050565b60008160001904831182151516156121ef576121ef611efb565b500290565b60008161220357612203611efb565b506000190190565b60006020828403121561221d57600080fd5b8151801515811461168d57600080fdfe416464726573733a206c6f772d6c6576656c2064656c65676174652063616c6c206661696c6564a264697066735822122054264f7924fb3ded3083b94ac553955f99aaa07ca942bcba77aa07a717dae95d64736f6c634300080c0033",
  "linkReferences": {},
  "deployedLinkReferences": {}
}