{
  "_format": "hh-sol-artifact-1",
  "contractName": "AirdropERC721Claimable",
  "sourceName": "contracts/airdrop/AirdropERC721Claimable.sol",
  "abi": [
    {
      "inputs": [],
      "stateMutability": "nonpayable",
      "type": "constructor"
    },
    {
      "anonymous": false,
      "inputs": [
        {
          "indexed": false,
          "internalType": "uint8",
          "name": "version",
          "type": "uint8"
        }
      ],
      "name": "Initialized",
      "type": "event"
    },
    {
      "anonymous": false,
      "inputs": [
        {
          "indexed": true,
          "internalType": "address",
          "name": "prevOwner",
          "type": "address"
        },
        {
          "indexed": true,
          "internalType": "address",
          "name": "newOwner",
          "type": "address"
        }
      ],
      "name": "OwnerUpdated",
      "type": "event"
    },
    {
      "anonymous": false,
      "inputs": [
        {
          "indexed": true,
          "internalType": "address",
          "name": "claimer",
          "type": "address"
        },
        {
          "indexed": true,
          "internalType": "address",
          "name": "receiver",
          "type": "address"
        },
        {
          "indexed": false,
          "internalType": "uint256",
          "name": "quantityClaimed",
          "type": "uint256"
        }
      ],
      "name": "TokensClaimed",
      "type": "event"
    },
    {
      "inputs": [],
      "name": "airdropTokenAddress",
      "outputs": [
        {
          "internalType": "address",
          "name": "",
          "type": "address"
        }
      ],
      "stateMutability": "view",
      "type": "function"
    },
    {
      "inputs": [],
      "name": "availableAmount",
      "outputs": [
        {
          "internalType": "uint256",
          "name": "",
          "type": "uint256"
        }
      ],
      "stateMutability": "view",
      "type": "function"
    },
    {
      "inputs": [
        {
          "internalType": "address",
          "name": "_receiver",
          "type": "address"
        },
        {
          "internalType": "uint256",
          "name": "_quantity",
          "type": "uint256"
        },
        {
          "internalType": "bytes32[]",
          "name": "_proofs",
          "type": "bytes32[]"
        },
        {
          "internalType": "uint256",
          "name": "_proofMaxQuantityForWallet",
          "type": "uint256"
        }
      ],
      "name": "claim",
      "outputs": [],
      "stateMutability": "nonpayable",
      "type": "function"
    },
    {
      "inputs": [],
      "name": "contractType",
      "outputs": [
        {
          "internalType": "bytes32",
          "name": "",
          "type": "bytes32"
        }
      ],
      "stateMutability": "pure",
      "type": "function"
    },
    {
      "inputs": [],
      "name": "contractVersion",
      "outputs": [
        {
          "internalType": "uint8",
          "name": "",
          "type": "uint8"
        }
      ],
      "stateMutability": "pure",
      "type": "function"
    },
    {
      "inputs": [],
      "name": "expirationTimestamp",
      "outputs": [
        {
          "internalType": "uint256",
          "name": "",
          "type": "uint256"
        }
      ],
      "stateMutability": "view",
      "type": "function"
    },
    {
      "inputs": [
        {
          "internalType": "address",
          "name": "_defaultAdmin",
          "type": "address"
        },
        {
          "internalType": "address[]",
          "name": "_trustedForwarders",
          "type": "address[]"
        },
        {
          "internalType": "address",
          "name": "_tokenOwner",
          "type": "address"
        },
        {
          "internalType": "address",
          "name": "_airdropTokenAddress",
          "type": "address"
        },
        {
          "internalType": "uint256[]",
          "name": "_tokenIds",
          "type": "uint256[]"
        },
        {
          "internalType": "uint256",
          "name": "_expirationTimestamp",
          "type": "uint256"
        },
        {
          "internalType": "uint256",
          "name": "_maxWalletClaimCount",
          "type": "uint256"
        },
        {
          "internalType": "bytes32",
          "name": "_merkleRoot",
          "type": "bytes32"
        }
      ],
      "name": "initialize",
      "outputs": [],
      "stateMutability": "nonpayable",
      "type": "function"
    },
    {
      "inputs": [
        {
          "internalType": "address",
          "name": "forwarder",
          "type": "address"
        }
      ],
      "name": "isTrustedForwarder",
      "outputs": [
        {
          "internalType": "bool",
          "name": "",
          "type": "bool"
        }
      ],
      "stateMutability": "view",
      "type": "function"
    },
    {
      "inputs": [],
      "name": "maxWalletClaimCount",
      "outputs": [
        {
          "internalType": "uint256",
          "name": "",
          "type": "uint256"
        }
      ],
      "stateMutability": "view",
      "type": "function"
    },
    {
      "inputs": [],
      "name": "merkleRoot",
      "outputs": [
        {
          "internalType": "bytes32",
          "name": "",
          "type": "bytes32"
        }
      ],
      "stateMutability": "view",
      "type": "function"
    },
    {
      "inputs": [
        {
          "internalType": "bytes[]",
          "name": "data",
          "type": "bytes[]"
        }
      ],
      "name": "multicall",
      "outputs": [
        {
          "internalType": "bytes[]",
          "name": "results",
          "type": "bytes[]"
        }
      ],
      "stateMutability": "nonpayable",
      "type": "function"
    },
    {
      "inputs": [],
      "name": "nextIndex",
      "outputs": [
        {
          "internalType": "uint256",
          "name": "",
          "type": "uint256"
        }
      ],
      "stateMutability": "view",
      "type": "function"
    },
    {
      "inputs": [],
      "name": "owner",
      "outputs": [
        {
          "internalType": "address",
          "name": "",
          "type": "address"
        }
      ],
      "stateMutability": "view",
      "type": "function"
    },
    {
      "inputs": [
        {
          "internalType": "address",
          "name": "_newOwner",
          "type": "address"
        }
      ],
      "name": "setOwner",
      "outputs": [],
      "stateMutability": "nonpayable",
      "type": "function"
    },
    {
      "inputs": [
        {
          "internalType": "address",
          "name": "",
          "type": "address"
        }
      ],
      "name": "supplyClaimedByWallet",
      "outputs": [
        {
          "internalType": "uint256",
          "name": "",
          "type": "uint256"
        }
      ],
      "stateMutability": "view",
      "type": "function"
    },
    {
      "inputs": [
        {
          "internalType": "uint256",
          "name": "",
          "type": "uint256"
        }
      ],
      "name": "tokenIds",
      "outputs": [
        {
          "internalType": "uint256",
          "name": "",
          "type": "uint256"
        }
      ],
      "stateMutability": "view",
      "type": "function"
    },
    {
      "inputs": [],
      "name": "tokenOwner",
      "outputs": [
        {
          "internalType": "address",
          "name": "",
          "type": "address"
        }
      ],
      "stateMutability": "view",
      "type": "function"
    },
    {
      "inputs": [
        {
          "internalType": "address",
          "name": "_claimer",
          "type": "address"
        },
        {
          "internalType": "uint256",
          "name": "_quantity",
          "type": "uint256"
        },
        {
          "internalType": "bytes32[]",
          "name": "_proofs",
          "type": "bytes32[]"
        },
        {
          "internalType": "uint256",
          "name": "_proofMaxQuantityForWallet",
          "type": "uint256"
        }
      ],
      "name": "verifyClaim",
      "outputs": [],
      "stateMutability": "view",
      "type": "function"
    }
  ],
  "bytecode": "0x608060405234801561001057600080fd5b50600054610100900460ff16158080156100315750600054600160ff909116105b8061005c575061004a3061013260201b6108aa1760201c565b15801561005c575060005460ff166001145b6100c35760405162461bcd60e51b815260206004820152602e60248201527f496e697469616c697a61626c653a20636f6e747261637420697320616c72656160448201526d191e481a5b9a5d1a585b1a5e995960921b606482015260840160405180910390fd5b6000805460ff1916600117905580156100e6576000805461ff0019166101001790555b801561012c576000805461ff0019169055604051600181527f7f26b83ff96e1f2b6a682f133852f6798a09c465da95921460cefb38474024989060200160405180910390a15b50610141565b6001600160a01b03163b151590565b61147b80620001516000396000f3fe608060405234801561001057600080fd5b50600436106101165760003560e01c80639f43ddd2116100a2578063b73e0e8b11610071578063b73e0e8b14610256578063c90a9f8314610269578063cb2ef6f71461027c578063d58778d6146102a2578063fc7e9c6f146102b557600080fd5b80639f43ddd21461020b578063a0a8e46014610214578063a3e6761014610223578063ac9650d81461023657600080fd5b80632eb4a7ab116100e95780632eb4a7ab1461017f5780633b4b57b014610188578063572b6c051461019b5780638da5cb5b146101d757806391f7cfb91461020257600080fd5b8063059817691461011b578063097b3cdb146101375780630ce56cac1461014c57806313af40351461016c575b600080fd5b61012460cf5481565b6040519081526020015b60405180910390f35b61014a610145366004610f4c565b6102be565b005b61012461015a366004610fae565b60d16020526000908152604090205481565b61014a61017a366004610fae565b6104d9565b61012460d05481565b61014a610196366004610f4c565b61052a565b6101c76101a9366004610fae565b6001600160a01b031660009081526065602052604090205460ff1690565b604051901515815260200161012e565b6000546201000090046001600160a01b03165b6040516001600160a01b03909116815260200161012e565b61012460cd5481565b61012460ce5481565b6040516001815260200161012e565b60ca546101ea906001600160a01b031681565b610249610244366004610fc9565b610605565b60405161012e9190611067565b60c9546101ea906001600160a01b031681565b61014a61027736600461119f565b6106fa565b7f41697264726f70455243373231436c61696d61626c6500000000000000000000610124565b6101246102b03660046112af565b610889565b61012460cc5481565b60d0546000901561034a576103468484808060200260200160405190810160405280939291908181526020018383602002808284376000920191909152505060d0546040516bffffffffffffffffffffffff1960608d901b166020820152603481018890529092506054019050604051602081830303815290604052805190602001206108b9565b5090505b6001600160a01b038616600090815260d16020526040902054856103b55760405162461bcd60e51b815260206004820152601460248201527f436c61696d696e67207a65726f20746f6b656e7300000000000000000000000060448201526064015b60405180910390fd5b60cd548611156104075760405162461bcd60e51b815260206004820152601960248201527f6578636565647320617661696c61626c6520746f6b656e732e0000000000000060448201526064016103ac565b60ce5480158061041657508042105b6104625760405162461bcd60e51b815260206004820152601060248201527f61697264726f7020657870697265642e0000000000000000000000000000000060448201526064016103ac565b6000836104715760cf54610473565b845b905080610480848a6112de565b11156104ce5760405162461bcd60e51b815260206004820152601160248201527f696e76616c6964207175616e746974792e00000000000000000000000000000060448201526064016103ac565b505050505050505050565b6104e1610987565b61051e5760405162461bcd60e51b815260206004820152600e60248201526d139bdd08185d5d1a1bdc9a5e995960921b60448201526064016103ac565b610527816109b1565b50565b6002600154141561057d5760405162461bcd60e51b815260206004820152601f60248201527f5265656e7472616e637947756172643a207265656e7472616e742063616c6c0060448201526064016103ac565b6002600155600061058c610a19565b905061059b81868686866102be565b6105a58686610a28565b856001600160a01b03166105b7610a19565b6001600160a01b03167fa86305abc2db271df4609aa86a8d044bc11fb36939841bfdad6c1ab2b26e9471876040516105f191815260200190565b60405180910390a350506001805550505050565b60608167ffffffffffffffff811115610620576106206110c9565b60405190808252806020026020018201604052801561065357816020015b606081526020019060019003908161063e5790505b50905060005b828110156106f3576106c330858584818110610677576106776112f6565b9050602002810190610689919061130c565b8080601f016020809104026020016040519081016040528093929190818152602001838380828437600092019190915250610bd692505050565b8282815181106106d5576106d56112f6565b602002602001018190525080806106eb90611353565b915050610659565b5092915050565b600054610100900460ff161580801561071a5750600054600160ff909116105b806107345750303b158015610734575060005460ff166001145b6107975760405162461bcd60e51b815260206004820152602e60248201527f496e697469616c697a61626c653a20636f6e747261637420697320616c72656160448201526d191e481a5b9a5d1a585b1a5e995960921b60648201526084016103ac565b6000805460ff1916600117905580156107ba576000805461ff0019166101001790555b6107c3896109b1565b6107cb610cca565b6107d488610cfb565b60ca80546001600160a01b03808a1673ffffffffffffffffffffffffffffffffffffffff199283161790925560c980549289169290911691909117905584516108249060cb906020880190610e84565b5060ce84905560cf83905560d0829055845160cd5580156104ce576000805461ff0019169055604051600181527f7f26b83ff96e1f2b6a682f133852f6798a09c465da95921460cefb38474024989060200160405180910390a1505050505050505050565b60cb818154811061089957600080fd5b600091825260209091200154905081565b6001600160a01b03163b151590565b6000808281805b875181101561097b576108d460028361136e565b915060008882815181106108ea576108ea6112f6565b6020026020010151905080841161092c576040805160208101869052908101829052606001604051602081830303815290604052805190602001209350610968565b604080516020810183905290810185905260600160405160208183030381529060405280519060200120935060018361096591906112de565b92505b508061097381611353565b9150506108c0565b50941495939450505050565b600080546201000090046001600160a01b03166109a2610a19565b6001600160a01b031614905090565b600080546001600160a01b038381166201000081810275ffffffffffffffffffffffffffffffffffffffff000019851617855560405193049190911692909183917f8292fce18fa69edf4db7b94ea2e58241df0ae57f97e0a6c9b29067028bf92d7691a35050565b6000610a23610d33565b905090565b8060d16000610a35610a19565b6001600160a01b03166001600160a01b031681526020019081526020016000206000828254610a6491906112de565b925050819055508060cd6000828254610a7d919061138d565b909155505060cc5460cb80546040805160208084028201810190925282815260009390929091830182828015610ad257602002820191906000526020600020905b815481526020019060010190808311610abe575b505060c95460ca549495506001600160a01b039081169416925060009150505b85811015610bc857826001600160a01b03166342842e0e8389878981518110610b1d57610b1d6112f6565b60209081029190910101516040517fffffffff0000000000000000000000000000000000000000000000000000000060e086901b1681526001600160a01b0393841660048201529290911660248301526044820152606401600060405180830381600087803b158015610b8f57600080fd5b505af1158015610ba3573d6000803e3d6000fd5b50505050600185610bb491906112de565b9450610bc16001826112de565b9050610af2565b50505060cc91909155505050565b60606001600160a01b0383163b610c3e5760405162461bcd60e51b815260206004820152602660248201527f416464726573733a2064656c65676174652063616c6c20746f206e6f6e2d636f6044820152651b9d1c9858dd60d21b60648201526084016103ac565b600080846001600160a01b031684604051610c5991906113a4565b600060405180830381855af49150503d8060008114610c94576040519150601f19603f3d011682016040523d82523d6000602084013e610c99565b606091505b5091509150610cc1828260405180606001604052806027815260200161141f60279139610d5d565b95945050505050565b600054610100900460ff16610cf15760405162461bcd60e51b81526004016103ac906113c0565b610cf9610d9d565b565b600054610100900460ff16610d225760405162461bcd60e51b81526004016103ac906113c0565b610d2a610dca565b61052781610df1565b3360009081526065602052604081205460ff1615610d58575060131936013560601c90565b503390565b60608315610d6c575081610d96565b825115610d7c5782518084602001fd5b8160405162461bcd60e51b81526004016103ac919061140b565b9392505050565b600054610100900460ff16610dc45760405162461bcd60e51b81526004016103ac906113c0565b60018055565b600054610100900460ff16610cf95760405162461bcd60e51b81526004016103ac906113c0565b600054610100900460ff16610e185760405162461bcd60e51b81526004016103ac906113c0565b60005b8151811015610e8057600160656000848481518110610e3c57610e3c6112f6565b6020908102919091018101516001600160a01b03168252810191909152604001600020805460ff191691151591909117905580610e7881611353565b915050610e1b565b5050565b828054828255906000526020600020908101928215610ebf579160200282015b82811115610ebf578251825591602001919060010190610ea4565b50610ecb929150610ecf565b5090565b5b80821115610ecb5760008155600101610ed0565b80356001600160a01b0381168114610efb57600080fd5b919050565b60008083601f840112610f1257600080fd5b50813567ffffffffffffffff811115610f2a57600080fd5b6020830191508360208260051b8501011115610f4557600080fd5b9250929050565b600080600080600060808688031215610f6457600080fd5b610f6d86610ee4565b945060208601359350604086013567ffffffffffffffff811115610f9057600080fd5b610f9c88828901610f00565b96999598509660600135949350505050565b600060208284031215610fc057600080fd5b610d9682610ee4565b60008060208385031215610fdc57600080fd5b823567ffffffffffffffff811115610ff357600080fd5b610fff85828601610f00565b90969095509350505050565b60005b8381101561102657818101518382015260200161100e565b83811115611035576000848401525b50505050565b6000815180845261105381602086016020860161100b565b601f01601f19169290920160200192915050565b6000602080830181845280855180835260408601915060408160051b870101925083870160005b828110156110bc57603f198886030184526110aa85835161103b565b9450928501929085019060010161108e565b5092979650505050505050565b634e487b7160e01b600052604160045260246000fd5b604051601f8201601f1916810167ffffffffffffffff81118282101715611108576111086110c9565b604052919050565b600067ffffffffffffffff82111561112a5761112a6110c9565b5060051b60200190565b600082601f83011261114557600080fd5b8135602061115a61115583611110565b6110df565b82815260059290921b8401810191818101908684111561117957600080fd5b8286015b84811015611194578035835291830191830161117d565b509695505050505050565b600080600080600080600080610100898b0312156111bc57600080fd5b6111c589610ee4565b97506020808a013567ffffffffffffffff808211156111e357600080fd5b818c0191508c601f8301126111f757600080fd5b813561120561115582611110565b81815260059190911b8301840190848101908f83111561122457600080fd5b938501935b828510156112495761123a85610ee4565b82529385019390850190611229565b9b5061125a91505060408d01610ee4565b985061126860608d01610ee4565b975060808c013592508083111561127e57600080fd5b505061128c8b828c01611134565b989b979a50959894979660a0860135965060c08601359560e00135945092505050565b6000602082840312156112c157600080fd5b5035919050565b634e487b7160e01b600052601160045260246000fd5b600082198211156112f1576112f16112c8565b500190565b634e487b7160e01b600052603260045260246000fd5b6000808335601e1984360301811261132357600080fd5b83018035915067ffffffffffffffff82111561133e57600080fd5b602001915036819003821315610f4557600080fd5b6000600019821415611367576113676112c8565b5060010190565b6000816000190483118215151615611388576113886112c8565b500290565b60008282101561139f5761139f6112c8565b500390565b600082516113b681846020870161100b565b9190910192915050565b6020808252602b908201527f496e697469616c697a61626c653a20636f6e7472616374206973206e6f74206960408201526a6e697469616c697a696e6760a81b606082015260800190565b602081526000610d96602083018461103b56fe416464726573733a206c6f772d6c6576656c2064656c65676174652063616c6c206661696c6564a2646970667358221220f1b7e1f5a4baca32db04a1bb9ca237d2cdcc4f395a5640fcfc349de26b7505dd64736f6c634300080c0033",
  "linkReferences": {},
  "deployedLinkReferences": {}
}