{
  "_format": "hh-sol-artifact-1",
  "contractName": "DropERC20_V2",
  "sourceName": "contracts/legacy-contracts/pre-builts/DropERC20_V2.sol",
  "abi": [
    {
      "inputs": [],
      "stateMutability": "nonpayable",
      "type": "constructor"
    },
    {
      "anonymous": false,
      "inputs": [
        {
          "indexed": true,
          "internalType": "address",
          "name": "owner",
          "type": "address"
        },
        {
          "indexed": true,
          "internalType": "address",
          "name": "spender",
          "type": "address"
        },
        {
          "indexed": false,
          "internalType": "uint256",
          "name": "value",
          "type": "uint256"
        }
      ],
      "name": "Approval",
      "type": "event"
    },
    {
      "anonymous": false,
      "inputs": [
        {
          "components": [
            {
              "internalType": "uint256",
              "name": "startTimestamp",
              "type": "uint256"
            },
            {
              "internalType": "uint256",
              "name": "maxClaimableSupply",
              "type": "uint256"
            },
            {
              "internalType": "uint256",
              "name": "supplyClaimed",
              "type": "uint256"
            },
            {
              "internalType": "uint256",
              "name": "quantityLimitPerTransaction",
              "type": "uint256"
            },
            {
              "internalType": "uint256",
              "name": "waitTimeInSecondsBetweenClaims",
              "type": "uint256"
            },
            {
              "internalType": "bytes32",
              "name": "merkleRoot",
              "type": "bytes32"
            },
            {
              "internalType": "uint256",
              "name": "pricePerToken",
              "type": "uint256"
            },
            {
              "internalType": "address",
              "name": "currency",
              "type": "address"
            }
          ],
          "indexed": false,
          "internalType": "struct IDropClaimCondition_V2.ClaimCondition[]",
          "name": "claimConditions",
          "type": "tuple[]"
        }
      ],
      "name": "ClaimConditionsUpdated",
      "type": "event"
    },
    {
      "anonymous": false,
      "inputs": [
        {
          "indexed": false,
          "internalType": "string",
          "name": "prevURI",
          "type": "string"
        },
        {
          "indexed": false,
          "internalType": "string",
          "name": "newURI",
          "type": "string"
        }
      ],
      "name": "ContractURIUpdated",
      "type": "event"
    },
    {
      "anonymous": false,
      "inputs": [
        {
          "indexed": true,
          "internalType": "address",
          "name": "delegator",
          "type": "address"
        },
        {
          "indexed": true,
          "internalType": "address",
          "name": "fromDelegate",
          "type": "address"
        },
        {
          "indexed": true,
          "internalType": "address",
          "name": "toDelegate",
          "type": "address"
        }
      ],
      "name": "DelegateChanged",
      "type": "event"
    },
    {
      "anonymous": false,
      "inputs": [
        {
          "indexed": true,
          "internalType": "address",
          "name": "delegate",
          "type": "address"
        },
        {
          "indexed": false,
          "internalType": "uint256",
          "name": "previousBalance",
          "type": "uint256"
        },
        {
          "indexed": false,
          "internalType": "uint256",
          "name": "newBalance",
          "type": "uint256"
        }
      ],
      "name": "DelegateVotesChanged",
      "type": "event"
    },
    {
      "anonymous": false,
      "inputs": [
        {
          "indexed": false,
          "internalType": "uint8",
          "name": "version",
          "type": "uint8"
        }
      ],
      "name": "Initialized",
      "type": "event"
    },
    {
      "anonymous": false,
      "inputs": [
        {
          "indexed": false,
          "internalType": "uint256",
          "name": "maxTotalSupply",
          "type": "uint256"
        }
      ],
      "name": "MaxTotalSupplyUpdated",
      "type": "event"
    },
    {
      "anonymous": false,
      "inputs": [
        {
          "indexed": false,
          "internalType": "uint256",
          "name": "count",
          "type": "uint256"
        }
      ],
      "name": "MaxWalletClaimCountUpdated",
      "type": "event"
    },
    {
      "anonymous": false,
      "inputs": [
        {
          "indexed": true,
          "internalType": "address",
          "name": "platformFeeRecipient",
          "type": "address"
        },
        {
          "indexed": false,
          "internalType": "uint256",
          "name": "platformFeeBps",
          "type": "uint256"
        }
      ],
      "name": "PlatformFeeInfoUpdated",
      "type": "event"
    },
    {
      "anonymous": false,
      "inputs": [
        {
          "indexed": true,
          "internalType": "address",
          "name": "recipient",
          "type": "address"
        }
      ],
      "name": "PrimarySaleRecipientUpdated",
      "type": "event"
    },
    {
      "anonymous": false,
      "inputs": [
        {
          "indexed": true,
          "internalType": "bytes32",
          "name": "role",
          "type": "bytes32"
        },
        {
          "indexed": true,
          "internalType": "bytes32",
          "name": "previousAdminRole",
          "type": "bytes32"
        },
        {
          "indexed": true,
          "internalType": "bytes32",
          "name": "newAdminRole",
          "type": "bytes32"
        }
      ],
      "name": "RoleAdminChanged",
      "type": "event"
    },
    {
      "anonymous": false,
      "inputs": [
        {
          "indexed": true,
          "internalType": "bytes32",
          "name": "role",
          "type": "bytes32"
        },
        {
          "indexed": true,
          "internalType": "address",
          "name": "account",
          "type": "address"
        },
        {
          "indexed": true,
          "internalType": "address",
          "name": "sender",
          "type": "address"
        }
      ],
      "name": "RoleGranted",
      "type": "event"
    },
    {
      "anonymous": false,
      "inputs": [
        {
          "indexed": true,
          "internalType": "bytes32",
          "name": "role",
          "type": "bytes32"
        },
        {
          "indexed": true,
          "internalType": "address",
          "name": "account",
          "type": "address"
        },
        {
          "indexed": true,
          "internalType": "address",
          "name": "sender",
          "type": "address"
        }
      ],
      "name": "RoleRevoked",
      "type": "event"
    },
    {
      "anonymous": false,
      "inputs": [
        {
          "indexed": true,
          "internalType": "uint256",
          "name": "claimConditionIndex",
          "type": "uint256"
        },
        {
          "indexed": true,
          "internalType": "address",
          "name": "claimer",
          "type": "address"
        },
        {
          "indexed": true,
          "internalType": "address",
          "name": "receiver",
          "type": "address"
        },
        {
          "indexed": false,
          "internalType": "uint256",
          "name": "quantityClaimed",
          "type": "uint256"
        }
      ],
      "name": "TokensClaimed",
      "type": "event"
    },
    {
      "anonymous": false,
      "inputs": [
        {
          "indexed": true,
          "internalType": "address",
          "name": "from",
          "type": "address"
        },
        {
          "indexed": true,
          "internalType": "address",
          "name": "to",
          "type": "address"
        },
        {
          "indexed": false,
          "internalType": "uint256",
          "name": "value",
          "type": "uint256"
        }
      ],
      "name": "Transfer",
      "type": "event"
    },
    {
      "anonymous": false,
      "inputs": [
        {
          "indexed": true,
          "internalType": "address",
          "name": "wallet",
          "type": "address"
        },
        {
          "indexed": false,
          "internalType": "uint256",
          "name": "count",
          "type": "uint256"
        }
      ],
      "name": "WalletClaimCountUpdated",
      "type": "event"
    },
    {
      "inputs": [],
      "name": "DEFAULT_ADMIN_ROLE",
      "outputs": [
        {
          "internalType": "bytes32",
          "name": "",
          "type": "bytes32"
        }
      ],
      "stateMutability": "view",
      "type": "function"
    },
    {
      "inputs": [],
      "name": "DOMAIN_SEPARATOR",
      "outputs": [
        {
          "internalType": "bytes32",
          "name": "",
          "type": "bytes32"
        }
      ],
      "stateMutability": "view",
      "type": "function"
    },
    {
      "inputs": [
        {
          "internalType": "address",
          "name": "owner",
          "type": "address"
        },
        {
          "internalType": "address",
          "name": "spender",
          "type": "address"
        }
      ],
      "name": "allowance",
      "outputs": [
        {
          "internalType": "uint256",
          "name": "",
          "type": "uint256"
        }
      ],
      "stateMutability": "view",
      "type": "function"
    },
    {
      "inputs": [
        {
          "internalType": "address",
          "name": "spender",
          "type": "address"
        },
        {
          "internalType": "uint256",
          "name": "amount",
          "type": "uint256"
        }
      ],
      "name": "approve",
      "outputs": [
        {
          "internalType": "bool",
          "name": "",
          "type": "bool"
        }
      ],
      "stateMutability": "nonpayable",
      "type": "function"
    },
    {
      "inputs": [
        {
          "internalType": "address",
          "name": "account",
          "type": "address"
        }
      ],
      "name": "balanceOf",
      "outputs": [
        {
          "internalType": "uint256",
          "name": "",
          "type": "uint256"
        }
      ],
      "stateMutability": "view",
      "type": "function"
    },
    {
      "inputs": [
        {
          "internalType": "uint256",
          "name": "amount",
          "type": "uint256"
        }
      ],
      "name": "burn",
      "outputs": [],
      "stateMutability": "nonpayable",
      "type": "function"
    },
    {
      "inputs": [
        {
          "internalType": "address",
          "name": "account",
          "type": "address"
        },
        {
          "internalType": "uint256",
          "name": "amount",
          "type": "uint256"
        }
      ],
      "name": "burnFrom",
      "outputs": [],
      "stateMutability": "nonpayable",
      "type": "function"
    },
    {
      "inputs": [
        {
          "internalType": "address",
          "name": "account",
          "type": "address"
        },
        {
          "internalType": "uint32",
          "name": "pos",
          "type": "uint32"
        }
      ],
      "name": "checkpoints",
      "outputs": [
        {
          "components": [
            {
              "internalType": "uint32",
              "name": "fromBlock",
              "type": "uint32"
            },
            {
              "internalType": "uint224",
              "name": "votes",
              "type": "uint224"
            }
          ],
          "internalType": "struct ERC20VotesUpgradeable.Checkpoint",
          "name": "",
          "type": "tuple"
        }
      ],
      "stateMutability": "view",
      "type": "function"
    },
    {
      "inputs": [
        {
          "internalType": "address",
          "name": "_receiver",
          "type": "address"
        },
        {
          "internalType": "uint256",
          "name": "_quantity",
          "type": "uint256"
        },
        {
          "internalType": "address",
          "name": "_currency",
          "type": "address"
        },
        {
          "internalType": "uint256",
          "name": "_pricePerToken",
          "type": "uint256"
        },
        {
          "internalType": "bytes32[]",
          "name": "_proofs",
          "type": "bytes32[]"
        },
        {
          "internalType": "uint256",
          "name": "_proofMaxQuantityPerTransaction",
          "type": "uint256"
        }
      ],
      "name": "claim",
      "outputs": [],
      "stateMutability": "payable",
      "type": "function"
    },
    {
      "inputs": [],
      "name": "claimCondition",
      "outputs": [
        {
          "internalType": "uint256",
          "name": "currentStartId",
          "type": "uint256"
        },
        {
          "internalType": "uint256",
          "name": "count",
          "type": "uint256"
        }
      ],
      "stateMutability": "view",
      "type": "function"
    },
    {
      "inputs": [],
      "name": "contractType",
      "outputs": [
        {
          "internalType": "bytes32",
          "name": "",
          "type": "bytes32"
        }
      ],
      "stateMutability": "pure",
      "type": "function"
    },
    {
      "inputs": [],
      "name": "contractURI",
      "outputs": [
        {
          "internalType": "string",
          "name": "",
          "type": "string"
        }
      ],
      "stateMutability": "view",
      "type": "function"
    },
    {
      "inputs": [],
      "name": "contractVersion",
      "outputs": [
        {
          "internalType": "uint8",
          "name": "",
          "type": "uint8"
        }
      ],
      "stateMutability": "pure",
      "type": "function"
    },
    {
      "inputs": [],
      "name": "decimals",
      "outputs": [
        {
          "internalType": "uint8",
          "name": "",
          "type": "uint8"
        }
      ],
      "stateMutability": "view",
      "type": "function"
    },
    {
      "inputs": [
        {
          "internalType": "address",
          "name": "spender",
          "type": "address"
        },
        {
          "internalType": "uint256",
          "name": "subtractedValue",
          "type": "uint256"
        }
      ],
      "name": "decreaseAllowance",
      "outputs": [
        {
          "internalType": "bool",
          "name": "",
          "type": "bool"
        }
      ],
      "stateMutability": "nonpayable",
      "type": "function"
    },
    {
      "inputs": [
        {
          "internalType": "address",
          "name": "delegatee",
          "type": "address"
        }
      ],
      "name": "delegate",
      "outputs": [],
      "stateMutability": "nonpayable",
      "type": "function"
    },
    {
      "inputs": [
        {
          "internalType": "address",
          "name": "delegatee",
          "type": "address"
        },
        {
          "internalType": "uint256",
          "name": "nonce",
          "type": "uint256"
        },
        {
          "internalType": "uint256",
          "name": "expiry",
          "type": "uint256"
        },
        {
          "internalType": "uint8",
          "name": "v",
          "type": "uint8"
        },
        {
          "internalType": "bytes32",
          "name": "r",
          "type": "bytes32"
        },
        {
          "internalType": "bytes32",
          "name": "s",
          "type": "bytes32"
        }
      ],
      "name": "delegateBySig",
      "outputs": [],
      "stateMutability": "nonpayable",
      "type": "function"
    },
    {
      "inputs": [
        {
          "internalType": "address",
          "name": "account",
          "type": "address"
        }
      ],
      "name": "delegates",
      "outputs": [
        {
          "internalType": "address",
          "name": "",
          "type": "address"
        }
      ],
      "stateMutability": "view",
      "type": "function"
    },
    {
      "inputs": [],
      "name": "getActiveClaimConditionId",
      "outputs": [
        {
          "internalType": "uint256",
          "name": "",
          "type": "uint256"
        }
      ],
      "stateMutability": "view",
      "type": "function"
    },
    {
      "inputs": [
        {
          "internalType": "uint256",
          "name": "_conditionId",
          "type": "uint256"
        }
      ],
      "name": "getClaimConditionById",
      "outputs": [
        {
          "components": [
            {
              "internalType": "uint256",
              "name": "startTimestamp",
              "type": "uint256"
            },
            {
              "internalType": "uint256",
              "name": "maxClaimableSupply",
              "type": "uint256"
            },
            {
              "internalType": "uint256",
              "name": "supplyClaimed",
              "type": "uint256"
            },
            {
              "internalType": "uint256",
              "name": "quantityLimitPerTransaction",
              "type": "uint256"
            },
            {
              "internalType": "uint256",
              "name": "waitTimeInSecondsBetweenClaims",
              "type": "uint256"
            },
            {
              "internalType": "bytes32",
              "name": "merkleRoot",
              "type": "bytes32"
            },
            {
              "internalType": "uint256",
              "name": "pricePerToken",
              "type": "uint256"
            },
            {
              "internalType": "address",
              "name": "currency",
              "type": "address"
            }
          ],
          "internalType": "struct IDropClaimCondition_V2.ClaimCondition",
          "name": "condition",
          "type": "tuple"
        }
      ],
      "stateMutability": "view",
      "type": "function"
    },
    {
      "inputs": [
        {
          "internalType": "uint256",
          "name": "_conditionId",
          "type": "uint256"
        },
        {
          "internalType": "address",
          "name": "_claimer",
          "type": "address"
        }
      ],
      "name": "getClaimTimestamp",
      "outputs": [
        {
          "internalType": "uint256",
          "name": "lastClaimTimestamp",
          "type": "uint256"
        },
        {
          "internalType": "uint256",
          "name": "nextValidClaimTimestamp",
          "type": "uint256"
        }
      ],
      "stateMutability": "view",
      "type": "function"
    },
    {
      "inputs": [
        {
          "internalType": "uint256",
          "name": "blockNumber",
          "type": "uint256"
        }
      ],
      "name": "getPastTotalSupply",
      "outputs": [
        {
          "internalType": "uint256",
          "name": "",
          "type": "uint256"
        }
      ],
      "stateMutability": "view",
      "type": "function"
    },
    {
      "inputs": [
        {
          "internalType": "address",
          "name": "account",
          "type": "address"
        },
        {
          "internalType": "uint256",
          "name": "blockNumber",
          "type": "uint256"
        }
      ],
      "name": "getPastVotes",
      "outputs": [
        {
          "internalType": "uint256",
          "name": "",
          "type": "uint256"
        }
      ],
      "stateMutability": "view",
      "type": "function"
    },
    {
      "inputs": [],
      "name": "getPlatformFeeInfo",
      "outputs": [
        {
          "internalType": "address",
          "name": "",
          "type": "address"
        },
        {
          "internalType": "uint16",
          "name": "",
          "type": "uint16"
        }
      ],
      "stateMutability": "view",
      "type": "function"
    },
    {
      "inputs": [
        {
          "internalType": "bytes32",
          "name": "role",
          "type": "bytes32"
        }
      ],
      "name": "getRoleAdmin",
      "outputs": [
        {
          "internalType": "bytes32",
          "name": "",
          "type": "bytes32"
        }
      ],
      "stateMutability": "view",
      "type": "function"
    },
    {
      "inputs": [
        {
          "internalType": "bytes32",
          "name": "role",
          "type": "bytes32"
        },
        {
          "internalType": "uint256",
          "name": "index",
          "type": "uint256"
        }
      ],
      "name": "getRoleMember",
      "outputs": [
        {
          "internalType": "address",
          "name": "",
          "type": "address"
        }
      ],
      "stateMutability": "view",
      "type": "function"
    },
    {
      "inputs": [
        {
          "internalType": "bytes32",
          "name": "role",
          "type": "bytes32"
        }
      ],
      "name": "getRoleMemberCount",
      "outputs": [
        {
          "internalType": "uint256",
          "name": "",
          "type": "uint256"
        }
      ],
      "stateMutability": "view",
      "type": "function"
    },
    {
      "inputs": [
        {
          "internalType": "address",
          "name": "account",
          "type": "address"
        }
      ],
      "name": "getVotes",
      "outputs": [
        {
          "internalType": "uint256",
          "name": "",
          "type": "uint256"
        }
      ],
      "stateMutability": "view",
      "type": "function"
    },
    {
      "inputs": [
        {
          "internalType": "bytes32",
          "name": "role",
          "type": "bytes32"
        },
        {
          "internalType": "address",
          "name": "account",
          "type": "address"
        }
      ],
      "name": "grantRole",
      "outputs": [],
      "stateMutability": "nonpayable",
      "type": "function"
    },
    {
      "inputs": [
        {
          "internalType": "bytes32",
          "name": "role",
          "type": "bytes32"
        },
        {
          "internalType": "address",
          "name": "account",
          "type": "address"
        }
      ],
      "name": "hasRole",
      "outputs": [
        {
          "internalType": "bool",
          "name": "",
          "type": "bool"
        }
      ],
      "stateMutability": "view",
      "type": "function"
    },
    {
      "inputs": [
        {
          "internalType": "address",
          "name": "spender",
          "type": "address"
        },
        {
          "internalType": "uint256",
          "name": "addedValue",
          "type": "uint256"
        }
      ],
      "name": "increaseAllowance",
      "outputs": [
        {
          "internalType": "bool",
          "name": "",
          "type": "bool"
        }
      ],
      "stateMutability": "nonpayable",
      "type": "function"
    },
    {
      "inputs": [
        {
          "internalType": "address",
          "name": "_defaultAdmin",
          "type": "address"
        },
        {
          "internalType": "string",
          "name": "_name",
          "type": "string"
        },
        {
          "internalType": "string",
          "name": "_symbol",
          "type": "string"
        },
        {
          "internalType": "string",
          "name": "_contractURI",
          "type": "string"
        },
        {
          "internalType": "address[]",
          "name": "_trustedForwarders",
          "type": "address[]"
        },
        {
          "internalType": "address",
          "name": "_primarySaleRecipient",
          "type": "address"
        },
        {
          "internalType": "address",
          "name": "_platformFeeRecipient",
          "type": "address"
        },
        {
          "internalType": "uint256",
          "name": "_platformFeeBps",
          "type": "uint256"
        }
      ],
      "name": "initialize",
      "outputs": [],
      "stateMutability": "nonpayable",
      "type": "function"
    },
    {
      "inputs": [
        {
          "internalType": "address",
          "name": "forwarder",
          "type": "address"
        }
      ],
      "name": "isTrustedForwarder",
      "outputs": [
        {
          "internalType": "bool",
          "name": "",
          "type": "bool"
        }
      ],
      "stateMutability": "view",
      "type": "function"
    },
    {
      "inputs": [],
      "name": "maxTotalSupply",
      "outputs": [
        {
          "internalType": "uint256",
          "name": "",
          "type": "uint256"
        }
      ],
      "stateMutability": "view",
      "type": "function"
    },
    {
      "inputs": [],
      "name": "maxWalletClaimCount",
      "outputs": [
        {
          "internalType": "uint256",
          "name": "",
          "type": "uint256"
        }
      ],
      "stateMutability": "view",
      "type": "function"
    },
    {
      "inputs": [
        {
          "internalType": "bytes[]",
          "name": "data",
          "type": "bytes[]"
        }
      ],
      "name": "multicall",
      "outputs": [
        {
          "internalType": "bytes[]",
          "name": "results",
          "type": "bytes[]"
        }
      ],
      "stateMutability": "nonpayable",
      "type": "function"
    },
    {
      "inputs": [],
      "name": "name",
      "outputs": [
        {
          "internalType": "string",
          "name": "",
          "type": "string"
        }
      ],
      "stateMutability": "view",
      "type": "function"
    },
    {
      "inputs": [
        {
          "internalType": "address",
          "name": "owner",
          "type": "address"
        }
      ],
      "name": "nonces",
      "outputs": [
        {
          "internalType": "uint256",
          "name": "",
          "type": "uint256"
        }
      ],
      "stateMutability": "view",
      "type": "function"
    },
    {
      "inputs": [
        {
          "internalType": "address",
          "name": "account",
          "type": "address"
        }
      ],
      "name": "numCheckpoints",
      "outputs": [
        {
          "internalType": "uint32",
          "name": "",
          "type": "uint32"
        }
      ],
      "stateMutability": "view",
      "type": "function"
    },
    {
      "inputs": [
        {
          "internalType": "address",
          "name": "owner",
          "type": "address"
        },
        {
          "internalType": "address",
          "name": "spender",
          "type": "address"
        },
        {
          "internalType": "uint256",
          "name": "value",
          "type": "uint256"
        },
        {
          "internalType": "uint256",
          "name": "deadline",
          "type": "uint256"
        },
        {
          "internalType": "uint8",
          "name": "v",
          "type": "uint8"
        },
        {
          "internalType": "bytes32",
          "name": "r",
          "type": "bytes32"
        },
        {
          "internalType": "bytes32",
          "name": "s",
          "type": "bytes32"
        }
      ],
      "name": "permit",
      "outputs": [],
      "stateMutability": "nonpayable",
      "type": "function"
    },
    {
      "inputs": [],
      "name": "primarySaleRecipient",
      "outputs": [
        {
          "internalType": "address",
          "name": "",
          "type": "address"
        }
      ],
      "stateMutability": "view",
      "type": "function"
    },
    {
      "inputs": [
        {
          "internalType": "bytes32",
          "name": "role",
          "type": "bytes32"
        },
        {
          "internalType": "address",
          "name": "account",
          "type": "address"
        }
      ],
      "name": "renounceRole",
      "outputs": [],
      "stateMutability": "nonpayable",
      "type": "function"
    },
    {
      "inputs": [
        {
          "internalType": "bytes32",
          "name": "role",
          "type": "bytes32"
        },
        {
          "internalType": "address",
          "name": "account",
          "type": "address"
        }
      ],
      "name": "revokeRole",
      "outputs": [],
      "stateMutability": "nonpayable",
      "type": "function"
    },
    {
      "inputs": [
        {
          "components": [
            {
              "internalType": "uint256",
              "name": "startTimestamp",
              "type": "uint256"
            },
            {
              "internalType": "uint256",
              "name": "maxClaimableSupply",
              "type": "uint256"
            },
            {
              "internalType": "uint256",
              "name": "supplyClaimed",
              "type": "uint256"
            },
            {
              "internalType": "uint256",
              "name": "quantityLimitPerTransaction",
              "type": "uint256"
            },
            {
              "internalType": "uint256",
              "name": "waitTimeInSecondsBetweenClaims",
              "type": "uint256"
            },
            {
              "internalType": "bytes32",
              "name": "merkleRoot",
              "type": "bytes32"
            },
            {
              "internalType": "uint256",
              "name": "pricePerToken",
              "type": "uint256"
            },
            {
              "internalType": "address",
              "name": "currency",
              "type": "address"
            }
          ],
          "internalType": "struct IDropClaimCondition_V2.ClaimCondition[]",
          "name": "_phases",
          "type": "tuple[]"
        },
        {
          "internalType": "bool",
          "name": "_resetClaimEligibility",
          "type": "bool"
        }
      ],
      "name": "setClaimConditions",
      "outputs": [],
      "stateMutability": "nonpayable",
      "type": "function"
    },
    {
      "inputs": [
        {
          "internalType": "string",
          "name": "_uri",
          "type": "string"
        }
      ],
      "name": "setContractURI",
      "outputs": [],
      "stateMutability": "nonpayable",
      "type": "function"
    },
    {
      "inputs": [
        {
          "internalType": "uint256",
          "name": "_maxTotalSupply",
          "type": "uint256"
        }
      ],
      "name": "setMaxTotalSupply",
      "outputs": [],
      "stateMutability": "nonpayable",
      "type": "function"
    },
    {
      "inputs": [
        {
          "internalType": "uint256",
          "name": "_count",
          "type": "uint256"
        }
      ],
      "name": "setMaxWalletClaimCount",
      "outputs": [],
      "stateMutability": "nonpayable",
      "type": "function"
    },
    {
      "inputs": [
        {
          "internalType": "address",
          "name": "_platformFeeRecipient",
          "type": "address"
        },
        {
          "internalType": "uint256",
          "name": "_platformFeeBps",
          "type": "uint256"
        }
      ],
      "name": "setPlatformFeeInfo",
      "outputs": [],
      "stateMutability": "nonpayable",
      "type": "function"
    },
    {
      "inputs": [
        {
          "internalType": "address",
          "name": "_saleRecipient",
          "type": "address"
        }
      ],
      "name": "setPrimarySaleRecipient",
      "outputs": [],
      "stateMutability": "nonpayable",
      "type": "function"
    },
    {
      "inputs": [
        {
          "internalType": "address",
          "name": "_claimer",
          "type": "address"
        },
        {
          "internalType": "uint256",
          "name": "_count",
          "type": "uint256"
        }
      ],
      "name": "setWalletClaimCount",
      "outputs": [],
      "stateMutability": "nonpayable",
      "type": "function"
    },
    {
      "inputs": [
        {
          "internalType": "bytes4",
          "name": "interfaceId",
          "type": "bytes4"
        }
      ],
      "name": "supportsInterface",
      "outputs": [
        {
          "internalType": "bool",
          "name": "",
          "type": "bool"
        }
      ],
      "stateMutability": "view",
      "type": "function"
    },
    {
      "inputs": [],
      "name": "symbol",
      "outputs": [
        {
          "internalType": "string",
          "name": "",
          "type": "string"
        }
      ],
      "stateMutability": "view",
      "type": "function"
    },
    {
      "inputs": [],
      "name": "totalSupply",
      "outputs": [
        {
          "internalType": "uint256",
          "name": "",
          "type": "uint256"
        }
      ],
      "stateMutability": "view",
      "type": "function"
    },
    {
      "inputs": [
        {
          "internalType": "address",
          "name": "to",
          "type": "address"
        },
        {
          "internalType": "uint256",
          "name": "amount",
          "type": "uint256"
        }
      ],
      "name": "transfer",
      "outputs": [
        {
          "internalType": "bool",
          "name": "",
          "type": "bool"
        }
      ],
      "stateMutability": "nonpayable",
      "type": "function"
    },
    {
      "inputs": [
        {
          "internalType": "address",
          "name": "from",
          "type": "address"
        },
        {
          "internalType": "address",
          "name": "to",
          "type": "address"
        },
        {
          "internalType": "uint256",
          "name": "amount",
          "type": "uint256"
        }
      ],
      "name": "transferFrom",
      "outputs": [
        {
          "internalType": "bool",
          "name": "",
          "type": "bool"
        }
      ],
      "stateMutability": "nonpayable",
      "type": "function"
    },
    {
      "inputs": [
        {
          "internalType": "uint256",
          "name": "_conditionId",
          "type": "uint256"
        },
        {
          "internalType": "address",
          "name": "_claimer",
          "type": "address"
        },
        {
          "internalType": "uint256",
          "name": "_quantity",
          "type": "uint256"
        },
        {
          "internalType": "address",
          "name": "_currency",
          "type": "address"
        },
        {
          "internalType": "uint256",
          "name": "_pricePerToken",
          "type": "uint256"
        },
        {
          "internalType": "bool",
          "name": "verifyMaxQuantityPerTransaction",
          "type": "bool"
        }
      ],
      "name": "verifyClaim",
      "outputs": [],
      "stateMutability": "view",
      "type": "function"
    },
    {
      "inputs": [
        {
          "internalType": "uint256",
          "name": "_conditionId",
          "type": "uint256"
        },
        {
          "internalType": "address",
          "name": "_claimer",
          "type": "address"
        },
        {
          "internalType": "uint256",
          "name": "_quantity",
          "type": "uint256"
        },
        {
          "internalType": "bytes32[]",
          "name": "_proofs",
          "type": "bytes32[]"
        },
        {
          "internalType": "uint256",
          "name": "_proofMaxQuantityPerTransaction",
          "type": "uint256"
        }
      ],
      "name": "verifyClaimMerkleProof",
      "outputs": [
        {
          "internalType": "bool",
          "name": "validMerkleProof",
          "type": "bool"
        },
        {
          "internalType": "uint256",
          "name": "merkleProofIndex",
          "type": "uint256"
        }
      ],
      "stateMutability": "view",
      "type": "function"
    },
    {
      "inputs": [
        {
          "internalType": "address",
          "name": "",
          "type": "address"
        }
      ],
      "name": "walletClaimCount",
      "outputs": [
        {
          "internalType": "uint256",
          "name": "",
          "type": "uint256"
        }
      ],
      "stateMutability": "view",
      "type": "function"
    }
  ],
  "bytecode": "0x60806040523480156200001157600080fd5b50600054610100900460ff1615808015620000335750600054600160ff909116105b8062000063575062000050306200013d60201b620027521760201c565b15801562000063575060005460ff166001145b620000cb5760405162461bcd60e51b815260206004820152602e60248201527f496e697469616c697a61626c653a20636f6e747261637420697320616c72656160448201526d191e481a5b9a5d1a585b1a5e995960921b606482015260840160405180910390fd5b6000805460ff191660011790558015620000ef576000805461ff0019166101001790555b801562000136576000805461ff0019169055604051600181527f7f26b83ff96e1f2b6a682f133852f6798a09c465da95921460cefb38474024989060200160405180910390a15b506200014c565b6001600160a01b03163b151590565b615567806200015c6000396000f3fe6080604052600436106103815760003560e01c80637a5a8e7e116101d1578063af3be89011610102578063d505accf116100a0578063dfad80a61161006f578063dfad80a614610ba7578063e23b816414610bc7578063e8a3d48514610be7578063f1127ed814610bfc57600080fd5b8063d505accf14610b03578063d547741f14610b23578063d637ed5914610b43578063dd62ed3e14610b6057600080fd5b8063c68907de116100dc578063c68907de14610a78578063ca15c87314610a8d578063cb2ef6f714610aad578063d45573f614610acc57600080fd5b8063af3be89014610a01578063afb8291614610a38578063c3cda52014610a5857600080fd5b806395d89b411161016f578063a217fddf11610149578063a217fddf1461097f578063a457c2d714610994578063a9059cbb146109b4578063ac9650d8146109d457600080fd5b806395d89b41146109365780639ab24eb01461094b578063a0a8e4601461096b57600080fd5b80638e539e8c116101ab5780638e539e8c146108905780639010d07c146108b057806391d14854146108d0578063938e3d7b1461091657600080fd5b80637a5a8e7e146108285780637ecebe001461083b57806386ee745d1461085b57600080fd5b806339509351116102b6578063572b6c05116102545780636f8934f4116102235780636f8934f4146107125780636fcfff451461079c57806370a08231146107d157806379cc67901461080857600080fd5b8063572b6c051461065f578063587cde1e146106985780635c19a95c146106d25780636f4f2837146106f257600080fd5b80633f3e4c11116102905780633f3e4c11146105d157806342966c68146105f15780634352ab4114610611578063508679571461063f57600080fd5b806339509351146105715780633a46b1a8146105915780633ea33f29146105b157600080fd5b806323b872dd116103235780632f2ff15d116102fd5780632f2ff15d146104fa578063313ce5671461051a5780633644e5151461053c57806336568abe1461055157600080fd5b806323b872dd14610493578063248a9ca3146104b35780632ab4d052146104e357600080fd5b8063079fe40e1161035f578063079fe40e14610402578063095ea7b31461043b57806318160ddd1461045b5780631e7ac4881461047157600080fd5b806301ffc9a71461038657806305981769146103bb57806306fdde03146103e0575b600080fd5b34801561039257600080fd5b506103a66103a13660046148e9565b610c46565b60405190151581526020015b60405180910390f35b3480156103c757600080fd5b506103d26102605481565b6040519081526020016103b2565b3480156103ec57600080fd5b506103f5610c57565b6040516103b2919061496b565b34801561040e57600080fd5b5061025f54610423906001600160a01b031681565b6040516001600160a01b0390911681526020016103b2565b34801561044757600080fd5b506103a66104563660046149a3565b610cea565b34801561046757600080fd5b50610161546103d2565b34801561047d57600080fd5b5061049161048c3660046149a3565b610d0c565b005b34801561049f57600080fd5b506103a66104ae3660046149cf565b610ddd565b3480156104bf57600080fd5b506103d26104ce366004614a10565b600090815260fb602052604090206001015490565b3480156104ef57600080fd5b506103d26102615481565b34801561050657600080fd5b50610491610515366004614a29565b610e0d565b34801561052657600080fd5b5060125b60405160ff90911681526020016103b2565b34801561054857600080fd5b506103d2610e37565b34801561055d57600080fd5b5061049161056c366004614a29565b610e46565b34801561057d57600080fd5b506103a661058c3660046149a3565b610ee2565b34801561059d57600080fd5b506103d26105ac3660046149a3565b610f35565b3480156105bd57600080fd5b506104916105cc3660046149a3565b610fa9565b3480156105dd57600080fd5b506104916105ec366004614a10565b611002565b3480156105fd57600080fd5b5061049161060c366004614a10565b61104b565b34801561061d57600080fd5b506103d261062c366004614a59565b6102676020526000908152604090205481565b34801561064b57600080fd5b5061049161065a366004614a10565b61105f565b34801561066b57600080fd5b506103a661067a366004614a59565b6001600160a01b031660009081526065602052604090205460ff1690565b3480156106a457600080fd5b506104236106b3366004614a59565b6001600160a01b03908116600090815261022a60205260409020541690565b3480156106de57600080fd5b506104916106ed366004614a59565b6110a0565b3480156106fe57600080fd5b5061049161070d366004614a59565b6110b1565b34801561071e57600080fd5b5061073261072d366004614a10565b611108565b6040516103b29190600061010082019050825182526020830151602083015260408301516040830152606083015160608301526080830151608083015260a083015160a083015260c083015160c08301526001600160a01b0360e08401511660e083015292915050565b3480156107a857600080fd5b506107bc6107b7366004614a59565b6111d4565b60405163ffffffff90911681526020016103b2565b3480156107dd57600080fd5b506103d26107ec366004614a59565b6001600160a01b0316600090815261015f602052604090205490565b34801561081457600080fd5b506104916108233660046149a3565b6111f7565b610491610836366004614abb565b611213565b34801561084757600080fd5b506103d2610856366004614a59565b611405565b34801561086757600080fd5b5061087b610876366004614a29565b611424565b604080519283526020830191909152016103b2565b34801561089c57600080fd5b506103d26108ab366004614a10565b611479565b3480156108bc57600080fd5b506104236108cb366004614b40565b6114d6565b3480156108dc57600080fd5b506103a66108eb366004614a29565b600091825260fb602090815260408084206001600160a01b0393909316845291905290205460ff1690565b34801561092257600080fd5b50610491610931366004614b62565b6114ef565b34801561094257600080fd5b506103f56115de565b34801561095757600080fd5b506103d2610966366004614a59565b6115ee565b34801561097757600080fd5b50600261052a565b34801561098b57600080fd5b506103d2600081565b3480156109a057600080fd5b506103a66109af3660046149a3565b611677565b3480156109c057600080fd5b506103a66109cf3660046149a3565b611722565b3480156109e057600080fd5b506109f46109ef366004614bd4565b61173a565b6040516103b29190614c16565b348015610a0d57600080fd5b50610a21610a1c366004614c78565b61182f565b6040805192151583526020830191909152016103b2565b348015610a4457600080fd5b50610491610a53366004614cf8565b611a59565b348015610a6457600080fd5b50610491610a73366004614d70565b611d65565b348015610a8457600080fd5b506103d2611e9b565b348015610a9957600080fd5b506103d2610aa8366004614a10565b611f54565b348015610ab957600080fd5b5068044726f7045524332360bc1b6103d2565b348015610ad857600080fd5b5061025e5461025d54604080516001600160a01b03909316835261ffff9091166020830152016103b2565b348015610b0f57600080fd5b50610491610b1e366004614dca565b611f6c565b348015610b2f57600080fd5b50610491610b3e366004614a29565b6120c4565b348015610b4f57600080fd5b50610262546102635461087b919082565b348015610b6c57600080fd5b506103d2610b7b366004614e38565b6001600160a01b0391821660009081526101606020908152604080832093909416825291909152205490565b348015610bb357600080fd5b50610491610bc2366004614f9b565b6120e9565b348015610bd357600080fd5b50610491610be2366004615084565b6122ed565b348015610bf357600080fd5b506103f561263e565b348015610c0857600080fd5b50610c1c610c1736600461510a565b6126cd565b60408051825163ffffffff1681526020928301516001600160e01b031692810192909252016103b2565b6000610c5182612761565b92915050565b60606101628054610c6790615141565b80601f0160208091040260200160405190810160405280929190818152602001828054610c9390615141565b8015610ce05780601f10610cb557610100808354040283529160200191610ce0565b820191906000526020600020905b815481529060010190602001808311610cc357829003601f168201915b5050505050905090565b600080610cf5612786565b9050610d02818585612790565b5060019392505050565b6000610d17816128b5565b612710821115610d5e5760405162461bcd60e51b815260206004820152600d60248201526c313839901e1e9018981818181760991b60448201526064015b60405180910390fd5b61025d80546fffffffffffffffffffffffffffffffff191667ffffffffffffffff841617905561025e80546001600160a01b0385166001600160a01b031990911681179091556040518381527fe2497bd806ec41a6e0dd992c29a72efc0ef8fec9092d1978fd4a1e00b2f18304906020015b60405180910390a2505050565b600080610de8612786565b9050610df58582856128c6565b610e00858585612959565b60019150505b9392505050565b600082815260fb6020526040902060010154610e28816128b5565b610e328383612b3a565b505050565b6000610e41612b5d565b905090565b610e4e612786565b6001600160a01b0316816001600160a01b031614610ed45760405162461bcd60e51b815260206004820152602f60248201527f416363657373436f6e74726f6c3a2063616e206f6e6c792072656e6f756e636560448201527f20726f6c657320666f722073656c6600000000000000000000000000000000006064820152608401610d55565b610ede8282612bda565b5050565b600080610eed612786565b9050610d02818585610f2685896001600160a01b0391821660009081526101606020908152604080832093909416825291909152205490565b610f30919061518c565b612790565b6000438210610f865760405162461bcd60e51b815260206004820152601f60248201527f4552433230566f7465733a20626c6f636b206e6f7420796574206d696e6564006044820152606401610d55565b6001600160a01b038316600090815261022b60205260409020610e069083612bfd565b6000610fb4816128b5565b6001600160a01b0383166000818152610267602052604090819020849055517f8973b95d42472e89416ea69404f8038c041db700af9ec294e7b4cd4e1ff2801c90610dd09085815260200190565b600061100d816128b5565b6102618290556040518281527ff2672935fc79f5237559e2e2999dbe743bf65430894ac2b37666890e7c69e1af906020015b60405180910390a15050565b61105c611056612786565b82612cba565b50565b600061106a816128b5565b6102608290556040518281527ff9d383c69b6255cbd431ca23734f43bdf15e694c7494956c917498469bcbce739060200161103f565b61105c6110ab612786565b82612cc4565b60006110bc816128b5565b61025f80546001600160a01b0319166001600160a01b0384169081179091556040517f299d17e95023f496e0ffc4909cff1a61f74bb5eb18de6f900f4155bfa1b3b33390600090a25050565b61115c6040518061010001604052806000815260200160008152602001600081526020016000815260200160008152602001600080191681526020016000815260200160006001600160a01b031681525090565b5060009081526102646020908152604091829020825161010081018452815481526001820154928101929092526002810154928201929092526003820154606082015260048201546080820152600582015460a0820152600682015460c08201526007909101546001600160a01b031660e082015290565b6001600160a01b038116600090815261022b6020526040812054610c5190612d40565b61120982611203612786565b836128c6565b610ede8282612cba565b600260015414156112665760405162461bcd60e51b815260206004820152601f60248201527f5265656e7472616e637947756172643a207265656e7472616e742063616c6c006044820152606401610d55565b60026001553360009081526065602052604090205460ff168061129857503261128d612786565b6001600160a01b0316145b6112ca5760405162461bcd60e51b81526020600482015260036024820152621093d560ea1b6044820152606401610d55565b60006112d4611e9b565b905060006112ed826112e4612786565b8a88888861182f565b509050600083158061130f575060008381526102646020526040902060050154155b90506113268361131d612786565b8b8b8b86611a59565b8180156113335750600084115b1561138a5761138a611343612786565b60008581526102666020908152604080832072ffffffffffffffffffffffffffffffffffffff600886901c16845290915290208054600160ff9093169290921b9091179055565b611395898989612da9565b6113a08a848b612f19565b896001600160a01b03166113b2612786565b6001600160a01b0316847f9c4945d842cc8c6704877a0defcd9ab09f6d77b24a369a95c2610506c6c38ee78c6040516113ed91815260200190565b60405180910390a45050600180555050505050505050565b6001600160a01b03811660009081526101f76020526040812054610c51565b6000828152610265602090815260408083206001600160a01b038516845290915281205490811561147257506000838152610264602052604090206004015481018181101561147257506000195b9250929050565b60004382106114ca5760405162461bcd60e51b815260206004820152601f60248201527f4552433230566f7465733a20626c6f636b206e6f7420796574206d696e6564006044820152606401610d55565b610c5161022c83612bfd565b600082815261012d60205260408120610e069083612fca565b60006114fa816128b5565b600061025c805461150a90615141565b80601f016020809104026020016040519081016040528092919081815260200182805461153690615141565b80156115835780601f1061155857610100808354040283529160200191611583565b820191906000526020600020905b81548152906001019060200180831161156657829003601f168201915b50505050509050838361025c919061159c9291906147e0565b507fc9c7c3fe08b88b4df9d4d47ef47d2c43d55c025a0ba88ca442580ed9e7348a168185856040516115d0939291906151a4565b60405180910390a150505050565b60606101638054610c6790615141565b6001600160a01b038116600090815261022b60205260408120548015611664576001600160a01b038316600090815261022b602052604090206116326001836151ea565b8154811061164257611642615201565b60009182526020909120015464010000000090046001600160e01b0316611667565b60005b6001600160e01b03169392505050565b600080611682612786565b6001600160a01b03818116600090815261016060209081526040808320938916835292905220549091508381101561170a5760405162461bcd60e51b815260206004820152602560248201527f45524332303a2064656372656173656420616c6c6f77616e63652062656c6f77604482015264207a65726f60d81b6064820152608401610d55565b6117178286868403612790565b506001949350505050565b60008061172d612786565b9050610d02818585612959565b60608167ffffffffffffffff81111561175557611755614e66565b60405190808252806020026020018201604052801561178857816020015b60608152602001906001900390816117735790505b50905060005b82811015611828576117f8308585848181106117ac576117ac615201565b90506020028101906117be9190615217565b8080601f016020809104026020016040519081016040528093929190818152602001838380828437600092019190915250612fd692505050565b82828151811061180a5761180a615201565b602002602001018190525080806118209061525e565b91505061178e565b5092915050565b600086815261026460209081526040808320815161010081018352815481526001820154938101939093526002810154918301919091526003810154606083015260048101546080830152600581015460a08301819052600682015460c08401526007909101546001600160a01b031660e083015282919015611a4d5761192886868080602002602001604051908101604052809392919081815260200183836020028082843760009201919091525050505060a08301516040516bffffffffffffffffffffffff1960608d901b16602082015260348101889052605401604051602081830303815290604052805190602001206130ca565b90935091508261197a5760405162461bcd60e51b815260206004820152601160248201527f6e6f7420696e2077686974656c6973742e0000000000000000000000000000006044820152606401610d55565b60008981526102666020908152604080832072ffffffffffffffffffffffffffffffffffffff60088d901c168452909152902054600160ff8a161b16156119f45760405162461bcd60e51b815260206004820152600e60248201526d383937b7b31031b630b4b6b2b21760911b6044820152606401610d55565b831580611a015750838711155b611a4d5760405162461bcd60e51b815260206004820152601760248201527f696e76616c6964207175616e746974792070726f6f662e0000000000000000006044820152606401610d55565b50965096945050505050565b60008681526102646020908152604091829020825161010081018452815481526001820154928101929092526002810154928201929092526003820154606082015260048201546080820152600582015460a0820152600682015460c08201526007909101546001600160a01b0390811660e08301819052908516148015611ae457508060c0015183145b611b3c5760405162461bcd60e51b8152602060048201526024808201527f696e76616c69642063757272656e6379206f722070726963652073706563696660448201526334b2b21760e11b6064820152608401610d55565b600085118015611b585750811580611b58575080606001518511155b611ba45760405162461bcd60e51b815260206004820152601960248201527f696e76616c6964207175616e7469747920636c61696d65642e000000000000006044820152606401610d55565b8060200151858260400151611bb9919061518c565b1115611c075760405162461bcd60e51b815260206004820152601760248201527f657863656564206d6178206d696e7420737570706c792e0000000000000000006044820152606401610d55565b6102615461026054811580611c3057508187611c236101615490565b611c2d919061518c565b11155b611c7c5760405162461bcd60e51b815260206004820152601860248201527f657863656564206d617820746f74616c20737570706c792e00000000000000006044820152606401610d55565b801580611cae57506001600160a01b038816600090815261026760205260409020548190611cab90899061518c565b11155b611cfa5760405162461bcd60e51b815260206004820152601d60248201527f65786365656420636c61696d206c696d697420666f722077616c6c65740000006044820152606401610d55565b6000611d068a8a611424565b91505080421015611d595760405162461bcd60e51b815260206004820152601160248201527f63616e6e6f7420636c61696d207965742e0000000000000000000000000000006044820152606401610d55565b50505050505050505050565b83421115611db55760405162461bcd60e51b815260206004820152601d60248201527f4552433230566f7465733a207369676e617475726520657870697265640000006044820152606401610d55565b604080517fe48329057bfd03d55e49b547132e39cffd9c1820ad7b9d4c5307691425d15adf60208201526001600160a01b038816918101919091526060810186905260808101859052600090611e2f90611e279060a00160405160208183030381529060405280519060200120613198565b8585856131e6565b9050611e3a8161320e565b8614611e885760405162461bcd60e51b815260206004820152601960248201527f4552433230566f7465733a20696e76616c6964206e6f6e6365000000000000006044820152606401610d55565b611e928188612cc4565b50505050505050565b61026354610262546000918291611eb2919061518c565b90505b61026254811115611f0b576102646000611ed06001846151ea565b8152602001908152602001600020600001544210611ef957611ef36001826151ea565b91505090565b80611f0381615279565b915050611eb5565b5060405162461bcd60e51b815260206004820152601960248201527f6e6f20616374697665206d696e7420636f6e646974696f6e2e000000000000006044820152606401610d55565b600081815261012d60205260408120610c5190613237565b83421115611fbc5760405162461bcd60e51b815260206004820152601d60248201527f45524332305065726d69743a206578706972656420646561646c696e650000006044820152606401610d55565b60007f6e71edae12b1b97f4d1f60370fef10105fa2faae0126114a169c64845d6126c9888888611feb8c61320e565b6040805160208101969096526001600160a01b0394851690860152929091166060840152608083015260a082015260c0810186905260e001604051602081830303815290604052805190602001209050600061204682613198565b90506000612056828787876131e6565b9050896001600160a01b0316816001600160a01b0316146120b95760405162461bcd60e51b815260206004820152601e60248201527f45524332305065726d69743a20696e76616c6964207369676e617475726500006044820152606401610d55565b611d598a8a8a612790565b600082815260fb60205260409020600101546120df816128b5565b610e328383612bda565b600054610100900460ff16158080156121095750600054600160ff909116105b806121235750303b158015612123575060005460ff166001145b6121865760405162461bcd60e51b815260206004820152602e60248201527f496e697469616c697a61626c653a20636f6e747261637420697320616c72656160448201526d191e481a5b9a5d1a585b1a5e995960921b6064820152608401610d55565b6000805460ff1916600117905580156121a9576000805461ff0019166101001790555b6121b285613241565b6121bb886132d0565b6121c5888861331a565b85516121d99061025c906020890190614860565b5061025f80546001600160a01b038087166001600160a01b03199283161790925561025e80549286169290911691909117905561025d80546fffffffffffffffffffffffffffffffff84166fffffffffffffffffffffffffffffffff1990911617905561224760008a61336a565b6122717f8502233096d909befbda0999bb8ea2f3a6be3c138b9fbf003752a4c8bce86f6c8a61336a565b61229c7f8502233096d909befbda0999bb8ea2f3a6be3c138b9fbf003752a4c8bce86f6c600061336a565b80156122e2576000805461ff0019169055604051600181527f7f26b83ff96e1f2b6a682f133852f6798a09c465da95921460cefb38474024989060200160405180910390a15b505050505050505050565b60006122f8816128b5565b610262546102635481841561231457612311828461518c565b90505b6102638690556102628190556000805b878110156124e257801580612354575088888281811061234657612346615201565b905061010002016000013582105b6123b35760405162461bcd60e51b815260206004820152602a60248201527f737461727454696d657374616d70206d75737420626520696e20617363656e6460448201526934b7339037b93232b91760b11b6064820152608401610d55565b6000610264816123c3848761518c565b81526020019081526020016000206002015490508989838181106123e9576123e9615201565b90506101000201602001358111156124435760405162461bcd60e51b815260206004820152601a60248201527f6d617820737570706c7920636c61696d656420616c72656164790000000000006044820152606401610d55565b89898381811061245557612455615201565b61010002919091019050610264600061246e858861518c565b815260200190815260200160002081816124889190615290565b50819050610264600061249b858861518c565b81526020810191909152604001600020600201558989838181106124c1576124c1615201565b905061010002016000013592505080806124da9061525e565b915050612324565b50851561256257835b8281101561255c57600081815261026460209081526040822082815560018101839055600281018390556003810183905560048101839055600581018390556006810192909255600790910180546001600160a01b03191690556102669052806125548161525e565b9150506124eb565b506125fb565b868311156125fb57865b838110156125f9576102646000612583838661518c565b81526020810191909152604001600090812081815560018101829055600281018290556003810182905560048101829055600581018290556006810182905560070180546001600160a01b0319169055610266906125e1838661518c565b815260200152806125f18161525e565b91505061256c565b505b7f22ddd1bcb3816651679299dbffccb94973edec10c32e88dc2f4735c7699a02ca888860405161262c929190615301565b60405180910390a15050505050505050565b61025c805461264c90615141565b80601f016020809104026020016040519081016040528092919081815260200182805461267890615141565b80156126c55780601f1061269a576101008083540402835291602001916126c5565b820191906000526020600020905b8154815290600101906020018083116126a857829003601f168201915b505050505081565b60408051808201909152600080825260208201526001600160a01b038316600090815261022b60205260409020805463ffffffff841690811061271257612712615201565b60009182526020918290206040805180820190915291015463ffffffff8116825264010000000090046001600160e01b0316918101919091529392505050565b6001600160a01b03163b151590565b60006001600160e01b03198216635a05180f60e01b1480610c515750610c5182613374565b6000610e416133a9565b6001600160a01b0383166127f25760405162461bcd60e51b8152602060048201526024808201527f45524332303a20617070726f76652066726f6d20746865207a65726f206164646044820152637265737360e01b6064820152608401610d55565b6001600160a01b0382166128535760405162461bcd60e51b815260206004820152602260248201527f45524332303a20617070726f766520746f20746865207a65726f206164647265604482015261737360f01b6064820152608401610d55565b6001600160a01b038381166000818152610160602090815260408083209487168084529482529182902085905590518481527f8c5be1e5ebec7d5bd14f71427d1e84f3dd0314c0f7b2291e5b200ac8c7c3b925910160405180910390a3505050565b61105c816128c1612786565b6133d3565b6001600160a01b0383811660009081526101606020908152604080832093861683529290522054600019811461295357818110156129465760405162461bcd60e51b815260206004820152601d60248201527f45524332303a20696e73756666696369656e7420616c6c6f77616e63650000006044820152606401610d55565b6129538484848403612790565b50505050565b6001600160a01b0383166129bd5760405162461bcd60e51b815260206004820152602560248201527f45524332303a207472616e736665722066726f6d20746865207a65726f206164604482015264647265737360d81b6064820152608401610d55565b6001600160a01b038216612a1f5760405162461bcd60e51b815260206004820152602360248201527f45524332303a207472616e7366657220746f20746865207a65726f206164647260448201526265737360e81b6064820152608401610d55565b612a2a838383613453565b6001600160a01b038316600090815261015f602052604090205481811015612aa35760405162461bcd60e51b815260206004820152602660248201527f45524332303a207472616e7366657220616d6f756e7420657863656564732062604482015265616c616e636560d01b6064820152608401610d55565b6001600160a01b03808516600090815261015f6020526040808220858503905591851681529081208054849290612adb90849061518c565b92505081905550826001600160a01b0316846001600160a01b03167fddf252ad1be2c89b69c2b068fc378daa952ba7f163c4a11628f55a4df523b3ef84604051612b2791815260200190565b60405180910390a3612953848484613597565b612b4482826135a2565b600082815261012d60205260409020610e329082613645565b6000610e417f8b73c3c69bb8fe3d512ecc4cf759cc79239f7b179b0ffacaa9a75d522b39400f612b8d6101c35490565b6101c4546040805160208101859052908101839052606081018290524660808201523060a082015260009060c0016040516020818303038152906040528051906020012090509392505050565b612be4828261365a565b600082815261012d60205260409020610e3290826136fb565b8154600090815b81811015612c61576000612c188284613710565b905084868281548110612c2d57612c2d615201565b60009182526020909120015463ffffffff161115612c4d57809250612c5b565b612c5881600161518c565b91505b50612c04565b8115612ca55784612c736001846151ea565b81548110612c8357612c83615201565b60009182526020909120015464010000000090046001600160e01b0316612ca8565b60005b6001600160e01b031695945050505050565b610ede828261372b565b6001600160a01b03828116600081815261022a60208181526040808420805461015f845282862054949093528787166001600160a01b03198416811790915590519190951694919391928592917f3134e8a2e6d97e929a7e54011ea5485d7d196dd5f0ba4d4ef95803e8e3fc257f9190a4612953828483613744565b600063ffffffff821115612da55760405162461bcd60e51b815260206004820152602660248201527f53616665436173743a2076616c756520646f65736e27742066697420696e203360448201526532206269747360d01b6064820152608401610d55565b5090565b80612db357505050565b6000670de0b6b3a7640000612dc88386615398565b612dd291906153b7565b905060008111612e245760405162461bcd60e51b815260206004820152601060248201527f7175616e7469747920746f6f206c6f77000000000000000000000000000000006044820152606401610d55565b61025d5460009061271090612e4b906fffffffffffffffffffffffffffffffff1684615398565b612e5591906153b7565b90506001600160a01b03841673eeeeeeeeeeeeeeeeeeeeeeeeeeeeeeeeeeeeeeee1415612ecb57813414612ecb5760405162461bcd60e51b815260206004820152601660248201527f6d7573742073656e6420746f74616c2070726963652e000000000000000000006044820152606401610d55565b612eea84612ed7612786565b61025e546001600160a01b031684613883565b612f1284612ef6612786565b61025f546001600160a01b0316612f0d85876151ea565b613883565b5050505050565b6000828152610264602052604081206002018054839290612f3b90849061518c565b90915550506000828152610265602052604081204291612f59612786565b6001600160a01b03166001600160a01b0316815260200190815260200160002081905550806102676000612f8b612786565b6001600160a01b03166001600160a01b031681526020019081526020016000206000828254612fba919061518c565b90915550610e32905083826138cd565b6000610e0683836138d7565b60606001600160a01b0383163b61303e5760405162461bcd60e51b815260206004820152602660248201527f416464726573733a2064656c65676174652063616c6c20746f206e6f6e2d636f6044820152651b9d1c9858dd60d21b6064820152608401610d55565b600080846001600160a01b03168460405161305991906153d9565b600060405180830381855af49150503d8060008114613094576040519150601f19603f3d011682016040523d82523d6000602084013e613099565b606091505b50915091506130c1828260405180606001604052806027815260200161550b60279139613901565b95945050505050565b6000808281805b875181101561318c576130e5600283615398565b915060008882815181106130fb576130fb615201565b6020026020010151905080841161313d576040805160208101869052908101829052606001604051602081830303815290604052805190602001209350613179565b6040805160208101839052908101859052606001604051602081830303815290604052805190602001209350600183613176919061518c565b92505b50806131848161525e565b9150506130d1565b50941495939450505050565b6000610c516131a5612b5d565b8360405161190160f01b6020820152602281018390526042810182905260009060620160405160208183030381529060405280519060200120905092915050565b60008060006131f78787878761393a565b9150915061320481613a27565b5095945050505050565b6001600160a01b03811660009081526101f7602052604090208054600181018255905b50919050565b6000610c51825490565b600054610100900460ff166132685760405162461bcd60e51b8152600401610d55906153f5565b60005b8151811015610ede5760016065600084848151811061328c5761328c615201565b6020908102919091018101516001600160a01b03168252810191909152604001600020805460ff1916911515919091179055806132c88161525e565b91505061326b565b600054610100900460ff166132f75760405162461bcd60e51b8152600401610d55906153f5565b61105c81604051806040016040528060018152602001603160f81b815250613be2565b600054610100900460ff166133415760405162461bcd60e51b8152600401610d55906153f5565b815161335590610162906020850190614860565b508051610e3290610163906020840190614860565b610ede8282612b3a565b60006001600160e01b03198216637965db0b60e01b1480610c5157506301ffc9a760e01b6001600160e01b0319831614610c51565b3360009081526065602052604081205460ff16156133ce575060131936013560601c90565b503390565b600082815260fb602090815260408083206001600160a01b038516845290915290205460ff16610ede57613411816001600160a01b03166014613c25565b61341c836020613c25565b60405160200161342d929190615440565b60408051601f198184030181529082905262461bcd60e51b8252610d559160040161496b565b600080527fde23fa6c6392e300b5ced791de0faa0b28226983a4ab1c05a1ba79ef4d0a13126020527f70e64e82d0337f3fa9071fdb3266f859725ed1fc29697b2e6e986b76cffbfb085460ff161580156134b557506001600160a01b03831615155b80156134c957506001600160a01b03821615155b15610e32576001600160a01b03831660009081527fde23fa6c6392e300b5ced791de0faa0b28226983a4ab1c05a1ba79ef4d0a1312602052604090205460ff168061354b57506001600160a01b03821660009081527fde23fa6c6392e300b5ced791de0faa0b28226983a4ab1c05a1ba79ef4d0a1312602052604090205460ff165b610e325760405162461bcd60e51b815260206004820152601560248201527f7472616e736665727320726573747269637465642e00000000000000000000006044820152606401610d55565b610e32838383613dce565b600082815260fb602090815260408083206001600160a01b038516845290915290205460ff16610ede57600082815260fb602090815260408083206001600160a01b03851684529091529020805460ff19166001179055613601612786565b6001600160a01b0316816001600160a01b0316837f2f8788117e7eff1d82e926ec794901d17c78024a50270940304540a733656f0d60405160405180910390a45050565b6000610e06836001600160a01b038416613e01565b600082815260fb602090815260408083206001600160a01b038516845290915290205460ff1615610ede57600082815260fb602090815260408083206001600160a01b03851684529091529020805460ff191690556136b7612786565b6001600160a01b0316816001600160a01b0316837ff6391f5c32d9c69d2a47ea670b442974b53935d1edc7fd64eb21e047a839171b60405160405180910390a45050565b6000610e06836001600160a01b038416613e50565b600061371f60028484186153b7565b610e069084841661518c565b6137358282613f43565b61295361022c6140a7836140b3565b816001600160a01b0316836001600160a01b0316141580156137665750600081115b15610e32576001600160a01b038316156137f5576001600160a01b038316600090815261022b6020526040812081906137a2906140a7856140b3565b91509150846001600160a01b03167fdec2bacdd2f05b59de34da9b523dff8be42e5e38e818c82fdb0bae774387a72483836040516137ea929190918252602082015260400190565b60405180910390a250505b6001600160a01b03821615610e32576001600160a01b038216600090815261022b60205260408120819061382c9061422c856140b3565b91509150836001600160a01b03167fdec2bacdd2f05b59de34da9b523dff8be42e5e38e818c82fdb0bae774387a7248383604051613874929190918252602082015260400190565b60405180910390a25050505050565b8061388d57612953565b6001600160a01b03841673eeeeeeeeeeeeeeeeeeeeeeeeeeeeeeeeeeeeeeee14156138c1576138bc8282614238565b612953565b612953848484846142db565b610ede8282614334565b60008260000182815481106138ee576138ee615201565b9060005260206000200154905092915050565b60608315613910575081610e06565b8251156139205782518084602001fd5b8160405162461bcd60e51b8152600401610d55919061496b565b6000807f7fffffffffffffffffffffffffffffff5d576e7357a4501ddfe92f46681b20a08311156139715750600090506003613a1e565b8460ff16601b1415801561398957508460ff16601c14155b1561399a5750600090506004613a1e565b6040805160008082526020820180845289905260ff881692820192909252606081018690526080810185905260019060a0016020604051602081039080840390855afa1580156139ee573d6000803e3d6000fd5b5050604051601f1901519150506001600160a01b038116613a1757600060019250925050613a1e565b9150600090505b94509492505050565b6000816004811115613a3b57613a3b6154c1565b1415613a445750565b6001816004811115613a5857613a586154c1565b1415613aa65760405162461bcd60e51b815260206004820152601860248201527f45434453413a20696e76616c6964207369676e617475726500000000000000006044820152606401610d55565b6002816004811115613aba57613aba6154c1565b1415613b085760405162461bcd60e51b815260206004820152601f60248201527f45434453413a20696e76616c6964207369676e6174757265206c656e677468006044820152606401610d55565b6003816004811115613b1c57613b1c6154c1565b1415613b755760405162461bcd60e51b815260206004820152602260248201527f45434453413a20696e76616c6964207369676e6174757265202773272076616c604482015261756560f01b6064820152608401610d55565b6004816004811115613b8957613b896154c1565b141561105c5760405162461bcd60e51b815260206004820152602260248201527f45434453413a20696e76616c6964207369676e6174757265202776272076616c604482015261756560f01b6064820152608401610d55565b600054610100900460ff16613c095760405162461bcd60e51b8152600401610d55906153f5565b8151602092830120815191909201206101c3919091556101c455565b60606000613c34836002615398565b613c3f90600261518c565b67ffffffffffffffff811115613c5757613c57614e66565b6040519080825280601f01601f191660200182016040528015613c81576020820181803683370190505b509050600360fc1b81600081518110613c9c57613c9c615201565b60200101906001600160f81b031916908160001a905350600f60fb1b81600181518110613ccb57613ccb615201565b60200101906001600160f81b031916908160001a9053506000613cef846002615398565b613cfa90600161518c565b90505b6001811115613d7f577f303132333435363738396162636465660000000000000000000000000000000085600f1660108110613d3b57613d3b615201565b1a60f81b828281518110613d5157613d51615201565b60200101906001600160f81b031916908160001a90535060049490941c93613d7881615279565b9050613cfd565b508315610e065760405162461bcd60e51b815260206004820181905260248201527f537472696e67733a20686578206c656e67746820696e73756666696369656e746044820152606401610d55565b6001600160a01b03838116600090815261022a6020526040808220548584168352912054610e3292918216911683613744565b6000818152600183016020526040812054613e4857508154600181810184556000848152602080822090930184905584548482528286019093526040902091909155610c51565b506000610c51565b60008181526001830160205260408120548015613f39576000613e746001836151ea565b8554909150600090613e88906001906151ea565b9050818114613eed576000866000018281548110613ea857613ea8615201565b9060005260206000200154905080876000018481548110613ecb57613ecb615201565b6000918252602080832090910192909255918252600188019052604090208390555b8554869080613efe57613efe6154d7565b600190038181906000526020600020016000905590558560010160008681526020019081526020016000206000905560019350505050610c51565b6000915050610c51565b6001600160a01b038216613fa35760405162461bcd60e51b815260206004820152602160248201527f45524332303a206275726e2066726f6d20746865207a65726f206164647265736044820152607360f81b6064820152608401610d55565b613faf82600083613453565b6001600160a01b038216600090815261015f6020526040902054818110156140245760405162461bcd60e51b815260206004820152602260248201527f45524332303a206275726e20616d6f756e7420657863656564732062616c616e604482015261636560f01b6064820152608401610d55565b6001600160a01b038316600090815261015f60205260408120838303905561016180548492906140559084906151ea565b90915550506040518281526000906001600160a01b038516907fddf252ad1be2c89b69c2b068fc378daa952ba7f163c4a11628f55a4df523b3ef9060200160405180910390a3610e3283600084613597565b6000610e0682846151ea565b8254600090819080156140fe57856140cc6001836151ea565b815481106140dc576140dc615201565b60009182526020909120015464010000000090046001600160e01b0316614101565b60005b6001600160e01b0316925061411a83858763ffffffff16565b9150600081118015614158575043866141346001846151ea565b8154811061414457614144615201565b60009182526020909120015463ffffffff16145b156141b857614166826143cd565b866141726001846151ea565b8154811061418257614182615201565b9060005260206000200160000160046101000a8154816001600160e01b0302191690836001600160e01b03160217905550614223565b8560405180604001604052806141cd43612d40565b63ffffffff1681526020016141e1856143cd565b6001600160e01b0390811690915282546001810184556000938452602093849020835194909301519091166401000000000263ffffffff909316929092179101555b50935093915050565b6000610e06828461518c565b6000826001600160a01b03168260405160006040518083038185875af1925050503d8060008114614285576040519150601f19603f3d011682016040523d82523d6000602084013e61428a565b606091505b5050905080610e325760405162461bcd60e51b815260206004820152601c60248201527f6e617469766520746f6b656e207472616e73666572206661696c6564000000006044820152606401610d55565b816001600160a01b0316836001600160a01b031614156142fa57612953565b6001600160a01b03831630141561431f576138bc6001600160a01b0385168383614436565b6129536001600160a01b038516848484614499565b61433e82826144d1565b610161546001600160e01b0310156143be5760405162461bcd60e51b815260206004820152603060248201527f4552433230566f7465733a20746f74616c20737570706c79207269736b73206f60448201527f766572666c6f77696e6720766f746573000000000000000000000000000000006064820152608401610d55565b61295361022c61422c836140b3565b60006001600160e01b03821115612da55760405162461bcd60e51b815260206004820152602760248201527f53616665436173743a2076616c756520646f65736e27742066697420696e20326044820152663234206269747360c81b6064820152608401610d55565b6040516001600160a01b038316602482015260448101829052610e3290849063a9059cbb60e01b906064015b60408051601f198184030181529190526020810180516001600160e01b03166001600160e01b0319909316929092179091526145c6565b6040516001600160a01b03808516602483015283166044820152606481018290526129539085906323b872dd60e01b90608401614462565b6001600160a01b0382166145275760405162461bcd60e51b815260206004820152601f60248201527f45524332303a206d696e7420746f20746865207a65726f2061646472657373006044820152606401610d55565b61453360008383613453565b806101616000828254614546919061518c565b90915550506001600160a01b038216600090815261015f60205260408120805483929061457490849061518c565b90915550506040518181526001600160a01b038316906000907fddf252ad1be2c89b69c2b068fc378daa952ba7f163c4a11628f55a4df523b3ef9060200160405180910390a3610ede60008383613597565b600061461b826040518060400160405280602081526020017f5361666545524332303a206c6f772d6c6576656c2063616c6c206661696c6564815250856001600160a01b03166146989092919063ffffffff16565b805190915015610e32578080602001905181019061463991906154ed565b610e325760405162461bcd60e51b815260206004820152602a60248201527f5361666545524332303a204552433230206f7065726174696f6e20646964206e6044820152691bdd081cdd58d8d9595960b21b6064820152608401610d55565b60606146a784846000856146af565b949350505050565b6060824710156147105760405162461bcd60e51b815260206004820152602660248201527f416464726573733a20696e73756666696369656e742062616c616e636520666f6044820152651c8818d85b1b60d21b6064820152608401610d55565b6001600160a01b0385163b6147675760405162461bcd60e51b815260206004820152601d60248201527f416464726573733a2063616c6c20746f206e6f6e2d636f6e74726163740000006044820152606401610d55565b600080866001600160a01b0316858760405161478391906153d9565b60006040518083038185875af1925050503d80600081146147c0576040519150601f19603f3d011682016040523d82523d6000602084013e6147c5565b606091505b50915091506147d5828286613901565b979650505050505050565b8280546147ec90615141565b90600052602060002090601f01602090048101928261480e5760008555614854565b82601f106148275782800160ff19823516178555614854565b82800160010185558215614854579182015b82811115614854578235825591602001919060010190614839565b50612da59291506148d4565b82805461486c90615141565b90600052602060002090601f01602090048101928261488e5760008555614854565b82601f106148a757805160ff1916838001178555614854565b82800160010185558215614854579182015b828111156148545782518255916020019190600101906148b9565b5b80821115612da557600081556001016148d5565b6000602082840312156148fb57600080fd5b81356001600160e01b031981168114610e0657600080fd5b60005b8381101561492e578181015183820152602001614916565b838111156129535750506000910152565b60008151808452614957816020860160208601614913565b601f01601f19169290920160200192915050565b602081526000610e06602083018461493f565b6001600160a01b038116811461105c57600080fd5b803561499e8161497e565b919050565b600080604083850312156149b657600080fd5b82356149c18161497e565b946020939093013593505050565b6000806000606084860312156149e457600080fd5b83356149ef8161497e565b925060208401356149ff8161497e565b929592945050506040919091013590565b600060208284031215614a2257600080fd5b5035919050565b60008060408385031215614a3c57600080fd5b823591506020830135614a4e8161497e565b809150509250929050565b600060208284031215614a6b57600080fd5b8135610e068161497e565b60008083601f840112614a8857600080fd5b50813567ffffffffffffffff811115614aa057600080fd5b6020830191508360208260051b850101111561147257600080fd5b600080600080600080600060c0888a031215614ad657600080fd5b8735614ae18161497e565b9650602088013595506040880135614af88161497e565b945060608801359350608088013567ffffffffffffffff811115614b1b57600080fd5b614b278a828b01614a76565b989b979a5095989497959660a090950135949350505050565b60008060408385031215614b5357600080fd5b50508035926020909101359150565b60008060208385031215614b7557600080fd5b823567ffffffffffffffff80821115614b8d57600080fd5b818501915085601f830112614ba157600080fd5b813581811115614bb057600080fd5b866020828501011115614bc257600080fd5b60209290920196919550909350505050565b60008060208385031215614be757600080fd5b823567ffffffffffffffff811115614bfe57600080fd5b614c0a85828601614a76565b90969095509350505050565b6000602080830181845280855180835260408601915060408160051b870101925083870160005b82811015614c6b57603f19888603018452614c5985835161493f565b94509285019290850190600101614c3d565b5092979650505050505050565b60008060008060008060a08789031215614c9157600080fd5b863595506020870135614ca38161497e565b945060408701359350606087013567ffffffffffffffff811115614cc657600080fd5b614cd289828a01614a76565b979a9699509497949695608090950135949350505050565b801515811461105c57600080fd5b60008060008060008060c08789031215614d1157600080fd5b863595506020870135614d238161497e565b9450604087013593506060870135614d3a8161497e565b92506080870135915060a0870135614d5181614cea565b809150509295509295509295565b803560ff8116811461499e57600080fd5b60008060008060008060c08789031215614d8957600080fd5b8635614d948161497e565b95506020870135945060408701359350614db060608801614d5f565b92506080870135915060a087013590509295509295509295565b600080600080600080600060e0888a031215614de557600080fd5b8735614df08161497e565b96506020880135614e008161497e565b95506040880135945060608801359350614e1c60808901614d5f565b925060a0880135915060c0880135905092959891949750929550565b60008060408385031215614e4b57600080fd5b8235614e568161497e565b91506020830135614a4e8161497e565b634e487b7160e01b600052604160045260246000fd5b604051601f8201601f1916810167ffffffffffffffff81118282101715614ea557614ea5614e66565b604052919050565b600082601f830112614ebe57600080fd5b813567ffffffffffffffff811115614ed857614ed8614e66565b614eeb601f8201601f1916602001614e7c565b818152846020838601011115614f0057600080fd5b816020850160208301376000918101602001919091529392505050565b600082601f830112614f2e57600080fd5b8135602067ffffffffffffffff821115614f4a57614f4a614e66565b8160051b614f59828201614e7c565b9283528481018201928281019087851115614f7357600080fd5b83870192505b848310156147d5578235614f8c8161497e565b82529183019190830190614f79565b600080600080600080600080610100898b031215614fb857600080fd5b614fc189614993565b9750602089013567ffffffffffffffff80821115614fde57600080fd5b614fea8c838d01614ead565b985060408b013591508082111561500057600080fd5b61500c8c838d01614ead565b975060608b013591508082111561502257600080fd5b61502e8c838d01614ead565b965060808b013591508082111561504457600080fd5b506150518b828c01614f1d565b94505061506060a08a01614993565b925061506e60c08a01614993565b915060e089013590509295985092959890939650565b60008060006040848603121561509957600080fd5b833567ffffffffffffffff808211156150b157600080fd5b818601915086601f8301126150c557600080fd5b8135818111156150d457600080fd5b8760208260081b85010111156150e957600080fd5b602092830195509350508401356150ff81614cea565b809150509250925092565b6000806040838503121561511d57600080fd5b82356151288161497e565b9150602083013563ffffffff81168114614a4e57600080fd5b600181811c9082168061515557607f821691505b6020821081141561323157634e487b7160e01b600052602260045260246000fd5b634e487b7160e01b600052601160045260246000fd5b6000821982111561519f5761519f615176565b500190565b6040815260006151b7604083018661493f565b8281036020840152838152838560208301376000602085830101526020601f19601f860116820101915050949350505050565b6000828210156151fc576151fc615176565b500390565b634e487b7160e01b600052603260045260246000fd5b6000808335601e1984360301811261522e57600080fd5b83018035915067ffffffffffffffff82111561524957600080fd5b60200191503681900382131561147257600080fd5b600060001982141561527257615272615176565b5060010190565b60008161528857615288615176565b506000190190565b813581556020820135600182015560408201356002820155606082013560038201556080820135600482015560a0820135600582015560c082013560068201556007810160e08301356152e28161497e565b81546001600160a01b0319166001600160a01b03919091161790555050565b6020808252818101839052600090604080840186845b8781101561538b578135835284820135858401528382013584840152606080830135908401526080808301359084015260a0808301359084015260c0808301359084015260e08083013561536a8161497e565b6001600160a01b031690840152610100928301929190910190600101615317565b5090979650505050505050565b60008160001904831182151516156153b2576153b2615176565b500290565b6000826153d457634e487b7160e01b600052601260045260246000fd5b500490565b600082516153eb818460208701614913565b9190910192915050565b6020808252602b908201527f496e697469616c697a61626c653a20636f6e7472616374206973206e6f74206960408201526a6e697469616c697a696e6760a81b606082015260800190565b7f416363657373436f6e74726f6c3a206163636f756e7420000000000000000000815260008351615478816017850160208801614913565b7f206973206d697373696e6720726f6c652000000000000000000000000000000060179184019182015283516154b5816028840160208801614913565b01602801949350505050565b634e487b7160e01b600052602160045260246000fd5b634e487b7160e01b600052603160045260246000fd5b6000602082840312156154ff57600080fd5b8151610e0681614cea56fe416464726573733a206c6f772d6c6576656c2064656c65676174652063616c6c206661696c6564a2646970667358221220a7b82c4cd0f966aa16ffbfaf1b2df0a648b40ae5b93769f0b5375e66bf0b078f64736f6c634300080c0033",
  "linkReferences": {},
  "deployedLinkReferences": {}
}