{
  "_format": "hh-sol-artifact-1",
  "contractName": "DropERC721",
  "sourceName": "contracts/drop/DropERC721.sol",
  "abi": [
    {
      "inputs": [],
      "stateMutability": "nonpayable",
      "type": "constructor"
    },
    {
      "inputs": [],
      "name": "ApprovalCallerNotOwnerNorApproved",
      "type": "error"
    },
    {
      "inputs": [],
      "name": "ApprovalQueryForNonexistentToken",
      "type": "error"
    },
    {
      "inputs": [],
      "name": "ApprovalToCurrentOwner",
      "type": "error"
    },
    {
      "inputs": [],
      "name": "ApproveToCaller",
      "type": "error"
    },
    {
      "inputs": [],
      "name": "BalanceQueryForZeroAddress",
      "type": "error"
    },
    {
      "inputs": [],
      "name": "MintToZeroAddress",
      "type": "error"
    },
    {
      "inputs": [],
      "name": "MintZeroQuantity",
      "type": "error"
    },
    {
      "inputs": [],
      "name": "OwnerQueryForNonexistentToken",
      "type": "error"
    },
    {
      "inputs": [],
      "name": "TransferCallerNotOwnerNorApproved",
      "type": "error"
    },
    {
      "inputs": [],
      "name": "TransferFromIncorrectOwner",
      "type": "error"
    },
    {
      "inputs": [],
      "name": "TransferToNonERC721ReceiverImplementer",
      "type": "error"
    },
    {
      "inputs": [],
      "name": "TransferToZeroAddress",
      "type": "error"
    },
    {
      "inputs": [],
      "name": "URIQueryForNonexistentToken",
      "type": "error"
    },
    {
      "anonymous": false,
      "inputs": [
        {
          "indexed": true,
          "internalType": "address",
          "name": "owner",
          "type": "address"
        },
        {
          "indexed": true,
          "internalType": "address",
          "name": "approved",
          "type": "address"
        },
        {
          "indexed": true,
          "internalType": "uint256",
          "name": "tokenId",
          "type": "uint256"
        }
      ],
      "name": "Approval",
      "type": "event"
    },
    {
      "anonymous": false,
      "inputs": [
        {
          "indexed": true,
          "internalType": "address",
          "name": "owner",
          "type": "address"
        },
        {
          "indexed": true,
          "internalType": "address",
          "name": "operator",
          "type": "address"
        },
        {
          "indexed": false,
          "internalType": "bool",
          "name": "approved",
          "type": "bool"
        }
      ],
      "name": "ApprovalForAll",
      "type": "event"
    },
    {
      "anonymous": false,
      "inputs": [
        {
          "components": [
            {
              "internalType": "uint256",
              "name": "startTimestamp",
              "type": "uint256"
            },
            {
              "internalType": "uint256",
              "name": "maxClaimableSupply",
              "type": "uint256"
            },
            {
              "internalType": "uint256",
              "name": "supplyClaimed",
              "type": "uint256"
            },
            {
              "internalType": "uint256",
              "name": "quantityLimitPerWallet",
              "type": "uint256"
            },
            {
              "internalType": "bytes32",
              "name": "merkleRoot",
              "type": "bytes32"
            },
            {
              "internalType": "uint256",
              "name": "pricePerToken",
              "type": "uint256"
            },
            {
              "internalType": "address",
              "name": "currency",
              "type": "address"
            },
            {
              "internalType": "string",
              "name": "metadata",
              "type": "string"
            }
          ],
          "indexed": false,
          "internalType": "struct IClaimCondition.ClaimCondition[]",
          "name": "claimConditions",
          "type": "tuple[]"
        },
        {
          "indexed": false,
          "internalType": "bool",
          "name": "resetEligibility",
          "type": "bool"
        }
      ],
      "name": "ClaimConditionsUpdated",
      "type": "event"
    },
    {
      "anonymous": false,
      "inputs": [
        {
          "indexed": false,
          "internalType": "string",
          "name": "prevURI",
          "type": "string"
        },
        {
          "indexed": false,
          "internalType": "string",
          "name": "newURI",
          "type": "string"
        }
      ],
      "name": "ContractURIUpdated",
      "type": "event"
    },
    {
      "anonymous": false,
      "inputs": [
        {
          "indexed": true,
          "internalType": "address",
          "name": "newRoyaltyRecipient",
          "type": "address"
        },
        {
          "indexed": false,
          "internalType": "uint256",
          "name": "newRoyaltyBps",
          "type": "uint256"
        }
      ],
      "name": "DefaultRoyalty",
      "type": "event"
    },
    {
      "anonymous": false,
      "inputs": [
        {
          "indexed": false,
          "internalType": "uint8",
          "name": "version",
          "type": "uint8"
        }
      ],
      "name": "Initialized",
      "type": "event"
    },
    {
      "anonymous": false,
      "inputs": [
        {
          "indexed": false,
          "internalType": "uint256",
          "name": "maxTotalSupply",
          "type": "uint256"
        }
      ],
      "name": "MaxTotalSupplyUpdated",
      "type": "event"
    },
    {
      "anonymous": false,
      "inputs": [
        {
          "indexed": true,
          "internalType": "address",
          "name": "prevOwner",
          "type": "address"
        },
        {
          "indexed": true,
          "internalType": "address",
          "name": "newOwner",
          "type": "address"
        }
      ],
      "name": "OwnerUpdated",
      "type": "event"
    },
    {
      "anonymous": false,
      "inputs": [
        {
          "indexed": true,
          "internalType": "address",
          "name": "platformFeeRecipient",
          "type": "address"
        },
        {
          "indexed": false,
          "internalType": "uint256",
          "name": "platformFeeBps",
          "type": "uint256"
        }
      ],
      "name": "PlatformFeeInfoUpdated",
      "type": "event"
    },
    {
      "anonymous": false,
      "inputs": [
        {
          "indexed": true,
          "internalType": "address",
          "name": "recipient",
          "type": "address"
        }
      ],
      "name": "PrimarySaleRecipientUpdated",
      "type": "event"
    },
    {
      "anonymous": false,
      "inputs": [
        {
          "indexed": true,
          "internalType": "bytes32",
          "name": "role",
          "type": "bytes32"
        },
        {
          "indexed": true,
          "internalType": "bytes32",
          "name": "previousAdminRole",
          "type": "bytes32"
        },
        {
          "indexed": true,
          "internalType": "bytes32",
          "name": "newAdminRole",
          "type": "bytes32"
        }
      ],
      "name": "RoleAdminChanged",
      "type": "event"
    },
    {
      "anonymous": false,
      "inputs": [
        {
          "indexed": true,
          "internalType": "bytes32",
          "name": "role",
          "type": "bytes32"
        },
        {
          "indexed": true,
          "internalType": "address",
          "name": "account",
          "type": "address"
        },
        {
          "indexed": true,
          "internalType": "address",
          "name": "sender",
          "type": "address"
        }
      ],
      "name": "RoleGranted",
      "type": "event"
    },
    {
      "anonymous": false,
      "inputs": [
        {
          "indexed": true,
          "internalType": "bytes32",
          "name": "role",
          "type": "bytes32"
        },
        {
          "indexed": true,
          "internalType": "address",
          "name": "account",
          "type": "address"
        },
        {
          "indexed": true,
          "internalType": "address",
          "name": "sender",
          "type": "address"
        }
      ],
      "name": "RoleRevoked",
      "type": "event"
    },
    {
      "anonymous": false,
      "inputs": [
        {
          "indexed": true,
          "internalType": "uint256",
          "name": "tokenId",
          "type": "uint256"
        },
        {
          "indexed": true,
          "internalType": "address",
          "name": "royaltyRecipient",
          "type": "address"
        },
        {
          "indexed": false,
          "internalType": "uint256",
          "name": "royaltyBps",
          "type": "uint256"
        }
      ],
      "name": "RoyaltyForToken",
      "type": "event"
    },
    {
      "anonymous": false,
      "inputs": [
        {
          "indexed": true,
          "internalType": "uint256",
          "name": "index",
          "type": "uint256"
        },
        {
          "indexed": false,
          "internalType": "string",
          "name": "revealedURI",
          "type": "string"
        }
      ],
      "name": "TokenURIRevealed",
      "type": "event"
    },
    {
      "anonymous": false,
      "inputs": [
        {
          "indexed": true,
          "internalType": "uint256",
          "name": "claimConditionIndex",
          "type": "uint256"
        },
        {
          "indexed": true,
          "internalType": "address",
          "name": "claimer",
          "type": "address"
        },
        {
          "indexed": true,
          "internalType": "address",
          "name": "receiver",
          "type": "address"
        },
        {
          "indexed": false,
          "internalType": "uint256",
          "name": "startTokenId",
          "type": "uint256"
        },
        {
          "indexed": false,
          "internalType": "uint256",
          "name": "quantityClaimed",
          "type": "uint256"
        }
      ],
      "name": "TokensClaimed",
      "type": "event"
    },
    {
      "anonymous": false,
      "inputs": [
        {
          "indexed": true,
          "internalType": "uint256",
          "name": "startTokenId",
          "type": "uint256"
        },
        {
          "indexed": false,
          "internalType": "uint256",
          "name": "endTokenId",
          "type": "uint256"
        },
        {
          "indexed": false,
          "internalType": "string",
          "name": "baseURI",
          "type": "string"
        },
        {
          "indexed": false,
          "internalType": "bytes",
          "name": "encryptedBaseURI",
          "type": "bytes"
        }
      ],
      "name": "TokensLazyMinted",
      "type": "event"
    },
    {
      "anonymous": false,
      "inputs": [
        {
          "indexed": true,
          "internalType": "address",
          "name": "from",
          "type": "address"
        },
        {
          "indexed": true,
          "internalType": "address",
          "name": "to",
          "type": "address"
        },
        {
          "indexed": true,
          "internalType": "uint256",
          "name": "tokenId",
          "type": "uint256"
        }
      ],
      "name": "Transfer",
      "type": "event"
    },
    {
      "inputs": [],
      "name": "DEFAULT_ADMIN_ROLE",
      "outputs": [
        {
          "internalType": "bytes32",
          "name": "",
          "type": "bytes32"
        }
      ],
      "stateMutability": "view",
      "type": "function"
    },
    {
      "inputs": [
        {
          "internalType": "address",
          "name": "to",
          "type": "address"
        },
        {
          "internalType": "uint256",
          "name": "tokenId",
          "type": "uint256"
        }
      ],
      "name": "approve",
      "outputs": [],
      "stateMutability": "nonpayable",
      "type": "function"
    },
    {
      "inputs": [
        {
          "internalType": "address",
          "name": "owner",
          "type": "address"
        }
      ],
      "name": "balanceOf",
      "outputs": [
        {
          "internalType": "uint256",
          "name": "",
          "type": "uint256"
        }
      ],
      "stateMutability": "view",
      "type": "function"
    },
    {
      "inputs": [
        {
          "internalType": "uint256",
          "name": "tokenId",
          "type": "uint256"
        }
      ],
      "name": "burn",
      "outputs": [],
      "stateMutability": "nonpayable",
      "type": "function"
    },
    {
      "inputs": [
        {
          "internalType": "address",
          "name": "_receiver",
          "type": "address"
        },
        {
          "internalType": "uint256",
          "name": "_quantity",
          "type": "uint256"
        },
        {
          "internalType": "address",
          "name": "_currency",
          "type": "address"
        },
        {
          "internalType": "uint256",
          "name": "_pricePerToken",
          "type": "uint256"
        },
        {
          "components": [
            {
              "internalType": "bytes32[]",
              "name": "proof",
              "type": "bytes32[]"
            },
            {
              "internalType": "uint256",
              "name": "quantityLimitPerWallet",
              "type": "uint256"
            },
            {
              "internalType": "uint256",
              "name": "pricePerToken",
              "type": "uint256"
            },
            {
              "internalType": "address",
              "name": "currency",
              "type": "address"
            }
          ],
          "internalType": "struct IDrop.AllowlistProof",
          "name": "_allowlistProof",
          "type": "tuple"
        },
        {
          "internalType": "bytes",
          "name": "_data",
          "type": "bytes"
        }
      ],
      "name": "claim",
      "outputs": [],
      "stateMutability": "payable",
      "type": "function"
    },
    {
      "inputs": [],
      "name": "claimCondition",
      "outputs": [
        {
          "internalType": "uint256",
          "name": "currentStartId",
          "type": "uint256"
        },
        {
          "internalType": "uint256",
          "name": "count",
          "type": "uint256"
        }
      ],
      "stateMutability": "view",
      "type": "function"
    },
    {
      "inputs": [],
      "name": "contractType",
      "outputs": [
        {
          "internalType": "bytes32",
          "name": "",
          "type": "bytes32"
        }
      ],
      "stateMutability": "pure",
      "type": "function"
    },
    {
      "inputs": [],
      "name": "contractURI",
      "outputs": [
        {
          "internalType": "string",
          "name": "",
          "type": "string"
        }
      ],
      "stateMutability": "view",
      "type": "function"
    },
    {
      "inputs": [],
      "name": "contractVersion",
      "outputs": [
        {
          "internalType": "uint8",
          "name": "",
          "type": "uint8"
        }
      ],
      "stateMutability": "pure",
      "type": "function"
    },
    {
      "inputs": [
        {
          "internalType": "bytes",
          "name": "data",
          "type": "bytes"
        },
        {
          "internalType": "bytes",
          "name": "key",
          "type": "bytes"
        }
      ],
      "name": "encryptDecrypt",
      "outputs": [
        {
          "internalType": "bytes",
          "name": "result",
          "type": "bytes"
        }
      ],
      "stateMutability": "pure",
      "type": "function"
    },
    {
      "inputs": [
        {
          "internalType": "uint256",
          "name": "",
          "type": "uint256"
        }
      ],
      "name": "encryptedData",
      "outputs": [
        {
          "internalType": "bytes",
          "name": "",
          "type": "bytes"
        }
      ],
      "stateMutability": "view",
      "type": "function"
    },
    {
      "inputs": [],
      "name": "getActiveClaimConditionId",
      "outputs": [
        {
          "internalType": "uint256",
          "name": "",
          "type": "uint256"
        }
      ],
      "stateMutability": "view",
      "type": "function"
    },
    {
      "inputs": [
        {
          "internalType": "uint256",
          "name": "tokenId",
          "type": "uint256"
        }
      ],
      "name": "getApproved",
      "outputs": [
        {
          "internalType": "address",
          "name": "",
          "type": "address"
        }
      ],
      "stateMutability": "view",
      "type": "function"
    },
    {
      "inputs": [],
      "name": "getBaseURICount",
      "outputs": [
        {
          "internalType": "uint256",
          "name": "",
          "type": "uint256"
        }
      ],
      "stateMutability": "view",
      "type": "function"
    },
    {
      "inputs": [
        {
          "internalType": "uint256",
          "name": "_index",
          "type": "uint256"
        }
      ],
      "name": "getBatchIdAtIndex",
      "outputs": [
        {
          "internalType": "uint256",
          "name": "",
          "type": "uint256"
        }
      ],
      "stateMutability": "view",
      "type": "function"
    },
    {
      "inputs": [
        {
          "internalType": "uint256",
          "name": "_conditionId",
          "type": "uint256"
        }
      ],
      "name": "getClaimConditionById",
      "outputs": [
        {
          "components": [
            {
              "internalType": "uint256",
              "name": "startTimestamp",
              "type": "uint256"
            },
            {
              "internalType": "uint256",
              "name": "maxClaimableSupply",
              "type": "uint256"
            },
            {
              "internalType": "uint256",
              "name": "supplyClaimed",
              "type": "uint256"
            },
            {
              "internalType": "uint256",
              "name": "quantityLimitPerWallet",
              "type": "uint256"
            },
            {
              "internalType": "bytes32",
              "name": "merkleRoot",
              "type": "bytes32"
            },
            {
              "internalType": "uint256",
              "name": "pricePerToken",
              "type": "uint256"
            },
            {
              "internalType": "address",
              "name": "currency",
              "type": "address"
            },
            {
              "internalType": "string",
              "name": "metadata",
              "type": "string"
            }
          ],
          "internalType": "struct IClaimCondition.ClaimCondition",
          "name": "condition",
          "type": "tuple"
        }
      ],
      "stateMutability": "view",
      "type": "function"
    },
    {
      "inputs": [],
      "name": "getDefaultRoyaltyInfo",
      "outputs": [
        {
          "internalType": "address",
          "name": "",
          "type": "address"
        },
        {
          "internalType": "uint16",
          "name": "",
          "type": "uint16"
        }
      ],
      "stateMutability": "view",
      "type": "function"
    },
    {
      "inputs": [],
      "name": "getPlatformFeeInfo",
      "outputs": [
        {
          "internalType": "address",
          "name": "",
          "type": "address"
        },
        {
          "internalType": "uint16",
          "name": "",
          "type": "uint16"
        }
      ],
      "stateMutability": "view",
      "type": "function"
    },
    {
      "inputs": [
        {
          "internalType": "uint256",
          "name": "_batchId",
          "type": "uint256"
        },
        {
          "internalType": "bytes",
          "name": "_key",
          "type": "bytes"
        }
      ],
      "name": "getRevealURI",
      "outputs": [
        {
          "internalType": "string",
          "name": "revealedURI",
          "type": "string"
        }
      ],
      "stateMutability": "view",
      "type": "function"
    },
    {
      "inputs": [
        {
          "internalType": "bytes32",
          "name": "role",
          "type": "bytes32"
        }
      ],
      "name": "getRoleAdmin",
      "outputs": [
        {
          "internalType": "bytes32",
          "name": "",
          "type": "bytes32"
        }
      ],
      "stateMutability": "view",
      "type": "function"
    },
    {
      "inputs": [
        {
          "internalType": "bytes32",
          "name": "role",
          "type": "bytes32"
        },
        {
          "internalType": "uint256",
          "name": "index",
          "type": "uint256"
        }
      ],
      "name": "getRoleMember",
      "outputs": [
        {
          "internalType": "address",
          "name": "member",
          "type": "address"
        }
      ],
      "stateMutability": "view",
      "type": "function"
    },
    {
      "inputs": [
        {
          "internalType": "bytes32",
          "name": "role",
          "type": "bytes32"
        }
      ],
      "name": "getRoleMemberCount",
      "outputs": [
        {
          "internalType": "uint256",
          "name": "count",
          "type": "uint256"
        }
      ],
      "stateMutability": "view",
      "type": "function"
    },
    {
      "inputs": [
        {
          "internalType": "uint256",
          "name": "_tokenId",
          "type": "uint256"
        }
      ],
      "name": "getRoyaltyInfoForToken",
      "outputs": [
        {
          "internalType": "address",
          "name": "",
          "type": "address"
        },
        {
          "internalType": "uint16",
          "name": "",
          "type": "uint16"
        }
      ],
      "stateMutability": "view",
      "type": "function"
    },
    {
      "inputs": [
        {
          "internalType": "uint256",
          "name": "_conditionId",
          "type": "uint256"
        },
        {
          "internalType": "address",
          "name": "_claimer",
          "type": "address"
        }
      ],
      "name": "getSupplyClaimedByWallet",
      "outputs": [
        {
          "internalType": "uint256",
          "name": "supplyClaimedByWallet",
          "type": "uint256"
        }
      ],
      "stateMutability": "view",
      "type": "function"
    },
    {
      "inputs": [
        {
          "internalType": "bytes32",
          "name": "role",
          "type": "bytes32"
        },
        {
          "internalType": "address",
          "name": "account",
          "type": "address"
        }
      ],
      "name": "grantRole",
      "outputs": [],
      "stateMutability": "nonpayable",
      "type": "function"
    },
    {
      "inputs": [
        {
          "internalType": "bytes32",
          "name": "role",
          "type": "bytes32"
        },
        {
          "internalType": "address",
          "name": "account",
          "type": "address"
        }
      ],
      "name": "hasRole",
      "outputs": [
        {
          "internalType": "bool",
          "name": "",
          "type": "bool"
        }
      ],
      "stateMutability": "view",
      "type": "function"
    },
    {
      "inputs": [
        {
          "internalType": "bytes32",
          "name": "role",
          "type": "bytes32"
        },
        {
          "internalType": "address",
          "name": "account",
          "type": "address"
        }
      ],
      "name": "hasRoleWithSwitch",
      "outputs": [
        {
          "internalType": "bool",
          "name": "",
          "type": "bool"
        }
      ],
      "stateMutability": "view",
      "type": "function"
    },
    {
      "inputs": [
        {
          "internalType": "address",
          "name": "_defaultAdmin",
          "type": "address"
        },
        {
          "internalType": "string",
          "name": "_name",
          "type": "string"
        },
        {
          "internalType": "string",
          "name": "_symbol",
          "type": "string"
        },
        {
          "internalType": "string",
          "name": "_contractURI",
          "type": "string"
        },
        {
          "internalType": "address[]",
          "name": "_trustedForwarders",
          "type": "address[]"
        },
        {
          "internalType": "address",
          "name": "_saleRecipient",
          "type": "address"
        },
        {
          "internalType": "address",
          "name": "_royaltyRecipient",
          "type": "address"
        },
        {
          "internalType": "uint128",
          "name": "_royaltyBps",
          "type": "uint128"
        },
        {
          "internalType": "uint128",
          "name": "_platformFeeBps",
          "type": "uint128"
        },
        {
          "internalType": "address",
          "name": "_platformFeeRecipient",
          "type": "address"
        }
      ],
      "name": "initialize",
      "outputs": [],
      "stateMutability": "nonpayable",
      "type": "function"
    },
    {
      "inputs": [
        {
          "internalType": "address",
          "name": "owner",
          "type": "address"
        },
        {
          "internalType": "address",
          "name": "operator",
          "type": "address"
        }
      ],
      "name": "isApprovedForAll",
      "outputs": [
        {
          "internalType": "bool",
          "name": "",
          "type": "bool"
        }
      ],
      "stateMutability": "view",
      "type": "function"
    },
    {
      "inputs": [
        {
          "internalType": "uint256",
          "name": "_batchId",
          "type": "uint256"
        }
      ],
      "name": "isEncryptedBatch",
      "outputs": [
        {
          "internalType": "bool",
          "name": "",
          "type": "bool"
        }
      ],
      "stateMutability": "view",
      "type": "function"
    },
    {
      "inputs": [
        {
          "internalType": "address",
          "name": "forwarder",
          "type": "address"
        }
      ],
      "name": "isTrustedForwarder",
      "outputs": [
        {
          "internalType": "bool",
          "name": "",
          "type": "bool"
        }
      ],
      "stateMutability": "view",
      "type": "function"
    },
    {
      "inputs": [
        {
          "internalType": "uint256",
          "name": "_amount",
          "type": "uint256"
        },
        {
          "internalType": "string",
          "name": "_baseURIForTokens",
          "type": "string"
        },
        {
          "internalType": "bytes",
          "name": "_data",
          "type": "bytes"
        }
      ],
      "name": "lazyMint",
      "outputs": [
        {
          "internalType": "uint256",
          "name": "batchId",
          "type": "uint256"
        }
      ],
      "stateMutability": "nonpayable",
      "type": "function"
    },
    {
      "inputs": [],
      "name": "maxTotalSupply",
      "outputs": [
        {
          "internalType": "uint256",
          "name": "",
          "type": "uint256"
        }
      ],
      "stateMutability": "view",
      "type": "function"
    },
    {
      "inputs": [
        {
          "internalType": "bytes[]",
          "name": "data",
          "type": "bytes[]"
        }
      ],
      "name": "multicall",
      "outputs": [
        {
          "internalType": "bytes[]",
          "name": "results",
          "type": "bytes[]"
        }
      ],
      "stateMutability": "nonpayable",
      "type": "function"
    },
    {
      "inputs": [],
      "name": "name",
      "outputs": [
        {
          "internalType": "string",
          "name": "",
          "type": "string"
        }
      ],
      "stateMutability": "view",
      "type": "function"
    },
    {
      "inputs": [],
      "name": "nextTokenIdToClaim",
      "outputs": [
        {
          "internalType": "uint256",
          "name": "",
          "type": "uint256"
        }
      ],
      "stateMutability": "view",
      "type": "function"
    },
    {
      "inputs": [],
      "name": "nextTokenIdToMint",
      "outputs": [
        {
          "internalType": "uint256",
          "name": "",
          "type": "uint256"
        }
      ],
      "stateMutability": "view",
      "type": "function"
    },
    {
      "inputs": [],
      "name": "owner",
      "outputs": [
        {
          "internalType": "address",
          "name": "",
          "type": "address"
        }
      ],
      "stateMutability": "view",
      "type": "function"
    },
    {
      "inputs": [
        {
          "internalType": "uint256",
          "name": "tokenId",
          "type": "uint256"
        }
      ],
      "name": "ownerOf",
      "outputs": [
        {
          "internalType": "address",
          "name": "",
          "type": "address"
        }
      ],
      "stateMutability": "view",
      "type": "function"
    },
    {
      "inputs": [],
      "name": "primarySaleRecipient",
      "outputs": [
        {
          "internalType": "address",
          "name": "",
          "type": "address"
        }
      ],
      "stateMutability": "view",
      "type": "function"
    },
    {
      "inputs": [
        {
          "internalType": "bytes32",
          "name": "role",
          "type": "bytes32"
        },
        {
          "internalType": "address",
          "name": "account",
          "type": "address"
        }
      ],
      "name": "renounceRole",
      "outputs": [],
      "stateMutability": "nonpayable",
      "type": "function"
    },
    {
      "inputs": [
        {
          "internalType": "uint256",
          "name": "_index",
          "type": "uint256"
        },
        {
          "internalType": "bytes",
          "name": "_key",
          "type": "bytes"
        }
      ],
      "name": "reveal",
      "outputs": [
        {
          "internalType": "string",
          "name": "revealedURI",
          "type": "string"
        }
      ],
      "stateMutability": "nonpayable",
      "type": "function"
    },
    {
      "inputs": [
        {
          "internalType": "bytes32",
          "name": "role",
          "type": "bytes32"
        },
        {
          "internalType": "address",
          "name": "account",
          "type": "address"
        }
      ],
      "name": "revokeRole",
      "outputs": [],
      "stateMutability": "nonpayable",
      "type": "function"
    },
    {
      "inputs": [
        {
          "internalType": "uint256",
          "name": "tokenId",
          "type": "uint256"
        },
        {
          "internalType": "uint256",
          "name": "salePrice",
          "type": "uint256"
        }
      ],
      "name": "royaltyInfo",
      "outputs": [
        {
          "internalType": "address",
          "name": "receiver",
          "type": "address"
        },
        {
          "internalType": "uint256",
          "name": "royaltyAmount",
          "type": "uint256"
        }
      ],
      "stateMutability": "view",
      "type": "function"
    },
    {
      "inputs": [
        {
          "internalType": "address",
          "name": "from",
          "type": "address"
        },
        {
          "internalType": "address",
          "name": "to",
          "type": "address"
        },
        {
          "internalType": "uint256",
          "name": "tokenId",
          "type": "uint256"
        }
      ],
      "name": "safeTransferFrom",
      "outputs": [],
      "stateMutability": "nonpayable",
      "type": "function"
    },
    {
      "inputs": [
        {
          "internalType": "address",
          "name": "from",
          "type": "address"
        },
        {
          "internalType": "address",
          "name": "to",
          "type": "address"
        },
        {
          "internalType": "uint256",
          "name": "tokenId",
          "type": "uint256"
        },
        {
          "internalType": "bytes",
          "name": "_data",
          "type": "bytes"
        }
      ],
      "name": "safeTransferFrom",
      "outputs": [],
      "stateMutability": "nonpayable",
      "type": "function"
    },
    {
      "inputs": [
        {
          "internalType": "address",
          "name": "operator",
          "type": "address"
        },
        {
          "internalType": "bool",
          "name": "approved",
          "type": "bool"
        }
      ],
      "name": "setApprovalForAll",
      "outputs": [],
      "stateMutability": "nonpayable",
      "type": "function"
    },
    {
      "inputs": [
        {
          "components": [
            {
              "internalType": "uint256",
              "name": "startTimestamp",
              "type": "uint256"
            },
            {
              "internalType": "uint256",
              "name": "maxClaimableSupply",
              "type": "uint256"
            },
            {
              "internalType": "uint256",
              "name": "supplyClaimed",
              "type": "uint256"
            },
            {
              "internalType": "uint256",
              "name": "quantityLimitPerWallet",
              "type": "uint256"
            },
            {
              "internalType": "bytes32",
              "name": "merkleRoot",
              "type": "bytes32"
            },
            {
              "internalType": "uint256",
              "name": "pricePerToken",
              "type": "uint256"
            },
            {
              "internalType": "address",
              "name": "currency",
              "type": "address"
            },
            {
              "internalType": "string",
              "name": "metadata",
              "type": "string"
            }
          ],
          "internalType": "struct IClaimCondition.ClaimCondition[]",
          "name": "_conditions",
          "type": "tuple[]"
        },
        {
          "internalType": "bool",
          "name": "_resetClaimEligibility",
          "type": "bool"
        }
      ],
      "name": "setClaimConditions",
      "outputs": [],
      "stateMutability": "nonpayable",
      "type": "function"
    },
    {
      "inputs": [
        {
          "internalType": "string",
          "name": "_uri",
          "type": "string"
        }
      ],
      "name": "setContractURI",
      "outputs": [],
      "stateMutability": "nonpayable",
      "type": "function"
    },
    {
      "inputs": [
        {
          "internalType": "address",
          "name": "_royaltyRecipient",
          "type": "address"
        },
        {
          "internalType": "uint256",
          "name": "_royaltyBps",
          "type": "uint256"
        }
      ],
      "name": "setDefaultRoyaltyInfo",
      "outputs": [],
      "stateMutability": "nonpayable",
      "type": "function"
    },
    {
      "inputs": [
        {
          "internalType": "uint256",
          "name": "_maxTotalSupply",
          "type": "uint256"
        }
      ],
      "name": "setMaxTotalSupply",
      "outputs": [],
      "stateMutability": "nonpayable",
      "type": "function"
    },
    {
      "inputs": [
        {
          "internalType": "address",
          "name": "_newOwner",
          "type": "address"
        }
      ],
      "name": "setOwner",
      "outputs": [],
      "stateMutability": "nonpayable",
      "type": "function"
    },
    {
      "inputs": [
        {
          "internalType": "address",
          "name": "_platformFeeRecipient",
          "type": "address"
        },
        {
          "internalType": "uint256",
          "name": "_platformFeeBps",
          "type": "uint256"
        }
      ],
      "name": "setPlatformFeeInfo",
      "outputs": [],
      "stateMutability": "nonpayable",
      "type": "function"
    },
    {
      "inputs": [
        {
          "internalType": "address",
          "name": "_saleRecipient",
          "type": "address"
        }
      ],
      "name": "setPrimarySaleRecipient",
      "outputs": [],
      "stateMutability": "nonpayable",
      "type": "function"
    },
    {
      "inputs": [
        {
          "internalType": "uint256",
          "name": "_tokenId",
          "type": "uint256"
        },
        {
          "internalType": "address",
          "name": "_recipient",
          "type": "address"
        },
        {
          "internalType": "uint256",
          "name": "_bps",
          "type": "uint256"
        }
      ],
      "name": "setRoyaltyInfoForToken",
      "outputs": [],
      "stateMutability": "nonpayable",
      "type": "function"
    },
    {
      "inputs": [
        {
          "internalType": "bytes4",
          "name": "interfaceId",
          "type": "bytes4"
        }
      ],
      "name": "supportsInterface",
      "outputs": [
        {
          "internalType": "bool",
          "name": "",
          "type": "bool"
        }
      ],
      "stateMutability": "view",
      "type": "function"
    },
    {
      "inputs": [],
      "name": "symbol",
      "outputs": [
        {
          "internalType": "string",
          "name": "",
          "type": "string"
        }
      ],
      "stateMutability": "view",
      "type": "function"
    },
    {
      "inputs": [
        {
          "internalType": "uint256",
          "name": "_tokenId",
          "type": "uint256"
        }
      ],
      "name": "tokenURI",
      "outputs": [
        {
          "internalType": "string",
          "name": "",
          "type": "string"
        }
      ],
      "stateMutability": "view",
      "type": "function"
    },
    {
      "inputs": [],
      "name": "totalMinted",
      "outputs": [
        {
          "internalType": "uint256",
          "name": "",
          "type": "uint256"
        }
      ],
      "stateMutability": "view",
      "type": "function"
    },
    {
      "inputs": [],
      "name": "totalSupply",
      "outputs": [
        {
          "internalType": "uint256",
          "name": "",
          "type": "uint256"
        }
      ],
      "stateMutability": "view",
      "type": "function"
    },
    {
      "inputs": [
        {
          "internalType": "address",
          "name": "from",
          "type": "address"
        },
        {
          "internalType": "address",
          "name": "to",
          "type": "address"
        },
        {
          "internalType": "uint256",
          "name": "tokenId",
          "type": "uint256"
        }
      ],
      "name": "transferFrom",
      "outputs": [],
      "stateMutability": "nonpayable",
      "type": "function"
    },
    {
      "inputs": [
        {
          "internalType": "uint256",
          "name": "_conditionId",
          "type": "uint256"
        },
        {
          "internalType": "address",
          "name": "_claimer",
          "type": "address"
        },
        {
          "internalType": "uint256",
          "name": "_quantity",
          "type": "uint256"
        },
        {
          "internalType": "address",
          "name": "_currency",
          "type": "address"
        },
        {
          "internalType": "uint256",
          "name": "_pricePerToken",
          "type": "uint256"
        },
        {
          "components": [
            {
              "internalType": "bytes32[]",
              "name": "proof",
              "type": "bytes32[]"
            },
            {
              "internalType": "uint256",
              "name": "quantityLimitPerWallet",
              "type": "uint256"
            },
            {
              "internalType": "uint256",
              "name": "pricePerToken",
              "type": "uint256"
            },
            {
              "internalType": "address",
              "name": "currency",
              "type": "address"
            }
          ],
          "internalType": "struct IDrop.AllowlistProof",
          "name": "_allowlistProof",
          "type": "tuple"
        }
      ],
      "name": "verifyClaim",
      "outputs": [],
      "stateMutability": "view",
      "type": "function"
    }
  ],
  "bytecode": "0x60806040523480156200001157600080fd5b50600054610100900460ff1615808015620000335750600054600160ff909116105b8062000063575062000050306200013d60201b6200278c1760201c565b15801562000063575060005460ff166001145b620000cb5760405162461bcd60e51b815260206004820152602e60248201527f496e697469616c697a61626c653a20636f6e747261637420697320616c72656160448201526d191e481a5b9a5d1a585b1a5e995960921b606482015260840160405180910390fd5b6000805460ff191660011790558015620000ef576000805461ff0019166101001790555b801562000136576000805461ff0019169055604051600181527f7f26b83ff96e1f2b6a682f133852f6798a09c465da95921460cefb38474024989060200160405180910390a15b506200014c565b6001600160a01b03163b151590565b6159a0806200015c6000396000f3fe6080604052600436106103ad5760003560e01c80638da5cb5b116101e7578063ad1eefc51161010d578063d37c353b116100a0578063e15916341161006f578063e159163414610b91578063e715032214610bb1578063e8a3d48514610bd1578063e985e9c514610be657600080fd5b8063d37c353b14610af6578063d45573f614610b16578063d547741f14610b41578063d637ed5914610b6157600080fd5b8063c87b56dd116100dc578063c87b56dd14610a76578063ca15c87314610a96578063cb2ef6f714610ab6578063ce80564214610ad657600080fd5b8063ad1eefc5146109d4578063b24f2d3914610a16578063b88d4fde14610a41578063c68907de14610a6157600080fd5b8063a05112fc11610185578063a2309ff811610154578063a2309ff814610972578063a32fa5b314610987578063ac9650d8146109a7578063acd083f81461097257600080fd5b8063a05112fc14610901578063a0a8e46014610921578063a217fddf1461093d578063a22cb4651461095257600080fd5b8063938e3d7b116101c1578063938e3d7b1461088c57806395d89b41146108ac5780639bcf7a15146108c15780639fc4d68f146108e157600080fd5b80638da5cb5b146108085780639010d07c1461082657806391d148541461084657600080fd5b806336568abe116102d7578063600dd5ea1161026a5780636f8934f4116102395780636f8934f41461078857806370a08231146107b557806374bc7db7146107d557806384bb1e42146107f557600080fd5b8063600dd5ea146107135780636352211e1461073357806363b45e2d146107535780636f4f28371461076857600080fd5b806342966c68116102a657806342966c6814610658578063492e224b146106785780634cc157df14610698578063572b6c05146106da57600080fd5b806336568abe146105e35780633b1475a7146106035780633f3e4c111461061857806342842e0e1461063857600080fd5b80631e7ac4881161034f578063248a9ca31161031e578063248a9ca3146105405780632a55205a1461056d5780632ab4d052146105ac5780632f2ff15d146105c357600080fd5b80631e7ac488146104c057806323a2902b146104e057806323b872dd146105005780632419f51b1461052057600080fd5b8063081812fc1161038b578063081812fc1461043b578063095ea7b31461045b57806313af40351461047d57806318160ddd1461049d57600080fd5b806301ffc9a7146103b257806306fdde03146103e7578063079fe40e14610409575b600080fd5b3480156103be57600080fd5b506103d26103cd366004614825565b610c2f565b60405190151581526020015b60405180910390f35b3480156103f357600080fd5b506103fc610c5b565b6040516103de919061489a565b34801561041557600080fd5b506005546001600160a01b03165b6040516001600160a01b0390911681526020016103de565b34801561044757600080fd5b506104236104563660046148ad565b610ced565b34801561046757600080fd5b5061047b6104763660046148eb565b610d31565b005b34801561048957600080fd5b5061047b610498366004614917565b610dca565b3480156104a957600080fd5b5060db5460da54035b6040519081526020016103de565b3480156104cc57600080fd5b5061047b6104db3660046148eb565b610e20565b3480156104ec57600080fd5b5061047b6104fb366004614946565b610e73565b34801561050c57600080fd5b5061047b61051b3660046149c3565b611245565b34801561052c57600080fd5b506104b261053b3660046148ad565b611250565b34801561054c57600080fd5b506104b261055b3660046148ad565b6000908152600c602052604090205490565b34801561057957600080fd5b5061058d610588366004614a04565b6112be565b604080516001600160a01b0390931683526020830191909152016103de565b3480156105b857600080fd5b506104b261010e5481565b3480156105cf57600080fd5b5061047b6105de366004614a26565b6112fb565b3480156105ef57600080fd5b5061047b6105fe366004614a26565b611391565b34801561060f57600080fd5b50600a546104b2565b34801561062457600080fd5b5061047b6106333660046148ad565b6113f3565b34801561064457600080fd5b5061047b6106533660046149c3565b61143d565b34801561066457600080fd5b5061047b6106733660046148ad565b611458565b34801561068457600080fd5b506103d26106933660046148ad565b611463565b3480156106a457600080fd5b506106b86106b33660046148ad565b611489565b604080516001600160a01b03909316835261ffff9091166020830152016103de565b3480156106e657600080fd5b506103d26106f5366004614917565b6001600160a01b031660009081526044602052604090205460ff1690565b34801561071f57600080fd5b5061047b61072e3660046148eb565b6114f4565b34801561073f57600080fd5b5061042361074e3660046148ad565b611543565b34801561075f57600080fd5b506008546104b2565b34801561077457600080fd5b5061047b610783366004614917565b611555565b34801561079457600080fd5b506107a86107a33660046148ad565b6115a3565b6040516103de9190614a56565b3480156107c157600080fd5b506104b26107d0366004614917565b611700565b3480156107e157600080fd5b5061047b6107f0366004614b1d565b61174e565b61047b610803366004614c36565b611abe565b34801561081457600080fd5b506006546001600160a01b0316610423565b34801561083257600080fd5b50610423610841366004614a04565b611be3565b34801561085257600080fd5b506103d2610861366004614a26565b6000918252600b602090815260408084206001600160a01b0393909316845291905290205460ff1690565b34801561089857600080fd5b5061047b6108a7366004614cc3565b611ce4565b3480156108b857600080fd5b506103fc611d32565b3480156108cd57600080fd5b5061047b6108dc366004614cf7565b611d41565b3480156108ed57600080fd5b506103fc6108fc366004614d5f565b611d91565b34801561090d57600080fd5b506103fc61091c3660046148ad565b611f1e565b34801561092d57600080fd5b50604051600481526020016103de565b34801561094957600080fd5b506104b2600081565b34801561095e57600080fd5b5061047b61096d366004614daa565b611fb8565b34801561097e57600080fd5b5060da546104b2565b34801561099357600080fd5b506103d26109a2366004614a26565b61208b565b3480156109b357600080fd5b506109c76109c2366004614dd8565b6120e1565b6040516103de9190614e19565b3480156109e057600080fd5b506104b26109ef366004614a26565b60009182526011602090815260408084206001600160a01b03909316845291905290205490565b348015610a2257600080fd5b506003546001600160a01b03811690600160a01b900461ffff166106b8565b348015610a4d57600080fd5b5061047b610a5c366004614e7b565b6121d5565b348015610a6d57600080fd5b506104b261221f565b348015610a8257600080fd5b506103fc610a913660046148ad565b6122c2565b348015610aa257600080fd5b506104b2610ab13660046148ad565b612331565b348015610ac257600080fd5b506944726f7045524337323160b01b6104b2565b348015610ae257600080fd5b506103fc610af1366004614d5f565b6123cc565b348015610b0257600080fd5b506104b2610b11366004614ee6565b61245a565b348015610b2257600080fd5b506002546001600160a01b03811690600160a01b900461ffff166106b8565b348015610b4d57600080fd5b5061047b610b5c366004614a26565b612501565b348015610b6d57600080fd5b50600e54600f54610b7c919082565b604080519283526020830191909152016103de565b348015610b9d57600080fd5b5061047b610bac366004614ffc565b61251a565b348015610bbd57600080fd5b506103fc610bcc36600461510e565b61270a565b348015610bdd57600080fd5b506103fc61277f565b348015610bf257600080fd5b506103d2610c01366004615169565b6001600160a01b03918216600090815260e16020908152604080832093909416825291909152205460ff1690565b6000610c3a8261279b565b80610c55575063152a902d60e11b6001600160e01b03198316145b92915050565b606060dc8054610c6a90615197565b80601f0160208091040260200160405190810160405280929190818152602001828054610c9690615197565b8015610ce35780601f10610cb857610100808354040283529160200191610ce3565b820191906000526020600020905b815481529060010190602001808311610cc657829003601f168201915b5050505050905090565b6000610cf8826127eb565b610d15576040516333d1c03960e21b815260040160405180910390fd5b50600090815260e060205260409020546001600160a01b031690565b6000610d3c82611543565b9050806001600160a01b0316836001600160a01b03161415610d715760405163250fdee360e21b815260040160405180910390fd5b806001600160a01b0316610d83612817565b6001600160a01b031614610dba57610d9d81610c01612817565b610dba576040516367d9dca160e11b815260040160405180910390fd5b610dc5838383612826565b505050565b610dd2612882565b610e145760405162461bcd60e51b815260206004820152600e60248201526d139bdd08185d5d1a1bdc9a5e995960921b60448201526064015b60405180910390fd5b610e1d81612890565b50565b610e28612882565b610e655760405162461bcd60e51b815260206004820152600e60248201526d139bdd08185d5d1a1bdc9a5e995960921b6044820152606401610e0b565b610e6f82826128e2565b5050565b6000868152601060209081526040808320815161010081018352815481526001820154938101939093526002810154918301919091526003810154606083015260048101546080830152600581015460a083015260068101546001600160a01b031660c083015260078101805460e084019190610eef90615197565b80601f0160208091040260200160405190810160405280929190818152602001828054610f1b90615197565b8015610f685780601f10610f3d57610100808354040283529160200191610f68565b820191906000526020600020905b815481529060010190602001808311610f4b57829003601f168201915b50505091909252505050606081015160a082015160c083015160808401519394506000931561104b57611047610f9e87806151cc565b80806020026020016040519081016040528093929190818152602001838360200280828437600092019190915250505060808089015191508d9060208b01359060408c013590610ff3908d0160608e01614917565b6040516bffffffffffffffffffffffff19606095861b811660208301526034820194909452605481019290925290921b16607482015260880160405160208183030381529060405280519060200120612992565b5093505b83156110d55760001986602001351415611065578261106b565b85602001355b9250600019866040013514156110815781611087565b85604001355b91506000198660400135141580156110b8575060006110ac6080880160608901614917565b6001600160a01b031614155b6110c257806110d2565b6110d26080870160608801614917565b90505b60008b81526011602090815260408083206001600160a01b03808f1685529252909120549089811690831614158061110d5750828814155b1561115a5760405162461bcd60e51b815260206004820152601060248201527f2150726963654f7243757272656e6379000000000000000000000000000000006044820152606401610e0b565b89158061116f57508361116d828c61522b565b115b156111a55760405162461bcd60e51b8152600401610e0b906020808252600490820152632151747960e01b604082015260600190565b85602001518a87604001516111ba919061522b565b11156111f55760405162461bcd60e51b815260206004820152600a602482015269214d6178537570706c7960b01b6044820152606401610e0b565b85514210156112375760405162461bcd60e51b815260206004820152600e60248201526d18d85b9d0818db185a5b481e595d60921b6044820152606401610e0b565b505050505050505050505050565b610dc5838383612a60565b600061125b60085490565b82106112995760405162461bcd60e51b815260206004820152600d60248201526c092dcecc2d8d2c840d2dcc8caf609b1b6044820152606401610e0b565b600882815481106112ac576112ac615243565b90600052602060002001549050919050565b6000806000806112cd86611489565b90945084925061ffff1690506127106112e68287615259565b6112f0919061528e565b925050509250929050565b6000828152600c60205260409020546113149033612c7d565b6000828152600b602090815260408083206001600160a01b038516845290915290205460ff16156113875760405162461bcd60e51b815260206004820152601d60248201527f43616e206f6e6c79206772616e7420746f206e6f6e20686f6c646572730000006044820152606401610e0b565b610e6f8282612cfd565b336001600160a01b038216146113e95760405162461bcd60e51b815260206004820152601a60248201527f43616e206f6e6c792072656e6f756e636520666f722073656c660000000000006044820152606401610e0b565b610e6f8282612d11565b60006113ff8133612c7d565b61010e8290556040518281527ff2672935fc79f5237559e2e2999dbe743bf65430894ac2b37666890e7c69e1af906020015b60405180910390a15050565b610dc5838383604051806020016040528060008152506121d5565b610e1d816001612d68565b6000818152600760205260408120805482919061147f90615197565b9050119050919050565b6000818152600460209081526040808320815180830190925280546001600160a01b0316808352600190910154928201929092528291156114d057805160208201516114ea565b6003546001600160a01b03811690600160a01b900461ffff165b9250925050915091565b6114fc612882565b6115395760405162461bcd60e51b815260206004820152600e60248201526d139bdd08185d5d1a1bdc9a5e995960921b6044820152606401610e0b565b610e6f8282612f72565b600061154e82613011565b5192915050565b61155d612882565b61159a5760405162461bcd60e51b815260206004820152600e60248201526d139bdd08185d5d1a1bdc9a5e995960921b6044820152606401610e0b565b610e1d8161312b565b6115f760405180610100016040528060008152602001600081526020016000815260200160008152602001600080191681526020016000815260200160006001600160a01b03168152602001606081525090565b600082815260106020908152604091829020825161010081018452815481526001820154928101929092526002810154928201929092526003820154606082015260048201546080820152600582015460a082015260068201546001600160a01b031660c082015260078201805491929160e08401919061167790615197565b80601f01602080910402602001604051908101604052809291908181526020018280546116a390615197565b80156116f05780601f106116c5576101008083540402835291602001916116f0565b820191906000526020600020905b8154815290600101906020018083116116d357829003601f168201915b5050505050815250509050919050565b60006001600160a01b038216611729576040516323d3ad8160e21b815260040160405180910390fd5b506001600160a01b0316600090815260df60205260409020546001600160401b031690565b611756612882565b6117935760405162461bcd60e51b815260206004820152600e60248201526d139bdd08185d5d1a1bdc9a5e995960921b6044820152606401610e0b565b600e54600f548183156117ad576117aa828461522b565b90505b600f859055600e8190556000805b8681101561196b578015806117f357508787828181106117dd576117dd615243565b90506020028101906117ef91906152a2565b3582105b6118245760405162461bcd60e51b815260206004820152600260248201526114d560f21b6044820152606401610e0b565b6000601081611833848761522b565b815260200190815260200160002060020154905088888381811061185957611859615243565b905060200281019061186b91906152a2565b602001358111156118be5760405162461bcd60e51b815260206004820152601260248201527f6d617820737570706c7920636c61696d656400000000000000000000000000006044820152606401610e0b565b8888838181106118d0576118d0615243565b90506020028101906118e291906152a2565b601060006118f0858861522b565b8152602001908152602001600020818161190a919061540d565b508190506010600061191c858861522b565b815260208101919091526040016000206002015588888381811061194257611942615243565b905060200281019061195491906152a2565b3592508190506119638161548b565b9150506117bb565b5084156119eb57835b828110156119e557600081815260106020526040812081815560018101829055600281018290556003810182905560048101829055600581018290556006810180546001600160a01b0319169055906119d0600783018261473c565b505080806119dd9061548b565b915050611974565b50611a7a565b85831115611a7a57855b83811015611a785760106000611a0b838661522b565b81526020810191909152604001600090812081815560018101829055600281018290556003810182905560048101829055600581018290556006810180546001600160a01b031916905590611a63600783018261473c565b50508080611a709061548b565b9150506119f5565b505b7fbf4016fceeaaa4ac5cf4be865b559ff85825ab4ca7aa7b661d16e2f544c03098878787604051611aad93929190615514565b60405180910390a150505050505050565b611acc868686868686613175565b6000611ad661221f565b9050611aed81611ae4613232565b88888888610e73565b60008181526010602052604081206002018054889290611b0e90849061522b565b909155505060008181526011602052604081208791611b2b613232565b6001600160a01b03166001600160a01b031681526020019081526020016000206000828254611b5a919061522b565b90915550611b6d9050600087878761323c565b6000611b798888613344565b9050876001600160a01b0316611b8d613232565b6001600160a01b0316837ffa76a4010d9533e3e964f2930a65fb6042a12fa6ff5b08281837a10b0be7321e848b604051611bd1929190918252602082015260400190565b60405180910390a45050505050505050565b6000828152600d602052604081205481805b82811015611cdb576000868152600d602090815260408083208484526001019091529020546001600160a01b031615611c725784821415611c60576000868152600d602090815260408083209383526001909301905220546001600160a01b03169250610c55915050565b611c6b60018361522b565b9150611cc9565b6000868152600b6020908152604080832083805290915290205460ff168015611cb657506000868152600d6020908152604080832083805260020190915290205481145b15611cc957611cc660018361522b565b91505b611cd460018261522b565b9050611bf5565b50505092915050565b611cec612882565b611d295760405162461bcd60e51b815260206004820152600e60248201526d139bdd08185d5d1a1bdc9a5e995960921b6044820152606401610e0b565b610e1d81613351565b606060dd8054610c6a90615197565b611d49612882565b611d865760405162461bcd60e51b815260206004820152600e60248201526d139bdd08185d5d1a1bdc9a5e995960921b6044820152606401610e0b565b610dc5838383613427565b600083815260076020526040812080546060929190611daf90615197565b80601f0160208091040260200160405190810160405280929190818152602001828054611ddb90615197565b8015611e285780601f10611dfd57610100808354040283529160200191611e28565b820191906000526020600020905b815481529060010190602001808311611e0b57829003601f168201915b50505050509050805160001415611e815760405162461bcd60e51b815260206004820152601160248201527f4e6f7468696e6720746f2072657665616c0000000000000000000000000000006044820152606401610e0b565b60008082806020019051810190611e9891906155fc565b91509150611ea782878761270a565b93508084878746604051602001611ec1949392919061567c565b6040516020818303038152906040528051906020012014611f145760405162461bcd60e51b815260206004820152600d60248201526c496e636f7272656374206b657960981b6044820152606401610e0b565b5050509392505050565b60076020526000908152604090208054611f3790615197565b80601f0160208091040260200160405190810160405280929190818152602001828054611f6390615197565b8015611fb05780601f10611f8557610100808354040283529160200191611fb0565b820191906000526020600020905b815481529060010190602001808311611f9357829003601f168201915b505050505081565b611fc0612817565b6001600160a01b0316826001600160a01b03161415611ff25760405163b06307db60e01b815260040160405180910390fd5b8060e16000611fff612817565b6001600160a01b03908116825260208083019390935260409182016000908120918716808252919093529120805460ff191692151592909217909155612043612817565b6001600160a01b03167f17307eab39ab6107e8899845ad3d59bd9653f200f220920489ca2b5937696c318360405161207f911515815260200190565b60405180910390a35050565b6000828152600b6020908152604080832083805290915281205460ff166120d857506000828152600b602090815260408083206001600160a01b038516845290915290205460ff16610c55565b50600192915050565b6060816001600160401b038111156120fb576120fb614b73565b60405190808252806020026020018201604052801561212e57816020015b60608152602001906001900390816121195790505b50905060005b828110156121ce5761219e3085858481811061215257612152615243565b905060200281019061216491906152c2565b8080601f0160208091040260200160405190810160405280939291908181526020018383808284376000920191909152506134f092505050565b8282815181106121b0576121b0615243565b602002602001018190525080806121c69061548b565b915050612134565b5092915050565b6121e0848484612a60565b6001600160a01b0383163b15612219576121fc848484846135e4565b612219576040516368d2bf6b60e11b815260040160405180910390fd5b50505050565b600f54600e546000918291612234919061522b565b90505b600e5481111561228b57601060006122506001846156a5565b8152602001908152602001600020600001544210612279576122736001826156a5565b91505090565b80612283816156bc565b915050612237565b5060405162461bcd60e51b815260206004820152600b60248201526a10a1a7a72224aa24a7a71760a91b6044820152606401610e0b565b606060006122cf836136d3565b50905060006122dd846137e6565b90506122e882611463565b1561231657806040516020016122fe91906156d3565b60405160208183030381529060405292505050919050565b8061232085613947565b6040516020016122fe9291906156f8565b6000818152600d6020526040812054815b81811015612395576000848152600d602090815260408083208484526001019091529020546001600160a01b0316156123835761238060018461522b565b92505b61238e60018261522b565b9050612342565b506000838152600b6020908152604080832083805290915290205460ff16156123c6576123c360018361522b565b91505b50919050565b606061010d546123dc8133612c7d565b60006123e786611250565b90506123f4818686611d91565b925061240f8160405180602001604052806000815250613a44565b6124198184613a63565b857f6df1d8db2a036436ffe0b2d1833f2c5f1e624818dfce2578c0faa4b83ef9998d84604051612449919061489a565b60405180910390a250509392505050565b600061010d5461246a8133612c7d565b82156124e95760008061247f85870187615727565b91509150815160001415801561249457508015155b156124e6576124e689600a546124aa919061522b565b87878080601f016020809104026020016040519081016040528093929190818152602001838380828437600092019190915250613a4492505050565b50505b6124f68787878787613a82565b979650505050505050565b6000828152600c60205260409020546113e99033612c7d565b600054610100900460ff161580801561253a5750600054600160ff909116105b806125545750303b158015612554575060005460ff166001145b6125b75760405162461bcd60e51b815260206004820152602e60248201527f496e697469616c697a61626c653a20636f6e747261637420697320616c72656160448201526d191e481a5b9a5d1a585b1a5e995960921b6064820152608401610e0b565b6000805460ff1916600117905580156125da576000805461ff0019166101001790555b7f8502233096d909befbda0999bb8ea2f3a6be3c138b9fbf003752a4c8bce86f6c7f9f2df0fed2c77648de5860a4cc508cd0818c85b8b8a1ab4ceeef8d981c8956a661262589613bad565b61262f8c8c613be5565b6126388a613351565b6126418d612890565b61264c60008e612cfd565b612656818e612cfd565b612660828e612cfd565b61266b826000612cfd565b61268784866fffffffffffffffffffffffffffffffff166128e2565b6126a387876fffffffffffffffffffffffffffffffff16612f72565b6126ac8861312b565b61010c9190915561010d5580156126fd576000805461ff0019169055604051600181527f7f26b83ff96e1f2b6a682f133852f6798a09c465da95921460cefb38474024989060200160405180910390a15b5050505050505050505050565b8251604080518083016020019091528181529060005b8181101561277657600085858360405160200161273f9392919061576b565b60408051601f1981840301815291905280516020918201208884018201511885840182015261276f91508261522b565b9050612720565b50509392505050565b60018054611f3790615197565b6001600160a01b03163b151590565b60006001600160e01b031982166380ac58cd60e01b14806127cc57506001600160e01b03198216635b5e139f60e01b145b80610c5557506301ffc9a760e01b6001600160e01b0319831614610c55565b600060da5482108015610c55575050600090815260de6020526040902054600160e01b900460ff161590565b6000612821613c16565b905090565b600082815260e0602052604080822080546001600160a01b0319166001600160a01b0387811691821790925591518593918516917f8c5be1e5ebec7d5bd14f71427d1e84f3dd0314c0f7b2291e5b200ac8c7c3b92591a4505050565b600061282181610861612817565b600680546001600160a01b038381166001600160a01b0319831681179093556040519116919082907f8292fce18fa69edf4db7b94ea2e58241df0ae57f97e0a6c9b29067028bf92d7690600090a35050565b6127108111156129265760405162461bcd60e51b815260206004820152600f60248201526e45786365656473206d61782062707360881b6044820152606401610e0b565b600280546001600160b01b031916600160a01b61ffff8416026001600160a01b031916176001600160a01b0384169081179091556040518281527fe2497bd806ec41a6e0dd992c29a72efc0ef8fec9092d1978fd4a1e00b2f18304906020015b60405180910390a25050565b6000808281805b8751811015612a54576129ad600283615259565b915060008882815181106129c3576129c3615243565b60200260200101519050808411612a05576040805160208101869052908101829052606001604051602081830303815290604052805190602001209350612a41565b6040805160208101839052908101859052606001604051602081830303815290604052805190602001209350600183612a3e919061522b565b92505b5080612a4c8161548b565b915050612999565b50941495939450505050565b6000612a6b82613011565b9050836001600160a01b031681600001516001600160a01b031614612aa25760405162a1148160e81b815260040160405180910390fd5b6000846001600160a01b0316612ab6612817565b6001600160a01b03161480612ad25750612ad285610c01612817565b80612afd5750612ae0612817565b6001600160a01b0316612af284610ced565b6001600160a01b0316145b905080612b1d57604051632ce44b5f60e11b815260040160405180910390fd5b6001600160a01b038416612b4457604051633a954ecd60e21b815260040160405180910390fd5b612b518585856001613c40565b612b5d60008487612826565b6001600160a01b03858116600090815260df60209081526040808320805467ffffffffffffffff198082166001600160401b039283166000190183161790925589861680865283862080549384169383166001908101841694909417905589865260de90945282852080546001600160e01b031916909417600160a01b42909216919091021783558701808452922080549193909116612c315760da548214612c3157805460208601516001600160401b0316600160a01b026001600160e01b03199091166001600160a01b038a16171781555b50505082846001600160a01b0316866001600160a01b03167fddf252ad1be2c89b69c2b068fc378daa952ba7f163c4a11628f55a4df523b3ef60405160405180910390a45b5050505050565b6000828152600b602090815260408083206001600160a01b038516845290915290205460ff16610e6f57612cbb816001600160a01b03166014613d2b565b612cc6836020613d2b565b604051602001612cd792919061577d565b60408051601f198184030181529082905262461bcd60e51b8252610e0b9160040161489a565b612d078282613eda565b610e6f8282613f35565b612d1b8282613fa2565b6000828152600d602090815260408083206001600160a01b03851680855260028201808552838620805487526001909301855292852080546001600160a01b031916905584529152555050565b6000612d7383613011565b80519091508215612dfb576000816001600160a01b0316612d92612817565b6001600160a01b03161480612dae5750612dae82610c01612817565b80612dd95750612dbc612817565b6001600160a01b0316612dce86610ced565b6001600160a01b0316145b905080612df957604051632ce44b5f60e11b815260040160405180910390fd5b505b612e09816000866001613c40565b612e1560008583612826565b6001600160a01b03808216600081815260df6020908152604080832080547001000000000000000000000000000000006000196001600160401b0380841691909101811667ffffffffffffffff19841681178390048216600190810183169093027fffffffffffffffff0000000000000000ffffffffffffffff0000000000000000909416179290921783558b865260de909452828520805460ff60e01b1942909316600160a01b026001600160e01b03199091169097179690961716600160e01b178555918901808452922080549194909116612f275760da548214612f2757805460208701516001600160401b0316600160a01b026001600160e01b03199091166001600160a01b038716171781555b5050604051869250600091506001600160a01b038416907fddf252ad1be2c89b69c2b068fc378daa952ba7f163c4a11628f55a4df523b3ef908390a4505060db805460010190555050565b612710811115612fb65760405162461bcd60e51b815260206004820152600f60248201526e45786365656473206d61782062707360881b6044820152606401610e0b565b600380546001600160a01b0384166001600160b01b03199091168117600160a01b61ffff851602179091556040518281527f90d7ec04bcb8978719414f82e52e4cb651db41d0e6f8cea6118c2191e6183adb90602001612986565b60408051606081018252600080825260208201819052918101919091528160da5481101561311257600081815260de6020908152604091829020825160608101845290546001600160a01b0381168252600160a01b81046001600160401b031692820192909252600160e01b90910460ff161515918101829052906131105780516001600160a01b0316156130a7579392505050565b5060001901600081815260de6020908152604091829020825160608101845290546001600160a01b038116808352600160a01b82046001600160401b031693830193909352600160e01b900460ff161515928101929092521561310b579392505050565b6130a7565b505b604051636f96cda160e11b815260040160405180910390fd5b600580546001600160a01b0319166001600160a01b0383169081179091556040517f299d17e95023f496e0ffc4909cff1a61f74bb5eb18de6f900f4155bfa1b3b33390600090a250565b600a548560da54613186919061522b565b11156131be5760405162461bcd60e51b815260206004820152600760248201526621546f6b656e7360c81b6044820152606401610e0b565b61010e5415806131de575061010e548560da546131db919061522b565b11155b61322a5760405162461bcd60e51b815260206004820152601860248201527f657863656564206d617820746f74616c20737570706c792e00000000000000006044820152606401610e0b565b505050505050565b6000612821612817565b8061324657612219565b6002546001600160a01b0380821691600160a01b900461ffff1690600090871615613271578661327e565b6005546001600160a01b03165b9050600061328c8588615259565b905060006127106132a161ffff861684615259565b6132ab919061528e565b90506001600160a01b03871673eeeeeeeeeeeeeeeeeeeeeeeeeeeeeeeeeeeeeeee141561330a5781341461330a5760405162461bcd60e51b815260206004820152600660248201526521507269636560d01b6044820152606401610e0b565b61331d87613316612817565b8784614004565b61333987613329612817565b8561333485876156a5565b614004565b505050505050505050565b60da54610c55838361404e565b60006001805461336090615197565b80601f016020809104026020016040519081016040528092919081815260200182805461338c90615197565b80156133d95780601f106133ae576101008083540402835291602001916133d9565b820191906000526020600020905b8154815290600101906020018083116133bc57829003601f168201915b505085519394506133f593600193506020870192509050614776565b507fc9c7c3fe08b88b4df9d4d47ef47d2c43d55c025a0ba88ca442580ed9e7348a1681836040516114319291906157fe565b61271081111561346b5760405162461bcd60e51b815260206004820152600f60248201526e45786365656473206d61782062707360881b6044820152606401610e0b565b6040805180820182526001600160a01b038481168083526020808401868152600089815260048352869020945185546001600160a01b031916941693909317845591516001909301929092559151838152909185917f7365cf4122f072a3365c20d54eff9b38d73c096c28e1892ec8f5b0e403a0f12d910160405180910390a3505050565b60606001600160a01b0383163b6135585760405162461bcd60e51b815260206004820152602660248201527f416464726573733a2064656c65676174652063616c6c20746f206e6f6e2d636f6044820152651b9d1c9858dd60d21b6064820152608401610e0b565b600080846001600160a01b0316846040516135739190615823565b600060405180830381855af49150503d80600081146135ae576040519150601f19603f3d011682016040523d82523d6000602084013e6135b3565b606091505b50915091506135db828260405180606001604052806027815260200161594460279139614068565b95945050505050565b6000836001600160a01b031663150b7a026135fd612817565b8786866040518563ffffffff1660e01b815260040161361f9493929190615835565b6020604051808303816000875af192505050801561365a575060408051601f3d908101601f1916820190925261365791810190615871565b60015b6136b5573d808015613688576040519150601f19603f3d011682016040523d82523d6000602084013e61368d565b606091505b5080516136ad576040516368d2bf6b60e11b815260040160405180910390fd5b805181602001fd5b6001600160e01b031916630a85bd0160e11b1490505b949350505050565b60008060006136e160085490565b90506000600880548060200260200160405190810160405280929190818152602001828054801561373157602002820191906000526020600020905b81548152602001906001019080831161371d575b5050505050905060005b8281101561379d5781818151811061375557613755615243565b602002602001015186101561378b5780935081818151811061377957613779615243565b60200260200101519450505050915091565b61379660018261522b565b905061373b565b5060405162461bcd60e51b815260206004820152600f60248201527f496e76616c696420746f6b656e496400000000000000000000000000000000006044820152606401610e0b565b606060006137f360085490565b90506000600880548060200260200160405190810160405280929190818152602001828054801561384357602002820191906000526020600020905b81548152602001906001019080831161382f575b5050505050905060005b8281101561379d5781818151811061386757613867615243565b6020026020010151851015613935576009600083838151811061388c5761388c615243565b6020026020010151815260200190815260200160002080546138ad90615197565b80601f01602080910402602001604051908101604052809291908181526020018280546138d990615197565b80156139265780601f106138fb57610100808354040283529160200191613926565b820191906000526020600020905b81548152906001019060200180831161390957829003601f168201915b50505050509350505050919050565b61394060018261522b565b905061384d565b60608161396b5750506040805180820190915260018152600360fc1b602082015290565b8160005b8115613995578061397f8161548b565b915061398e9050600a8361528e565b915061396f565b6000816001600160401b038111156139af576139af614b73565b6040519080825280601f01601f1916602001820160405280156139d9576020820181803683370190505b5090505b84156136cb576139ee6001836156a5565b91506139fb600a8661588e565b613a0690603061522b565b60f81b818381518110613a1b57613a1b615243565b60200101906001600160f81b031916908160001a905350613a3d600a8661528e565b94506139dd565b60008281526007602090815260409091208251610dc592840190614776565b60008281526009602090815260409091208251610dc592840190614776565b6000613a8c612882565b613ac95760405162461bcd60e51b815260206004820152600e60248201526d139bdd08185d5d1a1bdc9a5e995960921b6044820152606401610e0b565b85613afe5760405162461bcd60e51b81526020600482015260056024820152640c08185b5d60da1b6044820152606401610e0b565b6000600a549050613b46818888888080601f0160208091040260200160405190810160405280939291908181526020018383808284376000920191909152506140a192505050565b600a919091559150807f2a0365091ef1a40953c670dce28177e37520648a6fdc91506bffac0ab045570d6001613b7c8a8461522b565b613b8691906156a5565b88888888604051613b9b9594939291906158a2565b60405180910390a25095945050505050565b600054610100900460ff16613bd45760405162461bcd60e51b8152600401610e0b906158db565b613bdc61410e565b610e1d81614137565b600054610100900460ff16613c0c5760405162461bcd60e51b8152600401610e0b906158db565b610e6f82826141c6565b3360009081526044602052604081205460ff1615613c3b575060131936013560601c90565b503390565b61010c546000908152600b6020908152604080832083805290915290205460ff16158015613c7657506001600160a01b03841615155b8015613c8a57506001600160a01b03831615155b156122195761010c546000908152600b602090815260408083206001600160a01b038816845290915290205460ff16158015613ced575061010c546000908152600b602090815260408083206001600160a01b038716845290915290205460ff16155b156122195760405162461bcd60e51b815260206004820152600e60248201526d215472616e736665722d526f6c6560901b6044820152606401610e0b565b60606000613d3a836002615259565b613d4590600261522b565b6001600160401b03811115613d5c57613d5c614b73565b6040519080825280601f01601f191660200182016040528015613d86576020820181803683370190505b509050600360fc1b81600081518110613da157613da1615243565b60200101906001600160f81b031916908160001a905350600f60fb1b81600181518110613dd057613dd0615243565b60200101906001600160f81b031916908160001a9053506000613df4846002615259565b613dff90600161522b565b90505b6001811115613e84577f303132333435363738396162636465660000000000000000000000000000000085600f1660108110613e4057613e40615243565b1a60f81b828281518110613e5657613e56615243565b60200101906001600160f81b031916908160001a90535060049490941c93613e7d816156bc565b9050613e02565b508315613ed35760405162461bcd60e51b815260206004820181905260248201527f537472696e67733a20686578206c656e67746820696e73756666696369656e746044820152606401610e0b565b9392505050565b6000828152600b602090815260408083206001600160a01b0385168085529252808320805460ff1916600117905551339285917f2f8788117e7eff1d82e926ec794901d17c78024a50270940304540a733656f0d9190a45050565b6000828152600d6020526040812080549160019190613f54838561522b565b90915550506000928352600d6020908152604080852083865260018101835281862080546001600160a01b039096166001600160a01b03199096168617905593855260029093019052912055565b613fac8282612c7d565b6000828152600b602090815260408083206001600160a01b0385168085529252808320805460ff1916905551339285917ff6391f5c32d9c69d2a47ea670b442974b53935d1edc7fd64eb21e047a839171b9190a45050565b8061400e57612219565b6001600160a01b03841673eeeeeeeeeeeeeeeeeeeeeeeeeeeeeeeeeeeeeeee14156140425761403d828261421e565b612219565b612219848484846142c1565b610e6f82826040518060200160405280600081525061431a565b60608315614077575081613ed3565b8251156140875782518084602001fd5b8160405162461bcd60e51b8152600401610e0b919061489a565b6000806140ae848661522b565b60088054600181019091557ff3f7a9fe364faab93b216da50a3214154f22a0a2b415b23a84c8169e8b636ee30181905560008181526009602090815260409091208551929450849350614105929091860190614776565b50935093915050565b600054610100900460ff166141355760405162461bcd60e51b8152600401610e0b906158db565b565b600054610100900460ff1661415e5760405162461bcd60e51b8152600401610e0b906158db565b60005b8151811015610e6f5760016044600084848151811061418257614182615243565b6020908102919091018101516001600160a01b03168252810191909152604001600020805460ff1916911515919091179055806141be8161548b565b915050614161565b600054610100900460ff166141ed5760405162461bcd60e51b8152600401610e0b906158db565b81516142009060dc906020850190614776565b5080516142149060dd906020840190614776565b50600060da555050565b6000826001600160a01b03168260405160006040518083038185875af1925050503d806000811461426b576040519150601f19603f3d011682016040523d82523d6000602084013e614270565b606091505b5050905080610dc55760405162461bcd60e51b815260206004820152601c60248201527f6e617469766520746f6b656e207472616e73666572206661696c6564000000006044820152606401610e0b565b816001600160a01b0316836001600160a01b031614156142e057612219565b6001600160a01b0383163014156143055761403d6001600160a01b03851683836144ea565b6122196001600160a01b038516848484614562565b60da546001600160a01b03841661434357604051622e076360e81b815260040160405180910390fd5b826143615760405163b562e8dd60e01b815260040160405180910390fd5b61436e6000858386613c40565b6001600160a01b038416600081815260df6020908152604080832080546fffffffffffffffffffffffffffffffff1981166001600160401b038083168b0181169182176801000000000000000067ffffffffffffffff1990941690921783900481168b0181169092021790915585845260de90925290912080546001600160e01b0319168317600160a01b42909316929092029190911790558190818501903b15614496575b60405182906001600160a01b038816906000907fddf252ad1be2c89b69c2b068fc378daa952ba7f163c4a11628f55a4df523b3ef908290a461445f60008784806001019550876135e4565b61447c576040516368d2bf6b60e11b815260040160405180910390fd5b808210614414578260da541461449157600080fd5b6144db565b5b6040516001830192906001600160a01b038816906000907fddf252ad1be2c89b69c2b068fc378daa952ba7f163c4a11628f55a4df523b3ef908290a4808210614497575b5060da55612219600085838684565b6040516001600160a01b038316602482015260448101829052610dc590849063a9059cbb60e01b906064015b60408051601f198184030181529190526020810180517bffffffffffffffffffffffffffffffffffffffffffffffffffffffff166001600160e01b03199093169290921790915261459a565b6040516001600160a01b03808516602483015283166044820152606481018290526122199085906323b872dd60e01b90608401614516565b60006145ef826040518060400160405280602081526020017f5361666545524332303a206c6f772d6c6576656c2063616c6c206661696c6564815250856001600160a01b031661466c9092919063ffffffff16565b805190915015610dc5578080602001905181019061460d9190615926565b610dc55760405162461bcd60e51b815260206004820152602a60248201527f5361666545524332303a204552433230206f7065726174696f6e20646964206e6044820152691bdd081cdd58d8d9595960b21b6064820152608401610e0b565b60606136cb8484600085856001600160a01b0385163b6146ce5760405162461bcd60e51b815260206004820152601d60248201527f416464726573733a2063616c6c20746f206e6f6e2d636f6e74726163740000006044820152606401610e0b565b600080866001600160a01b031685876040516146ea9190615823565b60006040518083038185875af1925050503d8060008114614727576040519150601f19603f3d011682016040523d82523d6000602084013e61472c565b606091505b50915091506124f6828286614068565b50805461474890615197565b6000825580601f10614758575050565b601f016020900490600052602060002090810190610e1d91906147fa565b82805461478290615197565b90600052602060002090601f0160209004810192826147a457600085556147ea565b82601f106147bd57805160ff19168380011785556147ea565b828001600101855582156147ea579182015b828111156147ea5782518255916020019190600101906147cf565b506147f69291506147fa565b5090565b5b808211156147f657600081556001016147fb565b6001600160e01b031981168114610e1d57600080fd5b60006020828403121561483757600080fd5b8135613ed38161480f565b60005b8381101561485d578181015183820152602001614845565b838111156122195750506000910152565b60008151808452614886816020860160208601614842565b601f01601f19169290920160200192915050565b602081526000613ed3602083018461486e565b6000602082840312156148bf57600080fd5b5035919050565b6001600160a01b0381168114610e1d57600080fd5b80356148e6816148c6565b919050565b600080604083850312156148fe57600080fd5b8235614909816148c6565b946020939093013593505050565b60006020828403121561492957600080fd5b8135613ed3816148c6565b6000608082840312156123c657600080fd5b60008060008060008060c0878903121561495f57600080fd5b863595506020870135614971816148c6565b9450604087013593506060870135614988816148c6565b92506080870135915060a08701356001600160401b038111156149aa57600080fd5b6149b689828a01614934565b9150509295509295509295565b6000806000606084860312156149d857600080fd5b83356149e3816148c6565b925060208401356149f3816148c6565b929592945050506040919091013590565b60008060408385031215614a1757600080fd5b50508035926020909101359150565b60008060408385031215614a3957600080fd5b823591506020830135614a4b816148c6565b809150509250929050565b6020815281516020820152602082015160408201526040820151606082015260608201516080820152608082015160a082015260a082015160c08201526001600160a01b0360c08301511660e0820152600060e08301516101008081850152506136cb61012084018261486e565b60008083601f840112614ad657600080fd5b5081356001600160401b03811115614aed57600080fd5b6020830191508360208260051b8501011115614b0857600080fd5b9250929050565b8015158114610e1d57600080fd5b600080600060408486031215614b3257600080fd5b83356001600160401b03811115614b4857600080fd5b614b5486828701614ac4565b9094509250506020840135614b6881614b0f565b809150509250925092565b634e487b7160e01b600052604160045260246000fd5b604051601f8201601f191681016001600160401b0381118282101715614bb157614bb1614b73565b604052919050565b60006001600160401b03821115614bd257614bd2614b73565b50601f01601f191660200190565b600082601f830112614bf157600080fd5b8135614c04614bff82614bb9565b614b89565b818152846020838601011115614c1957600080fd5b816020850160208301376000918101602001919091529392505050565b60008060008060008060c08789031215614c4f57600080fd5b8635614c5a816148c6565b9550602087013594506040870135614c71816148c6565b93506060870135925060808701356001600160401b0380821115614c9457600080fd5b614ca08a838b01614934565b935060a0890135915080821115614cb657600080fd5b506149b689828a01614be0565b600060208284031215614cd557600080fd5b81356001600160401b03811115614ceb57600080fd5b6136cb84828501614be0565b600080600060608486031215614d0c57600080fd5b8335925060208401356149f3816148c6565b60008083601f840112614d3057600080fd5b5081356001600160401b03811115614d4757600080fd5b602083019150836020828501011115614b0857600080fd5b600080600060408486031215614d7457600080fd5b8335925060208401356001600160401b03811115614d9157600080fd5b614d9d86828701614d1e565b9497909650939450505050565b60008060408385031215614dbd57600080fd5b8235614dc8816148c6565b91506020830135614a4b81614b0f565b60008060208385031215614deb57600080fd5b82356001600160401b03811115614e0157600080fd5b614e0d85828601614ac4565b90969095509350505050565b6000602080830181845280855180835260408601915060408160051b870101925083870160005b82811015614e6e57603f19888603018452614e5c85835161486e565b94509285019290850190600101614e40565b5092979650505050505050565b60008060008060808587031215614e9157600080fd5b8435614e9c816148c6565b93506020850135614eac816148c6565b92506040850135915060608501356001600160401b03811115614ece57600080fd5b614eda87828801614be0565b91505092959194509250565b600080600080600060608688031215614efe57600080fd5b8535945060208601356001600160401b0380821115614f1c57600080fd5b614f2889838a01614d1e565b90965094506040880135915080821115614f4157600080fd5b50614f4e88828901614d1e565b969995985093965092949392505050565b600082601f830112614f7057600080fd5b813560206001600160401b03821115614f8b57614f8b614b73565b8160051b614f9a828201614b89565b9283528481018201928281019087851115614fb457600080fd5b83870192505b848310156124f6578235614fcd816148c6565b82529183019190830190614fba565b80356fffffffffffffffffffffffffffffffff811681146148e657600080fd5b6000806000806000806000806000806101408b8d03121561501c57600080fd5b6150258b6148db565b995060208b01356001600160401b038082111561504157600080fd5b61504d8e838f01614be0565b9a5060408d013591508082111561506357600080fd5b61506f8e838f01614be0565b995060608d013591508082111561508557600080fd5b6150918e838f01614be0565b985060808d01359150808211156150a757600080fd5b506150b48d828e01614f5f565b9650506150c360a08c016148db565b94506150d160c08c016148db565b93506150df60e08c01614fdc565b92506150ee6101008c01614fdc565b91506150fd6101208c016148db565b90509295989b9194979a5092959850565b60008060006040848603121561512357600080fd5b83356001600160401b038082111561513a57600080fd5b61514687838801614be0565b9450602086013591508082111561515c57600080fd5b50614d9d86828701614d1e565b6000806040838503121561517c57600080fd5b8235615187816148c6565b91506020830135614a4b816148c6565b600181811c908216806151ab57607f821691505b602082108114156123c657634e487b7160e01b600052602260045260246000fd5b6000808335601e198436030181126151e357600080fd5b8301803591506001600160401b038211156151fd57600080fd5b6020019150600581901b3603821315614b0857600080fd5b634e487b7160e01b600052601160045260246000fd5b6000821982111561523e5761523e615215565b500190565b634e487b7160e01b600052603260045260246000fd5b600081600019048311821515161561527357615273615215565b500290565b634e487b7160e01b600052601260045260246000fd5b60008261529d5761529d615278565b500490565b6000823560fe198336030181126152b857600080fd5b9190910192915050565b6000808335601e198436030181126152d957600080fd5b8301803591506001600160401b038211156152f357600080fd5b602001915036819003821315614b0857600080fd5b601f821115610dc557600081815260208120601f850160051c8101602086101561532f5750805b601f850160051c820191505b8181101561322a5782815560010161533b565b6001600160401b0383111561536557615365614b73565b615379836153738354615197565b83615308565b6000601f8411600181146153ad57600085156153955750838201355b600019600387901b1c1916600186901b178355612c76565b600083815260209020601f19861690835b828110156153de57868501358255602094850194600190920191016153be565b50868210156153fb5760001960f88860031b161c19848701351681555b505060018560011b0183555050505050565b813581556020820135600182015560408201356002820155606082013560038201556080820135600482015560a082013560058201556006810160c0830135615455816148c6565b81546001600160a01b0319166001600160a01b039190911617905561547d60e08301836152c2565b61221981836007860161534e565b600060001982141561549f5761549f615215565b5060010190565b6000808335601e198436030181126154bd57600080fd5b83016020810192503590506001600160401b038111156154dc57600080fd5b803603831315614b0857600080fd5b81835281816020850137506000828201602090810191909152601f909101601f19169091010190565b60408082528181018490526000906060808401600587901b850182018885805b8a8110156155e657888403605f190185528235368d900360fe19018112615559578283fd5b8c018035855260208082013581870152888201358987015287820135888701526080808301359087015260a080830135908701526101009060c0808401356155a0816148c6565b6001600160a01b03169088015260e06155bb848201856154a6565b945083828a01526155cf848a0186836154eb565b998301999850505094909401935050600101615534565b505050861515602087015293506136cb92505050565b6000806040838503121561560f57600080fd5b82516001600160401b0381111561562557600080fd5b8301601f8101851361563657600080fd5b8051615644614bff82614bb9565b81815286602083850101111561565957600080fd5b61566a826020830160208601614842565b60209590950151949694955050505050565b6000855161568e818460208a01614842565b820184868237909301918252506020019392505050565b6000828210156156b7576156b7615215565b500390565b6000816156cb576156cb615215565b506000190190565b600082516156e5818460208701614842565b600360fc1b920191825250600101919050565b6000835161570a818460208801614842565b83519083019061571e818360208801614842565b01949350505050565b6000806040838503121561573a57600080fd5b82356001600160401b0381111561575057600080fd5b61575c85828601614be0565b95602094909401359450505050565b82848237909101908152602001919050565b7f5065726d697373696f6e733a206163636f756e742000000000000000000000008152600083516157b5816015850160208801614842565b7f206973206d697373696e6720726f6c652000000000000000000000000000000060159184019182015283516157f2816026840160208801614842565b01602601949350505050565b604081526000615811604083018561486e565b82810360208401526135db818561486e565b600082516152b8818460208701614842565b60006001600160a01b03808716835280861660208401525083604083015260806060830152615867608083018461486e565b9695505050505050565b60006020828403121561588357600080fd5b8151613ed38161480f565b60008261589d5761589d615278565b500690565b8581526060602082015260006158bc6060830186886154eb565b82810360408401526158cf8185876154eb565b98975050505050505050565b6020808252602b908201527f496e697469616c697a61626c653a20636f6e7472616374206973206e6f74206960408201526a6e697469616c697a696e6760a81b606082015260800190565b60006020828403121561593857600080fd5b8151613ed381614b0f56fe416464726573733a206c6f772d6c6576656c2064656c65676174652063616c6c206661696c6564a2646970667358221220fa4679fecf85d43b262f2c55e166e932617e500d0d89ab048705ac2361a8ceea64736f6c634300080c0033",
  "linkReferences": {},
  "deployedLinkReferences": {}
}