{
  "_format": "hh-sol-artifact-1",
  "contractName": "ERC1155PresetUpgradeable",
  "sourceName": "contracts/openzeppelin-presets/ERC1155PresetUpgradeable.sol",
  "abi": [
    {
      "anonymous": false,
      "inputs": [
        {
          "indexed": true,
          "internalType": "address",
          "name": "account",
          "type": "address"
        },
        {
          "indexed": true,
          "internalType": "address",
          "name": "operator",
          "type": "address"
        },
        {
          "indexed": false,
          "internalType": "bool",
          "name": "approved",
          "type": "bool"
        }
      ],
      "name": "ApprovalForAll",
      "type": "event"
    },
    {
      "anonymous": false,
      "inputs": [
        {
          "indexed": false,
          "internalType": "uint8",
          "name": "version",
          "type": "uint8"
        }
      ],
      "name": "Initialized",
      "type": "event"
    },
    {
      "anonymous": false,
      "inputs": [
        {
          "indexed": false,
          "internalType": "address",
          "name": "account",
          "type": "address"
        }
      ],
      "name": "Paused",
      "type": "event"
    },
    {
      "anonymous": false,
      "inputs": [
        {
          "indexed": true,
          "internalType": "bytes32",
          "name": "role",
          "type": "bytes32"
        },
        {
          "indexed": true,
          "internalType": "bytes32",
          "name": "previousAdminRole",
          "type": "bytes32"
        },
        {
          "indexed": true,
          "internalType": "bytes32",
          "name": "newAdminRole",
          "type": "bytes32"
        }
      ],
      "name": "RoleAdminChanged",
      "type": "event"
    },
    {
      "anonymous": false,
      "inputs": [
        {
          "indexed": true,
          "internalType": "bytes32",
          "name": "role",
          "type": "bytes32"
        },
        {
          "indexed": true,
          "internalType": "address",
          "name": "account",
          "type": "address"
        },
        {
          "indexed": true,
          "internalType": "address",
          "name": "sender",
          "type": "address"
        }
      ],
      "name": "RoleGranted",
      "type": "event"
    },
    {
      "anonymous": false,
      "inputs": [
        {
          "indexed": true,
          "internalType": "bytes32",
          "name": "role",
          "type": "bytes32"
        },
        {
          "indexed": true,
          "internalType": "address",
          "name": "account",
          "type": "address"
        },
        {
          "indexed": true,
          "internalType": "address",
          "name": "sender",
          "type": "address"
        }
      ],
      "name": "RoleRevoked",
      "type": "event"
    },
    {
      "anonymous": false,
      "inputs": [
        {
          "indexed": true,
          "internalType": "address",
          "name": "operator",
          "type": "address"
        },
        {
          "indexed": true,
          "internalType": "address",
          "name": "from",
          "type": "address"
        },
        {
          "indexed": true,
          "internalType": "address",
          "name": "to",
          "type": "address"
        },
        {
          "indexed": false,
          "internalType": "uint256[]",
          "name": "ids",
          "type": "uint256[]"
        },
        {
          "indexed": false,
          "internalType": "uint256[]",
          "name": "values",
          "type": "uint256[]"
        }
      ],
      "name": "TransferBatch",
      "type": "event"
    },
    {
      "anonymous": false,
      "inputs": [
        {
          "indexed": true,
          "internalType": "address",
          "name": "operator",
          "type": "address"
        },
        {
          "indexed": true,
          "internalType": "address",
          "name": "from",
          "type": "address"
        },
        {
          "indexed": true,
          "internalType": "address",
          "name": "to",
          "type": "address"
        },
        {
          "indexed": false,
          "internalType": "uint256",
          "name": "id",
          "type": "uint256"
        },
        {
          "indexed": false,
          "internalType": "uint256",
          "name": "value",
          "type": "uint256"
        }
      ],
      "name": "TransferSingle",
      "type": "event"
    },
    {
      "anonymous": false,
      "inputs": [
        {
          "indexed": false,
          "internalType": "string",
          "name": "value",
          "type": "string"
        },
        {
          "indexed": true,
          "internalType": "uint256",
          "name": "id",
          "type": "uint256"
        }
      ],
      "name": "URI",
      "type": "event"
    },
    {
      "anonymous": false,
      "inputs": [
        {
          "indexed": false,
          "internalType": "address",
          "name": "account",
          "type": "address"
        }
      ],
      "name": "Unpaused",
      "type": "event"
    },
    {
      "inputs": [],
      "name": "DEFAULT_ADMIN_ROLE",
      "outputs": [
        {
          "internalType": "bytes32",
          "name": "",
          "type": "bytes32"
        }
      ],
      "stateMutability": "view",
      "type": "function"
    },
    {
      "inputs": [
        {
          "internalType": "address",
          "name": "account",
          "type": "address"
        },
        {
          "internalType": "uint256",
          "name": "id",
          "type": "uint256"
        }
      ],
      "name": "balanceOf",
      "outputs": [
        {
          "internalType": "uint256",
          "name": "",
          "type": "uint256"
        }
      ],
      "stateMutability": "view",
      "type": "function"
    },
    {
      "inputs": [
        {
          "internalType": "address[]",
          "name": "accounts",
          "type": "address[]"
        },
        {
          "internalType": "uint256[]",
          "name": "ids",
          "type": "uint256[]"
        }
      ],
      "name": "balanceOfBatch",
      "outputs": [
        {
          "internalType": "uint256[]",
          "name": "",
          "type": "uint256[]"
        }
      ],
      "stateMutability": "view",
      "type": "function"
    },
    {
      "inputs": [
        {
          "internalType": "address",
          "name": "account",
          "type": "address"
        },
        {
          "internalType": "uint256",
          "name": "id",
          "type": "uint256"
        },
        {
          "internalType": "uint256",
          "name": "value",
          "type": "uint256"
        }
      ],
      "name": "burn",
      "outputs": [],
      "stateMutability": "nonpayable",
      "type": "function"
    },
    {
      "inputs": [
        {
          "internalType": "address",
          "name": "account",
          "type": "address"
        },
        {
          "internalType": "uint256[]",
          "name": "ids",
          "type": "uint256[]"
        },
        {
          "internalType": "uint256[]",
          "name": "values",
          "type": "uint256[]"
        }
      ],
      "name": "burnBatch",
      "outputs": [],
      "stateMutability": "nonpayable",
      "type": "function"
    },
    {
      "inputs": [
        {
          "internalType": "bytes32",
          "name": "role",
          "type": "bytes32"
        }
      ],
      "name": "getRoleAdmin",
      "outputs": [
        {
          "internalType": "bytes32",
          "name": "",
          "type": "bytes32"
        }
      ],
      "stateMutability": "view",
      "type": "function"
    },
    {
      "inputs": [
        {
          "internalType": "bytes32",
          "name": "role",
          "type": "bytes32"
        },
        {
          "internalType": "uint256",
          "name": "index",
          "type": "uint256"
        }
      ],
      "name": "getRoleMember",
      "outputs": [
        {
          "internalType": "address",
          "name": "",
          "type": "address"
        }
      ],
      "stateMutability": "view",
      "type": "function"
    },
    {
      "inputs": [
        {
          "internalType": "bytes32",
          "name": "role",
          "type": "bytes32"
        }
      ],
      "name": "getRoleMemberCount",
      "outputs": [
        {
          "internalType": "uint256",
          "name": "",
          "type": "uint256"
        }
      ],
      "stateMutability": "view",
      "type": "function"
    },
    {
      "inputs": [
        {
          "internalType": "bytes32",
          "name": "role",
          "type": "bytes32"
        },
        {
          "internalType": "address",
          "name": "account",
          "type": "address"
        }
      ],
      "name": "grantRole",
      "outputs": [],
      "stateMutability": "nonpayable",
      "type": "function"
    },
    {
      "inputs": [
        {
          "internalType": "bytes32",
          "name": "role",
          "type": "bytes32"
        },
        {
          "internalType": "address",
          "name": "account",
          "type": "address"
        }
      ],
      "name": "hasRole",
      "outputs": [
        {
          "internalType": "bool",
          "name": "",
          "type": "bool"
        }
      ],
      "stateMutability": "view",
      "type": "function"
    },
    {
      "inputs": [
        {
          "internalType": "address",
          "name": "account",
          "type": "address"
        },
        {
          "internalType": "address",
          "name": "operator",
          "type": "address"
        }
      ],
      "name": "isApprovedForAll",
      "outputs": [
        {
          "internalType": "bool",
          "name": "",
          "type": "bool"
        }
      ],
      "stateMutability": "view",
      "type": "function"
    },
    {
      "inputs": [
        {
          "internalType": "address",
          "name": "to",
          "type": "address"
        },
        {
          "internalType": "uint256",
          "name": "id",
          "type": "uint256"
        },
        {
          "internalType": "uint256",
          "name": "amount",
          "type": "uint256"
        },
        {
          "internalType": "bytes",
          "name": "data",
          "type": "bytes"
        }
      ],
      "name": "mint",
      "outputs": [],
      "stateMutability": "nonpayable",
      "type": "function"
    },
    {
      "inputs": [
        {
          "internalType": "address",
          "name": "to",
          "type": "address"
        },
        {
          "internalType": "uint256[]",
          "name": "ids",
          "type": "uint256[]"
        },
        {
          "internalType": "uint256[]",
          "name": "amounts",
          "type": "uint256[]"
        },
        {
          "internalType": "bytes",
          "name": "data",
          "type": "bytes"
        }
      ],
      "name": "mintBatch",
      "outputs": [],
      "stateMutability": "nonpayable",
      "type": "function"
    },
    {
      "inputs": [
        {
          "internalType": "address",
          "name": "",
          "type": "address"
        },
        {
          "internalType": "address",
          "name": "",
          "type": "address"
        },
        {
          "internalType": "uint256[]",
          "name": "",
          "type": "uint256[]"
        },
        {
          "internalType": "uint256[]",
          "name": "",
          "type": "uint256[]"
        },
        {
          "internalType": "bytes",
          "name": "",
          "type": "bytes"
        }
      ],
      "name": "onERC1155BatchReceived",
      "outputs": [
        {
          "internalType": "bytes4",
          "name": "",
          "type": "bytes4"
        }
      ],
      "stateMutability": "nonpayable",
      "type": "function"
    },
    {
      "inputs": [
        {
          "internalType": "address",
          "name": "",
          "type": "address"
        },
        {
          "internalType": "address",
          "name": "",
          "type": "address"
        },
        {
          "internalType": "uint256",
          "name": "",
          "type": "uint256"
        },
        {
          "internalType": "uint256",
          "name": "",
          "type": "uint256"
        },
        {
          "internalType": "bytes",
          "name": "",
          "type": "bytes"
        }
      ],
      "name": "onERC1155Received",
      "outputs": [
        {
          "internalType": "bytes4",
          "name": "",
          "type": "bytes4"
        }
      ],
      "stateMutability": "nonpayable",
      "type": "function"
    },
    {
      "inputs": [
        {
          "internalType": "address",
          "name": "",
          "type": "address"
        },
        {
          "internalType": "address",
          "name": "",
          "type": "address"
        },
        {
          "internalType": "uint256",
          "name": "",
          "type": "uint256"
        },
        {
          "internalType": "bytes",
          "name": "",
          "type": "bytes"
        }
      ],
      "name": "onERC721Received",
      "outputs": [
        {
          "internalType": "bytes4",
          "name": "",
          "type": "bytes4"
        }
      ],
      "stateMutability": "nonpayable",
      "type": "function"
    },
    {
      "inputs": [],
      "name": "pause",
      "outputs": [],
      "stateMutability": "nonpayable",
      "type": "function"
    },
    {
      "inputs": [],
      "name": "paused",
      "outputs": [
        {
          "internalType": "bool",
          "name": "",
          "type": "bool"
        }
      ],
      "stateMutability": "view",
      "type": "function"
    },
    {
      "inputs": [
        {
          "internalType": "bytes32",
          "name": "role",
          "type": "bytes32"
        },
        {
          "internalType": "address",
          "name": "account",
          "type": "address"
        }
      ],
      "name": "renounceRole",
      "outputs": [],
      "stateMutability": "nonpayable",
      "type": "function"
    },
    {
      "inputs": [
        {
          "internalType": "bytes32",
          "name": "role",
          "type": "bytes32"
        },
        {
          "internalType": "address",
          "name": "account",
          "type": "address"
        }
      ],
      "name": "revokeRole",
      "outputs": [],
      "stateMutability": "nonpayable",
      "type": "function"
    },
    {
      "inputs": [
        {
          "internalType": "address",
          "name": "from",
          "type": "address"
        },
        {
          "internalType": "address",
          "name": "to",
          "type": "address"
        },
        {
          "internalType": "uint256[]",
          "name": "ids",
          "type": "uint256[]"
        },
        {
          "internalType": "uint256[]",
          "name": "amounts",
          "type": "uint256[]"
        },
        {
          "internalType": "bytes",
          "name": "data",
          "type": "bytes"
        }
      ],
      "name": "safeBatchTransferFrom",
      "outputs": [],
      "stateMutability": "nonpayable",
      "type": "function"
    },
    {
      "inputs": [
        {
          "internalType": "address",
          "name": "from",
          "type": "address"
        },
        {
          "internalType": "address",
          "name": "to",
          "type": "address"
        },
        {
          "internalType": "uint256",
          "name": "id",
          "type": "uint256"
        },
        {
          "internalType": "uint256",
          "name": "amount",
          "type": "uint256"
        },
        {
          "internalType": "bytes",
          "name": "data",
          "type": "bytes"
        }
      ],
      "name": "safeTransferFrom",
      "outputs": [],
      "stateMutability": "nonpayable",
      "type": "function"
    },
    {
      "inputs": [
        {
          "internalType": "address",
          "name": "operator",
          "type": "address"
        },
        {
          "internalType": "bool",
          "name": "approved",
          "type": "bool"
        }
      ],
      "name": "setApprovalForAll",
      "outputs": [],
      "stateMutability": "nonpayable",
      "type": "function"
    },
    {
      "inputs": [
        {
          "internalType": "bytes4",
          "name": "interfaceId",
          "type": "bytes4"
        }
      ],
      "name": "supportsInterface",
      "outputs": [
        {
          "internalType": "bool",
          "name": "",
          "type": "bool"
        }
      ],
      "stateMutability": "view",
      "type": "function"
    },
    {
      "inputs": [
        {
          "internalType": "uint256",
          "name": "id",
          "type": "uint256"
        }
      ],
      "name": "totalSupply",
      "outputs": [
        {
          "internalType": "uint256",
          "name": "",
          "type": "uint256"
        }
      ],
      "stateMutability": "view",
      "type": "function"
    },
    {
      "inputs": [],
      "name": "unpause",
      "outputs": [],
      "stateMutability": "nonpayable",
      "type": "function"
    },
    {
      "inputs": [
        {
          "internalType": "uint256",
          "name": "",
          "type": "uint256"
        }
      ],
      "name": "uri",
      "outputs": [
        {
          "internalType": "string",
          "name": "",
          "type": "string"
        }
      ],
      "stateMutability": "view",
      "type": "function"
    }
  ],
  "bytecode": "0x608060405234801561001057600080fd5b50612d7c806100206000396000f3fe608060405234801561001057600080fd5b50600436106101b85760003560e01c8063731133e9116100f9578063bd85b03911610097578063e985e9c511610071578063e985e9c514610415578063f23a6e6114610452578063f242432a14610471578063f5298aca1461048457600080fd5b8063bd85b039146103ce578063ca15c873146103ef578063d547741f1461040257600080fd5b806391d14854116100d357806391d148541461035b578063a217fddf14610394578063a22cb4651461039c578063bc197c81146103af57600080fd5b8063731133e9146103155780638456cb59146103285780639010d07c1461033057600080fd5b80632eb2c2d6116101665780633f4ba83a116101405780633f4ba83a146102ce5780634e1273f4146102d65780635c975abb146102f65780636b20c4541461030257600080fd5b80632eb2c2d6146102955780632f2ff15d146102a857806336568abe146102bb57600080fd5b8063150b7a0211610197578063150b7a02146102265780631f7fdffa1461025d578063248a9ca31461027257600080fd5b8062fdd58e146101bd57806301ffc9a7146101e35780630e89341c14610206575b600080fd5b6101d06101cb3660046122eb565b610497565b6040519081526020015b60405180910390f35b6101f66101f136600461232b565b610533565b60405190151581526020016101da565b610219610214366004612348565b61053e565b6040516101da91906123b9565b610244610234366004612483565b630a85bd0160e11b949350505050565b6040516001600160e01b031990911681526020016101da565b61027061026b366004612580565b6105d3565b005b6101d0610280366004612348565b600090815260fb602052604090206001015490565b6102706102a336600461260d565b610653565b6102706102b63660046126b7565b61069f565b6102706102c93660046126b7565b6106c9565b610270610755565b6102e96102e43660046126e3565b6107cd565b6040516101da91906127e9565b6101c35460ff166101f6565b6102706103103660046127fc565b6108f7565b610270610323366004612870565b61093a565b6102706109b4565b61034361033e3660046128b9565b610a2a565b6040516001600160a01b0390911681526020016101da565b6101f66103693660046126b7565b600091825260fb602090815260408084206001600160a01b0393909316845291905290205460ff1690565b6101d0600081565b6102706103aa3660046128db565b610a4a565b6102446103bd36600461260d565b63bc197c8160e01b95945050505050565b6101d06103dc366004612348565b6000908152610227602052604090205490565b6101d06103fd366004612348565b610a55565b6102706104103660046126b7565b610a6d565b6101f6610423366004612917565b6001600160a01b0391821660009081526101606020908152604080832093909416825291909152205460ff1690565b610244610460366004612941565b63f23a6e6160e01b95945050505050565b61027061047f366004612941565b610a92565b6102706104923660046129a6565b610ad7565b60006001600160a01b0383166105075760405162461bcd60e51b815260206004820152602a60248201527f455243313135353a2061646472657373207a65726f206973206e6f742061207660448201526930b634b21037bbb732b960b11b60648201526084015b60405180910390fd5b50600081815261015f602090815260408083206001600160a01b03861684529091529020545b92915050565b600061052d82610b1a565b6060610161805461054e906129d9565b80601f016020809104026020016040519081016040528092919081815260200182805461057a906129d9565b80156105c75780601f1061059c576101008083540402835291602001916105c7565b820191906000526020600020905b8154815290600101906020018083116105aa57829003601f168201915b50505050509050919050565b6105fd7f9f2df0fed2c77648de5860a4cc508cd0818c85b8b8a1ab4ceeef8d981c8956a633610369565b6106415760405162461bcd60e51b81526020600482015260156024820152746d7573742068617665206d696e74657220726f6c6560581b60448201526064016104fe565b61064d84848484610b5a565b50505050565b6001600160a01b03851633148061066f575061066f8533610423565b61068b5760405162461bcd60e51b81526004016104fe90612a14565b6106988585858585610d31565b5050505050565b600082815260fb60205260409020600101546106ba81610fa2565b6106c48383610faf565b505050565b6001600160a01b03811633146107475760405162461bcd60e51b815260206004820152602f60248201527f416363657373436f6e74726f6c3a2063616e206f6e6c792072656e6f756e636560448201527f20726f6c657320666f722073656c66000000000000000000000000000000000060648201526084016104fe565b6107518282610fd2565b5050565b61077f7f65d7a28e3265b37a6474929f336521b332c1681b933f6cb9f3376673440d862a33610369565b6107c35760405162461bcd60e51b81526020600482015260156024820152746d75737420686176652070617573657220726f6c6560581b60448201526064016104fe565b6107cb610ff5565b565b606081518351146108325760405162461bcd60e51b815260206004820152602960248201527f455243313135353a206163636f756e747320616e6420696473206c656e677468604482015268040dad2e6dac2e8c6d60bb1b60648201526084016104fe565b6000835167ffffffffffffffff81111561084e5761084e6123cc565b604051908082528060200260200182016040528015610877578160200160208202803683370190505b50905060005b84518110156108ef576108c285828151811061089b5761089b612a71565b60200260200101518583815181106108b5576108b5612a71565b6020026020010151610497565b8282815181106108d4576108d4612a71565b60209081029190910101526108e881612a9d565b905061087d565b509392505050565b6001600160a01b03831633148061091357506109138333610423565b61092f5760405162461bcd60e51b81526004016104fe90612a14565b6106c4838383611048565b6109647f9f2df0fed2c77648de5860a4cc508cd0818c85b8b8a1ab4ceeef8d981c8956a633610369565b6109a85760405162461bcd60e51b81526020600482015260156024820152746d7573742068617665206d696e74657220726f6c6560581b60448201526064016104fe565b61064d848484846112a2565b6109de7f65d7a28e3265b37a6474929f336521b332c1681b933f6cb9f3376673440d862a33610369565b610a225760405162461bcd60e51b81526020600482015260156024820152746d75737420686176652070617573657220726f6c6560581b60448201526064016104fe565b6107cb6113c8565b600082815261012d60205260408120610a439083611406565b9392505050565b610751338383611412565b600081815261012d6020526040812061052d906114f4565b600082815260fb6020526040902060010154610a8881610fa2565b6106c48383610fd2565b6001600160a01b038516331480610aae5750610aae8533610423565b610aca5760405162461bcd60e51b81526004016104fe90612a14565b61069885858585856114fe565b6001600160a01b038316331480610af35750610af38333610423565b610b0f5760405162461bcd60e51b81526004016104fe90612a14565b6106c48383836116bd565b60006001600160e01b03198216636cdb3d1360e11b1480610b4b57506001600160e01b031982166303a24d0760e21b145b8061052d575061052d82611853565b6001600160a01b038416610bba5760405162461bcd60e51b815260206004820152602160248201527f455243313135353a206d696e7420746f20746865207a65726f206164647265736044820152607360f81b60648201526084016104fe565b8151835114610c1c5760405162461bcd60e51b815260206004820152602860248201527f455243313135353a2069647320616e6420616d6f756e7473206c656e677468206044820152670dad2e6dac2e8c6d60c31b60648201526084016104fe565b33610c2c81600087878787611878565b60005b8451811015610cc957838181518110610c4a57610c4a612a71565b602002602001015161015f6000878481518110610c6957610c69612a71565b602002602001015181526020019081526020016000206000886001600160a01b03166001600160a01b031681526020019081526020016000206000828254610cb19190612ab8565b90915550819050610cc181612a9d565b915050610c2f565b50846001600160a01b031660006001600160a01b0316826001600160a01b03167f4a39dc06d4c0dbc64b70af90fd698a233a518aa5d07e595d983b8c0526c8f7fb8787604051610d1a929190612ad0565b60405180910390a461069881600087878787611994565b8151835114610d935760405162461bcd60e51b815260206004820152602860248201527f455243313135353a2069647320616e6420616d6f756e7473206c656e677468206044820152670dad2e6dac2e8c6d60c31b60648201526084016104fe565b6001600160a01b038416610df75760405162461bcd60e51b815260206004820152602560248201527f455243313135353a207472616e7366657220746f20746865207a65726f206164604482015264647265737360d81b60648201526084016104fe565b33610e06818787878787611878565b60005b8451811015610f34576000858281518110610e2657610e26612a71565b602002602001015190506000858381518110610e4457610e44612a71565b602090810291909101810151600084815261015f835260408082206001600160a01b038e168352909352919091205490915081811015610ed95760405162461bcd60e51b815260206004820152602a60248201527f455243313135353a20696e73756666696369656e742062616c616e636520666f60448201526939103a3930b739b332b960b11b60648201526084016104fe565b600083815261015f602090815260408083206001600160a01b038e8116855292528083208585039055908b16825281208054849290610f19908490612ab8565b9250508190555050505080610f2d90612a9d565b9050610e09565b50846001600160a01b0316866001600160a01b0316826001600160a01b03167f4a39dc06d4c0dbc64b70af90fd698a233a518aa5d07e595d983b8c0526c8f7fb8787604051610f84929190612ad0565b60405180910390a4610f9a818787878787611994565b505050505050565b610fac8133611b3a565b50565b610fb98282611bba565b600082815261012d602052604090206106c49082611c5c565b610fdc8282611c71565b600082815261012d602052604090206106c49082611cf4565b610ffd611d09565b6101c3805460ff191690557f5db9ee0a495bf2e6ff9c91a7834c1ba4fdd244a5e8aa4e537bd38aeae4b073aa335b6040516001600160a01b03909116815260200160405180910390a1565b6001600160a01b0383166110aa5760405162461bcd60e51b815260206004820152602360248201527f455243313135353a206275726e2066726f6d20746865207a65726f206164647260448201526265737360e81b60648201526084016104fe565b805182511461110c5760405162461bcd60e51b815260206004820152602860248201527f455243313135353a2069647320616e6420616d6f756e7473206c656e677468206044820152670dad2e6dac2e8c6d60c31b60648201526084016104fe565b600033905061112f81856000868660405180602001604052806000815250611878565b60005b835181101561123557600084828151811061114f5761114f612a71565b60200260200101519050600084838151811061116d5761116d612a71565b602090810291909101810151600084815261015f835260408082206001600160a01b038c1683529093529190912054909150818110156111fb5760405162461bcd60e51b8152602060048201526024808201527f455243313135353a206275726e20616d6f756e7420657863656564732062616c604482015263616e636560e01b60648201526084016104fe565b600092835261015f602090815260408085206001600160a01b038b168652909152909220910390558061122d81612a9d565b915050611132565b5060006001600160a01b0316846001600160a01b0316826001600160a01b03167f4a39dc06d4c0dbc64b70af90fd698a233a518aa5d07e595d983b8c0526c8f7fb8686604051611286929190612ad0565b60405180910390a460408051602081019091526000905261064d565b6001600160a01b0384166113025760405162461bcd60e51b815260206004820152602160248201527f455243313135353a206d696e7420746f20746865207a65726f206164647265736044820152607360f81b60648201526084016104fe565b33600061130e85611d5c565b9050600061131b85611d5c565b905061132c83600089858589611878565b600086815261015f602090815260408083206001600160a01b038b1684529091528120805487929061135f908490612ab8565b909155505060408051878152602081018790526001600160a01b03808a1692600092918716917fc3d58168c5ae7397731d063d5bbf3d657854427343f4c083240f7aacaa2d0f62910160405180910390a46113bf83600089898989611da7565b50505050505050565b6113d0611ea3565b6101c3805460ff191660011790557f62e78cea01bee320cd4e420270b5ea74000d11b0c9f74754ebdbfc544b05a25861102b3390565b6000610a438383611ef7565b816001600160a01b0316836001600160a01b031614156114865760405162461bcd60e51b815260206004820152602960248201527f455243313135353a2073657474696e6720617070726f76616c20737461747573604482015268103337b91039b2b63360b91b60648201526084016104fe565b6001600160a01b0383811660008181526101606020908152604080832094871680845294825291829020805460ff191686151590811790915591519182527f17307eab39ab6107e8899845ad3d59bd9653f200f220920489ca2b5937696c31910160405180910390a3505050565b600061052d825490565b6001600160a01b0384166115625760405162461bcd60e51b815260206004820152602560248201527f455243313135353a207472616e7366657220746f20746865207a65726f206164604482015264647265737360d81b60648201526084016104fe565b33600061156e85611d5c565b9050600061157b85611d5c565b905061158b838989858589611878565b600086815261015f602090815260408083206001600160a01b038c168452909152902054858110156116125760405162461bcd60e51b815260206004820152602a60248201527f455243313135353a20696e73756666696369656e742062616c616e636520666f60448201526939103a3930b739b332b960b11b60648201526084016104fe565b600087815261015f602090815260408083206001600160a01b038d8116855292528083208985039055908a16825281208054889290611652908490612ab8565b909155505060408051888152602081018890526001600160a01b03808b16928c821692918816917fc3d58168c5ae7397731d063d5bbf3d657854427343f4c083240f7aacaa2d0f62910160405180910390a46116b2848a8a8a8a8a611da7565b505050505050505050565b6001600160a01b03831661171f5760405162461bcd60e51b815260206004820152602360248201527f455243313135353a206275726e2066726f6d20746865207a65726f206164647260448201526265737360e81b60648201526084016104fe565b33600061172b84611d5c565b9050600061173884611d5c565b905061175883876000858560405180602001604052806000815250611878565b600085815261015f602090815260408083206001600160a01b038a168452909152902054848110156117d85760405162461bcd60e51b8152602060048201526024808201527f455243313135353a206275726e20616d6f756e7420657863656564732062616c604482015263616e636560e01b60648201526084016104fe565b600086815261015f602090815260408083206001600160a01b038b81168086529184528285208a8703905582518b81529384018a90529092908816917fc3d58168c5ae7397731d063d5bbf3d657854427343f4c083240f7aacaa2d0f62910160405180910390a46040805160208101909152600090526113bf565b60006001600160e01b03198216635a05180f60e01b148061052d575061052d82611f21565b611886868686868686611f46565b6001600160a01b03851661190e5760005b835181101561190c578281815181106118b2576118b2612a71565b602002602001015161022760008684815181106118d1576118d1612a71565b6020026020010151815260200190815260200160002060008282546118f69190612ab8565b90915550611905905081612a9d565b9050611897565b505b6001600160a01b038416610f9a5760005b83518110156113bf5782818151811061193a5761193a612a71565b6020026020010151610227600086848151811061195957611959612a71565b60200260200101518152602001908152602001600020600082825461197e9190612afe565b9091555061198d905081612a9d565b905061191f565b6001600160a01b0384163b15610f9a5760405163bc197c8160e01b81526001600160a01b0385169063bc197c81906119d89089908990889088908890600401612b15565b6020604051808303816000875af1925050508015611a13575060408051601f3d908101601f19168201909252611a1091810190612b73565b60015b611ac957611a1f612b90565b806308c379a01415611a595750611a34612bac565b80611a3f5750611a5b565b8060405162461bcd60e51b81526004016104fe91906123b9565b505b60405162461bcd60e51b815260206004820152603460248201527f455243313135353a207472616e7366657220746f206e6f6e204552433131353560448201527f526563656976657220696d706c656d656e74657200000000000000000000000060648201526084016104fe565b6001600160e01b0319811663bc197c8160e01b146113bf5760405162461bcd60e51b815260206004820152602860248201527f455243313135353a204552433131353552656365697665722072656a656374656044820152676420746f6b656e7360c01b60648201526084016104fe565b600082815260fb602090815260408083206001600160a01b038516845290915290205460ff1661075157611b78816001600160a01b03166014611faf565b611b83836020611faf565b604051602001611b94929190612c36565b60408051601f198184030181529082905262461bcd60e51b82526104fe916004016123b9565b600082815260fb602090815260408083206001600160a01b038516845290915290205460ff1661075157600082815260fb602090815260408083206001600160a01b03851684529091529020805460ff19166001179055611c183390565b6001600160a01b0316816001600160a01b0316837f2f8788117e7eff1d82e926ec794901d17c78024a50270940304540a733656f0d60405160405180910390a45050565b6000610a43836001600160a01b038416612158565b600082815260fb602090815260408083206001600160a01b038516845290915290205460ff161561075157600082815260fb602090815260408083206001600160a01b0385168085529252808320805460ff1916905551339285917ff6391f5c32d9c69d2a47ea670b442974b53935d1edc7fd64eb21e047a839171b9190a45050565b6000610a43836001600160a01b0384166121a7565b6101c35460ff166107cb5760405162461bcd60e51b815260206004820152601460248201527f5061757361626c653a206e6f742070617573656400000000000000000000000060448201526064016104fe565b60408051600180825281830190925260609160009190602080830190803683370190505090508281600081518110611d9657611d96612a71565b602090810291909101015292915050565b6001600160a01b0384163b15610f9a5760405163f23a6e6160e01b81526001600160a01b0385169063f23a6e6190611deb9089908990889088908890600401612cb7565b6020604051808303816000875af1925050508015611e26575060408051601f3d908101601f19168201909252611e2391810190612b73565b60015b611e3257611a1f612b90565b6001600160e01b0319811663f23a6e6160e01b146113bf5760405162461bcd60e51b815260206004820152602860248201527f455243313135353a204552433131353552656365697665722072656a656374656044820152676420746f6b656e7360c01b60648201526084016104fe565b6101c35460ff16156107cb5760405162461bcd60e51b815260206004820152601060248201527f5061757361626c653a207061757365640000000000000000000000000000000060448201526064016104fe565b6000826000018281548110611f0e57611f0e612a71565b9060005260206000200154905092915050565b60006001600160e01b03198216637965db0b60e01b148061052d575061052d8261229a565b6101c35460ff1615610f9a5760405162461bcd60e51b815260206004820152602c60248201527f455243313135355061757361626c653a20746f6b656e207472616e736665722060448201526b1dda1a5b19481c185d5cd95960a21b60648201526084016104fe565b60606000611fbe836002612cfa565b611fc9906002612ab8565b67ffffffffffffffff811115611fe157611fe16123cc565b6040519080825280601f01601f19166020018201604052801561200b576020820181803683370190505b509050600360fc1b8160008151811061202657612026612a71565b60200101906001600160f81b031916908160001a905350600f60fb1b8160018151811061205557612055612a71565b60200101906001600160f81b031916908160001a9053506000612079846002612cfa565b612084906001612ab8565b90505b6001811115612109577f303132333435363738396162636465660000000000000000000000000000000085600f16601081106120c5576120c5612a71565b1a60f81b8282815181106120db576120db612a71565b60200101906001600160f81b031916908160001a90535060049490941c9361210281612d19565b9050612087565b508315610a435760405162461bcd60e51b815260206004820181905260248201527f537472696e67733a20686578206c656e67746820696e73756666696369656e7460448201526064016104fe565b600081815260018301602052604081205461219f5750815460018181018455600084815260208082209093018490558454848252828601909352604090209190915561052d565b50600061052d565b600081815260018301602052604081205480156122905760006121cb600183612afe565b85549091506000906121df90600190612afe565b90508181146122445760008660000182815481106121ff576121ff612a71565b906000526020600020015490508087600001848154811061222257612222612a71565b6000918252602080832090910192909255918252600188019052604090208390555b855486908061225557612255612d30565b60019003818190600052602060002001600090559055856001016000868152602001908152602001600020600090556001935050505061052d565b600091505061052d565b60006001600160e01b03198216630271189760e51b148061052d57506301ffc9a760e01b6001600160e01b031983161461052d565b80356001600160a01b03811681146122e657600080fd5b919050565b600080604083850312156122fe57600080fd5b612307836122cf565b946020939093013593505050565b6001600160e01b031981168114610fac57600080fd5b60006020828403121561233d57600080fd5b8135610a4381612315565b60006020828403121561235a57600080fd5b5035919050565b60005b8381101561237c578181015183820152602001612364565b8381111561064d5750506000910152565b600081518084526123a5816020860160208601612361565b601f01601f19169290920160200192915050565b602081526000610a43602083018461238d565b634e487b7160e01b600052604160045260246000fd5b601f8201601f1916810167ffffffffffffffff81118282101715612408576124086123cc565b6040525050565b600082601f83011261242057600080fd5b813567ffffffffffffffff81111561243a5761243a6123cc565b604051612451601f8301601f1916602001826123e2565b81815284602083860101111561246657600080fd5b816020850160208301376000918101602001919091529392505050565b6000806000806080858703121561249957600080fd5b6124a2856122cf565b93506124b0602086016122cf565b925060408501359150606085013567ffffffffffffffff8111156124d357600080fd5b6124df8782880161240f565b91505092959194509250565b600067ffffffffffffffff821115612505576125056123cc565b5060051b60200190565b600082601f83011261252057600080fd5b8135602061252d826124eb565b60405161253a82826123e2565b83815260059390931b850182019282810191508684111561255a57600080fd5b8286015b84811015612575578035835291830191830161255e565b509695505050505050565b6000806000806080858703121561259657600080fd5b61259f856122cf565b9350602085013567ffffffffffffffff808211156125bc57600080fd5b6125c88883890161250f565b945060408701359150808211156125de57600080fd5b6125ea8883890161250f565b9350606087013591508082111561260057600080fd5b506124df8782880161240f565b600080600080600060a0868803121561262557600080fd5b61262e866122cf565b945061263c602087016122cf565b9350604086013567ffffffffffffffff8082111561265957600080fd5b61266589838a0161250f565b9450606088013591508082111561267b57600080fd5b61268789838a0161250f565b9350608088013591508082111561269d57600080fd5b506126aa8882890161240f565b9150509295509295909350565b600080604083850312156126ca57600080fd5b823591506126da602084016122cf565b90509250929050565b600080604083850312156126f657600080fd5b823567ffffffffffffffff8082111561270e57600080fd5b818501915085601f83011261272257600080fd5b8135602061272f826124eb565b60405161273c82826123e2565b83815260059390931b850182019282810191508984111561275c57600080fd5b948201945b8386101561278157612772866122cf565b82529482019490820190612761565b9650508601359250508082111561279757600080fd5b506127a48582860161250f565b9150509250929050565b600081518084526020808501945080840160005b838110156127de578151875295820195908201906001016127c2565b509495945050505050565b602081526000610a4360208301846127ae565b60008060006060848603121561281157600080fd5b61281a846122cf565b9250602084013567ffffffffffffffff8082111561283757600080fd5b6128438783880161250f565b9350604086013591508082111561285957600080fd5b506128668682870161250f565b9150509250925092565b6000806000806080858703121561288657600080fd5b61288f856122cf565b93506020850135925060408501359150606085013567ffffffffffffffff8111156124d357600080fd5b600080604083850312156128cc57600080fd5b50508035926020909101359150565b600080604083850312156128ee57600080fd5b6128f7836122cf565b91506020830135801515811461290c57600080fd5b809150509250929050565b6000806040838503121561292a57600080fd5b612933836122cf565b91506126da602084016122cf565b600080600080600060a0868803121561295957600080fd5b612962866122cf565b9450612970602087016122cf565b93506040860135925060608601359150608086013567ffffffffffffffff81111561299a57600080fd5b6126aa8882890161240f565b6000806000606084860312156129bb57600080fd5b6129c4846122cf565b95602085013595506040909401359392505050565b600181811c908216806129ed57607f821691505b60208210811415612a0e57634e487b7160e01b600052602260045260246000fd5b50919050565b6020808252602f908201527f455243313135353a2063616c6c6572206973206e6f7420746f6b656e206f776e60408201527f6572206e6f7220617070726f7665640000000000000000000000000000000000606082015260800190565b634e487b7160e01b600052603260045260246000fd5b634e487b7160e01b600052601160045260246000fd5b6000600019821415612ab157612ab1612a87565b5060010190565b60008219821115612acb57612acb612a87565b500190565b604081526000612ae360408301856127ae565b8281036020840152612af581856127ae565b95945050505050565b600082821015612b1057612b10612a87565b500390565b60006001600160a01b03808816835280871660208401525060a06040830152612b4160a08301866127ae565b8281036060840152612b5381866127ae565b90508281036080840152612b67818561238d565b98975050505050505050565b600060208284031215612b8557600080fd5b8151610a4381612315565b600060033d1115612ba95760046000803e5060005160e01c5b90565b600060443d1015612bba5790565b6040516003193d81016004833e81513d67ffffffffffffffff8160248401118184111715612bea57505050505090565b8285019150815181811115612c025750505050505090565b843d8701016020828501011115612c1c5750505050505090565b612c2b602082860101876123e2565b509095945050505050565b7f416363657373436f6e74726f6c3a206163636f756e7420000000000000000000815260008351612c6e816017850160208801612361565b7f206973206d697373696e6720726f6c65200000000000000000000000000000006017918401918201528351612cab816028840160208801612361565b01602801949350505050565b60006001600160a01b03808816835280871660208401525084604083015283606083015260a06080830152612cef60a083018461238d565b979650505050505050565b6000816000190483118215151615612d1457612d14612a87565b500290565b600081612d2857612d28612a87565b506000190190565b634e487b7160e01b600052603160045260246000fdfea26469706673582212201d63f30301da022c6ff1d9fb7e4828c757bd52e30d0b6bbbaeb1d3fb49feb93e64736f6c634300080c0033",
  "linkReferences": {},
  "deployedLinkReferences": {}
}