{
  "_format": "hh-sol-artifact-1",
  "contractName": "ERC1155DelayedReveal",
  "sourceName": "contracts/base/ERC1155DelayedReveal.sol",
  "abi": [
    {
      "inputs": [
        {
          "internalType": "string",
          "name": "_name",
          "type": "string"
        },
        {
          "internalType": "string",
          "name": "_symbol",
          "type": "string"
        },
        {
          "internalType": "address",
          "name": "_royaltyRecipient",
          "type": "address"
        },
        {
          "internalType": "uint128",
          "name": "_royaltyBps",
          "type": "uint128"
        }
      ],
      "stateMutability": "nonpayable",
      "type": "constructor"
    },
    {
      "anonymous": false,
      "inputs": [
        {
          "indexed": true,
          "internalType": "address",
          "name": "_owner",
          "type": "address"
        },
        {
          "indexed": true,
          "internalType": "address",
          "name": "_operator",
          "type": "address"
        },
        {
          "indexed": false,
          "internalType": "bool",
          "name": "_approved",
          "type": "bool"
        }
      ],
      "name": "ApprovalForAll",
      "type": "event"
    },
    {
      "anonymous": false,
      "inputs": [
        {
          "indexed": false,
          "internalType": "string",
          "name": "prevURI",
          "type": "string"
        },
        {
          "indexed": false,
          "internalType": "string",
          "name": "newURI",
          "type": "string"
        }
      ],
      "name": "ContractURIUpdated",
      "type": "event"
    },
    {
      "anonymous": false,
      "inputs": [
        {
          "indexed": true,
          "internalType": "address",
          "name": "newRoyaltyRecipient",
          "type": "address"
        },
        {
          "indexed": false,
          "internalType": "uint256",
          "name": "newRoyaltyBps",
          "type": "uint256"
        }
      ],
      "name": "DefaultRoyalty",
      "type": "event"
    },
    {
      "anonymous": false,
      "inputs": [
        {
          "indexed": true,
          "internalType": "address",
          "name": "prevOwner",
          "type": "address"
        },
        {
          "indexed": true,
          "internalType": "address",
          "name": "newOwner",
          "type": "address"
        }
      ],
      "name": "OwnerUpdated",
      "type": "event"
    },
    {
      "anonymous": false,
      "inputs": [
        {
          "indexed": true,
          "internalType": "uint256",
          "name": "tokenId",
          "type": "uint256"
        },
        {
          "indexed": true,
          "internalType": "address",
          "name": "royaltyRecipient",
          "type": "address"
        },
        {
          "indexed": false,
          "internalType": "uint256",
          "name": "royaltyBps",
          "type": "uint256"
        }
      ],
      "name": "RoyaltyForToken",
      "type": "event"
    },
    {
      "anonymous": false,
      "inputs": [
        {
          "indexed": true,
          "internalType": "uint256",
          "name": "index",
          "type": "uint256"
        },
        {
          "indexed": false,
          "internalType": "string",
          "name": "revealedURI",
          "type": "string"
        }
      ],
      "name": "TokenURIRevealed",
      "type": "event"
    },
    {
      "anonymous": false,
      "inputs": [
        {
          "indexed": true,
          "internalType": "address",
          "name": "claimer",
          "type": "address"
        },
        {
          "indexed": true,
          "internalType": "address",
          "name": "receiver",
          "type": "address"
        },
        {
          "indexed": true,
          "internalType": "uint256",
          "name": "tokenId",
          "type": "uint256"
        },
        {
          "indexed": false,
          "internalType": "uint256",
          "name": "quantityClaimed",
          "type": "uint256"
        }
      ],
      "name": "TokensClaimed",
      "type": "event"
    },
    {
      "anonymous": false,
      "inputs": [
        {
          "indexed": true,
          "internalType": "uint256",
          "name": "startTokenId",
          "type": "uint256"
        },
        {
          "indexed": false,
          "internalType": "uint256",
          "name": "endTokenId",
          "type": "uint256"
        },
        {
          "indexed": false,
          "internalType": "string",
          "name": "baseURI",
          "type": "string"
        },
        {
          "indexed": false,
          "internalType": "bytes",
          "name": "encryptedBaseURI",
          "type": "bytes"
        }
      ],
      "name": "TokensLazyMinted",
      "type": "event"
    },
    {
      "anonymous": false,
      "inputs": [
        {
          "indexed": true,
          "internalType": "address",
          "name": "_operator",
          "type": "address"
        },
        {
          "indexed": true,
          "internalType": "address",
          "name": "_from",
          "type": "address"
        },
        {
          "indexed": true,
          "internalType": "address",
          "name": "_to",
          "type": "address"
        },
        {
          "indexed": false,
          "internalType": "uint256[]",
          "name": "_ids",
          "type": "uint256[]"
        },
        {
          "indexed": false,
          "internalType": "uint256[]",
          "name": "_values",
          "type": "uint256[]"
        }
      ],
      "name": "TransferBatch",
      "type": "event"
    },
    {
      "anonymous": false,
      "inputs": [
        {
          "indexed": true,
          "internalType": "address",
          "name": "_operator",
          "type": "address"
        },
        {
          "indexed": true,
          "internalType": "address",
          "name": "_from",
          "type": "address"
        },
        {
          "indexed": true,
          "internalType": "address",
          "name": "_to",
          "type": "address"
        },
        {
          "indexed": false,
          "internalType": "uint256",
          "name": "_id",
          "type": "uint256"
        },
        {
          "indexed": false,
          "internalType": "uint256",
          "name": "_value",
          "type": "uint256"
        }
      ],
      "name": "TransferSingle",
      "type": "event"
    },
    {
      "anonymous": false,
      "inputs": [
        {
          "indexed": false,
          "internalType": "string",
          "name": "_value",
          "type": "string"
        },
        {
          "indexed": true,
          "internalType": "uint256",
          "name": "_id",
          "type": "uint256"
        }
      ],
      "name": "URI",
      "type": "event"
    },
    {
      "inputs": [
        {
          "internalType": "address",
          "name": "",
          "type": "address"
        },
        {
          "internalType": "uint256",
          "name": "",
          "type": "uint256"
        }
      ],
      "name": "balanceOf",
      "outputs": [
        {
          "internalType": "uint256",
          "name": "",
          "type": "uint256"
        }
      ],
      "stateMutability": "view",
      "type": "function"
    },
    {
      "inputs": [
        {
          "internalType": "address[]",
          "name": "accounts",
          "type": "address[]"
        },
        {
          "internalType": "uint256[]",
          "name": "ids",
          "type": "uint256[]"
        }
      ],
      "name": "balanceOfBatch",
      "outputs": [
        {
          "internalType": "uint256[]",
          "name": "",
          "type": "uint256[]"
        }
      ],
      "stateMutability": "view",
      "type": "function"
    },
    {
      "inputs": [
        {
          "internalType": "address",
          "name": "_owner",
          "type": "address"
        },
        {
          "internalType": "uint256",
          "name": "_tokenId",
          "type": "uint256"
        },
        {
          "internalType": "uint256",
          "name": "_amount",
          "type": "uint256"
        }
      ],
      "name": "burn",
      "outputs": [],
      "stateMutability": "nonpayable",
      "type": "function"
    },
    {
      "inputs": [
        {
          "internalType": "address",
          "name": "_owner",
          "type": "address"
        },
        {
          "internalType": "uint256[]",
          "name": "_tokenIds",
          "type": "uint256[]"
        },
        {
          "internalType": "uint256[]",
          "name": "_amounts",
          "type": "uint256[]"
        }
      ],
      "name": "burnBatch",
      "outputs": [],
      "stateMutability": "nonpayable",
      "type": "function"
    },
    {
      "inputs": [
        {
          "internalType": "address",
          "name": "_receiver",
          "type": "address"
        },
        {
          "internalType": "uint256",
          "name": "_tokenId",
          "type": "uint256"
        },
        {
          "internalType": "uint256",
          "name": "_quantity",
          "type": "uint256"
        }
      ],
      "name": "claim",
      "outputs": [],
      "stateMutability": "payable",
      "type": "function"
    },
    {
      "inputs": [],
      "name": "contractURI",
      "outputs": [
        {
          "internalType": "string",
          "name": "",
          "type": "string"
        }
      ],
      "stateMutability": "view",
      "type": "function"
    },
    {
      "inputs": [
        {
          "internalType": "bytes",
          "name": "data",
          "type": "bytes"
        },
        {
          "internalType": "bytes",
          "name": "key",
          "type": "bytes"
        }
      ],
      "name": "encryptDecrypt",
      "outputs": [
        {
          "internalType": "bytes",
          "name": "result",
          "type": "bytes"
        }
      ],
      "stateMutability": "pure",
      "type": "function"
    },
    {
      "inputs": [
        {
          "internalType": "uint256",
          "name": "",
          "type": "uint256"
        }
      ],
      "name": "encryptedData",
      "outputs": [
        {
          "internalType": "bytes",
          "name": "",
          "type": "bytes"
        }
      ],
      "stateMutability": "view",
      "type": "function"
    },
    {
      "inputs": [],
      "name": "getBaseURICount",
      "outputs": [
        {
          "internalType": "uint256",
          "name": "",
          "type": "uint256"
        }
      ],
      "stateMutability": "view",
      "type": "function"
    },
    {
      "inputs": [
        {
          "internalType": "uint256",
          "name": "_index",
          "type": "uint256"
        }
      ],
      "name": "getBatchIdAtIndex",
      "outputs": [
        {
          "internalType": "uint256",
          "name": "",
          "type": "uint256"
        }
      ],
      "stateMutability": "view",
      "type": "function"
    },
    {
      "inputs": [],
      "name": "getDefaultRoyaltyInfo",
      "outputs": [
        {
          "internalType": "address",
          "name": "",
          "type": "address"
        },
        {
          "internalType": "uint16",
          "name": "",
          "type": "uint16"
        }
      ],
      "stateMutability": "view",
      "type": "function"
    },
    {
      "inputs": [
        {
          "internalType": "uint256",
          "name": "_batchId",
          "type": "uint256"
        },
        {
          "internalType": "bytes",
          "name": "_key",
          "type": "bytes"
        }
      ],
      "name": "getRevealURI",
      "outputs": [
        {
          "internalType": "string",
          "name": "revealedURI",
          "type": "string"
        }
      ],
      "stateMutability": "view",
      "type": "function"
    },
    {
      "inputs": [
        {
          "internalType": "uint256",
          "name": "_tokenId",
          "type": "uint256"
        }
      ],
      "name": "getRoyaltyInfoForToken",
      "outputs": [
        {
          "internalType": "address",
          "name": "",
          "type": "address"
        },
        {
          "internalType": "uint16",
          "name": "",
          "type": "uint16"
        }
      ],
      "stateMutability": "view",
      "type": "function"
    },
    {
      "inputs": [
        {
          "internalType": "address",
          "name": "",
          "type": "address"
        },
        {
          "internalType": "address",
          "name": "",
          "type": "address"
        }
      ],
      "name": "isApprovedForAll",
      "outputs": [
        {
          "internalType": "bool",
          "name": "",
          "type": "bool"
        }
      ],
      "stateMutability": "view",
      "type": "function"
    },
    {
      "inputs": [
        {
          "internalType": "uint256",
          "name": "_batchId",
          "type": "uint256"
        }
      ],
      "name": "isEncryptedBatch",
      "outputs": [
        {
          "internalType": "bool",
          "name": "",
          "type": "bool"
        }
      ],
      "stateMutability": "view",
      "type": "function"
    },
    {
      "inputs": [
        {
          "internalType": "uint256",
          "name": "_amount",
          "type": "uint256"
        },
        {
          "internalType": "string",
          "name": "_baseURIForTokens",
          "type": "string"
        },
        {
          "internalType": "bytes",
          "name": "_data",
          "type": "bytes"
        }
      ],
      "name": "lazyMint",
      "outputs": [
        {
          "internalType": "uint256",
          "name": "batchId",
          "type": "uint256"
        }
      ],
      "stateMutability": "nonpayable",
      "type": "function"
    },
    {
      "inputs": [
        {
          "internalType": "bytes[]",
          "name": "data",
          "type": "bytes[]"
        }
      ],
      "name": "multicall",
      "outputs": [
        {
          "internalType": "bytes[]",
          "name": "results",
          "type": "bytes[]"
        }
      ],
      "stateMutability": "nonpayable",
      "type": "function"
    },
    {
      "inputs": [],
      "name": "name",
      "outputs": [
        {
          "internalType": "string",
          "name": "",
          "type": "string"
        }
      ],
      "stateMutability": "view",
      "type": "function"
    },
    {
      "inputs": [],
      "name": "nextTokenIdToMint",
      "outputs": [
        {
          "internalType": "uint256",
          "name": "",
          "type": "uint256"
        }
      ],
      "stateMutability": "view",
      "type": "function"
    },
    {
      "inputs": [],
      "name": "owner",
      "outputs": [
        {
          "internalType": "address",
          "name": "",
          "type": "address"
        }
      ],
      "stateMutability": "view",
      "type": "function"
    },
    {
      "inputs": [
        {
          "internalType": "uint256",
          "name": "_index",
          "type": "uint256"
        },
        {
          "internalType": "bytes",
          "name": "_key",
          "type": "bytes"
        }
      ],
      "name": "reveal",
      "outputs": [
        {
          "internalType": "string",
          "name": "revealedURI",
          "type": "string"
        }
      ],
      "stateMutability": "nonpayable",
      "type": "function"
    },
    {
      "inputs": [
        {
          "internalType": "uint256",
          "name": "tokenId",
          "type": "uint256"
        },
        {
          "internalType": "uint256",
          "name": "salePrice",
          "type": "uint256"
        }
      ],
      "name": "royaltyInfo",
      "outputs": [
        {
          "internalType": "address",
          "name": "receiver",
          "type": "address"
        },
        {
          "internalType": "uint256",
          "name": "royaltyAmount",
          "type": "uint256"
        }
      ],
      "stateMutability": "view",
      "type": "function"
    },
    {
      "inputs": [
        {
          "internalType": "address",
          "name": "from",
          "type": "address"
        },
        {
          "internalType": "address",
          "name": "to",
          "type": "address"
        },
        {
          "internalType": "uint256[]",
          "name": "ids",
          "type": "uint256[]"
        },
        {
          "internalType": "uint256[]",
          "name": "amounts",
          "type": "uint256[]"
        },
        {
          "internalType": "bytes",
          "name": "data",
          "type": "bytes"
        }
      ],
      "name": "safeBatchTransferFrom",
      "outputs": [],
      "stateMutability": "nonpayable",
      "type": "function"
    },
    {
      "inputs": [
        {
          "internalType": "address",
          "name": "from",
          "type": "address"
        },
        {
          "internalType": "address",
          "name": "to",
          "type": "address"
        },
        {
          "internalType": "uint256",
          "name": "id",
          "type": "uint256"
        },
        {
          "internalType": "uint256",
          "name": "amount",
          "type": "uint256"
        },
        {
          "internalType": "bytes",
          "name": "data",
          "type": "bytes"
        }
      ],
      "name": "safeTransferFrom",
      "outputs": [],
      "stateMutability": "nonpayable",
      "type": "function"
    },
    {
      "inputs": [
        {
          "internalType": "address",
          "name": "operator",
          "type": "address"
        },
        {
          "internalType": "bool",
          "name": "approved",
          "type": "bool"
        }
      ],
      "name": "setApprovalForAll",
      "outputs": [],
      "stateMutability": "nonpayable",
      "type": "function"
    },
    {
      "inputs": [
        {
          "internalType": "string",
          "name": "_uri",
          "type": "string"
        }
      ],
      "name": "setContractURI",
      "outputs": [],
      "stateMutability": "nonpayable",
      "type": "function"
    },
    {
      "inputs": [
        {
          "internalType": "address",
          "name": "_royaltyRecipient",
          "type": "address"
        },
        {
          "internalType": "uint256",
          "name": "_royaltyBps",
          "type": "uint256"
        }
      ],
      "name": "setDefaultRoyaltyInfo",
      "outputs": [],
      "stateMutability": "nonpayable",
      "type": "function"
    },
    {
      "inputs": [
        {
          "internalType": "address",
          "name": "_newOwner",
          "type": "address"
        }
      ],
      "name": "setOwner",
      "outputs": [],
      "stateMutability": "nonpayable",
      "type": "function"
    },
    {
      "inputs": [
        {
          "internalType": "uint256",
          "name": "_tokenId",
          "type": "uint256"
        },
        {
          "internalType": "address",
          "name": "_recipient",
          "type": "address"
        },
        {
          "internalType": "uint256",
          "name": "_bps",
          "type": "uint256"
        }
      ],
      "name": "setRoyaltyInfoForToken",
      "outputs": [],
      "stateMutability": "nonpayable",
      "type": "function"
    },
    {
      "inputs": [
        {
          "internalType": "bytes4",
          "name": "interfaceId",
          "type": "bytes4"
        }
      ],
      "name": "supportsInterface",
      "outputs": [
        {
          "internalType": "bool",
          "name": "",
          "type": "bool"
        }
      ],
      "stateMutability": "view",
      "type": "function"
    },
    {
      "inputs": [],
      "name": "symbol",
      "outputs": [
        {
          "internalType": "string",
          "name": "",
          "type": "string"
        }
      ],
      "stateMutability": "view",
      "type": "function"
    },
    {
      "inputs": [
        {
          "internalType": "uint256",
          "name": "",
          "type": "uint256"
        }
      ],
      "name": "totalSupply",
      "outputs": [
        {
          "internalType": "uint256",
          "name": "",
          "type": "uint256"
        }
      ],
      "stateMutability": "view",
      "type": "function"
    },
    {
      "inputs": [
        {
          "internalType": "uint256",
          "name": "_tokenId",
          "type": "uint256"
        }
      ],
      "name": "uri",
      "outputs": [
        {
          "internalType": "string",
          "name": "",
          "type": "string"
        }
      ],
      "stateMutability": "view",
      "type": "function"
    },
    {
      "inputs": [
        {
          "internalType": "address",
          "name": "_claimer",
          "type": "address"
        },
        {
          "internalType": "uint256",
          "name": "_tokenId",
          "type": "uint256"
        },
        {
          "internalType": "uint256",
          "name": "_quantity",
          "type": "uint256"
        }
      ],
      "name": "verifyClaim",
      "outputs": [],
      "stateMutability": "view",
      "type": "function"
    }
  ],
  "bytecode": "0x60806040523480156200001157600080fd5b5060405162003d8138038062003d8183398101604081905262000034916200030e565b8383838383838160009080519060200190620000529291906200019b565b508051620000689060019060208401906200019b565b50506001600c55506200007b336200009e565b62000090826001600160801b038316620000f0565b5050505050505050620003f7565b600680546001600160a01b038381166001600160a01b0319831681179093556040519116919082907f8292fce18fa69edf4db7b94ea2e58241df0ae57f97e0a6c9b29067028bf92d7690600090a35050565b612710811115620001395760405162461bcd60e51b815260206004820152600f60248201526e45786365656473206d61782062707360881b604482015260640160405180910390fd5b600780546001600160a01b0384166001600160b01b03199091168117600160a01b61ffff851602179091556040518281527f90d7ec04bcb8978719414f82e52e4cb651db41d0e6f8cea6118c2191e6183adb9060200160405180910390a25050565b828054620001a990620003ba565b90600052602060002090601f016020900481019282620001cd576000855562000218565b82601f10620001e857805160ff191683800117855562000218565b8280016001018555821562000218579182015b8281111562000218578251825591602001919060010190620001fb565b50620002269291506200022a565b5090565b5b808211156200022657600081556001016200022b565b634e487b7160e01b600052604160045260246000fd5b600082601f8301126200026957600080fd5b81516001600160401b038082111562000286576200028662000241565b604051601f8301601f19908116603f01168101908282118183101715620002b157620002b162000241565b81604052838152602092508683858801011115620002ce57600080fd5b600091505b83821015620002f25785820183015181830184015290820190620002d3565b83821115620003045760008385830101525b9695505050505050565b600080600080608085870312156200032557600080fd5b84516001600160401b03808211156200033d57600080fd5b6200034b8883890162000257565b955060208701519150808211156200036257600080fd5b50620003718782880162000257565b604087015190945090506001600160a01b03811681146200039157600080fd5b60608601519092506001600160801b0381168114620003af57600080fd5b939692955090935050565b600181811c90821680620003cf57607f821691505b60208210811415620003f157634e487b7160e01b600052602260045260246000fd5b50919050565b61397a80620004076000396000f3fe6080604052600436106101f85760003560e01c80638da5cb5b1161010d578063b24f2d39116100a0578063e71503221161006f578063e715032214610629578063e8a3d48514610649578063e985e9c51461065e578063f242432a14610699578063f5298aca146106b957600080fd5b8063b24f2d3914610591578063bd85b039146105bc578063ce805642146105e9578063d37c353b1461060957600080fd5b80639fc4d68f116100dc5780639fc4d68f14610504578063a05112fc14610524578063a22cb46514610544578063ac9650d81461056457600080fd5b80638da5cb5b14610487578063938e3d7b146104af57806395d89b41146104cf5780639bcf7a15146104e457600080fd5b80632eb2c2d6116101905780634cc157df1161015f5780634cc157df146103c35780634e1273f414610405578063600dd5ea1461043257806363b45e2d146104525780636b20c4541461046757600080fd5b80632eb2c2d61461034e5780633b1475a71461036e578063492e224b146103835780634bbb1abf146103a357600080fd5b806313af4035116101cc57806313af4035146102ba5780632419f51b146102dc5780632a55205a146102fc5780632bc43fd91461033b57600080fd5b8062fdd58e146101fd57806301ffc9a71461024857806306fdde03146102785780630e89341c1461029a575b600080fd5b34801561020957600080fd5b50610235610218366004612bbd565b600260209081526000928352604080842090915290825290205481565b6040519081526020015b60405180910390f35b34801561025457600080fd5b50610268610263366004612bfd565b6106d9565b604051901515815260200161023f565b34801561028457600080fd5b5061028d610746565b60405161023f9190612c72565b3480156102a657600080fd5b5061028d6102b5366004612c85565b6107d4565b3480156102c657600080fd5b506102da6102d5366004612c9e565b610843565b005b3480156102e857600080fd5b506102356102f7366004612c85565b610899565b34801561030857600080fd5b5061031c610317366004612cb9565b610907565b604080516001600160a01b03909316835260208301919091520161023f565b6102da610349366004612cdb565b610944565b34801561035a57600080fd5b506102da610369366004612e74565b610a3d565b34801561037a57600080fd5b50600b54610235565b34801561038f57600080fd5b5061026861039e366004612c85565b610acc565b3480156103af57600080fd5b506102da6103be366004612cdb565b505050565b3480156103cf57600080fd5b506103e36103de366004612c85565b610af2565b604080516001600160a01b03909316835261ffff90911660208301520161023f565b34801561041157600080fd5b50610425610420366004612f1e565b610b5d565b60405161023f9190613024565b34801561043e57600080fd5b506102da61044d366004612bbd565b610c94565b34801561045e57600080fd5b50600954610235565b34801561047357600080fd5b506102da610482366004613037565b610ce7565b34801561049357600080fd5b506006546040516001600160a01b03909116815260200161023f565b3480156104bb57600080fd5b506102da6104ca3660046130ab565b610e9d565b3480156104db57600080fd5b5061028d610eeb565b3480156104f057600080fd5b506102da6104ff3660046130f4565b610ef8565b34801561051057600080fd5b5061028d61051f366004613172565b610f48565b34801561053057600080fd5b5061028d61053f366004612c85565b6110d5565b34801561055057600080fd5b506102da61055f3660046131be565b6110ee565b34801561057057600080fd5b5061058461057f3660046131fa565b6111a7565b60405161023f919061326f565b34801561059d57600080fd5b506007546001600160a01b03811690600160a01b900461ffff166103e3565b3480156105c857600080fd5b506102356105d7366004612c85565b600d6020526000908152604090205481565b3480156105f557600080fd5b5061028d610604366004613172565b61129c565b34801561061557600080fd5b506102356106243660046132d1565b611360565b34801561063557600080fd5b5061028d61064436600461334b565b6113f8565b34801561065557600080fd5b5061028d61146d565b34801561066a57600080fd5b506102686106793660046133a7565b600360209081526000928352604080842090915290825290205460ff1681565b3480156106a557600080fd5b506102da6106b43660046133da565b61147a565b3480156106c557600080fd5b506102da6106d4366004612cdb565b611502565b60006301ffc9a760e01b6001600160e01b03198316148061070a5750636cdb3d1360e11b6001600160e01b03198316145b8061072557506303a24d0760e21b6001600160e01b03198316145b8061074057506001600160e01b0319821663152a902d60e11b145b92915050565b600080546107539061343f565b80601f016020809104026020016040519081016040528092919081815260200182805461077f9061343f565b80156107cc5780601f106107a1576101008083540402835291602001916107cc565b820191906000526020600020905b8154815290600101906020018083116107af57829003601f168201915b505050505081565b606060006107e1836115fd565b50905060006107ef84611710565b90506107fa82610acc565b156108285780604051602001610810919061347a565b60405160208183030381529060405292505050919050565b8061083285611871565b60405160200161081092919061349f565b61084b61198f565b61088d5760405162461bcd60e51b815260206004820152600e60248201526d139bdd08185d5d1a1bdc9a5e995960921b60448201526064015b60405180910390fd5b610896816119bc565b50565b60006108a460095490565b82106108e25760405162461bcd60e51b815260206004820152600d60248201526c092dcecc2d8d2c840d2dcc8caf609b1b6044820152606401610884565b600982815481106108f5576108f56134ce565b90600052602060002001549050919050565b60008060008061091686610af2565b90945084925061ffff16905061271061092f82876134fa565b610939919061352f565b925050509250929050565b6002600c5414156109975760405162461bcd60e51b815260206004820152601f60248201527f5265656e7472616e637947756172643a207265656e7472616e742063616c6c006044820152606401610884565b6002600c55600b5482106109da5760405162461bcd60e51b815260206004820152600a6024820152691a5b9d985b1a59081a5960b21b6044820152606401610884565b6109e5838383611a1b565b81836001600160a01b0316336001600160a01b03167fff097c7d8b1957a4ff09ef1361b5fb54dcede3941ba836d0beb9d10bec725de684604051610a2b91815260200190565b60405180910390a450506001600c5550565b6001600160a01b038516331480610a7757506001600160a01b038516600090815260036020908152604080832033845290915290205460ff165b610ab85760405162461bcd60e51b81526020600482015260126024820152710853d5d3915497d3d497d054141493d5915160721b6044820152606401610884565b610ac58585858585611a36565b5050505050565b6000818152600e602052604081208054829190610ae89061343f565b9050119050919050565b6000818152600860209081526040808320815180830190925280546001600160a01b031680835260019091015492820192909252829115610b395780516020820151610b53565b6007546001600160a01b03811690600160a01b900461ffff165b9250925050915091565b60608151835114610ba25760405162461bcd60e51b815260206004820152600f60248201526e0988a9c8ea890be9a92a69a82a8869608b1b6044820152606401610884565b6000835167ffffffffffffffff811115610bbe57610bbe612d0e565b604051908082528060200260200182016040528015610be7578160200160208202803683370190505b50905060005b8451811015610c8c5760026000868381518110610c0c57610c0c6134ce565b60200260200101516001600160a01b03166001600160a01b031681526020019081526020016000206000858381518110610c4857610c486134ce565b6020026020010151815260200190815260200160002054828281518110610c7157610c716134ce565b6020908102919091010152610c8581613543565b9050610bed565b509392505050565b610c9c61198f565b610cd95760405162461bcd60e51b815260206004820152600e60248201526d139bdd08185d5d1a1bdc9a5e995960921b6044820152606401610884565b610ce38282611c55565b5050565b336001600160a01b038416811480610d2457506001600160a01b0380851660009081526003602090815260408083209385168352929052205460ff165b610d645760405162461bcd60e51b81526020600482015260116024820152702ab730b8383937bb32b21031b0b63632b960791b6044820152606401610884565b8151835114610db55760405162461bcd60e51b815260206004820152600f60248201527f4c656e677468206d69736d6174636800000000000000000000000000000000006044820152606401610884565b60005b8351811015610e8b57828181518110610dd357610dd36134ce565b602002602001015160026000876001600160a01b03166001600160a01b031681526020019081526020016000206000868481518110610e1457610e146134ce565b60200260200101518152602001908152602001600020541015610e795760405162461bcd60e51b815260206004820152601760248201527f4e6f7420656e6f75676820746f6b656e73206f776e65640000000000000000006044820152606401610884565b610e8460018261355e565b9050610db8565b50610e97848484611d0a565b50505050565b610ea561198f565b610ee25760405162461bcd60e51b815260206004820152600e60248201526d139bdd08185d5d1a1bdc9a5e995960921b6044820152606401610884565b61089681611f04565b600180546107539061343f565b610f0061198f565b610f3d5760405162461bcd60e51b815260206004820152600e60248201526d139bdd08185d5d1a1bdc9a5e995960921b6044820152606401610884565b6103be838383611fe6565b6000838152600e6020526040812080546060929190610f669061343f565b80601f0160208091040260200160405190810160405280929190818152602001828054610f929061343f565b8015610fdf5780601f10610fb457610100808354040283529160200191610fdf565b820191906000526020600020905b815481529060010190602001808311610fc257829003601f168201915b505050505090508051600014156110385760405162461bcd60e51b815260206004820152601160248201527f4e6f7468696e6720746f2072657665616c0000000000000000000000000000006044820152606401610884565b6000808280602001905181019061104f9190613576565b9150915061105e8287876113f8565b935080848787466040516020016110789493929190613602565b60405160208183030381529060405280519060200120146110cb5760405162461bcd60e51b815260206004820152600d60248201526c496e636f7272656374206b657960981b6044820152606401610884565b5050509392505050565b600e60205260009081526040902080546107539061343f565b336001600160a01b0383168114156111395760405162461bcd60e51b815260206004820152600e60248201526d20a8282927ab24a723afa9a2a62360911b6044820152606401610884565b6001600160a01b03818116600081815260036020908152604080832094881680845294825291829020805460ff191687151590811790915591519182527f17307eab39ab6107e8899845ad3d59bd9653f200f220920489ca2b5937696c3191015b60405180910390a3505050565b60608167ffffffffffffffff8111156111c2576111c2612d0e565b6040519080825280602002602001820160405280156111f557816020015b60608152602001906001900390816111e05790505b50905060005b828110156112955761126530858584818110611219576112196134ce565b905060200281019061122b919061362b565b8080601f0160208091040260200160405190810160405280939291908181526020018383808284376000920191909152506120b492505050565b828281518110611277576112776134ce565b6020026020010181905250808061128d90613543565b9150506111fb565b5092915050565b60606112a661198f565b6112e35760405162461bcd60e51b815260206004820152600e60248201526d139bdd08185d5d1a1bdc9a5e995960921b6044820152606401610884565b60006112ee85610899565b90506112fb818585610f48565b915061131681604051806020016040528060008152506120e0565b61132081836120ff565b847f6df1d8db2a036436ffe0b2d1833f2c5f1e624818dfce2578c0faa4b83ef9998d836040516113509190612c72565b60405180910390a2509392505050565b600081156113e15760008061137784860186613672565b91509150815160001415801561138c57508015155b156113de576113de88600b546113a2919061355e565b86868080601f0160208091040260200160405190810160405280939291908181526020018383808284376000920191909152506120e092505050565b50505b6113ee868686868661211e565b9695505050505050565b8251604080518083016020019091528181529060005b8181101561146457600085858360405160200161142d939291906136b7565b60408051601f1981840301815291905280516020918201208884018201511885840182015261145d91508261355e565b905061140e565b50509392505050565b600580546107539061343f565b6001600160a01b0385163314806114b457506001600160a01b038516600090815260036020908152604080832033845290915290205460ff165b6114f55760405162461bcd60e51b81526020600482015260126024820152710853d5d3915497d3d497d054141493d5915160721b6044820152606401610884565b610ac58585858585612249565b336001600160a01b03841681148061153f57506001600160a01b0380851660009081526003602090815260408083209385168352929052205460ff165b61157f5760405162461bcd60e51b81526020600482015260116024820152702ab730b8383937bb32b21031b0b63632b960791b6044820152606401610884565b6001600160a01b03841660009081526002602090815260408083208684529091529020548211156115f25760405162461bcd60e51b815260206004820152601760248201527f4e6f7420656e6f75676820746f6b656e73206f776e65640000000000000000006044820152606401610884565b610e978484846123c9565b600080600061160b60095490565b90506000600980548060200260200160405190810160405280929190818152602001828054801561165b57602002820191906000526020600020905b815481526020019060010190808311611647575b5050505050905060005b828110156116c75781818151811061167f5761167f6134ce565b60200260200101518610156116b5578093508181815181106116a3576116a36134ce565b60200260200101519450505050915091565b6116c060018261355e565b9050611665565b5060405162461bcd60e51b815260206004820152600f60248201527f496e76616c696420746f6b656e496400000000000000000000000000000000006044820152606401610884565b6060600061171d60095490565b90506000600980548060200260200160405190810160405280929190818152602001828054801561176d57602002820191906000526020600020905b815481526020019060010190808311611759575b5050505050905060005b828110156116c757818181518110611791576117916134ce565b602002602001015185101561185f57600a60008383815181106117b6576117b66134ce565b6020026020010151815260200190815260200160002080546117d79061343f565b80601f01602080910402602001604051908101604052809291908181526020018280546118039061343f565b80156118505780601f1061182557610100808354040283529160200191611850565b820191906000526020600020905b81548152906001019060200180831161183357829003601f168201915b50505050509350505050919050565b61186a60018261355e565b9050611777565b6060816118955750506040805180820190915260018152600360fc1b602082015290565b8160005b81156118bf57806118a981613543565b91506118b89050600a8361352f565b9150611899565b60008167ffffffffffffffff8111156118da576118da612d0e565b6040519080825280601f01601f191660200182016040528015611904576020820181803683370190505b5090505b8415611987576119196001836136c9565b9150611926600a866136e0565b61193190603061355e565b60f81b818381518110611946576119466134ce565b60200101907effffffffffffffffffffffffffffffffffffffffffffffffffffffffffffff1916908160001a905350611980600a8661352f565b9450611908565b949350505050565b60006119a36006546001600160a01b031690565b6001600160a01b0316336001600160a01b031614905090565b600680546001600160a01b0383811673ffffffffffffffffffffffffffffffffffffffff19831681179093556040519116919082907f8292fce18fa69edf4db7b94ea2e58241df0ae57f97e0a6c9b29067028bf92d7690600090a35050565b6103be83838360405180602001604052806000815250612511565b8151835114611a795760405162461bcd60e51b815260206004820152600f60248201526e0988a9c8ea890be9a92a69a82a8869608b1b6044820152606401610884565b6001600160a01b038416611abe5760405162461bcd60e51b815260206004820152600c60248201526b2a27afad22a927afa0a2222960a11b6044820152606401610884565b33611acd8187878787876125fa565b60005b8451811015611be7576000858281518110611aed57611aed6134ce565b602002602001015190506000858381518110611b0b57611b0b6134ce565b6020908102919091018101516001600160a01b038b166000908152600283526040808220868352909352919091205490915081811015611b805760405162461bcd60e51b815260206004820152601060248201526f125394d551919250d251539517d0905360821b6044820152606401610884565b6001600160a01b03808b16600090815260026020818152604080842088855282528084208787039055938d16835290815282822086835290529081208054849290611bcc90849061355e565b9250508190555050505080611be090613543565b9050611ad0565b50846001600160a01b0316866001600160a01b0316826001600160a01b03167f4a39dc06d4c0dbc64b70af90fd698a233a518aa5d07e595d983b8c0526c8f7fb8787604051611c379291906136f4565b60405180910390a4611c4d818787878787612706565b505050505050565b612710811115611c995760405162461bcd60e51b815260206004820152600f60248201526e45786365656473206d61782062707360881b6044820152606401610884565b600780546001600160a01b03841675ffffffffffffffffffffffffffffffffffffffffffff199091168117600160a01b61ffff851602179091556040518281527f90d7ec04bcb8978719414f82e52e4cb651db41d0e6f8cea6118c2191e6183adb9060200160405180910390a25050565b6001600160a01b038316611d515760405162461bcd60e51b815260206004820152600e60248201526d232927a6afad22a927afa0a2222960911b6044820152606401610884565b8051825114611d945760405162461bcd60e51b815260206004820152600f60248201526e0988a9c8ea890be9a92a69a82a8869608b1b6044820152606401610884565b6000339050611db7818560008686604051806020016040528060008152506125fa565b60005b8351811015611ea5576000848281518110611dd757611dd76134ce565b602002602001015190506000848381518110611df557611df56134ce565b6020908102919091018101516001600160a01b0389166000908152600283526040808220868352909352919091205490915081811015611e6a5760405162461bcd60e51b815260206004820152601060248201526f125394d551919250d251539517d0905360821b6044820152606401610884565b6001600160a01b0388166000908152600260209081526040808320958352949052929092209103905580611e9d81613543565b915050611dba565b5060006001600160a01b0316846001600160a01b0316826001600160a01b03167f4a39dc06d4c0dbc64b70af90fd698a233a518aa5d07e595d983b8c0526c8f7fb8686604051611ef69291906136f4565b60405180910390a450505050565b600060058054611f139061343f565b80601f0160208091040260200160405190810160405280929190818152602001828054611f3f9061343f565b8015611f8c5780601f10611f6157610100808354040283529160200191611f8c565b820191906000526020600020905b815481529060010190602001808311611f6f57829003601f168201915b50508551939450611fa893600593506020870192509050612b08565b507fc9c7c3fe08b88b4df9d4d47ef47d2c43d55c025a0ba88ca442580ed9e7348a168183604051611fda929190613722565b60405180910390a15050565b61271081111561202a5760405162461bcd60e51b815260206004820152600f60248201526e45786365656473206d61782062707360881b6044820152606401610884565b6040805180820182526001600160a01b0384811680835260208084018681526000898152600883528690209451855473ffffffffffffffffffffffffffffffffffffffff1916941693909317845591516001909301929092559151838152909185917f7365cf4122f072a3365c20d54eff9b38d73c096c28e1892ec8f5b0e403a0f12d910161119a565b60606120d9838360405180606001604052806027815260200161391e60279139612867565b9392505050565b6000828152600e6020908152604090912082516103be92840190612b08565b6000828152600a6020908152604090912082516103be92840190612b08565b600061212861198f565b6121655760405162461bcd60e51b815260206004820152600e60248201526d139bdd08185d5d1a1bdc9a5e995960921b6044820152606401610884565b8561219a5760405162461bcd60e51b81526020600482015260056024820152640c08185b5d60da1b6044820152606401610884565b6000600b5490506121e2818888888080601f01602080910402602001604051908101604052809392919081815260200183838082843760009201919091525061293a92505050565b600b919091559150807f2a0365091ef1a40953c670dce28177e37520648a6fdc91506bffac0ab045570d60016122188a8461355e565b61222291906136c9565b88888888604051612237959493929190613770565b60405180910390a25095945050505050565b6001600160a01b03841661228e5760405162461bcd60e51b815260206004820152600c60248201526b2a27afad22a927afa0a2222960a11b6044820152606401610884565b336122ad81878761229e886129a7565b6122a7886129a7565b876125fa565b6001600160a01b0386166000908152600260209081526040808320878452909152902054838110156123145760405162461bcd60e51b815260206004820152601060248201526f125394d551919250d251539517d0905360821b6044820152606401610884565b6001600160a01b0380881660009081526002602081815260408084208a855282528084208987039055938a1683529081528282208883529052908120805486929061236090849061355e565b909155505060408051868152602081018690526001600160a01b03808916928a821692918616917fc3d58168c5ae7397731d063d5bbf3d657854427343f4c083240f7aacaa2d0f62910160405180910390a46123c08288888888886129f2565b50505050505050565b6001600160a01b0383166124105760405162461bcd60e51b815260206004820152600e60248201526d232927a6afad22a927afa0a2222960911b6044820152606401610884565b3361243f81856000612421876129a7565b61242a876129a7565b604051806020016040528060008152506125fa565b6001600160a01b0384166000908152600260209081526040808320868452909152902054828110156124a65760405162461bcd60e51b815260206004820152601060248201526f125394d551919250d251539517d0905360821b6044820152606401610884565b6001600160a01b03858116600081815260026020908152604080832089845282528083208887039055805189815291820188905291938616917fc3d58168c5ae7397731d063d5bbf3d657854427343f4c083240f7aacaa2d0f62910160405180910390a45050505050565b6001600160a01b0384166125565760405162461bcd60e51b815260206004820152600c60248201526b2a27afad22a927afa0a2222960a11b6044820152606401610884565b336125678160008761229e886129a7565b6001600160a01b03851660009081526002602090815260408083208784529091528120805485929061259a90849061355e565b909155505060408051858152602081018590526001600160a01b0380881692600092918516917fc3d58168c5ae7397731d063d5bbf3d657854427343f4c083240f7aacaa2d0f62910160405180910390a4610ac5816000878787876129f2565b6001600160a01b0385166126815760005b835181101561267f57828181518110612626576126266134ce565b6020026020010151600d6000868481518110612644576126446134ce565b602002602001015181526020019081526020016000206000828254612669919061355e565b90915550612678905081613543565b905061260b565b505b6001600160a01b038416611c4d5760005b83518110156123c0578281815181106126ad576126ad6134ce565b6020026020010151600d60008684815181106126cb576126cb6134ce565b6020026020010151815260200190815260200160002060008282546126f091906136c9565b909155506126ff905081613543565b9050612692565b6001600160a01b0384163b15611c4d5760405163bc197c8160e01b81526001600160a01b0385169063bc197c819061274a90899089908890889088906004016137a9565b6020604051808303816000875af1925050508015612785575060408051601f3d908101601f19168201909252612782918101906137fb565b60015b61281557612791613818565b806308c379a014156127cb57506127a6613834565b806127b157506127cd565b8060405162461bcd60e51b81526004016108849190612c72565b505b60405162461bcd60e51b815260206004820152601060248201527f21455243313135355245434549564552000000000000000000000000000000006044820152606401610884565b6001600160e01b0319811663bc197c8160e01b146123c05760405162461bcd60e51b815260206004820152600f60248201526e1513d2d15394d7d491529150d51151608a1b6044820152606401610884565b60606001600160a01b0384163b6128cf5760405162461bcd60e51b815260206004820152602660248201527f416464726573733a2064656c65676174652063616c6c20746f206e6f6e2d636f6044820152651b9d1c9858dd60d21b6064820152608401610884565b600080856001600160a01b0316856040516128ea91906138be565b600060405180830381855af49150503d8060008114612925576040519150601f19603f3d011682016040523d82523d6000602084013e61292a565b606091505b50915091506113ee828286612acf565b600080612947848661355e565b60098054600181019091557f6e1540171b6c0c960b71a7020d9f60077f6af931a8bbf590da0223dacf75c7af018190556000818152600a60209081526040909120855192945084935061299e929091860190612b08565b50935093915050565b604080516001808252818301909252606091600091906020808301908036833701905050905082816000815181106129e1576129e16134ce565b602090810291909101015292915050565b6001600160a01b0384163b15611c4d5760405163f23a6e6160e01b81526001600160a01b0385169063f23a6e6190612a3690899089908890889088906004016138da565b6020604051808303816000875af1925050508015612a71575060408051601f3d908101601f19168201909252612a6e918101906137fb565b60015b612a7d57612791613818565b6001600160e01b0319811663f23a6e6160e01b146123c05760405162461bcd60e51b815260206004820152600f60248201526e1513d2d15394d7d491529150d51151608a1b6044820152606401610884565b60608315612ade5750816120d9565b825115612aee5782518084602001fd5b8160405162461bcd60e51b81526004016108849190612c72565b828054612b149061343f565b90600052602060002090601f016020900481019282612b365760008555612b7c565b82601f10612b4f57805160ff1916838001178555612b7c565b82800160010185558215612b7c579182015b82811115612b7c578251825591602001919060010190612b61565b50612b88929150612b8c565b5090565b5b80821115612b885760008155600101612b8d565b80356001600160a01b0381168114612bb857600080fd5b919050565b60008060408385031215612bd057600080fd5b612bd983612ba1565b946020939093013593505050565b6001600160e01b03198116811461089657600080fd5b600060208284031215612c0f57600080fd5b81356120d981612be7565b60005b83811015612c35578181015183820152602001612c1d565b83811115610e975750506000910152565b60008151808452612c5e816020860160208601612c1a565b601f01601f19169290920160200192915050565b6020815260006120d96020830184612c46565b600060208284031215612c9757600080fd5b5035919050565b600060208284031215612cb057600080fd5b6120d982612ba1565b60008060408385031215612ccc57600080fd5b50508035926020909101359150565b600080600060608486031215612cf057600080fd5b612cf984612ba1565b95602085013595506040909401359392505050565b634e487b7160e01b600052604160045260246000fd5b601f8201601f1916810167ffffffffffffffff81118282101715612d4a57612d4a612d0e565b6040525050565b600067ffffffffffffffff821115612d6b57612d6b612d0e565b5060051b60200190565b600082601f830112612d8657600080fd5b81356020612d9382612d51565b604051612da08282612d24565b83815260059390931b8501820192828101915086841115612dc057600080fd5b8286015b84811015612ddb5780358352918301918301612dc4565b509695505050505050565b600067ffffffffffffffff821115612e0057612e00612d0e565b50601f01601f191660200190565b6000612e1983612de6565b604051612e268282612d24565b809250848152858585011115612e3b57600080fd5b8484602083013760006020868301015250509392505050565b600082601f830112612e6557600080fd5b6120d983833560208501612e0e565b600080600080600060a08688031215612e8c57600080fd5b612e9586612ba1565b9450612ea360208701612ba1565b9350604086013567ffffffffffffffff80821115612ec057600080fd5b612ecc89838a01612d75565b94506060880135915080821115612ee257600080fd5b612eee89838a01612d75565b93506080880135915080821115612f0457600080fd5b50612f1188828901612e54565b9150509295509295909350565b60008060408385031215612f3157600080fd5b823567ffffffffffffffff80821115612f4957600080fd5b818501915085601f830112612f5d57600080fd5b81356020612f6a82612d51565b604051612f778282612d24565b83815260059390931b8501820192828101915089841115612f9757600080fd5b948201945b83861015612fbc57612fad86612ba1565b82529482019490820190612f9c565b96505086013592505080821115612fd257600080fd5b50612fdf85828601612d75565b9150509250929050565b600081518084526020808501945080840160005b8381101561301957815187529582019590820190600101612ffd565b509495945050505050565b6020815260006120d96020830184612fe9565b60008060006060848603121561304c57600080fd5b61305584612ba1565b9250602084013567ffffffffffffffff8082111561307257600080fd5b61307e87838801612d75565b9350604086013591508082111561309457600080fd5b506130a186828701612d75565b9150509250925092565b6000602082840312156130bd57600080fd5b813567ffffffffffffffff8111156130d457600080fd5b8201601f810184136130e557600080fd5b61198784823560208401612e0e565b60008060006060848603121561310957600080fd5b8335925061311960208501612ba1565b9150604084013590509250925092565b60008083601f84011261313b57600080fd5b50813567ffffffffffffffff81111561315357600080fd5b60208301915083602082850101111561316b57600080fd5b9250929050565b60008060006040848603121561318757600080fd5b83359250602084013567ffffffffffffffff8111156131a557600080fd5b6131b186828701613129565b9497909650939450505050565b600080604083850312156131d157600080fd5b6131da83612ba1565b9150602083013580151581146131ef57600080fd5b809150509250929050565b6000806020838503121561320d57600080fd5b823567ffffffffffffffff8082111561322557600080fd5b818501915085601f83011261323957600080fd5b81358181111561324857600080fd5b8660208260051b850101111561325d57600080fd5b60209290920196919550909350505050565b6000602080830181845280855180835260408601915060408160051b870101925083870160005b828110156132c457603f198886030184526132b2858351612c46565b94509285019290850190600101613296565b5092979650505050505050565b6000806000806000606086880312156132e957600080fd5b85359450602086013567ffffffffffffffff8082111561330857600080fd5b61331489838a01613129565b9096509450604088013591508082111561332d57600080fd5b5061333a88828901613129565b969995985093965092949392505050565b60008060006040848603121561336057600080fd5b833567ffffffffffffffff8082111561337857600080fd5b61338487838801612e54565b9450602086013591508082111561339a57600080fd5b506131b186828701613129565b600080604083850312156133ba57600080fd5b6133c383612ba1565b91506133d160208401612ba1565b90509250929050565b600080600080600060a086880312156133f257600080fd5b6133fb86612ba1565b945061340960208701612ba1565b93506040860135925060608601359150608086013567ffffffffffffffff81111561343357600080fd5b612f1188828901612e54565b600181811c9082168061345357607f821691505b6020821081141561347457634e487b7160e01b600052602260045260246000fd5b50919050565b6000825161348c818460208701612c1a565b600360fc1b920191825250600101919050565b600083516134b1818460208801612c1a565b8351908301906134c5818360208801612c1a565b01949350505050565b634e487b7160e01b600052603260045260246000fd5b634e487b7160e01b600052601160045260246000fd5b6000816000190483118215151615613514576135146134e4565b500290565b634e487b7160e01b600052601260045260246000fd5b60008261353e5761353e613519565b500490565b6000600019821415613557576135576134e4565b5060010190565b60008219821115613571576135716134e4565b500190565b6000806040838503121561358957600080fd5b825167ffffffffffffffff8111156135a057600080fd5b8301601f810185136135b157600080fd5b80516135bc81612de6565b6040516135c98282612d24565b8281528760208486010111156135de57600080fd5b6135ef836020830160208701612c1a565b6020969096015195979596505050505050565b60008551613614818460208a01612c1a565b820184868237909301918252506020019392505050565b6000808335601e1984360301811261364257600080fd5b83018035915067ffffffffffffffff82111561365d57600080fd5b60200191503681900382131561316b57600080fd5b6000806040838503121561368557600080fd5b823567ffffffffffffffff81111561369c57600080fd5b6136a885828601612e54565b95602094909401359450505050565b82848237909101908152602001919050565b6000828210156136db576136db6134e4565b500390565b6000826136ef576136ef613519565b500690565b6040815260006137076040830185612fe9565b82810360208401526137198185612fe9565b95945050505050565b6040815260006137356040830185612c46565b82810360208401526137198185612c46565b81835281816020850137506000828201602090810191909152601f909101601f19169091010190565b85815260606020820152600061378a606083018688613747565b828103604084015261379d818587613747565b98975050505050505050565b60006001600160a01b03808816835280871660208401525060a060408301526137d560a0830186612fe9565b82810360608401526137e78186612fe9565b9050828103608084015261379d8185612c46565b60006020828403121561380d57600080fd5b81516120d981612be7565b600060033d11156138315760046000803e5060005160e01c5b90565b600060443d10156138425790565b6040516003193d81016004833e81513d67ffffffffffffffff816024840111818411171561387257505050505090565b828501915081518181111561388a5750505050505090565b843d87010160208285010111156138a45750505050505090565b6138b360208286010187612d24565b509095945050505050565b600082516138d0818460208701612c1a565b9190910192915050565b60006001600160a01b03808816835280871660208401525084604083015283606083015260a0608083015261391260a0830184612c46565b97965050505050505056fe416464726573733a206c6f772d6c6576656c2064656c65676174652063616c6c206661696c6564a2646970667358221220c6cd8fe2d9b320dc592ab404bf7a9d846d23f47f841d0d5a2cd5b52ec601bf8d64736f6c634300080c0033",
  "linkReferences": {},
  "deployedLinkReferences": {}
}