{
  "_format": "hh-sol-artifact-1",
  "contractName": "ERC1155LazyMint",
  "sourceName": "contracts/base/ERC1155LazyMint.sol",
  "abi": [
    {
      "inputs": [
        {
          "internalType": "string",
          "name": "_name",
          "type": "string"
        },
        {
          "internalType": "string",
          "name": "_symbol",
          "type": "string"
        },
        {
          "internalType": "address",
          "name": "_royaltyRecipient",
          "type": "address"
        },
        {
          "internalType": "uint128",
          "name": "_royaltyBps",
          "type": "uint128"
        }
      ],
      "stateMutability": "nonpayable",
      "type": "constructor"
    },
    {
      "anonymous": false,
      "inputs": [
        {
          "indexed": true,
          "internalType": "address",
          "name": "_owner",
          "type": "address"
        },
        {
          "indexed": true,
          "internalType": "address",
          "name": "_operator",
          "type": "address"
        },
        {
          "indexed": false,
          "internalType": "bool",
          "name": "_approved",
          "type": "bool"
        }
      ],
      "name": "ApprovalForAll",
      "type": "event"
    },
    {
      "anonymous": false,
      "inputs": [
        {
          "indexed": false,
          "internalType": "string",
          "name": "prevURI",
          "type": "string"
        },
        {
          "indexed": false,
          "internalType": "string",
          "name": "newURI",
          "type": "string"
        }
      ],
      "name": "ContractURIUpdated",
      "type": "event"
    },
    {
      "anonymous": false,
      "inputs": [
        {
          "indexed": true,
          "internalType": "address",
          "name": "newRoyaltyRecipient",
          "type": "address"
        },
        {
          "indexed": false,
          "internalType": "uint256",
          "name": "newRoyaltyBps",
          "type": "uint256"
        }
      ],
      "name": "DefaultRoyalty",
      "type": "event"
    },
    {
      "anonymous": false,
      "inputs": [
        {
          "indexed": true,
          "internalType": "address",
          "name": "prevOwner",
          "type": "address"
        },
        {
          "indexed": true,
          "internalType": "address",
          "name": "newOwner",
          "type": "address"
        }
      ],
      "name": "OwnerUpdated",
      "type": "event"
    },
    {
      "anonymous": false,
      "inputs": [
        {
          "indexed": true,
          "internalType": "uint256",
          "name": "tokenId",
          "type": "uint256"
        },
        {
          "indexed": true,
          "internalType": "address",
          "name": "royaltyRecipient",
          "type": "address"
        },
        {
          "indexed": false,
          "internalType": "uint256",
          "name": "royaltyBps",
          "type": "uint256"
        }
      ],
      "name": "RoyaltyForToken",
      "type": "event"
    },
    {
      "anonymous": false,
      "inputs": [
        {
          "indexed": true,
          "internalType": "address",
          "name": "claimer",
          "type": "address"
        },
        {
          "indexed": true,
          "internalType": "address",
          "name": "receiver",
          "type": "address"
        },
        {
          "indexed": true,
          "internalType": "uint256",
          "name": "tokenId",
          "type": "uint256"
        },
        {
          "indexed": false,
          "internalType": "uint256",
          "name": "quantityClaimed",
          "type": "uint256"
        }
      ],
      "name": "TokensClaimed",
      "type": "event"
    },
    {
      "anonymous": false,
      "inputs": [
        {
          "indexed": true,
          "internalType": "uint256",
          "name": "startTokenId",
          "type": "uint256"
        },
        {
          "indexed": false,
          "internalType": "uint256",
          "name": "endTokenId",
          "type": "uint256"
        },
        {
          "indexed": false,
          "internalType": "string",
          "name": "baseURI",
          "type": "string"
        },
        {
          "indexed": false,
          "internalType": "bytes",
          "name": "encryptedBaseURI",
          "type": "bytes"
        }
      ],
      "name": "TokensLazyMinted",
      "type": "event"
    },
    {
      "anonymous": false,
      "inputs": [
        {
          "indexed": true,
          "internalType": "address",
          "name": "_operator",
          "type": "address"
        },
        {
          "indexed": true,
          "internalType": "address",
          "name": "_from",
          "type": "address"
        },
        {
          "indexed": true,
          "internalType": "address",
          "name": "_to",
          "type": "address"
        },
        {
          "indexed": false,
          "internalType": "uint256[]",
          "name": "_ids",
          "type": "uint256[]"
        },
        {
          "indexed": false,
          "internalType": "uint256[]",
          "name": "_values",
          "type": "uint256[]"
        }
      ],
      "name": "TransferBatch",
      "type": "event"
    },
    {
      "anonymous": false,
      "inputs": [
        {
          "indexed": true,
          "internalType": "address",
          "name": "_operator",
          "type": "address"
        },
        {
          "indexed": true,
          "internalType": "address",
          "name": "_from",
          "type": "address"
        },
        {
          "indexed": true,
          "internalType": "address",
          "name": "_to",
          "type": "address"
        },
        {
          "indexed": false,
          "internalType": "uint256",
          "name": "_id",
          "type": "uint256"
        },
        {
          "indexed": false,
          "internalType": "uint256",
          "name": "_value",
          "type": "uint256"
        }
      ],
      "name": "TransferSingle",
      "type": "event"
    },
    {
      "anonymous": false,
      "inputs": [
        {
          "indexed": false,
          "internalType": "string",
          "name": "_value",
          "type": "string"
        },
        {
          "indexed": true,
          "internalType": "uint256",
          "name": "_id",
          "type": "uint256"
        }
      ],
      "name": "URI",
      "type": "event"
    },
    {
      "inputs": [
        {
          "internalType": "address",
          "name": "",
          "type": "address"
        },
        {
          "internalType": "uint256",
          "name": "",
          "type": "uint256"
        }
      ],
      "name": "balanceOf",
      "outputs": [
        {
          "internalType": "uint256",
          "name": "",
          "type": "uint256"
        }
      ],
      "stateMutability": "view",
      "type": "function"
    },
    {
      "inputs": [
        {
          "internalType": "address[]",
          "name": "accounts",
          "type": "address[]"
        },
        {
          "internalType": "uint256[]",
          "name": "ids",
          "type": "uint256[]"
        }
      ],
      "name": "balanceOfBatch",
      "outputs": [
        {
          "internalType": "uint256[]",
          "name": "",
          "type": "uint256[]"
        }
      ],
      "stateMutability": "view",
      "type": "function"
    },
    {
      "inputs": [
        {
          "internalType": "address",
          "name": "_owner",
          "type": "address"
        },
        {
          "internalType": "uint256",
          "name": "_tokenId",
          "type": "uint256"
        },
        {
          "internalType": "uint256",
          "name": "_amount",
          "type": "uint256"
        }
      ],
      "name": "burn",
      "outputs": [],
      "stateMutability": "nonpayable",
      "type": "function"
    },
    {
      "inputs": [
        {
          "internalType": "address",
          "name": "_owner",
          "type": "address"
        },
        {
          "internalType": "uint256[]",
          "name": "_tokenIds",
          "type": "uint256[]"
        },
        {
          "internalType": "uint256[]",
          "name": "_amounts",
          "type": "uint256[]"
        }
      ],
      "name": "burnBatch",
      "outputs": [],
      "stateMutability": "nonpayable",
      "type": "function"
    },
    {
      "inputs": [
        {
          "internalType": "address",
          "name": "_receiver",
          "type": "address"
        },
        {
          "internalType": "uint256",
          "name": "_tokenId",
          "type": "uint256"
        },
        {
          "internalType": "uint256",
          "name": "_quantity",
          "type": "uint256"
        }
      ],
      "name": "claim",
      "outputs": [],
      "stateMutability": "payable",
      "type": "function"
    },
    {
      "inputs": [],
      "name": "contractURI",
      "outputs": [
        {
          "internalType": "string",
          "name": "",
          "type": "string"
        }
      ],
      "stateMutability": "view",
      "type": "function"
    },
    {
      "inputs": [],
      "name": "getBaseURICount",
      "outputs": [
        {
          "internalType": "uint256",
          "name": "",
          "type": "uint256"
        }
      ],
      "stateMutability": "view",
      "type": "function"
    },
    {
      "inputs": [
        {
          "internalType": "uint256",
          "name": "_index",
          "type": "uint256"
        }
      ],
      "name": "getBatchIdAtIndex",
      "outputs": [
        {
          "internalType": "uint256",
          "name": "",
          "type": "uint256"
        }
      ],
      "stateMutability": "view",
      "type": "function"
    },
    {
      "inputs": [],
      "name": "getDefaultRoyaltyInfo",
      "outputs": [
        {
          "internalType": "address",
          "name": "",
          "type": "address"
        },
        {
          "internalType": "uint16",
          "name": "",
          "type": "uint16"
        }
      ],
      "stateMutability": "view",
      "type": "function"
    },
    {
      "inputs": [
        {
          "internalType": "uint256",
          "name": "_tokenId",
          "type": "uint256"
        }
      ],
      "name": "getRoyaltyInfoForToken",
      "outputs": [
        {
          "internalType": "address",
          "name": "",
          "type": "address"
        },
        {
          "internalType": "uint16",
          "name": "",
          "type": "uint16"
        }
      ],
      "stateMutability": "view",
      "type": "function"
    },
    {
      "inputs": [
        {
          "internalType": "address",
          "name": "",
          "type": "address"
        },
        {
          "internalType": "address",
          "name": "",
          "type": "address"
        }
      ],
      "name": "isApprovedForAll",
      "outputs": [
        {
          "internalType": "bool",
          "name": "",
          "type": "bool"
        }
      ],
      "stateMutability": "view",
      "type": "function"
    },
    {
      "inputs": [
        {
          "internalType": "uint256",
          "name": "_amount",
          "type": "uint256"
        },
        {
          "internalType": "string",
          "name": "_baseURIForTokens",
          "type": "string"
        },
        {
          "internalType": "bytes",
          "name": "_data",
          "type": "bytes"
        }
      ],
      "name": "lazyMint",
      "outputs": [
        {
          "internalType": "uint256",
          "name": "batchId",
          "type": "uint256"
        }
      ],
      "stateMutability": "nonpayable",
      "type": "function"
    },
    {
      "inputs": [
        {
          "internalType": "bytes[]",
          "name": "data",
          "type": "bytes[]"
        }
      ],
      "name": "multicall",
      "outputs": [
        {
          "internalType": "bytes[]",
          "name": "results",
          "type": "bytes[]"
        }
      ],
      "stateMutability": "nonpayable",
      "type": "function"
    },
    {
      "inputs": [],
      "name": "name",
      "outputs": [
        {
          "internalType": "string",
          "name": "",
          "type": "string"
        }
      ],
      "stateMutability": "view",
      "type": "function"
    },
    {
      "inputs": [],
      "name": "nextTokenIdToMint",
      "outputs": [
        {
          "internalType": "uint256",
          "name": "",
          "type": "uint256"
        }
      ],
      "stateMutability": "view",
      "type": "function"
    },
    {
      "inputs": [],
      "name": "owner",
      "outputs": [
        {
          "internalType": "address",
          "name": "",
          "type": "address"
        }
      ],
      "stateMutability": "view",
      "type": "function"
    },
    {
      "inputs": [
        {
          "internalType": "uint256",
          "name": "tokenId",
          "type": "uint256"
        },
        {
          "internalType": "uint256",
          "name": "salePrice",
          "type": "uint256"
        }
      ],
      "name": "royaltyInfo",
      "outputs": [
        {
          "internalType": "address",
          "name": "receiver",
          "type": "address"
        },
        {
          "internalType": "uint256",
          "name": "royaltyAmount",
          "type": "uint256"
        }
      ],
      "stateMutability": "view",
      "type": "function"
    },
    {
      "inputs": [
        {
          "internalType": "address",
          "name": "from",
          "type": "address"
        },
        {
          "internalType": "address",
          "name": "to",
          "type": "address"
        },
        {
          "internalType": "uint256[]",
          "name": "ids",
          "type": "uint256[]"
        },
        {
          "internalType": "uint256[]",
          "name": "amounts",
          "type": "uint256[]"
        },
        {
          "internalType": "bytes",
          "name": "data",
          "type": "bytes"
        }
      ],
      "name": "safeBatchTransferFrom",
      "outputs": [],
      "stateMutability": "nonpayable",
      "type": "function"
    },
    {
      "inputs": [
        {
          "internalType": "address",
          "name": "from",
          "type": "address"
        },
        {
          "internalType": "address",
          "name": "to",
          "type": "address"
        },
        {
          "internalType": "uint256",
          "name": "id",
          "type": "uint256"
        },
        {
          "internalType": "uint256",
          "name": "amount",
          "type": "uint256"
        },
        {
          "internalType": "bytes",
          "name": "data",
          "type": "bytes"
        }
      ],
      "name": "safeTransferFrom",
      "outputs": [],
      "stateMutability": "nonpayable",
      "type": "function"
    },
    {
      "inputs": [
        {
          "internalType": "address",
          "name": "operator",
          "type": "address"
        },
        {
          "internalType": "bool",
          "name": "approved",
          "type": "bool"
        }
      ],
      "name": "setApprovalForAll",
      "outputs": [],
      "stateMutability": "nonpayable",
      "type": "function"
    },
    {
      "inputs": [
        {
          "internalType": "string",
          "name": "_uri",
          "type": "string"
        }
      ],
      "name": "setContractURI",
      "outputs": [],
      "stateMutability": "nonpayable",
      "type": "function"
    },
    {
      "inputs": [
        {
          "internalType": "address",
          "name": "_royaltyRecipient",
          "type": "address"
        },
        {
          "internalType": "uint256",
          "name": "_royaltyBps",
          "type": "uint256"
        }
      ],
      "name": "setDefaultRoyaltyInfo",
      "outputs": [],
      "stateMutability": "nonpayable",
      "type": "function"
    },
    {
      "inputs": [
        {
          "internalType": "address",
          "name": "_newOwner",
          "type": "address"
        }
      ],
      "name": "setOwner",
      "outputs": [],
      "stateMutability": "nonpayable",
      "type": "function"
    },
    {
      "inputs": [
        {
          "internalType": "uint256",
          "name": "_tokenId",
          "type": "uint256"
        },
        {
          "internalType": "address",
          "name": "_recipient",
          "type": "address"
        },
        {
          "internalType": "uint256",
          "name": "_bps",
          "type": "uint256"
        }
      ],
      "name": "setRoyaltyInfoForToken",
      "outputs": [],
      "stateMutability": "nonpayable",
      "type": "function"
    },
    {
      "inputs": [
        {
          "internalType": "bytes4",
          "name": "interfaceId",
          "type": "bytes4"
        }
      ],
      "name": "supportsInterface",
      "outputs": [
        {
          "internalType": "bool",
          "name": "",
          "type": "bool"
        }
      ],
      "stateMutability": "view",
      "type": "function"
    },
    {
      "inputs": [],
      "name": "symbol",
      "outputs": [
        {
          "internalType": "string",
          "name": "",
          "type": "string"
        }
      ],
      "stateMutability": "view",
      "type": "function"
    },
    {
      "inputs": [
        {
          "internalType": "uint256",
          "name": "",
          "type": "uint256"
        }
      ],
      "name": "totalSupply",
      "outputs": [
        {
          "internalType": "uint256",
          "name": "",
          "type": "uint256"
        }
      ],
      "stateMutability": "view",
      "type": "function"
    },
    {
      "inputs": [
        {
          "internalType": "uint256",
          "name": "_tokenId",
          "type": "uint256"
        }
      ],
      "name": "uri",
      "outputs": [
        {
          "internalType": "string",
          "name": "",
          "type": "string"
        }
      ],
      "stateMutability": "view",
      "type": "function"
    },
    {
      "inputs": [
        {
          "internalType": "address",
          "name": "_claimer",
          "type": "address"
        },
        {
          "internalType": "uint256",
          "name": "_tokenId",
          "type": "uint256"
        },
        {
          "internalType": "uint256",
          "name": "_quantity",
          "type": "uint256"
        }
      ],
      "name": "verifyClaim",
      "outputs": [],
      "stateMutability": "view",
      "type": "function"
    }
  ],
  "bytecode": "0x60806040523480156200001157600080fd5b50604051620035ef380380620035ef833981016040819052620000349162000305565b8351849084906200004d90600090602085019062000192565b5080516200006390600190602084019062000192565b50506001600c5550620000763362000095565b6200008b826001600160801b038316620000e7565b50505050620003ee565b600680546001600160a01b038381166001600160a01b0319831681179093556040519116919082907f8292fce18fa69edf4db7b94ea2e58241df0ae57f97e0a6c9b29067028bf92d7690600090a35050565b612710811115620001305760405162461bcd60e51b815260206004820152600f60248201526e45786365656473206d61782062707360881b604482015260640160405180910390fd5b600780546001600160a01b0384166001600160b01b03199091168117600160a01b61ffff851602179091556040518281527f90d7ec04bcb8978719414f82e52e4cb651db41d0e6f8cea6118c2191e6183adb9060200160405180910390a25050565b828054620001a090620003b1565b90600052602060002090601f016020900481019282620001c457600085556200020f565b82601f10620001df57805160ff19168380011785556200020f565b828001600101855582156200020f579182015b828111156200020f578251825591602001919060010190620001f2565b506200021d92915062000221565b5090565b5b808211156200021d576000815560010162000222565b634e487b7160e01b600052604160045260246000fd5b600082601f8301126200026057600080fd5b81516001600160401b03808211156200027d576200027d62000238565b604051601f8301601f19908116603f01168101908282118183101715620002a857620002a862000238565b81604052838152602092508683858801011115620002c557600080fd5b600091505b83821015620002e95785820183015181830184015290820190620002ca565b83821115620002fb5760008385830101525b9695505050505050565b600080600080608085870312156200031c57600080fd5b84516001600160401b03808211156200033457600080fd5b62000342888389016200024e565b955060208701519150808211156200035957600080fd5b5062000368878288016200024e565b604087015190945090506001600160a01b03811681146200038857600080fd5b60608601519092506001600160801b0381168114620003a657600080fd5b939692955090935050565b600181811c90821680620003c657607f821691505b60208210811415620003e857634e487b7160e01b600052602260045260246000fd5b50919050565b6131f180620003fe6000396000f3fe6080604052600436106101c15760003560e01c806363b45e2d116100f7578063ac9650d811610095578063e8a3d48511610064578063e8a3d48514610572578063e985e9c514610587578063f242432a146105c2578063f5298aca146105e257600080fd5b8063ac9650d8146104cd578063b24f2d39146104fa578063bd85b03914610525578063d37c353b1461055257600080fd5b8063938e3d7b116100d1578063938e3d7b1461045857806395d89b41146104785780639bcf7a151461048d578063a22cb465146104ad57600080fd5b806363b45e2d146103fb5780636b20c454146104105780638da5cb5b1461043057600080fd5b80632bc43fd9116101645780634bbb1abf1161013e5780634bbb1abf1461034c5780634cc157df1461036c5780634e1273f4146103ae578063600dd5ea146103db57600080fd5b80632bc43fd9146103045780632eb2c2d6146103175780633b1475a71461033757600080fd5b80630e89341c116101a05780630e89341c1461026357806313af4035146102835780632419f51b146102a55780632a55205a146102c557600080fd5b8062fdd58e146101c657806301ffc9a71461021157806306fdde0314610241575b600080fd5b3480156101d257600080fd5b506101fe6101e136600461261d565b600260209081526000928352604080842090915290825290205481565b6040519081526020015b60405180910390f35b34801561021d57600080fd5b5061023161022c36600461265d565b610602565b6040519015158152602001610208565b34801561024d57600080fd5b5061025661066f565b60405161020891906126d2565b34801561026f57600080fd5b5061025661027e3660046126e5565b6106fd565b34801561028f57600080fd5b506102a361029e3660046126fe565b61073e565b005b3480156102b157600080fd5b506101fe6102c03660046126e5565b610794565b3480156102d157600080fd5b506102e56102e0366004612719565b610802565b604080516001600160a01b039093168352602083019190915201610208565b6102a361031236600461273b565b61083f565b34801561032357600080fd5b506102a36103323660046128c4565b610938565b34801561034357600080fd5b50600b546101fe565b34801561035857600080fd5b506102a361036736600461273b565b505050565b34801561037857600080fd5b5061038c6103873660046126e5565b6109c7565b604080516001600160a01b03909316835261ffff909116602083015201610208565b3480156103ba57600080fd5b506103ce6103c936600461296e565b610a32565b6040516102089190612a74565b3480156103e757600080fd5b506102a36103f636600461261d565b610b69565b34801561040757600080fd5b506009546101fe565b34801561041c57600080fd5b506102a361042b366004612a87565b610bbc565b34801561043c57600080fd5b506006546040516001600160a01b039091168152602001610208565b34801561046457600080fd5b506102a3610473366004612afb565b610d72565b34801561048457600080fd5b50610256610dc0565b34801561049957600080fd5b506102a36104a8366004612b44565b610dcd565b3480156104b957600080fd5b506102a36104c8366004612b79565b610e1d565b3480156104d957600080fd5b506104ed6104e8366004612bb5565b610ed6565b6040516102089190612c2a565b34801561050657600080fd5b506007546001600160a01b03811690600160a01b900461ffff1661038c565b34801561053157600080fd5b506101fe6105403660046126e5565b600d6020526000908152604090205481565b34801561055e57600080fd5b506101fe61056d366004612cd5565b610fcb565b34801561057e57600080fd5b506102566110f6565b34801561059357600080fd5b506102316105a2366004612d4f565b600360209081526000928352604080842090915290825290205460ff1681565b3480156105ce57600080fd5b506102a36105dd366004612d82565b611103565b3480156105ee57600080fd5b506102a36105fd36600461273b565b61118b565b60006301ffc9a760e01b6001600160e01b0319831614806106335750636cdb3d1360e11b6001600160e01b03198316145b8061064e57506303a24d0760e21b6001600160e01b03198316145b8061066957506001600160e01b0319821663152a902d60e11b145b92915050565b6000805461067c90612de7565b80601f01602080910402602001604051908101604052809291908181526020018280546106a890612de7565b80156106f55780601f106106ca576101008083540402835291602001916106f5565b820191906000526020600020905b8154815290600101906020018083116106d857829003601f168201915b505050505081565b6060600061070a83611286565b90508061071684611430565b604051602001610727929190612e22565b604051602081830303815290604052915050919050565b61074661154e565b6107885760405162461bcd60e51b815260206004820152600e60248201526d139bdd08185d5d1a1bdc9a5e995960921b60448201526064015b60405180910390fd5b6107918161157b565b50565b600061079f60095490565b82106107dd5760405162461bcd60e51b815260206004820152600d60248201526c092dcecc2d8d2c840d2dcc8caf609b1b604482015260640161077f565b600982815481106107f0576107f0612e51565b90600052602060002001549050919050565b600080600080610811866109c7565b90945084925061ffff16905061271061082a8287612e7d565b6108349190612eb2565b925050509250929050565b6002600c5414156108925760405162461bcd60e51b815260206004820152601f60248201527f5265656e7472616e637947756172643a207265656e7472616e742063616c6c00604482015260640161077f565b6002600c55600b5482106108d55760405162461bcd60e51b815260206004820152600a6024820152691a5b9d985b1a59081a5960b21b604482015260640161077f565b6108e08383836115da565b81836001600160a01b0316336001600160a01b03167fff097c7d8b1957a4ff09ef1361b5fb54dcede3941ba836d0beb9d10bec725de68460405161092691815260200190565b60405180910390a450506001600c5550565b6001600160a01b03851633148061097257506001600160a01b038516600090815260036020908152604080832033845290915290205460ff165b6109b35760405162461bcd60e51b81526020600482015260126024820152710853d5d3915497d3d497d054141493d5915160721b604482015260640161077f565b6109c085858585856115f5565b5050505050565b6000818152600860209081526040808320815180830190925280546001600160a01b031680835260019091015492820192909252829115610a0e5780516020820151610a28565b6007546001600160a01b03811690600160a01b900461ffff165b9250925050915091565b60608151835114610a775760405162461bcd60e51b815260206004820152600f60248201526e0988a9c8ea890be9a92a69a82a8869608b1b604482015260640161077f565b6000835167ffffffffffffffff811115610a9357610a9361276e565b604051908082528060200260200182016040528015610abc578160200160208202803683370190505b50905060005b8451811015610b615760026000868381518110610ae157610ae1612e51565b60200260200101516001600160a01b03166001600160a01b031681526020019081526020016000206000858381518110610b1d57610b1d612e51565b6020026020010151815260200190815260200160002054828281518110610b4657610b46612e51565b6020908102919091010152610b5a81612ec6565b9050610ac2565b509392505050565b610b7161154e565b610bae5760405162461bcd60e51b815260206004820152600e60248201526d139bdd08185d5d1a1bdc9a5e995960921b604482015260640161077f565b610bb88282611814565b5050565b336001600160a01b038416811480610bf957506001600160a01b0380851660009081526003602090815260408083209385168352929052205460ff165b610c395760405162461bcd60e51b81526020600482015260116024820152702ab730b8383937bb32b21031b0b63632b960791b604482015260640161077f565b8151835114610c8a5760405162461bcd60e51b815260206004820152600f60248201527f4c656e677468206d69736d617463680000000000000000000000000000000000604482015260640161077f565b60005b8351811015610d6057828181518110610ca857610ca8612e51565b602002602001015160026000876001600160a01b03166001600160a01b031681526020019081526020016000206000868481518110610ce957610ce9612e51565b60200260200101518152602001908152602001600020541015610d4e5760405162461bcd60e51b815260206004820152601760248201527f4e6f7420656e6f75676820746f6b656e73206f776e6564000000000000000000604482015260640161077f565b610d59600182612ee1565b9050610c8d565b50610d6c8484846118c9565b50505050565b610d7a61154e565b610db75760405162461bcd60e51b815260206004820152600e60248201526d139bdd08185d5d1a1bdc9a5e995960921b604482015260640161077f565b61079181611ac3565b6001805461067c90612de7565b610dd561154e565b610e125760405162461bcd60e51b815260206004820152600e60248201526d139bdd08185d5d1a1bdc9a5e995960921b604482015260640161077f565b610367838383611ba5565b336001600160a01b038316811415610e685760405162461bcd60e51b815260206004820152600e60248201526d20a8282927ab24a723afa9a2a62360911b604482015260640161077f565b6001600160a01b03818116600081815260036020908152604080832094881680845294825291829020805460ff191687151590811790915591519182527f17307eab39ab6107e8899845ad3d59bd9653f200f220920489ca2b5937696c3191015b60405180910390a3505050565b60608167ffffffffffffffff811115610ef157610ef161276e565b604051908082528060200260200182016040528015610f2457816020015b6060815260200190600190039081610f0f5790505b50905060005b82811015610fc457610f9430858584818110610f4857610f48612e51565b9050602002810190610f5a9190612ef9565b8080601f016020809104026020016040519081016040528093929190818152602001838380828437600092019190915250611c7392505050565b828281518110610fa657610fa6612e51565b60200260200101819052508080610fbc90612ec6565b915050610f2a565b5092915050565b6000610fd561154e565b6110125760405162461bcd60e51b815260206004820152600e60248201526d139bdd08185d5d1a1bdc9a5e995960921b604482015260640161077f565b856110475760405162461bcd60e51b81526020600482015260056024820152640c08185b5d60da1b604482015260640161077f565b6000600b54905061108f818888888080601f016020809104026020016040519081016040528093929190818152602001838380828437600092019190915250611c9f92505050565b600b919091559150807f2a0365091ef1a40953c670dce28177e37520648a6fdc91506bffac0ab045570d60016110c58a84612ee1565b6110cf9190612f40565b888888886040516110e4959493929190612f80565b60405180910390a25095945050505050565b6005805461067c90612de7565b6001600160a01b03851633148061113d57506001600160a01b038516600090815260036020908152604080832033845290915290205460ff165b61117e5760405162461bcd60e51b81526020600482015260126024820152710853d5d3915497d3d497d054141493d5915160721b604482015260640161077f565b6109c08585858585611d0c565b336001600160a01b0384168114806111c857506001600160a01b0380851660009081526003602090815260408083209385168352929052205460ff165b6112085760405162461bcd60e51b81526020600482015260116024820152702ab730b8383937bb32b21031b0b63632b960791b604482015260640161077f565b6001600160a01b038416600090815260026020908152604080832086845290915290205482111561127b5760405162461bcd60e51b815260206004820152601760248201527f4e6f7420656e6f75676820746f6b656e73206f776e6564000000000000000000604482015260640161077f565b610d6c848484611e8c565b6060600061129360095490565b9050600060098054806020026020016040519081016040528092919081815260200182805480156112e357602002820191906000526020600020905b8154815260200190600101908083116112cf575b5050505050905060005b828110156113e75781818151811061130757611307612e51565b60200260200101518510156113d557600a600083838151811061132c5761132c612e51565b60200260200101518152602001908152602001600020805461134d90612de7565b80601f016020809104026020016040519081016040528092919081815260200182805461137990612de7565b80156113c65780601f1061139b576101008083540402835291602001916113c6565b820191906000526020600020905b8154815290600101906020018083116113a957829003601f168201915b50505050509350505050919050565b6113e0600182612ee1565b90506112ed565b5060405162461bcd60e51b815260206004820152600f60248201527f496e76616c696420746f6b656e49640000000000000000000000000000000000604482015260640161077f565b6060816114545750506040805180820190915260018152600360fc1b602082015290565b8160005b811561147e578061146881612ec6565b91506114779050600a83612eb2565b9150611458565b60008167ffffffffffffffff8111156114995761149961276e565b6040519080825280601f01601f1916602001820160405280156114c3576020820181803683370190505b5090505b8415611546576114d8600183612f40565b91506114e5600a86612fb9565b6114f0906030612ee1565b60f81b81838151811061150557611505612e51565b60200101907effffffffffffffffffffffffffffffffffffffffffffffffffffffffffffff1916908160001a90535061153f600a86612eb2565b94506114c7565b949350505050565b60006115626006546001600160a01b031690565b6001600160a01b0316336001600160a01b031614905090565b600680546001600160a01b0383811673ffffffffffffffffffffffffffffffffffffffff19831681179093556040519116919082907f8292fce18fa69edf4db7b94ea2e58241df0ae57f97e0a6c9b29067028bf92d7690600090a35050565b61036783838360405180602001604052806000815250611fd4565b81518351146116385760405162461bcd60e51b815260206004820152600f60248201526e0988a9c8ea890be9a92a69a82a8869608b1b604482015260640161077f565b6001600160a01b03841661167d5760405162461bcd60e51b815260206004820152600c60248201526b2a27afad22a927afa0a2222960a11b604482015260640161077f565b3361168c8187878787876120bd565b60005b84518110156117a65760008582815181106116ac576116ac612e51565b6020026020010151905060008583815181106116ca576116ca612e51565b6020908102919091018101516001600160a01b038b16600090815260028352604080822086835290935291909120549091508181101561173f5760405162461bcd60e51b815260206004820152601060248201526f125394d551919250d251539517d0905360821b604482015260640161077f565b6001600160a01b03808b16600090815260026020818152604080842088855282528084208787039055938d1683529081528282208683529052908120805484929061178b908490612ee1565b925050819055505050508061179f90612ec6565b905061168f565b50846001600160a01b0316866001600160a01b0316826001600160a01b03167f4a39dc06d4c0dbc64b70af90fd698a233a518aa5d07e595d983b8c0526c8f7fb87876040516117f6929190612fcd565b60405180910390a461180c8187878787876121c9565b505050505050565b6127108111156118585760405162461bcd60e51b815260206004820152600f60248201526e45786365656473206d61782062707360881b604482015260640161077f565b600780546001600160a01b03841675ffffffffffffffffffffffffffffffffffffffffffff199091168117600160a01b61ffff851602179091556040518281527f90d7ec04bcb8978719414f82e52e4cb651db41d0e6f8cea6118c2191e6183adb9060200160405180910390a25050565b6001600160a01b0383166119105760405162461bcd60e51b815260206004820152600e60248201526d232927a6afad22a927afa0a2222960911b604482015260640161077f565b80518251146119535760405162461bcd60e51b815260206004820152600f60248201526e0988a9c8ea890be9a92a69a82a8869608b1b604482015260640161077f565b6000339050611976818560008686604051806020016040528060008152506120bd565b60005b8351811015611a6457600084828151811061199657611996612e51565b6020026020010151905060008483815181106119b4576119b4612e51565b6020908102919091018101516001600160a01b0389166000908152600283526040808220868352909352919091205490915081811015611a295760405162461bcd60e51b815260206004820152601060248201526f125394d551919250d251539517d0905360821b604482015260640161077f565b6001600160a01b0388166000908152600260209081526040808320958352949052929092209103905580611a5c81612ec6565b915050611979565b5060006001600160a01b0316846001600160a01b0316826001600160a01b03167f4a39dc06d4c0dbc64b70af90fd698a233a518aa5d07e595d983b8c0526c8f7fb8686604051611ab5929190612fcd565b60405180910390a450505050565b600060058054611ad290612de7565b80601f0160208091040260200160405190810160405280929190818152602001828054611afe90612de7565b8015611b4b5780601f10611b2057610100808354040283529160200191611b4b565b820191906000526020600020905b815481529060010190602001808311611b2e57829003601f168201915b50508551939450611b6793600593506020870192509050612568565b507fc9c7c3fe08b88b4df9d4d47ef47d2c43d55c025a0ba88ca442580ed9e7348a168183604051611b99929190612ffb565b60405180910390a15050565b612710811115611be95760405162461bcd60e51b815260206004820152600f60248201526e45786365656473206d61782062707360881b604482015260640161077f565b6040805180820182526001600160a01b0384811680835260208084018681526000898152600883528690209451855473ffffffffffffffffffffffffffffffffffffffff1916941693909317845591516001909301929092559151838152909185917f7365cf4122f072a3365c20d54eff9b38d73c096c28e1892ec8f5b0e403a0f12d9101610ec9565b6060611c9883836040518060600160405280602781526020016131956027913961232a565b9392505050565b600080611cac8486612ee1565b60098054600181019091557f6e1540171b6c0c960b71a7020d9f60077f6af931a8bbf590da0223dacf75c7af018190556000818152600a602090815260409091208551929450849350611d03929091860190612568565b50935093915050565b6001600160a01b038416611d515760405162461bcd60e51b815260206004820152600c60248201526b2a27afad22a927afa0a2222960a11b604482015260640161077f565b33611d70818787611d6188612407565b611d6a88612407565b876120bd565b6001600160a01b038616600090815260026020908152604080832087845290915290205483811015611dd75760405162461bcd60e51b815260206004820152601060248201526f125394d551919250d251539517d0905360821b604482015260640161077f565b6001600160a01b0380881660009081526002602081815260408084208a855282528084208987039055938a16835290815282822088835290529081208054869290611e23908490612ee1565b909155505060408051868152602081018690526001600160a01b03808916928a821692918616917fc3d58168c5ae7397731d063d5bbf3d657854427343f4c083240f7aacaa2d0f62910160405180910390a4611e83828888888888612452565b50505050505050565b6001600160a01b038316611ed35760405162461bcd60e51b815260206004820152600e60248201526d232927a6afad22a927afa0a2222960911b604482015260640161077f565b33611f0281856000611ee487612407565b611eed87612407565b604051806020016040528060008152506120bd565b6001600160a01b038416600090815260026020908152604080832086845290915290205482811015611f695760405162461bcd60e51b815260206004820152601060248201526f125394d551919250d251539517d0905360821b604482015260640161077f565b6001600160a01b03858116600081815260026020908152604080832089845282528083208887039055805189815291820188905291938616917fc3d58168c5ae7397731d063d5bbf3d657854427343f4c083240f7aacaa2d0f62910160405180910390a45050505050565b6001600160a01b0384166120195760405162461bcd60e51b815260206004820152600c60248201526b2a27afad22a927afa0a2222960a11b604482015260640161077f565b3361202a81600087611d6188612407565b6001600160a01b03851660009081526002602090815260408083208784529091528120805485929061205d908490612ee1565b909155505060408051858152602081018590526001600160a01b0380881692600092918516917fc3d58168c5ae7397731d063d5bbf3d657854427343f4c083240f7aacaa2d0f62910160405180910390a46109c081600087878787612452565b6001600160a01b0385166121445760005b8351811015612142578281815181106120e9576120e9612e51565b6020026020010151600d600086848151811061210757612107612e51565b60200260200101518152602001908152602001600020600082825461212c9190612ee1565b9091555061213b905081612ec6565b90506120ce565b505b6001600160a01b03841661180c5760005b8351811015611e835782818151811061217057612170612e51565b6020026020010151600d600086848151811061218e5761218e612e51565b6020026020010151815260200190815260200160002060008282546121b39190612f40565b909155506121c2905081612ec6565b9050612155565b6001600160a01b0384163b1561180c5760405163bc197c8160e01b81526001600160a01b0385169063bc197c819061220d9089908990889088908890600401613020565b6020604051808303816000875af1925050508015612248575060408051601f3d908101601f1916820190925261224591810190613072565b60015b6122d85761225461308f565b806308c379a0141561228e57506122696130ab565b806122745750612290565b8060405162461bcd60e51b815260040161077f91906126d2565b505b60405162461bcd60e51b815260206004820152601060248201527f2145524331313535524543454956455200000000000000000000000000000000604482015260640161077f565b6001600160e01b0319811663bc197c8160e01b14611e835760405162461bcd60e51b815260206004820152600f60248201526e1513d2d15394d7d491529150d51151608a1b604482015260640161077f565b60606001600160a01b0384163b6123925760405162461bcd60e51b815260206004820152602660248201527f416464726573733a2064656c65676174652063616c6c20746f206e6f6e2d636f6044820152651b9d1c9858dd60d21b606482015260840161077f565b600080856001600160a01b0316856040516123ad9190613135565b600060405180830381855af49150503d80600081146123e8576040519150601f19603f3d011682016040523d82523d6000602084013e6123ed565b606091505b50915091506123fd82828661252f565b9695505050505050565b6040805160018082528183019092526060916000919060208083019080368337019050509050828160008151811061244157612441612e51565b602090810291909101015292915050565b6001600160a01b0384163b1561180c5760405163f23a6e6160e01b81526001600160a01b0385169063f23a6e61906124969089908990889088908890600401613151565b6020604051808303816000875af19250505080156124d1575060408051601f3d908101601f191682019092526124ce91810190613072565b60015b6124dd5761225461308f565b6001600160e01b0319811663f23a6e6160e01b14611e835760405162461bcd60e51b815260206004820152600f60248201526e1513d2d15394d7d491529150d51151608a1b604482015260640161077f565b6060831561253e575081611c98565b82511561254e5782518084602001fd5b8160405162461bcd60e51b815260040161077f91906126d2565b82805461257490612de7565b90600052602060002090601f01602090048101928261259657600085556125dc565b82601f106125af57805160ff19168380011785556125dc565b828001600101855582156125dc579182015b828111156125dc5782518255916020019190600101906125c1565b506125e89291506125ec565b5090565b5b808211156125e857600081556001016125ed565b80356001600160a01b038116811461261857600080fd5b919050565b6000806040838503121561263057600080fd5b61263983612601565b946020939093013593505050565b6001600160e01b03198116811461079157600080fd5b60006020828403121561266f57600080fd5b8135611c9881612647565b60005b8381101561269557818101518382015260200161267d565b83811115610d6c5750506000910152565b600081518084526126be81602086016020860161267a565b601f01601f19169290920160200192915050565b602081526000611c9860208301846126a6565b6000602082840312156126f757600080fd5b5035919050565b60006020828403121561271057600080fd5b611c9882612601565b6000806040838503121561272c57600080fd5b50508035926020909101359150565b60008060006060848603121561275057600080fd5b61275984612601565b95602085013595506040909401359392505050565b634e487b7160e01b600052604160045260246000fd5b601f8201601f1916810167ffffffffffffffff811182821017156127aa576127aa61276e565b6040525050565b600067ffffffffffffffff8211156127cb576127cb61276e565b5060051b60200190565b600082601f8301126127e657600080fd5b813560206127f3826127b1565b6040516128008282612784565b83815260059390931b850182019282810191508684111561282057600080fd5b8286015b8481101561283b5780358352918301918301612824565b509695505050505050565b600067ffffffffffffffff8311156128605761286061276e565b604051612877601f8501601f191660200182612784565b80915083815284848401111561288c57600080fd5b83836020830137600060208583010152509392505050565b600082601f8301126128b557600080fd5b611c9883833560208501612846565b600080600080600060a086880312156128dc57600080fd5b6128e586612601565b94506128f360208701612601565b9350604086013567ffffffffffffffff8082111561291057600080fd5b61291c89838a016127d5565b9450606088013591508082111561293257600080fd5b61293e89838a016127d5565b9350608088013591508082111561295457600080fd5b50612961888289016128a4565b9150509295509295909350565b6000806040838503121561298157600080fd5b823567ffffffffffffffff8082111561299957600080fd5b818501915085601f8301126129ad57600080fd5b813560206129ba826127b1565b6040516129c78282612784565b83815260059390931b85018201928281019150898411156129e757600080fd5b948201945b83861015612a0c576129fd86612601565b825294820194908201906129ec565b96505086013592505080821115612a2257600080fd5b50612a2f858286016127d5565b9150509250929050565b600081518084526020808501945080840160005b83811015612a6957815187529582019590820190600101612a4d565b509495945050505050565b602081526000611c986020830184612a39565b600080600060608486031215612a9c57600080fd5b612aa584612601565b9250602084013567ffffffffffffffff80821115612ac257600080fd5b612ace878388016127d5565b93506040860135915080821115612ae457600080fd5b50612af1868287016127d5565b9150509250925092565b600060208284031215612b0d57600080fd5b813567ffffffffffffffff811115612b2457600080fd5b8201601f81018413612b3557600080fd5b61154684823560208401612846565b600080600060608486031215612b5957600080fd5b83359250612b6960208501612601565b9150604084013590509250925092565b60008060408385031215612b8c57600080fd5b612b9583612601565b915060208301358015158114612baa57600080fd5b809150509250929050565b60008060208385031215612bc857600080fd5b823567ffffffffffffffff80821115612be057600080fd5b818501915085601f830112612bf457600080fd5b813581811115612c0357600080fd5b8660208260051b8501011115612c1857600080fd5b60209290920196919550909350505050565b6000602080830181845280855180835260408601915060408160051b870101925083870160005b82811015612c7f57603f19888603018452612c6d8583516126a6565b94509285019290850190600101612c51565b5092979650505050505050565b60008083601f840112612c9e57600080fd5b50813567ffffffffffffffff811115612cb657600080fd5b602083019150836020828501011115612cce57600080fd5b9250929050565b600080600080600060608688031215612ced57600080fd5b85359450602086013567ffffffffffffffff80821115612d0c57600080fd5b612d1889838a01612c8c565b90965094506040880135915080821115612d3157600080fd5b50612d3e88828901612c8c565b969995985093965092949392505050565b60008060408385031215612d6257600080fd5b612d6b83612601565b9150612d7960208401612601565b90509250929050565b600080600080600060a08688031215612d9a57600080fd5b612da386612601565b9450612db160208701612601565b93506040860135925060608601359150608086013567ffffffffffffffff811115612ddb57600080fd5b612961888289016128a4565b600181811c90821680612dfb57607f821691505b60208210811415612e1c57634e487b7160e01b600052602260045260246000fd5b50919050565b60008351612e3481846020880161267a565b835190830190612e4881836020880161267a565b01949350505050565b634e487b7160e01b600052603260045260246000fd5b634e487b7160e01b600052601160045260246000fd5b6000816000190483118215151615612e9757612e97612e67565b500290565b634e487b7160e01b600052601260045260246000fd5b600082612ec157612ec1612e9c565b500490565b6000600019821415612eda57612eda612e67565b5060010190565b60008219821115612ef457612ef4612e67565b500190565b6000808335601e19843603018112612f1057600080fd5b83018035915067ffffffffffffffff821115612f2b57600080fd5b602001915036819003821315612cce57600080fd5b600082821015612f5257612f52612e67565b500390565b81835281816020850137506000828201602090810191909152601f909101601f19169091010190565b858152606060208201526000612f9a606083018688612f57565b8281036040840152612fad818587612f57565b98975050505050505050565b600082612fc857612fc8612e9c565b500690565b604081526000612fe06040830185612a39565b8281036020840152612ff28185612a39565b95945050505050565b60408152600061300e60408301856126a6565b8281036020840152612ff281856126a6565b60006001600160a01b03808816835280871660208401525060a0604083015261304c60a0830186612a39565b828103606084015261305e8186612a39565b90508281036080840152612fad81856126a6565b60006020828403121561308457600080fd5b8151611c9881612647565b600060033d11156130a85760046000803e5060005160e01c5b90565b600060443d10156130b95790565b6040516003193d81016004833e81513d67ffffffffffffffff81602484011181841117156130e957505050505090565b82850191508151818111156131015750505050505090565b843d870101602082850101111561311b5750505050505090565b61312a60208286010187612784565b509095945050505050565b6000825161314781846020870161267a565b9190910192915050565b60006001600160a01b03808816835280871660208401525084604083015283606083015260a0608083015261318960a08301846126a6565b97965050505050505056fe416464726573733a206c6f772d6c6576656c2064656c65676174652063616c6c206661696c6564a26469706673582212205409a6d5ed95361e4da6f603df75a11c3c48bdb704f457d91cdc9b44b56ed7bb64736f6c634300080c0033",
  "linkReferences": {},
  "deployedLinkReferences": {}
}