{
  "_format": "hh-sol-artifact-1",
  "contractName": "ERC20Drop",
  "sourceName": "contracts/base/ERC20Drop.sol",
  "abi": [
    {
      "inputs": [
        {
          "internalType": "string",
          "name": "_name",
          "type": "string"
        },
        {
          "internalType": "string",
          "name": "_symbol",
          "type": "string"
        },
        {
          "internalType": "address",
          "name": "_primarySaleRecipient",
          "type": "address"
        }
      ],
      "stateMutability": "nonpayable",
      "type": "constructor"
    },
    {
      "anonymous": false,
      "inputs": [
        {
          "indexed": true,
          "internalType": "address",
          "name": "owner",
          "type": "address"
        },
        {
          "indexed": true,
          "internalType": "address",
          "name": "spender",
          "type": "address"
        },
        {
          "indexed": false,
          "internalType": "uint256",
          "name": "value",
          "type": "uint256"
        }
      ],
      "name": "Approval",
      "type": "event"
    },
    {
      "anonymous": false,
      "inputs": [
        {
          "components": [
            {
              "internalType": "uint256",
              "name": "startTimestamp",
              "type": "uint256"
            },
            {
              "internalType": "uint256",
              "name": "maxClaimableSupply",
              "type": "uint256"
            },
            {
              "internalType": "uint256",
              "name": "supplyClaimed",
              "type": "uint256"
            },
            {
              "internalType": "uint256",
              "name": "quantityLimitPerWallet",
              "type": "uint256"
            },
            {
              "internalType": "bytes32",
              "name": "merkleRoot",
              "type": "bytes32"
            },
            {
              "internalType": "uint256",
              "name": "pricePerToken",
              "type": "uint256"
            },
            {
              "internalType": "address",
              "name": "currency",
              "type": "address"
            },
            {
              "internalType": "string",
              "name": "metadata",
              "type": "string"
            }
          ],
          "indexed": false,
          "internalType": "struct IClaimCondition.ClaimCondition",
          "name": "condition",
          "type": "tuple"
        },
        {
          "indexed": false,
          "internalType": "bool",
          "name": "resetEligibility",
          "type": "bool"
        }
      ],
      "name": "ClaimConditionUpdated",
      "type": "event"
    },
    {
      "anonymous": false,
      "inputs": [
        {
          "indexed": false,
          "internalType": "string",
          "name": "prevURI",
          "type": "string"
        },
        {
          "indexed": false,
          "internalType": "string",
          "name": "newURI",
          "type": "string"
        }
      ],
      "name": "ContractURIUpdated",
      "type": "event"
    },
    {
      "anonymous": false,
      "inputs": [
        {
          "indexed": true,
          "internalType": "address",
          "name": "prevOwner",
          "type": "address"
        },
        {
          "indexed": true,
          "internalType": "address",
          "name": "newOwner",
          "type": "address"
        }
      ],
      "name": "OwnerUpdated",
      "type": "event"
    },
    {
      "anonymous": false,
      "inputs": [
        {
          "indexed": true,
          "internalType": "address",
          "name": "recipient",
          "type": "address"
        }
      ],
      "name": "PrimarySaleRecipientUpdated",
      "type": "event"
    },
    {
      "anonymous": false,
      "inputs": [
        {
          "indexed": true,
          "internalType": "address",
          "name": "claimer",
          "type": "address"
        },
        {
          "indexed": true,
          "internalType": "address",
          "name": "receiver",
          "type": "address"
        },
        {
          "indexed": true,
          "internalType": "uint256",
          "name": "startTokenId",
          "type": "uint256"
        },
        {
          "indexed": false,
          "internalType": "uint256",
          "name": "quantityClaimed",
          "type": "uint256"
        }
      ],
      "name": "TokensClaimed",
      "type": "event"
    },
    {
      "anonymous": false,
      "inputs": [
        {
          "indexed": true,
          "internalType": "address",
          "name": "from",
          "type": "address"
        },
        {
          "indexed": true,
          "internalType": "address",
          "name": "to",
          "type": "address"
        },
        {
          "indexed": false,
          "internalType": "uint256",
          "name": "value",
          "type": "uint256"
        }
      ],
      "name": "Transfer",
      "type": "event"
    },
    {
      "inputs": [],
      "name": "DOMAIN_SEPARATOR",
      "outputs": [
        {
          "internalType": "bytes32",
          "name": "",
          "type": "bytes32"
        }
      ],
      "stateMutability": "view",
      "type": "function"
    },
    {
      "inputs": [
        {
          "internalType": "address",
          "name": "owner",
          "type": "address"
        },
        {
          "internalType": "address",
          "name": "spender",
          "type": "address"
        }
      ],
      "name": "allowance",
      "outputs": [
        {
          "internalType": "uint256",
          "name": "",
          "type": "uint256"
        }
      ],
      "stateMutability": "view",
      "type": "function"
    },
    {
      "inputs": [
        {
          "internalType": "address",
          "name": "spender",
          "type": "address"
        },
        {
          "internalType": "uint256",
          "name": "amount",
          "type": "uint256"
        }
      ],
      "name": "approve",
      "outputs": [
        {
          "internalType": "bool",
          "name": "",
          "type": "bool"
        }
      ],
      "stateMutability": "nonpayable",
      "type": "function"
    },
    {
      "inputs": [
        {
          "internalType": "address",
          "name": "account",
          "type": "address"
        }
      ],
      "name": "balanceOf",
      "outputs": [
        {
          "internalType": "uint256",
          "name": "",
          "type": "uint256"
        }
      ],
      "stateMutability": "view",
      "type": "function"
    },
    {
      "inputs": [
        {
          "internalType": "uint256",
          "name": "_amount",
          "type": "uint256"
        }
      ],
      "name": "burn",
      "outputs": [],
      "stateMutability": "nonpayable",
      "type": "function"
    },
    {
      "inputs": [
        {
          "internalType": "address",
          "name": "_receiver",
          "type": "address"
        },
        {
          "internalType": "uint256",
          "name": "_quantity",
          "type": "uint256"
        },
        {
          "internalType": "address",
          "name": "_currency",
          "type": "address"
        },
        {
          "internalType": "uint256",
          "name": "_pricePerToken",
          "type": "uint256"
        },
        {
          "components": [
            {
              "internalType": "bytes32[]",
              "name": "proof",
              "type": "bytes32[]"
            },
            {
              "internalType": "uint256",
              "name": "quantityLimitPerWallet",
              "type": "uint256"
            },
            {
              "internalType": "uint256",
              "name": "pricePerToken",
              "type": "uint256"
            },
            {
              "internalType": "address",
              "name": "currency",
              "type": "address"
            }
          ],
          "internalType": "struct IDropSinglePhase.AllowlistProof",
          "name": "_allowlistProof",
          "type": "tuple"
        },
        {
          "internalType": "bytes",
          "name": "_data",
          "type": "bytes"
        }
      ],
      "name": "claim",
      "outputs": [],
      "stateMutability": "payable",
      "type": "function"
    },
    {
      "inputs": [],
      "name": "claimCondition",
      "outputs": [
        {
          "internalType": "uint256",
          "name": "startTimestamp",
          "type": "uint256"
        },
        {
          "internalType": "uint256",
          "name": "maxClaimableSupply",
          "type": "uint256"
        },
        {
          "internalType": "uint256",
          "name": "supplyClaimed",
          "type": "uint256"
        },
        {
          "internalType": "uint256",
          "name": "quantityLimitPerWallet",
          "type": "uint256"
        },
        {
          "internalType": "bytes32",
          "name": "merkleRoot",
          "type": "bytes32"
        },
        {
          "internalType": "uint256",
          "name": "pricePerToken",
          "type": "uint256"
        },
        {
          "internalType": "address",
          "name": "currency",
          "type": "address"
        },
        {
          "internalType": "string",
          "name": "metadata",
          "type": "string"
        }
      ],
      "stateMutability": "view",
      "type": "function"
    },
    {
      "inputs": [],
      "name": "contractURI",
      "outputs": [
        {
          "internalType": "string",
          "name": "",
          "type": "string"
        }
      ],
      "stateMutability": "view",
      "type": "function"
    },
    {
      "inputs": [],
      "name": "decimals",
      "outputs": [
        {
          "internalType": "uint8",
          "name": "",
          "type": "uint8"
        }
      ],
      "stateMutability": "view",
      "type": "function"
    },
    {
      "inputs": [
        {
          "internalType": "address",
          "name": "spender",
          "type": "address"
        },
        {
          "internalType": "uint256",
          "name": "subtractedValue",
          "type": "uint256"
        }
      ],
      "name": "decreaseAllowance",
      "outputs": [
        {
          "internalType": "bool",
          "name": "",
          "type": "bool"
        }
      ],
      "stateMutability": "nonpayable",
      "type": "function"
    },
    {
      "inputs": [
        {
          "internalType": "address",
          "name": "_claimer",
          "type": "address"
        }
      ],
      "name": "getSupplyClaimedByWallet",
      "outputs": [
        {
          "internalType": "uint256",
          "name": "",
          "type": "uint256"
        }
      ],
      "stateMutability": "view",
      "type": "function"
    },
    {
      "inputs": [
        {
          "internalType": "address",
          "name": "spender",
          "type": "address"
        },
        {
          "internalType": "uint256",
          "name": "addedValue",
          "type": "uint256"
        }
      ],
      "name": "increaseAllowance",
      "outputs": [
        {
          "internalType": "bool",
          "name": "",
          "type": "bool"
        }
      ],
      "stateMutability": "nonpayable",
      "type": "function"
    },
    {
      "inputs": [
        {
          "internalType": "bytes[]",
          "name": "data",
          "type": "bytes[]"
        }
      ],
      "name": "multicall",
      "outputs": [
        {
          "internalType": "bytes[]",
          "name": "results",
          "type": "bytes[]"
        }
      ],
      "stateMutability": "nonpayable",
      "type": "function"
    },
    {
      "inputs": [],
      "name": "name",
      "outputs": [
        {
          "internalType": "string",
          "name": "",
          "type": "string"
        }
      ],
      "stateMutability": "view",
      "type": "function"
    },
    {
      "inputs": [
        {
          "internalType": "address",
          "name": "owner",
          "type": "address"
        }
      ],
      "name": "nonces",
      "outputs": [
        {
          "internalType": "uint256",
          "name": "",
          "type": "uint256"
        }
      ],
      "stateMutability": "view",
      "type": "function"
    },
    {
      "inputs": [],
      "name": "owner",
      "outputs": [
        {
          "internalType": "address",
          "name": "",
          "type": "address"
        }
      ],
      "stateMutability": "view",
      "type": "function"
    },
    {
      "inputs": [
        {
          "internalType": "address",
          "name": "owner",
          "type": "address"
        },
        {
          "internalType": "address",
          "name": "spender",
          "type": "address"
        },
        {
          "internalType": "uint256",
          "name": "value",
          "type": "uint256"
        },
        {
          "internalType": "uint256",
          "name": "deadline",
          "type": "uint256"
        },
        {
          "internalType": "uint8",
          "name": "v",
          "type": "uint8"
        },
        {
          "internalType": "bytes32",
          "name": "r",
          "type": "bytes32"
        },
        {
          "internalType": "bytes32",
          "name": "s",
          "type": "bytes32"
        }
      ],
      "name": "permit",
      "outputs": [],
      "stateMutability": "nonpayable",
      "type": "function"
    },
    {
      "inputs": [],
      "name": "primarySaleRecipient",
      "outputs": [
        {
          "internalType": "address",
          "name": "",
          "type": "address"
        }
      ],
      "stateMutability": "view",
      "type": "function"
    },
    {
      "inputs": [
        {
          "components": [
            {
              "internalType": "uint256",
              "name": "startTimestamp",
              "type": "uint256"
            },
            {
              "internalType": "uint256",
              "name": "maxClaimableSupply",
              "type": "uint256"
            },
            {
              "internalType": "uint256",
              "name": "supplyClaimed",
              "type": "uint256"
            },
            {
              "internalType": "uint256",
              "name": "quantityLimitPerWallet",
              "type": "uint256"
            },
            {
              "internalType": "bytes32",
              "name": "merkleRoot",
              "type": "bytes32"
            },
            {
              "internalType": "uint256",
              "name": "pricePerToken",
              "type": "uint256"
            },
            {
              "internalType": "address",
              "name": "currency",
              "type": "address"
            },
            {
              "internalType": "string",
              "name": "metadata",
              "type": "string"
            }
          ],
          "internalType": "struct IClaimCondition.ClaimCondition",
          "name": "_condition",
          "type": "tuple"
        },
        {
          "internalType": "bool",
          "name": "_resetClaimEligibility",
          "type": "bool"
        }
      ],
      "name": "setClaimConditions",
      "outputs": [],
      "stateMutability": "nonpayable",
      "type": "function"
    },
    {
      "inputs": [
        {
          "internalType": "string",
          "name": "_uri",
          "type": "string"
        }
      ],
      "name": "setContractURI",
      "outputs": [],
      "stateMutability": "nonpayable",
      "type": "function"
    },
    {
      "inputs": [
        {
          "internalType": "address",
          "name": "_newOwner",
          "type": "address"
        }
      ],
      "name": "setOwner",
      "outputs": [],
      "stateMutability": "nonpayable",
      "type": "function"
    },
    {
      "inputs": [
        {
          "internalType": "address",
          "name": "_saleRecipient",
          "type": "address"
        }
      ],
      "name": "setPrimarySaleRecipient",
      "outputs": [],
      "stateMutability": "nonpayable",
      "type": "function"
    },
    {
      "inputs": [],
      "name": "symbol",
      "outputs": [
        {
          "internalType": "string",
          "name": "",
          "type": "string"
        }
      ],
      "stateMutability": "view",
      "type": "function"
    },
    {
      "inputs": [],
      "name": "totalSupply",
      "outputs": [
        {
          "internalType": "uint256",
          "name": "",
          "type": "uint256"
        }
      ],
      "stateMutability": "view",
      "type": "function"
    },
    {
      "inputs": [
        {
          "internalType": "address",
          "name": "to",
          "type": "address"
        },
        {
          "internalType": "uint256",
          "name": "amount",
          "type": "uint256"
        }
      ],
      "name": "transfer",
      "outputs": [
        {
          "internalType": "bool",
          "name": "",
          "type": "bool"
        }
      ],
      "stateMutability": "nonpayable",
      "type": "function"
    },
    {
      "inputs": [
        {
          "internalType": "address",
          "name": "from",
          "type": "address"
        },
        {
          "internalType": "address",
          "name": "to",
          "type": "address"
        },
        {
          "internalType": "uint256",
          "name": "amount",
          "type": "uint256"
        }
      ],
      "name": "transferFrom",
      "outputs": [
        {
          "internalType": "bool",
          "name": "",
          "type": "bool"
        }
      ],
      "stateMutability": "nonpayable",
      "type": "function"
    },
    {
      "inputs": [
        {
          "internalType": "address",
          "name": "_claimer",
          "type": "address"
        },
        {
          "internalType": "uint256",
          "name": "_quantity",
          "type": "uint256"
        },
        {
          "internalType": "address",
          "name": "_currency",
          "type": "address"
        },
        {
          "internalType": "uint256",
          "name": "_pricePerToken",
          "type": "uint256"
        },
        {
          "components": [
            {
              "internalType": "bytes32[]",
              "name": "proof",
              "type": "bytes32[]"
            },
            {
              "internalType": "uint256",
              "name": "quantityLimitPerWallet",
              "type": "uint256"
            },
            {
              "internalType": "uint256",
              "name": "pricePerToken",
              "type": "uint256"
            },
            {
              "internalType": "address",
              "name": "currency",
              "type": "address"
            }
          ],
          "internalType": "struct IDropSinglePhase.AllowlistProof",
          "name": "_allowlistProof",
          "type": "tuple"
        }
      ],
      "name": "verifyClaim",
      "outputs": [],
      "stateMutability": "view",
      "type": "function"
    }
  ],
  "bytecode": "0x6101006040527f6e71edae12b1b97f4d1f60370fef10105fa2faae0126114a169c64845d6126c960e0523480156200003657600080fd5b50604051620034a2380380620034a2833981016040819052620000599162000405565b8282818181600590805190602001906200007592919062000292565b5080516200008b90600690602084019062000292565b50504660a052503060c052620000a0620000c5565b60805250620000b19050336200015c565b620000bc81620001ae565b505050620004cf565b60007f8b73c3c69bb8fe3d512ecc4cf759cc79239f7b179b0ffacaa9a75d522b39400f620000f2620001f8565b80516020918201206040805192830193909352918101919091527fc89efdaa54c0f20c7adf612882df0950f5a951637e0307cdcb4c672f298b8bc660608201524660808201523060a082015260c00160405160208183030381529060405280519060200120905090565b600180546001600160a01b038381166001600160a01b0319831681179093556040519116919082907f8292fce18fa69edf4db7b94ea2e58241df0ae57f97e0a6c9b29067028bf92d7690600090a35050565b600880546001600160a01b0319166001600160a01b0383169081179091556040517f299d17e95023f496e0ffc4909cff1a61f74bb5eb18de6f900f4155bfa1b3b33390600090a250565b606060058054620002099062000492565b80601f0160208091040260200160405190810160405280929190818152602001828054620002379062000492565b8015620002885780601f106200025c5761010080835404028352916020019162000288565b820191906000526020600020905b8154815290600101906020018083116200026a57829003601f168201915b5050505050905090565b828054620002a09062000492565b90600052602060002090601f016020900481019282620002c457600085556200030f565b82601f10620002df57805160ff19168380011785556200030f565b828001600101855582156200030f579182015b828111156200030f578251825591602001919060010190620002f2565b506200031d92915062000321565b5090565b5b808211156200031d576000815560010162000322565b634e487b7160e01b600052604160045260246000fd5b600082601f8301126200036057600080fd5b81516001600160401b03808211156200037d576200037d62000338565b604051601f8301601f19908116603f01168101908282118183101715620003a857620003a862000338565b81604052838152602092508683858801011115620003c557600080fd5b600091505b83821015620003e95785820183015181830184015290820190620003ca565b83821115620003fb5760008385830101525b9695505050505050565b6000806000606084860312156200041b57600080fd5b83516001600160401b03808211156200043357600080fd5b62000441878388016200034e565b945060208601519150808211156200045857600080fd5b5062000467868287016200034e565b604086015190935090506001600160a01b03811681146200048757600080fd5b809150509250925092565b600181811c90821680620004a757607f821691505b60208210811415620004c957634e487b7160e01b600052602260045260246000fd5b50919050565b60805160a05160c05160e051612f99620005096000396000610da1015260006106ca015260006106f40152600061071e0152612f996000f3fe6080604052600436106101ac5760003560e01c806370a08231116100ec578063a9059cbb1161008a578063d637ed5911610064578063d637ed59146104f3578063dd62ed3e1461051c578063e8a3d48514610562578063eec8897c1461057757600080fd5b8063a9059cbb14610486578063ac9650d8146104a6578063d505accf146104d357600080fd5b80638da5cb5b116100c65780638da5cb5b14610413578063938e3d7b1461043157806395d89b4114610451578063a457c2d71461046657600080fd5b806370a08231146103945780637ecebe00146103ca57806384bb1e421461040057600080fd5b8063313ce5671161015957806339509351116101335780633950935114610314578063426cfaf31461033457806342966c68146103545780636f4f28371461037457600080fd5b8063313ce5671461029f57806335b65e1f146102bb5780633644e515146102ff57600080fd5b806313af40351161018a57806313af40351461023e57806318160ddd1461026057806323b872dd1461027f57600080fd5b806306fdde03146101b1578063079fe40e146101dc578063095ea7b31461020e575b600080fd5b3480156101bd57600080fd5b506101c6610597565b6040516101d39190612741565b60405180910390f35b3480156101e857600080fd5b506008546001600160a01b03165b6040516001600160a01b0390911681526020016101d3565b34801561021a57600080fd5b5061022e610229366004612770565b610629565b60405190151581526020016101d3565b34801561024a57600080fd5b5061025e61025936600461279a565b610641565b005b34801561026c57600080fd5b506004545b6040519081526020016101d3565b34801561028b57600080fd5b5061022e61029a3660046127b5565b610697565b3480156102ab57600080fd5b50604051601281526020016101d3565b3480156102c757600080fd5b506102716102d636600461279a565b60115460009081526012602090815260408083206001600160a01b039094168352929052205490565b34801561030b57600080fd5b506102716106bd565b34801561032057600080fd5b5061022e61032f366004612770565b61074d565b34801561034057600080fd5b5061025e61034f3660046127ff565b61078c565b34801561036057600080fd5b5061025e61036f366004612857565b6109cd565b34801561038057600080fd5b5061025e61038f36600461279a565b610a36565b3480156103a057600080fd5b506102716103af36600461279a565b6001600160a01b031660009081526002602052604090205490565b3480156103d657600080fd5b506102716103e536600461279a565b6001600160a01b031660009081526007602052604090205490565b61025e61040e36600461290e565b610a84565b34801561041f57600080fd5b506001546001600160a01b03166101f6565b34801561043d57600080fd5b5061025e61044c3660046129b9565b610b50565b34801561045d57600080fd5b506101c6610b9e565b34801561047257600080fd5b5061022e610481366004612770565b610bad565b34801561049257600080fd5b5061022e6104a1366004612770565b610c4a565b3480156104b257600080fd5b506104c66104c1366004612a02565b610c58565b6040516101d39190612a77565b3480156104df57600080fd5b5061025e6104ee366004612ad9565b610d4d565b3480156104ff57600080fd5b50610508610ef4565b6040516101d3989796959493929190612b4c565b34801561052857600080fd5b50610271610537366004612ba2565b6001600160a01b03918216600090815260036020908152604080832093909416825291909152205490565b34801561056e57600080fd5b506101c6610fb3565b34801561058357600080fd5b5061025e610592366004612bd5565b611041565b6060600580546105a690612c47565b80601f01602080910402602001604051908101604052809291908181526020018280546105d290612c47565b801561061f5780601f106105f45761010080835404028352916020019161061f565b820191906000526020600020905b81548152906001019060200180831161060257829003601f168201915b5050505050905090565b6000336106378185856113fb565b5060019392505050565b610649611520565b61068b5760405162461bcd60e51b815260206004820152600e60248201526d139bdd08185d5d1a1bdc9a5e995960921b60448201526064015b60405180910390fd5b6106948161154d565b50565b6000336106a585828561159f565b6106b0858585611631565b60019150505b9392505050565b6000306001600160a01b037f00000000000000000000000000000000000000000000000000000000000000001614801561071657507f000000000000000000000000000000000000000000000000000000000000000046145b1561074057507f000000000000000000000000000000000000000000000000000000000000000090565b6107486117ff565b905090565b3360008181526003602090815260408083206001600160a01b03871684529091528120549091906106379082908690610787908790612c92565b6113fb565b610794611520565b6107d15760405162461bcd60e51b815260206004820152600e60248201526d139bdd08185d5d1a1bdc9a5e995960921b6044820152606401610682565b601154600b548215610820575060003360405160609190911b6bffffffffffffffffffffffff191660208201524360348201526054016040516020818303038152906040528051906020012091505b83602001358111156108745760405162461bcd60e51b815260206004820152601260248201527f6d617820737570706c7920636c61696d656400000000000000000000000000006044820152606401610682565b604051806101000160405280856000013581526020018560200135815260200182815260200185606001358152602001856080013581526020018560a0013581526020018560c00160208101906108cb919061279a565b6001600160a01b031681526020016108e660e0870187612caa565b8080601f016020809104026020016040519081016040528093929190818152602001838380828437600092019190915250505091525080516009908155602080830151600a556040830151600b556060830151600c556080830151600d5560a0830151600e5560c0830151600f80546001600160a01b0319166001600160a01b0390921691909117905560e08301518051610985926010920190612650565b50505060118290556040517f6dab9d7d05d468100139089b2516cb8ff286c3972ff070d3b509e371f0d0d4b8906109bf9086908690612d21565b60405180910390a150505050565b33600090815260026020526040902054811115610a2c5760405162461bcd60e51b815260206004820152601260248201527f6e6f7420656e6f7567682062616c616e636500000000000000000000000000006044820152606401610682565b6106943382611894565b610a3e611520565b610a7b5760405162461bcd60e51b815260206004820152600e60248201526d139bdd08185d5d1a1bdc9a5e995960921b6044820152606401610682565b610694816119df565b601154610a943387878787611041565b8560096002016000828254610aa99190612c92565b9091555050600081815260126020908152604080832033845290915281208054889290610ad7908490612c92565b90915550610aea90506000878787611a31565b6000610af68888611b52565b9050806001600160a01b038916336001600160a01b03167fff097c7d8b1957a4ff09ef1361b5fb54dcede3941ba836d0beb9d10bec725de68a604051610b3e91815260200190565b60405180910390a45050505050505050565b610b58611520565b610b955760405162461bcd60e51b815260206004820152600e60248201526d139bdd08185d5d1a1bdc9a5e995960921b6044820152606401610682565b61069481611b67565b6060600680546105a690612c47565b3360008181526003602090815260408083206001600160a01b038716845290915281205490919083811015610c325760405162461bcd60e51b815260206004820152602560248201527f45524332303a2064656372656173656420616c6c6f77616e63652062656c6f77604482015264207a65726f60d81b6064820152608401610682565b610c3f82868684036113fb565b506001949350505050565b600033610637818585611631565b60608167ffffffffffffffff811115610c7357610c73612882565b604051908082528060200260200182016040528015610ca657816020015b6060815260200190600190039081610c915790505b50905060005b82811015610d4657610d1630858584818110610cca57610cca612dec565b9050602002810190610cdc9190612caa565b8080601f016020809104026020016040519081016040528093929190818152602001838380828437600092019190915250611c4892505050565b828281518110610d2857610d28612dec565b60200260200101819052508080610d3e90612e02565b915050610cac565b5092915050565b83421115610d9d5760405162461bcd60e51b815260206004820152601d60248201527f45524332305065726d69743a206578706972656420646561646c696e650000006044820152606401610682565b60007f0000000000000000000000000000000000000000000000000000000000000000888888610dcc8c611c6d565b6040805160208101969096526001600160a01b0394851690860152929091166060840152608083015260a082015260c0810186905260e0016040516020818303038152906040528051906020012090506000610e6a610e296106bd565b8360405161190160f01b6020820152602281018390526042810182905260009060620160405160208183030381529060405280519060200120905092915050565b90506000610e7a82878787611c95565b9050896001600160a01b0316816001600160a01b031614610edd5760405162461bcd60e51b815260206004820152601e60248201527f45524332305065726d69743a20696e76616c6964207369676e617475726500006044820152606401610682565b610ee88a8a8a6113fb565b50505050505050505050565b60098054600a54600b54600c54600d54600e54600f54601080549798969795969495939492936001600160a01b039092169291610f3090612c47565b80601f0160208091040260200160405190810160405280929190818152602001828054610f5c90612c47565b8015610fa95780601f10610f7e57610100808354040283529160200191610fa9565b820191906000526020600020905b815481529060010190602001808311610f8c57829003601f168201915b5050505050905088565b60008054610fc090612c47565b80601f0160208091040260200160405190810160405280929190818152602001828054610fec90612c47565b80156110395780601f1061100e57610100808354040283529160200191611039565b820191906000526020600020905b81548152906001019060200180831161101c57829003601f168201915b505050505081565b6040805161010081018252600980548252600a546020830152600b5492820192909252600c546060820152600d546080820152600e5460a0820152600f546001600160a01b031660c0820152601080546000939160e08401916110a390612c47565b80601f01602080910402602001604051908101604052809291908181526020018280546110cf90612c47565b801561111c5780601f106110f15761010080835404028352916020019161111c565b820191906000526020600020905b8154815290600101906020018083116110ff57829003601f168201915b50505091909252505050606081015160a082015160c08301516080840151939450600093156111ff576111fb6111528780612e1d565b80806020026020016040519081016040528093929190818152602001838360200280828437600092019190915250505060808089015191508d9060208b01359060408c0135906111a7908d0160608e0161279a565b6040516bffffffffffffffffffffffff19606095861b811660208301526034820194909452605481019290925290921b16607482015260880160405160208183030381529060405280519060200120611cbd565b5093505b83156112895760001986602001351415611219578261121f565b85602001355b925060001986604001351415611235578161123b565b85604001355b915060001986604001351415801561126c57506000611260608088016060890161279a565b6001600160a01b031614155b6112765780611286565b611286608087016060880161279a565b90505b60115460009081526012602090815260408083206001600160a01b03808f168552925290912054908981169083161415806112c45750828814155b156113115760405162461bcd60e51b815260206004820152601060248201527f2150726963654f7243757272656e6379000000000000000000000000000000006044820152606401610682565b891580611326575083611324828c612c92565b115b1561135c5760405162461bcd60e51b8152600401610682906020808252600490820152632151747960e01b604082015260600190565b85602001518a87604001516113719190612c92565b11156113ac5760405162461bcd60e51b815260206004820152600a602482015269214d6178537570706c7960b01b6044820152606401610682565b85514210156113ee5760405162461bcd60e51b815260206004820152600e60248201526d18d85b9d0818db185a5b481e595d60921b6044820152606401610682565b5050505050505050505050565b6001600160a01b03831661145d5760405162461bcd60e51b8152602060048201526024808201527f45524332303a20617070726f76652066726f6d20746865207a65726f206164646044820152637265737360e01b6064820152608401610682565b6001600160a01b0382166114be5760405162461bcd60e51b815260206004820152602260248201527f45524332303a20617070726f766520746f20746865207a65726f206164647265604482015261737360f01b6064820152608401610682565b6001600160a01b0383811660008181526003602090815260408083209487168084529482529182902085905590518481527f8c5be1e5ebec7d5bd14f71427d1e84f3dd0314c0f7b2291e5b200ac8c7c3b92591015b60405180910390a3505050565b60006115346001546001600160a01b031690565b6001600160a01b0316336001600160a01b031614905090565b600180546001600160a01b038381166001600160a01b0319831681179093556040519116919082907f8292fce18fa69edf4db7b94ea2e58241df0ae57f97e0a6c9b29067028bf92d7690600090a35050565b6001600160a01b03838116600090815260036020908152604080832093861683529290522054600019811461162b578181101561161e5760405162461bcd60e51b815260206004820152601d60248201527f45524332303a20696e73756666696369656e7420616c6c6f77616e63650000006044820152606401610682565b61162b84848484036113fb565b50505050565b6001600160a01b0383166116955760405162461bcd60e51b815260206004820152602560248201527f45524332303a207472616e736665722066726f6d20746865207a65726f206164604482015264647265737360d81b6064820152608401610682565b6001600160a01b0382166116f75760405162461bcd60e51b815260206004820152602360248201527f45524332303a207472616e7366657220746f20746865207a65726f206164647260448201526265737360e81b6064820152608401610682565b6001600160a01b0383166000908152600260205260409020548181101561176f5760405162461bcd60e51b815260206004820152602660248201527f45524332303a207472616e7366657220616d6f756e7420657863656564732062604482015265616c616e636560d01b6064820152608401610682565b6001600160a01b038085166000908152600260205260408082208585039055918516815290812080548492906117a6908490612c92565b92505081905550826001600160a01b0316846001600160a01b03167fddf252ad1be2c89b69c2b068fc378daa952ba7f163c4a11628f55a4df523b3ef846040516117f291815260200190565b60405180910390a361162b565b60007f8b73c3c69bb8fe3d512ecc4cf759cc79239f7b179b0ffacaa9a75d522b39400f61182a610597565b80516020918201206040805192830193909352918101919091527fc89efdaa54c0f20c7adf612882df0950f5a951637e0307cdcb4c672f298b8bc660608201524660808201523060a082015260c00160405160208183030381529060405280519060200120905090565b6001600160a01b0382166118f45760405162461bcd60e51b815260206004820152602160248201527f45524332303a206275726e2066726f6d20746865207a65726f206164647265736044820152607360f81b6064820152608401610682565b6001600160a01b038216600090815260026020526040902054818110156119685760405162461bcd60e51b815260206004820152602260248201527f45524332303a206275726e20616d6f756e7420657863656564732062616c616e604482015261636560f01b6064820152608401610682565b6001600160a01b0383166000908152600260205260408120838303905560048054849290611997908490612e67565b90915550506040518281526000906001600160a01b038516907fddf252ad1be2c89b69c2b068fc378daa952ba7f163c4a11628f55a4df523b3ef90602001611513565b505050565b600880546001600160a01b0319166001600160a01b0383169081179091556040517f299d17e95023f496e0ffc4909cff1a61f74bb5eb18de6f900f4155bfa1b3b33390600090a250565b505050505050565b80611a3b5761162b565b6000670de0b6b3a7640000611a508386612e7e565b611a5a9190612e9d565b905060008111611aac5760405162461bcd60e51b815260206004820152601060248201527f7175616e7469747920746f6f206c6f77000000000000000000000000000000006044820152606401610682565b6001600160a01b03831673eeeeeeeeeeeeeeeeeeeeeeeeeeeeeeeeeeeeeeee1415611b2057803414611b205760405162461bcd60e51b815260206004820152601660248201527f4d7573742073656e6420746f74616c2070726963652e000000000000000000006044820152606401610682565b60006001600160a01b03861615611b375785611b44565b6008546001600160a01b03165b9050611a2984338385611d8b565b6000611b5e8383611dd5565b50600092915050565b6000808054611b7590612c47565b80601f0160208091040260200160405190810160405280929190818152602001828054611ba190612c47565b8015611bee5780601f10611bc357610100808354040283529160200191611bee565b820191906000526020600020905b815481529060010190602001808311611bd157829003601f168201915b50508551939450611c0a93600093506020870192509050612650565b507fc9c7c3fe08b88b4df9d4d47ef47d2c43d55c025a0ba88ca442580ed9e7348a168183604051611c3c929190612ebf565b60405180910390a15050565b60606106b68383604051806060016040528060278152602001612f3d60279139611eb4565b6001600160a01b03811660009081526007602052604090208054600181018255905b50919050565b6000806000611ca687878787611f91565b91509150611cb38161207e565b5095945050505050565b6000808281805b8751811015611d7f57611cd8600283612e7e565b91506000888281518110611cee57611cee612dec565b60200260200101519050808411611d30576040805160208101869052908101829052606001604051602081830303815290604052805190602001209350611d6c565b6040805160208101839052908101859052606001604051602081830303815290604052805190602001209350600183611d699190612c92565b92505b5080611d7781612e02565b915050611cc4565b50941495939450505050565b80611d955761162b565b6001600160a01b03841673eeeeeeeeeeeeeeeeeeeeeeeeeeeeeeeeeeeeeeee1415611dc957611dc48282612239565b61162b565b61162b848484846122dc565b6001600160a01b038216611e2b5760405162461bcd60e51b815260206004820152601f60248201527f45524332303a206d696e7420746f20746865207a65726f2061646472657373006044820152606401610682565b8060046000828254611e3d9190612c92565b90915550506001600160a01b03821660009081526002602052604081208054839290611e6a908490612c92565b90915550506040518181526001600160a01b038316906000907fddf252ad1be2c89b69c2b068fc378daa952ba7f163c4a11628f55a4df523b3ef9060200160405180910390a35050565b60606001600160a01b0384163b611f1c5760405162461bcd60e51b815260206004820152602660248201527f416464726573733a2064656c65676174652063616c6c20746f206e6f6e2d636f6044820152651b9d1c9858dd60d21b6064820152608401610682565b600080856001600160a01b031685604051611f379190612eed565b600060405180830381855af49150503d8060008114611f72576040519150601f19603f3d011682016040523d82523d6000602084013e611f77565b606091505b5091509150611f87828286612335565b9695505050505050565b6000807f7fffffffffffffffffffffffffffffff5d576e7357a4501ddfe92f46681b20a0831115611fc85750600090506003612075565b8460ff16601b14158015611fe057508460ff16601c14155b15611ff15750600090506004612075565b6040805160008082526020820180845289905260ff881692820192909252606081018690526080810185905260019060a0016020604051602081039080840390855afa158015612045573d6000803e3d6000fd5b5050604051601f1901519150506001600160a01b03811661206e57600060019250925050612075565b9150600090505b94509492505050565b600081600481111561209257612092612f09565b141561209b5750565b60018160048111156120af576120af612f09565b14156120fd5760405162461bcd60e51b815260206004820152601860248201527f45434453413a20696e76616c6964207369676e617475726500000000000000006044820152606401610682565b600281600481111561211157612111612f09565b141561215f5760405162461bcd60e51b815260206004820152601f60248201527f45434453413a20696e76616c6964207369676e6174757265206c656e677468006044820152606401610682565b600381600481111561217357612173612f09565b14156121cc5760405162461bcd60e51b815260206004820152602260248201527f45434453413a20696e76616c6964207369676e6174757265202773272076616c604482015261756560f01b6064820152608401610682565b60048160048111156121e0576121e0612f09565b14156106945760405162461bcd60e51b815260206004820152602260248201527f45434453413a20696e76616c6964207369676e6174757265202776272076616c604482015261756560f01b6064820152608401610682565b6000826001600160a01b03168260405160006040518083038185875af1925050503d8060008114612286576040519150601f19603f3d011682016040523d82523d6000602084013e61228b565b606091505b50509050806119da5760405162461bcd60e51b815260206004820152601c60248201527f6e617469766520746f6b656e207472616e73666572206661696c6564000000006044820152606401610682565b816001600160a01b0316836001600160a01b031614156122fb5761162b565b6001600160a01b03831630141561232057611dc46001600160a01b038516838361236e565b61162b6001600160a01b0385168484846123fe565b606083156123445750816106b6565b8251156123545782518084602001fd5b8160405162461bcd60e51b81526004016106829190612741565b6040516001600160a01b0383166024820152604481018290526119da90849063a9059cbb60e01b906064015b60408051601f198184030181529190526020810180517bffffffffffffffffffffffffffffffffffffffffffffffffffffffff167fffffffff0000000000000000000000000000000000000000000000000000000090931692909217909152612436565b6040516001600160a01b038085166024830152831660448201526064810182905261162b9085906323b872dd60e01b9060840161239a565b600061248b826040518060400160405280602081526020017f5361666545524332303a206c6f772d6c6576656c2063616c6c206661696c6564815250856001600160a01b03166125089092919063ffffffff16565b8051909150156119da57808060200190518101906124a99190612f1f565b6119da5760405162461bcd60e51b815260206004820152602a60248201527f5361666545524332303a204552433230206f7065726174696f6e20646964206e6044820152691bdd081cdd58d8d9595960b21b6064820152608401610682565b6060612517848460008561251f565b949350505050565b6060824710156125805760405162461bcd60e51b815260206004820152602660248201527f416464726573733a20696e73756666696369656e742062616c616e636520666f6044820152651c8818d85b1b60d21b6064820152608401610682565b6001600160a01b0385163b6125d75760405162461bcd60e51b815260206004820152601d60248201527f416464726573733a2063616c6c20746f206e6f6e2d636f6e74726163740000006044820152606401610682565b600080866001600160a01b031685876040516125f39190612eed565b60006040518083038185875af1925050503d8060008114612630576040519150601f19603f3d011682016040523d82523d6000602084013e612635565b606091505b5091509150612645828286612335565b979650505050505050565b82805461265c90612c47565b90600052602060002090601f01602090048101928261267e57600085556126c4565b82601f1061269757805160ff19168380011785556126c4565b828001600101855582156126c4579182015b828111156126c45782518255916020019190600101906126a9565b506126d09291506126d4565b5090565b5b808211156126d057600081556001016126d5565b60005b838110156127045781810151838201526020016126ec565b8381111561162b5750506000910152565b6000815180845261272d8160208601602086016126e9565b601f01601f19169290920160200192915050565b6020815260006106b66020830184612715565b80356001600160a01b038116811461276b57600080fd5b919050565b6000806040838503121561278357600080fd5b61278c83612754565b946020939093013593505050565b6000602082840312156127ac57600080fd5b6106b682612754565b6000806000606084860312156127ca57600080fd5b6127d384612754565b92506127e160208501612754565b9150604084013590509250925092565b801515811461069457600080fd5b6000806040838503121561281257600080fd5b823567ffffffffffffffff81111561282957600080fd5b8301610100818603121561283c57600080fd5b9150602083013561284c816127f1565b809150509250929050565b60006020828403121561286957600080fd5b5035919050565b600060808284031215611c8f57600080fd5b634e487b7160e01b600052604160045260246000fd5b600067ffffffffffffffff808411156128b3576128b3612882565b604051601f8501601f19908116603f011681019082821181831017156128db576128db612882565b816040528093508581528686860111156128f457600080fd5b858560208301376000602087830101525050509392505050565b60008060008060008060c0878903121561292757600080fd5b61293087612754565b95506020870135945061294560408801612754565b935060608701359250608087013567ffffffffffffffff8082111561296957600080fd5b6129758a838b01612870565b935060a089013591508082111561298b57600080fd5b508701601f8101891361299d57600080fd5b6129ac89823560208401612898565b9150509295509295509295565b6000602082840312156129cb57600080fd5b813567ffffffffffffffff8111156129e257600080fd5b8201601f810184136129f357600080fd5b61251784823560208401612898565b60008060208385031215612a1557600080fd5b823567ffffffffffffffff80821115612a2d57600080fd5b818501915085601f830112612a4157600080fd5b813581811115612a5057600080fd5b8660208260051b8501011115612a6557600080fd5b60209290920196919550909350505050565b6000602080830181845280855180835260408601915060408160051b870101925083870160005b82811015612acc57603f19888603018452612aba858351612715565b94509285019290850190600101612a9e565b5092979650505050505050565b600080600080600080600060e0888a031215612af457600080fd5b612afd88612754565b9650612b0b60208901612754565b95506040880135945060608801359350608088013560ff81168114612b2f57600080fd5b9699959850939692959460a0840135945060c09093013592915050565b60006101008a83528960208401528860408401528760608401528660808401528560a08401526001600160a01b03851660c08401528060e0840152612b9381840185612715565b9b9a5050505050505050505050565b60008060408385031215612bb557600080fd5b612bbe83612754565b9150612bcc60208401612754565b90509250929050565b600080600080600060a08688031215612bed57600080fd5b612bf686612754565b945060208601359350612c0b60408701612754565b925060608601359150608086013567ffffffffffffffff811115612c2e57600080fd5b612c3a88828901612870565b9150509295509295909350565b600181811c90821680612c5b57607f821691505b60208210811415611c8f57634e487b7160e01b600052602260045260246000fd5b634e487b7160e01b600052601160045260246000fd5b60008219821115612ca557612ca5612c7c565b500190565b6000808335601e19843603018112612cc157600080fd5b83018035915067ffffffffffffffff821115612cdc57600080fd5b602001915036819003821315612cf157600080fd5b9250929050565b81835281816020850137506000828201602090810191909152601f909101601f19169091010190565b60408152823560408201526020830135606082015260408301356080820152606083013560a0820152608083013560c082015260a083013560e08201526000612d6c60c08501612754565b6101006001600160a01b0382168185015260e08601359150601e19863603018212612d9657600080fd5b90850190813567ffffffffffffffff811115612db157600080fd5b803603871315612dc057600080fd5b81610120860152612dd961014086018260208601612cf8565b93505050506106b6602083018415159052565b634e487b7160e01b600052603260045260246000fd5b6000600019821415612e1657612e16612c7c565b5060010190565b6000808335601e19843603018112612e3457600080fd5b83018035915067ffffffffffffffff821115612e4f57600080fd5b6020019150600581901b3603821315612cf157600080fd5b600082821015612e7957612e79612c7c565b500390565b6000816000190483118215151615612e9857612e98612c7c565b500290565b600082612eba57634e487b7160e01b600052601260045260246000fd5b500490565b604081526000612ed26040830185612715565b8281036020840152612ee48185612715565b95945050505050565b60008251612eff8184602087016126e9565b9190910192915050565b634e487b7160e01b600052602160045260246000fd5b600060208284031215612f3157600080fd5b81516106b6816127f156fe416464726573733a206c6f772d6c6576656c2064656c65676174652063616c6c206661696c6564a264697066735822122057ec2ca23a60c9746908b519dedf266274178c6d12f2427f569a8fd1ac19cbb864736f6c634300080c0033",
  "linkReferences": {},
  "deployedLinkReferences": {}
}