{
  "_format": "hh-sol-artifact-1",
  "contractName": "ERC20DropVote",
  "sourceName": "contracts/base/ERC20DropVote.sol",
  "abi": [
    {
      "inputs": [
        {
          "internalType": "string",
          "name": "_name",
          "type": "string"
        },
        {
          "internalType": "string",
          "name": "_symbol",
          "type": "string"
        },
        {
          "internalType": "address",
          "name": "_primarySaleRecipient",
          "type": "address"
        }
      ],
      "stateMutability": "nonpayable",
      "type": "constructor"
    },
    {
      "anonymous": false,
      "inputs": [
        {
          "indexed": true,
          "internalType": "address",
          "name": "owner",
          "type": "address"
        },
        {
          "indexed": true,
          "internalType": "address",
          "name": "spender",
          "type": "address"
        },
        {
          "indexed": false,
          "internalType": "uint256",
          "name": "value",
          "type": "uint256"
        }
      ],
      "name": "Approval",
      "type": "event"
    },
    {
      "anonymous": false,
      "inputs": [
        {
          "components": [
            {
              "internalType": "uint256",
              "name": "startTimestamp",
              "type": "uint256"
            },
            {
              "internalType": "uint256",
              "name": "maxClaimableSupply",
              "type": "uint256"
            },
            {
              "internalType": "uint256",
              "name": "supplyClaimed",
              "type": "uint256"
            },
            {
              "internalType": "uint256",
              "name": "quantityLimitPerWallet",
              "type": "uint256"
            },
            {
              "internalType": "bytes32",
              "name": "merkleRoot",
              "type": "bytes32"
            },
            {
              "internalType": "uint256",
              "name": "pricePerToken",
              "type": "uint256"
            },
            {
              "internalType": "address",
              "name": "currency",
              "type": "address"
            },
            {
              "internalType": "string",
              "name": "metadata",
              "type": "string"
            }
          ],
          "indexed": false,
          "internalType": "struct IClaimCondition.ClaimCondition",
          "name": "condition",
          "type": "tuple"
        },
        {
          "indexed": false,
          "internalType": "bool",
          "name": "resetEligibility",
          "type": "bool"
        }
      ],
      "name": "ClaimConditionUpdated",
      "type": "event"
    },
    {
      "anonymous": false,
      "inputs": [
        {
          "indexed": false,
          "internalType": "string",
          "name": "prevURI",
          "type": "string"
        },
        {
          "indexed": false,
          "internalType": "string",
          "name": "newURI",
          "type": "string"
        }
      ],
      "name": "ContractURIUpdated",
      "type": "event"
    },
    {
      "anonymous": false,
      "inputs": [
        {
          "indexed": true,
          "internalType": "address",
          "name": "delegator",
          "type": "address"
        },
        {
          "indexed": true,
          "internalType": "address",
          "name": "fromDelegate",
          "type": "address"
        },
        {
          "indexed": true,
          "internalType": "address",
          "name": "toDelegate",
          "type": "address"
        }
      ],
      "name": "DelegateChanged",
      "type": "event"
    },
    {
      "anonymous": false,
      "inputs": [
        {
          "indexed": true,
          "internalType": "address",
          "name": "delegate",
          "type": "address"
        },
        {
          "indexed": false,
          "internalType": "uint256",
          "name": "previousBalance",
          "type": "uint256"
        },
        {
          "indexed": false,
          "internalType": "uint256",
          "name": "newBalance",
          "type": "uint256"
        }
      ],
      "name": "DelegateVotesChanged",
      "type": "event"
    },
    {
      "anonymous": false,
      "inputs": [
        {
          "indexed": true,
          "internalType": "address",
          "name": "prevOwner",
          "type": "address"
        },
        {
          "indexed": true,
          "internalType": "address",
          "name": "newOwner",
          "type": "address"
        }
      ],
      "name": "OwnerUpdated",
      "type": "event"
    },
    {
      "anonymous": false,
      "inputs": [
        {
          "indexed": true,
          "internalType": "address",
          "name": "recipient",
          "type": "address"
        }
      ],
      "name": "PrimarySaleRecipientUpdated",
      "type": "event"
    },
    {
      "anonymous": false,
      "inputs": [
        {
          "indexed": true,
          "internalType": "address",
          "name": "claimer",
          "type": "address"
        },
        {
          "indexed": true,
          "internalType": "address",
          "name": "receiver",
          "type": "address"
        },
        {
          "indexed": true,
          "internalType": "uint256",
          "name": "startTokenId",
          "type": "uint256"
        },
        {
          "indexed": false,
          "internalType": "uint256",
          "name": "quantityClaimed",
          "type": "uint256"
        }
      ],
      "name": "TokensClaimed",
      "type": "event"
    },
    {
      "anonymous": false,
      "inputs": [
        {
          "indexed": true,
          "internalType": "address",
          "name": "from",
          "type": "address"
        },
        {
          "indexed": true,
          "internalType": "address",
          "name": "to",
          "type": "address"
        },
        {
          "indexed": false,
          "internalType": "uint256",
          "name": "value",
          "type": "uint256"
        }
      ],
      "name": "Transfer",
      "type": "event"
    },
    {
      "inputs": [],
      "name": "DOMAIN_SEPARATOR",
      "outputs": [
        {
          "internalType": "bytes32",
          "name": "",
          "type": "bytes32"
        }
      ],
      "stateMutability": "view",
      "type": "function"
    },
    {
      "inputs": [
        {
          "internalType": "address",
          "name": "owner",
          "type": "address"
        },
        {
          "internalType": "address",
          "name": "spender",
          "type": "address"
        }
      ],
      "name": "allowance",
      "outputs": [
        {
          "internalType": "uint256",
          "name": "",
          "type": "uint256"
        }
      ],
      "stateMutability": "view",
      "type": "function"
    },
    {
      "inputs": [
        {
          "internalType": "address",
          "name": "spender",
          "type": "address"
        },
        {
          "internalType": "uint256",
          "name": "amount",
          "type": "uint256"
        }
      ],
      "name": "approve",
      "outputs": [
        {
          "internalType": "bool",
          "name": "",
          "type": "bool"
        }
      ],
      "stateMutability": "nonpayable",
      "type": "function"
    },
    {
      "inputs": [
        {
          "internalType": "address",
          "name": "account",
          "type": "address"
        }
      ],
      "name": "balanceOf",
      "outputs": [
        {
          "internalType": "uint256",
          "name": "",
          "type": "uint256"
        }
      ],
      "stateMutability": "view",
      "type": "function"
    },
    {
      "inputs": [
        {
          "internalType": "uint256",
          "name": "_amount",
          "type": "uint256"
        }
      ],
      "name": "burn",
      "outputs": [],
      "stateMutability": "nonpayable",
      "type": "function"
    },
    {
      "inputs": [
        {
          "internalType": "address",
          "name": "account",
          "type": "address"
        },
        {
          "internalType": "uint32",
          "name": "pos",
          "type": "uint32"
        }
      ],
      "name": "checkpoints",
      "outputs": [
        {
          "components": [
            {
              "internalType": "uint32",
              "name": "fromBlock",
              "type": "uint32"
            },
            {
              "internalType": "uint224",
              "name": "votes",
              "type": "uint224"
            }
          ],
          "internalType": "struct ERC20Votes.Checkpoint",
          "name": "",
          "type": "tuple"
        }
      ],
      "stateMutability": "view",
      "type": "function"
    },
    {
      "inputs": [
        {
          "internalType": "address",
          "name": "_receiver",
          "type": "address"
        },
        {
          "internalType": "uint256",
          "name": "_quantity",
          "type": "uint256"
        },
        {
          "internalType": "address",
          "name": "_currency",
          "type": "address"
        },
        {
          "internalType": "uint256",
          "name": "_pricePerToken",
          "type": "uint256"
        },
        {
          "components": [
            {
              "internalType": "bytes32[]",
              "name": "proof",
              "type": "bytes32[]"
            },
            {
              "internalType": "uint256",
              "name": "quantityLimitPerWallet",
              "type": "uint256"
            },
            {
              "internalType": "uint256",
              "name": "pricePerToken",
              "type": "uint256"
            },
            {
              "internalType": "address",
              "name": "currency",
              "type": "address"
            }
          ],
          "internalType": "struct IDropSinglePhase.AllowlistProof",
          "name": "_allowlistProof",
          "type": "tuple"
        },
        {
          "internalType": "bytes",
          "name": "_data",
          "type": "bytes"
        }
      ],
      "name": "claim",
      "outputs": [],
      "stateMutability": "payable",
      "type": "function"
    },
    {
      "inputs": [],
      "name": "claimCondition",
      "outputs": [
        {
          "internalType": "uint256",
          "name": "startTimestamp",
          "type": "uint256"
        },
        {
          "internalType": "uint256",
          "name": "maxClaimableSupply",
          "type": "uint256"
        },
        {
          "internalType": "uint256",
          "name": "supplyClaimed",
          "type": "uint256"
        },
        {
          "internalType": "uint256",
          "name": "quantityLimitPerWallet",
          "type": "uint256"
        },
        {
          "internalType": "bytes32",
          "name": "merkleRoot",
          "type": "bytes32"
        },
        {
          "internalType": "uint256",
          "name": "pricePerToken",
          "type": "uint256"
        },
        {
          "internalType": "address",
          "name": "currency",
          "type": "address"
        },
        {
          "internalType": "string",
          "name": "metadata",
          "type": "string"
        }
      ],
      "stateMutability": "view",
      "type": "function"
    },
    {
      "inputs": [],
      "name": "contractURI",
      "outputs": [
        {
          "internalType": "string",
          "name": "",
          "type": "string"
        }
      ],
      "stateMutability": "view",
      "type": "function"
    },
    {
      "inputs": [],
      "name": "decimals",
      "outputs": [
        {
          "internalType": "uint8",
          "name": "",
          "type": "uint8"
        }
      ],
      "stateMutability": "view",
      "type": "function"
    },
    {
      "inputs": [
        {
          "internalType": "address",
          "name": "spender",
          "type": "address"
        },
        {
          "internalType": "uint256",
          "name": "subtractedValue",
          "type": "uint256"
        }
      ],
      "name": "decreaseAllowance",
      "outputs": [
        {
          "internalType": "bool",
          "name": "",
          "type": "bool"
        }
      ],
      "stateMutability": "nonpayable",
      "type": "function"
    },
    {
      "inputs": [
        {
          "internalType": "address",
          "name": "delegatee",
          "type": "address"
        }
      ],
      "name": "delegate",
      "outputs": [],
      "stateMutability": "nonpayable",
      "type": "function"
    },
    {
      "inputs": [
        {
          "internalType": "address",
          "name": "delegatee",
          "type": "address"
        },
        {
          "internalType": "uint256",
          "name": "nonce",
          "type": "uint256"
        },
        {
          "internalType": "uint256",
          "name": "expiry",
          "type": "uint256"
        },
        {
          "internalType": "uint8",
          "name": "v",
          "type": "uint8"
        },
        {
          "internalType": "bytes32",
          "name": "r",
          "type": "bytes32"
        },
        {
          "internalType": "bytes32",
          "name": "s",
          "type": "bytes32"
        }
      ],
      "name": "delegateBySig",
      "outputs": [],
      "stateMutability": "nonpayable",
      "type": "function"
    },
    {
      "inputs": [
        {
          "internalType": "address",
          "name": "account",
          "type": "address"
        }
      ],
      "name": "delegates",
      "outputs": [
        {
          "internalType": "address",
          "name": "",
          "type": "address"
        }
      ],
      "stateMutability": "view",
      "type": "function"
    },
    {
      "inputs": [
        {
          "internalType": "uint256",
          "name": "blockNumber",
          "type": "uint256"
        }
      ],
      "name": "getPastTotalSupply",
      "outputs": [
        {
          "internalType": "uint256",
          "name": "",
          "type": "uint256"
        }
      ],
      "stateMutability": "view",
      "type": "function"
    },
    {
      "inputs": [
        {
          "internalType": "address",
          "name": "account",
          "type": "address"
        },
        {
          "internalType": "uint256",
          "name": "blockNumber",
          "type": "uint256"
        }
      ],
      "name": "getPastVotes",
      "outputs": [
        {
          "internalType": "uint256",
          "name": "",
          "type": "uint256"
        }
      ],
      "stateMutability": "view",
      "type": "function"
    },
    {
      "inputs": [
        {
          "internalType": "address",
          "name": "_claimer",
          "type": "address"
        }
      ],
      "name": "getSupplyClaimedByWallet",
      "outputs": [
        {
          "internalType": "uint256",
          "name": "",
          "type": "uint256"
        }
      ],
      "stateMutability": "view",
      "type": "function"
    },
    {
      "inputs": [
        {
          "internalType": "address",
          "name": "account",
          "type": "address"
        }
      ],
      "name": "getVotes",
      "outputs": [
        {
          "internalType": "uint256",
          "name": "",
          "type": "uint256"
        }
      ],
      "stateMutability": "view",
      "type": "function"
    },
    {
      "inputs": [
        {
          "internalType": "address",
          "name": "spender",
          "type": "address"
        },
        {
          "internalType": "uint256",
          "name": "addedValue",
          "type": "uint256"
        }
      ],
      "name": "increaseAllowance",
      "outputs": [
        {
          "internalType": "bool",
          "name": "",
          "type": "bool"
        }
      ],
      "stateMutability": "nonpayable",
      "type": "function"
    },
    {
      "inputs": [
        {
          "internalType": "bytes[]",
          "name": "data",
          "type": "bytes[]"
        }
      ],
      "name": "multicall",
      "outputs": [
        {
          "internalType": "bytes[]",
          "name": "results",
          "type": "bytes[]"
        }
      ],
      "stateMutability": "nonpayable",
      "type": "function"
    },
    {
      "inputs": [],
      "name": "name",
      "outputs": [
        {
          "internalType": "string",
          "name": "",
          "type": "string"
        }
      ],
      "stateMutability": "view",
      "type": "function"
    },
    {
      "inputs": [
        {
          "internalType": "address",
          "name": "owner",
          "type": "address"
        }
      ],
      "name": "nonces",
      "outputs": [
        {
          "internalType": "uint256",
          "name": "",
          "type": "uint256"
        }
      ],
      "stateMutability": "view",
      "type": "function"
    },
    {
      "inputs": [
        {
          "internalType": "address",
          "name": "account",
          "type": "address"
        }
      ],
      "name": "numCheckpoints",
      "outputs": [
        {
          "internalType": "uint32",
          "name": "",
          "type": "uint32"
        }
      ],
      "stateMutability": "view",
      "type": "function"
    },
    {
      "inputs": [],
      "name": "owner",
      "outputs": [
        {
          "internalType": "address",
          "name": "",
          "type": "address"
        }
      ],
      "stateMutability": "view",
      "type": "function"
    },
    {
      "inputs": [
        {
          "internalType": "address",
          "name": "owner",
          "type": "address"
        },
        {
          "internalType": "address",
          "name": "spender",
          "type": "address"
        },
        {
          "internalType": "uint256",
          "name": "value",
          "type": "uint256"
        },
        {
          "internalType": "uint256",
          "name": "deadline",
          "type": "uint256"
        },
        {
          "internalType": "uint8",
          "name": "v",
          "type": "uint8"
        },
        {
          "internalType": "bytes32",
          "name": "r",
          "type": "bytes32"
        },
        {
          "internalType": "bytes32",
          "name": "s",
          "type": "bytes32"
        }
      ],
      "name": "permit",
      "outputs": [],
      "stateMutability": "nonpayable",
      "type": "function"
    },
    {
      "inputs": [],
      "name": "primarySaleRecipient",
      "outputs": [
        {
          "internalType": "address",
          "name": "",
          "type": "address"
        }
      ],
      "stateMutability": "view",
      "type": "function"
    },
    {
      "inputs": [
        {
          "components": [
            {
              "internalType": "uint256",
              "name": "startTimestamp",
              "type": "uint256"
            },
            {
              "internalType": "uint256",
              "name": "maxClaimableSupply",
              "type": "uint256"
            },
            {
              "internalType": "uint256",
              "name": "supplyClaimed",
              "type": "uint256"
            },
            {
              "internalType": "uint256",
              "name": "quantityLimitPerWallet",
              "type": "uint256"
            },
            {
              "internalType": "bytes32",
              "name": "merkleRoot",
              "type": "bytes32"
            },
            {
              "internalType": "uint256",
              "name": "pricePerToken",
              "type": "uint256"
            },
            {
              "internalType": "address",
              "name": "currency",
              "type": "address"
            },
            {
              "internalType": "string",
              "name": "metadata",
              "type": "string"
            }
          ],
          "internalType": "struct IClaimCondition.ClaimCondition",
          "name": "_condition",
          "type": "tuple"
        },
        {
          "internalType": "bool",
          "name": "_resetClaimEligibility",
          "type": "bool"
        }
      ],
      "name": "setClaimConditions",
      "outputs": [],
      "stateMutability": "nonpayable",
      "type": "function"
    },
    {
      "inputs": [
        {
          "internalType": "string",
          "name": "_uri",
          "type": "string"
        }
      ],
      "name": "setContractURI",
      "outputs": [],
      "stateMutability": "nonpayable",
      "type": "function"
    },
    {
      "inputs": [
        {
          "internalType": "address",
          "name": "_newOwner",
          "type": "address"
        }
      ],
      "name": "setOwner",
      "outputs": [],
      "stateMutability": "nonpayable",
      "type": "function"
    },
    {
      "inputs": [
        {
          "internalType": "address",
          "name": "_saleRecipient",
          "type": "address"
        }
      ],
      "name": "setPrimarySaleRecipient",
      "outputs": [],
      "stateMutability": "nonpayable",
      "type": "function"
    },
    {
      "inputs": [],
      "name": "symbol",
      "outputs": [
        {
          "internalType": "string",
          "name": "",
          "type": "string"
        }
      ],
      "stateMutability": "view",
      "type": "function"
    },
    {
      "inputs": [],
      "name": "totalSupply",
      "outputs": [
        {
          "internalType": "uint256",
          "name": "",
          "type": "uint256"
        }
      ],
      "stateMutability": "view",
      "type": "function"
    },
    {
      "inputs": [
        {
          "internalType": "address",
          "name": "to",
          "type": "address"
        },
        {
          "internalType": "uint256",
          "name": "amount",
          "type": "uint256"
        }
      ],
      "name": "transfer",
      "outputs": [
        {
          "internalType": "bool",
          "name": "",
          "type": "bool"
        }
      ],
      "stateMutability": "nonpayable",
      "type": "function"
    },
    {
      "inputs": [
        {
          "internalType": "address",
          "name": "from",
          "type": "address"
        },
        {
          "internalType": "address",
          "name": "to",
          "type": "address"
        },
        {
          "internalType": "uint256",
          "name": "amount",
          "type": "uint256"
        }
      ],
      "name": "transferFrom",
      "outputs": [
        {
          "internalType": "bool",
          "name": "",
          "type": "bool"
        }
      ],
      "stateMutability": "nonpayable",
      "type": "function"
    },
    {
      "inputs": [
        {
          "internalType": "address",
          "name": "_claimer",
          "type": "address"
        },
        {
          "internalType": "uint256",
          "name": "_quantity",
          "type": "uint256"
        },
        {
          "internalType": "address",
          "name": "_currency",
          "type": "address"
        },
        {
          "internalType": "uint256",
          "name": "_pricePerToken",
          "type": "uint256"
        },
        {
          "components": [
            {
              "internalType": "bytes32[]",
              "name": "proof",
              "type": "bytes32[]"
            },
            {
              "internalType": "uint256",
              "name": "quantityLimitPerWallet",
              "type": "uint256"
            },
            {
              "internalType": "uint256",
              "name": "pricePerToken",
              "type": "uint256"
            },
            {
              "internalType": "address",
              "name": "currency",
              "type": "address"
            }
          ],
          "internalType": "struct IDropSinglePhase.AllowlistProof",
          "name": "_allowlistProof",
          "type": "tuple"
        }
      ],
      "name": "verifyClaim",
      "outputs": [],
      "stateMutability": "view",
      "type": "function"
    }
  ],
  "bytecode": "0x6101006040527f6e71edae12b1b97f4d1f60370fef10105fa2faae0126114a169c64845d6126c960e0523480156200003657600080fd5b506040516200401238038062004012833981016040819052620000599162000405565b8282818181600590805190602001906200007592919062000292565b5080516200008b90600690602084019062000292565b50504660a052503060c052620000a0620000c5565b60805250620000b19050336200015c565b620000bc81620001ae565b505050620004cf565b60007f8b73c3c69bb8fe3d512ecc4cf759cc79239f7b179b0ffacaa9a75d522b39400f620000f2620001f8565b80516020918201206040805192830193909352918101919091527fc89efdaa54c0f20c7adf612882df0950f5a951637e0307cdcb4c672f298b8bc660608201524660808201523060a082015260c00160405160208183030381529060405280519060200120905090565b600180546001600160a01b038381166001600160a01b0319831681179093556040519116919082907f8292fce18fa69edf4db7b94ea2e58241df0ae57f97e0a6c9b29067028bf92d7690600090a35050565b600b80546001600160a01b0319166001600160a01b0383169081179091556040517f299d17e95023f496e0ffc4909cff1a61f74bb5eb18de6f900f4155bfa1b3b33390600090a250565b606060058054620002099062000492565b80601f0160208091040260200160405190810160405280929190818152602001828054620002379062000492565b8015620002885780601f106200025c5761010080835404028352916020019162000288565b820191906000526020600020905b8154815290600101906020018083116200026a57829003601f168201915b5050505050905090565b828054620002a09062000492565b90600052602060002090601f016020900481019282620002c457600085556200030f565b82601f10620002df57805160ff19168380011785556200030f565b828001600101855582156200030f579182015b828111156200030f578251825591602001919060010190620002f2565b506200031d92915062000321565b5090565b5b808211156200031d576000815560010162000322565b634e487b7160e01b600052604160045260246000fd5b600082601f8301126200036057600080fd5b81516001600160401b03808211156200037d576200037d62000338565b604051601f8301601f19908116603f01168101908282118183101715620003a857620003a862000338565b81604052838152602092508683858801011115620003c557600080fd5b600091505b83821015620003e95785820183015181830184015290820190620003ca565b83821115620003fb5760008385830101525b9695505050505050565b6000806000606084860312156200041b57600080fd5b83516001600160401b03808211156200043357600080fd5b62000441878388016200034e565b945060208601519150808211156200045857600080fd5b5062000467868287016200034e565b604086015190935090506001600160a01b03811681146200048757600080fd5b809150509250925092565b600181811c90821680620004a757607f821691505b60208210811415620004c957634e487b7160e01b600052602260045260246000fd5b50919050565b60805160a05160c05160e051613b09620005096000396000611264015260006108640152600061088e015260006108b80152613b096000f3fe6080604052600436106102045760003560e01c806370a0823111610118578063a9059cbb116100a0578063d637ed591161006f578063d637ed5914610643578063dd62ed3e1461066c578063e8a3d485146106b2578063eec8897c146106c7578063f1127ed8146106e757600080fd5b8063a9059cbb146105b6578063ac9650d8146105d6578063c3cda52014610603578063d505accf1461062357600080fd5b80638e539e8c116100e75780638e539e8c14610521578063938e3d7b1461054157806395d89b41146105615780639ab24eb014610576578063a457c2d71461059657600080fd5b806370a082311461049a5780637ecebe00146104d057806384bb1e42146104f05780638da5cb5b1461050357600080fd5b80633644e5151161019b57806342966c681161016a57806342966c68146103cc578063587cde1e146103ec5780635c19a95c146104255780636f4f2837146104455780636fcfff451461046557600080fd5b80633644e51514610357578063395093511461036c5780633a46b1a81461038c578063426cfaf3146103ac57600080fd5b806318160ddd116101d757806318160ddd146102b857806323b872dd146102d7578063313ce567146102f757806335b65e1f1461031357600080fd5b806306fdde0314610209578063079fe40e14610234578063095ea7b31461026657806313af403514610296575b600080fd5b34801561021557600080fd5b5061021e610731565b60405161022b919061321c565b60405180910390f35b34801561024057600080fd5b50600b546001600160a01b03165b6040516001600160a01b03909116815260200161022b565b34801561027257600080fd5b5061028661028136600461324b565b6107c3565b604051901515815260200161022b565b3480156102a257600080fd5b506102b66102b1366004613275565b6107db565b005b3480156102c457600080fd5b506004545b60405190815260200161022b565b3480156102e357600080fd5b506102866102f2366004613290565b610831565b34801561030357600080fd5b506040516012815260200161022b565b34801561031f57600080fd5b506102c961032e366004613275565b60145460009081526015602090815260408083206001600160a01b039094168352929052205490565b34801561036357600080fd5b506102c9610857565b34801561037857600080fd5b5061028661038736600461324b565b6108e7565b34801561039857600080fd5b506102c96103a736600461324b565b610926565b3480156103b857600080fd5b506102b66103c73660046132da565b610999565b3480156103d857600080fd5b506102b66103e7366004613332565b610bda565b3480156103f857600080fd5b5061024e610407366004613275565b6001600160a01b039081166000908152600860205260409020541690565b34801561043157600080fd5b506102b6610440366004613275565b610c43565b34801561045157600080fd5b506102b6610460366004613275565b610c4d565b34801561047157600080fd5b50610485610480366004613275565b610c9b565b60405163ffffffff909116815260200161022b565b3480156104a657600080fd5b506102c96104b5366004613275565b6001600160a01b031660009081526002602052604090205490565b3480156104dc57600080fd5b506102c96104eb366004613275565b610cc3565b6102b66104fe3660046133e9565b610ce1565b34801561050f57600080fd5b506001546001600160a01b031661024e565b34801561052d57600080fd5b506102c961053c366004613332565b610dad565b34801561054d57600080fd5b506102b661055c366004613494565b610e09565b34801561056d57600080fd5b5061021e610e57565b34801561058257600080fd5b506102c9610591366004613275565b610e66565b3480156105a257600080fd5b506102866105b136600461324b565b610eed565b3480156105c257600080fd5b506102866105d136600461324b565b610f8a565b3480156105e257600080fd5b506105f66105f13660046134dd565b610f98565b60405161022b9190613552565b34801561060f57600080fd5b506102b661061e3660046135c5565b61108d565b34801561062f57600080fd5b506102b661063e36600461361d565b611210565b34801561064f57600080fd5b50610658611376565b60405161022b989796959493929190613687565b34801561067857600080fd5b506102c96106873660046136dd565b6001600160a01b03918216600090815260036020908152604080832093909416825291909152205490565b3480156106be57600080fd5b5061021e611435565b3480156106d357600080fd5b506102b66106e2366004613710565b6114c3565b3480156106f357600080fd5b50610707610702366004613782565b61187d565b60408051825163ffffffff1681526020928301516001600160e01b0316928101929092520161022b565b606060058054610740906137b7565b80601f016020809104026020016040519081016040528092919081815260200182805461076c906137b7565b80156107b95780601f1061078e576101008083540402835291602001916107b9565b820191906000526020600020905b81548152906001019060200180831161079c57829003601f168201915b5050505050905090565b6000336107d1818585611901565b5060019392505050565b6107e3611a25565b6108255760405162461bcd60e51b815260206004820152600e60248201526d139bdd08185d5d1a1bdc9a5e995960921b60448201526064015b60405180910390fd5b61082e81611a52565b50565b60003361083f858285611aa4565b61084a858585611b36565b60019150505b9392505050565b6000306001600160a01b037f0000000000000000000000000000000000000000000000000000000000000000161480156108b057507f000000000000000000000000000000000000000000000000000000000000000046145b156108da57507f000000000000000000000000000000000000000000000000000000000000000090565b6108e2611d0a565b905090565b3360008181526003602090815260408083206001600160a01b03871684529091528120549091906107d19082908690610921908790613802565b611901565b60004382106109775760405162461bcd60e51b815260206004820152601f60248201527f4552433230566f7465733a20626c6f636b206e6f7420796574206d696e656400604482015260640161081c565b6001600160a01b03831660009081526009602052604090206108509083611d9f565b6109a1611a25565b6109de5760405162461bcd60e51b815260206004820152600e60248201526d139bdd08185d5d1a1bdc9a5e995960921b604482015260640161081c565b601454600e548215610a2d575060003360405160609190911b6bffffffffffffffffffffffff191660208201524360348201526054016040516020818303038152906040528051906020012091505b8360200135811115610a815760405162461bcd60e51b815260206004820152601260248201527f6d617820737570706c7920636c61696d65640000000000000000000000000000604482015260640161081c565b604051806101000160405280856000013581526020018560200135815260200182815260200185606001358152602001856080013581526020018560a0013581526020018560c0016020810190610ad89190613275565b6001600160a01b03168152602001610af360e087018761381a565b8080601f01602080910402602001604051908101604052809392919081815260200183838082843760009201919091525050509152508051600c908155602080830151600d556040830151600e556060830151600f55608083015160105560a083015160115560c0830151601280546001600160a01b0319166001600160a01b0390921691909117905560e08301518051610b92926013920190613134565b50505060148290556040517f6dab9d7d05d468100139089b2516cb8ff286c3972ff070d3b509e371f0d0d4b890610bcc9086908690613891565b60405180910390a150505050565b33600090815260026020526040902054811115610c395760405162461bcd60e51b815260206004820152601260248201527f6e6f7420656e6f7567682062616c616e63650000000000000000000000000000604482015260640161081c565b61082e3382611e5c565b61082e3382611e74565b610c55611a25565b610c925760405162461bcd60e51b815260206004820152600e60248201526d139bdd08185d5d1a1bdc9a5e995960921b604482015260640161081c565b61082e81611eee565b6001600160a01b038116600090815260096020526040812054610cbd90611f38565b92915050565b6001600160a01b038116600090815260076020526040812054610cbd565b601454610cf133878787876114c3565b85600c6002016000828254610d069190613802565b9091555050600081815260156020908152604080832033845290915281208054889290610d34908490613802565b90915550610d4790506000878787611fa9565b6000610d5388886120ca565b9050806001600160a01b038916336001600160a01b03167fff097c7d8b1957a4ff09ef1361b5fb54dcede3941ba836d0beb9d10bec725de68a604051610d9b91815260200190565b60405180910390a45050505050505050565b6000438210610dfe5760405162461bcd60e51b815260206004820152601f60248201527f4552433230566f7465733a20626c6f636b206e6f7420796574206d696e656400604482015260640161081c565b610cbd600a83611d9f565b610e11611a25565b610e4e5760405162461bcd60e51b815260206004820152600e60248201526d139bdd08185d5d1a1bdc9a5e995960921b604482015260640161081c565b61082e816120df565b606060068054610740906137b7565b6001600160a01b0381166000908152600960205260408120548015610eda576001600160a01b0383166000908152600960205260409020610ea860018361395c565b81548110610eb857610eb8613973565b60009182526020909120015464010000000090046001600160e01b0316610edd565b60005b6001600160e01b03169392505050565b3360008181526003602090815260408083206001600160a01b038716845290915281205490919083811015610f725760405162461bcd60e51b815260206004820152602560248201527f45524332303a2064656372656173656420616c6c6f77616e63652062656c6f77604482015264207a65726f60d81b606482015260840161081c565b610f7f8286868403611901565b506001949350505050565b6000336107d1818585611b36565b60608167ffffffffffffffff811115610fb357610fb361335d565b604051908082528060200260200182016040528015610fe657816020015b6060815260200190600190039081610fd15790505b50905060005b82811015611086576110563085858481811061100a5761100a613973565b905060200281019061101c919061381a565b8080601f0160208091040260200160405190810160405280939291908181526020018383808284376000920191909152506121c092505050565b82828151811061106857611068613973565b6020026020010181905250808061107e90613989565b915050610fec565b5092915050565b834211156110dd5760405162461bcd60e51b815260206004820152601d60248201527f4552433230566f7465733a207369676e61747572652065787069726564000000604482015260640161081c565b604080517fe48329057bfd03d55e49b547132e39cffd9c1820ad7b9d4c5307691425d15adf60208201526001600160a01b03881691810191909152606081018690526080810185905260009060a0016040516020818303038152906040528051906020012090506000611192611151610857565b8360405161190160f01b6020820152602281018390526042810182905260009060620160405160208183030381529060405280519060200120905092915050565b905060006111a2828787876121e5565b90506111ad8161220d565b88146111fb5760405162461bcd60e51b815260206004820152601960248201527f4552433230566f7465733a20696e76616c6964206e6f6e636500000000000000604482015260640161081c565b611205818a611e74565b505050505050505050565b834211156112605760405162461bcd60e51b815260206004820152601d60248201527f45524332305065726d69743a206578706972656420646561646c696e65000000604482015260640161081c565b60007f000000000000000000000000000000000000000000000000000000000000000088888861128f8c61220d565b6040805160208101969096526001600160a01b0394851690860152929091166060840152608083015260a082015260c0810186905260e00160405160208183030381529060405280519060200120905060006112ec611151610857565b905060006112fc828787876121e5565b9050896001600160a01b0316816001600160a01b03161461135f5760405162461bcd60e51b815260206004820152601e60248201527f45524332305065726d69743a20696e76616c6964207369676e61747572650000604482015260640161081c565b61136a8a8a8a611901565b50505050505050505050565b600c8054600d54600e54600f54601054601154601254601380549798969795969495939492936001600160a01b0390921692916113b2906137b7565b80601f01602080910402602001604051908101604052809291908181526020018280546113de906137b7565b801561142b5780601f106114005761010080835404028352916020019161142b565b820191906000526020600020905b81548152906001019060200180831161140e57829003601f168201915b5050505050905088565b60008054611442906137b7565b80601f016020809104026020016040519081016040528092919081815260200182805461146e906137b7565b80156114bb5780601f10611490576101008083540402835291602001916114bb565b820191906000526020600020905b81548152906001019060200180831161149e57829003601f168201915b505050505081565b6040805161010081018252600c80548252600d546020830152600e5492820192909252600f546060820152601054608082015260115460a08201526012546001600160a01b031660c0820152601380546000939160e0840191611525906137b7565b80601f0160208091040260200160405190810160405280929190818152602001828054611551906137b7565b801561159e5780601f106115735761010080835404028352916020019161159e565b820191906000526020600020905b81548152906001019060200180831161158157829003601f168201915b50505091909252505050606081015160a082015160c08301516080840151939450600093156116815761167d6115d487806139a4565b80806020026020016040519081016040528093929190818152602001838360200280828437600092019190915250505060808089015191508d9060208b01359060408c013590611629908d0160608e01613275565b6040516bffffffffffffffffffffffff19606095861b811660208301526034820194909452605481019290925290921b16607482015260880160405160208183030381529060405280519060200120612235565b5093505b831561170b576000198660200135141561169b57826116a1565b85602001355b9250600019866040013514156116b757816116bd565b85604001355b91506000198660400135141580156116ee575060006116e26080880160608901613275565b6001600160a01b031614155b6116f85780611708565b6117086080870160608801613275565b90505b60145460009081526015602090815260408083206001600160a01b03808f168552925290912054908981169083161415806117465750828814155b156117935760405162461bcd60e51b815260206004820152601060248201527f2150726963654f7243757272656e637900000000000000000000000000000000604482015260640161081c565b8915806117a85750836117a6828c613802565b115b156117de5760405162461bcd60e51b815260040161081c906020808252600490820152632151747960e01b604082015260600190565b85602001518a87604001516117f39190613802565b111561182e5760405162461bcd60e51b815260206004820152600a602482015269214d6178537570706c7960b01b604482015260640161081c565b85514210156118705760405162461bcd60e51b815260206004820152600e60248201526d18d85b9d0818db185a5b481e595d60921b604482015260640161081c565b5050505050505050505050565b60408051808201909152600080825260208201526001600160a01b0383166000908152600960205260409020805463ffffffff84169081106118c1576118c1613973565b60009182526020918290206040805180820190915291015463ffffffff8116825264010000000090046001600160e01b0316918101919091529392505050565b6001600160a01b0383166119635760405162461bcd60e51b8152602060048201526024808201527f45524332303a20617070726f76652066726f6d20746865207a65726f206164646044820152637265737360e01b606482015260840161081c565b6001600160a01b0382166119c45760405162461bcd60e51b815260206004820152602260248201527f45524332303a20617070726f766520746f20746865207a65726f206164647265604482015261737360f01b606482015260840161081c565b6001600160a01b0383811660008181526003602090815260408083209487168084529482529182902085905590518481527f8c5be1e5ebec7d5bd14f71427d1e84f3dd0314c0f7b2291e5b200ac8c7c3b925910160405180910390a3505050565b6000611a396001546001600160a01b031690565b6001600160a01b0316336001600160a01b031614905090565b600180546001600160a01b038381166001600160a01b0319831681179093556040519116919082907f8292fce18fa69edf4db7b94ea2e58241df0ae57f97e0a6c9b29067028bf92d7690600090a35050565b6001600160a01b038381166000908152600360209081526040808320938616835292905220546000198114611b305781811015611b235760405162461bcd60e51b815260206004820152601d60248201527f45524332303a20696e73756666696369656e7420616c6c6f77616e6365000000604482015260640161081c565b611b308484848403611901565b50505050565b6001600160a01b038316611b9a5760405162461bcd60e51b815260206004820152602560248201527f45524332303a207472616e736665722066726f6d20746865207a65726f206164604482015264647265737360d81b606482015260840161081c565b6001600160a01b038216611bfc5760405162461bcd60e51b815260206004820152602360248201527f45524332303a207472616e7366657220746f20746865207a65726f206164647260448201526265737360e81b606482015260840161081c565b6001600160a01b03831660009081526002602052604090205481811015611c745760405162461bcd60e51b815260206004820152602660248201527f45524332303a207472616e7366657220616d6f756e7420657863656564732062604482015265616c616e636560d01b606482015260840161081c565b6001600160a01b03808516600090815260026020526040808220858503905591851681529081208054849290611cab908490613802565b92505081905550826001600160a01b0316846001600160a01b03167fddf252ad1be2c89b69c2b068fc378daa952ba7f163c4a11628f55a4df523b3ef84604051611cf791815260200190565b60405180910390a3611b30848484612308565b60007f8b73c3c69bb8fe3d512ecc4cf759cc79239f7b179b0ffacaa9a75d522b39400f611d35610731565b80516020918201206040805192830193909352918101919091527fc89efdaa54c0f20c7adf612882df0950f5a951637e0307cdcb4c672f298b8bc660608201524660808201523060a082015260c00160405160208183030381529060405280519060200120905090565b8154600090815b81811015611e03576000611dba828461233a565b905084868281548110611dcf57611dcf613973565b60009182526020909120015463ffffffff161115611def57809250611dfd565b611dfa816001613802565b91505b50611da6565b8115611e475784611e1560018461395c565b81548110611e2557611e25613973565b60009182526020909120015464010000000090046001600160e01b0316611e4a565b60005b6001600160e01b031695945050505050565b611e668282612355565b611b30600a6124aa836124b6565b6001600160a01b03828116600081815260086020818152604080842080546002845282862054949093528787166001600160a01b03198416811790915590519190951694919391928592917f3134e8a2e6d97e929a7e54011ea5485d7d196dd5f0ba4d4ef95803e8e3fc257f9190a4611b3082848361262f565b600b80546001600160a01b0319166001600160a01b0383169081179091556040517f299d17e95023f496e0ffc4909cff1a61f74bb5eb18de6f900f4155bfa1b3b33390600090a250565b600063ffffffff821115611f9d5760405162461bcd60e51b815260206004820152602660248201527f53616665436173743a2076616c756520646f65736e27742066697420696e203360448201526532206269747360d01b606482015260840161081c565b5090565b505050505050565b80611fb357611b30565b6000670de0b6b3a7640000611fc883866139ee565b611fd29190613a0d565b9050600081116120245760405162461bcd60e51b815260206004820152601060248201527f7175616e7469747920746f6f206c6f7700000000000000000000000000000000604482015260640161081c565b6001600160a01b03831673eeeeeeeeeeeeeeeeeeeeeeeeeeeeeeeeeeeeeeee1415612098578034146120985760405162461bcd60e51b815260206004820152601660248201527f4d7573742073656e6420746f74616c2070726963652e00000000000000000000604482015260640161081c565b60006001600160a01b038616156120af57856120bc565b600b546001600160a01b03165b9050611fa18433838561276c565b60006120d683836127b6565b50600092915050565b60008080546120ed906137b7565b80601f0160208091040260200160405190810160405280929190818152602001828054612119906137b7565b80156121665780601f1061213b57610100808354040283529160200191612166565b820191906000526020600020905b81548152906001019060200180831161214957829003601f168201915b5050855193945061218293600093506020870192509050613134565b507fc9c7c3fe08b88b4df9d4d47ef47d2c43d55c025a0ba88ca442580ed9e7348a1681836040516121b4929190613a2f565b60405180910390a15050565b60606108508383604051806060016040528060278152602001613aad6027913961284d565b60008060006121f68787878761292a565b9150915061220381612a17565b5095945050505050565b6001600160a01b03811660009081526007602052604090208054600181018255905b50919050565b6000808281805b87518110156122f7576122506002836139ee565b9150600088828151811061226657612266613973565b602002602001015190508084116122a85760408051602081018690529081018290526060016040516020818303038152906040528051906020012093506122e4565b60408051602081018390529081018590526060016040516020818303038152906040528051906020012093506001836122e19190613802565b92505b50806122ef81613989565b91505061223c565b50941495939450505050565b505050565b6001600160a01b038381166000908152600860205260408082205485841683529120546123039291821691168361262f565b60006123496002848418613a0d565b61085090848416613802565b6001600160a01b0382166123b55760405162461bcd60e51b815260206004820152602160248201527f45524332303a206275726e2066726f6d20746865207a65726f206164647265736044820152607360f81b606482015260840161081c565b6001600160a01b038216600090815260026020526040902054818110156124295760405162461bcd60e51b815260206004820152602260248201527f45524332303a206275726e20616d6f756e7420657863656564732062616c616e604482015261636560f01b606482015260840161081c565b6001600160a01b038316600090815260026020526040812083830390556004805484929061245890849061395c565b90915550506040518281526000906001600160a01b038516907fddf252ad1be2c89b69c2b068fc378daa952ba7f163c4a11628f55a4df523b3ef9060200160405180910390a361230383600084612308565b6000610850828461395c565b82546000908190801561250157856124cf60018361395c565b815481106124df576124df613973565b60009182526020909120015464010000000090046001600160e01b0316612504565b60005b6001600160e01b0316925061251d83858763ffffffff16565b915060008111801561255b5750438661253760018461395c565b8154811061254757612547613973565b60009182526020909120015463ffffffff16145b156125bb5761256982612bd2565b8661257560018461395c565b8154811061258557612585613973565b9060005260206000200160000160046101000a8154816001600160e01b0302191690836001600160e01b03160217905550612626565b8560405180604001604052806125d043611f38565b63ffffffff1681526020016125e485612bd2565b6001600160e01b0390811690915282546001810184556000938452602093849020835194909301519091166401000000000263ffffffff909316929092179101555b50935093915050565b816001600160a01b0316836001600160a01b0316141580156126515750600081115b15612303576001600160a01b038316156126df576001600160a01b0383166000908152600960205260408120819061268c906124aa856124b6565b91509150846001600160a01b03167fdec2bacdd2f05b59de34da9b523dff8be42e5e38e818c82fdb0bae774387a72483836040516126d4929190918252602082015260400190565b60405180910390a250505b6001600160a01b03821615612303576001600160a01b0382166000908152600960205260408120819061271590612c3b856124b6565b91509150836001600160a01b03167fdec2bacdd2f05b59de34da9b523dff8be42e5e38e818c82fdb0bae774387a724838360405161275d929190918252602082015260400190565b60405180910390a25050505050565b8061277657611b30565b6001600160a01b03841673eeeeeeeeeeeeeeeeeeeeeeeeeeeeeeeeeeeeeeee14156127aa576127a58282612c47565b611b30565b611b3084848484612cea565b6127c08282612d43565b6004546001600160e01b03101561283f5760405162461bcd60e51b815260206004820152603060248201527f4552433230566f7465733a20746f74616c20737570706c79207269736b73206f60448201527f766572666c6f77696e6720766f74657300000000000000000000000000000000606482015260840161081c565b611b30600a612c3b836124b6565b60606001600160a01b0384163b6128b55760405162461bcd60e51b815260206004820152602660248201527f416464726573733a2064656c65676174652063616c6c20746f206e6f6e2d636f6044820152651b9d1c9858dd60d21b606482015260840161081c565b600080856001600160a01b0316856040516128d09190613a5d565b600060405180830381855af49150503d806000811461290b576040519150601f19603f3d011682016040523d82523d6000602084013e612910565b606091505b5091509150612920828286612e2e565b9695505050505050565b6000807f7fffffffffffffffffffffffffffffff5d576e7357a4501ddfe92f46681b20a08311156129615750600090506003612a0e565b8460ff16601b1415801561297957508460ff16601c14155b1561298a5750600090506004612a0e565b6040805160008082526020820180845289905260ff881692820192909252606081018690526080810185905260019060a0016020604051602081039080840390855afa1580156129de573d6000803e3d6000fd5b5050604051601f1901519150506001600160a01b038116612a0757600060019250925050612a0e565b9150600090505b94509492505050565b6000816004811115612a2b57612a2b613a79565b1415612a345750565b6001816004811115612a4857612a48613a79565b1415612a965760405162461bcd60e51b815260206004820152601860248201527f45434453413a20696e76616c6964207369676e61747572650000000000000000604482015260640161081c565b6002816004811115612aaa57612aaa613a79565b1415612af85760405162461bcd60e51b815260206004820152601f60248201527f45434453413a20696e76616c6964207369676e6174757265206c656e67746800604482015260640161081c565b6003816004811115612b0c57612b0c613a79565b1415612b655760405162461bcd60e51b815260206004820152602260248201527f45434453413a20696e76616c6964207369676e6174757265202773272076616c604482015261756560f01b606482015260840161081c565b6004816004811115612b7957612b79613a79565b141561082e5760405162461bcd60e51b815260206004820152602260248201527f45434453413a20696e76616c6964207369676e6174757265202776272076616c604482015261756560f01b606482015260840161081c565b60006001600160e01b03821115611f9d5760405162461bcd60e51b815260206004820152602760248201527f53616665436173743a2076616c756520646f65736e27742066697420696e20326044820152663234206269747360c81b606482015260840161081c565b60006108508284613802565b6000826001600160a01b03168260405160006040518083038185875af1925050503d8060008114612c94576040519150601f19603f3d011682016040523d82523d6000602084013e612c99565b606091505b50509050806123035760405162461bcd60e51b815260206004820152601c60248201527f6e617469766520746f6b656e207472616e73666572206661696c656400000000604482015260640161081c565b816001600160a01b0316836001600160a01b03161415612d0957611b30565b6001600160a01b038316301415612d2e576127a56001600160a01b0385168383612e67565b611b306001600160a01b038516848484612ee2565b6001600160a01b038216612d995760405162461bcd60e51b815260206004820152601f60248201527f45524332303a206d696e7420746f20746865207a65726f206164647265737300604482015260640161081c565b8060046000828254612dab9190613802565b90915550506001600160a01b03821660009081526002602052604081208054839290612dd8908490613802565b90915550506040518181526001600160a01b038316906000907fddf252ad1be2c89b69c2b068fc378daa952ba7f163c4a11628f55a4df523b3ef9060200160405180910390a3612e2a60008383612308565b5050565b60608315612e3d575081610850565b825115612e4d5782518084602001fd5b8160405162461bcd60e51b815260040161081c919061321c565b6040516001600160a01b03831660248201526044810182905261230390849063a9059cbb60e01b906064015b60408051601f198184030181529190526020810180516001600160e01b03167fffffffff0000000000000000000000000000000000000000000000000000000090931692909217909152612f1a565b6040516001600160a01b0380851660248301528316604482015260648101829052611b309085906323b872dd60e01b90608401612e93565b6000612f6f826040518060400160405280602081526020017f5361666545524332303a206c6f772d6c6576656c2063616c6c206661696c6564815250856001600160a01b0316612fec9092919063ffffffff16565b8051909150156123035780806020019051810190612f8d9190613a8f565b6123035760405162461bcd60e51b815260206004820152602a60248201527f5361666545524332303a204552433230206f7065726174696f6e20646964206e6044820152691bdd081cdd58d8d9595960b21b606482015260840161081c565b6060612ffb8484600085613003565b949350505050565b6060824710156130645760405162461bcd60e51b815260206004820152602660248201527f416464726573733a20696e73756666696369656e742062616c616e636520666f6044820152651c8818d85b1b60d21b606482015260840161081c565b6001600160a01b0385163b6130bb5760405162461bcd60e51b815260206004820152601d60248201527f416464726573733a2063616c6c20746f206e6f6e2d636f6e7472616374000000604482015260640161081c565b600080866001600160a01b031685876040516130d79190613a5d565b60006040518083038185875af1925050503d8060008114613114576040519150601f19603f3d011682016040523d82523d6000602084013e613119565b606091505b5091509150613129828286612e2e565b979650505050505050565b828054613140906137b7565b90600052602060002090601f01602090048101928261316257600085556131a8565b82601f1061317b57805160ff19168380011785556131a8565b828001600101855582156131a8579182015b828111156131a857825182559160200191906001019061318d565b50611f9d9291505b80821115611f9d57600081556001016131b0565b60005b838110156131df5781810151838201526020016131c7565b83811115611b305750506000910152565b600081518084526132088160208601602086016131c4565b601f01601f19169290920160200192915050565b60208152600061085060208301846131f0565b80356001600160a01b038116811461324657600080fd5b919050565b6000806040838503121561325e57600080fd5b6132678361322f565b946020939093013593505050565b60006020828403121561328757600080fd5b6108508261322f565b6000806000606084860312156132a557600080fd5b6132ae8461322f565b92506132bc6020850161322f565b9150604084013590509250925092565b801515811461082e57600080fd5b600080604083850312156132ed57600080fd5b823567ffffffffffffffff81111561330457600080fd5b8301610100818603121561331757600080fd5b91506020830135613327816132cc565b809150509250929050565b60006020828403121561334457600080fd5b5035919050565b60006080828403121561222f57600080fd5b634e487b7160e01b600052604160045260246000fd5b600067ffffffffffffffff8084111561338e5761338e61335d565b604051601f8501601f19908116603f011681019082821181831017156133b6576133b661335d565b816040528093508581528686860111156133cf57600080fd5b858560208301376000602087830101525050509392505050565b60008060008060008060c0878903121561340257600080fd5b61340b8761322f565b9550602087013594506134206040880161322f565b935060608701359250608087013567ffffffffffffffff8082111561344457600080fd5b6134508a838b0161334b565b935060a089013591508082111561346657600080fd5b508701601f8101891361347857600080fd5b61348789823560208401613373565b9150509295509295509295565b6000602082840312156134a657600080fd5b813567ffffffffffffffff8111156134bd57600080fd5b8201601f810184136134ce57600080fd5b612ffb84823560208401613373565b600080602083850312156134f057600080fd5b823567ffffffffffffffff8082111561350857600080fd5b818501915085601f83011261351c57600080fd5b81358181111561352b57600080fd5b8660208260051b850101111561354057600080fd5b60209290920196919550909350505050565b6000602080830181845280855180835260408601915060408160051b870101925083870160005b828110156135a757603f198886030184526135958583516131f0565b94509285019290850190600101613579565b5092979650505050505050565b803560ff8116811461324657600080fd5b60008060008060008060c087890312156135de57600080fd5b6135e78761322f565b95506020870135945060408701359350613603606088016135b4565b92506080870135915060a087013590509295509295509295565b600080600080600080600060e0888a03121561363857600080fd5b6136418861322f565b965061364f6020890161322f565b9550604088013594506060880135935061366b608089016135b4565b925060a0880135915060c0880135905092959891949750929550565b60006101008a83528960208401528860408401528760608401528660808401528560a08401526001600160a01b03851660c08401528060e08401526136ce818401856131f0565b9b9a5050505050505050505050565b600080604083850312156136f057600080fd5b6136f98361322f565b91506137076020840161322f565b90509250929050565b600080600080600060a0868803121561372857600080fd5b6137318661322f565b9450602086013593506137466040870161322f565b925060608601359150608086013567ffffffffffffffff81111561376957600080fd5b6137758882890161334b565b9150509295509295909350565b6000806040838503121561379557600080fd5b61379e8361322f565b9150602083013563ffffffff8116811461332757600080fd5b600181811c908216806137cb57607f821691505b6020821081141561222f57634e487b7160e01b600052602260045260246000fd5b634e487b7160e01b600052601160045260246000fd5b60008219821115613815576138156137ec565b500190565b6000808335601e1984360301811261383157600080fd5b83018035915067ffffffffffffffff82111561384c57600080fd5b60200191503681900382131561386157600080fd5b9250929050565b81835281816020850137506000828201602090810191909152601f909101601f19169091010190565b60408152823560408201526020830135606082015260408301356080820152606083013560a0820152608083013560c082015260a083013560e082015260006138dc60c0850161322f565b6101006001600160a01b0382168185015260e08601359150601e1986360301821261390657600080fd5b90850190813567ffffffffffffffff81111561392157600080fd5b80360387131561393057600080fd5b8161012086015261394961014086018260208601613868565b9350505050610850602083018415159052565b60008282101561396e5761396e6137ec565b500390565b634e487b7160e01b600052603260045260246000fd5b600060001982141561399d5761399d6137ec565b5060010190565b6000808335601e198436030181126139bb57600080fd5b83018035915067ffffffffffffffff8211156139d657600080fd5b6020019150600581901b360382131561386157600080fd5b6000816000190483118215151615613a0857613a086137ec565b500290565b600082613a2a57634e487b7160e01b600052601260045260246000fd5b500490565b604081526000613a4260408301856131f0565b8281036020840152613a5481856131f0565b95945050505050565b60008251613a6f8184602087016131c4565b9190910192915050565b634e487b7160e01b600052602160045260246000fd5b600060208284031215613aa157600080fd5b8151610850816132cc56fe416464726573733a206c6f772d6c6576656c2064656c65676174652063616c6c206661696c6564a26469706673582212205e9976b5e719cc6dc1f8653d51599b1a95cec5bb1b5be60ede59718c8cfbcaf264736f6c634300080c0033",
  "linkReferences": {},
  "deployedLinkReferences": {}
}