{
  "_format": "hh-sol-artifact-1",
  "contractName": "ERC721Drop",
  "sourceName": "contracts/base/ERC721Drop.sol",
  "abi": [
    {
      "inputs": [
        {
          "internalType": "string",
          "name": "_name",
          "type": "string"
        },
        {
          "internalType": "string",
          "name": "_symbol",
          "type": "string"
        },
        {
          "internalType": "address",
          "name": "_royaltyRecipient",
          "type": "address"
        },
        {
          "internalType": "uint128",
          "name": "_royaltyBps",
          "type": "uint128"
        },
        {
          "internalType": "address",
          "name": "_primarySaleRecipient",
          "type": "address"
        }
      ],
      "stateMutability": "nonpayable",
      "type": "constructor"
    },
    {
      "inputs": [],
      "name": "ApprovalCallerNotOwnerNorApproved",
      "type": "error"
    },
    {
      "inputs": [],
      "name": "ApprovalQueryForNonexistentToken",
      "type": "error"
    },
    {
      "inputs": [],
      "name": "ApprovalToCurrentOwner",
      "type": "error"
    },
    {
      "inputs": [],
      "name": "ApproveToCaller",
      "type": "error"
    },
    {
      "inputs": [],
      "name": "BalanceQueryForZeroAddress",
      "type": "error"
    },
    {
      "inputs": [],
      "name": "MintToZeroAddress",
      "type": "error"
    },
    {
      "inputs": [],
      "name": "MintZeroQuantity",
      "type": "error"
    },
    {
      "inputs": [],
      "name": "OwnerQueryForNonexistentToken",
      "type": "error"
    },
    {
      "inputs": [],
      "name": "TransferCallerNotOwnerNorApproved",
      "type": "error"
    },
    {
      "inputs": [],
      "name": "TransferFromIncorrectOwner",
      "type": "error"
    },
    {
      "inputs": [],
      "name": "TransferToNonERC721ReceiverImplementer",
      "type": "error"
    },
    {
      "inputs": [],
      "name": "TransferToZeroAddress",
      "type": "error"
    },
    {
      "inputs": [],
      "name": "URIQueryForNonexistentToken",
      "type": "error"
    },
    {
      "anonymous": false,
      "inputs": [
        {
          "indexed": true,
          "internalType": "address",
          "name": "owner",
          "type": "address"
        },
        {
          "indexed": true,
          "internalType": "address",
          "name": "approved",
          "type": "address"
        },
        {
          "indexed": true,
          "internalType": "uint256",
          "name": "tokenId",
          "type": "uint256"
        }
      ],
      "name": "Approval",
      "type": "event"
    },
    {
      "anonymous": false,
      "inputs": [
        {
          "indexed": true,
          "internalType": "address",
          "name": "owner",
          "type": "address"
        },
        {
          "indexed": true,
          "internalType": "address",
          "name": "operator",
          "type": "address"
        },
        {
          "indexed": false,
          "internalType": "bool",
          "name": "approved",
          "type": "bool"
        }
      ],
      "name": "ApprovalForAll",
      "type": "event"
    },
    {
      "anonymous": false,
      "inputs": [
        {
          "components": [
            {
              "internalType": "uint256",
              "name": "startTimestamp",
              "type": "uint256"
            },
            {
              "internalType": "uint256",
              "name": "maxClaimableSupply",
              "type": "uint256"
            },
            {
              "internalType": "uint256",
              "name": "supplyClaimed",
              "type": "uint256"
            },
            {
              "internalType": "uint256",
              "name": "quantityLimitPerWallet",
              "type": "uint256"
            },
            {
              "internalType": "bytes32",
              "name": "merkleRoot",
              "type": "bytes32"
            },
            {
              "internalType": "uint256",
              "name": "pricePerToken",
              "type": "uint256"
            },
            {
              "internalType": "address",
              "name": "currency",
              "type": "address"
            },
            {
              "internalType": "string",
              "name": "metadata",
              "type": "string"
            }
          ],
          "indexed": false,
          "internalType": "struct IClaimCondition.ClaimCondition",
          "name": "condition",
          "type": "tuple"
        },
        {
          "indexed": false,
          "internalType": "bool",
          "name": "resetEligibility",
          "type": "bool"
        }
      ],
      "name": "ClaimConditionUpdated",
      "type": "event"
    },
    {
      "anonymous": false,
      "inputs": [
        {
          "indexed": false,
          "internalType": "string",
          "name": "prevURI",
          "type": "string"
        },
        {
          "indexed": false,
          "internalType": "string",
          "name": "newURI",
          "type": "string"
        }
      ],
      "name": "ContractURIUpdated",
      "type": "event"
    },
    {
      "anonymous": false,
      "inputs": [
        {
          "indexed": true,
          "internalType": "address",
          "name": "newRoyaltyRecipient",
          "type": "address"
        },
        {
          "indexed": false,
          "internalType": "uint256",
          "name": "newRoyaltyBps",
          "type": "uint256"
        }
      ],
      "name": "DefaultRoyalty",
      "type": "event"
    },
    {
      "anonymous": false,
      "inputs": [
        {
          "indexed": true,
          "internalType": "address",
          "name": "prevOwner",
          "type": "address"
        },
        {
          "indexed": true,
          "internalType": "address",
          "name": "newOwner",
          "type": "address"
        }
      ],
      "name": "OwnerUpdated",
      "type": "event"
    },
    {
      "anonymous": false,
      "inputs": [
        {
          "indexed": true,
          "internalType": "address",
          "name": "recipient",
          "type": "address"
        }
      ],
      "name": "PrimarySaleRecipientUpdated",
      "type": "event"
    },
    {
      "anonymous": false,
      "inputs": [
        {
          "indexed": true,
          "internalType": "uint256",
          "name": "tokenId",
          "type": "uint256"
        },
        {
          "indexed": true,
          "internalType": "address",
          "name": "royaltyRecipient",
          "type": "address"
        },
        {
          "indexed": false,
          "internalType": "uint256",
          "name": "royaltyBps",
          "type": "uint256"
        }
      ],
      "name": "RoyaltyForToken",
      "type": "event"
    },
    {
      "anonymous": false,
      "inputs": [
        {
          "indexed": true,
          "internalType": "uint256",
          "name": "index",
          "type": "uint256"
        },
        {
          "indexed": false,
          "internalType": "string",
          "name": "revealedURI",
          "type": "string"
        }
      ],
      "name": "TokenURIRevealed",
      "type": "event"
    },
    {
      "anonymous": false,
      "inputs": [
        {
          "indexed": true,
          "internalType": "address",
          "name": "claimer",
          "type": "address"
        },
        {
          "indexed": true,
          "internalType": "address",
          "name": "receiver",
          "type": "address"
        },
        {
          "indexed": true,
          "internalType": "uint256",
          "name": "startTokenId",
          "type": "uint256"
        },
        {
          "indexed": false,
          "internalType": "uint256",
          "name": "quantityClaimed",
          "type": "uint256"
        }
      ],
      "name": "TokensClaimed",
      "type": "event"
    },
    {
      "anonymous": false,
      "inputs": [
        {
          "indexed": true,
          "internalType": "uint256",
          "name": "startTokenId",
          "type": "uint256"
        },
        {
          "indexed": false,
          "internalType": "uint256",
          "name": "endTokenId",
          "type": "uint256"
        },
        {
          "indexed": false,
          "internalType": "string",
          "name": "baseURI",
          "type": "string"
        },
        {
          "indexed": false,
          "internalType": "bytes",
          "name": "encryptedBaseURI",
          "type": "bytes"
        }
      ],
      "name": "TokensLazyMinted",
      "type": "event"
    },
    {
      "anonymous": false,
      "inputs": [
        {
          "indexed": true,
          "internalType": "address",
          "name": "from",
          "type": "address"
        },
        {
          "indexed": true,
          "internalType": "address",
          "name": "to",
          "type": "address"
        },
        {
          "indexed": true,
          "internalType": "uint256",
          "name": "tokenId",
          "type": "uint256"
        }
      ],
      "name": "Transfer",
      "type": "event"
    },
    {
      "inputs": [
        {
          "internalType": "address",
          "name": "to",
          "type": "address"
        },
        {
          "internalType": "uint256",
          "name": "tokenId",
          "type": "uint256"
        }
      ],
      "name": "approve",
      "outputs": [],
      "stateMutability": "nonpayable",
      "type": "function"
    },
    {
      "inputs": [
        {
          "internalType": "address",
          "name": "owner",
          "type": "address"
        }
      ],
      "name": "balanceOf",
      "outputs": [
        {
          "internalType": "uint256",
          "name": "",
          "type": "uint256"
        }
      ],
      "stateMutability": "view",
      "type": "function"
    },
    {
      "inputs": [
        {
          "internalType": "uint256",
          "name": "_tokenId",
          "type": "uint256"
        }
      ],
      "name": "burn",
      "outputs": [],
      "stateMutability": "nonpayable",
      "type": "function"
    },
    {
      "inputs": [
        {
          "internalType": "address",
          "name": "_receiver",
          "type": "address"
        },
        {
          "internalType": "uint256",
          "name": "_quantity",
          "type": "uint256"
        },
        {
          "internalType": "address",
          "name": "_currency",
          "type": "address"
        },
        {
          "internalType": "uint256",
          "name": "_pricePerToken",
          "type": "uint256"
        },
        {
          "components": [
            {
              "internalType": "bytes32[]",
              "name": "proof",
              "type": "bytes32[]"
            },
            {
              "internalType": "uint256",
              "name": "quantityLimitPerWallet",
              "type": "uint256"
            },
            {
              "internalType": "uint256",
              "name": "pricePerToken",
              "type": "uint256"
            },
            {
              "internalType": "address",
              "name": "currency",
              "type": "address"
            }
          ],
          "internalType": "struct IDropSinglePhase.AllowlistProof",
          "name": "_allowlistProof",
          "type": "tuple"
        },
        {
          "internalType": "bytes",
          "name": "_data",
          "type": "bytes"
        }
      ],
      "name": "claim",
      "outputs": [],
      "stateMutability": "payable",
      "type": "function"
    },
    {
      "inputs": [],
      "name": "claimCondition",
      "outputs": [
        {
          "internalType": "uint256",
          "name": "startTimestamp",
          "type": "uint256"
        },
        {
          "internalType": "uint256",
          "name": "maxClaimableSupply",
          "type": "uint256"
        },
        {
          "internalType": "uint256",
          "name": "supplyClaimed",
          "type": "uint256"
        },
        {
          "internalType": "uint256",
          "name": "quantityLimitPerWallet",
          "type": "uint256"
        },
        {
          "internalType": "bytes32",
          "name": "merkleRoot",
          "type": "bytes32"
        },
        {
          "internalType": "uint256",
          "name": "pricePerToken",
          "type": "uint256"
        },
        {
          "internalType": "address",
          "name": "currency",
          "type": "address"
        },
        {
          "internalType": "string",
          "name": "metadata",
          "type": "string"
        }
      ],
      "stateMutability": "view",
      "type": "function"
    },
    {
      "inputs": [],
      "name": "contractURI",
      "outputs": [
        {
          "internalType": "string",
          "name": "",
          "type": "string"
        }
      ],
      "stateMutability": "view",
      "type": "function"
    },
    {
      "inputs": [
        {
          "internalType": "bytes",
          "name": "data",
          "type": "bytes"
        },
        {
          "internalType": "bytes",
          "name": "key",
          "type": "bytes"
        }
      ],
      "name": "encryptDecrypt",
      "outputs": [
        {
          "internalType": "bytes",
          "name": "result",
          "type": "bytes"
        }
      ],
      "stateMutability": "pure",
      "type": "function"
    },
    {
      "inputs": [
        {
          "internalType": "uint256",
          "name": "",
          "type": "uint256"
        }
      ],
      "name": "encryptedData",
      "outputs": [
        {
          "internalType": "bytes",
          "name": "",
          "type": "bytes"
        }
      ],
      "stateMutability": "view",
      "type": "function"
    },
    {
      "inputs": [
        {
          "internalType": "uint256",
          "name": "tokenId",
          "type": "uint256"
        }
      ],
      "name": "getApproved",
      "outputs": [
        {
          "internalType": "address",
          "name": "",
          "type": "address"
        }
      ],
      "stateMutability": "view",
      "type": "function"
    },
    {
      "inputs": [],
      "name": "getBaseURICount",
      "outputs": [
        {
          "internalType": "uint256",
          "name": "",
          "type": "uint256"
        }
      ],
      "stateMutability": "view",
      "type": "function"
    },
    {
      "inputs": [
        {
          "internalType": "uint256",
          "name": "_index",
          "type": "uint256"
        }
      ],
      "name": "getBatchIdAtIndex",
      "outputs": [
        {
          "internalType": "uint256",
          "name": "",
          "type": "uint256"
        }
      ],
      "stateMutability": "view",
      "type": "function"
    },
    {
      "inputs": [],
      "name": "getDefaultRoyaltyInfo",
      "outputs": [
        {
          "internalType": "address",
          "name": "",
          "type": "address"
        },
        {
          "internalType": "uint16",
          "name": "",
          "type": "uint16"
        }
      ],
      "stateMutability": "view",
      "type": "function"
    },
    {
      "inputs": [
        {
          "internalType": "uint256",
          "name": "_batchId",
          "type": "uint256"
        },
        {
          "internalType": "bytes",
          "name": "_key",
          "type": "bytes"
        }
      ],
      "name": "getRevealURI",
      "outputs": [
        {
          "internalType": "string",
          "name": "revealedURI",
          "type": "string"
        }
      ],
      "stateMutability": "view",
      "type": "function"
    },
    {
      "inputs": [
        {
          "internalType": "uint256",
          "name": "_tokenId",
          "type": "uint256"
        }
      ],
      "name": "getRoyaltyInfoForToken",
      "outputs": [
        {
          "internalType": "address",
          "name": "",
          "type": "address"
        },
        {
          "internalType": "uint16",
          "name": "",
          "type": "uint16"
        }
      ],
      "stateMutability": "view",
      "type": "function"
    },
    {
      "inputs": [
        {
          "internalType": "address",
          "name": "_claimer",
          "type": "address"
        }
      ],
      "name": "getSupplyClaimedByWallet",
      "outputs": [
        {
          "internalType": "uint256",
          "name": "",
          "type": "uint256"
        }
      ],
      "stateMutability": "view",
      "type": "function"
    },
    {
      "inputs": [
        {
          "internalType": "address",
          "name": "owner",
          "type": "address"
        },
        {
          "internalType": "address",
          "name": "operator",
          "type": "address"
        }
      ],
      "name": "isApprovedForAll",
      "outputs": [
        {
          "internalType": "bool",
          "name": "",
          "type": "bool"
        }
      ],
      "stateMutability": "view",
      "type": "function"
    },
    {
      "inputs": [
        {
          "internalType": "uint256",
          "name": "_batchId",
          "type": "uint256"
        }
      ],
      "name": "isEncryptedBatch",
      "outputs": [
        {
          "internalType": "bool",
          "name": "",
          "type": "bool"
        }
      ],
      "stateMutability": "view",
      "type": "function"
    },
    {
      "inputs": [
        {
          "internalType": "uint256",
          "name": "_amount",
          "type": "uint256"
        },
        {
          "internalType": "string",
          "name": "_baseURIForTokens",
          "type": "string"
        },
        {
          "internalType": "bytes",
          "name": "_data",
          "type": "bytes"
        }
      ],
      "name": "lazyMint",
      "outputs": [
        {
          "internalType": "uint256",
          "name": "batchId",
          "type": "uint256"
        }
      ],
      "stateMutability": "nonpayable",
      "type": "function"
    },
    {
      "inputs": [
        {
          "internalType": "bytes[]",
          "name": "data",
          "type": "bytes[]"
        }
      ],
      "name": "multicall",
      "outputs": [
        {
          "internalType": "bytes[]",
          "name": "results",
          "type": "bytes[]"
        }
      ],
      "stateMutability": "nonpayable",
      "type": "function"
    },
    {
      "inputs": [],
      "name": "name",
      "outputs": [
        {
          "internalType": "string",
          "name": "",
          "type": "string"
        }
      ],
      "stateMutability": "view",
      "type": "function"
    },
    {
      "inputs": [],
      "name": "nextTokenIdToClaim",
      "outputs": [
        {
          "internalType": "uint256",
          "name": "",
          "type": "uint256"
        }
      ],
      "stateMutability": "view",
      "type": "function"
    },
    {
      "inputs": [],
      "name": "nextTokenIdToMint",
      "outputs": [
        {
          "internalType": "uint256",
          "name": "",
          "type": "uint256"
        }
      ],
      "stateMutability": "view",
      "type": "function"
    },
    {
      "inputs": [],
      "name": "owner",
      "outputs": [
        {
          "internalType": "address",
          "name": "",
          "type": "address"
        }
      ],
      "stateMutability": "view",
      "type": "function"
    },
    {
      "inputs": [
        {
          "internalType": "uint256",
          "name": "tokenId",
          "type": "uint256"
        }
      ],
      "name": "ownerOf",
      "outputs": [
        {
          "internalType": "address",
          "name": "",
          "type": "address"
        }
      ],
      "stateMutability": "view",
      "type": "function"
    },
    {
      "inputs": [],
      "name": "primarySaleRecipient",
      "outputs": [
        {
          "internalType": "address",
          "name": "",
          "type": "address"
        }
      ],
      "stateMutability": "view",
      "type": "function"
    },
    {
      "inputs": [
        {
          "internalType": "uint256",
          "name": "_index",
          "type": "uint256"
        },
        {
          "internalType": "bytes",
          "name": "_key",
          "type": "bytes"
        }
      ],
      "name": "reveal",
      "outputs": [
        {
          "internalType": "string",
          "name": "revealedURI",
          "type": "string"
        }
      ],
      "stateMutability": "nonpayable",
      "type": "function"
    },
    {
      "inputs": [
        {
          "internalType": "uint256",
          "name": "tokenId",
          "type": "uint256"
        },
        {
          "internalType": "uint256",
          "name": "salePrice",
          "type": "uint256"
        }
      ],
      "name": "royaltyInfo",
      "outputs": [
        {
          "internalType": "address",
          "name": "receiver",
          "type": "address"
        },
        {
          "internalType": "uint256",
          "name": "royaltyAmount",
          "type": "uint256"
        }
      ],
      "stateMutability": "view",
      "type": "function"
    },
    {
      "inputs": [
        {
          "internalType": "address",
          "name": "from",
          "type": "address"
        },
        {
          "internalType": "address",
          "name": "to",
          "type": "address"
        },
        {
          "internalType": "uint256",
          "name": "tokenId",
          "type": "uint256"
        }
      ],
      "name": "safeTransferFrom",
      "outputs": [],
      "stateMutability": "nonpayable",
      "type": "function"
    },
    {
      "inputs": [
        {
          "internalType": "address",
          "name": "from",
          "type": "address"
        },
        {
          "internalType": "address",
          "name": "to",
          "type": "address"
        },
        {
          "internalType": "uint256",
          "name": "tokenId",
          "type": "uint256"
        },
        {
          "internalType": "bytes",
          "name": "_data",
          "type": "bytes"
        }
      ],
      "name": "safeTransferFrom",
      "outputs": [],
      "stateMutability": "nonpayable",
      "type": "function"
    },
    {
      "inputs": [
        {
          "internalType": "address",
          "name": "operator",
          "type": "address"
        },
        {
          "internalType": "bool",
          "name": "approved",
          "type": "bool"
        }
      ],
      "name": "setApprovalForAll",
      "outputs": [],
      "stateMutability": "nonpayable",
      "type": "function"
    },
    {
      "inputs": [
        {
          "components": [
            {
              "internalType": "uint256",
              "name": "startTimestamp",
              "type": "uint256"
            },
            {
              "internalType": "uint256",
              "name": "maxClaimableSupply",
              "type": "uint256"
            },
            {
              "internalType": "uint256",
              "name": "supplyClaimed",
              "type": "uint256"
            },
            {
              "internalType": "uint256",
              "name": "quantityLimitPerWallet",
              "type": "uint256"
            },
            {
              "internalType": "bytes32",
              "name": "merkleRoot",
              "type": "bytes32"
            },
            {
              "internalType": "uint256",
              "name": "pricePerToken",
              "type": "uint256"
            },
            {
              "internalType": "address",
              "name": "currency",
              "type": "address"
            },
            {
              "internalType": "string",
              "name": "metadata",
              "type": "string"
            }
          ],
          "internalType": "struct IClaimCondition.ClaimCondition",
          "name": "_condition",
          "type": "tuple"
        },
        {
          "internalType": "bool",
          "name": "_resetClaimEligibility",
          "type": "bool"
        }
      ],
      "name": "setClaimConditions",
      "outputs": [],
      "stateMutability": "nonpayable",
      "type": "function"
    },
    {
      "inputs": [
        {
          "internalType": "string",
          "name": "_uri",
          "type": "string"
        }
      ],
      "name": "setContractURI",
      "outputs": [],
      "stateMutability": "nonpayable",
      "type": "function"
    },
    {
      "inputs": [
        {
          "internalType": "address",
          "name": "_royaltyRecipient",
          "type": "address"
        },
        {
          "internalType": "uint256",
          "name": "_royaltyBps",
          "type": "uint256"
        }
      ],
      "name": "setDefaultRoyaltyInfo",
      "outputs": [],
      "stateMutability": "nonpayable",
      "type": "function"
    },
    {
      "inputs": [
        {
          "internalType": "address",
          "name": "_newOwner",
          "type": "address"
        }
      ],
      "name": "setOwner",
      "outputs": [],
      "stateMutability": "nonpayable",
      "type": "function"
    },
    {
      "inputs": [
        {
          "internalType": "address",
          "name": "_saleRecipient",
          "type": "address"
        }
      ],
      "name": "setPrimarySaleRecipient",
      "outputs": [],
      "stateMutability": "nonpayable",
      "type": "function"
    },
    {
      "inputs": [
        {
          "internalType": "uint256",
          "name": "_tokenId",
          "type": "uint256"
        },
        {
          "internalType": "address",
          "name": "_recipient",
          "type": "address"
        },
        {
          "internalType": "uint256",
          "name": "_bps",
          "type": "uint256"
        }
      ],
      "name": "setRoyaltyInfoForToken",
      "outputs": [],
      "stateMutability": "nonpayable",
      "type": "function"
    },
    {
      "inputs": [
        {
          "internalType": "bytes4",
          "name": "interfaceId",
          "type": "bytes4"
        }
      ],
      "name": "supportsInterface",
      "outputs": [
        {
          "internalType": "bool",
          "name": "",
          "type": "bool"
        }
      ],
      "stateMutability": "view",
      "type": "function"
    },
    {
      "inputs": [],
      "name": "symbol",
      "outputs": [
        {
          "internalType": "string",
          "name": "",
          "type": "string"
        }
      ],
      "stateMutability": "view",
      "type": "function"
    },
    {
      "inputs": [
        {
          "internalType": "uint256",
          "name": "_tokenId",
          "type": "uint256"
        }
      ],
      "name": "tokenURI",
      "outputs": [
        {
          "internalType": "string",
          "name": "",
          "type": "string"
        }
      ],
      "stateMutability": "view",
      "type": "function"
    },
    {
      "inputs": [],
      "name": "totalSupply",
      "outputs": [
        {
          "internalType": "uint256",
          "name": "",
          "type": "uint256"
        }
      ],
      "stateMutability": "view",
      "type": "function"
    },
    {
      "inputs": [
        {
          "internalType": "address",
          "name": "from",
          "type": "address"
        },
        {
          "internalType": "address",
          "name": "to",
          "type": "address"
        },
        {
          "internalType": "uint256",
          "name": "tokenId",
          "type": "uint256"
        }
      ],
      "name": "transferFrom",
      "outputs": [],
      "stateMutability": "nonpayable",
      "type": "function"
    },
    {
      "inputs": [
        {
          "internalType": "address",
          "name": "_claimer",
          "type": "address"
        },
        {
          "internalType": "uint256",
          "name": "_quantity",
          "type": "uint256"
        },
        {
          "internalType": "address",
          "name": "_currency",
          "type": "address"
        },
        {
          "internalType": "uint256",
          "name": "_pricePerToken",
          "type": "uint256"
        },
        {
          "components": [
            {
              "internalType": "bytes32[]",
              "name": "proof",
              "type": "bytes32[]"
            },
            {
              "internalType": "uint256",
              "name": "quantityLimitPerWallet",
              "type": "uint256"
            },
            {
              "internalType": "uint256",
              "name": "pricePerToken",
              "type": "uint256"
            },
            {
              "internalType": "address",
              "name": "currency",
              "type": "address"
            }
          ],
          "internalType": "struct IDropSinglePhase.AllowlistProof",
          "name": "_allowlistProof",
          "type": "tuple"
        }
      ],
      "name": "verifyClaim",
      "outputs": [],
      "stateMutability": "view",
      "type": "function"
    }
  ],
  "bytecode": "0x60806040523480156200001157600080fd5b50604051620044c1380380620044c1833981016040819052620000349162000377565b8451859085906200004d906002906020850190620001e7565b50805162000063906003906020840190620001e7565b505060008055506200007533620000a0565b6200008a836001600160801b038416620000f2565b62000095816200019d565b505050505062000464565b600980546001600160a01b038381166001600160a01b0319831681179093556040519116919082907f8292fce18fa69edf4db7b94ea2e58241df0ae57f97e0a6c9b29067028bf92d7690600090a35050565b6127108111156200013b5760405162461bcd60e51b815260206004820152600f60248201526e45786365656473206d61782062707360881b604482015260640160405180910390fd5b600a80546001600160a01b0384166001600160b01b03199091168117600160a01b61ffff851602179091556040518281527f90d7ec04bcb8978719414f82e52e4cb651db41d0e6f8cea6118c2191e6183adb9060200160405180910390a25050565b600e80546001600160a01b0319166001600160a01b0383169081179091556040517f299d17e95023f496e0ffc4909cff1a61f74bb5eb18de6f900f4155bfa1b3b33390600090a250565b828054620001f59062000427565b90600052602060002090601f01602090048101928262000219576000855562000264565b82601f106200023457805160ff191683800117855562000264565b8280016001018555821562000264579182015b828111156200026457825182559160200191906001019062000247565b506200027292915062000276565b5090565b5b8082111562000272576000815560010162000277565b634e487b7160e01b600052604160045260246000fd5b600082601f830112620002b557600080fd5b81516001600160401b0380821115620002d257620002d26200028d565b604051601f8301601f19908116603f01168101908282118183101715620002fd57620002fd6200028d565b816040528381526020925086838588010111156200031a57600080fd5b600091505b838210156200033e57858201830151818301840152908201906200031f565b83821115620003505760008385830101525b9695505050505050565b80516001600160a01b03811681146200037257600080fd5b919050565b600080600080600060a086880312156200039057600080fd5b85516001600160401b0380821115620003a857600080fd5b620003b689838a01620002a3565b96506020880151915080821115620003cd57600080fd5b50620003dc88828901620002a3565b945050620003ed604087016200035a565b60608701519093506001600160801b03811681146200040b57600080fd5b91506200041b608087016200035a565b90509295509295909350565b600181811c908216806200043c57607f821691505b602082108114156200045e57634e487b7160e01b600052602260045260246000fd5b50919050565b61404d80620004746000396000f3fe6080604052600436106102715760003560e01c806370a0823111610149578063acd083f8116100c6578063d37c353b1161008a578063e8a3d48511610064578063e8a3d485146107cf578063e985e9c5146107e4578063eec8897c1461082d57600080fd5b8063d37c353b14610766578063d637ed5914610786578063e7150322146107af57600080fd5b8063acd083f8146106c6578063b24f2d39146106db578063b88d4fde14610706578063c87b56dd14610726578063ce8056421461074657600080fd5b80639bcf7a151161010d5780639bcf7a15146106195780639fc4d68f14610639578063a05112fc14610659578063a22cb46514610679578063ac9650d81461069957600080fd5b806370a082311461059357806384bb1e42146105b35780638da5cb5b146105c6578063938e3d7b146105e457806395d89b411461060457600080fd5b806335b65e1f116101f2578063492e224b116101b65780636352211e116101905780636352211e1461053e57806363b45e2d1461055e5780636f4f28371461057357600080fd5b8063492e224b146104bc5780634cc157df146104dc578063600dd5ea1461051e57600080fd5b806335b65e1f146104035780633b1475a714610447578063426cfaf31461045c57806342842e0e1461047c57806342966c681461049c57600080fd5b806313af40351161023957806313af40351461034157806318160ddd1461036157806323b872dd146103845780632419f51b146103a45780632a55205a146103c457600080fd5b806301ffc9a71461027657806306fdde03146102ab578063079fe40e146102cd578063081812fc146102ff578063095ea7b31461031f575b600080fd5b34801561028257600080fd5b506102966102913660046133ae565b61084d565b60405190151581526020015b60405180910390f35b3480156102b757600080fd5b506102c06108ba565b6040516102a29190613423565b3480156102d957600080fd5b50600e546001600160a01b03165b6040516001600160a01b0390911681526020016102a2565b34801561030b57600080fd5b506102e761031a366004613436565b61094c565b34801561032b57600080fd5b5061033f61033a36600461346b565b610990565b005b34801561034d57600080fd5b5061033f61035c366004613495565b610a17565b34801561036d57600080fd5b50600154600054035b6040519081526020016102a2565b34801561039057600080fd5b5061033f61039f3660046134b0565b610a6d565b3480156103b057600080fd5b506103766103bf366004613436565b610a78565b3480156103d057600080fd5b506103e46103df3660046134ec565b610ae6565b604080516001600160a01b0390931683526020830191909152016102a2565b34801561040f57600080fd5b5061037661041e366004613495565b6019546000908152601a602090815260408083206001600160a01b039094168352929052205490565b34801561045357600080fd5b50600f54610376565b34801561046857600080fd5b5061033f61047736600461351c565b610b23565b34801561048857600080fd5b5061033f6104973660046134b0565b610d64565b3480156104a857600080fd5b5061033f6104b7366004613436565b610d7f565b3480156104c857600080fd5b506102966104d7366004613436565b610d8a565b3480156104e857600080fd5b506104fc6104f7366004613436565b610db0565b604080516001600160a01b03909316835261ffff9091166020830152016102a2565b34801561052a57600080fd5b5061033f61053936600461346b565b610e1b565b34801561054a57600080fd5b506102e7610559366004613436565b610e6e565b34801561056a57600080fd5b50600c54610376565b34801561057f57600080fd5b5061033f61058e366004613495565b610e80565b34801561059f57600080fd5b506103766105ae366004613495565b610ece565b61033f6105c1366004613659565b610f1d565b3480156105d257600080fd5b506009546001600160a01b03166102e7565b3480156105f057600080fd5b5061033f6105ff3660046136f0565b610ff7565b34801561061057600080fd5b506102c0611045565b34801561062557600080fd5b5061033f610634366004613739565b611054565b34801561064557600080fd5b506102c06106543660046137a7565b6110a4565b34801561066557600080fd5b506102c0610674366004613436565b611231565b34801561068557600080fd5b5061033f6106943660046137f3565b6112cb565b3480156106a557600080fd5b506106b96106b436600461380f565b611361565b6040516102a29190613884565b3480156106d257600080fd5b50600054610376565b3480156106e757600080fd5b50600a546001600160a01b03811690600160a01b900461ffff166104fc565b34801561071257600080fd5b5061033f6107213660046138e6565b611456565b34801561073257600080fd5b506102c0610741366004613436565b6114a0565b34801561075257600080fd5b506102c06107613660046137a7565b61150f565b34801561077257600080fd5b5061037661078136600461394e565b6115d3565b34801561079257600080fd5b5061079b61166b565b6040516102a29897969594939291906139c8565b3480156107bb57600080fd5b506102c06107ca366004613a1e565b61172a565b3480156107db57600080fd5b506102c061179f565b3480156107f057600080fd5b506102966107ff366004613a7a565b6001600160a01b03918216600090815260076020908152604080832093909416825291909152205460ff1690565b34801561083957600080fd5b5061033f610848366004613aad565b6117ac565b60006301ffc9a760e01b6001600160e01b03198316148061087e57506380ac58cd60e01b6001600160e01b03198316145b806108995750635b5e139f60e01b6001600160e01b03198316145b806108b457506001600160e01b0319821663152a902d60e11b145b92915050565b6060600280546108c990613b1f565b80601f01602080910402602001604051908101604052809291908181526020018280546108f590613b1f565b80156109425780601f1061091757610100808354040283529160200191610942565b820191906000526020600020905b81548152906001019060200180831161092557829003601f168201915b5050505050905090565b600061095782611b66565b610974576040516333d1c03960e21b815260040160405180910390fd5b506000908152600660205260409020546001600160a01b031690565b600061099b82610e6e565b9050806001600160a01b0316836001600160a01b031614156109d05760405163250fdee360e21b815260040160405180910390fd5b336001600160a01b03821614610a07576109ea81336107ff565b610a07576040516367d9dca160e11b815260040160405180910390fd5b610a12838383611b91565b505050565b610a1f611bed565b610a615760405162461bcd60e51b815260206004820152600e60248201526d139bdd08185d5d1a1bdc9a5e995960921b60448201526064015b60405180910390fd5b610a6a81611c1a565b50565b610a12838383611c6c565b6000610a83600c5490565b8210610ac15760405162461bcd60e51b815260206004820152600d60248201526c092dcecc2d8d2c840d2dcc8caf609b1b6044820152606401610a58565b600c8281548110610ad457610ad4613b54565b90600052602060002001549050919050565b600080600080610af586610db0565b90945084925061ffff169050612710610b0e8287613b80565b610b189190613bb5565b925050509250929050565b610b2b611bed565b610b685760405162461bcd60e51b815260206004820152600e60248201526d139bdd08185d5d1a1bdc9a5e995960921b6044820152606401610a58565b6019546013548215610bb7575060003360405160609190911b6bffffffffffffffffffffffff191660208201524360348201526054016040516020818303038152906040528051906020012091505b8360200135811115610c0b5760405162461bcd60e51b815260206004820152601260248201527f6d617820737570706c7920636c61696d656400000000000000000000000000006044820152606401610a58565b604051806101000160405280856000013581526020018560200135815260200182815260200185606001358152602001856080013581526020018560a0013581526020018560c0016020810190610c629190613495565b6001600160a01b03168152602001610c7d60e0870187613bc9565b8080601f01602080910402602001604051908101604052809392919081815260200183838082843760009201919091525050509152508051601190815560208083015160125560408301516013556060830151601455608083015160155560a083015160165560c0830151601780546001600160a01b0319166001600160a01b0390921691909117905560e08301518051610d1c9260189201906132ff565b50505060198290556040517f6dab9d7d05d468100139089b2516cb8ff286c3972ff070d3b509e371f0d0d4b890610d569086908690613c39565b60405180910390a150505050565b610a1283838360405180602001604052806000815250611456565b610a6a816001611e5b565b60008181526010602052604081208054829190610da690613b1f565b9050119050919050565b6000818152600b60209081526040808320815180830190925280546001600160a01b031680835260019091015492820192909252829115610df75780516020820151610e11565b600a546001600160a01b03811690600160a01b900461ffff165b9250925050915091565b610e23611bed565b610e605760405162461bcd60e51b815260206004820152600e60248201526d139bdd08185d5d1a1bdc9a5e995960921b6044820152606401610a58565b610e6a8282612036565b5050565b6000610e79826120eb565b5192915050565b610e88611bed565b610ec55760405162461bcd60e51b815260206004820152600e60248201526d139bdd08185d5d1a1bdc9a5e995960921b6044820152606401610a58565b610a6a81612207565b60006001600160a01b038216610ef7576040516323d3ad8160e21b815260040160405180910390fd5b506001600160a01b031660009081526005602052604090205467ffffffffffffffff1690565b610f2b868686868686612251565b601954610f3b33878787876117ac565b8560116002016000828254610f509190613d04565b90915550506000818152601a6020908152604080832033845290915281208054889290610f7e908490613d04565b90915550610f91905060008787876122b8565b6000610f9d8888612376565b9050806001600160a01b038916336001600160a01b03167fff097c7d8b1957a4ff09ef1361b5fb54dcede3941ba836d0beb9d10bec725de68a604051610fe591815260200190565b60405180910390a45050505050505050565b610fff611bed565b61103c5760405162461bcd60e51b815260206004820152600e60248201526d139bdd08185d5d1a1bdc9a5e995960921b6044820152606401610a58565b610a6a81612383565b6060600380546108c990613b1f565b61105c611bed565b6110995760405162461bcd60e51b815260206004820152600e60248201526d139bdd08185d5d1a1bdc9a5e995960921b6044820152606401610a58565b610a12838383612465565b6000838152601060205260408120805460609291906110c290613b1f565b80601f01602080910402602001604051908101604052809291908181526020018280546110ee90613b1f565b801561113b5780601f106111105761010080835404028352916020019161113b565b820191906000526020600020905b81548152906001019060200180831161111e57829003601f168201915b505050505090508051600014156111945760405162461bcd60e51b815260206004820152601160248201527f4e6f7468696e6720746f2072657665616c0000000000000000000000000000006044820152606401610a58565b600080828060200190518101906111ab9190613d1c565b915091506111ba82878761172a565b935080848787466040516020016111d49493929190613d9d565b60405160208183030381529060405280519060200120146112275760405162461bcd60e51b815260206004820152600d60248201526c496e636f7272656374206b657960981b6044820152606401610a58565b5050509392505050565b6010602052600090815260409020805461124a90613b1f565b80601f016020809104026020016040519081016040528092919081815260200182805461127690613b1f565b80156112c35780601f10611298576101008083540402835291602001916112c3565b820191906000526020600020905b8154815290600101906020018083116112a657829003601f168201915b505050505081565b6001600160a01b0382163314156112f55760405163b06307db60e01b815260040160405180910390fd5b3360008181526007602090815260408083206001600160a01b03871680855290835292819020805460ff191686151590811790915590519081529192917f17307eab39ab6107e8899845ad3d59bd9653f200f220920489ca2b5937696c31910160405180910390a35050565b60608167ffffffffffffffff81111561137c5761137c61358c565b6040519080825280602002602001820160405280156113af57816020015b606081526020019060019003908161139a5790505b50905060005b8281101561144f5761141f308585848181106113d3576113d3613b54565b90506020028101906113e59190613bc9565b8080601f01602080910402602001604051908101604052809392919081815260200183838082843760009201919091525061252e92505050565b82828151811061143157611431613b54565b6020026020010181905250808061144790613dc6565b9150506113b5565b5092915050565b611461848484611c6c565b6001600160a01b0383163b1561149a5761147d8484848461255a565b61149a576040516368d2bf6b60e11b815260040160405180910390fd5b50505050565b606060006114ad83612643565b50905060006114bb84612756565b90506114c682610d8a565b156114f457806040516020016114dc9190613de1565b60405160208183030381529060405292505050919050565b806114fe856128b7565b6040516020016114dc929190613e06565b6060611519611bed565b6115565760405162461bcd60e51b815260206004820152600e60248201526d139bdd08185d5d1a1bdc9a5e995960921b6044820152606401610a58565b600061156185610a78565b905061156e8185856110a4565b915061158981604051806020016040528060008152506129cd565b61159381836129ec565b847f6df1d8db2a036436ffe0b2d1833f2c5f1e624818dfce2578c0faa4b83ef9998d836040516115c39190613423565b60405180910390a2509392505050565b60008115611654576000806115ea84860186613e35565b9150915081516000141580156115ff57508015155b156116515761165188600f546116159190613d04565b86868080601f0160208091040260200160405190810160405280939291908181526020018383808284376000920191909152506129cd92505050565b50505b6116618686868686612a0b565b9695505050505050565b60118054601254601354601454601554601654601754601880549798969795969495939492936001600160a01b0390921692916116a790613b1f565b80601f01602080910402602001604051908101604052809291908181526020018280546116d390613b1f565b80156117205780601f106116f557610100808354040283529160200191611720565b820191906000526020600020905b81548152906001019060200180831161170357829003601f168201915b5050505050905088565b8251604080518083016020019091528181529060005b8181101561179657600085858360405160200161175f93929190613e7a565b60408051601f1981840301815291905280516020918201208884018201511885840182015261178f915082613d04565b9050611740565b50509392505050565b6008805461124a90613b1f565b60408051610100810182526011805482526012546020830152601354928201929092526014546060820152601554608082015260165460a08201526017546001600160a01b031660c0820152601880546000939160e084019161180e90613b1f565b80601f016020809104026020016040519081016040528092919081815260200182805461183a90613b1f565b80156118875780601f1061185c57610100808354040283529160200191611887565b820191906000526020600020905b81548152906001019060200180831161186a57829003601f168201915b50505091909252505050606081015160a082015160c083015160808401519394506000931561196a576119666118bd8780613e8c565b80806020026020016040519081016040528093929190818152602001838360200280828437600092019190915250505060808089015191508d9060208b01359060408c013590611912908d0160608e01613495565b6040516bffffffffffffffffffffffff19606095861b811660208301526034820194909452605481019290925290921b16607482015260880160405160208183030381529060405280519060200120612b36565b5093505b83156119f45760001986602001351415611984578261198a565b85602001355b9250600019866040013514156119a057816119a6565b85604001355b91506000198660400135141580156119d7575060006119cb6080880160608901613495565b6001600160a01b031614155b6119e157806119f1565b6119f16080870160608801613495565b90505b6019546000908152601a602090815260408083206001600160a01b03808f16855292529091205490898116908316141580611a2f5750828814155b15611a7c5760405162461bcd60e51b815260206004820152601060248201527f2150726963654f7243757272656e6379000000000000000000000000000000006044820152606401610a58565b891580611a91575083611a8f828c613d04565b115b15611ac75760405162461bcd60e51b8152600401610a58906020808252600490820152632151747960e01b604082015260600190565b85602001518a8760400151611adc9190613d04565b1115611b175760405162461bcd60e51b815260206004820152600a602482015269214d6178537570706c7960b01b6044820152606401610a58565b8551421015611b595760405162461bcd60e51b815260206004820152600e60248201526d18d85b9d0818db185a5b481e595d60921b6044820152606401610a58565b5050505050505050505050565b60008054821080156108b4575050600090815260046020526040902054600160e01b900460ff161590565b60008281526006602052604080822080546001600160a01b0319166001600160a01b0387811691821790925591518593918516917f8c5be1e5ebec7d5bd14f71427d1e84f3dd0314c0f7b2291e5b200ac8c7c3b92591a4505050565b6000611c016009546001600160a01b031690565b6001600160a01b0316336001600160a01b031614905090565b600980546001600160a01b038381166001600160a01b0319831681179093556040519116919082907f8292fce18fa69edf4db7b94ea2e58241df0ae57f97e0a6c9b29067028bf92d7690600090a35050565b6000611c77826120eb565b9050836001600160a01b031681600001516001600160a01b031614611cae5760405162a1148160e81b815260040160405180910390fd5b6000336001600160a01b0386161480611ccc5750611ccc85336107ff565b80611ce7575033611cdc8461094c565b6001600160a01b0316145b905080611d0757604051632ce44b5f60e11b815260040160405180910390fd5b6001600160a01b038416611d2e57604051633a954ecd60e21b815260040160405180910390fd5b611d3a60008487611b91565b6001600160a01b038581166000908152600560209081526040808320805467ffffffffffffffff1980821667ffffffffffffffff92831660001901831617909255898616808652838620805493841693831660019081018416949094179055898652600490945282852080546001600160e01b031916909417600160a01b42909216919091021783558701808452922080549193909116611e10576000548214611e10578054602086015167ffffffffffffffff16600160a01b026001600160e01b03199091166001600160a01b038a16171781555b50505082846001600160a01b0316866001600160a01b03167fddf252ad1be2c89b69c2b068fc378daa952ba7f163c4a11628f55a4df523b3ef60405160405180910390a45050505050565b6000611e66836120eb565b80519091508215611ecc576000336001600160a01b0383161480611e8f5750611e8f82336107ff565b80611eaa575033611e9f8661094c565b6001600160a01b0316145b905080611eca57604051632ce44b5f60e11b815260040160405180910390fd5b505b611ed860008583611b91565b6001600160a01b038082166000818152600560209081526040808320805470010000000000000000000000000000000060001967ffffffffffffffff80841691909101811667ffffffffffffffff19841681178390048216600190810183169093027fffffffffffffffff0000000000000000ffffffffffffffff0000000000000000909416179290921783558b86526004909452828520805460ff60e01b1942909316600160a01b026001600160e01b03199091169097179690961716600160e01b178555918901808452922080549194909116611fec576000548214611fec578054602087015167ffffffffffffffff16600160a01b026001600160e01b03199091166001600160a01b038716171781555b5050604051869250600091506001600160a01b038416907fddf252ad1be2c89b69c2b068fc378daa952ba7f163c4a11628f55a4df523b3ef908390a4505060018054810190555050565b61271081111561207a5760405162461bcd60e51b815260206004820152600f60248201526e45786365656473206d61782062707360881b6044820152606401610a58565b600a80546001600160a01b03841675ffffffffffffffffffffffffffffffffffffffffffff199091168117600160a01b61ffff851602179091556040518281527f90d7ec04bcb8978719414f82e52e4cb651db41d0e6f8cea6118c2191e6183adb9060200160405180910390a25050565b6040805160608101825260008082526020820181905291810191909152816000548110156121ee57600081815260046020908152604091829020825160608101845290546001600160a01b0381168252600160a01b810467ffffffffffffffff1692820192909252600160e01b90910460ff161515918101829052906121ec5780516001600160a01b031615612182579392505050565b5060001901600081815260046020908152604091829020825160608101845290546001600160a01b038116808352600160a01b820467ffffffffffffffff1693830193909352600160e01b900460ff16151592810192909252156121e7579392505050565b612182565b505b604051636f96cda160e11b815260040160405180910390fd5b600e80546001600160a01b0319166001600160a01b0383169081179091556040517f299d17e95023f496e0ffc4909cff1a61f74bb5eb18de6f900f4155bfa1b3b33390600090a250565b600f54856000546122629190613d04565b11156122b05760405162461bcd60e51b815260206004820152601860248201527f4e6f7420656e6f756768206d696e74656420746f6b656e7300000000000000006044820152606401610a58565b505050505050565b806122c25761149a565b60006122ce8285613b80565b90506001600160a01b03831673eeeeeeeeeeeeeeeeeeeeeeeeeeeeeeeeeeeeeeee1415612344578034146123445760405162461bcd60e51b815260206004820152601560248201527f4d7573742073656e6420746f74616c20707269636500000000000000000000006044820152606401610a58565b60006001600160a01b0386161561235b5785612368565b600e546001600160a01b03165b90506122b084338385612c04565b6000546108b48383612c4e565b60006008805461239290613b1f565b80601f01602080910402602001604051908101604052809291908181526020018280546123be90613b1f565b801561240b5780601f106123e05761010080835404028352916020019161240b565b820191906000526020600020905b8154815290600101906020018083116123ee57829003601f168201915b50508551939450612427936008935060208701925090506132ff565b507fc9c7c3fe08b88b4df9d4d47ef47d2c43d55c025a0ba88ca442580ed9e7348a168183604051612459929190613ed6565b60405180910390a15050565b6127108111156124a95760405162461bcd60e51b815260206004820152600f60248201526e45786365656473206d61782062707360881b6044820152606401610a58565b6040805180820182526001600160a01b0384811680835260208084018681526000898152600b8352869020945185546001600160a01b031916941693909317845591516001909301929092559151838152909185917f7365cf4122f072a3365c20d54eff9b38d73c096c28e1892ec8f5b0e403a0f12d910160405180910390a3505050565b60606125538383604051806060016040528060278152602001613ff160279139612c68565b9392505050565b604051630a85bd0160e11b81526000906001600160a01b0385169063150b7a029061258f903390899088908890600401613f04565b6020604051808303816000875af19250505080156125ca575060408051601f3d908101601f191682019092526125c791810190613f36565b60015b612625573d8080156125f8576040519150601f19603f3d011682016040523d82523d6000602084013e6125fd565b606091505b50805161261d576040516368d2bf6b60e11b815260040160405180910390fd5b805181602001fd5b6001600160e01b031916630a85bd0160e11b1490505b949350505050565b6000806000612651600c5490565b90506000600c8054806020026020016040519081016040528092919081815260200182805480156126a157602002820191906000526020600020905b81548152602001906001019080831161268d575b5050505050905060005b8281101561270d578181815181106126c5576126c5613b54565b60200260200101518610156126fb578093508181815181106126e9576126e9613b54565b60200260200101519450505050915091565b612706600182613d04565b90506126ab565b5060405162461bcd60e51b815260206004820152600f60248201527f496e76616c696420746f6b656e496400000000000000000000000000000000006044820152606401610a58565b60606000612763600c5490565b90506000600c8054806020026020016040519081016040528092919081815260200182805480156127b357602002820191906000526020600020905b81548152602001906001019080831161279f575b5050505050905060005b8281101561270d578181815181106127d7576127d7613b54565b60200260200101518510156128a557600d60008383815181106127fc576127fc613b54565b60200260200101518152602001908152602001600020805461281d90613b1f565b80601f016020809104026020016040519081016040528092919081815260200182805461284990613b1f565b80156128965780601f1061286b57610100808354040283529160200191612896565b820191906000526020600020905b81548152906001019060200180831161287957829003601f168201915b50505050509350505050919050565b6128b0600182613d04565b90506127bd565b6060816128db5750506040805180820190915260018152600360fc1b602082015290565b8160005b811561290557806128ef81613dc6565b91506128fe9050600a83613bb5565b91506128df565b60008167ffffffffffffffff8111156129205761292061358c565b6040519080825280601f01601f19166020018201604052801561294a576020820181803683370190505b5090505b841561263b5761295f600183613f53565b915061296c600a86613f6a565b612977906030613d04565b60f81b81838151811061298c5761298c613b54565b60200101907effffffffffffffffffffffffffffffffffffffffffffffffffffffffffffff1916908160001a9053506129c6600a86613bb5565b945061294e565b60008281526010602090815260409091208251610a12928401906132ff565b6000828152600d602090815260409091208251610a12928401906132ff565b6000612a15611bed565b612a525760405162461bcd60e51b815260206004820152600e60248201526d139bdd08185d5d1a1bdc9a5e995960921b6044820152606401610a58565b85612a875760405162461bcd60e51b81526020600482015260056024820152640c08185b5d60da1b6044820152606401610a58565b6000600f549050612acf818888888080601f016020809104026020016040519081016040528093929190818152602001838380828437600092019190915250612d3b92505050565b600f919091559150807f2a0365091ef1a40953c670dce28177e37520648a6fdc91506bffac0ab045570d6001612b058a84613d04565b612b0f9190613f53565b88888888604051612b24959493929190613f7e565b60405180910390a25095945050505050565b6000808281805b8751811015612bf857612b51600283613b80565b91506000888281518110612b6757612b67613b54565b60200260200101519050808411612ba9576040805160208101869052908101829052606001604051602081830303815290604052805190602001209350612be5565b6040805160208101839052908101859052606001604051602081830303815290604052805190602001209350600183612be29190613d04565b92505b5080612bf081613dc6565b915050612b3d565b50941495939450505050565b80612c0e5761149a565b6001600160a01b03841673eeeeeeeeeeeeeeeeeeeeeeeeeeeeeeeeeeeeeeee1415612c4257612c3d8282612da8565b61149a565b61149a84848484612e4b565b610e6a828260405180602001604052806000815250612ea4565b60606001600160a01b0384163b612cd05760405162461bcd60e51b815260206004820152602660248201527f416464726573733a2064656c65676174652063616c6c20746f206e6f6e2d636f6044820152651b9d1c9858dd60d21b6064820152608401610a58565b600080856001600160a01b031685604051612ceb9190613fb7565b600060405180830381855af49150503d8060008114612d26576040519150601f19603f3d011682016040523d82523d6000602084013e612d2b565b606091505b5091509150611661828286613069565b600080612d488486613d04565b600c8054600181019091557fdf6966c971051c3d54ec59162606531493a51404a002842f56009d7e5cf4a8c7018190556000818152600d602090815260409091208551929450849350612d9f9290918601906132ff565b50935093915050565b6000826001600160a01b03168260405160006040518083038185875af1925050503d8060008114612df5576040519150601f19603f3d011682016040523d82523d6000602084013e612dfa565b606091505b5050905080610a125760405162461bcd60e51b815260206004820152601c60248201527f6e617469766520746f6b656e207472616e73666572206661696c6564000000006044820152606401610a58565b816001600160a01b0316836001600160a01b03161415612e6a5761149a565b6001600160a01b038316301415612e8f57612c3d6001600160a01b03851683836130a2565b61149a6001600160a01b03851684848461311a565b6000546001600160a01b038416612ecd57604051622e076360e81b815260040160405180910390fd5b82612eeb5760405163b562e8dd60e01b815260040160405180910390fd5b6001600160a01b038416600081815260056020908152604080832080546fffffffffffffffffffffffffffffffff19811667ffffffffffffffff8083168b0181169182176801000000000000000067ffffffffffffffff1990941690921783900481168b01811690920217909155858452600490925290912080546001600160e01b0319168317600160a01b42909316929092029190911790558190818501903b15613014575b60405182906001600160a01b038816906000907fddf252ad1be2c89b69c2b068fc378daa952ba7f163c4a11628f55a4df523b3ef908290a4612fdd600087848060010195508761255a565b612ffa576040516368d2bf6b60e11b815260040160405180910390fd5b808210612f9257826000541461300f57600080fd5b613059565b5b6040516001830192906001600160a01b038816906000907fddf252ad1be2c89b69c2b068fc378daa952ba7f163c4a11628f55a4df523b3ef908290a4808210613015575b50600090815561149a9085838684565b60608315613078575081612553565b8251156130885782518084602001fd5b8160405162461bcd60e51b8152600401610a589190613423565b6040516001600160a01b038316602482015260448101829052610a1290849063a9059cbb60e01b906064015b60408051601f198184030181529190526020810180517bffffffffffffffffffffffffffffffffffffffffffffffffffffffff166001600160e01b031990931692909217909152613152565b6040516001600160a01b038085166024830152831660448201526064810182905261149a9085906323b872dd60e01b906084016130ce565b60006131a7826040518060400160405280602081526020017f5361666545524332303a206c6f772d6c6576656c2063616c6c206661696c6564815250856001600160a01b03166132249092919063ffffffff16565b805190915015610a1257808060200190518101906131c59190613fd3565b610a125760405162461bcd60e51b815260206004820152602a60248201527f5361666545524332303a204552433230206f7065726174696f6e20646964206e6044820152691bdd081cdd58d8d9595960b21b6064820152608401610a58565b606061263b8484600085856001600160a01b0385163b6132865760405162461bcd60e51b815260206004820152601d60248201527f416464726573733a2063616c6c20746f206e6f6e2d636f6e74726163740000006044820152606401610a58565b600080866001600160a01b031685876040516132a29190613fb7565b60006040518083038185875af1925050503d80600081146132df576040519150601f19603f3d011682016040523d82523d6000602084013e6132e4565b606091505b50915091506132f4828286613069565b979650505050505050565b82805461330b90613b1f565b90600052602060002090601f01602090048101928261332d5760008555613373565b82601f1061334657805160ff1916838001178555613373565b82800160010185558215613373579182015b82811115613373578251825591602001919060010190613358565b5061337f929150613383565b5090565b5b8082111561337f5760008155600101613384565b6001600160e01b031981168114610a6a57600080fd5b6000602082840312156133c057600080fd5b813561255381613398565b60005b838110156133e65781810151838201526020016133ce565b8381111561149a5750506000910152565b6000815180845261340f8160208601602086016133cb565b601f01601f19169290920160200192915050565b60208152600061255360208301846133f7565b60006020828403121561344857600080fd5b5035919050565b80356001600160a01b038116811461346657600080fd5b919050565b6000806040838503121561347e57600080fd5b6134878361344f565b946020939093013593505050565b6000602082840312156134a757600080fd5b6125538261344f565b6000806000606084860312156134c557600080fd5b6134ce8461344f565b92506134dc6020850161344f565b9150604084013590509250925092565b600080604083850312156134ff57600080fd5b50508035926020909101359150565b8015158114610a6a57600080fd5b6000806040838503121561352f57600080fd5b823567ffffffffffffffff81111561354657600080fd5b8301610100818603121561355957600080fd5b915060208301356135698161350e565b809150509250929050565b60006080828403121561358657600080fd5b50919050565b634e487b7160e01b600052604160045260246000fd5b604051601f8201601f1916810167ffffffffffffffff811182821017156135cb576135cb61358c565b604052919050565b600067ffffffffffffffff8211156135ed576135ed61358c565b50601f01601f191660200190565b600061360e613609846135d3565b6135a2565b905082815283838301111561362257600080fd5b828260208301376000602084830101529392505050565b600082601f83011261364a57600080fd5b612553838335602085016135fb565b60008060008060008060c0878903121561367257600080fd5b61367b8761344f565b9550602087013594506136906040880161344f565b935060608701359250608087013567ffffffffffffffff808211156136b457600080fd5b6136c08a838b01613574565b935060a08901359150808211156136d657600080fd5b506136e389828a01613639565b9150509295509295509295565b60006020828403121561370257600080fd5b813567ffffffffffffffff81111561371957600080fd5b8201601f8101841361372a57600080fd5b61263b848235602084016135fb565b60008060006060848603121561374e57600080fd5b833592506134dc6020850161344f565b60008083601f84011261377057600080fd5b50813567ffffffffffffffff81111561378857600080fd5b6020830191508360208285010111156137a057600080fd5b9250929050565b6000806000604084860312156137bc57600080fd5b83359250602084013567ffffffffffffffff8111156137da57600080fd5b6137e68682870161375e565b9497909650939450505050565b6000806040838503121561380657600080fd5b6135598361344f565b6000806020838503121561382257600080fd5b823567ffffffffffffffff8082111561383a57600080fd5b818501915085601f83011261384e57600080fd5b81358181111561385d57600080fd5b8660208260051b850101111561387257600080fd5b60209290920196919550909350505050565b6000602080830181845280855180835260408601915060408160051b870101925083870160005b828110156138d957603f198886030184526138c78583516133f7565b945092850192908501906001016138ab565b5092979650505050505050565b600080600080608085870312156138fc57600080fd5b6139058561344f565b93506139136020860161344f565b925060408501359150606085013567ffffffffffffffff81111561393657600080fd5b61394287828801613639565b91505092959194509250565b60008060008060006060868803121561396657600080fd5b85359450602086013567ffffffffffffffff8082111561398557600080fd5b61399189838a0161375e565b909650945060408801359150808211156139aa57600080fd5b506139b78882890161375e565b969995985093965092949392505050565b60006101008a83528960208401528860408401528760608401528660808401528560a08401526001600160a01b03851660c08401528060e0840152613a0f818401856133f7565b9b9a5050505050505050505050565b600080600060408486031215613a3357600080fd5b833567ffffffffffffffff80821115613a4b57600080fd5b613a5787838801613639565b94506020860135915080821115613a6d57600080fd5b506137e68682870161375e565b60008060408385031215613a8d57600080fd5b613a968361344f565b9150613aa46020840161344f565b90509250929050565b600080600080600060a08688031215613ac557600080fd5b613ace8661344f565b945060208601359350613ae36040870161344f565b925060608601359150608086013567ffffffffffffffff811115613b0657600080fd5b613b1288828901613574565b9150509295509295909350565b600181811c90821680613b3357607f821691505b6020821081141561358657634e487b7160e01b600052602260045260246000fd5b634e487b7160e01b600052603260045260246000fd5b634e487b7160e01b600052601160045260246000fd5b6000816000190483118215151615613b9a57613b9a613b6a565b500290565b634e487b7160e01b600052601260045260246000fd5b600082613bc457613bc4613b9f565b500490565b6000808335601e19843603018112613be057600080fd5b83018035915067ffffffffffffffff821115613bfb57600080fd5b6020019150368190038213156137a057600080fd5b81835281816020850137506000828201602090810191909152601f909101601f19169091010190565b60408152823560408201526020830135606082015260408301356080820152606083013560a0820152608083013560c082015260a083013560e08201526000613c8460c0850161344f565b6101006001600160a01b0382168185015260e08601359150601e19863603018212613cae57600080fd5b90850190813567ffffffffffffffff811115613cc957600080fd5b803603871315613cd857600080fd5b81610120860152613cf161014086018260208601613c10565b9350505050612553602083018415159052565b60008219821115613d1757613d17613b6a565b500190565b60008060408385031215613d2f57600080fd5b825167ffffffffffffffff811115613d4657600080fd5b8301601f81018513613d5757600080fd5b8051613d65613609826135d3565b818152866020838501011115613d7a57600080fd5b613d8b8260208301602086016133cb565b60209590950151949694955050505050565b60008551613daf818460208a016133cb565b820184868237909301918252506020019392505050565b6000600019821415613dda57613dda613b6a565b5060010190565b60008251613df38184602087016133cb565b600360fc1b920191825250600101919050565b60008351613e188184602088016133cb565b835190830190613e2c8183602088016133cb565b01949350505050565b60008060408385031215613e4857600080fd5b823567ffffffffffffffff811115613e5f57600080fd5b613e6b85828601613639565b95602094909401359450505050565b82848237909101908152602001919050565b6000808335601e19843603018112613ea357600080fd5b83018035915067ffffffffffffffff821115613ebe57600080fd5b6020019150600581901b36038213156137a057600080fd5b604081526000613ee960408301856133f7565b8281036020840152613efb81856133f7565b95945050505050565b60006001600160a01b0380871683528086166020840152508360408301526080606083015261166160808301846133f7565b600060208284031215613f4857600080fd5b815161255381613398565b600082821015613f6557613f65613b6a565b500390565b600082613f7957613f79613b9f565b500690565b858152606060208201526000613f98606083018688613c10565b8281036040840152613fab818587613c10565b98975050505050505050565b60008251613fc98184602087016133cb565b9190910192915050565b600060208284031215613fe557600080fd5b81516125538161350e56fe416464726573733a206c6f772d6c6576656c2064656c65676174652063616c6c206661696c6564a26469706673582212205c18438c00884dd5c11f969d5ea9dcc81e788b6bebb63ffddd99d6b8194e750864736f6c634300080c0033",
  "linkReferences": {},
  "deployedLinkReferences": {}
}