{
  "_format": "hh-sol-artifact-1",
  "contractName": "ERC721SignatureMint",
  "sourceName": "contracts/base/ERC721SignatureMint.sol",
  "abi": [
    {
      "inputs": [
        {
          "internalType": "string",
          "name": "_name",
          "type": "string"
        },
        {
          "internalType": "string",
          "name": "_symbol",
          "type": "string"
        },
        {
          "internalType": "address",
          "name": "_royaltyRecipient",
          "type": "address"
        },
        {
          "internalType": "uint128",
          "name": "_royaltyBps",
          "type": "uint128"
        },
        {
          "internalType": "address",
          "name": "_primarySaleRecipient",
          "type": "address"
        }
      ],
      "stateMutability": "nonpayable",
      "type": "constructor"
    },
    {
      "inputs": [],
      "name": "ApprovalCallerNotOwnerNorApproved",
      "type": "error"
    },
    {
      "inputs": [],
      "name": "ApprovalQueryForNonexistentToken",
      "type": "error"
    },
    {
      "inputs": [],
      "name": "ApprovalToCurrentOwner",
      "type": "error"
    },
    {
      "inputs": [],
      "name": "ApproveToCaller",
      "type": "error"
    },
    {
      "inputs": [],
      "name": "BalanceQueryForZeroAddress",
      "type": "error"
    },
    {
      "inputs": [],
      "name": "MintToZeroAddress",
      "type": "error"
    },
    {
      "inputs": [],
      "name": "MintZeroQuantity",
      "type": "error"
    },
    {
      "inputs": [],
      "name": "OwnerQueryForNonexistentToken",
      "type": "error"
    },
    {
      "inputs": [],
      "name": "TransferCallerNotOwnerNorApproved",
      "type": "error"
    },
    {
      "inputs": [],
      "name": "TransferFromIncorrectOwner",
      "type": "error"
    },
    {
      "inputs": [],
      "name": "TransferToNonERC721ReceiverImplementer",
      "type": "error"
    },
    {
      "inputs": [],
      "name": "TransferToZeroAddress",
      "type": "error"
    },
    {
      "inputs": [],
      "name": "URIQueryForNonexistentToken",
      "type": "error"
    },
    {
      "anonymous": false,
      "inputs": [
        {
          "indexed": true,
          "internalType": "address",
          "name": "owner",
          "type": "address"
        },
        {
          "indexed": true,
          "internalType": "address",
          "name": "approved",
          "type": "address"
        },
        {
          "indexed": true,
          "internalType": "uint256",
          "name": "tokenId",
          "type": "uint256"
        }
      ],
      "name": "Approval",
      "type": "event"
    },
    {
      "anonymous": false,
      "inputs": [
        {
          "indexed": true,
          "internalType": "address",
          "name": "owner",
          "type": "address"
        },
        {
          "indexed": true,
          "internalType": "address",
          "name": "operator",
          "type": "address"
        },
        {
          "indexed": false,
          "internalType": "bool",
          "name": "approved",
          "type": "bool"
        }
      ],
      "name": "ApprovalForAll",
      "type": "event"
    },
    {
      "anonymous": false,
      "inputs": [
        {
          "indexed": false,
          "internalType": "string",
          "name": "prevURI",
          "type": "string"
        },
        {
          "indexed": false,
          "internalType": "string",
          "name": "newURI",
          "type": "string"
        }
      ],
      "name": "ContractURIUpdated",
      "type": "event"
    },
    {
      "anonymous": false,
      "inputs": [
        {
          "indexed": true,
          "internalType": "address",
          "name": "newRoyaltyRecipient",
          "type": "address"
        },
        {
          "indexed": false,
          "internalType": "uint256",
          "name": "newRoyaltyBps",
          "type": "uint256"
        }
      ],
      "name": "DefaultRoyalty",
      "type": "event"
    },
    {
      "anonymous": false,
      "inputs": [
        {
          "indexed": true,
          "internalType": "address",
          "name": "prevOwner",
          "type": "address"
        },
        {
          "indexed": true,
          "internalType": "address",
          "name": "newOwner",
          "type": "address"
        }
      ],
      "name": "OwnerUpdated",
      "type": "event"
    },
    {
      "anonymous": false,
      "inputs": [
        {
          "indexed": true,
          "internalType": "address",
          "name": "recipient",
          "type": "address"
        }
      ],
      "name": "PrimarySaleRecipientUpdated",
      "type": "event"
    },
    {
      "anonymous": false,
      "inputs": [
        {
          "indexed": true,
          "internalType": "uint256",
          "name": "tokenId",
          "type": "uint256"
        },
        {
          "indexed": true,
          "internalType": "address",
          "name": "royaltyRecipient",
          "type": "address"
        },
        {
          "indexed": false,
          "internalType": "uint256",
          "name": "royaltyBps",
          "type": "uint256"
        }
      ],
      "name": "RoyaltyForToken",
      "type": "event"
    },
    {
      "anonymous": false,
      "inputs": [
        {
          "indexed": true,
          "internalType": "address",
          "name": "signer",
          "type": "address"
        },
        {
          "indexed": true,
          "internalType": "address",
          "name": "mintedTo",
          "type": "address"
        },
        {
          "indexed": true,
          "internalType": "uint256",
          "name": "tokenIdMinted",
          "type": "uint256"
        },
        {
          "components": [
            {
              "internalType": "address",
              "name": "to",
              "type": "address"
            },
            {
              "internalType": "address",
              "name": "royaltyRecipient",
              "type": "address"
            },
            {
              "internalType": "uint256",
              "name": "royaltyBps",
              "type": "uint256"
            },
            {
              "internalType": "address",
              "name": "primarySaleRecipient",
              "type": "address"
            },
            {
              "internalType": "string",
              "name": "uri",
              "type": "string"
            },
            {
              "internalType": "uint256",
              "name": "quantity",
              "type": "uint256"
            },
            {
              "internalType": "uint256",
              "name": "pricePerToken",
              "type": "uint256"
            },
            {
              "internalType": "address",
              "name": "currency",
              "type": "address"
            },
            {
              "internalType": "uint128",
              "name": "validityStartTimestamp",
              "type": "uint128"
            },
            {
              "internalType": "uint128",
              "name": "validityEndTimestamp",
              "type": "uint128"
            },
            {
              "internalType": "bytes32",
              "name": "uid",
              "type": "bytes32"
            }
          ],
          "indexed": false,
          "internalType": "struct ISignatureMintERC721.MintRequest",
          "name": "mintRequest",
          "type": "tuple"
        }
      ],
      "name": "TokensMintedWithSignature",
      "type": "event"
    },
    {
      "anonymous": false,
      "inputs": [
        {
          "indexed": true,
          "internalType": "address",
          "name": "from",
          "type": "address"
        },
        {
          "indexed": true,
          "internalType": "address",
          "name": "to",
          "type": "address"
        },
        {
          "indexed": true,
          "internalType": "uint256",
          "name": "tokenId",
          "type": "uint256"
        }
      ],
      "name": "Transfer",
      "type": "event"
    },
    {
      "inputs": [
        {
          "internalType": "address",
          "name": "to",
          "type": "address"
        },
        {
          "internalType": "uint256",
          "name": "tokenId",
          "type": "uint256"
        }
      ],
      "name": "approve",
      "outputs": [],
      "stateMutability": "nonpayable",
      "type": "function"
    },
    {
      "inputs": [
        {
          "internalType": "address",
          "name": "owner",
          "type": "address"
        }
      ],
      "name": "balanceOf",
      "outputs": [
        {
          "internalType": "uint256",
          "name": "",
          "type": "uint256"
        }
      ],
      "stateMutability": "view",
      "type": "function"
    },
    {
      "inputs": [
        {
          "internalType": "address",
          "name": "_to",
          "type": "address"
        },
        {
          "internalType": "uint256",
          "name": "_quantity",
          "type": "uint256"
        },
        {
          "internalType": "string",
          "name": "_baseURI",
          "type": "string"
        },
        {
          "internalType": "bytes",
          "name": "_data",
          "type": "bytes"
        }
      ],
      "name": "batchMintTo",
      "outputs": [],
      "stateMutability": "nonpayable",
      "type": "function"
    },
    {
      "inputs": [
        {
          "internalType": "uint256",
          "name": "_tokenId",
          "type": "uint256"
        }
      ],
      "name": "burn",
      "outputs": [],
      "stateMutability": "nonpayable",
      "type": "function"
    },
    {
      "inputs": [],
      "name": "contractURI",
      "outputs": [
        {
          "internalType": "string",
          "name": "",
          "type": "string"
        }
      ],
      "stateMutability": "view",
      "type": "function"
    },
    {
      "inputs": [
        {
          "internalType": "uint256",
          "name": "tokenId",
          "type": "uint256"
        }
      ],
      "name": "getApproved",
      "outputs": [
        {
          "internalType": "address",
          "name": "",
          "type": "address"
        }
      ],
      "stateMutability": "view",
      "type": "function"
    },
    {
      "inputs": [],
      "name": "getBaseURICount",
      "outputs": [
        {
          "internalType": "uint256",
          "name": "",
          "type": "uint256"
        }
      ],
      "stateMutability": "view",
      "type": "function"
    },
    {
      "inputs": [
        {
          "internalType": "uint256",
          "name": "_index",
          "type": "uint256"
        }
      ],
      "name": "getBatchIdAtIndex",
      "outputs": [
        {
          "internalType": "uint256",
          "name": "",
          "type": "uint256"
        }
      ],
      "stateMutability": "view",
      "type": "function"
    },
    {
      "inputs": [],
      "name": "getDefaultRoyaltyInfo",
      "outputs": [
        {
          "internalType": "address",
          "name": "",
          "type": "address"
        },
        {
          "internalType": "uint16",
          "name": "",
          "type": "uint16"
        }
      ],
      "stateMutability": "view",
      "type": "function"
    },
    {
      "inputs": [
        {
          "internalType": "uint256",
          "name": "_tokenId",
          "type": "uint256"
        }
      ],
      "name": "getRoyaltyInfoForToken",
      "outputs": [
        {
          "internalType": "address",
          "name": "",
          "type": "address"
        },
        {
          "internalType": "uint16",
          "name": "",
          "type": "uint16"
        }
      ],
      "stateMutability": "view",
      "type": "function"
    },
    {
      "inputs": [
        {
          "internalType": "address",
          "name": "owner",
          "type": "address"
        },
        {
          "internalType": "address",
          "name": "operator",
          "type": "address"
        }
      ],
      "name": "isApprovedForAll",
      "outputs": [
        {
          "internalType": "bool",
          "name": "",
          "type": "bool"
        }
      ],
      "stateMutability": "view",
      "type": "function"
    },
    {
      "inputs": [
        {
          "internalType": "address",
          "name": "_operator",
          "type": "address"
        },
        {
          "internalType": "uint256",
          "name": "_tokenId",
          "type": "uint256"
        }
      ],
      "name": "isApprovedOrOwner",
      "outputs": [
        {
          "internalType": "bool",
          "name": "isApprovedOrOwnerOf",
          "type": "bool"
        }
      ],
      "stateMutability": "view",
      "type": "function"
    },
    {
      "inputs": [
        {
          "internalType": "address",
          "name": "_to",
          "type": "address"
        },
        {
          "internalType": "string",
          "name": "_tokenURI",
          "type": "string"
        }
      ],
      "name": "mintTo",
      "outputs": [],
      "stateMutability": "nonpayable",
      "type": "function"
    },
    {
      "inputs": [
        {
          "components": [
            {
              "internalType": "address",
              "name": "to",
              "type": "address"
            },
            {
              "internalType": "address",
              "name": "royaltyRecipient",
              "type": "address"
            },
            {
              "internalType": "uint256",
              "name": "royaltyBps",
              "type": "uint256"
            },
            {
              "internalType": "address",
              "name": "primarySaleRecipient",
              "type": "address"
            },
            {
              "internalType": "string",
              "name": "uri",
              "type": "string"
            },
            {
              "internalType": "uint256",
              "name": "quantity",
              "type": "uint256"
            },
            {
              "internalType": "uint256",
              "name": "pricePerToken",
              "type": "uint256"
            },
            {
              "internalType": "address",
              "name": "currency",
              "type": "address"
            },
            {
              "internalType": "uint128",
              "name": "validityStartTimestamp",
              "type": "uint128"
            },
            {
              "internalType": "uint128",
              "name": "validityEndTimestamp",
              "type": "uint128"
            },
            {
              "internalType": "bytes32",
              "name": "uid",
              "type": "bytes32"
            }
          ],
          "internalType": "struct ISignatureMintERC721.MintRequest",
          "name": "_req",
          "type": "tuple"
        },
        {
          "internalType": "bytes",
          "name": "_signature",
          "type": "bytes"
        }
      ],
      "name": "mintWithSignature",
      "outputs": [
        {
          "internalType": "address",
          "name": "signer",
          "type": "address"
        }
      ],
      "stateMutability": "payable",
      "type": "function"
    },
    {
      "inputs": [
        {
          "internalType": "bytes[]",
          "name": "data",
          "type": "bytes[]"
        }
      ],
      "name": "multicall",
      "outputs": [
        {
          "internalType": "bytes[]",
          "name": "results",
          "type": "bytes[]"
        }
      ],
      "stateMutability": "nonpayable",
      "type": "function"
    },
    {
      "inputs": [],
      "name": "name",
      "outputs": [
        {
          "internalType": "string",
          "name": "",
          "type": "string"
        }
      ],
      "stateMutability": "view",
      "type": "function"
    },
    {
      "inputs": [],
      "name": "nextTokenIdToMint",
      "outputs": [
        {
          "internalType": "uint256",
          "name": "",
          "type": "uint256"
        }
      ],
      "stateMutability": "view",
      "type": "function"
    },
    {
      "inputs": [],
      "name": "owner",
      "outputs": [
        {
          "internalType": "address",
          "name": "",
          "type": "address"
        }
      ],
      "stateMutability": "view",
      "type": "function"
    },
    {
      "inputs": [
        {
          "internalType": "uint256",
          "name": "tokenId",
          "type": "uint256"
        }
      ],
      "name": "ownerOf",
      "outputs": [
        {
          "internalType": "address",
          "name": "",
          "type": "address"
        }
      ],
      "stateMutability": "view",
      "type": "function"
    },
    {
      "inputs": [],
      "name": "primarySaleRecipient",
      "outputs": [
        {
          "internalType": "address",
          "name": "",
          "type": "address"
        }
      ],
      "stateMutability": "view",
      "type": "function"
    },
    {
      "inputs": [
        {
          "internalType": "uint256",
          "name": "tokenId",
          "type": "uint256"
        },
        {
          "internalType": "uint256",
          "name": "salePrice",
          "type": "uint256"
        }
      ],
      "name": "royaltyInfo",
      "outputs": [
        {
          "internalType": "address",
          "name": "receiver",
          "type": "address"
        },
        {
          "internalType": "uint256",
          "name": "royaltyAmount",
          "type": "uint256"
        }
      ],
      "stateMutability": "view",
      "type": "function"
    },
    {
      "inputs": [
        {
          "internalType": "address",
          "name": "from",
          "type": "address"
        },
        {
          "internalType": "address",
          "name": "to",
          "type": "address"
        },
        {
          "internalType": "uint256",
          "name": "tokenId",
          "type": "uint256"
        }
      ],
      "name": "safeTransferFrom",
      "outputs": [],
      "stateMutability": "nonpayable",
      "type": "function"
    },
    {
      "inputs": [
        {
          "internalType": "address",
          "name": "from",
          "type": "address"
        },
        {
          "internalType": "address",
          "name": "to",
          "type": "address"
        },
        {
          "internalType": "uint256",
          "name": "tokenId",
          "type": "uint256"
        },
        {
          "internalType": "bytes",
          "name": "_data",
          "type": "bytes"
        }
      ],
      "name": "safeTransferFrom",
      "outputs": [],
      "stateMutability": "nonpayable",
      "type": "function"
    },
    {
      "inputs": [
        {
          "internalType": "address",
          "name": "operator",
          "type": "address"
        },
        {
          "internalType": "bool",
          "name": "approved",
          "type": "bool"
        }
      ],
      "name": "setApprovalForAll",
      "outputs": [],
      "stateMutability": "nonpayable",
      "type": "function"
    },
    {
      "inputs": [
        {
          "internalType": "string",
          "name": "_uri",
          "type": "string"
        }
      ],
      "name": "setContractURI",
      "outputs": [],
      "stateMutability": "nonpayable",
      "type": "function"
    },
    {
      "inputs": [
        {
          "internalType": "address",
          "name": "_royaltyRecipient",
          "type": "address"
        },
        {
          "internalType": "uint256",
          "name": "_royaltyBps",
          "type": "uint256"
        }
      ],
      "name": "setDefaultRoyaltyInfo",
      "outputs": [],
      "stateMutability": "nonpayable",
      "type": "function"
    },
    {
      "inputs": [
        {
          "internalType": "address",
          "name": "_newOwner",
          "type": "address"
        }
      ],
      "name": "setOwner",
      "outputs": [],
      "stateMutability": "nonpayable",
      "type": "function"
    },
    {
      "inputs": [
        {
          "internalType": "address",
          "name": "_saleRecipient",
          "type": "address"
        }
      ],
      "name": "setPrimarySaleRecipient",
      "outputs": [],
      "stateMutability": "nonpayable",
      "type": "function"
    },
    {
      "inputs": [
        {
          "internalType": "uint256",
          "name": "_tokenId",
          "type": "uint256"
        },
        {
          "internalType": "address",
          "name": "_recipient",
          "type": "address"
        },
        {
          "internalType": "uint256",
          "name": "_bps",
          "type": "uint256"
        }
      ],
      "name": "setRoyaltyInfoForToken",
      "outputs": [],
      "stateMutability": "nonpayable",
      "type": "function"
    },
    {
      "inputs": [
        {
          "internalType": "bytes4",
          "name": "interfaceId",
          "type": "bytes4"
        }
      ],
      "name": "supportsInterface",
      "outputs": [
        {
          "internalType": "bool",
          "name": "",
          "type": "bool"
        }
      ],
      "stateMutability": "view",
      "type": "function"
    },
    {
      "inputs": [],
      "name": "symbol",
      "outputs": [
        {
          "internalType": "string",
          "name": "",
          "type": "string"
        }
      ],
      "stateMutability": "view",
      "type": "function"
    },
    {
      "inputs": [
        {
          "internalType": "uint256",
          "name": "_tokenId",
          "type": "uint256"
        }
      ],
      "name": "tokenURI",
      "outputs": [
        {
          "internalType": "string",
          "name": "",
          "type": "string"
        }
      ],
      "stateMutability": "view",
      "type": "function"
    },
    {
      "inputs": [],
      "name": "totalSupply",
      "outputs": [
        {
          "internalType": "uint256",
          "name": "",
          "type": "uint256"
        }
      ],
      "stateMutability": "view",
      "type": "function"
    },
    {
      "inputs": [
        {
          "internalType": "address",
          "name": "from",
          "type": "address"
        },
        {
          "internalType": "address",
          "name": "to",
          "type": "address"
        },
        {
          "internalType": "uint256",
          "name": "tokenId",
          "type": "uint256"
        }
      ],
      "name": "transferFrom",
      "outputs": [],
      "stateMutability": "nonpayable",
      "type": "function"
    },
    {
      "inputs": [
        {
          "components": [
            {
              "internalType": "address",
              "name": "to",
              "type": "address"
            },
            {
              "internalType": "address",
              "name": "royaltyRecipient",
              "type": "address"
            },
            {
              "internalType": "uint256",
              "name": "royaltyBps",
              "type": "uint256"
            },
            {
              "internalType": "address",
              "name": "primarySaleRecipient",
              "type": "address"
            },
            {
              "internalType": "string",
              "name": "uri",
              "type": "string"
            },
            {
              "internalType": "uint256",
              "name": "quantity",
              "type": "uint256"
            },
            {
              "internalType": "uint256",
              "name": "pricePerToken",
              "type": "uint256"
            },
            {
              "internalType": "address",
              "name": "currency",
              "type": "address"
            },
            {
              "internalType": "uint128",
              "name": "validityStartTimestamp",
              "type": "uint128"
            },
            {
              "internalType": "uint128",
              "name": "validityEndTimestamp",
              "type": "uint128"
            },
            {
              "internalType": "bytes32",
              "name": "uid",
              "type": "bytes32"
            }
          ],
          "internalType": "struct ISignatureMintERC721.MintRequest",
          "name": "_req",
          "type": "tuple"
        },
        {
          "internalType": "bytes",
          "name": "_signature",
          "type": "bytes"
        }
      ],
      "name": "verify",
      "outputs": [
        {
          "internalType": "bool",
          "name": "success",
          "type": "bool"
        },
        {
          "internalType": "address",
          "name": "signer",
          "type": "address"
        }
      ],
      "stateMutability": "view",
      "type": "function"
    }
  ],
  "bytecode": "0x6101406040523480156200001257600080fd5b506040516200402938038062004029833981016040819052620000359162000460565b6040518060400160405280601381526020017f5369676e61747572654d696e7445524337323100000000000000000000000000815250604051806040016040528060018152602001603160f81b8152508686868683838160029080519060200190620000a3929190620002d0565b508051620000b9906003906020840190620002d0565b50506000805550620000cb3362000189565b620000e0826001600160801b038316620001db565b5050835160209485012083519385019390932060e08490526101008190524660a0818152604080517f8b73c3c69bb8fe3d512ecc4cf759cc79239f7b179b0ffacaa9a75d522b39400f818a01819052818301989098526060810194909452608080850193909352308483018190528151808603909301835260c0948501909152815191909701209052939093525061012052506200017e8162000286565b50505050506200054d565b600980546001600160a01b038381166001600160a01b0319831681179093556040519116919082907f8292fce18fa69edf4db7b94ea2e58241df0ae57f97e0a6c9b29067028bf92d7690600090a35050565b612710811115620002245760405162461bcd60e51b815260206004820152600f60248201526e45786365656473206d61782062707360881b604482015260640160405180910390fd5b600a80546001600160a01b0384166001600160b01b03199091168117600160a01b61ffff851602179091556040518281527f90d7ec04bcb8978719414f82e52e4cb651db41d0e6f8cea6118c2191e6183adb9060200160405180910390a25050565b600f80546001600160a01b0319166001600160a01b0383169081179091556040517f299d17e95023f496e0ffc4909cff1a61f74bb5eb18de6f900f4155bfa1b3b33390600090a250565b828054620002de9062000510565b90600052602060002090601f0160209004810192826200030257600085556200034d565b82601f106200031d57805160ff19168380011785556200034d565b828001600101855582156200034d579182015b828111156200034d57825182559160200191906001019062000330565b506200035b9291506200035f565b5090565b5b808211156200035b576000815560010162000360565b634e487b7160e01b600052604160045260246000fd5b600082601f8301126200039e57600080fd5b81516001600160401b0380821115620003bb57620003bb62000376565b604051601f8301601f19908116603f01168101908282118183101715620003e657620003e662000376565b816040528381526020925086838588010111156200040357600080fd5b600091505b8382101562000427578582018301518183018401529082019062000408565b83821115620004395760008385830101525b9695505050505050565b80516001600160a01b03811681146200045b57600080fd5b919050565b600080600080600060a086880312156200047957600080fd5b85516001600160401b03808211156200049157600080fd5b6200049f89838a016200038c565b96506020880151915080821115620004b657600080fd5b50620004c5888289016200038c565b945050620004d66040870162000443565b60608701519093506001600160801b0381168114620004f457600080fd5b9150620005046080870162000443565b90509295509295909350565b600181811c908216806200052557607f821691505b602082108114156200054757634e487b7160e01b600052602260045260246000fd5b50919050565b60805160a05160c05160e0516101005161012051613a8c6200059d60003960006128500152600061289f0152600061287a015260006127d3015260006127fd015260006128270152613a8c6000f3fe6080604052600436106102035760003560e01c80634cc157df1161011857806395d89b41116100a0578063b24f2d391161006f578063b24f2d3914610633578063b88d4fde1461065e578063c87b56dd1461067e578063e8a3d4851461069e578063e985e9c5146106b357600080fd5b806395d89b41146105b15780639bcf7a15146105c6578063a22cb465146105e6578063ac9650d81461060657600080fd5b80636f4f2837116100e75780636f4f28371461051357806370a0823114610533578063754a81d9146105535780638da5cb5b14610573578063938e3d7b1461059157600080fd5b80634cc157df1461047c578063600dd5ea146104be5780636352211e146104de57806363b45e2d146104fe57600080fd5b806323b872dd1161019b5780633b1475a71161016a5780633b1475a7146103f457806342842e0e1461040957806342966c6814610429578063430c208114610449578063439c7be51461046957600080fd5b806323b872dd146103365780632419f51b14610356578063252e82e8146103765780632a55205a146103b557600080fd5b8063081812fc116101d7578063081812fc146102b3578063095ea7b3146102d357806313af4035146102f357806318160ddd1461031357600080fd5b806275a3171461020857806301ffc9a71461022a57806306fdde031461025f578063079fe40e14610281575b600080fd5b34801561021457600080fd5b50610228610223366004613141565b6106fc565b005b34801561023657600080fd5b5061024a6102453660046131a5565b610786565b60405190151581526020015b60405180910390f35b34801561026b57600080fd5b506102746107f3565b604051610256919061321a565b34801561028d57600080fd5b50600f546001600160a01b03165b6040516001600160a01b039091168152602001610256565b3480156102bf57600080fd5b5061029b6102ce36600461322d565b610885565b3480156102df57600080fd5b506102286102ee366004613246565b6108c9565b3480156102ff57600080fd5b5061022861030e366004613270565b610950565b34801561031f57600080fd5b50600154600054035b604051908152602001610256565b34801561034257600080fd5b5061022861035136600461328b565b6109a1565b34801561036257600080fd5b5061032861037136600461322d565b6109ac565b34801561038257600080fd5b506103966103913660046132c7565b610a1a565b6040805192151583526001600160a01b03909116602083015201610256565b3480156103c157600080fd5b506103d56103d0366004613367565b610a5e565b604080516001600160a01b039093168352602083019190915201610256565b34801561040057600080fd5b50600054610328565b34801561041557600080fd5b5061022861042436600461328b565b610a9b565b34801561043557600080fd5b5061022861044436600461322d565b610ab6565b34801561045557600080fd5b5061024a610464366004613246565b610ac1565b61029b6104773660046132c7565b610b40565b34801561048857600080fd5b5061049c61049736600461322d565b610ce7565b604080516001600160a01b03909316835261ffff909116602083015201610256565b3480156104ca57600080fd5b506102286104d9366004613246565b610d52565b3480156104ea57600080fd5b5061029b6104f936600461322d565b610da1565b34801561050a57600080fd5b50600c54610328565b34801561051f57600080fd5b5061022861052e366004613270565b610db3565b34801561053f57600080fd5b5061032861054e366004613270565b610e01565b34801561055f57600080fd5b5061022861056e366004613389565b610e50565b34801561057f57600080fd5b506009546001600160a01b031661029b565b34801561059d57600080fd5b506102286105ac366004613407565b610eca565b3480156105bd57600080fd5b50610274610f18565b3480156105d257600080fd5b506102286105e136600461343c565b610f27565b3480156105f257600080fd5b5061022861060136600461346f565b610f77565b34801561061257600080fd5b506106266106213660046134a6565b61100d565b604051610256919061351b565b34801561063f57600080fd5b50600a546001600160a01b03811690600160a01b900461ffff1661049c565b34801561066a57600080fd5b5061022861067936600461357d565b611102565b34801561068a57600080fd5b5061027461069936600461322d565b611146565b3480156106aa57600080fd5b50610274611234565b3480156106bf57600080fd5b5061024a6106ce3660046135d9565b6001600160a01b03918216600090815260076020908152604080832093909416825291909152205460ff1690565b6107046112c2565b6107555760405162461bcd60e51b815260206004820152601760248201527f4e6f7420617574686f72697a656420746f206d696e742e00000000000000000060448201526064015b60405180910390fd5b61076761076160005490565b826112ef565b61078282600160405180602001604052806000815250611376565b5050565b60006301ffc9a760e01b6001600160e01b0319831614806107b757506380ac58cd60e01b6001600160e01b03198316145b806107d25750635b5e139f60e01b6001600160e01b03198316145b806107ed57506001600160e01b0319821663152a902d60e11b145b92915050565b6060600280546108029061360c565b80601f016020809104026020016040519081016040528092919081815260200182805461082e9061360c565b801561087b5780601f106108505761010080835404028352916020019161087b565b820191906000526020600020905b81548152906001019060200180831161085e57829003601f168201915b5050505050905090565b60006108908261153b565b6108ad576040516333d1c03960e21b815260040160405180910390fd5b506000908152600660205260409020546001600160a01b031690565b60006108d482610da1565b9050806001600160a01b0316836001600160a01b031614156109095760405163250fdee360e21b815260040160405180910390fd5b336001600160a01b038216146109405761092381336106ce565b610940576040516367d9dca160e11b815260040160405180910390fd5b61094b838383611566565b505050565b6109586112c2565b6109955760405162461bcd60e51b815260206004820152600e60248201526d139bdd08185d5d1a1bdc9a5e995960921b604482015260640161074c565b61099e816115c2565b50565b61094b838383611614565b60006109b7600c5490565b82106109f55760405162461bcd60e51b815260206004820152600d60248201526c092dcecc2d8d2c840d2dcc8caf609b1b604482015260640161074c565b600c8281548110610a0857610a08613647565b90600052602060002001549050919050565b600080610a28858585611803565b61014086013560009081526010602052604090205490915060ff16158015610a545750610a5481611869565b9150935093915050565b600080600080610a6d86610ce7565b90945084925061ffff169050612710610a868287613673565b610a9091906136a8565b925050509250929050565b61094b83838360405180602001604052806000815250611102565b61099e816001611898565b600080610acd83610da1565b9050806001600160a01b0316846001600160a01b03161480610b1457506001600160a01b0380821660009081526007602090815260408083209388168352929052205460ff165b80610b385750836001600160a01b0316610b2d84610885565b6001600160a01b0316145b949350505050565b60008360a00135600114610b965760405162461bcd60e51b815260206004820152601160248201527f7175616e746979206d7573742062652031000000000000000000000000000000604482015260640161074c565b600054610ba4858585611a73565b91506000610bb56020870187613270565b9050610bea610bca6080880160608901613270565b60a0880135610be06101008a0160e08b01613270565b8960c00135611c06565b6000610bfc6040880160208901613270565b6001600160a01b031614158015610c165750604086013515155b15610c3957610c3982610c2f6040890160208a01613270565b8860400135611ccc565b610c8482610c4a60808901896136bc565b8080601f0160208091040260200160405190810160405280939291908181526020018383808284376000920191909152506112ef92505050565b610c92818760a00135611d95565b81816001600160a01b0316846001600160a01b03167fee0cf9c3e87795b1932d13f80f892f620f567b4465e768ced5d64aa44ca1d64c89604051610cd69190613789565b60405180910390a450509392505050565b6000818152600b60209081526040808320815180830190925280546001600160a01b031680835260019091015492820192909252829115610d2e5780516020820151610d48565b600a546001600160a01b03811690600160a01b900461ffff165b9250925050915091565b610d5a6112c2565b610d975760405162461bcd60e51b815260206004820152600e60248201526d139bdd08185d5d1a1bdc9a5e995960921b604482015260640161074c565b6107828282611daf565b6000610dac82611e64565b5192915050565b610dbb6112c2565b610df85760405162461bcd60e51b815260206004820152600e60248201526d139bdd08185d5d1a1bdc9a5e995960921b604482015260640161074c565b61099e81611f80565b60006001600160a01b038216610e2a576040516323d3ad8160e21b815260040160405180910390fd5b506001600160a01b031660009081526005602052604090205467ffffffffffffffff1690565b610e586112c2565b610ea45760405162461bcd60e51b815260206004820152601760248201527f4e6f7420617574686f72697a656420746f206d696e742e000000000000000000604482015260640161074c565b610eb7610eb060005490565b8484611fca565b5050610ec4848483611376565b50505050565b610ed26112c2565b610f0f5760405162461bcd60e51b815260206004820152600e60248201526d139bdd08185d5d1a1bdc9a5e995960921b604482015260640161074c565b61099e81612037565b6060600380546108029061360c565b610f2f6112c2565b610f6c5760405162461bcd60e51b815260206004820152600e60248201526d139bdd08185d5d1a1bdc9a5e995960921b604482015260640161074c565b61094b838383611ccc565b6001600160a01b038216331415610fa15760405163b06307db60e01b815260040160405180910390fd5b3360008181526007602090815260408083206001600160a01b03871680855290835292819020805460ff191686151590811790915590519081529192917f17307eab39ab6107e8899845ad3d59bd9653f200f220920489ca2b5937696c31910160405180910390a35050565b60608167ffffffffffffffff8111156110285761102861309e565b60405190808252806020026020018201604052801561105b57816020015b60608152602001906001900390816110465790505b50905060005b828110156110fb576110cb3085858481811061107f5761107f613647565b905060200281019061109191906136bc565b8080601f01602080910402602001604051908101604052809392919081815260200183838082843760009201919091525061211992505050565b8282815181106110dd576110dd613647565b602002602001018190525080806110f3906138ab565b915050611061565b5092915050565b61110d848484611614565b6001600160a01b0383163b15610ec4576111298484848461213e565b610ec4576040516368d2bf6b60e11b815260040160405180910390fd5b6000818152600e60205260408120805460609291906111649061360c565b80601f01602080910402602001604051908101604052809291908181526020018280546111909061360c565b80156111dd5780601f106111b2576101008083540402835291602001916111dd565b820191906000526020600020905b8154815290600101906020018083116111c057829003601f168201915b505050505090506000815111156111f45792915050565b60006111ff84612226565b90508061120b856123d0565b60405160200161121c9291906138c6565b60405160208183030381529060405292505050919050565b600880546112419061360c565b80601f016020809104026020016040519081016040528092919081815260200182805461126d9061360c565b80156112ba5780601f1061128f576101008083540402835291602001916112ba565b820191906000526020600020905b81548152906001019060200180831161129d57829003601f168201915b505050505081565b60006112d66009546001600160a01b031690565b6001600160a01b0316336001600160a01b031614905090565b6000828152600e6020526040902080546113089061360c565b1590506113575760405162461bcd60e51b815260206004820152600f60248201527f55524920616c7265616479207365740000000000000000000000000000000000604482015260640161074c565b6000828152600e60209081526040909120825161094b92840190612fe9565b6000546001600160a01b03841661139f57604051622e076360e81b815260040160405180910390fd5b826113bd5760405163b562e8dd60e01b815260040160405180910390fd5b6001600160a01b038416600081815260056020908152604080832080546fffffffffffffffffffffffffffffffff19811667ffffffffffffffff8083168b0181169182176801000000000000000067ffffffffffffffff1990941690921783900481168b01811690920217909155858452600490925290912080546001600160e01b0319168317600160a01b42909316929092029190911790558190818501903b156114e6575b60405182906001600160a01b038816906000907fddf252ad1be2c89b69c2b068fc378daa952ba7f163c4a11628f55a4df523b3ef908290a46114af600087848060010195508761213e565b6114cc576040516368d2bf6b60e11b815260040160405180910390fd5b8082106114645782600054146114e157600080fd5b61152b565b5b6040516001830192906001600160a01b038816906000907fddf252ad1be2c89b69c2b068fc378daa952ba7f163c4a11628f55a4df523b3ef908290a48082106114e7575b506000908155610ec49085838684565b60008054821080156107ed575050600090815260046020526040902054600160e01b900460ff161590565b60008281526006602052604080822080546001600160a01b0319166001600160a01b0387811691821790925591518593918516917f8c5be1e5ebec7d5bd14f71427d1e84f3dd0314c0f7b2291e5b200ac8c7c3b92591a4505050565b600980546001600160a01b038381166001600160a01b0319831681179093556040519116919082907f8292fce18fa69edf4db7b94ea2e58241df0ae57f97e0a6c9b29067028bf92d7690600090a35050565b600061161f82611e64565b9050836001600160a01b031681600001516001600160a01b0316146116565760405162a1148160e81b815260040160405180910390fd5b6000336001600160a01b0386161480611674575061167485336106ce565b8061168f57503361168484610885565b6001600160a01b0316145b9050806116af57604051632ce44b5f60e11b815260040160405180910390fd5b6001600160a01b0384166116d657604051633a954ecd60e21b815260040160405180910390fd5b6116e260008487611566565b6001600160a01b038581166000908152600560209081526040808320805467ffffffffffffffff1980821667ffffffffffffffff92831660001901831617909255898616808652838620805493841693831660019081018416949094179055898652600490945282852080546001600160e01b031916909417600160a01b429092169190910217835587018084529220805491939091166117b85760005482146117b8578054602086015167ffffffffffffffff16600160a01b026001600160e01b03199091166001600160a01b038a16171781555b50505082846001600160a01b0316866001600160a01b03167fddf252ad1be2c89b69c2b068fc378daa952ba7f163c4a11628f55a4df523b3ef60405160405180910390a45050505050565b600061185f83838080601f016020809104026020016040519081016040528093929190818152602001838380828437600092019190915250611859925061184d91508890506124e6565b8051906020012061262d565b9061267b565b90505b9392505050565b600061187d6009546001600160a01b031690565b6001600160a01b0316826001600160a01b0316149050919050565b60006118a383611e64565b80519091508215611909576000336001600160a01b03831614806118cc57506118cc82336106ce565b806118e75750336118dc86610885565b6001600160a01b0316145b90508061190757604051632ce44b5f60e11b815260040160405180910390fd5b505b61191560008583611566565b6001600160a01b038082166000818152600560209081526040808320805470010000000000000000000000000000000060001967ffffffffffffffff80841691909101811667ffffffffffffffff19841681178390048216600190810183169093027fffffffffffffffff0000000000000000ffffffffffffffff0000000000000000909416179290921783558b86526004909452828520805460ff60e01b1942909316600160a01b026001600160e01b03199091169097179690961716600160e01b178555918901808452922080549194909116611a29576000548214611a29578054602087015167ffffffffffffffff16600160a01b026001600160e01b03199091166001600160a01b038716171781555b5050604051869250600091506001600160a01b038416907fddf252ad1be2c89b69c2b068fc378daa952ba7f163c4a11628f55a4df523b3ef908390a4505060018054810190555050565b600080611a81858585610a1a565b9250905080611ac05760405162461bcd60e51b815260206004820152600b60248201526a496e76616c69642072657160a81b604482015260640161074c565b42611ad3610120870161010088016138f5565b6001600160801b03161180611b015750611af5610140860161012087016138f5565b6001600160801b031642115b15611b3c5760405162461bcd60e51b815260206004820152600b60248201526a14995c48195e1c1a5c995960aa1b604482015260640161074c565b6000611b4b6020870187613270565b6001600160a01b03161415611ba25760405162461bcd60e51b815260206004820152601360248201527f726563697069656e7420756e646566696e656400000000000000000000000000604482015260640161074c565b60008560a0013511611bde5760405162461bcd60e51b8152602060048201526005602482015264302071747960d81b604482015260640161074c565b50610140909301356000908152601060205260409020805460ff191660011790555090919050565b80611c1057610ec4565b6000611c1c8285613673565b90506001600160a01b03831673eeeeeeeeeeeeeeeeeeeeeeeeeeeeeeeeeeeeeeee1415611c9257803414611c925760405162461bcd60e51b815260206004820152601660248201527f4d7573742073656e6420746f74616c2070726963652e00000000000000000000604482015260640161074c565b60006001600160a01b03861615611ca95785611cb6565b600f546001600160a01b03165b9050611cc48433838561269f565b505050505050565b612710811115611d105760405162461bcd60e51b815260206004820152600f60248201526e45786365656473206d61782062707360881b604482015260640161074c565b6040805180820182526001600160a01b0384811680835260208084018681526000898152600b8352869020945185546001600160a01b031916941693909317845591516001909301929092559151838152909185917f7365cf4122f072a3365c20d54eff9b38d73c096c28e1892ec8f5b0e403a0f12d910160405180910390a3505050565b610782828260405180602001604052806000815250611376565b612710811115611df35760405162461bcd60e51b815260206004820152600f60248201526e45786365656473206d61782062707360881b604482015260640161074c565b600a80546001600160a01b03841675ffffffffffffffffffffffffffffffffffffffffffff199091168117600160a01b61ffff851602179091556040518281527f90d7ec04bcb8978719414f82e52e4cb651db41d0e6f8cea6118c2191e6183adb9060200160405180910390a25050565b604080516060810182526000808252602082018190529181019190915281600054811015611f6757600081815260046020908152604091829020825160608101845290546001600160a01b0381168252600160a01b810467ffffffffffffffff1692820192909252600160e01b90910460ff16151591810182905290611f655780516001600160a01b031615611efb579392505050565b5060001901600081815260046020908152604091829020825160608101845290546001600160a01b038116808352600160a01b820467ffffffffffffffff1693830193909352600160e01b900460ff1615159281019290925215611f60579392505050565b611efb565b505b604051636f96cda160e11b815260040160405180910390fd5b600f80546001600160a01b0319166001600160a01b0383169081179091556040517f299d17e95023f496e0ffc4909cff1a61f74bb5eb18de6f900f4155bfa1b3b33390600090a250565b600080611fd78486613910565b600c8054600181019091557fdf6966c971051c3d54ec59162606531493a51404a002842f56009d7e5cf4a8c7018190556000818152600d60209081526040909120855192945084935061202e929091860190612fe9565b50935093915050565b6000600880546120469061360c565b80601f01602080910402602001604051908101604052809291908181526020018280546120729061360c565b80156120bf5780601f10612094576101008083540402835291602001916120bf565b820191906000526020600020905b8154815290600101906020018083116120a257829003601f168201915b505085519394506120db93600893506020870192509050612fe9565b507fc9c7c3fe08b88b4df9d4d47ef47d2c43d55c025a0ba88ca442580ed9e7348a16818360405161210d929190613928565b60405180910390a15050565b60606118628383604051806060016040528060278152602001613a30602791396126e9565b604051630a85bd0160e11b81526000906001600160a01b0385169063150b7a0290612173903390899088908890600401613956565b6020604051808303816000875af19250505080156121ae575060408051601f3d908101601f191682019092526121ab91810190613988565b60015b612209573d8080156121dc576040519150601f19603f3d011682016040523d82523d6000602084013e6121e1565b606091505b508051612201576040516368d2bf6b60e11b815260040160405180910390fd5b805181602001fd5b6001600160e01b031916630a85bd0160e11b149050949350505050565b60606000612233600c5490565b90506000600c80548060200260200160405190810160405280929190818152602001828054801561228357602002820191906000526020600020905b81548152602001906001019080831161226f575b5050505050905060005b82811015612387578181815181106122a7576122a7613647565b602002602001015185101561237557600d60008383815181106122cc576122cc613647565b6020026020010151815260200190815260200160002080546122ed9061360c565b80601f01602080910402602001604051908101604052809291908181526020018280546123199061360c565b80156123665780601f1061233b57610100808354040283529160200191612366565b820191906000526020600020905b81548152906001019060200180831161234957829003601f168201915b50505050509350505050919050565b612380600182613910565b905061228d565b5060405162461bcd60e51b815260206004820152600f60248201527f496e76616c696420746f6b656e49640000000000000000000000000000000000604482015260640161074c565b6060816123f45750506040805180820190915260018152600360fc1b602082015290565b8160005b811561241e5780612408816138ab565b91506124179050600a836136a8565b91506123f8565b60008167ffffffffffffffff8111156124395761243961309e565b6040519080825280601f01601f191660200182016040528015612463576020820181803683370190505b5090505b8415610b38576124786001836139a5565b9150612485600a866139bc565b612490906030613910565b60f81b8183815181106124a5576124a5613647565b60200101907effffffffffffffffffffffffffffffffffffffffffffffffffffffffffffff1916908160001a9053506124df600a866136a8565b9450612467565b60607fef2a0374db4a48b74209fd1a525c32d62e54c4185cbabd807193b07a40081d446125166020840184613270565b6125266040850160208601613270565b604085013561253b6080870160608801613270565b61254860808801886136bc565b6040516125569291906139d0565b60405190819003902060a088013560c089013561257a6101008b0160e08c01613270565b61258c6101208c016101008d016138f5565b61259e6101408d016101208e016138f5565b60408051602081019c909c526001600160a01b039a8b16908c015297891660608b015260808a019690965293871660a089015260c088019290925260e08701526101008601529092166101208401526001600160801b039182166101408085019190915291166101608301528301356101808201526101a0016040516020818303038152906040529050919050565b60006107ed61263a6127c6565b8360405161190160f01b6020820152602281018390526042810182905260009060620160405160208183030381529060405280519060200120905092915050565b600080600061268a85856128ed565b915091506126978161295d565b509392505050565b806126a957610ec4565b6001600160a01b03841673eeeeeeeeeeeeeeeeeeeeeeeeeeeeeeeeeeeeeeee14156126dd576126d88282612b18565b610ec4565b610ec484848484612bbb565b60606001600160a01b0384163b6127515760405162461bcd60e51b815260206004820152602660248201527f416464726573733a2064656c65676174652063616c6c20746f206e6f6e2d636f6044820152651b9d1c9858dd60d21b606482015260840161074c565b600080856001600160a01b03168560405161276c91906139e0565b600060405180830381855af49150503d80600081146127a7576040519150601f19603f3d011682016040523d82523d6000602084013e6127ac565b606091505b50915091506127bc828286612c14565b9695505050505050565b6000306001600160a01b037f00000000000000000000000000000000000000000000000000000000000000001614801561281f57507f000000000000000000000000000000000000000000000000000000000000000046145b1561284957507f000000000000000000000000000000000000000000000000000000000000000090565b50604080517f00000000000000000000000000000000000000000000000000000000000000006020808301919091527f0000000000000000000000000000000000000000000000000000000000000000828401527f000000000000000000000000000000000000000000000000000000000000000060608301524660808301523060a0808401919091528351808403909101815260c0909201909252805191012090565b6000808251604114156129245760208301516040840151606085015160001a61291887828585612c4d565b94509450505050612956565b82516040141561294e5760208301516040840151612943868383612d3a565b935093505050612956565b506000905060025b9250929050565b6000816004811115612971576129716139fc565b141561297a5750565b600181600481111561298e5761298e6139fc565b14156129dc5760405162461bcd60e51b815260206004820152601860248201527f45434453413a20696e76616c6964207369676e61747572650000000000000000604482015260640161074c565b60028160048111156129f0576129f06139fc565b1415612a3e5760405162461bcd60e51b815260206004820152601f60248201527f45434453413a20696e76616c6964207369676e6174757265206c656e67746800604482015260640161074c565b6003816004811115612a5257612a526139fc565b1415612aab5760405162461bcd60e51b815260206004820152602260248201527f45434453413a20696e76616c6964207369676e6174757265202773272076616c604482015261756560f01b606482015260840161074c565b6004816004811115612abf57612abf6139fc565b141561099e5760405162461bcd60e51b815260206004820152602260248201527f45434453413a20696e76616c6964207369676e6174757265202776272076616c604482015261756560f01b606482015260840161074c565b6000826001600160a01b03168260405160006040518083038185875af1925050503d8060008114612b65576040519150601f19603f3d011682016040523d82523d6000602084013e612b6a565b606091505b505090508061094b5760405162461bcd60e51b815260206004820152601c60248201527f6e617469766520746f6b656e207472616e73666572206661696c656400000000604482015260640161074c565b816001600160a01b0316836001600160a01b03161415612bda57610ec4565b6001600160a01b038316301415612bff576126d86001600160a01b0385168383612d8c565b610ec46001600160a01b038516848484612e04565b60608315612c23575081611862565b825115612c335782518084602001fd5b8160405162461bcd60e51b815260040161074c919061321a565b6000807f7fffffffffffffffffffffffffffffff5d576e7357a4501ddfe92f46681b20a0831115612c845750600090506003612d31565b8460ff16601b14158015612c9c57508460ff16601c14155b15612cad5750600090506004612d31565b6040805160008082526020820180845289905260ff881692820192909252606081018690526080810185905260019060a0016020604051602081039080840390855afa158015612d01573d6000803e3d6000fd5b5050604051601f1901519150506001600160a01b038116612d2a57600060019250925050612d31565b9150600090505b94509492505050565b6000807f7fffffffffffffffffffffffffffffffffffffffffffffffffffffffffffffff831681612d7060ff86901c601b613910565b9050612d7e87828885612c4d565b935093505050935093915050565b6040516001600160a01b03831660248201526044810182905261094b90849063a9059cbb60e01b906064015b60408051601f198184030181529190526020810180517bffffffffffffffffffffffffffffffffffffffffffffffffffffffff166001600160e01b031990931692909217909152612e3c565b6040516001600160a01b0380851660248301528316604482015260648101829052610ec49085906323b872dd60e01b90608401612db8565b6000612e91826040518060400160405280602081526020017f5361666545524332303a206c6f772d6c6576656c2063616c6c206661696c6564815250856001600160a01b0316612f0e9092919063ffffffff16565b80519091501561094b5780806020019051810190612eaf9190613a12565b61094b5760405162461bcd60e51b815260206004820152602a60248201527f5361666545524332303a204552433230206f7065726174696f6e20646964206e6044820152691bdd081cdd58d8d9595960b21b606482015260840161074c565b606061185f8484600085856001600160a01b0385163b612f705760405162461bcd60e51b815260206004820152601d60248201527f416464726573733a2063616c6c20746f206e6f6e2d636f6e7472616374000000604482015260640161074c565b600080866001600160a01b03168587604051612f8c91906139e0565b60006040518083038185875af1925050503d8060008114612fc9576040519150601f19603f3d011682016040523d82523d6000602084013e612fce565b606091505b5091509150612fde828286612c14565b979650505050505050565b828054612ff59061360c565b90600052602060002090601f016020900481019282613017576000855561305d565b82601f1061303057805160ff191683800117855561305d565b8280016001018555821561305d579182015b8281111561305d578251825591602001919060010190613042565b5061306992915061306d565b5090565b5b80821115613069576000815560010161306e565b80356001600160a01b038116811461309957600080fd5b919050565b634e487b7160e01b600052604160045260246000fd5b600082601f8301126130c557600080fd5b813567ffffffffffffffff808211156130e0576130e061309e565b604051601f8301601f19908116603f011681019082821181831017156131085761310861309e565b8160405283815286602085880101111561312157600080fd5b836020870160208301376000602085830101528094505050505092915050565b6000806040838503121561315457600080fd5b61315d83613082565b9150602083013567ffffffffffffffff81111561317957600080fd5b613185858286016130b4565b9150509250929050565b6001600160e01b03198116811461099e57600080fd5b6000602082840312156131b757600080fd5b81356118628161318f565b60005b838110156131dd5781810151838201526020016131c5565b83811115610ec45750506000910152565b600081518084526132068160208601602086016131c2565b601f01601f19169290920160200192915050565b60208152600061186260208301846131ee565b60006020828403121561323f57600080fd5b5035919050565b6000806040838503121561325957600080fd5b61326283613082565b946020939093013593505050565b60006020828403121561328257600080fd5b61186282613082565b6000806000606084860312156132a057600080fd5b6132a984613082565b92506132b760208501613082565b9150604084013590509250925092565b6000806000604084860312156132dc57600080fd5b833567ffffffffffffffff808211156132f457600080fd5b90850190610160828803121561330957600080fd5b9093506020850135908082111561331f57600080fd5b818601915086601f83011261333357600080fd5b81358181111561334257600080fd5b87602082850101111561335457600080fd5b6020830194508093505050509250925092565b6000806040838503121561337a57600080fd5b50508035926020909101359150565b6000806000806080858703121561339f57600080fd5b6133a885613082565b935060208501359250604085013567ffffffffffffffff808211156133cc57600080fd5b6133d8888389016130b4565b935060608701359150808211156133ee57600080fd5b506133fb878288016130b4565b91505092959194509250565b60006020828403121561341957600080fd5b813567ffffffffffffffff81111561343057600080fd5b610b38848285016130b4565b60008060006060848603121561345157600080fd5b833592506132b760208501613082565b801515811461099e57600080fd5b6000806040838503121561348257600080fd5b61348b83613082565b9150602083013561349b81613461565b809150509250929050565b600080602083850312156134b957600080fd5b823567ffffffffffffffff808211156134d157600080fd5b818501915085601f8301126134e557600080fd5b8135818111156134f457600080fd5b8660208260051b850101111561350957600080fd5b60209290920196919550909350505050565b6000602080830181845280855180835260408601915060408160051b870101925083870160005b8281101561357057603f1988860301845261355e8583516131ee565b94509285019290850190600101613542565b5092979650505050505050565b6000806000806080858703121561359357600080fd5b61359c85613082565b93506135aa60208601613082565b925060408501359150606085013567ffffffffffffffff8111156135cd57600080fd5b6133fb878288016130b4565b600080604083850312156135ec57600080fd5b6135f583613082565b915061360360208401613082565b90509250929050565b600181811c9082168061362057607f821691505b6020821081141561364157634e487b7160e01b600052602260045260246000fd5b50919050565b634e487b7160e01b600052603260045260246000fd5b634e487b7160e01b600052601160045260246000fd5b600081600019048311821515161561368d5761368d61365d565b500290565b634e487b7160e01b600052601260045260246000fd5b6000826136b7576136b7613692565b500490565b6000808335601e198436030181126136d357600080fd5b83018035915067ffffffffffffffff8211156136ee57600080fd5b60200191503681900382131561295657600080fd5b6000808335601e1984360301811261371a57600080fd5b830160208101925035905067ffffffffffffffff81111561373a57600080fd5b80360383131561295657600080fd5b81835281816020850137506000828201602090810191909152601f909101601f19169091010190565b80356001600160801b038116811461309957600080fd5b602081526137aa6020820161379d84613082565b6001600160a01b03169052565b60006137b860208401613082565b6001600160a01b038116604084015250604083013560608301526137de60608401613082565b6001600160a01b0381166080840152506137fb6080840184613703565b6101608060a086015261381361018086018385613749565b925060a086013560c086015260c086013560e086015261383560e08701613082565b915061010061384e818701846001600160a01b03169052565b613859818801613772565b925050610120613873818701846001600160801b03169052565b61387e818801613772565b925050610140613898818701846001600160801b03169052565b9590950135939094019290925250919050565b60006000198214156138bf576138bf61365d565b5060010190565b600083516138d88184602088016131c2565b8351908301906138ec8183602088016131c2565b01949350505050565b60006020828403121561390757600080fd5b61186282613772565b600082198211156139235761392361365d565b500190565b60408152600061393b60408301856131ee565b828103602084015261394d81856131ee565b95945050505050565b60006001600160a01b038087168352808616602084015250836040830152608060608301526127bc60808301846131ee565b60006020828403121561399a57600080fd5b81516118628161318f565b6000828210156139b7576139b761365d565b500390565b6000826139cb576139cb613692565b500690565b8183823760009101908152919050565b600082516139f28184602087016131c2565b9190910192915050565b634e487b7160e01b600052602160045260246000fd5b600060208284031215613a2457600080fd5b81516118628161346156fe416464726573733a206c6f772d6c6576656c2064656c65676174652063616c6c206661696c6564a2646970667358221220fcc1ef603dec5c8163101dd5ead0f848dbddbde5ba5463a7612c9fd36ef9d46f64736f6c634300080c0033",
  "linkReferences": {},
  "deployedLinkReferences": {}
}