{
  "_format": "hh-sol-artifact-1",
  "contractName": "Marketplace",
  "sourceName": "contracts/marketplace/Marketplace.sol",
  "abi": [
    {
      "inputs": [
        {
          "internalType": "address",
          "name": "_nativeTokenWrapper",
          "type": "address"
        }
      ],
      "stateMutability": "nonpayable",
      "type": "constructor"
    },
    {
      "anonymous": false,
      "inputs": [
        {
          "indexed": false,
          "internalType": "uint256",
          "name": "timeBuffer",
          "type": "uint256"
        },
        {
          "indexed": false,
          "internalType": "uint256",
          "name": "bidBufferBps",
          "type": "uint256"
        }
      ],
      "name": "AuctionBuffersUpdated",
      "type": "event"
    },
    {
      "anonymous": false,
      "inputs": [
        {
          "indexed": true,
          "internalType": "uint256",
          "name": "listingId",
          "type": "uint256"
        },
        {
          "indexed": true,
          "internalType": "address",
          "name": "closer",
          "type": "address"
        },
        {
          "indexed": true,
          "internalType": "bool",
          "name": "cancelled",
          "type": "bool"
        },
        {
          "indexed": false,
          "internalType": "address",
          "name": "auctionCreator",
          "type": "address"
        },
        {
          "indexed": false,
          "internalType": "address",
          "name": "winningBidder",
          "type": "address"
        }
      ],
      "name": "AuctionClosed",
      "type": "event"
    },
    {
      "anonymous": false,
      "inputs": [
        {
          "indexed": false,
          "internalType": "uint8",
          "name": "version",
          "type": "uint8"
        }
      ],
      "name": "Initialized",
      "type": "event"
    },
    {
      "anonymous": false,
      "inputs": [
        {
          "indexed": true,
          "internalType": "uint256",
          "name": "listingId",
          "type": "uint256"
        },
        {
          "indexed": true,
          "internalType": "address",
          "name": "assetContract",
          "type": "address"
        },
        {
          "indexed": true,
          "internalType": "address",
          "name": "lister",
          "type": "address"
        },
        {
          "components": [
            {
              "internalType": "uint256",
              "name": "listingId",
              "type": "uint256"
            },
            {
              "internalType": "address",
              "name": "tokenOwner",
              "type": "address"
            },
            {
              "internalType": "address",
              "name": "assetContract",
              "type": "address"
            },
            {
              "internalType": "uint256",
              "name": "tokenId",
              "type": "uint256"
            },
            {
              "internalType": "uint256",
              "name": "startTime",
              "type": "uint256"
            },
            {
              "internalType": "uint256",
              "name": "endTime",
              "type": "uint256"
            },
            {
              "internalType": "uint256",
              "name": "quantity",
              "type": "uint256"
            },
            {
              "internalType": "address",
              "name": "currency",
              "type": "address"
            },
            {
              "internalType": "uint256",
              "name": "reservePricePerToken",
              "type": "uint256"
            },
            {
              "internalType": "uint256",
              "name": "buyoutPricePerToken",
              "type": "uint256"
            },
            {
              "internalType": "enum IMarketplace.TokenType",
              "name": "tokenType",
              "type": "uint8"
            },
            {
              "internalType": "enum IMarketplace.ListingType",
              "name": "listingType",
              "type": "uint8"
            }
          ],
          "indexed": false,
          "internalType": "struct IMarketplace.Listing",
          "name": "listing",
          "type": "tuple"
        }
      ],
      "name": "ListingAdded",
      "type": "event"
    },
    {
      "anonymous": false,
      "inputs": [
        {
          "indexed": true,
          "internalType": "uint256",
          "name": "listingId",
          "type": "uint256"
        },
        {
          "indexed": true,
          "internalType": "address",
          "name": "listingCreator",
          "type": "address"
        }
      ],
      "name": "ListingRemoved",
      "type": "event"
    },
    {
      "anonymous": false,
      "inputs": [
        {
          "indexed": true,
          "internalType": "uint256",
          "name": "listingId",
          "type": "uint256"
        },
        {
          "indexed": true,
          "internalType": "address",
          "name": "listingCreator",
          "type": "address"
        }
      ],
      "name": "ListingUpdated",
      "type": "event"
    },
    {
      "anonymous": false,
      "inputs": [
        {
          "indexed": true,
          "internalType": "uint256",
          "name": "listingId",
          "type": "uint256"
        },
        {
          "indexed": true,
          "internalType": "address",
          "name": "offeror",
          "type": "address"
        },
        {
          "indexed": true,
          "internalType": "enum IMarketplace.ListingType",
          "name": "listingType",
          "type": "uint8"
        },
        {
          "indexed": false,
          "internalType": "uint256",
          "name": "quantityWanted",
          "type": "uint256"
        },
        {
          "indexed": false,
          "internalType": "uint256",
          "name": "totalOfferAmount",
          "type": "uint256"
        },
        {
          "indexed": false,
          "internalType": "address",
          "name": "currency",
          "type": "address"
        }
      ],
      "name": "NewOffer",
      "type": "event"
    },
    {
      "anonymous": false,
      "inputs": [
        {
          "indexed": true,
          "internalType": "uint256",
          "name": "listingId",
          "type": "uint256"
        },
        {
          "indexed": true,
          "internalType": "address",
          "name": "assetContract",
          "type": "address"
        },
        {
          "indexed": true,
          "internalType": "address",
          "name": "lister",
          "type": "address"
        },
        {
          "indexed": false,
          "internalType": "address",
          "name": "buyer",
          "type": "address"
        },
        {
          "indexed": false,
          "internalType": "uint256",
          "name": "quantityBought",
          "type": "uint256"
        },
        {
          "indexed": false,
          "internalType": "uint256",
          "name": "totalPricePaid",
          "type": "uint256"
        }
      ],
      "name": "NewSale",
      "type": "event"
    },
    {
      "anonymous": false,
      "inputs": [
        {
          "indexed": true,
          "internalType": "address",
          "name": "platformFeeRecipient",
          "type": "address"
        },
        {
          "indexed": false,
          "internalType": "uint256",
          "name": "platformFeeBps",
          "type": "uint256"
        }
      ],
      "name": "PlatformFeeInfoUpdated",
      "type": "event"
    },
    {
      "anonymous": false,
      "inputs": [
        {
          "indexed": true,
          "internalType": "bytes32",
          "name": "role",
          "type": "bytes32"
        },
        {
          "indexed": true,
          "internalType": "bytes32",
          "name": "previousAdminRole",
          "type": "bytes32"
        },
        {
          "indexed": true,
          "internalType": "bytes32",
          "name": "newAdminRole",
          "type": "bytes32"
        }
      ],
      "name": "RoleAdminChanged",
      "type": "event"
    },
    {
      "anonymous": false,
      "inputs": [
        {
          "indexed": true,
          "internalType": "bytes32",
          "name": "role",
          "type": "bytes32"
        },
        {
          "indexed": true,
          "internalType": "address",
          "name": "account",
          "type": "address"
        },
        {
          "indexed": true,
          "internalType": "address",
          "name": "sender",
          "type": "address"
        }
      ],
      "name": "RoleGranted",
      "type": "event"
    },
    {
      "anonymous": false,
      "inputs": [
        {
          "indexed": true,
          "internalType": "bytes32",
          "name": "role",
          "type": "bytes32"
        },
        {
          "indexed": true,
          "internalType": "address",
          "name": "account",
          "type": "address"
        },
        {
          "indexed": true,
          "internalType": "address",
          "name": "sender",
          "type": "address"
        }
      ],
      "name": "RoleRevoked",
      "type": "event"
    },
    {
      "inputs": [],
      "name": "DEFAULT_ADMIN_ROLE",
      "outputs": [
        {
          "internalType": "bytes32",
          "name": "",
          "type": "bytes32"
        }
      ],
      "stateMutability": "view",
      "type": "function"
    },
    {
      "inputs": [],
      "name": "MAX_BPS",
      "outputs": [
        {
          "internalType": "uint64",
          "name": "",
          "type": "uint64"
        }
      ],
      "stateMutability": "view",
      "type": "function"
    },
    {
      "inputs": [
        {
          "internalType": "uint256",
          "name": "_listingId",
          "type": "uint256"
        },
        {
          "internalType": "address",
          "name": "_offeror",
          "type": "address"
        },
        {
          "internalType": "address",
          "name": "_currency",
          "type": "address"
        },
        {
          "internalType": "uint256",
          "name": "_pricePerToken",
          "type": "uint256"
        }
      ],
      "name": "acceptOffer",
      "outputs": [],
      "stateMutability": "nonpayable",
      "type": "function"
    },
    {
      "inputs": [],
      "name": "bidBufferBps",
      "outputs": [
        {
          "internalType": "uint64",
          "name": "",
          "type": "uint64"
        }
      ],
      "stateMutability": "view",
      "type": "function"
    },
    {
      "inputs": [
        {
          "internalType": "uint256",
          "name": "_listingId",
          "type": "uint256"
        },
        {
          "internalType": "address",
          "name": "_buyFor",
          "type": "address"
        },
        {
          "internalType": "uint256",
          "name": "_quantityToBuy",
          "type": "uint256"
        },
        {
          "internalType": "address",
          "name": "_currency",
          "type": "address"
        },
        {
          "internalType": "uint256",
          "name": "_totalPrice",
          "type": "uint256"
        }
      ],
      "name": "buy",
      "outputs": [],
      "stateMutability": "payable",
      "type": "function"
    },
    {
      "inputs": [
        {
          "internalType": "uint256",
          "name": "_listingId",
          "type": "uint256"
        }
      ],
      "name": "cancelDirectListing",
      "outputs": [],
      "stateMutability": "nonpayable",
      "type": "function"
    },
    {
      "inputs": [
        {
          "internalType": "uint256",
          "name": "_listingId",
          "type": "uint256"
        },
        {
          "internalType": "address",
          "name": "_closeFor",
          "type": "address"
        }
      ],
      "name": "closeAuction",
      "outputs": [],
      "stateMutability": "nonpayable",
      "type": "function"
    },
    {
      "inputs": [],
      "name": "contractType",
      "outputs": [
        {
          "internalType": "bytes32",
          "name": "",
          "type": "bytes32"
        }
      ],
      "stateMutability": "pure",
      "type": "function"
    },
    {
      "inputs": [],
      "name": "contractURI",
      "outputs": [
        {
          "internalType": "string",
          "name": "",
          "type": "string"
        }
      ],
      "stateMutability": "view",
      "type": "function"
    },
    {
      "inputs": [],
      "name": "contractVersion",
      "outputs": [
        {
          "internalType": "uint8",
          "name": "",
          "type": "uint8"
        }
      ],
      "stateMutability": "pure",
      "type": "function"
    },
    {
      "inputs": [
        {
          "components": [
            {
              "internalType": "address",
              "name": "assetContract",
              "type": "address"
            },
            {
              "internalType": "uint256",
              "name": "tokenId",
              "type": "uint256"
            },
            {
              "internalType": "uint256",
              "name": "startTime",
              "type": "uint256"
            },
            {
              "internalType": "uint256",
              "name": "secondsUntilEndTime",
              "type": "uint256"
            },
            {
              "internalType": "uint256",
              "name": "quantityToList",
              "type": "uint256"
            },
            {
              "internalType": "address",
              "name": "currencyToAccept",
              "type": "address"
            },
            {
              "internalType": "uint256",
              "name": "reservePricePerToken",
              "type": "uint256"
            },
            {
              "internalType": "uint256",
              "name": "buyoutPricePerToken",
              "type": "uint256"
            },
            {
              "internalType": "enum IMarketplace.ListingType",
              "name": "listingType",
              "type": "uint8"
            }
          ],
          "internalType": "struct IMarketplace.ListingParameters",
          "name": "_params",
          "type": "tuple"
        }
      ],
      "name": "createListing",
      "outputs": [],
      "stateMutability": "nonpayable",
      "type": "function"
    },
    {
      "inputs": [],
      "name": "getPlatformFeeInfo",
      "outputs": [
        {
          "internalType": "address",
          "name": "",
          "type": "address"
        },
        {
          "internalType": "uint16",
          "name": "",
          "type": "uint16"
        }
      ],
      "stateMutability": "view",
      "type": "function"
    },
    {
      "inputs": [
        {
          "internalType": "bytes32",
          "name": "role",
          "type": "bytes32"
        }
      ],
      "name": "getRoleAdmin",
      "outputs": [
        {
          "internalType": "bytes32",
          "name": "",
          "type": "bytes32"
        }
      ],
      "stateMutability": "view",
      "type": "function"
    },
    {
      "inputs": [
        {
          "internalType": "bytes32",
          "name": "role",
          "type": "bytes32"
        },
        {
          "internalType": "uint256",
          "name": "index",
          "type": "uint256"
        }
      ],
      "name": "getRoleMember",
      "outputs": [
        {
          "internalType": "address",
          "name": "",
          "type": "address"
        }
      ],
      "stateMutability": "view",
      "type": "function"
    },
    {
      "inputs": [
        {
          "internalType": "bytes32",
          "name": "role",
          "type": "bytes32"
        }
      ],
      "name": "getRoleMemberCount",
      "outputs": [
        {
          "internalType": "uint256",
          "name": "",
          "type": "uint256"
        }
      ],
      "stateMutability": "view",
      "type": "function"
    },
    {
      "inputs": [
        {
          "internalType": "bytes32",
          "name": "role",
          "type": "bytes32"
        },
        {
          "internalType": "address",
          "name": "account",
          "type": "address"
        }
      ],
      "name": "grantRole",
      "outputs": [],
      "stateMutability": "nonpayable",
      "type": "function"
    },
    {
      "inputs": [
        {
          "internalType": "bytes32",
          "name": "role",
          "type": "bytes32"
        },
        {
          "internalType": "address",
          "name": "account",
          "type": "address"
        }
      ],
      "name": "hasRole",
      "outputs": [
        {
          "internalType": "bool",
          "name": "",
          "type": "bool"
        }
      ],
      "stateMutability": "view",
      "type": "function"
    },
    {
      "inputs": [
        {
          "internalType": "address",
          "name": "_defaultAdmin",
          "type": "address"
        },
        {
          "internalType": "string",
          "name": "_contractURI",
          "type": "string"
        },
        {
          "internalType": "address[]",
          "name": "_trustedForwarders",
          "type": "address[]"
        },
        {
          "internalType": "address",
          "name": "_platformFeeRecipient",
          "type": "address"
        },
        {
          "internalType": "uint256",
          "name": "_platformFeeBps",
          "type": "uint256"
        }
      ],
      "name": "initialize",
      "outputs": [],
      "stateMutability": "nonpayable",
      "type": "function"
    },
    {
      "inputs": [
        {
          "internalType": "address",
          "name": "forwarder",
          "type": "address"
        }
      ],
      "name": "isTrustedForwarder",
      "outputs": [
        {
          "internalType": "bool",
          "name": "",
          "type": "bool"
        }
      ],
      "stateMutability": "view",
      "type": "function"
    },
    {
      "inputs": [
        {
          "internalType": "uint256",
          "name": "",
          "type": "uint256"
        }
      ],
      "name": "listings",
      "outputs": [
        {
          "internalType": "uint256",
          "name": "listingId",
          "type": "uint256"
        },
        {
          "internalType": "address",
          "name": "tokenOwner",
          "type": "address"
        },
        {
          "internalType": "address",
          "name": "assetContract",
          "type": "address"
        },
        {
          "internalType": "uint256",
          "name": "tokenId",
          "type": "uint256"
        },
        {
          "internalType": "uint256",
          "name": "startTime",
          "type": "uint256"
        },
        {
          "internalType": "uint256",
          "name": "endTime",
          "type": "uint256"
        },
        {
          "internalType": "uint256",
          "name": "quantity",
          "type": "uint256"
        },
        {
          "internalType": "address",
          "name": "currency",
          "type": "address"
        },
        {
          "internalType": "uint256",
          "name": "reservePricePerToken",
          "type": "uint256"
        },
        {
          "internalType": "uint256",
          "name": "buyoutPricePerToken",
          "type": "uint256"
        },
        {
          "internalType": "enum IMarketplace.TokenType",
          "name": "tokenType",
          "type": "uint8"
        },
        {
          "internalType": "enum IMarketplace.ListingType",
          "name": "listingType",
          "type": "uint8"
        }
      ],
      "stateMutability": "view",
      "type": "function"
    },
    {
      "inputs": [
        {
          "internalType": "bytes[]",
          "name": "data",
          "type": "bytes[]"
        }
      ],
      "name": "multicall",
      "outputs": [
        {
          "internalType": "bytes[]",
          "name": "results",
          "type": "bytes[]"
        }
      ],
      "stateMutability": "nonpayable",
      "type": "function"
    },
    {
      "inputs": [
        {
          "internalType": "uint256",
          "name": "_listingId",
          "type": "uint256"
        },
        {
          "internalType": "uint256",
          "name": "_quantityWanted",
          "type": "uint256"
        },
        {
          "internalType": "address",
          "name": "_currency",
          "type": "address"
        },
        {
          "internalType": "uint256",
          "name": "_pricePerToken",
          "type": "uint256"
        },
        {
          "internalType": "uint256",
          "name": "_expirationTimestamp",
          "type": "uint256"
        }
      ],
      "name": "offer",
      "outputs": [],
      "stateMutability": "payable",
      "type": "function"
    },
    {
      "inputs": [
        {
          "internalType": "uint256",
          "name": "",
          "type": "uint256"
        },
        {
          "internalType": "address",
          "name": "",
          "type": "address"
        }
      ],
      "name": "offers",
      "outputs": [
        {
          "internalType": "uint256",
          "name": "listingId",
          "type": "uint256"
        },
        {
          "internalType": "address",
          "name": "offeror",
          "type": "address"
        },
        {
          "internalType": "uint256",
          "name": "quantityWanted",
          "type": "uint256"
        },
        {
          "internalType": "address",
          "name": "currency",
          "type": "address"
        },
        {
          "internalType": "uint256",
          "name": "pricePerToken",
          "type": "uint256"
        },
        {
          "internalType": "uint256",
          "name": "expirationTimestamp",
          "type": "uint256"
        }
      ],
      "stateMutability": "view",
      "type": "function"
    },
    {
      "inputs": [
        {
          "internalType": "address",
          "name": "",
          "type": "address"
        },
        {
          "internalType": "address",
          "name": "",
          "type": "address"
        },
        {
          "internalType": "uint256[]",
          "name": "",
          "type": "uint256[]"
        },
        {
          "internalType": "uint256[]",
          "name": "",
          "type": "uint256[]"
        },
        {
          "internalType": "bytes",
          "name": "",
          "type": "bytes"
        }
      ],
      "name": "onERC1155BatchReceived",
      "outputs": [
        {
          "internalType": "bytes4",
          "name": "",
          "type": "bytes4"
        }
      ],
      "stateMutability": "nonpayable",
      "type": "function"
    },
    {
      "inputs": [
        {
          "internalType": "address",
          "name": "",
          "type": "address"
        },
        {
          "internalType": "address",
          "name": "",
          "type": "address"
        },
        {
          "internalType": "uint256",
          "name": "",
          "type": "uint256"
        },
        {
          "internalType": "uint256",
          "name": "",
          "type": "uint256"
        },
        {
          "internalType": "bytes",
          "name": "",
          "type": "bytes"
        }
      ],
      "name": "onERC1155Received",
      "outputs": [
        {
          "internalType": "bytes4",
          "name": "",
          "type": "bytes4"
        }
      ],
      "stateMutability": "nonpayable",
      "type": "function"
    },
    {
      "inputs": [
        {
          "internalType": "address",
          "name": "",
          "type": "address"
        },
        {
          "internalType": "address",
          "name": "",
          "type": "address"
        },
        {
          "internalType": "uint256",
          "name": "",
          "type": "uint256"
        },
        {
          "internalType": "bytes",
          "name": "",
          "type": "bytes"
        }
      ],
      "name": "onERC721Received",
      "outputs": [
        {
          "internalType": "bytes4",
          "name": "",
          "type": "bytes4"
        }
      ],
      "stateMutability": "pure",
      "type": "function"
    },
    {
      "inputs": [
        {
          "internalType": "bytes32",
          "name": "role",
          "type": "bytes32"
        },
        {
          "internalType": "address",
          "name": "account",
          "type": "address"
        }
      ],
      "name": "renounceRole",
      "outputs": [],
      "stateMutability": "nonpayable",
      "type": "function"
    },
    {
      "inputs": [
        {
          "internalType": "bytes32",
          "name": "role",
          "type": "bytes32"
        },
        {
          "internalType": "address",
          "name": "account",
          "type": "address"
        }
      ],
      "name": "revokeRole",
      "outputs": [],
      "stateMutability": "nonpayable",
      "type": "function"
    },
    {
      "inputs": [
        {
          "internalType": "uint256",
          "name": "_timeBuffer",
          "type": "uint256"
        },
        {
          "internalType": "uint256",
          "name": "_bidBufferBps",
          "type": "uint256"
        }
      ],
      "name": "setAuctionBuffers",
      "outputs": [],
      "stateMutability": "nonpayable",
      "type": "function"
    },
    {
      "inputs": [
        {
          "internalType": "string",
          "name": "_uri",
          "type": "string"
        }
      ],
      "name": "setContractURI",
      "outputs": [],
      "stateMutability": "nonpayable",
      "type": "function"
    },
    {
      "inputs": [
        {
          "internalType": "address",
          "name": "_platformFeeRecipient",
          "type": "address"
        },
        {
          "internalType": "uint256",
          "name": "_platformFeeBps",
          "type": "uint256"
        }
      ],
      "name": "setPlatformFeeInfo",
      "outputs": [],
      "stateMutability": "nonpayable",
      "type": "function"
    },
    {
      "inputs": [
        {
          "internalType": "bytes4",
          "name": "interfaceId",
          "type": "bytes4"
        }
      ],
      "name": "supportsInterface",
      "outputs": [
        {
          "internalType": "bool",
          "name": "",
          "type": "bool"
        }
      ],
      "stateMutability": "view",
      "type": "function"
    },
    {
      "inputs": [],
      "name": "timeBuffer",
      "outputs": [
        {
          "internalType": "uint64",
          "name": "",
          "type": "uint64"
        }
      ],
      "stateMutability": "view",
      "type": "function"
    },
    {
      "inputs": [],
      "name": "totalListings",
      "outputs": [
        {
          "internalType": "uint256",
          "name": "",
          "type": "uint256"
        }
      ],
      "stateMutability": "view",
      "type": "function"
    },
    {
      "inputs": [
        {
          "internalType": "uint256",
          "name": "_listingId",
          "type": "uint256"
        },
        {
          "internalType": "uint256",
          "name": "_quantityToList",
          "type": "uint256"
        },
        {
          "internalType": "uint256",
          "name": "_reservePricePerToken",
          "type": "uint256"
        },
        {
          "internalType": "uint256",
          "name": "_buyoutPricePerToken",
          "type": "uint256"
        },
        {
          "internalType": "address",
          "name": "_currencyToAccept",
          "type": "address"
        },
        {
          "internalType": "uint256",
          "name": "_startTime",
          "type": "uint256"
        },
        {
          "internalType": "uint256",
          "name": "_secondsUntilEndTime",
          "type": "uint256"
        }
      ],
      "name": "updateListing",
      "outputs": [],
      "stateMutability": "nonpayable",
      "type": "function"
    },
    {
      "inputs": [
        {
          "internalType": "uint256",
          "name": "",
          "type": "uint256"
        }
      ],
      "name": "winningBid",
      "outputs": [
        {
          "internalType": "uint256",
          "name": "listingId",
          "type": "uint256"
        },
        {
          "internalType": "address",
          "name": "offeror",
          "type": "address"
        },
        {
          "internalType": "uint256",
          "name": "quantityWanted",
          "type": "uint256"
        },
        {
          "internalType": "address",
          "name": "currency",
          "type": "address"
        },
        {
          "internalType": "uint256",
          "name": "pricePerToken",
          "type": "uint256"
        },
        {
          "internalType": "uint256",
          "name": "expirationTimestamp",
          "type": "uint256"
        }
      ],
      "stateMutability": "view",
      "type": "function"
    },
    {
      "stateMutability": "payable",
      "type": "receive"
    }
  ],
  "bytecode": "0x60a06040523480156200001157600080fd5b5060405162005e8438038062005e8483398101604081905262000034916200017c565b600054610100900460ff1615808015620000555750600054600160ff909116105b8062000085575062000072306200016d60201b620029a81760201c565b15801562000085575060005460ff166001145b620000ed5760405162461bcd60e51b815260206004820152602e60248201527f496e697469616c697a61626c653a20636f6e747261637420697320616c72656160448201526d191e481a5b9a5d1a585b1a5e995960921b606482015260840160405180910390fd5b6000805460ff19166001179055801562000111576000805461ff0019166101001790555b6001600160a01b038216608052801562000165576000805461ff0019169055604051600181527f7f26b83ff96e1f2b6a682f133852f6798a09c465da95921460cefb38474024989060200160405180910390a15b5050620001ae565b6001600160a01b03163b151590565b6000602082840312156200018f57600080fd5b81516001600160a01b0381168114620001a757600080fd5b9392505050565b608051615cac620001d8600039600081816113210152818161308c01526144480152615cac6000f3fe6080604052600436106102135760003560e01c8063a217fddf11610118578063d4ac9b8c116100a0578063ea0e02411161006f578063ea0e0241146107d1578063ebdfbce5146107f1578063ec91f2a414610859578063f23a6e611461087b578063fd967f47146108a757600080fd5b8063d4ac9b8c14610652578063d547741f146106e8578063de74e57b14610708578063e8a3d485146107af57600080fd5b8063c4b5b15f116100e7578063c4b5b15f146105a2578063c78b616c146105c2578063ca15c873146105d9578063cb2ef6f7146105f9578063d45573f61461061a57600080fd5b8063a217fddf14610514578063ac9650d814610529578063b13c0e6314610556578063bc197c811461057657600080fd5b80635fef45e71161019b5780638c8a84e21161016a5780638c8a84e21461043a5780639010d07c1461045a57806391d1485414610492578063938e3d7b146104d8578063a0a8e460146104f857600080fd5b80635fef45e7146103d45780636bab66ae146103e75780637506c84a146104075780637687ab021461042757600080fd5b8063296f4e16116101e2578063296f4e16146102f95780632f2ff15d1461031957806336568abe146103395780634e03f28d14610359578063572b6c051461039b57600080fd5b806301ffc9a71461021f578063150b7a02146102545780631e7ac48814610299578063248a9ca3146102bb57600080fd5b3661021a57005b600080fd5b34801561022b57600080fd5b5061023f61023a366004614f50565b6108bd565b60405190151581526020015b60405180910390f35b34801561026057600080fd5b5061028061026f366004614fe3565b630a85bd0160e11b95945050505050565b6040516001600160e01b0319909116815260200161024b565b3480156102a557600080fd5b506102b96102b4366004615056565b610903565b005b3480156102c757600080fd5b506102eb6102d6366004615082565b600090815260fb602052604090206001015490565b60405190815260200161024b565b34801561030557600080fd5b506102b961031436600461511b565b6109c8565b34801561032557600080fd5b506102b96103343660046151a7565b610eba565b34801561034557600080fd5b506102b96103543660046151a7565b610ee4565b34801561036557600080fd5b506101625461038290600160401b900467ffffffffffffffff1681565b60405167ffffffffffffffff909116815260200161024b565b3480156103a757600080fd5b5061023f6103b63660046151d7565b6001600160a01b031660009081526065602052604090205460ff1690565b6102b96103e23660046151f4565b610f80565b3480156103f357600080fd5b506102b96104023660046151a7565b61137c565b34801561041357600080fd5b506102b9610422366004615082565b6116e6565b6102b961043536600461523d565b611946565b34801561044657600080fd5b506102b961045536600461530b565b611b84565b34801561046657600080fd5b5061047a610475366004615403565b611d77565b6040516001600160a01b03909116815260200161024b565b34801561049e57600080fd5b5061023f6104ad3660046151a7565b600091825260fb602090815260408084206001600160a01b0393909316845291905290205460ff1690565b3480156104e457600080fd5b506102b96104f3366004615425565b611d97565b34801561050457600080fd5b506040516002815260200161024b565b34801561052057600080fd5b506102eb600081565b34801561053557600080fd5b50610549610544366004615467565b611db5565b60405161024b9190615534565b34801561056257600080fd5b506102b9610571366004615596565b611eaa565b34801561058257600080fd5b50610280610591366004615664565b63bc197c8160e01b95945050505050565b3480156105ae57600080fd5b506102b96105bd366004615712565b612308565b3480156105ce57600080fd5b506102eb61015f5481565b3480156105e557600080fd5b506102eb6105f4366004615082565b612816565b34801561060557600080fd5b506a4d61726b6574706c61636560a81b6102eb565b34801561062657600080fd5b5061016154604080516001600160a01b0383168152600160a01b90920461ffff1660208301520161024b565b34801561065e57600080fd5b506106af61066d366004615082565b6101656020526000908152604090208054600182015460028301546003840154600485015460059095015493946001600160a01b039384169492939091169186565b604080519687526001600160a01b03958616602088015286019390935292166060840152608083019190915260a082015260c00161024b565b3480156106f457600080fd5b506102b96107033660046151a7565b61282e565b34801561071457600080fd5b50610797610723366004615082565b61016360205260009081526040902080546001820154600283015460038401546004850154600586015460068701546007880154600889015460098a0154600a909a015498996001600160a01b03988916999789169896979596949593949092169290919060ff808216916101009004168c565b60405161024b9c9b9a999897969594939291906157b2565b3480156107bb57600080fd5b506107c4612853565b60405161024b9190615836565b3480156107dd57600080fd5b506102b96107ec366004615403565b6128e2565b3480156107fd57600080fd5b506106af61080c3660046151a7565b61016460209081526000928352604080842090915290825290208054600182015460028301546003840154600485015460059095015493946001600160a01b039384169492939091169186565b34801561086557600080fd5b50610162546103829067ffffffffffffffff1681565b34801561088757600080fd5b50610280610896366004615849565b63f23a6e6160e01b95945050505050565b3480156108b357600080fd5b5061038261271081565b60006001600160e01b03198216630271189760e51b14806108ee57506001600160e01b03198216630a85bd0160e11b145b806108fd57506108fd826129b7565b92915050565b600061090e816129dc565b6127108211156109555760405162461bcd60e51b815260206004820152600d60248201526c313839901e1e9018981818181760991b60448201526064015b60405180910390fd5b61016180546001600160e01b031916600160a01b67ffffffffffffffff8516026001600160a01b031916176001600160a01b0385169081179091556040518381527fe2497bd806ec41a6e0dd992c29a72efc0ef8fec9092d1978fd4a1e00b2f183049060200160405180910390a2505050565b61015f80549060019060006109dd83856158c8565b90915550600090506109ed6129f0565b905060006109fe84600001516129ff565b90506000610a10828660800151612b47565b905060008111610a4d5760405162461bcd60e51b81526020600482015260086024820152675155414e5449545960c01b604482015260640161094c565b600080527f0bf587d4e74e99cde8c6e4c054a5635772877ff68dbace54cfa272aabdba99186020527f2e5a8a6546a6579ddcdee1c230e851e90e02911b1edbb4e6bce29e62ce9ef8cf5460ff1680610acc5750610acc7ff94103142c1baabe9ac2b5d1487bf783de9e69cfeea9a72f5c9c94afd7877b8c6104ad6129f0565b610b025760405162461bcd60e51b815260206004820152600760248201526610a624a9aa22a960c91b604482015260640161094c565b600080527feecdd96d2384df3dcc3b798a06e1b5425b0048600906bcf4c21166279a6e5cdb6020527f4be4ab7155dfb840c7e9b0c93044a57446f8382ea3b9bde86d10b5704d906e775460ff1680610b92575084516001600160a01b031660009081527feecdd96d2384df3dcc3b798a06e1b5425b0048600906bcf4c21166279a6e5cdb602052604090205460ff165b610bc75760405162461bcd60e51b8152602060048201526006602482015265085054d4d15560d21b604482015260640161094c565b604085015142811015610c1657610e10610be182426158e0565b10610c135760405162461bcd60e51b815260206004820152600260248201526114d560f21b604482015260640161094c565b50425b610c2b84876000015188602001518587612b7e565b6000604051806101800160405280878152602001866001600160a01b0316815260200188600001516001600160a01b0316815260200188602001518152602001838152602001886060015184610c8191906158c8565b81526020018481526020018860a001516001600160a01b031681526020018860c0015181526020018860e001518152602001856001811115610cc557610cc5615771565b81526020018861010001516001811115610ce157610ce1615771565b9052600087815261016360209081526040918290208351815590830151600180830180546001600160a01b03199081166001600160a01b0394851617909155938501516002840180548616918416919091179055606085015160038401556080850151600484015560a0850151600584015560c0850151600684015560e085015160078401805490951692169190911790925561010083015160088201556101208301516009820155610140830151600a82018054949550859492939192909160ff19909116908381811115610db957610db9615771565b0217905550610160820151600a8201805461ff001916610100836001811115610de457610de4615771565b021790555060019150610df49050565b8161016001516001811115610e0b57610e0b615771565b1415610e61578061010001518161012001511015610e555760405162461bcd60e51b81526020600482015260076024820152665245534552564560c81b604482015260640161094c565b610e6185308584612e5a565b846001600160a01b031687600001516001600160a01b0316877f0c5bc74ccdf848b38eb526a154b85085e1d61addf1d100cba2074e039c0b634084604051610ea991906158f7565b60405180910390a450505050505050565b600082815260fb6020526040902060010154610ed5816129dc565b610edf8383612fb0565b505050565b610eec6129f0565b6001600160a01b0316816001600160a01b031614610f725760405162461bcd60e51b815260206004820152602f60248201527f416363657373436f6e74726f6c3a2063616e206f6e6c792072656e6f756e636560448201527f20726f6c657320666f722073656c660000000000000000000000000000000000606482015260840161094c565b610f7c8282612fd3565b5050565b60026001541415610fd35760405162461bcd60e51b815260206004820152601f60248201527f5265656e7472616e637947756172643a207265656e7472616e742063616c6c00604482015260640161094c565b60026001819055600086815261016360205260409020015485906001600160a01b03166110285760405162461bcd60e51b8152602060048201526003602482015262444e4560e81b604482015260640161094c565b600086815261016360209081526040808320815161018081018352815481526001808301546001600160a01b039081169583019590955260028301548516938201939093526003820154606082015260048201546080820152600582015460a0820152600682015460c0820152600782015490931660e084015260088101546101008401526009810154610120840152600a810154909161014084019160ff16908111156110d8576110d8615771565b60018111156110e9576110e9615771565b8152602001600a820160019054906101000a900460ff16600181111561111157611111615771565b600181111561112257611122615771565b815250509050428160a0015111801561113e5750428160800151105b61118a5760405162461bcd60e51b815260206004820152601160248201527f696e616374697665206c697374696e672e000000000000000000000000000000604482015260640161094c565b60006040518060c001604052808981526020016111a56129f0565b6001600160a01b039081168252602082018a905288166040820152606081018790526080018590529050600182610160015160018111156111e8576111e8615771565b1415611288578160e001516001600160a01b031681606001516001600160a01b0316146112615760405162461bcd60e51b815260206004820152602160248201527f6d7573742075736520617070726f7665642063757272656e637920746f2062696044820152601960fa1b606482015260840161094c565b6112748261014001518360c00151612b47565b60408201526112838282612ff6565b61136e565b600082610160015160018111156112a1576112a1615771565b141561136e5734156112f55760405162461bcd60e51b815260206004820152600f60248201527f6e6f2076616c7565206e65656465640000000000000000000000000000000000604482015260640161094c565b6001600160a01b03861673eeeeeeeeeeeeeeeeeeeeeeeeeeeeeeeeeeeeeeee1461131f5785611341565b7f00000000000000000000000000000000000000000000000000000000000000005b6001600160a01b0316606082015261014082015161135f9088612b47565b604082015261136e82826133f3565b505060018055505050505050565b600260015414156113cf5760405162461bcd60e51b815260206004820152601f60248201527f5265656e7472616e637947756172643a207265656e7472616e742063616c6c00604482015260640161094c565b60026001819055600083815261016360205260409020015482906001600160a01b03166114245760405162461bcd60e51b8152602060048201526003602482015262444e4560e81b604482015260640161094c565b600083815261016360209081526040808320815161018081018352815481526001808301546001600160a01b039081169583019590955260028301548516938201939093526003820154606082015260048201546080820152600582015460a0820152600682015460c0820152600782015490931660e084015260088101546101008401526009810154610120840152600a810154909161014084019160ff16908111156114d4576114d4615771565b60018111156114e5576114e5615771565b8152602001600a820160019054906101000a900460ff16600181111561150d5761150d615771565b600181111561151e5761151e615771565b90525090506001816101600151600181111561153c5761153c615771565b146115895760405162461bcd60e51b815260206004820152600f60248201527f6e6f7420616e2061756374696f6e2e0000000000000000000000000000000000604482015260640161094c565b600084815261016560209081526040808320815160c0810183528154815260018201546001600160a01b039081169482019490945260028201549281019290925260038101549092166060820152600482015460808083019190915260059092015460a08201529083015190919042108061160f575060208201516001600160a01b0316155b905080156116255761162083613593565b6116da565b428360a001511061168a5760405162461bcd60e51b815260206004820152602960248201527f63616e6e6f7420636c6f73652061756374696f6e206265666f7265206974206860448201526830b99032b73232b21760b91b606482015260840161094c565b82602001516001600160a01b0316856001600160a01b031614156116b2576116b283836136ff565b81602001516001600160a01b0316856001600160a01b031614156116da576116da8383613924565b50506001805550505050565b806116ef6129f0565b600082815261016360205260409020600101546001600160a01b039081169116146117455760405162461bcd60e51b815260206004820152600660248201526510a7aba722a960d11b604482015260640161094c565b600082815261016360209081526040808320815161018081018352815481526001808301546001600160a01b039081169583019590955260028301548516938201939093526003820154606082015260048201546080820152600582015460a0820152600682015460c0820152600782015490931660e084015260088101546101008401526009810154610120840152600a810154909161014084019160ff16908111156117f5576117f5615771565b600181111561180657611806615771565b8152602001600a820160019054906101000a900460ff16600181111561182e5761182e615771565b600181111561183f5761183f615771565b90525090506000816101600151600181111561185d5761185d615771565b146118945760405162461bcd60e51b8152602060048201526007602482015266085112549150d560ca1b604482015260640161094c565b6000838152610163602090815260408083208381556001810180546001600160a01b0319908116909155600282018054821690556003820185905560048201859055600582018590556006820185905560078201805490911690556008810184905560098101849055600a01805461ffff191690559083015190516001600160a01b039091169185917f58b0852506006c4be6c7ae72afcd195d9e64d7f5d8947905e914b778e47b7cf39190a3505050565b600260015414156119995760405162461bcd60e51b815260206004820152601f60248201527f5265656e7472616e637947756172643a207265656e7472616e742063616c6c00604482015260640161094c565b60026001819055600086815261016360205260409020015485906001600160a01b03166119ee5760405162461bcd60e51b8152602060048201526003602482015262444e4560e81b604482015260640161094c565b600086815261016360209081526040808320815161018081018352815481526001808301546001600160a01b039081169583019590955260028301548516938201939093526003820154606082015260048201546080820152600582015460a0820152600682015460c0820152600782015490931660e084015260088101546101008401526009810154610120840152600a810154909161014084019160ff1690811115611a9e57611a9e615771565b6001811115611aaf57611aaf615771565b8152602001600a820160019054906101000a900460ff166001811115611ad757611ad7615771565b6001811115611ae857611ae8615771565b90525090506000611af76129f0565b90508160e001516001600160a01b0316856001600160a01b0316148015611b2d575085826101200151611b2a91906159c0565b84145b611b625760405162461bcd60e51b815260206004820152600660248201526521505249434560d01b604482015260640161094c565b61136e8282898560e001518a876101200151611b7e91906159c0565b8b613aa5565b600054610100900460ff1615808015611ba45750600054600160ff909116105b80611bbe5750303b158015611bbe575060005460ff166001145b611c215760405162461bcd60e51b815260206004820152602e60248201527f496e697469616c697a61626c653a20636f6e747261637420697320616c72656160448201526d191e481a5b9a5d1a585b1a5e995960921b606482015260840161094c565b6000805460ff191660011790558015611c44576000805461ff0019166101001790555b611c4c613c44565b611c5584613c75565b61016280546fffffffffffffffffffffffffffffffff19166901f400000000000003841790558451611c8f90610160906020880190614e43565b5061016180546001600160e01b031916600160a01b67ffffffffffffffff8516026001600160a01b031916176001600160a01b038516179055611cd3600087613cad565b611cfe7ff94103142c1baabe9ac2b5d1487bf783de9e69cfeea9a72f5c9c94afd7877b8c6000613cad565b611d297f86d5cf0a6bdc8d859ba3bdc97043337c82a0e609035f378e419298b6a3e00ae66000613cad565b8015611d6f576000805461ff0019169055604051600181527f7f26b83ff96e1f2b6a682f133852f6798a09c465da95921460cefb38474024989060200160405180910390a15b505050505050565b600082815261012d60205260408120611d909083613cb7565b9392505050565b6000611da2816129dc565b611daf6101608484614ec7565b50505050565b60608167ffffffffffffffff811115611dd057611dd061509b565b604051908082528060200260200182016040528015611e0357816020015b6060815260200190600190039081611dee5790505b50905060005b82811015611ea357611e7330858584818110611e2757611e276159df565b9050602002810190611e3991906159f5565b8080601f016020809104026020016040519081016040528093929190818152602001838380828437600092019190915250613cc392505050565b828281518110611e8557611e856159df565b60200260200101819052508080611e9b90615a3c565b915050611e09565b5092915050565b60026001541415611efd5760405162461bcd60e51b815260206004820152601f60248201527f5265656e7472616e637947756172643a207265656e7472616e742063616c6c00604482015260640161094c565b600260015583611f0b6129f0565b600082815261016360205260409020600101546001600160a01b03908116911614611f615760405162461bcd60e51b815260206004820152600660248201526510a7aba722a960d11b604482015260640161094c565b6000858152610163602052604090206002015485906001600160a01b0316611fb15760405162461bcd60e51b8152602060048201526003602482015262444e4560e81b604482015260640161094c565b600061016460008881526020019081526020016000206000876001600160a01b03166001600160a01b031681526020019081526020016000206040518060c0016040529081600082015481526020016001820160009054906101000a90046001600160a01b03166001600160a01b03166001600160a01b03168152602001600282015481526020016003820160009054906101000a90046001600160a01b03166001600160a01b03166001600160a01b031681526020016004820154815260200160058201548152505090506000610163600089815260200190815260200160002060405180610180016040529081600082015481526020016001820160009054906101000a90046001600160a01b03166001600160a01b03166001600160a01b031681526020016002820160009054906101000a90046001600160a01b03166001600160a01b03166001600160a01b03168152602001600382015481526020016004820154815260200160058201548152602001600682015481526020016007820160009054906101000a90046001600160a01b03166001600160a01b03166001600160a01b031681526020016008820154815260200160098201548152602001600a820160009054906101000a900460ff16600181111561219657612196615771565b60018111156121a7576121a7615771565b8152602001600a820160019054906101000a900460ff1660018111156121cf576121cf615771565b60018111156121e0576121e0615771565b81525050905081606001516001600160a01b0316866001600160a01b031614801561220e5750816080015185145b6122435760405162461bcd60e51b815260206004820152600660248201526521505249434560d01b604482015260640161094c565b428260a00151116122805760405162461bcd60e51b81526020600482015260076024820152661156141254915160ca1b604482015260640161094c565b6000888152610164602090815260408083206001600160a01b038b1684529091528082208281556001810180546001600160a01b03199081169091556002820184905560038201805490911690556004810183905560050191909155606083015190830151608084015161136e9284928b928392916122fe916159c0565b8760400151613aa5565b866123116129f0565b600082815261016360205260409020600101546001600160a01b039081169116146123675760405162461bcd60e51b815260206004820152600660248201526510a7aba722a960d11b604482015260640161094c565b600088815261016360209081526040808320815161018081018352815481526001808301546001600160a01b039081169583019590955260028301548516938201939093526003820154606082015260048201546080820152600582015460a0820152600682015460c0820152600782015490931660e084015260088101546101008401526009810154610120840152600a810154909161014084019160ff169081111561241757612417615771565b600181111561242857612428615771565b8152602001600a820160019054906101000a900460ff16600181111561245057612450615771565b600181111561246157612461615771565b81525050905060006124788261014001518a612b47565b905060006001836101600151600181111561249557612495615771565b149050816124d05760405162461bcd60e51b81526020600482015260086024820152675155414e5449545960c01b604482015260640161094c565b801561254d57826080015142106125135760405162461bcd60e51b815260206004820152600760248201526614d5105495115160ca1b604482015260640161094c565b8888101561254d5760405162461bcd60e51b81526020600482015260076024820152665245534552564560c81b604482015260640161094c565b4286101561259857610e1061256287426158e0565b106125945760405162461bcd60e51b815260206004820152600260248201526114d560f21b604482015260640161094c565b4295505b600086156125a657866125ac565b83608001515b90506040518061018001604052808d81526020016125c86129f0565b6001600160a01b0316815260200185604001516001600160a01b0316815260200185606001518152602001828152602001876000146126105761260b88846158c8565b612616565b8560a001515b8152602001848152602001896001600160a01b031681526020018b81526020018a8152602001856101400151600181111561265357612653615771565b8152602001856101600151600181111561266f5761266f615771565b905260008d815261016360209081526040918290208351815590830151600180830180546001600160a01b03199081166001600160a01b0394851617909155938501516002840180548616918416919091179055606085015160038401556080850151600484015560a0850151600584015560c0850151600684015560e085015160078401805490951692169190911790925561010083015160088201556101208301516009820155610140830151600a8201805492939192909160ff1990911690838181111561274257612742615771565b0217905550610160820151600a8201805461ff00191661010083600181111561276d5761276d615771565b0217905550505060c084015183146127cd578115612799576127993085602001518660c0015187612e5a565b6127b784602001518560400151866060015186886101400151612b7e565b81156127cd576127cd8460200151308587612e5a565b83602001516001600160a01b03168c7fbbea26162edf2bc6a0255bf144ec4dd044302a301ef7d32daa835a2ddacfdef060405160405180910390a3505050505050505050505050565b600081815261012d602052604081206108fd90613db7565b600082815260fb6020526040902060010154612849816129dc565b610edf8383612fd3565b610160805461286190615a57565b80601f016020809104026020016040519081016040528092919081815260200182805461288d90615a57565b80156128da5780601f106128af576101008083540402835291602001916128da565b820191906000526020600020905b8154815290600101906020018083116128bd57829003601f168201915b505050505081565b60006128ed816129dc565b612710821061292d5760405162461bcd60e51b815260206004820152600c60248201526b34b73b30b634b2102128299760a11b604482015260640161094c565b610162805467ffffffffffffffff848116600160401b026fffffffffffffffffffffffffffffffff19909216908616171790556040517f441ed6470e96704c3f8c9e70c209107078aab3f17311385e886081b91aa750889061299b9085908590918252602082015260400190565b60405180910390a1505050565b6001600160a01b03163b151590565b60006001600160e01b03198216635a05180f60e01b14806108fd57506108fd82613dc1565b6129ed816129e86129f0565b613df6565b50565b60006129fa613e76565b905090565b6040516301ffc9a760e01b8152636cdb3d1360e11b60048201526000906001600160a01b038316906301ffc9a790602401602060405180830381865afa158015612a4d573d6000803e3d6000fd5b505050506040513d601f19601f82011682018060405250810190612a719190615a92565b15612a7e57506000919050565b6040516301ffc9a760e01b81526380ac58cd60e01b60048201526001600160a01b038316906301ffc9a790602401602060405180830381865afa158015612ac9573d6000803e3d6000fd5b505050506040513d601f19601f82011682018060405250810190612aed9190615a92565b15612afa57506001919050565b60405162461bcd60e51b815260206004820181905260248201527f746f6b656e206d7573742062652045524331313535206f72204552433732312e604482015260640161094c565b919050565b600081612b56575060006108fd565b6001836001811115612b6a57612b6a615771565b14612b755781611d90565b50600192915050565b30600080836001811115612b9457612b94615771565b1415612c8e57604051627eeac760e11b81526001600160a01b0388811660048301526024820187905285919088169062fdd58e90604401602060405180830381865afa158015612be8573d6000803e3d6000fd5b505050506040513d601f19601f82011682018060405250810190612c0c9190615ab4565b10158015612c87575060405163e985e9c560e01b81526001600160a01b038881166004830152838116602483015287169063e985e9c590604401602060405180830381865afa158015612c63573d6000803e3d6000fd5b505050506040513d601f19601f82011682018060405250810190612c879190615a92565b9050612e1a565b6001836001811115612ca257612ca2615771565b1415612e1a576040516331a9108f60e11b8152600481018690526001600160a01b038089169190881690636352211e90602401602060405180830381865afa158015612cf2573d6000803e3d6000fd5b505050506040513d601f19601f82011682018060405250810190612d169190615acd565b6001600160a01b0316148015612e17575060405163020604bf60e21b8152600481018690526001600160a01b03808416919088169063081812fc90602401602060405180830381865afa158015612d71573d6000803e3d6000fd5b505050506040513d601f19601f82011682018060405250810190612d959190615acd565b6001600160a01b03161480612e17575060405163e985e9c560e01b81526001600160a01b038881166004830152838116602483015287169063e985e9c590604401602060405180830381865afa158015612df3573d6000803e3d6000fd5b505050506040513d601f19601f82011682018060405250810190612e179190615a92565b90505b80612e515760405162461bcd60e51b81526020600482015260076024820152660850905313919560ca1b604482015260640161094c565b50505050505050565b60008161014001516001811115612e7357612e73615771565b1415612f085760408082015160608301519151637921219560e11b81526001600160a01b038781166004830152868116602483015260448201939093526064810185905260a06084820152600060a482015291169063f242432a9060c401600060405180830381600087803b158015612eeb57600080fd5b505af1158015612eff573d6000803e3d6000fd5b50505050611daf565b60018161014001516001811115612f2157612f21615771565b1415611daf5760408082015160608301519151635c46a7ef60e11b81526001600160a01b03878116600483015286811660248301526044820193909352608060648201526000608482015291169063b88d4fde9060a401600060405180830381600087803b158015612f9257600080fd5b505af1158015612fa6573d6000803e3d6000fd5b5050505050505050565b612fba8282613ea0565b600082815261012d60205260409020610edf9082613f43565b612fdd8282613f58565b600082815261012d60205260409020610edf9082613ff9565b8151600090815261016560209081526040808320815160c0810183528154815260018201546001600160a01b039081169482019490945260028201549281018390526003820154909316606084015260048101546080840181905260059091015460a084015291929161306991906159c0565b905060008360400151846080015161308191906159c0565b6101208601519091507f000000000000000000000000000000000000000000000000000000000000000090158015906130ce57508560c001518661012001516130ca91906159c0565b8210155b156130e2576130dd8686613924565b61330d565b6131018660c001518761010001516130fa91906159c0565b848461400e565b61314d5760405162461bcd60e51b815260206004820152601060248201527f6e6f742077696e6e696e67206269642e00000000000000000000000000000000604482015260640161094c565b85516000908152610165602090815260409182902087518155908701516001820180546001600160a01b03199081166001600160a01b039384161790915592880151600283015560608801516003830180549094169116179091556080860151600482015560a080870151600590920191909155610162549087015167ffffffffffffffff909116906131e19042906158e0565b1161330d576101625460a08701805167ffffffffffffffff909216916132089083906158c8565b9052508551600090815261016360209081526040918290208851815590880151600180830180546001600160a01b03199081166001600160a01b0394851617909155938a0151600284018054861691841691909117905560608a0151600384015560808a0151600484015560a08a0151600584015560c08a0151600684015560e08a015160078401805490951692169190911790925561010088015160088201556101208801516009820155610140880151600a820180548a9460ff199091169083818111156132da576132da615771565b0217905550610160820151600a8201805461ff00191661010083600181111561330557613305615771565b021790555050505b60208401516001600160a01b0316158015906133295750600083115b15613343576133438660e00151308660200151868561406b565b6133588660e00151866020015130858561406b565b856101600151600181111561336f5761336f615771565b85602001516001600160a01b031687600001517f8a412352601a288b3de40254a9de2ab14a497aa3638a7e558480680a56e2705d886040015189604001518a608001516133bc91906159c0565b6060808c01516040805194855260208501939093526001600160a01b031691830191909152015b60405180910390a4505050505050565b8160c0015181604001511115801561340f575060008260c00151115b61345b5760405162461bcd60e51b815260206004820152601f60248201527f696e73756666696369656e7420746f6b656e7320696e206c697374696e672e00604482015260640161094c565b613481816020015182606001518360400151846080015161347c91906159c0565b6141ec565b815160009081526101646020908152604080832082850180516001600160a01b0390811686529190935292819020845181559151600180840180549286166001600160a01b03199384161790559185015160028401556060850151600384018054919095169116179092556080830151600482015560a08301516005909101556101608301519081111561351757613517615771565b81602001516001600160a01b031683600001517f8a412352601a288b3de40254a9de2ab14a497aa3638a7e558480680a56e2705d84604001518560400151866080015161356491906159c0565b6060878101516040805194855260208501939093526001600160a01b0316838301529051918290030190a45050565b61359b6129f0565b8151600090815261016360205260409020600101546001600160a01b039081169116146136155760405162461bcd60e51b815260206004820152602260248201527f63616c6c6572206973206e6f7420746865206c697374696e672063726561746f604482015261391760f11b606482015260840161094c565b805160009081526101636020908152604082208281556001810180546001600160a01b031990811690915560028201805482169055600382018490556004820184905560058201849055600682018490556007820180549091169055600881018390556009810192909255600a909101805461ffff1916905581015160c08201516136a291309184612e5a565b60016136ac6129f0565b8251602080850151604080516001600160a01b0392831681526000938101939093529316927f572cdc5ca5e918473319d0f4737494e4709ac879a7d0bcd11ce1bef24b24e81d910160405180910390a450565b60008260c00151826080015161371591906159c0565b600060c085018181524260a087019081528651835261016360209081526040938490208851815590880151600180830180546001600160a01b039384166001600160a01b031991821617909155958a015160028401805491841691881691909117905560608a0151600384015560808a01516004840155925160058301559251600682015560e08801516007820180549190941694169390931790915561010086015160088301556101208601516009830155610140860151600a8301805494955087949192909160ff19169083818111156137f3576137f3615771565b0217905550610160820151600a8201805461ff00191661010083600181111561381e5761381e615771565b02179055505060006080840181815285518252610165602090815260409283902086518155818701516001820180546001600160a01b03199081166001600160a01b039384161790915594880151600283015560608801516003830180549096169116179093559051600483015560a085015160059092019190915584015160e08501516138b19250309190848761430d565b60006138bb6129f0565b6001600160a01b031684600001517f572cdc5ca5e918473319d0f4737494e4709ac879a7d0bcd11ce1bef24b24e81d866020015186602001516040516139179291906001600160a01b0392831681529116602082015260400190565b60405180910390a4505050565b604081810180514260a086810191825260008085528751815261016560209081528682208851815581890151600180830180546001600160a01b03199081166001600160a01b039485161790915598516002808501919091556060808d0151600380870180548e16928716929092179091556080808f0151600480890191909155998f01516005978801558f5189526101638852978d90208f518155968f015187850180548e169187169190911790559b8e015191860180548c16928516929092179091558c015199840199909955928a01519382019390935592519183019190915560c0870151600683015560e087015160078301805490951691161790925561010085015160088301556101208501516009830155610140850151600a83018054929487949360ff1916908381811115613a6257613a62615771565b0217905550610160820151600a8201805461ff001916610100836001811115613a8d57613a8d615771565b02179055509050506138b13083602001518386612e5a565b613ab286868386866144b8565b808660c001818151613ac491906158e0565b9052508551600090815261016360209081526040918290208851815590880151600180830180546001600160a01b03199081166001600160a01b0394851617909155938a0151600284018054861691841691909117905560608a0151600384015560808a0151600484015560a08a0151600584015560c08a0151600684015560e08a015160078401805490951692169190911790925561010088015160088201556101208801516009820155610140880151600a820180548a9460ff19909116908381811115613b9657613b96615771565b0217905550610160820151600a8201805461ff001916610100836001811115613bc157613bc1615771565b0217905550905050613bda85876020015185858a61430d565b613bea8660200151858389612e5a565b602080870151604080890151895182516001600160a01b038a81168252958101879052928301879052928416931691907f306e6cde5eb293794d557a3a6c844de939e6206b05e6910451c512852bf654a5906060016133e3565b600054610100900460ff16613c6b5760405162461bcd60e51b815260040161094c90615aea565b613c73614692565b565b600054610100900460ff16613c9c5760405162461bcd60e51b815260040161094c90615aea565b613ca46146bf565b6129ed816146e6565b610f7c8282612fb0565b6000611d908383614775565b60606001600160a01b0383163b613d2b5760405162461bcd60e51b815260206004820152602660248201527f416464726573733a2064656c65676174652063616c6c20746f206e6f6e2d636f6044820152651b9d1c9858dd60d21b606482015260840161094c565b600080846001600160a01b031684604051613d469190615b35565b600060405180830381855af49150503d8060008114613d81576040519150601f19603f3d011682016040523d82523d6000602084013e613d86565b606091505b5091509150613dae8282604051806060016040528060278152602001615c506027913961479f565b95945050505050565b60006108fd825490565b60006001600160e01b03198216637965db0b60e01b14806108fd57506301ffc9a760e01b6001600160e01b03198316146108fd565b600082815260fb602090815260408083206001600160a01b038516845290915290205460ff16610f7c57613e34816001600160a01b031660146147d8565b613e3f8360206147d8565b604051602001613e50929190615b51565b60408051601f198184030181529082905262461bcd60e51b825261094c91600401615836565b3360009081526065602052604081205460ff1615613e9b575060131936013560601c90565b503390565b600082815260fb602090815260408083206001600160a01b038516845290915290205460ff16610f7c57600082815260fb602090815260408083206001600160a01b03851684529091529020805460ff19166001179055613eff6129f0565b6001600160a01b0316816001600160a01b0316837f2f8788117e7eff1d82e926ec794901d17c78024a50270940304540a733656f0d60405160405180910390a45050565b6000611d90836001600160a01b038416614981565b600082815260fb602090815260408083206001600160a01b038516845290915290205460ff1615610f7c57600082815260fb602090815260408083206001600160a01b03851684529091529020805460ff19169055613fb56129f0565b6001600160a01b0316816001600160a01b0316837ff6391f5c32d9c69d2a47ea670b442974b53935d1edc7fd64eb21e047a839171b60405160405180910390a45050565b6000611d90836001600160a01b0384166149d0565b60008261401f575082811015611d90565b8282118015614063575061016254600160401b900467ffffffffffffffff168361271061404c82866158e0565b61405691906159c0565b6140609190615bd2565b10155b949350505050565b81614075576141e5565b6001600160a01b03851673eeeeeeeeeeeeeeeeeeeeeeeeeeeeeeeeeeeeeeee14156141d9576001600160a01b03841630141561411557604051632e1a7d4d60e01b8152600481018390526001600160a01b03821690632e1a7d4d90602401600060405180830381600087803b1580156140ed57600080fd5b505af1158015614101573d6000803e3d6000fd5b50505050614110838383614ac3565b6141e5565b6001600160a01b0383163014156141ce573482146141755760405162461bcd60e51b815260206004820152601360248201527f6d73672e76616c756520213d20616d6f756e7400000000000000000000000000604482015260640161094c565b806001600160a01b031663d0e30db0836040518263ffffffff1660e01b81526004016000604051808303818588803b1580156141b057600080fd5b505af11580156141c4573d6000803e3d6000fd5b50505050506141e5565b614110838383614ac3565b6141e585858585614b88565b5050505050565b6040516370a0823160e01b81526001600160a01b0384811660048301528291908416906370a0823190602401602060405180830381865afa158015614235573d6000803e3d6000fd5b505050506040513d601f19601f820116820180604052508101906142599190615ab4565b101580156142d85750604051636eb1769f60e11b81526001600160a01b03848116600483015230602483015282919084169063dd62ed3e90604401602060405180830381865afa1580156142b1573d6000803e3d6000fd5b505050506040513d601f19601f820116820180604052508101906142d59190615ab4565b10155b610edf5760405162461bcd60e51b815260206004820152600660248201526502142414c32360d41b604482015260640161094c565b610161546000906127109061433390600160a01b900467ffffffffffffffff16856159c0565b61433d9190615bd2565b905060008083604001516001600160a01b0316632a55205a8560600151876040518363ffffffff1660e01b8152600401614381929190918252602082015260400190565b6040805180830381865afa9250505080156143b9575060408051601f3d908101601f191682019092526143b691810190615bf4565b60015b6143c257614442565b6001600160a01b038216158015906143da5750600081115b1561443f57866143ea86836158c8565b11156144385760405162461bcd60e51b815260206004820152601560248201527f6665657320657863656564207468652070726963650000000000000000000000604482015260640161094c565b8192508093505b50505b610161547f0000000000000000000000000000000000000000000000000000000000000000906144809088908b906001600160a01b0316878561406b565b61448d878a84868561406b565b6144ad878a8a61449d87896158c8565b6144a7908b6158e0565b8561406b565b505050505050505050565b600085610160015160018111156144d1576144d1615771565b1461451e5760405162461bcd60e51b815260206004820152601860248201527f63616e6e6f74206275792066726f6d206c697374696e672e0000000000000000604482015260640161094c565b60008560c001511180156145325750600083115b801561454257508460c001518311155b61458e5760405162461bcd60e51b815260206004820152601960248201527f696e76616c696420616d6f756e74206f6620746f6b656e732e00000000000000604482015260640161094c565b8460a00151421080156145a45750846080015142115b6145f05760405162461bcd60e51b815260206004820152601760248201527f6e6f742077697468696e2073616c652077696e646f772e000000000000000000604482015260640161094c565b6001600160a01b03821673eeeeeeeeeeeeeeeeeeeeeeeeeeeeeeeeeeeeeeee1415614669578034146146645760405162461bcd60e51b815260206004820152601260248201527f6d73672e76616c756520213d2070726963650000000000000000000000000000604482015260640161094c565b614674565b6146748483836141ec565b6141e585602001518660400151876060015186896101400151612b7e565b600054610100900460ff166146b95760405162461bcd60e51b815260040161094c90615aea565b60018055565b600054610100900460ff16613c735760405162461bcd60e51b815260040161094c90615aea565b600054610100900460ff1661470d5760405162461bcd60e51b815260040161094c90615aea565b60005b8151811015610f7c57600160656000848481518110614731576147316159df565b6020908102919091018101516001600160a01b03168252810191909152604001600020805460ff19169115159190911790558061476d81615a3c565b915050614710565b600082600001828154811061478c5761478c6159df565b9060005260206000200154905092915050565b606083156147ae575081611d90565b8251156147be5782518084602001fd5b8160405162461bcd60e51b815260040161094c9190615836565b606060006147e78360026159c0565b6147f29060026158c8565b67ffffffffffffffff81111561480a5761480a61509b565b6040519080825280601f01601f191660200182016040528015614834576020820181803683370190505b509050600360fc1b8160008151811061484f5761484f6159df565b60200101906001600160f81b031916908160001a905350600f60fb1b8160018151811061487e5761487e6159df565b60200101906001600160f81b031916908160001a90535060006148a28460026159c0565b6148ad9060016158c8565b90505b6001811115614932577f303132333435363738396162636465660000000000000000000000000000000085600f16601081106148ee576148ee6159df565b1a60f81b828281518110614904576149046159df565b60200101906001600160f81b031916908160001a90535060049490941c9361492b81615c22565b90506148b0565b508315611d905760405162461bcd60e51b815260206004820181905260248201527f537472696e67733a20686578206c656e67746820696e73756666696369656e74604482015260640161094c565b60008181526001830160205260408120546149c8575081546001818101845560008481526020808220909301849055845484825282860190935260409020919091556108fd565b5060006108fd565b60008181526001830160205260408120548015614ab95760006149f46001836158e0565b8554909150600090614a08906001906158e0565b9050818114614a6d576000866000018281548110614a2857614a286159df565b9060005260206000200154905080876000018481548110614a4b57614a4b6159df565b6000918252602080832090910192909255918252600188019052604090208390555b8554869080614a7e57614a7e615c39565b6001900381819060005260206000200160009055905585600101600086815260200190815260200160002060009055600193505050506108fd565b60009150506108fd565b6000836001600160a01b03168360405160006040518083038185875af1925050503d8060008114614b10576040519150601f19603f3d011682016040523d82523d6000602084013e614b15565b606091505b5050905080611daf57816001600160a01b031663d0e30db0846040518263ffffffff1660e01b81526004016000604051808303818588803b158015614b5957600080fd5b505af1158015614b6d573d6000803e3d6000fd5b50611daf935050506001600160a01b03841690508585614be6565b816001600160a01b0316836001600160a01b03161415614ba757611daf565b6001600160a01b038316301415614bd157614bcc6001600160a01b0385168383614be6565b611daf565b611daf6001600160a01b038516848484614c5e565b6040516001600160a01b038316602482015260448101829052610edf90849063a9059cbb60e01b906064015b60408051601f198184030181529190526020810180517bffffffffffffffffffffffffffffffffffffffffffffffffffffffff166001600160e01b031990931692909217909152614c96565b6040516001600160a01b0380851660248301528316604482015260648101829052611daf9085906323b872dd60e01b90608401614c12565b6000614ceb826040518060400160405280602081526020017f5361666545524332303a206c6f772d6c6576656c2063616c6c206661696c6564815250856001600160a01b0316614d689092919063ffffffff16565b805190915015610edf5780806020019051810190614d099190615a92565b610edf5760405162461bcd60e51b815260206004820152602a60248201527f5361666545524332303a204552433230206f7065726174696f6e20646964206e6044820152691bdd081cdd58d8d9595960b21b606482015260840161094c565b60606140638484600085856001600160a01b0385163b614dca5760405162461bcd60e51b815260206004820152601d60248201527f416464726573733a2063616c6c20746f206e6f6e2d636f6e7472616374000000604482015260640161094c565b600080866001600160a01b03168587604051614de69190615b35565b60006040518083038185875af1925050503d8060008114614e23576040519150601f19603f3d011682016040523d82523d6000602084013e614e28565b606091505b5091509150614e3882828661479f565b979650505050505050565b828054614e4f90615a57565b90600052602060002090601f016020900481019282614e715760008555614eb7565b82601f10614e8a57805160ff1916838001178555614eb7565b82800160010185558215614eb7579182015b82811115614eb7578251825591602001919060010190614e9c565b50614ec3929150614f3b565b5090565b828054614ed390615a57565b90600052602060002090601f016020900481019282614ef55760008555614eb7565b82601f10614f0e5782800160ff19823516178555614eb7565b82800160010185558215614eb7579182015b82811115614eb7578235825591602001919060010190614f20565b5b80821115614ec35760008155600101614f3c565b600060208284031215614f6257600080fd5b81356001600160e01b031981168114611d9057600080fd5b6001600160a01b03811681146129ed57600080fd5b8035612b4281614f7a565b60008083601f840112614fac57600080fd5b50813567ffffffffffffffff811115614fc457600080fd5b602083019150836020828501011115614fdc57600080fd5b9250929050565b600080600080600060808688031215614ffb57600080fd5b853561500681614f7a565b9450602086013561501681614f7a565b935060408601359250606086013567ffffffffffffffff81111561503957600080fd5b61504588828901614f9a565b969995985093965092949392505050565b6000806040838503121561506957600080fd5b823561507481614f7a565b946020939093013593505050565b60006020828403121561509457600080fd5b5035919050565b634e487b7160e01b600052604160045260246000fd5b604051610120810167ffffffffffffffff811182821017156150d5576150d561509b565b60405290565b604051601f8201601f1916810167ffffffffffffffff811182821017156151045761510461509b565b604052919050565b803560028110612b4257600080fd5b6000610120828403121561512e57600080fd5b6151366150b1565b61513f83614f8f565b81526020830135602082015260408301356040820152606083013560608201526080830135608082015261517560a08401614f8f565b60a082015260c083013560c082015260e083013560e082015261010061519c81850161510c565b908201529392505050565b600080604083850312156151ba57600080fd5b8235915060208301356151cc81614f7a565b809150509250929050565b6000602082840312156151e957600080fd5b8135611d9081614f7a565b600080600080600060a0868803121561520c57600080fd5b8535945060208601359350604086013561522581614f7a565b94979396509394606081013594506080013592915050565b600080600080600060a0868803121561525557600080fd5b85359450602086013561526781614f7a565b935060408601359250606086013561527e81614f7a565b949793965091946080013592915050565b600067ffffffffffffffff8311156152a9576152a961509b565b6152bc601f8401601f19166020016150db565b90508281528383830111156152d057600080fd5b828260208301376000602084830101529392505050565b600067ffffffffffffffff8211156153015761530161509b565b5060051b60200190565b600080600080600060a0868803121561532357600080fd5b853561532e81614f7a565b945060208681013567ffffffffffffffff8082111561534c57600080fd5b818901915089601f83011261536057600080fd5b61536e8a833585850161528f565b9650604089013591508082111561538457600080fd5b508701601f8101891361539657600080fd5b80356153a96153a4826152e7565b6150db565b81815260059190911b8201830190838101908b8311156153c857600080fd5b928401925b828410156153ef5783356153e081614f7a565b825292840192908401906153cd565b809750505050505061527e60608701614f8f565b6000806040838503121561541657600080fd5b50508035926020909101359150565b6000806020838503121561543857600080fd5b823567ffffffffffffffff81111561544f57600080fd5b61545b85828601614f9a565b90969095509350505050565b6000806020838503121561547a57600080fd5b823567ffffffffffffffff8082111561549257600080fd5b818501915085601f8301126154a657600080fd5b8135818111156154b557600080fd5b8660208260051b85010111156154ca57600080fd5b60209290920196919550909350505050565b60005b838110156154f75781810151838201526020016154df565b83811115611daf5750506000910152565b600081518084526155208160208601602086016154dc565b601f01601f19169290920160200192915050565b6000602080830181845280855180835260408601915060408160051b870101925083870160005b8281101561558957603f19888603018452615577858351615508565b9450928501929085019060010161555b565b5092979650505050505050565b600080600080608085870312156155ac57600080fd5b8435935060208501356155be81614f7a565b925060408501356155ce81614f7a565b9396929550929360600135925050565b600082601f8301126155ef57600080fd5b813560206155ff6153a4836152e7565b82815260059290921b8401810191818101908684111561561e57600080fd5b8286015b848110156156395780358352918301918301615622565b509695505050505050565b600082601f83011261565557600080fd5b611d908383356020850161528f565b600080600080600060a0868803121561567c57600080fd5b853561568781614f7a565b9450602086013561569781614f7a565b9350604086013567ffffffffffffffff808211156156b457600080fd5b6156c089838a016155de565b945060608801359150808211156156d657600080fd5b6156e289838a016155de565b935060808801359150808211156156f857600080fd5b5061570588828901615644565b9150509295509295909350565b600080600080600080600060e0888a03121561572d57600080fd5b87359650602088013595506040880135945060608801359350608088013561575481614f7a565b9699959850939692959460a0840135945060c09093013592915050565b634e487b7160e01b600052602160045260246000fd5b600281106129ed57634e487b7160e01b600052602160045260246000fd5b6157ae81615787565b9052565b6000610180820190508d82526001600160a01b03808e166020840152808d1660408401528b60608401528a60808401528960a08401528860c084015280881660e084015250856101008301528461012083015261580e84615787565b8361014083015261581e83615787565b826101608301529d9c50505050505050505050505050565b602081526000611d906020830184615508565b600080600080600060a0868803121561586157600080fd5b853561586c81614f7a565b9450602086013561587c81614f7a565b93506040860135925060608601359150608086013567ffffffffffffffff8111156158a657600080fd5b61570588828901615644565b634e487b7160e01b600052601160045260246000fd5b600082198211156158db576158db6158b2565b500190565b6000828210156158f2576158f26158b2565b500390565b8151815260208083015161018083019161591b908401826001600160a01b03169052565b50604083015161593660408401826001600160a01b03169052565b50606083015160608301526080830151608083015260a083015160a083015260c083015160c083015260e083015161597960e08401826001600160a01b03169052565b5061010083810151908301526101208084015190830152610140808401516159a3828501826157a5565b5050610160808401516159b8828501826157a5565b505092915050565b60008160001904831182151516156159da576159da6158b2565b500290565b634e487b7160e01b600052603260045260246000fd5b6000808335601e19843603018112615a0c57600080fd5b83018035915067ffffffffffffffff821115615a2757600080fd5b602001915036819003821315614fdc57600080fd5b6000600019821415615a5057615a506158b2565b5060010190565b600181811c90821680615a6b57607f821691505b60208210811415615a8c57634e487b7160e01b600052602260045260246000fd5b50919050565b600060208284031215615aa457600080fd5b81518015158114611d9057600080fd5b600060208284031215615ac657600080fd5b5051919050565b600060208284031215615adf57600080fd5b8151611d9081614f7a565b6020808252602b908201527f496e697469616c697a61626c653a20636f6e7472616374206973206e6f74206960408201526a6e697469616c697a696e6760a81b606082015260800190565b60008251615b478184602087016154dc565b9190910192915050565b7f416363657373436f6e74726f6c3a206163636f756e7420000000000000000000815260008351615b898160178501602088016154dc565b7f206973206d697373696e6720726f6c65200000000000000000000000000000006017918401918201528351615bc68160288401602088016154dc565b01602801949350505050565b600082615bef57634e487b7160e01b600052601260045260246000fd5b500490565b60008060408385031215615c0757600080fd5b8251615c1281614f7a565b6020939093015192949293505050565b600081615c3157615c316158b2565b506000190190565b634e487b7160e01b600052603160045260246000fdfe416464726573733a206c6f772d6c6576656c2064656c65676174652063616c6c206661696c6564a26469706673582212209e2cd1fa6027b9b78db70548dc7791afc8965e7a8658806092a6682f243f868f64736f6c634300080c0033",
  "linkReferences": {},
  "deployedLinkReferences": {}
}