{
  "_format": "hh-sol-artifact-1",
  "contractName": "Pack",
  "sourceName": "contracts/pack/Pack.sol",
  "abi": [
    {
      "inputs": [
        {
          "internalType": "address",
          "name": "_nativeTokenWrapper",
          "type": "address"
        },
        {
          "internalType": "address",
          "name": "_trustedForwarder",
          "type": "address"
        }
      ],
      "stateMutability": "nonpayable",
      "type": "constructor"
    },
    {
      "anonymous": false,
      "inputs": [
        {
          "indexed": true,
          "internalType": "address",
          "name": "account",
          "type": "address"
        },
        {
          "indexed": true,
          "internalType": "address",
          "name": "operator",
          "type": "address"
        },
        {
          "indexed": false,
          "internalType": "bool",
          "name": "approved",
          "type": "bool"
        }
      ],
      "name": "ApprovalForAll",
      "type": "event"
    },
    {
      "anonymous": false,
      "inputs": [
        {
          "indexed": false,
          "internalType": "string",
          "name": "prevURI",
          "type": "string"
        },
        {
          "indexed": false,
          "internalType": "string",
          "name": "newURI",
          "type": "string"
        }
      ],
      "name": "ContractURIUpdated",
      "type": "event"
    },
    {
      "anonymous": false,
      "inputs": [
        {
          "indexed": true,
          "internalType": "address",
          "name": "newRoyaltyRecipient",
          "type": "address"
        },
        {
          "indexed": false,
          "internalType": "uint256",
          "name": "newRoyaltyBps",
          "type": "uint256"
        }
      ],
      "name": "DefaultRoyalty",
      "type": "event"
    },
    {
      "anonymous": false,
      "inputs": [
        {
          "indexed": false,
          "internalType": "uint8",
          "name": "version",
          "type": "uint8"
        }
      ],
      "name": "Initialized",
      "type": "event"
    },
    {
      "anonymous": false,
      "inputs": [
        {
          "indexed": true,
          "internalType": "address",
          "name": "prevOwner",
          "type": "address"
        },
        {
          "indexed": true,
          "internalType": "address",
          "name": "newOwner",
          "type": "address"
        }
      ],
      "name": "OwnerUpdated",
      "type": "event"
    },
    {
      "anonymous": false,
      "inputs": [
        {
          "indexed": true,
          "internalType": "uint256",
          "name": "packId",
          "type": "uint256"
        },
        {
          "indexed": false,
          "internalType": "address",
          "name": "recipient",
          "type": "address"
        },
        {
          "indexed": false,
          "internalType": "uint256",
          "name": "totalPacksCreated",
          "type": "uint256"
        }
      ],
      "name": "PackCreated",
      "type": "event"
    },
    {
      "anonymous": false,
      "inputs": [
        {
          "indexed": true,
          "internalType": "uint256",
          "name": "packId",
          "type": "uint256"
        },
        {
          "indexed": true,
          "internalType": "address",
          "name": "opener",
          "type": "address"
        },
        {
          "indexed": false,
          "internalType": "uint256",
          "name": "numOfPacksOpened",
          "type": "uint256"
        },
        {
          "components": [
            {
              "internalType": "address",
              "name": "assetContract",
              "type": "address"
            },
            {
              "internalType": "enum ITokenBundle.TokenType",
              "name": "tokenType",
              "type": "uint8"
            },
            {
              "internalType": "uint256",
              "name": "tokenId",
              "type": "uint256"
            },
            {
              "internalType": "uint256",
              "name": "totalAmount",
              "type": "uint256"
            }
          ],
          "indexed": false,
          "internalType": "struct ITokenBundle.Token[]",
          "name": "rewardUnitsDistributed",
          "type": "tuple[]"
        }
      ],
      "name": "PackOpened",
      "type": "event"
    },
    {
      "anonymous": false,
      "inputs": [
        {
          "indexed": true,
          "internalType": "uint256",
          "name": "packId",
          "type": "uint256"
        },
        {
          "indexed": false,
          "internalType": "address",
          "name": "recipient",
          "type": "address"
        },
        {
          "indexed": false,
          "internalType": "uint256",
          "name": "totalPacksCreated",
          "type": "uint256"
        }
      ],
      "name": "PackUpdated",
      "type": "event"
    },
    {
      "anonymous": false,
      "inputs": [
        {
          "indexed": true,
          "internalType": "bytes32",
          "name": "role",
          "type": "bytes32"
        },
        {
          "indexed": true,
          "internalType": "bytes32",
          "name": "previousAdminRole",
          "type": "bytes32"
        },
        {
          "indexed": true,
          "internalType": "bytes32",
          "name": "newAdminRole",
          "type": "bytes32"
        }
      ],
      "name": "RoleAdminChanged",
      "type": "event"
    },
    {
      "anonymous": false,
      "inputs": [
        {
          "indexed": true,
          "internalType": "bytes32",
          "name": "role",
          "type": "bytes32"
        },
        {
          "indexed": true,
          "internalType": "address",
          "name": "account",
          "type": "address"
        },
        {
          "indexed": true,
          "internalType": "address",
          "name": "sender",
          "type": "address"
        }
      ],
      "name": "RoleGranted",
      "type": "event"
    },
    {
      "anonymous": false,
      "inputs": [
        {
          "indexed": true,
          "internalType": "bytes32",
          "name": "role",
          "type": "bytes32"
        },
        {
          "indexed": true,
          "internalType": "address",
          "name": "account",
          "type": "address"
        },
        {
          "indexed": true,
          "internalType": "address",
          "name": "sender",
          "type": "address"
        }
      ],
      "name": "RoleRevoked",
      "type": "event"
    },
    {
      "anonymous": false,
      "inputs": [
        {
          "indexed": true,
          "internalType": "uint256",
          "name": "tokenId",
          "type": "uint256"
        },
        {
          "indexed": true,
          "internalType": "address",
          "name": "royaltyRecipient",
          "type": "address"
        },
        {
          "indexed": false,
          "internalType": "uint256",
          "name": "royaltyBps",
          "type": "uint256"
        }
      ],
      "name": "RoyaltyForToken",
      "type": "event"
    },
    {
      "anonymous": false,
      "inputs": [
        {
          "indexed": true,
          "internalType": "address",
          "name": "operator",
          "type": "address"
        },
        {
          "indexed": true,
          "internalType": "address",
          "name": "from",
          "type": "address"
        },
        {
          "indexed": true,
          "internalType": "address",
          "name": "to",
          "type": "address"
        },
        {
          "indexed": false,
          "internalType": "uint256[]",
          "name": "ids",
          "type": "uint256[]"
        },
        {
          "indexed": false,
          "internalType": "uint256[]",
          "name": "values",
          "type": "uint256[]"
        }
      ],
      "name": "TransferBatch",
      "type": "event"
    },
    {
      "anonymous": false,
      "inputs": [
        {
          "indexed": true,
          "internalType": "address",
          "name": "operator",
          "type": "address"
        },
        {
          "indexed": true,
          "internalType": "address",
          "name": "from",
          "type": "address"
        },
        {
          "indexed": true,
          "internalType": "address",
          "name": "to",
          "type": "address"
        },
        {
          "indexed": false,
          "internalType": "uint256",
          "name": "id",
          "type": "uint256"
        },
        {
          "indexed": false,
          "internalType": "uint256",
          "name": "value",
          "type": "uint256"
        }
      ],
      "name": "TransferSingle",
      "type": "event"
    },
    {
      "anonymous": false,
      "inputs": [
        {
          "indexed": false,
          "internalType": "string",
          "name": "value",
          "type": "string"
        },
        {
          "indexed": true,
          "internalType": "uint256",
          "name": "id",
          "type": "uint256"
        }
      ],
      "name": "URI",
      "type": "event"
    },
    {
      "inputs": [],
      "name": "DEFAULT_ADMIN_ROLE",
      "outputs": [
        {
          "internalType": "bytes32",
          "name": "",
          "type": "bytes32"
        }
      ],
      "stateMutability": "view",
      "type": "function"
    },
    {
      "inputs": [
        {
          "internalType": "uint256",
          "name": "_packId",
          "type": "uint256"
        },
        {
          "components": [
            {
              "internalType": "address",
              "name": "assetContract",
              "type": "address"
            },
            {
              "internalType": "enum ITokenBundle.TokenType",
              "name": "tokenType",
              "type": "uint8"
            },
            {
              "internalType": "uint256",
              "name": "tokenId",
              "type": "uint256"
            },
            {
              "internalType": "uint256",
              "name": "totalAmount",
              "type": "uint256"
            }
          ],
          "internalType": "struct ITokenBundle.Token[]",
          "name": "_contents",
          "type": "tuple[]"
        },
        {
          "internalType": "uint256[]",
          "name": "_numOfRewardUnits",
          "type": "uint256[]"
        },
        {
          "internalType": "address",
          "name": "_recipient",
          "type": "address"
        }
      ],
      "name": "addPackContents",
      "outputs": [
        {
          "internalType": "uint256",
          "name": "packTotalSupply",
          "type": "uint256"
        },
        {
          "internalType": "uint256",
          "name": "newSupplyAdded",
          "type": "uint256"
        }
      ],
      "stateMutability": "payable",
      "type": "function"
    },
    {
      "inputs": [
        {
          "internalType": "address",
          "name": "account",
          "type": "address"
        },
        {
          "internalType": "uint256",
          "name": "id",
          "type": "uint256"
        }
      ],
      "name": "balanceOf",
      "outputs": [
        {
          "internalType": "uint256",
          "name": "",
          "type": "uint256"
        }
      ],
      "stateMutability": "view",
      "type": "function"
    },
    {
      "inputs": [
        {
          "internalType": "address[]",
          "name": "accounts",
          "type": "address[]"
        },
        {
          "internalType": "uint256[]",
          "name": "ids",
          "type": "uint256[]"
        }
      ],
      "name": "balanceOfBatch",
      "outputs": [
        {
          "internalType": "uint256[]",
          "name": "",
          "type": "uint256[]"
        }
      ],
      "stateMutability": "view",
      "type": "function"
    },
    {
      "inputs": [
        {
          "internalType": "uint256",
          "name": "",
          "type": "uint256"
        }
      ],
      "name": "canUpdatePack",
      "outputs": [
        {
          "internalType": "bool",
          "name": "",
          "type": "bool"
        }
      ],
      "stateMutability": "view",
      "type": "function"
    },
    {
      "inputs": [],
      "name": "contractType",
      "outputs": [
        {
          "internalType": "bytes32",
          "name": "",
          "type": "bytes32"
        }
      ],
      "stateMutability": "pure",
      "type": "function"
    },
    {
      "inputs": [],
      "name": "contractURI",
      "outputs": [
        {
          "internalType": "string",
          "name": "",
          "type": "string"
        }
      ],
      "stateMutability": "view",
      "type": "function"
    },
    {
      "inputs": [],
      "name": "contractVersion",
      "outputs": [
        {
          "internalType": "uint8",
          "name": "",
          "type": "uint8"
        }
      ],
      "stateMutability": "pure",
      "type": "function"
    },
    {
      "inputs": [
        {
          "components": [
            {
              "internalType": "address",
              "name": "assetContract",
              "type": "address"
            },
            {
              "internalType": "enum ITokenBundle.TokenType",
              "name": "tokenType",
              "type": "uint8"
            },
            {
              "internalType": "uint256",
              "name": "tokenId",
              "type": "uint256"
            },
            {
              "internalType": "uint256",
              "name": "totalAmount",
              "type": "uint256"
            }
          ],
          "internalType": "struct ITokenBundle.Token[]",
          "name": "_contents",
          "type": "tuple[]"
        },
        {
          "internalType": "uint256[]",
          "name": "_numOfRewardUnits",
          "type": "uint256[]"
        },
        {
          "internalType": "string",
          "name": "_packUri",
          "type": "string"
        },
        {
          "internalType": "uint128",
          "name": "_openStartTimestamp",
          "type": "uint128"
        },
        {
          "internalType": "uint128",
          "name": "_amountDistributedPerOpen",
          "type": "uint128"
        },
        {
          "internalType": "address",
          "name": "_recipient",
          "type": "address"
        }
      ],
      "name": "createPack",
      "outputs": [
        {
          "internalType": "uint256",
          "name": "packId",
          "type": "uint256"
        },
        {
          "internalType": "uint256",
          "name": "packTotalSupply",
          "type": "uint256"
        }
      ],
      "stateMutability": "payable",
      "type": "function"
    },
    {
      "inputs": [],
      "name": "getDefaultRoyaltyInfo",
      "outputs": [
        {
          "internalType": "address",
          "name": "",
          "type": "address"
        },
        {
          "internalType": "uint16",
          "name": "",
          "type": "uint16"
        }
      ],
      "stateMutability": "view",
      "type": "function"
    },
    {
      "inputs": [
        {
          "internalType": "uint256",
          "name": "_packId",
          "type": "uint256"
        }
      ],
      "name": "getPackContents",
      "outputs": [
        {
          "components": [
            {
              "internalType": "address",
              "name": "assetContract",
              "type": "address"
            },
            {
              "internalType": "enum ITokenBundle.TokenType",
              "name": "tokenType",
              "type": "uint8"
            },
            {
              "internalType": "uint256",
              "name": "tokenId",
              "type": "uint256"
            },
            {
              "internalType": "uint256",
              "name": "totalAmount",
              "type": "uint256"
            }
          ],
          "internalType": "struct ITokenBundle.Token[]",
          "name": "contents",
          "type": "tuple[]"
        },
        {
          "internalType": "uint256[]",
          "name": "perUnitAmounts",
          "type": "uint256[]"
        }
      ],
      "stateMutability": "view",
      "type": "function"
    },
    {
      "inputs": [
        {
          "internalType": "bytes32",
          "name": "role",
          "type": "bytes32"
        }
      ],
      "name": "getRoleAdmin",
      "outputs": [
        {
          "internalType": "bytes32",
          "name": "",
          "type": "bytes32"
        }
      ],
      "stateMutability": "view",
      "type": "function"
    },
    {
      "inputs": [
        {
          "internalType": "bytes32",
          "name": "role",
          "type": "bytes32"
        },
        {
          "internalType": "uint256",
          "name": "index",
          "type": "uint256"
        }
      ],
      "name": "getRoleMember",
      "outputs": [
        {
          "internalType": "address",
          "name": "member",
          "type": "address"
        }
      ],
      "stateMutability": "view",
      "type": "function"
    },
    {
      "inputs": [
        {
          "internalType": "bytes32",
          "name": "role",
          "type": "bytes32"
        }
      ],
      "name": "getRoleMemberCount",
      "outputs": [
        {
          "internalType": "uint256",
          "name": "count",
          "type": "uint256"
        }
      ],
      "stateMutability": "view",
      "type": "function"
    },
    {
      "inputs": [
        {
          "internalType": "uint256",
          "name": "_tokenId",
          "type": "uint256"
        }
      ],
      "name": "getRoyaltyInfoForToken",
      "outputs": [
        {
          "internalType": "address",
          "name": "",
          "type": "address"
        },
        {
          "internalType": "uint16",
          "name": "",
          "type": "uint16"
        }
      ],
      "stateMutability": "view",
      "type": "function"
    },
    {
      "inputs": [
        {
          "internalType": "uint256",
          "name": "_bundleId",
          "type": "uint256"
        }
      ],
      "name": "getTokenCountOfBundle",
      "outputs": [
        {
          "internalType": "uint256",
          "name": "",
          "type": "uint256"
        }
      ],
      "stateMutability": "view",
      "type": "function"
    },
    {
      "inputs": [
        {
          "internalType": "uint256",
          "name": "_bundleId",
          "type": "uint256"
        },
        {
          "internalType": "uint256",
          "name": "index",
          "type": "uint256"
        }
      ],
      "name": "getTokenOfBundle",
      "outputs": [
        {
          "components": [
            {
              "internalType": "address",
              "name": "assetContract",
              "type": "address"
            },
            {
              "internalType": "enum ITokenBundle.TokenType",
              "name": "tokenType",
              "type": "uint8"
            },
            {
              "internalType": "uint256",
              "name": "tokenId",
              "type": "uint256"
            },
            {
              "internalType": "uint256",
              "name": "totalAmount",
              "type": "uint256"
            }
          ],
          "internalType": "struct ITokenBundle.Token",
          "name": "",
          "type": "tuple"
        }
      ],
      "stateMutability": "view",
      "type": "function"
    },
    {
      "inputs": [
        {
          "internalType": "uint256",
          "name": "_bundleId",
          "type": "uint256"
        }
      ],
      "name": "getUriOfBundle",
      "outputs": [
        {
          "internalType": "string",
          "name": "",
          "type": "string"
        }
      ],
      "stateMutability": "view",
      "type": "function"
    },
    {
      "inputs": [
        {
          "internalType": "bytes32",
          "name": "role",
          "type": "bytes32"
        },
        {
          "internalType": "address",
          "name": "account",
          "type": "address"
        }
      ],
      "name": "grantRole",
      "outputs": [],
      "stateMutability": "nonpayable",
      "type": "function"
    },
    {
      "inputs": [
        {
          "internalType": "bytes32",
          "name": "role",
          "type": "bytes32"
        },
        {
          "internalType": "address",
          "name": "account",
          "type": "address"
        }
      ],
      "name": "hasRole",
      "outputs": [
        {
          "internalType": "bool",
          "name": "",
          "type": "bool"
        }
      ],
      "stateMutability": "view",
      "type": "function"
    },
    {
      "inputs": [
        {
          "internalType": "bytes32",
          "name": "role",
          "type": "bytes32"
        },
        {
          "internalType": "address",
          "name": "account",
          "type": "address"
        }
      ],
      "name": "hasRoleWithSwitch",
      "outputs": [
        {
          "internalType": "bool",
          "name": "",
          "type": "bool"
        }
      ],
      "stateMutability": "view",
      "type": "function"
    },
    {
      "inputs": [
        {
          "internalType": "address",
          "name": "_defaultAdmin",
          "type": "address"
        },
        {
          "internalType": "string",
          "name": "_name",
          "type": "string"
        },
        {
          "internalType": "string",
          "name": "_symbol",
          "type": "string"
        },
        {
          "internalType": "string",
          "name": "_contractURI",
          "type": "string"
        },
        {
          "internalType": "address[]",
          "name": "_trustedForwarders",
          "type": "address[]"
        },
        {
          "internalType": "address",
          "name": "_royaltyRecipient",
          "type": "address"
        },
        {
          "internalType": "uint256",
          "name": "_royaltyBps",
          "type": "uint256"
        }
      ],
      "name": "initialize",
      "outputs": [],
      "stateMutability": "nonpayable",
      "type": "function"
    },
    {
      "inputs": [
        {
          "internalType": "address",
          "name": "account",
          "type": "address"
        },
        {
          "internalType": "address",
          "name": "operator",
          "type": "address"
        }
      ],
      "name": "isApprovedForAll",
      "outputs": [
        {
          "internalType": "bool",
          "name": "",
          "type": "bool"
        }
      ],
      "stateMutability": "view",
      "type": "function"
    },
    {
      "inputs": [
        {
          "internalType": "address",
          "name": "forwarder",
          "type": "address"
        }
      ],
      "name": "isTrustedForwarder",
      "outputs": [
        {
          "internalType": "bool",
          "name": "",
          "type": "bool"
        }
      ],
      "stateMutability": "view",
      "type": "function"
    },
    {
      "inputs": [
        {
          "internalType": "bytes[]",
          "name": "data",
          "type": "bytes[]"
        }
      ],
      "name": "multicall",
      "outputs": [
        {
          "internalType": "bytes[]",
          "name": "results",
          "type": "bytes[]"
        }
      ],
      "stateMutability": "nonpayable",
      "type": "function"
    },
    {
      "inputs": [],
      "name": "name",
      "outputs": [
        {
          "internalType": "string",
          "name": "",
          "type": "string"
        }
      ],
      "stateMutability": "view",
      "type": "function"
    },
    {
      "inputs": [],
      "name": "nextTokenIdToMint",
      "outputs": [
        {
          "internalType": "uint256",
          "name": "",
          "type": "uint256"
        }
      ],
      "stateMutability": "view",
      "type": "function"
    },
    {
      "inputs": [
        {
          "internalType": "address",
          "name": "",
          "type": "address"
        },
        {
          "internalType": "address",
          "name": "",
          "type": "address"
        },
        {
          "internalType": "uint256[]",
          "name": "",
          "type": "uint256[]"
        },
        {
          "internalType": "uint256[]",
          "name": "",
          "type": "uint256[]"
        },
        {
          "internalType": "bytes",
          "name": "",
          "type": "bytes"
        }
      ],
      "name": "onERC1155BatchReceived",
      "outputs": [
        {
          "internalType": "bytes4",
          "name": "",
          "type": "bytes4"
        }
      ],
      "stateMutability": "nonpayable",
      "type": "function"
    },
    {
      "inputs": [
        {
          "internalType": "address",
          "name": "",
          "type": "address"
        },
        {
          "internalType": "address",
          "name": "",
          "type": "address"
        },
        {
          "internalType": "uint256",
          "name": "",
          "type": "uint256"
        },
        {
          "internalType": "uint256",
          "name": "",
          "type": "uint256"
        },
        {
          "internalType": "bytes",
          "name": "",
          "type": "bytes"
        }
      ],
      "name": "onERC1155Received",
      "outputs": [
        {
          "internalType": "bytes4",
          "name": "",
          "type": "bytes4"
        }
      ],
      "stateMutability": "nonpayable",
      "type": "function"
    },
    {
      "inputs": [
        {
          "internalType": "address",
          "name": "",
          "type": "address"
        },
        {
          "internalType": "address",
          "name": "",
          "type": "address"
        },
        {
          "internalType": "uint256",
          "name": "",
          "type": "uint256"
        },
        {
          "internalType": "bytes",
          "name": "",
          "type": "bytes"
        }
      ],
      "name": "onERC721Received",
      "outputs": [
        {
          "internalType": "bytes4",
          "name": "",
          "type": "bytes4"
        }
      ],
      "stateMutability": "nonpayable",
      "type": "function"
    },
    {
      "inputs": [
        {
          "internalType": "uint256",
          "name": "_packId",
          "type": "uint256"
        },
        {
          "internalType": "uint256",
          "name": "_amountToOpen",
          "type": "uint256"
        }
      ],
      "name": "openPack",
      "outputs": [
        {
          "components": [
            {
              "internalType": "address",
              "name": "assetContract",
              "type": "address"
            },
            {
              "internalType": "enum ITokenBundle.TokenType",
              "name": "tokenType",
              "type": "uint8"
            },
            {
              "internalType": "uint256",
              "name": "tokenId",
              "type": "uint256"
            },
            {
              "internalType": "uint256",
              "name": "totalAmount",
              "type": "uint256"
            }
          ],
          "internalType": "struct ITokenBundle.Token[]",
          "name": "",
          "type": "tuple[]"
        }
      ],
      "stateMutability": "nonpayable",
      "type": "function"
    },
    {
      "inputs": [],
      "name": "owner",
      "outputs": [
        {
          "internalType": "address",
          "name": "",
          "type": "address"
        }
      ],
      "stateMutability": "view",
      "type": "function"
    },
    {
      "inputs": [
        {
          "internalType": "bytes32",
          "name": "role",
          "type": "bytes32"
        },
        {
          "internalType": "address",
          "name": "account",
          "type": "address"
        }
      ],
      "name": "renounceRole",
      "outputs": [],
      "stateMutability": "nonpayable",
      "type": "function"
    },
    {
      "inputs": [
        {
          "internalType": "bytes32",
          "name": "role",
          "type": "bytes32"
        },
        {
          "internalType": "address",
          "name": "account",
          "type": "address"
        }
      ],
      "name": "revokeRole",
      "outputs": [],
      "stateMutability": "nonpayable",
      "type": "function"
    },
    {
      "inputs": [
        {
          "internalType": "uint256",
          "name": "tokenId",
          "type": "uint256"
        },
        {
          "internalType": "uint256",
          "name": "salePrice",
          "type": "uint256"
        }
      ],
      "name": "royaltyInfo",
      "outputs": [
        {
          "internalType": "address",
          "name": "receiver",
          "type": "address"
        },
        {
          "internalType": "uint256",
          "name": "royaltyAmount",
          "type": "uint256"
        }
      ],
      "stateMutability": "view",
      "type": "function"
    },
    {
      "inputs": [
        {
          "internalType": "address",
          "name": "from",
          "type": "address"
        },
        {
          "internalType": "address",
          "name": "to",
          "type": "address"
        },
        {
          "internalType": "uint256[]",
          "name": "ids",
          "type": "uint256[]"
        },
        {
          "internalType": "uint256[]",
          "name": "amounts",
          "type": "uint256[]"
        },
        {
          "internalType": "bytes",
          "name": "data",
          "type": "bytes"
        }
      ],
      "name": "safeBatchTransferFrom",
      "outputs": [],
      "stateMutability": "nonpayable",
      "type": "function"
    },
    {
      "inputs": [
        {
          "internalType": "address",
          "name": "from",
          "type": "address"
        },
        {
          "internalType": "address",
          "name": "to",
          "type": "address"
        },
        {
          "internalType": "uint256",
          "name": "id",
          "type": "uint256"
        },
        {
          "internalType": "uint256",
          "name": "amount",
          "type": "uint256"
        },
        {
          "internalType": "bytes",
          "name": "data",
          "type": "bytes"
        }
      ],
      "name": "safeTransferFrom",
      "outputs": [],
      "stateMutability": "nonpayable",
      "type": "function"
    },
    {
      "inputs": [
        {
          "internalType": "address",
          "name": "operator",
          "type": "address"
        },
        {
          "internalType": "bool",
          "name": "approved",
          "type": "bool"
        }
      ],
      "name": "setApprovalForAll",
      "outputs": [],
      "stateMutability": "nonpayable",
      "type": "function"
    },
    {
      "inputs": [
        {
          "internalType": "string",
          "name": "_uri",
          "type": "string"
        }
      ],
      "name": "setContractURI",
      "outputs": [],
      "stateMutability": "nonpayable",
      "type": "function"
    },
    {
      "inputs": [
        {
          "internalType": "address",
          "name": "_royaltyRecipient",
          "type": "address"
        },
        {
          "internalType": "uint256",
          "name": "_royaltyBps",
          "type": "uint256"
        }
      ],
      "name": "setDefaultRoyaltyInfo",
      "outputs": [],
      "stateMutability": "nonpayable",
      "type": "function"
    },
    {
      "inputs": [
        {
          "internalType": "address",
          "name": "_newOwner",
          "type": "address"
        }
      ],
      "name": "setOwner",
      "outputs": [],
      "stateMutability": "nonpayable",
      "type": "function"
    },
    {
      "inputs": [
        {
          "internalType": "uint256",
          "name": "_tokenId",
          "type": "uint256"
        },
        {
          "internalType": "address",
          "name": "_recipient",
          "type": "address"
        },
        {
          "internalType": "uint256",
          "name": "_bps",
          "type": "uint256"
        }
      ],
      "name": "setRoyaltyInfoForToken",
      "outputs": [],
      "stateMutability": "nonpayable",
      "type": "function"
    },
    {
      "inputs": [
        {
          "internalType": "bytes4",
          "name": "interfaceId",
          "type": "bytes4"
        }
      ],
      "name": "supportsInterface",
      "outputs": [
        {
          "internalType": "bool",
          "name": "",
          "type": "bool"
        }
      ],
      "stateMutability": "view",
      "type": "function"
    },
    {
      "inputs": [],
      "name": "symbol",
      "outputs": [
        {
          "internalType": "string",
          "name": "",
          "type": "string"
        }
      ],
      "stateMutability": "view",
      "type": "function"
    },
    {
      "inputs": [
        {
          "internalType": "uint256",
          "name": "",
          "type": "uint256"
        }
      ],
      "name": "totalSupply",
      "outputs": [
        {
          "internalType": "uint256",
          "name": "",
          "type": "uint256"
        }
      ],
      "stateMutability": "view",
      "type": "function"
    },
    {
      "inputs": [
        {
          "internalType": "uint256",
          "name": "_tokenId",
          "type": "uint256"
        }
      ],
      "name": "uri",
      "outputs": [
        {
          "internalType": "string",
          "name": "",
          "type": "string"
        }
      ],
      "stateMutability": "view",
      "type": "function"
    },
    {
      "stateMutability": "payable",
      "type": "receive"
    }
  ],
  "bytecode": "0x60c06040523480156200001157600080fd5b50604051620061d3380380620061d38339810160408190526200003491620001a7565b6001600160a01b038216608052600054610100900460ff1615808015620000625750600054600160ff909116105b806200009257506200007f306200017b60201b620021741760201c565b15801562000092575060005460ff166001145b620000fa5760405162461bcd60e51b815260206004820152602e60248201527f496e697469616c697a61626c653a20636f6e747261637420697320616c72656160448201526d191e481a5b9a5d1a585b1a5e995960921b606482015260840160405180910390fd5b6000805460ff1916600117905580156200011e576000805461ff0019166101001790555b6001600160a01b03821660a052801562000172576000805461ff0019169055604051600181527f7f26b83ff96e1f2b6a682f133852f6798a09c465da95921460cefb38474024989060200160405180910390a15b505050620001df565b6001600160a01b03163b151590565b80516001600160a01b0381168114620001a257600080fd5b919050565b60008060408385031215620001bb57600080fd5b620001c6836200018a565b9150620001d6602084016200018a565b90509250929050565b60805160a051615fc76200020c60003960006115820152600081816102f001526143980152615fc76000f3fe6080604052600436106102e05760003560e01c8063914e126a1161017f578063b0381b08116100e1578063d0d2fe251161008a578063e985e9c511610064578063e985e9c5146109fd578063f23a6e6114610a47578063f242432a14610a7357600080fd5b8063d0d2fe251461099b578063d547741f146109c8578063e8a3d485146109e857600080fd5b8063bd85b039116100bb578063bd85b03914610933578063ca15c87314610961578063cb2ef6f71461098157600080fd5b8063b0381b08146108ab578063b24f2d39146108dc578063bc197c811461090757600080fd5b8063a0a8e46011610143578063a32fa5b31161011d578063a32fa5b31461084b578063a96b14381461086b578063ac9650d81461087e57600080fd5b8063a0a8e460146107fa578063a217fddf14610816578063a22cb4651461082b57600080fd5b8063914e126a1461073257806391d148541461075f578063938e3d7b146107a557806395d89b41146107c55780639bcf7a15146107da57600080fd5b80632f2ff15d11610243578063600dd5ea116101ec5780638d4c446a116101c65780638d4c446a146106b25780638da5cb5b146106e05780639010d07c1461071257600080fd5b8063600dd5ea1461065257806361195e9414610672578063754b8fe71461069257600080fd5b80634cc157df1161021d5780634cc157df146105aa5780634e1273f4146105ec578063572b6c051461061957600080fd5b80632f2ff15d1461055357806336568abe146105735780633b1475a71461059357600080fd5b806313af4035116102a5578063248a9ca31161027f578063248a9ca3146104c75780632a55205a146104f45780632eb2c2d61461053357600080fd5b806313af403514610436578063150b7a02146104565780631da799c91461049a57600080fd5b8062fdd58e1461036957806301ffc9a71461039c57806306fdde03146103cc578063092e6075146103ee5780630e89341c1461041657600080fd5b3661036457336001600160a01b037f000000000000000000000000000000000000000000000000000000000000000016146103625760405162461bcd60e51b815260206004820152601460248201527f216e6174697665546f6b656e577261707065722e00000000000000000000000060448201526064015b60405180910390fd5b005b600080fd5b34801561037557600080fd5b50610389610384366004614fba565b610a93565b6040519081526020015b60405180910390f35b3480156103a857600080fd5b506103bc6103b7366004614ffc565b610b2a565b6040519015158152602001610393565b3480156103d857600080fd5b506103e1610b88565b6040516103939190615071565b6104016103fc3660046151e3565b610c17565b60408051928352602083019190915201610393565b34801561042257600080fd5b506103e16104313660046152ac565b610e2d565b34801561044257600080fd5b506103626104513660046152c5565b610e38565b34801561046257600080fd5b506104816104713660046152e2565b630a85bd0160e11b949350505050565b6040516001600160e01b03199091168152602001610393565b3480156104a657600080fd5b506104ba6104b536600461534e565b610e89565b60405161039391906153d0565b3480156104d357600080fd5b506103896104e23660046152ac565b60009081526007602052604090205490565b34801561050057600080fd5b5061051461050f36600461534e565b610f3c565b604080516001600160a01b039093168352602083019190915201610393565b34801561053f57600080fd5b5061036261054e366004615473565b610f79565b34801561055f57600080fd5b5061036261056e366004615521565b61101f565b34801561057f57600080fd5b5061036261058e366004615521565b6110b9565b34801561059f57600080fd5b5061038961013a5481565b3480156105b657600080fd5b506105ca6105c53660046152ac565b61111b565b604080516001600160a01b03909316835261ffff909116602083015201610393565b3480156105f857600080fd5b5061060c6106073660046155c0565b611186565b604051610393919061565f565b34801561062557600080fd5b506103bc6106343660046152c5565b6001600160a01b03166000908152606d602052604090205460ff1690565b34801561065e57600080fd5b5061036261066d366004614fba565b6112b0565b34801561067e57600080fd5b506103e161068d3660046152ac565b6112ff565b34801561069e57600080fd5b506103626106ad366004615672565b6113a4565b3480156106be57600080fd5b506106d26106cd3660046152ac565b6116c1565b604051610393929190615784565b3480156106ec57600080fd5b506002546001600160a01b03165b6040516001600160a01b039091168152602001610393565b34801561071e57600080fd5b506106fa61072d36600461534e565b611880565b34801561073e57600080fd5b5061075261074d36600461534e565b611981565b60405161039391906157a9565b34801561076b57600080fd5b506103bc61077a366004615521565b60009182526006602090815260408084206001600160a01b0393909316845291905290205460ff1690565b3480156107b157600080fd5b506103626107c03660046157bc565b611b87565b3480156107d157600080fd5b506103e1611bd5565b3480156107e657600080fd5b506103626107f53660046157f1565b611be3565b34801561080657600080fd5b5060405160028152602001610393565b34801561082257600080fd5b50610389600081565b34801561083757600080fd5b50610362610846366004615837565b611c38565b34801561085757600080fd5b506103bc610866366004615521565b611c4a565b610401610879366004615865565b611ca0565b34801561088a57600080fd5b5061089e6108993660046158f1565b611f1f565b6040516103939190615933565b3480156108b757600080fd5b506103bc6108c63660046152ac565b61013d6020526000908152604090205460ff1681565b3480156108e857600080fd5b506004546001600160a01b03811690600160a01b900461ffff166105ca565b34801561091357600080fd5b50610481610922366004615473565b63bc197c8160e01b95945050505050565b34801561093f57600080fd5b5061038961094e3660046152ac565b61013b6020526000908152604090205481565b34801561096d57600080fd5b5061038961097c3660046152ac565b612014565b34801561098d57600080fd5b50635061636b60e01b610389565b3480156109a757600080fd5b506103896109b63660046152ac565b60009081526003602052604090205490565b3480156109d457600080fd5b506103626109e3366004615521565b6120af565b3480156109f457600080fd5b506103e16120c8565b348015610a0957600080fd5b506103bc610a18366004615995565b6001600160a01b0391821660009081526101046020908152604080832093909416825291909152205460ff1690565b348015610a5357600080fd5b50610481610a623660046159c3565b63f23a6e6160e01b95945050505050565b348015610a7f57600080fd5b50610362610a8e3660046159c3565b6120d5565b60006001600160a01b038316610afe5760405162461bcd60e51b815260206004820152602a60248201527f455243313135353a2061646472657373207a65726f206973206e6f742061207660448201526930b634b21037bbb732b960b11b6064820152608401610359565b506000818152610103602090815260408083206001600160a01b03861684529091529020545b92915050565b6000610b3582612183565b80610b50575063152a902d60e11b6001600160e01b03198316145b80610b6b5750630a85bd0160e11b6001600160e01b03198316145b80610b245750506001600160e01b031916630271189760e51b1490565b6101358054610b9690615a2c565b80601f0160208091040260200160405190810160405280929190818152602001828054610bc290615a2c565b8015610c0f5780601f10610be457610100808354040283529160200191610c0f565b820191906000526020600020905b815481529060010190602001808311610bf257829003601f168201915b505050505081565b60008061013854610c2f81610c2a6121d3565b6121e2565b60026009541415610c825760405162461bcd60e51b815260206004820152601f60248201527f5265656e7472616e637947756172643a207265656e7472616e742063616c6c006044820152606401610359565b60026009558915801590610c9557508988145b610cca5760405162461bcd60e51b81526004016103599060208082526004908201526310a632b760e11b604082015260600190565b61013954600090815260066020908152604080832083805290915290205460ff16610d425760005b8a811015610d4057610d2e610139548d8d84818110610d1357610d13615a61565b610d2992602060809092020190810191506152c5565b612246565b610d39600182615a8d565b9050610cf2565b505b61013a805493506001906000610d588387615a8d565b90915550610d7890508b8b8b8b8b886001600160801b038c166000612284565b600084815261013c602090815260408083206001600160801b038a8116600160801b02908c161760019182015561013d8352818420805460ff1916909117905580519182019052908152909250610dd4908590859085906125b4565b604080516001600160a01b03861681526020810184905284917f529034575398e71312a0b7b951d8ca42dce1529d774f4a255a587f64f649fff8910160405180910390a250600160095590999098509650505050505050565b6060610b24826112ff565b610e406126e5565b610e7d5760405162461bcd60e51b815260206004820152600e60248201526d139bdd08185d5d1a1bdc9a5e995960921b6044820152606401610359565b610e86816126f3565b50565b610eb5604080516080810190915260008082526020820190815260200160008152602001600081525090565b6000838152600360209081526040808320858452600290810183529281902081516080810190925280546001600160a01b038116835291939092840191600160a01b900460ff1690811115610f0c57610f0c615370565b6002811115610f1d57610f1d615370565b8152600182015460208201526002909101546040909101529392505050565b600080600080610f4b8661111b565b90945084925061ffff169050612710610f648287615aa5565b610f6e9190615ada565b925050509250929050565b610f816121d3565b6001600160a01b0316856001600160a01b03161480610fa75750610fa785610a186121d3565b61100b5760405162461bcd60e51b815260206004820152602f60248201527f455243313135353a2063616c6c6572206973206e6f7420746f6b656e206f776e60448201526e195c881b9bdc88185c1c1c9bdd9959608a1b6064820152608401610359565b6110188585858585612745565b5050505050565b6000828152600760205260409020546110389033612246565b60008281526006602090815260408083206001600160a01b038516845290915290205460ff16156110ab5760405162461bcd60e51b815260206004820152601d60248201527f43616e206f6e6c79206772616e7420746f206e6f6e20686f6c646572730000006044820152606401610359565b6110b582826129c1565b5050565b336001600160a01b038216146111115760405162461bcd60e51b815260206004820152601a60248201527f43616e206f6e6c792072656e6f756e636520666f722073656c660000000000006044820152606401610359565b6110b582826129d5565b6000818152600560209081526040808320815180830190925280546001600160a01b031680835260019091015492820192909252829115611162578051602082015161117c565b6004546001600160a01b03811690600160a01b900461ffff165b9250925050915091565b606081518351146111eb5760405162461bcd60e51b815260206004820152602960248201527f455243313135353a206163636f756e747320616e6420696473206c656e677468604482015268040dad2e6dac2e8c6d60bb1b6064820152608401610359565b6000835167ffffffffffffffff81111561120757611207615115565b604051908082528060200260200182016040528015611230578160200160208202803683370190505b50905060005b84518110156112a85761127b85828151811061125457611254615a61565b602002602001015185838151811061126e5761126e615a61565b6020026020010151610a93565b82828151811061128d5761128d615a61565b60209081029190910101526112a181615aee565b9050611236565b509392505050565b6112b86126e5565b6112f55760405162461bcd60e51b815260206004820152600e60248201526d139bdd08185d5d1a1bdc9a5e995960921b6044820152606401610359565b6110b58282612a2c565b600081815260036020526040902060010180546060919061131f90615a2c565b80601f016020809104026020016040519081016040528092919081815260200182805461134b90615a2c565b80156113985780601f1061136d57610100808354040283529160200191611398565b820191906000526020600020905b81548152906001019060200180831161137b57829003601f168201915b50505050509050919050565b600054610100900460ff16158080156113c45750600054600160ff909116105b806113de5750303b1580156113de575060005460ff166001145b6114415760405162461bcd60e51b815260206004820152602e60248201527f496e697469616c697a61626c653a20636f6e747261637420697320616c72656160448201526d191e481a5b9a5d1a585b1a5e995960921b6064820152608401610359565b6000805460ff191660011790558015611464576000805461ff0019166101001790555b83517f8502233096d909befbda0999bb8ea2f3a6be3c138b9fbf003752a4c8bce86f6c907f9f2df0fed2c77648de5860a4cc508cd0818c85b8b8a1ab4ceeef8d981c8956a6907f86d5cf0a6bdc8d859ba3bdc97043337c82a0e609035f378e419298b6a3e00ae6906000906114da906001615a8d565b67ffffffffffffffff8111156114f2576114f2615115565b60405190808252806020026020018201604052801561151b578160200160208202803683370190505b50905060005b88518110156115805788818151811061153c5761153c615a61565b602002602001015182828151811061155657611556615a61565b6001600160a01b03909216602092830291909101909101528061157881615aee565b915050611521565b7f00000000000000000000000000000000000000000000000000000000000000008282815181106115b3576115b3615a61565b60200260200101906001600160a01b031690816001600160a01b0316815250506115dc82612ae1565b6115e58a612b19565b8b516115f9906101359060208f0190614efc565b508a5161160e906101369060208e0190614efc565b506116188a612b49565b6116218d6126f3565b61162c60008e6129c1565b611636858e6129c1565b611640848e6129c1565b61164b8560006129c1565b6116568360006129c1565b6116608888612a2c565b505061013792909255610138556101395580156116b7576000805461ff0019169055604051600181527f7f26b83ff96e1f2b6a682f133852f6798a09c465da95921460cefb38474024989060200160405180910390a15b5050505050505050565b600081815261013c6020908152604080832081518154608094810282018501909352606081810184815290958695909492939284929184919084018282801561172957602002820191906000526020600020905b815481526020019060010190808311611715575b5050509183525050600191909101546001600160801b038082166020840152600160801b90910416604090910152905060006117718560009081526003602052604090205490565b90508067ffffffffffffffff81111561178c5761178c615115565b6040519080825280602002602001820160405280156117e957816020015b6117d6604080516080810190915260008082526020820190815260200160008152602001600081525090565b8152602001906001900390816117aa5790505b5093508067ffffffffffffffff81111561180557611805615115565b60405190808252806020026020018201604052801561182e578160200160208202803683370190505b50925060005b81811015611875576118468682610e89565b85828151811061185857611858615a61565b602090810291909101015261186e600182615a8d565b9050611834565b505051919391925050565b60008281526008602052604081205481805b828110156119785760008681526008602090815260408083208484526001019091529020546001600160a01b03161561190f57848214156118fd5760008681526008602090815260408083209383526001909301905220546001600160a01b03169250610b24915050565b611908600183615a8d565b9150611966565b600086815260066020908152604080832083805290915290205460ff1680156119535750600086815260086020908152604080832083805260020190915290205481145b1561196657611963600183615a8d565b91505b611971600182615a8d565b9050611892565b50505092915050565b6060600061198d6121d3565b336000908152606d602052604090205490915060ff16806119b657506001600160a01b03811632145b6119eb5760405162461bcd60e51b81526004016103599060208082526004908201526321454f4160e01b604082015260600190565b826119f68286610a93565b1015611a2d5760405162461bcd60e51b8152600401610359906020808252600490820152630850985b60e21b604082015260600190565b600084815261013c602090815260408083208151815460809481028201850190935260608101838152909391928492849190840182828015611a8e57602002820191906000526020600020905b815481526020019060010190808311611a7a575b5050509183525050600191909101546001600160801b03808216602080850191909152600160801b90920481166040909301929092528201519192504291161115611b075760405162461bcd60e51b815260206004820152600960248201526831b0b73a1037b832b760b91b6044820152606401610359565b6000611b22868684604001516001600160801b031685612c2b565b9050611b2f838787613040565b611b3a3084836131e1565b826001600160a01b0316867f58bbfaa763248693d05ac650926341943af86affd998d80e41dbcc9adfdae6078784604051611b76929190615b09565b60405180910390a395945050505050565b611b8f6126e5565b611bcc5760405162461bcd60e51b815260206004820152600e60248201526d139bdd08185d5d1a1bdc9a5e995960921b6044820152606401610359565b610e8681612b49565b6101368054610b9690615a2c565b611beb6126e5565b611c285760405162461bcd60e51b815260206004820152600e60248201526d139bdd08185d5d1a1bdc9a5e995960921b6044820152606401610359565b611c33838383613303565b505050565b6110b5611c436121d3565b83836133cd565b600082815260066020908152604080832083805290915281205460ff16611c97575060008281526006602090815260408083206001600160a01b038516845290915290205460ff16610b24565b50600192915050565b60008061013854611cb381610c2a6121d3565b60026009541415611d065760405162461bcd60e51b815260206004820152601f60248201527f5265656e7472616e637947756172643a207265656e7472616e742063616c6c006044820152606401610359565b6002600955600089815261013d602052604090205460ff16611d555760405162461bcd60e51b815260206004820152600860248201526708505b1b1bddd95960c21b6044820152606401610359565b8615801590611d6357508685145b611d985760405162461bcd60e51b81526004016103599060208082526004908201526310a632b760e11b604082015260600190565b611da2848a610a93565b611dd75760405162461bcd60e51b8152600401610359906020808252600490820152630850985b60e21b604082015260600190565b61013954600090815260066020908152604080832083805290915290205460ff16611e345760005b87811015611e3257611e20610139548a8a84818110610d1357610d13615a61565b611e2b600182615a8d565b9050611dff565b505b600061013c60008b815260200190815260200160002060010160109054906101000a90046001600160801b03166001600160801b03169050611e8c89898989604051806020016040528060008152508f876001612284565b60008b815261013b6020526040902054909350611eaa908490615a8d565b9350611ec7858b85604051806020016040528060008152506125b4565b604080516001600160a01b0387168152602081018590528b917fdf54045461e7fa6cda88afd9b979d29bb9ef67b8271562cec9a7a95ddc3afe72910160405180910390a2505060016009559097909650945050505050565b60608167ffffffffffffffff811115611f3a57611f3a615115565b604051908082528060200260200182016040528015611f6d57816020015b6060815260200190600190039081611f585790505b50905060005b8281101561200d57611fdd30858584818110611f9157611f91615a61565b9050602002810190611fa39190615b22565b8080601f0160208091040260200160405190810160405280939291908181526020018383808284376000920191909152506134a792505050565b828281518110611fef57611fef615a61565b6020026020010181905250808061200590615aee565b915050611f73565b5092915050565b600081815260086020526040812054815b818110156120785760008481526008602090815260408083208484526001019091529020546001600160a01b03161561206657612063600184615a8d565b92505b612071600182615a8d565b9050612025565b50600083815260066020908152604080832083805290915290205460ff16156120a9576120a6600183615a8d565b91505b50919050565b6000828152600760205260409020546111119033612246565b60018054610b9690615a2c565b6120dd6121d3565b6001600160a01b0316856001600160a01b03161480612103575061210385610a186121d3565b6121675760405162461bcd60e51b815260206004820152602f60248201527f455243313135353a2063616c6c6572206973206e6f7420746f6b656e206f776e60448201526e195c881b9bdc88185c1c1c9bdd9959608a1b6064820152608401610359565b611018858585858561359b565b6001600160a01b03163b151590565b60006001600160e01b03198216636cdb3d1360e11b14806121b457506001600160e01b031982166303a24d0760e21b145b80610b2457506301ffc9a760e01b6001600160e01b0319831614610b24565b60006121dd613765565b905090565b6121ec8282611c4a565b6110b557612204816001600160a01b03166014613792565b61220f836020613792565b604051602001612220929190615b69565b60408051601f198184030181529082905262461bcd60e51b825261035991600401615071565b60008281526006602090815260408083206001600160a01b038516845290915290205460ff166110b557612204816001600160a01b03166014613792565b60008060005b89811015612488578a8a828181106122a4576122a4615a61565b90506080020160600135600014156122e65760405162461bcd60e51b81526020600482015260056024820152640c08185b5d60da1b6044820152606401610359565b8888828181106122f8576122f8615a61565b905060200201358b8b8381811061231157612311615a61565b905060800201606001356123259190615bea565b156123575760405162461bcd60e51b815260206004820152600260248201526110a960f11b6044820152606401610359565b60018b8b8381811061236b5761236b615a61565b90506080020160200160208101906123839190615c0b565b600281111561239457612394615370565b1415806123bc57508a8a828181106123ae576123ae615a61565b905060800201606001356001145b6123ed5760405162461bcd60e51b815260206004820152600260248201526110a960f11b6044820152606401610359565b8888828181106123ff576123ff615a61565b90506020020135826124119190615a8d565b600087815261013c6020526040902090925089898381811061243557612435615a61565b905060200201358c8c8481811061244e5761244e615a61565b905060800201606001356124629190615ada565b8154600181810184556000938452602090932001556124819082615a8d565b905061228a565b506124938482615bea565b156124c95760405162461bcd60e51b81526004016103599060208082526004908201526308505b5d60e21b604082015260600190565b6124d38482615ada565b915082156125935760005b89811015612529576125178b8b838181106124fb576124fb615a61565b9050608002018036038101906125119190615c28565b87613942565b612522600182615a8d565b90506124de565b5061258e6125356121d3565b308c8c808060200260200160405190810160405280939291908181526020016000905b828210156125845761257560808302860136819003810190615c28565b81526020019060010190612558565b50505050506131e1565b6125a7565b6125a761259e6121d3565b8b8b8989613a07565b5098975050505050505050565b6001600160a01b0384166126145760405162461bcd60e51b815260206004820152602160248201527f455243313135353a206d696e7420746f20746865207a65726f206164647265736044820152607360f81b6064820152608401610359565b600061261e6121d3565b9050600061262b85613a6f565b9050600061263885613a6f565b905061264983600089858589613aba565b6000868152610103602090815260408083206001600160a01b038b1684529091528120805487929061267c908490615a8d565b909155505060408051878152602081018790526001600160a01b03808a1692600092918716917fc3d58168c5ae7397731d063d5bbf3d657854427343f4c083240f7aacaa2d0f62910160405180910390a46126dc83600089898989613d78565b50505050505050565b60006121dd8161077a6121d3565b600280546001600160a01b038381166001600160a01b0319831681179093556040519116919082907f8292fce18fa69edf4db7b94ea2e58241df0ae57f97e0a6c9b29067028bf92d7690600090a35050565b81518351146127a75760405162461bcd60e51b815260206004820152602860248201527f455243313135353a2069647320616e6420616d6f756e7473206c656e677468206044820152670dad2e6dac2e8c6d60c31b6064820152608401610359565b6001600160a01b03841661280b5760405162461bcd60e51b815260206004820152602560248201527f455243313135353a207472616e7366657220746f20746865207a65726f206164604482015264647265737360d81b6064820152608401610359565b60006128156121d3565b9050612825818787878787613aba565b60005b845181101561295357600085828151811061284557612845615a61565b60200260200101519050600085838151811061286357612863615a61565b6020908102919091018101516000848152610103835260408082206001600160a01b038e1683529093529190912054909150818110156128f85760405162461bcd60e51b815260206004820152602a60248201527f455243313135353a20696e73756666696369656e742062616c616e636520666f60448201526939103a3930b739b332b960b11b6064820152608401610359565b6000838152610103602090815260408083206001600160a01b038e8116855292528083208585039055908b16825281208054849290612938908490615a8d565b925050819055505050508061294c90615aee565b9050612828565b50846001600160a01b0316866001600160a01b0316826001600160a01b03167f4a39dc06d4c0dbc64b70af90fd698a233a518aa5d07e595d983b8c0526c8f7fb87876040516129a3929190615c9d565b60405180910390a46129b9818787878787613f1e565b505050505050565b6129cb828261401a565b6110b58282614075565b6129df82826140e2565b60008281526008602090815260408083206001600160a01b03851680855260028201808552838620805487526001909301855292852080546001600160a01b031916905584529152555050565b612710811115612a705760405162461bcd60e51b815260206004820152600f60248201526e45786365656473206d61782062707360881b6044820152606401610359565b600480546001600160a01b03841675ffffffffffffffffffffffffffffffffffffffffffff199091168117600160a01b61ffff851602179091556040518281527f90d7ec04bcb8978719414f82e52e4cb651db41d0e6f8cea6118c2191e6183adb9060200160405180910390a25050565b600054610100900460ff16612b085760405162461bcd60e51b815260040161035990615cb0565b612b10614144565b610e868161416d565b600054610100900460ff16612b405760405162461bcd60e51b815260040161035990615cb0565b610e86816141fc565b600060018054612b5890615a2c565b80601f0160208091040260200160405190810160405280929190818152602001828054612b8490615a2c565b8015612bd15780601f10612ba657610100808354040283529160200191612bd1565b820191906000526020600020905b815481529060010190602001808311612bb457829003601f168201915b50508551939450612bed93600193506020870192509050614efc565b507fc9c7c3fe08b88b4df9d4d47ef47d2c43d55c025a0ba88ca442580ed9e7348a168183604051612c1f929190615cfb565b60405180910390a15050565b60606000612c398486615aa5565b90508067ffffffffffffffff811115612c5457612c54615115565b604051908082528060200260200182016040528015612cb157816020015b612c9e604080516080810190915260008082526020820190815260200160008152602001600081525090565b815260200190600190039081612c725790505b50600087815261013b602052604081205491935090612cd1908690615aa5565b600088815260036020526040812054919250612ceb61422c565b90506000612cf88a6116c1565b50905060008367ffffffffffffffff811115612d1657612d16615115565b604051908082528060200260200182016040528015612d3f578160200160208202803683370190505b50905060005b86811015612fd057604080516020808201879052818301849052825180830384018152606090920190925280519101206000612d818883615bea565b90506000805b88811015612fb85760008d600001518281518110612da757612da7615a61565b6020026020010151888381518110612dc157612dc1615a61565b602002602001015160600151612dd79190615ada565b9050612de38184615a8d565b841015612f99578d51805183908110612dfe57612dfe615a61565b6020026020010151888381518110612e1857612e18615a61565b6020026020010151606001818151612e309190615d20565b9052508651600190889084908110612e4a57612e4a615a61565b602002602001019015159081151581525050878281518110612e6e57612e6e615a61565b6020026020010151600001518d8781518110612e8c57612e8c615a61565b60209081029190910101516001600160a01b0390911690528751889083908110612eb857612eb8615a61565b6020026020010151602001518d8781518110612ed657612ed6615a61565b6020026020010151602001906002811115612ef357612ef3615370565b90816002811115612f0657612f06615370565b81525050878281518110612f1c57612f1c615a61565b6020026020010151604001518d8781518110612f3a57612f3a615a61565b6020908102919091010151604001528d51805183908110612f5d57612f5d615a61565b60200260200101518d8781518110612f7757612f77615a61565b602090810291909101015160600152612f9160018c615d20565b9a5050612fb8565b612fa38184615a8d565b925050612fb1600182615a8d565b9050612d87565b50505050600181612fc99190615a8d565b9050612d45565b5060005b8481101561303157818181518110612fee57612fee615a61565b60200260200101511561301f5761301f83828151811061301057613010615a61565b60200260200101518d8361428b565b61302a600182615a8d565b9050612fd4565b50505050505050949350505050565b6001600160a01b0383166130a25760405162461bcd60e51b815260206004820152602360248201527f455243313135353a206275726e2066726f6d20746865207a65726f206164647260448201526265737360e81b6064820152608401610359565b60006130ac6121d3565b905060006130b984613a6f565b905060006130c684613a6f565b90506130e683876000858560405180602001604052806000815250613aba565b6000858152610103602090815260408083206001600160a01b038a168452909152902054848110156131665760405162461bcd60e51b8152602060048201526024808201527f455243313135353a206275726e20616d6f756e7420657863656564732062616c604482015263616e636560e01b6064820152608401610359565b6000868152610103602090815260408083206001600160a01b038b81168086529184528285208a8703905582518b81529384018a90529092908816917fc3d58168c5ae7397731d063d5bbf3d657854427343f4c083240f7aacaa2d0f62910160405180910390a46040805160208101909152600090526126dc565b6000805b82518110156132b35773eeeeeeeeeeeeeeeeeeeeeeeeeeeeeeeeeeeeeeee6001600160a01b031683828151811061321e5761321e615a61565b6020026020010151600001516001600160a01b031614801561324857506001600160a01b03841630145b1561327d5782818151811061325f5761325f615a61565b602002602001015160600151826132769190615a8d565b91506132a1565b6132a1858585848151811061329457613294615a61565b6020026020010151614369565b6132ac600182615a8d565b90506131e5565b5080156132fd576040805160808101825273eeeeeeeeeeeeeeeeeeeeeeeeeeeeeeeeeeeeeeee81526000602082018190529181019190915260608101829052611018858583614369565b50505050565b6127108111156133475760405162461bcd60e51b815260206004820152600f60248201526e45786365656473206d61782062707360881b6044820152606401610359565b6040805180820182526001600160a01b038481168083526020808401868152600089815260058352869020945185546001600160a01b031916941693909317845591516001909301929092559151838152909185917f7365cf4122f072a3365c20d54eff9b38d73c096c28e1892ec8f5b0e403a0f12d91015b60405180910390a3505050565b816001600160a01b0316836001600160a01b031614156134415760405162461bcd60e51b815260206004820152602960248201527f455243313135353a2073657474696e6720617070726f76616c20737461747573604482015268103337b91039b2b63360b91b6064820152608401610359565b6001600160a01b0383811660008181526101046020908152604080832094871680845294825291829020805460ff191686151590811790915591519182527f17307eab39ab6107e8899845ad3d59bd9653f200f220920489ca2b5937696c3191016133c0565b60606001600160a01b0383163b61350f5760405162461bcd60e51b815260206004820152602660248201527f416464726573733a2064656c65676174652063616c6c20746f206e6f6e2d636f6044820152651b9d1c9858dd60d21b6064820152608401610359565b600080846001600160a01b03168460405161352a9190615d37565b600060405180830381855af49150503d8060008114613565576040519150601f19603f3d011682016040523d82523d6000602084013e61356a565b606091505b50915091506135928282604051806060016040528060278152602001615f6b602791396144c8565b95945050505050565b6001600160a01b0384166135ff5760405162461bcd60e51b815260206004820152602560248201527f455243313135353a207472616e7366657220746f20746865207a65726f206164604482015264647265737360d81b6064820152608401610359565b60006136096121d3565b9050600061361685613a6f565b9050600061362385613a6f565b9050613633838989858589613aba565b6000868152610103602090815260408083206001600160a01b038c168452909152902054858110156136ba5760405162461bcd60e51b815260206004820152602a60248201527f455243313135353a20696e73756666696369656e742062616c616e636520666f60448201526939103a3930b739b332b960b11b6064820152608401610359565b6000878152610103602090815260408083206001600160a01b038d8116855292528083208985039055908a168252812080548892906136fa908490615a8d565b909155505060408051888152602081018890526001600160a01b03808b16928c821692918816917fc3d58168c5ae7397731d063d5bbf3d657854427343f4c083240f7aacaa2d0f62910160405180910390a461375a848a8a8a8a8a613d78565b505050505050505050565b336000908152606d602052604081205460ff161561378a575060131936013560601c90565b503390565b90565b606060006137a1836002615aa5565b6137ac906002615a8d565b67ffffffffffffffff8111156137c4576137c4615115565b6040519080825280601f01601f1916602001820160405280156137ee576020820181803683370190505b509050600360fc1b8160008151811061380957613809615a61565b60200101906001600160f81b031916908160001a905350600f60fb1b8160018151811061383857613838615a61565b60200101906001600160f81b031916908160001a905350600061385c846002615aa5565b613867906001615a8d565b90505b60018111156138ec577f303132333435363738396162636465660000000000000000000000000000000085600f16601081106138a8576138a8615a61565b1a60f81b8282815181106138be576138be615a61565b60200101906001600160f81b031916908160001a90535060049490941c936138e581615d53565b905061386a565b50831561393b5760405162461bcd60e51b815260206004820181905260248201527f537472696e67733a20686578206c656e67746820696e73756666696369656e746044820152606401610359565b9392505050565b61394b82614501565b600081815260036020908152604080832080548085526002918201845291909320855181546001600160a01b039091166001600160a01b0319821681178355938701519294879492939284926001600160a81b0319161790600160a01b9084908111156139ba576139ba615370565b0217905550604082015181600101556060820151816002015590505060016003600084815260200190815260200160002060000160008282546139fd9190615a8d565b9091555050505050565b613a12848483614833565b613a1c828261495c565b61101885308686808060200260200160405190810160405280939291908181526020016000905b8282101561258457613a6060808302860136819003810190615c28565b81526020019060010190613a43565b60408051600180825281830190925260609160009190602080830190803683370190505090508281600081518110613aa957613aa9615a61565b602090810291909101015292915050565b61013754600090815260066020908152604080832083805290915290205460ff16158015613af057506001600160a01b03851615155b8015613b0457506001600160a01b03841615155b15613ba1576101375460009081526006602090815260408083206001600160a01b038916845290915290205460ff1680613b6457506101375460009081526006602090815260408083206001600160a01b038816845290915290205460ff165b613ba15760405162461bcd60e51b815260206004820152600e60248201526d215452414e534645525f524f4c4560901b6044820152606401610359565b6001600160a01b038516613c2d5760005b8351811015613c2757828181518110613bcd57613bcd615a61565b602002602001015161013b6000868481518110613bec57613bec615a61565b602002602001015181526020019081526020016000206000828254613c119190615a8d565b90915550613c20905081615aee565b9050613bb2565b50613cf2565b60005b8351811015613cf05761013d6000858381518110613c5057613c50615a61565b60209081029190910181015182528101919091526040016000205460ff168015613c945750828181518110613c8757613c87615a61565b6020026020010151600014155b15613ce057600061013d6000868481518110613cb257613cb2615a61565b6020026020010151815260200190815260200160002060006101000a81548160ff0219169083151502179055505b613ce981615aee565b9050613c30565b505b6001600160a01b0384166129b95760005b83518110156126dc57828181518110613d1e57613d1e615a61565b602002602001015161013b6000868481518110613d3d57613d3d615a61565b602002602001015181526020019081526020016000206000828254613d629190615d20565b90915550613d71905081615aee565b9050613d03565b6001600160a01b0384163b156129b95760405163f23a6e6160e01b81526001600160a01b0385169063f23a6e6190613dbc9089908990889088908890600401615d6a565b6020604051808303816000875af1925050508015613df7575060408051601f3d908101601f19168201909252613df491810190615da2565b60015b613ead57613e03615dbf565b806308c379a01415613e3d5750613e18615dda565b80613e235750613e3f565b8060405162461bcd60e51b81526004016103599190615071565b505b60405162461bcd60e51b815260206004820152603460248201527f455243313135353a207472616e7366657220746f206e6f6e204552433131353560448201527f526563656976657220696d706c656d656e7465720000000000000000000000006064820152608401610359565b6001600160e01b0319811663f23a6e6160e01b146126dc5760405162461bcd60e51b815260206004820152602860248201527f455243313135353a204552433131353552656365697665722072656a656374656044820152676420746f6b656e7360c01b6064820152608401610359565b6001600160a01b0384163b156129b95760405163bc197c8160e01b81526001600160a01b0385169063bc197c8190613f629089908990889088908890600401615e64565b6020604051808303816000875af1925050508015613f9d575060408051601f3d908101601f19168201909252613f9a91810190615da2565b60015b613fa957613e03615dbf565b6001600160e01b0319811663bc197c8160e01b146126dc5760405162461bcd60e51b815260206004820152602860248201527f455243313135353a204552433131353552656365697665722072656a656374656044820152676420746f6b656e7360c01b6064820152608401610359565b60008281526006602090815260408083206001600160a01b0385168085529252808320805460ff1916600117905551339285917f2f8788117e7eff1d82e926ec794901d17c78024a50270940304540a733656f0d9190a45050565b6000828152600860205260408120805491600191906140948385615a8d565b9091555050600092835260086020908152604080852083865260018101835281862080546001600160a01b039096166001600160a01b03199096168617905593855260029093019052912055565b6140ec8282612246565b60008281526006602090815260408083206001600160a01b0385168085529252808320805460ff1916905551339285917ff6391f5c32d9c69d2a47ea670b442974b53935d1edc7fd64eb21e047a839171b9190a45050565b600054610100900460ff1661416b5760405162461bcd60e51b815260040161035990615cb0565b565b600054610100900460ff166141945760405162461bcd60e51b815260040161035990615cb0565b60005b81518110156110b5576001606d60008484815181106141b8576141b8615a61565b6020908102919091018101516001600160a01b03168252810191909152604001600020805460ff1916911515919091179055806141f481615aee565b915050614197565b600054610100900460ff166142235760405162461bcd60e51b815260040161035990615cb0565b610e8681614981565b60006142366121d3565b614241600143615d20565b60405160609290921b6bffffffffffffffffffffffff191660208301524060348201524460548201526074016040516020818303038152906040528051906020012060001c905090565b60008281526003602052604090205481106142d45760405162461bcd60e51b8152602060048201526009602482015268696e64657820444e4560b81b6044820152606401610359565b6142dd83614501565b6000828152600360209081526040808320848452600290810183529220855181546001600160a01b039091166001600160a01b03198216811783559287015187949293909284926001600160a81b03191690911790600160a01b90849081111561434957614349615370565b021790555060408201516001820155606090910151600290910155505050565b60008160200151600281111561438157614381615370565b14156143bc57611c338160000151848484606001517f0000000000000000000000000000000000000000000000000000000000000000614995565b6001816020015160028111156143d4576143d4615370565b14156144495780516040808301519051632142170760e11b81526001600160a01b038681166004830152858116602483015260448201929092529116906342842e0e906064015b600060405180830381600087803b15801561443557600080fd5b505af11580156126dc573d6000803e3d6000fd5b60028160200151600281111561446157614461615370565b1415611c3357805160408083015160608401519151637921219560e11b81526001600160a01b03878116600483015286811660248301526044820192909252606481019290925260a06084830152600060a48301529091169063f242432a9060c40161441b565b606083156144d757508161393b565b8251156144e75782518084602001fd5b8160405162461bcd60e51b81526004016103599190615071565b60018160200151600281111561451957614519615370565b14156145fd5780516040516301ffc9a760e01b81526380ac58cd60e01b60048201526001600160a01b03909116906301ffc9a7906024015b602060405180830381865afa92505050801561458a575060408051601f3d908101601f1916820190925261458791810190615ec2565b60015b6145c35760405162461bcd60e51b815260206004820152600a60248201526921546f6b656e5479706560b01b6044820152606401610359565b806110b55760405162461bcd60e51b815260206004820152600a60248201526921546f6b656e5479706560b01b6044820152606401610359565b60028160200151600281111561461557614615615370565b14156146515780516040516301ffc9a760e01b8152636cdb3d1360e11b60048201526001600160a01b03909116906301ffc9a790602401614551565b60008160200151600281111561466957614669615370565b1415610e865780516001600160a01b031673eeeeeeeeeeeeeeeeeeeeeeeeeeeeeeeeeeeeeeee14610e865780516040516301ffc9a760e01b81526380ac58cd60e01b60048201526001600160a01b03909116906301ffc9a790602401602060405180830381865afa9250505080156146fe575060408051601f3d908101601f191682019092526146fb91810190615ec2565b60015b6147285761470a615dbf565b806308c379a014156110b5575061471f615dda565b806110b5575050565b80156147635760405162461bcd60e51b815260206004820152600a60248201526921546f6b656e5479706560b01b6044820152606401610359565b81516040516301ffc9a760e01b8152636cdb3d1360e11b60048201526001600160a01b03909116906301ffc9a790602401602060405180830381865afa9250505080156147cd575060408051601f3d908101601f191682019092526147ca91810190615ec2565b60015b6147f8576147d9615dbf565b806308c379a01415611c3357506147ee615dda565b80611c3357505050565b8015611c335760405162461bcd60e51b815260206004820152600a60248201526921546f6b656e5479706560b01b6044820152606401610359565b818061486b5760405162461bcd60e51b815260206004820152600760248201526621546f6b656e7360c81b6044820152606401610359565b600082815260036020526040902054156148b35760405162461bcd60e51b815260206004820152600960248201526869642065786973747360b81b6044820152606401610359565b60005b81811015614947576148ee8585838181106148d3576148d3615a61565b9050608002018036038101906148e99190615c28565b614501565b84848281811061490057614900615a61565b600086815260036020908152604080832087845260020190915290206080909102929092019190506149328282615edf565b506149409050600182615a8d565b90506148b6565b50600091825260036020526040909120555050565b60008181526003602090815260409091208351611c3392600190920191850190614efc565b80516110b590610105906020840190614efc565b8161499f57611018565b6001600160a01b03851673eeeeeeeeeeeeeeeeeeeeeeeeeeeeeeeeeeeeeeee1415614b03576001600160a01b038416301415614a3f57604051632e1a7d4d60e01b8152600481018390526001600160a01b03821690632e1a7d4d90602401600060405180830381600087803b158015614a1757600080fd5b505af1158015614a2b573d6000803e3d6000fd5b50505050614a3a838383614b0f565b611018565b6001600160a01b038316301415614af857348214614a9f5760405162461bcd60e51b815260206004820152601360248201527f6d73672e76616c756520213d20616d6f756e74000000000000000000000000006044820152606401610359565b806001600160a01b031663d0e30db0836040518263ffffffff1660e01b81526004016000604051808303818588803b158015614ada57600080fd5b505af1158015614aee573d6000803e3d6000fd5b5050505050611018565b614a3a838383614b0f565b61101885858585614bd4565b6000836001600160a01b03168360405160006040518083038185875af1925050503d8060008114614b5c576040519150601f19603f3d011682016040523d82523d6000602084013e614b61565b606091505b50509050806132fd57816001600160a01b031663d0e30db0846040518263ffffffff1660e01b81526004016000604051808303818588803b158015614ba557600080fd5b505af1158015614bb9573d6000803e3d6000fd5b506132fd935050506001600160a01b03841690508585614c32565b816001600160a01b0316836001600160a01b03161415614bf3576132fd565b6001600160a01b038316301415614c1d57614c186001600160a01b0385168383614c32565b6132fd565b6132fd6001600160a01b038516848484614caa565b6040516001600160a01b038316602482015260448101829052611c3390849063a9059cbb60e01b906064015b60408051601f198184030181529190526020810180517bffffffffffffffffffffffffffffffffffffffffffffffffffffffff166001600160e01b031990931692909217909152614ce2565b6040516001600160a01b03808516602483015283166044820152606481018290526132fd9085906323b872dd60e01b90608401614c5e565b6000614d37826040518060400160405280602081526020017f5361666545524332303a206c6f772d6c6576656c2063616c6c206661696c6564815250856001600160a01b0316614db49092919063ffffffff16565b805190915015611c335780806020019051810190614d559190615ec2565b611c335760405162461bcd60e51b815260206004820152602a60248201527f5361666545524332303a204552433230206f7065726174696f6e20646964206e6044820152691bdd081cdd58d8d9595960b21b6064820152608401610359565b6060614dc38484600085614dcb565b949350505050565b606082471015614e2c5760405162461bcd60e51b815260206004820152602660248201527f416464726573733a20696e73756666696369656e742062616c616e636520666f6044820152651c8818d85b1b60d21b6064820152608401610359565b6001600160a01b0385163b614e835760405162461bcd60e51b815260206004820152601d60248201527f416464726573733a2063616c6c20746f206e6f6e2d636f6e74726163740000006044820152606401610359565b600080866001600160a01b03168587604051614e9f9190615d37565b60006040518083038185875af1925050503d8060008114614edc576040519150601f19603f3d011682016040523d82523d6000602084013e614ee1565b606091505b5091509150614ef18282866144c8565b979650505050505050565b828054614f0890615a2c565b90600052602060002090601f016020900481019282614f2a5760008555614f70565b82601f10614f4357805160ff1916838001178555614f70565b82800160010185558215614f70579182015b82811115614f70578251825591602001919060010190614f55565b50614f7c929150614f80565b5090565b5b80821115614f7c5760008155600101614f81565b6001600160a01b0381168114610e8657600080fd5b8035614fb581614f95565b919050565b60008060408385031215614fcd57600080fd5b8235614fd881614f95565b946020939093013593505050565b6001600160e01b031981168114610e8657600080fd5b60006020828403121561500e57600080fd5b813561393b81614fe6565b60005b8381101561503457818101518382015260200161501c565b838111156132fd5750506000910152565b6000815180845261505d816020860160208601615019565b601f01601f19169290920160200192915050565b60208152600061393b6020830184615045565b60008083601f84011261509657600080fd5b50813567ffffffffffffffff8111156150ae57600080fd5b6020830191508360208260071b85010111156150c957600080fd5b9250929050565b60008083601f8401126150e257600080fd5b50813567ffffffffffffffff8111156150fa57600080fd5b6020830191508360208260051b85010111156150c957600080fd5b634e487b7160e01b600052604160045260246000fd5b601f8201601f1916810167ffffffffffffffff8111828210171561515157615151615115565b6040525050565b600082601f83011261516957600080fd5b813567ffffffffffffffff81111561518357615183615115565b60405161519a601f8301601f19166020018261512b565b8181528460208386010111156151af57600080fd5b816020850160208301376000918101602001919091529392505050565b80356001600160801b0381168114614fb557600080fd5b60008060008060008060008060c0898b0312156151ff57600080fd5b883567ffffffffffffffff8082111561521757600080fd5b6152238c838d01615084565b909a50985060208b013591508082111561523c57600080fd5b6152488c838d016150d0565b909850965060408b013591508082111561526157600080fd5b5061526e8b828c01615158565b94505061527d60608a016151cc565b925061528b60808a016151cc565b915060a089013561529b81614f95565b809150509295985092959890939650565b6000602082840312156152be57600080fd5b5035919050565b6000602082840312156152d757600080fd5b813561393b81614f95565b600080600080608085870312156152f857600080fd5b843561530381614f95565b9350602085013561531381614f95565b925060408501359150606085013567ffffffffffffffff81111561533657600080fd5b61534287828801615158565b91505092959194509250565b6000806040838503121561536157600080fd5b50508035926020909101359150565b634e487b7160e01b600052602160045260246000fd5b6001600160a01b0381511682526020810151600381106153b657634e487b7160e01b600052602160045260246000fd5b602083015260408181015190830152606090810151910152565b60808101610b248284615386565b600067ffffffffffffffff8211156153f8576153f8615115565b5060051b60200190565b600082601f83011261541357600080fd5b81356020615420826153de565b60405161542d828261512b565b83815260059390931b850182019282810191508684111561544d57600080fd5b8286015b848110156154685780358352918301918301615451565b509695505050505050565b600080600080600060a0868803121561548b57600080fd5b853561549681614f95565b945060208601356154a681614f95565b9350604086013567ffffffffffffffff808211156154c357600080fd5b6154cf89838a01615402565b945060608801359150808211156154e557600080fd5b6154f189838a01615402565b9350608088013591508082111561550757600080fd5b5061551488828901615158565b9150509295509295909350565b6000806040838503121561553457600080fd5b82359150602083013561554681614f95565b809150509250929050565b600082601f83011261556257600080fd5b8135602061556f826153de565b60405161557c828261512b565b83815260059390931b850182019282810191508684111561559c57600080fd5b8286015b848110156154685780356155b381614f95565b83529183019183016155a0565b600080604083850312156155d357600080fd5b823567ffffffffffffffff808211156155eb57600080fd5b6155f786838701615551565b9350602085013591508082111561560d57600080fd5b5061561a85828601615402565b9150509250929050565b600081518084526020808501945080840160005b8381101561565457815187529582019590820190600101615638565b509495945050505050565b60208152600061393b6020830184615624565b600080600080600080600060e0888a03121561568d57600080fd5b61569688614faa565b9650602088013567ffffffffffffffff808211156156b357600080fd5b6156bf8b838c01615158565b975060408a01359150808211156156d557600080fd5b6156e18b838c01615158565b965060608a01359150808211156156f757600080fd5b6157038b838c01615158565b955060808a013591508082111561571957600080fd5b506157268a828b01615551565b93505061573560a08901614faa565b915060c0880135905092959891949750929550565b600081518084526020808501945080840160005b8381101561565457615771878351615386565b608096909601959082019060010161575e565b604081526000615797604083018561574a565b82810360208401526135928185615624565b60208152600061393b602083018461574a565b6000602082840312156157ce57600080fd5b813567ffffffffffffffff8111156157e557600080fd5b614dc384828501615158565b60008060006060848603121561580657600080fd5b83359250602084013561581881614f95565b929592945050506040919091013590565b8015158114610e8657600080fd5b6000806040838503121561584a57600080fd5b823561585581614f95565b9150602083013561554681615829565b6000806000806000806080878903121561587e57600080fd5b86359550602087013567ffffffffffffffff8082111561589d57600080fd5b6158a98a838b01615084565b909750955060408901359150808211156158c257600080fd5b506158cf89828a016150d0565b90945092505060608701356158e381614f95565b809150509295509295509295565b6000806020838503121561590457600080fd5b823567ffffffffffffffff81111561591b57600080fd5b615927858286016150d0565b90969095509350505050565b6000602080830181845280855180835260408601915060408160051b870101925083870160005b8281101561598857603f19888603018452615976858351615045565b9450928501929085019060010161595a565b5092979650505050505050565b600080604083850312156159a857600080fd5b82356159b381614f95565b9150602083013561554681614f95565b600080600080600060a086880312156159db57600080fd5b85356159e681614f95565b945060208601356159f681614f95565b93506040860135925060608601359150608086013567ffffffffffffffff811115615a2057600080fd5b61551488828901615158565b600181811c90821680615a4057607f821691505b602082108114156120a957634e487b7160e01b600052602260045260246000fd5b634e487b7160e01b600052603260045260246000fd5b634e487b7160e01b600052601160045260246000fd5b60008219821115615aa057615aa0615a77565b500190565b6000816000190483118215151615615abf57615abf615a77565b500290565b634e487b7160e01b600052601260045260246000fd5b600082615ae957615ae9615ac4565b500490565b6000600019821415615b0257615b02615a77565b5060010190565b828152604060208201526000614dc3604083018461574a565b6000808335601e19843603018112615b3957600080fd5b83018035915067ffffffffffffffff821115615b5457600080fd5b6020019150368190038213156150c957600080fd5b7f5065726d697373696f6e733a206163636f756e74200000000000000000000000815260008351615ba1816015850160208801615019565b7f206973206d697373696e6720726f6c65200000000000000000000000000000006015918401918201528351615bde816026840160208801615019565b01602601949350505050565b600082615bf957615bf9615ac4565b500690565b60038110610e8657600080fd5b600060208284031215615c1d57600080fd5b813561393b81615bfe565b600060808284031215615c3a57600080fd5b6040516080810181811067ffffffffffffffff82111715615c5d57615c5d615115565b6040528235615c6b81614f95565b81526020830135615c7b81615bfe565b6020820152604083810135908201526060928301359281019290925250919050565b6040815260006157976040830185615624565b6020808252602b908201527f496e697469616c697a61626c653a20636f6e7472616374206973206e6f74206960408201526a6e697469616c697a696e6760a81b606082015260800190565b604081526000615d0e6040830185615045565b82810360208401526135928185615045565b600082821015615d3257615d32615a77565b500390565b60008251615d49818460208701615019565b9190910192915050565b600081615d6257615d62615a77565b506000190190565b60006001600160a01b03808816835280871660208401525084604083015283606083015260a06080830152614ef160a0830184615045565b600060208284031215615db457600080fd5b815161393b81614fe6565b600060033d111561378f5760046000803e5060005160e01c90565b600060443d1015615de85790565b6040516003193d81016004833e81513d67ffffffffffffffff8160248401118184111715615e1857505050505090565b8285019150815181811115615e305750505050505090565b843d8701016020828501011115615e4a5750505050505090565b615e596020828601018761512b565b509095945050505050565b60006001600160a01b03808816835280871660208401525060a06040830152615e9060a0830186615624565b8281036060840152615ea28186615624565b90508281036080840152615eb68185615045565b98975050505050505050565b600060208284031215615ed457600080fd5b815161393b81615829565b8135615eea81614f95565b6001600160a01b03811690508154816001600160a01b031982161783556020840135615f1581615bfe565b60038110615f3357634e487b7160e01b600052602160045260246000fd5b6001600160a81b03199190911690911760a09190911b60ff60a01b161781556040820135600182015560609091013560029091015556fe416464726573733a206c6f772d6c6576656c2064656c65676174652063616c6c206661696c6564a26469706673582212202b5a21c6125f90f95d1fb95bda3e005b0897d0b417f47e50ddef4cb25575cb7664736f6c634300080c0033",
  "linkReferences": {},
  "deployedLinkReferences": {}
}