{
  "_format": "hh-sol-artifact-1",
  "contractName": "Split",
  "sourceName": "contracts/Split.sol",
  "abi": [
    {
      "inputs": [],
      "stateMutability": "nonpayable",
      "type": "constructor"
    },
    {
      "anonymous": false,
      "inputs": [
        {
          "indexed": true,
          "internalType": "contract IERC20Upgradeable",
          "name": "token",
          "type": "address"
        },
        {
          "indexed": false,
          "internalType": "address",
          "name": "to",
          "type": "address"
        },
        {
          "indexed": false,
          "internalType": "uint256",
          "name": "amount",
          "type": "uint256"
        }
      ],
      "name": "ERC20PaymentReleased",
      "type": "event"
    },
    {
      "anonymous": false,
      "inputs": [
        {
          "indexed": false,
          "internalType": "uint8",
          "name": "version",
          "type": "uint8"
        }
      ],
      "name": "Initialized",
      "type": "event"
    },
    {
      "anonymous": false,
      "inputs": [
        {
          "indexed": false,
          "internalType": "address",
          "name": "account",
          "type": "address"
        },
        {
          "indexed": false,
          "internalType": "uint256",
          "name": "shares",
          "type": "uint256"
        }
      ],
      "name": "PayeeAdded",
      "type": "event"
    },
    {
      "anonymous": false,
      "inputs": [
        {
          "indexed": false,
          "internalType": "address",
          "name": "from",
          "type": "address"
        },
        {
          "indexed": false,
          "internalType": "uint256",
          "name": "amount",
          "type": "uint256"
        }
      ],
      "name": "PaymentReceived",
      "type": "event"
    },
    {
      "anonymous": false,
      "inputs": [
        {
          "indexed": false,
          "internalType": "address",
          "name": "to",
          "type": "address"
        },
        {
          "indexed": false,
          "internalType": "uint256",
          "name": "amount",
          "type": "uint256"
        }
      ],
      "name": "PaymentReleased",
      "type": "event"
    },
    {
      "anonymous": false,
      "inputs": [
        {
          "indexed": true,
          "internalType": "bytes32",
          "name": "role",
          "type": "bytes32"
        },
        {
          "indexed": true,
          "internalType": "bytes32",
          "name": "previousAdminRole",
          "type": "bytes32"
        },
        {
          "indexed": true,
          "internalType": "bytes32",
          "name": "newAdminRole",
          "type": "bytes32"
        }
      ],
      "name": "RoleAdminChanged",
      "type": "event"
    },
    {
      "anonymous": false,
      "inputs": [
        {
          "indexed": true,
          "internalType": "bytes32",
          "name": "role",
          "type": "bytes32"
        },
        {
          "indexed": true,
          "internalType": "address",
          "name": "account",
          "type": "address"
        },
        {
          "indexed": true,
          "internalType": "address",
          "name": "sender",
          "type": "address"
        }
      ],
      "name": "RoleGranted",
      "type": "event"
    },
    {
      "anonymous": false,
      "inputs": [
        {
          "indexed": true,
          "internalType": "bytes32",
          "name": "role",
          "type": "bytes32"
        },
        {
          "indexed": true,
          "internalType": "address",
          "name": "account",
          "type": "address"
        },
        {
          "indexed": true,
          "internalType": "address",
          "name": "sender",
          "type": "address"
        }
      ],
      "name": "RoleRevoked",
      "type": "event"
    },
    {
      "inputs": [],
      "name": "DEFAULT_ADMIN_ROLE",
      "outputs": [
        {
          "internalType": "bytes32",
          "name": "",
          "type": "bytes32"
        }
      ],
      "stateMutability": "view",
      "type": "function"
    },
    {
      "inputs": [],
      "name": "contractType",
      "outputs": [
        {
          "internalType": "bytes32",
          "name": "",
          "type": "bytes32"
        }
      ],
      "stateMutability": "pure",
      "type": "function"
    },
    {
      "inputs": [],
      "name": "contractURI",
      "outputs": [
        {
          "internalType": "string",
          "name": "",
          "type": "string"
        }
      ],
      "stateMutability": "view",
      "type": "function"
    },
    {
      "inputs": [],
      "name": "contractVersion",
      "outputs": [
        {
          "internalType": "uint8",
          "name": "",
          "type": "uint8"
        }
      ],
      "stateMutability": "pure",
      "type": "function"
    },
    {
      "inputs": [
        {
          "internalType": "contract IERC20Upgradeable",
          "name": "token",
          "type": "address"
        }
      ],
      "name": "distribute",
      "outputs": [],
      "stateMutability": "nonpayable",
      "type": "function"
    },
    {
      "inputs": [],
      "name": "distribute",
      "outputs": [],
      "stateMutability": "nonpayable",
      "type": "function"
    },
    {
      "inputs": [
        {
          "internalType": "bytes32",
          "name": "role",
          "type": "bytes32"
        }
      ],
      "name": "getRoleAdmin",
      "outputs": [
        {
          "internalType": "bytes32",
          "name": "",
          "type": "bytes32"
        }
      ],
      "stateMutability": "view",
      "type": "function"
    },
    {
      "inputs": [
        {
          "internalType": "bytes32",
          "name": "role",
          "type": "bytes32"
        },
        {
          "internalType": "uint256",
          "name": "index",
          "type": "uint256"
        }
      ],
      "name": "getRoleMember",
      "outputs": [
        {
          "internalType": "address",
          "name": "",
          "type": "address"
        }
      ],
      "stateMutability": "view",
      "type": "function"
    },
    {
      "inputs": [
        {
          "internalType": "bytes32",
          "name": "role",
          "type": "bytes32"
        }
      ],
      "name": "getRoleMemberCount",
      "outputs": [
        {
          "internalType": "uint256",
          "name": "",
          "type": "uint256"
        }
      ],
      "stateMutability": "view",
      "type": "function"
    },
    {
      "inputs": [
        {
          "internalType": "bytes32",
          "name": "role",
          "type": "bytes32"
        },
        {
          "internalType": "address",
          "name": "account",
          "type": "address"
        }
      ],
      "name": "grantRole",
      "outputs": [],
      "stateMutability": "nonpayable",
      "type": "function"
    },
    {
      "inputs": [
        {
          "internalType": "bytes32",
          "name": "role",
          "type": "bytes32"
        },
        {
          "internalType": "address",
          "name": "account",
          "type": "address"
        }
      ],
      "name": "hasRole",
      "outputs": [
        {
          "internalType": "bool",
          "name": "",
          "type": "bool"
        }
      ],
      "stateMutability": "view",
      "type": "function"
    },
    {
      "inputs": [
        {
          "internalType": "address",
          "name": "_defaultAdmin",
          "type": "address"
        },
        {
          "internalType": "string",
          "name": "_contractURI",
          "type": "string"
        },
        {
          "internalType": "address[]",
          "name": "_trustedForwarders",
          "type": "address[]"
        },
        {
          "internalType": "address[]",
          "name": "_payees",
          "type": "address[]"
        },
        {
          "internalType": "uint256[]",
          "name": "_shares",
          "type": "uint256[]"
        }
      ],
      "name": "initialize",
      "outputs": [],
      "stateMutability": "nonpayable",
      "type": "function"
    },
    {
      "inputs": [
        {
          "internalType": "address",
          "name": "forwarder",
          "type": "address"
        }
      ],
      "name": "isTrustedForwarder",
      "outputs": [
        {
          "internalType": "bool",
          "name": "",
          "type": "bool"
        }
      ],
      "stateMutability": "view",
      "type": "function"
    },
    {
      "inputs": [
        {
          "internalType": "bytes[]",
          "name": "data",
          "type": "bytes[]"
        }
      ],
      "name": "multicall",
      "outputs": [
        {
          "internalType": "bytes[]",
          "name": "results",
          "type": "bytes[]"
        }
      ],
      "stateMutability": "nonpayable",
      "type": "function"
    },
    {
      "inputs": [
        {
          "internalType": "uint256",
          "name": "index",
          "type": "uint256"
        }
      ],
      "name": "payee",
      "outputs": [
        {
          "internalType": "address",
          "name": "",
          "type": "address"
        }
      ],
      "stateMutability": "view",
      "type": "function"
    },
    {
      "inputs": [],
      "name": "payeeCount",
      "outputs": [
        {
          "internalType": "uint256",
          "name": "",
          "type": "uint256"
        }
      ],
      "stateMutability": "view",
      "type": "function"
    },
    {
      "inputs": [
        {
          "internalType": "address",
          "name": "account",
          "type": "address"
        }
      ],
      "name": "releasable",
      "outputs": [
        {
          "internalType": "uint256",
          "name": "",
          "type": "uint256"
        }
      ],
      "stateMutability": "view",
      "type": "function"
    },
    {
      "inputs": [
        {
          "internalType": "contract IERC20Upgradeable",
          "name": "token",
          "type": "address"
        },
        {
          "internalType": "address",
          "name": "account",
          "type": "address"
        }
      ],
      "name": "releasable",
      "outputs": [
        {
          "internalType": "uint256",
          "name": "",
          "type": "uint256"
        }
      ],
      "stateMutability": "view",
      "type": "function"
    },
    {
      "inputs": [
        {
          "internalType": "address payable",
          "name": "account",
          "type": "address"
        }
      ],
      "name": "release",
      "outputs": [],
      "stateMutability": "nonpayable",
      "type": "function"
    },
    {
      "inputs": [
        {
          "internalType": "contract IERC20Upgradeable",
          "name": "token",
          "type": "address"
        },
        {
          "internalType": "address",
          "name": "account",
          "type": "address"
        }
      ],
      "name": "release",
      "outputs": [],
      "stateMutability": "nonpayable",
      "type": "function"
    },
    {
      "inputs": [
        {
          "internalType": "contract IERC20Upgradeable",
          "name": "token",
          "type": "address"
        },
        {
          "internalType": "address",
          "name": "account",
          "type": "address"
        }
      ],
      "name": "released",
      "outputs": [
        {
          "internalType": "uint256",
          "name": "",
          "type": "uint256"
        }
      ],
      "stateMutability": "view",
      "type": "function"
    },
    {
      "inputs": [
        {
          "internalType": "address",
          "name": "account",
          "type": "address"
        }
      ],
      "name": "released",
      "outputs": [
        {
          "internalType": "uint256",
          "name": "",
          "type": "uint256"
        }
      ],
      "stateMutability": "view",
      "type": "function"
    },
    {
      "inputs": [
        {
          "internalType": "bytes32",
          "name": "role",
          "type": "bytes32"
        },
        {
          "internalType": "address",
          "name": "account",
          "type": "address"
        }
      ],
      "name": "renounceRole",
      "outputs": [],
      "stateMutability": "nonpayable",
      "type": "function"
    },
    {
      "inputs": [
        {
          "internalType": "bytes32",
          "name": "role",
          "type": "bytes32"
        },
        {
          "internalType": "address",
          "name": "account",
          "type": "address"
        }
      ],
      "name": "revokeRole",
      "outputs": [],
      "stateMutability": "nonpayable",
      "type": "function"
    },
    {
      "inputs": [
        {
          "internalType": "string",
          "name": "_uri",
          "type": "string"
        }
      ],
      "name": "setContractURI",
      "outputs": [],
      "stateMutability": "nonpayable",
      "type": "function"
    },
    {
      "inputs": [
        {
          "internalType": "address",
          "name": "account",
          "type": "address"
        }
      ],
      "name": "shares",
      "outputs": [
        {
          "internalType": "uint256",
          "name": "",
          "type": "uint256"
        }
      ],
      "stateMutability": "view",
      "type": "function"
    },
    {
      "inputs": [
        {
          "internalType": "bytes4",
          "name": "interfaceId",
          "type": "bytes4"
        }
      ],
      "name": "supportsInterface",
      "outputs": [
        {
          "internalType": "bool",
          "name": "",
          "type": "bool"
        }
      ],
      "stateMutability": "view",
      "type": "function"
    },
    {
      "inputs": [
        {
          "internalType": "contract IERC20Upgradeable",
          "name": "token",
          "type": "address"
        }
      ],
      "name": "totalReleased",
      "outputs": [
        {
          "internalType": "uint256",
          "name": "",
          "type": "uint256"
        }
      ],
      "stateMutability": "view",
      "type": "function"
    },
    {
      "inputs": [],
      "name": "totalReleased",
      "outputs": [
        {
          "internalType": "uint256",
          "name": "",
          "type": "uint256"
        }
      ],
      "stateMutability": "view",
      "type": "function"
    },
    {
      "inputs": [],
      "name": "totalShares",
      "outputs": [
        {
          "internalType": "uint256",
          "name": "",
          "type": "uint256"
        }
      ],
      "stateMutability": "view",
      "type": "function"
    },
    {
      "stateMutability": "payable",
      "type": "receive"
    }
  ],
  "bytecode": "0x60806040523480156200001157600080fd5b50600054610100900460ff1615808015620000335750600054600160ff909116105b8062000063575062000050306200013d60201b62000d871760201c565b15801562000063575060005460ff166001145b620000cb5760405162461bcd60e51b815260206004820152602e60248201527f496e697469616c697a61626c653a20636f6e747261637420697320616c72656160448201526d191e481a5b9a5d1a585b1a5e995960921b606482015260840160405180910390fd5b6000805460ff191660011790558015620000ef576000805461ff0019166101001790555b801562000136576000805461ff0019169055604051600181527f7f26b83ff96e1f2b6a682f133852f6798a09c465da95921460cefb38474024989060200160405180910390a15b506200014c565b6001600160a01b03163b151590565b6128ca806200015c6000396000f3fe6080604052600436106101d05760003560e01c80639852595c116100f7578063ca15c87311610095578063d79779b211610064578063d79779b214610627578063e33b7de31461065e578063e4fc6b6d14610674578063e8a3d4851461068957600080fd5b8063ca15c87314610595578063cb2ef6f7146105b5578063ce7c2ac2146105d0578063d547741f1461060757600080fd5b8063a3f8eace116100d1578063a3f8eace14610508578063ac9650d814610528578063b1a1443714610555578063c45ac0501461057557600080fd5b80639852595c146104a0578063a0a8e460146104d7578063a217fddf146104f357600080fd5b8063406072a91161016f5780638b83209b1161013e5780638b83209b146103e25780639010d07c1461041a57806391d148541461043a578063938e3d7b1461048057600080fd5b8063406072a91461032257806348b7504414610369578063572b6c051461038957806363453ae1146103c257600080fd5b8063248a9ca3116101ab578063248a9ca31461029c5780632f2ff15d146102cc57806336568abe146102ec5780633a98ef391461030c57600080fd5b8062dbe1091461022557806301ffc9a71461024a578063191655871461027a57600080fd5b36610220577f6ef95f06320e7a25a04a175ca677b7052bdd97131872c2192525a629f51be7706101fe6106ab565b604080516001600160a01b0390921682523460208301520160405180910390a1005b600080fd5b34801561023157600080fd5b50610131545b6040519081526020015b60405180910390f35b34801561025657600080fd5b5061026a6102653660046120f8565b6106ba565b6040519015158152602001610241565b34801561028657600080fd5b5061029a610295366004612137565b6106e5565b005b3480156102a857600080fd5b506102376102b7366004612154565b600090815260c9602052604090206001015490565b3480156102d857600080fd5b5061029a6102e736600461216d565b61075c565b3480156102f857600080fd5b5061029a61030736600461216d565b610786565b34801561031857600080fd5b5061012d54610237565b34801561032e57600080fd5b5061023761033d36600461219d565b6001600160a01b0391821660009081526101336020908152604080832093909416825291909152205490565b34801561037557600080fd5b5061029a61038436600461219d565b61081e565b34801561039557600080fd5b5061026a6103a4366004612137565b6001600160a01b031660009081526065602052604090205460ff1690565b3480156103ce57600080fd5b5061029a6103dd366004612137565b61088d565b3480156103ee57600080fd5b506104026103fd366004612154565b6108cb565b6040516001600160a01b039091168152602001610241565b34801561042657600080fd5b506104026104353660046121cb565b6108fc565b34801561044657600080fd5b5061026a61045536600461216d565b600091825260c9602090815260408084206001600160a01b0393909316845291905290205460ff1690565b34801561048c57600080fd5b5061029a61049b3660046121ed565b61091b565b3480156104ac57600080fd5b506102376104bb366004612137565b6001600160a01b03166000908152610130602052604090205490565b3480156104e357600080fd5b5060405160018152602001610241565b3480156104ff57600080fd5b50610237600081565b34801561051457600080fd5b50610237610523366004612137565b610939565b34801561053457600080fd5b5061054861054336600461225f565b61097c565b604051610241919061231a565b34801561056157600080fd5b5061029a6105703660046124b6565b610a71565b34801561058157600080fd5b5061023761059036600461219d565b610bb2565b3480156105a157600080fd5b506102376105b0366004612154565b610c7f565b3480156105c157600080fd5b506414dc1b1a5d60da1b610237565b3480156105dc57600080fd5b506102376105eb366004612137565b6001600160a01b0316600090815261012f602052604090205490565b34801561061357600080fd5b5061029a61062236600461216d565b610c96565b34801561063357600080fd5b50610237610642366004612137565b6001600160a01b03166000908152610132602052604090205490565b34801561066a57600080fd5b5061012e54610237565b34801561068057600080fd5b5061029a610cbb565b34801561069557600080fd5b5061069e610cf8565b60405161024191906125ca565b60006106b5610d96565b905090565b60006001600160e01b03198216635a05180f60e01b14806106df57506106df82610dc0565b92915050565b60006106f082610df5565b9050806107585760405162461bcd60e51b815260206004820152602b60248201527f5061796d656e7453706c69747465723a206163636f756e74206973206e6f742060448201526a191d59481c185e5b595b9d60aa1b60648201526084015b60405180910390fd5b5050565b600082815260c9602052604090206001015461077781610f58565b6107818383610f6c565b505050565b61078e6106ab565b6001600160a01b0316816001600160a01b0316146108145760405162461bcd60e51b815260206004820152602f60248201527f416363657373436f6e74726f6c3a2063616e206f6e6c792072656e6f756e636560448201527f20726f6c657320666f722073656c660000000000000000000000000000000000606482015260840161074f565b6107588282610f8e565b600061082a8383610fb0565b9050806107815760405162461bcd60e51b815260206004820152602b60248201527f5061796d656e7453706c69747465723a206163636f756e74206973206e6f742060448201526a191d59481c185e5b595b9d60aa1b606482015260840161074f565b60006108996101315490565b905060005b81811015610781576108b8836108b3836108cb565b610fb0565b50806108c3816125f3565b91505061089e565b600061013182815481106108e1576108e161260e565b6000918252602090912001546001600160a01b031692915050565b600082815260fb6020526040812061091490836111c4565b9392505050565b600061092681610f58565b61093361015f8484611feb565b50505050565b60008061094661012e5490565b6109509047612624565b90506109148382610977866001600160a01b03166000908152610130602052604090205490565b6111d0565b60608167ffffffffffffffff8111156109975761099761237c565b6040519080825280602002602001820160405280156109ca57816020015b60608152602001906001900390816109b55790505b50905060005b82811015610a6a57610a3a308585848181106109ee576109ee61260e565b9050602002810190610a00919061263c565b8080601f01602080910402602001604051908101604052809392919081815260200183838082843760009201919091525061121092505050565b828281518110610a4c57610a4c61260e565b60200260200101819052508080610a62906125f3565b9150506109d0565b5092915050565b600054610100900460ff1615808015610a915750600054600160ff909116105b80610aab5750303b158015610aab575060005460ff166001145b610b0e5760405162461bcd60e51b815260206004820152602e60248201527f496e697469616c697a61626c653a20636f6e747261637420697320616c72656160448201526d191e481a5b9a5d1a585b1a5e995960921b606482015260840161074f565b6000805460ff191660011790558015610b31576000805461ff0019166101001790555b610b3a84611304565b610b44838361133c565b8451610b589061015f90602088019061206f565b50610b64600087611375565b8015610baa576000805461ff0019169055604051600181527f7f26b83ff96e1f2b6a682f133852f6798a09c465da95921460cefb38474024989060200160405180910390a15b505050505050565b6001600160a01b0382166000908152610132602052604081205481906040516370a0823160e01b81523060048201526001600160a01b038616906370a0823190602401602060405180830381865afa158015610c12573d6000803e3d6000fd5b505050506040513d601f19601f82011682018060405250810190610c36919061268a565b610c409190612624565b6001600160a01b0380861660009081526101336020908152604080832093881683529290522054909150610c7790849083906111d0565b949350505050565b600081815260fb602052604081206106df9061137f565b600082815260c96020526040902060010154610cb181610f58565b6107818383610f8e565b6000610cc76101315490565b905060005b8181101561075857610ce5610ce0826108cb565b610df5565b5080610cf0816125f3565b915050610ccc565b61015f8054610d06906126a3565b80601f0160208091040260200160405190810160405280929190818152602001828054610d32906126a3565b8015610d7f5780601f10610d5457610100808354040283529160200191610d7f565b820191906000526020600020905b815481529060010190602001808311610d6257829003601f168201915b505050505081565b6001600160a01b03163b151590565b3360009081526065602052604081205460ff1615610dbb575060131936013560601c90565b503390565b60006001600160e01b03198216637965db0b60e01b14806106df57506301ffc9a760e01b6001600160e01b03198316146106df565b6001600160a01b038116600090815261012f60205260408120548110610e6c5760405162461bcd60e51b815260206004820152602660248201527f5061796d656e7453706c69747465723a206163636f756e7420686173206e6f2060448201526573686172657360d01b606482015260840161074f565b6000610e7861012e5490565b610e829047612624565b90506000610eab8483610977876001600160a01b03166000908152610130602052604090205490565b905080610ebc575060009392505050565b6001600160a01b0384166000908152610130602052604081208054839290610ee5908490612624565b925050819055508061012e6000828254610eff9190612624565b90915550610f0f90508482611389565b604080516001600160a01b0386168152602081018390527fdf20fd1e76bc69d672e4814fafb2c449bba3a5369d8359adf9e05e6fde87b056910160405180910390a19392505050565b610f6981610f646106ab565b6114a2565b50565b610f768282611522565b600082815260fb6020526040902061078190826115c5565b610f9882826115da565b600082815260fb60205260409020610781908261167b565b6001600160a01b038116600090815261012f602052604081205481106110275760405162461bcd60e51b815260206004820152602660248201527f5061796d656e7453706c69747465723a206163636f756e7420686173206e6f2060448201526573686172657360d01b606482015260840161074f565b6001600160a01b038316600090815261013260205260408120546040516370a0823160e01b81523060048201526001600160a01b038616906370a0823190602401602060405180830381865afa158015611085573d6000803e3d6000fd5b505050506040513d601f19601f820116820180604052508101906110a9919061268a565b6110b39190612624565b905060006110ed848361097788886001600160a01b0391821660009081526101336020908152604080832093909416825291909152205490565b9050806110ff576000925050506106df565b6001600160a01b0380861660009081526101336020908152604080832093881683529290529081208054839290611137908490612624565b90915550506001600160a01b0385166000908152610132602052604081208054839290611165908490612624565b909155506111769050858583611690565b604080516001600160a01b038681168252602082018490528716917f3be5b7a71e84ed12875d241991c70855ac5817d847039e17a9d895c1ceb0f18a910160405180910390a2949350505050565b600061091483836116f7565b61012d546001600160a01b038416600090815261012f6020526040812054909183916111fc90866126de565b61120691906126fd565b610c77919061271f565b60606001600160a01b0383163b6112785760405162461bcd60e51b815260206004820152602660248201527f416464726573733a2064656c65676174652063616c6c20746f206e6f6e2d636f6044820152651b9d1c9858dd60d21b606482015260840161074f565b600080846001600160a01b0316846040516112939190612736565b600060405180830381855af49150503d80600081146112ce576040519150601f19603f3d011682016040523d82523d6000602084013e6112d3565b606091505b50915091506112fb828260405180606001604052806027815260200161286e60279139611721565b95945050505050565b600054610100900460ff1661132b5760405162461bcd60e51b815260040161074f90612752565b61133361175a565b610f6981611783565b600054610100900460ff166113635760405162461bcd60e51b815260040161074f90612752565b61136b61175a565b6107588282611812565b6107588282610f6c565b60006106df825490565b804710156113d95760405162461bcd60e51b815260206004820152601d60248201527f416464726573733a20696e73756666696369656e742062616c616e6365000000604482015260640161074f565b6000826001600160a01b03168260405160006040518083038185875af1925050503d8060008114611426576040519150601f19603f3d011682016040523d82523d6000602084013e61142b565b606091505b50509050806107815760405162461bcd60e51b815260206004820152603a60248201527f416464726573733a20756e61626c6520746f2073656e642076616c75652c207260448201527f6563697069656e74206d61792068617665207265766572746564000000000000606482015260840161074f565b600082815260c9602090815260408083206001600160a01b038516845290915290205460ff16610758576114e0816001600160a01b0316601461195b565b6114eb83602061195b565b6040516020016114fc92919061279d565b60408051601f198184030181529082905262461bcd60e51b825261074f916004016125ca565b600082815260c9602090815260408083206001600160a01b038516845290915290205460ff1661075857600082815260c9602090815260408083206001600160a01b03851684529091529020805460ff191660011790556115816106ab565b6001600160a01b0316816001600160a01b0316837f2f8788117e7eff1d82e926ec794901d17c78024a50270940304540a733656f0d60405160405180910390a45050565b6000610914836001600160a01b038416611b04565b600082815260c9602090815260408083206001600160a01b038516845290915290205460ff161561075857600082815260c9602090815260408083206001600160a01b03851684529091529020805460ff191690556116376106ab565b6001600160a01b0316816001600160a01b0316837ff6391f5c32d9c69d2a47ea670b442974b53935d1edc7fd64eb21e047a839171b60405160405180910390a45050565b6000610914836001600160a01b038416611b53565b604080516001600160a01b038416602482015260448082018490528251808303909101815260649091019091526020810180517bffffffffffffffffffffffffffffffffffffffffffffffffffffffff1663a9059cbb60e01b179052610781908490611c46565b600082600001828154811061170e5761170e61260e565b9060005260206000200154905092915050565b60608315611730575081610914565b8251156117405782518084602001fd5b8160405162461bcd60e51b815260040161074f91906125ca565b600054610100900460ff166117815760405162461bcd60e51b815260040161074f90612752565b565b600054610100900460ff166117aa5760405162461bcd60e51b815260040161074f90612752565b60005b8151811015610758576001606560008484815181106117ce576117ce61260e565b6020908102919091018101516001600160a01b03168252810191909152604001600020805460ff19169115159190911790558061180a816125f3565b9150506117ad565b600054610100900460ff166118395760405162461bcd60e51b815260040161074f90612752565b80518251146118b05760405162461bcd60e51b815260206004820152603260248201527f5061796d656e7453706c69747465723a2070617965657320616e64207368617260448201527f6573206c656e677468206d69736d617463680000000000000000000000000000606482015260840161074f565b60008251116119015760405162461bcd60e51b815260206004820152601a60248201527f5061796d656e7453706c69747465723a206e6f20706179656573000000000000604482015260640161074f565b60005b8251811015610781576119498382815181106119225761192261260e565b602002602001015183838151811061193c5761193c61260e565b6020026020010151611d18565b80611953816125f3565b915050611904565b6060600061196a8360026126de565b611975906002612624565b67ffffffffffffffff81111561198d5761198d61237c565b6040519080825280601f01601f1916602001820160405280156119b7576020820181803683370190505b509050600360fc1b816000815181106119d2576119d261260e565b60200101906001600160f81b031916908160001a905350600f60fb1b81600181518110611a0157611a0161260e565b60200101906001600160f81b031916908160001a9053506000611a258460026126de565b611a30906001612624565b90505b6001811115611ab5577f303132333435363738396162636465660000000000000000000000000000000085600f1660108110611a7157611a7161260e565b1a60f81b828281518110611a8757611a8761260e565b60200101906001600160f81b031916908160001a90535060049490941c93611aae8161281e565b9050611a33565b5083156109145760405162461bcd60e51b815260206004820181905260248201527f537472696e67733a20686578206c656e67746820696e73756666696369656e74604482015260640161074f565b6000818152600183016020526040812054611b4b575081546001818101845560008481526020808220909301849055845484825282860190935260409020919091556106df565b5060006106df565b60008181526001830160205260408120548015611c3c576000611b7760018361271f565b8554909150600090611b8b9060019061271f565b9050818114611bf0576000866000018281548110611bab57611bab61260e565b9060005260206000200154905080876000018481548110611bce57611bce61260e565b6000918252602080832090910192909255918252600188019052604090208390555b8554869080611c0157611c01612835565b6001900381819060005260206000200160009055905585600101600086815260200190815260200160002060009055600193505050506106df565b60009150506106df565b6000611c9b826040518060400160405280602081526020017f5361666545524332303a206c6f772d6c6576656c2063616c6c206661696c6564815250856001600160a01b0316611f109092919063ffffffff16565b8051909150156107815780806020019051810190611cb9919061284b565b6107815760405162461bcd60e51b815260206004820152602a60248201527f5361666545524332303a204552433230206f7065726174696f6e20646964206e6044820152691bdd081cdd58d8d9595960b21b606482015260840161074f565b6001600160a01b038216611d835760405162461bcd60e51b815260206004820152602c60248201527f5061796d656e7453706c69747465723a206163636f756e74206973207468652060448201526b7a65726f206164647265737360a01b606482015260840161074f565b60008111611dd35760405162461bcd60e51b815260206004820152601d60248201527f5061796d656e7453706c69747465723a20736861726573206172652030000000604482015260640161074f565b6001600160a01b038216600090815261012f602052604090205415611e4e5760405162461bcd60e51b815260206004820152602b60248201527f5061796d656e7453706c69747465723a206163636f756e7420616c726561647960448201526a206861732073686172657360a81b606482015260840161074f565b6101318054600181019091557fbd987ad6ccdb7c7567f7335ea839f95dc944431abcf935b6924f70215963db7301805473ffffffffffffffffffffffffffffffffffffffff19166001600160a01b038416908117909155600090815261012f6020526040902081905561012d54611ec6908290612624565b61012d55604080516001600160a01b0384168152602081018390527f40c340f65e17194d14ddddb073d3c9f888e3cb52b5aae0c6c7706b4fbc905fac910160405180910390a15050565b6060610c778484600085856001600160a01b0385163b611f725760405162461bcd60e51b815260206004820152601d60248201527f416464726573733a2063616c6c20746f206e6f6e2d636f6e7472616374000000604482015260640161074f565b600080866001600160a01b03168587604051611f8e9190612736565b60006040518083038185875af1925050503d8060008114611fcb576040519150601f19603f3d011682016040523d82523d6000602084013e611fd0565b606091505b5091509150611fe0828286611721565b979650505050505050565b828054611ff7906126a3565b90600052602060002090601f016020900481019282612019576000855561205f565b82601f106120325782800160ff1982351617855561205f565b8280016001018555821561205f579182015b8281111561205f578235825591602001919060010190612044565b5061206b9291506120e3565b5090565b82805461207b906126a3565b90600052602060002090601f01602090048101928261209d576000855561205f565b82601f106120b657805160ff191683800117855561205f565b8280016001018555821561205f579182015b8281111561205f5782518255916020019190600101906120c8565b5b8082111561206b57600081556001016120e4565b60006020828403121561210a57600080fd5b81356001600160e01b03198116811461091457600080fd5b6001600160a01b0381168114610f6957600080fd5b60006020828403121561214957600080fd5b813561091481612122565b60006020828403121561216657600080fd5b5035919050565b6000806040838503121561218057600080fd5b82359150602083013561219281612122565b809150509250929050565b600080604083850312156121b057600080fd5b82356121bb81612122565b9150602083013561219281612122565b600080604083850312156121de57600080fd5b50508035926020909101359150565b6000806020838503121561220057600080fd5b823567ffffffffffffffff8082111561221857600080fd5b818501915085601f83011261222c57600080fd5b81358181111561223b57600080fd5b86602082850101111561224d57600080fd5b60209290920196919550909350505050565b6000806020838503121561227257600080fd5b823567ffffffffffffffff8082111561228a57600080fd5b818501915085601f83011261229e57600080fd5b8135818111156122ad57600080fd5b8660208260051b850101111561224d57600080fd5b60005b838110156122dd5781810151838201526020016122c5565b838111156109335750506000910152565b600081518084526123068160208601602086016122c2565b601f01601f19169290920160200192915050565b6000602080830181845280855180835260408601915060408160051b870101925083870160005b8281101561236f57603f1988860301845261235d8583516122ee565b94509285019290850190600101612341565b5092979650505050505050565b634e487b7160e01b600052604160045260246000fd5b604051601f8201601f1916810167ffffffffffffffff811182821017156123bb576123bb61237c565b604052919050565b600067ffffffffffffffff8211156123dd576123dd61237c565b5060051b60200190565b600082601f8301126123f857600080fd5b8135602061240d612408836123c3565b612392565b82815260059290921b8401810191818101908684111561242c57600080fd5b8286015b8481101561245057803561244381612122565b8352918301918301612430565b509695505050505050565b600082601f83011261246c57600080fd5b8135602061247c612408836123c3565b82815260059290921b8401810191818101908684111561249b57600080fd5b8286015b84811015612450578035835291830191830161249f565b600080600080600060a086880312156124ce57600080fd5b85356124d981612122565b945060208681013567ffffffffffffffff808211156124f757600080fd5b818901915089601f83011261250b57600080fd5b81358181111561251d5761251d61237c565b61252f601f8201601f19168501612392565b8181528b8583860101111561254357600080fd5b8185850186830137600091810190940181905292965060408901359291508083111561256d578182fd5b6125798a848b016123e7565b9550606089013592508083111561258e578182fd5b61259a8a848b016123e7565b945060808901359250808311156125af578182fd5b50506125bd8882890161245b565b9150509295509295909350565b60208152600061091460208301846122ee565b634e487b7160e01b600052601160045260246000fd5b6000600019821415612607576126076125dd565b5060010190565b634e487b7160e01b600052603260045260246000fd5b60008219821115612637576126376125dd565b500190565b6000808335601e1984360301811261265357600080fd5b83018035915067ffffffffffffffff82111561266e57600080fd5b60200191503681900382131561268357600080fd5b9250929050565b60006020828403121561269c57600080fd5b5051919050565b600181811c908216806126b757607f821691505b602082108114156126d857634e487b7160e01b600052602260045260246000fd5b50919050565b60008160001904831182151516156126f8576126f86125dd565b500290565b60008261271a57634e487b7160e01b600052601260045260246000fd5b500490565b600082821015612731576127316125dd565b500390565b600082516127488184602087016122c2565b9190910192915050565b6020808252602b908201527f496e697469616c697a61626c653a20636f6e7472616374206973206e6f74206960408201526a6e697469616c697a696e6760a81b606082015260800190565b7f416363657373436f6e74726f6c3a206163636f756e74200000000000000000008152600083516127d58160178501602088016122c2565b7f206973206d697373696e6720726f6c652000000000000000000000000000000060179184019182015283516128128160288401602088016122c2565b01602801949350505050565b60008161282d5761282d6125dd565b506000190190565b634e487b7160e01b600052603160045260246000fd5b60006020828403121561285d57600080fd5b8151801515811461091457600080fdfe416464726573733a206c6f772d6c6576656c2064656c65676174652063616c6c206661696c6564a264697066735822122014dc41ea40bcb0f29325d414ec81783157a94a7fa479db00f4213de1c850671a64736f6c634300080c0033",
  "linkReferences": {},
  "deployedLinkReferences": {}
}