{
  "_format": "hh-sol-artifact-1",
  "contractName": "TokenStore",
  "sourceName": "contracts/extension/TokenStore.sol",
  "abi": [
    {
      "inputs": [
        {
          "internalType": "address",
          "name": "_nativeTokenWrapper",
          "type": "address"
        }
      ],
      "stateMutability": "nonpayable",
      "type": "constructor"
    },
    {
      "inputs": [
        {
          "internalType": "uint256",
          "name": "_bundleId",
          "type": "uint256"
        }
      ],
      "name": "getTokenCountOfBundle",
      "outputs": [
        {
          "internalType": "uint256",
          "name": "",
          "type": "uint256"
        }
      ],
      "stateMutability": "view",
      "type": "function"
    },
    {
      "inputs": [
        {
          "internalType": "uint256",
          "name": "_bundleId",
          "type": "uint256"
        },
        {
          "internalType": "uint256",
          "name": "index",
          "type": "uint256"
        }
      ],
      "name": "getTokenOfBundle",
      "outputs": [
        {
          "components": [
            {
              "internalType": "address",
              "name": "assetContract",
              "type": "address"
            },
            {
              "internalType": "enum ITokenBundle.TokenType",
              "name": "tokenType",
              "type": "uint8"
            },
            {
              "internalType": "uint256",
              "name": "tokenId",
              "type": "uint256"
            },
            {
              "internalType": "uint256",
              "name": "totalAmount",
              "type": "uint256"
            }
          ],
          "internalType": "struct ITokenBundle.Token",
          "name": "",
          "type": "tuple"
        }
      ],
      "stateMutability": "view",
      "type": "function"
    },
    {
      "inputs": [
        {
          "internalType": "uint256",
          "name": "_bundleId",
          "type": "uint256"
        }
      ],
      "name": "getUriOfBundle",
      "outputs": [
        {
          "internalType": "string",
          "name": "",
          "type": "string"
        }
      ],
      "stateMutability": "view",
      "type": "function"
    },
    {
      "inputs": [
        {
          "internalType": "address",
          "name": "",
          "type": "address"
        },
        {
          "internalType": "address",
          "name": "",
          "type": "address"
        },
        {
          "internalType": "uint256[]",
          "name": "",
          "type": "uint256[]"
        },
        {
          "internalType": "uint256[]",
          "name": "",
          "type": "uint256[]"
        },
        {
          "internalType": "bytes",
          "name": "",
          "type": "bytes"
        }
      ],
      "name": "onERC1155BatchReceived",
      "outputs": [
        {
          "internalType": "bytes4",
          "name": "",
          "type": "bytes4"
        }
      ],
      "stateMutability": "nonpayable",
      "type": "function"
    },
    {
      "inputs": [
        {
          "internalType": "address",
          "name": "",
          "type": "address"
        },
        {
          "internalType": "address",
          "name": "",
          "type": "address"
        },
        {
          "internalType": "uint256",
          "name": "",
          "type": "uint256"
        },
        {
          "internalType": "uint256",
          "name": "",
          "type": "uint256"
        },
        {
          "internalType": "bytes",
          "name": "",
          "type": "bytes"
        }
      ],
      "name": "onERC1155Received",
      "outputs": [
        {
          "internalType": "bytes4",
          "name": "",
          "type": "bytes4"
        }
      ],
      "stateMutability": "nonpayable",
      "type": "function"
    },
    {
      "inputs": [
        {
          "internalType": "address",
          "name": "",
          "type": "address"
        },
        {
          "internalType": "address",
          "name": "",
          "type": "address"
        },
        {
          "internalType": "uint256",
          "name": "",
          "type": "uint256"
        },
        {
          "internalType": "bytes",
          "name": "",
          "type": "bytes"
        }
      ],
      "name": "onERC721Received",
      "outputs": [
        {
          "internalType": "bytes4",
          "name": "",
          "type": "bytes4"
        }
      ],
      "stateMutability": "nonpayable",
      "type": "function"
    },
    {
      "inputs": [
        {
          "internalType": "bytes4",
          "name": "interfaceId",
          "type": "bytes4"
        }
      ],
      "name": "supportsInterface",
      "outputs": [
        {
          "internalType": "bool",
          "name": "",
          "type": "bool"
        }
      ],
      "stateMutability": "view",
      "type": "function"
    }
  ],
  "bytecode": "0x60a060405234801561001057600080fd5b5060405161080a38038061080a83398101604081905261002f91610040565b6001600160a01b0316608052610070565b60006020828403121561005257600080fd5b81516001600160a01b038116811461006957600080fd5b9392505050565b608051610782610088600039600050506107826000f3fe608060405234801561001057600080fd5b506004361061007d5760003560e01c806361195e941161005b57806361195e9414610101578063bc197c8114610121578063d0d2fe2514610140578063f23a6e611461016e57600080fd5b806301ffc9a714610082578063150b7a02146100aa5780631da799c9146100e1575b600080fd5b61009561009036600461031a565b61018d565b60405190151581526020015b60405180910390f35b6100c86100b836600461041e565b630a85bd0160e11b949350505050565b6040516001600160e01b031990911681526020016100a1565b6100f46100ef366004610486565b6101c4565b6040516100a191906104be565b61011461010f366004610514565b610275565b6040516100a1919061052d565b6100c861012f366004610602565b63bc197c8160e01b95945050505050565b61016061014e366004610514565b60009081526020819052604090205490565b6040519081526020016100a1565b6100c861017c3660046106ac565b63f23a6e6160e01b95945050505050565b60006001600160e01b03198216630271189760e51b14806101be57506301ffc9a760e01b6001600160e01b03198316145b92915050565b6101f0604080516080810190915260008082526020820190815260200160008152602001600081525090565b600083815260208181526040808320858452600290810183529281902081516080810190925280546001600160a01b038116835291939092840191600160a01b900460ff1690811115610245576102456104a8565b6002811115610256576102566104a8565b8152600182015460208201526002909101546040909101529392505050565b600081815260208190526040902060010180546060919061029590610711565b80601f01602080910402602001604051908101604052809291908181526020018280546102c190610711565b801561030e5780601f106102e35761010080835404028352916020019161030e565b820191906000526020600020905b8154815290600101906020018083116102f157829003601f168201915b50505050509050919050565b60006020828403121561032c57600080fd5b81356001600160e01b03198116811461034457600080fd5b9392505050565b80356001600160a01b038116811461036257600080fd5b919050565b634e487b7160e01b600052604160045260246000fd5b604051601f8201601f1916810167ffffffffffffffff811182821017156103a6576103a6610367565b604052919050565b600082601f8301126103bf57600080fd5b813567ffffffffffffffff8111156103d9576103d9610367565b6103ec601f8201601f191660200161037d565b81815284602083860101111561040157600080fd5b816020850160208301376000918101602001919091529392505050565b6000806000806080858703121561043457600080fd5b61043d8561034b565b935061044b6020860161034b565b925060408501359150606085013567ffffffffffffffff81111561046e57600080fd5b61047a878288016103ae565b91505092959194509250565b6000806040838503121561049957600080fd5b50508035926020909101359150565b634e487b7160e01b600052602160045260246000fd5b81516001600160a01b0316815260208201516080820190600381106104f357634e487b7160e01b600052602160045260246000fd5b80602084015250604083015160408301526060830151606083015292915050565b60006020828403121561052657600080fd5b5035919050565b600060208083528351808285015260005b8181101561055a5785810183015185820160400152820161053e565b8181111561056c576000604083870101525b50601f01601f1916929092016040019392505050565b600082601f83011261059357600080fd5b8135602067ffffffffffffffff8211156105af576105af610367565b8160051b6105be82820161037d565b92835284810182019282810190878511156105d857600080fd5b83870192505b848310156105f7578235825291830191908301906105de565b979650505050505050565b600080600080600060a0868803121561061a57600080fd5b6106238661034b565b94506106316020870161034b565b9350604086013567ffffffffffffffff8082111561064e57600080fd5b61065a89838a01610582565b9450606088013591508082111561067057600080fd5b61067c89838a01610582565b9350608088013591508082111561069257600080fd5b5061069f888289016103ae565b9150509295509295909350565b600080600080600060a086880312156106c457600080fd5b6106cd8661034b565b94506106db6020870161034b565b93506040860135925060608601359150608086013567ffffffffffffffff81111561070557600080fd5b61069f888289016103ae565b600181811c9082168061072557607f821691505b6020821081141561074657634e487b7160e01b600052602260045260246000fd5b5091905056fea26469706673582212203e53d067cb1c4843b363a71f982b383290f25ba6a9b7fa35ee94c898e9e2cd9664736f6c634300080c0033",
  "linkReferences": {},
  "deployedLinkReferences": {}
}