{
  "_format": "hh-sol-artifact-1",
  "contractName": "TokenERC721",
  "sourceName": "contracts/token/TokenERC721.sol",
  "abi": [
    {
      "inputs": [],
      "stateMutability": "nonpayable",
      "type": "constructor"
    },
    {
      "anonymous": false,
      "inputs": [
        {
          "indexed": true,
          "internalType": "address",
          "name": "owner",
          "type": "address"
        },
        {
          "indexed": true,
          "internalType": "address",
          "name": "approved",
          "type": "address"
        },
        {
          "indexed": true,
          "internalType": "uint256",
          "name": "tokenId",
          "type": "uint256"
        }
      ],
      "name": "Approval",
      "type": "event"
    },
    {
      "anonymous": false,
      "inputs": [
        {
          "indexed": true,
          "internalType": "address",
          "name": "owner",
          "type": "address"
        },
        {
          "indexed": true,
          "internalType": "address",
          "name": "operator",
          "type": "address"
        },
        {
          "indexed": false,
          "internalType": "bool",
          "name": "approved",
          "type": "bool"
        }
      ],
      "name": "ApprovalForAll",
      "type": "event"
    },
    {
      "anonymous": false,
      "inputs": [
        {
          "indexed": true,
          "internalType": "address",
          "name": "newRoyaltyRecipient",
          "type": "address"
        },
        {
          "indexed": false,
          "internalType": "uint256",
          "name": "newRoyaltyBps",
          "type": "uint256"
        }
      ],
      "name": "DefaultRoyalty",
      "type": "event"
    },
    {
      "anonymous": false,
      "inputs": [
        {
          "indexed": false,
          "internalType": "uint8",
          "name": "version",
          "type": "uint8"
        }
      ],
      "name": "Initialized",
      "type": "event"
    },
    {
      "anonymous": false,
      "inputs": [
        {
          "indexed": true,
          "internalType": "address",
          "name": "prevOwner",
          "type": "address"
        },
        {
          "indexed": true,
          "internalType": "address",
          "name": "newOwner",
          "type": "address"
        }
      ],
      "name": "OwnerUpdated",
      "type": "event"
    },
    {
      "anonymous": false,
      "inputs": [
        {
          "indexed": true,
          "internalType": "address",
          "name": "platformFeeRecipient",
          "type": "address"
        },
        {
          "indexed": false,
          "internalType": "uint256",
          "name": "platformFeeBps",
          "type": "uint256"
        }
      ],
      "name": "PlatformFeeInfoUpdated",
      "type": "event"
    },
    {
      "anonymous": false,
      "inputs": [
        {
          "indexed": true,
          "internalType": "address",
          "name": "recipient",
          "type": "address"
        }
      ],
      "name": "PrimarySaleRecipientUpdated",
      "type": "event"
    },
    {
      "anonymous": false,
      "inputs": [
        {
          "indexed": true,
          "internalType": "bytes32",
          "name": "role",
          "type": "bytes32"
        },
        {
          "indexed": true,
          "internalType": "bytes32",
          "name": "previousAdminRole",
          "type": "bytes32"
        },
        {
          "indexed": true,
          "internalType": "bytes32",
          "name": "newAdminRole",
          "type": "bytes32"
        }
      ],
      "name": "RoleAdminChanged",
      "type": "event"
    },
    {
      "anonymous": false,
      "inputs": [
        {
          "indexed": true,
          "internalType": "bytes32",
          "name": "role",
          "type": "bytes32"
        },
        {
          "indexed": true,
          "internalType": "address",
          "name": "account",
          "type": "address"
        },
        {
          "indexed": true,
          "internalType": "address",
          "name": "sender",
          "type": "address"
        }
      ],
      "name": "RoleGranted",
      "type": "event"
    },
    {
      "anonymous": false,
      "inputs": [
        {
          "indexed": true,
          "internalType": "bytes32",
          "name": "role",
          "type": "bytes32"
        },
        {
          "indexed": true,
          "internalType": "address",
          "name": "account",
          "type": "address"
        },
        {
          "indexed": true,
          "internalType": "address",
          "name": "sender",
          "type": "address"
        }
      ],
      "name": "RoleRevoked",
      "type": "event"
    },
    {
      "anonymous": false,
      "inputs": [
        {
          "indexed": true,
          "internalType": "uint256",
          "name": "tokenId",
          "type": "uint256"
        },
        {
          "indexed": true,
          "internalType": "address",
          "name": "royaltyRecipient",
          "type": "address"
        },
        {
          "indexed": false,
          "internalType": "uint256",
          "name": "royaltyBps",
          "type": "uint256"
        }
      ],
      "name": "RoyaltyForToken",
      "type": "event"
    },
    {
      "anonymous": false,
      "inputs": [
        {
          "indexed": true,
          "internalType": "address",
          "name": "mintedTo",
          "type": "address"
        },
        {
          "indexed": true,
          "internalType": "uint256",
          "name": "tokenIdMinted",
          "type": "uint256"
        },
        {
          "indexed": false,
          "internalType": "string",
          "name": "uri",
          "type": "string"
        }
      ],
      "name": "TokensMinted",
      "type": "event"
    },
    {
      "anonymous": false,
      "inputs": [
        {
          "indexed": true,
          "internalType": "address",
          "name": "signer",
          "type": "address"
        },
        {
          "indexed": true,
          "internalType": "address",
          "name": "mintedTo",
          "type": "address"
        },
        {
          "indexed": true,
          "internalType": "uint256",
          "name": "tokenIdMinted",
          "type": "uint256"
        },
        {
          "components": [
            {
              "internalType": "address",
              "name": "to",
              "type": "address"
            },
            {
              "internalType": "address",
              "name": "royaltyRecipient",
              "type": "address"
            },
            {
              "internalType": "uint256",
              "name": "royaltyBps",
              "type": "uint256"
            },
            {
              "internalType": "address",
              "name": "primarySaleRecipient",
              "type": "address"
            },
            {
              "internalType": "string",
              "name": "uri",
              "type": "string"
            },
            {
              "internalType": "uint256",
              "name": "price",
              "type": "uint256"
            },
            {
              "internalType": "address",
              "name": "currency",
              "type": "address"
            },
            {
              "internalType": "uint128",
              "name": "validityStartTimestamp",
              "type": "uint128"
            },
            {
              "internalType": "uint128",
              "name": "validityEndTimestamp",
              "type": "uint128"
            },
            {
              "internalType": "bytes32",
              "name": "uid",
              "type": "bytes32"
            }
          ],
          "indexed": false,
          "internalType": "struct ITokenERC721.MintRequest",
          "name": "mintRequest",
          "type": "tuple"
        }
      ],
      "name": "TokensMintedWithSignature",
      "type": "event"
    },
    {
      "anonymous": false,
      "inputs": [
        {
          "indexed": true,
          "internalType": "address",
          "name": "from",
          "type": "address"
        },
        {
          "indexed": true,
          "internalType": "address",
          "name": "to",
          "type": "address"
        },
        {
          "indexed": true,
          "internalType": "uint256",
          "name": "tokenId",
          "type": "uint256"
        }
      ],
      "name": "Transfer",
      "type": "event"
    },
    {
      "inputs": [],
      "name": "DEFAULT_ADMIN_ROLE",
      "outputs": [
        {
          "internalType": "bytes32",
          "name": "",
          "type": "bytes32"
        }
      ],
      "stateMutability": "view",
      "type": "function"
    },
    {
      "inputs": [
        {
          "internalType": "address",
          "name": "to",
          "type": "address"
        },
        {
          "internalType": "uint256",
          "name": "tokenId",
          "type": "uint256"
        }
      ],
      "name": "approve",
      "outputs": [],
      "stateMutability": "nonpayable",
      "type": "function"
    },
    {
      "inputs": [
        {
          "internalType": "address",
          "name": "owner",
          "type": "address"
        }
      ],
      "name": "balanceOf",
      "outputs": [
        {
          "internalType": "uint256",
          "name": "",
          "type": "uint256"
        }
      ],
      "stateMutability": "view",
      "type": "function"
    },
    {
      "inputs": [
        {
          "internalType": "uint256",
          "name": "tokenId",
          "type": "uint256"
        }
      ],
      "name": "burn",
      "outputs": [],
      "stateMutability": "nonpayable",
      "type": "function"
    },
    {
      "inputs": [],
      "name": "contractType",
      "outputs": [
        {
          "internalType": "bytes32",
          "name": "",
          "type": "bytes32"
        }
      ],
      "stateMutability": "pure",
      "type": "function"
    },
    {
      "inputs": [],
      "name": "contractURI",
      "outputs": [
        {
          "internalType": "string",
          "name": "",
          "type": "string"
        }
      ],
      "stateMutability": "view",
      "type": "function"
    },
    {
      "inputs": [],
      "name": "contractVersion",
      "outputs": [
        {
          "internalType": "uint8",
          "name": "",
          "type": "uint8"
        }
      ],
      "stateMutability": "pure",
      "type": "function"
    },
    {
      "inputs": [
        {
          "internalType": "uint256",
          "name": "tokenId",
          "type": "uint256"
        }
      ],
      "name": "getApproved",
      "outputs": [
        {
          "internalType": "address",
          "name": "",
          "type": "address"
        }
      ],
      "stateMutability": "view",
      "type": "function"
    },
    {
      "inputs": [],
      "name": "getDefaultRoyaltyInfo",
      "outputs": [
        {
          "internalType": "address",
          "name": "",
          "type": "address"
        },
        {
          "internalType": "uint16",
          "name": "",
          "type": "uint16"
        }
      ],
      "stateMutability": "view",
      "type": "function"
    },
    {
      "inputs": [],
      "name": "getPlatformFeeInfo",
      "outputs": [
        {
          "internalType": "address",
          "name": "",
          "type": "address"
        },
        {
          "internalType": "uint16",
          "name": "",
          "type": "uint16"
        }
      ],
      "stateMutability": "view",
      "type": "function"
    },
    {
      "inputs": [
        {
          "internalType": "bytes32",
          "name": "role",
          "type": "bytes32"
        }
      ],
      "name": "getRoleAdmin",
      "outputs": [
        {
          "internalType": "bytes32",
          "name": "",
          "type": "bytes32"
        }
      ],
      "stateMutability": "view",
      "type": "function"
    },
    {
      "inputs": [
        {
          "internalType": "bytes32",
          "name": "role",
          "type": "bytes32"
        },
        {
          "internalType": "uint256",
          "name": "index",
          "type": "uint256"
        }
      ],
      "name": "getRoleMember",
      "outputs": [
        {
          "internalType": "address",
          "name": "",
          "type": "address"
        }
      ],
      "stateMutability": "view",
      "type": "function"
    },
    {
      "inputs": [
        {
          "internalType": "bytes32",
          "name": "role",
          "type": "bytes32"
        }
      ],
      "name": "getRoleMemberCount",
      "outputs": [
        {
          "internalType": "uint256",
          "name": "",
          "type": "uint256"
        }
      ],
      "stateMutability": "view",
      "type": "function"
    },
    {
      "inputs": [
        {
          "internalType": "uint256",
          "name": "_tokenId",
          "type": "uint256"
        }
      ],
      "name": "getRoyaltyInfoForToken",
      "outputs": [
        {
          "internalType": "address",
          "name": "",
          "type": "address"
        },
        {
          "internalType": "uint16",
          "name": "",
          "type": "uint16"
        }
      ],
      "stateMutability": "view",
      "type": "function"
    },
    {
      "inputs": [
        {
          "internalType": "bytes32",
          "name": "role",
          "type": "bytes32"
        },
        {
          "internalType": "address",
          "name": "account",
          "type": "address"
        }
      ],
      "name": "grantRole",
      "outputs": [],
      "stateMutability": "nonpayable",
      "type": "function"
    },
    {
      "inputs": [
        {
          "internalType": "bytes32",
          "name": "role",
          "type": "bytes32"
        },
        {
          "internalType": "address",
          "name": "account",
          "type": "address"
        }
      ],
      "name": "hasRole",
      "outputs": [
        {
          "internalType": "bool",
          "name": "",
          "type": "bool"
        }
      ],
      "stateMutability": "view",
      "type": "function"
    },
    {
      "inputs": [
        {
          "internalType": "address",
          "name": "_defaultAdmin",
          "type": "address"
        },
        {
          "internalType": "string",
          "name": "_name",
          "type": "string"
        },
        {
          "internalType": "string",
          "name": "_symbol",
          "type": "string"
        },
        {
          "internalType": "string",
          "name": "_contractURI",
          "type": "string"
        },
        {
          "internalType": "address[]",
          "name": "_trustedForwarders",
          "type": "address[]"
        },
        {
          "internalType": "address",
          "name": "_saleRecipient",
          "type": "address"
        },
        {
          "internalType": "address",
          "name": "_royaltyRecipient",
          "type": "address"
        },
        {
          "internalType": "uint128",
          "name": "_royaltyBps",
          "type": "uint128"
        },
        {
          "internalType": "uint128",
          "name": "_platformFeeBps",
          "type": "uint128"
        },
        {
          "internalType": "address",
          "name": "_platformFeeRecipient",
          "type": "address"
        }
      ],
      "name": "initialize",
      "outputs": [],
      "stateMutability": "nonpayable",
      "type": "function"
    },
    {
      "inputs": [
        {
          "internalType": "address",
          "name": "owner",
          "type": "address"
        },
        {
          "internalType": "address",
          "name": "operator",
          "type": "address"
        }
      ],
      "name": "isApprovedForAll",
      "outputs": [
        {
          "internalType": "bool",
          "name": "",
          "type": "bool"
        }
      ],
      "stateMutability": "view",
      "type": "function"
    },
    {
      "inputs": [
        {
          "internalType": "address",
          "name": "forwarder",
          "type": "address"
        }
      ],
      "name": "isTrustedForwarder",
      "outputs": [
        {
          "internalType": "bool",
          "name": "",
          "type": "bool"
        }
      ],
      "stateMutability": "view",
      "type": "function"
    },
    {
      "inputs": [
        {
          "internalType": "address",
          "name": "_to",
          "type": "address"
        },
        {
          "internalType": "string",
          "name": "_uri",
          "type": "string"
        }
      ],
      "name": "mintTo",
      "outputs": [
        {
          "internalType": "uint256",
          "name": "",
          "type": "uint256"
        }
      ],
      "stateMutability": "nonpayable",
      "type": "function"
    },
    {
      "inputs": [
        {
          "components": [
            {
              "internalType": "address",
              "name": "to",
              "type": "address"
            },
            {
              "internalType": "address",
              "name": "royaltyRecipient",
              "type": "address"
            },
            {
              "internalType": "uint256",
              "name": "royaltyBps",
              "type": "uint256"
            },
            {
              "internalType": "address",
              "name": "primarySaleRecipient",
              "type": "address"
            },
            {
              "internalType": "string",
              "name": "uri",
              "type": "string"
            },
            {
              "internalType": "uint256",
              "name": "price",
              "type": "uint256"
            },
            {
              "internalType": "address",
              "name": "currency",
              "type": "address"
            },
            {
              "internalType": "uint128",
              "name": "validityStartTimestamp",
              "type": "uint128"
            },
            {
              "internalType": "uint128",
              "name": "validityEndTimestamp",
              "type": "uint128"
            },
            {
              "internalType": "bytes32",
              "name": "uid",
              "type": "bytes32"
            }
          ],
          "internalType": "struct ITokenERC721.MintRequest",
          "name": "_req",
          "type": "tuple"
        },
        {
          "internalType": "bytes",
          "name": "_signature",
          "type": "bytes"
        }
      ],
      "name": "mintWithSignature",
      "outputs": [
        {
          "internalType": "uint256",
          "name": "tokenIdMinted",
          "type": "uint256"
        }
      ],
      "stateMutability": "payable",
      "type": "function"
    },
    {
      "inputs": [
        {
          "internalType": "bytes[]",
          "name": "data",
          "type": "bytes[]"
        }
      ],
      "name": "multicall",
      "outputs": [
        {
          "internalType": "bytes[]",
          "name": "results",
          "type": "bytes[]"
        }
      ],
      "stateMutability": "nonpayable",
      "type": "function"
    },
    {
      "inputs": [],
      "name": "name",
      "outputs": [
        {
          "internalType": "string",
          "name": "",
          "type": "string"
        }
      ],
      "stateMutability": "view",
      "type": "function"
    },
    {
      "inputs": [],
      "name": "nextTokenIdToMint",
      "outputs": [
        {
          "internalType": "uint256",
          "name": "",
          "type": "uint256"
        }
      ],
      "stateMutability": "view",
      "type": "function"
    },
    {
      "inputs": [],
      "name": "owner",
      "outputs": [
        {
          "internalType": "address",
          "name": "",
          "type": "address"
        }
      ],
      "stateMutability": "view",
      "type": "function"
    },
    {
      "inputs": [
        {
          "internalType": "uint256",
          "name": "tokenId",
          "type": "uint256"
        }
      ],
      "name": "ownerOf",
      "outputs": [
        {
          "internalType": "address",
          "name": "",
          "type": "address"
        }
      ],
      "stateMutability": "view",
      "type": "function"
    },
    {
      "inputs": [],
      "name": "platformFeeRecipient",
      "outputs": [
        {
          "internalType": "address",
          "name": "",
          "type": "address"
        }
      ],
      "stateMutability": "view",
      "type": "function"
    },
    {
      "inputs": [],
      "name": "primarySaleRecipient",
      "outputs": [
        {
          "internalType": "address",
          "name": "",
          "type": "address"
        }
      ],
      "stateMutability": "view",
      "type": "function"
    },
    {
      "inputs": [
        {
          "internalType": "bytes32",
          "name": "role",
          "type": "bytes32"
        },
        {
          "internalType": "address",
          "name": "account",
          "type": "address"
        }
      ],
      "name": "renounceRole",
      "outputs": [],
      "stateMutability": "nonpayable",
      "type": "function"
    },
    {
      "inputs": [
        {
          "internalType": "bytes32",
          "name": "role",
          "type": "bytes32"
        },
        {
          "internalType": "address",
          "name": "account",
          "type": "address"
        }
      ],
      "name": "revokeRole",
      "outputs": [],
      "stateMutability": "nonpayable",
      "type": "function"
    },
    {
      "inputs": [
        {
          "internalType": "uint256",
          "name": "tokenId",
          "type": "uint256"
        },
        {
          "internalType": "uint256",
          "name": "salePrice",
          "type": "uint256"
        }
      ],
      "name": "royaltyInfo",
      "outputs": [
        {
          "internalType": "address",
          "name": "receiver",
          "type": "address"
        },
        {
          "internalType": "uint256",
          "name": "royaltyAmount",
          "type": "uint256"
        }
      ],
      "stateMutability": "view",
      "type": "function"
    },
    {
      "inputs": [
        {
          "internalType": "address",
          "name": "from",
          "type": "address"
        },
        {
          "internalType": "address",
          "name": "to",
          "type": "address"
        },
        {
          "internalType": "uint256",
          "name": "tokenId",
          "type": "uint256"
        }
      ],
      "name": "safeTransferFrom",
      "outputs": [],
      "stateMutability": "nonpayable",
      "type": "function"
    },
    {
      "inputs": [
        {
          "internalType": "address",
          "name": "from",
          "type": "address"
        },
        {
          "internalType": "address",
          "name": "to",
          "type": "address"
        },
        {
          "internalType": "uint256",
          "name": "tokenId",
          "type": "uint256"
        },
        {
          "internalType": "bytes",
          "name": "data",
          "type": "bytes"
        }
      ],
      "name": "safeTransferFrom",
      "outputs": [],
      "stateMutability": "nonpayable",
      "type": "function"
    },
    {
      "inputs": [
        {
          "internalType": "address",
          "name": "operator",
          "type": "address"
        },
        {
          "internalType": "bool",
          "name": "approved",
          "type": "bool"
        }
      ],
      "name": "setApprovalForAll",
      "outputs": [],
      "stateMutability": "nonpayable",
      "type": "function"
    },
    {
      "inputs": [
        {
          "internalType": "string",
          "name": "_uri",
          "type": "string"
        }
      ],
      "name": "setContractURI",
      "outputs": [],
      "stateMutability": "nonpayable",
      "type": "function"
    },
    {
      "inputs": [
        {
          "internalType": "address",
          "name": "_royaltyRecipient",
          "type": "address"
        },
        {
          "internalType": "uint256",
          "name": "_royaltyBps",
          "type": "uint256"
        }
      ],
      "name": "setDefaultRoyaltyInfo",
      "outputs": [],
      "stateMutability": "nonpayable",
      "type": "function"
    },
    {
      "inputs": [
        {
          "internalType": "address",
          "name": "_newOwner",
          "type": "address"
        }
      ],
      "name": "setOwner",
      "outputs": [],
      "stateMutability": "nonpayable",
      "type": "function"
    },
    {
      "inputs": [
        {
          "internalType": "address",
          "name": "_platformFeeRecipient",
          "type": "address"
        },
        {
          "internalType": "uint256",
          "name": "_platformFeeBps",
          "type": "uint256"
        }
      ],
      "name": "setPlatformFeeInfo",
      "outputs": [],
      "stateMutability": "nonpayable",
      "type": "function"
    },
    {
      "inputs": [
        {
          "internalType": "address",
          "name": "_saleRecipient",
          "type": "address"
        }
      ],
      "name": "setPrimarySaleRecipient",
      "outputs": [],
      "stateMutability": "nonpayable",
      "type": "function"
    },
    {
      "inputs": [
        {
          "internalType": "uint256",
          "name": "_tokenId",
          "type": "uint256"
        },
        {
          "internalType": "address",
          "name": "_recipient",
          "type": "address"
        },
        {
          "internalType": "uint256",
          "name": "_bps",
          "type": "uint256"
        }
      ],
      "name": "setRoyaltyInfoForToken",
      "outputs": [],
      "stateMutability": "nonpayable",
      "type": "function"
    },
    {
      "inputs": [
        {
          "internalType": "bytes4",
          "name": "interfaceId",
          "type": "bytes4"
        }
      ],
      "name": "supportsInterface",
      "outputs": [
        {
          "internalType": "bool",
          "name": "",
          "type": "bool"
        }
      ],
      "stateMutability": "view",
      "type": "function"
    },
    {
      "inputs": [],
      "name": "symbol",
      "outputs": [
        {
          "internalType": "string",
          "name": "",
          "type": "string"
        }
      ],
      "stateMutability": "view",
      "type": "function"
    },
    {
      "inputs": [
        {
          "internalType": "uint256",
          "name": "index",
          "type": "uint256"
        }
      ],
      "name": "tokenByIndex",
      "outputs": [
        {
          "internalType": "uint256",
          "name": "",
          "type": "uint256"
        }
      ],
      "stateMutability": "view",
      "type": "function"
    },
    {
      "inputs": [
        {
          "internalType": "address",
          "name": "owner",
          "type": "address"
        },
        {
          "internalType": "uint256",
          "name": "index",
          "type": "uint256"
        }
      ],
      "name": "tokenOfOwnerByIndex",
      "outputs": [
        {
          "internalType": "uint256",
          "name": "",
          "type": "uint256"
        }
      ],
      "stateMutability": "view",
      "type": "function"
    },
    {
      "inputs": [
        {
          "internalType": "uint256",
          "name": "_tokenId",
          "type": "uint256"
        }
      ],
      "name": "tokenURI",
      "outputs": [
        {
          "internalType": "string",
          "name": "",
          "type": "string"
        }
      ],
      "stateMutability": "view",
      "type": "function"
    },
    {
      "inputs": [],
      "name": "totalSupply",
      "outputs": [
        {
          "internalType": "uint256",
          "name": "",
          "type": "uint256"
        }
      ],
      "stateMutability": "view",
      "type": "function"
    },
    {
      "inputs": [
        {
          "internalType": "address",
          "name": "from",
          "type": "address"
        },
        {
          "internalType": "address",
          "name": "to",
          "type": "address"
        },
        {
          "internalType": "uint256",
          "name": "tokenId",
          "type": "uint256"
        }
      ],
      "name": "transferFrom",
      "outputs": [],
      "stateMutability": "nonpayable",
      "type": "function"
    },
    {
      "inputs": [
        {
          "components": [
            {
              "internalType": "address",
              "name": "to",
              "type": "address"
            },
            {
              "internalType": "address",
              "name": "royaltyRecipient",
              "type": "address"
            },
            {
              "internalType": "uint256",
              "name": "royaltyBps",
              "type": "uint256"
            },
            {
              "internalType": "address",
              "name": "primarySaleRecipient",
              "type": "address"
            },
            {
              "internalType": "string",
              "name": "uri",
              "type": "string"
            },
            {
              "internalType": "uint256",
              "name": "price",
              "type": "uint256"
            },
            {
              "internalType": "address",
              "name": "currency",
              "type": "address"
            },
            {
              "internalType": "uint128",
              "name": "validityStartTimestamp",
              "type": "uint128"
            },
            {
              "internalType": "uint128",
              "name": "validityEndTimestamp",
              "type": "uint128"
            },
            {
              "internalType": "bytes32",
              "name": "uid",
              "type": "bytes32"
            }
          ],
          "internalType": "struct ITokenERC721.MintRequest",
          "name": "_req",
          "type": "tuple"
        },
        {
          "internalType": "bytes",
          "name": "_signature",
          "type": "bytes"
        }
      ],
      "name": "verify",
      "outputs": [
        {
          "internalType": "bool",
          "name": "",
          "type": "bool"
        },
        {
          "internalType": "address",
          "name": "",
          "type": "address"
        }
      ],
      "stateMutability": "view",
      "type": "function"
    }
  ],
  "bytecode": "0x60806040523480156200001157600080fd5b50600054610100900460ff1615808015620000335750600054600160ff909116105b8062000063575062000050306200013d60201b62001d4a1760201c565b15801562000063575060005460ff166001145b620000cb5760405162461bcd60e51b815260206004820152602e60248201527f496e697469616c697a61626c653a20636f6e747261637420697320616c72656160448201526d191e481a5b9a5d1a585b1a5e995960921b606482015260840160405180910390fd5b6000805460ff191660011790558015620000ef576000805461ff0019166101001790555b801562000136576000805461ff0019169055604051600181527f7f26b83ff96e1f2b6a682f133852f6798a09c465da95921460cefb38474024989060200160405180910390a15b506200014c565b6001600160a01b03163b151590565b614d4a806200015c6000396000f3fe6080604052600436106103125760003560e01c80636f4f28371161019a578063b24f2d39116100e1578063d547741f1161008a578063e8a3d48511610064578063e8a3d48514610996578063e985e9c5146109ab578063eb13554f146109f557600080fd5b8063d547741f14610917578063de90377414610937578063e15916341461097657600080fd5b8063ca15c873116100bb578063ca15c873146108a0578063cb2ef6f7146108c0578063d45573f6146108e157600080fd5b8063b24f2d3914610831578063b88d4fde14610860578063c87b56dd1461088057600080fd5b806395d89b4111610143578063a217fddf1161011d578063a217fddf146107cf578063a22cb465146107e4578063ac9650d81461080457600080fd5b806395d89b411461077e5780639bcf7a1514610793578063a0a8e460146107b357600080fd5b80639010d07c116101745780639010d07c146106f757806391d1485414610717578063938e3d7b1461075e57600080fd5b80636f4f2837146106a257806370a08231146106c25780638da5cb5b146106e257600080fd5b80632c4510f81161025e57806342966c6811610207578063572b6c05116101e1578063572b6c0514610629578063600dd5ea146106625780636352211e1461068257600080fd5b806342966c68146105a75780634cc157df146105c75780634f6ccce71461060957600080fd5b806336568abe1161023857806336568abe146105505780633b1475a71461057057806342842e0e1461058757600080fd5b80632c4510f8146104fd5780632f2ff15d146105105780632f745c591461053057600080fd5b806313af4035116102c057806323b872dd1161029a57806323b872dd1461046d578063248a9ca31461048d5780632a55205a146104be57600080fd5b806313af40351461041757806318160ddd146104375780631e7ac4881461044d57600080fd5b8063079fe40e116102f1578063079fe40e1461039c578063081812fc146103d5578063095ea7b3146103f557600080fd5b806275a3171461031757806301ffc9a71461034a57806306fdde031461037a575b600080fd5b34801561032357600080fd5b50610337610332366004614189565b610a16565b6040519081526020015b60405180910390f35b34801561035657600080fd5b5061036a6103653660046141f2565b610a56565b6040519015158152602001610341565b34801561038657600080fd5b5061038f610a82565b6040516103419190614267565b3480156103a857600080fd5b506101f9546103bd906001600160a01b031681565b6040516001600160a01b039091168152602001610341565b3480156103e157600080fd5b506103bd6103f036600461427a565b610b15565b34801561040157600080fd5b50610415610410366004614293565b610b3d565b005b34801561042357600080fd5b506104156104323660046142bd565b610c6a565b34801561044357600080fd5b506101c754610337565b34801561045957600080fd5b50610415610468366004614293565b610d50565b34801561047957600080fd5b506104156104883660046142d8565b610e19565b34801561049957600080fd5b506103376104a836600461427a565b600090815261012f602052604090206001015490565b3480156104ca57600080fd5b506104de6104d9366004614314565b610e98565b604080516001600160a01b039093168352602083019190915201610341565b61033761050b366004614336565b610ed5565b34801561051c57600080fd5b5061041561052b36600461439b565b61104b565b34801561053c57600080fd5b5061033761054b366004614293565b611071565b34801561055c57600080fd5b5061041561056b36600461439b565b611108565b34801561057c57600080fd5b506103376101f85481565b34801561059357600080fd5b506104156105a23660046142d8565b6111a4565b3480156105b357600080fd5b506104156105c236600461427a565b6111bf565b3480156105d357600080fd5b506105e76105e236600461427a565b611248565b604080516001600160a01b03909316835261ffff909116602083015201610341565b34801561061557600080fd5b5061033761062436600461427a565b6112b8565b34801561063557600080fd5b5061036a6106443660046142bd565b6001600160a01b031660009081526099602052604090205460ff1690565b34801561066e57600080fd5b5061041561067d366004614293565b61134d565b34801561068e57600080fd5b506103bd61069d36600461427a565b611413565b3480156106ae57600080fd5b506104156106bd3660046142bd565b611479565b3480156106ce57600080fd5b506103376106dd3660046142bd565b6114d0565b3480156106ee57600080fd5b506103bd611557565b34801561070357600080fd5b506103bd610712366004614314565b6115b2565b34801561072357600080fd5b5061036a61073236600461439b565b600091825261012f602090815260408084206001600160a01b0393909316845291905290205460ff1690565b34801561076a57600080fd5b506104156107793660046143c7565b6115d2565b34801561078a57600080fd5b5061038f6115f0565b34801561079f57600080fd5b506104156107ae366004614409565b611600565b3480156107bf57600080fd5b5060405160018152602001610341565b3480156107db57600080fd5b50610337600081565b3480156107f057600080fd5b506104156107ff36600461443c565b6116d9565b34801561081057600080fd5b5061082461081f366004614473565b6116eb565b60405161034191906144e8565b34801561083d57600080fd5b506101fb546101fc546001600160a01b03909116906001600160801b03166105e7565b34801561086c57600080fd5b5061041561087b3660046145e9565b6117e0565b34801561088c57600080fd5b5061038f61089b36600461427a565b611860565b3480156108ac57600080fd5b506103376108bb36600461427a565b611903565b3480156108cc57600080fd5b506a546f6b656e45524337323160a81b610337565b3480156108ed57600080fd5b506101fa546101fc546001600160a01b0390911690600160801b90046001600160801b03166105e7565b34801561092357600080fd5b5061041561093236600461439b565b61191b565b34801561094357600080fd5b50610957610952366004614336565b611941565b6040805192151583526001600160a01b03909116602083015201610341565b34801561098257600080fd5b50610415610991366004614718565b6119bc565b3480156109a257600080fd5b5061038f611cbb565b3480156109b757600080fd5b5061036a6109c636600461482b565b6001600160a01b0391821660009081526101986020908152604080832093909416825291909152205460ff1690565b348015610a0157600080fd5b506101fa546103bd906001600160a01b031681565b60007f9f2df0fed2c77648de5860a4cc508cd0818c85b8b8a1ab4ceeef8d981c8956a6610a4281611d59565b610a4d858585611d6a565b95945050505050565b6000610a6182611e2e565b80610a7c57506001600160e01b0319821663152a902d60e11b145b92915050565b60606101938054610a9290614855565b80601f0160208091040260200160405190810160405280929190818152602001828054610abe90614855565b8015610b0b5780601f10610ae057610100808354040283529160200191610b0b565b820191906000526020600020905b815481529060010190602001808311610aee57829003601f168201915b5050505050905090565b6000610b2082611e53565b50600090815261019760205260409020546001600160a01b031690565b6000610b4882611413565b9050806001600160a01b0316836001600160a01b03161415610bbb5760405162461bcd60e51b815260206004820152602160248201527f4552433732313a20617070726f76616c20746f2063757272656e74206f776e656044820152603960f91b60648201526084015b60405180910390fd5b806001600160a01b0316610bcd611eb8565b6001600160a01b03161480610be95750610be9816109c6611eb8565b610c5b5760405162461bcd60e51b815260206004820152603e60248201527f4552433732313a20617070726f76652063616c6c6572206973206e6f7420746f60448201527f6b656e206f776e6572206e6f7220617070726f76656420666f7220616c6c00006064820152608401610bb2565b610c658383611ec2565b505050565b6000610c7581611d59565b6001600160a01b03821660009081527fe9104285c6851efcbc5e0e70440200efbdcab556a1c8784776780f8bb44f2931602052604090205460ff16610cfc5760405162461bcd60e51b815260206004820152601b60248201527f6e6577206f776e6572206e6f74206d6f64756c652061646d696e2e00000000006044820152606401610bb2565b6101f780546001600160a01b038481166001600160a01b0319831681179093556040519116919082907f8292fce18fa69edf4db7b94ea2e58241df0ae57f97e0a6c9b29067028bf92d7690600090a3505050565b6000610d5b81611d59565b612710821115610d9f5760405162461bcd60e51b815260206004820152600f60248201526e65786365656473204d41585f42505360881b6044820152606401610bb2565b6101fc80546001600160801b031667ffffffffffffffff8416600160801b021790556101fa80546001600160a01b0319166001600160a01b0385169081179091556040518381527fe2497bd806ec41a6e0dd992c29a72efc0ef8fec9092d1978fd4a1e00b2f18304906020015b60405180910390a2505050565b610e2a610e24611eb8565b82611f31565b610e8d5760405162461bcd60e51b815260206004820152602e60248201527f4552433732313a2063616c6c6572206973206e6f7420746f6b656e206f776e6560448201526d1c881b9bdc88185c1c1c9bdd995960921b6064820152608401610bb2565b610c65838383611fb1565b600080600080610ea786611248565b90945084925061ffff169050612710610ec082876148a6565b610eca91906148c5565b925050509250929050565b600060026001541415610f2a5760405162461bcd60e51b815260206004820152601f60248201527f5265656e7472616e637947756172643a207265656e7472616e742063616c6c006044820152606401610bb2565b60026001556000610f3c85858561215b565b90506000610f4d60208701876142bd565b9050610f6581610f6060808901896148e7565b611d6a565b92506000610f7960408801602089016142bd565b6001600160a01b031614610fe9576040518060400160405280876020016020810190610fa591906142bd565b6001600160a01b0390811682526040898101356020938401526000878152610200845220835181546001600160a01b03191692169190911781559101516001909101555b610ff2866122db565b82816001600160a01b0316836001600160a01b03167f110d160a1bedeea919a88fbc4b2a9fb61b7e664084391b6ca2740db66fef80fe89604051611036919061499d565b60405180910390a45050600180559392505050565b600082815261012f602052604090206001015461106781611d59565b610c658383612493565b600061107c836114d0565b82106110de5760405162461bcd60e51b815260206004820152602b60248201527f455243373231456e756d657261626c653a206f776e657220696e646578206f7560448201526a74206f6620626f756e647360a81b6064820152608401610bb2565b506001600160a01b039190911660009081526101c560209081526040808320938352929052205490565b611110611eb8565b6001600160a01b0316816001600160a01b0316146111965760405162461bcd60e51b815260206004820152602f60248201527f416363657373436f6e74726f6c3a2063616e206f6e6c792072656e6f756e636560448201527f20726f6c657320666f722073656c6600000000000000000000000000000000006064820152608401610bb2565b6111a082826124b6565b5050565b610c65838383604051806020016040528060008152506117e0565b6111ca610e24611eb8565b61123c5760405162461bcd60e51b815260206004820152603060248201527f4552433732314275726e61626c653a2063616c6c6572206973206e6f74206f7760448201527f6e6572206e6f7220617070726f766564000000000000000000000000000000006064820152608401610bb2565b611245816124d9565b50565b600081815261020060209081526040808320815180830190925280546001600160a01b03168083526001909101549282019290925282911561129057805160208201516112ae565b6101fb546101fc546001600160a01b03909116906001600160801b03165b9250925050915091565b60006112c46101c75490565b82106113275760405162461bcd60e51b815260206004820152602c60248201527f455243373231456e756d657261626c653a20676c6f62616c20696e646578206f60448201526b7574206f6620626f756e647360a01b6064820152608401610bb2565b6101c7828154811061133b5761133b614aad565b90600052602060002001549050919050565b600061135881611d59565b61271082111561139f5760405162461bcd60e51b815260206004820152601260248201527165786365656420726f79616c74792062707360701b6044820152606401610bb2565b6101fb80546001600160a01b0319166001600160a01b0385169081179091556101fc80546fffffffffffffffffffffffffffffffff19166001600160801b0385161790556040518381527f90d7ec04bcb8978719414f82e52e4cb651db41d0e6f8cea6118c2191e6183adb90602001610e0c565b600081815261019560205260408120546001600160a01b031680610a7c5760405162461bcd60e51b815260206004820152601860248201527f4552433732313a20696e76616c696420746f6b656e20494400000000000000006044820152606401610bb2565b600061148481611d59565b6101f980546001600160a01b0319166001600160a01b0384169081179091556040517f299d17e95023f496e0ffc4909cff1a61f74bb5eb18de6f900f4155bfa1b3b33390600090a25050565b60006001600160a01b03821661153a5760405162461bcd60e51b815260206004820152602960248201527f4552433732313a2061646472657373207a65726f206973206e6f7420612076616044820152683634b21037bbb732b960b91b6064820152608401610bb2565b506001600160a01b03166000908152610196602052604090205490565b6101f7546001600160a01b031660009081527fe9104285c6851efcbc5e0e70440200efbdcab556a1c8784776780f8bb44f2931602052604081205460ff1661159f5750600090565b6101f7546001600160a01b03165b905090565b6000828152610161602052604081206115cb9083612582565b9392505050565b60006115dd81611d59565b6115ea6101fd848461401e565b50505050565b60606101948054610a9290614855565b600061160b81611d59565b6127108211156116525760405162461bcd60e51b815260206004820152601260248201527165786365656420726f79616c74792062707360701b6044820152606401610bb2565b6040805180820182526001600160a01b03858116808352602080840187815260008a81526102008352869020945185546001600160a01b031916941693909317845591516001909301929092559151848152909186917f7365cf4122f072a3365c20d54eff9b38d73c096c28e1892ec8f5b0e403a0f12d910160405180910390a350505050565b6111a06116e4611eb8565b838361258e565b60608167ffffffffffffffff8111156117065761170661454a565b60405190808252806020026020018201604052801561173957816020015b60608152602001906001900390816117245790505b50905060005b828110156117d9576117a93085858481811061175d5761175d614aad565b905060200281019061176f91906148e7565b8080601f01602080910402602001604051908101604052809392919081815260200183838082843760009201919091525061265e92505050565b8282815181106117bb576117bb614aad565b602002602001018190525080806117d190614ac3565b91505061173f565b5092915050565b6117f16117eb611eb8565b83611f31565b6118545760405162461bcd60e51b815260206004820152602e60248201527f4552433732313a2063616c6c6572206973206e6f7420746f6b656e206f776e6560448201526d1c881b9bdc88185c1c1c9bdd995960921b6064820152608401610bb2565b6115ea84848484612749565b60008181526101ff6020526040902080546060919061187e90614855565b80601f01602080910402602001604051908101604052809291908181526020018280546118aa90614855565b80156118f75780601f106118cc576101008083540402835291602001916118f7565b820191906000526020600020905b8154815290600101906020018083116118da57829003601f168201915b50505050509050919050565b600081815261016160205260408120610a7c906127c7565b600082815261012f602052604090206001015461193781611d59565b610c6583836124b6565b60008060006119518686866127d1565b61012087013560009081526101fe602052604090205490915060ff161580156119b157506001600160a01b03811660009081527fa2a71de801f4f5af590dd1e71778408c512ca00170a88b45ca00ba943b31e98e602052604090205460ff165b969095509350505050565b600054610100900460ff16158080156119dc5750600054600160ff909116105b806119f65750303b1580156119f6575060005460ff166001145b611a595760405162461bcd60e51b815260206004820152602e60248201527f496e697469616c697a61626c653a20636f6e747261637420697320616c72656160448201526d191e481a5b9a5d1a585b1a5e995960921b6064820152608401610bb2565b6000805460ff191660011790558015611a7c576000805461ff0019166101001790555b611a8461282d565b611aca6040518060400160405280600b81526020016a546f6b656e45524337323160a81b815250604051806040016040528060018152602001603160f81b81525061285e565b611ad38761288f565b611add8a8a6128c7565b6101fb80546001600160a01b03199081166001600160a01b03888116919091179092556101fc80546fffffffffffffffffffffffffffffffff19166001600160801b0388161790556101fa805482168584161790556101f980549091169188169190911790558751611b57906101fd9060208b01906140a2565b50612710836001600160801b03161115611ba55760405162461bcd60e51b815260206004820152600f60248201526e65786365656473204d41585f42505360881b6044820152606401610bb2565b6101fc80546001600160801b03808616600160801b0291161790556101f780546001600160a01b038d166001600160a01b0319909116179055611be960008c6128f8565b611c137f9f2df0fed2c77648de5860a4cc508cd0818c85b8b8a1ab4ceeef8d981c8956a68c6128f8565b611c3d7f8502233096d909befbda0999bb8ea2f3a6be3c138b9fbf003752a4c8bce86f6c8c6128f8565b611c687f8502233096d909befbda0999bb8ea2f3a6be3c138b9fbf003752a4c8bce86f6c60006128f8565b8015611cae576000805461ff0019169055604051600181527f7f26b83ff96e1f2b6a682f133852f6798a09c465da95921460cefb38474024989060200160405180910390a15b5050505050505050505050565b6101fd8054611cc990614855565b80601f0160208091040260200160405190810160405280929190818152602001828054611cf590614855565b8015611d425780601f10611d1757610100808354040283529160200191611d42565b820191906000526020600020905b815481529060010190602001808311611d2557829003601f168201915b505050505081565b6001600160a01b03163b151590565b61124581611d65611eb8565b612902565b6101f88054906001906000611d7f8385614ade565b909155505081611dbe5760405162461bcd60e51b815260206004820152600a60248201526932b6b83a3c903ab9349760b11b6044820152606401610bb2565b60008181526101ff60205260409020611dd890848461401e565b50611de38482612983565b80846001600160a01b03167f9d89e36eadf856db0ad9ffb5a569e07f95634dddd9501141ecf04820484ad0dc8585604051611e1f929190614af6565b60405180910390a39392505050565b60006001600160e01b0319821663780e9d6360e01b1480610a7c5750610a7c8261299d565b600081815261019560205260409020546001600160a01b03166112455760405162461bcd60e51b815260206004820152601860248201527f4552433732313a20696e76616c696420746f6b656e20494400000000000000006044820152606401610bb2565b60006115ad6129dd565b60008181526101976020526040902080546001600160a01b0319166001600160a01b0384169081179091558190611ef882611413565b6001600160a01b03167f8c5be1e5ebec7d5bd14f71427d1e84f3dd0314c0f7b2291e5b200ac8c7c3b92560405160405180910390a45050565b600080611f3d83611413565b9050806001600160a01b0316846001600160a01b03161480611f8557506001600160a01b038082166000908152610198602090815260408083209388168352929052205460ff165b80611fa95750836001600160a01b0316611f9e84610b15565b6001600160a01b0316145b949350505050565b826001600160a01b0316611fc482611413565b6001600160a01b0316146120285760405162461bcd60e51b815260206004820152602560248201527f4552433732313a207472616e736665722066726f6d20696e636f72726563742060448201526437bbb732b960d91b6064820152608401610bb2565b6001600160a01b03821661208a5760405162461bcd60e51b8152602060048201526024808201527f4552433732313a207472616e7366657220746f20746865207a65726f206164646044820152637265737360e01b6064820152608401610bb2565b612095838383612a07565b6120a0600082611ec2565b6001600160a01b0383166000908152610196602052604081208054600192906120ca908490614b0a565b90915550506001600160a01b0382166000908152610196602052604081208054600192906120f9908490614ade565b90915550506000818152610195602052604080822080546001600160a01b0319166001600160a01b0386811691821790925591518493918716917fddf252ad1be2c89b69c2b068fc378daa952ba7f163c4a11628f55a4df523b3ef91a4505050565b600080600061216b868686611941565b91509150816121bc5760405162461bcd60e51b815260206004820152601160248201527f696e76616c6964207369676e61747572650000000000000000000000000000006044820152606401610bb2565b426121ce610100880160e08901614b21565b6001600160801b0316111580156121ff5750426121f361012088016101008901614b21565b6001600160801b031610155b61224b5760405162461bcd60e51b815260206004820152600f60248201527f72657175657374206578706972656400000000000000000000000000000000006044820152606401610bb2565b600061225a60208801886142bd565b6001600160a01b031614156122b15760405162461bcd60e51b815260206004820152601360248201527f726563697069656e7420756e646566696e6564000000000000000000000000006044820152606401610bb2565b61012086013560009081526101fe60205260409020805460ff191660011790559150509392505050565b60a08101356122e75750565b6101fc5460a0820135906000906127109061231290600160801b90046001600160801b0316846148a6565b61231c91906148c5565b905073eeeeeeeeeeeeeeeeeeeeeeeeeeeeeeeeeeeeeeee61234360e0850160c086016142bd565b6001600160a01b031614156123a6578134146123a15760405162461bcd60e51b815260206004820152601660248201527f6d7573742073656e6420746f74616c2070726963652e000000000000000000006044820152606401610bb2565b6123f4565b34156123f45760405162461bcd60e51b815260206004820152601260248201527f6d73672076616c7565206e6f74207a65726f00000000000000000000000000006044820152606401610bb2565b60008061240760808601606087016142bd565b6001600160a01b03161461242a5761242560808501606086016142bd565b612438565b6101f9546001600160a01b03165b905061246861244d60e0860160c087016142bd565b612455611eb8565b6101fa546001600160a01b031685612b62565b6115ea61247b60e0860160c087016142bd565b612483611eb8565b8361248e8688614b0a565b612b62565b61249d8282612bac565b600082815261016160205260409020610c659082612c51565b6124c08282612c66565b600082815261016160205260409020610c659082612d09565b60006124e482611413565b90506124f281600084612a07565b6124fd600083611ec2565b6001600160a01b038116600090815261019660205260408120805460019290612527908490614b0a565b90915550506000828152610195602052604080822080546001600160a01b0319169055518391906001600160a01b038416907fddf252ad1be2c89b69c2b068fc378daa952ba7f163c4a11628f55a4df523b3ef908390a45050565b60006115cb8383612d1e565b816001600160a01b0316836001600160a01b031614156125f05760405162461bcd60e51b815260206004820152601960248201527f4552433732313a20617070726f766520746f2063616c6c6572000000000000006044820152606401610bb2565b6001600160a01b0383811660008181526101986020908152604080832094871680845294825291829020805460ff191686151590811790915591519182527f17307eab39ab6107e8899845ad3d59bd9653f200f220920489ca2b5937696c31910160405180910390a3505050565b60606001600160a01b0383163b6126c65760405162461bcd60e51b815260206004820152602660248201527f416464726573733a2064656c65676174652063616c6c20746f206e6f6e2d636f6044820152651b9d1c9858dd60d21b6064820152608401610bb2565b600080846001600160a01b0316846040516126e19190614b3c565b600060405180830381855af49150503d806000811461271c576040519150601f19603f3d011682016040523d82523d6000602084013e612721565b606091505b5091509150610a4d8282604051806060016040528060278152602001614cee60279139612d48565b612754848484611fb1565b61276084848484612d81565b6115ea5760405162461bcd60e51b815260206004820152603260248201527f4552433732313a207472616e7366657220746f206e6f6e20455243373231526560448201527131b2b4bb32b91034b6b83632b6b2b73a32b960711b6064820152608401610bb2565b6000610a7c825490565b6000611fa983838080601f016020809104026020016040519081016040528093929190818152602001838380828437600092019190915250612827925061281b9150889050612ed1565b8051906020012061300b565b90613059565b600054610100900460ff166128545760405162461bcd60e51b8152600401610bb290614b58565b61285c61307d565b565b600054610100900460ff166128855760405162461bcd60e51b8152600401610bb290614b58565b6111a082826130aa565b600054610100900460ff166128b65760405162461bcd60e51b8152600401610bb290614b58565b6128be6130eb565b61124581613112565b600054610100900460ff166128ee5760405162461bcd60e51b8152600401610bb290614b58565b6111a082826131a1565b6111a08282612493565b600082815261012f602090815260408083206001600160a01b038516845290915290205460ff166111a057612941816001600160a01b031660146131f1565b61294c8360206131f1565b60405160200161295d929190614ba3565b60408051601f198184030181529082905262461bcd60e51b8252610bb291600401614267565b6111a082826040518060200160405280600081525061339a565b60006001600160e01b031982166380ac58cd60e01b14806129ce57506001600160e01b03198216635b5e139f60e01b145b80610a7c5750610a7c82613418565b3360009081526099602052604081205460ff1615612a02575060131936013560601c90565b503390565b612a1283838361343d565b600080527fdf45e191c6a8bff7d5b2484d5c1deccbd5b2abc06a2abf694394baf9d01cb5e56020527f2b85be2befc2dd713b2f771c3d841437400c04e85bacc15958c6dcadb2aa5c045460ff16158015612a7457506001600160a01b03831615155b8015612a8857506001600160a01b03821615155b15610c65576001600160a01b03831660009081527fdf45e191c6a8bff7d5b2484d5c1deccbd5b2abc06a2abf694394baf9d01cb5e5602052604090205460ff1680612b0a57506001600160a01b03821660009081527fdf45e191c6a8bff7d5b2484d5c1deccbd5b2abc06a2abf694394baf9d01cb5e5602052604090205460ff165b610c655760405162461bcd60e51b815260206004820152602360248201527f7265737472696374656420746f205452414e534645525f524f4c4520686f6c6460448201526265727360e81b6064820152608401610bb2565b80612b6c576115ea565b6001600160a01b03841673eeeeeeeeeeeeeeeeeeeeeeeeeeeeeeeeeeeeeeee1415612ba057612b9b82826134f7565b6115ea565b6115ea8484848461359a565b600082815261012f602090815260408083206001600160a01b038516845290915290205460ff166111a057600082815261012f602090815260408083206001600160a01b03851684529091529020805460ff19166001179055612c0d611eb8565b6001600160a01b0316816001600160a01b0316837f2f8788117e7eff1d82e926ec794901d17c78024a50270940304540a733656f0d60405160405180910390a45050565b60006115cb836001600160a01b0384166135f3565b600082815261012f602090815260408083206001600160a01b038516845290915290205460ff16156111a057600082815261012f602090815260408083206001600160a01b03851684529091529020805460ff19169055612cc5611eb8565b6001600160a01b0316816001600160a01b0316837ff6391f5c32d9c69d2a47ea670b442974b53935d1edc7fd64eb21e047a839171b60405160405180910390a45050565b60006115cb836001600160a01b038416613642565b6000826000018281548110612d3557612d35614aad565b9060005260206000200154905092915050565b60608315612d575750816115cb565b825115612d675782518084602001fd5b8160405162461bcd60e51b8152600401610bb29190614267565b60006001600160a01b0384163b15612ec657836001600160a01b031663150b7a02612daa611eb8565b8786866040518563ffffffff1660e01b8152600401612dcc9493929190614c24565b6020604051808303816000875af1925050508015612e07575060408051601f3d908101601f19168201909252612e0491810190614c60565b60015b612eac573d808015612e35576040519150601f19603f3d011682016040523d82523d6000602084013e612e3a565b606091505b508051612ea45760405162461bcd60e51b815260206004820152603260248201527f4552433732313a207472616e7366657220746f206e6f6e20455243373231526560448201527131b2b4bb32b91034b6b83632b6b2b73a32b960711b6064820152608401610bb2565b805181602001fd5b6001600160e01b031916630a85bd0160e11b149050611fa9565b506001949350505050565b60607f86633b4ffa94b7c3d316ca70d7d2700f3fdfa7a7806efd31499b513d9176692e612f0160208401846142bd565b612f1160408501602086016142bd565b6040850135612f2660808701606088016142bd565b612f3360808801886148e7565b604051612f41929190614c7d565b60405190819003902060a0880135612f5f60e08a0160c08b016142bd565b612f706101008b0160e08c01614b21565b612f826101208c016101008d01614b21565b60408051602081019b909b526001600160a01b03998a16908b015296881660608a0152608089019590955292861660a088015260c087019190915260e08601529092166101008401526001600160801b03918216610120808501919091529116610140830152830135610160820152610180016040516020818303038152906040529050919050565b6000610a7c613018613735565b8360405161190160f01b6020820152602281018390526042810182905260009060620160405160208183030381529060405280519060200120905092915050565b600080600061306885856137b0565b91509150613075816137f6565b509392505050565b600054610100900460ff166130a45760405162461bcd60e51b8152600401610bb290614b58565b60018055565b600054610100900460ff166130d15760405162461bcd60e51b8152600401610bb290614b58565b815160209283012081519190920120603391909155603455565b600054610100900460ff1661285c5760405162461bcd60e51b8152600401610bb290614b58565b600054610100900460ff166131395760405162461bcd60e51b8152600401610bb290614b58565b60005b81518110156111a05760016099600084848151811061315d5761315d614aad565b6020908102919091018101516001600160a01b03168252810191909152604001600020805460ff19169115159190911790558061319981614ac3565b91505061313c565b600054610100900460ff166131c85760405162461bcd60e51b8152600401610bb290614b58565b81516131dc906101939060208501906140a2565b508051610c65906101949060208401906140a2565b606060006132008360026148a6565b61320b906002614ade565b67ffffffffffffffff8111156132235761322361454a565b6040519080825280601f01601f19166020018201604052801561324d576020820181803683370190505b509050600360fc1b8160008151811061326857613268614aad565b60200101906001600160f81b031916908160001a905350600f60fb1b8160018151811061329757613297614aad565b60200101906001600160f81b031916908160001a90535060006132bb8460026148a6565b6132c6906001614ade565b90505b600181111561334b577f303132333435363738396162636465660000000000000000000000000000000085600f166010811061330757613307614aad565b1a60f81b82828151811061331d5761331d614aad565b60200101906001600160f81b031916908160001a90535060049490941c9361334481614c8d565b90506132c9565b5083156115cb5760405162461bcd60e51b815260206004820181905260248201527f537472696e67733a20686578206c656e67746820696e73756666696369656e746044820152606401610bb2565b6133a483836139b1565b6133b16000848484612d81565b610c655760405162461bcd60e51b815260206004820152603260248201527f4552433732313a207472616e7366657220746f206e6f6e20455243373231526560448201527131b2b4bb32b91034b6b83632b6b2b73a32b960711b6064820152608401610bb2565b60006001600160e01b03198216635a05180f60e01b1480610a7c5750610a7c82613b02565b6001600160a01b03831661349a57613495816101c7805460008381526101c860205260408120829055600182018355919091527fff6df30967a6a678f565c59a19e91e5c0dbb20cfe9f9bf26d7da6dea0fffa24c0155565b6134bd565b816001600160a01b0316836001600160a01b0316146134bd576134bd8382613b37565b6001600160a01b0382166134d457610c6581613bd9565b826001600160a01b0316826001600160a01b031614610c6557610c658282613c8e565b6000826001600160a01b03168260405160006040518083038185875af1925050503d8060008114613544576040519150601f19603f3d011682016040523d82523d6000602084013e613549565b606091505b5050905080610c655760405162461bcd60e51b815260206004820152601c60248201527f6e617469766520746f6b656e207472616e73666572206661696c6564000000006044820152606401610bb2565b816001600160a01b0316836001600160a01b031614156135b9576115ea565b6001600160a01b0383163014156135de57612b9b6001600160a01b0385168383613cd4565b6115ea6001600160a01b038516848484613d4c565b600081815260018301602052604081205461363a57508154600181810184556000848152602080822090930184905584548482528286019093526040902091909155610a7c565b506000610a7c565b6000818152600183016020526040812054801561372b576000613666600183614b0a565b855490915060009061367a90600190614b0a565b90508181146136df57600086600001828154811061369a5761369a614aad565b90600052602060002001549050808760000184815481106136bd576136bd614aad565b6000918252602080832090910192909255918252600188019052604090208390555b85548690806136f0576136f0614ca4565b600190038181906000526020600020016000905590558560010160008681526020019081526020016000206000905560019350505050610a7c565b6000915050610a7c565b60006115ad7f8b73c3c69bb8fe3d512ecc4cf759cc79239f7b179b0ffacaa9a75d522b39400f61376460335490565b6034546040805160208101859052908101839052606081018290524660808201523060a082015260009060c0016040516020818303038152906040528051906020012090509392505050565b6000808251604114156137e75760208301516040840151606085015160001a6137db87828585613d84565b945094505050506137ef565b506000905060025b9250929050565b600081600481111561380a5761380a614cba565b14156138135750565b600181600481111561382757613827614cba565b14156138755760405162461bcd60e51b815260206004820152601860248201527f45434453413a20696e76616c6964207369676e617475726500000000000000006044820152606401610bb2565b600281600481111561388957613889614cba565b14156138d75760405162461bcd60e51b815260206004820152601f60248201527f45434453413a20696e76616c6964207369676e6174757265206c656e677468006044820152606401610bb2565b60038160048111156138eb576138eb614cba565b14156139445760405162461bcd60e51b815260206004820152602260248201527f45434453413a20696e76616c6964207369676e6174757265202773272076616c604482015261756560f01b6064820152608401610bb2565b600481600481111561395857613958614cba565b14156112455760405162461bcd60e51b815260206004820152602260248201527f45434453413a20696e76616c6964207369676e6174757265202776272076616c604482015261756560f01b6064820152608401610bb2565b6001600160a01b038216613a075760405162461bcd60e51b815260206004820181905260248201527f4552433732313a206d696e7420746f20746865207a65726f20616464726573736044820152606401610bb2565b600081815261019560205260409020546001600160a01b031615613a6d5760405162461bcd60e51b815260206004820152601c60248201527f4552433732313a20746f6b656e20616c7265616479206d696e746564000000006044820152606401610bb2565b613a7960008383612a07565b6001600160a01b038216600090815261019660205260408120805460019290613aa3908490614ade565b90915550506000818152610195602052604080822080546001600160a01b0319166001600160a01b03861690811790915590518392907fddf252ad1be2c89b69c2b068fc378daa952ba7f163c4a11628f55a4df523b3ef908290a45050565b60006001600160e01b03198216637965db0b60e01b1480610a7c57506301ffc9a760e01b6001600160e01b0319831614610a7c565b60006001613b44846114d0565b613b4e9190614b0a565b60008381526101c66020526040902054909150808214613ba4576001600160a01b03841660009081526101c56020908152604080832085845282528083205484845281842081905583526101c690915290208190555b5060009182526101c6602090815260408084208490556001600160a01b0390941683526101c581528383209183525290812055565b6101c754600090613bec90600190614b0a565b60008381526101c860205260408120546101c78054939450909284908110613c1657613c16614aad565b90600052602060002001549050806101c78381548110613c3857613c38614aad565b60009182526020808320909101929092558281526101c890915260408082208490558582528120556101c7805480613c7257613c72614ca4565b6001900381819060005260206000200160009055905550505050565b6000613c99836114d0565b6001600160a01b0390931660009081526101c56020908152604080832086845282528083208590559382526101c69052919091209190915550565b6040516001600160a01b038316602482015260448101829052610c6590849063a9059cbb60e01b906064015b60408051601f198184030181529190526020810180517bffffffffffffffffffffffffffffffffffffffffffffffffffffffff166001600160e01b031990931692909217909152613e71565b6040516001600160a01b03808516602483015283166044820152606481018290526115ea9085906323b872dd60e01b90608401613d00565b6000807f7fffffffffffffffffffffffffffffff5d576e7357a4501ddfe92f46681b20a0831115613dbb5750600090506003613e68565b8460ff16601b14158015613dd357508460ff16601c14155b15613de45750600090506004613e68565b6040805160008082526020820180845289905260ff881692820192909252606081018690526080810185905260019060a0016020604051602081039080840390855afa158015613e38573d6000803e3d6000fd5b5050604051601f1901519150506001600160a01b038116613e6157600060019250925050613e68565b9150600090505b94509492505050565b6000613ec6826040518060400160405280602081526020017f5361666545524332303a206c6f772d6c6576656c2063616c6c206661696c6564815250856001600160a01b0316613f439092919063ffffffff16565b805190915015610c655780806020019051810190613ee49190614cd0565b610c655760405162461bcd60e51b815260206004820152602a60248201527f5361666545524332303a204552433230206f7065726174696f6e20646964206e6044820152691bdd081cdd58d8d9595960b21b6064820152608401610bb2565b6060611fa98484600085856001600160a01b0385163b613fa55760405162461bcd60e51b815260206004820152601d60248201527f416464726573733a2063616c6c20746f206e6f6e2d636f6e74726163740000006044820152606401610bb2565b600080866001600160a01b03168587604051613fc19190614b3c565b60006040518083038185875af1925050503d8060008114613ffe576040519150601f19603f3d011682016040523d82523d6000602084013e614003565b606091505b5091509150614013828286612d48565b979650505050505050565b82805461402a90614855565b90600052602060002090601f01602090048101928261404c5760008555614092565b82601f106140655782800160ff19823516178555614092565b82800160010185558215614092579182015b82811115614092578235825591602001919060010190614077565b5061409e929150614116565b5090565b8280546140ae90614855565b90600052602060002090601f0160209004810192826140d05760008555614092565b82601f106140e957805160ff1916838001178555614092565b82800160010185558215614092579182015b828111156140925782518255916020019190600101906140fb565b5b8082111561409e5760008155600101614117565b80356001600160a01b038116811461414257600080fd5b919050565b60008083601f84011261415957600080fd5b50813567ffffffffffffffff81111561417157600080fd5b6020830191508360208285010111156137ef57600080fd5b60008060006040848603121561419e57600080fd5b6141a78461412b565b9250602084013567ffffffffffffffff8111156141c357600080fd5b6141cf86828701614147565b9497909650939450505050565b6001600160e01b03198116811461124557600080fd5b60006020828403121561420457600080fd5b81356115cb816141dc565b60005b8381101561422a578181015183820152602001614212565b838111156115ea5750506000910152565b6000815180845261425381602086016020860161420f565b601f01601f19169290920160200192915050565b6020815260006115cb602083018461423b565b60006020828403121561428c57600080fd5b5035919050565b600080604083850312156142a657600080fd5b6142af8361412b565b946020939093013593505050565b6000602082840312156142cf57600080fd5b6115cb8261412b565b6000806000606084860312156142ed57600080fd5b6142f68461412b565b92506143046020850161412b565b9150604084013590509250925092565b6000806040838503121561432757600080fd5b50508035926020909101359150565b60008060006040848603121561434b57600080fd5b833567ffffffffffffffff8082111561436357600080fd5b90850190610140828803121561437857600080fd5b9093506020850135908082111561438e57600080fd5b506141cf86828701614147565b600080604083850312156143ae57600080fd5b823591506143be6020840161412b565b90509250929050565b600080602083850312156143da57600080fd5b823567ffffffffffffffff8111156143f157600080fd5b6143fd85828601614147565b90969095509350505050565b60008060006060848603121561441e57600080fd5b833592506143046020850161412b565b801515811461124557600080fd5b6000806040838503121561444f57600080fd5b6144588361412b565b915060208301356144688161442e565b809150509250929050565b6000806020838503121561448657600080fd5b823567ffffffffffffffff8082111561449e57600080fd5b818501915085601f8301126144b257600080fd5b8135818111156144c157600080fd5b8660208260051b85010111156144d657600080fd5b60209290920196919550909350505050565b6000602080830181845280855180835260408601915060408160051b870101925083870160005b8281101561453d57603f1988860301845261452b85835161423b565b9450928501929085019060010161450f565b5092979650505050505050565b634e487b7160e01b600052604160045260246000fd5b604051601f8201601f1916810167ffffffffffffffff811182821017156145895761458961454a565b604052919050565b600067ffffffffffffffff8311156145ab576145ab61454a565b6145be601f8401601f1916602001614560565b90508281528383830111156145d257600080fd5b828260208301376000602084830101529392505050565b600080600080608085870312156145ff57600080fd5b6146088561412b565b93506146166020860161412b565b925060408501359150606085013567ffffffffffffffff81111561463957600080fd5b8501601f8101871361464a57600080fd5b61465987823560208401614591565b91505092959194509250565b600082601f83011261467657600080fd5b6115cb83833560208501614591565b600082601f83011261469657600080fd5b8135602067ffffffffffffffff8211156146b2576146b261454a565b8160051b6146c1828201614560565b92835284810182019282810190878511156146db57600080fd5b83870192505b84831015614013576146f28361412b565b825291830191908301906146e1565b80356001600160801b038116811461414257600080fd5b6000806000806000806000806000806101408b8d03121561473857600080fd5b6147418b61412b565b995060208b013567ffffffffffffffff8082111561475e57600080fd5b61476a8e838f01614665565b9a5060408d013591508082111561478057600080fd5b61478c8e838f01614665565b995060608d01359150808211156147a257600080fd5b6147ae8e838f01614665565b985060808d01359150808211156147c457600080fd5b506147d18d828e01614685565b9650506147e060a08c0161412b565b94506147ee60c08c0161412b565b93506147fc60e08c01614701565b925061480b6101008c01614701565b915061481a6101208c0161412b565b90509295989b9194979a5092959850565b6000806040838503121561483e57600080fd5b6148478361412b565b91506143be6020840161412b565b600181811c9082168061486957607f821691505b6020821081141561488a57634e487b7160e01b600052602260045260246000fd5b50919050565b634e487b7160e01b600052601160045260246000fd5b60008160001904831182151516156148c0576148c0614890565b500290565b6000826148e257634e487b7160e01b600052601260045260246000fd5b500490565b6000808335601e198436030181126148fe57600080fd5b83018035915067ffffffffffffffff82111561491957600080fd5b6020019150368190038213156137ef57600080fd5b6000808335601e1984360301811261494557600080fd5b830160208101925035905067ffffffffffffffff81111561496557600080fd5b8036038313156137ef57600080fd5b81835281816020850137506000828201602090810191909152601f909101601f19169091010190565b602081526149be602082016149b18461412b565b6001600160a01b03169052565b60006149cc6020840161412b565b6001600160a01b038116604084015250604083013560608301526149f26060840161412b565b6001600160a01b038116608084015250614a0f608084018461492e565b6101408060a0860152614a2761016086018385614974565b925060a086013560c0860152614a3f60c0870161412b565b6001600160a01b03811660e08701529150614a5c60e08701614701565b9150610100614a75818701846001600160801b03169052565b614a80818801614701565b925050610120614a9a818701846001600160801b03169052565b9590950135939094019290925250919050565b634e487b7160e01b600052603260045260246000fd5b6000600019821415614ad757614ad7614890565b5060010190565b60008219821115614af157614af1614890565b500190565b602081526000611fa9602083018486614974565b600082821015614b1c57614b1c614890565b500390565b600060208284031215614b3357600080fd5b6115cb82614701565b60008251614b4e81846020870161420f565b9190910192915050565b6020808252602b908201527f496e697469616c697a61626c653a20636f6e7472616374206973206e6f74206960408201526a6e697469616c697a696e6760a81b606082015260800190565b7f416363657373436f6e74726f6c3a206163636f756e7420000000000000000000815260008351614bdb81601785016020880161420f565b7f206973206d697373696e6720726f6c65200000000000000000000000000000006017918401918201528351614c1881602884016020880161420f565b01602801949350505050565b60006001600160a01b03808716835280861660208401525083604083015260806060830152614c56608083018461423b565b9695505050505050565b600060208284031215614c7257600080fd5b81516115cb816141dc565b8183823760009101908152919050565b600081614c9c57614c9c614890565b506000190190565b634e487b7160e01b600052603160045260246000fd5b634e487b7160e01b600052602160045260246000fd5b600060208284031215614ce257600080fd5b81516115cb8161442e56fe416464726573733a206c6f772d6c6576656c2064656c65676174652063616c6c206661696c6564a2646970667358221220d980de2f4cd20e402663c8028a4825cfd9240f093471c8a62577dd8d6a1bd0ab64736f6c634300080c0033",
  "linkReferences": {},
  "deployedLinkReferences": {}
}