{
  "_format": "hh-sol-artifact-1",
  "contractName": "TWMultichainRegistry",
  "sourceName": "contracts/TWMultichainRegistry.sol",
  "abi": [
    {
      "inputs": [
        {
          "internalType": "address",
          "name": "_trustedForwarder",
          "type": "address"
        }
      ],
      "stateMutability": "nonpayable",
      "type": "constructor"
    },
    {
      "anonymous": false,
      "inputs": [
        {
          "indexed": true,
          "internalType": "address",
          "name": "deployer",
          "type": "address"
        },
        {
          "indexed": true,
          "internalType": "address",
          "name": "deployment",
          "type": "address"
        },
        {
          "indexed": true,
          "internalType": "uint256",
          "name": "chainId",
          "type": "uint256"
        },
        {
          "indexed": false,
          "internalType": "string",
          "name": "metadataUri",
          "type": "string"
        }
      ],
      "name": "Added",
      "type": "event"
    },
    {
      "anonymous": false,
      "inputs": [
        {
          "indexed": true,
          "internalType": "address",
          "name": "deployer",
          "type": "address"
        },
        {
          "indexed": true,
          "internalType": "address",
          "name": "deployment",
          "type": "address"
        },
        {
          "indexed": true,
          "internalType": "uint256",
          "name": "chainId",
          "type": "uint256"
        }
      ],
      "name": "Deleted",
      "type": "event"
    },
    {
      "anonymous": false,
      "inputs": [
        {
          "indexed": true,
          "internalType": "bytes32",
          "name": "role",
          "type": "bytes32"
        },
        {
          "indexed": true,
          "internalType": "bytes32",
          "name": "previousAdminRole",
          "type": "bytes32"
        },
        {
          "indexed": true,
          "internalType": "bytes32",
          "name": "newAdminRole",
          "type": "bytes32"
        }
      ],
      "name": "RoleAdminChanged",
      "type": "event"
    },
    {
      "anonymous": false,
      "inputs": [
        {
          "indexed": true,
          "internalType": "bytes32",
          "name": "role",
          "type": "bytes32"
        },
        {
          "indexed": true,
          "internalType": "address",
          "name": "account",
          "type": "address"
        },
        {
          "indexed": true,
          "internalType": "address",
          "name": "sender",
          "type": "address"
        }
      ],
      "name": "RoleGranted",
      "type": "event"
    },
    {
      "anonymous": false,
      "inputs": [
        {
          "indexed": true,
          "internalType": "bytes32",
          "name": "role",
          "type": "bytes32"
        },
        {
          "indexed": true,
          "internalType": "address",
          "name": "account",
          "type": "address"
        },
        {
          "indexed": true,
          "internalType": "address",
          "name": "sender",
          "type": "address"
        }
      ],
      "name": "RoleRevoked",
      "type": "event"
    },
    {
      "inputs": [],
      "name": "DEFAULT_ADMIN_ROLE",
      "outputs": [
        {
          "internalType": "bytes32",
          "name": "",
          "type": "bytes32"
        }
      ],
      "stateMutability": "view",
      "type": "function"
    },
    {
      "inputs": [],
      "name": "OPERATOR_ROLE",
      "outputs": [
        {
          "internalType": "bytes32",
          "name": "",
          "type": "bytes32"
        }
      ],
      "stateMutability": "view",
      "type": "function"
    },
    {
      "inputs": [
        {
          "internalType": "address",
          "name": "_deployer",
          "type": "address"
        },
        {
          "internalType": "address",
          "name": "_deployment",
          "type": "address"
        },
        {
          "internalType": "uint256",
          "name": "_chainId",
          "type": "uint256"
        },
        {
          "internalType": "string",
          "name": "metadataUri",
          "type": "string"
        }
      ],
      "name": "add",
      "outputs": [],
      "stateMutability": "nonpayable",
      "type": "function"
    },
    {
      "inputs": [
        {
          "internalType": "address",
          "name": "_deployer",
          "type": "address"
        }
      ],
      "name": "count",
      "outputs": [
        {
          "internalType": "uint256",
          "name": "deploymentCount",
          "type": "uint256"
        }
      ],
      "stateMutability": "view",
      "type": "function"
    },
    {
      "inputs": [
        {
          "internalType": "address",
          "name": "_deployer",
          "type": "address"
        }
      ],
      "name": "getAll",
      "outputs": [
        {
          "components": [
            {
              "internalType": "address",
              "name": "deploymentAddress",
              "type": "address"
            },
            {
              "internalType": "uint256",
              "name": "chainId",
              "type": "uint256"
            }
          ],
          "internalType": "struct ITWMultichainRegistry.Deployment[]",
          "name": "allDeployments",
          "type": "tuple[]"
        }
      ],
      "stateMutability": "view",
      "type": "function"
    },
    {
      "inputs": [
        {
          "internalType": "uint256",
          "name": "_chainId",
          "type": "uint256"
        },
        {
          "internalType": "address",
          "name": "_deployment",
          "type": "address"
        }
      ],
      "name": "getMetadataUri",
      "outputs": [
        {
          "internalType": "string",
          "name": "metadataUri",
          "type": "string"
        }
      ],
      "stateMutability": "view",
      "type": "function"
    },
    {
      "inputs": [
        {
          "internalType": "bytes32",
          "name": "role",
          "type": "bytes32"
        }
      ],
      "name": "getRoleAdmin",
      "outputs": [
        {
          "internalType": "bytes32",
          "name": "",
          "type": "bytes32"
        }
      ],
      "stateMutability": "view",
      "type": "function"
    },
    {
      "inputs": [
        {
          "internalType": "bytes32",
          "name": "role",
          "type": "bytes32"
        },
        {
          "internalType": "uint256",
          "name": "index",
          "type": "uint256"
        }
      ],
      "name": "getRoleMember",
      "outputs": [
        {
          "internalType": "address",
          "name": "",
          "type": "address"
        }
      ],
      "stateMutability": "view",
      "type": "function"
    },
    {
      "inputs": [
        {
          "internalType": "bytes32",
          "name": "role",
          "type": "bytes32"
        }
      ],
      "name": "getRoleMemberCount",
      "outputs": [
        {
          "internalType": "uint256",
          "name": "",
          "type": "uint256"
        }
      ],
      "stateMutability": "view",
      "type": "function"
    },
    {
      "inputs": [
        {
          "internalType": "bytes32",
          "name": "role",
          "type": "bytes32"
        },
        {
          "internalType": "address",
          "name": "account",
          "type": "address"
        }
      ],
      "name": "grantRole",
      "outputs": [],
      "stateMutability": "nonpayable",
      "type": "function"
    },
    {
      "inputs": [
        {
          "internalType": "bytes32",
          "name": "role",
          "type": "bytes32"
        },
        {
          "internalType": "address",
          "name": "account",
          "type": "address"
        }
      ],
      "name": "hasRole",
      "outputs": [
        {
          "internalType": "bool",
          "name": "",
          "type": "bool"
        }
      ],
      "stateMutability": "view",
      "type": "function"
    },
    {
      "inputs": [
        {
          "internalType": "address",
          "name": "forwarder",
          "type": "address"
        }
      ],
      "name": "isTrustedForwarder",
      "outputs": [
        {
          "internalType": "bool",
          "name": "",
          "type": "bool"
        }
      ],
      "stateMutability": "view",
      "type": "function"
    },
    {
      "inputs": [
        {
          "internalType": "bytes[]",
          "name": "data",
          "type": "bytes[]"
        }
      ],
      "name": "multicall",
      "outputs": [
        {
          "internalType": "bytes[]",
          "name": "results",
          "type": "bytes[]"
        }
      ],
      "stateMutability": "nonpayable",
      "type": "function"
    },
    {
      "inputs": [
        {
          "internalType": "address",
          "name": "_deployer",
          "type": "address"
        },
        {
          "internalType": "address",
          "name": "_deployment",
          "type": "address"
        },
        {
          "internalType": "uint256",
          "name": "_chainId",
          "type": "uint256"
        }
      ],
      "name": "remove",
      "outputs": [],
      "stateMutability": "nonpayable",
      "type": "function"
    },
    {
      "inputs": [
        {
          "internalType": "bytes32",
          "name": "role",
          "type": "bytes32"
        },
        {
          "internalType": "address",
          "name": "account",
          "type": "address"
        }
      ],
      "name": "renounceRole",
      "outputs": [],
      "stateMutability": "nonpayable",
      "type": "function"
    },
    {
      "inputs": [
        {
          "internalType": "bytes32",
          "name": "role",
          "type": "bytes32"
        },
        {
          "internalType": "address",
          "name": "account",
          "type": "address"
        }
      ],
      "name": "revokeRole",
      "outputs": [],
      "stateMutability": "nonpayable",
      "type": "function"
    },
    {
      "inputs": [
        {
          "internalType": "bytes4",
          "name": "interfaceId",
          "type": "bytes4"
        }
      ],
      "name": "supportsInterface",
      "outputs": [
        {
          "internalType": "bool",
          "name": "",
          "type": "bool"
        }
      ],
      "stateMutability": "view",
      "type": "function"
    }
  ],
  "bytecode": "0x60a06040523480156200001157600080fd5b5060405162001c1138038062001c1183398101604081905262000034916200021e565b6001600160a01b038116608052620000576000620000516200005e565b6200007a565b5062000250565b6000620000756200008a60201b62000b8c1760201c565b905090565b620000868282620000c3565b5050565b6080516000906001600160a01b0316331415620000ae575060131936013560601c90565b620000756200010660201b62000bd61760201c565b620000da82826200010a60201b62000bda1760201c565b60008281526001602090815260409091206200010191839062000c79620001ac821b17901c565b505050565b3390565b6000828152602081815260408083206001600160a01b038516845290915290205460ff1662000086576000828152602081815260408083206001600160a01b03851684529091529020805460ff19166001179055620001686200005e565b6001600160a01b0316816001600160a01b0316837f2f8788117e7eff1d82e926ec794901d17c78024a50270940304540a733656f0d60405160405180910390a45050565b6000620001c3836001600160a01b038416620001cc565b90505b92915050565b60008181526001830160205260408120546200021557508154600181810184556000848152602080822090930184905584548482528286019093526040902091909155620001c6565b506000620001c6565b6000602082840312156200023157600080fd5b81516001600160a01b03811681146200024957600080fd5b9392505050565b60805161199e62000273600039600081816101c70152610b90015261199e6000f3fe608060405234801561001057600080fd5b506004361061010b5760003560e01c80639010d07c116100a2578063ca15c87311610071578063ca15c87314610294578063d547741f146102a7578063eb077342146102ba578063f4c2012d146102da578063f5b541a6146102fa57600080fd5b80639010d07c1461020a57806391d1485414610235578063a217fddf1461026c578063ac9650d81461027457600080fd5b80632f2ff15d116100de5780632f2ff15d1461019157806336568abe146101a4578063572b6c05146101b757806359e5fd04146101f757600080fd5b806301ffc9a71461011057806305d85eda14610138578063248a9ca31461015957806326c5b5161461017c575b600080fd5b61012361011e3660046113c5565b610321565b60405190151581526020015b60405180910390f35b61014b61014636600461140b565b61034c565b60405190815260200161012f565b61014b610167366004611426565b60009081526020819052604090206001015490565b61018f61018a366004611455565b6103c9565b005b61018f61019f366004611531565b61056d565b61018f6101b2366004611531565b610597565b6101236101c536600461140b565b7f00000000000000000000000000000000000000000000000000000000000000006001600160a01b0390811691161490565b61018f61020536600461155d565b610633565b61021d610218366004611599565b610791565b6040516001600160a01b03909116815260200161012f565b610123610243366004611531565b6000918252602082815260408084206001600160a01b0393909316845291905290205460ff1690565b61014b600081565b6102876102823660046115bb565b6107b0565b60405161012f919061168c565b61014b6102a2366004611426565b6108a5565b61018f6102b5366004611531565b6108bc565b6102cd6102c836600461140b565b6108e1565b60405161012f91906116ee565b6102ed6102e8366004611531565b610ad5565b60405161012f9190611746565b61014b7f97667070c54ef182b0f5858b034beac1b6f3089aa2d3188bb1e8929f4fa9b92981565b60006001600160e01b03198216635a05180f60e01b1480610346575061034682610c8e565b92915050565b6000806103596004610cc3565b905060005b818110156103c2576000610373600483610ccd565b6001600160a01b038616600090815260026020908152604080832084845290915290209091506103a290610cc3565b6103ac908561176f565b93506103bb905060018261176f565b905061035e565b5050919050565b6103f57f97667070c54ef182b0f5858b034beac1b6f3089aa2d3188bb1e8929f4fa9b929610243610cd9565b806104185750610403610cd9565b6001600160a01b0316846001600160a01b0316145b6104695760405162461bcd60e51b815260206004820152601960248201527f6e6f74206f70657261746f72206f72206465706c6f7965722e0000000000000060448201526064015b60405180910390fd5b6001600160a01b038416600090815260026020908152604080832085845290915281206104969085610c79565b9050806104d55760405162461bcd60e51b815260206004820152600d60248201526c19985a5b1959081d1bc8185919609a1b6044820152606401610460565b6104e0600484610ce3565b5081511561051a5760008381526003602090815260408083206001600160a01b0388168452825290912083516105189285019061132c565b505b82846001600160a01b0316866001600160a01b03167f58089736ce1376be8f64c745948361e7908eb6fe512f9e69c0b041f7a70b535c8560405161055e9190611746565b60405180910390a45050505050565b60008281526020819052604090206001015461058881610cef565b6105928383610d03565b505050565b61059f610cd9565b6001600160a01b0316816001600160a01b0316146106255760405162461bcd60e51b815260206004820152602f60248201527f416363657373436f6e74726f6c3a2063616e206f6e6c792072656e6f756e636560448201527f20726f6c657320666f722073656c6600000000000000000000000000000000006064820152608401610460565b61062f8282610d25565b5050565b61065f7f97667070c54ef182b0f5858b034beac1b6f3089aa2d3188bb1e8929f4fa9b929610243610cd9565b80610682575061066d610cd9565b6001600160a01b0316836001600160a01b0316145b6106ce5760405162461bcd60e51b815260206004820152601960248201527f6e6f74206f70657261746f72206f72206465706c6f7965722e000000000000006044820152606401610460565b6001600160a01b038316600090815260026020908152604080832084845290915281206106fb9084610d43565b90508061074a5760405162461bcd60e51b815260206004820152601060248201527f6661696c656420746f2072656d6f7665000000000000000000000000000000006044820152606401610460565b81836001600160a01b0316856001600160a01b03167fdc1791450b87438fe3505803e0a117aca5918e9d01a3afb374160b3a36cbf53260405160405180910390a450505050565b60008281526001602052604081206107a99083610ccd565b9392505050565b60608167ffffffffffffffff8111156107cb576107cb61143f565b6040519080825280602002602001820160405280156107fe57816020015b60608152602001906001900390816107e95790505b50905060005b8281101561089e5761086e3085858481811061082257610822611787565b9050602002810190610834919061179d565b8080601f016020809104026020016040519081016040528093929190818152602001838380828437600092019190915250610d5892505050565b82828151811061088057610880611787565b60200260200101819052508080610896906117eb565b915050610804565b5092915050565b600081815260016020526040812061034690610cc3565b6000828152602081905260409020600101546108d781610cef565b6105928383610d25565b60606000806108f06004610cc3565b905060005b8181101561095957600061090a600483610ccd565b6001600160a01b0387166000908152600260209081526040808320848452909152902090915061093990610cc3565b610943908561176f565b9350610952905060018261176f565b90506108f5565b508167ffffffffffffffff8111156109735761097361143f565b6040519080825280602002602001820160405280156109b857816020015b60408051808201909152600080825260208201528152602001906001900390816109915790505b5092506000805b82811015610acc5760006109d4600483610ccd565b6001600160a01b0388166000908152600260209081526040808320848452909152812091925090610a0490610cc3565b6001600160a01b0389166000908152600260209081526040808320868452909152812091925090610a3490610d7d565b905060005b82811015610ab4576040518060400160405280838381518110610a5e57610a5e611787565b60200260200101516001600160a01b0316815260200185815250898781518110610a8a57610a8a611787565b6020908102919091010152610aa060018761176f565b9550610aad60018261176f565b9050610a39565b50505050600181610ac5919061176f565b90506109bf565b50505050919050565b60008281526003602090815260408083206001600160a01b03851684529091529020805460609190610b0690611806565b80601f0160208091040260200160405190810160405280929190818152602001828054610b3290611806565b8015610b7f5780601f10610b5457610100808354040283529160200191610b7f565b820191906000526020600020905b815481529060010190602001808311610b6257829003601f168201915b5050505050905092915050565b60007f00000000000000000000000000000000000000000000000000000000000000006001600160a01b0316331415610bcc575060131936013560601c90565b503390565b905090565b3390565b6000828152602081815260408083206001600160a01b038516845290915290205460ff1661062f576000828152602081815260408083206001600160a01b03851684529091529020805460ff19166001179055610c35610cd9565b6001600160a01b0316816001600160a01b0316837f2f8788117e7eff1d82e926ec794901d17c78024a50270940304540a733656f0d60405160405180910390a45050565b60006107a9836001600160a01b038416610d8a565b60006001600160e01b03198216637965db0b60e01b148061034657506301ffc9a760e01b6001600160e01b0319831614610346565b6000610346825490565b60006107a98383610dd9565b6000610bd1610b8c565b60006107a98383610d8a565b610d0081610cfb610cd9565b610e03565b50565b610d0d8282610bda565b60008281526001602052604090206105929082610c79565b610d2f8282610e81565b600082815260016020526040902061059290825b60006107a9836001600160a01b038416610f1e565b60606107a9838360405180606001604052806027815260200161194260279139611011565b606060006107a9836110ee565b6000818152600183016020526040812054610dd157508154600181810184556000848152602080822090930184905584548482528286019093526040902091909155610346565b506000610346565b6000826000018281548110610df057610df0611787565b9060005260206000200154905092915050565b6000828152602081815260408083206001600160a01b038516845290915290205460ff1661062f57610e3f816001600160a01b0316601461114a565b610e4a83602061114a565b604051602001610e5b929190611841565b60408051601f198184030181529082905262461bcd60e51b825261046091600401611746565b6000828152602081815260408083206001600160a01b038516845290915290205460ff161561062f576000828152602081815260408083206001600160a01b03851684529091529020805460ff19169055610eda610cd9565b6001600160a01b0316816001600160a01b0316837ff6391f5c32d9c69d2a47ea670b442974b53935d1edc7fd64eb21e047a839171b60405160405180910390a45050565b60008181526001830160205260408120548015611007576000610f426001836118c2565b8554909150600090610f56906001906118c2565b9050818114610fbb576000866000018281548110610f7657610f76611787565b9060005260206000200154905080876000018481548110610f9957610f99611787565b6000918252602080832090910192909255918252600188019052604090208390555b8554869080610fcc57610fcc6118d9565b600190038181906000526020600020016000905590558560010160008681526020019081526020016000206000905560019350505050610346565b6000915050610346565b60606001600160a01b0384163b6110795760405162461bcd60e51b815260206004820152602660248201527f416464726573733a2064656c65676174652063616c6c20746f206e6f6e2d636f6044820152651b9d1c9858dd60d21b6064820152608401610460565b600080856001600160a01b03168560405161109491906118ef565b600060405180830381855af49150503d80600081146110cf576040519150601f19603f3d011682016040523d82523d6000602084013e6110d4565b606091505b50915091506110e48282866112f3565b9695505050505050565b60608160000180548060200260200160405190810160405280929190818152602001828054801561113e57602002820191906000526020600020905b81548152602001906001019080831161112a575b50505050509050919050565b6060600061115983600261190b565b61116490600261176f565b67ffffffffffffffff81111561117c5761117c61143f565b6040519080825280601f01601f1916602001820160405280156111a6576020820181803683370190505b509050600360fc1b816000815181106111c1576111c1611787565b60200101906001600160f81b031916908160001a905350600f60fb1b816001815181106111f0576111f0611787565b60200101906001600160f81b031916908160001a905350600061121484600261190b565b61121f90600161176f565b90505b60018111156112a4577f303132333435363738396162636465660000000000000000000000000000000085600f166010811061126057611260611787565b1a60f81b82828151811061127657611276611787565b60200101906001600160f81b031916908160001a90535060049490941c9361129d8161192a565b9050611222565b5083156107a95760405162461bcd60e51b815260206004820181905260248201527f537472696e67733a20686578206c656e67746820696e73756666696369656e746044820152606401610460565b606083156113025750816107a9565b8251156113125782518084602001fd5b8160405162461bcd60e51b81526004016104609190611746565b82805461133890611806565b90600052602060002090601f01602090048101928261135a57600085556113a0565b82601f1061137357805160ff19168380011785556113a0565b828001600101855582156113a0579182015b828111156113a0578251825591602001919060010190611385565b506113ac9291506113b0565b5090565b5b808211156113ac57600081556001016113b1565b6000602082840312156113d757600080fd5b81356001600160e01b0319811681146107a957600080fd5b80356001600160a01b038116811461140657600080fd5b919050565b60006020828403121561141d57600080fd5b6107a9826113ef565b60006020828403121561143857600080fd5b5035919050565b634e487b7160e01b600052604160045260246000fd5b6000806000806080858703121561146b57600080fd5b611474856113ef565b9350611482602086016113ef565b925060408501359150606085013567ffffffffffffffff808211156114a657600080fd5b818701915087601f8301126114ba57600080fd5b8135818111156114cc576114cc61143f565b604051601f8201601f19908116603f011681019083821181831017156114f4576114f461143f565b816040528281528a602084870101111561150d57600080fd5b82602086016020830137600060208483010152809550505050505092959194509250565b6000806040838503121561154457600080fd5b82359150611554602084016113ef565b90509250929050565b60008060006060848603121561157257600080fd5b61157b846113ef565b9250611589602085016113ef565b9150604084013590509250925092565b600080604083850312156115ac57600080fd5b50508035926020909101359150565b600080602083850312156115ce57600080fd5b823567ffffffffffffffff808211156115e657600080fd5b818501915085601f8301126115fa57600080fd5b81358181111561160957600080fd5b8660208260051b850101111561161e57600080fd5b60209290920196919550909350505050565b60005b8381101561164b578181015183820152602001611633565b8381111561165a576000848401525b50505050565b60008151808452611678816020860160208601611630565b601f01601f19169290920160200192915050565b6000602080830181845280855180835260408601915060408160051b870101925083870160005b828110156116e157603f198886030184526116cf858351611660565b945092850192908501906001016116b3565b5092979650505050505050565b602080825282518282018190526000919060409081850190868401855b8281101561173957815180516001600160a01b0316855286015186850152928401929085019060010161170b565b5091979650505050505050565b6020815260006107a96020830184611660565b634e487b7160e01b600052601160045260246000fd5b6000821982111561178257611782611759565b500190565b634e487b7160e01b600052603260045260246000fd5b6000808335601e198436030181126117b457600080fd5b83018035915067ffffffffffffffff8211156117cf57600080fd5b6020019150368190038213156117e457600080fd5b9250929050565b60006000198214156117ff576117ff611759565b5060010190565b600181811c9082168061181a57607f821691505b6020821081141561183b57634e487b7160e01b600052602260045260246000fd5b50919050565b7f416363657373436f6e74726f6c3a206163636f756e7420000000000000000000815260008351611879816017850160208801611630565b7f206973206d697373696e6720726f6c652000000000000000000000000000000060179184019182015283516118b6816028840160208801611630565b01602801949350505050565b6000828210156118d4576118d4611759565b500390565b634e487b7160e01b600052603160045260246000fd5b60008251611901818460208701611630565b9190910192915050565b600081600019048311821515161561192557611925611759565b500290565b60008161193957611939611759565b50600019019056fe416464726573733a206c6f772d6c6576656c2064656c65676174652063616c6c206661696c6564a2646970667358221220cc94b5aa2d23aa9758bcfc0e18b48d476609db804418d71795f1eb0dcd682cbb64736f6c634300080c0033",
  "linkReferences": {},
  "deployedLinkReferences": {}
}