{
  "_format": "hh-sol-artifact-1",
  "contractName": "Greeter",
  "sourceName": "contracts/Greeter.sol",
  "abi": [
    {
      "inputs": [],
      "stateMutability": "nonpayable",
      "type": "constructor"
    },
    {
      "anonymous": false,
      "inputs": [
        {
          "indexed": true,
          "internalType": "address",
          "name": "owner",
          "type": "address"
        },
        {
          "indexed": true,
          "internalType": "address",
          "name": "spender",
          "type": "address"
        },
        {
          "indexed": false,
          "internalType": "uint256",
          "name": "value",
          "type": "uint256"
        }
      ],
      "name": "Approval",
      "type": "event"
    },
    {
      "anonymous": false,
      "inputs": [
        {
          "indexed": false,
          "internalType": "address",
          "name": "prevOwner",
          "type": "address"
        },
        {
          "indexed": false,
          "internalType": "address",
          "name": "newOwner",
          "type": "address"
        }
      ],
      "name": "OwnerUpdated",
      "type": "event"
    },
    {
      "anonymous": false,
      "inputs": [
        {
          "indexed": true,
          "internalType": "address",
          "name": "from",
          "type": "address"
        },
        {
          "indexed": true,
          "internalType": "address",
          "name": "to",
          "type": "address"
        },
        {
          "indexed": false,
          "internalType": "uint256",
          "name": "value",
          "type": "uint256"
        }
      ],
      "name": "Transfer",
      "type": "event"
    },
    {
      "inputs": [
        {
          "internalType": "address",
          "name": "owner",
          "type": "address"
        },
        {
          "internalType": "address",
          "name": "spender",
          "type": "address"
        }
      ],
      "name": "allowance",
      "outputs": [
        {
          "internalType": "uint256",
          "name": "",
          "type": "uint256"
        }
      ],
      "stateMutability": "view",
      "type": "function"
    },
    {
      "inputs": [
        {
          "internalType": "address",
          "name": "spender",
          "type": "address"
        },
        {
          "internalType": "uint256",
          "name": "amount",
          "type": "uint256"
        }
      ],
      "name": "approve",
      "outputs": [
        {
          "internalType": "bool",
          "name": "",
          "type": "bool"
        }
      ],
      "stateMutability": "nonpayable",
      "type": "function"
    },
    {
      "inputs": [
        {
          "internalType": "address",
          "name": "account",
          "type": "address"
        }
      ],
      "name": "balanceOf",
      "outputs": [
        {
          "internalType": "uint256",
          "name": "",
          "type": "uint256"
        }
      ],
      "stateMutability": "view",
      "type": "function"
    },
    {
      "inputs": [],
      "name": "decimals",
      "outputs": [
        {
          "internalType": "uint8",
          "name": "",
          "type": "uint8"
        }
      ],
      "stateMutability": "view",
      "type": "function"
    },
    {
      "inputs": [
        {
          "internalType": "address",
          "name": "spender",
          "type": "address"
        },
        {
          "internalType": "uint256",
          "name": "subtractedValue",
          "type": "uint256"
        }
      ],
      "name": "decreaseAllowance",
      "outputs": [
        {
          "internalType": "bool",
          "name": "",
          "type": "bool"
        }
      ],
      "stateMutability": "nonpayable",
      "type": "function"
    },
    {
      "inputs": [
        {
          "internalType": "address",
          "name": "spender",
          "type": "address"
        },
        {
          "internalType": "uint256",
          "name": "addedValue",
          "type": "uint256"
        }
      ],
      "name": "increaseAllowance",
      "outputs": [
        {
          "internalType": "bool",
          "name": "",
          "type": "bool"
        }
      ],
      "stateMutability": "nonpayable",
      "type": "function"
    },
    {
      "inputs": [],
      "name": "name",
      "outputs": [
        {
          "internalType": "string",
          "name": "",
          "type": "string"
        }
      ],
      "stateMutability": "view",
      "type": "function"
    },
    {
      "inputs": [],
      "name": "owner",
      "outputs": [
        {
          "internalType": "address",
          "name": "",
          "type": "address"
        }
      ],
      "stateMutability": "view",
      "type": "function"
    },
    {
      "inputs": [
        {
          "internalType": "address",
          "name": "_newOwner",
          "type": "address"
        }
      ],
      "name": "setOwner",
      "outputs": [],
      "stateMutability": "nonpayable",
      "type": "function"
    },
    {
      "inputs": [],
      "name": "symbol",
      "outputs": [
        {
          "internalType": "string",
          "name": "",
          "type": "string"
        }
      ],
      "stateMutability": "view",
      "type": "function"
    },
    {
      "inputs": [],
      "name": "totalSupply",
      "outputs": [
        {
          "internalType": "uint256",
          "name": "",
          "type": "uint256"
        }
      ],
      "stateMutability": "view",
      "type": "function"
    },
    {
      "inputs": [
        {
          "internalType": "address",
          "name": "to",
          "type": "address"
        },
        {
          "internalType": "uint256",
          "name": "amount",
          "type": "uint256"
        }
      ],
      "name": "transfer",
      "outputs": [
        {
          "internalType": "bool",
          "name": "",
          "type": "bool"
        }
      ],
      "stateMutability": "nonpayable",
      "type": "function"
    },
    {
      "inputs": [
        {
          "internalType": "address",
          "name": "from",
          "type": "address"
        },
        {
          "internalType": "address",
          "name": "to",
          "type": "address"
        },
        {
          "internalType": "uint256",
          "name": "amount",
          "type": "uint256"
        }
      ],
      "name": "transferFrom",
      "outputs": [
        {
          "internalType": "bool",
          "name": "",
          "type": "bool"
        }
      ],
      "stateMutability": "nonpayable",
      "type": "function"
    },
    {
      "inputs": [
        {
          "internalType": "address",
          "name": "deployer",
          "type": "address"
        }
      ],
      "name": "tw_initializeOwner",
      "outputs": [],
      "stateMutability": "nonpayable",
      "type": "function"
    }
  ],
  "bytecode": "0x60806040523480156200001157600080fd5b506040518060400160405280600781526020017f4d79546f6b656e000000000000000000000000000000000000000000000000008152506040518060400160405280600381526020017f4d544b00000000000000000000000000000000000000000000000000000000008152508160039080519060200190620000969291906200037a565b508060049080519060200190620000af9291906200037a565b505050620000d6620000c66200012c60201b60201c565b620f4240620001f760201b60201c565b620000e66200012c60201b60201c565b600560006101000a81548173ffffffffffffffffffffffffffffffffffffffff021916908373ffffffffffffffffffffffffffffffffffffffff16021790555062000695565b6000803073ffffffffffffffffffffffffffffffffffffffff163b1415620001ef573373ffffffffffffffffffffffffffffffffffffffff1663bf775fb2306040518263ffffffff1660e01b8152600401620001899190620004b6565b60206040518083038186803b158015620001a257600080fd5b505afa925050508015620001d657506040513d601f19601f82011682018060405250810190620001d3919062000441565b60015b620001e55760009050620001f4565b80915050620001f4565b600090505b90565b600073ffffffffffffffffffffffffffffffffffffffff168273ffffffffffffffffffffffffffffffffffffffff1614156200026a576040517f08c379a00000000000000000000000000000000000000000000000000000000081526004016200026190620004d3565b60405180910390fd5b6200027e600083836200037060201b60201c565b806002600082825462000292919062000523565b92505081905550806000808473ffffffffffffffffffffffffffffffffffffffff1673ffffffffffffffffffffffffffffffffffffffff1681526020019081526020016000206000828254620002e9919062000523565b925050819055508173ffffffffffffffffffffffffffffffffffffffff16600073ffffffffffffffffffffffffffffffffffffffff167fddf252ad1be2c89b69c2b068fc378daa952ba7f163c4a11628f55a4df523b3ef83604051620003509190620004f5565b60405180910390a36200036c600083836200037560201b60201c565b5050565b505050565b505050565b8280546200038890620005be565b90600052602060002090601f016020900481019282620003ac5760008555620003f8565b82601f10620003c757805160ff1916838001178555620003f8565b82800160010185558215620003f8579182015b82811115620003f7578251825591602001919060010190620003da565b5b5090506200040791906200040b565b5090565b5b80821115620004265760008160009055506001016200040c565b5090565b6000815190506200043b816200067b565b92915050565b6000602082840312156200045457600080fd5b600062000464848285016200042a565b91505092915050565b620004788162000580565b82525050565b60006200048d601f8362000512565b91506200049a8262000652565b602082019050919050565b620004b081620005b4565b82525050565b6000602082019050620004cd60008301846200046d565b92915050565b60006020820190508181036000830152620004ee816200047e565b9050919050565b60006020820190506200050c6000830184620004a5565b92915050565b600082825260208201905092915050565b60006200053082620005b4565b91506200053d83620005b4565b9250827fffffffffffffffffffffffffffffffffffffffffffffffffffffffffffffffff03821115620005755762000574620005f4565b5b828201905092915050565b60006200058d8262000594565b9050919050565b600073ffffffffffffffffffffffffffffffffffffffff82169050919050565b6000819050919050565b60006002820490506001821680620005d757607f821691505b60208210811415620005ee57620005ed62000623565b5b50919050565b7f4e487b7100000000000000000000000000000000000000000000000000000000600052601160045260246000fd5b7f4e487b7100000000000000000000000000000000000000000000000000000000600052602260045260246000fd5b7f45524332303a206d696e7420746f20746865207a65726f206164647265737300600082015250565b620006868162000580565b81146200069257600080fd5b50565b61161080620006a56000396000f3fe608060405234801561001057600080fd5b50600436106100ea5760003560e01c8063395093511161008c57806395d89b411161006657806395d89b411461025f578063a457c2d71461027d578063a9059cbb146102ad578063dd62ed3e146102dd576100ea565b806339509351146101e157806370a08231146102115780638da5cb5b14610241576100ea565b806313af4035116100c857806313af40351461015957806318160ddd1461017557806323b872dd14610193578063313ce567146101c3576100ea565b806306fdde03146100ef578063095ea7b31461010d57806310ce19a41461013d575b600080fd5b6100f761030d565b6040516101049190611044565b60405180910390f35b61012760048036038101906101229190610df9565b61039f565b6040516101349190611029565b60405180910390f35b61015760048036038101906101529190610d45565b6103c2565b005b610173600480360381019061016e9190610d45565b610453565b005b61017d61053f565b60405161018a9190611186565b60405180910390f35b6101ad60048036038101906101a89190610daa565b610549565b6040516101ba9190611029565b60405180910390f35b6101cb610578565b6040516101d891906111a1565b60405180910390f35b6101fb60048036038101906101f69190610df9565b610581565b6040516102089190611029565b60405180910390f35b61022b60048036038101906102269190610d45565b6105b8565b6040516102389190611186565b60405180910390f35b610249610600565b6040516102569190610fe5565b60405180910390f35b610267610626565b6040516102749190611044565b60405180910390f35b61029760048036038101906102929190610df9565b6106b8565b6040516102a49190611029565b60405180910390f35b6102c760048036038101906102c29190610df9565b61072f565b6040516102d49190611029565b60405180910390f35b6102f760048036038101906102f29190610d6e565b610752565b6040516103049190611186565b60405180910390f35b60606003805461031c906112b6565b80601f0160208091040260200160405190810160405280929190818152602001828054610348906112b6565b80156103955780601f1061036a57610100808354040283529160200191610395565b820191906000526020600020905b81548152906001019060200180831161037857829003601f168201915b5050505050905090565b6000806103aa6107d9565b90506103b78185856107e1565b600191505092915050565b600060065414610407576040517f08c379a00000000000000000000000000000000000000000000000000000000081526004016103fe906110e6565b60405180910390fd5b600160068190555080600560006101000a81548173ffffffffffffffffffffffffffffffffffffffff021916908373ffffffffffffffffffffffffffffffffffffffff16021790555050565b61045b6109ac565b61049a576040517f08c379a000000000000000000000000000000000000000000000000000000000815260040161049190611166565b60405180910390fd5b6000600560009054906101000a900473ffffffffffffffffffffffffffffffffffffffff16905081600560006101000a81548173ffffffffffffffffffffffffffffffffffffffff021916908373ffffffffffffffffffffffffffffffffffffffff1602179055507f8292fce18fa69edf4db7b94ea2e58241df0ae57f97e0a6c9b29067028bf92d768183604051610533929190611000565b60405180910390a15050565b6000600254905090565b6000806105546107d9565b9050610561858285610a04565b61056c858585610a90565b60019150509392505050565b60006012905090565b60008061058c6107d9565b90506105ad81858561059e8589610752565b6105a891906111d8565b6107e1565b600191505092915050565b60008060008373ffffffffffffffffffffffffffffffffffffffff1673ffffffffffffffffffffffffffffffffffffffff168152602001908152602001600020549050919050565b600560009054906101000a900473ffffffffffffffffffffffffffffffffffffffff1681565b606060048054610635906112b6565b80601f0160208091040260200160405190810160405280929190818152602001828054610661906112b6565b80156106ae5780601f10610683576101008083540402835291602001916106ae565b820191906000526020600020905b81548152906001019060200180831161069157829003601f168201915b5050505050905090565b6000806106c36107d9565b905060006106d18286610752565b905083811015610716576040517f08c379a000000000000000000000000000000000000000000000000000000000815260040161070d90611146565b60405180910390fd5b61072382868684036107e1565b60019250505092915050565b60008061073a6107d9565b9050610747818585610a90565b600191505092915050565b6000600160008473ffffffffffffffffffffffffffffffffffffffff1673ffffffffffffffffffffffffffffffffffffffff16815260200190815260200160002060008373ffffffffffffffffffffffffffffffffffffffff1673ffffffffffffffffffffffffffffffffffffffff16815260200190815260200160002054905092915050565b600033905090565b600073ffffffffffffffffffffffffffffffffffffffff168373ffffffffffffffffffffffffffffffffffffffff161415610851576040517f08c379a000000000000000000000000000000000000000000000000000000000815260040161084890611126565b60405180910390fd5b600073ffffffffffffffffffffffffffffffffffffffff168273ffffffffffffffffffffffffffffffffffffffff1614156108c1576040517f08c379a00000000000000000000000000000000000000000000000000000000081526004016108b890611086565b60405180910390fd5b80600160008573ffffffffffffffffffffffffffffffffffffffff1673ffffffffffffffffffffffffffffffffffffffff16815260200190815260200160002060008473ffffffffffffffffffffffffffffffffffffffff1673ffffffffffffffffffffffffffffffffffffffff168152602001908152602001600020819055508173ffffffffffffffffffffffffffffffffffffffff168373ffffffffffffffffffffffffffffffffffffffff167f8c5be1e5ebec7d5bd14f71427d1e84f3dd0314c0f7b2291e5b200ac8c7c3b9258360405161099f9190611186565b60405180910390a3505050565b6000600560009054906101000a900473ffffffffffffffffffffffffffffffffffffffff1673ffffffffffffffffffffffffffffffffffffffff163373ffffffffffffffffffffffffffffffffffffffff1614905090565b6000610a108484610752565b90507fffffffffffffffffffffffffffffffffffffffffffffffffffffffffffffffff8114610a8a5781811015610a7c576040517f08c379a0000000000000000000000000000000000000000000000000000000008152600401610a73906110a6565b60405180910390fd5b610a8984848484036107e1565b5b50505050565b600073ffffffffffffffffffffffffffffffffffffffff168373ffffffffffffffffffffffffffffffffffffffff161415610b00576040517f08c379a0000000000000000000000000000000000000000000000000000000008152600401610af790611106565b60405180910390fd5b600073ffffffffffffffffffffffffffffffffffffffff168273ffffffffffffffffffffffffffffffffffffffff161415610b70576040517f08c379a0000000000000000000000000000000000000000000000000000000008152600401610b6790611066565b60405180910390fd5b610b7b838383610d11565b60008060008573ffffffffffffffffffffffffffffffffffffffff1673ffffffffffffffffffffffffffffffffffffffff16815260200190815260200160002054905081811015610c01576040517f08c379a0000000000000000000000000000000000000000000000000000000008152600401610bf8906110c6565b60405180910390fd5b8181036000808673ffffffffffffffffffffffffffffffffffffffff1673ffffffffffffffffffffffffffffffffffffffff16815260200190815260200160002081905550816000808573ffffffffffffffffffffffffffffffffffffffff1673ffffffffffffffffffffffffffffffffffffffff1681526020019081526020016000206000828254610c9491906111d8565b925050819055508273ffffffffffffffffffffffffffffffffffffffff168473ffffffffffffffffffffffffffffffffffffffff167fddf252ad1be2c89b69c2b068fc378daa952ba7f163c4a11628f55a4df523b3ef84604051610cf89190611186565b60405180910390a3610d0b848484610d16565b50505050565b505050565b505050565b600081359050610d2a816115ac565b92915050565b600081359050610d3f816115c3565b92915050565b600060208284031215610d5757600080fd5b6000610d6584828501610d1b565b91505092915050565b60008060408385031215610d8157600080fd5b6000610d8f85828601610d1b565b9250506020610da085828601610d1b565b9150509250929050565b600080600060608486031215610dbf57600080fd5b6000610dcd86828701610d1b565b9350506020610dde86828701610d1b565b9250506040610def86828701610d30565b9150509250925092565b60008060408385031215610e0c57600080fd5b6000610e1a85828601610d1b565b9250506020610e2b85828601610d30565b9150509250929050565b610e3e8161122e565b82525050565b610e4d81611240565b82525050565b6000610e5e826111bc565b610e6881856111c7565b9350610e78818560208601611283565b610e8181611346565b840191505092915050565b6000610e996023836111c7565b9150610ea482611357565b604082019050919050565b6000610ebc6022836111c7565b9150610ec7826113a6565b604082019050919050565b6000610edf601d836111c7565b9150610eea826113f5565b602082019050919050565b6000610f026026836111c7565b9150610f0d8261141e565b604082019050919050565b6000610f256019836111c7565b9150610f308261146d565b602082019050919050565b6000610f486025836111c7565b9150610f5382611496565b604082019050919050565b6000610f6b6024836111c7565b9150610f76826114e5565b604082019050919050565b6000610f8e6025836111c7565b9150610f9982611534565b604082019050919050565b6000610fb1600e836111c7565b9150610fbc82611583565b602082019050919050565b610fd08161126c565b82525050565b610fdf81611276565b82525050565b6000602082019050610ffa6000830184610e35565b92915050565b60006040820190506110156000830185610e35565b6110226020830184610e35565b9392505050565b600060208201905061103e6000830184610e44565b92915050565b6000602082019050818103600083015261105e8184610e53565b905092915050565b6000602082019050818103600083015261107f81610e8c565b9050919050565b6000602082019050818103600083015261109f81610eaf565b9050919050565b600060208201905081810360008301526110bf81610ed2565b9050919050565b600060208201905081810360008301526110df81610ef5565b9050919050565b600060208201905081810360008301526110ff81610f18565b9050919050565b6000602082019050818103600083015261111f81610f3b565b9050919050565b6000602082019050818103600083015261113f81610f5e565b9050919050565b6000602082019050818103600083015261115f81610f81565b9050919050565b6000602082019050818103600083015261117f81610fa4565b9050919050565b600060208201905061119b6000830184610fc7565b92915050565b60006020820190506111b66000830184610fd6565b92915050565b600081519050919050565b600082825260208201905092915050565b60006111e38261126c565b91506111ee8361126c565b9250827fffffffffffffffffffffffffffffffffffffffffffffffffffffffffffffffff03821115611223576112226112e8565b5b828201905092915050565b60006112398261124c565b9050919050565b60008115159050919050565b600073ffffffffffffffffffffffffffffffffffffffff82169050919050565b6000819050919050565b600060ff82169050919050565b60005b838110156112a1578082015181840152602081019050611286565b838111156112b0576000848401525b50505050565b600060028204905060018216806112ce57607f821691505b602082108114156112e2576112e1611317565b5b50919050565b7f4e487b7100000000000000000000000000000000000000000000000000000000600052601160045260246000fd5b7f4e487b7100000000000000000000000000000000000000000000000000000000600052602260045260246000fd5b6000601f19601f8301169050919050565b7f45524332303a207472616e7366657220746f20746865207a65726f206164647260008201527f6573730000000000000000000000000000000000000000000000000000000000602082015250565b7f45524332303a20617070726f766520746f20746865207a65726f20616464726560008201527f7373000000000000000000000000000000000000000000000000000000000000602082015250565b7f45524332303a20696e73756666696369656e7420616c6c6f77616e6365000000600082015250565b7f45524332303a207472616e7366657220616d6f756e742065786365656473206260008201527f616c616e63650000000000000000000000000000000000000000000000000000602082015250565b7f4f776e657220616c726561647920696e697469616c697a656400000000000000600082015250565b7f45524332303a207472616e736665722066726f6d20746865207a65726f20616460008201527f6472657373000000000000000000000000000000000000000000000000000000602082015250565b7f45524332303a20617070726f76652066726f6d20746865207a65726f2061646460008201527f7265737300000000000000000000000000000000000000000000000000000000602082015250565b7f45524332303a2064656372656173656420616c6c6f77616e63652062656c6f7760008201527f207a65726f000000000000000000000000000000000000000000000000000000602082015250565b7f4e6f7420617574686f72697a6564000000000000000000000000000000000000600082015250565b6115b58161122e565b81146115c057600080fd5b50565b6115cc8161126c565b81146115d757600080fd5b5056fea26469706673582212205af13343ed170f1c41ed9edefee706ca627b4ef10dee7587da002b6c2b03532064736f6c63430008040033",
  "linkReferences": {},
  "deployedLinkReferences": {}
}