{
  "_format": "hh-sol-artifact-1",
  "contractName": "AirdropERC721",
  "sourceName": "contracts/airdrop/AirdropERC721.sol",
  "abi": [
    {
      "inputs": [],
      "stateMutability": "nonpayable",
      "type": "constructor"
    },
    {
      "anonymous": false,
      "inputs": [
        {
          "indexed": true,
          "internalType": "address",
          "name": "recipient",
          "type": "address"
        },
        {
          "components": [
            {
              "internalType": "address",
              "name": "tokenAddress",
              "type": "address"
            },
            {
              "internalType": "address",
              "name": "tokenOwner",
              "type": "address"
            },
            {
              "internalType": "address",
              "name": "recipient",
              "type": "address"
            },
            {
              "internalType": "uint256",
              "name": "tokenId",
              "type": "uint256"
            }
          ],
          "indexed": false,
          "internalType": "struct IAirdropERC721.AirdropContent",
          "name": "content",
          "type": "tuple"
        }
      ],
      "name": "AirdropPayment",
      "type": "event"
    },
    {
      "anonymous": false,
      "inputs": [
        {
          "indexed": false,
          "internalType": "uint8",
          "name": "version",
          "type": "uint8"
        }
      ],
      "name": "Initialized",
      "type": "event"
    },
    {
      "anonymous": false,
      "inputs": [
        {
          "indexed": true,
          "internalType": "address",
          "name": "prevOwner",
          "type": "address"
        },
        {
          "indexed": true,
          "internalType": "address",
          "name": "newOwner",
          "type": "address"
        }
      ],
      "name": "OwnerUpdated",
      "type": "event"
    },
    {
      "anonymous": false,
      "inputs": [
        {
          "components": [
            {
              "internalType": "address",
              "name": "tokenAddress",
              "type": "address"
            },
            {
              "internalType": "address",
              "name": "tokenOwner",
              "type": "address"
            },
            {
              "internalType": "address",
              "name": "recipient",
              "type": "address"
            },
            {
              "internalType": "uint256",
              "name": "tokenId",
              "type": "uint256"
            }
          ],
          "indexed": false,
          "internalType": "struct IAirdropERC721.AirdropContent[]",
          "name": "_contents",
          "type": "tuple[]"
        }
      ],
      "name": "RecipientsAdded",
      "type": "event"
    },
    {
      "anonymous": false,
      "inputs": [
        {
          "indexed": true,
          "internalType": "bytes32",
          "name": "role",
          "type": "bytes32"
        },
        {
          "indexed": true,
          "internalType": "bytes32",
          "name": "previousAdminRole",
          "type": "bytes32"
        },
        {
          "indexed": true,
          "internalType": "bytes32",
          "name": "newAdminRole",
          "type": "bytes32"
        }
      ],
      "name": "RoleAdminChanged",
      "type": "event"
    },
    {
      "anonymous": false,
      "inputs": [
        {
          "indexed": true,
          "internalType": "bytes32",
          "name": "role",
          "type": "bytes32"
        },
        {
          "indexed": true,
          "internalType": "address",
          "name": "account",
          "type": "address"
        },
        {
          "indexed": true,
          "internalType": "address",
          "name": "sender",
          "type": "address"
        }
      ],
      "name": "RoleGranted",
      "type": "event"
    },
    {
      "anonymous": false,
      "inputs": [
        {
          "indexed": true,
          "internalType": "bytes32",
          "name": "role",
          "type": "bytes32"
        },
        {
          "indexed": true,
          "internalType": "address",
          "name": "account",
          "type": "address"
        },
        {
          "indexed": true,
          "internalType": "address",
          "name": "sender",
          "type": "address"
        }
      ],
      "name": "RoleRevoked",
      "type": "event"
    },
    {
      "inputs": [],
      "name": "DEFAULT_ADMIN_ROLE",
      "outputs": [
        {
          "internalType": "bytes32",
          "name": "",
          "type": "bytes32"
        }
      ],
      "stateMutability": "view",
      "type": "function"
    },
    {
      "inputs": [
        {
          "components": [
            {
              "internalType": "address",
              "name": "tokenAddress",
              "type": "address"
            },
            {
              "internalType": "address",
              "name": "tokenOwner",
              "type": "address"
            },
            {
              "internalType": "address",
              "name": "recipient",
              "type": "address"
            },
            {
              "internalType": "uint256",
              "name": "tokenId",
              "type": "uint256"
            }
          ],
          "internalType": "struct IAirdropERC721.AirdropContent[]",
          "name": "_contents",
          "type": "tuple[]"
        }
      ],
      "name": "addAirdropRecipients",
      "outputs": [],
      "stateMutability": "nonpayable",
      "type": "function"
    },
    {
      "inputs": [
        {
          "internalType": "uint256",
          "name": "paymentsToProcess",
          "type": "uint256"
        }
      ],
      "name": "airdrop",
      "outputs": [],
      "stateMutability": "nonpayable",
      "type": "function"
    },
    {
      "inputs": [],
      "name": "contractType",
      "outputs": [
        {
          "internalType": "bytes32",
          "name": "",
          "type": "bytes32"
        }
      ],
      "stateMutability": "pure",
      "type": "function"
    },
    {
      "inputs": [],
      "name": "contractVersion",
      "outputs": [
        {
          "internalType": "uint8",
          "name": "",
          "type": "uint8"
        }
      ],
      "stateMutability": "pure",
      "type": "function"
    },
    {
      "inputs": [],
      "name": "getAllAirdropPayments",
      "outputs": [
        {
          "components": [
            {
              "internalType": "address",
              "name": "tokenAddress",
              "type": "address"
            },
            {
              "internalType": "address",
              "name": "tokenOwner",
              "type": "address"
            },
            {
              "internalType": "address",
              "name": "recipient",
              "type": "address"
            },
            {
              "internalType": "uint256",
              "name": "tokenId",
              "type": "uint256"
            }
          ],
          "internalType": "struct IAirdropERC721.AirdropContent[]",
          "name": "contents",
          "type": "tuple[]"
        }
      ],
      "stateMutability": "view",
      "type": "function"
    },
    {
      "inputs": [],
      "name": "getAllAirdropPaymentsFailed",
      "outputs": [
        {
          "components": [
            {
              "internalType": "address",
              "name": "tokenAddress",
              "type": "address"
            },
            {
              "internalType": "address",
              "name": "tokenOwner",
              "type": "address"
            },
            {
              "internalType": "address",
              "name": "recipient",
              "type": "address"
            },
            {
              "internalType": "uint256",
              "name": "tokenId",
              "type": "uint256"
            }
          ],
          "internalType": "struct IAirdropERC721.AirdropContent[]",
          "name": "contents",
          "type": "tuple[]"
        }
      ],
      "stateMutability": "view",
      "type": "function"
    },
    {
      "inputs": [],
      "name": "getAllAirdropPaymentsPending",
      "outputs": [
        {
          "components": [
            {
              "internalType": "address",
              "name": "tokenAddress",
              "type": "address"
            },
            {
              "internalType": "address",
              "name": "tokenOwner",
              "type": "address"
            },
            {
              "internalType": "address",
              "name": "recipient",
              "type": "address"
            },
            {
              "internalType": "uint256",
              "name": "tokenId",
              "type": "uint256"
            }
          ],
          "internalType": "struct IAirdropERC721.AirdropContent[]",
          "name": "contents",
          "type": "tuple[]"
        }
      ],
      "stateMutability": "view",
      "type": "function"
    },
    {
      "inputs": [],
      "name": "getAllAirdropPaymentsProcessed",
      "outputs": [
        {
          "components": [
            {
              "internalType": "address",
              "name": "tokenAddress",
              "type": "address"
            },
            {
              "internalType": "address",
              "name": "tokenOwner",
              "type": "address"
            },
            {
              "internalType": "address",
              "name": "recipient",
              "type": "address"
            },
            {
              "internalType": "uint256",
              "name": "tokenId",
              "type": "uint256"
            }
          ],
          "internalType": "struct IAirdropERC721.AirdropContent[]",
          "name": "contents",
          "type": "tuple[]"
        }
      ],
      "stateMutability": "view",
      "type": "function"
    },
    {
      "inputs": [
        {
          "internalType": "bytes32",
          "name": "role",
          "type": "bytes32"
        }
      ],
      "name": "getRoleAdmin",
      "outputs": [
        {
          "internalType": "bytes32",
          "name": "",
          "type": "bytes32"
        }
      ],
      "stateMutability": "view",
      "type": "function"
    },
    {
      "inputs": [
        {
          "internalType": "bytes32",
          "name": "role",
          "type": "bytes32"
        },
        {
          "internalType": "uint256",
          "name": "index",
          "type": "uint256"
        }
      ],
      "name": "getRoleMember",
      "outputs": [
        {
          "internalType": "address",
          "name": "member",
          "type": "address"
        }
      ],
      "stateMutability": "view",
      "type": "function"
    },
    {
      "inputs": [
        {
          "internalType": "bytes32",
          "name": "role",
          "type": "bytes32"
        }
      ],
      "name": "getRoleMemberCount",
      "outputs": [
        {
          "internalType": "uint256",
          "name": "count",
          "type": "uint256"
        }
      ],
      "stateMutability": "view",
      "type": "function"
    },
    {
      "inputs": [
        {
          "internalType": "bytes32",
          "name": "role",
          "type": "bytes32"
        },
        {
          "internalType": "address",
          "name": "account",
          "type": "address"
        }
      ],
      "name": "grantRole",
      "outputs": [],
      "stateMutability": "nonpayable",
      "type": "function"
    },
    {
      "inputs": [
        {
          "internalType": "bytes32",
          "name": "role",
          "type": "bytes32"
        },
        {
          "internalType": "address",
          "name": "account",
          "type": "address"
        }
      ],
      "name": "hasRole",
      "outputs": [
        {
          "internalType": "bool",
          "name": "",
          "type": "bool"
        }
      ],
      "stateMutability": "view",
      "type": "function"
    },
    {
      "inputs": [
        {
          "internalType": "bytes32",
          "name": "role",
          "type": "bytes32"
        },
        {
          "internalType": "address",
          "name": "account",
          "type": "address"
        }
      ],
      "name": "hasRoleWithSwitch",
      "outputs": [
        {
          "internalType": "bool",
          "name": "",
          "type": "bool"
        }
      ],
      "stateMutability": "view",
      "type": "function"
    },
    {
      "inputs": [
        {
          "internalType": "address",
          "name": "_defaultAdmin",
          "type": "address"
        }
      ],
      "name": "initialize",
      "outputs": [],
      "stateMutability": "nonpayable",
      "type": "function"
    },
    {
      "inputs": [
        {
          "internalType": "bytes[]",
          "name": "data",
          "type": "bytes[]"
        }
      ],
      "name": "multicall",
      "outputs": [
        {
          "internalType": "bytes[]",
          "name": "results",
          "type": "bytes[]"
        }
      ],
      "stateMutability": "nonpayable",
      "type": "function"
    },
    {
      "inputs": [],
      "name": "owner",
      "outputs": [
        {
          "internalType": "address",
          "name": "",
          "type": "address"
        }
      ],
      "stateMutability": "view",
      "type": "function"
    },
    {
      "inputs": [],
      "name": "payeeCount",
      "outputs": [
        {
          "internalType": "uint256",
          "name": "",
          "type": "uint256"
        }
      ],
      "stateMutability": "view",
      "type": "function"
    },
    {
      "inputs": [],
      "name": "processedCount",
      "outputs": [
        {
          "internalType": "uint256",
          "name": "",
          "type": "uint256"
        }
      ],
      "stateMutability": "view",
      "type": "function"
    },
    {
      "inputs": [
        {
          "internalType": "bytes32",
          "name": "role",
          "type": "bytes32"
        },
        {
          "internalType": "address",
          "name": "account",
          "type": "address"
        }
      ],
      "name": "renounceRole",
      "outputs": [],
      "stateMutability": "nonpayable",
      "type": "function"
    },
    {
      "inputs": [
        {
          "internalType": "bytes32",
          "name": "role",
          "type": "bytes32"
        },
        {
          "internalType": "address",
          "name": "account",
          "type": "address"
        }
      ],
      "name": "revokeRole",
      "outputs": [],
      "stateMutability": "nonpayable",
      "type": "function"
    },
    {
      "inputs": [
        {
          "internalType": "address",
          "name": "_newOwner",
          "type": "address"
        }
      ],
      "name": "setOwner",
      "outputs": [],
      "stateMutability": "nonpayable",
      "type": "function"
    }
  ],
  "bytecode": "0x60806040523480156200001157600080fd5b50600054610100900460ff1615808015620000335750600054600160ff909116105b8062000063575062000050306200013d60201b620010451760201c565b15801562000063575060005460ff166001145b620000cb5760405162461bcd60e51b815260206004820152602e60248201527f496e697469616c697a61626c653a20636f6e747261637420697320616c72656160448201526d191e481a5b9a5d1a585b1a5e995960921b606482015260840160405180910390fd5b6000805460ff191660011790558015620000ef576000805461ff0019166101001790555b801562000136576000805461ff0019169055604051600181527f7f26b83ff96e1f2b6a682f133852f6798a09c465da95921460cefb38474024989060200160405180910390a15b506200014c565b6001600160a01b03163b151590565b611cb5806200015c6000396000f3fe608060405234801561001057600080fd5b506004361061017c5760003560e01c806397dc4a13116100e3578063ca15c8731161008c578063d237f87011610066578063d237f87014610351578063d547741f14610359578063d982f43d1461036c57600080fd5b8063ca15c87314610320578063cadacac014610333578063cb2ef6f71461033b57600080fd5b8063a32fa5b3116100bd578063a32fa5b3146102da578063ac9650d8146102ed578063c4d66de81461030d57600080fd5b806397dc4a13146102b0578063a0a8e460146102c3578063a217fddf146102d257600080fd5b806336568abe116101455780638da5cb5b1161011f5780638da5cb5b146102295780639010d07c1461025457806391d148541461026757600080fd5b806336568abe146101f8578063629432981461020b578063803f0f651461021457600080fd5b8062dbe1091461018157806313af40351461019d578063248a9ca3146101b25780632f2ff15d146101d2578063329103ee146101e5575b600080fd5b61018a60685481565b6040519081526020015b60405180910390f35b6101b06101ab3660046116ac565b610374565b005b61018a6101c03660046116c9565b60009081526002602052604090205490565b6101b06101e03660046116e2565b6103d6565b6101b06101f3366004611712565b610470565b6101b06102063660046116e2565b61057a565b61018a60695481565b61021c6105dc565b6040516101949190611787565b6000546201000090046001600160a01b03165b6040516001600160a01b039091168152602001610194565b61023c610262366004611805565b6106ff565b6102a06102753660046116e2565b60009182526001602090815260408084206001600160a01b0393909316845291905290205460ff1690565b6040519015158152602001610194565b6101b06102be3660046116c9565b610801565b60405160018152602001610194565b61018a600081565b6102a06102e83660046116e2565b6109f8565b6103006102fb366004611827565b610a4e565b60405161019491906118e6565b6101b061031b3660046116ac565b610b43565b61018a61032e3660046116c9565b610c68565b61021c610d03565b6c41697264726f7045524337323160981b61018a565b61021c610e09565b6101b06103673660046116e2565b610f0a565b61021c610f23565b6000546201000090046001600160a01b031633146103ca5760405162461bcd60e51b815260206004820152600e60248201526d139bdd08185d5d1a1bdc9a5e995960921b60448201526064015b60405180910390fd5b6103d381611054565b50565b6000828152600260205260409020546103ef90336110bc565b60008281526001602090815260408083206001600160a01b038516845290915290205460ff16156104625760405162461bcd60e51b815260206004820152601d60248201527f43616e206f6e6c79206772616e7420746f206e6f6e20686f6c6465727300000060448201526064016103c1565b61046c828261113c565b5050565b600061047c81336110bc565b81806104ca5760405162461bcd60e51b815260206004820152601360248201527f4e6f207061796565732070726f76696465642e0000000000000000000000000060448201526064016103c1565b6068805490829060006104dd838561195e565b909155508190505b82811015610539578585828181106104ff576104ff611976565b905060800201606b60008381526020019081526020016000208181610524919061198c565b50610532905060018261195e565b90506104e5565b507f07003cd072189ad8187b4f32f5c5e451714bed4a08ab7f388ecbfa6062d60a62858560405161056b929190611a17565b60405180910390a15050505050565b336001600160a01b038216146105d25760405162461bcd60e51b815260206004820152601a60248201527f43616e206f6e6c792072656e6f756e636520666f722073656c6600000000000060448201526064016103c1565b61046c8282611150565b606854606954606091906105f08183611a9e565b67ffffffffffffffff81111561060857610608611ab5565b60405190808252806020026020018201604052801561065a57816020015b6040805160808101825260008082526020808301829052928201819052606082015282526000199092019101816106265790505b5092506000815b838110156106f8576000818152606b6020908152604091829020825160808101845281546001600160a01b0390811682526001830154811693820193909352600282015490921692820192909252600390910154606082015285518690849081106106ce576106ce611976565b60209081029190910101526106e460018361195e565b91506106f160018261195e565b9050610661565b5050505090565b60008281526003602052604081205481805b828110156107f75760008681526003602090815260408083208484526001019091529020546001600160a01b03161561078e578482141561077c5760008681526003602090815260408083209383526001909301905220546001600160a01b031692506107fb915050565b61078760018361195e565b91506107e5565b600086815260016020908152604080832083805290915290205460ff1680156107d25750600086815260036020908152604080832083805260020190915290205481145b156107e5576107e260018361195e565b91505b6107f060018261195e565b9050610711565b5050505b92915050565b600260045414156108545760405162461bcd60e51b815260206004820152601f60248201527f5265656e7472616e637947756172643a207265656e7472616e742063616c6c0060448201526064016103c1565b60026004556068546069548161086a848361195e565b11156108b85760405162461bcd60e51b815260206004820152601760248201527f696e76616c6964206e6f2e206f66207061796d656e747300000000000000000060448201526064016103c1565b82606960008282546108ca919061195e565b909155508190505b6108dc848361195e565b8110156109ed576000818152606b6020908152604091829020825160808101845281546001600160a01b03908116808352600184015482169483018590526002840154909116828601819052600390930154606083018190529451632142170760e11b8152600481019490945260248401929092526044830193909352906342842e0e90606401600060405180830381600087803b15801561097d57600080fd5b505af1158015610991573d6000803e3d6000fd5b5050505080604001516001600160a01b03167f061dccacfa2f30597906a7a8523a29794aec82495d6304d5dde83666df71ecf5826040516109d29190611acb565b60405180910390a2506109e660018261195e565b90506108d2565b505060016004555050565b600082815260016020908152604080832083805290915281205460ff16610a45575060008281526001602090815260408083206001600160a01b038516845290915290205460ff166107fb565b50600192915050565b60608167ffffffffffffffff811115610a6957610a69611ab5565b604051908082528060200260200182016040528015610a9c57816020015b6060815260200190600190039081610a875790505b50905060005b82811015610b3c57610b0c30858584818110610ac057610ac0611976565b9050602002810190610ad29190611b09565b8080601f0160208091040260200160405190810160405280939291908181526020018383808284376000920191909152506111a792505050565b828281518110610b1e57610b1e611976565b60200260200101819052508080610b3490611b57565b915050610aa2565b5092915050565b600054610100900460ff1615808015610b635750600054600160ff909116105b80610b7d5750303b158015610b7d575060005460ff166001145b610be05760405162461bcd60e51b815260206004820152602e60248201527f496e697469616c697a61626c653a20636f6e747261637420697320616c72656160448201526d191e481a5b9a5d1a585b1a5e995960921b60648201526084016103c1565b6000805460ff191660011790558015610c03576000805461ff0019166101001790555b610c0e60008361113c565b610c1782611054565b610c1f61129b565b801561046c576000805461ff0019169055604051600181527f7f26b83ff96e1f2b6a682f133852f6798a09c465da95921460cefb38474024989060200160405180910390a15050565b600081815260036020526040812054815b81811015610ccc5760008481526003602090815260408083208484526001019091529020546001600160a01b031615610cba57610cb760018461195e565b92505b610cc560018261195e565b9050610c79565b50600083815260016020908152604080832083805290915290205460ff1615610cfd57610cfa60018361195e565b91505b50919050565b6068546060908067ffffffffffffffff811115610d2257610d22611ab5565b604051908082528060200260200182016040528015610d7457816020015b604080516080810182526000808252602080830182905292820181905260608201528252600019909201910181610d405790505b50915060005b81811015610e04576000818152606b6020908152604091829020825160808101845281546001600160a01b039081168252600183015481169382019390935260028201549092169282019290925260039091015460608201528351849083908110610de757610de7611976565b6020908102919091010152610dfd60018261195e565b9050610d7a565b505090565b6069546060908067ffffffffffffffff811115610e2857610e28611ab5565b604051908082528060200260200182016040528015610e7a57816020015b604080516080810182526000808252602080830182905292820181905260608201528252600019909201910181610e465790505b50915060005b81811015610e04576000818152606b6020908152604091829020825160808101845281546001600160a01b039081168252600183015481169382019390935260028201549092169282019290925260039091015460608201528351849083908110610eed57610eed611976565b6020908102919091010152610f0360018261195e565b9050610e80565b6000828152600260205260409020546105d290336110bc565b606a546060908067ffffffffffffffff811115610f4257610f42611ab5565b604051908082528060200260200182016040528015610f9457816020015b604080516080810182526000808252602080830182905292820181905260608201528252600019909201910181610f605790505b50915060005b81811015610e0457606b6000606a8381548110610fb957610fb9611976565b600091825260208083209091015483528281019390935260409182019020815160808101835281546001600160a01b0390811682526001830154811694820194909452600282015490931691830191909152600301546060820152835184908390811061102857611028611976565b602090810291909101015261103e60018261195e565b9050610f9a565b6001600160a01b03163b151590565b600080546001600160a01b038381166201000081810275ffffffffffffffffffffffffffffffffffffffff000019851617855560405193049190911692909183917f8292fce18fa69edf4db7b94ea2e58241df0ae57f97e0a6c9b29067028bf92d7691a35050565b60008281526001602090815260408083206001600160a01b038516845290915290205460ff1661046c576110fa816001600160a01b03166014611310565b611105836020611310565b604051602001611116929190611b72565b60408051601f198184030181529082905262461bcd60e51b82526103c191600401611bf3565b61114682826114c0565b61046c828261151d565b61115a828261158a565b60008281526003602090815260408083206001600160a01b03851680855260028201808552838620805487526001909301855292852080546001600160a01b031916905584529152555050565b60606001600160a01b0383163b61120f5760405162461bcd60e51b815260206004820152602660248201527f416464726573733a2064656c65676174652063616c6c20746f206e6f6e2d636f6044820152651b9d1c9858dd60d21b60648201526084016103c1565b600080846001600160a01b03168460405161122a9190611c06565b600060405180830381855af49150503d8060008114611265576040519150601f19603f3d011682016040523d82523d6000602084013e61126a565b606091505b50915091506112928282604051806060016040528060278152602001611c59602791396115ec565b95945050505050565b600054610100900460ff166113065760405162461bcd60e51b815260206004820152602b60248201527f496e697469616c697a61626c653a20636f6e7472616374206973206e6f74206960448201526a6e697469616c697a696e6760a81b60648201526084016103c1565b61130e611625565b565b6060600061131f836002611c22565b61132a90600261195e565b67ffffffffffffffff81111561134257611342611ab5565b6040519080825280601f01601f19166020018201604052801561136c576020820181803683370190505b509050600360fc1b8160008151811061138757611387611976565b60200101906001600160f81b031916908160001a905350600f60fb1b816001815181106113b6576113b6611976565b60200101906001600160f81b031916908160001a90535060006113da846002611c22565b6113e590600161195e565b90505b600181111561146a577f303132333435363738396162636465660000000000000000000000000000000085600f166010811061142657611426611976565b1a60f81b82828151811061143c5761143c611976565b60200101906001600160f81b031916908160001a90535060049490941c9361146381611c41565b90506113e8565b5083156114b95760405162461bcd60e51b815260206004820181905260248201527f537472696e67733a20686578206c656e67746820696e73756666696369656e7460448201526064016103c1565b9392505050565b60008281526001602081815260408084206001600160a01b0386168086529252808420805460ff19169093179092559051339285917f2f8788117e7eff1d82e926ec794901d17c78024a50270940304540a733656f0d9190a45050565b60008281526003602052604081208054916001919061153c838561195e565b9091555050600092835260036020908152604080852083865260018101835281862080546001600160a01b039096166001600160a01b03199096168617905593855260029093019052912055565b61159482826110bc565b60008281526001602090815260408083206001600160a01b0385168085529252808320805460ff1916905551339285917ff6391f5c32d9c69d2a47ea670b442974b53935d1edc7fd64eb21e047a839171b9190a45050565b606083156115fb5750816114b9565b82511561160b5782518084602001fd5b8160405162461bcd60e51b81526004016103c19190611bf3565b600054610100900460ff166116905760405162461bcd60e51b815260206004820152602b60248201527f496e697469616c697a61626c653a20636f6e7472616374206973206e6f74206960448201526a6e697469616c697a696e6760a81b60648201526084016103c1565b6001600455565b6001600160a01b03811681146103d357600080fd5b6000602082840312156116be57600080fd5b81356114b981611697565b6000602082840312156116db57600080fd5b5035919050565b600080604083850312156116f557600080fd5b82359150602083013561170781611697565b809150509250929050565b6000806020838503121561172557600080fd5b823567ffffffffffffffff8082111561173d57600080fd5b818501915085601f83011261175157600080fd5b81358181111561176057600080fd5b8660208260071b850101111561177557600080fd5b60209290920196919550909350505050565b6020808252825182820181905260009190848201906040850190845b818110156117f9576117e68385516001600160a01b0380825116835280602083015116602084015280604083015116604084015250606081015160608301525050565b92840192608092909201916001016117a3565b50909695505050505050565b6000806040838503121561181857600080fd5b50508035926020909101359150565b6000806020838503121561183a57600080fd5b823567ffffffffffffffff8082111561185257600080fd5b818501915085601f83011261186657600080fd5b81358181111561187557600080fd5b8660208260051b850101111561177557600080fd5b60005b838110156118a557818101518382015260200161188d565b838111156118b4576000848401525b50505050565b600081518084526118d281602086016020860161188a565b601f01601f19169290920160200192915050565b6000602080830181845280855180835260408601915060408160051b870101925083870160005b8281101561193b57603f198886030184526119298583516118ba565b9450928501929085019060010161190d565b5092979650505050505050565b634e487b7160e01b600052601160045260246000fd5b6000821982111561197157611971611948565b500190565b634e487b7160e01b600052603260045260246000fd5b813561199781611697565b81546001600160a01b0319166001600160a01b0382161782555060208201356119bf81611697565b6001820180546001600160a01b0319166001600160a01b0383161790555060408201356119eb81611697565b6002820180546001600160a01b0319166001600160a01b03831617905550606082013560038201555050565b6020808252818101839052600090604080840186845b87811015611a91578135611a4081611697565b6001600160a01b0390811684528286013590611a5b82611697565b908116848701528285013590611a7082611697565b16838501526060828101359084015260809283019290910190600101611a2d565b5090979650505050505050565b600082821015611ab057611ab0611948565b500390565b634e487b7160e01b600052604160045260246000fd5b608081016107fb82846001600160a01b0380825116835280602083015116602084015280604083015116604084015250606081015160608301525050565b6000808335601e19843603018112611b2057600080fd5b83018035915067ffffffffffffffff821115611b3b57600080fd5b602001915036819003821315611b5057600080fd5b9250929050565b6000600019821415611b6b57611b6b611948565b5060010190565b7f5065726d697373696f6e733a206163636f756e74200000000000000000000000815260008351611baa81601585016020880161188a565b7f206973206d697373696e6720726f6c65200000000000000000000000000000006015918401918201528351611be781602684016020880161188a565b01602601949350505050565b6020815260006114b960208301846118ba565b60008251611c1881846020870161188a565b9190910192915050565b6000816000190483118215151615611c3c57611c3c611948565b500290565b600081611c5057611c50611948565b50600019019056fe416464726573733a206c6f772d6c6576656c2064656c65676174652063616c6c206661696c6564a264697066735822122059eecf6cf1b457cd9f18607a75e7e386edcd10c589991355004c69503167434364736f6c634300080c0033",
  "linkReferences": {},
  "deployedLinkReferences": {}
}