{
  "_format": "hh-sol-artifact-1",
  "contractName": "AirdropERC20Claimable",
  "sourceName": "contracts/airdrop/AirdropERC20Claimable.sol",
  "abi": [
    {
      "inputs": [],
      "stateMutability": "nonpayable",
      "type": "constructor"
    },
    {
      "anonymous": false,
      "inputs": [
        {
          "indexed": false,
          "internalType": "uint8",
          "name": "version",
          "type": "uint8"
        }
      ],
      "name": "Initialized",
      "type": "event"
    },
    {
      "anonymous": false,
      "inputs": [
        {
          "indexed": true,
          "internalType": "address",
          "name": "prevOwner",
          "type": "address"
        },
        {
          "indexed": true,
          "internalType": "address",
          "name": "newOwner",
          "type": "address"
        }
      ],
      "name": "OwnerUpdated",
      "type": "event"
    },
    {
      "anonymous": false,
      "inputs": [
        {
          "indexed": true,
          "internalType": "address",
          "name": "claimer",
          "type": "address"
        },
        {
          "indexed": true,
          "internalType": "address",
          "name": "receiver",
          "type": "address"
        },
        {
          "indexed": false,
          "internalType": "uint256",
          "name": "quantityClaimed",
          "type": "uint256"
        }
      ],
      "name": "TokensClaimed",
      "type": "event"
    },
    {
      "inputs": [],
      "name": "airdropTokenAddress",
      "outputs": [
        {
          "internalType": "address",
          "name": "",
          "type": "address"
        }
      ],
      "stateMutability": "view",
      "type": "function"
    },
    {
      "inputs": [],
      "name": "availableAmount",
      "outputs": [
        {
          "internalType": "uint256",
          "name": "",
          "type": "uint256"
        }
      ],
      "stateMutability": "view",
      "type": "function"
    },
    {
      "inputs": [
        {
          "internalType": "address",
          "name": "_receiver",
          "type": "address"
        },
        {
          "internalType": "uint256",
          "name": "_quantity",
          "type": "uint256"
        },
        {
          "internalType": "bytes32[]",
          "name": "_proofs",
          "type": "bytes32[]"
        },
        {
          "internalType": "uint256",
          "name": "_proofMaxQuantityForWallet",
          "type": "uint256"
        }
      ],
      "name": "claim",
      "outputs": [],
      "stateMutability": "nonpayable",
      "type": "function"
    },
    {
      "inputs": [],
      "name": "contractType",
      "outputs": [
        {
          "internalType": "bytes32",
          "name": "",
          "type": "bytes32"
        }
      ],
      "stateMutability": "pure",
      "type": "function"
    },
    {
      "inputs": [],
      "name": "contractVersion",
      "outputs": [
        {
          "internalType": "uint8",
          "name": "",
          "type": "uint8"
        }
      ],
      "stateMutability": "pure",
      "type": "function"
    },
    {
      "inputs": [],
      "name": "expirationTimestamp",
      "outputs": [
        {
          "internalType": "uint256",
          "name": "",
          "type": "uint256"
        }
      ],
      "stateMutability": "view",
      "type": "function"
    },
    {
      "inputs": [
        {
          "internalType": "address",
          "name": "_defaultAdmin",
          "type": "address"
        },
        {
          "internalType": "address[]",
          "name": "_trustedForwarders",
          "type": "address[]"
        },
        {
          "internalType": "address",
          "name": "_tokenOwner",
          "type": "address"
        },
        {
          "internalType": "address",
          "name": "_airdropTokenAddress",
          "type": "address"
        },
        {
          "internalType": "uint256",
          "name": "_airdropAmount",
          "type": "uint256"
        },
        {
          "internalType": "uint256",
          "name": "_expirationTimestamp",
          "type": "uint256"
        },
        {
          "internalType": "uint256",
          "name": "_maxWalletClaimCount",
          "type": "uint256"
        },
        {
          "internalType": "bytes32",
          "name": "_merkleRoot",
          "type": "bytes32"
        }
      ],
      "name": "initialize",
      "outputs": [],
      "stateMutability": "nonpayable",
      "type": "function"
    },
    {
      "inputs": [
        {
          "internalType": "address",
          "name": "forwarder",
          "type": "address"
        }
      ],
      "name": "isTrustedForwarder",
      "outputs": [
        {
          "internalType": "bool",
          "name": "",
          "type": "bool"
        }
      ],
      "stateMutability": "view",
      "type": "function"
    },
    {
      "inputs": [],
      "name": "maxWalletClaimCount",
      "outputs": [
        {
          "internalType": "uint256",
          "name": "",
          "type": "uint256"
        }
      ],
      "stateMutability": "view",
      "type": "function"
    },
    {
      "inputs": [],
      "name": "merkleRoot",
      "outputs": [
        {
          "internalType": "bytes32",
          "name": "",
          "type": "bytes32"
        }
      ],
      "stateMutability": "view",
      "type": "function"
    },
    {
      "inputs": [
        {
          "internalType": "bytes[]",
          "name": "data",
          "type": "bytes[]"
        }
      ],
      "name": "multicall",
      "outputs": [
        {
          "internalType": "bytes[]",
          "name": "results",
          "type": "bytes[]"
        }
      ],
      "stateMutability": "nonpayable",
      "type": "function"
    },
    {
      "inputs": [],
      "name": "owner",
      "outputs": [
        {
          "internalType": "address",
          "name": "",
          "type": "address"
        }
      ],
      "stateMutability": "view",
      "type": "function"
    },
    {
      "inputs": [
        {
          "internalType": "address",
          "name": "_newOwner",
          "type": "address"
        }
      ],
      "name": "setOwner",
      "outputs": [],
      "stateMutability": "nonpayable",
      "type": "function"
    },
    {
      "inputs": [
        {
          "internalType": "address",
          "name": "",
          "type": "address"
        }
      ],
      "name": "supplyClaimedByWallet",
      "outputs": [
        {
          "internalType": "uint256",
          "name": "",
          "type": "uint256"
        }
      ],
      "stateMutability": "view",
      "type": "function"
    },
    {
      "inputs": [],
      "name": "tokenOwner",
      "outputs": [
        {
          "internalType": "address",
          "name": "",
          "type": "address"
        }
      ],
      "stateMutability": "view",
      "type": "function"
    },
    {
      "inputs": [
        {
          "internalType": "address",
          "name": "_claimer",
          "type": "address"
        },
        {
          "internalType": "uint256",
          "name": "_quantity",
          "type": "uint256"
        },
        {
          "internalType": "bytes32[]",
          "name": "_proofs",
          "type": "bytes32[]"
        },
        {
          "internalType": "uint256",
          "name": "_proofMaxQuantityForWallet",
          "type": "uint256"
        }
      ],
      "name": "verifyClaim",
      "outputs": [],
      "stateMutability": "view",
      "type": "function"
    }
  ],
  "bytecode": "0x608060405234801561001057600080fd5b50600054610100900460ff16158080156100315750600054600160ff909116105b8061005c575061004a3061013260201b6108431760201c565b15801561005c575060005460ff166001145b6100c35760405162461bcd60e51b815260206004820152602e60248201527f496e697469616c697a61626c653a20636f6e747261637420697320616c72656160448201526d191e481a5b9a5d1a585b1a5e995960921b606482015260840160405180910390fd5b6000805460ff1916600117905580156100e6576000805461ff0019166101001790555b801561012c576000805461ff0019169055604051600181527f7f26b83ff96e1f2b6a682f133852f6798a09c465da95921460cefb38474024989060200160405180910390a15b50610141565b6001600160a01b03163b151590565b611283806101506000396000f3fe608060405234801561001057600080fd5b50600436106101005760003560e01c806391f7cfb911610097578063ac9650d811610066578063ac9650d814610220578063b73e0e8b14610240578063cb2ef6f714610253578063d0fe2e5f1461027957600080fd5b806391f7cfb9146101ec5780639f43ddd2146101f5578063a0a8e460146101fe578063a3e676101461020d57600080fd5b80632eb4a7ab116100d35780632eb4a7ab146101695780633b4b57b014610172578063572b6c05146101855780638da5cb5b146101c157600080fd5b80630598176914610105578063097b3cdb146101215780630ce56cac1461013657806313af403514610156575b600080fd5b61010e60cd5481565b6040519081526020015b60405180910390f35b61013461012f366004610dfe565b61028c565b005b61010e610144366004610e60565b60cf6020526000908152604090205481565b610134610164366004610e60565b6104a7565b61010e60ce5481565b610134610180366004610dfe565b6104f8565b6101b1610193366004610e60565b6001600160a01b031660009081526065602052604090205460ff1690565b6040519015158152602001610118565b6000546201000090046001600160a01b03165b6040516001600160a01b039091168152602001610118565b61010e60cb5481565b61010e60cc5481565b60405160018152602001610118565b60ca546101d4906001600160a01b031681565b61023361022e366004610e7b565b6105d3565b6040516101189190610f19565b60c9546101d4906001600160a01b031681565b7f41697264726f704552433230436c61696d61626c65000000000000000000000061010e565b610134610287366004610f91565b6106c8565b60ce5460009015610318576103148484808060200260200160405190810160405280939291908181526020018383602002808284376000920191909152505060ce546040516bffffffffffffffffffffffff1960608d901b16602082015260348101889052909250605401905060405160208183030381529060405280519060200120610852565b5090505b6001600160a01b038616600090815260cf6020526040902054856103835760405162461bcd60e51b815260206004820152601460248201527f436c61696d696e67207a65726f20746f6b656e7300000000000000000000000060448201526064015b60405180910390fd5b60cb548611156103d55760405162461bcd60e51b815260206004820152601960248201527f6578636565647320617661696c61626c6520746f6b656e732e00000000000000604482015260640161037a565b60cc548015806103e457508042105b6104305760405162461bcd60e51b815260206004820152601060248201527f61697264726f7020657870697265642e00000000000000000000000000000000604482015260640161037a565b60008361043f5760cd54610441565b845b90508061044e848a6110c4565b111561049c5760405162461bcd60e51b815260206004820152601160248201527f696e76616c6964207175616e746974792e000000000000000000000000000000604482015260640161037a565b505050505050505050565b6104af610920565b6104ec5760405162461bcd60e51b815260206004820152600e60248201526d139bdd08185d5d1a1bdc9a5e995960921b604482015260640161037a565b6104f58161094a565b50565b6002600154141561054b5760405162461bcd60e51b815260206004820152601f60248201527f5265656e7472616e637947756172643a207265656e7472616e742063616c6c00604482015260640161037a565b6002600155600061055a6109b2565b9050610569818686868661028c565b61057386866109c1565b856001600160a01b03166105856109b2565b6001600160a01b03167fa86305abc2db271df4609aa86a8d044bc11fb36939841bfdad6c1ab2b26e9471876040516105bf91815260200190565b60405180910390a350506001805550505050565b60608167ffffffffffffffff8111156105ee576105ee610f7b565b60405190808252806020026020018201604052801561062157816020015b606081526020019060019003908161060c5790505b50905060005b828110156106c15761069130858584818110610645576106456110dc565b905060200281019061065791906110f2565b8080601f016020809104026020016040519081016040528093929190818152602001838380828437600092019190915250610aec92505050565b8282815181106106a3576106a36110dc565b602002602001018190525080806106b990611139565b915050610627565b5092915050565b600054610100900460ff16158080156106e85750600054600160ff909116105b806107025750303b158015610702575060005460ff166001145b6107655760405162461bcd60e51b815260206004820152602e60248201527f496e697469616c697a61626c653a20636f6e747261637420697320616c72656160448201526d191e481a5b9a5d1a585b1a5e995960921b606482015260840161037a565b6000805460ff191660011790558015610788576000805461ff0019166101001790555b6107918961094a565b610799610be0565b6107a288610c11565b60ca80546001600160a01b03808a1673ffffffffffffffffffffffffffffffffffffffff199283161790925560c980549289169290911691909117905560cb85905560cc84905560cd83905560ce829055801561049c576000805461ff0019169055604051600181527f7f26b83ff96e1f2b6a682f133852f6798a09c465da95921460cefb38474024989060200160405180910390a1505050505050505050565b6001600160a01b03163b151590565b6000808281805b87518110156109145761086d600283611154565b91506000888281518110610883576108836110dc565b602002602001015190508084116108c5576040805160208101869052908101829052606001604051602081830303815290604052805190602001209350610901565b60408051602081018390529081018590526060016040516020818303038152906040528051906020012093506001836108fe91906110c4565b92505b508061090c81611139565b915050610859565b50941495939450505050565b600080546201000090046001600160a01b031661093b6109b2565b6001600160a01b031614905090565b600080546001600160a01b038381166201000081810275ffffffffffffffffffffffffffffffffffffffff000019851617855560405193049190911692909183917f8292fce18fa69edf4db7b94ea2e58241df0ae57f97e0a6c9b29067028bf92d7691a35050565b60006109bc610c49565b905090565b8060cf60006109ce6109b2565b6001600160a01b03166001600160a01b0316815260200190815260200160002060008282546109fd91906110c4565b925050819055508060cb6000828254610a169190611173565b909155505060c95460ca546040516323b872dd60e01b81526001600160a01b0391821660048201528482166024820152604481018490529116906323b872dd906064016020604051808303816000875af1158015610a78573d6000803e3d6000fd5b505050506040513d601f19601f82011682018060405250810190610a9c919061118a565b610ae85760405162461bcd60e51b815260206004820152600f60248201527f7472616e73666572206661696c65640000000000000000000000000000000000604482015260640161037a565b5050565b60606001600160a01b0383163b610b545760405162461bcd60e51b815260206004820152602660248201527f416464726573733a2064656c65676174652063616c6c20746f206e6f6e2d636f6044820152651b9d1c9858dd60d21b606482015260840161037a565b600080846001600160a01b031684604051610b6f91906111ac565b600060405180830381855af49150503d8060008114610baa576040519150601f19603f3d011682016040523d82523d6000602084013e610baf565b606091505b5091509150610bd7828260405180606001604052806027815260200161122760279139610c73565b95945050505050565b600054610100900460ff16610c075760405162461bcd60e51b815260040161037a906111c8565b610c0f610cb3565b565b600054610100900460ff16610c385760405162461bcd60e51b815260040161037a906111c8565b610c40610ce0565b6104f581610d07565b3360009081526065602052604081205460ff1615610c6e575060131936013560601c90565b503390565b60608315610c82575081610cac565b825115610c925782518084602001fd5b8160405162461bcd60e51b815260040161037a9190611213565b9392505050565b600054610100900460ff16610cda5760405162461bcd60e51b815260040161037a906111c8565b60018055565b600054610100900460ff16610c0f5760405162461bcd60e51b815260040161037a906111c8565b600054610100900460ff16610d2e5760405162461bcd60e51b815260040161037a906111c8565b60005b8151811015610ae857600160656000848481518110610d5257610d526110dc565b6020908102919091018101516001600160a01b03168252810191909152604001600020805460ff191691151591909117905580610d8e81611139565b915050610d31565b80356001600160a01b0381168114610dad57600080fd5b919050565b60008083601f840112610dc457600080fd5b50813567ffffffffffffffff811115610ddc57600080fd5b6020830191508360208260051b8501011115610df757600080fd5b9250929050565b600080600080600060808688031215610e1657600080fd5b610e1f86610d96565b945060208601359350604086013567ffffffffffffffff811115610e4257600080fd5b610e4e88828901610db2565b96999598509660600135949350505050565b600060208284031215610e7257600080fd5b610cac82610d96565b60008060208385031215610e8e57600080fd5b823567ffffffffffffffff811115610ea557600080fd5b610eb185828601610db2565b90969095509350505050565b60005b83811015610ed8578181015183820152602001610ec0565b83811115610ee7576000848401525b50505050565b60008151808452610f05816020860160208601610ebd565b601f01601f19169290920160200192915050565b6000602080830181845280855180835260408601915060408160051b870101925083870160005b82811015610f6e57603f19888603018452610f5c858351610eed565b94509285019290850190600101610f40565b5092979650505050505050565b634e487b7160e01b600052604160045260246000fd5b600080600080600080600080610100898b031215610fae57600080fd5b610fb789610d96565b97506020808a013567ffffffffffffffff80821115610fd557600080fd5b818c0191508c601f830112610fe957600080fd5b813581811115610ffb57610ffb610f7b565b8060051b604051601f19603f8301168101818110858211171561102057611020610f7b565b60405291825284820192508381018501918f83111561103e57600080fd5b938501935b828510156110635761105485610d96565b84529385019392850192611043565b809c5050505050505061107860408a01610d96565b955061108660608a01610d96565b979a969950949760808101359660a0820135965060c0820135955060e0909101359350915050565b634e487b7160e01b600052601160045260246000fd5b600082198211156110d7576110d76110ae565b500190565b634e487b7160e01b600052603260045260246000fd5b6000808335601e1984360301811261110957600080fd5b83018035915067ffffffffffffffff82111561112457600080fd5b602001915036819003821315610df757600080fd5b600060001982141561114d5761114d6110ae565b5060010190565b600081600019048311821515161561116e5761116e6110ae565b500290565b600082821015611185576111856110ae565b500390565b60006020828403121561119c57600080fd5b81518015158114610cac57600080fd5b600082516111be818460208701610ebd565b9190910192915050565b6020808252602b908201527f496e697469616c697a61626c653a20636f6e7472616374206973206e6f74206960408201526a6e697469616c697a696e6760a81b606082015260800190565b602081526000610cac6020830184610eed56fe416464726573733a206c6f772d6c6576656c2064656c65676174652063616c6c206661696c6564a264697066735822122039e3503eb69e1a216f096b4e6297a74eef540bd06211ae8868877ef150f2540464736f6c634300080c0033",
  "linkReferences": {},
  "deployedLinkReferences": {}
}