{
  "_format": "hh-sol-artifact-1",
  "contractName": "AirdropERC1155Claimable",
  "sourceName": "contracts/airdrop/AirdropERC1155Claimable.sol",
  "abi": [
    {
      "inputs": [],
      "stateMutability": "nonpayable",
      "type": "constructor"
    },
    {
      "anonymous": false,
      "inputs": [
        {
          "indexed": false,
          "internalType": "uint8",
          "name": "version",
          "type": "uint8"
        }
      ],
      "name": "Initialized",
      "type": "event"
    },
    {
      "anonymous": false,
      "inputs": [
        {
          "indexed": true,
          "internalType": "address",
          "name": "prevOwner",
          "type": "address"
        },
        {
          "indexed": true,
          "internalType": "address",
          "name": "newOwner",
          "type": "address"
        }
      ],
      "name": "OwnerUpdated",
      "type": "event"
    },
    {
      "anonymous": false,
      "inputs": [
        {
          "indexed": true,
          "internalType": "address",
          "name": "claimer",
          "type": "address"
        },
        {
          "indexed": true,
          "internalType": "address",
          "name": "receiver",
          "type": "address"
        },
        {
          "indexed": true,
          "internalType": "uint256",
          "name": "tokenId",
          "type": "uint256"
        },
        {
          "indexed": false,
          "internalType": "uint256",
          "name": "quantityClaimed",
          "type": "uint256"
        }
      ],
      "name": "TokensClaimed",
      "type": "event"
    },
    {
      "inputs": [],
      "name": "airdropTokenAddress",
      "outputs": [
        {
          "internalType": "address",
          "name": "",
          "type": "address"
        }
      ],
      "stateMutability": "view",
      "type": "function"
    },
    {
      "inputs": [
        {
          "internalType": "uint256",
          "name": "",
          "type": "uint256"
        }
      ],
      "name": "availableAmount",
      "outputs": [
        {
          "internalType": "uint256",
          "name": "",
          "type": "uint256"
        }
      ],
      "stateMutability": "view",
      "type": "function"
    },
    {
      "inputs": [
        {
          "internalType": "address",
          "name": "_receiver",
          "type": "address"
        },
        {
          "internalType": "uint256",
          "name": "_quantity",
          "type": "uint256"
        },
        {
          "internalType": "uint256",
          "name": "_tokenId",
          "type": "uint256"
        },
        {
          "internalType": "bytes32[]",
          "name": "_proofs",
          "type": "bytes32[]"
        },
        {
          "internalType": "uint256",
          "name": "_proofMaxQuantityForWallet",
          "type": "uint256"
        }
      ],
      "name": "claim",
      "outputs": [],
      "stateMutability": "nonpayable",
      "type": "function"
    },
    {
      "inputs": [],
      "name": "contractType",
      "outputs": [
        {
          "internalType": "bytes32",
          "name": "",
          "type": "bytes32"
        }
      ],
      "stateMutability": "pure",
      "type": "function"
    },
    {
      "inputs": [],
      "name": "contractVersion",
      "outputs": [
        {
          "internalType": "uint8",
          "name": "",
          "type": "uint8"
        }
      ],
      "stateMutability": "pure",
      "type": "function"
    },
    {
      "inputs": [],
      "name": "expirationTimestamp",
      "outputs": [
        {
          "internalType": "uint256",
          "name": "",
          "type": "uint256"
        }
      ],
      "stateMutability": "view",
      "type": "function"
    },
    {
      "inputs": [
        {
          "internalType": "address",
          "name": "_defaultAdmin",
          "type": "address"
        },
        {
          "internalType": "address[]",
          "name": "_trustedForwarders",
          "type": "address[]"
        },
        {
          "internalType": "address",
          "name": "_tokenOwner",
          "type": "address"
        },
        {
          "internalType": "address",
          "name": "_airdropTokenAddress",
          "type": "address"
        },
        {
          "internalType": "uint256[]",
          "name": "_tokenIds",
          "type": "uint256[]"
        },
        {
          "internalType": "uint256[]",
          "name": "_availableAmounts",
          "type": "uint256[]"
        },
        {
          "internalType": "uint256",
          "name": "_expirationTimestamp",
          "type": "uint256"
        },
        {
          "internalType": "uint256[]",
          "name": "_maxWalletClaimCount",
          "type": "uint256[]"
        },
        {
          "internalType": "bytes32[]",
          "name": "_merkleRoot",
          "type": "bytes32[]"
        }
      ],
      "name": "initialize",
      "outputs": [],
      "stateMutability": "nonpayable",
      "type": "function"
    },
    {
      "inputs": [
        {
          "internalType": "address",
          "name": "forwarder",
          "type": "address"
        }
      ],
      "name": "isTrustedForwarder",
      "outputs": [
        {
          "internalType": "bool",
          "name": "",
          "type": "bool"
        }
      ],
      "stateMutability": "view",
      "type": "function"
    },
    {
      "inputs": [
        {
          "internalType": "uint256",
          "name": "",
          "type": "uint256"
        }
      ],
      "name": "maxWalletClaimCount",
      "outputs": [
        {
          "internalType": "uint256",
          "name": "",
          "type": "uint256"
        }
      ],
      "stateMutability": "view",
      "type": "function"
    },
    {
      "inputs": [
        {
          "internalType": "uint256",
          "name": "",
          "type": "uint256"
        }
      ],
      "name": "merkleRoot",
      "outputs": [
        {
          "internalType": "bytes32",
          "name": "",
          "type": "bytes32"
        }
      ],
      "stateMutability": "view",
      "type": "function"
    },
    {
      "inputs": [
        {
          "internalType": "bytes[]",
          "name": "data",
          "type": "bytes[]"
        }
      ],
      "name": "multicall",
      "outputs": [
        {
          "internalType": "bytes[]",
          "name": "results",
          "type": "bytes[]"
        }
      ],
      "stateMutability": "nonpayable",
      "type": "function"
    },
    {
      "inputs": [],
      "name": "owner",
      "outputs": [
        {
          "internalType": "address",
          "name": "",
          "type": "address"
        }
      ],
      "stateMutability": "view",
      "type": "function"
    },
    {
      "inputs": [
        {
          "internalType": "address",
          "name": "_newOwner",
          "type": "address"
        }
      ],
      "name": "setOwner",
      "outputs": [],
      "stateMutability": "nonpayable",
      "type": "function"
    },
    {
      "inputs": [
        {
          "internalType": "uint256",
          "name": "",
          "type": "uint256"
        },
        {
          "internalType": "address",
          "name": "",
          "type": "address"
        }
      ],
      "name": "supplyClaimedByWallet",
      "outputs": [
        {
          "internalType": "uint256",
          "name": "",
          "type": "uint256"
        }
      ],
      "stateMutability": "view",
      "type": "function"
    },
    {
      "inputs": [
        {
          "internalType": "uint256",
          "name": "",
          "type": "uint256"
        }
      ],
      "name": "tokenIds",
      "outputs": [
        {
          "internalType": "uint256",
          "name": "",
          "type": "uint256"
        }
      ],
      "stateMutability": "view",
      "type": "function"
    },
    {
      "inputs": [],
      "name": "tokenOwner",
      "outputs": [
        {
          "internalType": "address",
          "name": "",
          "type": "address"
        }
      ],
      "stateMutability": "view",
      "type": "function"
    },
    {
      "inputs": [
        {
          "internalType": "address",
          "name": "_claimer",
          "type": "address"
        },
        {
          "internalType": "uint256",
          "name": "_quantity",
          "type": "uint256"
        },
        {
          "internalType": "uint256",
          "name": "_tokenId",
          "type": "uint256"
        },
        {
          "internalType": "bytes32[]",
          "name": "_proofs",
          "type": "bytes32[]"
        },
        {
          "internalType": "uint256",
          "name": "_proofMaxQuantityForWallet",
          "type": "uint256"
        }
      ],
      "name": "verifyClaim",
      "outputs": [],
      "stateMutability": "view",
      "type": "function"
    }
  ],
  "bytecode": "0x60806040523480156200001157600080fd5b50600054610100900460ff1615808015620000335750600054600160ff909116105b8062000063575062000050306200013d60201b62000a711760201c565b15801562000063575060005460ff166001145b620000cb5760405162461bcd60e51b815260206004820152602e60248201527f496e697469616c697a61626c653a20636f6e747261637420697320616c72656160448201526d191e481a5b9a5d1a585b1a5e995960921b606482015260840160405180910390fd5b6000805460ff191660011790558015620000ef576000805461ff0019166101001790555b801562000136576000805461ff0019169055604051600181527f7f26b83ff96e1f2b6a682f133852f6798a09c465da95921460cefb38474024989060200160405180910390a15b506200014c565b6001600160a01b03163b151590565b611627806200015c6000396000f3fe608060405234801561001057600080fd5b506004361061010b5760003560e01c8063a3e67610116100a2578063b73e0e8b11610071578063b73e0e8b1461027b578063b79cade41461028e578063cb2ef6f7146102ae578063d58778d6146102d4578063f4cebfe6146102e757600080fd5b8063a3e6761014610215578063ac9650d814610228578063adcf817814610248578063b5c150d41461025b57600080fd5b806371b406e4116100de57806371b406e4146101a75780638da5cb5b146101d25780639f43ddd2146101fd578063a0a8e4601461020657600080fd5b806313af40351461011057806338524a10146101255780633c70b35714610138578063572b6c051461016b575b600080fd5b61012361011e366004611012565b6102fa565b005b610123610133366004611079565b610350565b6101586101463660046110e9565b60d06020526000908152604090205481565b6040519081526020015b60405180910390f35b610197610179366004611012565b6001600160a01b031660009081526065602052604090205460ff1690565b6040519015158152602001610162565b6101586101b5366004611102565b60cd60209081526000928352604080842090915290825290205481565b6000546201000090046001600160a01b03165b6040516001600160a01b039091168152602001610162565b61015860cc5481565b60405160018152602001610162565b60ca546101e5906001600160a01b031681565b61023b61023636600461112e565b61042f565b60405161016291906111cc565b610123610256366004611366565b610524565b6101586102693660046110e9565b60cf6020526000908152604090205481565b60c9546101e5906001600160a01b031681565b61015861029c3660046110e9565b60ce6020526000908152604090205481565b7f41697264726f7045524331313535436c61696d61626c65000000000000000000610158565b6101586102e23660046110e9565b61080f565b6101236102f5366004611079565b610830565b610302610a80565b6103445760405162461bcd60e51b815260206004820152600e60248201526d139bdd08185d5d1a1bdc9a5e995960921b60448201526064015b60405180910390fd5b61034d81610aaa565b50565b600260015414156103a35760405162461bcd60e51b815260206004820152601f60248201527f5265656e7472616e637947756172643a207265656e7472616e742063616c6c00604482015260640161033b565b600260015560006103b2610b12565b90506103c2818787878787610830565b6103cd878787610b21565b84876001600160a01b03166103e0610b12565b6001600160a01b03167fff097c7d8b1957a4ff09ef1361b5fb54dcede3941ba836d0beb9d10bec725de68960405161041a91815260200190565b60405180910390a45050600180555050505050565b60608167ffffffffffffffff81111561044a5761044a61122e565b60405190808252806020026020018201604052801561047d57816020015b60608152602001906001900390816104685790505b50905060005b8281101561051d576104ed308585848181106104a1576104a1611474565b90506020028101906104b3919061148a565b8080601f016020809104026020016040519081016040528093929190818152602001838380828437600092019190915250610c1a92505050565b8282815181106104ff576104ff611474565b60200260200101819052508080610515906114e7565b915050610483565b5092915050565b600054610100900460ff16158080156105445750600054600160ff909116105b8061055e5750303b15801561055e575060005460ff166001145b6105c15760405162461bcd60e51b815260206004820152602e60248201527f496e697469616c697a61626c653a20636f6e747261637420697320616c72656160448201526d191e481a5b9a5d1a585b1a5e995960921b606482015260840161033b565b6000805460ff1916600117905580156105e4576000805461ff0019166101001790555b6105ed8a610aaa565b6105f5610d0e565b6105fe89610d3f565b60ca80546001600160a01b03808b1673ffffffffffffffffffffffffffffffffffffffff199283161790925560c98054928a1692909116919091179055855161064e9060cb906020890190610f96565b5060cc84905585518351148015610666575085518251145b8015610673575085518551145b6106bf5760405162461bcd60e51b815260206004820152601060248201527f6c656e677468206d69736d617463682e00000000000000000000000000000000604482015260640161033b565b60005b86518110156107bc578281815181106106dd576106dd611474565b602002602001015160d060008984815181106106fb576106fb611474565b602002602001015181526020019081526020016000208190555083818151811061072757610727611474565b602002602001015160ce600089848151811061074557610745611474565b602002602001015181526020019081526020016000208190555085818151811061077157610771611474565b602002602001015160cf600089848151811061078f5761078f611474565b602002602001015181526020019081526020016000208190555080806107b4906114e7565b9150506106c2565b508015610803576000805461ff0019169055604051600181527f7f26b83ff96e1f2b6a682f133852f6798a09c465da95921460cefb38474024989060200160405180910390a15b50505050505050505050565b60cb818154811061081f57600080fd5b600091825260209091200154905081565b600084815260d0602052604081205480156108c3576108bf858580806020026020016040519081016040528093929190818152602001838360200280828437600092019190915250506040516bffffffffffffffffffffffff1960608e901b16602082015260348101889052859250605401905060405160208183030381529060405280519060200120610d77565b5091505b600086815260cd602090815260408083206001600160a01b038c168452909152902054876109335760405162461bcd60e51b815260206004820152601460248201527f436c61696d696e67207a65726f20746f6b656e73000000000000000000000000604482015260640161033b565b600087815260cf60205260409020548811156109915760405162461bcd60e51b815260206004820152601960248201527f6578636565647320617661696c61626c6520746f6b656e732e00000000000000604482015260640161033b565b60cc548015806109a057508042105b6109ec5760405162461bcd60e51b815260206004820152601060248201527f61697264726f7020657870697265642e00000000000000000000000000000000604482015260640161033b565b600084610a0757600089815260ce6020526040902054610a09565b855b905080610a16848c611502565b1115610a645760405162461bcd60e51b815260206004820152601160248201527f696e76616c6964207175616e746974792e000000000000000000000000000000604482015260640161033b565b5050505050505050505050565b6001600160a01b03163b151590565b600080546201000090046001600160a01b0316610a9b610b12565b6001600160a01b031614905090565b600080546001600160a01b038381166201000081810275ffffffffffffffffffffffffffffffffffffffff000019851617855560405193049190911692909183917f8292fce18fa69edf4db7b94ea2e58241df0ae57f97e0a6c9b29067028bf92d7691a35050565b6000610b1c610e45565b905090565b600081815260cd602052604081208391610b39610b12565b6001600160a01b03166001600160a01b031681526020019081526020016000206000828254610b689190611502565b9091555050600081815260cf602052604081208054849290610b8b90849061151a565b909155505060c95460ca54604051637921219560e11b81526001600160a01b0391821660048201528582166024820152604481018490526064810185905260a06084820152600060a482015291169063f242432a9060c401600060405180830381600087803b158015610bfd57600080fd5b505af1158015610c11573d6000803e3d6000fd5b50505050505050565b60606001600160a01b0383163b610c825760405162461bcd60e51b815260206004820152602660248201527f416464726573733a2064656c65676174652063616c6c20746f206e6f6e2d636f6044820152651b9d1c9858dd60d21b606482015260840161033b565b600080846001600160a01b031684604051610c9d9190611531565b600060405180830381855af49150503d8060008114610cd8576040519150601f19603f3d011682016040523d82523d6000602084013e610cdd565b606091505b5091509150610d0582826040518060600160405280602781526020016115cb60279139610e6f565b95945050505050565b600054610100900460ff16610d355760405162461bcd60e51b815260040161033b9061154d565b610d3d610eaf565b565b600054610100900460ff16610d665760405162461bcd60e51b815260040161033b9061154d565b610d6e610edc565b61034d81610f03565b6000808281805b8751811015610e3957610d92600283611598565b91506000888281518110610da857610da8611474565b60200260200101519050808411610dea576040805160208101869052908101829052606001604051602081830303815290604052805190602001209350610e26565b6040805160208101839052908101859052606001604051602081830303815290604052805190602001209350600183610e239190611502565b92505b5080610e31816114e7565b915050610d7e565b50941495939450505050565b3360009081526065602052604081205460ff1615610e6a575060131936013560601c90565b503390565b60608315610e7e575081610ea8565b825115610e8e5782518084602001fd5b8160405162461bcd60e51b815260040161033b91906115b7565b9392505050565b600054610100900460ff16610ed65760405162461bcd60e51b815260040161033b9061154d565b60018055565b600054610100900460ff16610d3d5760405162461bcd60e51b815260040161033b9061154d565b600054610100900460ff16610f2a5760405162461bcd60e51b815260040161033b9061154d565b60005b8151811015610f9257600160656000848481518110610f4e57610f4e611474565b6020908102919091018101516001600160a01b03168252810191909152604001600020805460ff191691151591909117905580610f8a816114e7565b915050610f2d565b5050565b828054828255906000526020600020908101928215610fd1579160200282015b82811115610fd1578251825591602001919060010190610fb6565b50610fdd929150610fe1565b5090565b5b80821115610fdd5760008155600101610fe2565b80356001600160a01b038116811461100d57600080fd5b919050565b60006020828403121561102457600080fd5b610ea882610ff6565b60008083601f84011261103f57600080fd5b50813567ffffffffffffffff81111561105757600080fd5b6020830191508360208260051b850101111561107257600080fd5b9250929050565b60008060008060008060a0878903121561109257600080fd5b61109b87610ff6565b95506020870135945060408701359350606087013567ffffffffffffffff8111156110c557600080fd5b6110d189828a0161102d565b979a9699509497949695608090950135949350505050565b6000602082840312156110fb57600080fd5b5035919050565b6000806040838503121561111557600080fd5b8235915061112560208401610ff6565b90509250929050565b6000806020838503121561114157600080fd5b823567ffffffffffffffff81111561115857600080fd5b6111648582860161102d565b90969095509350505050565b60005b8381101561118b578181015183820152602001611173565b8381111561119a576000848401525b50505050565b600081518084526111b8816020860160208601611170565b601f01601f19169290920160200192915050565b6000602080830181845280855180835260408601915060408160051b870101925083870160005b8281101561122157603f1988860301845261120f8583516111a0565b945092850192908501906001016111f3565b5092979650505050505050565b634e487b7160e01b600052604160045260246000fd5b604051601f8201601f1916810167ffffffffffffffff8111828210171561126d5761126d61122e565b604052919050565b600067ffffffffffffffff82111561128f5761128f61122e565b5060051b60200190565b600082601f8301126112aa57600080fd5b813560206112bf6112ba83611275565b611244565b82815260059290921b840181019181810190868411156112de57600080fd5b8286015b84811015611300576112f381610ff6565b83529183019183016112e2565b509695505050505050565b600082601f83011261131c57600080fd5b8135602061132c6112ba83611275565b82815260059290921b8401810191818101908684111561134b57600080fd5b8286015b84811015611300578035835291830191830161134f565b60008060008060008060008060006101208a8c03121561138557600080fd5b61138e8a610ff6565b985060208a013567ffffffffffffffff808211156113ab57600080fd5b6113b78d838e01611299565b99506113c560408d01610ff6565b98506113d360608d01610ff6565b975060808c01359150808211156113e957600080fd5b6113f58d838e0161130b565b965060a08c013591508082111561140b57600080fd5b6114178d838e0161130b565b955060c08c0135945060e08c013591508082111561143457600080fd5b6114408d838e0161130b565b93506101008c013591508082111561145757600080fd5b506114648c828d0161130b565b9150509295985092959850929598565b634e487b7160e01b600052603260045260246000fd5b6000808335601e198436030181126114a157600080fd5b83018035915067ffffffffffffffff8211156114bc57600080fd5b60200191503681900382131561107257600080fd5b634e487b7160e01b600052601160045260246000fd5b60006000198214156114fb576114fb6114d1565b5060010190565b60008219821115611515576115156114d1565b500190565b60008282101561152c5761152c6114d1565b500390565b60008251611543818460208701611170565b9190910192915050565b6020808252602b908201527f496e697469616c697a61626c653a20636f6e7472616374206973206e6f74206960408201526a6e697469616c697a696e6760a81b606082015260800190565b60008160001904831182151516156115b2576115b26114d1565b500290565b602081526000610ea860208301846111a056fe416464726573733a206c6f772d6c6576656c2064656c65676174652063616c6c206661696c6564a26469706673582212209fd74cbfde2218827acce213c29b96b79924e03f2eb4bf5590e4a521e15d0f1464736f6c634300080c0033",
  "linkReferences": {},
  "deployedLinkReferences": {}
}