{
  "_format": "hh-sol-artifact-1",
  "contractName": "AirdropERC1155",
  "sourceName": "contracts/airdrop/AirdropERC1155.sol",
  "abi": [
    {
      "inputs": [],
      "stateMutability": "nonpayable",
      "type": "constructor"
    },
    {
      "anonymous": false,
      "inputs": [
        {
          "indexed": true,
          "internalType": "address",
          "name": "recipient",
          "type": "address"
        },
        {
          "components": [
            {
              "internalType": "address",
              "name": "tokenAddress",
              "type": "address"
            },
            {
              "internalType": "address",
              "name": "tokenOwner",
              "type": "address"
            },
            {
              "internalType": "address",
              "name": "recipient",
              "type": "address"
            },
            {
              "internalType": "uint256",
              "name": "tokenId",
              "type": "uint256"
            },
            {
              "internalType": "uint256",
              "name": "amount",
              "type": "uint256"
            }
          ],
          "indexed": false,
          "internalType": "struct IAirdropERC1155.AirdropContent",
          "name": "content",
          "type": "tuple"
        }
      ],
      "name": "AirdropPayment",
      "type": "event"
    },
    {
      "anonymous": false,
      "inputs": [
        {
          "indexed": false,
          "internalType": "uint8",
          "name": "version",
          "type": "uint8"
        }
      ],
      "name": "Initialized",
      "type": "event"
    },
    {
      "anonymous": false,
      "inputs": [
        {
          "indexed": true,
          "internalType": "address",
          "name": "prevOwner",
          "type": "address"
        },
        {
          "indexed": true,
          "internalType": "address",
          "name": "newOwner",
          "type": "address"
        }
      ],
      "name": "OwnerUpdated",
      "type": "event"
    },
    {
      "anonymous": false,
      "inputs": [
        {
          "components": [
            {
              "internalType": "address",
              "name": "tokenAddress",
              "type": "address"
            },
            {
              "internalType": "address",
              "name": "tokenOwner",
              "type": "address"
            },
            {
              "internalType": "address",
              "name": "recipient",
              "type": "address"
            },
            {
              "internalType": "uint256",
              "name": "tokenId",
              "type": "uint256"
            },
            {
              "internalType": "uint256",
              "name": "amount",
              "type": "uint256"
            }
          ],
          "indexed": false,
          "internalType": "struct IAirdropERC1155.AirdropContent[]",
          "name": "_contents",
          "type": "tuple[]"
        }
      ],
      "name": "RecipientsAdded",
      "type": "event"
    },
    {
      "anonymous": false,
      "inputs": [
        {
          "indexed": true,
          "internalType": "bytes32",
          "name": "role",
          "type": "bytes32"
        },
        {
          "indexed": true,
          "internalType": "bytes32",
          "name": "previousAdminRole",
          "type": "bytes32"
        },
        {
          "indexed": true,
          "internalType": "bytes32",
          "name": "newAdminRole",
          "type": "bytes32"
        }
      ],
      "name": "RoleAdminChanged",
      "type": "event"
    },
    {
      "anonymous": false,
      "inputs": [
        {
          "indexed": true,
          "internalType": "bytes32",
          "name": "role",
          "type": "bytes32"
        },
        {
          "indexed": true,
          "internalType": "address",
          "name": "account",
          "type": "address"
        },
        {
          "indexed": true,
          "internalType": "address",
          "name": "sender",
          "type": "address"
        }
      ],
      "name": "RoleGranted",
      "type": "event"
    },
    {
      "anonymous": false,
      "inputs": [
        {
          "indexed": true,
          "internalType": "bytes32",
          "name": "role",
          "type": "bytes32"
        },
        {
          "indexed": true,
          "internalType": "address",
          "name": "account",
          "type": "address"
        },
        {
          "indexed": true,
          "internalType": "address",
          "name": "sender",
          "type": "address"
        }
      ],
      "name": "RoleRevoked",
      "type": "event"
    },
    {
      "inputs": [],
      "name": "DEFAULT_ADMIN_ROLE",
      "outputs": [
        {
          "internalType": "bytes32",
          "name": "",
          "type": "bytes32"
        }
      ],
      "stateMutability": "view",
      "type": "function"
    },
    {
      "inputs": [
        {
          "components": [
            {
              "internalType": "address",
              "name": "tokenAddress",
              "type": "address"
            },
            {
              "internalType": "address",
              "name": "tokenOwner",
              "type": "address"
            },
            {
              "internalType": "address",
              "name": "recipient",
              "type": "address"
            },
            {
              "internalType": "uint256",
              "name": "tokenId",
              "type": "uint256"
            },
            {
              "internalType": "uint256",
              "name": "amount",
              "type": "uint256"
            }
          ],
          "internalType": "struct IAirdropERC1155.AirdropContent[]",
          "name": "_contents",
          "type": "tuple[]"
        }
      ],
      "name": "addAirdropRecipients",
      "outputs": [],
      "stateMutability": "nonpayable",
      "type": "function"
    },
    {
      "inputs": [
        {
          "internalType": "address",
          "name": "_tokenAddress",
          "type": "address"
        },
        {
          "internalType": "address",
          "name": "_tokenOwner",
          "type": "address"
        },
        {
          "components": [
            {
              "internalType": "address",
              "name": "tokenAddress",
              "type": "address"
            },
            {
              "internalType": "address",
              "name": "tokenOwner",
              "type": "address"
            },
            {
              "internalType": "address",
              "name": "recipient",
              "type": "address"
            },
            {
              "internalType": "uint256",
              "name": "tokenId",
              "type": "uint256"
            },
            {
              "internalType": "uint256",
              "name": "amount",
              "type": "uint256"
            }
          ],
          "internalType": "struct IAirdropERC1155.AirdropContent[]",
          "name": "_contents",
          "type": "tuple[]"
        }
      ],
      "name": "airdrop",
      "outputs": [],
      "stateMutability": "nonpayable",
      "type": "function"
    },
    {
      "inputs": [
        {
          "internalType": "uint256",
          "name": "paymentsToProcess",
          "type": "uint256"
        }
      ],
      "name": "airdrop",
      "outputs": [],
      "stateMutability": "nonpayable",
      "type": "function"
    },
    {
      "inputs": [],
      "name": "contractType",
      "outputs": [
        {
          "internalType": "bytes32",
          "name": "",
          "type": "bytes32"
        }
      ],
      "stateMutability": "pure",
      "type": "function"
    },
    {
      "inputs": [],
      "name": "contractVersion",
      "outputs": [
        {
          "internalType": "uint8",
          "name": "",
          "type": "uint8"
        }
      ],
      "stateMutability": "pure",
      "type": "function"
    },
    {
      "inputs": [],
      "name": "getAllAirdropPayments",
      "outputs": [
        {
          "components": [
            {
              "internalType": "address",
              "name": "tokenAddress",
              "type": "address"
            },
            {
              "internalType": "address",
              "name": "tokenOwner",
              "type": "address"
            },
            {
              "internalType": "address",
              "name": "recipient",
              "type": "address"
            },
            {
              "internalType": "uint256",
              "name": "tokenId",
              "type": "uint256"
            },
            {
              "internalType": "uint256",
              "name": "amount",
              "type": "uint256"
            }
          ],
          "internalType": "struct IAirdropERC1155.AirdropContent[]",
          "name": "contents",
          "type": "tuple[]"
        }
      ],
      "stateMutability": "view",
      "type": "function"
    },
    {
      "inputs": [],
      "name": "getAllAirdropPaymentsFailed",
      "outputs": [
        {
          "components": [
            {
              "internalType": "address",
              "name": "tokenAddress",
              "type": "address"
            },
            {
              "internalType": "address",
              "name": "tokenOwner",
              "type": "address"
            },
            {
              "internalType": "address",
              "name": "recipient",
              "type": "address"
            },
            {
              "internalType": "uint256",
              "name": "tokenId",
              "type": "uint256"
            },
            {
              "internalType": "uint256",
              "name": "amount",
              "type": "uint256"
            }
          ],
          "internalType": "struct IAirdropERC1155.AirdropContent[]",
          "name": "contents",
          "type": "tuple[]"
        }
      ],
      "stateMutability": "view",
      "type": "function"
    },
    {
      "inputs": [],
      "name": "getAllAirdropPaymentsPending",
      "outputs": [
        {
          "components": [
            {
              "internalType": "address",
              "name": "tokenAddress",
              "type": "address"
            },
            {
              "internalType": "address",
              "name": "tokenOwner",
              "type": "address"
            },
            {
              "internalType": "address",
              "name": "recipient",
              "type": "address"
            },
            {
              "internalType": "uint256",
              "name": "tokenId",
              "type": "uint256"
            },
            {
              "internalType": "uint256",
              "name": "amount",
              "type": "uint256"
            }
          ],
          "internalType": "struct IAirdropERC1155.AirdropContent[]",
          "name": "contents",
          "type": "tuple[]"
        }
      ],
      "stateMutability": "view",
      "type": "function"
    },
    {
      "inputs": [],
      "name": "getAllAirdropPaymentsProcessed",
      "outputs": [
        {
          "components": [
            {
              "internalType": "address",
              "name": "tokenAddress",
              "type": "address"
            },
            {
              "internalType": "address",
              "name": "tokenOwner",
              "type": "address"
            },
            {
              "internalType": "address",
              "name": "recipient",
              "type": "address"
            },
            {
              "internalType": "uint256",
              "name": "tokenId",
              "type": "uint256"
            },
            {
              "internalType": "uint256",
              "name": "amount",
              "type": "uint256"
            }
          ],
          "internalType": "struct IAirdropERC1155.AirdropContent[]",
          "name": "contents",
          "type": "tuple[]"
        }
      ],
      "stateMutability": "view",
      "type": "function"
    },
    {
      "inputs": [
        {
          "internalType": "bytes32",
          "name": "role",
          "type": "bytes32"
        }
      ],
      "name": "getRoleAdmin",
      "outputs": [
        {
          "internalType": "bytes32",
          "name": "",
          "type": "bytes32"
        }
      ],
      "stateMutability": "view",
      "type": "function"
    },
    {
      "inputs": [
        {
          "internalType": "bytes32",
          "name": "role",
          "type": "bytes32"
        },
        {
          "internalType": "uint256",
          "name": "index",
          "type": "uint256"
        }
      ],
      "name": "getRoleMember",
      "outputs": [
        {
          "internalType": "address",
          "name": "member",
          "type": "address"
        }
      ],
      "stateMutability": "view",
      "type": "function"
    },
    {
      "inputs": [
        {
          "internalType": "bytes32",
          "name": "role",
          "type": "bytes32"
        }
      ],
      "name": "getRoleMemberCount",
      "outputs": [
        {
          "internalType": "uint256",
          "name": "count",
          "type": "uint256"
        }
      ],
      "stateMutability": "view",
      "type": "function"
    },
    {
      "inputs": [
        {
          "internalType": "bytes32",
          "name": "role",
          "type": "bytes32"
        },
        {
          "internalType": "address",
          "name": "account",
          "type": "address"
        }
      ],
      "name": "grantRole",
      "outputs": [],
      "stateMutability": "nonpayable",
      "type": "function"
    },
    {
      "inputs": [
        {
          "internalType": "bytes32",
          "name": "role",
          "type": "bytes32"
        },
        {
          "internalType": "address",
          "name": "account",
          "type": "address"
        }
      ],
      "name": "hasRole",
      "outputs": [
        {
          "internalType": "bool",
          "name": "",
          "type": "bool"
        }
      ],
      "stateMutability": "view",
      "type": "function"
    },
    {
      "inputs": [
        {
          "internalType": "bytes32",
          "name": "role",
          "type": "bytes32"
        },
        {
          "internalType": "address",
          "name": "account",
          "type": "address"
        }
      ],
      "name": "hasRoleWithSwitch",
      "outputs": [
        {
          "internalType": "bool",
          "name": "",
          "type": "bool"
        }
      ],
      "stateMutability": "view",
      "type": "function"
    },
    {
      "inputs": [
        {
          "internalType": "address",
          "name": "_defaultAdmin",
          "type": "address"
        }
      ],
      "name": "initialize",
      "outputs": [],
      "stateMutability": "nonpayable",
      "type": "function"
    },
    {
      "inputs": [
        {
          "internalType": "bytes[]",
          "name": "data",
          "type": "bytes[]"
        }
      ],
      "name": "multicall",
      "outputs": [
        {
          "internalType": "bytes[]",
          "name": "results",
          "type": "bytes[]"
        }
      ],
      "stateMutability": "nonpayable",
      "type": "function"
    },
    {
      "inputs": [],
      "name": "owner",
      "outputs": [
        {
          "internalType": "address",
          "name": "",
          "type": "address"
        }
      ],
      "stateMutability": "view",
      "type": "function"
    },
    {
      "inputs": [],
      "name": "payeeCount",
      "outputs": [
        {
          "internalType": "uint256",
          "name": "",
          "type": "uint256"
        }
      ],
      "stateMutability": "view",
      "type": "function"
    },
    {
      "inputs": [],
      "name": "processedCount",
      "outputs": [
        {
          "internalType": "uint256",
          "name": "",
          "type": "uint256"
        }
      ],
      "stateMutability": "view",
      "type": "function"
    },
    {
      "inputs": [
        {
          "internalType": "bytes32",
          "name": "role",
          "type": "bytes32"
        },
        {
          "internalType": "address",
          "name": "account",
          "type": "address"
        }
      ],
      "name": "renounceRole",
      "outputs": [],
      "stateMutability": "nonpayable",
      "type": "function"
    },
    {
      "inputs": [
        {
          "internalType": "bytes32",
          "name": "role",
          "type": "bytes32"
        },
        {
          "internalType": "address",
          "name": "account",
          "type": "address"
        }
      ],
      "name": "revokeRole",
      "outputs": [],
      "stateMutability": "nonpayable",
      "type": "function"
    },
    {
      "inputs": [
        {
          "internalType": "address",
          "name": "_newOwner",
          "type": "address"
        }
      ],
      "name": "setOwner",
      "outputs": [],
      "stateMutability": "nonpayable",
      "type": "function"
    }
  ],
  "bytecode": "0x60806040523480156200001157600080fd5b50600054610100900460ff1615808015620000335750600054600160ff909116105b8062000063575062000050306200013d60201b620012b81760201c565b15801562000063575060005460ff166001145b620000cb5760405162461bcd60e51b815260206004820152602e60248201527f496e697469616c697a61626c653a20636f6e747261637420697320616c72656160448201526d191e481a5b9a5d1a585b1a5e995960921b606482015260840160405180910390fd5b6000805460ff191660011790558015620000ef576000805461ff0019166101001790555b801562000136576000805461ff0019169055604051600181527f7f26b83ff96e1f2b6a682f133852f6798a09c465da95921460cefb38474024989060200160405180910390a15b506200014c565b6001600160a01b03163b151590565b611fd9806200015c6000396000f3fe608060405234801561001057600080fd5b50600436106101975760003560e01c8063a0a8e460116100e3578063ca15c8731161008c578063d237f87011610066578063d237f87014610380578063d547741f14610388578063d982f43d1461039b57600080fd5b8063ca15c8731461034e578063cadacac014610361578063cb2ef6f71461036957600080fd5b8063a32fa5b3116100bd578063a32fa5b314610308578063ac9650d81461031b578063c4d66de81461033b57600080fd5b8063a0a8e460146102de578063a0deca13146102ed578063a217fddf1461030057600080fd5b806362943298116101455780639010d07c1161011f5780639010d07c1461026f57806391d148541461028257806397dc4a13146102cb57600080fd5b80636294329814610226578063803f0f651461022f5780638da5cb5b1461024457600080fd5b80632f2ff15d116101765780632f2ff15d146101ed5780633487037b1461020057806336568abe1461021357600080fd5b8062dbe1091461019c57806313af4035146101b8578063248a9ca3146101cd575b600080fd5b6101a560685481565b6040519081526020015b60405180910390f35b6101cb6101c636600461191f565b6103a3565b005b6101a56101db36600461193c565b60009081526002602052604090205490565b6101cb6101fb366004611955565b610405565b6101cb61020e3660046119d1565b61049f565b6101cb610221366004611955565b61067f565b6101a560695481565b6102376106e1565b6040516101af9190611a36565b6000546201000090046001600160a01b03165b6040516001600160a01b0390911681526020016101af565b61025761027d366004611abe565b610815565b6102bb610290366004611955565b60009182526001602090815260408084206001600160a01b0393909316845291905290205460ff1690565b60405190151581526020016101af565b6101cb6102d936600461193c565b610917565b604051600181526020016101af565b6101cb6102fb366004611ae0565b610b2e565b6101a5600081565b6102bb610316366004611955565b610c38565b61032e610329366004611b22565b610c8e565b6040516101af9190611bf3565b6101cb61034936600461191f565b610d83565b6101a561035c36600461193c565b610ea8565b610237610f43565b6d41697264726f704552433131353560901b6101a5565b61023761105a565b6101cb610396366004611955565b61116c565b610237611185565b6000546201000090046001600160a01b031633146103f95760405162461bcd60e51b815260206004820152600e60248201526d139bdd08185d5d1a1bdc9a5e995960921b60448201526064015b60405180910390fd5b610402816112c7565b50565b60008281526002602052604090205461041e903361132f565b60008281526001602090815260408083206001600160a01b038516845290915290205460ff16156104915760405162461bcd60e51b815260206004820152601d60248201527f43616e206f6e6c79206772616e7420746f206e6f6e20686f6c6465727300000060448201526064016103f0565b61049b82826113af565b5050565b600260045414156104f25760405162461bcd60e51b815260206004820152601f60248201527f5265656e7472616e637947756172643a207265656e7472616e742063616c6c0060448201526064016103f0565b60026004556000546201000090046001600160a01b031633146105485760405162461bcd60e51b815260206004820152600e60248201526d139bdd08185d5d1a1bdc9a5e995960921b60448201526064016103f0565b808460005b8281101561067157816001600160a01b031663f242432a8787878581811061057757610577611c55565b905060a00201604001602081019061058f919061191f565b8888868181106105a1576105a1611c55565b905060a00201606001358989878181106105bd576105bd611c55565b6040517fffffffff0000000000000000000000000000000000000000000000000000000060e089901b1681526001600160a01b039687166004820152959094166024860152506044840191909152608060a092830291909101013560648301526084820152600060a482015260c401600060405180830381600087803b15801561064657600080fd5b505af115801561065a573d6000803e3d6000fd5b50505050808061066990611c81565b91505061054d565b505060016004555050505050565b336001600160a01b038216146106d75760405162461bcd60e51b815260206004820152601a60248201527f43616e206f6e6c792072656e6f756e636520666f722073656c6600000000000060448201526064016103f0565b61049b82826113c3565b606854606954606091906106f58183611c9c565b67ffffffffffffffff81111561070d5761070d611cb3565b60405190808252806020026020018201604052801561076657816020015b6040805160a08101825260008082526020808301829052928201819052606082018190526080820152825260001990920191018161072b5790505b5092506000815b8381101561080e576000818152606b6020908152604091829020825160a08101845281546001600160a01b039081168252600183015481169382019390935260028201549092169282019290925260038201546060820152600490910154608082015285518690849081106107e4576107e4611c55565b60209081029190910101526107fa600183611cc9565b9150610807600182611cc9565b905061076d565b5050505090565b60008281526003602052604081205481805b8281101561090d5760008681526003602090815260408083208484526001019091529020546001600160a01b0316156108a457848214156108925760008681526003602090815260408083209383526001909301905220546001600160a01b03169250610911915050565b61089d600183611cc9565b91506108fb565b600086815260016020908152604080832083805290915290205460ff1680156108e85750600086815260036020908152604080832083805260020190915290205481145b156108fb576108f8600183611cc9565b91505b610906600182611cc9565b9050610827565b5050505b92915050565b6002600454141561096a5760405162461bcd60e51b815260206004820152601f60248201527f5265656e7472616e637947756172643a207265656e7472616e742063616c6c0060448201526064016103f0565b6002600455606854606954816109808483611cc9565b11156109ce5760405162461bcd60e51b815260206004820152601760248201527f696e76616c6964206e6f2e206f66207061796d656e747300000000000000000060448201526064016103f0565b82606960008282546109e09190611cc9565b909155508190505b6109f28483611cc9565b811015610b23576000818152606b60209081526040808320815160a0808201845282546001600160a01b03908116808452600185015482169684018790526002850154909116838601819052600385015460608501819052600495860154608086018190529651637921219560e11b815295860197909752602485015260448401959095526064830193909352608482019290925260a48101939093529163f242432a9060c401600060405180830381600087803b158015610ab357600080fd5b505af1158015610ac7573d6000803e3d6000fd5b5050505080604001516001600160a01b03167f8d51e906da2d77ddedb9740db0b717a1e039754aca2d32cac44bc2b0edf6e59a82604051610b089190611ce1565b60405180910390a250610b1c600182611cc9565b90506109e8565b505060016004555050565b6000610b3a813361132f565b8180610b885760405162461bcd60e51b815260206004820152601360248201527f4e6f207061796565732070726f76696465642e0000000000000000000000000060448201526064016103f0565b606880549082906000610b9b8385611cc9565b909155508190505b82811015610bf757858582818110610bbd57610bbd611c55565b905060a00201606b60008381526020019081526020016000208181610be29190611d29565b50610bf09050600182611cc9565b9050610ba3565b507f6dca22ac97ed45b8d5476d6a6f5e6a1b2f9f3ff7ad0d70c42a0d4d4369bbb3588585604051610c29929190611dbe565b60405180910390a15050505050565b600082815260016020908152604080832083805290915281205460ff16610c85575060008281526001602090815260408083206001600160a01b038516845290915290205460ff16610911565b50600192915050565b60608167ffffffffffffffff811115610ca957610ca9611cb3565b604051908082528060200260200182016040528015610cdc57816020015b6060815260200190600190039081610cc75790505b50905060005b82811015610d7c57610d4c30858584818110610d0057610d00611c55565b9050602002810190610d129190611e4f565b8080601f01602080910402602001604051908101604052809392919081815260200183838082843760009201919091525061141a92505050565b828281518110610d5e57610d5e611c55565b60200260200101819052508080610d7490611c81565b915050610ce2565b5092915050565b600054610100900460ff1615808015610da35750600054600160ff909116105b80610dbd5750303b158015610dbd575060005460ff166001145b610e205760405162461bcd60e51b815260206004820152602e60248201527f496e697469616c697a61626c653a20636f6e747261637420697320616c72656160448201526d191e481a5b9a5d1a585b1a5e995960921b60648201526084016103f0565b6000805460ff191660011790558015610e43576000805461ff0019166101001790555b610e4e6000836113af565b610e57826112c7565b610e5f61150e565b801561049b576000805461ff0019169055604051600181527f7f26b83ff96e1f2b6a682f133852f6798a09c465da95921460cefb38474024989060200160405180910390a15050565b600081815260036020526040812054815b81811015610f0c5760008481526003602090815260408083208484526001019091529020546001600160a01b031615610efa57610ef7600184611cc9565b92505b610f05600182611cc9565b9050610eb9565b50600083815260016020908152604080832083805290915290205460ff1615610f3d57610f3a600183611cc9565b91505b50919050565b6068546060908067ffffffffffffffff811115610f6257610f62611cb3565b604051908082528060200260200182016040528015610fbb57816020015b6040805160a081018252600080825260208083018290529282018190526060820181905260808201528252600019909201910181610f805790505b50915060005b81811015611055576000818152606b6020908152604091829020825160a08101845281546001600160a01b0390811682526001830154811693820193909352600282015490921692820192909252600382015460608201526004909101546080820152835184908390811061103857611038611c55565b602090810291909101015261104e600182611cc9565b9050610fc1565b505090565b6069546060908067ffffffffffffffff81111561107957611079611cb3565b6040519080825280602002602001820160405280156110d257816020015b6040805160a0810182526000808252602080830182905292820181905260608201819052608082015282526000199092019101816110975790505b50915060005b81811015611055576000818152606b6020908152604091829020825160a08101845281546001600160a01b0390811682526001830154811693820193909352600282015490921692820192909252600382015460608201526004909101546080820152835184908390811061114f5761114f611c55565b6020908102919091010152611165600182611cc9565b90506110d8565b6000828152600260205260409020546106d7903361132f565b606a546060908067ffffffffffffffff8111156111a4576111a4611cb3565b6040519080825280602002602001820160405280156111fd57816020015b6040805160a0810182526000808252602080830182905292820181905260608201819052608082015282526000199092019101816111c25790505b50915060005b8181101561105557606b6000606a838154811061122257611222611c55565b600091825260208083209091015483528281019390935260409182019020815160a08101835281546001600160a01b039081168252600183015481169482019490945260028201549093169183019190915260038101546060830152600401546080820152835184908390811061129b5761129b611c55565b60209081029190910101526112b1600182611cc9565b9050611203565b6001600160a01b03163b151590565b600080546001600160a01b038381166201000081810275ffffffffffffffffffffffffffffffffffffffff000019851617855560405193049190911692909183917f8292fce18fa69edf4db7b94ea2e58241df0ae57f97e0a6c9b29067028bf92d7691a35050565b60008281526001602090815260408083206001600160a01b038516845290915290205460ff1661049b5761136d816001600160a01b03166014611583565b611378836020611583565b604051602001611389929190611e96565b60408051601f198184030181529082905262461bcd60e51b82526103f091600401611f17565b6113b98282611733565b61049b8282611790565b6113cd82826117fd565b60008281526003602090815260408083206001600160a01b03851680855260028201808552838620805487526001909301855292852080546001600160a01b031916905584529152555050565b60606001600160a01b0383163b6114825760405162461bcd60e51b815260206004820152602660248201527f416464726573733a2064656c65676174652063616c6c20746f206e6f6e2d636f6044820152651b9d1c9858dd60d21b60648201526084016103f0565b600080846001600160a01b03168460405161149d9190611f2a565b600060405180830381855af49150503d80600081146114d8576040519150601f19603f3d011682016040523d82523d6000602084013e6114dd565b606091505b50915091506115058282604051806060016040528060278152602001611f7d6027913961185f565b95945050505050565b600054610100900460ff166115795760405162461bcd60e51b815260206004820152602b60248201527f496e697469616c697a61626c653a20636f6e7472616374206973206e6f74206960448201526a6e697469616c697a696e6760a81b60648201526084016103f0565b611581611898565b565b60606000611592836002611f46565b61159d906002611cc9565b67ffffffffffffffff8111156115b5576115b5611cb3565b6040519080825280601f01601f1916602001820160405280156115df576020820181803683370190505b509050600360fc1b816000815181106115fa576115fa611c55565b60200101906001600160f81b031916908160001a905350600f60fb1b8160018151811061162957611629611c55565b60200101906001600160f81b031916908160001a905350600061164d846002611f46565b611658906001611cc9565b90505b60018111156116dd577f303132333435363738396162636465660000000000000000000000000000000085600f166010811061169957611699611c55565b1a60f81b8282815181106116af576116af611c55565b60200101906001600160f81b031916908160001a90535060049490941c936116d681611f65565b905061165b565b50831561172c5760405162461bcd60e51b815260206004820181905260248201527f537472696e67733a20686578206c656e67746820696e73756666696369656e7460448201526064016103f0565b9392505050565b60008281526001602081815260408084206001600160a01b0386168086529252808420805460ff19169093179092559051339285917f2f8788117e7eff1d82e926ec794901d17c78024a50270940304540a733656f0d9190a45050565b6000828152600360205260408120805491600191906117af8385611cc9565b9091555050600092835260036020908152604080852083865260018101835281862080546001600160a01b039096166001600160a01b03199096168617905593855260029093019052912055565b611807828261132f565b60008281526001602090815260408083206001600160a01b0385168085529252808320805460ff1916905551339285917ff6391f5c32d9c69d2a47ea670b442974b53935d1edc7fd64eb21e047a839171b9190a45050565b6060831561186e57508161172c565b82511561187e5782518084602001fd5b8160405162461bcd60e51b81526004016103f09190611f17565b600054610100900460ff166119035760405162461bcd60e51b815260206004820152602b60248201527f496e697469616c697a61626c653a20636f6e7472616374206973206e6f74206960448201526a6e697469616c697a696e6760a81b60648201526084016103f0565b6001600455565b6001600160a01b038116811461040257600080fd5b60006020828403121561193157600080fd5b813561172c8161190a565b60006020828403121561194e57600080fd5b5035919050565b6000806040838503121561196857600080fd5b82359150602083013561197a8161190a565b809150509250929050565b60008083601f84011261199757600080fd5b50813567ffffffffffffffff8111156119af57600080fd5b60208301915083602060a0830285010111156119ca57600080fd5b9250929050565b600080600080606085870312156119e757600080fd5b84356119f28161190a565b93506020850135611a028161190a565b9250604085013567ffffffffffffffff811115611a1e57600080fd5b611a2a87828801611985565b95989497509550505050565b6020808252825182820181905260009190848201906040850190845b81811015611ab257611a9f8385516001600160a01b038082511683528060208301511660208401528060408301511660408401525060608101516060830152608081015160808301525050565b9284019260a09290920191600101611a52565b50909695505050505050565b60008060408385031215611ad157600080fd5b50508035926020909101359150565b60008060208385031215611af357600080fd5b823567ffffffffffffffff811115611b0a57600080fd5b611b1685828601611985565b90969095509350505050565b60008060208385031215611b3557600080fd5b823567ffffffffffffffff80821115611b4d57600080fd5b818501915085601f830112611b6157600080fd5b813581811115611b7057600080fd5b8660208260051b8501011115611b8557600080fd5b60209290920196919550909350505050565b60005b83811015611bb2578181015183820152602001611b9a565b83811115611bc1576000848401525b50505050565b60008151808452611bdf816020860160208601611b97565b601f01601f19169290920160200192915050565b6000602080830181845280855180835260408601915060408160051b870101925083870160005b82811015611c4857603f19888603018452611c36858351611bc7565b94509285019290850190600101611c1a565b5092979650505050505050565b634e487b7160e01b600052603260045260246000fd5b634e487b7160e01b600052601160045260246000fd5b6000600019821415611c9557611c95611c6b565b5060010190565b600082821015611cae57611cae611c6b565b500390565b634e487b7160e01b600052604160045260246000fd5b60008219821115611cdc57611cdc611c6b565b500190565b60a0810161091182846001600160a01b038082511683528060208301511660208401528060408301511660408401525060608101516060830152608081015160808301525050565b8135611d348161190a565b81546001600160a01b0319166001600160a01b038216178255506020820135611d5c8161190a565b6001820180546001600160a01b0319166001600160a01b038316179055506040820135611d888161190a565b6002820180546001600160a01b0319166001600160a01b0383161790555060608201356003820155608082013560048201555050565b6020808252818101839052600090604080840186845b87811015611e42578135611de78161190a565b6001600160a01b0390811684528286013590611e028261190a565b908116848701528285013590611e178261190a565b1683850152606082810135908401526080808301359084015260a09283019290910190600101611dd4565b5090979650505050505050565b6000808335601e19843603018112611e6657600080fd5b83018035915067ffffffffffffffff821115611e8157600080fd5b6020019150368190038213156119ca57600080fd5b7f5065726d697373696f6e733a206163636f756e74200000000000000000000000815260008351611ece816015850160208801611b97565b7f206973206d697373696e6720726f6c65200000000000000000000000000000006015918401918201528351611f0b816026840160208801611b97565b01602601949350505050565b60208152600061172c6020830184611bc7565b60008251611f3c818460208701611b97565b9190910192915050565b6000816000190483118215151615611f6057611f60611c6b565b500290565b600081611f7457611f74611c6b565b50600019019056fe416464726573733a206c6f772d6c6576656c2064656c65676174652063616c6c206661696c6564a2646970667358221220ce0431dcee5539577478d0afc372bc5b74cfcd8ef5fa153d882c3ff3caed61f064736f6c634300080c0033",
  "linkReferences": {},
  "deployedLinkReferences": {}
}