{
  "_format": "hh-sol-artifact-1",
  "contractName": "ContractPublisher",
  "sourceName": "contracts/ContractPublisher.sol",
  "abi": [
    {
      "inputs": [
        {
          "internalType": "address",
          "name": "_trustedForwarder",
          "type": "address"
        },
        {
          "internalType": "contract IContractPublisher",
          "name": "_prevPublisher",
          "type": "address"
        }
      ],
      "stateMutability": "nonpayable",
      "type": "constructor"
    },
    {
      "anonymous": false,
      "inputs": [
        {
          "indexed": true,
          "internalType": "address",
          "name": "operator",
          "type": "address"
        },
        {
          "indexed": true,
          "internalType": "address",
          "name": "publisher",
          "type": "address"
        },
        {
          "components": [
            {
              "internalType": "string",
              "name": "contractId",
              "type": "string"
            },
            {
              "internalType": "uint256",
              "name": "publishTimestamp",
              "type": "uint256"
            },
            {
              "internalType": "string",
              "name": "publishMetadataUri",
              "type": "string"
            },
            {
              "internalType": "bytes32",
              "name": "bytecodeHash",
              "type": "bytes32"
            },
            {
              "internalType": "address",
              "name": "implementation",
              "type": "address"
            }
          ],
          "indexed": false,
          "internalType": "struct IContractPublisher.CustomContractInstance",
          "name": "publishedContract",
          "type": "tuple"
        }
      ],
      "name": "ContractPublished",
      "type": "event"
    },
    {
      "anonymous": false,
      "inputs": [
        {
          "indexed": true,
          "internalType": "address",
          "name": "operator",
          "type": "address"
        },
        {
          "indexed": true,
          "internalType": "address",
          "name": "publisher",
          "type": "address"
        },
        {
          "indexed": true,
          "internalType": "string",
          "name": "contractId",
          "type": "string"
        }
      ],
      "name": "ContractUnpublished",
      "type": "event"
    },
    {
      "anonymous": false,
      "inputs": [
        {
          "indexed": false,
          "internalType": "bool",
          "name": "isPaused",
          "type": "bool"
        }
      ],
      "name": "Paused",
      "type": "event"
    },
    {
      "anonymous": false,
      "inputs": [
        {
          "indexed": true,
          "internalType": "address",
          "name": "publisher",
          "type": "address"
        },
        {
          "indexed": false,
          "internalType": "string",
          "name": "prevURI",
          "type": "string"
        },
        {
          "indexed": false,
          "internalType": "string",
          "name": "newURI",
          "type": "string"
        }
      ],
      "name": "PublisherProfileUpdated",
      "type": "event"
    },
    {
      "anonymous": false,
      "inputs": [
        {
          "indexed": true,
          "internalType": "bytes32",
          "name": "role",
          "type": "bytes32"
        },
        {
          "indexed": true,
          "internalType": "bytes32",
          "name": "previousAdminRole",
          "type": "bytes32"
        },
        {
          "indexed": true,
          "internalType": "bytes32",
          "name": "newAdminRole",
          "type": "bytes32"
        }
      ],
      "name": "RoleAdminChanged",
      "type": "event"
    },
    {
      "anonymous": false,
      "inputs": [
        {
          "indexed": true,
          "internalType": "bytes32",
          "name": "role",
          "type": "bytes32"
        },
        {
          "indexed": true,
          "internalType": "address",
          "name": "account",
          "type": "address"
        },
        {
          "indexed": true,
          "internalType": "address",
          "name": "sender",
          "type": "address"
        }
      ],
      "name": "RoleGranted",
      "type": "event"
    },
    {
      "anonymous": false,
      "inputs": [
        {
          "indexed": true,
          "internalType": "bytes32",
          "name": "role",
          "type": "bytes32"
        },
        {
          "indexed": true,
          "internalType": "address",
          "name": "account",
          "type": "address"
        },
        {
          "indexed": true,
          "internalType": "address",
          "name": "sender",
          "type": "address"
        }
      ],
      "name": "RoleRevoked",
      "type": "event"
    },
    {
      "inputs": [],
      "name": "DEFAULT_ADMIN_ROLE",
      "outputs": [
        {
          "internalType": "bytes32",
          "name": "",
          "type": "bytes32"
        }
      ],
      "stateMutability": "view",
      "type": "function"
    },
    {
      "inputs": [
        {
          "internalType": "address",
          "name": "_publisher",
          "type": "address"
        }
      ],
      "name": "getAllPublishedContracts",
      "outputs": [
        {
          "components": [
            {
              "internalType": "string",
              "name": "contractId",
              "type": "string"
            },
            {
              "internalType": "uint256",
              "name": "publishTimestamp",
              "type": "uint256"
            },
            {
              "internalType": "string",
              "name": "publishMetadataUri",
              "type": "string"
            },
            {
              "internalType": "bytes32",
              "name": "bytecodeHash",
              "type": "bytes32"
            },
            {
              "internalType": "address",
              "name": "implementation",
              "type": "address"
            }
          ],
          "internalType": "struct IContractPublisher.CustomContractInstance[]",
          "name": "published",
          "type": "tuple[]"
        }
      ],
      "stateMutability": "view",
      "type": "function"
    },
    {
      "inputs": [
        {
          "internalType": "address",
          "name": "_publisher",
          "type": "address"
        },
        {
          "internalType": "string",
          "name": "_contractId",
          "type": "string"
        }
      ],
      "name": "getPublishedContract",
      "outputs": [
        {
          "components": [
            {
              "internalType": "string",
              "name": "contractId",
              "type": "string"
            },
            {
              "internalType": "uint256",
              "name": "publishTimestamp",
              "type": "uint256"
            },
            {
              "internalType": "string",
              "name": "publishMetadataUri",
              "type": "string"
            },
            {
              "internalType": "bytes32",
              "name": "bytecodeHash",
              "type": "bytes32"
            },
            {
              "internalType": "address",
              "name": "implementation",
              "type": "address"
            }
          ],
          "internalType": "struct IContractPublisher.CustomContractInstance",
          "name": "published",
          "type": "tuple"
        }
      ],
      "stateMutability": "view",
      "type": "function"
    },
    {
      "inputs": [
        {
          "internalType": "address",
          "name": "_publisher",
          "type": "address"
        },
        {
          "internalType": "string",
          "name": "_contractId",
          "type": "string"
        }
      ],
      "name": "getPublishedContractVersions",
      "outputs": [
        {
          "components": [
            {
              "internalType": "string",
              "name": "contractId",
              "type": "string"
            },
            {
              "internalType": "uint256",
              "name": "publishTimestamp",
              "type": "uint256"
            },
            {
              "internalType": "string",
              "name": "publishMetadataUri",
              "type": "string"
            },
            {
              "internalType": "bytes32",
              "name": "bytecodeHash",
              "type": "bytes32"
            },
            {
              "internalType": "address",
              "name": "implementation",
              "type": "address"
            }
          ],
          "internalType": "struct IContractPublisher.CustomContractInstance[]",
          "name": "published",
          "type": "tuple[]"
        }
      ],
      "stateMutability": "view",
      "type": "function"
    },
    {
      "inputs": [
        {
          "internalType": "string",
          "name": "compilerMetadataUri",
          "type": "string"
        }
      ],
      "name": "getPublishedUriFromCompilerUri",
      "outputs": [
        {
          "internalType": "string[]",
          "name": "publishedMetadataUris",
          "type": "string[]"
        }
      ],
      "stateMutability": "view",
      "type": "function"
    },
    {
      "inputs": [
        {
          "internalType": "address",
          "name": "publisher",
          "type": "address"
        }
      ],
      "name": "getPublisherProfileUri",
      "outputs": [
        {
          "internalType": "string",
          "name": "uri",
          "type": "string"
        }
      ],
      "stateMutability": "view",
      "type": "function"
    },
    {
      "inputs": [
        {
          "internalType": "bytes32",
          "name": "role",
          "type": "bytes32"
        }
      ],
      "name": "getRoleAdmin",
      "outputs": [
        {
          "internalType": "bytes32",
          "name": "",
          "type": "bytes32"
        }
      ],
      "stateMutability": "view",
      "type": "function"
    },
    {
      "inputs": [
        {
          "internalType": "bytes32",
          "name": "role",
          "type": "bytes32"
        },
        {
          "internalType": "uint256",
          "name": "index",
          "type": "uint256"
        }
      ],
      "name": "getRoleMember",
      "outputs": [
        {
          "internalType": "address",
          "name": "",
          "type": "address"
        }
      ],
      "stateMutability": "view",
      "type": "function"
    },
    {
      "inputs": [
        {
          "internalType": "bytes32",
          "name": "role",
          "type": "bytes32"
        }
      ],
      "name": "getRoleMemberCount",
      "outputs": [
        {
          "internalType": "uint256",
          "name": "",
          "type": "uint256"
        }
      ],
      "stateMutability": "view",
      "type": "function"
    },
    {
      "inputs": [
        {
          "internalType": "bytes32",
          "name": "role",
          "type": "bytes32"
        },
        {
          "internalType": "address",
          "name": "account",
          "type": "address"
        }
      ],
      "name": "grantRole",
      "outputs": [],
      "stateMutability": "nonpayable",
      "type": "function"
    },
    {
      "inputs": [
        {
          "internalType": "bytes32",
          "name": "role",
          "type": "bytes32"
        },
        {
          "internalType": "address",
          "name": "account",
          "type": "address"
        }
      ],
      "name": "hasRole",
      "outputs": [
        {
          "internalType": "bool",
          "name": "",
          "type": "bool"
        }
      ],
      "stateMutability": "view",
      "type": "function"
    },
    {
      "inputs": [],
      "name": "isPaused",
      "outputs": [
        {
          "internalType": "bool",
          "name": "",
          "type": "bool"
        }
      ],
      "stateMutability": "view",
      "type": "function"
    },
    {
      "inputs": [
        {
          "internalType": "address",
          "name": "forwarder",
          "type": "address"
        }
      ],
      "name": "isTrustedForwarder",
      "outputs": [
        {
          "internalType": "bool",
          "name": "",
          "type": "bool"
        }
      ],
      "stateMutability": "view",
      "type": "function"
    },
    {
      "inputs": [
        {
          "internalType": "bytes[]",
          "name": "data",
          "type": "bytes[]"
        }
      ],
      "name": "multicall",
      "outputs": [
        {
          "internalType": "bytes[]",
          "name": "results",
          "type": "bytes[]"
        }
      ],
      "stateMutability": "nonpayable",
      "type": "function"
    },
    {
      "inputs": [],
      "name": "prevPublisher",
      "outputs": [
        {
          "internalType": "contract IContractPublisher",
          "name": "",
          "type": "address"
        }
      ],
      "stateMutability": "view",
      "type": "function"
    },
    {
      "inputs": [
        {
          "internalType": "address",
          "name": "_publisher",
          "type": "address"
        },
        {
          "internalType": "string",
          "name": "_contractId",
          "type": "string"
        },
        {
          "internalType": "string",
          "name": "_publishMetadataUri",
          "type": "string"
        },
        {
          "internalType": "string",
          "name": "_compilerMetadataUri",
          "type": "string"
        },
        {
          "internalType": "bytes32",
          "name": "_bytecodeHash",
          "type": "bytes32"
        },
        {
          "internalType": "address",
          "name": "_implementation",
          "type": "address"
        }
      ],
      "name": "publishContract",
      "outputs": [],
      "stateMutability": "nonpayable",
      "type": "function"
    },
    {
      "inputs": [
        {
          "internalType": "bytes32",
          "name": "role",
          "type": "bytes32"
        },
        {
          "internalType": "address",
          "name": "account",
          "type": "address"
        }
      ],
      "name": "renounceRole",
      "outputs": [],
      "stateMutability": "nonpayable",
      "type": "function"
    },
    {
      "inputs": [
        {
          "internalType": "bytes32",
          "name": "role",
          "type": "bytes32"
        },
        {
          "internalType": "address",
          "name": "account",
          "type": "address"
        }
      ],
      "name": "revokeRole",
      "outputs": [],
      "stateMutability": "nonpayable",
      "type": "function"
    },
    {
      "inputs": [
        {
          "internalType": "bool",
          "name": "_pause",
          "type": "bool"
        }
      ],
      "name": "setPause",
      "outputs": [],
      "stateMutability": "nonpayable",
      "type": "function"
    },
    {
      "inputs": [
        {
          "internalType": "address",
          "name": "publisher",
          "type": "address"
        },
        {
          "internalType": "string",
          "name": "uri",
          "type": "string"
        }
      ],
      "name": "setPublisherProfileUri",
      "outputs": [],
      "stateMutability": "nonpayable",
      "type": "function"
    },
    {
      "inputs": [
        {
          "internalType": "bytes4",
          "name": "interfaceId",
          "type": "bytes4"
        }
      ],
      "name": "supportsInterface",
      "outputs": [
        {
          "internalType": "bool",
          "name": "",
          "type": "bool"
        }
      ],
      "stateMutability": "view",
      "type": "function"
    },
    {
      "inputs": [
        {
          "internalType": "address",
          "name": "_publisher",
          "type": "address"
        },
        {
          "internalType": "string",
          "name": "_contractId",
          "type": "string"
        }
      ],
      "name": "unpublishContract",
      "outputs": [],
      "stateMutability": "nonpayable",
      "type": "function"
    }
  ],
  "bytecode": "0x60a06040523480156200001157600080fd5b5060405162002fdb38038062002fdb83398101604081905262000034916200025d565b6001600160a01b0382166080526200005760006200005162000084565b620000a0565b600280546001600160a01b0390921661010002610100600160a81b0319909216919091179055506200029c565b60006200009b620000b060201b62001a371760201c565b905090565b620000ac8282620000e9565b5050565b6080516000906001600160a01b0316331415620000d4575060131936013560601c90565b6200009b6200012c60201b62001a811760201c565b6200010082826200013060201b62001a851760201c565b60008281526001602090815260409091206200012791839062001b24620001d2821b17901c565b505050565b3390565b6000828152602081815260408083206001600160a01b038516845290915290205460ff16620000ac576000828152602081815260408083206001600160a01b03851684529091529020805460ff191660011790556200018e62000084565b6001600160a01b0316816001600160a01b0316837f2f8788117e7eff1d82e926ec794901d17c78024a50270940304540a733656f0d60405160405180910390a45050565b6000620001e9836001600160a01b038416620001f2565b90505b92915050565b60008181526001830160205260408120546200023b57508154600181810184556000848152602080822090930184905584548482528286019093526040902091909155620001ec565b506000620001ec565b6001600160a01b03811681146200025a57600080fd5b50565b600080604083850312156200027157600080fd5b82516200027e8162000244565b6020840151909250620002918162000244565b809150509250929050565b608051612d1c620002bf6000396000818161025b0152611a3b0152612d1c6000f3fe608060405234801561001057600080fd5b50600436106101625760003560e01c8063819e992f116100c8578063af8db6901161008c578063ca15c87311610066578063ca15c873146103a3578063d50299e6146103b6578063d547741f146103c957600080fd5b8063af8db69014610370578063b187bd2614610383578063bedb86fb1461039057600080fd5b8063819e992f146102de5780639010d07c146102fe57806391d1485414610311578063a217fddf14610348578063ac9650d81461035057600080fd5b80634f7816751161012a5780636e578e54116101045780636e578e541461028b5780637ec047fa1461029e57806380251dac146102be57600080fd5b80634f781675146101fb57806353865f7f1461021b578063572b6c051461024b57600080fd5b806301ffc9a71461016757806306eb56cc1461018f578063248a9ca3146101a45780632f2ff15d146101d557806336568abe146101e8575b600080fd5b61017a61017536600461224d565b6103dc565b60405190151581526020015b60405180910390f35b6101a261019d366004612351565b610407565b005b6101c76101b23660046123a1565b60009081526020819052604090206001015490565b604051908152602001610186565b6101a26101e33660046123ba565b610610565b6101a26101f63660046123ba565b61063a565b61020e6102093660046123ea565b6106d6565b6040516101869190612463565b6002546102339061010090046001600160a01b031681565b6040516001600160a01b039091168152602001610186565b61017a6102593660046123ea565b7f00000000000000000000000000000000000000000000000000000000000000006001600160a01b0390811691161490565b6101a2610299366004612351565b610804565b6102b16102ac366004612351565b61097b565b60405161018691906124d8565b6102d16102cc366004612351565b610bba565b60405161018691906124eb565b6102f16102ec36600461254d565b610f20565b604051610186919061258a565b61023361030c3660046125df565b611187565b61017a61031f3660046123ba565b6000918252602082815260408084206001600160a01b0393909316845291905290205460ff1690565b6101c7600081565b61036361035e366004612601565b61119f565b6040516101869190612676565b6102d161037e3660046123ea565b611294565b60025461017a9060ff1681565b6101a261039e3660046126cb565b6115ff565b6101c76103b13660046123a1565b611693565b6101a26103c43660046126ed565b6116aa565b6101a26103d73660046123ba565b611a12565b60006001600160e01b03198216635a05180f60e01b1480610401575061040182611b39565b92915050565b81806001600160a01b031661041a611b6e565b6001600160a01b0316146104695760405162461bcd60e51b81526020600482015260116024820152703ab730b8383937bb32b21031b0b63632b960791b60448201526064015b60405180910390fd5b60025460ff1615806104835750610483600061031f611b6e565b6104c15760405162461bcd60e51b815260206004820152600f60248201526e1c9959da5cdd1c9e481c185d5cd959608a1b6044820152606401610460565b81516020808401919091206001600160a01b03851660009081526003909252604082209091906104f19083611b78565b9050806105405760405162461bcd60e51b815260206004820152601460248201527f676976656e20636f6e7472616374496420444e450000000000000000000000006044820152606401610460565b6001600160a01b03851660009081526003602090815260408083208584526002019091528120818155906001820181610579828261217a565b6001820160009055600282016000610591919061217a565b506000600382015560040180546001600160a01b031916905550506040516105ba9085906127a5565b6040518091039020856001600160a01b03166105d4611b6e565b6001600160a01b03167f4c934c8014c81bef7c9b5296daec96b8a63f02365b7dd6eb15ff0f231728a8d560405160405180910390a45050505050565b60008281526020819052604090206001015461062b81611b84565b6106358383611b98565b505050565b610642611b6e565b6001600160a01b0316816001600160a01b0316146106c85760405162461bcd60e51b815260206004820152602f60248201527f416363657373436f6e74726f6c3a2063616e206f6e6c792072656e6f756e636560448201527f20726f6c657320666f722073656c6600000000000000000000000000000000006064820152608401610460565b6106d28282611bba565b5050565b6001600160a01b03811660009081526004602052604090208054606091906106fd906127c1565b80601f0160208091040260200160405190810160405280929190818152602001828054610729906127c1565b80156107765780601f1061074b57610100808354040283529160200191610776565b820191906000526020600020905b81548152906001019060200180831161075957829003601f168201915b505050505090508051600014156107ff57600254604051634f78167560e01b81526001600160a01b03848116600483015261010090920490911690634f78167590602401600060405180830381865afa1580156107d7573d6000803e3d6000fd5b505050506040513d6000823e601f3d908101601f191682016040526104019190810190612841565b919050565b81806001600160a01b0316610817611b6e565b6001600160a01b0316146108615760405162461bcd60e51b81526020600482015260116024820152703ab730b8383937bb32b21031b0b63632b960791b6044820152606401610460565b6001600160a01b03831660009081526004602052604081208054610884906127c1565b80601f01602080910402602001604051908101604052809291908181526020018280546108b0906127c1565b80156108fd5780601f106108d2576101008083540402835291602001916108fd565b820191906000526020600020905b8154815290600101906020018083116108e057829003601f168201915b5050506001600160a01b038716600090815260046020908152604090912087519495506109319490935090870191506121b4565b50836001600160a01b03167f7b1bbf534a8f0628737a62822ff67b774319e0c7ad7130a5be78386e49068f02828560405161096d929190612876565b60405180910390a250505050565b6040805160a0810182526060808252600060208301819052928201819052810182905260808101919091526001600160a01b0383166000908152600360209081526040808320855186840120845260020190915290819020815160a081019092526001018054829082906109ee906127c1565b80601f0160208091040260200160405190810160405280929190818152602001828054610a1a906127c1565b8015610a675780601f10610a3c57610100808354040283529160200191610a67565b820191906000526020600020905b815481529060010190602001808311610a4a57829003601f168201915b5050505050815260200160018201548152602001600282018054610a8a906127c1565b80601f0160208091040260200160405190810160405280929190818152602001828054610ab6906127c1565b8015610b035780601f10610ad857610100808354040283529160200191610b03565b820191906000526020600020905b815481529060010190602001808311610ae657829003601f168201915b505050918352505060038201546020808301919091526004909201546001600160a01b031660409091015281015190915061040157600254604051633f6023fd60e11b81526101009091046001600160a01b031690637ec047fa90610b6e90869086906004016128a4565b600060405180830381865afa158015610b8b573d6000803e3d6000fd5b505050506040513d6000823e601f3d908101601f19168201604052610bb39190810190612980565b9392505050565b600254604051632009476b60e21b81526060916000916101009091046001600160a01b0316906380251dac90610bf690879087906004016128a4565b600060405180830381865afa158015610c13573d6000803e3d6000fd5b505050506040513d6000823e601f3d908101601f19168201604052610c3b91908101906129d9565b805184516020808701919091206001600160a01b038816600090815260038352604080822083835260020190935291822054939450919290610c7d8285612aa0565b90508067ffffffffffffffff811115610c9857610c9861228c565b604051908082528060200260200182016040528015610cf257816020015b6040805160a08101825260608082526000602080840182905293830182905290820181905260808201528252600019909201910181610cb65790505b50955060005b84811015610d4957858181518110610d1257610d12612ab8565b6020026020010151878281518110610d2c57610d2c612ab8565b6020908102919091010152610d42600182612aa0565b9050610cf8565b5060005b82811015610f14576001600160a01b0389166000908152600360209081526040808320878452600201825280832084845260060190915290819020815160a08101909252805482908290610da0906127c1565b80601f0160208091040260200160405190810160405280929190818152602001828054610dcc906127c1565b8015610e195780601f10610dee57610100808354040283529160200191610e19565b820191906000526020600020905b815481529060010190602001808311610dfc57829003601f168201915b5050505050815260200160018201548152602001600282018054610e3c906127c1565b80601f0160208091040260200160405190810160405280929190818152602001828054610e68906127c1565b8015610eb55780601f10610e8a57610100808354040283529160200191610eb5565b820191906000526020600020905b815481529060010190602001808311610e9857829003601f168201915b5050509183525050600382015460208201526004909101546001600160a01b031660409091015287610ee78784612aa0565b81518110610ef757610ef7612ab8565b6020908102919091010152610f0d600182612aa0565b9050610d4d565b50505050505092915050565b60025460405163819e992f60e01b81526060916000916101009091046001600160a01b03169063819e992f90610f5a908690600401612463565b600060405180830381865afa158015610f77573d6000803e3d6000fd5b505050506040513d6000823e601f3d908101601f19168201604052610f9f9190810190612ace565b90506000815190506000600585604051610fb991906127a5565b9081526040519081900360200190205490506000610fd78284612aa0565b90508067ffffffffffffffff811115610ff257610ff261228c565b60405190808252806020026020018201604052801561102557816020015b60608152602001906001900390816110105790505b50945060005b8381101561107c5784818151811061104557611045612ab8565b602002602001015186828151811061105f5761105f612ab8565b6020908102919091010152611075600182612aa0565b905061102b565b5060005b8281101561117d5760058760405161109891906127a5565b9081526020016040518091039020600101600082815260200190815260200160002080546110c5906127c1565b80601f01602080910402602001604051908101604052809291908181526020018280546110f1906127c1565b801561113e5780601f106111135761010080835404028352916020019161113e565b820191906000526020600020905b81548152906001019060200180831161112157829003601f168201915b50505050508685836111509190612aa0565b8151811061116057611160612ab8565b6020908102919091010152611176600182612aa0565b9050611080565b5050505050919050565b6000828152600160205260408120610bb39083611bdc565b60608167ffffffffffffffff8111156111ba576111ba61228c565b6040519080825280602002602001820160405280156111ed57816020015b60608152602001906001900390816111d85790505b50905060005b8281101561128d5761125d3085858481811061121157611211612ab8565b90506020028101906112239190612b72565b8080601f016020809104026020016040519081016040528093929190818152602001838380828437600092019190915250611be892505050565b82828151811061126f5761126f612ab8565b6020026020010181905250808061128590612bc0565b9150506111f3565b5092915050565b600254604051630af8db6960e41b81526001600160a01b0383811660048301526060926000926101009091049091169063af8db69090602401600060405180830381865afa1580156112ea573d6000803e3d6000fd5b505050506040513d6000823e601f3d908101601f1916820160405261131291908101906129d9565b6001600160a01b03841660009081526003602052604081209192509061133790611c0d565b825190915060006113488383612aa0565b90508067ffffffffffffffff8111156113635761136361228c565b6040519080825280602002602001820160405280156113bd57816020015b6040805160a081018252606080825260006020808401829052938301829052908201819052608082015282526000199092019101816113815790505b50945060005b82811015611414578481815181106113dd576113dd612ab8565b60200260200101518682815181106113f7576113f7612ab8565b602090810291909101015261140d600182612aa0565b90506113c3565b5060005b8381101561117d576001600160a01b03871660009081526003602052604081206114429083611bdc565b6001600160a01b038916600090815260036020908152604080832084845260020190915290819020815160a08101909252600101805492935090918290829061148a906127c1565b80601f01602080910402602001604051908101604052809291908181526020018280546114b6906127c1565b80156115035780601f106114d857610100808354040283529160200191611503565b820191906000526020600020905b8154815290600101906020018083116114e657829003601f168201915b5050505050815260200160018201548152602001600282018054611526906127c1565b80601f0160208091040260200160405190810160405280929190818152602001828054611552906127c1565b801561159f5780601f106115745761010080835404028352916020019161159f565b820191906000526020600020905b81548152906001019060200180831161158257829003601f168201915b5050509183525050600382015460208201526004909101546001600160a01b0316604090910152876115d18685612aa0565b815181106115e1576115e1612ab8565b6020908102919091010152506115f8600182612aa0565b9050611418565b61160c600061031f611b6e565b61164c5760405162461bcd60e51b81526020600482015260116024820152703ab730b8383937bb32b21031b0b63632b960791b6044820152606401610460565b6002805460ff19168215159081179091556040519081527f0e2fb031ee032dc02d8011dc50b816eb450cf856abd8261680dac74f72165bd29060200160405180910390a150565b600081815260016020526040812061040190611c0d565b85806001600160a01b03166116bd611b6e565b6001600160a01b0316146117075760405162461bcd60e51b81526020600482015260116024820152703ab730b8383937bb32b21031b0b63632b960791b6044820152606401610460565b60025460ff1615806117215750611721600061031f611b6e565b61175f5760405162461bcd60e51b815260206004820152600f60248201526e1c9959da5cdd1c9e481c185d5cd959608a1b6044820152606401610460565b6040805160a08101825287815242602080830191909152818301889052606082018690526001600160a01b0380861660808401528951828b0120908b16600090815260039092529290209091906117b69082611c17565b506001600160a01b038916600090815260036020908152604080832084845260020182529091208351805185936001909301926117f79284929101906121b4565b5060208281015160018301556040830151805161181a92600285019201906121b4565b506060820151600382810191909155608090920151600490910180546001600160a01b0319166001600160a01b039283161790558a166000908152602091825260408082208483526002019092529081208054916001919061187c8385612aa0565b90915550506001600160a01b038a166000908152600360209081526040808320858452600201825280832084845260060182529091208451805186936118c69284929101906121b4565b506020828101516001830155604083015180516118e992600285019201906121b4565b5060608201516003820155608090910151600490910180546001600160a01b0319166001600160a01b03909216919091179055604051600090600590611930908a906127a5565b9081526040519081900360200181205491508990600590611952908b906127a5565b9081526020016040518091039020600101600083815260200190815260200160002090805190602001906119879291906121b4565b50611993816001612aa0565b6005896040516119a391906127a5565b908152604051908190036020019020556001600160a01b038b166119c5611b6e565b6001600160a01b03167f4c0484c23e4ea73b4cb562e1868ba93ccba2c9151ac4148fa1b91d9cb17b4581866040516119fd91906124d8565b60405180910390a35050505050505050505050565b600082815260208190526040902060010154611a2d81611b84565b6106358383611bba565b60007f00000000000000000000000000000000000000000000000000000000000000006001600160a01b0316331415611a77575060131936013560601c90565b503390565b905090565b3390565b6000828152602081815260408083206001600160a01b038516845290915290205460ff166106d2576000828152602081815260408083206001600160a01b03851684529091529020805460ff19166001179055611ae0611b6e565b6001600160a01b0316816001600160a01b0316837f2f8788117e7eff1d82e926ec794901d17c78024a50270940304540a733656f0d60405160405180910390a45050565b6000610bb3836001600160a01b038416611c1f565b60006001600160e01b03198216637965db0b60e01b148061040157506301ffc9a760e01b6001600160e01b0319831614610401565b6000611a7c611a37565b6000610bb38383611c6e565b611b9581611b90611b6e565b611d61565b50565b611ba28282611a85565b60008281526001602052604090206106359082611b24565b611bc48282611ddf565b60008281526001602052604090206106359082611e7c565b6000610bb38383611e91565b6060610bb38383604051806060016040528060278152602001612cc060279139611ebb565b6000610401825490565b6000610bb383835b6000818152600183016020526040812054611c6657508154600181810184556000848152602080822090930184905584548482528286019093526040902091909155610401565b506000610401565b60008181526001830160205260408120548015611d57576000611c92600183612bdb565b8554909150600090611ca690600190612bdb565b9050818114611d0b576000866000018281548110611cc657611cc6612ab8565b9060005260206000200154905080876000018481548110611ce957611ce9612ab8565b6000918252602080832090910192909255918252600188019052604090208390555b8554869080611d1c57611d1c612bf2565b600190038181906000526020600020016000905590558560010160008681526020019081526020016000206000905560019350505050610401565b6000915050610401565b6000828152602081815260408083206001600160a01b038516845290915290205460ff166106d257611d9d816001600160a01b03166014611f98565b611da8836020611f98565b604051602001611db9929190612c08565b60408051601f198184030181529082905262461bcd60e51b825261046091600401612463565b6000828152602081815260408083206001600160a01b038516845290915290205460ff16156106d2576000828152602081815260408083206001600160a01b03851684529091529020805460ff19169055611e38611b6e565b6001600160a01b0316816001600160a01b0316837ff6391f5c32d9c69d2a47ea670b442974b53935d1edc7fd64eb21e047a839171b60405160405180910390a45050565b6000610bb3836001600160a01b038416611c6e565b6000826000018281548110611ea857611ea8612ab8565b9060005260206000200154905092915050565b60606001600160a01b0384163b611f235760405162461bcd60e51b815260206004820152602660248201527f416464726573733a2064656c65676174652063616c6c20746f206e6f6e2d636f6044820152651b9d1c9858dd60d21b6064820152608401610460565b600080856001600160a01b031685604051611f3e91906127a5565b600060405180830381855af49150503d8060008114611f79576040519150601f19603f3d011682016040523d82523d6000602084013e611f7e565b606091505b5091509150611f8e828286612141565b9695505050505050565b60606000611fa7836002612c89565b611fb2906002612aa0565b67ffffffffffffffff811115611fca57611fca61228c565b6040519080825280601f01601f191660200182016040528015611ff4576020820181803683370190505b509050600360fc1b8160008151811061200f5761200f612ab8565b60200101906001600160f81b031916908160001a905350600f60fb1b8160018151811061203e5761203e612ab8565b60200101906001600160f81b031916908160001a9053506000612062846002612c89565b61206d906001612aa0565b90505b60018111156120f2577f303132333435363738396162636465660000000000000000000000000000000085600f16601081106120ae576120ae612ab8565b1a60f81b8282815181106120c4576120c4612ab8565b60200101906001600160f81b031916908160001a90535060049490941c936120eb81612ca8565b9050612070565b508315610bb35760405162461bcd60e51b815260206004820181905260248201527f537472696e67733a20686578206c656e67746820696e73756666696369656e746044820152606401610460565b60608315612150575081610bb3565b8251156121605782518084602001fd5b8160405162461bcd60e51b81526004016104609190612463565b508054612186906127c1565b6000825580601f10612196575050565b601f016020900490600052602060002090810190611b959190612238565b8280546121c0906127c1565b90600052602060002090601f0160209004810192826121e25760008555612228565b82601f106121fb57805160ff1916838001178555612228565b82800160010185558215612228579182015b8281111561222857825182559160200191906001019061220d565b50612234929150612238565b5090565b5b808211156122345760008155600101612239565b60006020828403121561225f57600080fd5b81356001600160e01b031981168114610bb357600080fd5b6001600160a01b0381168114611b9557600080fd5b634e487b7160e01b600052604160045260246000fd5b604051601f8201601f1916810167ffffffffffffffff811182821017156122cb576122cb61228c565b604052919050565b600067ffffffffffffffff8211156122ed576122ed61228c565b50601f01601f191660200190565b600082601f83011261230c57600080fd5b813561231f61231a826122d3565b6122a2565b81815284602083860101111561233457600080fd5b816020850160208301376000918101602001919091529392505050565b6000806040838503121561236457600080fd5b823561236f81612277565b9150602083013567ffffffffffffffff81111561238b57600080fd5b612397858286016122fb565b9150509250929050565b6000602082840312156123b357600080fd5b5035919050565b600080604083850312156123cd57600080fd5b8235915060208301356123df81612277565b809150509250929050565b6000602082840312156123fc57600080fd5b8135610bb381612277565b60005b8381101561242257818101518382015260200161240a565b83811115612431576000848401525b50505050565b6000815180845261244f816020860160208601612407565b601f01601f19169290920160200192915050565b602081526000610bb36020830184612437565b6000815160a0845261248b60a0850182612437565b905060208301516020850152604083015184820360408601526124ae8282612437565b915050606083015160608501526001600160a01b0360808401511660808501528091505092915050565b602081526000610bb36020830184612476565b6000602080830181845280855180835260408601915060408160051b870101925083870160005b8281101561254057603f1988860301845261252e858351612476565b94509285019290850190600101612512565b5092979650505050505050565b60006020828403121561255f57600080fd5b813567ffffffffffffffff81111561257657600080fd5b612582848285016122fb565b949350505050565b6000602080830181845280855180835260408601915060408160051b870101925083870160005b8281101561254057603f198886030184526125cd858351612437565b945092850192908501906001016125b1565b600080604083850312156125f257600080fd5b50508035926020909101359150565b6000806020838503121561261457600080fd5b823567ffffffffffffffff8082111561262c57600080fd5b818501915085601f83011261264057600080fd5b81358181111561264f57600080fd5b8660208260051b850101111561266457600080fd5b60209290920196919550909350505050565b6000602080830181845280855180835260408601915060408160051b870101925083870160005b8281101561254057603f198886030184526126b9858351612437565b9450928501929085019060010161269d565b6000602082840312156126dd57600080fd5b81358015158114610bb357600080fd5b60008060008060008060c0878903121561270657600080fd5b863561271181612277565b9550602087013567ffffffffffffffff8082111561272e57600080fd5b61273a8a838b016122fb565b9650604089013591508082111561275057600080fd5b61275c8a838b016122fb565b9550606089013591508082111561277257600080fd5b5061277f89828a016122fb565b9350506080870135915060a087013561279781612277565b809150509295509295509295565b600082516127b7818460208701612407565b9190910192915050565b600181811c908216806127d557607f821691505b602082108114156127f657634e487b7160e01b600052602260045260246000fd5b50919050565b600082601f83011261280d57600080fd5b815161281b61231a826122d3565b81815284602083860101111561283057600080fd5b612582826020830160208701612407565b60006020828403121561285357600080fd5b815167ffffffffffffffff81111561286a57600080fd5b612582848285016127fc565b6040815260006128896040830185612437565b828103602084015261289b8185612437565b95945050505050565b6001600160a01b03831681526040602082015260006125826040830184612437565b80516107ff81612277565b600060a082840312156128e357600080fd5b60405160a0810167ffffffffffffffff82821081831117156129075761290761228c565b81604052829350845191508082111561291f57600080fd5b61292b868387016127fc565b835260208501516020840152604085015191508082111561294b57600080fd5b50612958858286016127fc565b60408301525060608301516060820152612974608084016128c6565b60808201525092915050565b60006020828403121561299257600080fd5b815167ffffffffffffffff8111156129a957600080fd5b612582848285016128d1565b600067ffffffffffffffff8211156129cf576129cf61228c565b5060051b60200190565b600060208083850312156129ec57600080fd5b825167ffffffffffffffff80821115612a0457600080fd5b818501915085601f830112612a1857600080fd5b8151612a2661231a826129b5565b81815260059190911b83018401908481019088831115612a4557600080fd5b8585015b83811015612a7d57805185811115612a615760008081fd5b612a6f8b89838a01016128d1565b845250918601918601612a49565b5098975050505050505050565b634e487b7160e01b600052601160045260246000fd5b60008219821115612ab357612ab3612a8a565b500190565b634e487b7160e01b600052603260045260246000fd5b60006020808385031215612ae157600080fd5b825167ffffffffffffffff80821115612af957600080fd5b818501915085601f830112612b0d57600080fd5b8151612b1b61231a826129b5565b81815260059190911b83018401908481019088831115612b3a57600080fd5b8585015b83811015612a7d57805185811115612b565760008081fd5b612b648b89838a01016127fc565b845250918601918601612b3e565b6000808335601e19843603018112612b8957600080fd5b83018035915067ffffffffffffffff821115612ba457600080fd5b602001915036819003821315612bb957600080fd5b9250929050565b6000600019821415612bd457612bd4612a8a565b5060010190565b600082821015612bed57612bed612a8a565b500390565b634e487b7160e01b600052603160045260246000fd5b7f416363657373436f6e74726f6c3a206163636f756e7420000000000000000000815260008351612c40816017850160208801612407565b7f206973206d697373696e6720726f6c65200000000000000000000000000000006017918401918201528351612c7d816028840160208801612407565b01602801949350505050565b6000816000190483118215151615612ca357612ca3612a8a565b500290565b600081612cb757612cb7612a8a565b50600019019056fe416464726573733a206c6f772d6c6576656c2064656c65676174652063616c6c206661696c6564a264697066735822122068c66bea25c32f215f7b9a16e9ca5fdeedf7bd884a1dfab3f15ca0251295ce7f64736f6c634300080c0033",
  "linkReferences": {},
  "deployedLinkReferences": {}
}