{
  "_format": "hh-sol-artifact-1",
  "contractName": "DropERC1155_V2",
  "sourceName": "contracts/legacy-contracts/pre-builts/DropERC1155_V2.sol",
  "abi": [
    {
      "inputs": [],
      "stateMutability": "nonpayable",
      "type": "constructor"
    },
    {
      "anonymous": false,
      "inputs": [
        {
          "indexed": true,
          "internalType": "address",
          "name": "account",
          "type": "address"
        },
        {
          "indexed": true,
          "internalType": "address",
          "name": "operator",
          "type": "address"
        },
        {
          "indexed": false,
          "internalType": "bool",
          "name": "approved",
          "type": "bool"
        }
      ],
      "name": "ApprovalForAll",
      "type": "event"
    },
    {
      "anonymous": false,
      "inputs": [
        {
          "indexed": true,
          "internalType": "uint256",
          "name": "tokenId",
          "type": "uint256"
        },
        {
          "components": [
            {
              "internalType": "uint256",
              "name": "startTimestamp",
              "type": "uint256"
            },
            {
              "internalType": "uint256",
              "name": "maxClaimableSupply",
              "type": "uint256"
            },
            {
              "internalType": "uint256",
              "name": "supplyClaimed",
              "type": "uint256"
            },
            {
              "internalType": "uint256",
              "name": "quantityLimitPerTransaction",
              "type": "uint256"
            },
            {
              "internalType": "uint256",
              "name": "waitTimeInSecondsBetweenClaims",
              "type": "uint256"
            },
            {
              "internalType": "bytes32",
              "name": "merkleRoot",
              "type": "bytes32"
            },
            {
              "internalType": "uint256",
              "name": "pricePerToken",
              "type": "uint256"
            },
            {
              "internalType": "address",
              "name": "currency",
              "type": "address"
            }
          ],
          "indexed": false,
          "internalType": "struct IDropClaimCondition_V2.ClaimCondition[]",
          "name": "claimConditions",
          "type": "tuple[]"
        }
      ],
      "name": "ClaimConditionsUpdated",
      "type": "event"
    },
    {
      "anonymous": false,
      "inputs": [
        {
          "indexed": true,
          "internalType": "address",
          "name": "newRoyaltyRecipient",
          "type": "address"
        },
        {
          "indexed": false,
          "internalType": "uint256",
          "name": "newRoyaltyBps",
          "type": "uint256"
        }
      ],
      "name": "DefaultRoyalty",
      "type": "event"
    },
    {
      "anonymous": false,
      "inputs": [
        {
          "indexed": false,
          "internalType": "uint8",
          "name": "version",
          "type": "uint8"
        }
      ],
      "name": "Initialized",
      "type": "event"
    },
    {
      "anonymous": false,
      "inputs": [
        {
          "indexed": false,
          "internalType": "uint256",
          "name": "tokenId",
          "type": "uint256"
        },
        {
          "indexed": false,
          "internalType": "uint256",
          "name": "maxTotalSupply",
          "type": "uint256"
        }
      ],
      "name": "MaxTotalSupplyUpdated",
      "type": "event"
    },
    {
      "anonymous": false,
      "inputs": [
        {
          "indexed": false,
          "internalType": "uint256",
          "name": "tokenId",
          "type": "uint256"
        },
        {
          "indexed": false,
          "internalType": "uint256",
          "name": "count",
          "type": "uint256"
        }
      ],
      "name": "MaxWalletClaimCountUpdated",
      "type": "event"
    },
    {
      "anonymous": false,
      "inputs": [
        {
          "indexed": true,
          "internalType": "address",
          "name": "prevOwner",
          "type": "address"
        },
        {
          "indexed": true,
          "internalType": "address",
          "name": "newOwner",
          "type": "address"
        }
      ],
      "name": "OwnerUpdated",
      "type": "event"
    },
    {
      "anonymous": false,
      "inputs": [
        {
          "indexed": true,
          "internalType": "address",
          "name": "platformFeeRecipient",
          "type": "address"
        },
        {
          "indexed": false,
          "internalType": "uint256",
          "name": "platformFeeBps",
          "type": "uint256"
        }
      ],
      "name": "PlatformFeeInfoUpdated",
      "type": "event"
    },
    {
      "anonymous": false,
      "inputs": [
        {
          "indexed": true,
          "internalType": "address",
          "name": "recipient",
          "type": "address"
        }
      ],
      "name": "PrimarySaleRecipientUpdated",
      "type": "event"
    },
    {
      "anonymous": false,
      "inputs": [
        {
          "indexed": true,
          "internalType": "bytes32",
          "name": "role",
          "type": "bytes32"
        },
        {
          "indexed": true,
          "internalType": "bytes32",
          "name": "previousAdminRole",
          "type": "bytes32"
        },
        {
          "indexed": true,
          "internalType": "bytes32",
          "name": "newAdminRole",
          "type": "bytes32"
        }
      ],
      "name": "RoleAdminChanged",
      "type": "event"
    },
    {
      "anonymous": false,
      "inputs": [
        {
          "indexed": true,
          "internalType": "bytes32",
          "name": "role",
          "type": "bytes32"
        },
        {
          "indexed": true,
          "internalType": "address",
          "name": "account",
          "type": "address"
        },
        {
          "indexed": true,
          "internalType": "address",
          "name": "sender",
          "type": "address"
        }
      ],
      "name": "RoleGranted",
      "type": "event"
    },
    {
      "anonymous": false,
      "inputs": [
        {
          "indexed": true,
          "internalType": "bytes32",
          "name": "role",
          "type": "bytes32"
        },
        {
          "indexed": true,
          "internalType": "address",
          "name": "account",
          "type": "address"
        },
        {
          "indexed": true,
          "internalType": "address",
          "name": "sender",
          "type": "address"
        }
      ],
      "name": "RoleRevoked",
      "type": "event"
    },
    {
      "anonymous": false,
      "inputs": [
        {
          "indexed": true,
          "internalType": "uint256",
          "name": "tokenId",
          "type": "uint256"
        },
        {
          "indexed": true,
          "internalType": "address",
          "name": "royaltyRecipient",
          "type": "address"
        },
        {
          "indexed": false,
          "internalType": "uint256",
          "name": "royaltyBps",
          "type": "uint256"
        }
      ],
      "name": "RoyaltyForToken",
      "type": "event"
    },
    {
      "anonymous": false,
      "inputs": [
        {
          "indexed": true,
          "internalType": "uint256",
          "name": "tokenId",
          "type": "uint256"
        },
        {
          "indexed": false,
          "internalType": "address",
          "name": "saleRecipient",
          "type": "address"
        }
      ],
      "name": "SaleRecipientForTokenUpdated",
      "type": "event"
    },
    {
      "anonymous": false,
      "inputs": [
        {
          "indexed": true,
          "internalType": "uint256",
          "name": "claimConditionIndex",
          "type": "uint256"
        },
        {
          "indexed": true,
          "internalType": "uint256",
          "name": "tokenId",
          "type": "uint256"
        },
        {
          "indexed": true,
          "internalType": "address",
          "name": "claimer",
          "type": "address"
        },
        {
          "indexed": false,
          "internalType": "address",
          "name": "receiver",
          "type": "address"
        },
        {
          "indexed": false,
          "internalType": "uint256",
          "name": "quantityClaimed",
          "type": "uint256"
        }
      ],
      "name": "TokensClaimed",
      "type": "event"
    },
    {
      "anonymous": false,
      "inputs": [
        {
          "indexed": false,
          "internalType": "uint256",
          "name": "startTokenId",
          "type": "uint256"
        },
        {
          "indexed": false,
          "internalType": "uint256",
          "name": "endTokenId",
          "type": "uint256"
        },
        {
          "indexed": false,
          "internalType": "string",
          "name": "baseURI",
          "type": "string"
        }
      ],
      "name": "TokensLazyMinted",
      "type": "event"
    },
    {
      "anonymous": false,
      "inputs": [
        {
          "indexed": true,
          "internalType": "address",
          "name": "operator",
          "type": "address"
        },
        {
          "indexed": true,
          "internalType": "address",
          "name": "from",
          "type": "address"
        },
        {
          "indexed": true,
          "internalType": "address",
          "name": "to",
          "type": "address"
        },
        {
          "indexed": false,
          "internalType": "uint256[]",
          "name": "ids",
          "type": "uint256[]"
        },
        {
          "indexed": false,
          "internalType": "uint256[]",
          "name": "values",
          "type": "uint256[]"
        }
      ],
      "name": "TransferBatch",
      "type": "event"
    },
    {
      "anonymous": false,
      "inputs": [
        {
          "indexed": true,
          "internalType": "address",
          "name": "operator",
          "type": "address"
        },
        {
          "indexed": true,
          "internalType": "address",
          "name": "from",
          "type": "address"
        },
        {
          "indexed": true,
          "internalType": "address",
          "name": "to",
          "type": "address"
        },
        {
          "indexed": false,
          "internalType": "uint256",
          "name": "id",
          "type": "uint256"
        },
        {
          "indexed": false,
          "internalType": "uint256",
          "name": "value",
          "type": "uint256"
        }
      ],
      "name": "TransferSingle",
      "type": "event"
    },
    {
      "anonymous": false,
      "inputs": [
        {
          "indexed": false,
          "internalType": "string",
          "name": "value",
          "type": "string"
        },
        {
          "indexed": true,
          "internalType": "uint256",
          "name": "id",
          "type": "uint256"
        }
      ],
      "name": "URI",
      "type": "event"
    },
    {
      "anonymous": false,
      "inputs": [
        {
          "indexed": false,
          "internalType": "uint256",
          "name": "tokenId",
          "type": "uint256"
        },
        {
          "indexed": true,
          "internalType": "address",
          "name": "wallet",
          "type": "address"
        },
        {
          "indexed": false,
          "internalType": "uint256",
          "name": "count",
          "type": "uint256"
        }
      ],
      "name": "WalletClaimCountUpdated",
      "type": "event"
    },
    {
      "inputs": [],
      "name": "DEFAULT_ADMIN_ROLE",
      "outputs": [
        {
          "internalType": "bytes32",
          "name": "",
          "type": "bytes32"
        }
      ],
      "stateMutability": "view",
      "type": "function"
    },
    {
      "inputs": [
        {
          "internalType": "address",
          "name": "account",
          "type": "address"
        },
        {
          "internalType": "uint256",
          "name": "id",
          "type": "uint256"
        }
      ],
      "name": "balanceOf",
      "outputs": [
        {
          "internalType": "uint256",
          "name": "",
          "type": "uint256"
        }
      ],
      "stateMutability": "view",
      "type": "function"
    },
    {
      "inputs": [
        {
          "internalType": "address[]",
          "name": "accounts",
          "type": "address[]"
        },
        {
          "internalType": "uint256[]",
          "name": "ids",
          "type": "uint256[]"
        }
      ],
      "name": "balanceOfBatch",
      "outputs": [
        {
          "internalType": "uint256[]",
          "name": "",
          "type": "uint256[]"
        }
      ],
      "stateMutability": "view",
      "type": "function"
    },
    {
      "inputs": [
        {
          "internalType": "address",
          "name": "account",
          "type": "address"
        },
        {
          "internalType": "uint256",
          "name": "id",
          "type": "uint256"
        },
        {
          "internalType": "uint256",
          "name": "value",
          "type": "uint256"
        }
      ],
      "name": "burn",
      "outputs": [],
      "stateMutability": "nonpayable",
      "type": "function"
    },
    {
      "inputs": [
        {
          "internalType": "address",
          "name": "account",
          "type": "address"
        },
        {
          "internalType": "uint256[]",
          "name": "ids",
          "type": "uint256[]"
        },
        {
          "internalType": "uint256[]",
          "name": "values",
          "type": "uint256[]"
        }
      ],
      "name": "burnBatch",
      "outputs": [],
      "stateMutability": "nonpayable",
      "type": "function"
    },
    {
      "inputs": [
        {
          "internalType": "address",
          "name": "_receiver",
          "type": "address"
        },
        {
          "internalType": "uint256",
          "name": "_tokenId",
          "type": "uint256"
        },
        {
          "internalType": "uint256",
          "name": "_quantity",
          "type": "uint256"
        },
        {
          "internalType": "address",
          "name": "_currency",
          "type": "address"
        },
        {
          "internalType": "uint256",
          "name": "_pricePerToken",
          "type": "uint256"
        },
        {
          "internalType": "bytes32[]",
          "name": "_proofs",
          "type": "bytes32[]"
        },
        {
          "internalType": "uint256",
          "name": "_proofMaxQuantityPerTransaction",
          "type": "uint256"
        }
      ],
      "name": "claim",
      "outputs": [],
      "stateMutability": "payable",
      "type": "function"
    },
    {
      "inputs": [
        {
          "internalType": "uint256",
          "name": "",
          "type": "uint256"
        }
      ],
      "name": "claimCondition",
      "outputs": [
        {
          "internalType": "uint256",
          "name": "currentStartId",
          "type": "uint256"
        },
        {
          "internalType": "uint256",
          "name": "count",
          "type": "uint256"
        }
      ],
      "stateMutability": "view",
      "type": "function"
    },
    {
      "inputs": [],
      "name": "contractType",
      "outputs": [
        {
          "internalType": "bytes32",
          "name": "",
          "type": "bytes32"
        }
      ],
      "stateMutability": "pure",
      "type": "function"
    },
    {
      "inputs": [],
      "name": "contractURI",
      "outputs": [
        {
          "internalType": "string",
          "name": "",
          "type": "string"
        }
      ],
      "stateMutability": "view",
      "type": "function"
    },
    {
      "inputs": [],
      "name": "contractVersion",
      "outputs": [
        {
          "internalType": "uint8",
          "name": "",
          "type": "uint8"
        }
      ],
      "stateMutability": "pure",
      "type": "function"
    },
    {
      "inputs": [
        {
          "internalType": "uint256",
          "name": "_tokenId",
          "type": "uint256"
        }
      ],
      "name": "getActiveClaimConditionId",
      "outputs": [
        {
          "internalType": "uint256",
          "name": "",
          "type": "uint256"
        }
      ],
      "stateMutability": "view",
      "type": "function"
    },
    {
      "inputs": [
        {
          "internalType": "uint256",
          "name": "_tokenId",
          "type": "uint256"
        },
        {
          "internalType": "uint256",
          "name": "_conditionId",
          "type": "uint256"
        }
      ],
      "name": "getClaimConditionById",
      "outputs": [
        {
          "components": [
            {
              "internalType": "uint256",
              "name": "startTimestamp",
              "type": "uint256"
            },
            {
              "internalType": "uint256",
              "name": "maxClaimableSupply",
              "type": "uint256"
            },
            {
              "internalType": "uint256",
              "name": "supplyClaimed",
              "type": "uint256"
            },
            {
              "internalType": "uint256",
              "name": "quantityLimitPerTransaction",
              "type": "uint256"
            },
            {
              "internalType": "uint256",
              "name": "waitTimeInSecondsBetweenClaims",
              "type": "uint256"
            },
            {
              "internalType": "bytes32",
              "name": "merkleRoot",
              "type": "bytes32"
            },
            {
              "internalType": "uint256",
              "name": "pricePerToken",
              "type": "uint256"
            },
            {
              "internalType": "address",
              "name": "currency",
              "type": "address"
            }
          ],
          "internalType": "struct IDropClaimCondition_V2.ClaimCondition",
          "name": "condition",
          "type": "tuple"
        }
      ],
      "stateMutability": "view",
      "type": "function"
    },
    {
      "inputs": [
        {
          "internalType": "uint256",
          "name": "_tokenId",
          "type": "uint256"
        },
        {
          "internalType": "uint256",
          "name": "_conditionId",
          "type": "uint256"
        },
        {
          "internalType": "address",
          "name": "_claimer",
          "type": "address"
        }
      ],
      "name": "getClaimTimestamp",
      "outputs": [
        {
          "internalType": "uint256",
          "name": "lastClaimTimestamp",
          "type": "uint256"
        },
        {
          "internalType": "uint256",
          "name": "nextValidClaimTimestamp",
          "type": "uint256"
        }
      ],
      "stateMutability": "view",
      "type": "function"
    },
    {
      "inputs": [],
      "name": "getDefaultRoyaltyInfo",
      "outputs": [
        {
          "internalType": "address",
          "name": "",
          "type": "address"
        },
        {
          "internalType": "uint16",
          "name": "",
          "type": "uint16"
        }
      ],
      "stateMutability": "view",
      "type": "function"
    },
    {
      "inputs": [],
      "name": "getPlatformFeeInfo",
      "outputs": [
        {
          "internalType": "address",
          "name": "",
          "type": "address"
        },
        {
          "internalType": "uint16",
          "name": "",
          "type": "uint16"
        }
      ],
      "stateMutability": "view",
      "type": "function"
    },
    {
      "inputs": [
        {
          "internalType": "bytes32",
          "name": "role",
          "type": "bytes32"
        }
      ],
      "name": "getRoleAdmin",
      "outputs": [
        {
          "internalType": "bytes32",
          "name": "",
          "type": "bytes32"
        }
      ],
      "stateMutability": "view",
      "type": "function"
    },
    {
      "inputs": [
        {
          "internalType": "bytes32",
          "name": "role",
          "type": "bytes32"
        },
        {
          "internalType": "uint256",
          "name": "index",
          "type": "uint256"
        }
      ],
      "name": "getRoleMember",
      "outputs": [
        {
          "internalType": "address",
          "name": "",
          "type": "address"
        }
      ],
      "stateMutability": "view",
      "type": "function"
    },
    {
      "inputs": [
        {
          "internalType": "bytes32",
          "name": "role",
          "type": "bytes32"
        }
      ],
      "name": "getRoleMemberCount",
      "outputs": [
        {
          "internalType": "uint256",
          "name": "",
          "type": "uint256"
        }
      ],
      "stateMutability": "view",
      "type": "function"
    },
    {
      "inputs": [
        {
          "internalType": "uint256",
          "name": "_tokenId",
          "type": "uint256"
        }
      ],
      "name": "getRoyaltyInfoForToken",
      "outputs": [
        {
          "internalType": "address",
          "name": "",
          "type": "address"
        },
        {
          "internalType": "uint16",
          "name": "",
          "type": "uint16"
        }
      ],
      "stateMutability": "view",
      "type": "function"
    },
    {
      "inputs": [
        {
          "internalType": "bytes32",
          "name": "role",
          "type": "bytes32"
        },
        {
          "internalType": "address",
          "name": "account",
          "type": "address"
        }
      ],
      "name": "grantRole",
      "outputs": [],
      "stateMutability": "nonpayable",
      "type": "function"
    },
    {
      "inputs": [
        {
          "internalType": "bytes32",
          "name": "role",
          "type": "bytes32"
        },
        {
          "internalType": "address",
          "name": "account",
          "type": "address"
        }
      ],
      "name": "hasRole",
      "outputs": [
        {
          "internalType": "bool",
          "name": "",
          "type": "bool"
        }
      ],
      "stateMutability": "view",
      "type": "function"
    },
    {
      "inputs": [
        {
          "internalType": "address",
          "name": "_defaultAdmin",
          "type": "address"
        },
        {
          "internalType": "string",
          "name": "_name",
          "type": "string"
        },
        {
          "internalType": "string",
          "name": "_symbol",
          "type": "string"
        },
        {
          "internalType": "string",
          "name": "_contractURI",
          "type": "string"
        },
        {
          "internalType": "address[]",
          "name": "_trustedForwarders",
          "type": "address[]"
        },
        {
          "internalType": "address",
          "name": "_saleRecipient",
          "type": "address"
        },
        {
          "internalType": "address",
          "name": "_royaltyRecipient",
          "type": "address"
        },
        {
          "internalType": "uint128",
          "name": "_royaltyBps",
          "type": "uint128"
        },
        {
          "internalType": "uint128",
          "name": "_platformFeeBps",
          "type": "uint128"
        },
        {
          "internalType": "address",
          "name": "_platformFeeRecipient",
          "type": "address"
        }
      ],
      "name": "initialize",
      "outputs": [],
      "stateMutability": "nonpayable",
      "type": "function"
    },
    {
      "inputs": [
        {
          "internalType": "address",
          "name": "account",
          "type": "address"
        },
        {
          "internalType": "address",
          "name": "operator",
          "type": "address"
        }
      ],
      "name": "isApprovedForAll",
      "outputs": [
        {
          "internalType": "bool",
          "name": "",
          "type": "bool"
        }
      ],
      "stateMutability": "view",
      "type": "function"
    },
    {
      "inputs": [
        {
          "internalType": "address",
          "name": "forwarder",
          "type": "address"
        }
      ],
      "name": "isTrustedForwarder",
      "outputs": [
        {
          "internalType": "bool",
          "name": "",
          "type": "bool"
        }
      ],
      "stateMutability": "view",
      "type": "function"
    },
    {
      "inputs": [
        {
          "internalType": "uint256",
          "name": "_amount",
          "type": "uint256"
        },
        {
          "internalType": "string",
          "name": "_baseURIForTokens",
          "type": "string"
        }
      ],
      "name": "lazyMint",
      "outputs": [],
      "stateMutability": "nonpayable",
      "type": "function"
    },
    {
      "inputs": [
        {
          "internalType": "uint256",
          "name": "",
          "type": "uint256"
        }
      ],
      "name": "maxTotalSupply",
      "outputs": [
        {
          "internalType": "uint256",
          "name": "",
          "type": "uint256"
        }
      ],
      "stateMutability": "view",
      "type": "function"
    },
    {
      "inputs": [
        {
          "internalType": "uint256",
          "name": "",
          "type": "uint256"
        }
      ],
      "name": "maxWalletClaimCount",
      "outputs": [
        {
          "internalType": "uint256",
          "name": "",
          "type": "uint256"
        }
      ],
      "stateMutability": "view",
      "type": "function"
    },
    {
      "inputs": [
        {
          "internalType": "bytes[]",
          "name": "data",
          "type": "bytes[]"
        }
      ],
      "name": "multicall",
      "outputs": [
        {
          "internalType": "bytes[]",
          "name": "results",
          "type": "bytes[]"
        }
      ],
      "stateMutability": "nonpayable",
      "type": "function"
    },
    {
      "inputs": [],
      "name": "name",
      "outputs": [
        {
          "internalType": "string",
          "name": "",
          "type": "string"
        }
      ],
      "stateMutability": "view",
      "type": "function"
    },
    {
      "inputs": [],
      "name": "nextTokenIdToMint",
      "outputs": [
        {
          "internalType": "uint256",
          "name": "",
          "type": "uint256"
        }
      ],
      "stateMutability": "view",
      "type": "function"
    },
    {
      "inputs": [],
      "name": "owner",
      "outputs": [
        {
          "internalType": "address",
          "name": "",
          "type": "address"
        }
      ],
      "stateMutability": "view",
      "type": "function"
    },
    {
      "inputs": [],
      "name": "primarySaleRecipient",
      "outputs": [
        {
          "internalType": "address",
          "name": "",
          "type": "address"
        }
      ],
      "stateMutability": "view",
      "type": "function"
    },
    {
      "inputs": [
        {
          "internalType": "bytes32",
          "name": "role",
          "type": "bytes32"
        },
        {
          "internalType": "address",
          "name": "account",
          "type": "address"
        }
      ],
      "name": "renounceRole",
      "outputs": [],
      "stateMutability": "nonpayable",
      "type": "function"
    },
    {
      "inputs": [
        {
          "internalType": "bytes32",
          "name": "role",
          "type": "bytes32"
        },
        {
          "internalType": "address",
          "name": "account",
          "type": "address"
        }
      ],
      "name": "revokeRole",
      "outputs": [],
      "stateMutability": "nonpayable",
      "type": "function"
    },
    {
      "inputs": [
        {
          "internalType": "uint256",
          "name": "tokenId",
          "type": "uint256"
        },
        {
          "internalType": "uint256",
          "name": "salePrice",
          "type": "uint256"
        }
      ],
      "name": "royaltyInfo",
      "outputs": [
        {
          "internalType": "address",
          "name": "receiver",
          "type": "address"
        },
        {
          "internalType": "uint256",
          "name": "royaltyAmount",
          "type": "uint256"
        }
      ],
      "stateMutability": "view",
      "type": "function"
    },
    {
      "inputs": [
        {
          "internalType": "address",
          "name": "from",
          "type": "address"
        },
        {
          "internalType": "address",
          "name": "to",
          "type": "address"
        },
        {
          "internalType": "uint256[]",
          "name": "ids",
          "type": "uint256[]"
        },
        {
          "internalType": "uint256[]",
          "name": "amounts",
          "type": "uint256[]"
        },
        {
          "internalType": "bytes",
          "name": "data",
          "type": "bytes"
        }
      ],
      "name": "safeBatchTransferFrom",
      "outputs": [],
      "stateMutability": "nonpayable",
      "type": "function"
    },
    {
      "inputs": [
        {
          "internalType": "address",
          "name": "from",
          "type": "address"
        },
        {
          "internalType": "address",
          "name": "to",
          "type": "address"
        },
        {
          "internalType": "uint256",
          "name": "id",
          "type": "uint256"
        },
        {
          "internalType": "uint256",
          "name": "amount",
          "type": "uint256"
        },
        {
          "internalType": "bytes",
          "name": "data",
          "type": "bytes"
        }
      ],
      "name": "safeTransferFrom",
      "outputs": [],
      "stateMutability": "nonpayable",
      "type": "function"
    },
    {
      "inputs": [
        {
          "internalType": "uint256",
          "name": "",
          "type": "uint256"
        }
      ],
      "name": "saleRecipient",
      "outputs": [
        {
          "internalType": "address",
          "name": "",
          "type": "address"
        }
      ],
      "stateMutability": "view",
      "type": "function"
    },
    {
      "inputs": [
        {
          "internalType": "address",
          "name": "operator",
          "type": "address"
        },
        {
          "internalType": "bool",
          "name": "approved",
          "type": "bool"
        }
      ],
      "name": "setApprovalForAll",
      "outputs": [],
      "stateMutability": "nonpayable",
      "type": "function"
    },
    {
      "inputs": [
        {
          "internalType": "uint256",
          "name": "_tokenId",
          "type": "uint256"
        },
        {
          "components": [
            {
              "internalType": "uint256",
              "name": "startTimestamp",
              "type": "uint256"
            },
            {
              "internalType": "uint256",
              "name": "maxClaimableSupply",
              "type": "uint256"
            },
            {
              "internalType": "uint256",
              "name": "supplyClaimed",
              "type": "uint256"
            },
            {
              "internalType": "uint256",
              "name": "quantityLimitPerTransaction",
              "type": "uint256"
            },
            {
              "internalType": "uint256",
              "name": "waitTimeInSecondsBetweenClaims",
              "type": "uint256"
            },
            {
              "internalType": "bytes32",
              "name": "merkleRoot",
              "type": "bytes32"
            },
            {
              "internalType": "uint256",
              "name": "pricePerToken",
              "type": "uint256"
            },
            {
              "internalType": "address",
              "name": "currency",
              "type": "address"
            }
          ],
          "internalType": "struct IDropClaimCondition_V2.ClaimCondition[]",
          "name": "_phases",
          "type": "tuple[]"
        },
        {
          "internalType": "bool",
          "name": "_resetClaimEligibility",
          "type": "bool"
        }
      ],
      "name": "setClaimConditions",
      "outputs": [],
      "stateMutability": "nonpayable",
      "type": "function"
    },
    {
      "inputs": [
        {
          "internalType": "string",
          "name": "_uri",
          "type": "string"
        }
      ],
      "name": "setContractURI",
      "outputs": [],
      "stateMutability": "nonpayable",
      "type": "function"
    },
    {
      "inputs": [
        {
          "internalType": "address",
          "name": "_royaltyRecipient",
          "type": "address"
        },
        {
          "internalType": "uint256",
          "name": "_royaltyBps",
          "type": "uint256"
        }
      ],
      "name": "setDefaultRoyaltyInfo",
      "outputs": [],
      "stateMutability": "nonpayable",
      "type": "function"
    },
    {
      "inputs": [
        {
          "internalType": "uint256",
          "name": "_tokenId",
          "type": "uint256"
        },
        {
          "internalType": "uint256",
          "name": "_maxTotalSupply",
          "type": "uint256"
        }
      ],
      "name": "setMaxTotalSupply",
      "outputs": [],
      "stateMutability": "nonpayable",
      "type": "function"
    },
    {
      "inputs": [
        {
          "internalType": "uint256",
          "name": "_tokenId",
          "type": "uint256"
        },
        {
          "internalType": "uint256",
          "name": "_count",
          "type": "uint256"
        }
      ],
      "name": "setMaxWalletClaimCount",
      "outputs": [],
      "stateMutability": "nonpayable",
      "type": "function"
    },
    {
      "inputs": [
        {
          "internalType": "address",
          "name": "_newOwner",
          "type": "address"
        }
      ],
      "name": "setOwner",
      "outputs": [],
      "stateMutability": "nonpayable",
      "type": "function"
    },
    {
      "inputs": [
        {
          "internalType": "address",
          "name": "_platformFeeRecipient",
          "type": "address"
        },
        {
          "internalType": "uint256",
          "name": "_platformFeeBps",
          "type": "uint256"
        }
      ],
      "name": "setPlatformFeeInfo",
      "outputs": [],
      "stateMutability": "nonpayable",
      "type": "function"
    },
    {
      "inputs": [
        {
          "internalType": "address",
          "name": "_saleRecipient",
          "type": "address"
        }
      ],
      "name": "setPrimarySaleRecipient",
      "outputs": [],
      "stateMutability": "nonpayable",
      "type": "function"
    },
    {
      "inputs": [
        {
          "internalType": "uint256",
          "name": "_tokenId",
          "type": "uint256"
        },
        {
          "internalType": "address",
          "name": "_recipient",
          "type": "address"
        },
        {
          "internalType": "uint256",
          "name": "_bps",
          "type": "uint256"
        }
      ],
      "name": "setRoyaltyInfoForToken",
      "outputs": [],
      "stateMutability": "nonpayable",
      "type": "function"
    },
    {
      "inputs": [
        {
          "internalType": "uint256",
          "name": "_tokenId",
          "type": "uint256"
        },
        {
          "internalType": "address",
          "name": "_saleRecipient",
          "type": "address"
        }
      ],
      "name": "setSaleRecipientForToken",
      "outputs": [],
      "stateMutability": "nonpayable",
      "type": "function"
    },
    {
      "inputs": [
        {
          "internalType": "uint256",
          "name": "_tokenId",
          "type": "uint256"
        },
        {
          "internalType": "address",
          "name": "_claimer",
          "type": "address"
        },
        {
          "internalType": "uint256",
          "name": "_count",
          "type": "uint256"
        }
      ],
      "name": "setWalletClaimCount",
      "outputs": [],
      "stateMutability": "nonpayable",
      "type": "function"
    },
    {
      "inputs": [
        {
          "internalType": "bytes4",
          "name": "interfaceId",
          "type": "bytes4"
        }
      ],
      "name": "supportsInterface",
      "outputs": [
        {
          "internalType": "bool",
          "name": "",
          "type": "bool"
        }
      ],
      "stateMutability": "view",
      "type": "function"
    },
    {
      "inputs": [],
      "name": "symbol",
      "outputs": [
        {
          "internalType": "string",
          "name": "",
          "type": "string"
        }
      ],
      "stateMutability": "view",
      "type": "function"
    },
    {
      "inputs": [
        {
          "internalType": "uint256",
          "name": "",
          "type": "uint256"
        }
      ],
      "name": "totalSupply",
      "outputs": [
        {
          "internalType": "uint256",
          "name": "",
          "type": "uint256"
        }
      ],
      "stateMutability": "view",
      "type": "function"
    },
    {
      "inputs": [
        {
          "internalType": "uint256",
          "name": "_tokenId",
          "type": "uint256"
        }
      ],
      "name": "uri",
      "outputs": [
        {
          "internalType": "string",
          "name": "_tokenURI",
          "type": "string"
        }
      ],
      "stateMutability": "view",
      "type": "function"
    },
    {
      "inputs": [
        {
          "internalType": "uint256",
          "name": "_conditionId",
          "type": "uint256"
        },
        {
          "internalType": "address",
          "name": "_claimer",
          "type": "address"
        },
        {
          "internalType": "uint256",
          "name": "_tokenId",
          "type": "uint256"
        },
        {
          "internalType": "uint256",
          "name": "_quantity",
          "type": "uint256"
        },
        {
          "internalType": "address",
          "name": "_currency",
          "type": "address"
        },
        {
          "internalType": "uint256",
          "name": "_pricePerToken",
          "type": "uint256"
        },
        {
          "internalType": "bool",
          "name": "verifyMaxQuantityPerTransaction",
          "type": "bool"
        }
      ],
      "name": "verifyClaim",
      "outputs": [],
      "stateMutability": "view",
      "type": "function"
    },
    {
      "inputs": [
        {
          "internalType": "uint256",
          "name": "_conditionId",
          "type": "uint256"
        },
        {
          "internalType": "address",
          "name": "_claimer",
          "type": "address"
        },
        {
          "internalType": "uint256",
          "name": "_tokenId",
          "type": "uint256"
        },
        {
          "internalType": "uint256",
          "name": "_quantity",
          "type": "uint256"
        },
        {
          "internalType": "bytes32[]",
          "name": "_proofs",
          "type": "bytes32[]"
        },
        {
          "internalType": "uint256",
          "name": "_proofMaxQuantityPerTransaction",
          "type": "uint256"
        }
      ],
      "name": "verifyClaimMerkleProof",
      "outputs": [
        {
          "internalType": "bool",
          "name": "validMerkleProof",
          "type": "bool"
        },
        {
          "internalType": "uint256",
          "name": "merkleProofIndex",
          "type": "uint256"
        }
      ],
      "stateMutability": "view",
      "type": "function"
    },
    {
      "inputs": [
        {
          "internalType": "uint256",
          "name": "",
          "type": "uint256"
        },
        {
          "internalType": "address",
          "name": "",
          "type": "address"
        }
      ],
      "name": "walletClaimCount",
      "outputs": [
        {
          "internalType": "uint256",
          "name": "",
          "type": "uint256"
        }
      ],
      "stateMutability": "view",
      "type": "function"
    }
  ],
  "bytecode": "0x60806040523480156200001157600080fd5b50600054610100900460ff1615808015620000335750600054600160ff909116105b8062000063575062000050306200013d60201b62002b4e1760201c565b15801562000063575060005460ff166001145b620000cb5760405162461bcd60e51b815260206004820152602e60248201527f496e697469616c697a61626c653a20636f6e747261637420697320616c72656160448201526d191e481a5b9a5d1a585b1a5e995960921b606482015260840160405180910390fd5b6000805460ff191660011790558015620000ef576000805461ff0019166101001790555b801562000136576000805461ff0019169055604051600181527f7f26b83ff96e1f2b6a682f133852f6798a09c465da95921460cefb38474024989060200160405180910390a15b506200014c565b6001600160a01b03163b151590565b615e30806200015c6000396000f3fe6080604052600436106103755760003560e01c80639010d07c116101d1578063b79cade411610102578063d45b28d7116100a0578063e9703d251161006f578063e9703d2514610bc7578063e985e9c514610bfc578063f242432a14610c46578063f5298aca14610c6657600080fd5b8063d45b28d714610ae8578063d547741f14610b72578063e159163414610b92578063e8a3d48514610bb257600080fd5b8063c7337d6b116100dc578063c7337d6b14610a44578063ca15c87314610a7b578063cb2ef6f714610a9b578063d45573f614610abc57600080fd5b8063b79cade4146109af578063bd85b039146109dd578063c16ce64e14610a0b57600080fd5b8063a217fddf1161016f578063ac9650d811610149578063ac9650d814610923578063b101440014610950578063b24f2d3914610970578063b4c5faa11461099c57600080fd5b8063a217fddf146108ce578063a22cb465146108e3578063ab073c221461090357600080fd5b806395d89b41116101ab57806395d89b411461085d5780639bcf7a1514610872578063a0a8e46014610892578063a157f71c146108ae57600080fd5b80639010d07c146107d757806391d14854146107f7578063938e3d7b1461083d57600080fd5b80633b1475a7116102ab578063622a6c311161024957806371d53a5b1161022357806371d53a5b1461074b578063832c3a581461078257806387198cf2146107a25780638da5cb5b146107c257600080fd5b8063622a6c31146106d65780636b20c4541461070b5780636f4f28371461072b57600080fd5b80634e1273f4116102855780634e1273f414610630578063572b6c051461065d5780635ab063e814610696578063600dd5ea146106b657600080fd5b80633b1475a7146105b757806347158264146105ce5780634cc157df146105ee57600080fd5b8063248a9ca3116103185780632a55205a116102f25780632a55205a146105185780632eb2c2d6146105575780632f2ff15d1461057757806336568abe1461059757600080fd5b8063248a9ca31461049a57806324aaffaa146104ca57806329c49b9b146104f857600080fd5b8063079fe40e11610354578063079fe40e146103ff5780630e89341c1461043857806313af4035146104585780631e7ac4881461047a57600080fd5b8062fdd58e1461037a57806301ffc9a7146103ad57806306fdde03146103dd575b600080fd5b34801561038657600080fd5b5061039a610395366004614c80565b610c86565b6040519081526020015b60405180910390f35b3480156103b957600080fd5b506103cd6103c8366004614cc2565b610d22565b60405190151581526020016103a4565b3480156103e957600080fd5b506103f2610d4a565b6040516103a49190614d37565b34801561040b57600080fd5b5061019554610420906001600160a01b031681565b6040516001600160a01b0390911681526020016103a4565b34801561044457600080fd5b506103f2610453366004614d4a565b610dd9565b34801561046457600080fd5b50610478610473366004614d63565b610e9a565b005b34801561048657600080fd5b50610478610495366004614c80565b610f8b565b3480156104a657600080fd5b5061039a6104b5366004614d4a565b600090815260fb602052604090206001015490565b3480156104d657600080fd5b5061039a6104e5366004614d4a565b61019c6020526000908152604090205481565b34801561050457600080fd5b50610478610513366004614d80565b611046565b34801561052457600080fd5b50610538610533366004614db0565b6110af565b604080516001600160a01b0390931683526020830191909152016103a4565b34801561056357600080fd5b50610478610572366004614f1e565b6110ec565b34801561058357600080fd5b50610478610592366004614d80565b611192565b3480156105a357600080fd5b506104786105b2366004614d80565b6111bc565b3480156105c357600080fd5b5061039a6101945481565b3480156105da57600080fd5b506104786105e9366004615015565b611258565b3480156105fa57600080fd5b5061060e610609366004614d4a565b611347565b604080516001600160a01b03909316835261ffff9091166020830152016103a4565b34801561063c57600080fd5b5061065061064b3660046150d0565b6113b4565b6040516103a4919061516f565b34801561066957600080fd5b506103cd610678366004614d63565b6001600160a01b031660009081526065602052604090205460ff1690565b3480156106a257600080fd5b5061039a6106b1366004614d4a565b6114de565b3480156106c257600080fd5b506104786106d1366004614c80565b6115a2565b3480156106e257600080fd5b506106f66106f1366004615182565b611650565b604080519283526020830191909152016103a4565b34801561071757600080fd5b506104786107263660046151bb565b6116a9565b34801561073757600080fd5b50610478610746366004614d63565b611741565b34801561075757600080fd5b5061076b610766366004615276565b611798565b6040805192151583526020830191909152016103a4565b34801561078e57600080fd5b5061047861079d366004614db0565b6119da565b3480156107ae57600080fd5b506104786107bd366004614db0565b611a37565b3480156107ce57600080fd5b50610420611a8b565b3480156107e357600080fd5b506104206107f2366004614db0565b611ae6565b34801561080357600080fd5b506103cd610812366004614d80565b600091825260fb602090815260408084206001600160a01b0393909316845291905290205460ff1690565b34801561084957600080fd5b506104786108583660046152f2565b611b06565b34801561086957600080fd5b506103f2611b24565b34801561087e57600080fd5b5061047861088d366004615334565b611b32565b34801561089e57600080fd5b50604051600281526020016103a4565b3480156108ba57600080fd5b506104786108c936600461537a565b611c0b565b3480156108da57600080fd5b5061039a600081565b3480156108ef57600080fd5b506104786108fe3660046153ec565b611f68565b34801561090f57600080fd5b5061047861091e36600461541a565b611f7a565b34801561092f57600080fd5b5061094361093e3660046154ac565b6122e1565b6040516103a491906154e2565b34801561095c57600080fd5b5061047861096b366004615334565b6123d6565b34801561097c57600080fd5b50610197546001600160a01b03811690600160a01b900461ffff1661060e565b6104786109aa366004615544565b612446565b3480156109bb57600080fd5b5061039a6109ca366004614d4a565b6101a16020526000908152604090205481565b3480156109e957600080fd5b5061039a6109f8366004614d4a565b61019b6020526000908152604090205481565b348015610a1757600080fd5b5061039a610a26366004614d80565b6101a060209081526000928352604080842090915290825290205481565b348015610a5057600080fd5b50610420610a5f366004614d4a565b61019e602052600090815260409020546001600160a01b031681565b348015610a8757600080fd5b5061039a610a96366004614d4a565b612662565b348015610aa757600080fd5b506a44726f704552433131353560a81b61039a565b348015610ac857600080fd5b50610196546001600160a01b03811690600160a01b900461ffff1661060e565b348015610af457600080fd5b50610b08610b03366004614db0565b61267a565b6040516103a49190600061010082019050825182526020830151602083015260408301516040830152606083015160608301526080830151608083015260a083015160a083015260c083015160c08301526001600160a01b0360e08401511660e083015292915050565b348015610b7e57600080fd5b50610478610b8d366004614d80565b612750565b348015610b9e57600080fd5b50610478610bad3660046155f1565b612775565b348015610bbe57600080fd5b506103f2612a09565b348015610bd357600080fd5b506106f6610be2366004614d4a565b61019d602052600090815260409020805460019091015482565b348015610c0857600080fd5b506103cd610c17366004615704565b6001600160a01b0391821660009081526101606020908152604080832093909416825291909152205460ff1690565b348015610c5257600080fd5b50610478610c61366004615732565b612a17565b348015610c7257600080fd5b50610478610c8136600461579b565b612ab6565b60006001600160a01b038316610cf65760405162461bcd60e51b815260206004820152602a60248201527f455243313135353a2061646472657373207a65726f206973206e6f742061207660448201526930b634b21037bbb732b960b11b60648201526084015b60405180910390fd5b50600081815261015f602090815260408083206001600160a01b03861684529091529020545b92915050565b6000610d2d82612b5d565b80610d1c5750506001600160e01b03191663152a902d60e11b1490565b6101918054610d58906157d0565b80601f0160208091040260200160405190810160405280929190818152602001828054610d84906157d0565b8015610dd15780601f10610da657610100808354040283529160200191610dd1565b820191906000526020600020905b815481529060010190602001808311610db457829003601f168201915b505050505081565b606060005b61019954811015610e84576101998181548110610dfd57610dfd61580b565b9060005260206000200154831015610e725761019a60006101998381548110610e2857610e2861580b565b90600052602060002001548152602001908152602001600020610e4a84612b9d565b604051602001610e5b92919061583d565b604051602081830303815290604052915050919050565b610e7d6001826158f1565b9050610dde565b5050604080516020810190915260008152919050565b6000610ea581612c9b565b6001600160a01b03821660009081527fc88390e7e62175be0932452175b6a7222b6b094ab0ef984a5153c620345d8975602052604090205460ff16610f2c5760405162461bcd60e51b815260206004820152601b60248201527f6e6577206f776e6572206e6f74206d6f64756c652061646d696e2e00000000006044820152606401610ced565b610193546040516001600160a01b038085169216907f8292fce18fa69edf4db7b94ea2e58241df0ae57f97e0a6c9b29067028bf92d7690600090a35061019380546001600160a01b0319166001600160a01b0392909216919091179055565b6000610f9681612c9b565b612710821115610fd85760405162461bcd60e51b815260206004820152600d60248201526c313839901e1e9018981818181760991b6044820152606401610ced565b61019680546001600160b01b031916600160a01b61ffff8516026001600160a01b031916176001600160a01b0385169081179091556040518381527fe2497bd806ec41a6e0dd992c29a72efc0ef8fec9092d1978fd4a1e00b2f18304906020015b60405180910390a2505050565b600061105181612c9b565b600083815261019e602090815260409182902080546001600160a01b0319166001600160a01b038616908117909155915191825284917f359479172ba65a6639b0df237f704e030498cb7135d5e89b56f598bd1d84b0169101611039565b6000806000806110be86611347565b90945084925061ffff1690506127106110d78287615909565b6110e1919061593e565b925050509250929050565b6110f4612caf565b6001600160a01b0316856001600160a01b0316148061111a575061111a85610c17612caf565b61117e5760405162461bcd60e51b815260206004820152602f60248201527f455243313135353a2063616c6c6572206973206e6f7420746f6b656e206f776e60448201526e195c881b9bdc88185c1c1c9bdd9959608a1b6064820152608401610ced565b61118b8585858585612cb9565b5050505050565b600082815260fb60205260409020600101546111ad81612c9b565b6111b78383612f35565b505050565b6111c4612caf565b6001600160a01b0316816001600160a01b03161461124a5760405162461bcd60e51b815260206004820152602f60248201527f416363657373436f6e74726f6c3a2063616e206f6e6c792072656e6f756e636560448201527f20726f6c657320666f722073656c6600000000000000000000000000000000006064820152608401610ced565b6112548282612f58565b5050565b7f9f2df0fed2c77648de5860a4cc508cd0818c85b8b8a1ab4ceeef8d981c8956a661128281612c9b565b61019454600061129286836158f1565b610194819055600081815261019a602052604090209091506112b5908686614b4e565b506101998054600181810183556000929092527f960942b7bcefc06c4573016a89cb45882597f73bb18f9afb0df2c0e01c496e1b018290557f4e6c698792b8dfb7c94c60c7e9e91f82932832d5e1ec0870ed42cf674e6af44590839061131b89836158f1565b6113259190615952565b87876040516113379493929190615969565b60405180910390a1505050505050565b600081815261019f60209081526040808320815180830190925280546001600160a01b03168083526001909101549282019290925282911561138f57805160208201516113aa565b610197546001600160a01b03811690600160a01b900461ffff165b9250925050915091565b606081518351146114195760405162461bcd60e51b815260206004820152602960248201527f455243313135353a206163636f756e747320616e6420696473206c656e677468604482015268040dad2e6dac2e8c6d60bb1b6064820152608401610ced565b6000835167ffffffffffffffff81111561143557611435614dd2565b60405190808252806020026020018201604052801561145e578160200160208202803683370190505b50905060005b84518110156114d6576114a98582815181106114825761148261580b565b602002602001015185838151811061149c5761149c61580b565b6020026020010151610c86565b8282815181106114bb576114bb61580b565b60209081029190910101526114cf816159a6565b9050611464565b509392505050565b600081815261019d602052604081206001810154815483916114ff916158f1565b90505b81548111156115595760028201600061151c600184615952565b81526020019081526020016000206000015442106115475761153f600182615952565b949350505050565b80611551816159c1565b915050611502565b5060405162461bcd60e51b815260206004820152601960248201527f6e6f20616374697665206d696e7420636f6e646974696f6e2e000000000000006044820152606401610ced565b60006115ad81612c9b565b6127108211156115f45760405162461bcd60e51b815260206004820152601260248201527165786365656420726f79616c74792062707360701b6044820152606401610ced565b61019780546001600160a01b0385166001600160b01b03199091168117600160a01b61ffff861602179091556040518381527f90d7ec04bcb8978719414f82e52e4cb651db41d0e6f8cea6118c2191e6183adb90602001611039565b600083815261019d602090815260408083208584526003810183528184206001600160a01b03861685528352818420548685526002909101909252909120600401548101818110156116a157506000195b935093915050565b6116b1612caf565b6001600160a01b0316836001600160a01b031614806116d757506116d783610c17612caf565b6117365760405162461bcd60e51b815260206004820152602a60248201527f455243313135353a2063616c6c6572206973206e6f74206f776e6572206e6f726044820152691030b8383937bb32b21760b11b6064820152608401610ced565b6111b7838383612f7b565b600061174c81612c9b565b61019580546001600160a01b0319166001600160a01b0384169081179091556040517f299d17e95023f496e0ffc4909cff1a61f74bb5eb18de6f900f4155bfa1b3b33390600090a25050565b600085815261019d602090815260408083208a8452600290810183528184208251610100810184528154815260018201549481019490945290810154918301919091526003810154606083015260048101546080830152600581015460a08301819052600682015460c08401526007909101546001600160a01b031660e0830152829190156119cd5761189d86868080602002602001604051908101604052809392919081815260200183836020028082843760009201919091525050505060a08301516040516bffffffffffffffffffffffff1960608e901b16602082015260348101889052605401604051602081830303815290604052805190602001206131dc565b9093509150826118ef5760405162461bcd60e51b815260206004820152601160248201527f6e6f7420696e2077686974656c6973742e0000000000000000000000000000006044820152606401610ced565b600088815261019d602090815260408083208d8452600401825280832072ffffffffffffffffffffffffffffffffffffff60088e901c168452909152902054600160ff8b161b16156119745760405162461bcd60e51b815260206004820152600e60248201526d383937b7b31031b630b4b6b2b21760911b6044820152606401610ced565b8315806119815750838711155b6119cd5760405162461bcd60e51b815260206004820152601760248201527f696e76616c6964207175616e746974792070726f6f662e0000000000000000006044820152606401610ced565b5097509795505050505050565b60006119e581612c9b565b60008381526101a1602090815260409182902084905581518581529081018490527f07fa2d0eb2fe8b8e6fbee6073cf9d84659d6db054d221579a0373ae29bc9d73d91015b60405180910390a1505050565b6000611a4281612c9b565b600083815261019c602090815260409182902084905581518581529081018490527fc58cd6132bb46df23d468939c03dd023b74b509aaa6b04c39d5a6461c65963bd9101611a2a565b610193546001600160a01b031660009081527fc88390e7e62175be0932452175b6a7222b6b094ab0ef984a5153c620345d8975602052604081205460ff16611ad35750600090565b610193546001600160a01b03165b905090565b600082815261012d60205260408120611aff90836132aa565b9392505050565b6000611b1181612c9b565b611b1e6101988484614b4e565b50505050565b6101928054610d58906157d0565b6000611b3d81612c9b565b612710821115611b845760405162461bcd60e51b815260206004820152601260248201527165786365656420726f79616c74792062707360701b6044820152606401610ced565b6040805180820182526001600160a01b03858116808352602080840187815260008a815261019f8352869020945185546001600160a01b031916941693909317845591516001909301929092559151848152909186917f7365cf4122f072a3365c20d54eff9b38d73c096c28e1892ec8f5b0e403a0f12d910160405180910390a350505050565b600085815261019d602090815260408083208a845260029081018352928190208151610100810183528154815260018201549381019390935292830154908201526003820154606082015260048201546080820152600582015460a0820152600682015460c08201526007909101546001600160a01b0390811660e08301819052908516148015611c9f57508060c0015183145b611cf75760405162461bcd60e51b8152602060048201526024808201527f696e76616c69642063757272656e6379206f722070726963652073706563696660448201526334b2b21760e11b6064820152608401610ced565b600085118015611d135750811580611d13575080606001518511155b611d5f5760405162461bcd60e51b815260206004820152601960248201527f696e76616c6964207175616e7469747920636c61696d65642e000000000000006044820152606401610ced565b8060200151858260400151611d7491906158f1565b1115611dc25760405162461bcd60e51b815260206004820152601760248201527f657863656564206d6178206d696e7420737570706c792e0000000000000000006044820152606401610ced565b600086815261019c60205260409020541580611e045750600086815261019c602090815260408083205461019b90925290912054611e019087906158f1565b11155b611e505760405162461bcd60e51b815260206004820152601760248201527f657863656564206d617820746f74616c20737570706c790000000000000000006044820152606401610ced565b60008681526101a160205260409020541580611ea3575060008681526101a160209081526040808320546101a083528184206001600160a01b038c16855290925290912054611ea09087906158f1565b11155b611eef5760405162461bcd60e51b815260206004820152601d60248201527f65786365656420636c61696d206c696d697420666f722077616c6c65740000006044820152606401610ced565b600080611efd888b8b611650565b915091508160001480611f105750804210155b611f5c5760405162461bcd60e51b815260206004820152601160248201527f63616e6e6f7420636c61696d207965742e0000000000000000000000000000006044820152606401610ced565b50505050505050505050565b611254611f73612caf565b83836132b6565b6000611f8581612c9b565b600085815261019d6020526040902080546001820154818515611faf57611fac82846158f1565b90505b600184018790558084556000805b8881101561217d57801580611fed5750898982818110611fdf57611fdf61580b565b905061010002016000013582105b61204c5760405162461bcd60e51b815260206004820152602a60248201527f737461727454696d657374616d70206d75737420626520696e20617363656e6460448201526934b7339037b93232b91760b11b6064820152608401610ced565b6000600287018161205d84876158f1565b81526020019081526020016000206002015490508a8a838181106120835761208361580b565b90506101000201602001358111156120dd5760405162461bcd60e51b815260206004820152601a60248201527f6d617820737570706c7920636c61696d656420616c72656164790000000000006044820152606401610ced565b8a8a838181106120ef576120ef61580b565b90506101000201876002016000848761210891906158f1565b8152602001908152602001600020818161212291906159d8565b5081905060028801600061213685886158f1565b81526020810191909152604001600020600201558a8a8381811061215c5761215c61580b565b90506101000201600001359250508080612175906159a6565b915050611fbd565b5086156121ff57835b828110156121f9576000818152600280880160209081526040832083815560018101849055918201839055600382018390556004808301849055600583018490556006830193909355600790910180546001600160a01b03191690559087019052806121f1816159a6565b915050612186565b5061229b565b8783111561229b57875b838110156122995760028601600061222183866158f1565b81526020810191909152604001600090812081815560018101829055600281018290556003810182905560048082018390556005820183905560068201839055600790910180546001600160a01b031916905587019061228183866158f1565b81526020015280612291816159a6565b915050612209565b505b897f7822655b74d50f461cbd7ca5dfc8b5e48b21fa2157bd7d277888fccce85af2ae8a8a6040516122cd929190615a49565b60405180910390a250505050505050505050565b60608167ffffffffffffffff8111156122fc576122fc614dd2565b60405190808252806020026020018201604052801561232f57816020015b606081526020019060019003908161231a5790505b50905060005b828110156123cf5761239f308585848181106123535761235361580b565b90506020028101906123659190615ae0565b8080601f01602080910402602001604051908101604052809392919081815260200183838082843760009201919091525061339892505050565b8282815181106123b1576123b161580b565b602002602001018190525080806123c7906159a6565b915050612335565b5092915050565b60006123e181612c9b565b60008481526101a0602090815260408083206001600160a01b0387168085529083529281902085905580518781529182018590527f9260cdce30c9abdb65593c1a903e40c87feb886a28aa4335a6695547988aab2f910160405180910390a250505050565b600260015414156124995760405162461bcd60e51b815260206004820152601f60248201527f5265656e7472616e637947756172643a207265656e7472616e742063616c6c006044820152606401610ced565b60026001553360009081526065602052604090205460ff16806124cb5750326124c0612caf565b6001600160a01b0316145b6124fd5760405162461bcd60e51b81526020600482015260036024820152621093d560ea1b6044820152606401610ced565b6000612508886114de565b9050600061252282612518612caf565b8b8b898989611798565b5090506000831580612552575060008a815261019d60209081526040808320868452600201909152902060050154155b905061256a83612560612caf565b8c8c8c8c87611c0b565b8180156125775750600084115b156125d9576125d9612587612caf565b60008c815261019d60209081526040808320888452600401825280832072ffffffffffffffffffffffffffffffffffffff600886901c16845290915290208054600160ff9093169290921b9091179055565b6125e58989898d61348c565b6125f18b848c8c6135d5565b6125f9612caf565b6001600160a01b03168a847f4f72e6585331094d368e469f11198272039d08cbddfcda1577e192687a83afb68e8d6040516126499291906001600160a01b03929092168252602082015260400190565b60405180910390a4505060018055505050505050505050565b600081815261012d60205260408120610d1c906136c5565b6126ce6040518061010001604052806000815260200160008152602001600081526020016000815260200160008152602001600080191681526020016000815260200160006001600160a01b031681525090565b50600091825261019d6020908152604080842092845260029283018252928390208351610100810185528154815260018201549281019290925291820154928101929092526003810154606083015260048101546080830152600581015460a0830152600681015460c0830152600701546001600160a01b031660e082015290565b600082815260fb602052604090206001015461276b81612c9b565b6111b78383612f58565b600054610100900460ff16158080156127955750600054600160ff909116105b806127af5750303b1580156127af575060005460ff166001145b6128125760405162461bcd60e51b815260206004820152602e60248201527f496e697469616c697a61626c653a20636f6e747261637420697320616c72656160448201526d191e481a5b9a5d1a585b1a5e995960921b6064820152608401610ced565b6000805460ff191660011790558015612835576000805461ff0019166101001790555b61283d6136cf565b61284687613700565b61285e6040518060200160405280600081525061378f565b8951612872906101919060208d0190614bd2565b508851612887906101929060208c0190614bd2565b5061019780546001600160a01b038781166001600160b01b031990921691909117600160a01b61ffff8816021790915561019680546001600160a01b031990811685841617909155610195805490911691881691909117905587516128f4906101989060208b0190614bd2565b50610196805461ffff60a01b1916600160a01b61ffff86160217905561019380546001600160a01b0319166001600160a01b038d1617905561293760008c6137bf565b6129617f9f2df0fed2c77648de5860a4cc508cd0818c85b8b8a1ab4ceeef8d981c8956a68c6137bf565b61298b7f8502233096d909befbda0999bb8ea2f3a6be3c138b9fbf003752a4c8bce86f6c8c6137bf565b6129b67f8502233096d909befbda0999bb8ea2f3a6be3c138b9fbf003752a4c8bce86f6c60006137bf565b80156129fc576000805461ff0019169055604051600181527f7f26b83ff96e1f2b6a682f133852f6798a09c465da95921460cefb38474024989060200160405180910390a15b5050505050505050505050565b6101988054610d58906157d0565b612a1f612caf565b6001600160a01b0316856001600160a01b03161480612a455750612a4585610c17612caf565b612aa95760405162461bcd60e51b815260206004820152602f60248201527f455243313135353a2063616c6c6572206973206e6f7420746f6b656e206f776e60448201526e195c881b9bdc88185c1c1c9bdd9959608a1b6064820152608401610ced565b61118b85858585856137c9565b612abe612caf565b6001600160a01b0316836001600160a01b03161480612ae45750612ae483610c17612caf565b612b435760405162461bcd60e51b815260206004820152602a60248201527f455243313135353a2063616c6c6572206973206e6f74206f776e6572206e6f726044820152691030b8383937bb32b21760b11b6064820152608401610ced565b6111b7838383613993565b6001600160a01b03163b151590565b60006001600160e01b03198216636cdb3d1360e11b1480612b8e57506001600160e01b031982166303a24d0760e21b145b80610d1c5750610d1c82613b34565b606081612bc15750506040805180820190915260018152600360fc1b602082015290565b8160005b8115612beb5780612bd5816159a6565b9150612be49050600a8361593e565b9150612bc5565b60008167ffffffffffffffff811115612c0657612c06614dd2565b6040519080825280601f01601f191660200182016040528015612c30576020820181803683370190505b5090505b841561153f57612c45600183615952565b9150612c52600a86615b27565b612c5d9060306158f1565b60f81b818381518110612c7257612c7261580b565b60200101906001600160f81b031916908160001a905350612c94600a8661593e565b9450612c34565b612cac81612ca7612caf565b613b59565b50565b6000611ae1613bd9565b8151835114612d1b5760405162461bcd60e51b815260206004820152602860248201527f455243313135353a2069647320616e6420616d6f756e7473206c656e677468206044820152670dad2e6dac2e8c6d60c31b6064820152608401610ced565b6001600160a01b038416612d7f5760405162461bcd60e51b815260206004820152602560248201527f455243313135353a207472616e7366657220746f20746865207a65726f206164604482015264647265737360d81b6064820152608401610ced565b6000612d89612caf565b9050612d99818787878787613c06565b60005b8451811015612ec7576000858281518110612db957612db961580b565b602002602001015190506000858381518110612dd757612dd761580b565b602090810291909101810151600084815261015f835260408082206001600160a01b038e168352909352919091205490915081811015612e6c5760405162461bcd60e51b815260206004820152602a60248201527f455243313135353a20696e73756666696369656e742062616c616e636520666f60448201526939103a3930b739b332b960b11b6064820152608401610ced565b600083815261015f602090815260408083206001600160a01b038e8116855292528083208585039055908b16825281208054849290612eac9084906158f1565b9250508190555050505080612ec0906159a6565b9050612d9c565b50846001600160a01b0316866001600160a01b0316826001600160a01b03167f4a39dc06d4c0dbc64b70af90fd698a233a518aa5d07e595d983b8c0526c8f7fb8787604051612f17929190615b3b565b60405180910390a4612f2d818787878787613e64565b505050505050565b612f3f828261400a565b600082815261012d602052604090206111b790826140ad565b612f6282826140c2565b600082815261012d602052604090206111b79082614163565b6001600160a01b038316612fdd5760405162461bcd60e51b815260206004820152602360248201527f455243313135353a206275726e2066726f6d20746865207a65726f206164647260448201526265737360e81b6064820152608401610ced565b805182511461303f5760405162461bcd60e51b815260206004820152602860248201527f455243313135353a2069647320616e6420616d6f756e7473206c656e677468206044820152670dad2e6dac2e8c6d60c31b6064820152608401610ced565b6000613049612caf565b905061306981856000868660405180602001604052806000815250613c06565b60005b835181101561316f5760008482815181106130895761308961580b565b6020026020010151905060008483815181106130a7576130a761580b565b602090810291909101810151600084815261015f835260408082206001600160a01b038c1683529093529190912054909150818110156131355760405162461bcd60e51b8152602060048201526024808201527f455243313135353a206275726e20616d6f756e7420657863656564732062616c604482015263616e636560e01b6064820152608401610ced565b600092835261015f602090815260408085206001600160a01b038b1686529091529092209103905580613167816159a6565b91505061306c565b5060006001600160a01b0316846001600160a01b0316826001600160a01b03167f4a39dc06d4c0dbc64b70af90fd698a233a518aa5d07e595d983b8c0526c8f7fb86866040516131c0929190615b3b565b60405180910390a4604080516020810190915260009052611b1e565b6000808281805b875181101561329e576131f7600283615909565b9150600088828151811061320d5761320d61580b565b6020026020010151905080841161324f57604080516020810186905290810182905260600160405160208183030381529060405280519060200120935061328b565b604080516020810183905290810185905260600160405160208183030381529060405280519060200120935060018361328891906158f1565b92505b5080613296816159a6565b9150506131e3565b50941495939450505050565b6000611aff8383614178565b816001600160a01b0316836001600160a01b0316141561332a5760405162461bcd60e51b815260206004820152602960248201527f455243313135353a2073657474696e6720617070726f76616c20737461747573604482015268103337b91039b2b63360b91b6064820152608401610ced565b6001600160a01b0383811660008181526101606020908152604080832094871680845294825291829020805460ff191686151590811790915591519182527f17307eab39ab6107e8899845ad3d59bd9653f200f220920489ca2b5937696c31910160405180910390a3505050565b60606001600160a01b0383163b6134005760405162461bcd60e51b815260206004820152602660248201527f416464726573733a2064656c65676174652063616c6c20746f206e6f6e2d636f6044820152651b9d1c9858dd60d21b6064820152608401610ced565b600080846001600160a01b03168460405161341b9190615b60565b600060405180830381855af49150503d8060008114613456576040519150601f19603f3d011682016040523d82523d6000602084013e61345b565b606091505b50915091506134838282604051806060016040528060278152602001615dd4602791396141a2565b95945050505050565b8161349657611b1e565b60006134a28386615909565b61019654909150600090612710906134c590600160a01b900461ffff1684615909565b6134cf919061593e565b90506001600160a01b03851673eeeeeeeeeeeeeeeeeeeeeeeeeeeeeeeeeeeeeeee1415613545578134146135455760405162461bcd60e51b815260206004820152601660248201527f6d7573742073656e6420746f74616c2070726963652e000000000000000000006044820152606401610ced565b600083815261019e60205260408120546001600160a01b03161561358157600084815261019e60205260409020546001600160a01b031661358f565b610195546001600160a01b03165b90506135b08661359d612caf565b610196546001600160a01b0316856141db565b6135cc866135bc612caf565b836135c78688615952565b6141db565b50505050505050565b600082815261019d60209081526040808320868452600290810190925282200180548392906136059084906158f1565b9091555050600082815261019d6020908152604080832086845260030190915281204291613631612caf565b6001600160a01b03166001600160a01b0316815260200190815260200160002081905550806101a060008481526020019081526020016000206000613674612caf565b6001600160a01b03166001600160a01b0316815260200190815260200160002060008282546136a391906158f1565b92505081905550611b1e84838360405180602001604052806000815250614225565b6000610d1c825490565b600054610100900460ff166136f65760405162461bcd60e51b8152600401610ced90615b7c565b6136fe61434d565b565b600054610100900460ff166137275760405162461bcd60e51b8152600401610ced90615b7c565b60005b81518110156112545760016065600084848151811061374b5761374b61580b565b6020908102919091018101516001600160a01b03168252810191909152604001600020805460ff191691151591909117905580613787816159a6565b91505061372a565b600054610100900460ff166137b65760405162461bcd60e51b8152600401610ced90615b7c565b612cac8161437a565b6112548282612f35565b6001600160a01b03841661382d5760405162461bcd60e51b815260206004820152602560248201527f455243313135353a207472616e7366657220746f20746865207a65726f206164604482015264647265737360d81b6064820152608401610ced565b6000613837612caf565b905060006138448561438e565b905060006138518561438e565b9050613861838989858589613c06565b600086815261015f602090815260408083206001600160a01b038c168452909152902054858110156138e85760405162461bcd60e51b815260206004820152602a60248201527f455243313135353a20696e73756666696369656e742062616c616e636520666f60448201526939103a3930b739b332b960b11b6064820152608401610ced565b600087815261015f602090815260408083206001600160a01b038d8116855292528083208985039055908a168252812080548892906139289084906158f1565b909155505060408051888152602081018890526001600160a01b03808b16928c821692918816917fc3d58168c5ae7397731d063d5bbf3d657854427343f4c083240f7aacaa2d0f62910160405180910390a4613988848a8a8a8a8a6143d9565b505050505050505050565b6001600160a01b0383166139f55760405162461bcd60e51b815260206004820152602360248201527f455243313135353a206275726e2066726f6d20746865207a65726f206164647260448201526265737360e81b6064820152608401610ced565b60006139ff612caf565b90506000613a0c8461438e565b90506000613a198461438e565b9050613a3983876000858560405180602001604052806000815250613c06565b600085815261015f602090815260408083206001600160a01b038a16845290915290205484811015613ab95760405162461bcd60e51b8152602060048201526024808201527f455243313135353a206275726e20616d6f756e7420657863656564732062616c604482015263616e636560e01b6064820152608401610ced565b600086815261015f602090815260408083206001600160a01b038b81168086529184528285208a8703905582518b81529384018a90529092908816917fc3d58168c5ae7397731d063d5bbf3d657854427343f4c083240f7aacaa2d0f62910160405180910390a46040805160208101909152600090526135cc565b60006001600160e01b03198216635a05180f60e01b1480610d1c5750610d1c826144d5565b600082815260fb602090815260408083206001600160a01b038516845290915290205460ff1661125457613b97816001600160a01b0316601461450a565b613ba283602061450a565b604051602001613bb3929190615bc7565b60408051601f198184030181529082905262461bcd60e51b8252610ced91600401614d37565b3360009081526065602052604081205460ff1615613bfe575060131936013560601c90565b503390565b90565b600080527fde23fa6c6392e300b5ced791de0faa0b28226983a4ab1c05a1ba79ef4d0a13126020527f70e64e82d0337f3fa9071fdb3266f859725ed1fc29697b2e6e986b76cffbfb085460ff16158015613c6857506001600160a01b03851615155b8015613c7c57506001600160a01b03841615155b15613d56576001600160a01b03851660009081527fde23fa6c6392e300b5ced791de0faa0b28226983a4ab1c05a1ba79ef4d0a1312602052604090205460ff1680613cfe57506001600160a01b03841660009081527fde23fa6c6392e300b5ced791de0faa0b28226983a4ab1c05a1ba79ef4d0a1312602052604090205460ff165b613d565760405162461bcd60e51b8152602060048201526024808201527f7265737472696374656420746f205452414e534645525f524f4c4520686f6c6460448201526332b9399760e11b6064820152608401610ced565b6001600160a01b038516613dde5760005b8351811015613ddc57828181518110613d8257613d8261580b565b602002602001015161019b6000868481518110613da157613da161580b565b602002602001015181526020019081526020016000206000828254613dc691906158f1565b90915550613dd59050816159a6565b9050613d67565b505b6001600160a01b038416612f2d5760005b83518110156135cc57828181518110613e0a57613e0a61580b565b602002602001015161019b6000868481518110613e2957613e2961580b565b602002602001015181526020019081526020016000206000828254613e4e9190615952565b90915550613e5d9050816159a6565b9050613def565b6001600160a01b0384163b15612f2d5760405163bc197c8160e01b81526001600160a01b0385169063bc197c8190613ea89089908990889088908890600401615c48565b6020604051808303816000875af1925050508015613ee3575060408051601f3d908101601f19168201909252613ee091810190615ca6565b60015b613f9957613eef615cc3565b806308c379a01415613f295750613f04615cde565b80613f0f5750613f2b565b8060405162461bcd60e51b8152600401610ced9190614d37565b505b60405162461bcd60e51b815260206004820152603460248201527f455243313135353a207472616e7366657220746f206e6f6e204552433131353560448201527f526563656976657220696d706c656d656e7465720000000000000000000000006064820152608401610ced565b6001600160e01b0319811663bc197c8160e01b146135cc5760405162461bcd60e51b815260206004820152602860248201527f455243313135353a204552433131353552656365697665722072656a656374656044820152676420746f6b656e7360c01b6064820152608401610ced565b600082815260fb602090815260408083206001600160a01b038516845290915290205460ff1661125457600082815260fb602090815260408083206001600160a01b03851684529091529020805460ff19166001179055614069612caf565b6001600160a01b0316816001600160a01b0316837f2f8788117e7eff1d82e926ec794901d17c78024a50270940304540a733656f0d60405160405180910390a45050565b6000611aff836001600160a01b0384166146b3565b600082815260fb602090815260408083206001600160a01b038516845290915290205460ff161561125457600082815260fb602090815260408083206001600160a01b03851684529091529020805460ff1916905561411f612caf565b6001600160a01b0316816001600160a01b0316837ff6391f5c32d9c69d2a47ea670b442974b53935d1edc7fd64eb21e047a839171b60405160405180910390a45050565b6000611aff836001600160a01b038416614702565b600082600001828154811061418f5761418f61580b565b9060005260206000200154905092915050565b606083156141b1575081611aff565b8251156141c15782518084602001fd5b8160405162461bcd60e51b8152600401610ced9190614d37565b806141e557611b1e565b6001600160a01b03841673eeeeeeeeeeeeeeeeeeeeeeeeeeeeeeeeeeeeeeee14156142195761421482826147f5565b611b1e565b611b1e84848484614898565b6001600160a01b0384166142855760405162461bcd60e51b815260206004820152602160248201527f455243313135353a206d696e7420746f20746865207a65726f206164647265736044820152607360f81b6064820152608401610ced565b600061428f612caf565b9050600061429c8561438e565b905060006142a98561438e565b90506142ba83600089858589613c06565b600086815261015f602090815260408083206001600160a01b038b168452909152812080548792906142ed9084906158f1565b909155505060408051878152602081018790526001600160a01b03808a1692600092918716917fc3d58168c5ae7397731d063d5bbf3d657854427343f4c083240f7aacaa2d0f62910160405180910390a46135cc836000898989896143d9565b600054610100900460ff166143745760405162461bcd60e51b8152600401610ced90615b7c565b60018055565b805161125490610161906020840190614bd2565b604080516001808252818301909252606091600091906020808301908036833701905050905082816000815181106143c8576143c861580b565b602090810291909101015292915050565b6001600160a01b0384163b15612f2d5760405163f23a6e6160e01b81526001600160a01b0385169063f23a6e619061441d9089908990889088908890600401615d68565b6020604051808303816000875af1925050508015614458575060408051601f3d908101601f1916820190925261445591810190615ca6565b60015b61446457613eef615cc3565b6001600160e01b0319811663f23a6e6160e01b146135cc5760405162461bcd60e51b815260206004820152602860248201527f455243313135353a204552433131353552656365697665722072656a656374656044820152676420746f6b656e7360c01b6064820152608401610ced565b60006001600160e01b03198216637965db0b60e01b1480610d1c57506301ffc9a760e01b6001600160e01b0319831614610d1c565b60606000614519836002615909565b6145249060026158f1565b67ffffffffffffffff81111561453c5761453c614dd2565b6040519080825280601f01601f191660200182016040528015614566576020820181803683370190505b509050600360fc1b816000815181106145815761458161580b565b60200101906001600160f81b031916908160001a905350600f60fb1b816001815181106145b0576145b061580b565b60200101906001600160f81b031916908160001a90535060006145d4846002615909565b6145df9060016158f1565b90505b6001811115614664577f303132333435363738396162636465660000000000000000000000000000000085600f16601081106146205761462061580b565b1a60f81b8282815181106146365761463661580b565b60200101906001600160f81b031916908160001a90535060049490941c9361465d816159c1565b90506145e2565b508315611aff5760405162461bcd60e51b815260206004820181905260248201527f537472696e67733a20686578206c656e67746820696e73756666696369656e746044820152606401610ced565b60008181526001830160205260408120546146fa57508154600181810184556000848152602080822090930184905584548482528286019093526040902091909155610d1c565b506000610d1c565b600081815260018301602052604081205480156147eb576000614726600183615952565b855490915060009061473a90600190615952565b905081811461479f57600086600001828154811061475a5761475a61580b565b906000526020600020015490508087600001848154811061477d5761477d61580b565b6000918252602080832090910192909255918252600188019052604090208390555b85548690806147b0576147b0615da0565b600190038181906000526020600020016000905590558560010160008681526020019081526020016000206000905560019350505050610d1c565b6000915050610d1c565b6000826001600160a01b03168260405160006040518083038185875af1925050503d8060008114614842576040519150601f19603f3d011682016040523d82523d6000602084013e614847565b606091505b50509050806111b75760405162461bcd60e51b815260206004820152601c60248201527f6e617469766520746f6b656e207472616e73666572206661696c6564000000006044820152606401610ced565b816001600160a01b0316836001600160a01b031614156148b757611b1e565b6001600160a01b0383163014156148dc576142146001600160a01b03851683836148f1565b611b1e6001600160a01b038516848484614969565b6040516001600160a01b0383166024820152604481018290526111b790849063a9059cbb60e01b906064015b60408051601f198184030181529190526020810180517bffffffffffffffffffffffffffffffffffffffffffffffffffffffff166001600160e01b0319909316929092179091526149a1565b6040516001600160a01b0380851660248301528316604482015260648101829052611b1e9085906323b872dd60e01b9060840161491d565b60006149f6826040518060400160405280602081526020017f5361666545524332303a206c6f772d6c6576656c2063616c6c206661696c6564815250856001600160a01b0316614a739092919063ffffffff16565b8051909150156111b75780806020019051810190614a149190615db6565b6111b75760405162461bcd60e51b815260206004820152602a60248201527f5361666545524332303a204552433230206f7065726174696f6e20646964206e6044820152691bdd081cdd58d8d9595960b21b6064820152608401610ced565b606061153f8484600085856001600160a01b0385163b614ad55760405162461bcd60e51b815260206004820152601d60248201527f416464726573733a2063616c6c20746f206e6f6e2d636f6e74726163740000006044820152606401610ced565b600080866001600160a01b03168587604051614af19190615b60565b60006040518083038185875af1925050503d8060008114614b2e576040519150601f19603f3d011682016040523d82523d6000602084013e614b33565b606091505b5091509150614b438282866141a2565b979650505050505050565b828054614b5a906157d0565b90600052602060002090601f016020900481019282614b7c5760008555614bc2565b82601f10614b955782800160ff19823516178555614bc2565b82800160010185558215614bc2579182015b82811115614bc2578235825591602001919060010190614ba7565b50614bce929150614c46565b5090565b828054614bde906157d0565b90600052602060002090601f016020900481019282614c005760008555614bc2565b82601f10614c1957805160ff1916838001178555614bc2565b82800160010185558215614bc2579182015b82811115614bc2578251825591602001919060010190614c2b565b5b80821115614bce5760008155600101614c47565b6001600160a01b0381168114612cac57600080fd5b8035614c7b81614c5b565b919050565b60008060408385031215614c9357600080fd5b8235614c9e81614c5b565b946020939093013593505050565b6001600160e01b031981168114612cac57600080fd5b600060208284031215614cd457600080fd5b8135611aff81614cac565b60005b83811015614cfa578181015183820152602001614ce2565b83811115611b1e5750506000910152565b60008151808452614d23816020860160208601614cdf565b601f01601f19169290920160200192915050565b602081526000611aff6020830184614d0b565b600060208284031215614d5c57600080fd5b5035919050565b600060208284031215614d7557600080fd5b8135611aff81614c5b565b60008060408385031215614d9357600080fd5b823591506020830135614da581614c5b565b809150509250929050565b60008060408385031215614dc357600080fd5b50508035926020909101359150565b634e487b7160e01b600052604160045260246000fd5b601f8201601f1916810167ffffffffffffffff81118282101715614e0e57614e0e614dd2565b6040525050565b600067ffffffffffffffff821115614e2f57614e2f614dd2565b5060051b60200190565b600082601f830112614e4a57600080fd5b81356020614e5782614e15565b604051614e648282614de8565b83815260059390931b8501820192828101915086841115614e8457600080fd5b8286015b84811015614e9f5780358352918301918301614e88565b509695505050505050565b600082601f830112614ebb57600080fd5b813567ffffffffffffffff811115614ed557614ed5614dd2565b604051614eec601f8301601f191660200182614de8565b818152846020838601011115614f0157600080fd5b816020850160208301376000918101602001919091529392505050565b600080600080600060a08688031215614f3657600080fd5b8535614f4181614c5b565b94506020860135614f5181614c5b565b9350604086013567ffffffffffffffff80821115614f6e57600080fd5b614f7a89838a01614e39565b94506060880135915080821115614f9057600080fd5b614f9c89838a01614e39565b93506080880135915080821115614fb257600080fd5b50614fbf88828901614eaa565b9150509295509295909350565b60008083601f840112614fde57600080fd5b50813567ffffffffffffffff811115614ff657600080fd5b60208301915083602082850101111561500e57600080fd5b9250929050565b60008060006040848603121561502a57600080fd5b83359250602084013567ffffffffffffffff81111561504857600080fd5b61505486828701614fcc565b9497909650939450505050565b600082601f83011261507257600080fd5b8135602061507f82614e15565b60405161508c8282614de8565b83815260059390931b85018201928281019150868411156150ac57600080fd5b8286015b84811015614e9f5780356150c381614c5b565b83529183019183016150b0565b600080604083850312156150e357600080fd5b823567ffffffffffffffff808211156150fb57600080fd5b61510786838701615061565b9350602085013591508082111561511d57600080fd5b5061512a85828601614e39565b9150509250929050565b600081518084526020808501945080840160005b8381101561516457815187529582019590820190600101615148565b509495945050505050565b602081526000611aff6020830184615134565b60008060006060848603121561519757600080fd5b833592506020840135915060408401356151b081614c5b565b809150509250925092565b6000806000606084860312156151d057600080fd5b83356151db81614c5b565b9250602084013567ffffffffffffffff808211156151f857600080fd5b61520487838801614e39565b9350604086013591508082111561521a57600080fd5b5061522786828701614e39565b9150509250925092565b60008083601f84011261524357600080fd5b50813567ffffffffffffffff81111561525b57600080fd5b6020830191508360208260051b850101111561500e57600080fd5b600080600080600080600060c0888a03121561529157600080fd5b8735965060208801356152a381614c5b565b95506040880135945060608801359350608088013567ffffffffffffffff8111156152cd57600080fd5b6152d98a828b01615231565b989b979a5095989497959660a090950135949350505050565b6000806020838503121561530557600080fd5b823567ffffffffffffffff81111561531c57600080fd5b61532885828601614fcc565b90969095509350505050565b60008060006060848603121561534957600080fd5b83359250602084013561535b81614c5b565b929592945050506040919091013590565b8015158114612cac57600080fd5b600080600080600080600060e0888a03121561539557600080fd5b8735965060208801356153a781614c5b565b9550604088013594506060880135935060808801356153c581614c5b565b925060a0880135915060c08801356153dc8161536c565b8091505092959891949750929550565b600080604083850312156153ff57600080fd5b823561540a81614c5b565b91506020830135614da58161536c565b6000806000806060858703121561543057600080fd5b84359350602085013567ffffffffffffffff8082111561544f57600080fd5b818701915087601f83011261546357600080fd5b81358181111561547257600080fd5b8860208260081b850101111561548757600080fd5b60208301955080945050505060408501356154a18161536c565b939692955090935050565b600080602083850312156154bf57600080fd5b823567ffffffffffffffff8111156154d657600080fd5b61532885828601615231565b6000602080830181845280855180835260408601915060408160051b870101925083870160005b8281101561553757603f19888603018452615525858351614d0b565b94509285019290850190600101615509565b5092979650505050505050565b60008060008060008060008060e0898b03121561556057600080fd5b883561556b81614c5b565b97506020890135965060408901359550606089013561558981614c5b565b94506080890135935060a089013567ffffffffffffffff8111156155ac57600080fd5b6155b88b828c01615231565b999c989b50969995989497949560c00135949350505050565b80356fffffffffffffffffffffffffffffffff81168114614c7b57600080fd5b6000806000806000806000806000806101408b8d03121561561157600080fd5b61561a8b614c70565b995060208b013567ffffffffffffffff8082111561563757600080fd5b6156438e838f01614eaa565b9a5060408d013591508082111561565957600080fd5b6156658e838f01614eaa565b995060608d013591508082111561567b57600080fd5b6156878e838f01614eaa565b985060808d013591508082111561569d57600080fd5b506156aa8d828e01615061565b9650506156b960a08c01614c70565b94506156c760c08c01614c70565b93506156d560e08c016155d1565b92506156e46101008c016155d1565b91506156f36101208c01614c70565b90509295989b9194979a5092959850565b6000806040838503121561571757600080fd5b823561572281614c5b565b91506020830135614da581614c5b565b600080600080600060a0868803121561574a57600080fd5b853561575581614c5b565b9450602086013561576581614c5b565b93506040860135925060608601359150608086013567ffffffffffffffff81111561578f57600080fd5b614fbf88828901614eaa565b6000806000606084860312156157b057600080fd5b83356157bb81614c5b565b95602085013595506040909401359392505050565b600181811c908216806157e457607f821691505b6020821081141561580557634e487b7160e01b600052602260045260246000fd5b50919050565b634e487b7160e01b600052603260045260246000fd5b60008151615833818560208601614cdf565b9290920192915050565b600080845481600182811c91508083168061585957607f831692505b602080841082141561587957634e487b7160e01b86526022600452602486fd5b81801561588d576001811461589e576158cb565b60ff198616895284890196506158cb565b60008b81526020902060005b868110156158c35781548b8201529085019083016158aa565b505084890196505b5050505050506134838185615821565b634e487b7160e01b600052601160045260246000fd5b60008219821115615904576159046158db565b500190565b6000816000190483118215151615615923576159236158db565b500290565b634e487b7160e01b600052601260045260246000fd5b60008261594d5761594d615928565b500490565b600082821015615964576159646158db565b500390565b84815283602082015260606040820152816060820152818360808301376000818301608090810191909152601f909201601f191601019392505050565b60006000198214156159ba576159ba6158db565b5060010190565b6000816159d0576159d06158db565b506000190190565b813581556020820135600182015560408201356002820155606082013560038201556080820135600482015560a0820135600582015560c082013560068201556007810160e0830135615a2a81614c5b565b81546001600160a01b0319166001600160a01b03919091161790555050565b6020808252818101839052600090604080840186845b87811015615ad3578135835284820135858401528382013584840152606080830135908401526080808301359084015260a0808301359084015260c0808301359084015260e080830135615ab281614c5b565b6001600160a01b031690840152610100928301929190910190600101615a5f565b5090979650505050505050565b6000808335601e19843603018112615af757600080fd5b83018035915067ffffffffffffffff821115615b1257600080fd5b60200191503681900382131561500e57600080fd5b600082615b3657615b36615928565b500690565b604081526000615b4e6040830185615134565b82810360208401526134838185615134565b60008251615b72818460208701614cdf565b9190910192915050565b6020808252602b908201527f496e697469616c697a61626c653a20636f6e7472616374206973206e6f74206960408201526a6e697469616c697a696e6760a81b606082015260800190565b7f416363657373436f6e74726f6c3a206163636f756e7420000000000000000000815260008351615bff816017850160208801614cdf565b7f206973206d697373696e6720726f6c65200000000000000000000000000000006017918401918201528351615c3c816028840160208801614cdf565b01602801949350505050565b60006001600160a01b03808816835280871660208401525060a06040830152615c7460a0830186615134565b8281036060840152615c868186615134565b90508281036080840152615c9a8185614d0b565b98975050505050505050565b600060208284031215615cb857600080fd5b8151611aff81614cac565b600060033d1115613c035760046000803e5060005160e01c90565b600060443d1015615cec5790565b6040516003193d81016004833e81513d67ffffffffffffffff8160248401118184111715615d1c57505050505090565b8285019150815181811115615d345750505050505090565b843d8701016020828501011115615d4e5750505050505090565b615d5d60208286010187614de8565b509095945050505050565b60006001600160a01b03808816835280871660208401525084604083015283606083015260a06080830152614b4360a0830184614d0b565b634e487b7160e01b600052603160045260246000fd5b600060208284031215615dc857600080fd5b8151611aff8161536c56fe416464726573733a206c6f772d6c6576656c2064656c65676174652063616c6c206661696c6564a2646970667358221220140912548a5d4b94b9d4bafaa6f7971fdab2f55bb5ae7abda637f95daf4f444b64736f6c634300080c0033",
  "linkReferences": {},
  "deployedLinkReferences": {}
}