{
  "_format": "hh-sol-artifact-1",
  "contractName": "DropERC1155",
  "sourceName": "contracts/drop/DropERC1155.sol",
  "abi": [
    {
      "inputs": [],
      "stateMutability": "nonpayable",
      "type": "constructor"
    },
    {
      "anonymous": false,
      "inputs": [
        {
          "indexed": true,
          "internalType": "address",
          "name": "account",
          "type": "address"
        },
        {
          "indexed": true,
          "internalType": "address",
          "name": "operator",
          "type": "address"
        },
        {
          "indexed": false,
          "internalType": "bool",
          "name": "approved",
          "type": "bool"
        }
      ],
      "name": "ApprovalForAll",
      "type": "event"
    },
    {
      "anonymous": false,
      "inputs": [
        {
          "indexed": true,
          "internalType": "uint256",
          "name": "tokenId",
          "type": "uint256"
        },
        {
          "components": [
            {
              "internalType": "uint256",
              "name": "startTimestamp",
              "type": "uint256"
            },
            {
              "internalType": "uint256",
              "name": "maxClaimableSupply",
              "type": "uint256"
            },
            {
              "internalType": "uint256",
              "name": "supplyClaimed",
              "type": "uint256"
            },
            {
              "internalType": "uint256",
              "name": "quantityLimitPerWallet",
              "type": "uint256"
            },
            {
              "internalType": "bytes32",
              "name": "merkleRoot",
              "type": "bytes32"
            },
            {
              "internalType": "uint256",
              "name": "pricePerToken",
              "type": "uint256"
            },
            {
              "internalType": "address",
              "name": "currency",
              "type": "address"
            },
            {
              "internalType": "string",
              "name": "metadata",
              "type": "string"
            }
          ],
          "indexed": false,
          "internalType": "struct IClaimCondition.ClaimCondition[]",
          "name": "claimConditions",
          "type": "tuple[]"
        },
        {
          "indexed": false,
          "internalType": "bool",
          "name": "resetEligibility",
          "type": "bool"
        }
      ],
      "name": "ClaimConditionsUpdated",
      "type": "event"
    },
    {
      "anonymous": false,
      "inputs": [
        {
          "indexed": false,
          "internalType": "string",
          "name": "prevURI",
          "type": "string"
        },
        {
          "indexed": false,
          "internalType": "string",
          "name": "newURI",
          "type": "string"
        }
      ],
      "name": "ContractURIUpdated",
      "type": "event"
    },
    {
      "anonymous": false,
      "inputs": [
        {
          "indexed": true,
          "internalType": "address",
          "name": "newRoyaltyRecipient",
          "type": "address"
        },
        {
          "indexed": false,
          "internalType": "uint256",
          "name": "newRoyaltyBps",
          "type": "uint256"
        }
      ],
      "name": "DefaultRoyalty",
      "type": "event"
    },
    {
      "anonymous": false,
      "inputs": [
        {
          "indexed": false,
          "internalType": "uint8",
          "name": "version",
          "type": "uint8"
        }
      ],
      "name": "Initialized",
      "type": "event"
    },
    {
      "anonymous": false,
      "inputs": [
        {
          "indexed": false,
          "internalType": "uint256",
          "name": "tokenId",
          "type": "uint256"
        },
        {
          "indexed": false,
          "internalType": "uint256",
          "name": "maxTotalSupply",
          "type": "uint256"
        }
      ],
      "name": "MaxTotalSupplyUpdated",
      "type": "event"
    },
    {
      "anonymous": false,
      "inputs": [
        {
          "indexed": true,
          "internalType": "address",
          "name": "prevOwner",
          "type": "address"
        },
        {
          "indexed": true,
          "internalType": "address",
          "name": "newOwner",
          "type": "address"
        }
      ],
      "name": "OwnerUpdated",
      "type": "event"
    },
    {
      "anonymous": false,
      "inputs": [
        {
          "indexed": true,
          "internalType": "address",
          "name": "platformFeeRecipient",
          "type": "address"
        },
        {
          "indexed": false,
          "internalType": "uint256",
          "name": "platformFeeBps",
          "type": "uint256"
        }
      ],
      "name": "PlatformFeeInfoUpdated",
      "type": "event"
    },
    {
      "anonymous": false,
      "inputs": [
        {
          "indexed": true,
          "internalType": "address",
          "name": "recipient",
          "type": "address"
        }
      ],
      "name": "PrimarySaleRecipientUpdated",
      "type": "event"
    },
    {
      "anonymous": false,
      "inputs": [
        {
          "indexed": true,
          "internalType": "bytes32",
          "name": "role",
          "type": "bytes32"
        },
        {
          "indexed": true,
          "internalType": "bytes32",
          "name": "previousAdminRole",
          "type": "bytes32"
        },
        {
          "indexed": true,
          "internalType": "bytes32",
          "name": "newAdminRole",
          "type": "bytes32"
        }
      ],
      "name": "RoleAdminChanged",
      "type": "event"
    },
    {
      "anonymous": false,
      "inputs": [
        {
          "indexed": true,
          "internalType": "bytes32",
          "name": "role",
          "type": "bytes32"
        },
        {
          "indexed": true,
          "internalType": "address",
          "name": "account",
          "type": "address"
        },
        {
          "indexed": true,
          "internalType": "address",
          "name": "sender",
          "type": "address"
        }
      ],
      "name": "RoleGranted",
      "type": "event"
    },
    {
      "anonymous": false,
      "inputs": [
        {
          "indexed": true,
          "internalType": "bytes32",
          "name": "role",
          "type": "bytes32"
        },
        {
          "indexed": true,
          "internalType": "address",
          "name": "account",
          "type": "address"
        },
        {
          "indexed": true,
          "internalType": "address",
          "name": "sender",
          "type": "address"
        }
      ],
      "name": "RoleRevoked",
      "type": "event"
    },
    {
      "anonymous": false,
      "inputs": [
        {
          "indexed": true,
          "internalType": "uint256",
          "name": "tokenId",
          "type": "uint256"
        },
        {
          "indexed": true,
          "internalType": "address",
          "name": "royaltyRecipient",
          "type": "address"
        },
        {
          "indexed": false,
          "internalType": "uint256",
          "name": "royaltyBps",
          "type": "uint256"
        }
      ],
      "name": "RoyaltyForToken",
      "type": "event"
    },
    {
      "anonymous": false,
      "inputs": [
        {
          "indexed": true,
          "internalType": "uint256",
          "name": "tokenId",
          "type": "uint256"
        },
        {
          "indexed": false,
          "internalType": "address",
          "name": "saleRecipient",
          "type": "address"
        }
      ],
      "name": "SaleRecipientForTokenUpdated",
      "type": "event"
    },
    {
      "anonymous": false,
      "inputs": [
        {
          "indexed": true,
          "internalType": "uint256",
          "name": "index",
          "type": "uint256"
        },
        {
          "indexed": false,
          "internalType": "string",
          "name": "revealedURI",
          "type": "string"
        }
      ],
      "name": "TokenURIRevealed",
      "type": "event"
    },
    {
      "anonymous": false,
      "inputs": [
        {
          "indexed": true,
          "internalType": "uint256",
          "name": "claimConditionIndex",
          "type": "uint256"
        },
        {
          "indexed": true,
          "internalType": "address",
          "name": "claimer",
          "type": "address"
        },
        {
          "indexed": true,
          "internalType": "address",
          "name": "receiver",
          "type": "address"
        },
        {
          "indexed": false,
          "internalType": "uint256",
          "name": "tokenId",
          "type": "uint256"
        },
        {
          "indexed": false,
          "internalType": "uint256",
          "name": "quantityClaimed",
          "type": "uint256"
        }
      ],
      "name": "TokensClaimed",
      "type": "event"
    },
    {
      "anonymous": false,
      "inputs": [
        {
          "indexed": true,
          "internalType": "uint256",
          "name": "startTokenId",
          "type": "uint256"
        },
        {
          "indexed": false,
          "internalType": "uint256",
          "name": "endTokenId",
          "type": "uint256"
        },
        {
          "indexed": false,
          "internalType": "string",
          "name": "baseURI",
          "type": "string"
        },
        {
          "indexed": false,
          "internalType": "bytes",
          "name": "encryptedBaseURI",
          "type": "bytes"
        }
      ],
      "name": "TokensLazyMinted",
      "type": "event"
    },
    {
      "anonymous": false,
      "inputs": [
        {
          "indexed": true,
          "internalType": "address",
          "name": "operator",
          "type": "address"
        },
        {
          "indexed": true,
          "internalType": "address",
          "name": "from",
          "type": "address"
        },
        {
          "indexed": true,
          "internalType": "address",
          "name": "to",
          "type": "address"
        },
        {
          "indexed": false,
          "internalType": "uint256[]",
          "name": "ids",
          "type": "uint256[]"
        },
        {
          "indexed": false,
          "internalType": "uint256[]",
          "name": "values",
          "type": "uint256[]"
        }
      ],
      "name": "TransferBatch",
      "type": "event"
    },
    {
      "anonymous": false,
      "inputs": [
        {
          "indexed": true,
          "internalType": "address",
          "name": "operator",
          "type": "address"
        },
        {
          "indexed": true,
          "internalType": "address",
          "name": "from",
          "type": "address"
        },
        {
          "indexed": true,
          "internalType": "address",
          "name": "to",
          "type": "address"
        },
        {
          "indexed": false,
          "internalType": "uint256",
          "name": "id",
          "type": "uint256"
        },
        {
          "indexed": false,
          "internalType": "uint256",
          "name": "value",
          "type": "uint256"
        }
      ],
      "name": "TransferSingle",
      "type": "event"
    },
    {
      "anonymous": false,
      "inputs": [
        {
          "indexed": false,
          "internalType": "string",
          "name": "value",
          "type": "string"
        },
        {
          "indexed": true,
          "internalType": "uint256",
          "name": "id",
          "type": "uint256"
        }
      ],
      "name": "URI",
      "type": "event"
    },
    {
      "inputs": [],
      "name": "DEFAULT_ADMIN_ROLE",
      "outputs": [
        {
          "internalType": "bytes32",
          "name": "",
          "type": "bytes32"
        }
      ],
      "stateMutability": "view",
      "type": "function"
    },
    {
      "inputs": [
        {
          "internalType": "address",
          "name": "account",
          "type": "address"
        },
        {
          "internalType": "uint256",
          "name": "id",
          "type": "uint256"
        }
      ],
      "name": "balanceOf",
      "outputs": [
        {
          "internalType": "uint256",
          "name": "",
          "type": "uint256"
        }
      ],
      "stateMutability": "view",
      "type": "function"
    },
    {
      "inputs": [
        {
          "internalType": "address[]",
          "name": "accounts",
          "type": "address[]"
        },
        {
          "internalType": "uint256[]",
          "name": "ids",
          "type": "uint256[]"
        }
      ],
      "name": "balanceOfBatch",
      "outputs": [
        {
          "internalType": "uint256[]",
          "name": "",
          "type": "uint256[]"
        }
      ],
      "stateMutability": "view",
      "type": "function"
    },
    {
      "inputs": [
        {
          "internalType": "address",
          "name": "account",
          "type": "address"
        },
        {
          "internalType": "uint256[]",
          "name": "ids",
          "type": "uint256[]"
        },
        {
          "internalType": "uint256[]",
          "name": "values",
          "type": "uint256[]"
        }
      ],
      "name": "burnBatch",
      "outputs": [],
      "stateMutability": "nonpayable",
      "type": "function"
    },
    {
      "inputs": [
        {
          "internalType": "address",
          "name": "_receiver",
          "type": "address"
        },
        {
          "internalType": "uint256",
          "name": "_tokenId",
          "type": "uint256"
        },
        {
          "internalType": "uint256",
          "name": "_quantity",
          "type": "uint256"
        },
        {
          "internalType": "address",
          "name": "_currency",
          "type": "address"
        },
        {
          "internalType": "uint256",
          "name": "_pricePerToken",
          "type": "uint256"
        },
        {
          "components": [
            {
              "internalType": "bytes32[]",
              "name": "proof",
              "type": "bytes32[]"
            },
            {
              "internalType": "uint256",
              "name": "quantityLimitPerWallet",
              "type": "uint256"
            },
            {
              "internalType": "uint256",
              "name": "pricePerToken",
              "type": "uint256"
            },
            {
              "internalType": "address",
              "name": "currency",
              "type": "address"
            }
          ],
          "internalType": "struct IDrop1155.AllowlistProof",
          "name": "_allowlistProof",
          "type": "tuple"
        },
        {
          "internalType": "bytes",
          "name": "_data",
          "type": "bytes"
        }
      ],
      "name": "claim",
      "outputs": [],
      "stateMutability": "payable",
      "type": "function"
    },
    {
      "inputs": [
        {
          "internalType": "uint256",
          "name": "",
          "type": "uint256"
        }
      ],
      "name": "claimCondition",
      "outputs": [
        {
          "internalType": "uint256",
          "name": "currentStartId",
          "type": "uint256"
        },
        {
          "internalType": "uint256",
          "name": "count",
          "type": "uint256"
        }
      ],
      "stateMutability": "view",
      "type": "function"
    },
    {
      "inputs": [],
      "name": "contractType",
      "outputs": [
        {
          "internalType": "bytes32",
          "name": "",
          "type": "bytes32"
        }
      ],
      "stateMutability": "pure",
      "type": "function"
    },
    {
      "inputs": [],
      "name": "contractURI",
      "outputs": [
        {
          "internalType": "string",
          "name": "",
          "type": "string"
        }
      ],
      "stateMutability": "view",
      "type": "function"
    },
    {
      "inputs": [],
      "name": "contractVersion",
      "outputs": [
        {
          "internalType": "uint8",
          "name": "",
          "type": "uint8"
        }
      ],
      "stateMutability": "pure",
      "type": "function"
    },
    {
      "inputs": [
        {
          "internalType": "bytes",
          "name": "data",
          "type": "bytes"
        },
        {
          "internalType": "bytes",
          "name": "key",
          "type": "bytes"
        }
      ],
      "name": "encryptDecrypt",
      "outputs": [
        {
          "internalType": "bytes",
          "name": "result",
          "type": "bytes"
        }
      ],
      "stateMutability": "pure",
      "type": "function"
    },
    {
      "inputs": [
        {
          "internalType": "uint256",
          "name": "",
          "type": "uint256"
        }
      ],
      "name": "encryptedData",
      "outputs": [
        {
          "internalType": "bytes",
          "name": "",
          "type": "bytes"
        }
      ],
      "stateMutability": "view",
      "type": "function"
    },
    {
      "inputs": [
        {
          "internalType": "uint256",
          "name": "_tokenId",
          "type": "uint256"
        }
      ],
      "name": "getActiveClaimConditionId",
      "outputs": [
        {
          "internalType": "uint256",
          "name": "",
          "type": "uint256"
        }
      ],
      "stateMutability": "view",
      "type": "function"
    },
    {
      "inputs": [],
      "name": "getBaseURICount",
      "outputs": [
        {
          "internalType": "uint256",
          "name": "",
          "type": "uint256"
        }
      ],
      "stateMutability": "view",
      "type": "function"
    },
    {
      "inputs": [
        {
          "internalType": "uint256",
          "name": "_index",
          "type": "uint256"
        }
      ],
      "name": "getBatchIdAtIndex",
      "outputs": [
        {
          "internalType": "uint256",
          "name": "",
          "type": "uint256"
        }
      ],
      "stateMutability": "view",
      "type": "function"
    },
    {
      "inputs": [
        {
          "internalType": "uint256",
          "name": "_tokenId",
          "type": "uint256"
        },
        {
          "internalType": "uint256",
          "name": "_conditionId",
          "type": "uint256"
        }
      ],
      "name": "getClaimConditionById",
      "outputs": [
        {
          "components": [
            {
              "internalType": "uint256",
              "name": "startTimestamp",
              "type": "uint256"
            },
            {
              "internalType": "uint256",
              "name": "maxClaimableSupply",
              "type": "uint256"
            },
            {
              "internalType": "uint256",
              "name": "supplyClaimed",
              "type": "uint256"
            },
            {
              "internalType": "uint256",
              "name": "quantityLimitPerWallet",
              "type": "uint256"
            },
            {
              "internalType": "bytes32",
              "name": "merkleRoot",
              "type": "bytes32"
            },
            {
              "internalType": "uint256",
              "name": "pricePerToken",
              "type": "uint256"
            },
            {
              "internalType": "address",
              "name": "currency",
              "type": "address"
            },
            {
              "internalType": "string",
              "name": "metadata",
              "type": "string"
            }
          ],
          "internalType": "struct IClaimCondition.ClaimCondition",
          "name": "condition",
          "type": "tuple"
        }
      ],
      "stateMutability": "view",
      "type": "function"
    },
    {
      "inputs": [],
      "name": "getDefaultRoyaltyInfo",
      "outputs": [
        {
          "internalType": "address",
          "name": "",
          "type": "address"
        },
        {
          "internalType": "uint16",
          "name": "",
          "type": "uint16"
        }
      ],
      "stateMutability": "view",
      "type": "function"
    },
    {
      "inputs": [],
      "name": "getPlatformFeeInfo",
      "outputs": [
        {
          "internalType": "address",
          "name": "",
          "type": "address"
        },
        {
          "internalType": "uint16",
          "name": "",
          "type": "uint16"
        }
      ],
      "stateMutability": "view",
      "type": "function"
    },
    {
      "inputs": [
        {
          "internalType": "uint256",
          "name": "_batchId",
          "type": "uint256"
        },
        {
          "internalType": "bytes",
          "name": "_key",
          "type": "bytes"
        }
      ],
      "name": "getRevealURI",
      "outputs": [
        {
          "internalType": "string",
          "name": "revealedURI",
          "type": "string"
        }
      ],
      "stateMutability": "view",
      "type": "function"
    },
    {
      "inputs": [
        {
          "internalType": "bytes32",
          "name": "role",
          "type": "bytes32"
        }
      ],
      "name": "getRoleAdmin",
      "outputs": [
        {
          "internalType": "bytes32",
          "name": "",
          "type": "bytes32"
        }
      ],
      "stateMutability": "view",
      "type": "function"
    },
    {
      "inputs": [
        {
          "internalType": "bytes32",
          "name": "role",
          "type": "bytes32"
        },
        {
          "internalType": "uint256",
          "name": "index",
          "type": "uint256"
        }
      ],
      "name": "getRoleMember",
      "outputs": [
        {
          "internalType": "address",
          "name": "member",
          "type": "address"
        }
      ],
      "stateMutability": "view",
      "type": "function"
    },
    {
      "inputs": [
        {
          "internalType": "bytes32",
          "name": "role",
          "type": "bytes32"
        }
      ],
      "name": "getRoleMemberCount",
      "outputs": [
        {
          "internalType": "uint256",
          "name": "count",
          "type": "uint256"
        }
      ],
      "stateMutability": "view",
      "type": "function"
    },
    {
      "inputs": [
        {
          "internalType": "uint256",
          "name": "_tokenId",
          "type": "uint256"
        }
      ],
      "name": "getRoyaltyInfoForToken",
      "outputs": [
        {
          "internalType": "address",
          "name": "",
          "type": "address"
        },
        {
          "internalType": "uint16",
          "name": "",
          "type": "uint16"
        }
      ],
      "stateMutability": "view",
      "type": "function"
    },
    {
      "inputs": [
        {
          "internalType": "uint256",
          "name": "_tokenId",
          "type": "uint256"
        },
        {
          "internalType": "uint256",
          "name": "_conditionId",
          "type": "uint256"
        },
        {
          "internalType": "address",
          "name": "_claimer",
          "type": "address"
        }
      ],
      "name": "getSupplyClaimedByWallet",
      "outputs": [
        {
          "internalType": "uint256",
          "name": "supplyClaimedByWallet",
          "type": "uint256"
        }
      ],
      "stateMutability": "view",
      "type": "function"
    },
    {
      "inputs": [
        {
          "internalType": "bytes32",
          "name": "role",
          "type": "bytes32"
        },
        {
          "internalType": "address",
          "name": "account",
          "type": "address"
        }
      ],
      "name": "grantRole",
      "outputs": [],
      "stateMutability": "nonpayable",
      "type": "function"
    },
    {
      "inputs": [
        {
          "internalType": "bytes32",
          "name": "role",
          "type": "bytes32"
        },
        {
          "internalType": "address",
          "name": "account",
          "type": "address"
        }
      ],
      "name": "hasRole",
      "outputs": [
        {
          "internalType": "bool",
          "name": "",
          "type": "bool"
        }
      ],
      "stateMutability": "view",
      "type": "function"
    },
    {
      "inputs": [
        {
          "internalType": "bytes32",
          "name": "role",
          "type": "bytes32"
        },
        {
          "internalType": "address",
          "name": "account",
          "type": "address"
        }
      ],
      "name": "hasRoleWithSwitch",
      "outputs": [
        {
          "internalType": "bool",
          "name": "",
          "type": "bool"
        }
      ],
      "stateMutability": "view",
      "type": "function"
    },
    {
      "inputs": [
        {
          "internalType": "address",
          "name": "_defaultAdmin",
          "type": "address"
        },
        {
          "internalType": "string",
          "name": "_name",
          "type": "string"
        },
        {
          "internalType": "string",
          "name": "_symbol",
          "type": "string"
        },
        {
          "internalType": "string",
          "name": "_contractURI",
          "type": "string"
        },
        {
          "internalType": "address[]",
          "name": "_trustedForwarders",
          "type": "address[]"
        },
        {
          "internalType": "address",
          "name": "_saleRecipient",
          "type": "address"
        },
        {
          "internalType": "address",
          "name": "_royaltyRecipient",
          "type": "address"
        },
        {
          "internalType": "uint128",
          "name": "_royaltyBps",
          "type": "uint128"
        },
        {
          "internalType": "uint128",
          "name": "_platformFeeBps",
          "type": "uint128"
        },
        {
          "internalType": "address",
          "name": "_platformFeeRecipient",
          "type": "address"
        }
      ],
      "name": "initialize",
      "outputs": [],
      "stateMutability": "nonpayable",
      "type": "function"
    },
    {
      "inputs": [
        {
          "internalType": "address",
          "name": "account",
          "type": "address"
        },
        {
          "internalType": "address",
          "name": "operator",
          "type": "address"
        }
      ],
      "name": "isApprovedForAll",
      "outputs": [
        {
          "internalType": "bool",
          "name": "",
          "type": "bool"
        }
      ],
      "stateMutability": "view",
      "type": "function"
    },
    {
      "inputs": [
        {
          "internalType": "uint256",
          "name": "_batchId",
          "type": "uint256"
        }
      ],
      "name": "isEncryptedBatch",
      "outputs": [
        {
          "internalType": "bool",
          "name": "",
          "type": "bool"
        }
      ],
      "stateMutability": "view",
      "type": "function"
    },
    {
      "inputs": [
        {
          "internalType": "address",
          "name": "forwarder",
          "type": "address"
        }
      ],
      "name": "isTrustedForwarder",
      "outputs": [
        {
          "internalType": "bool",
          "name": "",
          "type": "bool"
        }
      ],
      "stateMutability": "view",
      "type": "function"
    },
    {
      "inputs": [
        {
          "internalType": "uint256",
          "name": "_amount",
          "type": "uint256"
        },
        {
          "internalType": "string",
          "name": "_baseURIForTokens",
          "type": "string"
        },
        {
          "internalType": "bytes",
          "name": "_data",
          "type": "bytes"
        }
      ],
      "name": "lazyMint",
      "outputs": [
        {
          "internalType": "uint256",
          "name": "batchId",
          "type": "uint256"
        }
      ],
      "stateMutability": "nonpayable",
      "type": "function"
    },
    {
      "inputs": [
        {
          "internalType": "uint256",
          "name": "",
          "type": "uint256"
        }
      ],
      "name": "maxTotalSupply",
      "outputs": [
        {
          "internalType": "uint256",
          "name": "",
          "type": "uint256"
        }
      ],
      "stateMutability": "view",
      "type": "function"
    },
    {
      "inputs": [
        {
          "internalType": "bytes[]",
          "name": "data",
          "type": "bytes[]"
        }
      ],
      "name": "multicall",
      "outputs": [
        {
          "internalType": "bytes[]",
          "name": "results",
          "type": "bytes[]"
        }
      ],
      "stateMutability": "nonpayable",
      "type": "function"
    },
    {
      "inputs": [],
      "name": "name",
      "outputs": [
        {
          "internalType": "string",
          "name": "",
          "type": "string"
        }
      ],
      "stateMutability": "view",
      "type": "function"
    },
    {
      "inputs": [],
      "name": "nextTokenIdToMint",
      "outputs": [
        {
          "internalType": "uint256",
          "name": "",
          "type": "uint256"
        }
      ],
      "stateMutability": "view",
      "type": "function"
    },
    {
      "inputs": [],
      "name": "owner",
      "outputs": [
        {
          "internalType": "address",
          "name": "",
          "type": "address"
        }
      ],
      "stateMutability": "view",
      "type": "function"
    },
    {
      "inputs": [],
      "name": "primarySaleRecipient",
      "outputs": [
        {
          "internalType": "address",
          "name": "",
          "type": "address"
        }
      ],
      "stateMutability": "view",
      "type": "function"
    },
    {
      "inputs": [
        {
          "internalType": "bytes32",
          "name": "role",
          "type": "bytes32"
        },
        {
          "internalType": "address",
          "name": "account",
          "type": "address"
        }
      ],
      "name": "renounceRole",
      "outputs": [],
      "stateMutability": "nonpayable",
      "type": "function"
    },
    {
      "inputs": [
        {
          "internalType": "uint256",
          "name": "_index",
          "type": "uint256"
        },
        {
          "internalType": "bytes",
          "name": "_key",
          "type": "bytes"
        }
      ],
      "name": "reveal",
      "outputs": [
        {
          "internalType": "string",
          "name": "revealedURI",
          "type": "string"
        }
      ],
      "stateMutability": "nonpayable",
      "type": "function"
    },
    {
      "inputs": [
        {
          "internalType": "bytes32",
          "name": "role",
          "type": "bytes32"
        },
        {
          "internalType": "address",
          "name": "account",
          "type": "address"
        }
      ],
      "name": "revokeRole",
      "outputs": [],
      "stateMutability": "nonpayable",
      "type": "function"
    },
    {
      "inputs": [
        {
          "internalType": "uint256",
          "name": "tokenId",
          "type": "uint256"
        },
        {
          "internalType": "uint256",
          "name": "salePrice",
          "type": "uint256"
        }
      ],
      "name": "royaltyInfo",
      "outputs": [
        {
          "internalType": "address",
          "name": "receiver",
          "type": "address"
        },
        {
          "internalType": "uint256",
          "name": "royaltyAmount",
          "type": "uint256"
        }
      ],
      "stateMutability": "view",
      "type": "function"
    },
    {
      "inputs": [
        {
          "internalType": "address",
          "name": "from",
          "type": "address"
        },
        {
          "internalType": "address",
          "name": "to",
          "type": "address"
        },
        {
          "internalType": "uint256[]",
          "name": "ids",
          "type": "uint256[]"
        },
        {
          "internalType": "uint256[]",
          "name": "amounts",
          "type": "uint256[]"
        },
        {
          "internalType": "bytes",
          "name": "data",
          "type": "bytes"
        }
      ],
      "name": "safeBatchTransferFrom",
      "outputs": [],
      "stateMutability": "nonpayable",
      "type": "function"
    },
    {
      "inputs": [
        {
          "internalType": "address",
          "name": "from",
          "type": "address"
        },
        {
          "internalType": "address",
          "name": "to",
          "type": "address"
        },
        {
          "internalType": "uint256",
          "name": "id",
          "type": "uint256"
        },
        {
          "internalType": "uint256",
          "name": "amount",
          "type": "uint256"
        },
        {
          "internalType": "bytes",
          "name": "data",
          "type": "bytes"
        }
      ],
      "name": "safeTransferFrom",
      "outputs": [],
      "stateMutability": "nonpayable",
      "type": "function"
    },
    {
      "inputs": [
        {
          "internalType": "uint256",
          "name": "",
          "type": "uint256"
        }
      ],
      "name": "saleRecipient",
      "outputs": [
        {
          "internalType": "address",
          "name": "",
          "type": "address"
        }
      ],
      "stateMutability": "view",
      "type": "function"
    },
    {
      "inputs": [
        {
          "internalType": "address",
          "name": "operator",
          "type": "address"
        },
        {
          "internalType": "bool",
          "name": "approved",
          "type": "bool"
        }
      ],
      "name": "setApprovalForAll",
      "outputs": [],
      "stateMutability": "nonpayable",
      "type": "function"
    },
    {
      "inputs": [
        {
          "internalType": "uint256",
          "name": "_tokenId",
          "type": "uint256"
        },
        {
          "components": [
            {
              "internalType": "uint256",
              "name": "startTimestamp",
              "type": "uint256"
            },
            {
              "internalType": "uint256",
              "name": "maxClaimableSupply",
              "type": "uint256"
            },
            {
              "internalType": "uint256",
              "name": "supplyClaimed",
              "type": "uint256"
            },
            {
              "internalType": "uint256",
              "name": "quantityLimitPerWallet",
              "type": "uint256"
            },
            {
              "internalType": "bytes32",
              "name": "merkleRoot",
              "type": "bytes32"
            },
            {
              "internalType": "uint256",
              "name": "pricePerToken",
              "type": "uint256"
            },
            {
              "internalType": "address",
              "name": "currency",
              "type": "address"
            },
            {
              "internalType": "string",
              "name": "metadata",
              "type": "string"
            }
          ],
          "internalType": "struct IClaimCondition.ClaimCondition[]",
          "name": "_conditions",
          "type": "tuple[]"
        },
        {
          "internalType": "bool",
          "name": "_resetClaimEligibility",
          "type": "bool"
        }
      ],
      "name": "setClaimConditions",
      "outputs": [],
      "stateMutability": "nonpayable",
      "type": "function"
    },
    {
      "inputs": [
        {
          "internalType": "string",
          "name": "_uri",
          "type": "string"
        }
      ],
      "name": "setContractURI",
      "outputs": [],
      "stateMutability": "nonpayable",
      "type": "function"
    },
    {
      "inputs": [
        {
          "internalType": "address",
          "name": "_royaltyRecipient",
          "type": "address"
        },
        {
          "internalType": "uint256",
          "name": "_royaltyBps",
          "type": "uint256"
        }
      ],
      "name": "setDefaultRoyaltyInfo",
      "outputs": [],
      "stateMutability": "nonpayable",
      "type": "function"
    },
    {
      "inputs": [
        {
          "internalType": "uint256",
          "name": "_tokenId",
          "type": "uint256"
        },
        {
          "internalType": "uint256",
          "name": "_maxTotalSupply",
          "type": "uint256"
        }
      ],
      "name": "setMaxTotalSupply",
      "outputs": [],
      "stateMutability": "nonpayable",
      "type": "function"
    },
    {
      "inputs": [
        {
          "internalType": "address",
          "name": "_newOwner",
          "type": "address"
        }
      ],
      "name": "setOwner",
      "outputs": [],
      "stateMutability": "nonpayable",
      "type": "function"
    },
    {
      "inputs": [
        {
          "internalType": "address",
          "name": "_platformFeeRecipient",
          "type": "address"
        },
        {
          "internalType": "uint256",
          "name": "_platformFeeBps",
          "type": "uint256"
        }
      ],
      "name": "setPlatformFeeInfo",
      "outputs": [],
      "stateMutability": "nonpayable",
      "type": "function"
    },
    {
      "inputs": [
        {
          "internalType": "address",
          "name": "_saleRecipient",
          "type": "address"
        }
      ],
      "name": "setPrimarySaleRecipient",
      "outputs": [],
      "stateMutability": "nonpayable",
      "type": "function"
    },
    {
      "inputs": [
        {
          "internalType": "uint256",
          "name": "_tokenId",
          "type": "uint256"
        },
        {
          "internalType": "address",
          "name": "_recipient",
          "type": "address"
        },
        {
          "internalType": "uint256",
          "name": "_bps",
          "type": "uint256"
        }
      ],
      "name": "setRoyaltyInfoForToken",
      "outputs": [],
      "stateMutability": "nonpayable",
      "type": "function"
    },
    {
      "inputs": [
        {
          "internalType": "uint256",
          "name": "_tokenId",
          "type": "uint256"
        },
        {
          "internalType": "address",
          "name": "_saleRecipient",
          "type": "address"
        }
      ],
      "name": "setSaleRecipientForToken",
      "outputs": [],
      "stateMutability": "nonpayable",
      "type": "function"
    },
    {
      "inputs": [
        {
          "internalType": "bytes4",
          "name": "interfaceId",
          "type": "bytes4"
        }
      ],
      "name": "supportsInterface",
      "outputs": [
        {
          "internalType": "bool",
          "name": "",
          "type": "bool"
        }
      ],
      "stateMutability": "view",
      "type": "function"
    },
    {
      "inputs": [],
      "name": "symbol",
      "outputs": [
        {
          "internalType": "string",
          "name": "",
          "type": "string"
        }
      ],
      "stateMutability": "view",
      "type": "function"
    },
    {
      "inputs": [
        {
          "internalType": "uint256",
          "name": "",
          "type": "uint256"
        }
      ],
      "name": "totalSupply",
      "outputs": [
        {
          "internalType": "uint256",
          "name": "",
          "type": "uint256"
        }
      ],
      "stateMutability": "view",
      "type": "function"
    },
    {
      "inputs": [
        {
          "internalType": "uint256",
          "name": "_tokenId",
          "type": "uint256"
        }
      ],
      "name": "uri",
      "outputs": [
        {
          "internalType": "string",
          "name": "",
          "type": "string"
        }
      ],
      "stateMutability": "view",
      "type": "function"
    },
    {
      "inputs": [
        {
          "internalType": "uint256",
          "name": "_conditionId",
          "type": "uint256"
        },
        {
          "internalType": "address",
          "name": "_claimer",
          "type": "address"
        },
        {
          "internalType": "uint256",
          "name": "_tokenId",
          "type": "uint256"
        },
        {
          "internalType": "uint256",
          "name": "_quantity",
          "type": "uint256"
        },
        {
          "internalType": "address",
          "name": "_currency",
          "type": "address"
        },
        {
          "internalType": "uint256",
          "name": "_pricePerToken",
          "type": "uint256"
        },
        {
          "components": [
            {
              "internalType": "bytes32[]",
              "name": "proof",
              "type": "bytes32[]"
            },
            {
              "internalType": "uint256",
              "name": "quantityLimitPerWallet",
              "type": "uint256"
            },
            {
              "internalType": "uint256",
              "name": "pricePerToken",
              "type": "uint256"
            },
            {
              "internalType": "address",
              "name": "currency",
              "type": "address"
            }
          ],
          "internalType": "struct IDrop1155.AllowlistProof",
          "name": "_allowlistProof",
          "type": "tuple"
        }
      ],
      "name": "verifyClaim",
      "outputs": [],
      "stateMutability": "view",
      "type": "function"
    }
  ],
  "bytecode": "0x60806040523480156200001157600080fd5b50600054610100900460ff1615808015620000335750600054600160ff909116105b8062000063575062000050306200013d60201b620029b01760201c565b15801562000063575060005460ff166001145b620000cb5760405162461bcd60e51b815260206004820152602e60248201527f496e697469616c697a61626c653a20636f6e747261637420697320616c72656160448201526d191e481a5b9a5d1a585b1a5e995960921b606482015260840160405180910390fd5b6000805460ff191660011790558015620000ef576000805461ff0019166101001790555b801562000136576000805461ff0019169055604051600181527f7f26b83ff96e1f2b6a682f133852f6798a09c465da95921460cefb38474024989060200160405180910390a15b506200014c565b6001600160a01b03163b151590565b616380806200015c6000396000f3fe60806040526004361061038b5760003560e01c80638da5cb5b116101dc578063c7337d6b11610102578063d547741f116100a0578063e9703d251161006f578063e9703d2514610b8a578063e985e9c514610bd3578063ea1def9c14610c1c578063f242432a14610c3c57600080fd5b8063d547741f14610b15578063e159163414610b35578063e715032214610b55578063e8a3d48514610b7557600080fd5b8063ce805642116100dc578063ce80564214610a7d578063d37c353b14610a9d578063d45573f614610abd578063d45b28d714610ae857600080fd5b8063c7337d6b14610a05578063ca15c87314610a3c578063cb2ef6f714610a5c57600080fd5b8063a05112fc1161017a578063a32fa5b311610149578063a32fa5b31461095f578063ac9650d81461097f578063b24f2d39146109ac578063bd85b039146109d757600080fd5b8063a05112fc146108ee578063a0a8e4601461090e578063a217fddf1461092a578063a22cb4651461093f57600080fd5b8063938e3d7b116101b6578063938e3d7b1461087957806395d89b41146108995780639bcf7a15146108ae5780639fc4d68f146108ce57600080fd5b80638da5cb5b146107f55780639010d07c1461081357806391d148541461083357600080fd5b80632f2ff15d116102c157806357bc3d781161025f57806363b45e2d1161022e57806363b45e2d146107805780636b20c454146107955780636f4f2837146107b557806387198cf2146107d557600080fd5b806357bc3d78146106e05780635811ddab146106f35780635ab063e814610740578063600dd5ea1461076057600080fd5b8063492e224b1161029b578063492e224b146106185780634cc157df146106385780634e1273f41461067a578063572b6c05146106a757600080fd5b80632f2ff15d146105c357806336568abe146105e35780633b1475a71461060357600080fd5b80631e7ac4881161032e57806324aaffaa1161030857806324aaffaa1461051657806329c49b9b146105445780632a55205a146105645780632eb2c2d6146105a357600080fd5b80631e7ac488146104a95780632419f51b146104c9578063248a9ca3146104e957600080fd5b8063079fe40e1161036a578063079fe40e146104155780630e89341c1461044757806313af403514610467578063183718d11461048957600080fd5b8062fdd58e1461039057806301ffc9a7146103c357806306fdde03146103f3575b600080fd5b34801561039c57600080fd5b506103b06103ab366004614e5c565b610c5c565b6040519081526020015b60405180910390f35b3480156103cf57600080fd5b506103e36103de366004614e9e565b610cf7565b60405190151581526020016103ba565b3480156103ff57600080fd5b50610408610d1f565b6040516103ba9190614f13565b34801561042157600080fd5b506005546001600160a01b03165b6040516001600160a01b0390911681526020016103ba565b34801561045357600080fd5b50610408610462366004614f26565b610dae565b34801561047357600080fd5b50610487610482366004614f3f565b610e1d565b005b34801561049557600080fd5b506104876104a4366004614fb6565b610e6e565b3480156104b557600080fd5b506104876104c4366004614e5c565b6111fa565b3480156104d557600080fd5b506103b06104e4366004614f26565b61124d565b3480156104f557600080fd5b506103b0610504366004614f26565b6000908152600c602052604090205490565b34801561052257600080fd5b506103b0610531366004614f26565b61010e6020526000908152604090205481565b34801561055057600080fd5b5061048761055f366004615015565b6112bb565b34801561057057600080fd5b5061058461057f366004615045565b61132d565b604080516001600160a01b0390931683526020830191909152016103ba565b3480156105af57600080fd5b506104876105be3660046151c3565b61136a565b3480156105cf57600080fd5b506104876105de366004615015565b611410565b3480156105ef57600080fd5b506104876105fe366004615015565b6114a6565b34801561060f57600080fd5b50600a546103b0565b34801561062457600080fd5b506103e3610633366004614f26565b611508565b34801561064457600080fd5b50610658610653366004614f26565b61152e565b604080516001600160a01b03909316835261ffff9091166020830152016103ba565b34801561068657600080fd5b5061069a6106953660046152e0565b611599565b6040516103ba919061537f565b3480156106b357600080fd5b506103e36106c2366004614f3f565b6001600160a01b031660009081526041602052604090205460ff1690565b6104876106ee3660046153a4565b6116c3565b3480156106ff57600080fd5b506103b061070e36600461544a565b6000928352600e60209081526040808520938552600390930181528284206001600160a01b0390921684525290205490565b34801561074c57600080fd5b506103b061075b366004614f26565b611805565b34801561076c57600080fd5b5061048761077b366004614e5c565b6118b6565b34801561078c57600080fd5b506008546103b0565b3480156107a157600080fd5b506104876107b0366004615483565b611905565b3480156107c157600080fd5b506104876107d0366004614f3f565b6119a2565b3480156107e157600080fd5b506104876107f0366004615045565b6119f0565b34801561080157600080fd5b506006546001600160a01b031661042f565b34801561081f57600080fd5b5061042f61082e366004615045565b611a4d565b34801561083f57600080fd5b506103e361084e366004615015565b6000918252600b602090815260408084206001600160a01b0393909316845291905290205460ff1690565b34801561088557600080fd5b506104876108943660046154f9565b611b4e565b3480156108a557600080fd5b50610408611b9c565b3480156108ba57600080fd5b506104876108c936600461552e565b611baa565b3480156108da57600080fd5b506104086108e93660046155a8565b611bfa565b3480156108fa57600080fd5b50610408610909366004614f26565b611d87565b34801561091a57600080fd5b50604051600481526020016103ba565b34801561093657600080fd5b506103b0600081565b34801561094b57600080fd5b5061048761095a3660046155f4565b611da0565b34801561096b57600080fd5b506103e361097a366004615015565b611db2565b34801561098b57600080fd5b5061099f61099a366004615622565b611e08565b6040516103ba9190615664565b3480156109b857600080fd5b506003546001600160a01b03811690600160a01b900461ffff16610658565b3480156109e357600080fd5b506103b06109f2366004614f26565b61010d6020526000908152604090205481565b348015610a1157600080fd5b5061042f610a20366004614f26565b61010f602052600090815260409020546001600160a01b031681565b348015610a4857600080fd5b506103b0610a57366004614f26565b611efd565b348015610a6857600080fd5b506a44726f704552433131353560a81b6103b0565b348015610a8957600080fd5b50610408610a983660046155a8565b611f98565b348015610aa957600080fd5b506103b0610ab83660046156c6565b612026565b348015610ac957600080fd5b506002546001600160a01b03811690600160a01b900461ffff16610658565b348015610af457600080fd5b50610b08610b03366004615045565b6120cd565b6040516103ba9190615740565b348015610b2157600080fd5b50610487610b30366004615015565b612234565b348015610b4157600080fd5b50610487610b503660046157ce565b61224d565b348015610b6157600080fd5b50610408610b703660046158e1565b612478565b348015610b8157600080fd5b506104086124ed565b348015610b9657600080fd5b50610bbe610ba5366004614f26565b600e602052600090815260409020805460019091015482565b604080519283526020830191909152016103ba565b348015610bdf57600080fd5b506103e3610bee36600461593d565b6001600160a01b03918216600090815260d86020908152604080832093909416825291909152205460ff1690565b348015610c2857600080fd5b50610487610c3736600461596b565b6124fa565b348015610c4857600080fd5b50610487610c573660046159e5565b612911565b60006001600160a01b038316610ccc5760405162461bcd60e51b815260206004820152602a60248201527f455243313135353a2061646472657373207a65726f206973206e6f742061207660448201526930b634b21037bbb732b960b11b60648201526084015b60405180910390fd5b50600081815260d7602090815260408083206001600160a01b03861684529091529020545b92915050565b6000610d02826129bf565b80610cf15750506001600160e01b03191663152a902d60e11b1490565b6101098054610d2d90615a4e565b80601f0160208091040260200160405190810160405280929190818152602001828054610d5990615a4e565b8015610da65780601f10610d7b57610100808354040283529160200191610da6565b820191906000526020600020905b815481529060010190602001808311610d8957829003601f168201915b505050505081565b60606000610dbb83612a0f565b5090506000610dc984612b22565b9050610dd482611508565b15610e025780604051602001610dea9190615a83565b60405160208183030381529060405292505050919050565b80610e0c85612c83565b604051602001610dea929190615aa8565b610e25612d81565b610e625760405162461bcd60e51b815260206004820152600e60248201526d139bdd08185d5d1a1bdc9a5e995960921b6044820152606401610cc3565b610e6b81612d94565b50565b610e76612d81565b610eb35760405162461bcd60e51b815260206004820152600e60248201526d139bdd08185d5d1a1bdc9a5e995960921b6044820152606401610cc3565b6000848152600e6020526040902080546001820154818415610edc57610ed98284615aed565b90505b600184018690558084556000805b878110156110a057801580610f225750888882818110610f0c57610f0c615b05565b9050602002810190610f1e9190615b1b565b3582105b610f535760405162461bcd60e51b815260206004820152600260248201526114d560f21b6044820152606401610cc3565b60006002870181610f648487615aed565b8152602001908152602001600020600201549050898983818110610f8a57610f8a615b05565b9050602002810190610f9c9190615b1b565b60200135811115610fef5760405162461bcd60e51b815260206004820152601260248201527f6d617820737570706c7920636c61696d656400000000000000000000000000006044820152606401610cc3565b89898381811061100157611001615b05565b90506020028101906110139190615b1b565b6002880160006110238588615aed565b8152602001908152602001600020818161103d9190615c88565b508190506002880160006110518588615aed565b815260208101919091526040016000206002015589898381811061107757611077615b05565b90506020028101906110899190615b1b565b35925081905061109881615d06565b915050610eea565b50851561112257835b8281101561111c576000818152600280880160205260408220828155600181018390559081018290556003810182905560048101829055600581018290556006810180546001600160a01b0319169055906111076007830182614d64565b5050808061111490615d06565b9150506110a9565b506111b3565b868311156111b357865b838110156111b1576002860160006111448386615aed565b81526020810191909152604001600090812081815560018101829055600281018290556003810182905560048101829055600581018290556006810180546001600160a01b03191690559061119c6007830182614d64565b505080806111a990615d06565b91505061112c565b505b887f066f72a648b18490c0bc4ab07d508cdb5d6589fa188c63cfba1e0547f3a6556a8989896040516111e793929190615d90565b60405180910390a2505050505050505050565b611202612d81565b61123f5760405162461bcd60e51b815260206004820152600e60248201526d139bdd08185d5d1a1bdc9a5e995960921b6044820152606401610cc3565b6112498282612de6565b5050565b600061125860085490565b82106112965760405162461bcd60e51b815260206004820152600d60248201526c092dcecc2d8d2c840d2dcc8caf609b1b6044820152606401610cc3565b600882815481106112a9576112a9615b05565b90600052602060002001549050919050565b60006112c78133612e96565b600083815261010f602090815260409182902080546001600160a01b0319166001600160a01b038616908117909155915191825284917f359479172ba65a6639b0df237f704e030498cb7135d5e89b56f598bd1d84b016910160405180910390a2505050565b60008060008061133c8661152e565b90945084925061ffff1690506127106113558287615e78565b61135f9190615ead565b925050509250929050565b611372612f16565b6001600160a01b0316856001600160a01b03161480611398575061139885610bee612f16565b6113fc5760405162461bcd60e51b815260206004820152602f60248201527f455243313135353a2063616c6c6572206973206e6f7420746f6b656e206f776e60448201526e195c881b9bdc88185c1c1c9bdd9959608a1b6064820152608401610cc3565b6114098585858585612f20565b5050505050565b6000828152600c60205260409020546114299033612e96565b6000828152600b602090815260408083206001600160a01b038516845290915290205460ff161561149c5760405162461bcd60e51b815260206004820152601d60248201527f43616e206f6e6c79206772616e7420746f206e6f6e20686f6c646572730000006044820152606401610cc3565b611249828261319a565b336001600160a01b038216146114fe5760405162461bcd60e51b815260206004820152601a60248201527f43616e206f6e6c792072656e6f756e636520666f722073656c660000000000006044820152606401610cc3565b61124982826131ae565b6000818152600760205260408120805482919061152490615a4e565b9050119050919050565b6000818152600460209081526040808320815180830190925280546001600160a01b031680835260019091015492820192909252829115611575578051602082015161158f565b6003546001600160a01b03811690600160a01b900461ffff165b9250925050915091565b606081518351146115fe5760405162461bcd60e51b815260206004820152602960248201527f455243313135353a206163636f756e747320616e6420696473206c656e677468604482015268040dad2e6dac2e8c6d60bb1b6064820152608401610cc3565b6000835167ffffffffffffffff81111561161a5761161a615067565b604051908082528060200260200182016040528015611643578160200160208202803683370190505b50905060005b84518110156116bb5761168e85828151811061166757611667615b05565b602002602001015185838151811061168157611681615b05565b6020026020010151610c5c565b8282815181106116a0576116a0615b05565b60209081029190910101526116b481615d06565b9050611649565b509392505050565b6116d286888787878787613205565b60006116dd87611805565b90506116f5816116eb61329c565b89898989896124fa565b6000878152600e6020908152604080832084845260029081019092528220018054889290611724908490615aed565b90915550506000878152600e602090815260408083208484526003019091528120879161174f61329c565b6001600160a01b03166001600160a01b03168152602001908152602001600020600082825461177e9190615aed565b9091555061179290508760008888886132a6565b61179d8888886133eb565b876001600160a01b03166117af61329c565b6001600160a01b0316827ffa76a4010d9533e3e964f2930a65fb6042a12fa6ff5b08281837a10b0be7321e8a8a6040516117f3929190918252602082015260400190565b60405180910390a45050505050505050565b6000818152600e6020526040812060018101548154839161182591615aed565b90505b815481111561187f57600282016000611842600184615ec1565b815260200190815260200160002060000154421061186d57611865600182615ec1565b949350505050565b8061187781615ed8565b915050611828565b5060405162461bcd60e51b815260206004820152600b60248201526a10a1a7a72224aa24a7a71760a91b6044820152606401610cc3565b6118be612d81565b6118fb5760405162461bcd60e51b815260206004820152600e60248201526d139bdd08185d5d1a1bdc9a5e995960921b6044820152606401610cc3565b6112498282613406565b61190d612f16565b6001600160a01b0316836001600160a01b03161480611933575061193383610bee612f16565b6119925760405162461bcd60e51b815260206004820152602a60248201527f455243313135353a2063616c6c6572206973206e6f74206f776e6572206e6f726044820152691030b8383937bb32b21760b11b6064820152608401610cc3565b61199d8383836134a5565b505050565b6119aa612d81565b6119e75760405162461bcd60e51b815260206004820152600e60248201526d139bdd08185d5d1a1bdc9a5e995960921b6044820152606401610cc3565b610e6b81613706565b60006119fc8133612e96565b600083815261010e602090815260409182902084905581518581529081018490527fc58cd6132bb46df23d468939c03dd023b74b509aaa6b04c39d5a6461c65963bd910160405180910390a1505050565b6000828152600d602052604081205481805b82811015611b45576000868152600d602090815260408083208484526001019091529020546001600160a01b031615611adc5784821415611aca576000868152600d602090815260408083209383526001909301905220546001600160a01b03169250610cf1915050565b611ad5600183615aed565b9150611b33565b6000868152600b6020908152604080832083805290915290205460ff168015611b2057506000868152600d6020908152604080832083805260020190915290205481145b15611b3357611b30600183615aed565b91505b611b3e600182615aed565b9050611a5f565b50505092915050565b611b56612d81565b611b935760405162461bcd60e51b815260206004820152600e60248201526d139bdd08185d5d1a1bdc9a5e995960921b6044820152606401610cc3565b610e6b81613750565b61010a8054610d2d90615a4e565b611bb2612d81565b611bef5760405162461bcd60e51b815260206004820152600e60248201526d139bdd08185d5d1a1bdc9a5e995960921b6044820152606401610cc3565b61199d838383613832565b600083815260076020526040812080546060929190611c1890615a4e565b80601f0160208091040260200160405190810160405280929190818152602001828054611c4490615a4e565b8015611c915780601f10611c6657610100808354040283529160200191611c91565b820191906000526020600020905b815481529060010190602001808311611c7457829003601f168201915b50505050509050805160001415611cea5760405162461bcd60e51b815260206004820152601160248201527f4e6f7468696e6720746f2072657665616c0000000000000000000000000000006044820152606401610cc3565b60008082806020019051810190611d019190615eef565b91509150611d10828787612478565b93508084878746604051602001611d2a9493929190615f7b565b6040516020818303038152906040528051906020012014611d7d5760405162461bcd60e51b815260206004820152600d60248201526c496e636f7272656374206b657960981b6044820152606401610cc3565b5050509392505050565b60076020526000908152604090208054610d2d90615a4e565b611249611dab612f16565b83836138fc565b6000828152600b6020908152604080832083805290915281205460ff16611dff57506000828152600b602090815260408083206001600160a01b038516845290915290205460ff16610cf1565b50600192915050565b60608167ffffffffffffffff811115611e2357611e23615067565b604051908082528060200260200182016040528015611e5657816020015b6060815260200190600190039081611e415790505b50905060005b82811015611ef657611ec630858584818110611e7a57611e7a615b05565b9050602002810190611e8c9190615b3b565b8080601f0160208091040260200160405190810160405280939291908181526020018383808284376000920191909152506139d592505050565b828281518110611ed857611ed8615b05565b60200260200101819052508080611eee90615d06565b915050611e5c565b5092915050565b6000818152600d6020526040812054815b81811015611f61576000848152600d602090815260408083208484526001019091529020546001600160a01b031615611f4f57611f4c600184615aed565b92505b611f5a600182615aed565b9050611f0e565b506000838152600b6020908152604080832083805290915290205460ff1615611f9257611f8f600183615aed565b91505b50919050565b606061010c54611fa88133612e96565b6000611fb38661124d565b9050611fc0818686611bfa565b9250611fdb8160405180602001604052806000815250613ac9565b611fe58184613ae8565b857f6df1d8db2a036436ffe0b2d1833f2c5f1e624818dfce2578c0faa4b83ef9998d846040516120159190614f13565b60405180910390a250509392505050565b600061010c546120368133612e96565b82156120b55760008061204b85870187615fa4565b91509150815160001415801561206057508015155b156120b2576120b289600a546120769190615aed565b87878080601f016020809104026020016040519081016040528093929190818152602001838380828437600092019190915250613ac992505050565b50505b6120c28787878787613b07565b979650505050505050565b61212160405180610100016040528060008152602001600081526020016000815260200160008152602001600080191681526020016000815260200160006001600160a01b03168152602001606081525090565b6000838152600e6020908152604080832085845260029081018352928190208151610100810183528154815260018201549381019390935292830154908201526003820154606082015260048201546080820152600582015460a082015260068201546001600160a01b031660c082015260078201805491929160e0840191906121aa90615a4e565b80601f01602080910402602001604051908101604052809291908181526020018280546121d690615a4e565b80156122235780601f106121f857610100808354040283529160200191612223565b820191906000526020600020905b81548152906001019060200180831161220657829003601f168201915b505050505081525050905092915050565b6000828152600c60205260409020546114fe9033612e96565b600054610100900460ff161580801561226d5750600054600160ff909116105b806122875750303b158015612287575060005460ff166001145b6122ea5760405162461bcd60e51b815260206004820152602e60248201527f496e697469616c697a61626c653a20636f6e747261637420697320616c72656160448201526d191e481a5b9a5d1a585b1a5e995960921b6064820152608401610cc3565b6000805460ff19166001179055801561230d576000805461ff0019166101001790555b7f8502233096d909befbda0999bb8ea2f3a6be3c138b9fbf003752a4c8bce86f6c7f9f2df0fed2c77648de5860a4cc508cd0818c85b8b8a1ab4ceeef8d981c8956a661235889613c32565b61237060405180602001604052806000815250613c6a565b6123798a613750565b6123828d612d94565b61238d60008e61319a565b612397818e61319a565b6123a1828e61319a565b6123ac82600061319a565b6123c884866fffffffffffffffffffffffffffffffff16612de6565b6123e487876fffffffffffffffffffffffffffffffff16613406565b6123ed88613706565b61010b82905561010c8190558b5161240d906101099060208f0190614d9e565b508a516124229061010a9060208e0190614d9e565b505050801561246b576000805461ff0019169055604051600181527f7f26b83ff96e1f2b6a682f133852f6798a09c465da95921460cefb38474024989060200160405180910390a15b5050505050505050505050565b8251604080518083016020019091528181529060005b818110156124e45760008585836040516020016124ad93929190615fe9565b60408051601f198184030181529190528051602091820120888401820151188584018201526124dd915082615aed565b905061248e565b50509392505050565b60018054610d2d90615a4e565b6000858152600e602090815260408083208a8452600290810183528184208251610100810184528154815260018201549481019490945290810154918301919091526003810154606083015260048101546080830152600581015460a083015260068101546001600160a01b031660c083015260078101805460e08401919061258290615a4e565b80601f01602080910402602001604051908101604052809291908181526020018280546125ae90615a4e565b80156125fb5780601f106125d0576101008083540402835291602001916125fb565b820191906000526020600020905b8154815290600101906020018083116125de57829003601f168201915b50505091909252505050606081015160a082015160c08301516080840151939450600093156126de576126da6126318780615ffb565b80806020026020016040519081016040528093929190818152602001838360200280828437600092019190915250505060808089015191508e9060208b01359060408c013590612686908d0160608e01614f3f565b6040516bffffffffffffffffffffffff19606095861b811660208301526034820194909452605481019290925290921b16607482015260880160405160208183030381529060405280519060200120613c9a565b5093505b831561276857600019866020013514156126f857826126fe565b85602001355b925060001986604001351415612714578161271a565b85604001355b915060001986604001351415801561274b5750600061273f6080880160608901614f3f565b6001600160a01b031614155b6127555780612765565b6127656080870160608801614f3f565b90505b6000600e60008c815260200190815260200160002060030160008e815260200190815260200160002060008d6001600160a01b03166001600160a01b03168152602001908152602001600020549050816001600160a01b0316896001600160a01b03161415806127d85750828814155b156128255760405162461bcd60e51b815260206004820152601060248201527f2150726963654f7243757272656e6379000000000000000000000000000000006044820152606401610cc3565b89158061283a575083612838828c615aed565b115b156128705760405162461bcd60e51b8152600401610cc3906020808252600490820152632151747960e01b604082015260600190565b85602001518a87604001516128859190615aed565b11156128c05760405162461bcd60e51b815260206004820152600a602482015269214d6178537570706c7960b01b6044820152606401610cc3565b85514210156129025760405162461bcd60e51b815260206004820152600e60248201526d18d85b9d0818db185a5b481e595d60921b6044820152606401610cc3565b50505050505050505050505050565b612919612f16565b6001600160a01b0316856001600160a01b0316148061293f575061293f85610bee612f16565b6129a35760405162461bcd60e51b815260206004820152602f60248201527f455243313135353a2063616c6c6572206973206e6f7420746f6b656e206f776e60448201526e195c881b9bdc88185c1c1c9bdd9959608a1b6064820152608401610cc3565b6114098585858585613d68565b6001600160a01b03163b151590565b60006001600160e01b03198216636cdb3d1360e11b14806129f057506001600160e01b031982166303a24d0760e21b145b80610cf157506301ffc9a760e01b6001600160e01b0319831614610cf1565b6000806000612a1d60085490565b905060006008805480602002602001604051908101604052809291908181526020018280548015612a6d57602002820191906000526020600020905b815481526020019060010190808311612a59575b5050505050905060005b82811015612ad957818181518110612a9157612a91615b05565b6020026020010151861015612ac757809350818181518110612ab557612ab5615b05565b60200260200101519450505050915091565b612ad2600182615aed565b9050612a77565b5060405162461bcd60e51b815260206004820152600f60248201527f496e76616c696420746f6b656e496400000000000000000000000000000000006044820152606401610cc3565b60606000612b2f60085490565b905060006008805480602002602001604051908101604052809291908181526020018280548015612b7f57602002820191906000526020600020905b815481526020019060010190808311612b6b575b5050505050905060005b82811015612ad957818181518110612ba357612ba3615b05565b6020026020010151851015612c715760096000838381518110612bc857612bc8615b05565b602002602001015181526020019081526020016000208054612be990615a4e565b80601f0160208091040260200160405190810160405280929190818152602001828054612c1590615a4e565b8015612c625780601f10612c3757610100808354040283529160200191612c62565b820191906000526020600020905b815481529060010190602001808311612c4557829003601f168201915b50505050509350505050919050565b612c7c600182615aed565b9050612b89565b606081612ca75750506040805180820190915260018152600360fc1b602082015290565b8160005b8115612cd15780612cbb81615d06565b9150612cca9050600a83615ead565b9150612cab565b60008167ffffffffffffffff811115612cec57612cec615067565b6040519080825280601f01601f191660200182016040528015612d16576020820181803683370190505b5090505b841561186557612d2b600183615ec1565b9150612d38600a86616045565b612d43906030615aed565b60f81b818381518110612d5857612d58615b05565b60200101906001600160f81b031916908160001a905350612d7a600a86615ead565b9450612d1a565b6000612d8f8161084e612f16565b905090565b600680546001600160a01b038381166001600160a01b0319831681179093556040519116919082907f8292fce18fa69edf4db7b94ea2e58241df0ae57f97e0a6c9b29067028bf92d7690600090a35050565b612710811115612e2a5760405162461bcd60e51b815260206004820152600f60248201526e45786365656473206d61782062707360881b6044820152606401610cc3565b600280546001600160b01b031916600160a01b61ffff8416026001600160a01b031916176001600160a01b0384169081179091556040518281527fe2497bd806ec41a6e0dd992c29a72efc0ef8fec9092d1978fd4a1e00b2f18304906020015b60405180910390a25050565b6000828152600b602090815260408083206001600160a01b038516845290915290205460ff1661124957612ed4816001600160a01b03166014613f30565b612edf836020613f30565b604051602001612ef0929190616059565b60408051601f198184030181529082905262461bcd60e51b8252610cc391600401614f13565b6000612d8f6140e0565b8151835114612f825760405162461bcd60e51b815260206004820152602860248201527f455243313135353a2069647320616e6420616d6f756e7473206c656e677468206044820152670dad2e6dac2e8c6d60c31b6064820152608401610cc3565b6001600160a01b038416612fe65760405162461bcd60e51b815260206004820152602560248201527f455243313135353a207472616e7366657220746f20746865207a65726f206164604482015264647265737360d81b6064820152608401610cc3565b6000612ff0612f16565b905061300081878787878761410d565b60005b845181101561312c57600085828151811061302057613020615b05565b60200260200101519050600085838151811061303e5761303e615b05565b602090810291909101810151600084815260d7835260408082206001600160a01b038e1683529093529190912054909150818110156130d25760405162461bcd60e51b815260206004820152602a60248201527f455243313135353a20696e73756666696369656e742062616c616e636520666f60448201526939103a3930b739b332b960b11b6064820152608401610cc3565b600083815260d7602090815260408083206001600160a01b038e8116855292528083208585039055908b16825281208054849290613111908490615aed565b925050819055505050508061312590615d06565b9050613003565b50846001600160a01b0316866001600160a01b0316826001600160a01b03167f4a39dc06d4c0dbc64b70af90fd698a233a518aa5d07e595d983b8c0526c8f7fb878760405161317c9291906160da565b60405180910390a461319281878787878761431d565b505050505050565b6131a482826144c3565b611249828261451e565b6131b8828261458b565b6000828152600d602090815260408083206001600160a01b03851680855260028201808552838620805487526001909301855292852080546001600160a01b031916905584529152555050565b600087815261010e602052604090205415806132475750600087815261010e602090815260408083205461010d90925290912054613244908790615aed565b11155b6132935760405162461bcd60e51b815260206004820152601760248201527f657863656564206d617820746f74616c20737570706c790000000000000000006044820152606401610cc3565b50505050505050565b6000612d8f612f16565b806132b057611409565b6002546001600160a01b0380821691600160a01b900461ffff16906000908716156132db5786613324565b600088815261010f60205260409020546001600160a01b03161561331757600088815261010f60205260409020546001600160a01b0316613324565b6005546001600160a01b03165b905060006133328588615e78565b9050600061271061334761ffff861684615e78565b6133519190615ead565b90506001600160a01b03871673eeeeeeeeeeeeeeeeeeeeeeeeeeeeeeeeeeeeeeee14156133b0578134146133b05760405162461bcd60e51b815260206004820152600660248201526521507269636560d01b6044820152606401610cc3565b6133c3876133bc612f16565b87846145ed565b6133df876133cf612f16565b856133da8587615ec1565b6145ed565b50505050505050505050565b61199d83838360405180602001604052806000815250614637565b61271081111561344a5760405162461bcd60e51b815260206004820152600f60248201526e45786365656473206d61782062707360881b6044820152606401610cc3565b600380546001600160a01b0384166001600160b01b03199091168117600160a01b61ffff851602179091556040518281527f90d7ec04bcb8978719414f82e52e4cb651db41d0e6f8cea6118c2191e6183adb90602001612e8a565b6001600160a01b0383166135075760405162461bcd60e51b815260206004820152602360248201527f455243313135353a206275726e2066726f6d20746865207a65726f206164647260448201526265737360e81b6064820152608401610cc3565b80518251146135695760405162461bcd60e51b815260206004820152602860248201527f455243313135353a2069647320616e6420616d6f756e7473206c656e677468206044820152670dad2e6dac2e8c6d60c31b6064820152608401610cc3565b6000613573612f16565b90506135938185600086866040518060200160405280600081525061410d565b60005b83518110156136975760008482815181106135b3576135b3615b05565b6020026020010151905060008483815181106135d1576135d1615b05565b602090810291909101810151600084815260d7835260408082206001600160a01b038c16835290935291909120549091508181101561365e5760405162461bcd60e51b8152602060048201526024808201527f455243313135353a206275726e20616d6f756e7420657863656564732062616c604482015263616e636560e01b6064820152608401610cc3565b600092835260d7602090815260408085206001600160a01b038b168652909152909220910390558061368f81615d06565b915050613596565b5060006001600160a01b0316846001600160a01b0316826001600160a01b03167f4a39dc06d4c0dbc64b70af90fd698a233a518aa5d07e595d983b8c0526c8f7fb86866040516136e89291906160da565b60405180910390a46040805160208101909152600090525b50505050565b600580546001600160a01b0319166001600160a01b0383169081179091556040517f299d17e95023f496e0ffc4909cff1a61f74bb5eb18de6f900f4155bfa1b3b33390600090a250565b60006001805461375f90615a4e565b80601f016020809104026020016040519081016040528092919081815260200182805461378b90615a4e565b80156137d85780601f106137ad576101008083540402835291602001916137d8565b820191906000526020600020905b8154815290600101906020018083116137bb57829003601f168201915b505085519394506137f493600193506020870192509050614d9e565b507fc9c7c3fe08b88b4df9d4d47ef47d2c43d55c025a0ba88ca442580ed9e7348a1681836040516138269291906160ff565b60405180910390a15050565b6127108111156138765760405162461bcd60e51b815260206004820152600f60248201526e45786365656473206d61782062707360881b6044820152606401610cc3565b6040805180820182526001600160a01b038481168083526020808401868152600089815260048352869020945185546001600160a01b031916941693909317845591516001909301929092559151838152909185917f7365cf4122f072a3365c20d54eff9b38d73c096c28e1892ec8f5b0e403a0f12d91015b60405180910390a3505050565b816001600160a01b0316836001600160a01b031614156139705760405162461bcd60e51b815260206004820152602960248201527f455243313135353a2073657474696e6720617070726f76616c20737461747573604482015268103337b91039b2b63360b91b6064820152608401610cc3565b6001600160a01b03838116600081815260d86020908152604080832094871680845294825291829020805460ff191686151590811790915591519182527f17307eab39ab6107e8899845ad3d59bd9653f200f220920489ca2b5937696c3191016138ef565b60606001600160a01b0383163b613a3d5760405162461bcd60e51b815260206004820152602660248201527f416464726573733a2064656c65676174652063616c6c20746f206e6f6e2d636f6044820152651b9d1c9858dd60d21b6064820152608401610cc3565b600080846001600160a01b031684604051613a589190616124565b600060405180830381855af49150503d8060008114613a93576040519150601f19603f3d011682016040523d82523d6000602084013e613a98565b606091505b5091509150613ac082826040518060600160405280602781526020016163246027913961475e565b95945050505050565b6000828152600760209081526040909120825161199d92840190614d9e565b6000828152600960209081526040909120825161199d92840190614d9e565b6000613b11612d81565b613b4e5760405162461bcd60e51b815260206004820152600e60248201526d139bdd08185d5d1a1bdc9a5e995960921b6044820152606401610cc3565b85613b835760405162461bcd60e51b81526020600482015260056024820152640c08185b5d60da1b6044820152606401610cc3565b6000600a549050613bcb818888888080601f01602080910402602001604051908101604052809392919081815260200183838082843760009201919091525061479792505050565b600a919091559150807f2a0365091ef1a40953c670dce28177e37520648a6fdc91506bffac0ab045570d6001613c018a84615aed565b613c0b9190615ec1565b88888888604051613c20959493929190616136565b60405180910390a25095945050505050565b600054610100900460ff16613c595760405162461bcd60e51b8152600401610cc39061616f565b613c61614804565b610e6b8161482d565b600054610100900460ff16613c915760405162461bcd60e51b8152600401610cc39061616f565b610e6b816148bc565b6000808281805b8751811015613d5c57613cb5600283615e78565b91506000888281518110613ccb57613ccb615b05565b60200260200101519050808411613d0d576040805160208101869052908101829052606001604051602081830303815290604052805190602001209350613d49565b6040805160208101839052908101859052606001604051602081830303815290604052805190602001209350600183613d469190615aed565b92505b5080613d5481615d06565b915050613ca1565b50941495939450505050565b6001600160a01b038416613dcc5760405162461bcd60e51b815260206004820152602560248201527f455243313135353a207472616e7366657220746f20746865207a65726f206164604482015264647265737360d81b6064820152608401610cc3565b6000613dd6612f16565b90506000613de3856148cf565b90506000613df0856148cf565b9050613e0083898985858961410d565b600086815260d7602090815260408083206001600160a01b038c16845290915290205485811015613e865760405162461bcd60e51b815260206004820152602a60248201527f455243313135353a20696e73756666696369656e742062616c616e636520666f60448201526939103a3930b739b332b960b11b6064820152608401610cc3565b600087815260d7602090815260408083206001600160a01b038d8116855292528083208985039055908a16825281208054889290613ec5908490615aed565b909155505060408051888152602081018890526001600160a01b03808b16928c821692918816917fc3d58168c5ae7397731d063d5bbf3d657854427343f4c083240f7aacaa2d0f62910160405180910390a4613f25848a8a8a8a8a61491a565b505050505050505050565b60606000613f3f836002615e78565b613f4a906002615aed565b67ffffffffffffffff811115613f6257613f62615067565b6040519080825280601f01601f191660200182016040528015613f8c576020820181803683370190505b509050600360fc1b81600081518110613fa757613fa7615b05565b60200101906001600160f81b031916908160001a905350600f60fb1b81600181518110613fd657613fd6615b05565b60200101906001600160f81b031916908160001a9053506000613ffa846002615e78565b614005906001615aed565b90505b600181111561408a577f303132333435363738396162636465660000000000000000000000000000000085600f166010811061404657614046615b05565b1a60f81b82828151811061405c5761405c615b05565b60200101906001600160f81b031916908160001a90535060049490941c9361408381615ed8565b9050614008565b5083156140d95760405162461bcd60e51b815260206004820181905260248201527f537472696e67733a20686578206c656e67746820696e73756666696369656e746044820152606401610cc3565b9392505050565b3360009081526041602052604081205460ff1615614105575060131936013560601c90565b503390565b90565b61010b546000908152600b6020908152604080832083805290915290205460ff1615801561414357506001600160a01b03851615155b801561415757506001600160a01b03841615155b1561420f5761010b546000908152600b602090815260408083206001600160a01b038916845290915290205460ff16806141b7575061010b546000908152600b602090815260408083206001600160a01b038816845290915290205460ff165b61420f5760405162461bcd60e51b8152602060048201526024808201527f7265737472696374656420746f205452414e534645525f524f4c4520686f6c6460448201526332b9399760e11b6064820152608401610cc3565b6001600160a01b0385166142975760005b83518110156142955782818151811061423b5761423b615b05565b602002602001015161010d600086848151811061425a5761425a615b05565b60200260200101518152602001908152602001600020600082825461427f9190615aed565b9091555061428e905081615d06565b9050614220565b505b6001600160a01b0384166131925760005b8351811015613293578281815181106142c3576142c3615b05565b602002602001015161010d60008684815181106142e2576142e2615b05565b6020026020010151815260200190815260200160002060008282546143079190615ec1565b90915550614316905081615d06565b90506142a8565b6001600160a01b0384163b156131925760405163bc197c8160e01b81526001600160a01b0385169063bc197c819061436190899089908890889088906004016161ba565b6020604051808303816000875af192505050801561439c575060408051601f3d908101601f191682019092526143999181019061620c565b60015b614452576143a8616229565b806308c379a014156143e257506143bd616244565b806143c857506143e4565b8060405162461bcd60e51b8152600401610cc39190614f13565b505b60405162461bcd60e51b815260206004820152603460248201527f455243313135353a207472616e7366657220746f206e6f6e204552433131353560448201527f526563656976657220696d706c656d656e7465720000000000000000000000006064820152608401610cc3565b6001600160e01b0319811663bc197c8160e01b146132935760405162461bcd60e51b815260206004820152602860248201527f455243313135353a204552433131353552656365697665722072656a656374656044820152676420746f6b656e7360c01b6064820152608401610cc3565b6000828152600b602090815260408083206001600160a01b0385168085529252808320805460ff1916600117905551339285917f2f8788117e7eff1d82e926ec794901d17c78024a50270940304540a733656f0d9190a45050565b6000828152600d602052604081208054916001919061453d8385615aed565b90915550506000928352600d6020908152604080852083865260018101835281862080546001600160a01b039096166001600160a01b03199096168617905593855260029093019052912055565b6145958282612e96565b6000828152600b602090815260408083206001600160a01b0385168085529252808320805460ff1916905551339285917ff6391f5c32d9c69d2a47ea670b442974b53935d1edc7fd64eb21e047a839171b9190a45050565b806145f757613700565b6001600160a01b03841673eeeeeeeeeeeeeeeeeeeeeeeeeeeeeeeeeeeeeeee141561462b576146268282614a16565b613700565b61370084848484614ab9565b6001600160a01b0384166146975760405162461bcd60e51b815260206004820152602160248201527f455243313135353a206d696e7420746f20746865207a65726f206164647265736044820152607360f81b6064820152608401610cc3565b60006146a1612f16565b905060006146ae856148cf565b905060006146bb856148cf565b90506146cc8360008985858961410d565b600086815260d7602090815260408083206001600160a01b038b168452909152812080548792906146fe908490615aed565b909155505060408051878152602081018790526001600160a01b03808a1692600092918716917fc3d58168c5ae7397731d063d5bbf3d657854427343f4c083240f7aacaa2d0f62910160405180910390a46132938360008989898961491a565b6060831561476d5750816140d9565b82511561477d5782518084602001fd5b8160405162461bcd60e51b8152600401610cc39190614f13565b6000806147a48486615aed565b60088054600181019091557ff3f7a9fe364faab93b216da50a3214154f22a0a2b415b23a84c8169e8b636ee301819055600081815260096020908152604090912085519294508493506147fb929091860190614d9e565b50935093915050565b600054610100900460ff1661482b5760405162461bcd60e51b8152600401610cc39061616f565b565b600054610100900460ff166148545760405162461bcd60e51b8152600401610cc39061616f565b60005b81518110156112495760016041600084848151811061487857614878615b05565b6020908102919091018101516001600160a01b03168252810191909152604001600020805460ff1916911515919091179055806148b481615d06565b915050614857565b80516112499060d9906020840190614d9e565b6040805160018082528183019092526060916000919060208083019080368337019050509050828160008151811061490957614909615b05565b602090810291909101015292915050565b6001600160a01b0384163b156131925760405163f23a6e6160e01b81526001600160a01b0385169063f23a6e619061495e90899089908890889088906004016162ce565b6020604051808303816000875af1925050508015614999575060408051601f3d908101601f191682019092526149969181019061620c565b60015b6149a5576143a8616229565b6001600160e01b0319811663f23a6e6160e01b146132935760405162461bcd60e51b815260206004820152602860248201527f455243313135353a204552433131353552656365697665722072656a656374656044820152676420746f6b656e7360c01b6064820152608401610cc3565b6000826001600160a01b03168260405160006040518083038185875af1925050503d8060008114614a63576040519150601f19603f3d011682016040523d82523d6000602084013e614a68565b606091505b505090508061199d5760405162461bcd60e51b815260206004820152601c60248201527f6e617469766520746f6b656e207472616e73666572206661696c6564000000006044820152606401610cc3565b816001600160a01b0316836001600160a01b03161415614ad857613700565b6001600160a01b038316301415614afd576146266001600160a01b0385168383614b12565b6137006001600160a01b038516848484614b8a565b6040516001600160a01b03831660248201526044810182905261199d90849063a9059cbb60e01b906064015b60408051601f198184030181529190526020810180517bffffffffffffffffffffffffffffffffffffffffffffffffffffffff166001600160e01b031990931692909217909152614bc2565b6040516001600160a01b03808516602483015283166044820152606481018290526137009085906323b872dd60e01b90608401614b3e565b6000614c17826040518060400160405280602081526020017f5361666545524332303a206c6f772d6c6576656c2063616c6c206661696c6564815250856001600160a01b0316614c949092919063ffffffff16565b80519091501561199d5780806020019051810190614c359190616306565b61199d5760405162461bcd60e51b815260206004820152602a60248201527f5361666545524332303a204552433230206f7065726174696f6e20646964206e6044820152691bdd081cdd58d8d9595960b21b6064820152608401610cc3565b60606118658484600085856001600160a01b0385163b614cf65760405162461bcd60e51b815260206004820152601d60248201527f416464726573733a2063616c6c20746f206e6f6e2d636f6e74726163740000006044820152606401610cc3565b600080866001600160a01b03168587604051614d129190616124565b60006040518083038185875af1925050503d8060008114614d4f576040519150601f19603f3d011682016040523d82523d6000602084013e614d54565b606091505b50915091506120c282828661475e565b508054614d7090615a4e565b6000825580601f10614d80575050565b601f016020900490600052602060002090810190610e6b9190614e22565b828054614daa90615a4e565b90600052602060002090601f016020900481019282614dcc5760008555614e12565b82601f10614de557805160ff1916838001178555614e12565b82800160010185558215614e12579182015b82811115614e12578251825591602001919060010190614df7565b50614e1e929150614e22565b5090565b5b80821115614e1e5760008155600101614e23565b6001600160a01b0381168114610e6b57600080fd5b8035614e5781614e37565b919050565b60008060408385031215614e6f57600080fd5b8235614e7a81614e37565b946020939093013593505050565b6001600160e01b031981168114610e6b57600080fd5b600060208284031215614eb057600080fd5b81356140d981614e88565b60005b83811015614ed6578181015183820152602001614ebe565b838111156137005750506000910152565b60008151808452614eff816020860160208601614ebb565b601f01601f19169290920160200192915050565b6020815260006140d96020830184614ee7565b600060208284031215614f3857600080fd5b5035919050565b600060208284031215614f5157600080fd5b81356140d981614e37565b60008083601f840112614f6e57600080fd5b50813567ffffffffffffffff811115614f8657600080fd5b6020830191508360208260051b8501011115614fa157600080fd5b9250929050565b8015158114610e6b57600080fd5b60008060008060608587031215614fcc57600080fd5b84359350602085013567ffffffffffffffff811115614fea57600080fd5b614ff687828801614f5c565b909450925050604085013561500a81614fa8565b939692955090935050565b6000806040838503121561502857600080fd5b82359150602083013561503a81614e37565b809150509250929050565b6000806040838503121561505857600080fd5b50508035926020909101359150565b634e487b7160e01b600052604160045260246000fd5b601f8201601f1916810167ffffffffffffffff811182821017156150a3576150a3615067565b6040525050565b600067ffffffffffffffff8211156150c4576150c4615067565b5060051b60200190565b600082601f8301126150df57600080fd5b813560206150ec826150aa565b6040516150f9828261507d565b83815260059390931b850182019282810191508684111561511957600080fd5b8286015b84811015615134578035835291830191830161511d565b509695505050505050565b600067ffffffffffffffff82111561515957615159615067565b50601f01601f191660200190565b600082601f83011261517857600080fd5b81356151838161513f565b604051615190828261507d565b8281528560208487010111156151a557600080fd5b82602086016020830137600092810160200192909252509392505050565b600080600080600060a086880312156151db57600080fd5b85356151e681614e37565b945060208601356151f681614e37565b9350604086013567ffffffffffffffff8082111561521357600080fd5b61521f89838a016150ce565b9450606088013591508082111561523557600080fd5b61524189838a016150ce565b9350608088013591508082111561525757600080fd5b5061526488828901615167565b9150509295509295909350565b600082601f83011261528257600080fd5b8135602061528f826150aa565b60405161529c828261507d565b83815260059390931b85018201928281019150868411156152bc57600080fd5b8286015b848110156151345780356152d381614e37565b83529183019183016152c0565b600080604083850312156152f357600080fd5b823567ffffffffffffffff8082111561530b57600080fd5b61531786838701615271565b9350602085013591508082111561532d57600080fd5b5061533a858286016150ce565b9150509250929050565b600081518084526020808501945080840160005b8381101561537457815187529582019590820190600101615358565b509495945050505050565b6020815260006140d96020830184615344565b600060808284031215611f9257600080fd5b600080600080600080600060e0888a0312156153bf57600080fd5b87356153ca81614e37565b9650602088013595506040880135945060608801356153e881614e37565b93506080880135925060a088013567ffffffffffffffff8082111561540c57600080fd5b6154188b838c01615392565b935060c08a013591508082111561542e57600080fd5b5061543b8a828b01615167565b91505092959891949750929550565b60008060006060848603121561545f57600080fd5b8335925060208401359150604084013561547881614e37565b809150509250925092565b60008060006060848603121561549857600080fd5b83356154a381614e37565b9250602084013567ffffffffffffffff808211156154c057600080fd5b6154cc878388016150ce565b935060408601359150808211156154e257600080fd5b506154ef868287016150ce565b9150509250925092565b60006020828403121561550b57600080fd5b813567ffffffffffffffff81111561552257600080fd5b61186584828501615167565b60008060006060848603121561554357600080fd5b83359250602084013561555581614e37565b929592945050506040919091013590565b60008083601f84011261557857600080fd5b50813567ffffffffffffffff81111561559057600080fd5b602083019150836020828501011115614fa157600080fd5b6000806000604084860312156155bd57600080fd5b83359250602084013567ffffffffffffffff8111156155db57600080fd5b6155e786828701615566565b9497909650939450505050565b6000806040838503121561560757600080fd5b823561561281614e37565b9150602083013561503a81614fa8565b6000806020838503121561563557600080fd5b823567ffffffffffffffff81111561564c57600080fd5b61565885828601614f5c565b90969095509350505050565b6000602080830181845280855180835260408601915060408160051b870101925083870160005b828110156156b957603f198886030184526156a7858351614ee7565b9450928501929085019060010161568b565b5092979650505050505050565b6000806000806000606086880312156156de57600080fd5b85359450602086013567ffffffffffffffff808211156156fd57600080fd5b61570989838a01615566565b9096509450604088013591508082111561572257600080fd5b5061572f88828901615566565b969995985093965092949392505050565b6020815281516020820152602082015160408201526040820151606082015260608201516080820152608082015160a082015260a082015160c08201526001600160a01b0360c08301511660e0820152600060e0830151610100808185015250611865610120840182614ee7565b80356fffffffffffffffffffffffffffffffff81168114614e5757600080fd5b6000806000806000806000806000806101408b8d0312156157ee57600080fd5b6157f78b614e4c565b995060208b013567ffffffffffffffff8082111561581457600080fd5b6158208e838f01615167565b9a5060408d013591508082111561583657600080fd5b6158428e838f01615167565b995060608d013591508082111561585857600080fd5b6158648e838f01615167565b985060808d013591508082111561587a57600080fd5b506158878d828e01615271565b96505061589660a08c01614e4c565b94506158a460c08c01614e4c565b93506158b260e08c016157ae565b92506158c16101008c016157ae565b91506158d06101208c01614e4c565b90509295989b9194979a5092959850565b6000806000604084860312156158f657600080fd5b833567ffffffffffffffff8082111561590e57600080fd5b61591a87838801615167565b9450602086013591508082111561593057600080fd5b506155e786828701615566565b6000806040838503121561595057600080fd5b823561595b81614e37565b9150602083013561503a81614e37565b600080600080600080600060e0888a03121561598657600080fd5b87359650602088013561599881614e37565b9550604088013594506060880135935060808801356159b681614e37565b925060a0880135915060c088013567ffffffffffffffff8111156159d957600080fd5b61543b8a828b01615392565b600080600080600060a086880312156159fd57600080fd5b8535615a0881614e37565b94506020860135615a1881614e37565b93506040860135925060608601359150608086013567ffffffffffffffff811115615a4257600080fd5b61526488828901615167565b600181811c90821680615a6257607f821691505b60208210811415611f9257634e487b7160e01b600052602260045260246000fd5b60008251615a95818460208701614ebb565b600360fc1b920191825250600101919050565b60008351615aba818460208801614ebb565b835190830190615ace818360208801614ebb565b01949350505050565b634e487b7160e01b600052601160045260246000fd5b60008219821115615b0057615b00615ad7565b500190565b634e487b7160e01b600052603260045260246000fd5b6000823560fe19833603018112615b3157600080fd5b9190910192915050565b6000808335601e19843603018112615b5257600080fd5b83018035915067ffffffffffffffff821115615b6d57600080fd5b602001915036819003821315614fa157600080fd5b601f82111561199d57600081815260208120601f850160051c81016020861015615ba95750805b601f850160051c820191505b8181101561319257828155600101615bb5565b67ffffffffffffffff831115615be057615be0615067565b615bf483615bee8354615a4e565b83615b82565b6000601f841160018114615c285760008515615c105750838201355b600019600387901b1c1916600186901b178355611409565b600083815260209020601f19861690835b82811015615c595786850135825560209485019460019092019101615c39565b5086821015615c765760001960f88860031b161c19848701351681555b505060018560011b0183555050505050565b813581556020820135600182015560408201356002820155606082013560038201556080820135600482015560a082013560058201556006810160c0830135615cd081614e37565b81546001600160a01b0319166001600160a01b0391909116179055615cf860e0830183615b3b565b613700818360078601615bc8565b6000600019821415615d1a57615d1a615ad7565b5060010190565b6000808335601e19843603018112615d3857600080fd5b830160208101925035905067ffffffffffffffff811115615d5857600080fd5b803603831315614fa157600080fd5b81835281816020850137506000828201602090810191909152601f909101601f19169091010190565b60408082528181018490526000906060808401600587901b850182018885805b8a811015615e6257888403605f190185528235368d900360fe19018112615dd5578283fd5b8c018035855260208082013581870152888201358987015287820135888701526080808301359087015260a080830135908701526101009060c080840135615e1c81614e37565b6001600160a01b03169088015260e0615e3784820185615d21565b945083828a0152615e4b848a018683615d67565b998301999850505094909401935050600101615db0565b5050508615156020870152935061186592505050565b6000816000190483118215151615615e9257615e92615ad7565b500290565b634e487b7160e01b600052601260045260246000fd5b600082615ebc57615ebc615e97565b500490565b600082821015615ed357615ed3615ad7565b500390565b600081615ee757615ee7615ad7565b506000190190565b60008060408385031215615f0257600080fd5b825167ffffffffffffffff811115615f1957600080fd5b8301601f81018513615f2a57600080fd5b8051615f358161513f565b604051615f42828261507d565b828152876020848601011115615f5757600080fd5b615f68836020830160208701614ebb565b6020969096015195979596505050505050565b60008551615f8d818460208a01614ebb565b820184868237909301918252506020019392505050565b60008060408385031215615fb757600080fd5b823567ffffffffffffffff811115615fce57600080fd5b615fda85828601615167565b95602094909401359450505050565b82848237909101908152602001919050565b6000808335601e1984360301811261601257600080fd5b83018035915067ffffffffffffffff82111561602d57600080fd5b6020019150600581901b3603821315614fa157600080fd5b60008261605457616054615e97565b500690565b7f5065726d697373696f6e733a206163636f756e74200000000000000000000000815260008351616091816015850160208801614ebb565b7f206973206d697373696e6720726f6c652000000000000000000000000000000060159184019182015283516160ce816026840160208801614ebb565b01602601949350505050565b6040815260006160ed6040830185615344565b8281036020840152613ac08185615344565b6040815260006161126040830185614ee7565b8281036020840152613ac08185614ee7565b60008251615b31818460208701614ebb565b858152606060208201526000616150606083018688615d67565b8281036040840152616163818587615d67565b98975050505050505050565b6020808252602b908201527f496e697469616c697a61626c653a20636f6e7472616374206973206e6f74206960408201526a6e697469616c697a696e6760a81b606082015260800190565b60006001600160a01b03808816835280871660208401525060a060408301526161e660a0830186615344565b82810360608401526161f88186615344565b905082810360808401526161638185614ee7565b60006020828403121561621e57600080fd5b81516140d981614e88565b600060033d111561410a5760046000803e5060005160e01c90565b600060443d10156162525790565b6040516003193d81016004833e81513d67ffffffffffffffff816024840111818411171561628257505050505090565b828501915081518181111561629a5750505050505090565b843d87010160208285010111156162b45750505050505090565b6162c36020828601018761507d565b509095945050505050565b60006001600160a01b03808816835280871660208401525084604083015283606083015260a060808301526120c260a0830184614ee7565b60006020828403121561631857600080fd5b81516140d981614fa856fe416464726573733a206c6f772d6c6576656c2064656c65676174652063616c6c206661696c6564a26469706673582212200b3ece6ee0881e10b2625c400937cb0c6183aca0d5625fdb3958369f7d7397a264736f6c634300080c0033",
  "linkReferences": {},
  "deployedLinkReferences": {}
}