{
  "_format": "hh-sol-artifact-1",
  "contractName": "DropERC20",
  "sourceName": "contracts/drop/DropERC20.sol",
  "abi": [
    {
      "inputs": [],
      "stateMutability": "nonpayable",
      "type": "constructor"
    },
    {
      "anonymous": false,
      "inputs": [
        {
          "indexed": true,
          "internalType": "address",
          "name": "owner",
          "type": "address"
        },
        {
          "indexed": true,
          "internalType": "address",
          "name": "spender",
          "type": "address"
        },
        {
          "indexed": false,
          "internalType": "uint256",
          "name": "value",
          "type": "uint256"
        }
      ],
      "name": "Approval",
      "type": "event"
    },
    {
      "anonymous": false,
      "inputs": [
        {
          "components": [
            {
              "internalType": "uint256",
              "name": "startTimestamp",
              "type": "uint256"
            },
            {
              "internalType": "uint256",
              "name": "maxClaimableSupply",
              "type": "uint256"
            },
            {
              "internalType": "uint256",
              "name": "supplyClaimed",
              "type": "uint256"
            },
            {
              "internalType": "uint256",
              "name": "quantityLimitPerWallet",
              "type": "uint256"
            },
            {
              "internalType": "bytes32",
              "name": "merkleRoot",
              "type": "bytes32"
            },
            {
              "internalType": "uint256",
              "name": "pricePerToken",
              "type": "uint256"
            },
            {
              "internalType": "address",
              "name": "currency",
              "type": "address"
            },
            {
              "internalType": "string",
              "name": "metadata",
              "type": "string"
            }
          ],
          "indexed": false,
          "internalType": "struct IClaimCondition.ClaimCondition[]",
          "name": "claimConditions",
          "type": "tuple[]"
        },
        {
          "indexed": false,
          "internalType": "bool",
          "name": "resetEligibility",
          "type": "bool"
        }
      ],
      "name": "ClaimConditionsUpdated",
      "type": "event"
    },
    {
      "anonymous": false,
      "inputs": [
        {
          "indexed": false,
          "internalType": "string",
          "name": "prevURI",
          "type": "string"
        },
        {
          "indexed": false,
          "internalType": "string",
          "name": "newURI",
          "type": "string"
        }
      ],
      "name": "ContractURIUpdated",
      "type": "event"
    },
    {
      "anonymous": false,
      "inputs": [
        {
          "indexed": true,
          "internalType": "address",
          "name": "delegator",
          "type": "address"
        },
        {
          "indexed": true,
          "internalType": "address",
          "name": "fromDelegate",
          "type": "address"
        },
        {
          "indexed": true,
          "internalType": "address",
          "name": "toDelegate",
          "type": "address"
        }
      ],
      "name": "DelegateChanged",
      "type": "event"
    },
    {
      "anonymous": false,
      "inputs": [
        {
          "indexed": true,
          "internalType": "address",
          "name": "delegate",
          "type": "address"
        },
        {
          "indexed": false,
          "internalType": "uint256",
          "name": "previousBalance",
          "type": "uint256"
        },
        {
          "indexed": false,
          "internalType": "uint256",
          "name": "newBalance",
          "type": "uint256"
        }
      ],
      "name": "DelegateVotesChanged",
      "type": "event"
    },
    {
      "anonymous": false,
      "inputs": [
        {
          "indexed": false,
          "internalType": "uint8",
          "name": "version",
          "type": "uint8"
        }
      ],
      "name": "Initialized",
      "type": "event"
    },
    {
      "anonymous": false,
      "inputs": [
        {
          "indexed": false,
          "internalType": "uint256",
          "name": "maxTotalSupply",
          "type": "uint256"
        }
      ],
      "name": "MaxTotalSupplyUpdated",
      "type": "event"
    },
    {
      "anonymous": false,
      "inputs": [
        {
          "indexed": true,
          "internalType": "address",
          "name": "platformFeeRecipient",
          "type": "address"
        },
        {
          "indexed": false,
          "internalType": "uint256",
          "name": "platformFeeBps",
          "type": "uint256"
        }
      ],
      "name": "PlatformFeeInfoUpdated",
      "type": "event"
    },
    {
      "anonymous": false,
      "inputs": [
        {
          "indexed": true,
          "internalType": "address",
          "name": "recipient",
          "type": "address"
        }
      ],
      "name": "PrimarySaleRecipientUpdated",
      "type": "event"
    },
    {
      "anonymous": false,
      "inputs": [
        {
          "indexed": true,
          "internalType": "bytes32",
          "name": "role",
          "type": "bytes32"
        },
        {
          "indexed": true,
          "internalType": "bytes32",
          "name": "previousAdminRole",
          "type": "bytes32"
        },
        {
          "indexed": true,
          "internalType": "bytes32",
          "name": "newAdminRole",
          "type": "bytes32"
        }
      ],
      "name": "RoleAdminChanged",
      "type": "event"
    },
    {
      "anonymous": false,
      "inputs": [
        {
          "indexed": true,
          "internalType": "bytes32",
          "name": "role",
          "type": "bytes32"
        },
        {
          "indexed": true,
          "internalType": "address",
          "name": "account",
          "type": "address"
        },
        {
          "indexed": true,
          "internalType": "address",
          "name": "sender",
          "type": "address"
        }
      ],
      "name": "RoleGranted",
      "type": "event"
    },
    {
      "anonymous": false,
      "inputs": [
        {
          "indexed": true,
          "internalType": "bytes32",
          "name": "role",
          "type": "bytes32"
        },
        {
          "indexed": true,
          "internalType": "address",
          "name": "account",
          "type": "address"
        },
        {
          "indexed": true,
          "internalType": "address",
          "name": "sender",
          "type": "address"
        }
      ],
      "name": "RoleRevoked",
      "type": "event"
    },
    {
      "anonymous": false,
      "inputs": [
        {
          "indexed": true,
          "internalType": "uint256",
          "name": "claimConditionIndex",
          "type": "uint256"
        },
        {
          "indexed": true,
          "internalType": "address",
          "name": "claimer",
          "type": "address"
        },
        {
          "indexed": true,
          "internalType": "address",
          "name": "receiver",
          "type": "address"
        },
        {
          "indexed": false,
          "internalType": "uint256",
          "name": "startTokenId",
          "type": "uint256"
        },
        {
          "indexed": false,
          "internalType": "uint256",
          "name": "quantityClaimed",
          "type": "uint256"
        }
      ],
      "name": "TokensClaimed",
      "type": "event"
    },
    {
      "anonymous": false,
      "inputs": [
        {
          "indexed": true,
          "internalType": "address",
          "name": "from",
          "type": "address"
        },
        {
          "indexed": true,
          "internalType": "address",
          "name": "to",
          "type": "address"
        },
        {
          "indexed": false,
          "internalType": "uint256",
          "name": "value",
          "type": "uint256"
        }
      ],
      "name": "Transfer",
      "type": "event"
    },
    {
      "inputs": [],
      "name": "DEFAULT_ADMIN_ROLE",
      "outputs": [
        {
          "internalType": "bytes32",
          "name": "",
          "type": "bytes32"
        }
      ],
      "stateMutability": "view",
      "type": "function"
    },
    {
      "inputs": [],
      "name": "DOMAIN_SEPARATOR",
      "outputs": [
        {
          "internalType": "bytes32",
          "name": "",
          "type": "bytes32"
        }
      ],
      "stateMutability": "view",
      "type": "function"
    },
    {
      "inputs": [
        {
          "internalType": "address",
          "name": "owner",
          "type": "address"
        },
        {
          "internalType": "address",
          "name": "spender",
          "type": "address"
        }
      ],
      "name": "allowance",
      "outputs": [
        {
          "internalType": "uint256",
          "name": "",
          "type": "uint256"
        }
      ],
      "stateMutability": "view",
      "type": "function"
    },
    {
      "inputs": [
        {
          "internalType": "address",
          "name": "spender",
          "type": "address"
        },
        {
          "internalType": "uint256",
          "name": "amount",
          "type": "uint256"
        }
      ],
      "name": "approve",
      "outputs": [
        {
          "internalType": "bool",
          "name": "",
          "type": "bool"
        }
      ],
      "stateMutability": "nonpayable",
      "type": "function"
    },
    {
      "inputs": [
        {
          "internalType": "address",
          "name": "account",
          "type": "address"
        }
      ],
      "name": "balanceOf",
      "outputs": [
        {
          "internalType": "uint256",
          "name": "",
          "type": "uint256"
        }
      ],
      "stateMutability": "view",
      "type": "function"
    },
    {
      "inputs": [
        {
          "internalType": "uint256",
          "name": "amount",
          "type": "uint256"
        }
      ],
      "name": "burn",
      "outputs": [],
      "stateMutability": "nonpayable",
      "type": "function"
    },
    {
      "inputs": [
        {
          "internalType": "address",
          "name": "account",
          "type": "address"
        },
        {
          "internalType": "uint256",
          "name": "amount",
          "type": "uint256"
        }
      ],
      "name": "burnFrom",
      "outputs": [],
      "stateMutability": "nonpayable",
      "type": "function"
    },
    {
      "inputs": [
        {
          "internalType": "address",
          "name": "account",
          "type": "address"
        },
        {
          "internalType": "uint32",
          "name": "pos",
          "type": "uint32"
        }
      ],
      "name": "checkpoints",
      "outputs": [
        {
          "components": [
            {
              "internalType": "uint32",
              "name": "fromBlock",
              "type": "uint32"
            },
            {
              "internalType": "uint224",
              "name": "votes",
              "type": "uint224"
            }
          ],
          "internalType": "struct ERC20VotesUpgradeable.Checkpoint",
          "name": "",
          "type": "tuple"
        }
      ],
      "stateMutability": "view",
      "type": "function"
    },
    {
      "inputs": [
        {
          "internalType": "address",
          "name": "_receiver",
          "type": "address"
        },
        {
          "internalType": "uint256",
          "name": "_quantity",
          "type": "uint256"
        },
        {
          "internalType": "address",
          "name": "_currency",
          "type": "address"
        },
        {
          "internalType": "uint256",
          "name": "_pricePerToken",
          "type": "uint256"
        },
        {
          "components": [
            {
              "internalType": "bytes32[]",
              "name": "proof",
              "type": "bytes32[]"
            },
            {
              "internalType": "uint256",
              "name": "quantityLimitPerWallet",
              "type": "uint256"
            },
            {
              "internalType": "uint256",
              "name": "pricePerToken",
              "type": "uint256"
            },
            {
              "internalType": "address",
              "name": "currency",
              "type": "address"
            }
          ],
          "internalType": "struct IDrop.AllowlistProof",
          "name": "_allowlistProof",
          "type": "tuple"
        },
        {
          "internalType": "bytes",
          "name": "_data",
          "type": "bytes"
        }
      ],
      "name": "claim",
      "outputs": [],
      "stateMutability": "payable",
      "type": "function"
    },
    {
      "inputs": [],
      "name": "claimCondition",
      "outputs": [
        {
          "internalType": "uint256",
          "name": "currentStartId",
          "type": "uint256"
        },
        {
          "internalType": "uint256",
          "name": "count",
          "type": "uint256"
        }
      ],
      "stateMutability": "view",
      "type": "function"
    },
    {
      "inputs": [],
      "name": "contractType",
      "outputs": [
        {
          "internalType": "bytes32",
          "name": "",
          "type": "bytes32"
        }
      ],
      "stateMutability": "pure",
      "type": "function"
    },
    {
      "inputs": [],
      "name": "contractURI",
      "outputs": [
        {
          "internalType": "string",
          "name": "",
          "type": "string"
        }
      ],
      "stateMutability": "view",
      "type": "function"
    },
    {
      "inputs": [],
      "name": "contractVersion",
      "outputs": [
        {
          "internalType": "uint8",
          "name": "",
          "type": "uint8"
        }
      ],
      "stateMutability": "pure",
      "type": "function"
    },
    {
      "inputs": [],
      "name": "decimals",
      "outputs": [
        {
          "internalType": "uint8",
          "name": "",
          "type": "uint8"
        }
      ],
      "stateMutability": "view",
      "type": "function"
    },
    {
      "inputs": [
        {
          "internalType": "address",
          "name": "spender",
          "type": "address"
        },
        {
          "internalType": "uint256",
          "name": "subtractedValue",
          "type": "uint256"
        }
      ],
      "name": "decreaseAllowance",
      "outputs": [
        {
          "internalType": "bool",
          "name": "",
          "type": "bool"
        }
      ],
      "stateMutability": "nonpayable",
      "type": "function"
    },
    {
      "inputs": [
        {
          "internalType": "address",
          "name": "delegatee",
          "type": "address"
        }
      ],
      "name": "delegate",
      "outputs": [],
      "stateMutability": "nonpayable",
      "type": "function"
    },
    {
      "inputs": [
        {
          "internalType": "address",
          "name": "delegatee",
          "type": "address"
        },
        {
          "internalType": "uint256",
          "name": "nonce",
          "type": "uint256"
        },
        {
          "internalType": "uint256",
          "name": "expiry",
          "type": "uint256"
        },
        {
          "internalType": "uint8",
          "name": "v",
          "type": "uint8"
        },
        {
          "internalType": "bytes32",
          "name": "r",
          "type": "bytes32"
        },
        {
          "internalType": "bytes32",
          "name": "s",
          "type": "bytes32"
        }
      ],
      "name": "delegateBySig",
      "outputs": [],
      "stateMutability": "nonpayable",
      "type": "function"
    },
    {
      "inputs": [
        {
          "internalType": "address",
          "name": "account",
          "type": "address"
        }
      ],
      "name": "delegates",
      "outputs": [
        {
          "internalType": "address",
          "name": "",
          "type": "address"
        }
      ],
      "stateMutability": "view",
      "type": "function"
    },
    {
      "inputs": [],
      "name": "getActiveClaimConditionId",
      "outputs": [
        {
          "internalType": "uint256",
          "name": "",
          "type": "uint256"
        }
      ],
      "stateMutability": "view",
      "type": "function"
    },
    {
      "inputs": [
        {
          "internalType": "uint256",
          "name": "_conditionId",
          "type": "uint256"
        }
      ],
      "name": "getClaimConditionById",
      "outputs": [
        {
          "components": [
            {
              "internalType": "uint256",
              "name": "startTimestamp",
              "type": "uint256"
            },
            {
              "internalType": "uint256",
              "name": "maxClaimableSupply",
              "type": "uint256"
            },
            {
              "internalType": "uint256",
              "name": "supplyClaimed",
              "type": "uint256"
            },
            {
              "internalType": "uint256",
              "name": "quantityLimitPerWallet",
              "type": "uint256"
            },
            {
              "internalType": "bytes32",
              "name": "merkleRoot",
              "type": "bytes32"
            },
            {
              "internalType": "uint256",
              "name": "pricePerToken",
              "type": "uint256"
            },
            {
              "internalType": "address",
              "name": "currency",
              "type": "address"
            },
            {
              "internalType": "string",
              "name": "metadata",
              "type": "string"
            }
          ],
          "internalType": "struct IClaimCondition.ClaimCondition",
          "name": "condition",
          "type": "tuple"
        }
      ],
      "stateMutability": "view",
      "type": "function"
    },
    {
      "inputs": [
        {
          "internalType": "uint256",
          "name": "blockNumber",
          "type": "uint256"
        }
      ],
      "name": "getPastTotalSupply",
      "outputs": [
        {
          "internalType": "uint256",
          "name": "",
          "type": "uint256"
        }
      ],
      "stateMutability": "view",
      "type": "function"
    },
    {
      "inputs": [
        {
          "internalType": "address",
          "name": "account",
          "type": "address"
        },
        {
          "internalType": "uint256",
          "name": "blockNumber",
          "type": "uint256"
        }
      ],
      "name": "getPastVotes",
      "outputs": [
        {
          "internalType": "uint256",
          "name": "",
          "type": "uint256"
        }
      ],
      "stateMutability": "view",
      "type": "function"
    },
    {
      "inputs": [],
      "name": "getPlatformFeeInfo",
      "outputs": [
        {
          "internalType": "address",
          "name": "",
          "type": "address"
        },
        {
          "internalType": "uint16",
          "name": "",
          "type": "uint16"
        }
      ],
      "stateMutability": "view",
      "type": "function"
    },
    {
      "inputs": [
        {
          "internalType": "bytes32",
          "name": "role",
          "type": "bytes32"
        }
      ],
      "name": "getRoleAdmin",
      "outputs": [
        {
          "internalType": "bytes32",
          "name": "",
          "type": "bytes32"
        }
      ],
      "stateMutability": "view",
      "type": "function"
    },
    {
      "inputs": [
        {
          "internalType": "bytes32",
          "name": "role",
          "type": "bytes32"
        },
        {
          "internalType": "uint256",
          "name": "index",
          "type": "uint256"
        }
      ],
      "name": "getRoleMember",
      "outputs": [
        {
          "internalType": "address",
          "name": "member",
          "type": "address"
        }
      ],
      "stateMutability": "view",
      "type": "function"
    },
    {
      "inputs": [
        {
          "internalType": "bytes32",
          "name": "role",
          "type": "bytes32"
        }
      ],
      "name": "getRoleMemberCount",
      "outputs": [
        {
          "internalType": "uint256",
          "name": "count",
          "type": "uint256"
        }
      ],
      "stateMutability": "view",
      "type": "function"
    },
    {
      "inputs": [
        {
          "internalType": "uint256",
          "name": "_conditionId",
          "type": "uint256"
        },
        {
          "internalType": "address",
          "name": "_claimer",
          "type": "address"
        }
      ],
      "name": "getSupplyClaimedByWallet",
      "outputs": [
        {
          "internalType": "uint256",
          "name": "supplyClaimedByWallet",
          "type": "uint256"
        }
      ],
      "stateMutability": "view",
      "type": "function"
    },
    {
      "inputs": [
        {
          "internalType": "address",
          "name": "account",
          "type": "address"
        }
      ],
      "name": "getVotes",
      "outputs": [
        {
          "internalType": "uint256",
          "name": "",
          "type": "uint256"
        }
      ],
      "stateMutability": "view",
      "type": "function"
    },
    {
      "inputs": [
        {
          "internalType": "bytes32",
          "name": "role",
          "type": "bytes32"
        },
        {
          "internalType": "address",
          "name": "account",
          "type": "address"
        }
      ],
      "name": "grantRole",
      "outputs": [],
      "stateMutability": "nonpayable",
      "type": "function"
    },
    {
      "inputs": [
        {
          "internalType": "bytes32",
          "name": "role",
          "type": "bytes32"
        },
        {
          "internalType": "address",
          "name": "account",
          "type": "address"
        }
      ],
      "name": "hasRole",
      "outputs": [
        {
          "internalType": "bool",
          "name": "",
          "type": "bool"
        }
      ],
      "stateMutability": "view",
      "type": "function"
    },
    {
      "inputs": [
        {
          "internalType": "bytes32",
          "name": "role",
          "type": "bytes32"
        },
        {
          "internalType": "address",
          "name": "account",
          "type": "address"
        }
      ],
      "name": "hasRoleWithSwitch",
      "outputs": [
        {
          "internalType": "bool",
          "name": "",
          "type": "bool"
        }
      ],
      "stateMutability": "view",
      "type": "function"
    },
    {
      "inputs": [
        {
          "internalType": "address",
          "name": "spender",
          "type": "address"
        },
        {
          "internalType": "uint256",
          "name": "addedValue",
          "type": "uint256"
        }
      ],
      "name": "increaseAllowance",
      "outputs": [
        {
          "internalType": "bool",
          "name": "",
          "type": "bool"
        }
      ],
      "stateMutability": "nonpayable",
      "type": "function"
    },
    {
      "inputs": [
        {
          "internalType": "address",
          "name": "_defaultAdmin",
          "type": "address"
        },
        {
          "internalType": "string",
          "name": "_name",
          "type": "string"
        },
        {
          "internalType": "string",
          "name": "_symbol",
          "type": "string"
        },
        {
          "internalType": "string",
          "name": "_contractURI",
          "type": "string"
        },
        {
          "internalType": "address[]",
          "name": "_trustedForwarders",
          "type": "address[]"
        },
        {
          "internalType": "address",
          "name": "_saleRecipient",
          "type": "address"
        },
        {
          "internalType": "address",
          "name": "_platformFeeRecipient",
          "type": "address"
        },
        {
          "internalType": "uint128",
          "name": "_platformFeeBps",
          "type": "uint128"
        }
      ],
      "name": "initialize",
      "outputs": [],
      "stateMutability": "nonpayable",
      "type": "function"
    },
    {
      "inputs": [
        {
          "internalType": "address",
          "name": "forwarder",
          "type": "address"
        }
      ],
      "name": "isTrustedForwarder",
      "outputs": [
        {
          "internalType": "bool",
          "name": "",
          "type": "bool"
        }
      ],
      "stateMutability": "view",
      "type": "function"
    },
    {
      "inputs": [],
      "name": "maxTotalSupply",
      "outputs": [
        {
          "internalType": "uint256",
          "name": "",
          "type": "uint256"
        }
      ],
      "stateMutability": "view",
      "type": "function"
    },
    {
      "inputs": [
        {
          "internalType": "bytes[]",
          "name": "data",
          "type": "bytes[]"
        }
      ],
      "name": "multicall",
      "outputs": [
        {
          "internalType": "bytes[]",
          "name": "results",
          "type": "bytes[]"
        }
      ],
      "stateMutability": "nonpayable",
      "type": "function"
    },
    {
      "inputs": [],
      "name": "name",
      "outputs": [
        {
          "internalType": "string",
          "name": "",
          "type": "string"
        }
      ],
      "stateMutability": "view",
      "type": "function"
    },
    {
      "inputs": [
        {
          "internalType": "address",
          "name": "owner",
          "type": "address"
        }
      ],
      "name": "nonces",
      "outputs": [
        {
          "internalType": "uint256",
          "name": "",
          "type": "uint256"
        }
      ],
      "stateMutability": "view",
      "type": "function"
    },
    {
      "inputs": [
        {
          "internalType": "address",
          "name": "account",
          "type": "address"
        }
      ],
      "name": "numCheckpoints",
      "outputs": [
        {
          "internalType": "uint32",
          "name": "",
          "type": "uint32"
        }
      ],
      "stateMutability": "view",
      "type": "function"
    },
    {
      "inputs": [
        {
          "internalType": "address",
          "name": "owner",
          "type": "address"
        },
        {
          "internalType": "address",
          "name": "spender",
          "type": "address"
        },
        {
          "internalType": "uint256",
          "name": "value",
          "type": "uint256"
        },
        {
          "internalType": "uint256",
          "name": "deadline",
          "type": "uint256"
        },
        {
          "internalType": "uint8",
          "name": "v",
          "type": "uint8"
        },
        {
          "internalType": "bytes32",
          "name": "r",
          "type": "bytes32"
        },
        {
          "internalType": "bytes32",
          "name": "s",
          "type": "bytes32"
        }
      ],
      "name": "permit",
      "outputs": [],
      "stateMutability": "nonpayable",
      "type": "function"
    },
    {
      "inputs": [],
      "name": "primarySaleRecipient",
      "outputs": [
        {
          "internalType": "address",
          "name": "",
          "type": "address"
        }
      ],
      "stateMutability": "view",
      "type": "function"
    },
    {
      "inputs": [
        {
          "internalType": "bytes32",
          "name": "role",
          "type": "bytes32"
        },
        {
          "internalType": "address",
          "name": "account",
          "type": "address"
        }
      ],
      "name": "renounceRole",
      "outputs": [],
      "stateMutability": "nonpayable",
      "type": "function"
    },
    {
      "inputs": [
        {
          "internalType": "bytes32",
          "name": "role",
          "type": "bytes32"
        },
        {
          "internalType": "address",
          "name": "account",
          "type": "address"
        }
      ],
      "name": "revokeRole",
      "outputs": [],
      "stateMutability": "nonpayable",
      "type": "function"
    },
    {
      "inputs": [
        {
          "components": [
            {
              "internalType": "uint256",
              "name": "startTimestamp",
              "type": "uint256"
            },
            {
              "internalType": "uint256",
              "name": "maxClaimableSupply",
              "type": "uint256"
            },
            {
              "internalType": "uint256",
              "name": "supplyClaimed",
              "type": "uint256"
            },
            {
              "internalType": "uint256",
              "name": "quantityLimitPerWallet",
              "type": "uint256"
            },
            {
              "internalType": "bytes32",
              "name": "merkleRoot",
              "type": "bytes32"
            },
            {
              "internalType": "uint256",
              "name": "pricePerToken",
              "type": "uint256"
            },
            {
              "internalType": "address",
              "name": "currency",
              "type": "address"
            },
            {
              "internalType": "string",
              "name": "metadata",
              "type": "string"
            }
          ],
          "internalType": "struct IClaimCondition.ClaimCondition[]",
          "name": "_conditions",
          "type": "tuple[]"
        },
        {
          "internalType": "bool",
          "name": "_resetClaimEligibility",
          "type": "bool"
        }
      ],
      "name": "setClaimConditions",
      "outputs": [],
      "stateMutability": "nonpayable",
      "type": "function"
    },
    {
      "inputs": [
        {
          "internalType": "string",
          "name": "_uri",
          "type": "string"
        }
      ],
      "name": "setContractURI",
      "outputs": [],
      "stateMutability": "nonpayable",
      "type": "function"
    },
    {
      "inputs": [
        {
          "internalType": "uint256",
          "name": "_maxTotalSupply",
          "type": "uint256"
        }
      ],
      "name": "setMaxTotalSupply",
      "outputs": [],
      "stateMutability": "nonpayable",
      "type": "function"
    },
    {
      "inputs": [
        {
          "internalType": "address",
          "name": "_platformFeeRecipient",
          "type": "address"
        },
        {
          "internalType": "uint256",
          "name": "_platformFeeBps",
          "type": "uint256"
        }
      ],
      "name": "setPlatformFeeInfo",
      "outputs": [],
      "stateMutability": "nonpayable",
      "type": "function"
    },
    {
      "inputs": [
        {
          "internalType": "address",
          "name": "_saleRecipient",
          "type": "address"
        }
      ],
      "name": "setPrimarySaleRecipient",
      "outputs": [],
      "stateMutability": "nonpayable",
      "type": "function"
    },
    {
      "inputs": [],
      "name": "symbol",
      "outputs": [
        {
          "internalType": "string",
          "name": "",
          "type": "string"
        }
      ],
      "stateMutability": "view",
      "type": "function"
    },
    {
      "inputs": [],
      "name": "totalSupply",
      "outputs": [
        {
          "internalType": "uint256",
          "name": "",
          "type": "uint256"
        }
      ],
      "stateMutability": "view",
      "type": "function"
    },
    {
      "inputs": [
        {
          "internalType": "address",
          "name": "to",
          "type": "address"
        },
        {
          "internalType": "uint256",
          "name": "amount",
          "type": "uint256"
        }
      ],
      "name": "transfer",
      "outputs": [
        {
          "internalType": "bool",
          "name": "",
          "type": "bool"
        }
      ],
      "stateMutability": "nonpayable",
      "type": "function"
    },
    {
      "inputs": [
        {
          "internalType": "address",
          "name": "from",
          "type": "address"
        },
        {
          "internalType": "address",
          "name": "to",
          "type": "address"
        },
        {
          "internalType": "uint256",
          "name": "amount",
          "type": "uint256"
        }
      ],
      "name": "transferFrom",
      "outputs": [
        {
          "internalType": "bool",
          "name": "",
          "type": "bool"
        }
      ],
      "stateMutability": "nonpayable",
      "type": "function"
    },
    {
      "inputs": [
        {
          "internalType": "uint256",
          "name": "_conditionId",
          "type": "uint256"
        },
        {
          "internalType": "address",
          "name": "_claimer",
          "type": "address"
        },
        {
          "internalType": "uint256",
          "name": "_quantity",
          "type": "uint256"
        },
        {
          "internalType": "address",
          "name": "_currency",
          "type": "address"
        },
        {
          "internalType": "uint256",
          "name": "_pricePerToken",
          "type": "uint256"
        },
        {
          "components": [
            {
              "internalType": "bytes32[]",
              "name": "proof",
              "type": "bytes32[]"
            },
            {
              "internalType": "uint256",
              "name": "quantityLimitPerWallet",
              "type": "uint256"
            },
            {
              "internalType": "uint256",
              "name": "pricePerToken",
              "type": "uint256"
            },
            {
              "internalType": "address",
              "name": "currency",
              "type": "address"
            }
          ],
          "internalType": "struct IDrop.AllowlistProof",
          "name": "_allowlistProof",
          "type": "tuple"
        }
      ],
      "name": "verifyClaim",
      "outputs": [],
      "stateMutability": "view",
      "type": "function"
    }
  ],
  "bytecode": "0x60806040523480156200001157600080fd5b50600054610100900460ff1615808015620000335750600054600160ff909116105b8062000063575062000050306200013d60201b620023e81760201c565b15801562000063575060005460ff166001145b620000cb5760405162461bcd60e51b815260206004820152602e60248201527f496e697469616c697a61626c653a20636f6e747261637420697320616c72656160448201526d191e481a5b9a5d1a585b1a5e995960921b606482015260840160405180910390fd5b6000805460ff191660011790558015620000ef576000805461ff0019166101001790555b801562000136576000805461ff0019169055604051600181527f7f26b83ff96e1f2b6a682f133852f6798a09c465da95921460cefb38474024989060200160405180910390a15b506200014c565b6001600160a01b03163b151590565b61530e806200015c6000396000f3fe60806040526004361061034a5760003560e01c806379cc6790116101bb578063a9059cbb116100f7578063d45573f611610095578063d637ed591161006f578063d637ed5914610a34578063dd62ed3e14610a64578063e8a3d48514610aaa578063f1127ed814610abf57600080fd5b8063d45573f6146109bd578063d505accf146109f4578063d547741f14610a1457600080fd5b8063c3cda520116100d1578063c3cda52014610949578063c68907de14610969578063ca15c8731461097e578063cb2ef6f71461099e57600080fd5b8063a9059cbb146108ba578063ac9650d8146108da578063ad1eefc51461090757600080fd5b8063938e3d7b11610164578063a0a8e4601161013e578063a0a8e46014610851578063a217fddf14610865578063a32fa5b31461087a578063a457c2d71461089a57600080fd5b8063938e3d7b146107fc57806395d89b411461081c5780639ab24eb01461083157600080fd5b80638e539e8c116101955780638e539e8c146107765780639010d07c1461079657806391d14854146107b657600080fd5b806379cc6790146107235780637ecebe001461074357806384bb1e421461076357600080fd5b8063395093511161028a578063587cde1e116102335780636f8934f41161020d5780636f8934f41461066b5780636fcfff451461069857806370a08231146106cd57806374bc7db71461070357600080fd5b8063587cde1e146105f15780635c19a95c1461062b5780636f4f28371461064b57600080fd5b806342966c681161026457806342966c681461057857806349c5c5b614610598578063572b6c05146105b857600080fd5b806339509351146105185780633a46b1a8146105385780633f3e4c111461055857600080fd5b806323b872dd116102f75780632f2ff15d116102d15780632f2ff15d146104a1578063313ce567146104c15780633644e515146104e357806336568abe146104f857600080fd5b806323b872dd1461043d578063248a9ca31461045d5780632ab4d0521461048a57600080fd5b806318160ddd1161032857806318160ddd146103dc5780631e7ac488146103fb57806323a2902b1461041d57600080fd5b806306fdde031461034f578063079fe40e1461037a578063095ea7b3146103ac575b600080fd5b34801561035b57600080fd5b50610364610b09565b6040516103719190614509565b60405180910390f35b34801561038657600080fd5b506003546001600160a01b03165b6040516001600160a01b039091168152602001610371565b3480156103b857600080fd5b506103cc6103c7366004614541565b610b9b565b6040519015158152602001610371565b3480156103e857600080fd5b5060a3545b604051908152602001610371565b34801561040757600080fd5b5061041b610416366004614541565b610bbf565b005b34801561042957600080fd5b5061041b61043836600461457f565b610c17565b34801561044957600080fd5b506103cc6104583660046145fd565b610fe9565b34801561046957600080fd5b506103ed61047836600461463e565b60009081526005602052604090205490565b34801561049657600080fd5b506103ed61019f5481565b3480156104ad57600080fd5b5061041b6104bc366004614657565b611019565b3480156104cd57600080fd5b5060125b60405160ff9091168152602001610371565b3480156104ef57600080fd5b506103ed6110af565b34801561050457600080fd5b5061041b610513366004614657565b6110be565b34801561052457600080fd5b506103cc610533366004614541565b611120565b34801561054457600080fd5b506103ed610553366004614541565b611172565b34801561056457600080fd5b5061041b61057336600461463e565b6111e6565b34801561058457600080fd5b5061041b61059336600461463e565b611230565b3480156105a457600080fd5b5061041b6105b33660046147e4565b611244565b3480156105c457600080fd5b506103cc6105d33660046148d4565b6001600160a01b03166000908152603d602052604090205460ff1690565b3480156105fd57600080fd5b5061039461060c3660046148d4565b6001600160a01b03908116600090815261016c60205260409020541690565b34801561063757600080fd5b5061041b6106463660046148d4565b6113e4565b34801561065757600080fd5b5061041b6106663660046148d4565b6113f5565b34801561067757600080fd5b5061068b61068636600461463e565b611443565b60405161037191906148f1565b3480156106a457600080fd5b506106b86106b33660046148d4565b6115a0565b60405163ffffffff9091168152602001610371565b3480156106d957600080fd5b506103ed6106e83660046148d4565b6001600160a01b0316600090815260a1602052604090205490565b34801561070f57600080fd5b5061041b61071e3660046149b9565b6115c3565b34801561072f57600080fd5b5061041b61073e366004614541565b611933565b34801561074f57600080fd5b506103ed61075e3660046148d4565b61194f565b61041b610771366004614a10565b61196e565b34801561078257600080fd5b506103ed61079136600461463e565b611a93565b3480156107a257600080fd5b506103946107b1366004614ab2565b611af0565b3480156107c257600080fd5b506103cc6107d1366004614657565b60009182526004602090815260408084206001600160a01b0393909316845291905290205460ff1690565b34801561080857600080fd5b5061041b610817366004614ad4565b611bf1565b34801561082857600080fd5b50610364611c3f565b34801561083d57600080fd5b506103ed61084c3660046148d4565b611c4e565b34801561085d57600080fd5b5060046104d1565b34801561087157600080fd5b506103ed600081565b34801561088657600080fd5b506103cc610895366004614657565b611cd7565b3480156108a657600080fd5b506103cc6108b5366004614541565b611d2d565b3480156108c657600080fd5b506103cc6108d5366004614541565b611dd7565b3480156108e657600080fd5b506108fa6108f5366004614b09565b611def565b6040516103719190614b4b565b34801561091357600080fd5b506103ed610922366004614657565b6000918252600a602090815260408084206001600160a01b03909316845291905290205490565b34801561095557600080fd5b5061041b610964366004614bbe565b611ee4565b34801561097557600080fd5b506103ed61201a565b34801561098a57600080fd5b506103ed61099936600461463e565b6120bd565b3480156109aa57600080fd5b5068044726f7045524332360bc1b6103ed565b3480156109c957600080fd5b50600254604080516001600160a01b0383168152600160a01b90920461ffff16602083015201610371565b348015610a0057600080fd5b5061041b610a0f366004614c18565b612158565b348015610a2057600080fd5b5061041b610a2f366004614657565b6122bc565b348015610a4057600080fd5b50600754600854610a4f919082565b60408051928352602083019190915201610371565b348015610a7057600080fd5b506103ed610a7f366004614c86565b6001600160a01b03918216600090815260a26020908152604080832093909416825291909152205490565b348015610ab657600080fd5b506103646122d5565b348015610acb57600080fd5b50610adf610ada366004614cb4565b612363565b60408051825163ffffffff1681526020928301516001600160e01b03169281019290925201610371565b606060a48054610b1890614ceb565b80601f0160208091040260200160405190810160405280929190818152602001828054610b4490614ceb565b8015610b915780601f10610b6657610100808354040283529160200191610b91565b820191906000526020600020905b815481529060010190602001808311610b7457829003601f168201915b5050505050905090565b600080610ba66123f7565b9050610bb3818585612401565b60019150505b92915050565b610bc7612525565b610c095760405162461bcd60e51b815260206004820152600e60248201526d139bdd08185d5d1a1bdc9a5e995960921b60448201526064015b60405180910390fd5b610c138282612533565b5050565b6000868152600960209081526040808320815161010081018352815481526001820154938101939093526002810154918301919091526003810154606083015260048101546080830152600581015460a083015260068101546001600160a01b031660c083015260078101805460e084019190610c9390614ceb565b80601f0160208091040260200160405190810160405280929190818152602001828054610cbf90614ceb565b8015610d0c5780601f10610ce157610100808354040283529160200191610d0c565b820191906000526020600020905b815481529060010190602001808311610cef57829003601f168201915b50505091909252505050606081015160a082015160c0830151608084015193945060009315610def57610deb610d428780614d20565b80806020026020016040519081016040528093929190818152602001838360200280828437600092019190915250505060808089015191508d9060208b01359060408c013590610d97908d0160608e016148d4565b6040516bffffffffffffffffffffffff19606095861b811660208301526034820194909452605481019290925290921b166074820152608801604051602081830303815290604052805190602001206125ff565b5093505b8315610e795760001986602001351415610e095782610e0f565b85602001355b925060001986604001351415610e255781610e2b565b85604001355b9150600019866040013514158015610e5c57506000610e5060808801606089016148d4565b6001600160a01b031614155b610e665780610e76565b610e7660808701606088016148d4565b90505b60008b8152600a602090815260408083206001600160a01b03808f16855292529091205490898116908316141580610eb15750828814155b15610efe5760405162461bcd60e51b815260206004820152601060248201527f2150726963654f7243757272656e6379000000000000000000000000000000006044820152606401610c00565b891580610f13575083610f11828c614d80565b115b15610f495760405162461bcd60e51b8152600401610c00906020808252600490820152632151747960e01b604082015260600190565b85602001518a8760400151610f5e9190614d80565b1115610f995760405162461bcd60e51b815260206004820152600a602482015269214d6178537570706c7960b01b6044820152606401610c00565b8551421015610fdb5760405162461bcd60e51b815260206004820152600e60248201526d18d85b9d0818db185a5b481e595d60921b6044820152606401610c00565b505050505050505050505050565b600080610ff46123f7565b90506110018582856126cd565b61100c85858561275f565b60019150505b9392505050565b600082815260056020526040902054611032903361293e565b60008281526004602090815260408083206001600160a01b038516845290915290205460ff16156110a55760405162461bcd60e51b815260206004820152601d60248201527f43616e206f6e6c79206772616e7420746f206e6f6e20686f6c646572730000006044820152606401610c00565b610c1382826129be565b60006110b96129d2565b905090565b336001600160a01b038216146111165760405162461bcd60e51b815260206004820152601a60248201527f43616e206f6e6c792072656e6f756e636520666f722073656c660000000000006044820152606401610c00565b610c138282612a4f565b60008061112b6123f7565b9050610bb381858561116385896001600160a01b03918216600090815260a26020908152604080832093909416825291909152205490565b61116d9190614d80565b612401565b60004382106111c35760405162461bcd60e51b815260206004820152601f60248201527f4552433230566f7465733a20626c6f636b206e6f7420796574206d696e6564006044820152606401610c00565b6001600160a01b038316600090815261016d602052604090206110129083612aa6565b60006111f2813361293e565b61019f8290556040518281527ff2672935fc79f5237559e2e2999dbe743bf65430894ac2b37666890e7c69e1af906020015b60405180910390a15050565b61124161123b6123f7565b82612b63565b50565b600054610100900460ff16158080156112645750600054600160ff909116105b8061127e5750303b15801561127e575060005460ff166001145b6112e15760405162461bcd60e51b815260206004820152602e60248201527f496e697469616c697a61626c653a20636f6e747261637420697320616c72656160448201526d191e481a5b9a5d1a585b1a5e995960921b6064820152608401610c00565b6000805460ff191660011790558015611304576000805461ff0019166101001790555b7f8502233096d909befbda0999bb8ea2f3a6be3c138b9fbf003752a4c8bce86f6c61132e86612b6d565b61133789612ba5565b6113418989612bef565b61134a87612c42565b61135560008b6129be565b61135f818b6129be565b61136a8160006129be565b61138684846fffffffffffffffffffffffffffffffff16612533565b61138f85612d18565b61019e5580156113d9576000805461ff0019169055604051600181527f7f26b83ff96e1f2b6a682f133852f6798a09c465da95921460cefb38474024989060200160405180910390a15b505050505050505050565b6112416113ef6123f7565b82612d62565b6113fd612525565b61143a5760405162461bcd60e51b815260206004820152600e60248201526d139bdd08185d5d1a1bdc9a5e995960921b6044820152606401610c00565b61124181612d18565b61149760405180610100016040528060008152602001600081526020016000815260200160008152602001600080191681526020016000815260200160006001600160a01b03168152602001606081525090565b600082815260096020908152604091829020825161010081018452815481526001820154928101929092526002810154928201929092526003820154606082015260048201546080820152600582015460a082015260068201546001600160a01b031660c082015260078201805491929160e08401919061151790614ceb565b80601f016020809104026020016040519081016040528092919081815260200182805461154390614ceb565b80156115905780601f1061156557610100808354040283529160200191611590565b820191906000526020600020905b81548152906001019060200180831161157357829003601f168201915b5050505050815250509050919050565b6001600160a01b038116600090815261016d6020526040812054610bb990612ddd565b6115cb612525565b6116085760405162461bcd60e51b815260206004820152600e60248201526d139bdd08185d5d1a1bdc9a5e995960921b6044820152606401610c00565b6007546008548183156116225761161f8284614d80565b90505b600885905560078190556000805b868110156117e057801580611668575087878281811061165257611652614d98565b90506020028101906116649190614dae565b3582105b6116995760405162461bcd60e51b815260206004820152600260248201526114d560f21b6044820152606401610c00565b60006009816116a88487614d80565b81526020019081526020016000206002015490508888838181106116ce576116ce614d98565b90506020028101906116e09190614dae565b602001358111156117335760405162461bcd60e51b815260206004820152601260248201527f6d617820737570706c7920636c61696d656400000000000000000000000000006044820152606401610c00565b88888381811061174557611745614d98565b90506020028101906117579190614dae565b600960006117658588614d80565b8152602001908152602001600020818161177f9190614f1c565b50819050600960006117918588614d80565b81526020810191909152604001600020600201558888838181106117b7576117b7614d98565b90506020028101906117c99190614dae565b3592508190506117d881614f9a565b915050611630565b50841561186057835b8281101561185a57600081815260096020526040812081815560018101829055600281018290556003810182905560048101829055600581018290556006810180546001600160a01b03191690559061184560078301826143e6565b5050808061185290614f9a565b9150506117e9565b506118ef565b858311156118ef57855b838110156118ed57600960006118808386614d80565b81526020810191909152604001600090812081815560018101829055600281018290556003810182905560048101829055600581018290556006810180546001600160a01b0319169055906118d860078301826143e6565b505080806118e590614f9a565b91505061186a565b505b7fbf4016fceeaaa4ac5cf4be865b559ff85825ab4ca7aa7b661d16e2f544c0309887878760405161192293929190615024565b60405180910390a150505050505050565b6119458261193f6123f7565b836126cd565b610c138282612b63565b6001600160a01b03811660009081526101396020526040812054610bb9565b61197c868686868686612e46565b600061198661201a565b905061199d81611994612eb6565b88888888610c17565b600081815260096020526040812060020180548892906119be908490614d80565b90915550506000818152600a6020526040812087916119db612eb6565b6001600160a01b03166001600160a01b031681526020019081526020016000206000828254611a0a9190614d80565b90915550611a1d90506000878787612ec0565b6000611a298888613020565b9050876001600160a01b0316611a3d612eb6565b6001600160a01b0316837ffa76a4010d9533e3e964f2930a65fb6042a12fa6ff5b08281837a10b0be7321e848b604051611a81929190918252602082015260400190565b60405180910390a45050505050505050565b6000438210611ae45760405162461bcd60e51b815260206004820152601f60248201527f4552433230566f7465733a20626c6f636b206e6f7420796574206d696e6564006044820152606401610c00565b610bb961016e83612aa6565b60008281526006602052604081205481805b82811015611be85760008681526006602090815260408083208484526001019091529020546001600160a01b031615611b7f5784821415611b6d5760008681526006602090815260408083209383526001909301905220546001600160a01b03169250610bb9915050565b611b78600183614d80565b9150611bd6565b600086815260046020908152604080832083805290915290205460ff168015611bc35750600086815260066020908152604080832083805260020190915290205481145b15611bd657611bd3600183614d80565b91505b611be1600182614d80565b9050611b02565b50505092915050565b611bf9612525565b611c365760405162461bcd60e51b815260206004820152600e60248201526d139bdd08185d5d1a1bdc9a5e995960921b6044820152606401610c00565b61124181612c42565b606060a58054610b1890614ceb565b6001600160a01b038116600090815261016d60205260408120548015611cc4576001600160a01b038316600090815261016d60205260409020611c9260018361510c565b81548110611ca257611ca2614d98565b60009182526020909120015464010000000090046001600160e01b0316611cc7565b60005b6001600160e01b03169392505050565b600082815260046020908152604080832083805290915281205460ff16611d24575060008281526004602090815260408083206001600160a01b038516845290915290205460ff16610bb9565b50600192915050565b600080611d386123f7565b6001600160a01b03818116600090815260a2602090815260408083209389168352929052205490915083811015611dbf5760405162461bcd60e51b815260206004820152602560248201527f45524332303a2064656372656173656420616c6c6f77616e63652062656c6f77604482015264207a65726f60d81b6064820152608401610c00565b611dcc8286868403612401565b506001949350505050565b600080611de26123f7565b9050610bb381858561275f565b60608167ffffffffffffffff811115611e0a57611e0a614687565b604051908082528060200260200182016040528015611e3d57816020015b6060815260200190600190039081611e285790505b50905060005b82811015611edd57611ead30858584818110611e6157611e61614d98565b9050602002810190611e739190614dce565b8080601f01602080910402602001604051908101604052809392919081815260200183838082843760009201919091525061303d92505050565b828281518110611ebf57611ebf614d98565b60200260200101819052508080611ed590614f9a565b915050611e43565b5092915050565b83421115611f345760405162461bcd60e51b815260206004820152601d60248201527f4552433230566f7465733a207369676e617475726520657870697265640000006044820152606401610c00565b604080517fe48329057bfd03d55e49b547132e39cffd9c1820ad7b9d4c5307691425d15adf60208201526001600160a01b038816918101919091526060810186905260808101859052600090611fae90611fa69060a00160405160208183030381529060405280519060200120613131565b85858561317f565b9050611fb9816131a9565b86146120075760405162461bcd60e51b815260206004820152601960248201527f4552433230566f7465733a20696e76616c6964206e6f6e6365000000000000006044820152606401610c00565b6120118188612d62565b50505050505050565b600854600754600091829161202f9190614d80565b90505b600754811115612086576009600061204b60018461510c565b81526020019081526020016000206000015442106120745761206e60018261510c565b91505090565b8061207e81615123565b915050612032565b5060405162461bcd60e51b815260206004820152600b60248201526a10a1a7a72224aa24a7a71760a91b6044820152606401610c00565b600081815260066020526040812054815b818110156121215760008481526006602090815260408083208484526001019091529020546001600160a01b03161561210f5761210c600184614d80565b92505b61211a600182614d80565b90506120ce565b50600083815260046020908152604080832083805290915290205460ff16156121525761214f600183614d80565b91505b50919050565b834211156121a85760405162461bcd60e51b815260206004820152601d60248201527f45524332305065726d69743a206578706972656420646561646c696e650000006044820152606401610c00565b60007f6e71edae12b1b97f4d1f60370fef10105fa2faae0126114a169c64845d6126c98888886121d78c6131a9565b6040805160208101969096526001600160a01b0394851690860152929091166060840152608083015260a082015260c0810186905260e001604051602081830303815290604052805190602001209050600061223282613131565b905060006122428287878761317f565b9050896001600160a01b0316816001600160a01b0316146122a55760405162461bcd60e51b815260206004820152601e60248201527f45524332305065726d69743a20696e76616c6964207369676e617475726500006044820152606401610c00565b6122b08a8a8a612401565b50505050505050505050565b600082815260056020526040902054611116903361293e565b600180546122e290614ceb565b80601f016020809104026020016040519081016040528092919081815260200182805461230e90614ceb565b801561235b5780601f106123305761010080835404028352916020019161235b565b820191906000526020600020905b81548152906001019060200180831161233e57829003601f168201915b505050505081565b60408051808201909152600080825260208201526001600160a01b038316600090815261016d60205260409020805463ffffffff84169081106123a8576123a8614d98565b60009182526020918290206040805180820190915291015463ffffffff8116825264010000000090046001600160e01b0316918101919091529392505050565b6001600160a01b03163b151590565b60006110b96131d0565b6001600160a01b0383166124635760405162461bcd60e51b8152602060048201526024808201527f45524332303a20617070726f76652066726f6d20746865207a65726f206164646044820152637265737360e01b6064820152608401610c00565b6001600160a01b0382166124c45760405162461bcd60e51b815260206004820152602260248201527f45524332303a20617070726f766520746f20746865207a65726f206164647265604482015261737360f01b6064820152608401610c00565b6001600160a01b03838116600081815260a2602090815260408083209487168084529482529182902085905590518481527f8c5be1e5ebec7d5bd14f71427d1e84f3dd0314c0f7b2291e5b200ac8c7c3b925910160405180910390a3505050565b60006110b9816107d16123f7565b6127108111156125855760405162461bcd60e51b815260206004820152600f60248201527f45786365656473206d61782062707300000000000000000000000000000000006044820152606401610c00565b6002805475ffffffffffffffffffffffffffffffffffffffffffff1916600160a01b61ffff8416026001600160a01b031916176001600160a01b0384169081179091556040518281527fe2497bd806ec41a6e0dd992c29a72efc0ef8fec9092d1978fd4a1e00b2f183049060200160405180910390a25050565b6000808281805b87518110156126c15761261a60028361513a565b9150600088828151811061263057612630614d98565b602002602001015190508084116126725760408051602081018690529081018290526060016040516020818303038152906040528051906020012093506126ae565b60408051602081018390529081018590526060016040516020818303038152906040528051906020012093506001836126ab9190614d80565b92505b50806126b981614f9a565b915050612606565b50941495939450505050565b6001600160a01b03838116600090815260a260209081526040808320938616835292905220546000198114612759578181101561274c5760405162461bcd60e51b815260206004820152601d60248201527f45524332303a20696e73756666696369656e7420616c6c6f77616e63650000006044820152606401610c00565b6127598484848403612401565b50505050565b6001600160a01b0383166127c35760405162461bcd60e51b815260206004820152602560248201527f45524332303a207472616e736665722066726f6d20746865207a65726f206164604482015264647265737360d81b6064820152608401610c00565b6001600160a01b0382166128255760405162461bcd60e51b815260206004820152602360248201527f45524332303a207472616e7366657220746f20746865207a65726f206164647260448201526265737360e81b6064820152608401610c00565b6128308383836131fa565b6001600160a01b038316600090815260a16020526040902054818110156128a85760405162461bcd60e51b815260206004820152602660248201527f45524332303a207472616e7366657220616d6f756e7420657863656564732062604482015265616c616e636560d01b6064820152608401610c00565b6001600160a01b03808516600090815260a160205260408082208585039055918516815290812080548492906128df908490614d80565b92505081905550826001600160a01b0316846001600160a01b03167fddf252ad1be2c89b69c2b068fc378daa952ba7f163c4a11628f55a4df523b3ef8460405161292b91815260200190565b60405180910390a36127598484846132f0565b60008281526004602090815260408083206001600160a01b038516845290915290205460ff16610c135761297c816001600160a01b031660146132fb565b6129878360206132fb565b604051602001612998929190615159565b60408051601f198184030181529082905262461bcd60e51b8252610c0091600401614509565b6129c882826134a4565b610c1382826134ff565b60006110b97f8b73c3c69bb8fe3d512ecc4cf759cc79239f7b179b0ffacaa9a75d522b39400f612a026101055490565b610106546040805160208101859052908101839052606081018290524660808201523060a082015260009060c0016040516020818303038152906040528051906020012090509392505050565b612a59828261356c565b60008281526006602090815260408083206001600160a01b03851680855260028201808552838620805487526001909301855292852080546001600160a01b031916905584529152555050565b8154600090815b81811015612b0a576000612ac182846135ce565b905084868281548110612ad657612ad6614d98565b60009182526020909120015463ffffffff161115612af657809250612b04565b612b01816001614d80565b91505b50612aad565b8115612b4e5784612b1c60018461510c565b81548110612b2c57612b2c614d98565b60009182526020909120015464010000000090046001600160e01b0316612b51565b60005b6001600160e01b031695945050505050565b610c1382826135e9565b600054610100900460ff16612b945760405162461bcd60e51b8152600401610c00906151da565b612b9c613602565b6112418161362b565b600054610100900460ff16612bcc5760405162461bcd60e51b8152600401610c00906151da565b61124181604051806040016040528060018152602001603160f81b8152506136ba565b600054610100900460ff16612c165760405162461bcd60e51b8152600401610c00906151da565b8151612c299060a4906020850190614420565b508051612c3d9060a5906020840190614420565b505050565b600060018054612c5190614ceb565b80601f0160208091040260200160405190810160405280929190818152602001828054612c7d90614ceb565b8015612cca5780601f10612c9f57610100808354040283529160200191612cca565b820191906000526020600020905b815481529060010190602001808311612cad57829003601f168201915b50508551939450612ce693600193506020870192509050614420565b507fc9c7c3fe08b88b4df9d4d47ef47d2c43d55c025a0ba88ca442580ed9e7348a168183604051611224929190615225565b600380546001600160a01b0319166001600160a01b0383169081179091556040517f299d17e95023f496e0ffc4909cff1a61f74bb5eb18de6f900f4155bfa1b3b33390600090a250565b6001600160a01b03828116600081815261016c60208181526040808420805460a1845282862054949093528787166001600160a01b03198416811790915590519190951694919391928592917f3134e8a2e6d97e929a7e54011ea5485d7d196dd5f0ba4d4ef95803e8e3fc257f9190a46127598284836136fd565b600063ffffffff821115612e425760405162461bcd60e51b815260206004820152602660248201527f53616665436173743a2076616c756520646f65736e27742066697420696e203360448201526532206269747360d01b6064820152608401610c00565b5090565b61019f54801580612e6a57508086612e5d60a35490565b612e679190614d80565b11155b6120115760405162461bcd60e51b815260206004820152601860248201527f657863656564206d617820746f74616c20737570706c792e00000000000000006044820152606401610c00565b60006110b96123f7565b80612eca57612759565b6002546001600160a01b0380821691600160a01b900461ffff1690600090871615612ef55786612f02565b6003546001600160a01b03165b90506000670de0b6b3a7640000612f19868961513a565b612f23919061524a565b905060008111612f755760405162461bcd60e51b815260206004820152601060248201527f7175616e7469747920746f6f206c6f77000000000000000000000000000000006044820152606401610c00565b6000612710612f8861ffff86168461513a565b612f92919061524a565b90506001600160a01b03871673eeeeeeeeeeeeeeeeeeeeeeeeeeeeeeeeeeeeeeee1415612ff157813414612ff15760405162461bcd60e51b815260206004820152600660248201526521507269636560d01b6044820152606401610c00565b61300487612ffd6123f7565b878461383c565b6113d9876130106123f7565b8561301b858761510c565b61383c565b600061302c8383613886565b50600092915050565b505050505050565b60606001600160a01b0383163b6130a55760405162461bcd60e51b815260206004820152602660248201527f416464726573733a2064656c65676174652063616c6c20746f206e6f6e2d636f6044820152651b9d1c9858dd60d21b6064820152608401610c00565b600080846001600160a01b0316846040516130c0919061526c565b600060405180830381855af49150503d80600081146130fb576040519150601f19603f3d011682016040523d82523d6000602084013e613100565b606091505b509150915061312882826040518060600160405280602781526020016152b260279139613890565b95945050505050565b6000610bb961313e6129d2565b8360405161190160f01b6020820152602281018390526042810182905260009060620160405160208183030381529060405280519060200120905092915050565b6000806000613190878787876138c9565b9150915061319d816139b6565b5090505b949350505050565b6001600160a01b038116600090815261013960205260409020805460018101825590612152565b336000908152603d602052604081205460ff16156131f5575060131936013560601c90565b503390565b61019e54600090815260046020908152604080832083805290915290205460ff1615801561323057506001600160a01b03831615155b801561324457506001600160a01b03821615155b15612c3d5761019e5460009081526004602090815260408083206001600160a01b038716845290915290205460ff16806132a4575061019e5460009081526004602090815260408083206001600160a01b038616845290915290205460ff165b612c3d5760405162461bcd60e51b815260206004820152601560248201527f7472616e736665727320726573747269637465642e00000000000000000000006044820152606401610c00565b612c3d838383613b71565b6060600061330a83600261513a565b613315906002614d80565b67ffffffffffffffff81111561332d5761332d614687565b6040519080825280601f01601f191660200182016040528015613357576020820181803683370190505b509050600360fc1b8160008151811061337257613372614d98565b60200101906001600160f81b031916908160001a905350600f60fb1b816001815181106133a1576133a1614d98565b60200101906001600160f81b031916908160001a90535060006133c584600261513a565b6133d0906001614d80565b90505b6001811115613455577f303132333435363738396162636465660000000000000000000000000000000085600f166010811061341157613411614d98565b1a60f81b82828151811061342757613427614d98565b60200101906001600160f81b031916908160001a90535060049490941c9361344e81615123565b90506133d3565b5083156110125760405162461bcd60e51b815260206004820181905260248201527f537472696e67733a20686578206c656e67746820696e73756666696369656e746044820152606401610c00565b60008281526004602090815260408083206001600160a01b0385168085529252808320805460ff1916600117905551339285917f2f8788117e7eff1d82e926ec794901d17c78024a50270940304540a733656f0d9190a45050565b60008281526006602052604081208054916001919061351e8385614d80565b9091555050600092835260066020908152604080852083865260018101835281862080546001600160a01b039096166001600160a01b03199096168617905593855260029093019052912055565b613576828261293e565b60008281526004602090815260408083206001600160a01b0385168085529252808320805460ff1916905551339285917ff6391f5c32d9c69d2a47ea670b442974b53935d1edc7fd64eb21e047a839171b9190a45050565b60006135dd600284841861524a565b61101290848416614d80565b6135f38282613ba4565b61275961016e613d0583613d11565b600054610100900460ff166136295760405162461bcd60e51b8152600401610c00906151da565b565b600054610100900460ff166136525760405162461bcd60e51b8152600401610c00906151da565b60005b8151811015610c13576001603d600084848151811061367657613676614d98565b6020908102919091018101516001600160a01b03168252810191909152604001600020805460ff1916911515919091179055806136b281614f9a565b915050613655565b600054610100900460ff166136e15760405162461bcd60e51b8152600401610c00906151da565b8151602092830120815191909201206101059190915561010655565b816001600160a01b0316836001600160a01b03161415801561371f5750600081115b15612c3d576001600160a01b038316156137ae576001600160a01b038316600090815261016d60205260408120819061375b90613d0585613d11565b91509150846001600160a01b03167fdec2bacdd2f05b59de34da9b523dff8be42e5e38e818c82fdb0bae774387a72483836040516137a3929190918252602082015260400190565b60405180910390a250505b6001600160a01b03821615612c3d576001600160a01b038216600090815261016d6020526040812081906137e590613e8a85613d11565b91509150836001600160a01b03167fdec2bacdd2f05b59de34da9b523dff8be42e5e38e818c82fdb0bae774387a724838360405161382d929190918252602082015260400190565b60405180910390a25050505050565b8061384657612759565b6001600160a01b03841673eeeeeeeeeeeeeeeeeeeeeeeeeeeeeeeeeeeeeeee141561387a576138758282613e96565b612759565b61275984848484613f39565b610c138282613f92565b6060831561389f575081611012565b8251156138af5782518084602001fd5b8160405162461bcd60e51b8152600401610c009190614509565b6000807f7fffffffffffffffffffffffffffffff5d576e7357a4501ddfe92f46681b20a083111561390057506000905060036139ad565b8460ff16601b1415801561391857508460ff16601c14155b1561392957506000905060046139ad565b6040805160008082526020820180845289905260ff881692820192909252606081018690526080810185905260019060a0016020604051602081039080840390855afa15801561397d573d6000803e3d6000fd5b5050604051601f1901519150506001600160a01b0381166139a6576000600192509250506139ad565b9150600090505b94509492505050565b60008160048111156139ca576139ca61527e565b14156139d35750565b60018160048111156139e7576139e761527e565b1415613a355760405162461bcd60e51b815260206004820152601860248201527f45434453413a20696e76616c6964207369676e617475726500000000000000006044820152606401610c00565b6002816004811115613a4957613a4961527e565b1415613a975760405162461bcd60e51b815260206004820152601f60248201527f45434453413a20696e76616c6964207369676e6174757265206c656e677468006044820152606401610c00565b6003816004811115613aab57613aab61527e565b1415613b045760405162461bcd60e51b815260206004820152602260248201527f45434453413a20696e76616c6964207369676e6174757265202773272076616c604482015261756560f01b6064820152608401610c00565b6004816004811115613b1857613b1861527e565b14156112415760405162461bcd60e51b815260206004820152602260248201527f45434453413a20696e76616c6964207369676e6174757265202776272076616c604482015261756560f01b6064820152608401610c00565b6001600160a01b03838116600090815261016c6020526040808220548584168352912054612c3d929182169116836136fd565b6001600160a01b038216613c045760405162461bcd60e51b815260206004820152602160248201527f45524332303a206275726e2066726f6d20746865207a65726f206164647265736044820152607360f81b6064820152608401610c00565b613c10826000836131fa565b6001600160a01b038216600090815260a1602052604090205481811015613c845760405162461bcd60e51b815260206004820152602260248201527f45524332303a206275726e20616d6f756e7420657863656564732062616c616e604482015261636560f01b6064820152608401610c00565b6001600160a01b038316600090815260a160205260408120838303905560a38054849290613cb390849061510c565b90915550506040518281526000906001600160a01b038516907fddf252ad1be2c89b69c2b068fc378daa952ba7f163c4a11628f55a4df523b3ef9060200160405180910390a3612c3d836000846132f0565b6000611012828461510c565b825460009081908015613d5c5785613d2a60018361510c565b81548110613d3a57613d3a614d98565b60009182526020909120015464010000000090046001600160e01b0316613d5f565b60005b6001600160e01b03169250613d7883858763ffffffff16565b9150600081118015613db657504386613d9260018461510c565b81548110613da257613da2614d98565b60009182526020909120015463ffffffff16145b15613e1657613dc48261402a565b86613dd060018461510c565b81548110613de057613de0614d98565b9060005260206000200160000160046101000a8154816001600160e01b0302191690836001600160e01b03160217905550613e81565b856040518060400160405280613e2b43612ddd565b63ffffffff168152602001613e3f8561402a565b6001600160e01b0390811690915282546001810184556000938452602093849020835194909301519091166401000000000263ffffffff909316929092179101555b50935093915050565b60006110128284614d80565b6000826001600160a01b03168260405160006040518083038185875af1925050503d8060008114613ee3576040519150601f19603f3d011682016040523d82523d6000602084013e613ee8565b606091505b5050905080612c3d5760405162461bcd60e51b815260206004820152601c60248201527f6e617469766520746f6b656e207472616e73666572206661696c6564000000006044820152606401610c00565b816001600160a01b0316836001600160a01b03161415613f5857612759565b6001600160a01b038316301415613f7d576138756001600160a01b0385168383614093565b6127596001600160a01b03851684848461410e565b613f9c8282614146565b60a3546001600160e01b03101561401b5760405162461bcd60e51b815260206004820152603060248201527f4552433230566f7465733a20746f74616c20737570706c79207269736b73206f60448201527f766572666c6f77696e6720766f746573000000000000000000000000000000006064820152608401610c00565b61275961016e613e8a83613d11565b60006001600160e01b03821115612e425760405162461bcd60e51b815260206004820152602760248201527f53616665436173743a2076616c756520646f65736e27742066697420696e20326044820152663234206269747360c81b6064820152608401610c00565b6040516001600160a01b038316602482015260448101829052612c3d90849063a9059cbb60e01b906064015b60408051601f198184030181529190526020810180516001600160e01b03167fffffffff0000000000000000000000000000000000000000000000000000000090931692909217909152614239565b6040516001600160a01b03808516602483015283166044820152606481018290526127599085906323b872dd60e01b906084016140bf565b6001600160a01b03821661419c5760405162461bcd60e51b815260206004820152601f60248201527f45524332303a206d696e7420746f20746865207a65726f2061646472657373006044820152606401610c00565b6141a8600083836131fa565b8060a360008282546141ba9190614d80565b90915550506001600160a01b038216600090815260a16020526040812080548392906141e7908490614d80565b90915550506040518181526001600160a01b038316906000907fddf252ad1be2c89b69c2b068fc378daa952ba7f163c4a11628f55a4df523b3ef9060200160405180910390a3610c13600083836132f0565b600061428e826040518060400160405280602081526020017f5361666545524332303a206c6f772d6c6576656c2063616c6c206661696c6564815250856001600160a01b031661430b9092919063ffffffff16565b805190915015612c3d57808060200190518101906142ac9190615294565b612c3d5760405162461bcd60e51b815260206004820152602a60248201527f5361666545524332303a204552433230206f7065726174696f6e20646964206e6044820152691bdd081cdd58d8d9595960b21b6064820152608401610c00565b60606131a18484600085856001600160a01b0385163b61436d5760405162461bcd60e51b815260206004820152601d60248201527f416464726573733a2063616c6c20746f206e6f6e2d636f6e74726163740000006044820152606401610c00565b600080866001600160a01b03168587604051614389919061526c565b60006040518083038185875af1925050503d80600081146143c6576040519150601f19603f3d011682016040523d82523d6000602084013e6143cb565b606091505b50915091506143db828286613890565b979650505050505050565b5080546143f290614ceb565b6000825580601f10614402575050565b601f016020900490600052602060002090810190611241919061449c565b82805461442c90614ceb565b90600052602060002090601f01602090048101928261444e5760008555614494565b82601f1061446757805160ff1916838001178555614494565b82800160010185558215614494579182015b82811115614494578251825591602001919060010190614479565b50612e429291505b5b80821115612e42576000815560010161449d565b60005b838110156144cc5781810151838201526020016144b4565b838111156127595750506000910152565b600081518084526144f58160208601602086016144b1565b601f01601f19169290920160200192915050565b60208152600061101260208301846144dd565b6001600160a01b038116811461124157600080fd5b803561453c8161451c565b919050565b6000806040838503121561455457600080fd5b823561455f8161451c565b946020939093013593505050565b60006080828403121561215257600080fd5b60008060008060008060c0878903121561459857600080fd5b8635955060208701356145aa8161451c565b94506040870135935060608701356145c18161451c565b92506080870135915060a087013567ffffffffffffffff8111156145e457600080fd5b6145f089828a0161456d565b9150509295509295509295565b60008060006060848603121561461257600080fd5b833561461d8161451c565b9250602084013561462d8161451c565b929592945050506040919091013590565b60006020828403121561465057600080fd5b5035919050565b6000806040838503121561466a57600080fd5b82359150602083013561467c8161451c565b809150509250929050565b634e487b7160e01b600052604160045260246000fd5b604051601f8201601f1916810167ffffffffffffffff811182821017156146c6576146c6614687565b604052919050565b600067ffffffffffffffff8311156146e8576146e8614687565b6146fb601f8401601f191660200161469d565b905082815283838301111561470f57600080fd5b828260208301376000602084830101529392505050565b600082601f83011261473757600080fd5b611012838335602085016146ce565b600082601f83011261475757600080fd5b8135602067ffffffffffffffff82111561477357614773614687565b8160051b61478282820161469d565b928352848101820192828101908785111561479c57600080fd5b83870192505b848310156143db5782356147b58161451c565b825291830191908301906147a2565b80356fffffffffffffffffffffffffffffffff8116811461453c57600080fd5b600080600080600080600080610100898b03121561480157600080fd5b61480a89614531565b9750602089013567ffffffffffffffff8082111561482757600080fd5b6148338c838d01614726565b985060408b013591508082111561484957600080fd5b6148558c838d01614726565b975060608b013591508082111561486b57600080fd5b6148778c838d01614726565b965060808b013591508082111561488d57600080fd5b5061489a8b828c01614746565b9450506148a960a08a01614531565b92506148b760c08a01614531565b91506148c560e08a016147c4565b90509295985092959890939650565b6000602082840312156148e657600080fd5b81356110128161451c565b6020815281516020820152602082015160408201526040820151606082015260608201516080820152608082015160a082015260a082015160c08201526001600160a01b0360c08301511660e0820152600060e08301516101008081850152506131a16101208401826144dd565b60008083601f84011261497157600080fd5b50813567ffffffffffffffff81111561498957600080fd5b6020830191508360208260051b85010111156149a457600080fd5b9250929050565b801515811461124157600080fd5b6000806000604084860312156149ce57600080fd5b833567ffffffffffffffff8111156149e557600080fd5b6149f18682870161495f565b9094509250506020840135614a05816149ab565b809150509250925092565b60008060008060008060c08789031215614a2957600080fd5b8635614a348161451c565b9550602087013594506040870135614a4b8161451c565b935060608701359250608087013567ffffffffffffffff80821115614a6f57600080fd5b614a7b8a838b0161456d565b935060a0890135915080821115614a9157600080fd5b508701601f81018913614aa357600080fd5b6145f0898235602084016146ce565b60008060408385031215614ac557600080fd5b50508035926020909101359150565b600060208284031215614ae657600080fd5b813567ffffffffffffffff811115614afd57600080fd5b6131a184828501614726565b60008060208385031215614b1c57600080fd5b823567ffffffffffffffff811115614b3357600080fd5b614b3f8582860161495f565b90969095509350505050565b6000602080830181845280855180835260408601915060408160051b870101925083870160005b82811015614ba057603f19888603018452614b8e8583516144dd565b94509285019290850190600101614b72565b5092979650505050505050565b803560ff8116811461453c57600080fd5b60008060008060008060c08789031215614bd757600080fd5b8635614be28161451c565b95506020870135945060408701359350614bfe60608801614bad565b92506080870135915060a087013590509295509295509295565b600080600080600080600060e0888a031215614c3357600080fd5b8735614c3e8161451c565b96506020880135614c4e8161451c565b95506040880135945060608801359350614c6a60808901614bad565b925060a0880135915060c0880135905092959891949750929550565b60008060408385031215614c9957600080fd5b8235614ca48161451c565b9150602083013561467c8161451c565b60008060408385031215614cc757600080fd5b8235614cd28161451c565b9150602083013563ffffffff8116811461467c57600080fd5b600181811c90821680614cff57607f821691505b6020821081141561215257634e487b7160e01b600052602260045260246000fd5b6000808335601e19843603018112614d3757600080fd5b83018035915067ffffffffffffffff821115614d5257600080fd5b6020019150600581901b36038213156149a457600080fd5b634e487b7160e01b600052601160045260246000fd5b60008219821115614d9357614d93614d6a565b500190565b634e487b7160e01b600052603260045260246000fd5b6000823560fe19833603018112614dc457600080fd5b9190910192915050565b6000808335601e19843603018112614de557600080fd5b83018035915067ffffffffffffffff821115614e0057600080fd5b6020019150368190038213156149a457600080fd5b601f821115612c3d57600081815260208120601f850160051c81016020861015614e3c5750805b601f850160051c820191505b8181101561303557828155600101614e48565b67ffffffffffffffff831115614e7357614e73614687565b614e8783614e818354614ceb565b83614e15565b6000601f841160018114614ebb5760008515614ea35750838201355b600019600387901b1c1916600186901b178355614f15565b600083815260209020601f19861690835b82811015614eec5786850135825560209485019460019092019101614ecc565b5086821015614f095760001960f88860031b161c19848701351681555b505060018560011b0183555b5050505050565b813581556020820135600182015560408201356002820155606082013560038201556080820135600482015560a082013560058201556006810160c0830135614f648161451c565b81546001600160a01b0319166001600160a01b0391909116179055614f8c60e0830183614dce565b612759818360078601614e5b565b6000600019821415614fae57614fae614d6a565b5060010190565b6000808335601e19843603018112614fcc57600080fd5b830160208101925035905067ffffffffffffffff811115614fec57600080fd5b8036038313156149a457600080fd5b81835281816020850137506000828201602090810191909152601f909101601f19169091010190565b60408082528181018490526000906060808401600587901b850182018885805b8a8110156150f657888403605f190185528235368d900360fe19018112615069578283fd5b8c018035855260208082013581870152888201358987015287820135888701526080808301359087015260a080830135908701526101009060c0808401356150b08161451c565b6001600160a01b03169088015260e06150cb84820185614fb5565b945083828a01526150df848a018683614ffb565b998301999850505094909401935050600101615044565b505050861515602087015293506131a192505050565b60008282101561511e5761511e614d6a565b500390565b60008161513257615132614d6a565b506000190190565b600081600019048311821515161561515457615154614d6a565b500290565b7f5065726d697373696f6e733a206163636f756e742000000000000000000000008152600083516151918160158501602088016144b1565b7f206973206d697373696e6720726f6c652000000000000000000000000000000060159184019182015283516151ce8160268401602088016144b1565b01602601949350505050565b6020808252602b908201527f496e697469616c697a61626c653a20636f6e7472616374206973206e6f74206960408201526a6e697469616c697a696e6760a81b606082015260800190565b60408152600061523860408301856144dd565b828103602084015261312881856144dd565b60008261526757634e487b7160e01b600052601260045260246000fd5b500490565b60008251614dc48184602087016144b1565b634e487b7160e01b600052602160045260246000fd5b6000602082840312156152a657600080fd5b8151611012816149ab56fe416464726573733a206c6f772d6c6576656c2064656c65676174652063616c6c206661696c6564a2646970667358221220687801776219c0ccd7363cc00d3063ac74432aed6581e830b287eb0f11e27a5064736f6c634300080c0033",
  "linkReferences": {},
  "deployedLinkReferences": {}
}