{
  "_format": "hh-sol-artifact-1",
  "contractName": "DropERC721_V3",
  "sourceName": "contracts/legacy-contracts/pre-builts/DropERC721_V3.sol",
  "abi": [
    {
      "inputs": [],
      "stateMutability": "nonpayable",
      "type": "constructor"
    },
    {
      "anonymous": false,
      "inputs": [
        {
          "indexed": true,
          "internalType": "address",
          "name": "owner",
          "type": "address"
        },
        {
          "indexed": true,
          "internalType": "address",
          "name": "approved",
          "type": "address"
        },
        {
          "indexed": true,
          "internalType": "uint256",
          "name": "tokenId",
          "type": "uint256"
        }
      ],
      "name": "Approval",
      "type": "event"
    },
    {
      "anonymous": false,
      "inputs": [
        {
          "indexed": true,
          "internalType": "address",
          "name": "owner",
          "type": "address"
        },
        {
          "indexed": true,
          "internalType": "address",
          "name": "operator",
          "type": "address"
        },
        {
          "indexed": false,
          "internalType": "bool",
          "name": "approved",
          "type": "bool"
        }
      ],
      "name": "ApprovalForAll",
      "type": "event"
    },
    {
      "anonymous": false,
      "inputs": [
        {
          "components": [
            {
              "internalType": "uint256",
              "name": "startTimestamp",
              "type": "uint256"
            },
            {
              "internalType": "uint256",
              "name": "maxClaimableSupply",
              "type": "uint256"
            },
            {
              "internalType": "uint256",
              "name": "supplyClaimed",
              "type": "uint256"
            },
            {
              "internalType": "uint256",
              "name": "quantityLimitPerTransaction",
              "type": "uint256"
            },
            {
              "internalType": "uint256",
              "name": "waitTimeInSecondsBetweenClaims",
              "type": "uint256"
            },
            {
              "internalType": "bytes32",
              "name": "merkleRoot",
              "type": "bytes32"
            },
            {
              "internalType": "uint256",
              "name": "pricePerToken",
              "type": "uint256"
            },
            {
              "internalType": "address",
              "name": "currency",
              "type": "address"
            }
          ],
          "indexed": false,
          "internalType": "struct IDropClaimCondition_V2.ClaimCondition[]",
          "name": "claimConditions",
          "type": "tuple[]"
        }
      ],
      "name": "ClaimConditionsUpdated",
      "type": "event"
    },
    {
      "anonymous": false,
      "inputs": [
        {
          "indexed": true,
          "internalType": "address",
          "name": "newRoyaltyRecipient",
          "type": "address"
        },
        {
          "indexed": false,
          "internalType": "uint256",
          "name": "newRoyaltyBps",
          "type": "uint256"
        }
      ],
      "name": "DefaultRoyalty",
      "type": "event"
    },
    {
      "anonymous": false,
      "inputs": [
        {
          "indexed": false,
          "internalType": "uint8",
          "name": "version",
          "type": "uint8"
        }
      ],
      "name": "Initialized",
      "type": "event"
    },
    {
      "anonymous": false,
      "inputs": [
        {
          "indexed": false,
          "internalType": "uint256",
          "name": "maxTotalSupply",
          "type": "uint256"
        }
      ],
      "name": "MaxTotalSupplyUpdated",
      "type": "event"
    },
    {
      "anonymous": false,
      "inputs": [
        {
          "indexed": false,
          "internalType": "uint256",
          "name": "count",
          "type": "uint256"
        }
      ],
      "name": "MaxWalletClaimCountUpdated",
      "type": "event"
    },
    {
      "anonymous": false,
      "inputs": [
        {
          "indexed": false,
          "internalType": "uint256",
          "name": "endTokenId",
          "type": "uint256"
        },
        {
          "indexed": false,
          "internalType": "string",
          "name": "revealedURI",
          "type": "string"
        }
      ],
      "name": "NFTRevealed",
      "type": "event"
    },
    {
      "anonymous": false,
      "inputs": [
        {
          "indexed": true,
          "internalType": "address",
          "name": "prevOwner",
          "type": "address"
        },
        {
          "indexed": true,
          "internalType": "address",
          "name": "newOwner",
          "type": "address"
        }
      ],
      "name": "OwnerUpdated",
      "type": "event"
    },
    {
      "anonymous": false,
      "inputs": [
        {
          "indexed": true,
          "internalType": "address",
          "name": "platformFeeRecipient",
          "type": "address"
        },
        {
          "indexed": false,
          "internalType": "uint256",
          "name": "platformFeeBps",
          "type": "uint256"
        }
      ],
      "name": "PlatformFeeInfoUpdated",
      "type": "event"
    },
    {
      "anonymous": false,
      "inputs": [
        {
          "indexed": true,
          "internalType": "address",
          "name": "recipient",
          "type": "address"
        }
      ],
      "name": "PrimarySaleRecipientUpdated",
      "type": "event"
    },
    {
      "anonymous": false,
      "inputs": [
        {
          "indexed": true,
          "internalType": "bytes32",
          "name": "role",
          "type": "bytes32"
        },
        {
          "indexed": true,
          "internalType": "bytes32",
          "name": "previousAdminRole",
          "type": "bytes32"
        },
        {
          "indexed": true,
          "internalType": "bytes32",
          "name": "newAdminRole",
          "type": "bytes32"
        }
      ],
      "name": "RoleAdminChanged",
      "type": "event"
    },
    {
      "anonymous": false,
      "inputs": [
        {
          "indexed": true,
          "internalType": "bytes32",
          "name": "role",
          "type": "bytes32"
        },
        {
          "indexed": true,
          "internalType": "address",
          "name": "account",
          "type": "address"
        },
        {
          "indexed": true,
          "internalType": "address",
          "name": "sender",
          "type": "address"
        }
      ],
      "name": "RoleGranted",
      "type": "event"
    },
    {
      "anonymous": false,
      "inputs": [
        {
          "indexed": true,
          "internalType": "bytes32",
          "name": "role",
          "type": "bytes32"
        },
        {
          "indexed": true,
          "internalType": "address",
          "name": "account",
          "type": "address"
        },
        {
          "indexed": true,
          "internalType": "address",
          "name": "sender",
          "type": "address"
        }
      ],
      "name": "RoleRevoked",
      "type": "event"
    },
    {
      "anonymous": false,
      "inputs": [
        {
          "indexed": true,
          "internalType": "uint256",
          "name": "tokenId",
          "type": "uint256"
        },
        {
          "indexed": true,
          "internalType": "address",
          "name": "royaltyRecipient",
          "type": "address"
        },
        {
          "indexed": false,
          "internalType": "uint256",
          "name": "royaltyBps",
          "type": "uint256"
        }
      ],
      "name": "RoyaltyForToken",
      "type": "event"
    },
    {
      "anonymous": false,
      "inputs": [
        {
          "indexed": true,
          "internalType": "uint256",
          "name": "claimConditionIndex",
          "type": "uint256"
        },
        {
          "indexed": true,
          "internalType": "address",
          "name": "claimer",
          "type": "address"
        },
        {
          "indexed": true,
          "internalType": "address",
          "name": "receiver",
          "type": "address"
        },
        {
          "indexed": false,
          "internalType": "uint256",
          "name": "startTokenId",
          "type": "uint256"
        },
        {
          "indexed": false,
          "internalType": "uint256",
          "name": "quantityClaimed",
          "type": "uint256"
        }
      ],
      "name": "TokensClaimed",
      "type": "event"
    },
    {
      "anonymous": false,
      "inputs": [
        {
          "indexed": false,
          "internalType": "uint256",
          "name": "startTokenId",
          "type": "uint256"
        },
        {
          "indexed": false,
          "internalType": "uint256",
          "name": "endTokenId",
          "type": "uint256"
        },
        {
          "indexed": false,
          "internalType": "string",
          "name": "baseURI",
          "type": "string"
        },
        {
          "indexed": false,
          "internalType": "bytes",
          "name": "encryptedBaseURI",
          "type": "bytes"
        }
      ],
      "name": "TokensLazyMinted",
      "type": "event"
    },
    {
      "anonymous": false,
      "inputs": [
        {
          "indexed": true,
          "internalType": "address",
          "name": "from",
          "type": "address"
        },
        {
          "indexed": true,
          "internalType": "address",
          "name": "to",
          "type": "address"
        },
        {
          "indexed": true,
          "internalType": "uint256",
          "name": "tokenId",
          "type": "uint256"
        }
      ],
      "name": "Transfer",
      "type": "event"
    },
    {
      "anonymous": false,
      "inputs": [
        {
          "indexed": true,
          "internalType": "address",
          "name": "wallet",
          "type": "address"
        },
        {
          "indexed": false,
          "internalType": "uint256",
          "name": "count",
          "type": "uint256"
        }
      ],
      "name": "WalletClaimCountUpdated",
      "type": "event"
    },
    {
      "inputs": [],
      "name": "DEFAULT_ADMIN_ROLE",
      "outputs": [
        {
          "internalType": "bytes32",
          "name": "",
          "type": "bytes32"
        }
      ],
      "stateMutability": "view",
      "type": "function"
    },
    {
      "inputs": [
        {
          "internalType": "address",
          "name": "to",
          "type": "address"
        },
        {
          "internalType": "uint256",
          "name": "tokenId",
          "type": "uint256"
        }
      ],
      "name": "approve",
      "outputs": [],
      "stateMutability": "nonpayable",
      "type": "function"
    },
    {
      "inputs": [
        {
          "internalType": "address",
          "name": "owner",
          "type": "address"
        }
      ],
      "name": "balanceOf",
      "outputs": [
        {
          "internalType": "uint256",
          "name": "",
          "type": "uint256"
        }
      ],
      "stateMutability": "view",
      "type": "function"
    },
    {
      "inputs": [
        {
          "internalType": "uint256",
          "name": "",
          "type": "uint256"
        }
      ],
      "name": "baseURIIndices",
      "outputs": [
        {
          "internalType": "uint256",
          "name": "",
          "type": "uint256"
        }
      ],
      "stateMutability": "view",
      "type": "function"
    },
    {
      "inputs": [
        {
          "internalType": "uint256",
          "name": "tokenId",
          "type": "uint256"
        }
      ],
      "name": "burn",
      "outputs": [],
      "stateMutability": "nonpayable",
      "type": "function"
    },
    {
      "inputs": [
        {
          "internalType": "address",
          "name": "_receiver",
          "type": "address"
        },
        {
          "internalType": "uint256",
          "name": "_quantity",
          "type": "uint256"
        },
        {
          "internalType": "address",
          "name": "_currency",
          "type": "address"
        },
        {
          "internalType": "uint256",
          "name": "_pricePerToken",
          "type": "uint256"
        },
        {
          "internalType": "bytes32[]",
          "name": "_proofs",
          "type": "bytes32[]"
        },
        {
          "internalType": "uint256",
          "name": "_proofMaxQuantityPerTransaction",
          "type": "uint256"
        }
      ],
      "name": "claim",
      "outputs": [],
      "stateMutability": "payable",
      "type": "function"
    },
    {
      "inputs": [],
      "name": "claimCondition",
      "outputs": [
        {
          "internalType": "uint256",
          "name": "currentStartId",
          "type": "uint256"
        },
        {
          "internalType": "uint256",
          "name": "count",
          "type": "uint256"
        }
      ],
      "stateMutability": "view",
      "type": "function"
    },
    {
      "inputs": [],
      "name": "contractType",
      "outputs": [
        {
          "internalType": "bytes32",
          "name": "",
          "type": "bytes32"
        }
      ],
      "stateMutability": "pure",
      "type": "function"
    },
    {
      "inputs": [],
      "name": "contractURI",
      "outputs": [
        {
          "internalType": "string",
          "name": "",
          "type": "string"
        }
      ],
      "stateMutability": "view",
      "type": "function"
    },
    {
      "inputs": [],
      "name": "contractVersion",
      "outputs": [
        {
          "internalType": "uint8",
          "name": "",
          "type": "uint8"
        }
      ],
      "stateMutability": "pure",
      "type": "function"
    },
    {
      "inputs": [
        {
          "internalType": "bytes",
          "name": "data",
          "type": "bytes"
        },
        {
          "internalType": "bytes",
          "name": "key",
          "type": "bytes"
        }
      ],
      "name": "encryptDecrypt",
      "outputs": [
        {
          "internalType": "bytes",
          "name": "result",
          "type": "bytes"
        }
      ],
      "stateMutability": "pure",
      "type": "function"
    },
    {
      "inputs": [
        {
          "internalType": "uint256",
          "name": "",
          "type": "uint256"
        }
      ],
      "name": "encryptedData",
      "outputs": [
        {
          "internalType": "bytes",
          "name": "",
          "type": "bytes"
        }
      ],
      "stateMutability": "view",
      "type": "function"
    },
    {
      "inputs": [],
      "name": "getActiveClaimConditionId",
      "outputs": [
        {
          "internalType": "uint256",
          "name": "",
          "type": "uint256"
        }
      ],
      "stateMutability": "view",
      "type": "function"
    },
    {
      "inputs": [
        {
          "internalType": "uint256",
          "name": "tokenId",
          "type": "uint256"
        }
      ],
      "name": "getApproved",
      "outputs": [
        {
          "internalType": "address",
          "name": "",
          "type": "address"
        }
      ],
      "stateMutability": "view",
      "type": "function"
    },
    {
      "inputs": [],
      "name": "getBaseURICount",
      "outputs": [
        {
          "internalType": "uint256",
          "name": "",
          "type": "uint256"
        }
      ],
      "stateMutability": "view",
      "type": "function"
    },
    {
      "inputs": [
        {
          "internalType": "uint256",
          "name": "_conditionId",
          "type": "uint256"
        }
      ],
      "name": "getClaimConditionById",
      "outputs": [
        {
          "components": [
            {
              "internalType": "uint256",
              "name": "startTimestamp",
              "type": "uint256"
            },
            {
              "internalType": "uint256",
              "name": "maxClaimableSupply",
              "type": "uint256"
            },
            {
              "internalType": "uint256",
              "name": "supplyClaimed",
              "type": "uint256"
            },
            {
              "internalType": "uint256",
              "name": "quantityLimitPerTransaction",
              "type": "uint256"
            },
            {
              "internalType": "uint256",
              "name": "waitTimeInSecondsBetweenClaims",
              "type": "uint256"
            },
            {
              "internalType": "bytes32",
              "name": "merkleRoot",
              "type": "bytes32"
            },
            {
              "internalType": "uint256",
              "name": "pricePerToken",
              "type": "uint256"
            },
            {
              "internalType": "address",
              "name": "currency",
              "type": "address"
            }
          ],
          "internalType": "struct IDropClaimCondition_V2.ClaimCondition",
          "name": "condition",
          "type": "tuple"
        }
      ],
      "stateMutability": "view",
      "type": "function"
    },
    {
      "inputs": [
        {
          "internalType": "uint256",
          "name": "_conditionId",
          "type": "uint256"
        },
        {
          "internalType": "address",
          "name": "_claimer",
          "type": "address"
        }
      ],
      "name": "getClaimTimestamp",
      "outputs": [
        {
          "internalType": "uint256",
          "name": "lastClaimTimestamp",
          "type": "uint256"
        },
        {
          "internalType": "uint256",
          "name": "nextValidClaimTimestamp",
          "type": "uint256"
        }
      ],
      "stateMutability": "view",
      "type": "function"
    },
    {
      "inputs": [],
      "name": "getDefaultRoyaltyInfo",
      "outputs": [
        {
          "internalType": "address",
          "name": "",
          "type": "address"
        },
        {
          "internalType": "uint16",
          "name": "",
          "type": "uint16"
        }
      ],
      "stateMutability": "view",
      "type": "function"
    },
    {
      "inputs": [],
      "name": "getPlatformFeeInfo",
      "outputs": [
        {
          "internalType": "address",
          "name": "",
          "type": "address"
        },
        {
          "internalType": "uint16",
          "name": "",
          "type": "uint16"
        }
      ],
      "stateMutability": "view",
      "type": "function"
    },
    {
      "inputs": [
        {
          "internalType": "bytes32",
          "name": "role",
          "type": "bytes32"
        }
      ],
      "name": "getRoleAdmin",
      "outputs": [
        {
          "internalType": "bytes32",
          "name": "",
          "type": "bytes32"
        }
      ],
      "stateMutability": "view",
      "type": "function"
    },
    {
      "inputs": [
        {
          "internalType": "bytes32",
          "name": "role",
          "type": "bytes32"
        },
        {
          "internalType": "uint256",
          "name": "index",
          "type": "uint256"
        }
      ],
      "name": "getRoleMember",
      "outputs": [
        {
          "internalType": "address",
          "name": "",
          "type": "address"
        }
      ],
      "stateMutability": "view",
      "type": "function"
    },
    {
      "inputs": [
        {
          "internalType": "bytes32",
          "name": "role",
          "type": "bytes32"
        }
      ],
      "name": "getRoleMemberCount",
      "outputs": [
        {
          "internalType": "uint256",
          "name": "",
          "type": "uint256"
        }
      ],
      "stateMutability": "view",
      "type": "function"
    },
    {
      "inputs": [
        {
          "internalType": "uint256",
          "name": "_tokenId",
          "type": "uint256"
        }
      ],
      "name": "getRoyaltyInfoForToken",
      "outputs": [
        {
          "internalType": "address",
          "name": "",
          "type": "address"
        },
        {
          "internalType": "uint16",
          "name": "",
          "type": "uint16"
        }
      ],
      "stateMutability": "view",
      "type": "function"
    },
    {
      "inputs": [
        {
          "internalType": "bytes32",
          "name": "role",
          "type": "bytes32"
        },
        {
          "internalType": "address",
          "name": "account",
          "type": "address"
        }
      ],
      "name": "grantRole",
      "outputs": [],
      "stateMutability": "nonpayable",
      "type": "function"
    },
    {
      "inputs": [
        {
          "internalType": "bytes32",
          "name": "role",
          "type": "bytes32"
        },
        {
          "internalType": "address",
          "name": "account",
          "type": "address"
        }
      ],
      "name": "hasRole",
      "outputs": [
        {
          "internalType": "bool",
          "name": "",
          "type": "bool"
        }
      ],
      "stateMutability": "view",
      "type": "function"
    },
    {
      "inputs": [
        {
          "internalType": "address",
          "name": "_defaultAdmin",
          "type": "address"
        },
        {
          "internalType": "string",
          "name": "_name",
          "type": "string"
        },
        {
          "internalType": "string",
          "name": "_symbol",
          "type": "string"
        },
        {
          "internalType": "string",
          "name": "_contractURI",
          "type": "string"
        },
        {
          "internalType": "address[]",
          "name": "_trustedForwarders",
          "type": "address[]"
        },
        {
          "internalType": "address",
          "name": "_saleRecipient",
          "type": "address"
        },
        {
          "internalType": "address",
          "name": "_royaltyRecipient",
          "type": "address"
        },
        {
          "internalType": "uint128",
          "name": "_royaltyBps",
          "type": "uint128"
        },
        {
          "internalType": "uint128",
          "name": "_platformFeeBps",
          "type": "uint128"
        },
        {
          "internalType": "address",
          "name": "_platformFeeRecipient",
          "type": "address"
        }
      ],
      "name": "initialize",
      "outputs": [],
      "stateMutability": "nonpayable",
      "type": "function"
    },
    {
      "inputs": [
        {
          "internalType": "address",
          "name": "owner",
          "type": "address"
        },
        {
          "internalType": "address",
          "name": "operator",
          "type": "address"
        }
      ],
      "name": "isApprovedForAll",
      "outputs": [
        {
          "internalType": "bool",
          "name": "",
          "type": "bool"
        }
      ],
      "stateMutability": "view",
      "type": "function"
    },
    {
      "inputs": [
        {
          "internalType": "address",
          "name": "forwarder",
          "type": "address"
        }
      ],
      "name": "isTrustedForwarder",
      "outputs": [
        {
          "internalType": "bool",
          "name": "",
          "type": "bool"
        }
      ],
      "stateMutability": "view",
      "type": "function"
    },
    {
      "inputs": [
        {
          "internalType": "uint256",
          "name": "_amount",
          "type": "uint256"
        },
        {
          "internalType": "string",
          "name": "_baseURIForTokens",
          "type": "string"
        },
        {
          "internalType": "bytes",
          "name": "_data",
          "type": "bytes"
        }
      ],
      "name": "lazyMint",
      "outputs": [],
      "stateMutability": "nonpayable",
      "type": "function"
    },
    {
      "inputs": [],
      "name": "maxTotalSupply",
      "outputs": [
        {
          "internalType": "uint256",
          "name": "",
          "type": "uint256"
        }
      ],
      "stateMutability": "view",
      "type": "function"
    },
    {
      "inputs": [],
      "name": "maxWalletClaimCount",
      "outputs": [
        {
          "internalType": "uint256",
          "name": "",
          "type": "uint256"
        }
      ],
      "stateMutability": "view",
      "type": "function"
    },
    {
      "inputs": [
        {
          "internalType": "bytes[]",
          "name": "data",
          "type": "bytes[]"
        }
      ],
      "name": "multicall",
      "outputs": [
        {
          "internalType": "bytes[]",
          "name": "results",
          "type": "bytes[]"
        }
      ],
      "stateMutability": "nonpayable",
      "type": "function"
    },
    {
      "inputs": [],
      "name": "name",
      "outputs": [
        {
          "internalType": "string",
          "name": "",
          "type": "string"
        }
      ],
      "stateMutability": "view",
      "type": "function"
    },
    {
      "inputs": [],
      "name": "nextTokenIdToClaim",
      "outputs": [
        {
          "internalType": "uint256",
          "name": "",
          "type": "uint256"
        }
      ],
      "stateMutability": "view",
      "type": "function"
    },
    {
      "inputs": [],
      "name": "nextTokenIdToMint",
      "outputs": [
        {
          "internalType": "uint256",
          "name": "",
          "type": "uint256"
        }
      ],
      "stateMutability": "view",
      "type": "function"
    },
    {
      "inputs": [],
      "name": "owner",
      "outputs": [
        {
          "internalType": "address",
          "name": "",
          "type": "address"
        }
      ],
      "stateMutability": "view",
      "type": "function"
    },
    {
      "inputs": [
        {
          "internalType": "uint256",
          "name": "tokenId",
          "type": "uint256"
        }
      ],
      "name": "ownerOf",
      "outputs": [
        {
          "internalType": "address",
          "name": "",
          "type": "address"
        }
      ],
      "stateMutability": "view",
      "type": "function"
    },
    {
      "inputs": [],
      "name": "primarySaleRecipient",
      "outputs": [
        {
          "internalType": "address",
          "name": "",
          "type": "address"
        }
      ],
      "stateMutability": "view",
      "type": "function"
    },
    {
      "inputs": [
        {
          "internalType": "bytes32",
          "name": "role",
          "type": "bytes32"
        },
        {
          "internalType": "address",
          "name": "account",
          "type": "address"
        }
      ],
      "name": "renounceRole",
      "outputs": [],
      "stateMutability": "nonpayable",
      "type": "function"
    },
    {
      "inputs": [
        {
          "internalType": "uint256",
          "name": "index",
          "type": "uint256"
        },
        {
          "internalType": "bytes",
          "name": "_key",
          "type": "bytes"
        }
      ],
      "name": "reveal",
      "outputs": [
        {
          "internalType": "string",
          "name": "revealedURI",
          "type": "string"
        }
      ],
      "stateMutability": "nonpayable",
      "type": "function"
    },
    {
      "inputs": [
        {
          "internalType": "bytes32",
          "name": "role",
          "type": "bytes32"
        },
        {
          "internalType": "address",
          "name": "account",
          "type": "address"
        }
      ],
      "name": "revokeRole",
      "outputs": [],
      "stateMutability": "nonpayable",
      "type": "function"
    },
    {
      "inputs": [
        {
          "internalType": "uint256",
          "name": "tokenId",
          "type": "uint256"
        },
        {
          "internalType": "uint256",
          "name": "salePrice",
          "type": "uint256"
        }
      ],
      "name": "royaltyInfo",
      "outputs": [
        {
          "internalType": "address",
          "name": "receiver",
          "type": "address"
        },
        {
          "internalType": "uint256",
          "name": "royaltyAmount",
          "type": "uint256"
        }
      ],
      "stateMutability": "view",
      "type": "function"
    },
    {
      "inputs": [
        {
          "internalType": "address",
          "name": "from",
          "type": "address"
        },
        {
          "internalType": "address",
          "name": "to",
          "type": "address"
        },
        {
          "internalType": "uint256",
          "name": "tokenId",
          "type": "uint256"
        }
      ],
      "name": "safeTransferFrom",
      "outputs": [],
      "stateMutability": "nonpayable",
      "type": "function"
    },
    {
      "inputs": [
        {
          "internalType": "address",
          "name": "from",
          "type": "address"
        },
        {
          "internalType": "address",
          "name": "to",
          "type": "address"
        },
        {
          "internalType": "uint256",
          "name": "tokenId",
          "type": "uint256"
        },
        {
          "internalType": "bytes",
          "name": "data",
          "type": "bytes"
        }
      ],
      "name": "safeTransferFrom",
      "outputs": [],
      "stateMutability": "nonpayable",
      "type": "function"
    },
    {
      "inputs": [
        {
          "internalType": "address",
          "name": "operator",
          "type": "address"
        },
        {
          "internalType": "bool",
          "name": "approved",
          "type": "bool"
        }
      ],
      "name": "setApprovalForAll",
      "outputs": [],
      "stateMutability": "nonpayable",
      "type": "function"
    },
    {
      "inputs": [
        {
          "components": [
            {
              "internalType": "uint256",
              "name": "startTimestamp",
              "type": "uint256"
            },
            {
              "internalType": "uint256",
              "name": "maxClaimableSupply",
              "type": "uint256"
            },
            {
              "internalType": "uint256",
              "name": "supplyClaimed",
              "type": "uint256"
            },
            {
              "internalType": "uint256",
              "name": "quantityLimitPerTransaction",
              "type": "uint256"
            },
            {
              "internalType": "uint256",
              "name": "waitTimeInSecondsBetweenClaims",
              "type": "uint256"
            },
            {
              "internalType": "bytes32",
              "name": "merkleRoot",
              "type": "bytes32"
            },
            {
              "internalType": "uint256",
              "name": "pricePerToken",
              "type": "uint256"
            },
            {
              "internalType": "address",
              "name": "currency",
              "type": "address"
            }
          ],
          "internalType": "struct IDropClaimCondition_V2.ClaimCondition[]",
          "name": "_phases",
          "type": "tuple[]"
        },
        {
          "internalType": "bool",
          "name": "_resetClaimEligibility",
          "type": "bool"
        }
      ],
      "name": "setClaimConditions",
      "outputs": [],
      "stateMutability": "nonpayable",
      "type": "function"
    },
    {
      "inputs": [
        {
          "internalType": "string",
          "name": "_uri",
          "type": "string"
        }
      ],
      "name": "setContractURI",
      "outputs": [],
      "stateMutability": "nonpayable",
      "type": "function"
    },
    {
      "inputs": [
        {
          "internalType": "address",
          "name": "_royaltyRecipient",
          "type": "address"
        },
        {
          "internalType": "uint256",
          "name": "_royaltyBps",
          "type": "uint256"
        }
      ],
      "name": "setDefaultRoyaltyInfo",
      "outputs": [],
      "stateMutability": "nonpayable",
      "type": "function"
    },
    {
      "inputs": [
        {
          "internalType": "uint256",
          "name": "_maxTotalSupply",
          "type": "uint256"
        }
      ],
      "name": "setMaxTotalSupply",
      "outputs": [],
      "stateMutability": "nonpayable",
      "type": "function"
    },
    {
      "inputs": [
        {
          "internalType": "uint256",
          "name": "_count",
          "type": "uint256"
        }
      ],
      "name": "setMaxWalletClaimCount",
      "outputs": [],
      "stateMutability": "nonpayable",
      "type": "function"
    },
    {
      "inputs": [
        {
          "internalType": "address",
          "name": "_newOwner",
          "type": "address"
        }
      ],
      "name": "setOwner",
      "outputs": [],
      "stateMutability": "nonpayable",
      "type": "function"
    },
    {
      "inputs": [
        {
          "internalType": "address",
          "name": "_platformFeeRecipient",
          "type": "address"
        },
        {
          "internalType": "uint256",
          "name": "_platformFeeBps",
          "type": "uint256"
        }
      ],
      "name": "setPlatformFeeInfo",
      "outputs": [],
      "stateMutability": "nonpayable",
      "type": "function"
    },
    {
      "inputs": [
        {
          "internalType": "address",
          "name": "_saleRecipient",
          "type": "address"
        }
      ],
      "name": "setPrimarySaleRecipient",
      "outputs": [],
      "stateMutability": "nonpayable",
      "type": "function"
    },
    {
      "inputs": [
        {
          "internalType": "uint256",
          "name": "_tokenId",
          "type": "uint256"
        },
        {
          "internalType": "address",
          "name": "_recipient",
          "type": "address"
        },
        {
          "internalType": "uint256",
          "name": "_bps",
          "type": "uint256"
        }
      ],
      "name": "setRoyaltyInfoForToken",
      "outputs": [],
      "stateMutability": "nonpayable",
      "type": "function"
    },
    {
      "inputs": [
        {
          "internalType": "address",
          "name": "_claimer",
          "type": "address"
        },
        {
          "internalType": "uint256",
          "name": "_count",
          "type": "uint256"
        }
      ],
      "name": "setWalletClaimCount",
      "outputs": [],
      "stateMutability": "nonpayable",
      "type": "function"
    },
    {
      "inputs": [
        {
          "internalType": "bytes4",
          "name": "interfaceId",
          "type": "bytes4"
        }
      ],
      "name": "supportsInterface",
      "outputs": [
        {
          "internalType": "bool",
          "name": "",
          "type": "bool"
        }
      ],
      "stateMutability": "view",
      "type": "function"
    },
    {
      "inputs": [],
      "name": "symbol",
      "outputs": [
        {
          "internalType": "string",
          "name": "",
          "type": "string"
        }
      ],
      "stateMutability": "view",
      "type": "function"
    },
    {
      "inputs": [
        {
          "internalType": "uint256",
          "name": "index",
          "type": "uint256"
        }
      ],
      "name": "tokenByIndex",
      "outputs": [
        {
          "internalType": "uint256",
          "name": "",
          "type": "uint256"
        }
      ],
      "stateMutability": "view",
      "type": "function"
    },
    {
      "inputs": [
        {
          "internalType": "address",
          "name": "owner",
          "type": "address"
        },
        {
          "internalType": "uint256",
          "name": "index",
          "type": "uint256"
        }
      ],
      "name": "tokenOfOwnerByIndex",
      "outputs": [
        {
          "internalType": "uint256",
          "name": "",
          "type": "uint256"
        }
      ],
      "stateMutability": "view",
      "type": "function"
    },
    {
      "inputs": [
        {
          "internalType": "uint256",
          "name": "_tokenId",
          "type": "uint256"
        }
      ],
      "name": "tokenURI",
      "outputs": [
        {
          "internalType": "string",
          "name": "",
          "type": "string"
        }
      ],
      "stateMutability": "view",
      "type": "function"
    },
    {
      "inputs": [],
      "name": "totalSupply",
      "outputs": [
        {
          "internalType": "uint256",
          "name": "",
          "type": "uint256"
        }
      ],
      "stateMutability": "view",
      "type": "function"
    },
    {
      "inputs": [
        {
          "internalType": "address",
          "name": "from",
          "type": "address"
        },
        {
          "internalType": "address",
          "name": "to",
          "type": "address"
        },
        {
          "internalType": "uint256",
          "name": "tokenId",
          "type": "uint256"
        }
      ],
      "name": "transferFrom",
      "outputs": [],
      "stateMutability": "nonpayable",
      "type": "function"
    },
    {
      "inputs": [
        {
          "internalType": "uint256",
          "name": "_conditionId",
          "type": "uint256"
        },
        {
          "internalType": "address",
          "name": "_claimer",
          "type": "address"
        },
        {
          "internalType": "uint256",
          "name": "_quantity",
          "type": "uint256"
        },
        {
          "internalType": "address",
          "name": "_currency",
          "type": "address"
        },
        {
          "internalType": "uint256",
          "name": "_pricePerToken",
          "type": "uint256"
        },
        {
          "internalType": "bool",
          "name": "verifyMaxQuantityPerTransaction",
          "type": "bool"
        }
      ],
      "name": "verifyClaim",
      "outputs": [],
      "stateMutability": "view",
      "type": "function"
    },
    {
      "inputs": [
        {
          "internalType": "uint256",
          "name": "_conditionId",
          "type": "uint256"
        },
        {
          "internalType": "address",
          "name": "_claimer",
          "type": "address"
        },
        {
          "internalType": "uint256",
          "name": "_quantity",
          "type": "uint256"
        },
        {
          "internalType": "bytes32[]",
          "name": "_proofs",
          "type": "bytes32[]"
        },
        {
          "internalType": "uint256",
          "name": "_proofMaxQuantityPerTransaction",
          "type": "uint256"
        }
      ],
      "name": "verifyClaimMerkleProof",
      "outputs": [
        {
          "internalType": "bool",
          "name": "validMerkleProof",
          "type": "bool"
        },
        {
          "internalType": "uint256",
          "name": "merkleProofIndex",
          "type": "uint256"
        }
      ],
      "stateMutability": "view",
      "type": "function"
    },
    {
      "inputs": [
        {
          "internalType": "address",
          "name": "",
          "type": "address"
        }
      ],
      "name": "walletClaimCount",
      "outputs": [
        {
          "internalType": "uint256",
          "name": "",
          "type": "uint256"
        }
      ],
      "stateMutability": "view",
      "type": "function"
    }
  ],
  "bytecode": "0x60806040523480156200001157600080fd5b50600054610100900460ff1615808015620000335750600054600160ff909116105b8062000063575062000050306200013d60201b62002f681760201c565b15801562000063575060005460ff166001145b620000cb5760405162461bcd60e51b815260206004820152602e60248201527f496e697469616c697a61626c653a20636f6e747261637420697320616c72656160448201526d191e481a5b9a5d1a585b1a5e995960921b606482015260840160405180910390fd5b6000805460ff191660011790558015620000ef576000805461ff0019166101001790555b801562000136576000805461ff0019169055604051600181527f7f26b83ff96e1f2b6a682f133852f6798a09c465da95921460cefb38474024989060200160405180910390a15b506200014c565b6001600160a01b03163b151590565b615ce2806200015c6000396000f3fe6080604052600436106103ce5760003560e01c80637a5a8e7e116101fd578063b24f2d3911610118578063d45573f6116100ab578063e15916341161007a578063e159163414610c74578063e23b816414610c94578063e715032214610cb4578063e8a3d48514610cd4578063e985e9c514610ce957600080fd5b8063d45573f614610beb578063d547741f14610c17578063d637ed5914610c37578063d860483f14610c5457600080fd5b8063ca15c873116100e7578063ca15c87314610b6b578063cb2ef6f714610b8b578063ce80564214610bab578063d37c353b14610bcb57600080fd5b8063b24f2d3914610aea578063b88d4fde14610b16578063c68907de14610b36578063c87b56dd14610b4b57600080fd5b8063a05112fc11610190578063ac9650d81161015f578063ac9650d814610a4f578063acd083f814610a7c578063af3be89014610a93578063afb8291614610aca57600080fd5b8063a05112fc146109de578063a0a8e460146109fe578063a217fddf14610a1a578063a22cb46514610a2f57600080fd5b806391d14854116101cc57806391d1485414610943578063938e3d7b1461098957806395d89b41146109a95780639bcf7a15146109be57600080fd5b80637a5a8e7e146108c657806386ee745d146108d95780638da5cb5b1461090e5780639010d07c1461092357600080fd5b80633b1475a7116102ed578063508679571161028057806363b45e2d1161024f57806363b45e2d146107e65780636f4f2837146107fc5780636f8934f41461081c57806370a08231146108a657600080fd5b8063508679571461074d578063572b6c051461076d578063600dd5ea146107a65780636352211e146107c657600080fd5b806342966c68116102bc57806342966c681461069d5780634352ab41146106bd5780634cc157df146106eb5780634f6ccce71461072d57600080fd5b80633b1475a7146106265780633ea33f291461063d5780633f3e4c111461065d57806342842e0e1461067d57600080fd5b80631e7ac488116103655780632ab4d052116103345780632ab4d052146105af5780632f2ff15d146105c65780632f745c59146105e657806336568abe1461060657600080fd5b80631e7ac4881461050057806323b872dd14610520578063248a9ca3146105405780632a55205a1461057057600080fd5b8063081812fc116103a1578063081812fc14610488578063095ea7b3146104a857806313af4035146104ca57806318160ddd146104ea57600080fd5b806301ffc9a7146103d3578063059817691461040857806306fdde031461042d578063079fe40e1461044f575b600080fd5b3480156103df57600080fd5b506103f36103ee366004614cc2565b610d33565b60405190151581526020015b60405180910390f35b34801561041457600080fd5b5061041f6101c75481565b6040519081526020016103ff565b34801561043957600080fd5b50610442610d5f565b6040516103ff9190614d37565b34801561045b57600080fd5b506101c654610470906001600160a01b031681565b6040516001600160a01b0390911681526020016103ff565b34801561049457600080fd5b506104706104a3366004614d4a565b610df2565b3480156104b457600080fd5b506104c86104c3366004614d88565b610e1a565b005b3480156104d657600080fd5b506104c86104e5366004614db4565b610f47565b3480156104f657600080fd5b506101935461041f565b34801561050c57600080fd5b506104c861051b366004614d88565b611016565b34801561052c57600080fd5b506104c861053b366004614dd1565b6110ce565b34801561054c57600080fd5b5061041f61055b366004614d4a565b600090815260fb602052604090206001015490565b34801561057c57600080fd5b5061059061058b366004614e12565b61114d565b604080516001600160a01b0390931683526020830191909152016103ff565b3480156105bb57600080fd5b5061041f6101c85481565b3480156105d257600080fd5b506104c86105e1366004614e34565b61118a565b3480156105f257600080fd5b5061041f610601366004614d88565b6111af565b34801561061257600080fd5b506104c8610621366004614e34565b611246565b34801561063257600080fd5b5061041f6101c45481565b34801561064957600080fd5b506104c8610658366004614d88565b6112e2565b34801561066957600080fd5b506104c8610678366004614d4a565b61133b565b34801561068957600080fd5b506104c8610698366004614dd1565b611384565b3480156106a957600080fd5b506104c86106b8366004614d4a565b61139f565b3480156106c957600080fd5b5061041f6106d8366004614db4565b6101d46020526000908152604090205481565b3480156106f757600080fd5b5061070b610706366004614d4a565b611402565b604080516001600160a01b03909316835261ffff9091166020830152016103ff565b34801561073957600080fd5b5061041f610748366004614d4a565b61146f565b34801561075957600080fd5b506104c8610768366004614d4a565b611504565b34801561077957600080fd5b506103f3610788366004614db4565b6001600160a01b031660009081526065602052604090205460ff1690565b3480156107b257600080fd5b506104c86107c1366004614d88565b611545565b3480156107d257600080fd5b506104706107e1366004614d4a565b6115ea565b3480156107f257600080fd5b506101cc5461041f565b34801561080857600080fd5b506104c8610817366004614db4565b611650565b34801561082857600080fd5b5061083c610837366004614d4a565b6116a7565b6040516103ff9190600061010082019050825182526020830151602083015260408301516040830152606083015160608301526080830151608083015260a083015160a083015260c083015160c08301526001600160a01b0360e08401511660e083015292915050565b3480156108b257600080fd5b5061041f6108c1366004614db4565b611773565b6104c86108d4366004614ea9565b6117fa565b3480156108e557600080fd5b506108f96108f4366004614e34565b6119fa565b604080519283526020830191909152016103ff565b34801561091a57600080fd5b50610470611a44565b34801561092f57600080fd5b5061047061093e366004614e12565b611a9f565b34801561094f57600080fd5b506103f361095e366004614e34565b600091825260fb602090815260408084206001600160a01b0393909316845291905290205460ff1690565b34801561099557600080fd5b506104c86109a4366004614f70565b611abf565b3480156109b557600080fd5b50610442611add565b3480156109ca57600080fd5b506104c86109d9366004614fb2565b611aed565b3480156109ea57600080fd5b506104426109f9366004614d4a565b611bbd565b348015610a0a57600080fd5b50604051600381526020016103ff565b348015610a2657600080fd5b5061041f600081565b348015610a3b57600080fd5b506104c8610a4a366004614fe7565b611c58565b348015610a5b57600080fd5b50610a6f610a6a366004615015565b611c6a565b6040516103ff919061504b565b348015610a8857600080fd5b5061041f6101c55481565b348015610a9f57600080fd5b50610ab3610aae3660046150ad565b611d5f565b6040805192151583526020830191909152016103ff565b348015610ad657600080fd5b506104c8610ae536600461511f565b611f89565b348015610af657600080fd5b506101ca546001600160a01b03811690600160a01b900461ffff1661070b565b348015610b2257600080fd5b506104c8610b3136600461524b565b6122e3565b348015610b4257600080fd5b5061041f612363565b348015610b5757600080fd5b50610442610b66366004614d4a565b61240a565b348015610b7757600080fd5b5061041f610b86366004614d4a565b612551565b348015610b9757600080fd5b506944726f7045524337323160b01b61041f565b348015610bb757600080fd5b50610442610bc63660046152b7565b612569565b348015610bd757600080fd5b506104c8610be6366004615303565b6127ff565b348015610bf757600080fd5b506101c9546001600160a01b03811690600160a01b900461ffff1661070b565b348015610c2357600080fd5b506104c8610c32366004614e34565b612941565b348015610c4357600080fd5b506101cd546101ce546108f9919082565b348015610c6057600080fd5b5061041f610c6f366004614d4a565b612966565b348015610c8057600080fd5b506104c8610c8f36600461541b565b612988565b348015610ca057600080fd5b506104c8610caf36600461552e565b612bd4565b348015610cc057600080fd5b50610442610ccf3660046155b4565b612ee5565b348015610ce057600080fd5b50610442612f5a565b348015610cf557600080fd5b506103f3610d04366004615610565b6001600160a01b0391821660009081526101646020908152604080832093909416825291909152205460ff1690565b6000610d3e82612f77565b80610d59575063152a902d60e11b6001600160e01b03198316145b92915050565b606061015f8054610d6f9061563e565b80601f0160208091040260200160405190810160405280929190818152602001828054610d9b9061563e565b8015610de85780601f10610dbd57610100808354040283529160200191610de8565b820191906000526020600020905b815481529060010190602001808311610dcb57829003601f168201915b5050505050905090565b6000610dfd82612f9c565b50600090815261016360205260409020546001600160a01b031690565b6000610e25826115ea565b9050806001600160a01b0316836001600160a01b03161415610e985760405162461bcd60e51b815260206004820152602160248201527f4552433732313a20617070726f76616c20746f2063757272656e74206f776e656044820152603960f91b60648201526084015b60405180910390fd5b806001600160a01b0316610eaa613001565b6001600160a01b03161480610ec65750610ec681610d04613001565b610f385760405162461bcd60e51b815260206004820152603e60248201527f4552433732313a20617070726f76652063616c6c6572206973206e6f7420746f60448201527f6b656e206f776e6572206e6f7220617070726f76656420666f7220616c6c00006064820152608401610e8f565b610f42838361300b565b505050565b6000610f528161307a565b6001600160a01b03821660009081527fc88390e7e62175be0932452175b6a7222b6b094ab0ef984a5153c620345d8975602052604090205460ff16610fc25760405162461bcd60e51b815260206004820152600660248201526510a0a226a4a760d11b6044820152606401610e8f565b6101c380546001600160a01b038481166001600160a01b0319831681179093556040519116919082907f8292fce18fa69edf4db7b94ea2e58241df0ae57f97e0a6c9b29067028bf92d7690600090a3505050565b60006110218161307a565b6127108211156110605760405162461bcd60e51b815260206004820152600a6024820152691f1026a0ac2fa128299760b11b6044820152606401610e8f565b6101c980546001600160b01b031916600160a01b61ffff8516026001600160a01b031916176001600160a01b0385169081179091556040518381527fe2497bd806ec41a6e0dd992c29a72efc0ef8fec9092d1978fd4a1e00b2f18304906020015b60405180910390a2505050565b6110df6110d9613001565b8261308b565b6111425760405162461bcd60e51b815260206004820152602e60248201527f4552433732313a2063616c6c6572206973206e6f7420746f6b656e206f776e6560448201526d1c881b9bdc88185c1c1c9bdd995960921b6064820152608401610e8f565b610f4283838361310b565b60008060008061115c86611402565b90945084925061ffff169050612710611175828761568f565b61117f91906156c4565b925050509250929050565b600082815260fb60205260409020600101546111a58161307a565b610f4283836132b5565b60006111ba83611773565b821061121c5760405162461bcd60e51b815260206004820152602b60248201527f455243373231456e756d657261626c653a206f776e657220696e646578206f7560448201526a74206f6620626f756e647360a81b6064820152608401610e8f565b506001600160a01b0391909116600090815261019160209081526040808320938352929052205490565b61124e613001565b6001600160a01b0316816001600160a01b0316146112d45760405162461bcd60e51b815260206004820152602f60248201527f416363657373436f6e74726f6c3a2063616e206f6e6c792072656e6f756e636560448201527f20726f6c657320666f722073656c6600000000000000000000000000000000006064820152608401610e8f565b6112de82826132d8565b5050565b60006112ed8161307a565b6001600160a01b03831660008181526101d4602052604090819020849055517f8973b95d42472e89416ea69404f8038c041db700af9ec294e7b4cd4e1ff2801c906110c19085815260200190565b60006113468161307a565b6101c88290556040518281527ff2672935fc79f5237559e2e2999dbe743bf65430894ac2b37666890e7c69e1af906020015b60405180910390a15050565b610f42838383604051806020016040528060008152506122e3565b6113aa6110d9613001565b6113f65760405162461bcd60e51b815260206004820152601d60248201527f63616c6c6572206e6f74206f776e6572206e6f7220617070726f7665640000006044820152606401610e8f565b6113ff816132fb565b50565b60008181526101d560209081526040808320815180830190925280546001600160a01b03168083526001909101549282019290925282911561144a5780516020820151611465565b6101ca546001600160a01b03811690600160a01b900461ffff165b9250925050915091565b600061147b6101935490565b82106114de5760405162461bcd60e51b815260206004820152602c60248201527f455243373231456e756d657261626c653a20676c6f62616c20696e646578206f60448201526b7574206f6620626f756e647360a01b6064820152608401610e8f565b61019382815481106114f2576114f26156d8565b90600052602060002001549050919050565b600061150f8161307a565b6101c78290556040518281527ff9d383c69b6255cbd431ca23734f43bdf15e694c7494956c917498469bcbce7390602001611378565b60006115508161307a565b61271082111561158e5760405162461bcd60e51b81526020600482015260096024820152683e204d41585f42505360b81b6044820152606401610e8f565b6101ca80546001600160a01b0385166001600160b01b03199091168117600160a01b61ffff861602179091556040518381527f90d7ec04bcb8978719414f82e52e4cb651db41d0e6f8cea6118c2191e6183adb906020016110c1565b600081815261016160205260408120546001600160a01b031680610d595760405162461bcd60e51b815260206004820152601860248201527f4552433732313a20696e76616c696420746f6b656e20494400000000000000006044820152606401610e8f565b600061165b8161307a565b6101c680546001600160a01b0319166001600160a01b0384169081179091556040517f299d17e95023f496e0ffc4909cff1a61f74bb5eb18de6f900f4155bfa1b3b33390600090a25050565b6116fb6040518061010001604052806000815260200160008152602001600081526020016000815260200160008152602001600080191681526020016000815260200160006001600160a01b031681525090565b5060009081526101cf6020908152604091829020825161010081018452815481526001820154928101929092526002810154928201929092526003820154606082015260048201546080820152600582015460a0820152600682015460c08201526007909101546001600160a01b031660e082015290565b60006001600160a01b0382166117dd5760405162461bcd60e51b815260206004820152602960248201527f4552433732313a2061646472657373207a65726f206973206e6f7420612076616044820152683634b21037bbb732b960b91b6064820152608401610e8f565b506001600160a01b03166000908152610162602052604090205490565b6002600154141561184d5760405162461bcd60e51b815260206004820152601f60248201527f5265656e7472616e637947756172643a207265656e7472616e742063616c6c006044820152606401610e8f565b60026001553360009081526065602052604090205460ff168061187f575032611874613001565b6001600160a01b0316145b6118b15760405162461bcd60e51b81526020600482015260036024820152621093d560ea1b6044820152606401610e8f565b6101c55460006118bf612363565b905060006118d8826118cf613001565b8b898989611d5f565b50905060008415806118fa575060008381526101cf6020526040902060050154155b905061191183611908613001565b8c8c8c86611f89565b81801561191e5750600085115b156119755761197561192e613001565b60008581526101d16020908152604080832072ffffffffffffffffffffffffffffffffffffff600886901c16845290915290208054600160ff9093169290921b9091179055565b6119808a8a8a6133a4565b61198b8b848c6134ab565b8a6001600160a01b031661199d613001565b6001600160a01b0316847ffa76a4010d9533e3e964f2930a65fb6042a12fa6ff5b08281837a10b0be7321e878e6040516119e1929190918252602082015260400190565b60405180910390a4505060018055505050505050505050565b60008281526101d0602090815260408083206001600160a01b03851684528252808320548584526101cf90925290912060040154810181811015611a3d57506000195b9250929050565b6101c3546001600160a01b031660009081527fc88390e7e62175be0932452175b6a7222b6b094ab0ef984a5153c620345d8975602052604081205460ff16611a8c5750600090565b6101c3546001600160a01b03165b905090565b600082815261012d60205260408120611ab89083613593565b9392505050565b6000611aca8161307a565b611ad76101cb8484614b69565b50505050565b60606101608054610d6f9061563e565b6000611af88161307a565b612710821115611b365760405162461bcd60e51b81526020600482015260096024820152683e204d41585f42505360b81b6044820152606401610e8f565b6040805180820182526001600160a01b03858116808352602080840187815260008a81526101d58352869020945185546001600160a01b031916941693909317845591516001909301929092559151848152909186917f7365cf4122f072a3365c20d54eff9b38d73c096c28e1892ec8f5b0e403a0f12d910160405180910390a350505050565b6101d36020526000908152604090208054611bd79061563e565b80601f0160208091040260200160405190810160405280929190818152602001828054611c039061563e565b8015611c505780601f10611c2557610100808354040283529160200191611c50565b820191906000526020600020905b815481529060010190602001808311611c3357829003601f168201915b505050505081565b6112de611c63613001565b838361359f565b60608167ffffffffffffffff811115611c8557611c85615186565b604051908082528060200260200182016040528015611cb857816020015b6060815260200190600190039081611ca35790505b50905060005b82811015611d5857611d2830858584818110611cdc57611cdc6156d8565b9050602002810190611cee91906156ee565b8080601f01602080910402602001604051908101604052809392919081815260200183838082843760009201919091525061366f92505050565b828281518110611d3a57611d3a6156d8565b60200260200101819052508080611d5090615735565b915050611cbe565b5092915050565b60008681526101cf60209081526040808320815161010081018352815481526001820154938101939093526002810154918301919091526003810154606083015260048101546080830152600581015460a08301819052600682015460c08401526007909101546001600160a01b031660e083015282919015611f7d57611e5886868080602002602001604051908101604052809392919081815260200183836020028082843760009201919091525050505060a08301516040516bffffffffffffffffffffffff1960608d901b1660208201526034810188905260540160405160208183030381529060405280519060200120613763565b909350915082611eaa5760405162461bcd60e51b815260206004820152601160248201527f6e6f7420696e2077686974656c6973742e0000000000000000000000000000006044820152606401610e8f565b60008981526101d16020908152604080832072ffffffffffffffffffffffffffffffffffffff60088d901c168452909152902054600160ff8a161b1615611f245760405162461bcd60e51b815260206004820152600e60248201526d383937b7b31031b630b4b6b2b21760911b6044820152606401610e8f565b831580611f315750838711155b611f7d5760405162461bcd60e51b815260206004820152601760248201527f696e76616c6964207175616e746974792070726f6f662e0000000000000000006044820152606401610e8f565b50965096945050505050565b60008681526101cf6020908152604091829020825161010081018452815481526001820154928101929092526002810154928201929092526003820154606082015260048201546080820152600582015460a0820152600682015460c08201526007909101546001600160a01b0390811660e0830181905290851614801561201457508060c0015183145b6120605760405162461bcd60e51b815260206004820152601a60248201527f696e76616c69642063757272656e6379206f722070726963652e0000000000006044820152606401610e8f565b60008511801561207c575081158061207c575080606001518511155b6120c85760405162461bcd60e51b815260206004820152601160248201527f696e76616c6964207175616e746974792e0000000000000000000000000000006044820152606401610e8f565b80602001518582604001516120dd9190615750565b111561212b5760405162461bcd60e51b815260206004820152601c60248201527f657863656564206d617820636c61696d61626c6520737570706c792e000000006044820152606401610e8f565b6101c454856101c55461213e9190615750565b111561218c5760405162461bcd60e51b815260206004820152601960248201527f6e6f7420656e6f756768206d696e74656420746f6b656e732e000000000000006044820152606401610e8f565b6101c85415806121ad57506101c854856101c5546121aa9190615750565b11155b6121f95760405162461bcd60e51b815260206004820152601860248201527f657863656564206d617820746f74616c20737570706c792e00000000000000006044820152606401610e8f565b6101c754158061223057506101c7546001600160a01b03871660009081526101d4602052604090205461222d908790615750565b11155b61227c5760405162461bcd60e51b815260206004820152601260248201527f65786365656420636c61696d206c696d697400000000000000000000000000006044820152606401610e8f565b60008061228989896119fa565b91509150816000148061229c5750804210155b6122d85760405162461bcd60e51b815260206004820152600d60248201526c31b0b73737ba1031b630b4b69760991b6044820152606401610e8f565b505050505050505050565b6122f46122ee613001565b8361308b565b6123575760405162461bcd60e51b815260206004820152602e60248201527f4552433732313a2063616c6c6572206973206e6f7420746f6b656e206f776e6560448201526d1c881b9bdc88185c1c1c9bdd995960921b6064820152608401610e8f565b611ad784848484613831565b6101ce546101cd54600091829161237a9190615750565b90505b6101cd548111156123d3576101cf6000612398600184615768565b81526020019081526020016000206000015442106123c1576123bb600182615768565b91505090565b806123cb8161577f565b91505061237d565b5060405162461bcd60e51b815260206004820152600b60248201526a10a1a7a72224aa24a7a71760a91b6044820152606401610e8f565b606060005b6101cc5481101561253b576101cc818154811061242e5761242e6156d8565b9060005260206000200154831015612529576101d360006101cc8381548110612459576124596156d8565b90600052602060002001548152602001908152602001600020805461247d9061563e565b1590506124dd576101d260006101cc838154811061249d5761249d6156d8565b906000526020600020015481526020019081526020016000206040516020016124c69190615830565b604051602081830303815290604052915050919050565b6101d260006101cc83815481106124f6576124f66156d8565b90600052602060002001548152602001908152602001600020612518846138af565b6040516020016124c692919061584d565b612534600182615750565b905061240f565b5050604080516020810190915260008152919050565b600081815261012d60205260408120610d59906139ad565b60607f9f2df0fed2c77648de5860a4cc508cd0818c85b8b8a1ab4ceeef8d981c8956a66125958161307a565b6101cc5485106125d85760405162461bcd60e51b815260206004820152600e60248201526d34b73b30b634b21034b73232bc1760911b6044820152606401610e8f565b60006101cc86815481106125ee576125ee6156d8565b9060005260206000200154905060006101d36000838152602001908152602001600020805461261c9061563e565b80601f01602080910402602001604051908101604052809291908181526020018280546126489061563e565b80156126955780601f1061266a57610100808354040283529160200191612695565b820191906000526020600020905b81548152906001019060200180831161267857829003601f168201915b50505050509050600080828060200190518101906126b39190615872565b915091508151600014156127095760405162461bcd60e51b815260206004820152601260248201527f6e6f7468696e6720746f2072657665616c2e00000000000000000000000000006044820152606401610e8f565b612714828989612ee5565b9550808689894660405160200161272e94939291906158f3565b60405160208183030381529060405280519060200120146127815760405162461bcd60e51b815260206004820152600d60248201526c496e636f7272656374206b657960981b6044820152606401610e8f565b60008481526101d26020908152604090912087516127a192890190614bed565b5060008481526101d3602052604081206127ba91614c61565b7f09b52c0c3a3e08761cd3917c8e49275ed1e0982477b54047add8b4d70513bc8684876040516127eb92919061591c565b60405180910390a150505050509392505050565b7f9f2df0fed2c77648de5860a4cc508cd0818c85b8b8a1ab4ceeef8d981c8956a66128298161307a565b6101c45460006128398883615750565b6101c481905560008181526101d26020526040902090915061285c908888614b69565b506101cc80546001810182556000919091527f9a37fbd5e796e9046c2f5f7e29046a230a4ba9ada48a80535ed93a51fec5cfbc0181905583156128e1576000806128a886880188615935565b9150915081516000141580156128bd57508015155b156128de5760008381526101d3602052604090206128dc908888614b69565b505b50505b7f2a0365091ef1a40953c670dce28177e37520648a6fdc91506bffac0ab045570d82600161290f8b83615750565b6129199190615768565b8989898960405161292f969594939291906159a3565b60405180910390a15050505050505050565b600082815260fb602052604090206001015461295c8161307a565b610f4283836132d8565b6101cc818154811061297757600080fd5b600091825260209091200154905081565b600054610100900460ff16158080156129a85750600054600160ff909116105b806129c25750303b1580156129c2575060005460ff166001145b612a255760405162461bcd60e51b815260206004820152602e60248201527f496e697469616c697a61626c653a20636f6e747261637420697320616c72656160448201526d191e481a5b9a5d1a585b1a5e995960921b6064820152608401610e8f565b6000805460ff191660011790558015612a48576000805461ff0019166101001790555b612a506139b7565b612a59876139e8565b612a638a8a613a20565b6101ca80546001600160a01b038781166001600160b01b031992831617600160a01b61ffff8981168202929092179094556101c980548784169416939093179087169093029290921790556101c680546001600160a01b0319169188169190911790558751612ada906101cb9060208b0190614bed565b506101c380546001600160a01b0319166001600160a01b038d16179055612b0260008c613a51565b612b2c7f9f2df0fed2c77648de5860a4cc508cd0818c85b8b8a1ab4ceeef8d981c8956a68c613a51565b612b567f8502233096d909befbda0999bb8ea2f3a6be3c138b9fbf003752a4c8bce86f6c8c613a51565b612b817f8502233096d909befbda0999bb8ea2f3a6be3c138b9fbf003752a4c8bce86f6c6000613a51565b8015612bc7576000805461ff0019169055604051600181527f7f26b83ff96e1f2b6a682f133852f6798a09c465da95921460cefb38474024989060200160405180910390a15b5050505050505050505050565b6000612bdf8161307a565b6101cd546101ce54818415612bfb57612bf88284615750565b90505b6101ce8690556101cd8190556000805b87811015612d9b57801580612c3b5750888882818110612c2d57612c2d6156d8565b905061010002016000013582105b612c6c5760405162461bcd60e51b815260206004820152600260248201526114d560f21b6044820152606401610e8f565b60006101cf81612c7c8487615750565b8152602001908152602001600020600201549050898983818110612ca257612ca26156d8565b9050610100020160200135811115612cfc5760405162461bcd60e51b815260206004820152601a60248201527f6d617820737570706c7920636c61696d656420616c72656164790000000000006044820152606401610e8f565b898983818110612d0e57612d0e6156d8565b610100029190910190506101cf6000612d278588615750565b81526020019081526020016000208181612d4191906159e3565b508190506101cf6000612d548588615750565b8152602081019190915260400160002060020155898983818110612d7a57612d7a6156d8565b90506101000201600001359250508080612d9390615735565b915050612c0b565b508515612e1b57835b82811015612e155760008181526101cf60209081526040822082815560018101839055600281018390556003810183905560048101839055600581018390556006810192909255600790910180546001600160a01b03191690556101d1905280612e0d81615735565b915050612da4565b50612eb4565b86831115612eb457865b83811015612eb2576101cf6000612e3c8386615750565b81526020810191909152604001600090812081815560018101829055600281018290556003810182905560048101829055600581018290556006810182905560070180546001600160a01b03191690556101d190612e9a8386615750565b81526020015280612eaa81615735565b915050612e25565b505b7f22ddd1bcb3816651679299dbffccb94973edec10c32e88dc2f4735c7699a02ca888860405161292f929190615a54565b8251604080518083016020019091528181529060005b81811015612f51576000858583604051602001612f1a93929190615aeb565b60408051601f19818403018152919052805160209182012088840182015118858401820152612f4a915082615750565b9050612efb565b50509392505050565b6101cb8054611bd79061563e565b6001600160a01b03163b151590565b60006001600160e01b0319821663780e9d6360e01b1480610d595750610d5982613a5b565b600081815261016160205260409020546001600160a01b03166113ff5760405162461bcd60e51b815260206004820152601860248201527f4552433732313a20696e76616c696420746f6b656e20494400000000000000006044820152606401610e8f565b6000611a9a613a9b565b60008181526101636020526040902080546001600160a01b0319166001600160a01b0384169081179091558190613041826115ea565b6001600160a01b03167f8c5be1e5ebec7d5bd14f71427d1e84f3dd0314c0f7b2291e5b200ac8c7c3b92560405160405180910390a45050565b6113ff81613086613001565b613ac5565b600080613097836115ea565b9050806001600160a01b0316846001600160a01b031614806130df57506001600160a01b038082166000908152610164602090815260408083209388168352929052205460ff165b806131035750836001600160a01b03166130f884610df2565b6001600160a01b0316145b949350505050565b826001600160a01b031661311e826115ea565b6001600160a01b0316146131825760405162461bcd60e51b815260206004820152602560248201527f4552433732313a207472616e736665722066726f6d20696e636f72726563742060448201526437bbb732b960d91b6064820152608401610e8f565b6001600160a01b0382166131e45760405162461bcd60e51b8152602060048201526024808201527f4552433732313a207472616e7366657220746f20746865207a65726f206164646044820152637265737360e01b6064820152608401610e8f565b6131ef838383613b45565b6131fa60008261300b565b6001600160a01b038316600090815261016260205260408120805460019290613224908490615768565b90915550506001600160a01b038216600090815261016260205260408120805460019290613253908490615750565b90915550506000818152610161602052604080822080546001600160a01b0319166001600160a01b0386811691821790925591518493918716917fddf252ad1be2c89b69c2b068fc378daa952ba7f163c4a11628f55a4df523b3ef91a4505050565b6132bf8282613c85565b600082815261012d60205260409020610f429082613d28565b6132e28282613d3d565b600082815261012d60205260409020610f429082613dde565b6000613306826115ea565b905061331481600084613b45565b61331f60008361300b565b6001600160a01b038116600090815261016260205260408120805460019290613349908490615768565b90915550506000828152610161602052604080822080546001600160a01b0319169055518391906001600160a01b038416907fddf252ad1be2c89b69c2b068fc378daa952ba7f163c4a11628f55a4df523b3ef908390a45050565b806133ae57505050565b60006133ba828561568f565b6101c954909150600090612710906133dd90600160a01b900461ffff168461568f565b6133e791906156c4565b90506001600160a01b03841673eeeeeeeeeeeeeeeeeeeeeeeeeeeeeeeeeeeeeeee141561345d5781341461345d5760405162461bcd60e51b815260206004820152601660248201527f6d7573742073656e6420746f74616c2070726963652e000000000000000000006044820152606401610e8f565b61347c84613469613001565b6101c9546001600160a01b031684613df3565b6134a484613488613001565b6101c6546001600160a01b031661349f8587615768565b613df3565b5050505050565b60008281526101cf6020526040812060020180548392906134cd908490615750565b909155505060008281526101d06020526040812042916134eb613001565b6001600160a01b03166001600160a01b0316815260200190815260200160002081905550806101d4600061351d613001565b6001600160a01b03166001600160a01b03168152602001908152602001600020600082825461354c9190615750565b90915550506101c55460005b828110156135895761356a8583613e3d565b613575600183615750565b9150613582600182615750565b9050613558565b506101c555505050565b6000611ab88383613f8e565b816001600160a01b0316836001600160a01b031614156136015760405162461bcd60e51b815260206004820152601960248201527f4552433732313a20617070726f766520746f2063616c6c6572000000000000006044820152606401610e8f565b6001600160a01b0383811660008181526101646020908152604080832094871680845294825291829020805460ff191686151590811790915591519182527f17307eab39ab6107e8899845ad3d59bd9653f200f220920489ca2b5937696c31910160405180910390a3505050565b60606001600160a01b0383163b6136d75760405162461bcd60e51b815260206004820152602660248201527f416464726573733a2064656c65676174652063616c6c20746f206e6f6e2d636f6044820152651b9d1c9858dd60d21b6064820152608401610e8f565b600080846001600160a01b0316846040516136f29190615afd565b600060405180830381855af49150503d806000811461372d576040519150601f19603f3d011682016040523d82523d6000602084013e613732565b606091505b509150915061375a8282604051806060016040528060278152602001615c8660279139613fb8565b95945050505050565b6000808281805b87518110156138255761377e60028361568f565b91506000888281518110613794576137946156d8565b602002602001015190508084116137d6576040805160208101869052908101829052606001604051602081830303815290604052805190602001209350613812565b604080516020810183905290810185905260600160405160208183030381529060405280519060200120935060018361380f9190615750565b92505b508061381d81615735565b91505061376a565b50941495939450505050565b61383c84848461310b565b61384884848484613ff1565b611ad75760405162461bcd60e51b815260206004820152603260248201527f4552433732313a207472616e7366657220746f206e6f6e20455243373231526560448201527131b2b4bb32b91034b6b83632b6b2b73a32b960711b6064820152608401610e8f565b6060816138d35750506040805180820190915260018152600360fc1b602082015290565b8160005b81156138fd57806138e781615735565b91506138f69050600a836156c4565b91506138d7565b60008167ffffffffffffffff81111561391857613918615186565b6040519080825280601f01601f191660200182016040528015613942576020820181803683370190505b5090505b841561310357613957600183615768565b9150613964600a86615b19565b61396f906030615750565b60f81b818381518110613984576139846156d8565b60200101906001600160f81b031916908160001a9053506139a6600a866156c4565b9450613946565b6000610d59825490565b600054610100900460ff166139de5760405162461bcd60e51b8152600401610e8f90615b2d565b6139e6614141565b565b600054610100900460ff16613a0f5760405162461bcd60e51b8152600401610e8f90615b2d565b613a1761416e565b6113ff81614195565b600054610100900460ff16613a475760405162461bcd60e51b8152600401610e8f90615b2d565b6112de8282614224565b6112de82826132b5565b60006001600160e01b031982166380ac58cd60e01b1480613a8c57506001600160e01b03198216635b5e139f60e01b145b80610d595750610d5982614274565b3360009081526065602052604081205460ff1615613ac0575060131936013560601c90565b503390565b600082815260fb602090815260408083206001600160a01b038516845290915290205460ff166112de57613b03816001600160a01b03166014614299565b613b0e836020614299565b604051602001613b1f929190615b78565b60408051601f198184030181529082905262461bcd60e51b8252610e8f91600401614d37565b613b50838383614442565b600080527fde23fa6c6392e300b5ced791de0faa0b28226983a4ab1c05a1ba79ef4d0a13126020527f70e64e82d0337f3fa9071fdb3266f859725ed1fc29697b2e6e986b76cffbfb085460ff16158015613bb257506001600160a01b03831615155b8015613bc657506001600160a01b03821615155b15610f42576001600160a01b03831660009081527fde23fa6c6392e300b5ced791de0faa0b28226983a4ab1c05a1ba79ef4d0a1312602052604090205460ff1680613c4857506001600160a01b03821660009081527fde23fa6c6392e300b5ced791de0faa0b28226983a4ab1c05a1ba79ef4d0a1312602052604090205460ff165b610f425760405162461bcd60e51b815260206004820152600e60248201526d215452414e534645525f524f4c4560901b6044820152606401610e8f565b600082815260fb602090815260408083206001600160a01b038516845290915290205460ff166112de57600082815260fb602090815260408083206001600160a01b03851684529091529020805460ff19166001179055613ce4613001565b6001600160a01b0316816001600160a01b0316837f2f8788117e7eff1d82e926ec794901d17c78024a50270940304540a733656f0d60405160405180910390a45050565b6000611ab8836001600160a01b0384166144fc565b600082815260fb602090815260408083206001600160a01b038516845290915290205460ff16156112de57600082815260fb602090815260408083206001600160a01b03851684529091529020805460ff19169055613d9a613001565b6001600160a01b0316816001600160a01b0316837ff6391f5c32d9c69d2a47ea670b442974b53935d1edc7fd64eb21e047a839171b60405160405180910390a45050565b6000611ab8836001600160a01b03841661454b565b80613dfd57611ad7565b6001600160a01b03841673eeeeeeeeeeeeeeeeeeeeeeeeeeeeeeeeeeeeeeee1415613e3157613e2c828261463e565b611ad7565b611ad7848484846146e1565b6001600160a01b038216613e935760405162461bcd60e51b815260206004820181905260248201527f4552433732313a206d696e7420746f20746865207a65726f20616464726573736044820152606401610e8f565b600081815261016160205260409020546001600160a01b031615613ef95760405162461bcd60e51b815260206004820152601c60248201527f4552433732313a20746f6b656e20616c7265616479206d696e746564000000006044820152606401610e8f565b613f0560008383613b45565b6001600160a01b038216600090815261016260205260408120805460019290613f2f908490615750565b90915550506000818152610161602052604080822080546001600160a01b0319166001600160a01b03861690811790915590518392907fddf252ad1be2c89b69c2b068fc378daa952ba7f163c4a11628f55a4df523b3ef908290a45050565b6000826000018281548110613fa557613fa56156d8565b9060005260206000200154905092915050565b60608315613fc7575081611ab8565b825115613fd75782518084602001fd5b8160405162461bcd60e51b8152600401610e8f9190614d37565b60006001600160a01b0384163b1561413657836001600160a01b031663150b7a0261401a613001565b8786866040518563ffffffff1660e01b815260040161403c9493929190615bf9565b6020604051808303816000875af1925050508015614077575060408051601f3d908101601f1916820190925261407491810190615c35565b60015b61411c573d8080156140a5576040519150601f19603f3d011682016040523d82523d6000602084013e6140aa565b606091505b5080516141145760405162461bcd60e51b815260206004820152603260248201527f4552433732313a207472616e7366657220746f206e6f6e20455243373231526560448201527131b2b4bb32b91034b6b83632b6b2b73a32b960711b6064820152608401610e8f565b805181602001fd5b6001600160e01b031916630a85bd0160e11b149050613103565b506001949350505050565b600054610100900460ff166141685760405162461bcd60e51b8152600401610e8f90615b2d565b60018055565b600054610100900460ff166139e65760405162461bcd60e51b8152600401610e8f90615b2d565b600054610100900460ff166141bc5760405162461bcd60e51b8152600401610e8f90615b2d565b60005b81518110156112de576001606560008484815181106141e0576141e06156d8565b6020908102919091018101516001600160a01b03168252810191909152604001600020805460ff19169115159190911790558061421c81615735565b9150506141bf565b600054610100900460ff1661424b5760405162461bcd60e51b8152600401610e8f90615b2d565b815161425f9061015f906020850190614bed565b508051610f4290610160906020840190614bed565b60006001600160e01b03198216635a05180f60e01b1480610d595750610d598261473a565b606060006142a883600261568f565b6142b3906002615750565b67ffffffffffffffff8111156142cb576142cb615186565b6040519080825280601f01601f1916602001820160405280156142f5576020820181803683370190505b509050600360fc1b81600081518110614310576143106156d8565b60200101906001600160f81b031916908160001a905350600f60fb1b8160018151811061433f5761433f6156d8565b60200101906001600160f81b031916908160001a905350600061436384600261568f565b61436e906001615750565b90505b60018111156143f3577f303132333435363738396162636465660000000000000000000000000000000085600f16601081106143af576143af6156d8565b1a60f81b8282815181106143c5576143c56156d8565b60200101906001600160f81b031916908160001a90535060049490941c936143ec8161577f565b9050614371565b508315611ab85760405162461bcd60e51b815260206004820181905260248201527f537472696e67733a20686578206c656e67746820696e73756666696369656e746044820152606401610e8f565b6001600160a01b03831661449f5761449a816101938054600083815261019460205260408120829055600182018355919091527ffc8af01f449989052b52093a58fc9f42d0b11f0c6dd5dca0463dab62346ccc680155565b6144c2565b816001600160a01b0316836001600160a01b0316146144c2576144c2838261476f565b6001600160a01b0382166144d957610f4281614811565b826001600160a01b0316826001600160a01b031614610f4257610f4282826148c6565b600081815260018301602052604081205461454357508154600181810184556000848152602080822090930184905584548482528286019093526040902091909155610d59565b506000610d59565b6000818152600183016020526040812054801561463457600061456f600183615768565b855490915060009061458390600190615768565b90508181146145e85760008660000182815481106145a3576145a36156d8565b90600052602060002001549050808760000184815481106145c6576145c66156d8565b6000918252602080832090910192909255918252600188019052604090208390555b85548690806145f9576145f9615c52565b600190038181906000526020600020016000905590558560010160008681526020019081526020016000206000905560019350505050610d59565b6000915050610d59565b6000826001600160a01b03168260405160006040518083038185875af1925050503d806000811461468b576040519150601f19603f3d011682016040523d82523d6000602084013e614690565b606091505b5050905080610f425760405162461bcd60e51b815260206004820152601c60248201527f6e617469766520746f6b656e207472616e73666572206661696c6564000000006044820152606401610e8f565b816001600160a01b0316836001600160a01b0316141561470057611ad7565b6001600160a01b03831630141561472557613e2c6001600160a01b038516838361490c565b611ad76001600160a01b038516848484614984565b60006001600160e01b03198216637965db0b60e01b1480610d5957506301ffc9a760e01b6001600160e01b0319831614610d59565b6000600161477c84611773565b6147869190615768565b600083815261019260205260409020549091508082146147dc576001600160a01b038416600090815261019160209081526040808320858452825280832054848452818420819055835261019290915290208190555b506000918252610192602090815260408084208490556001600160a01b03909416835261019181528383209183525290812055565b6101935460009061482490600190615768565b60008381526101946020526040812054610193805493945090928490811061484e5761484e6156d8565b90600052602060002001549050806101938381548110614870576148706156d8565b600091825260208083209091019290925582815261019490915260408082208490558582528120556101938054806148aa576148aa615c52565b6001900381819060005260206000200160009055905550505050565b60006148d183611773565b6001600160a01b0390931660009081526101916020908152604080832086845282528083208590559382526101929052919091209190915550565b6040516001600160a01b038316602482015260448101829052610f4290849063a9059cbb60e01b906064015b60408051601f198184030181529190526020810180517bffffffffffffffffffffffffffffffffffffffffffffffffffffffff166001600160e01b0319909316929092179091526149bc565b6040516001600160a01b0380851660248301528316604482015260648101829052611ad79085906323b872dd60e01b90608401614938565b6000614a11826040518060400160405280602081526020017f5361666545524332303a206c6f772d6c6576656c2063616c6c206661696c6564815250856001600160a01b0316614a8e9092919063ffffffff16565b805190915015610f425780806020019051810190614a2f9190615c68565b610f425760405162461bcd60e51b815260206004820152602a60248201527f5361666545524332303a204552433230206f7065726174696f6e20646964206e6044820152691bdd081cdd58d8d9595960b21b6064820152608401610e8f565b60606131038484600085856001600160a01b0385163b614af05760405162461bcd60e51b815260206004820152601d60248201527f416464726573733a2063616c6c20746f206e6f6e2d636f6e74726163740000006044820152606401610e8f565b600080866001600160a01b03168587604051614b0c9190615afd565b60006040518083038185875af1925050503d8060008114614b49576040519150601f19603f3d011682016040523d82523d6000602084013e614b4e565b606091505b5091509150614b5e828286613fb8565b979650505050505050565b828054614b759061563e565b90600052602060002090601f016020900481019282614b975760008555614bdd565b82601f10614bb05782800160ff19823516178555614bdd565b82800160010185558215614bdd579182015b82811115614bdd578235825591602001919060010190614bc2565b50614be9929150614c97565b5090565b828054614bf99061563e565b90600052602060002090601f016020900481019282614c1b5760008555614bdd565b82601f10614c3457805160ff1916838001178555614bdd565b82800160010185558215614bdd579182015b82811115614bdd578251825591602001919060010190614c46565b508054614c6d9061563e565b6000825580601f10614c7d575050565b601f0160209004906000526020600020908101906113ff91905b5b80821115614be95760008155600101614c98565b6001600160e01b0319811681146113ff57600080fd5b600060208284031215614cd457600080fd5b8135611ab881614cac565b60005b83811015614cfa578181015183820152602001614ce2565b83811115611ad75750506000910152565b60008151808452614d23816020860160208601614cdf565b601f01601f19169290920160200192915050565b602081526000611ab86020830184614d0b565b600060208284031215614d5c57600080fd5b5035919050565b6001600160a01b03811681146113ff57600080fd5b8035614d8381614d63565b919050565b60008060408385031215614d9b57600080fd5b8235614da681614d63565b946020939093013593505050565b600060208284031215614dc657600080fd5b8135611ab881614d63565b600080600060608486031215614de657600080fd5b8335614df181614d63565b92506020840135614e0181614d63565b929592945050506040919091013590565b60008060408385031215614e2557600080fd5b50508035926020909101359150565b60008060408385031215614e4757600080fd5b823591506020830135614e5981614d63565b809150509250929050565b60008083601f840112614e7657600080fd5b50813567ffffffffffffffff811115614e8e57600080fd5b6020830191508360208260051b8501011115611a3d57600080fd5b600080600080600080600060c0888a031215614ec457600080fd5b8735614ecf81614d63565b9650602088013595506040880135614ee681614d63565b945060608801359350608088013567ffffffffffffffff811115614f0957600080fd5b614f158a828b01614e64565b989b979a5095989497959660a090950135949350505050565b60008083601f840112614f4057600080fd5b50813567ffffffffffffffff811115614f5857600080fd5b602083019150836020828501011115611a3d57600080fd5b60008060208385031215614f8357600080fd5b823567ffffffffffffffff811115614f9a57600080fd5b614fa685828601614f2e565b90969095509350505050565b600080600060608486031215614fc757600080fd5b833592506020840135614e0181614d63565b80151581146113ff57600080fd5b60008060408385031215614ffa57600080fd5b823561500581614d63565b91506020830135614e5981614fd9565b6000806020838503121561502857600080fd5b823567ffffffffffffffff81111561503f57600080fd5b614fa685828601614e64565b6000602080830181845280855180835260408601915060408160051b870101925083870160005b828110156150a057603f1988860301845261508e858351614d0b565b94509285019290850190600101615072565b5092979650505050505050565b60008060008060008060a087890312156150c657600080fd5b8635955060208701356150d881614d63565b945060408701359350606087013567ffffffffffffffff8111156150fb57600080fd5b61510789828a01614e64565b979a9699509497949695608090950135949350505050565b60008060008060008060c0878903121561513857600080fd5b86359550602087013561514a81614d63565b945060408701359350606087013561516181614d63565b92506080870135915060a087013561517881614fd9565b809150509295509295509295565b634e487b7160e01b600052604160045260246000fd5b604051601f8201601f1916810167ffffffffffffffff811182821017156151c5576151c5615186565b604052919050565b600067ffffffffffffffff8211156151e7576151e7615186565b50601f01601f191660200190565b600082601f83011261520657600080fd5b8135615219615214826151cd565b61519c565b81815284602083860101111561522e57600080fd5b816020850160208301376000918101602001919091529392505050565b6000806000806080858703121561526157600080fd5b843561526c81614d63565b9350602085013561527c81614d63565b925060408501359150606085013567ffffffffffffffff81111561529f57600080fd5b6152ab878288016151f5565b91505092959194509250565b6000806000604084860312156152cc57600080fd5b83359250602084013567ffffffffffffffff8111156152ea57600080fd5b6152f686828701614f2e565b9497909650939450505050565b60008060008060006060868803121561531b57600080fd5b85359450602086013567ffffffffffffffff8082111561533a57600080fd5b61534689838a01614f2e565b9096509450604088013591508082111561535f57600080fd5b5061536c88828901614f2e565b969995985093965092949392505050565b600082601f83011261538e57600080fd5b8135602067ffffffffffffffff8211156153aa576153aa615186565b8160051b6153b982820161519c565b92835284810182019282810190878511156153d357600080fd5b83870192505b84831015614b5e5782356153ec81614d63565b825291830191908301906153d9565b80356fffffffffffffffffffffffffffffffff81168114614d8357600080fd5b6000806000806000806000806000806101408b8d03121561543b57600080fd5b6154448b614d78565b995060208b013567ffffffffffffffff8082111561546157600080fd5b61546d8e838f016151f5565b9a5060408d013591508082111561548357600080fd5b61548f8e838f016151f5565b995060608d01359150808211156154a557600080fd5b6154b18e838f016151f5565b985060808d01359150808211156154c757600080fd5b506154d48d828e0161537d565b9650506154e360a08c01614d78565b94506154f160c08c01614d78565b93506154ff60e08c016153fb565b925061550e6101008c016153fb565b915061551d6101208c01614d78565b90509295989b9194979a5092959850565b60008060006040848603121561554357600080fd5b833567ffffffffffffffff8082111561555b57600080fd5b818601915086601f83011261556f57600080fd5b81358181111561557e57600080fd5b8760208260081b850101111561559357600080fd5b602092830195509350508401356155a981614fd9565b809150509250925092565b6000806000604084860312156155c957600080fd5b833567ffffffffffffffff808211156155e157600080fd5b6155ed878388016151f5565b9450602086013591508082111561560357600080fd5b506152f686828701614f2e565b6000806040838503121561562357600080fd5b823561562e81614d63565b91506020830135614e5981614d63565b600181811c9082168061565257607f821691505b6020821081141561567357634e487b7160e01b600052602260045260246000fd5b50919050565b634e487b7160e01b600052601160045260246000fd5b60008160001904831182151516156156a9576156a9615679565b500290565b634e487b7160e01b600052601260045260246000fd5b6000826156d3576156d36156ae565b500490565b634e487b7160e01b600052603260045260246000fd5b6000808335601e1984360301811261570557600080fd5b83018035915067ffffffffffffffff82111561572057600080fd5b602001915036819003821315611a3d57600080fd5b600060001982141561574957615749615679565b5060010190565b6000821982111561576357615763615679565b500190565b60008282101561577a5761577a615679565b500390565b60008161578e5761578e615679565b506000190190565b8054600090600181811c90808316806157b057607f831692505b60208084108214156157d257634e487b7160e01b600052602260045260246000fd5b8180156157e657600181146157f757615824565b60ff19861689528489019650615824565b60008881526020902060005b8681101561581c5781548b820152908501908301615803565b505084890196505b50505050505092915050565b600061583c8284615796565b600360fc1b81526001019392505050565b60006158598285615796565b8351615869818360208801614cdf565b01949350505050565b6000806040838503121561588557600080fd5b825167ffffffffffffffff81111561589c57600080fd5b8301601f810185136158ad57600080fd5b80516158bb615214826151cd565b8181528660208385010111156158d057600080fd5b6158e1826020830160208601614cdf565b60209590950151949694955050505050565b60008551615905818460208a01614cdf565b820184868237909301918252506020019392505050565b8281526040602082015260006131036040830184614d0b565b6000806040838503121561594857600080fd5b823567ffffffffffffffff81111561595f57600080fd5b61596b858286016151f5565b95602094909401359450505050565b81835281816020850137506000828201602090810191909152601f909101601f19169091010190565b8681528560208201526080604082015260006159c360808301868861597a565b82810360608401526159d681858761597a565b9998505050505050505050565b813581556020820135600182015560408201356002820155606082013560038201556080820135600482015560a0820135600582015560c082013560068201556007810160e0830135615a3581614d63565b81546001600160a01b0319166001600160a01b03919091161790555050565b6020808252818101839052600090604080840186845b87811015615ade578135835284820135858401528382013584840152606080830135908401526080808301359084015260a0808301359084015260c0808301359084015260e080830135615abd81614d63565b6001600160a01b031690840152610100928301929190910190600101615a6a565b5090979650505050505050565b82848237909101908152602001919050565b60008251615b0f818460208701614cdf565b9190910192915050565b600082615b2857615b286156ae565b500690565b6020808252602b908201527f496e697469616c697a61626c653a20636f6e7472616374206973206e6f74206960408201526a6e697469616c697a696e6760a81b606082015260800190565b7f416363657373436f6e74726f6c3a206163636f756e7420000000000000000000815260008351615bb0816017850160208801614cdf565b7f206973206d697373696e6720726f6c65200000000000000000000000000000006017918401918201528351615bed816028840160208801614cdf565b01602801949350505050565b60006001600160a01b03808716835280861660208401525083604083015260806060830152615c2b6080830184614d0b565b9695505050505050565b600060208284031215615c4757600080fd5b8151611ab881614cac565b634e487b7160e01b600052603160045260246000fd5b600060208284031215615c7a57600080fd5b8151611ab881614fd956fe416464726573733a206c6f772d6c6576656c2064656c65676174652063616c6c206661696c6564a26469706673582212209369b1026ee0eae0c77b6bedf200797055f2f30919c8072aea5d3cbefbc5edfa64736f6c634300080c0033",
  "linkReferences": {},
  "deployedLinkReferences": {}
}