{
  "_format": "hh-sol-artifact-1",
  "contractName": "ERC1155Drop",
  "sourceName": "contracts/base/ERC1155Drop.sol",
  "abi": [
    {
      "inputs": [
        {
          "internalType": "string",
          "name": "_name",
          "type": "string"
        },
        {
          "internalType": "string",
          "name": "_symbol",
          "type": "string"
        },
        {
          "internalType": "address",
          "name": "_royaltyRecipient",
          "type": "address"
        },
        {
          "internalType": "uint128",
          "name": "_royaltyBps",
          "type": "uint128"
        },
        {
          "internalType": "address",
          "name": "_primarySaleRecipient",
          "type": "address"
        }
      ],
      "stateMutability": "nonpayable",
      "type": "constructor"
    },
    {
      "anonymous": false,
      "inputs": [
        {
          "indexed": true,
          "internalType": "address",
          "name": "_owner",
          "type": "address"
        },
        {
          "indexed": true,
          "internalType": "address",
          "name": "_operator",
          "type": "address"
        },
        {
          "indexed": false,
          "internalType": "bool",
          "name": "_approved",
          "type": "bool"
        }
      ],
      "name": "ApprovalForAll",
      "type": "event"
    },
    {
      "anonymous": false,
      "inputs": [
        {
          "indexed": true,
          "internalType": "uint256",
          "name": "tokenId",
          "type": "uint256"
        },
        {
          "components": [
            {
              "internalType": "uint256",
              "name": "startTimestamp",
              "type": "uint256"
            },
            {
              "internalType": "uint256",
              "name": "maxClaimableSupply",
              "type": "uint256"
            },
            {
              "internalType": "uint256",
              "name": "supplyClaimed",
              "type": "uint256"
            },
            {
              "internalType": "uint256",
              "name": "quantityLimitPerTransaction",
              "type": "uint256"
            },
            {
              "internalType": "uint256",
              "name": "waitTimeInSecondsBetweenClaims",
              "type": "uint256"
            },
            {
              "internalType": "bytes32",
              "name": "merkleRoot",
              "type": "bytes32"
            },
            {
              "internalType": "uint256",
              "name": "pricePerToken",
              "type": "uint256"
            },
            {
              "internalType": "address",
              "name": "currency",
              "type": "address"
            }
          ],
          "indexed": false,
          "internalType": "struct IClaimCondition.ClaimCondition",
          "name": "condition",
          "type": "tuple"
        },
        {
          "indexed": false,
          "internalType": "bool",
          "name": "resetEligibility",
          "type": "bool"
        }
      ],
      "name": "ClaimConditionUpdated",
      "type": "event"
    },
    {
      "anonymous": false,
      "inputs": [
        {
          "indexed": false,
          "internalType": "string",
          "name": "prevURI",
          "type": "string"
        },
        {
          "indexed": false,
          "internalType": "string",
          "name": "newURI",
          "type": "string"
        }
      ],
      "name": "ContractURIUpdated",
      "type": "event"
    },
    {
      "anonymous": false,
      "inputs": [
        {
          "indexed": true,
          "internalType": "address",
          "name": "newRoyaltyRecipient",
          "type": "address"
        },
        {
          "indexed": false,
          "internalType": "uint256",
          "name": "newRoyaltyBps",
          "type": "uint256"
        }
      ],
      "name": "DefaultRoyalty",
      "type": "event"
    },
    {
      "anonymous": false,
      "inputs": [
        {
          "indexed": true,
          "internalType": "address",
          "name": "prevOwner",
          "type": "address"
        },
        {
          "indexed": true,
          "internalType": "address",
          "name": "newOwner",
          "type": "address"
        }
      ],
      "name": "OwnerUpdated",
      "type": "event"
    },
    {
      "anonymous": false,
      "inputs": [
        {
          "indexed": true,
          "internalType": "address",
          "name": "recipient",
          "type": "address"
        }
      ],
      "name": "PrimarySaleRecipientUpdated",
      "type": "event"
    },
    {
      "anonymous": false,
      "inputs": [
        {
          "indexed": true,
          "internalType": "uint256",
          "name": "tokenId",
          "type": "uint256"
        },
        {
          "indexed": true,
          "internalType": "address",
          "name": "royaltyRecipient",
          "type": "address"
        },
        {
          "indexed": false,
          "internalType": "uint256",
          "name": "royaltyBps",
          "type": "uint256"
        }
      ],
      "name": "RoyaltyForToken",
      "type": "event"
    },
    {
      "anonymous": false,
      "inputs": [
        {
          "indexed": true,
          "internalType": "uint256",
          "name": "index",
          "type": "uint256"
        },
        {
          "indexed": false,
          "internalType": "string",
          "name": "revealedURI",
          "type": "string"
        }
      ],
      "name": "TokenURIRevealed",
      "type": "event"
    },
    {
      "anonymous": false,
      "inputs": [
        {
          "indexed": true,
          "internalType": "address",
          "name": "claimer",
          "type": "address"
        },
        {
          "indexed": true,
          "internalType": "address",
          "name": "receiver",
          "type": "address"
        },
        {
          "indexed": true,
          "internalType": "uint256",
          "name": "tokenId",
          "type": "uint256"
        },
        {
          "indexed": false,
          "internalType": "uint256",
          "name": "quantityClaimed",
          "type": "uint256"
        }
      ],
      "name": "TokensClaimed",
      "type": "event"
    },
    {
      "anonymous": false,
      "inputs": [
        {
          "indexed": true,
          "internalType": "uint256",
          "name": "startTokenId",
          "type": "uint256"
        },
        {
          "indexed": false,
          "internalType": "uint256",
          "name": "endTokenId",
          "type": "uint256"
        },
        {
          "indexed": false,
          "internalType": "string",
          "name": "baseURI",
          "type": "string"
        },
        {
          "indexed": false,
          "internalType": "bytes",
          "name": "encryptedBaseURI",
          "type": "bytes"
        }
      ],
      "name": "TokensLazyMinted",
      "type": "event"
    },
    {
      "anonymous": false,
      "inputs": [
        {
          "indexed": true,
          "internalType": "address",
          "name": "_operator",
          "type": "address"
        },
        {
          "indexed": true,
          "internalType": "address",
          "name": "_from",
          "type": "address"
        },
        {
          "indexed": true,
          "internalType": "address",
          "name": "_to",
          "type": "address"
        },
        {
          "indexed": false,
          "internalType": "uint256[]",
          "name": "_ids",
          "type": "uint256[]"
        },
        {
          "indexed": false,
          "internalType": "uint256[]",
          "name": "_values",
          "type": "uint256[]"
        }
      ],
      "name": "TransferBatch",
      "type": "event"
    },
    {
      "anonymous": false,
      "inputs": [
        {
          "indexed": true,
          "internalType": "address",
          "name": "_operator",
          "type": "address"
        },
        {
          "indexed": true,
          "internalType": "address",
          "name": "_from",
          "type": "address"
        },
        {
          "indexed": true,
          "internalType": "address",
          "name": "_to",
          "type": "address"
        },
        {
          "indexed": false,
          "internalType": "uint256",
          "name": "_id",
          "type": "uint256"
        },
        {
          "indexed": false,
          "internalType": "uint256",
          "name": "_value",
          "type": "uint256"
        }
      ],
      "name": "TransferSingle",
      "type": "event"
    },
    {
      "anonymous": false,
      "inputs": [
        {
          "indexed": false,
          "internalType": "string",
          "name": "_value",
          "type": "string"
        },
        {
          "indexed": true,
          "internalType": "uint256",
          "name": "_id",
          "type": "uint256"
        }
      ],
      "name": "URI",
      "type": "event"
    },
    {
      "inputs": [
        {
          "internalType": "address",
          "name": "",
          "type": "address"
        },
        {
          "internalType": "uint256",
          "name": "",
          "type": "uint256"
        }
      ],
      "name": "balanceOf",
      "outputs": [
        {
          "internalType": "uint256",
          "name": "",
          "type": "uint256"
        }
      ],
      "stateMutability": "view",
      "type": "function"
    },
    {
      "inputs": [
        {
          "internalType": "address[]",
          "name": "accounts",
          "type": "address[]"
        },
        {
          "internalType": "uint256[]",
          "name": "ids",
          "type": "uint256[]"
        }
      ],
      "name": "balanceOfBatch",
      "outputs": [
        {
          "internalType": "uint256[]",
          "name": "",
          "type": "uint256[]"
        }
      ],
      "stateMutability": "view",
      "type": "function"
    },
    {
      "inputs": [
        {
          "internalType": "address",
          "name": "_receiver",
          "type": "address"
        },
        {
          "internalType": "uint256",
          "name": "_tokenId",
          "type": "uint256"
        },
        {
          "internalType": "uint256",
          "name": "_quantity",
          "type": "uint256"
        },
        {
          "internalType": "address",
          "name": "_currency",
          "type": "address"
        },
        {
          "internalType": "uint256",
          "name": "_pricePerToken",
          "type": "uint256"
        },
        {
          "components": [
            {
              "internalType": "bytes32[]",
              "name": "proof",
              "type": "bytes32[]"
            },
            {
              "internalType": "uint256",
              "name": "maxQuantityInAllowlist",
              "type": "uint256"
            }
          ],
          "internalType": "struct IDropSinglePhase1155.AllowlistProof",
          "name": "_allowlistProof",
          "type": "tuple"
        },
        {
          "internalType": "bytes",
          "name": "_data",
          "type": "bytes"
        }
      ],
      "name": "claim",
      "outputs": [],
      "stateMutability": "payable",
      "type": "function"
    },
    {
      "inputs": [
        {
          "internalType": "uint256",
          "name": "",
          "type": "uint256"
        }
      ],
      "name": "claimCondition",
      "outputs": [
        {
          "internalType": "uint256",
          "name": "startTimestamp",
          "type": "uint256"
        },
        {
          "internalType": "uint256",
          "name": "maxClaimableSupply",
          "type": "uint256"
        },
        {
          "internalType": "uint256",
          "name": "supplyClaimed",
          "type": "uint256"
        },
        {
          "internalType": "uint256",
          "name": "quantityLimitPerTransaction",
          "type": "uint256"
        },
        {
          "internalType": "uint256",
          "name": "waitTimeInSecondsBetweenClaims",
          "type": "uint256"
        },
        {
          "internalType": "bytes32",
          "name": "merkleRoot",
          "type": "bytes32"
        },
        {
          "internalType": "uint256",
          "name": "pricePerToken",
          "type": "uint256"
        },
        {
          "internalType": "address",
          "name": "currency",
          "type": "address"
        }
      ],
      "stateMutability": "view",
      "type": "function"
    },
    {
      "inputs": [],
      "name": "contractURI",
      "outputs": [
        {
          "internalType": "string",
          "name": "",
          "type": "string"
        }
      ],
      "stateMutability": "view",
      "type": "function"
    },
    {
      "inputs": [
        {
          "internalType": "bytes",
          "name": "data",
          "type": "bytes"
        },
        {
          "internalType": "bytes",
          "name": "key",
          "type": "bytes"
        }
      ],
      "name": "encryptDecrypt",
      "outputs": [
        {
          "internalType": "bytes",
          "name": "result",
          "type": "bytes"
        }
      ],
      "stateMutability": "pure",
      "type": "function"
    },
    {
      "inputs": [
        {
          "internalType": "uint256",
          "name": "",
          "type": "uint256"
        }
      ],
      "name": "encryptedData",
      "outputs": [
        {
          "internalType": "bytes",
          "name": "",
          "type": "bytes"
        }
      ],
      "stateMutability": "view",
      "type": "function"
    },
    {
      "inputs": [],
      "name": "getBaseURICount",
      "outputs": [
        {
          "internalType": "uint256",
          "name": "",
          "type": "uint256"
        }
      ],
      "stateMutability": "view",
      "type": "function"
    },
    {
      "inputs": [
        {
          "internalType": "uint256",
          "name": "_index",
          "type": "uint256"
        }
      ],
      "name": "getBatchIdAtIndex",
      "outputs": [
        {
          "internalType": "uint256",
          "name": "",
          "type": "uint256"
        }
      ],
      "stateMutability": "view",
      "type": "function"
    },
    {
      "inputs": [
        {
          "internalType": "uint256",
          "name": "_tokenId",
          "type": "uint256"
        },
        {
          "internalType": "address",
          "name": "_claimer",
          "type": "address"
        }
      ],
      "name": "getClaimTimestamp",
      "outputs": [
        {
          "internalType": "uint256",
          "name": "lastClaimedAt",
          "type": "uint256"
        },
        {
          "internalType": "uint256",
          "name": "nextValidClaimTimestamp",
          "type": "uint256"
        }
      ],
      "stateMutability": "view",
      "type": "function"
    },
    {
      "inputs": [],
      "name": "getDefaultRoyaltyInfo",
      "outputs": [
        {
          "internalType": "address",
          "name": "",
          "type": "address"
        },
        {
          "internalType": "uint16",
          "name": "",
          "type": "uint16"
        }
      ],
      "stateMutability": "view",
      "type": "function"
    },
    {
      "inputs": [
        {
          "internalType": "uint256",
          "name": "_batchId",
          "type": "uint256"
        },
        {
          "internalType": "bytes",
          "name": "_key",
          "type": "bytes"
        }
      ],
      "name": "getRevealURI",
      "outputs": [
        {
          "internalType": "string",
          "name": "revealedURI",
          "type": "string"
        }
      ],
      "stateMutability": "view",
      "type": "function"
    },
    {
      "inputs": [
        {
          "internalType": "uint256",
          "name": "_tokenId",
          "type": "uint256"
        }
      ],
      "name": "getRoyaltyInfoForToken",
      "outputs": [
        {
          "internalType": "address",
          "name": "",
          "type": "address"
        },
        {
          "internalType": "uint16",
          "name": "",
          "type": "uint16"
        }
      ],
      "stateMutability": "view",
      "type": "function"
    },
    {
      "inputs": [
        {
          "internalType": "address",
          "name": "",
          "type": "address"
        },
        {
          "internalType": "address",
          "name": "",
          "type": "address"
        }
      ],
      "name": "isApprovedForAll",
      "outputs": [
        {
          "internalType": "bool",
          "name": "",
          "type": "bool"
        }
      ],
      "stateMutability": "view",
      "type": "function"
    },
    {
      "inputs": [
        {
          "internalType": "uint256",
          "name": "_batchId",
          "type": "uint256"
        }
      ],
      "name": "isEncryptedBatch",
      "outputs": [
        {
          "internalType": "bool",
          "name": "",
          "type": "bool"
        }
      ],
      "stateMutability": "view",
      "type": "function"
    },
    {
      "inputs": [
        {
          "internalType": "uint256",
          "name": "_amount",
          "type": "uint256"
        },
        {
          "internalType": "string",
          "name": "_baseURIForTokens",
          "type": "string"
        },
        {
          "internalType": "bytes",
          "name": "_data",
          "type": "bytes"
        }
      ],
      "name": "lazyMint",
      "outputs": [
        {
          "internalType": "uint256",
          "name": "batchId",
          "type": "uint256"
        }
      ],
      "stateMutability": "nonpayable",
      "type": "function"
    },
    {
      "inputs": [
        {
          "internalType": "bytes[]",
          "name": "data",
          "type": "bytes[]"
        }
      ],
      "name": "multicall",
      "outputs": [
        {
          "internalType": "bytes[]",
          "name": "results",
          "type": "bytes[]"
        }
      ],
      "stateMutability": "nonpayable",
      "type": "function"
    },
    {
      "inputs": [],
      "name": "name",
      "outputs": [
        {
          "internalType": "string",
          "name": "",
          "type": "string"
        }
      ],
      "stateMutability": "view",
      "type": "function"
    },
    {
      "inputs": [],
      "name": "nextTokenIdToMint",
      "outputs": [
        {
          "internalType": "uint256",
          "name": "",
          "type": "uint256"
        }
      ],
      "stateMutability": "view",
      "type": "function"
    },
    {
      "inputs": [],
      "name": "owner",
      "outputs": [
        {
          "internalType": "address",
          "name": "",
          "type": "address"
        }
      ],
      "stateMutability": "view",
      "type": "function"
    },
    {
      "inputs": [],
      "name": "primarySaleRecipient",
      "outputs": [
        {
          "internalType": "address",
          "name": "",
          "type": "address"
        }
      ],
      "stateMutability": "view",
      "type": "function"
    },
    {
      "inputs": [
        {
          "internalType": "uint256",
          "name": "_index",
          "type": "uint256"
        },
        {
          "internalType": "bytes",
          "name": "_key",
          "type": "bytes"
        }
      ],
      "name": "reveal",
      "outputs": [
        {
          "internalType": "string",
          "name": "revealedURI",
          "type": "string"
        }
      ],
      "stateMutability": "nonpayable",
      "type": "function"
    },
    {
      "inputs": [
        {
          "internalType": "uint256",
          "name": "tokenId",
          "type": "uint256"
        },
        {
          "internalType": "uint256",
          "name": "salePrice",
          "type": "uint256"
        }
      ],
      "name": "royaltyInfo",
      "outputs": [
        {
          "internalType": "address",
          "name": "receiver",
          "type": "address"
        },
        {
          "internalType": "uint256",
          "name": "royaltyAmount",
          "type": "uint256"
        }
      ],
      "stateMutability": "view",
      "type": "function"
    },
    {
      "inputs": [
        {
          "internalType": "address",
          "name": "from",
          "type": "address"
        },
        {
          "internalType": "address",
          "name": "to",
          "type": "address"
        },
        {
          "internalType": "uint256[]",
          "name": "ids",
          "type": "uint256[]"
        },
        {
          "internalType": "uint256[]",
          "name": "amounts",
          "type": "uint256[]"
        },
        {
          "internalType": "bytes",
          "name": "data",
          "type": "bytes"
        }
      ],
      "name": "safeBatchTransferFrom",
      "outputs": [],
      "stateMutability": "nonpayable",
      "type": "function"
    },
    {
      "inputs": [
        {
          "internalType": "address",
          "name": "from",
          "type": "address"
        },
        {
          "internalType": "address",
          "name": "to",
          "type": "address"
        },
        {
          "internalType": "uint256",
          "name": "id",
          "type": "uint256"
        },
        {
          "internalType": "uint256",
          "name": "amount",
          "type": "uint256"
        },
        {
          "internalType": "bytes",
          "name": "data",
          "type": "bytes"
        }
      ],
      "name": "safeTransferFrom",
      "outputs": [],
      "stateMutability": "nonpayable",
      "type": "function"
    },
    {
      "inputs": [
        {
          "internalType": "address",
          "name": "operator",
          "type": "address"
        },
        {
          "internalType": "bool",
          "name": "approved",
          "type": "bool"
        }
      ],
      "name": "setApprovalForAll",
      "outputs": [],
      "stateMutability": "nonpayable",
      "type": "function"
    },
    {
      "inputs": [
        {
          "internalType": "uint256",
          "name": "_tokenId",
          "type": "uint256"
        },
        {
          "components": [
            {
              "internalType": "uint256",
              "name": "startTimestamp",
              "type": "uint256"
            },
            {
              "internalType": "uint256",
              "name": "maxClaimableSupply",
              "type": "uint256"
            },
            {
              "internalType": "uint256",
              "name": "supplyClaimed",
              "type": "uint256"
            },
            {
              "internalType": "uint256",
              "name": "quantityLimitPerTransaction",
              "type": "uint256"
            },
            {
              "internalType": "uint256",
              "name": "waitTimeInSecondsBetweenClaims",
              "type": "uint256"
            },
            {
              "internalType": "bytes32",
              "name": "merkleRoot",
              "type": "bytes32"
            },
            {
              "internalType": "uint256",
              "name": "pricePerToken",
              "type": "uint256"
            },
            {
              "internalType": "address",
              "name": "currency",
              "type": "address"
            }
          ],
          "internalType": "struct IClaimCondition.ClaimCondition",
          "name": "_condition",
          "type": "tuple"
        },
        {
          "internalType": "bool",
          "name": "_resetClaimEligibility",
          "type": "bool"
        }
      ],
      "name": "setClaimConditions",
      "outputs": [],
      "stateMutability": "nonpayable",
      "type": "function"
    },
    {
      "inputs": [
        {
          "internalType": "string",
          "name": "_uri",
          "type": "string"
        }
      ],
      "name": "setContractURI",
      "outputs": [],
      "stateMutability": "nonpayable",
      "type": "function"
    },
    {
      "inputs": [
        {
          "internalType": "address",
          "name": "_royaltyRecipient",
          "type": "address"
        },
        {
          "internalType": "uint256",
          "name": "_royaltyBps",
          "type": "uint256"
        }
      ],
      "name": "setDefaultRoyaltyInfo",
      "outputs": [],
      "stateMutability": "nonpayable",
      "type": "function"
    },
    {
      "inputs": [
        {
          "internalType": "address",
          "name": "_newOwner",
          "type": "address"
        }
      ],
      "name": "setOwner",
      "outputs": [],
      "stateMutability": "nonpayable",
      "type": "function"
    },
    {
      "inputs": [
        {
          "internalType": "address",
          "name": "_saleRecipient",
          "type": "address"
        }
      ],
      "name": "setPrimarySaleRecipient",
      "outputs": [],
      "stateMutability": "nonpayable",
      "type": "function"
    },
    {
      "inputs": [
        {
          "internalType": "uint256",
          "name": "_tokenId",
          "type": "uint256"
        },
        {
          "internalType": "address",
          "name": "_recipient",
          "type": "address"
        },
        {
          "internalType": "uint256",
          "name": "_bps",
          "type": "uint256"
        }
      ],
      "name": "setRoyaltyInfoForToken",
      "outputs": [],
      "stateMutability": "nonpayable",
      "type": "function"
    },
    {
      "inputs": [
        {
          "internalType": "bytes4",
          "name": "interfaceId",
          "type": "bytes4"
        }
      ],
      "name": "supportsInterface",
      "outputs": [
        {
          "internalType": "bool",
          "name": "",
          "type": "bool"
        }
      ],
      "stateMutability": "view",
      "type": "function"
    },
    {
      "inputs": [],
      "name": "symbol",
      "outputs": [
        {
          "internalType": "string",
          "name": "",
          "type": "string"
        }
      ],
      "stateMutability": "view",
      "type": "function"
    },
    {
      "inputs": [
        {
          "internalType": "uint256",
          "name": "",
          "type": "uint256"
        }
      ],
      "name": "totalSupply",
      "outputs": [
        {
          "internalType": "uint256",
          "name": "",
          "type": "uint256"
        }
      ],
      "stateMutability": "view",
      "type": "function"
    },
    {
      "inputs": [
        {
          "internalType": "uint256",
          "name": "_tokenId",
          "type": "uint256"
        }
      ],
      "name": "uri",
      "outputs": [
        {
          "internalType": "string",
          "name": "",
          "type": "string"
        }
      ],
      "stateMutability": "view",
      "type": "function"
    },
    {
      "inputs": [
        {
          "internalType": "uint256",
          "name": "_tokenId",
          "type": "uint256"
        },
        {
          "internalType": "address",
          "name": "_claimer",
          "type": "address"
        },
        {
          "internalType": "uint256",
          "name": "_quantity",
          "type": "uint256"
        },
        {
          "internalType": "address",
          "name": "_currency",
          "type": "address"
        },
        {
          "internalType": "uint256",
          "name": "_pricePerToken",
          "type": "uint256"
        },
        {
          "internalType": "bool",
          "name": "verifyMaxQuantityPerTransaction",
          "type": "bool"
        }
      ],
      "name": "verifyClaim",
      "outputs": [],
      "stateMutability": "view",
      "type": "function"
    },
    {
      "inputs": [
        {
          "internalType": "uint256",
          "name": "_tokenId",
          "type": "uint256"
        },
        {
          "internalType": "address",
          "name": "_claimer",
          "type": "address"
        },
        {
          "internalType": "uint256",
          "name": "_quantity",
          "type": "uint256"
        },
        {
          "components": [
            {
              "internalType": "bytes32[]",
              "name": "proof",
              "type": "bytes32[]"
            },
            {
              "internalType": "uint256",
              "name": "maxQuantityInAllowlist",
              "type": "uint256"
            }
          ],
          "internalType": "struct IDropSinglePhase1155.AllowlistProof",
          "name": "_allowlistProof",
          "type": "tuple"
        }
      ],
      "name": "verifyClaimMerkleProof",
      "outputs": [
        {
          "internalType": "bool",
          "name": "validMerkleProof",
          "type": "bool"
        },
        {
          "internalType": "uint256",
          "name": "merkleProofIndex",
          "type": "uint256"
        }
      ],
      "stateMutability": "view",
      "type": "function"
    }
  ],
  "bytecode": "0x60806040523480156200001157600080fd5b5060405162004a4938038062004a49833981016040819052620000349162000379565b8451859085906200004d906000906020850190620001e9565b50805162000063906001906020840190620001e9565b5050506200007733620000a260201b60201c565b6200008c836001600160801b038416620000f4565b62000097816200019f565b505050505062000466565b600680546001600160a01b038381166001600160a01b0319831681179093556040519116919082907f8292fce18fa69edf4db7b94ea2e58241df0ae57f97e0a6c9b29067028bf92d7690600090a35050565b6127108111156200013d5760405162461bcd60e51b815260206004820152600f60248201526e45786365656473206d61782062707360881b604482015260640160405180910390fd5b600780546001600160a01b0384166001600160b01b03199091168117600160a01b61ffff851602179091556040518281527f90d7ec04bcb8978719414f82e52e4cb651db41d0e6f8cea6118c2191e6183adb9060200160405180910390a25050565b600b80546001600160a01b0319166001600160a01b0383169081179091556040517f299d17e95023f496e0ffc4909cff1a61f74bb5eb18de6f900f4155bfa1b3b33390600090a250565b828054620001f79062000429565b90600052602060002090601f0160209004810192826200021b576000855562000266565b82601f106200023657805160ff191683800117855562000266565b8280016001018555821562000266579182015b828111156200026657825182559160200191906001019062000249565b506200027492915062000278565b5090565b5b8082111562000274576000815560010162000279565b634e487b7160e01b600052604160045260246000fd5b600082601f830112620002b757600080fd5b81516001600160401b0380821115620002d457620002d46200028f565b604051601f8301601f19908116603f01168101908282118183101715620002ff57620002ff6200028f565b816040528381526020925086838588010111156200031c57600080fd5b600091505b8382101562000340578582018301518183018401529082019062000321565b83821115620003525760008385830101525b9695505050505050565b80516001600160a01b03811681146200037457600080fd5b919050565b600080600080600060a086880312156200039257600080fd5b85516001600160401b0380821115620003aa57600080fd5b620003b889838a01620002a5565b96506020880151915080821115620003cf57600080fd5b50620003de88828901620002a5565b945050620003ef604087016200035c565b60608701519093506001600160801b03811681146200040d57600080fd5b91506200041d608087016200035c565b90509295509295909350565b600181811c908216806200043e57607f821691505b602082108114156200046057634e487b7160e01b600052602260045260246000fd5b50919050565b6145d380620004766000396000f3fe6080604052600436106102245760003560e01c806386ee745d11610123578063afb82916116100ab578063e71503221161006f578063e715032214610709578063e8a3d48514610729578063e9703d251461073e578063e985e9c5146107e9578063f242432a1461082457600080fd5b8063afb8291614610651578063b24f2d3914610671578063bd85b0391461069c578063ce805642146106c9578063d37c353b146106e957600080fd5b80639bcf7a15116100f25780639bcf7a15146105a45780639fc4d68f146105c4578063a05112fc146105e4578063a22cb46514610604578063ac9650d81461062457600080fd5b806386ee745d1461051c5780638da5cb5b14610551578063938e3d7b1461056f57806395d89b411461058f57600080fd5b80632eb2c2d6116101b15780634e1273f4116101755780634e1273f414610463578063600dd5ea1461049057806363b45e2d146104b05780636f4f2837146104c55780637cb351f6146104e557600080fd5b80632eb2c2d6146103ac57806332df1279146103cc5780633b1475a7146103ec578063492e224b146104015780634cc157df1461042157600080fd5b80630e89341c116101f85780630e89341c146102f857806313af4035146103185780632419f51b1461033a57806327db5f081461035a5780632a55205a1461036d57600080fd5b8062fdd58e1461022957806301ffc9a71461027457806306fdde03146102a4578063079fe40e146102c6575b600080fd5b34801561023557600080fd5b50610261610244366004613603565b600260209081526000928352604080842090915290825290205481565b6040519081526020015b60405180910390f35b34801561028057600080fd5b5061029461028f366004613643565b610844565b604051901515815260200161026b565b3480156102b057600080fd5b506102b96108b1565b60405161026b91906136b8565b3480156102d257600080fd5b50600b546001600160a01b03165b6040516001600160a01b03909116815260200161026b565b34801561030457600080fd5b506102b96103133660046136cb565b61093f565b34801561032457600080fd5b506103386103333660046136e4565b6109ae565b005b34801561034657600080fd5b506102616103553660046136cb565b610a04565b6103386103683660046137e8565b610a72565b34801561037957600080fd5b5061038d61038836600461388a565b610c9f565b604080516001600160a01b03909316835260208301919091520161026b565b3480156103b857600080fd5b506103386103c7366004613941565b610cdc565b3480156103d857600080fd5b506103386103e73660046139f9565b610d6b565b3480156103f857600080fd5b50600c54610261565b34801561040d57600080fd5b5061029461041c3660046136cb565b610ff9565b34801561042d57600080fd5b5061044161043c3660046136cb565b61101f565b604080516001600160a01b03909316835261ffff90911660208301520161026b565b34801561046f57600080fd5b5061048361047e366004613a48565b61108a565b60405161026b9190613b4e565b34801561049c57600080fd5b506103386104ab366004613603565b6111c1565b3480156104bc57600080fd5b50600954610261565b3480156104d157600080fd5b506103386104e03660046136e4565b611214565b3480156104f157600080fd5b50610505610500366004613b61565b611262565b60408051921515835260208301919091520161026b565b34801561052857600080fd5b5061053c610537366004613bc2565b6114a8565b6040805192835260208301919091520161026b565b34801561055d57600080fd5b506006546001600160a01b03166102e0565b34801561057b57600080fd5b5061033861058a366004613bee565b6114fa565b34801561059b57600080fd5b506102b9611548565b3480156105b057600080fd5b506103386105bf366004613c37565b611555565b3480156105d057600080fd5b506102b96105df366004613cae565b6115aa565b3480156105f057600080fd5b506102b96105ff3660046136cb565b611737565b34801561061057600080fd5b5061033861061f366004613cfa565b611750565b34801561063057600080fd5b5061064461063f366004613d31565b611809565b60405161026b9190613da6565b34801561065d57600080fd5b5061033861066c366004613e08565b6118fe565b34801561067d57600080fd5b506007546001600160a01b03811690600160a01b900461ffff16610441565b3480156106a857600080fd5b506102616106b73660046136cb565b60126020526000908152604090205481565b3480156106d557600080fd5b506102b96106e4366004613cae565b611b13565b3480156106f557600080fd5b50610261610704366004613e6b565b611bd7565b34801561071557600080fd5b506102b9610724366004613ee5565b611c6f565b34801561073557600080fd5b506102b9611ce4565b34801561074a57600080fd5b506107a56107593660046136cb565b600e60205260009081526040902080546001820154600283015460038401546004850154600586015460068701546007909701549596949593949293919290916001600160a01b031688565b604080519889526020890197909752958701949094526060860192909252608085015260a084015260c08301526001600160a01b031660e08201526101000161026b565b3480156107f557600080fd5b50610294610804366004613f41565b600360209081526000928352604080842090915290825290205460ff1681565b34801561083057600080fd5b5061033861083f366004613f6b565b611cf1565b60006301ffc9a760e01b6001600160e01b0319831614806108755750636cdb3d1360e11b6001600160e01b03198316145b8061089057506303a24d0760e21b6001600160e01b03198316145b806108ab57506001600160e01b0319821663152a902d60e11b145b92915050565b600080546108be90613fd0565b80601f01602080910402602001604051908101604052809291908181526020018280546108ea90613fd0565b80156109375780601f1061090c57610100808354040283529160200191610937565b820191906000526020600020905b81548152906001019060200180831161091a57829003601f168201915b505050505081565b6060600061094c83611d79565b509050600061095a84611e8c565b905061096582610ff9565b15610993578060405160200161097b9190614005565b60405160208183030381529060405292505050919050565b8061099d85611fed565b60405160200161097b92919061402a565b6109b661210b565b6109f85760405162461bcd60e51b815260206004820152600e60248201526d139bdd08185d5d1a1bdc9a5e995960921b60448201526064015b60405180910390fd5b610a0181612138565b50565b6000610a0f60095490565b8210610a4d5760405162461bcd60e51b815260206004820152600d60248201526c092dcecc2d8d2c840d2dcc8caf609b1b60448201526064016109ef565b60098281548110610a6057610a60614059565b90600052602060002001549050919050565b610a818688878787878761218a565b6000868152600e60209081526040808320815161010081018352815481526001820154818501526002820154818401526003820154606082015260048201546080820152600582015460a0820152600682015460c08201526007909101546001600160a01b031660e0820152898452600f9092528220549091610b0689338a88611262565b509050600060208601351580610b1e575060a0840151155b9050610b2e8a338b8b8b866118fe565b818015610b3f575060008660200135115b15610b8e57610b8e33600085815260116020908152604080832072ffffffffffffffffffffffffffffffffffffff600886901c16845290915290208054600160ff9093169290921b9091179055565b8884604001818151610ba09190614085565b905250600083815260106020908152604080832033845282528083204290558c8352600e8252808320875181559187015160018301558601516002820155606086015160038201556080860151600482015560a0860151600582015560c0860151600682015560e0860151600790910180546001600160a01b0319166001600160a01b03909216919091179055610c39908a8a8a612219565b610c448b8b8b6122e0565b896001600160a01b038c16336001600160a01b03167fff097c7d8b1957a4ff09ef1361b5fb54dcede3941ba836d0beb9d10bec725de68c604051610c8a91815260200190565b60405180910390a45050505050505050505050565b600080600080610cae8661101f565b90945084925061ffff169050612710610cc7828761409d565b610cd191906140d2565b925050509250929050565b6001600160a01b038516331480610d1657506001600160a01b038516600090815260036020908152604080832033845290915290205460ff165b610d575760405162461bcd60e51b81526020600482015260126024820152710853d5d3915497d3d497d054141493d5915160721b60448201526064016109ef565b610d6485858585856122fb565b5050505050565b610d7361210b565b610db05760405162461bcd60e51b815260206004820152600e60248201526d139bdd08185d5d1a1bdc9a5e995960921b60448201526064016109ef565b6000838152600e602090815260408083208151610100810183528154815260018201548185015260028201548184019081526003830154606083015260048301546080830152600583015460a0830152600683015460c08301526007909201546001600160a01b031660e0820152878552600f90935292205491519091908315610e77575060003360405160609190911b6bffffffffffffffffffffffff191660208201524360348201526054016040516020818303038152906040528051906020012091505b8460200135811115610ecb5760405162461bcd60e51b815260206004820152601260248201527f6d617820737570706c7920636c61696d6564000000000000000000000000000060448201526064016109ef565b6000604051806101000160405280876000013581526020018760200135815260200183815260200187606001358152602001876080013581526020018760a0013581526020018760c0013581526020018760e0016020810190610f2e91906136e4565b6001600160a01b039081169091526000898152600e6020908152604080832085518155858301516001820155858201516002820155606086015160038201556080860151600482015560a0860151600582015560c0860151600682015560e0860151600790910180546001600160a01b0319169190951617909355600f90528190208590555190915087907f108e373025a2f7dad2e968ca6ce56d87eab1a9c17dc49817fee9e3da0dc9f8a190610fe890899089906140e6565b60405180910390a250505050505050565b6000818152600d60205260408120805482919061101590613fd0565b9050119050919050565b6000818152600860209081526040808320815180830190925280546001600160a01b0316808352600190910154928201929092528291156110665780516020820151611080565b6007546001600160a01b03811690600160a01b900461ffff165b9250925050915091565b606081518351146110cf5760405162461bcd60e51b815260206004820152600f60248201526e0988a9c8ea890be9a92a69a82a8869608b1b60448201526064016109ef565b6000835167ffffffffffffffff8111156110eb576110eb613717565b604051908082528060200260200182016040528015611114578160200160208202803683370190505b50905060005b84518110156111b9576002600086838151811061113957611139614059565b60200260200101516001600160a01b03166001600160a01b03168152602001908152602001600020600085838151811061117557611175614059565b602002602001015181526020019081526020016000205482828151811061119e5761119e614059565b60209081029190910101526111b281614158565b905061111a565b509392505050565b6111c961210b565b6112065760405162461bcd60e51b815260206004820152600e60248201526d139bdd08185d5d1a1bdc9a5e995960921b60448201526064016109ef565b6112108282612512565b5050565b61121c61210b565b6112595760405162461bcd60e51b815260206004820152600e60248201526d139bdd08185d5d1a1bdc9a5e995960921b60448201526064016109ef565b610a01816125c7565b6000848152600e60209081526040808320815161010081018352815481526001820154938101939093526002810154918301919091526003810154606083015260048101546080830152600581015460a08301819052600682015460c08401526007909101546001600160a01b031660e08301528291901561149e576113676112eb8580614173565b8080602002602001604051908101604052809392919081815260200183836020028082843760009201919091525050505060a08301516040516bffffffffffffffffffffffff1960608b901b16602080830191909152880135603482015260540160405160208183030381529060405280519060200120612611565b9093509150826113b95760405162461bcd60e51b815260206004820152601060248201527f6e6f7420696e20616c6c6f776c6973740000000000000000000000000000000060448201526064016109ef565b6000878152600f602090815260408083205483526011825280832072ffffffffffffffffffffffffffffffffffffff60088b901c168452909152902054600160ff88161b161561143b5760405162461bcd60e51b815260206004820152600d60248201526c1c1c9bdbd98818db185a5b5959609a1b60448201526064016109ef565b6020840135158015906114515750836020013585115b1561149e5760405162461bcd60e51b815260206004820152601160248201527f496e76616c6964207174792070726f6f6600000000000000000000000000000060448201526064016109ef565b5094509492505050565b6000828152600f60209081526040808320548352601082528083206001600160a01b0385168452825280832054858452600e909252909120600401548101818110156114f357506000195b9250929050565b61150261210b565b61153f5760405162461bcd60e51b815260206004820152600e60248201526d139bdd08185d5d1a1bdc9a5e995960921b60448201526064016109ef565b610a01816126df565b600180546108be90613fd0565b61155d61210b565b61159a5760405162461bcd60e51b815260206004820152600e60248201526d139bdd08185d5d1a1bdc9a5e995960921b60448201526064016109ef565b6115a58383836127c1565b505050565b6000838152600d60205260408120805460609291906115c890613fd0565b80601f01602080910402602001604051908101604052809291908181526020018280546115f490613fd0565b80156116415780601f1061161657610100808354040283529160200191611641565b820191906000526020600020905b81548152906001019060200180831161162457829003601f168201915b5050505050905080516000141561169a5760405162461bcd60e51b815260206004820152601160248201527f4e6f7468696e6720746f2072657665616c00000000000000000000000000000060448201526064016109ef565b600080828060200190518101906116b191906141bd565b915091506116c0828787611c6f565b935080848787466040516020016116da9493929190614249565b604051602081830303815290604052805190602001201461172d5760405162461bcd60e51b815260206004820152600d60248201526c496e636f7272656374206b657960981b60448201526064016109ef565b5050509392505050565b600d60205260009081526040902080546108be90613fd0565b336001600160a01b03831681141561179b5760405162461bcd60e51b815260206004820152600e60248201526d20a8282927ab24a723afa9a2a62360911b60448201526064016109ef565b6001600160a01b03818116600081815260036020908152604080832094881680845294825291829020805460ff191687151590811790915591519182527f17307eab39ab6107e8899845ad3d59bd9653f200f220920489ca2b5937696c3191015b60405180910390a3505050565b60608167ffffffffffffffff81111561182457611824613717565b60405190808252806020026020018201604052801561185757816020015b60608152602001906001900390816118425790505b50905060005b828110156118f7576118c73085858481811061187b5761187b614059565b905060200281019061188d9190614272565b8080601f01602080910402602001604051908101604052809392919081815260200183838082843760009201919091525061288292505050565b8282815181106118d9576118d9614059565b602002602001018190525080806118ef90614158565b91505061185d565b5092915050565b6000868152600e6020908152604091829020825161010081018452815481526001820154928101929092526002810154928201929092526003820154606082015260048201546080820152600582015460a0820152600682015460c08201526007909101546001600160a01b0390811660e0830181905290851614158061198957508060c001518314155b156119d65760405162461bcd60e51b815260206004820152601960248201527f496e76616c6964207072696365206f722063757272656e63790000000000000060448201526064016109ef565b8415806119ee57508180156119ee5750806060015185115b15611a3b5760405162461bcd60e51b815260206004820152601060248201527f496e76616c6964207175616e746974790000000000000000000000000000000060448201526064016109ef565b8060200151858260400151611a509190614085565b1115611a9e5760405162461bcd60e51b815260206004820152601260248201527f65786365656473206d617820737570706c79000000000000000000000000000060448201526064016109ef565b600080611aab89896114a8565b915091504283600001511180611aca57508115801590611aca57508042105b15611b085760405162461bcd60e51b815260206004820152600e60248201526d18d85b9d0818db185a5b481e595d60921b60448201526064016109ef565b505050505050505050565b6060611b1d61210b565b611b5a5760405162461bcd60e51b815260206004820152600e60248201526d139bdd08185d5d1a1bdc9a5e995960921b60448201526064016109ef565b6000611b6585610a04565b9050611b728185856115aa565b9150611b8d81604051806020016040528060008152506128ae565b611b9781836128cd565b847f6df1d8db2a036436ffe0b2d1833f2c5f1e624818dfce2578c0faa4b83ef9998d83604051611bc791906136b8565b60405180910390a2509392505050565b60008115611c5857600080611bee848601866142b9565b915091508151600014158015611c0357508015155b15611c5557611c5588600c54611c199190614085565b86868080601f0160208091040260200160405190810160405280939291908181526020018383808284376000920191909152506128ae92505050565b50505b611c6586868686866128ec565b9695505050505050565b8251604080518083016020019091528181529060005b81811015611cdb576000858583604051602001611ca4939291906142fe565b60408051601f19818403018152919052805160209182012088840182015118858401820152611cd4915082614085565b9050611c85565b50509392505050565b600580546108be90613fd0565b6001600160a01b038516331480611d2b57506001600160a01b038516600090815260036020908152604080832033845290915290205460ff165b611d6c5760405162461bcd60e51b81526020600482015260126024820152710853d5d3915497d3d497d054141493d5915160721b60448201526064016109ef565b610d648585858585612a2f565b6000806000611d8760095490565b905060006009805480602002602001604051908101604052809291908181526020018280548015611dd757602002820191906000526020600020905b815481526020019060010190808311611dc3575b5050505050905060005b82811015611e4357818181518110611dfb57611dfb614059565b6020026020010151861015611e3157809350818181518110611e1f57611e1f614059565b60200260200101519450505050915091565b611e3c600182614085565b9050611de1565b5060405162461bcd60e51b815260206004820152600f60248201527f496e76616c696420746f6b656e4964000000000000000000000000000000000060448201526064016109ef565b60606000611e9960095490565b905060006009805480602002602001604051908101604052809291908181526020018280548015611ee957602002820191906000526020600020905b815481526020019060010190808311611ed5575b5050505050905060005b82811015611e4357818181518110611f0d57611f0d614059565b6020026020010151851015611fdb57600a6000838381518110611f3257611f32614059565b602002602001015181526020019081526020016000208054611f5390613fd0565b80601f0160208091040260200160405190810160405280929190818152602001828054611f7f90613fd0565b8015611fcc5780601f10611fa157610100808354040283529160200191611fcc565b820191906000526020600020905b815481529060010190602001808311611faf57829003601f168201915b50505050509350505050919050565b611fe6600182614085565b9050611ef3565b6060816120115750506040805180820190915260018152600360fc1b602082015290565b8160005b811561203b578061202581614158565b91506120349050600a836140d2565b9150612015565b60008167ffffffffffffffff81111561205657612056613717565b6040519080825280601f01601f191660200182016040528015612080576020820181803683370190505b5090505b841561210357612095600183614310565b91506120a2600a86614327565b6120ad906030614085565b60f81b8183815181106120c2576120c2614059565b60200101907effffffffffffffffffffffffffffffffffffffffffffffffffffffffffffff1916908160001a9053506120fc600a866140d2565b9450612084565b949350505050565b600061211f6006546001600160a01b031690565b6001600160a01b0316336001600160a01b031614905090565b600680546001600160a01b038381166001600160a01b0319831681179093556040519116919082907f8292fce18fa69edf4db7b94ea2e58241df0ae57f97e0a6c9b29067028bf92d7690600090a35050565b3332146121bf5760405162461bcd60e51b81526020600482015260036024820152621093d560ea1b60448201526064016109ef565b600c5487106122105760405162461bcd60e51b815260206004820152601860248201527f4e6f7420656e6f756768206d696e74656420746f6b656e73000000000000000060448201526064016109ef565b50505050505050565b80612223576122da565b600061222f828561409d565b90506001600160a01b03831673eeeeeeeeeeeeeeeeeeeeeeeeeeeeeeeeeeeeeeee14156122a5578034146122a55760405162461bcd60e51b815260206004820152601660248201527f4d7573742073656e6420746f74616c2070726963652e0000000000000000000060448201526064016109ef565b60006001600160a01b038616156122bc57856122c9565b600b546001600160a01b03165b90506122d784338385612ba6565b50505b50505050565b6115a583838360405180602001604052806000815250612bf0565b815183511461233e5760405162461bcd60e51b815260206004820152600f60248201526e0988a9c8ea890be9a92a69a82a8869608b1b60448201526064016109ef565b6001600160a01b0384166123835760405162461bcd60e51b815260206004820152600c60248201526b2a27afad22a927afa0a2222960a11b60448201526064016109ef565b33612392818787878787612cd9565b60005b84518110156124ac5760008582815181106123b2576123b2614059565b6020026020010151905060008583815181106123d0576123d0614059565b6020908102919091018101516001600160a01b038b1660009081526002835260408082208683529093529190912054909150818110156124455760405162461bcd60e51b815260206004820152601060248201526f125394d551919250d251539517d0905360821b60448201526064016109ef565b6001600160a01b03808b16600090815260026020818152604080842088855282528084208787039055938d16835290815282822086835290529081208054849290612491908490614085565b92505081905550505050806124a590614158565b9050612395565b50846001600160a01b0316866001600160a01b0316826001600160a01b03167f4a39dc06d4c0dbc64b70af90fd698a233a518aa5d07e595d983b8c0526c8f7fb87876040516124fc92919061433b565b60405180910390a46122d7818787878787612df3565b6127108111156125565760405162461bcd60e51b815260206004820152600f60248201526e45786365656473206d61782062707360881b60448201526064016109ef565b600780546001600160a01b03841675ffffffffffffffffffffffffffffffffffffffffffff199091168117600160a01b61ffff851602179091556040518281527f90d7ec04bcb8978719414f82e52e4cb651db41d0e6f8cea6118c2191e6183adb9060200160405180910390a25050565b600b80546001600160a01b0319166001600160a01b0383169081179091556040517f299d17e95023f496e0ffc4909cff1a61f74bb5eb18de6f900f4155bfa1b3b33390600090a250565b6000808281805b87518110156126d35761262c60028361409d565b9150600088828151811061264257612642614059565b602002602001015190508084116126845760408051602081018690529081018290526060016040516020818303038152906040528051906020012093506126c0565b60408051602081018390529081018590526060016040516020818303038152906040528051906020012093506001836126bd9190614085565b92505b50806126cb81614158565b915050612618565b50941495939450505050565b6000600580546126ee90613fd0565b80601f016020809104026020016040519081016040528092919081815260200182805461271a90613fd0565b80156127675780601f1061273c57610100808354040283529160200191612767565b820191906000526020600020905b81548152906001019060200180831161274a57829003601f168201915b505085519394506127839360059350602087019250905061354e565b507fc9c7c3fe08b88b4df9d4d47ef47d2c43d55c025a0ba88ca442580ed9e7348a1681836040516127b5929190614369565b60405180910390a15050565b6127108111156128055760405162461bcd60e51b815260206004820152600f60248201526e45786365656473206d61782062707360881b60448201526064016109ef565b6040805180820182526001600160a01b038481168083526020808401868152600089815260088352869020945185546001600160a01b031916941693909317845591516001909301929092559151838152909185917f7365cf4122f072a3365c20d54eff9b38d73c096c28e1892ec8f5b0e403a0f12d91016117fc565b60606128a7838360405180606001604052806027815260200161457760279139612f54565b9392505050565b6000828152600d6020908152604090912082516115a59284019061354e565b6000828152600a6020908152604090912082516115a59284019061354e565b60006128f661210b565b6129335760405162461bcd60e51b815260206004820152600e60248201526d139bdd08185d5d1a1bdc9a5e995960921b60448201526064016109ef565b856129805760405162461bcd60e51b815260206004820152601060248201527f4d696e74696e67203020746f6b656e730000000000000000000000000000000060448201526064016109ef565b6000600c5490506129c8818888888080601f01602080910402602001604051908101604052809392919081815260200183838082843760009201919091525061302792505050565b600c919091559150807f2a0365091ef1a40953c670dce28177e37520648a6fdc91506bffac0ab045570d60016129fe8a84614085565b612a089190614310565b88888888604051612a1d9594939291906143b7565b60405180910390a25095945050505050565b6001600160a01b038416612a745760405162461bcd60e51b815260206004820152600c60248201526b2a27afad22a927afa0a2222960a11b60448201526064016109ef565b33612a93818787612a8488613094565b612a8d88613094565b87612cd9565b6001600160a01b038616600090815260026020908152604080832087845290915290205483811015612afa5760405162461bcd60e51b815260206004820152601060248201526f125394d551919250d251539517d0905360821b60448201526064016109ef565b6001600160a01b0380881660009081526002602081815260408084208a855282528084208987039055938a16835290815282822088835290529081208054869290612b46908490614085565b909155505060408051868152602081018690526001600160a01b03808916928a821692918616917fc3d58168c5ae7397731d063d5bbf3d657854427343f4c083240f7aacaa2d0f62910160405180910390a46122108288888888886130df565b80612bb0576122da565b6001600160a01b03841673eeeeeeeeeeeeeeeeeeeeeeeeeeeeeeeeeeeeeeee1415612be457612bdf82826131bc565b6122da565b6122da8484848461325f565b6001600160a01b038416612c355760405162461bcd60e51b815260206004820152600c60248201526b2a27afad22a927afa0a2222960a11b60448201526064016109ef565b33612c4681600087612a8488613094565b6001600160a01b038516600090815260026020908152604080832087845290915281208054859290612c79908490614085565b909155505060408051858152602081018590526001600160a01b0380881692600092918516917fc3d58168c5ae7397731d063d5bbf3d657854427343f4c083240f7aacaa2d0f62910160405180910390a4610d64816000878787876130df565b612ce78686868686866122d7565b6001600160a01b038516612d6e5760005b8351811015612d6c57828181518110612d1357612d13614059565b602002602001015160126000868481518110612d3157612d31614059565b602002602001015181526020019081526020016000206000828254612d569190614085565b90915550612d65905081614158565b9050612cf8565b505b6001600160a01b0384166122d75760005b835181101561221057828181518110612d9a57612d9a614059565b602002602001015160126000868481518110612db857612db8614059565b602002602001015181526020019081526020016000206000828254612ddd9190614310565b90915550612dec905081614158565b9050612d7f565b6001600160a01b0384163b156122d75760405163bc197c8160e01b81526001600160a01b0385169063bc197c8190612e3790899089908890889088906004016143f0565b6020604051808303816000875af1925050508015612e72575060408051601f3d908101601f19168201909252612e6f91810190614442565b60015b612f0257612e7e61445f565b806308c379a01415612eb85750612e9361447b565b80612e9e5750612eba565b8060405162461bcd60e51b81526004016109ef91906136b8565b505b60405162461bcd60e51b815260206004820152601060248201527f214552433131353552454345495645520000000000000000000000000000000060448201526064016109ef565b6001600160e01b0319811663bc197c8160e01b146122105760405162461bcd60e51b815260206004820152600f60248201526e1513d2d15394d7d491529150d51151608a1b60448201526064016109ef565b60606001600160a01b0384163b612fbc5760405162461bcd60e51b815260206004820152602660248201527f416464726573733a2064656c65676174652063616c6c20746f206e6f6e2d636f6044820152651b9d1c9858dd60d21b60648201526084016109ef565b600080856001600160a01b031685604051612fd79190614505565b600060405180830381855af49150503d8060008114613012576040519150601f19603f3d011682016040523d82523d6000602084013e613017565b606091505b5091509150611c658282866132b8565b6000806130348486614085565b60098054600181019091557f6e1540171b6c0c960b71a7020d9f60077f6af931a8bbf590da0223dacf75c7af018190556000818152600a60209081526040909120855192945084935061308b92909186019061354e565b50935093915050565b604080516001808252818301909252606091600091906020808301908036833701905050905082816000815181106130ce576130ce614059565b602090810291909101015292915050565b6001600160a01b0384163b156122d75760405163f23a6e6160e01b81526001600160a01b0385169063f23a6e61906131239089908990889088908890600401614521565b6020604051808303816000875af192505050801561315e575060408051601f3d908101601f1916820190925261315b91810190614442565b60015b61316a57612e7e61445f565b6001600160e01b0319811663f23a6e6160e01b146122105760405162461bcd60e51b815260206004820152600f60248201526e1513d2d15394d7d491529150d51151608a1b60448201526064016109ef565b6000826001600160a01b03168260405160006040518083038185875af1925050503d8060008114613209576040519150601f19603f3d011682016040523d82523d6000602084013e61320e565b606091505b50509050806115a55760405162461bcd60e51b815260206004820152601c60248201527f6e617469766520746f6b656e207472616e73666572206661696c65640000000060448201526064016109ef565b816001600160a01b0316836001600160a01b0316141561327e576122da565b6001600160a01b0383163014156132a357612bdf6001600160a01b03851683836132f1565b6122da6001600160a01b038516848484613369565b606083156132c75750816128a7565b8251156132d75782518084602001fd5b8160405162461bcd60e51b81526004016109ef91906136b8565b6040516001600160a01b0383166024820152604481018290526115a590849063a9059cbb60e01b906064015b60408051601f198184030181529190526020810180517bffffffffffffffffffffffffffffffffffffffffffffffffffffffff166001600160e01b0319909316929092179091526133a1565b6040516001600160a01b03808516602483015283166044820152606481018290526122da9085906323b872dd60e01b9060840161331d565b60006133f6826040518060400160405280602081526020017f5361666545524332303a206c6f772d6c6576656c2063616c6c206661696c6564815250856001600160a01b03166134739092919063ffffffff16565b8051909150156115a557808060200190518101906134149190614559565b6115a55760405162461bcd60e51b815260206004820152602a60248201527f5361666545524332303a204552433230206f7065726174696f6e20646964206e6044820152691bdd081cdd58d8d9595960b21b60648201526084016109ef565b60606121038484600085856001600160a01b0385163b6134d55760405162461bcd60e51b815260206004820152601d60248201527f416464726573733a2063616c6c20746f206e6f6e2d636f6e747261637400000060448201526064016109ef565b600080866001600160a01b031685876040516134f19190614505565b60006040518083038185875af1925050503d806000811461352e576040519150601f19603f3d011682016040523d82523d6000602084013e613533565b606091505b50915091506135438282866132b8565b979650505050505050565b82805461355a90613fd0565b90600052602060002090601f01602090048101928261357c57600085556135c2565b82601f1061359557805160ff19168380011785556135c2565b828001600101855582156135c2579182015b828111156135c25782518255916020019190600101906135a7565b506135ce9291506135d2565b5090565b5b808211156135ce57600081556001016135d3565b80356001600160a01b03811681146135fe57600080fd5b919050565b6000806040838503121561361657600080fd5b61361f836135e7565b946020939093013593505050565b6001600160e01b031981168114610a0157600080fd5b60006020828403121561365557600080fd5b81356128a78161362d565b60005b8381101561367b578181015183820152602001613663565b838111156122da5750506000910152565b600081518084526136a4816020860160208601613660565b601f01601f19169290920160200192915050565b6020815260006128a7602083018461368c565b6000602082840312156136dd57600080fd5b5035919050565b6000602082840312156136f657600080fd5b6128a7826135e7565b60006040828403121561371157600080fd5b50919050565b634e487b7160e01b600052604160045260246000fd5b601f8201601f1916810167ffffffffffffffff8111828210171561375357613753613717565b6040525050565b600067ffffffffffffffff82111561377457613774613717565b50601f01601f191660200190565b600061378d8361375a565b60405161379a828261372d565b8092508481528585850111156137af57600080fd5b8484602083013760006020868301015250509392505050565b600082601f8301126137d957600080fd5b6128a783833560208501613782565b600080600080600080600060e0888a03121561380357600080fd5b61380c886135e7565b96506020880135955060408801359450613828606089016135e7565b93506080880135925060a088013567ffffffffffffffff8082111561384c57600080fd5b6138588b838c016136ff565b935060c08a013591508082111561386e57600080fd5b5061387b8a828b016137c8565b91505092959891949750929550565b6000806040838503121561389d57600080fd5b50508035926020909101359150565b600067ffffffffffffffff8211156138c6576138c6613717565b5060051b60200190565b600082601f8301126138e157600080fd5b813560206138ee826138ac565b6040516138fb828261372d565b83815260059390931b850182019282810191508684111561391b57600080fd5b8286015b84811015613936578035835291830191830161391f565b509695505050505050565b600080600080600060a0868803121561395957600080fd5b613962866135e7565b9450613970602087016135e7565b9350604086013567ffffffffffffffff8082111561398d57600080fd5b61399989838a016138d0565b945060608801359150808211156139af57600080fd5b6139bb89838a016138d0565b935060808801359150808211156139d157600080fd5b506139de888289016137c8565b9150509295509295909350565b8015158114610a0157600080fd5b6000806000838503610140811215613a1057600080fd5b84359350610100601f1982011215613a2757600080fd5b50602084019150610120840135613a3d816139eb565b809150509250925092565b60008060408385031215613a5b57600080fd5b823567ffffffffffffffff80821115613a7357600080fd5b818501915085601f830112613a8757600080fd5b81356020613a94826138ac565b604051613aa1828261372d565b83815260059390931b8501820192828101915089841115613ac157600080fd5b948201945b83861015613ae657613ad7866135e7565b82529482019490820190613ac6565b96505086013592505080821115613afc57600080fd5b50613b09858286016138d0565b9150509250929050565b600081518084526020808501945080840160005b83811015613b4357815187529582019590820190600101613b27565b509495945050505050565b6020815260006128a76020830184613b13565b60008060008060808587031215613b7757600080fd5b84359350613b87602086016135e7565b925060408501359150606085013567ffffffffffffffff811115613baa57600080fd5b613bb6878288016136ff565b91505092959194509250565b60008060408385031215613bd557600080fd5b82359150613be5602084016135e7565b90509250929050565b600060208284031215613c0057600080fd5b813567ffffffffffffffff811115613c1757600080fd5b8201601f81018413613c2857600080fd5b61210384823560208401613782565b600080600060608486031215613c4c57600080fd5b83359250613c5c602085016135e7565b9150604084013590509250925092565b60008083601f840112613c7e57600080fd5b50813567ffffffffffffffff811115613c9657600080fd5b6020830191508360208285010111156114f357600080fd5b600080600060408486031215613cc357600080fd5b83359250602084013567ffffffffffffffff811115613ce157600080fd5b613ced86828701613c6c565b9497909650939450505050565b60008060408385031215613d0d57600080fd5b613d16836135e7565b91506020830135613d26816139eb565b809150509250929050565b60008060208385031215613d4457600080fd5b823567ffffffffffffffff80821115613d5c57600080fd5b818501915085601f830112613d7057600080fd5b813581811115613d7f57600080fd5b8660208260051b8501011115613d9457600080fd5b60209290920196919550909350505050565b6000602080830181845280855180835260408601915060408160051b870101925083870160005b82811015613dfb57603f19888603018452613de985835161368c565b94509285019290850190600101613dcd565b5092979650505050505050565b60008060008060008060c08789031215613e2157600080fd5b86359550613e31602088016135e7565b945060408701359350613e46606088016135e7565b92506080870135915060a0870135613e5d816139eb565b809150509295509295509295565b600080600080600060608688031215613e8357600080fd5b85359450602086013567ffffffffffffffff80821115613ea257600080fd5b613eae89838a01613c6c565b90965094506040880135915080821115613ec757600080fd5b50613ed488828901613c6c565b969995985093965092949392505050565b600080600060408486031215613efa57600080fd5b833567ffffffffffffffff80821115613f1257600080fd5b613f1e878388016137c8565b94506020860135915080821115613f3457600080fd5b50613ced86828701613c6c565b60008060408385031215613f5457600080fd5b613f5d836135e7565b9150613be5602084016135e7565b600080600080600060a08688031215613f8357600080fd5b613f8c866135e7565b9450613f9a602087016135e7565b93506040860135925060608601359150608086013567ffffffffffffffff811115613fc457600080fd5b6139de888289016137c8565b600181811c90821680613fe457607f821691505b6020821081141561371157634e487b7160e01b600052602260045260246000fd5b60008251614017818460208701613660565b600360fc1b920191825250600101919050565b6000835161403c818460208801613660565b835190830190614050818360208801613660565b01949350505050565b634e487b7160e01b600052603260045260246000fd5b634e487b7160e01b600052601160045260246000fd5b600082198211156140985761409861406f565b500190565b60008160001904831182151516156140b7576140b761406f565b500290565b634e487b7160e01b600052601260045260246000fd5b6000826140e1576140e16140bc565b500490565b600061012082019050833582526020840135602083015260408401356040830152606084013560608301526080840135608083015260a084013560a083015260c084013560c08301526001600160a01b0361414360e086016135e7565b1660e083015291151561010090910152919050565b600060001982141561416c5761416c61406f565b5060010190565b6000808335601e1984360301811261418a57600080fd5b83018035915067ffffffffffffffff8211156141a557600080fd5b6020019150600581901b36038213156114f357600080fd5b600080604083850312156141d057600080fd5b825167ffffffffffffffff8111156141e757600080fd5b8301601f810185136141f857600080fd5b80516142038161375a565b604051614210828261372d565b82815287602084860101111561422557600080fd5b614236836020830160208701613660565b6020969096015195979596505050505050565b6000855161425b818460208a01613660565b820184868237909301918252506020019392505050565b6000808335601e1984360301811261428957600080fd5b83018035915067ffffffffffffffff8211156142a457600080fd5b6020019150368190038213156114f357600080fd5b600080604083850312156142cc57600080fd5b823567ffffffffffffffff8111156142e357600080fd5b6142ef858286016137c8565b95602094909401359450505050565b82848237909101908152602001919050565b6000828210156143225761432261406f565b500390565b600082614336576143366140bc565b500690565b60408152600061434e6040830185613b13565b82810360208401526143608185613b13565b95945050505050565b60408152600061437c604083018561368c565b8281036020840152614360818561368c565b81835281816020850137506000828201602090810191909152601f909101601f19169091010190565b8581526060602082015260006143d160608301868861438e565b82810360408401526143e481858761438e565b98975050505050505050565b60006001600160a01b03808816835280871660208401525060a0604083015261441c60a0830186613b13565b828103606084015261442e8186613b13565b905082810360808401526143e4818561368c565b60006020828403121561445457600080fd5b81516128a78161362d565b600060033d11156144785760046000803e5060005160e01c5b90565b600060443d10156144895790565b6040516003193d81016004833e81513d67ffffffffffffffff81602484011181841117156144b957505050505090565b82850191508151818111156144d15750505050505090565b843d87010160208285010111156144eb5750505050505090565b6144fa6020828601018761372d565b509095945050505050565b60008251614517818460208701613660565b9190910192915050565b60006001600160a01b03808816835280871660208401525084604083015283606083015260a0608083015261354360a083018461368c565b60006020828403121561456b57600080fd5b81516128a7816139eb56fe416464726573733a206c6f772d6c6576656c2064656c65676174652063616c6c206661696c6564a2646970667358221220e43d3a2a0a209226db650c2d3c4223587264172e6a0f3cbd789d4e491875da8e64736f6c634300080c0033",
  "linkReferences": {},
  "deployedLinkReferences": {}
}