{
  "_format": "hh-sol-artifact-1",
  "contractName": "ERC1155SignatureMint",
  "sourceName": "contracts/base/ERC1155SignatureMint.sol",
  "abi": [
    {
      "inputs": [
        {
          "internalType": "string",
          "name": "_name",
          "type": "string"
        },
        {
          "internalType": "string",
          "name": "_symbol",
          "type": "string"
        },
        {
          "internalType": "address",
          "name": "_royaltyRecipient",
          "type": "address"
        },
        {
          "internalType": "uint128",
          "name": "_royaltyBps",
          "type": "uint128"
        },
        {
          "internalType": "address",
          "name": "_primarySaleRecipient",
          "type": "address"
        }
      ],
      "stateMutability": "nonpayable",
      "type": "constructor"
    },
    {
      "anonymous": false,
      "inputs": [
        {
          "indexed": true,
          "internalType": "address",
          "name": "_owner",
          "type": "address"
        },
        {
          "indexed": true,
          "internalType": "address",
          "name": "_operator",
          "type": "address"
        },
        {
          "indexed": false,
          "internalType": "bool",
          "name": "_approved",
          "type": "bool"
        }
      ],
      "name": "ApprovalForAll",
      "type": "event"
    },
    {
      "anonymous": false,
      "inputs": [
        {
          "indexed": false,
          "internalType": "string",
          "name": "prevURI",
          "type": "string"
        },
        {
          "indexed": false,
          "internalType": "string",
          "name": "newURI",
          "type": "string"
        }
      ],
      "name": "ContractURIUpdated",
      "type": "event"
    },
    {
      "anonymous": false,
      "inputs": [
        {
          "indexed": true,
          "internalType": "address",
          "name": "newRoyaltyRecipient",
          "type": "address"
        },
        {
          "indexed": false,
          "internalType": "uint256",
          "name": "newRoyaltyBps",
          "type": "uint256"
        }
      ],
      "name": "DefaultRoyalty",
      "type": "event"
    },
    {
      "anonymous": false,
      "inputs": [
        {
          "indexed": true,
          "internalType": "address",
          "name": "prevOwner",
          "type": "address"
        },
        {
          "indexed": true,
          "internalType": "address",
          "name": "newOwner",
          "type": "address"
        }
      ],
      "name": "OwnerUpdated",
      "type": "event"
    },
    {
      "anonymous": false,
      "inputs": [
        {
          "indexed": true,
          "internalType": "address",
          "name": "recipient",
          "type": "address"
        }
      ],
      "name": "PrimarySaleRecipientUpdated",
      "type": "event"
    },
    {
      "anonymous": false,
      "inputs": [
        {
          "indexed": true,
          "internalType": "uint256",
          "name": "tokenId",
          "type": "uint256"
        },
        {
          "indexed": true,
          "internalType": "address",
          "name": "royaltyRecipient",
          "type": "address"
        },
        {
          "indexed": false,
          "internalType": "uint256",
          "name": "royaltyBps",
          "type": "uint256"
        }
      ],
      "name": "RoyaltyForToken",
      "type": "event"
    },
    {
      "anonymous": false,
      "inputs": [
        {
          "indexed": true,
          "internalType": "address",
          "name": "signer",
          "type": "address"
        },
        {
          "indexed": true,
          "internalType": "address",
          "name": "mintedTo",
          "type": "address"
        },
        {
          "indexed": true,
          "internalType": "uint256",
          "name": "tokenIdMinted",
          "type": "uint256"
        },
        {
          "components": [
            {
              "internalType": "address",
              "name": "to",
              "type": "address"
            },
            {
              "internalType": "address",
              "name": "royaltyRecipient",
              "type": "address"
            },
            {
              "internalType": "uint256",
              "name": "royaltyBps",
              "type": "uint256"
            },
            {
              "internalType": "address",
              "name": "primarySaleRecipient",
              "type": "address"
            },
            {
              "internalType": "uint256",
              "name": "tokenId",
              "type": "uint256"
            },
            {
              "internalType": "string",
              "name": "uri",
              "type": "string"
            },
            {
              "internalType": "uint256",
              "name": "quantity",
              "type": "uint256"
            },
            {
              "internalType": "uint256",
              "name": "pricePerToken",
              "type": "uint256"
            },
            {
              "internalType": "address",
              "name": "currency",
              "type": "address"
            },
            {
              "internalType": "uint128",
              "name": "validityStartTimestamp",
              "type": "uint128"
            },
            {
              "internalType": "uint128",
              "name": "validityEndTimestamp",
              "type": "uint128"
            },
            {
              "internalType": "bytes32",
              "name": "uid",
              "type": "bytes32"
            }
          ],
          "indexed": false,
          "internalType": "struct ISignatureMintERC1155.MintRequest",
          "name": "mintRequest",
          "type": "tuple"
        }
      ],
      "name": "TokensMintedWithSignature",
      "type": "event"
    },
    {
      "anonymous": false,
      "inputs": [
        {
          "indexed": true,
          "internalType": "address",
          "name": "_operator",
          "type": "address"
        },
        {
          "indexed": true,
          "internalType": "address",
          "name": "_from",
          "type": "address"
        },
        {
          "indexed": true,
          "internalType": "address",
          "name": "_to",
          "type": "address"
        },
        {
          "indexed": false,
          "internalType": "uint256[]",
          "name": "_ids",
          "type": "uint256[]"
        },
        {
          "indexed": false,
          "internalType": "uint256[]",
          "name": "_values",
          "type": "uint256[]"
        }
      ],
      "name": "TransferBatch",
      "type": "event"
    },
    {
      "anonymous": false,
      "inputs": [
        {
          "indexed": true,
          "internalType": "address",
          "name": "_operator",
          "type": "address"
        },
        {
          "indexed": true,
          "internalType": "address",
          "name": "_from",
          "type": "address"
        },
        {
          "indexed": true,
          "internalType": "address",
          "name": "_to",
          "type": "address"
        },
        {
          "indexed": false,
          "internalType": "uint256",
          "name": "_id",
          "type": "uint256"
        },
        {
          "indexed": false,
          "internalType": "uint256",
          "name": "_value",
          "type": "uint256"
        }
      ],
      "name": "TransferSingle",
      "type": "event"
    },
    {
      "anonymous": false,
      "inputs": [
        {
          "indexed": false,
          "internalType": "string",
          "name": "_value",
          "type": "string"
        },
        {
          "indexed": true,
          "internalType": "uint256",
          "name": "_id",
          "type": "uint256"
        }
      ],
      "name": "URI",
      "type": "event"
    },
    {
      "inputs": [
        {
          "internalType": "address",
          "name": "",
          "type": "address"
        },
        {
          "internalType": "uint256",
          "name": "",
          "type": "uint256"
        }
      ],
      "name": "balanceOf",
      "outputs": [
        {
          "internalType": "uint256",
          "name": "",
          "type": "uint256"
        }
      ],
      "stateMutability": "view",
      "type": "function"
    },
    {
      "inputs": [
        {
          "internalType": "address[]",
          "name": "accounts",
          "type": "address[]"
        },
        {
          "internalType": "uint256[]",
          "name": "ids",
          "type": "uint256[]"
        }
      ],
      "name": "balanceOfBatch",
      "outputs": [
        {
          "internalType": "uint256[]",
          "name": "",
          "type": "uint256[]"
        }
      ],
      "stateMutability": "view",
      "type": "function"
    },
    {
      "inputs": [
        {
          "internalType": "address",
          "name": "_to",
          "type": "address"
        },
        {
          "internalType": "uint256[]",
          "name": "_tokenIds",
          "type": "uint256[]"
        },
        {
          "internalType": "uint256[]",
          "name": "_amounts",
          "type": "uint256[]"
        },
        {
          "internalType": "string",
          "name": "_baseURI",
          "type": "string"
        }
      ],
      "name": "batchMintTo",
      "outputs": [],
      "stateMutability": "nonpayable",
      "type": "function"
    },
    {
      "inputs": [
        {
          "internalType": "address",
          "name": "_owner",
          "type": "address"
        },
        {
          "internalType": "uint256",
          "name": "_tokenId",
          "type": "uint256"
        },
        {
          "internalType": "uint256",
          "name": "_amount",
          "type": "uint256"
        }
      ],
      "name": "burn",
      "outputs": [],
      "stateMutability": "nonpayable",
      "type": "function"
    },
    {
      "inputs": [
        {
          "internalType": "address",
          "name": "_owner",
          "type": "address"
        },
        {
          "internalType": "uint256[]",
          "name": "_tokenIds",
          "type": "uint256[]"
        },
        {
          "internalType": "uint256[]",
          "name": "_amounts",
          "type": "uint256[]"
        }
      ],
      "name": "burnBatch",
      "outputs": [],
      "stateMutability": "nonpayable",
      "type": "function"
    },
    {
      "inputs": [],
      "name": "contractURI",
      "outputs": [
        {
          "internalType": "string",
          "name": "",
          "type": "string"
        }
      ],
      "stateMutability": "view",
      "type": "function"
    },
    {
      "inputs": [],
      "name": "getBaseURICount",
      "outputs": [
        {
          "internalType": "uint256",
          "name": "",
          "type": "uint256"
        }
      ],
      "stateMutability": "view",
      "type": "function"
    },
    {
      "inputs": [
        {
          "internalType": "uint256",
          "name": "_index",
          "type": "uint256"
        }
      ],
      "name": "getBatchIdAtIndex",
      "outputs": [
        {
          "internalType": "uint256",
          "name": "",
          "type": "uint256"
        }
      ],
      "stateMutability": "view",
      "type": "function"
    },
    {
      "inputs": [],
      "name": "getDefaultRoyaltyInfo",
      "outputs": [
        {
          "internalType": "address",
          "name": "",
          "type": "address"
        },
        {
          "internalType": "uint16",
          "name": "",
          "type": "uint16"
        }
      ],
      "stateMutability": "view",
      "type": "function"
    },
    {
      "inputs": [
        {
          "internalType": "uint256",
          "name": "_tokenId",
          "type": "uint256"
        }
      ],
      "name": "getRoyaltyInfoForToken",
      "outputs": [
        {
          "internalType": "address",
          "name": "",
          "type": "address"
        },
        {
          "internalType": "uint16",
          "name": "",
          "type": "uint16"
        }
      ],
      "stateMutability": "view",
      "type": "function"
    },
    {
      "inputs": [
        {
          "internalType": "address",
          "name": "",
          "type": "address"
        },
        {
          "internalType": "address",
          "name": "",
          "type": "address"
        }
      ],
      "name": "isApprovedForAll",
      "outputs": [
        {
          "internalType": "bool",
          "name": "",
          "type": "bool"
        }
      ],
      "stateMutability": "view",
      "type": "function"
    },
    {
      "inputs": [
        {
          "internalType": "address",
          "name": "_to",
          "type": "address"
        },
        {
          "internalType": "uint256",
          "name": "_tokenId",
          "type": "uint256"
        },
        {
          "internalType": "string",
          "name": "_tokenURI",
          "type": "string"
        },
        {
          "internalType": "uint256",
          "name": "_amount",
          "type": "uint256"
        }
      ],
      "name": "mintTo",
      "outputs": [],
      "stateMutability": "nonpayable",
      "type": "function"
    },
    {
      "inputs": [
        {
          "components": [
            {
              "internalType": "address",
              "name": "to",
              "type": "address"
            },
            {
              "internalType": "address",
              "name": "royaltyRecipient",
              "type": "address"
            },
            {
              "internalType": "uint256",
              "name": "royaltyBps",
              "type": "uint256"
            },
            {
              "internalType": "address",
              "name": "primarySaleRecipient",
              "type": "address"
            },
            {
              "internalType": "uint256",
              "name": "tokenId",
              "type": "uint256"
            },
            {
              "internalType": "string",
              "name": "uri",
              "type": "string"
            },
            {
              "internalType": "uint256",
              "name": "quantity",
              "type": "uint256"
            },
            {
              "internalType": "uint256",
              "name": "pricePerToken",
              "type": "uint256"
            },
            {
              "internalType": "address",
              "name": "currency",
              "type": "address"
            },
            {
              "internalType": "uint128",
              "name": "validityStartTimestamp",
              "type": "uint128"
            },
            {
              "internalType": "uint128",
              "name": "validityEndTimestamp",
              "type": "uint128"
            },
            {
              "internalType": "bytes32",
              "name": "uid",
              "type": "bytes32"
            }
          ],
          "internalType": "struct ISignatureMintERC1155.MintRequest",
          "name": "_req",
          "type": "tuple"
        },
        {
          "internalType": "bytes",
          "name": "_signature",
          "type": "bytes"
        }
      ],
      "name": "mintWithSignature",
      "outputs": [
        {
          "internalType": "address",
          "name": "signer",
          "type": "address"
        }
      ],
      "stateMutability": "payable",
      "type": "function"
    },
    {
      "inputs": [
        {
          "internalType": "bytes[]",
          "name": "data",
          "type": "bytes[]"
        }
      ],
      "name": "multicall",
      "outputs": [
        {
          "internalType": "bytes[]",
          "name": "results",
          "type": "bytes[]"
        }
      ],
      "stateMutability": "nonpayable",
      "type": "function"
    },
    {
      "inputs": [],
      "name": "name",
      "outputs": [
        {
          "internalType": "string",
          "name": "",
          "type": "string"
        }
      ],
      "stateMutability": "view",
      "type": "function"
    },
    {
      "inputs": [],
      "name": "nextTokenIdToMint",
      "outputs": [
        {
          "internalType": "uint256",
          "name": "",
          "type": "uint256"
        }
      ],
      "stateMutability": "view",
      "type": "function"
    },
    {
      "inputs": [],
      "name": "owner",
      "outputs": [
        {
          "internalType": "address",
          "name": "",
          "type": "address"
        }
      ],
      "stateMutability": "view",
      "type": "function"
    },
    {
      "inputs": [],
      "name": "primarySaleRecipient",
      "outputs": [
        {
          "internalType": "address",
          "name": "",
          "type": "address"
        }
      ],
      "stateMutability": "view",
      "type": "function"
    },
    {
      "inputs": [
        {
          "internalType": "uint256",
          "name": "tokenId",
          "type": "uint256"
        },
        {
          "internalType": "uint256",
          "name": "salePrice",
          "type": "uint256"
        }
      ],
      "name": "royaltyInfo",
      "outputs": [
        {
          "internalType": "address",
          "name": "receiver",
          "type": "address"
        },
        {
          "internalType": "uint256",
          "name": "royaltyAmount",
          "type": "uint256"
        }
      ],
      "stateMutability": "view",
      "type": "function"
    },
    {
      "inputs": [
        {
          "internalType": "address",
          "name": "from",
          "type": "address"
        },
        {
          "internalType": "address",
          "name": "to",
          "type": "address"
        },
        {
          "internalType": "uint256[]",
          "name": "ids",
          "type": "uint256[]"
        },
        {
          "internalType": "uint256[]",
          "name": "amounts",
          "type": "uint256[]"
        },
        {
          "internalType": "bytes",
          "name": "data",
          "type": "bytes"
        }
      ],
      "name": "safeBatchTransferFrom",
      "outputs": [],
      "stateMutability": "nonpayable",
      "type": "function"
    },
    {
      "inputs": [
        {
          "internalType": "address",
          "name": "from",
          "type": "address"
        },
        {
          "internalType": "address",
          "name": "to",
          "type": "address"
        },
        {
          "internalType": "uint256",
          "name": "id",
          "type": "uint256"
        },
        {
          "internalType": "uint256",
          "name": "amount",
          "type": "uint256"
        },
        {
          "internalType": "bytes",
          "name": "data",
          "type": "bytes"
        }
      ],
      "name": "safeTransferFrom",
      "outputs": [],
      "stateMutability": "nonpayable",
      "type": "function"
    },
    {
      "inputs": [
        {
          "internalType": "address",
          "name": "operator",
          "type": "address"
        },
        {
          "internalType": "bool",
          "name": "approved",
          "type": "bool"
        }
      ],
      "name": "setApprovalForAll",
      "outputs": [],
      "stateMutability": "nonpayable",
      "type": "function"
    },
    {
      "inputs": [
        {
          "internalType": "string",
          "name": "_uri",
          "type": "string"
        }
      ],
      "name": "setContractURI",
      "outputs": [],
      "stateMutability": "nonpayable",
      "type": "function"
    },
    {
      "inputs": [
        {
          "internalType": "address",
          "name": "_royaltyRecipient",
          "type": "address"
        },
        {
          "internalType": "uint256",
          "name": "_royaltyBps",
          "type": "uint256"
        }
      ],
      "name": "setDefaultRoyaltyInfo",
      "outputs": [],
      "stateMutability": "nonpayable",
      "type": "function"
    },
    {
      "inputs": [
        {
          "internalType": "address",
          "name": "_newOwner",
          "type": "address"
        }
      ],
      "name": "setOwner",
      "outputs": [],
      "stateMutability": "nonpayable",
      "type": "function"
    },
    {
      "inputs": [
        {
          "internalType": "address",
          "name": "_saleRecipient",
          "type": "address"
        }
      ],
      "name": "setPrimarySaleRecipient",
      "outputs": [],
      "stateMutability": "nonpayable",
      "type": "function"
    },
    {
      "inputs": [
        {
          "internalType": "uint256",
          "name": "_tokenId",
          "type": "uint256"
        },
        {
          "internalType": "address",
          "name": "_recipient",
          "type": "address"
        },
        {
          "internalType": "uint256",
          "name": "_bps",
          "type": "uint256"
        }
      ],
      "name": "setRoyaltyInfoForToken",
      "outputs": [],
      "stateMutability": "nonpayable",
      "type": "function"
    },
    {
      "inputs": [
        {
          "internalType": "bytes4",
          "name": "interfaceId",
          "type": "bytes4"
        }
      ],
      "name": "supportsInterface",
      "outputs": [
        {
          "internalType": "bool",
          "name": "",
          "type": "bool"
        }
      ],
      "stateMutability": "view",
      "type": "function"
    },
    {
      "inputs": [],
      "name": "symbol",
      "outputs": [
        {
          "internalType": "string",
          "name": "",
          "type": "string"
        }
      ],
      "stateMutability": "view",
      "type": "function"
    },
    {
      "inputs": [
        {
          "internalType": "uint256",
          "name": "",
          "type": "uint256"
        }
      ],
      "name": "totalSupply",
      "outputs": [
        {
          "internalType": "uint256",
          "name": "",
          "type": "uint256"
        }
      ],
      "stateMutability": "view",
      "type": "function"
    },
    {
      "inputs": [
        {
          "internalType": "uint256",
          "name": "_tokenId",
          "type": "uint256"
        }
      ],
      "name": "uri",
      "outputs": [
        {
          "internalType": "string",
          "name": "",
          "type": "string"
        }
      ],
      "stateMutability": "view",
      "type": "function"
    },
    {
      "inputs": [
        {
          "components": [
            {
              "internalType": "address",
              "name": "to",
              "type": "address"
            },
            {
              "internalType": "address",
              "name": "royaltyRecipient",
              "type": "address"
            },
            {
              "internalType": "uint256",
              "name": "royaltyBps",
              "type": "uint256"
            },
            {
              "internalType": "address",
              "name": "primarySaleRecipient",
              "type": "address"
            },
            {
              "internalType": "uint256",
              "name": "tokenId",
              "type": "uint256"
            },
            {
              "internalType": "string",
              "name": "uri",
              "type": "string"
            },
            {
              "internalType": "uint256",
              "name": "quantity",
              "type": "uint256"
            },
            {
              "internalType": "uint256",
              "name": "pricePerToken",
              "type": "uint256"
            },
            {
              "internalType": "address",
              "name": "currency",
              "type": "address"
            },
            {
              "internalType": "uint128",
              "name": "validityStartTimestamp",
              "type": "uint128"
            },
            {
              "internalType": "uint128",
              "name": "validityEndTimestamp",
              "type": "uint128"
            },
            {
              "internalType": "bytes32",
              "name": "uid",
              "type": "bytes32"
            }
          ],
          "internalType": "struct ISignatureMintERC1155.MintRequest",
          "name": "_req",
          "type": "tuple"
        },
        {
          "internalType": "bytes",
          "name": "_signature",
          "type": "bytes"
        }
      ],
      "name": "verify",
      "outputs": [
        {
          "internalType": "bool",
          "name": "success",
          "type": "bool"
        },
        {
          "internalType": "address",
          "name": "signer",
          "type": "address"
        }
      ],
      "stateMutability": "view",
      "type": "function"
    }
  ],
  "bytecode": "0x6101406040523480156200001257600080fd5b5060405162004db938038062004db9833981016040819052620000359162000462565b6040518060400160405280601481526020017f5369676e61747572654d696e7445524331313535000000000000000000000000815250604051806040016040528060018152602001603160f81b8152508686868683838160009080519060200190620000a3929190620002d2565b508051620000b9906001906020840190620002d2565b505050620000cd336200018b60201b60201c565b620000e2826001600160801b038316620001dd565b5050835160209485012083519385019390932060e08490526101008190524660a0818152604080517f8b73c3c69bb8fe3d512ecc4cf759cc79239f7b179b0ffacaa9a75d522b39400f818a01819052818301989098526060810194909452608080850193909352308483018190528151808603909301835260c094850190915281519190970120905293909352506101205250620001808162000288565b50505050506200054f565b600680546001600160a01b038381166001600160a01b0319831681179093556040519116919082907f8292fce18fa69edf4db7b94ea2e58241df0ae57f97e0a6c9b29067028bf92d7690600090a35050565b612710811115620002265760405162461bcd60e51b815260206004820152600f60248201526e45786365656473206d61782062707360881b604482015260640160405180910390fd5b600780546001600160a01b0384166001600160b01b03199091168117600160a01b61ffff851602179091556040518281527f90d7ec04bcb8978719414f82e52e4cb651db41d0e6f8cea6118c2191e6183adb9060200160405180910390a25050565b600d80546001600160a01b0319166001600160a01b0383169081179091556040517f299d17e95023f496e0ffc4909cff1a61f74bb5eb18de6f900f4155bfa1b3b33390600090a250565b828054620002e09062000512565b90600052602060002090601f0160209004810192826200030457600085556200034f565b82601f106200031f57805160ff19168380011785556200034f565b828001600101855582156200034f579182015b828111156200034f57825182559160200191906001019062000332565b506200035d92915062000361565b5090565b5b808211156200035d576000815560010162000362565b634e487b7160e01b600052604160045260246000fd5b600082601f830112620003a057600080fd5b81516001600160401b0380821115620003bd57620003bd62000378565b604051601f8301601f19908116603f01168101908282118183101715620003e857620003e862000378565b816040528381526020925086838588010111156200040557600080fd5b600091505b838210156200042957858201830151818301840152908201906200040a565b838211156200043b5760008385830101525b9695505050505050565b80516001600160a01b03811681146200045d57600080fd5b919050565b600080600080600060a086880312156200047b57600080fd5b85516001600160401b03808211156200049357600080fd5b620004a189838a016200038e565b96506020880151915080821115620004b857600080fd5b50620004c7888289016200038e565b945050620004d86040870162000445565b60608701519093506001600160801b0381168114620004f657600080fd5b9150620005066080870162000445565b90509295509295909350565b600181811c908216806200052757607f821691505b602082108114156200054957634e487b7160e01b600052602260045260246000fd5b50919050565b60805160a05160c05160e051610100516101205161481a6200059f60003960006132b901526000613308015260006132e30152600061323c0152600061326601526000613290015261481a6000f3fe6080604052600436106101e25760003560e01c80638da5cb5b11610102578063b03f452811610095578063e8a3d48511610064578063e8a3d4851461061a578063e985e9c51461062f578063f242432a1461066a578063f5298aca1461068a57600080fd5b8063b03f452814610563578063b17cd86f14610583578063b24f2d39146105c2578063bd85b039146105ed57600080fd5b806398a6e993116100d157806398a6e993146104e35780639bcf7a15146104f6578063a22cb46514610516578063ac9650d81461053657600080fd5b80638da5cb5b14610470578063938e3d7b1461048e578063949c09f7146104ae57806395d89b41146104ce57600080fd5b80632eb2c2d61161017a578063600dd5ea11610149578063600dd5ea146103fb57806363b45e2d1461041b5780636b20c454146104305780636f4f28371461045057600080fd5b80632eb2c2d6146103575780633b1475a7146103775780634cc157df1461038c5780634e1273f4146103ce57600080fd5b80630e89341c116101b65780630e89341c146102b657806313af4035146102d65780632419f51b146102f85780632a55205a1461031857600080fd5b8062fdd58e146101e757806301ffc9a71461023257806306fdde0314610262578063079fe40e14610284575b600080fd5b3480156101f357600080fd5b5061021f6102023660046139d5565b600260209081526000928352604080842090915290825290205481565b6040519081526020015b60405180910390f35b34801561023e57600080fd5b5061025261024d366004613a15565b6106aa565b6040519015158152602001610229565b34801561026e57600080fd5b50610277610717565b6040516102299190613a8a565b34801561029057600080fd5b50600d546001600160a01b03165b6040516001600160a01b039091168152602001610229565b3480156102c257600080fd5b506102776102d1366004613a9d565b6107a5565b3480156102e257600080fd5b506102f66102f1366004613ab6565b610893565b005b34801561030457600080fd5b5061021f610313366004613a9d565b6108e9565b34801561032457600080fd5b50610338610333366004613ad1565b610957565b604080516001600160a01b039093168352602083019190915201610229565b34801561036357600080fd5b506102f6610372366004613c3f565b610994565b34801561038357600080fd5b50600b5461021f565b34801561039857600080fd5b506103ac6103a7366004613a9d565b610a23565b604080516001600160a01b03909316835261ffff909116602083015201610229565b3480156103da57600080fd5b506103ee6103e9366004613ce9565b610a8e565b6040516102299190613def565b34801561040757600080fd5b506102f66104163660046139d5565b610bc5565b34801561042757600080fd5b5060095461021f565b34801561043c57600080fd5b506102f661044b366004613e02565b610c18565b34801561045c57600080fd5b506102f661046b366004613ab6565b610dce565b34801561047c57600080fd5b506006546001600160a01b031661029e565b34801561049a57600080fd5b506102f66104a9366004613e76565b610e1c565b3480156104ba57600080fd5b506102f66104c9366004613eab565b610e6a565b3480156104da57600080fd5b50610277611079565b61029e6104f1366004613f44565b611086565b34801561050257600080fd5b506102f6610511366004613fe4565b6112b5565b34801561052257600080fd5b506102f6610531366004614027565b61130a565b34801561054257600080fd5b5061055661055136600461405e565b6113c3565b60405161022991906140d3565b34801561056f57600080fd5b506102f661057e366004614135565b6114b8565b34801561058f57600080fd5b506105a361059e366004613f44565b6115b2565b6040805192151583526001600160a01b03909116602083015201610229565b3480156105ce57600080fd5b506007546001600160a01b03811690600160a01b900461ffff166103ac565b3480156105f957600080fd5b5061021f610608366004613a9d565b600c6020526000908152604090205481565b34801561062657600080fd5b506102776115f6565b34801561063b57600080fd5b5061025261064a366004614194565b600360209081526000928352604080842090915290825290205460ff1681565b34801561067657600080fd5b506102f66106853660046141c7565b611603565b34801561069657600080fd5b506102f66106a536600461422c565b61168b565b60006301ffc9a760e01b6001600160e01b0319831614806106db5750636cdb3d1360e11b6001600160e01b03198316145b806106f657506303a24d0760e21b6001600160e01b03198316145b8061071157506001600160e01b0319821663152a902d60e11b145b92915050565b600080546107249061425f565b80601f01602080910402602001604051908101604052809291908181526020018280546107509061425f565b801561079d5780601f106107725761010080835404028352916020019161079d565b820191906000526020600020905b81548152906001019060200180831161078057829003601f168201915b505050505081565b6000818152600460205260408120805460609291906107c39061425f565b80601f01602080910402602001604051908101604052809291908181526020018280546107ef9061425f565b801561083c5780601f106108115761010080835404028352916020019161083c565b820191906000526020600020905b81548152906001019060200180831161081f57829003601f168201915b505050505090506000815111156108535792915050565b600061085e84611786565b90508061086a85611930565b60405160200161087b92919061429a565b60405160208183030381529060405292505050919050565b61089b611a4e565b6108dd5760405162461bcd60e51b815260206004820152600e60248201526d139bdd08185d5d1a1bdc9a5e995960921b60448201526064015b60405180910390fd5b6108e681611a7b565b50565b60006108f460095490565b82106109325760405162461bcd60e51b815260206004820152600d60248201526c092dcecc2d8d2c840d2dcc8caf609b1b60448201526064016108d4565b60098281548110610945576109456142c9565b90600052602060002001549050919050565b60008060008061096686610a23565b90945084925061ffff16905061271061097f82876142f5565b610989919061432a565b925050509250929050565b6001600160a01b0385163314806109ce57506001600160a01b038516600090815260036020908152604080832033845290915290205460ff165b610a0f5760405162461bcd60e51b81526020600482015260126024820152710853d5d3915497d3d497d054141493d5915160721b60448201526064016108d4565b610a1c8585858585611acd565b5050505050565b6000818152600860209081526040808320815180830190925280546001600160a01b031680835260019091015492820192909252829115610a6a5780516020820151610a84565b6007546001600160a01b03811690600160a01b900461ffff165b9250925050915091565b60608151835114610ad35760405162461bcd60e51b815260206004820152600f60248201526e0988a9c8ea890be9a92a69a82a8869608b1b60448201526064016108d4565b6000835167ffffffffffffffff811115610aef57610aef613af3565b604051908082528060200260200182016040528015610b18578160200160208202803683370190505b50905060005b8451811015610bbd5760026000868381518110610b3d57610b3d6142c9565b60200260200101516001600160a01b03166001600160a01b031681526020019081526020016000206000858381518110610b7957610b796142c9565b6020026020010151815260200190815260200160002054828281518110610ba257610ba26142c9565b6020908102919091010152610bb68161433e565b9050610b1e565b509392505050565b610bcd611a4e565b610c0a5760405162461bcd60e51b815260206004820152600e60248201526d139bdd08185d5d1a1bdc9a5e995960921b60448201526064016108d4565b610c148282611ce4565b5050565b336001600160a01b038416811480610c5557506001600160a01b0380851660009081526003602090815260408083209385168352929052205460ff165b610c955760405162461bcd60e51b81526020600482015260116024820152702ab730b8383937bb32b21031b0b63632b960791b60448201526064016108d4565b8151835114610ce65760405162461bcd60e51b815260206004820152600f60248201527f4c656e677468206d69736d61746368000000000000000000000000000000000060448201526064016108d4565b60005b8351811015610dbc57828181518110610d0457610d046142c9565b602002602001015160026000876001600160a01b03166001600160a01b031681526020019081526020016000206000868481518110610d4557610d456142c9565b60200260200101518152602001908152602001600020541015610daa5760405162461bcd60e51b815260206004820152601760248201527f4e6f7420656e6f75676820746f6b656e73206f776e656400000000000000000060448201526064016108d4565b610db5600182614359565b9050610ce9565b50610dc8848484611d99565b50505050565b610dd6611a4e565b610e135760405162461bcd60e51b815260206004820152600e60248201526d139bdd08185d5d1a1bdc9a5e995960921b60448201526064016108d4565b6108e681611f93565b610e24611a4e565b610e615760405162461bcd60e51b815260206004820152600e60248201526d139bdd08185d5d1a1bdc9a5e995960921b60448201526064016108d4565b6108e681611fdd565b610e72611a4e565b610ebe5760405162461bcd60e51b815260206004820152601760248201527f4e6f7420617574686f72697a656420746f206d696e742e00000000000000000060448201526064016108d4565b6000825111610f065760405162461bcd60e51b815260206004820152601460248201527326b4b73a34b733903d32b937903a37b5b2b7399760611b60448201526064016108d4565b8151835114610f575760405162461bcd60e51b815260206004820152601060248201527f4c656e677468206d69736d617463682e0000000000000000000000000000000060448201526064016108d4565b6000610f62600b5490565b9050806000805b865181101561103957600019878281518110610f8757610f876142c9565b60200260200101511415610fd25783878281518110610fa857610fa86142c9565b6020908102919091010152610fbe600185614359565b9350610fcb600183614359565b9150611027565b83878281518110610fe557610fe56142c9565b6020026020010151106110275760405162461bcd60e51b815260206004820152600a6024820152691a5b9d985b1a59081a5960b21b60448201526064016108d4565b611032600182614359565b9050610f69565b50801561104e5761104b8282866120bf565b50505b82600b819055506110708787876040518060200160405280600081525061212c565b50505050505050565b600180546107249061425f565b6000808460c00135116110d25760405162461bcd60e51b815260206004820152601460248201527326b4b73a34b733903d32b937903a37b5b2b7399760611b60448201526064016108d4565b6000806110de600b5490565b90506000198660800135141561110f578091506001600b60008282546111049190614359565b909155506111579050565b8086608001351061114f5760405162461bcd60e51b815260206004820152600a6024820152691a5b9d985b1a59081a5960b21b60448201526064016108d4565b856080013591505b6111628686866122c8565b925060006111736020880188613ab6565b90506111a96111886080890160608a01613ab6565b60c089013561119f6101208b016101008c01613ab6565b8a60e00135612481565b60006111bb6040890160208a01613ab6565b6001600160a01b0316146111e7576111e7836111dd60408a0160208b01613ab6565b896040013561253f565b60001987608001351415611240576112408361120660a08a018a614371565b8080601f01602080910402602001604051908101604052809392919081815260200183838082843760009201919091525061260092505050565b61125f81848960c001356040518060200160405280600081525061261f565b82816001600160a01b0316856001600160a01b03167f0b35afaf155daeef41cc46df86f058df2855c57d30ab134647a6b587e7cc8c398a6040516112a3919061443e565b60405180910390a45050509392505050565b6112bd611a4e565b6112fa5760405162461bcd60e51b815260206004820152600e60248201526d139bdd08185d5d1a1bdc9a5e995960921b60448201526064016108d4565b61130583838361253f565b505050565b336001600160a01b0383168114156113555760405162461bcd60e51b815260206004820152600e60248201526d20a8282927ab24a723afa9a2a62360911b60448201526064016108d4565b6001600160a01b03818116600081815260036020908152604080832094881680845294825291829020805460ff191687151590811790915591519182527f17307eab39ab6107e8899845ad3d59bd9653f200f220920489ca2b5937696c3191015b60405180910390a3505050565b60608167ffffffffffffffff8111156113de576113de613af3565b60405190808252806020026020018201604052801561141157816020015b60608152602001906001900390816113fc5790505b50905060005b828110156114b15761148130858584818110611435576114356142c9565b90506020028101906114479190614371565b8080601f01602080910402602001604051908101604052809392919081815260200183838082843760009201919091525061271792505050565b828281518110611493576114936142c9565b602002602001018190525080806114a99061433e565b915050611417565b5092915050565b6114c0611a4e565b61150c5760405162461bcd60e51b815260206004820152601760248201527f4e6f7420617574686f72697a656420746f206d696e742e00000000000000000060448201526064016108d4565b600080611518600b5490565b905060001985141561154f578091506001600b600082825461153a9190614359565b9091555061154a90508185612600565b61158f565b80851061158b5760405162461bcd60e51b815260206004820152600a6024820152691a5b9d985b1a59081a5960b21b60448201526064016108d4565b8491505b6115aa8683856040518060200160405280600081525061261f565b505050505050565b6000806115c0858585612743565b6101608601356000908152600e602052604090205490915060ff161580156115ec57506115ec8161279f565b9150935093915050565b600580546107249061425f565b6001600160a01b03851633148061163d57506001600160a01b038516600090815260036020908152604080832033845290915290205460ff165b61167e5760405162461bcd60e51b81526020600482015260126024820152710853d5d3915497d3d497d054141493d5915160721b60448201526064016108d4565b610a1c85858585856127ce565b336001600160a01b0384168114806116c857506001600160a01b0380851660009081526003602090815260408083209385168352929052205460ff165b6117085760405162461bcd60e51b81526020600482015260116024820152702ab730b8383937bb32b21031b0b63632b960791b60448201526064016108d4565b6001600160a01b038416600090815260026020908152604080832086845290915290205482111561177b5760405162461bcd60e51b815260206004820152601760248201527f4e6f7420656e6f75676820746f6b656e73206f776e656400000000000000000060448201526064016108d4565b610dc8848484612936565b6060600061179360095490565b9050600060098054806020026020016040519081016040528092919081815260200182805480156117e357602002820191906000526020600020905b8154815260200190600101908083116117cf575b5050505050905060005b828110156118e757818181518110611807576118076142c9565b60200260200101518510156118d557600a600083838151811061182c5761182c6142c9565b60200260200101518152602001908152602001600020805461184d9061425f565b80601f01602080910402602001604051908101604052809291908181526020018280546118799061425f565b80156118c65780601f1061189b576101008083540402835291602001916118c6565b820191906000526020600020905b8154815290600101906020018083116118a957829003601f168201915b50505050509350505050919050565b6118e0600182614359565b90506117ed565b5060405162461bcd60e51b815260206004820152600f60248201527f496e76616c696420746f6b656e4964000000000000000000000000000000000060448201526064016108d4565b6060816119545750506040805180820190915260018152600360fc1b602082015290565b8160005b811561197e57806119688161433e565b91506119779050600a8361432a565b9150611958565b60008167ffffffffffffffff81111561199957611999613af3565b6040519080825280601f01601f1916602001820160405280156119c3576020820181803683370190505b5090505b8415611a46576119d860018361456d565b91506119e5600a86614584565b6119f0906030614359565b60f81b818381518110611a0557611a056142c9565b60200101907effffffffffffffffffffffffffffffffffffffffffffffffffffffffffffff1916908160001a905350611a3f600a8661432a565b94506119c7565b949350505050565b6000611a626006546001600160a01b031690565b6001600160a01b0316336001600160a01b031614905090565b600680546001600160a01b038381166001600160a01b0319831681179093556040519116919082907f8292fce18fa69edf4db7b94ea2e58241df0ae57f97e0a6c9b29067028bf92d7690600090a35050565b8151835114611b105760405162461bcd60e51b815260206004820152600f60248201526e0988a9c8ea890be9a92a69a82a8869608b1b60448201526064016108d4565b6001600160a01b038416611b555760405162461bcd60e51b815260206004820152600c60248201526b2a27afad22a927afa0a2222960a11b60448201526064016108d4565b33611b64818787878787612a7e565b60005b8451811015611c7e576000858281518110611b8457611b846142c9565b602002602001015190506000858381518110611ba257611ba26142c9565b6020908102919091018101516001600160a01b038b166000908152600283526040808220868352909352919091205490915081811015611c175760405162461bcd60e51b815260206004820152601060248201526f125394d551919250d251539517d0905360821b60448201526064016108d4565b6001600160a01b03808b16600090815260026020818152604080842088855282528084208787039055938d16835290815282822086835290529081208054849290611c63908490614359565b9250508190555050505080611c779061433e565b9050611b67565b50846001600160a01b0316866001600160a01b0316826001600160a01b03167f4a39dc06d4c0dbc64b70af90fd698a233a518aa5d07e595d983b8c0526c8f7fb8787604051611cce929190614598565b60405180910390a46115aa818787878787612b8a565b612710811115611d285760405162461bcd60e51b815260206004820152600f60248201526e45786365656473206d61782062707360881b60448201526064016108d4565b600780546001600160a01b03841675ffffffffffffffffffffffffffffffffffffffffffff199091168117600160a01b61ffff851602179091556040518281527f90d7ec04bcb8978719414f82e52e4cb651db41d0e6f8cea6118c2191e6183adb9060200160405180910390a25050565b6001600160a01b038316611de05760405162461bcd60e51b815260206004820152600e60248201526d232927a6afad22a927afa0a2222960911b60448201526064016108d4565b8051825114611e235760405162461bcd60e51b815260206004820152600f60248201526e0988a9c8ea890be9a92a69a82a8869608b1b60448201526064016108d4565b6000339050611e4681856000868660405180602001604052806000815250612a7e565b60005b8351811015611f34576000848281518110611e6657611e666142c9565b602002602001015190506000848381518110611e8457611e846142c9565b6020908102919091018101516001600160a01b0389166000908152600283526040808220868352909352919091205490915081811015611ef95760405162461bcd60e51b815260206004820152601060248201526f125394d551919250d251539517d0905360821b60448201526064016108d4565b6001600160a01b0388166000908152600260209081526040808320958352949052929092209103905580611f2c8161433e565b915050611e49565b5060006001600160a01b0316846001600160a01b0316826001600160a01b03167f4a39dc06d4c0dbc64b70af90fd698a233a518aa5d07e595d983b8c0526c8f7fb8686604051611f85929190614598565b60405180910390a450505050565b600d80546001600160a01b0319166001600160a01b0383169081179091556040517f299d17e95023f496e0ffc4909cff1a61f74bb5eb18de6f900f4155bfa1b3b33390600090a250565b600060058054611fec9061425f565b80601f01602080910402602001604051908101604052809291908181526020018280546120189061425f565b80156120655780601f1061203a57610100808354040283529160200191612065565b820191906000526020600020905b81548152906001019060200180831161204857829003601f168201915b5050855193945061208193600593506020870192509050613920565b507fc9c7c3fe08b88b4df9d4d47ef47d2c43d55c025a0ba88ca442580ed9e7348a1681836040516120b39291906145c6565b60405180910390a15050565b6000806120cc8486614359565b60098054600181019091557f6e1540171b6c0c960b71a7020d9f60077f6af931a8bbf590da0223dacf75c7af018190556000818152600a602090815260409091208551929450849350612123929091860190613920565b50935093915050565b6001600160a01b0384166121715760405162461bcd60e51b815260206004820152600c60248201526b2a27afad22a927afa0a2222960a11b60448201526064016108d4565b81518351146121b45760405162461bcd60e51b815260206004820152600f60248201526e0988a9c8ea890be9a92a69a82a8869608b1b60448201526064016108d4565b336121c481600087878787612a7e565b60005b8451811015612260578381815181106121e2576121e26142c9565b602002602001015160026000886001600160a01b03166001600160a01b031681526020019081526020016000206000878481518110612223576122236142c9565b6020026020010151815260200190815260200160002060008282546122489190614359565b909155508190506122588161433e565b9150506121c7565b50846001600160a01b031660006001600160a01b0316826001600160a01b03167f4a39dc06d4c0dbc64b70af90fd698a233a518aa5d07e595d983b8c0526c8f7fb87876040516122b1929190614598565b60405180910390a4610a1c81600087878787612b8a565b6000806122d68585856115b2565b92509050806123275760405162461bcd60e51b815260206004820152600f60248201527f496e76616c69642072657175657374000000000000000000000000000000000060448201526064016108d4565b4261233a610140870161012088016145eb565b6001600160801b03161115801561236b575061235e610160860161014087016145eb565b6001600160801b03164211155b6123b75760405162461bcd60e51b815260206004820152600f60248201527f526571756573742065787069726564000000000000000000000000000000000060448201526064016108d4565b60006123c66020870187613ab6565b6001600160a01b0316141561241d5760405162461bcd60e51b815260206004820152601360248201527f726563697069656e7420756e646566696e65640000000000000000000000000060448201526064016108d4565b60008560c00135116124595760405162461bcd60e51b8152602060048201526005602482015264302071747960d81b60448201526064016108d4565b50610160909301356000908152600e60205260409020805460ff191660011790555090919050565b8061248b57610dc8565b600061249782856142f5565b90506001600160a01b03831673eeeeeeeeeeeeeeeeeeeeeeeeeeeeeeeeeeeeeeee141561250d5780341461250d5760405162461bcd60e51b815260206004820152601660248201527f4d7573742073656e6420746f74616c2070726963652e0000000000000000000060448201526064016108d4565b60006001600160a01b038616156125245785612531565b600d546001600160a01b03165b90506115aa84338385612ceb565b6127108111156125835760405162461bcd60e51b815260206004820152600f60248201526e45786365656473206d61782062707360881b60448201526064016108d4565b6040805180820182526001600160a01b038481168083526020808401868152600089815260088352869020945185546001600160a01b031916941693909317845591516001909301929092559151838152909185917f7365cf4122f072a3365c20d54eff9b38d73c096c28e1892ec8f5b0e403a0f12d91016113b6565b6000828152600460209081526040909120825161130592840190613920565b6001600160a01b0384166126645760405162461bcd60e51b815260206004820152600c60248201526b2a27afad22a927afa0a2222960a11b60448201526064016108d4565b336126848160008761267588612d35565b61267e88612d35565b87612a7e565b6001600160a01b0385166000908152600260209081526040808320878452909152812080548592906126b7908490614359565b909155505060408051858152602081018590526001600160a01b0380881692600092918516917fc3d58168c5ae7397731d063d5bbf3d657854427343f4c083240f7aacaa2d0f62910160405180910390a4610a1c81600087878787612d80565b606061273c83836040518060600160405280602781526020016147be60279139612e5d565b9392505050565b6000611a4683838080601f016020809104026020016040519081016040528093929190818152602001838380828437600092019190915250612799925061278d9150889050612f3a565b80519060200120613090565b906130de565b60006127b36006546001600160a01b031690565b6001600160a01b0316826001600160a01b0316149050919050565b6001600160a01b0384166128135760405162461bcd60e51b815260206004820152600c60248201526b2a27afad22a927afa0a2222960a11b60448201526064016108d4565b3361282381878761267588612d35565b6001600160a01b03861660009081526002602090815260408083208784529091529020548381101561288a5760405162461bcd60e51b815260206004820152601060248201526f125394d551919250d251539517d0905360821b60448201526064016108d4565b6001600160a01b0380881660009081526002602081815260408084208a855282528084208987039055938a168352908152828220888352905290812080548692906128d6908490614359565b909155505060408051868152602081018690526001600160a01b03808916928a821692918616917fc3d58168c5ae7397731d063d5bbf3d657854427343f4c083240f7aacaa2d0f62910160405180910390a4611070828888888888612d80565b6001600160a01b03831661297d5760405162461bcd60e51b815260206004820152600e60248201526d232927a6afad22a927afa0a2222960911b60448201526064016108d4565b336129ac8185600061298e87612d35565b61299787612d35565b60405180602001604052806000815250612a7e565b6001600160a01b038416600090815260026020908152604080832086845290915290205482811015612a135760405162461bcd60e51b815260206004820152601060248201526f125394d551919250d251539517d0905360821b60448201526064016108d4565b6001600160a01b03858116600081815260026020908152604080832089845282528083208887039055805189815291820188905291938616917fc3d58168c5ae7397731d063d5bbf3d657854427343f4c083240f7aacaa2d0f62910160405180910390a45050505050565b6001600160a01b038516612b055760005b8351811015612b0357828181518110612aaa57612aaa6142c9565b6020026020010151600c6000868481518110612ac857612ac86142c9565b602002602001015181526020019081526020016000206000828254612aed9190614359565b90915550612afc90508161433e565b9050612a8f565b505b6001600160a01b0384166115aa5760005b835181101561107057828181518110612b3157612b316142c9565b6020026020010151600c6000868481518110612b4f57612b4f6142c9565b602002602001015181526020019081526020016000206000828254612b74919061456d565b90915550612b8390508161433e565b9050612b16565b6001600160a01b0384163b156115aa5760405163bc197c8160e01b81526001600160a01b0385169063bc197c8190612bce9089908990889088908890600401614606565b6020604051808303816000875af1925050508015612c09575060408051601f3d908101601f19168201909252612c0691810190614664565b60015b612c9957612c15614681565b806308c379a01415612c4f5750612c2a61469c565b80612c355750612c51565b8060405162461bcd60e51b81526004016108d49190613a8a565b505b60405162461bcd60e51b815260206004820152601060248201527f214552433131353552454345495645520000000000000000000000000000000060448201526064016108d4565b6001600160e01b0319811663bc197c8160e01b146110705760405162461bcd60e51b815260206004820152600f60248201526e1513d2d15394d7d491529150d51151608a1b60448201526064016108d4565b80612cf557610dc8565b6001600160a01b03841673eeeeeeeeeeeeeeeeeeeeeeeeeeeeeeeeeeeeeeee1415612d2957612d2482826130fa565b610dc8565b610dc88484848461319d565b60408051600180825281830190925260609160009190602080830190803683370190505090508281600081518110612d6f57612d6f6142c9565b602090810291909101015292915050565b6001600160a01b0384163b156115aa5760405163f23a6e6160e01b81526001600160a01b0385169063f23a6e6190612dc49089908990889088908890600401614726565b6020604051808303816000875af1925050508015612dff575060408051601f3d908101601f19168201909252612dfc91810190614664565b60015b612e0b57612c15614681565b6001600160e01b0319811663f23a6e6160e01b146110705760405162461bcd60e51b815260206004820152600f60248201526e1513d2d15394d7d491529150d51151608a1b60448201526064016108d4565b60606001600160a01b0384163b612ec55760405162461bcd60e51b815260206004820152602660248201527f416464726573733a2064656c65676174652063616c6c20746f206e6f6e2d636f6044820152651b9d1c9858dd60d21b60648201526084016108d4565b600080856001600160a01b031685604051612ee0919061475e565b600060405180830381855af49150503d8060008114612f1b576040519150601f19603f3d011682016040523d82523d6000602084013e612f20565b606091505b5091509150612f308282866131f6565b9695505050505050565b60607fc7a95ef88f83fa833ccfce325157b7111633b181b6a27181b86415d8d501134d612f6a6020840184613ab6565b612f7a6040850160208601613ab6565b6040850135612f8f6080870160608801613ab6565b6080870135612fa160a0890189614371565b604051612faf92919061477a565b60405190819003902060c089013560e08a0135612fd46101208c016101008d01613ab6565b612fe66101408d016101208e016145eb565b612ff86101608e016101408f016145eb565b60408051602081019d909d526001600160a01b039b8c16908d0152988a1660608c015260808b019790975294881660a08a015260c089019390935260e08801919091526101008701526101208601529092166101408401526001600160801b039182166101608085019190915291166101808301528301356101a08201526101c0016040516020818303038152906040529050919050565b600061071161309d61322f565b8360405161190160f01b6020820152602281018390526042810182905260009060620160405160208183030381529060405280519060200120905092915050565b60008060006130ed8585613359565b91509150610bbd816133c9565b6000826001600160a01b03168260405160006040518083038185875af1925050503d8060008114613147576040519150601f19603f3d011682016040523d82523d6000602084013e61314c565b606091505b50509050806113055760405162461bcd60e51b815260206004820152601c60248201527f6e617469766520746f6b656e207472616e73666572206661696c65640000000060448201526064016108d4565b816001600160a01b0316836001600160a01b031614156131bc57610dc8565b6001600160a01b0383163014156131e157612d246001600160a01b0385168383613584565b610dc86001600160a01b0385168484846135fc565b6060831561320557508161273c565b8251156132155782518084602001fd5b8160405162461bcd60e51b81526004016108d49190613a8a565b6000306001600160a01b037f00000000000000000000000000000000000000000000000000000000000000001614801561328857507f000000000000000000000000000000000000000000000000000000000000000046145b156132b257507f000000000000000000000000000000000000000000000000000000000000000090565b50604080517f00000000000000000000000000000000000000000000000000000000000000006020808301919091527f0000000000000000000000000000000000000000000000000000000000000000828401527f000000000000000000000000000000000000000000000000000000000000000060608301524660808301523060a0808401919091528351808403909101815260c0909201909252805191012090565b90565b6000808251604114156133905760208301516040840151606085015160001a61338487828585613634565b945094505050506133c2565b8251604014156133ba57602083015160408401516133af868383613721565b9350935050506133c2565b506000905060025b9250929050565b60008160048111156133dd576133dd61478a565b14156133e65750565b60018160048111156133fa576133fa61478a565b14156134485760405162461bcd60e51b815260206004820152601860248201527f45434453413a20696e76616c6964207369676e6174757265000000000000000060448201526064016108d4565b600281600481111561345c5761345c61478a565b14156134aa5760405162461bcd60e51b815260206004820152601f60248201527f45434453413a20696e76616c6964207369676e6174757265206c656e6774680060448201526064016108d4565b60038160048111156134be576134be61478a565b14156135175760405162461bcd60e51b815260206004820152602260248201527f45434453413a20696e76616c6964207369676e6174757265202773272076616c604482015261756560f01b60648201526084016108d4565b600481600481111561352b5761352b61478a565b14156108e65760405162461bcd60e51b815260206004820152602260248201527f45434453413a20696e76616c6964207369676e6174757265202776272076616c604482015261756560f01b60648201526084016108d4565b6040516001600160a01b03831660248201526044810182905261130590849063a9059cbb60e01b906064015b60408051601f198184030181529190526020810180517bffffffffffffffffffffffffffffffffffffffffffffffffffffffff166001600160e01b031990931692909217909152613773565b6040516001600160a01b0380851660248301528316604482015260648101829052610dc89085906323b872dd60e01b906084016135b0565b6000807f7fffffffffffffffffffffffffffffff5d576e7357a4501ddfe92f46681b20a083111561366b5750600090506003613718565b8460ff16601b1415801561368357508460ff16601c14155b156136945750600090506004613718565b6040805160008082526020820180845289905260ff881692820192909252606081018690526080810185905260019060a0016020604051602081039080840390855afa1580156136e8573d6000803e3d6000fd5b5050604051601f1901519150506001600160a01b03811661371157600060019250925050613718565b9150600090505b94509492505050565b6000807f7fffffffffffffffffffffffffffffffffffffffffffffffffffffffffffffff83168161375760ff86901c601b614359565b905061376587828885613634565b935093505050935093915050565b60006137c8826040518060400160405280602081526020017f5361666545524332303a206c6f772d6c6576656c2063616c6c206661696c6564815250856001600160a01b03166138459092919063ffffffff16565b80519091501561130557808060200190518101906137e691906147a0565b6113055760405162461bcd60e51b815260206004820152602a60248201527f5361666545524332303a204552433230206f7065726174696f6e20646964206e6044820152691bdd081cdd58d8d9595960b21b60648201526084016108d4565b6060611a468484600085856001600160a01b0385163b6138a75760405162461bcd60e51b815260206004820152601d60248201527f416464726573733a2063616c6c20746f206e6f6e2d636f6e747261637400000060448201526064016108d4565b600080866001600160a01b031685876040516138c3919061475e565b60006040518083038185875af1925050503d8060008114613900576040519150601f19603f3d011682016040523d82523d6000602084013e613905565b606091505b50915091506139158282866131f6565b979650505050505050565b82805461392c9061425f565b90600052602060002090601f01602090048101928261394e5760008555613994565b82601f1061396757805160ff1916838001178555613994565b82800160010185558215613994579182015b82811115613994578251825591602001919060010190613979565b506139a09291506139a4565b5090565b5b808211156139a057600081556001016139a5565b80356001600160a01b03811681146139d057600080fd5b919050565b600080604083850312156139e857600080fd5b6139f1836139b9565b946020939093013593505050565b6001600160e01b0319811681146108e657600080fd5b600060208284031215613a2757600080fd5b813561273c816139ff565b60005b83811015613a4d578181015183820152602001613a35565b83811115610dc85750506000910152565b60008151808452613a76816020860160208601613a32565b601f01601f19169290920160200192915050565b60208152600061273c6020830184613a5e565b600060208284031215613aaf57600080fd5b5035919050565b600060208284031215613ac857600080fd5b61273c826139b9565b60008060408385031215613ae457600080fd5b50508035926020909101359150565b634e487b7160e01b600052604160045260246000fd5b601f8201601f1916810167ffffffffffffffff81118282101715613b2f57613b2f613af3565b6040525050565b600067ffffffffffffffff821115613b5057613b50613af3565b5060051b60200190565b600082601f830112613b6b57600080fd5b81356020613b7882613b36565b604051613b858282613b09565b83815260059390931b8501820192828101915086841115613ba557600080fd5b8286015b84811015613bc05780358352918301918301613ba9565b509695505050505050565b600082601f830112613bdc57600080fd5b813567ffffffffffffffff811115613bf657613bf6613af3565b604051613c0d601f8301601f191660200182613b09565b818152846020838601011115613c2257600080fd5b816020850160208301376000918101602001919091529392505050565b600080600080600060a08688031215613c5757600080fd5b613c60866139b9565b9450613c6e602087016139b9565b9350604086013567ffffffffffffffff80821115613c8b57600080fd5b613c9789838a01613b5a565b94506060880135915080821115613cad57600080fd5b613cb989838a01613b5a565b93506080880135915080821115613ccf57600080fd5b50613cdc88828901613bcb565b9150509295509295909350565b60008060408385031215613cfc57600080fd5b823567ffffffffffffffff80821115613d1457600080fd5b818501915085601f830112613d2857600080fd5b81356020613d3582613b36565b604051613d428282613b09565b83815260059390931b8501820192828101915089841115613d6257600080fd5b948201945b83861015613d8757613d78866139b9565b82529482019490820190613d67565b96505086013592505080821115613d9d57600080fd5b50613daa85828601613b5a565b9150509250929050565b600081518084526020808501945080840160005b83811015613de457815187529582019590820190600101613dc8565b509495945050505050565b60208152600061273c6020830184613db4565b600080600060608486031215613e1757600080fd5b613e20846139b9565b9250602084013567ffffffffffffffff80821115613e3d57600080fd5b613e4987838801613b5a565b93506040860135915080821115613e5f57600080fd5b50613e6c86828701613b5a565b9150509250925092565b600060208284031215613e8857600080fd5b813567ffffffffffffffff811115613e9f57600080fd5b611a4684828501613bcb565b60008060008060808587031215613ec157600080fd5b613eca856139b9565b9350602085013567ffffffffffffffff80821115613ee757600080fd5b613ef388838901613b5a565b94506040870135915080821115613f0957600080fd5b613f1588838901613b5a565b93506060870135915080821115613f2b57600080fd5b50613f3887828801613bcb565b91505092959194509250565b600080600060408486031215613f5957600080fd5b833567ffffffffffffffff80821115613f7157600080fd5b908501906101808288031215613f8657600080fd5b90935060208501359080821115613f9c57600080fd5b818601915086601f830112613fb057600080fd5b813581811115613fbf57600080fd5b876020828501011115613fd157600080fd5b6020830194508093505050509250925092565b600080600060608486031215613ff957600080fd5b83359250614009602085016139b9565b9150604084013590509250925092565b80151581146108e657600080fd5b6000806040838503121561403a57600080fd5b614043836139b9565b9150602083013561405381614019565b809150509250929050565b6000806020838503121561407157600080fd5b823567ffffffffffffffff8082111561408957600080fd5b818501915085601f83011261409d57600080fd5b8135818111156140ac57600080fd5b8660208260051b85010111156140c157600080fd5b60209290920196919550909350505050565b6000602080830181845280855180835260408601915060408160051b870101925083870160005b8281101561412857603f19888603018452614116858351613a5e565b945092850192908501906001016140fa565b5092979650505050505050565b6000806000806080858703121561414b57600080fd5b614154856139b9565b935060208501359250604085013567ffffffffffffffff81111561417757600080fd5b61418387828801613bcb565b949793965093946060013593505050565b600080604083850312156141a757600080fd5b6141b0836139b9565b91506141be602084016139b9565b90509250929050565b600080600080600060a086880312156141df57600080fd5b6141e8866139b9565b94506141f6602087016139b9565b93506040860135925060608601359150608086013567ffffffffffffffff81111561422057600080fd5b613cdc88828901613bcb565b60008060006060848603121561424157600080fd5b61424a846139b9565b95602085013595506040909401359392505050565b600181811c9082168061427357607f821691505b6020821081141561429457634e487b7160e01b600052602260045260246000fd5b50919050565b600083516142ac818460208801613a32565b8351908301906142c0818360208801613a32565b01949350505050565b634e487b7160e01b600052603260045260246000fd5b634e487b7160e01b600052601160045260246000fd5b600081600019048311821515161561430f5761430f6142df565b500290565b634e487b7160e01b600052601260045260246000fd5b60008261433957614339614314565b500490565b6000600019821415614352576143526142df565b5060010190565b6000821982111561436c5761436c6142df565b500190565b6000808335601e1984360301811261438857600080fd5b83018035915067ffffffffffffffff8211156143a357600080fd5b6020019150368190038213156133c257600080fd5b6000808335601e198436030181126143cf57600080fd5b830160208101925035905067ffffffffffffffff8111156143ef57600080fd5b8036038313156133c257600080fd5b81835281816020850137506000828201602090810191909152601f909101601f19169091010190565b80356001600160801b03811681146139d057600080fd5b6020815261445f60208201614452846139b9565b6001600160a01b03169052565b600061446d602084016139b9565b6001600160a01b03811660408401525060408301356060830152614493606084016139b9565b6001600160a01b038116608084015250608083013560a08301526144ba60a08401846143b8565b6101808060c08601526144d26101a0860183856143fe565b925060c086013560e0860152610100915060e0860135828601526144f78287016139b9565b9150610120614510818701846001600160a01b03169052565b61451b818801614427565b925050610140614535818701846001600160801b03169052565b614540818801614427565b92505061016061455a818701846001600160801b03169052565b9590950135939094019290925250919050565b60008282101561457f5761457f6142df565b500390565b60008261459357614593614314565b500690565b6040815260006145ab6040830185613db4565b82810360208401526145bd8185613db4565b95945050505050565b6040815260006145d96040830185613a5e565b82810360208401526145bd8185613a5e565b6000602082840312156145fd57600080fd5b61273c82614427565b60006001600160a01b03808816835280871660208401525060a0604083015261463260a0830186613db4565b82810360608401526146448186613db4565b905082810360808401526146588185613a5e565b98975050505050505050565b60006020828403121561467657600080fd5b815161273c816139ff565b600060033d11156133565760046000803e5060005160e01c90565b600060443d10156146aa5790565b6040516003193d81016004833e81513d67ffffffffffffffff81602484011181841117156146da57505050505090565b82850191508151818111156146f25750505050505090565b843d870101602082850101111561470c5750505050505090565b61471b60208286010187613b09565b509095945050505050565b60006001600160a01b03808816835280871660208401525084604083015283606083015260a0608083015261391560a0830184613a5e565b60008251614770818460208701613a32565b9190910192915050565b8183823760009101908152919050565b634e487b7160e01b600052602160045260246000fd5b6000602082840312156147b257600080fd5b815161273c8161401956fe416464726573733a206c6f772d6c6576656c2064656c65676174652063616c6c206661696c6564a264697066735822122048eaf6b3fbc2cc544500b4c225f3d994e0020ffff9d62437bfbfd6ceda8c3d3a64736f6c634300080c0033",
  "linkReferences": {},
  "deployedLinkReferences": {}
}