{
  "_format": "hh-sol-artifact-1",
  "contractName": "ERC1155",
  "sourceName": "contracts/eip/ERC1155.sol",
  "abi": [
    {
      "inputs": [
        {
          "internalType": "string",
          "name": "_name",
          "type": "string"
        },
        {
          "internalType": "string",
          "name": "_symbol",
          "type": "string"
        }
      ],
      "stateMutability": "nonpayable",
      "type": "constructor"
    },
    {
      "anonymous": false,
      "inputs": [
        {
          "indexed": true,
          "internalType": "address",
          "name": "_owner",
          "type": "address"
        },
        {
          "indexed": true,
          "internalType": "address",
          "name": "_operator",
          "type": "address"
        },
        {
          "indexed": false,
          "internalType": "bool",
          "name": "_approved",
          "type": "bool"
        }
      ],
      "name": "ApprovalForAll",
      "type": "event"
    },
    {
      "anonymous": false,
      "inputs": [
        {
          "indexed": true,
          "internalType": "address",
          "name": "_operator",
          "type": "address"
        },
        {
          "indexed": true,
          "internalType": "address",
          "name": "_from",
          "type": "address"
        },
        {
          "indexed": true,
          "internalType": "address",
          "name": "_to",
          "type": "address"
        },
        {
          "indexed": false,
          "internalType": "uint256[]",
          "name": "_ids",
          "type": "uint256[]"
        },
        {
          "indexed": false,
          "internalType": "uint256[]",
          "name": "_values",
          "type": "uint256[]"
        }
      ],
      "name": "TransferBatch",
      "type": "event"
    },
    {
      "anonymous": false,
      "inputs": [
        {
          "indexed": true,
          "internalType": "address",
          "name": "_operator",
          "type": "address"
        },
        {
          "indexed": true,
          "internalType": "address",
          "name": "_from",
          "type": "address"
        },
        {
          "indexed": true,
          "internalType": "address",
          "name": "_to",
          "type": "address"
        },
        {
          "indexed": false,
          "internalType": "uint256",
          "name": "_id",
          "type": "uint256"
        },
        {
          "indexed": false,
          "internalType": "uint256",
          "name": "_value",
          "type": "uint256"
        }
      ],
      "name": "TransferSingle",
      "type": "event"
    },
    {
      "anonymous": false,
      "inputs": [
        {
          "indexed": false,
          "internalType": "string",
          "name": "_value",
          "type": "string"
        },
        {
          "indexed": true,
          "internalType": "uint256",
          "name": "_id",
          "type": "uint256"
        }
      ],
      "name": "URI",
      "type": "event"
    },
    {
      "inputs": [
        {
          "internalType": "address",
          "name": "",
          "type": "address"
        },
        {
          "internalType": "uint256",
          "name": "",
          "type": "uint256"
        }
      ],
      "name": "balanceOf",
      "outputs": [
        {
          "internalType": "uint256",
          "name": "",
          "type": "uint256"
        }
      ],
      "stateMutability": "view",
      "type": "function"
    },
    {
      "inputs": [
        {
          "internalType": "address[]",
          "name": "accounts",
          "type": "address[]"
        },
        {
          "internalType": "uint256[]",
          "name": "ids",
          "type": "uint256[]"
        }
      ],
      "name": "balanceOfBatch",
      "outputs": [
        {
          "internalType": "uint256[]",
          "name": "",
          "type": "uint256[]"
        }
      ],
      "stateMutability": "view",
      "type": "function"
    },
    {
      "inputs": [
        {
          "internalType": "address",
          "name": "",
          "type": "address"
        },
        {
          "internalType": "address",
          "name": "",
          "type": "address"
        }
      ],
      "name": "isApprovedForAll",
      "outputs": [
        {
          "internalType": "bool",
          "name": "",
          "type": "bool"
        }
      ],
      "stateMutability": "view",
      "type": "function"
    },
    {
      "inputs": [],
      "name": "name",
      "outputs": [
        {
          "internalType": "string",
          "name": "",
          "type": "string"
        }
      ],
      "stateMutability": "view",
      "type": "function"
    },
    {
      "inputs": [
        {
          "internalType": "address",
          "name": "from",
          "type": "address"
        },
        {
          "internalType": "address",
          "name": "to",
          "type": "address"
        },
        {
          "internalType": "uint256[]",
          "name": "ids",
          "type": "uint256[]"
        },
        {
          "internalType": "uint256[]",
          "name": "amounts",
          "type": "uint256[]"
        },
        {
          "internalType": "bytes",
          "name": "data",
          "type": "bytes"
        }
      ],
      "name": "safeBatchTransferFrom",
      "outputs": [],
      "stateMutability": "nonpayable",
      "type": "function"
    },
    {
      "inputs": [
        {
          "internalType": "address",
          "name": "from",
          "type": "address"
        },
        {
          "internalType": "address",
          "name": "to",
          "type": "address"
        },
        {
          "internalType": "uint256",
          "name": "id",
          "type": "uint256"
        },
        {
          "internalType": "uint256",
          "name": "amount",
          "type": "uint256"
        },
        {
          "internalType": "bytes",
          "name": "data",
          "type": "bytes"
        }
      ],
      "name": "safeTransferFrom",
      "outputs": [],
      "stateMutability": "nonpayable",
      "type": "function"
    },
    {
      "inputs": [
        {
          "internalType": "address",
          "name": "operator",
          "type": "address"
        },
        {
          "internalType": "bool",
          "name": "approved",
          "type": "bool"
        }
      ],
      "name": "setApprovalForAll",
      "outputs": [],
      "stateMutability": "nonpayable",
      "type": "function"
    },
    {
      "inputs": [
        {
          "internalType": "bytes4",
          "name": "interfaceId",
          "type": "bytes4"
        }
      ],
      "name": "supportsInterface",
      "outputs": [
        {
          "internalType": "bool",
          "name": "",
          "type": "bool"
        }
      ],
      "stateMutability": "view",
      "type": "function"
    },
    {
      "inputs": [],
      "name": "symbol",
      "outputs": [
        {
          "internalType": "string",
          "name": "",
          "type": "string"
        }
      ],
      "stateMutability": "view",
      "type": "function"
    },
    {
      "inputs": [
        {
          "internalType": "uint256",
          "name": "tokenId",
          "type": "uint256"
        }
      ],
      "name": "uri",
      "outputs": [
        {
          "internalType": "string",
          "name": "",
          "type": "string"
        }
      ],
      "stateMutability": "view",
      "type": "function"
    }
  ],
  "bytecode": "0x60806040523480156200001157600080fd5b506040516200163d3803806200163d8339810160408190526200003491620001db565b81516200004990600090602085019062000068565b5080516200005f90600190602084019062000068565b50505062000282565b828054620000769062000245565b90600052602060002090601f0160209004810192826200009a5760008555620000e5565b82601f10620000b557805160ff1916838001178555620000e5565b82800160010185558215620000e5579182015b82811115620000e5578251825591602001919060010190620000c8565b50620000f3929150620000f7565b5090565b5b80821115620000f35760008155600101620000f8565b634e487b7160e01b600052604160045260246000fd5b600082601f8301126200013657600080fd5b81516001600160401b03808211156200015357620001536200010e565b604051601f8301601f19908116603f011681019082821181831017156200017e576200017e6200010e565b816040528381526020925086838588010111156200019b57600080fd5b600091505b83821015620001bf5785820183015181830184015290820190620001a0565b83821115620001d15760008385830101525b9695505050505050565b60008060408385031215620001ef57600080fd5b82516001600160401b03808211156200020757600080fd5b620002158683870162000124565b935060208501519150808211156200022c57600080fd5b506200023b8582860162000124565b9150509250929050565b600181811c908216806200025a57607f821691505b602082108114156200027c57634e487b7160e01b600052602260045260246000fd5b50919050565b6113ab80620002926000396000f3fe608060405234801561001057600080fd5b506004361061009d5760003560e01c80634e1273f4116100665780634e1273f41461014057806395d89b4114610160578063a22cb46514610168578063e985e9c51461017b578063f242432a146101a957600080fd5b8062fdd58e146100a257806301ffc9a7146100e057806306fdde03146101035780630e89341c146101185780632eb2c2d61461012b575b600080fd5b6100cd6100b0366004610c86565b600260209081526000928352604080842090915290825290205481565b6040519081526020015b60405180910390f35b6100f36100ee366004610cc9565b6101bc565b60405190151581526020016100d7565b61010b61020e565b6040516100d79190610d3a565b61010b610126366004610d4d565b61029c565b61013e610139366004610eb2565b61033e565b005b61015361014e366004610f5c565b6103d2565b6040516100d79190611062565b61010b610509565b61013e610176366004611075565b610516565b6100f36101893660046110b1565b600360209081526000928352604080842090915290825290205460ff1681565b61013e6101b73660046110e4565b6105ce565b60006301ffc9a760e01b6001600160e01b0319831614806101ed5750636cdb3d1360e11b6001600160e01b03198316145b8061020857506303a24d0760e21b6001600160e01b03198316145b92915050565b6000805461021b90611149565b80601f016020809104026020016040519081016040528092919081815260200182805461024790611149565b80156102945780601f1061026957610100808354040283529160200191610294565b820191906000526020600020905b81548152906001019060200180831161027757829003601f168201915b505050505081565b60008181526004602052604090208054606091906102b990611149565b80601f01602080910402602001604051908101604052809291908181526020018280546102e590611149565b80156103325780601f1061030757610100808354040283529160200191610332565b820191906000526020600020905b81548152906001019060200180831161031557829003601f168201915b50505050509050919050565b6001600160a01b03851633148061037857506001600160a01b038516600090815260036020908152604080832033845290915290205460ff165b6103be5760405162461bcd60e51b81526020600482015260126024820152710853d5d3915497d3d497d054141493d5915160721b60448201526064015b60405180910390fd5b6103cb8585858585610656565b5050505050565b606081518351146104175760405162461bcd60e51b815260206004820152600f60248201526e0988a9c8ea890be9a92a69a82a8869608b1b60448201526064016103b5565b6000835167ffffffffffffffff81111561043357610433610d66565b60405190808252806020026020018201604052801561045c578160200160208202803683370190505b50905060005b8451811015610501576002600086838151811061048157610481611184565b60200260200101516001600160a01b03166001600160a01b0316815260200190815260200160002060008583815181106104bd576104bd611184565b60200260200101518152602001908152602001600020548282815181106104e6576104e6611184565b60209081029190910101526104fa816111b0565b9050610462565b509392505050565b6001805461021b90611149565b336001600160a01b0383168114156105615760405162461bcd60e51b815260206004820152600e60248201526d20a8282927ab24a723afa9a2a62360911b60448201526064016103b5565b6001600160a01b03818116600081815260036020908152604080832094881680845294825291829020805460ff191687151590811790915591519182527f17307eab39ab6107e8899845ad3d59bd9653f200f220920489ca2b5937696c31910160405180910390a3505050565b6001600160a01b03851633148061060857506001600160a01b038516600090815260036020908152604080832033845290915290205460ff165b6106495760405162461bcd60e51b81526020600482015260126024820152710853d5d3915497d3d497d054141493d5915160721b60448201526064016103b5565b6103cb8585858585610867565b81518351146106995760405162461bcd60e51b815260206004820152600f60248201526e0988a9c8ea890be9a92a69a82a8869608b1b60448201526064016103b5565b6001600160a01b0384166106de5760405162461bcd60e51b815260206004820152600c60248201526b2a27afad22a927afa0a2222960a11b60448201526064016103b5565b3360005b84518110156107f95760008582815181106106ff576106ff611184565b60200260200101519050600085838151811061071d5761071d611184565b6020908102919091018101516001600160a01b038b1660009081526002835260408082208683529093529190912054909150818110156107925760405162461bcd60e51b815260206004820152601060248201526f125394d551919250d251539517d0905360821b60448201526064016103b5565b6001600160a01b03808b16600090815260026020818152604080842088855282528084208787039055938d168352908152828220868352905290812080548492906107de9084906111cb565b92505081905550505050806107f2906111b0565b90506106e2565b50846001600160a01b0316866001600160a01b0316826001600160a01b03167f4a39dc06d4c0dbc64b70af90fd698a233a518aa5d07e595d983b8c0526c8f7fb87876040516108499291906111e3565b60405180910390a461085f8187878787876109e1565b505050505050565b6001600160a01b0384166108ac5760405162461bcd60e51b815260206004820152600c60248201526b2a27afad22a927afa0a2222960a11b60448201526064016103b5565b336108c58187876108bc88610b42565b6103cb88610b42565b6001600160a01b03861660009081526002602090815260408083208784529091529020548381101561092c5760405162461bcd60e51b815260206004820152601060248201526f125394d551919250d251539517d0905360821b60448201526064016103b5565b6001600160a01b0380881660009081526002602081815260408084208a855282528084208987039055938a168352908152828220888352905290812080548692906109789084906111cb565b909155505060408051868152602081018690526001600160a01b03808916928a821692918616917fc3d58168c5ae7397731d063d5bbf3d657854427343f4c083240f7aacaa2d0f62910160405180910390a46109d8828888888888610b8d565b50505050505050565b6001600160a01b0384163b1561085f5760405163bc197c8160e01b81526001600160a01b0385169063bc197c8190610a259089908990889088908890600401611211565b6020604051808303816000875af1925050508015610a60575060408051601f3d908101601f19168201909252610a5d9181019061126f565b60015b610af057610a6c61128c565b806308c379a01415610aa65750610a816112a8565b80610a8c5750610aa8565b8060405162461bcd60e51b81526004016103b59190610d3a565b505b60405162461bcd60e51b815260206004820152601060248201527f214552433131353552454345495645520000000000000000000000000000000060448201526064016103b5565b6001600160e01b0319811663bc197c8160e01b146109d85760405162461bcd60e51b815260206004820152600f60248201526e1513d2d15394d7d491529150d51151608a1b60448201526064016103b5565b60408051600180825281830190925260609160009190602080830190803683370190505090508281600081518110610b7c57610b7c611184565b602090810291909101015292915050565b6001600160a01b0384163b1561085f5760405163f23a6e6160e01b81526001600160a01b0385169063f23a6e6190610bd19089908990889088908890600401611332565b6020604051808303816000875af1925050508015610c0c575060408051601f3d908101601f19168201909252610c099181019061126f565b60015b610c1857610a6c61128c565b6001600160e01b0319811663f23a6e6160e01b146109d85760405162461bcd60e51b815260206004820152600f60248201526e1513d2d15394d7d491529150d51151608a1b60448201526064016103b5565b80356001600160a01b0381168114610c8157600080fd5b919050565b60008060408385031215610c9957600080fd5b610ca283610c6a565b946020939093013593505050565b6001600160e01b031981168114610cc657600080fd5b50565b600060208284031215610cdb57600080fd5b8135610ce681610cb0565b9392505050565b6000815180845260005b81811015610d1357602081850181015186830182015201610cf7565b81811115610d25576000602083870101525b50601f01601f19169290920160200192915050565b602081526000610ce66020830184610ced565b600060208284031215610d5f57600080fd5b5035919050565b634e487b7160e01b600052604160045260246000fd5b601f8201601f1916810167ffffffffffffffff81118282101715610da257610da2610d66565b6040525050565b600067ffffffffffffffff821115610dc357610dc3610d66565b5060051b60200190565b600082601f830112610dde57600080fd5b81356020610deb82610da9565b604051610df88282610d7c565b83815260059390931b8501820192828101915086841115610e1857600080fd5b8286015b84811015610e335780358352918301918301610e1c565b509695505050505050565b600082601f830112610e4f57600080fd5b813567ffffffffffffffff811115610e6957610e69610d66565b604051610e80601f8301601f191660200182610d7c565b818152846020838601011115610e9557600080fd5b816020850160208301376000918101602001919091529392505050565b600080600080600060a08688031215610eca57600080fd5b610ed386610c6a565b9450610ee160208701610c6a565b9350604086013567ffffffffffffffff80821115610efe57600080fd5b610f0a89838a01610dcd565b94506060880135915080821115610f2057600080fd5b610f2c89838a01610dcd565b93506080880135915080821115610f4257600080fd5b50610f4f88828901610e3e565b9150509295509295909350565b60008060408385031215610f6f57600080fd5b823567ffffffffffffffff80821115610f8757600080fd5b818501915085601f830112610f9b57600080fd5b81356020610fa882610da9565b604051610fb58282610d7c565b83815260059390931b8501820192828101915089841115610fd557600080fd5b948201945b83861015610ffa57610feb86610c6a565b82529482019490820190610fda565b9650508601359250508082111561101057600080fd5b5061101d85828601610dcd565b9150509250929050565b600081518084526020808501945080840160005b838110156110575781518752958201959082019060010161103b565b509495945050505050565b602081526000610ce66020830184611027565b6000806040838503121561108857600080fd5b61109183610c6a565b9150602083013580151581146110a657600080fd5b809150509250929050565b600080604083850312156110c457600080fd5b6110cd83610c6a565b91506110db60208401610c6a565b90509250929050565b600080600080600060a086880312156110fc57600080fd5b61110586610c6a565b945061111360208701610c6a565b93506040860135925060608601359150608086013567ffffffffffffffff81111561113d57600080fd5b610f4f88828901610e3e565b600181811c9082168061115d57607f821691505b6020821081141561117e57634e487b7160e01b600052602260045260246000fd5b50919050565b634e487b7160e01b600052603260045260246000fd5b634e487b7160e01b600052601160045260246000fd5b60006000198214156111c4576111c461119a565b5060010190565b600082198211156111de576111de61119a565b500190565b6040815260006111f66040830185611027565b82810360208401526112088185611027565b95945050505050565b60006001600160a01b03808816835280871660208401525060a0604083015261123d60a0830186611027565b828103606084015261124f8186611027565b905082810360808401526112638185610ced565b98975050505050505050565b60006020828403121561128157600080fd5b8151610ce681610cb0565b600060033d11156112a55760046000803e5060005160e01c5b90565b600060443d10156112b65790565b6040516003193d81016004833e81513d67ffffffffffffffff81602484011181841117156112e657505050505090565b82850191508151818111156112fe5750505050505090565b843d87010160208285010111156113185750505050505090565b61132760208286010187610d7c565b509095945050505050565b60006001600160a01b03808816835280871660208401525084604083015283606083015260a0608083015261136a60a0830184610ced565b97965050505050505056fea2646970667358221220a78bc4b9524fe341070526451f2ff81dbc7fea2739540f97ed1d7ef9e1c225d864736f6c634300080c0033",
  "linkReferences": {},
  "deployedLinkReferences": {}
}