{
  "_format": "hh-sol-artifact-1",
  "contractName": "ERC1155Drop",
  "sourceName": "contracts/base/ERC1155Drop.sol",
  "abi": [
    {
      "inputs": [
        {
          "internalType": "string",
          "name": "_name",
          "type": "string"
        },
        {
          "internalType": "string",
          "name": "_symbol",
          "type": "string"
        },
        {
          "internalType": "address",
          "name": "_royaltyRecipient",
          "type": "address"
        },
        {
          "internalType": "uint128",
          "name": "_royaltyBps",
          "type": "uint128"
        },
        {
          "internalType": "address",
          "name": "_primarySaleRecipient",
          "type": "address"
        }
      ],
      "stateMutability": "nonpayable",
      "type": "constructor"
    },
    {
      "anonymous": false,
      "inputs": [
        {
          "indexed": true,
          "internalType": "address",
          "name": "_owner",
          "type": "address"
        },
        {
          "indexed": true,
          "internalType": "address",
          "name": "_operator",
          "type": "address"
        },
        {
          "indexed": false,
          "internalType": "bool",
          "name": "_approved",
          "type": "bool"
        }
      ],
      "name": "ApprovalForAll",
      "type": "event"
    },
    {
      "anonymous": false,
      "inputs": [
        {
          "indexed": true,
          "internalType": "uint256",
          "name": "tokenId",
          "type": "uint256"
        },
        {
          "components": [
            {
              "internalType": "uint256",
              "name": "startTimestamp",
              "type": "uint256"
            },
            {
              "internalType": "uint256",
              "name": "maxClaimableSupply",
              "type": "uint256"
            },
            {
              "internalType": "uint256",
              "name": "supplyClaimed",
              "type": "uint256"
            },
            {
              "internalType": "uint256",
              "name": "quantityLimitPerWallet",
              "type": "uint256"
            },
            {
              "internalType": "bytes32",
              "name": "merkleRoot",
              "type": "bytes32"
            },
            {
              "internalType": "uint256",
              "name": "pricePerToken",
              "type": "uint256"
            },
            {
              "internalType": "address",
              "name": "currency",
              "type": "address"
            },
            {
              "internalType": "string",
              "name": "metadata",
              "type": "string"
            }
          ],
          "indexed": false,
          "internalType": "struct IClaimCondition.ClaimCondition",
          "name": "condition",
          "type": "tuple"
        },
        {
          "indexed": false,
          "internalType": "bool",
          "name": "resetEligibility",
          "type": "bool"
        }
      ],
      "name": "ClaimConditionUpdated",
      "type": "event"
    },
    {
      "anonymous": false,
      "inputs": [
        {
          "indexed": false,
          "internalType": "string",
          "name": "prevURI",
          "type": "string"
        },
        {
          "indexed": false,
          "internalType": "string",
          "name": "newURI",
          "type": "string"
        }
      ],
      "name": "ContractURIUpdated",
      "type": "event"
    },
    {
      "anonymous": false,
      "inputs": [
        {
          "indexed": true,
          "internalType": "address",
          "name": "newRoyaltyRecipient",
          "type": "address"
        },
        {
          "indexed": false,
          "internalType": "uint256",
          "name": "newRoyaltyBps",
          "type": "uint256"
        }
      ],
      "name": "DefaultRoyalty",
      "type": "event"
    },
    {
      "anonymous": false,
      "inputs": [
        {
          "indexed": true,
          "internalType": "address",
          "name": "prevOwner",
          "type": "address"
        },
        {
          "indexed": true,
          "internalType": "address",
          "name": "newOwner",
          "type": "address"
        }
      ],
      "name": "OwnerUpdated",
      "type": "event"
    },
    {
      "anonymous": false,
      "inputs": [
        {
          "indexed": true,
          "internalType": "address",
          "name": "recipient",
          "type": "address"
        }
      ],
      "name": "PrimarySaleRecipientUpdated",
      "type": "event"
    },
    {
      "anonymous": false,
      "inputs": [
        {
          "indexed": true,
          "internalType": "uint256",
          "name": "tokenId",
          "type": "uint256"
        },
        {
          "indexed": true,
          "internalType": "address",
          "name": "royaltyRecipient",
          "type": "address"
        },
        {
          "indexed": false,
          "internalType": "uint256",
          "name": "royaltyBps",
          "type": "uint256"
        }
      ],
      "name": "RoyaltyForToken",
      "type": "event"
    },
    {
      "anonymous": false,
      "inputs": [
        {
          "indexed": true,
          "internalType": "uint256",
          "name": "index",
          "type": "uint256"
        },
        {
          "indexed": false,
          "internalType": "string",
          "name": "revealedURI",
          "type": "string"
        }
      ],
      "name": "TokenURIRevealed",
      "type": "event"
    },
    {
      "anonymous": false,
      "inputs": [
        {
          "indexed": true,
          "internalType": "address",
          "name": "claimer",
          "type": "address"
        },
        {
          "indexed": true,
          "internalType": "address",
          "name": "receiver",
          "type": "address"
        },
        {
          "indexed": true,
          "internalType": "uint256",
          "name": "tokenId",
          "type": "uint256"
        },
        {
          "indexed": false,
          "internalType": "uint256",
          "name": "quantityClaimed",
          "type": "uint256"
        }
      ],
      "name": "TokensClaimed",
      "type": "event"
    },
    {
      "anonymous": false,
      "inputs": [
        {
          "indexed": true,
          "internalType": "uint256",
          "name": "startTokenId",
          "type": "uint256"
        },
        {
          "indexed": false,
          "internalType": "uint256",
          "name": "endTokenId",
          "type": "uint256"
        },
        {
          "indexed": false,
          "internalType": "string",
          "name": "baseURI",
          "type": "string"
        },
        {
          "indexed": false,
          "internalType": "bytes",
          "name": "encryptedBaseURI",
          "type": "bytes"
        }
      ],
      "name": "TokensLazyMinted",
      "type": "event"
    },
    {
      "anonymous": false,
      "inputs": [
        {
          "indexed": true,
          "internalType": "address",
          "name": "_operator",
          "type": "address"
        },
        {
          "indexed": true,
          "internalType": "address",
          "name": "_from",
          "type": "address"
        },
        {
          "indexed": true,
          "internalType": "address",
          "name": "_to",
          "type": "address"
        },
        {
          "indexed": false,
          "internalType": "uint256[]",
          "name": "_ids",
          "type": "uint256[]"
        },
        {
          "indexed": false,
          "internalType": "uint256[]",
          "name": "_values",
          "type": "uint256[]"
        }
      ],
      "name": "TransferBatch",
      "type": "event"
    },
    {
      "anonymous": false,
      "inputs": [
        {
          "indexed": true,
          "internalType": "address",
          "name": "_operator",
          "type": "address"
        },
        {
          "indexed": true,
          "internalType": "address",
          "name": "_from",
          "type": "address"
        },
        {
          "indexed": true,
          "internalType": "address",
          "name": "_to",
          "type": "address"
        },
        {
          "indexed": false,
          "internalType": "uint256",
          "name": "_id",
          "type": "uint256"
        },
        {
          "indexed": false,
          "internalType": "uint256",
          "name": "_value",
          "type": "uint256"
        }
      ],
      "name": "TransferSingle",
      "type": "event"
    },
    {
      "anonymous": false,
      "inputs": [
        {
          "indexed": false,
          "internalType": "string",
          "name": "_value",
          "type": "string"
        },
        {
          "indexed": true,
          "internalType": "uint256",
          "name": "_id",
          "type": "uint256"
        }
      ],
      "name": "URI",
      "type": "event"
    },
    {
      "inputs": [
        {
          "internalType": "address",
          "name": "",
          "type": "address"
        },
        {
          "internalType": "uint256",
          "name": "",
          "type": "uint256"
        }
      ],
      "name": "balanceOf",
      "outputs": [
        {
          "internalType": "uint256",
          "name": "",
          "type": "uint256"
        }
      ],
      "stateMutability": "view",
      "type": "function"
    },
    {
      "inputs": [
        {
          "internalType": "address[]",
          "name": "accounts",
          "type": "address[]"
        },
        {
          "internalType": "uint256[]",
          "name": "ids",
          "type": "uint256[]"
        }
      ],
      "name": "balanceOfBatch",
      "outputs": [
        {
          "internalType": "uint256[]",
          "name": "",
          "type": "uint256[]"
        }
      ],
      "stateMutability": "view",
      "type": "function"
    },
    {
      "inputs": [
        {
          "internalType": "address",
          "name": "_receiver",
          "type": "address"
        },
        {
          "internalType": "uint256",
          "name": "_tokenId",
          "type": "uint256"
        },
        {
          "internalType": "uint256",
          "name": "_quantity",
          "type": "uint256"
        },
        {
          "internalType": "address",
          "name": "_currency",
          "type": "address"
        },
        {
          "internalType": "uint256",
          "name": "_pricePerToken",
          "type": "uint256"
        },
        {
          "components": [
            {
              "internalType": "bytes32[]",
              "name": "proof",
              "type": "bytes32[]"
            },
            {
              "internalType": "uint256",
              "name": "quantityLimitPerWallet",
              "type": "uint256"
            },
            {
              "internalType": "uint256",
              "name": "pricePerToken",
              "type": "uint256"
            },
            {
              "internalType": "address",
              "name": "currency",
              "type": "address"
            }
          ],
          "internalType": "struct IDropSinglePhase1155.AllowlistProof",
          "name": "_allowlistProof",
          "type": "tuple"
        },
        {
          "internalType": "bytes",
          "name": "_data",
          "type": "bytes"
        }
      ],
      "name": "claim",
      "outputs": [],
      "stateMutability": "payable",
      "type": "function"
    },
    {
      "inputs": [
        {
          "internalType": "uint256",
          "name": "",
          "type": "uint256"
        }
      ],
      "name": "claimCondition",
      "outputs": [
        {
          "internalType": "uint256",
          "name": "startTimestamp",
          "type": "uint256"
        },
        {
          "internalType": "uint256",
          "name": "maxClaimableSupply",
          "type": "uint256"
        },
        {
          "internalType": "uint256",
          "name": "supplyClaimed",
          "type": "uint256"
        },
        {
          "internalType": "uint256",
          "name": "quantityLimitPerWallet",
          "type": "uint256"
        },
        {
          "internalType": "bytes32",
          "name": "merkleRoot",
          "type": "bytes32"
        },
        {
          "internalType": "uint256",
          "name": "pricePerToken",
          "type": "uint256"
        },
        {
          "internalType": "address",
          "name": "currency",
          "type": "address"
        },
        {
          "internalType": "string",
          "name": "metadata",
          "type": "string"
        }
      ],
      "stateMutability": "view",
      "type": "function"
    },
    {
      "inputs": [],
      "name": "contractURI",
      "outputs": [
        {
          "internalType": "string",
          "name": "",
          "type": "string"
        }
      ],
      "stateMutability": "view",
      "type": "function"
    },
    {
      "inputs": [
        {
          "internalType": "bytes",
          "name": "data",
          "type": "bytes"
        },
        {
          "internalType": "bytes",
          "name": "key",
          "type": "bytes"
        }
      ],
      "name": "encryptDecrypt",
      "outputs": [
        {
          "internalType": "bytes",
          "name": "result",
          "type": "bytes"
        }
      ],
      "stateMutability": "pure",
      "type": "function"
    },
    {
      "inputs": [
        {
          "internalType": "uint256",
          "name": "",
          "type": "uint256"
        }
      ],
      "name": "encryptedData",
      "outputs": [
        {
          "internalType": "bytes",
          "name": "",
          "type": "bytes"
        }
      ],
      "stateMutability": "view",
      "type": "function"
    },
    {
      "inputs": [],
      "name": "getBaseURICount",
      "outputs": [
        {
          "internalType": "uint256",
          "name": "",
          "type": "uint256"
        }
      ],
      "stateMutability": "view",
      "type": "function"
    },
    {
      "inputs": [
        {
          "internalType": "uint256",
          "name": "_index",
          "type": "uint256"
        }
      ],
      "name": "getBatchIdAtIndex",
      "outputs": [
        {
          "internalType": "uint256",
          "name": "",
          "type": "uint256"
        }
      ],
      "stateMutability": "view",
      "type": "function"
    },
    {
      "inputs": [],
      "name": "getDefaultRoyaltyInfo",
      "outputs": [
        {
          "internalType": "address",
          "name": "",
          "type": "address"
        },
        {
          "internalType": "uint16",
          "name": "",
          "type": "uint16"
        }
      ],
      "stateMutability": "view",
      "type": "function"
    },
    {
      "inputs": [
        {
          "internalType": "uint256",
          "name": "_batchId",
          "type": "uint256"
        },
        {
          "internalType": "bytes",
          "name": "_key",
          "type": "bytes"
        }
      ],
      "name": "getRevealURI",
      "outputs": [
        {
          "internalType": "string",
          "name": "revealedURI",
          "type": "string"
        }
      ],
      "stateMutability": "view",
      "type": "function"
    },
    {
      "inputs": [
        {
          "internalType": "uint256",
          "name": "_tokenId",
          "type": "uint256"
        }
      ],
      "name": "getRoyaltyInfoForToken",
      "outputs": [
        {
          "internalType": "address",
          "name": "",
          "type": "address"
        },
        {
          "internalType": "uint16",
          "name": "",
          "type": "uint16"
        }
      ],
      "stateMutability": "view",
      "type": "function"
    },
    {
      "inputs": [
        {
          "internalType": "uint256",
          "name": "_tokenId",
          "type": "uint256"
        },
        {
          "internalType": "address",
          "name": "_claimer",
          "type": "address"
        }
      ],
      "name": "getSupplyClaimedByWallet",
      "outputs": [
        {
          "internalType": "uint256",
          "name": "",
          "type": "uint256"
        }
      ],
      "stateMutability": "view",
      "type": "function"
    },
    {
      "inputs": [
        {
          "internalType": "address",
          "name": "",
          "type": "address"
        },
        {
          "internalType": "address",
          "name": "",
          "type": "address"
        }
      ],
      "name": "isApprovedForAll",
      "outputs": [
        {
          "internalType": "bool",
          "name": "",
          "type": "bool"
        }
      ],
      "stateMutability": "view",
      "type": "function"
    },
    {
      "inputs": [
        {
          "internalType": "uint256",
          "name": "_batchId",
          "type": "uint256"
        }
      ],
      "name": "isEncryptedBatch",
      "outputs": [
        {
          "internalType": "bool",
          "name": "",
          "type": "bool"
        }
      ],
      "stateMutability": "view",
      "type": "function"
    },
    {
      "inputs": [
        {
          "internalType": "uint256",
          "name": "_amount",
          "type": "uint256"
        },
        {
          "internalType": "string",
          "name": "_baseURIForTokens",
          "type": "string"
        },
        {
          "internalType": "bytes",
          "name": "_data",
          "type": "bytes"
        }
      ],
      "name": "lazyMint",
      "outputs": [
        {
          "internalType": "uint256",
          "name": "batchId",
          "type": "uint256"
        }
      ],
      "stateMutability": "nonpayable",
      "type": "function"
    },
    {
      "inputs": [
        {
          "internalType": "bytes[]",
          "name": "data",
          "type": "bytes[]"
        }
      ],
      "name": "multicall",
      "outputs": [
        {
          "internalType": "bytes[]",
          "name": "results",
          "type": "bytes[]"
        }
      ],
      "stateMutability": "nonpayable",
      "type": "function"
    },
    {
      "inputs": [],
      "name": "name",
      "outputs": [
        {
          "internalType": "string",
          "name": "",
          "type": "string"
        }
      ],
      "stateMutability": "view",
      "type": "function"
    },
    {
      "inputs": [],
      "name": "nextTokenIdToMint",
      "outputs": [
        {
          "internalType": "uint256",
          "name": "",
          "type": "uint256"
        }
      ],
      "stateMutability": "view",
      "type": "function"
    },
    {
      "inputs": [],
      "name": "owner",
      "outputs": [
        {
          "internalType": "address",
          "name": "",
          "type": "address"
        }
      ],
      "stateMutability": "view",
      "type": "function"
    },
    {
      "inputs": [],
      "name": "primarySaleRecipient",
      "outputs": [
        {
          "internalType": "address",
          "name": "",
          "type": "address"
        }
      ],
      "stateMutability": "view",
      "type": "function"
    },
    {
      "inputs": [
        {
          "internalType": "uint256",
          "name": "_index",
          "type": "uint256"
        },
        {
          "internalType": "bytes",
          "name": "_key",
          "type": "bytes"
        }
      ],
      "name": "reveal",
      "outputs": [
        {
          "internalType": "string",
          "name": "revealedURI",
          "type": "string"
        }
      ],
      "stateMutability": "nonpayable",
      "type": "function"
    },
    {
      "inputs": [
        {
          "internalType": "uint256",
          "name": "tokenId",
          "type": "uint256"
        },
        {
          "internalType": "uint256",
          "name": "salePrice",
          "type": "uint256"
        }
      ],
      "name": "royaltyInfo",
      "outputs": [
        {
          "internalType": "address",
          "name": "receiver",
          "type": "address"
        },
        {
          "internalType": "uint256",
          "name": "royaltyAmount",
          "type": "uint256"
        }
      ],
      "stateMutability": "view",
      "type": "function"
    },
    {
      "inputs": [
        {
          "internalType": "address",
          "name": "from",
          "type": "address"
        },
        {
          "internalType": "address",
          "name": "to",
          "type": "address"
        },
        {
          "internalType": "uint256[]",
          "name": "ids",
          "type": "uint256[]"
        },
        {
          "internalType": "uint256[]",
          "name": "amounts",
          "type": "uint256[]"
        },
        {
          "internalType": "bytes",
          "name": "data",
          "type": "bytes"
        }
      ],
      "name": "safeBatchTransferFrom",
      "outputs": [],
      "stateMutability": "nonpayable",
      "type": "function"
    },
    {
      "inputs": [
        {
          "internalType": "address",
          "name": "from",
          "type": "address"
        },
        {
          "internalType": "address",
          "name": "to",
          "type": "address"
        },
        {
          "internalType": "uint256",
          "name": "id",
          "type": "uint256"
        },
        {
          "internalType": "uint256",
          "name": "amount",
          "type": "uint256"
        },
        {
          "internalType": "bytes",
          "name": "data",
          "type": "bytes"
        }
      ],
      "name": "safeTransferFrom",
      "outputs": [],
      "stateMutability": "nonpayable",
      "type": "function"
    },
    {
      "inputs": [
        {
          "internalType": "address",
          "name": "operator",
          "type": "address"
        },
        {
          "internalType": "bool",
          "name": "approved",
          "type": "bool"
        }
      ],
      "name": "setApprovalForAll",
      "outputs": [],
      "stateMutability": "nonpayable",
      "type": "function"
    },
    {
      "inputs": [
        {
          "internalType": "uint256",
          "name": "_tokenId",
          "type": "uint256"
        },
        {
          "components": [
            {
              "internalType": "uint256",
              "name": "startTimestamp",
              "type": "uint256"
            },
            {
              "internalType": "uint256",
              "name": "maxClaimableSupply",
              "type": "uint256"
            },
            {
              "internalType": "uint256",
              "name": "supplyClaimed",
              "type": "uint256"
            },
            {
              "internalType": "uint256",
              "name": "quantityLimitPerWallet",
              "type": "uint256"
            },
            {
              "internalType": "bytes32",
              "name": "merkleRoot",
              "type": "bytes32"
            },
            {
              "internalType": "uint256",
              "name": "pricePerToken",
              "type": "uint256"
            },
            {
              "internalType": "address",
              "name": "currency",
              "type": "address"
            },
            {
              "internalType": "string",
              "name": "metadata",
              "type": "string"
            }
          ],
          "internalType": "struct IClaimCondition.ClaimCondition",
          "name": "_condition",
          "type": "tuple"
        },
        {
          "internalType": "bool",
          "name": "_resetClaimEligibility",
          "type": "bool"
        }
      ],
      "name": "setClaimConditions",
      "outputs": [],
      "stateMutability": "nonpayable",
      "type": "function"
    },
    {
      "inputs": [
        {
          "internalType": "string",
          "name": "_uri",
          "type": "string"
        }
      ],
      "name": "setContractURI",
      "outputs": [],
      "stateMutability": "nonpayable",
      "type": "function"
    },
    {
      "inputs": [
        {
          "internalType": "address",
          "name": "_royaltyRecipient",
          "type": "address"
        },
        {
          "internalType": "uint256",
          "name": "_royaltyBps",
          "type": "uint256"
        }
      ],
      "name": "setDefaultRoyaltyInfo",
      "outputs": [],
      "stateMutability": "nonpayable",
      "type": "function"
    },
    {
      "inputs": [
        {
          "internalType": "address",
          "name": "_newOwner",
          "type": "address"
        }
      ],
      "name": "setOwner",
      "outputs": [],
      "stateMutability": "nonpayable",
      "type": "function"
    },
    {
      "inputs": [
        {
          "internalType": "address",
          "name": "_saleRecipient",
          "type": "address"
        }
      ],
      "name": "setPrimarySaleRecipient",
      "outputs": [],
      "stateMutability": "nonpayable",
      "type": "function"
    },
    {
      "inputs": [
        {
          "internalType": "uint256",
          "name": "_tokenId",
          "type": "uint256"
        },
        {
          "internalType": "address",
          "name": "_recipient",
          "type": "address"
        },
        {
          "internalType": "uint256",
          "name": "_bps",
          "type": "uint256"
        }
      ],
      "name": "setRoyaltyInfoForToken",
      "outputs": [],
      "stateMutability": "nonpayable",
      "type": "function"
    },
    {
      "inputs": [
        {
          "internalType": "bytes4",
          "name": "interfaceId",
          "type": "bytes4"
        }
      ],
      "name": "supportsInterface",
      "outputs": [
        {
          "internalType": "bool",
          "name": "",
          "type": "bool"
        }
      ],
      "stateMutability": "view",
      "type": "function"
    },
    {
      "inputs": [],
      "name": "symbol",
      "outputs": [
        {
          "internalType": "string",
          "name": "",
          "type": "string"
        }
      ],
      "stateMutability": "view",
      "type": "function"
    },
    {
      "inputs": [
        {
          "internalType": "uint256",
          "name": "",
          "type": "uint256"
        }
      ],
      "name": "totalSupply",
      "outputs": [
        {
          "internalType": "uint256",
          "name": "",
          "type": "uint256"
        }
      ],
      "stateMutability": "view",
      "type": "function"
    },
    {
      "inputs": [
        {
          "internalType": "uint256",
          "name": "_tokenId",
          "type": "uint256"
        }
      ],
      "name": "uri",
      "outputs": [
        {
          "internalType": "string",
          "name": "",
          "type": "string"
        }
      ],
      "stateMutability": "view",
      "type": "function"
    },
    {
      "inputs": [
        {
          "internalType": "uint256",
          "name": "_tokenId",
          "type": "uint256"
        },
        {
          "internalType": "address",
          "name": "_claimer",
          "type": "address"
        },
        {
          "internalType": "uint256",
          "name": "_quantity",
          "type": "uint256"
        },
        {
          "internalType": "address",
          "name": "_currency",
          "type": "address"
        },
        {
          "internalType": "uint256",
          "name": "_pricePerToken",
          "type": "uint256"
        },
        {
          "components": [
            {
              "internalType": "bytes32[]",
              "name": "proof",
              "type": "bytes32[]"
            },
            {
              "internalType": "uint256",
              "name": "quantityLimitPerWallet",
              "type": "uint256"
            },
            {
              "internalType": "uint256",
              "name": "pricePerToken",
              "type": "uint256"
            },
            {
              "internalType": "address",
              "name": "currency",
              "type": "address"
            }
          ],
          "internalType": "struct IDropSinglePhase1155.AllowlistProof",
          "name": "_allowlistProof",
          "type": "tuple"
        }
      ],
      "name": "verifyClaim",
      "outputs": [],
      "stateMutability": "view",
      "type": "function"
    }
  ],
  "bytecode": "0x60806040523480156200001157600080fd5b5060405162004b1338038062004b13833981016040819052620000349162000379565b8451859085906200004d906000906020850190620001e9565b50805162000063906001906020840190620001e9565b5050506200007733620000a260201b60201c565b6200008c836001600160801b038416620000f4565b62000097816200019f565b505050505062000466565b600680546001600160a01b038381166001600160a01b0319831681179093556040519116919082907f8292fce18fa69edf4db7b94ea2e58241df0ae57f97e0a6c9b29067028bf92d7690600090a35050565b6127108111156200013d5760405162461bcd60e51b815260206004820152600f60248201526e45786365656473206d61782062707360881b604482015260640160405180910390fd5b600780546001600160a01b0384166001600160b01b03199091168117600160a01b61ffff851602179091556040518281527f90d7ec04bcb8978719414f82e52e4cb651db41d0e6f8cea6118c2191e6183adb9060200160405180910390a25050565b600b80546001600160a01b0319166001600160a01b0383169081179091556040517f299d17e95023f496e0ffc4909cff1a61f74bb5eb18de6f900f4155bfa1b3b33390600090a250565b828054620001f79062000429565b90600052602060002090601f0160209004810192826200021b576000855562000266565b82601f106200023657805160ff191683800117855562000266565b8280016001018555821562000266579182015b828111156200026657825182559160200191906001019062000249565b506200027492915062000278565b5090565b5b8082111562000274576000815560010162000279565b634e487b7160e01b600052604160045260246000fd5b600082601f830112620002b757600080fd5b81516001600160401b0380821115620002d457620002d46200028f565b604051601f8301601f19908116603f01168101908282118183101715620002ff57620002ff6200028f565b816040528381526020925086838588010111156200031c57600080fd5b600091505b8382101562000340578582018301518183018401529082019062000321565b83821115620003525760008385830101525b9695505050505050565b80516001600160a01b03811681146200037457600080fd5b919050565b600080600080600060a086880312156200039257600080fd5b85516001600160401b0380821115620003aa57600080fd5b620003b889838a01620002a5565b96506020880151915080821115620003cf57600080fd5b50620003de88828901620002a5565b945050620003ef604087016200035c565b60608701519093506001600160801b03811681146200040d57600080fd5b91506200041d608087016200035c565b90509295509295909350565b600181811c908216806200043e57607f821691505b602082108114156200046057634e487b7160e01b600052602260045260246000fd5b50919050565b61469d80620004766000396000f3fe6080604052600436106102195760003560e01c80638affb89f11610123578063ad1eefc5116100ab578063e71503221161006f578063e7150322146106df578063e8a3d485146106ff578063e9703d2514610714578063e985e9c514610748578063f242432a1461078357600080fd5b8063ad1eefc5146105fa578063b24f2d3914610647578063bd85b03914610672578063ce8056421461069f578063d37c353b146106bf57600080fd5b80639bcf7a15116100f25780639bcf7a151461054d5780639fc4d68f1461056d578063a05112fc1461058d578063a22cb465146105ad578063ac9650d8146105cd57600080fd5b80638affb89f146104da5780638da5cb5b146104fa578063938e3d7b1461051857806395d89b411461053857600080fd5b80632eb2c2d6116101a65780634e1273f4116101755780634e1273f41461044557806357bc3d7814610472578063600dd5ea1461048557806363b45e2d146104a55780636f4f2837146104ba57600080fd5b80632eb2c2d6146103ae5780633b1475a7146103ce578063492e224b146103e35780634cc157df1461040357600080fd5b80630e89341c116101ed5780630e89341c146102ed57806313af40351461030d57806323a2902b1461032f5780632419f51b1461034f5780632a55205a1461036f57600080fd5b8062fdd58e1461021e57806301ffc9a71461026957806306fdde0314610299578063079fe40e146102bb575b600080fd5b34801561022a57600080fd5b5061025661023936600461364f565b600260209081526000928352604080842090915290825290205481565b6040519081526020015b60405180910390f35b34801561027557600080fd5b5061028961028436600461368f565b6107a3565b6040519015158152602001610260565b3480156102a557600080fd5b506102ae610810565b6040516102609190613704565b3480156102c757600080fd5b50600b546001600160a01b03165b6040516001600160a01b039091168152602001610260565b3480156102f957600080fd5b506102ae610308366004613717565b61089e565b34801561031957600080fd5b5061032d610328366004613730565b61090d565b005b34801561033b57600080fd5b5061032d61034a366004613763565b610963565b34801561035b57600080fd5b5061025661036a366004613717565b610d3f565b34801561037b57600080fd5b5061038f61038a3660046137dd565b610dad565b604080516001600160a01b039093168352602083019190915201610260565b3480156103ba57600080fd5b5061032d6103c9366004613965565b610dea565b3480156103da57600080fd5b50600c54610256565b3480156103ef57600080fd5b506102896103fe366004613717565b610e79565b34801561040f57600080fd5b5061042361041e366004613717565b610e9f565b604080516001600160a01b03909316835261ffff909116602083015201610260565b34801561045157600080fd5b50610465610460366004613a0f565b610f0a565b6040516102609190613b15565b61032d610480366004613b28565b611041565b34801561049157600080fd5b5061032d6104a036600461364f565b6112ae565b3480156104b157600080fd5b50600954610256565b3480156104c657600080fd5b5061032d6104d5366004613730565b611301565b3480156104e657600080fd5b5061032d6104f5366004613bd8565b61134f565b34801561050657600080fd5b506006546001600160a01b03166102d5565b34801561052457600080fd5b5061032d610533366004613c39565b6116d8565b34801561054457600080fd5b506102ae611726565b34801561055957600080fd5b5061032d610568366004613c82565b611733565b34801561057957600080fd5b506102ae610588366004613d00565b611788565b34801561059957600080fd5b506102ae6105a8366004613717565b611915565b3480156105b957600080fd5b5061032d6105c8366004613d4c565b61192e565b3480156105d957600080fd5b506105ed6105e8366004613d83565b6119e7565b6040516102609190613df8565b34801561060657600080fd5b50610256610615366004613e5a565b6000918252600f60209081526040808420548452601082528084206001600160a01b0393909316845291905290205490565b34801561065357600080fd5b506007546001600160a01b03811690600160a01b900461ffff16610423565b34801561067e57600080fd5b5061025661068d366004613717565b60116020526000908152604090205481565b3480156106ab57600080fd5b506102ae6106ba366004613d00565b611adc565b3480156106cb57600080fd5b506102566106da366004613e86565b611ba0565b3480156106eb57600080fd5b506102ae6106fa366004613f00565b611c38565b34801561070b57600080fd5b506102ae611cad565b34801561072057600080fd5b5061073461072f366004613717565b611cba565b604051610260989796959493929190613f5c565b34801561075457600080fd5b50610289610763366004613fb2565b600360209081526000928352604080842090915290825290205460ff1681565b34801561078f57600080fd5b5061032d61079e366004613fdc565b611d93565b60006301ffc9a760e01b6001600160e01b0319831614806107d45750636cdb3d1360e11b6001600160e01b03198316145b806107ef57506303a24d0760e21b6001600160e01b03198316145b8061080a57506001600160e01b0319821663152a902d60e11b145b92915050565b6000805461081d90614041565b80601f016020809104026020016040519081016040528092919081815260200182805461084990614041565b80156108965780601f1061086b57610100808354040283529160200191610896565b820191906000526020600020905b81548152906001019060200180831161087957829003601f168201915b505050505081565b606060006108ab83611e1b565b50905060006108b984611f2e565b90506108c482610e79565b156108f257806040516020016108da9190614076565b60405160208183030381529060405292505050919050565b806108fc8561208f565b6040516020016108da92919061409b565b6109156121ad565b6109575760405162461bcd60e51b815260206004820152600e60248201526d139bdd08185d5d1a1bdc9a5e995960921b60448201526064015b60405180910390fd5b610960816121da565b50565b6000868152600e60209081526040808320815161010081018352815481526001820154938101939093526002810154918301919091526003810154606083015260048101546080830152600581015460a083015260068101546001600160a01b031660c083015260078101805460e0840191906109df90614041565b80601f0160208091040260200160405190810160405280929190818152602001828054610a0b90614041565b8015610a585780601f10610a2d57610100808354040283529160200191610a58565b820191906000526020600020905b815481529060010190602001808311610a3b57829003601f168201915b50505091909252505050606081015160a082015160c0830151608084015193945060009315610b3b57610b37610a8e87806140ca565b80806020026020016040519081016040528093929190818152602001838360200280828437600092019190915250505060808089015191508d9060208b01359060408c013590610ae3908d0160608e01613730565b6040516bffffffffffffffffffffffff19606095861b811660208301526034820194909452605481019290925290921b1660748201526088016040516020818303038152906040528051906020012061222c565b5093505b8315610bc55760001986602001351415610b555782610b5b565b85602001355b925060001986604001351415610b715781610b77565b85604001355b9150600019866040013514158015610ba857506000610b9c6080880160608901613730565b6001600160a01b031614155b610bb25780610bc2565b610bc26080870160608801613730565b90505b60008b8152600f60209081526040808320548352601082528083206001600160a01b03808f16855292529091205490898116908316141580610c075750828814155b15610c545760405162461bcd60e51b815260206004820152601060248201527f2150726963654f7243757272656e637900000000000000000000000000000000604482015260640161094e565b891580610c69575083610c67828c61412a565b115b15610c9f5760405162461bcd60e51b815260040161094e906020808252600490820152632151747960e01b604082015260600190565b85602001518a8760400151610cb4919061412a565b1115610cef5760405162461bcd60e51b815260206004820152600a602482015269214d6178537570706c7960b01b604482015260640161094e565b8551421015610d315760405162461bcd60e51b815260206004820152600e60248201526d18d85b9d0818db185a5b481e595d60921b604482015260640161094e565b505050505050505050505050565b6000610d4a60095490565b8210610d885760405162461bcd60e51b815260206004820152600d60248201526c092dcecc2d8d2c840d2dcc8caf609b1b604482015260640161094e565b60098281548110610d9b57610d9b614142565b90600052602060002001549050919050565b600080600080610dbc86610e9f565b90945084925061ffff169050612710610dd58287614158565b610ddf919061418d565b925050509250929050565b6001600160a01b038516331480610e2457506001600160a01b038516600090815260036020908152604080832033845290915290205460ff165b610e655760405162461bcd60e51b81526020600482015260126024820152710853d5d3915497d3d497d054141493d5915160721b604482015260640161094e565b610e7285858585856122fa565b5050505050565b6000818152600d602052604081208054829190610e9590614041565b9050119050919050565b6000818152600860209081526040808320815180830190925280546001600160a01b031680835260019091015492820192909252829115610ee65780516020820151610f00565b6007546001600160a01b03811690600160a01b900461ffff165b9250925050915091565b60608151835114610f4f5760405162461bcd60e51b815260206004820152600f60248201526e0988a9c8ea890be9a92a69a82a8869608b1b604482015260640161094e565b6000835167ffffffffffffffff811115610f6b57610f6b6137ff565b604051908082528060200260200182016040528015610f94578160200160208202803683370190505b50905060005b84518110156110395760026000868381518110610fb957610fb9614142565b60200260200101516001600160a01b03166001600160a01b031681526020019081526020016000206000858381518110610ff557610ff5614142565b602002602001015181526020019081526020016000205482828151811061101e5761101e614142565b6020908102919091010152611032816141a1565b9050610f9a565b509392505050565b61105086888787878787612519565b6000868152600e60209081526040808320815161010081018352815481526001820154938101939093526002810154918301919091526003810154606083015260048101546080830152600581015460a083015260068101546001600160a01b031660c083015260078101805460e0840191906110cc90614041565b80601f01602080910402602001604051908101604052809291908181526020018280546110f890614041565b80156111455780601f1061111a57610100808354040283529160200191611145565b820191906000526020600020905b81548152906001019060200180831161112857829003601f168201915b505050919092525050506000888152600f602052604090205490915061116f883389898989610963565b8682604001818151611181919061412a565b9052506000818152601060209081526040808320338452909152812080548992906111ad90849061412a565b90915550506000888152600e602090815260409182902084518155848201516001820155918401516002830155606084015160038301556080840151600483015560a0840151600583015560c08401516006830180546001600160a01b0319166001600160a01b0390921691909117905560e0840151805185939261123992600785019291019061359a565b5090505061124a6000888888612573565b611255898989612637565b876001600160a01b038a16336001600160a01b03167fff097c7d8b1957a4ff09ef1361b5fb54dcede3941ba836d0beb9d10bec725de68a60405161129b91815260200190565b60405180910390a4505050505050505050565b6112b66121ad565b6112f35760405162461bcd60e51b815260206004820152600e60248201526d139bdd08185d5d1a1bdc9a5e995960921b604482015260640161094e565b6112fd8282612652565b5050565b6113096121ad565b6113465760405162461bcd60e51b815260206004820152600e60248201526d139bdd08185d5d1a1bdc9a5e995960921b604482015260640161094e565b61096081612707565b6113576121ad565b6113945760405162461bcd60e51b815260206004820152600e60248201526d139bdd08185d5d1a1bdc9a5e995960921b604482015260640161094e565b6000838152600e60209081526040808320815161010081018352815481526001820154938101939093526002810154918301919091526003810154606083015260048101546080830152600581015460a083015260068101546001600160a01b031660c083015260078101805460e08401919061141090614041565b80601f016020809104026020016040519081016040528092919081815260200182805461143c90614041565b80156114895780601f1061145e57610100808354040283529160200191611489565b820191906000526020600020905b81548152906001019060200180831161146c57829003601f168201915b505050919092525050506000858152600f60205260409081902054908201519192509083156114f5575060003360405160609190911b6bffffffffffffffffffffffff191660208201524360348201526054016040516020818303038152906040528051906020012091505b84602001358111156115495760405162461bcd60e51b815260206004820152601260248201527f6d617820737570706c7920636c61696d65640000000000000000000000000000604482015260640161094e565b6000604051806101000160405280876000013581526020018760200135815260200183815260200187606001358152602001876080013581526020018760a0013581526020018760c00160208101906115a29190613730565b6001600160a01b031681526020016115bd60e08901896141bc565b8080601f0160208091040260200160405190810160405280939291908181526020018383808284376000920182905250939094525050898152600e602090815260409182902084518155848201516001820155918401516002830155606084015160038301556080840151600483015560a0840151600583015560c08401516006830180546001600160a01b0319166001600160a01b0390921691909117905560e08401518051949550859492935061167f926007850192919091019061359a565b5050506000878152600f6020526040908190208490555187907f81039d5ecdbb4bd2d72eda132d34c127e1136763fef04b3ab1a1ed1e109eb69a906116c7908990899061422c565b60405180910390a250505050505050565b6116e06121ad565b61171d5760405162461bcd60e51b815260206004820152600e60248201526d139bdd08185d5d1a1bdc9a5e995960921b604482015260640161094e565b61096081612751565b6001805461081d90614041565b61173b6121ad565b6117785760405162461bcd60e51b815260206004820152600e60248201526d139bdd08185d5d1a1bdc9a5e995960921b604482015260640161094e565b611783838383612833565b505050565b6000838152600d60205260408120805460609291906117a690614041565b80601f01602080910402602001604051908101604052809291908181526020018280546117d290614041565b801561181f5780601f106117f45761010080835404028352916020019161181f565b820191906000526020600020905b81548152906001019060200180831161180257829003601f168201915b505050505090508051600014156118785760405162461bcd60e51b815260206004820152601160248201527f4e6f7468696e6720746f2072657665616c000000000000000000000000000000604482015260640161094e565b6000808280602001905181019061188f91906142f7565b9150915061189e828787611c38565b935080848787466040516020016118b89493929190614383565b604051602081830303815290604052805190602001201461190b5760405162461bcd60e51b815260206004820152600d60248201526c496e636f7272656374206b657960981b604482015260640161094e565b5050509392505050565b600d602052600090815260409020805461081d90614041565b336001600160a01b0383168114156119795760405162461bcd60e51b815260206004820152600e60248201526d20a8282927ab24a723afa9a2a62360911b604482015260640161094e565b6001600160a01b03818116600081815260036020908152604080832094881680845294825291829020805460ff191687151590811790915591519182527f17307eab39ab6107e8899845ad3d59bd9653f200f220920489ca2b5937696c3191015b60405180910390a3505050565b60608167ffffffffffffffff811115611a0257611a026137ff565b604051908082528060200260200182016040528015611a3557816020015b6060815260200190600190039081611a205790505b50905060005b82811015611ad557611aa530858584818110611a5957611a59614142565b9050602002810190611a6b91906141bc565b8080601f0160208091040260200160405190810160405280939291908181526020018383808284376000920191909152506128f492505050565b828281518110611ab757611ab7614142565b60200260200101819052508080611acd906141a1565b915050611a3b565b5092915050565b6060611ae66121ad565b611b235760405162461bcd60e51b815260206004820152600e60248201526d139bdd08185d5d1a1bdc9a5e995960921b604482015260640161094e565b6000611b2e85610d3f565b9050611b3b818585611788565b9150611b568160405180602001604052806000815250612920565b611b60818361293f565b847f6df1d8db2a036436ffe0b2d1833f2c5f1e624818dfce2578c0faa4b83ef9998d83604051611b909190613704565b60405180910390a2509392505050565b60008115611c2157600080611bb7848601866143ac565b915091508151600014158015611bcc57508015155b15611c1e57611c1e88600c54611be2919061412a565b86868080601f01602080910402602001604051908101604052809392919081815260200183838082843760009201919091525061292092505050565b50505b611c2e868686868661295e565b9695505050505050565b8251604080518083016020019091528181529060005b81811015611ca4576000858583604051602001611c6d939291906143f1565b60408051601f19818403018152919052805160209182012088840182015118858401820152611c9d91508261412a565b9050611c4e565b50509392505050565b6005805461081d90614041565b600e60205260009081526040902080546001820154600283015460038401546004850154600586015460068701546007880180549798969795969495939492936001600160a01b039092169291611d1090614041565b80601f0160208091040260200160405190810160405280929190818152602001828054611d3c90614041565b8015611d895780601f10611d5e57610100808354040283529160200191611d89565b820191906000526020600020905b815481529060010190602001808311611d6c57829003601f168201915b5050505050905088565b6001600160a01b038516331480611dcd57506001600160a01b038516600090815260036020908152604080832033845290915290205460ff165b611e0e5760405162461bcd60e51b81526020600482015260126024820152710853d5d3915497d3d497d054141493d5915160721b604482015260640161094e565b610e728585858585612a89565b6000806000611e2960095490565b905060006009805480602002602001604051908101604052809291908181526020018280548015611e7957602002820191906000526020600020905b815481526020019060010190808311611e65575b5050505050905060005b82811015611ee557818181518110611e9d57611e9d614142565b6020026020010151861015611ed357809350818181518110611ec157611ec1614142565b60200260200101519450505050915091565b611ede60018261412a565b9050611e83565b5060405162461bcd60e51b815260206004820152600f60248201527f496e76616c696420746f6b656e49640000000000000000000000000000000000604482015260640161094e565b60606000611f3b60095490565b905060006009805480602002602001604051908101604052809291908181526020018280548015611f8b57602002820191906000526020600020905b815481526020019060010190808311611f77575b5050505050905060005b82811015611ee557818181518110611faf57611faf614142565b602002602001015185101561207d57600a6000838381518110611fd457611fd4614142565b602002602001015181526020019081526020016000208054611ff590614041565b80601f016020809104026020016040519081016040528092919081815260200182805461202190614041565b801561206e5780601f106120435761010080835404028352916020019161206e565b820191906000526020600020905b81548152906001019060200180831161205157829003601f168201915b50505050509350505050919050565b61208860018261412a565b9050611f95565b6060816120b35750506040805180820190915260018152600360fc1b602082015290565b8160005b81156120dd57806120c7816141a1565b91506120d69050600a8361418d565b91506120b7565b60008167ffffffffffffffff8111156120f8576120f86137ff565b6040519080825280601f01601f191660200182016040528015612122576020820181803683370190505b5090505b84156121a557612137600183614403565b9150612144600a8661441a565b61214f90603061412a565b60f81b81838151811061216457612164614142565b60200101907effffffffffffffffffffffffffffffffffffffffffffffffffffffffffffff1916908160001a90535061219e600a8661418d565b9450612126565b949350505050565b60006121c16006546001600160a01b031690565b6001600160a01b0316336001600160a01b031614905090565b600680546001600160a01b038381166001600160a01b0319831681179093556040519116919082907f8292fce18fa69edf4db7b94ea2e58241df0ae57f97e0a6c9b29067028bf92d7690600090a35050565b6000808281805b87518110156122ee57612247600283614158565b9150600088828151811061225d5761225d614142565b6020026020010151905080841161229f5760408051602081018690529081018290526060016040516020818303038152906040528051906020012093506122db565b60408051602081018390529081018590526060016040516020818303038152906040528051906020012093506001836122d8919061412a565b92505b50806122e6816141a1565b915050612233565b50941495939450505050565b815183511461233d5760405162461bcd60e51b815260206004820152600f60248201526e0988a9c8ea890be9a92a69a82a8869608b1b604482015260640161094e565b6001600160a01b0384166123825760405162461bcd60e51b815260206004820152600c60248201526b2a27afad22a927afa0a2222960a11b604482015260640161094e565b33612391818787878787612c00565b60005b84518110156124ab5760008582815181106123b1576123b1614142565b6020026020010151905060008583815181106123cf576123cf614142565b6020908102919091018101516001600160a01b038b1660009081526002835260408082208683529093529190912054909150818110156124445760405162461bcd60e51b815260206004820152601060248201526f125394d551919250d251539517d0905360821b604482015260640161094e565b6001600160a01b03808b16600090815260026020818152604080842088855282528084208787039055938d1683529081528282208683529052908120805484929061249090849061412a565b92505081905550505050806124a4906141a1565b9050612394565b50846001600160a01b0316866001600160a01b0316826001600160a01b03167f4a39dc06d4c0dbc64b70af90fd698a233a518aa5d07e595d983b8c0526c8f7fb87876040516124fb92919061442e565b60405180910390a4612511818787878787612d0c565b505050505050565b600c54871061256a5760405162461bcd60e51b815260206004820152601860248201527f4e6f7420656e6f756768206d696e74656420746f6b656e730000000000000000604482015260640161094e565b50505050505050565b8061257d57612631565b60006125898285614158565b90506001600160a01b03831673eeeeeeeeeeeeeeeeeeeeeeeeeeeeeeeeeeeeeeee14156125ff578034146125ff5760405162461bcd60e51b815260206004820152601660248201527f4d7573742073656e6420746f74616c2070726963652e00000000000000000000604482015260640161094e565b60006001600160a01b038616156126165785612623565b600b546001600160a01b03165b905061251184338385612e6d565b50505050565b61178383838360405180602001604052806000815250612eb7565b6127108111156126965760405162461bcd60e51b815260206004820152600f60248201526e45786365656473206d61782062707360881b604482015260640161094e565b600780546001600160a01b03841675ffffffffffffffffffffffffffffffffffffffffffff199091168117600160a01b61ffff851602179091556040518281527f90d7ec04bcb8978719414f82e52e4cb651db41d0e6f8cea6118c2191e6183adb9060200160405180910390a25050565b600b80546001600160a01b0319166001600160a01b0383169081179091556040517f299d17e95023f496e0ffc4909cff1a61f74bb5eb18de6f900f4155bfa1b3b33390600090a250565b60006005805461276090614041565b80601f016020809104026020016040519081016040528092919081815260200182805461278c90614041565b80156127d95780601f106127ae576101008083540402835291602001916127d9565b820191906000526020600020905b8154815290600101906020018083116127bc57829003601f168201915b505085519394506127f59360059350602087019250905061359a565b507fc9c7c3fe08b88b4df9d4d47ef47d2c43d55c025a0ba88ca442580ed9e7348a16818360405161282792919061445c565b60405180910390a15050565b6127108111156128775760405162461bcd60e51b815260206004820152600f60248201526e45786365656473206d61782062707360881b604482015260640161094e565b6040805180820182526001600160a01b038481168083526020808401868152600089815260088352869020945185546001600160a01b031916941693909317845591516001909301929092559151838152909185917f7365cf4122f072a3365c20d54eff9b38d73c096c28e1892ec8f5b0e403a0f12d91016119da565b6060612919838360405180606001604052806027815260200161464160279139612fa0565b9392505050565b6000828152600d6020908152604090912082516117839284019061359a565b6000828152600a6020908152604090912082516117839284019061359a565b60006129686121ad565b6129a55760405162461bcd60e51b815260206004820152600e60248201526d139bdd08185d5d1a1bdc9a5e995960921b604482015260640161094e565b856129da5760405162461bcd60e51b81526020600482015260056024820152640c08185b5d60da1b604482015260640161094e565b6000600c549050612a22818888888080601f01602080910402602001604051908101604052809392919081815260200183838082843760009201919091525061307392505050565b600c919091559150807f2a0365091ef1a40953c670dce28177e37520648a6fdc91506bffac0ab045570d6001612a588a8461412a565b612a629190614403565b88888888604051612a77959493929190614481565b60405180910390a25095945050505050565b6001600160a01b038416612ace5760405162461bcd60e51b815260206004820152600c60248201526b2a27afad22a927afa0a2222960a11b604482015260640161094e565b33612aed818787612ade886130e0565b612ae7886130e0565b87612c00565b6001600160a01b038616600090815260026020908152604080832087845290915290205483811015612b545760405162461bcd60e51b815260206004820152601060248201526f125394d551919250d251539517d0905360821b604482015260640161094e565b6001600160a01b0380881660009081526002602081815260408084208a855282528084208987039055938a16835290815282822088835290529081208054869290612ba090849061412a565b909155505060408051868152602081018690526001600160a01b03808916928a821692918616917fc3d58168c5ae7397731d063d5bbf3d657854427343f4c083240f7aacaa2d0f62910160405180910390a461256a82888888888861312b565b6001600160a01b038516612c875760005b8351811015612c8557828181518110612c2c57612c2c614142565b602002602001015160116000868481518110612c4a57612c4a614142565b602002602001015181526020019081526020016000206000828254612c6f919061412a565b90915550612c7e9050816141a1565b9050612c11565b505b6001600160a01b0384166125115760005b835181101561256a57828181518110612cb357612cb3614142565b602002602001015160116000868481518110612cd157612cd1614142565b602002602001015181526020019081526020016000206000828254612cf69190614403565b90915550612d059050816141a1565b9050612c98565b6001600160a01b0384163b156125115760405163bc197c8160e01b81526001600160a01b0385169063bc197c8190612d5090899089908890889088906004016144ba565b6020604051808303816000875af1925050508015612d8b575060408051601f3d908101601f19168201909252612d889181019061450c565b60015b612e1b57612d97614529565b806308c379a01415612dd15750612dac614545565b80612db75750612dd3565b8060405162461bcd60e51b815260040161094e9190613704565b505b60405162461bcd60e51b815260206004820152601060248201527f2145524331313535524543454956455200000000000000000000000000000000604482015260640161094e565b6001600160e01b0319811663bc197c8160e01b1461256a5760405162461bcd60e51b815260206004820152600f60248201526e1513d2d15394d7d491529150d51151608a1b604482015260640161094e565b80612e7757612631565b6001600160a01b03841673eeeeeeeeeeeeeeeeeeeeeeeeeeeeeeeeeeeeeeee1415612eab57612ea68282613208565b612631565b612631848484846132ab565b6001600160a01b038416612efc5760405162461bcd60e51b815260206004820152600c60248201526b2a27afad22a927afa0a2222960a11b604482015260640161094e565b33612f0d81600087612ade886130e0565b6001600160a01b038516600090815260026020908152604080832087845290915281208054859290612f4090849061412a565b909155505060408051858152602081018590526001600160a01b0380881692600092918516917fc3d58168c5ae7397731d063d5bbf3d657854427343f4c083240f7aacaa2d0f62910160405180910390a4610e728160008787878761312b565b60606001600160a01b0384163b6130085760405162461bcd60e51b815260206004820152602660248201527f416464726573733a2064656c65676174652063616c6c20746f206e6f6e2d636f6044820152651b9d1c9858dd60d21b606482015260840161094e565b600080856001600160a01b03168560405161302391906145cf565b600060405180830381855af49150503d806000811461305e576040519150601f19603f3d011682016040523d82523d6000602084013e613063565b606091505b5091509150611c2e828286613304565b600080613080848661412a565b60098054600181019091557f6e1540171b6c0c960b71a7020d9f60077f6af931a8bbf590da0223dacf75c7af018190556000818152600a6020908152604090912085519294508493506130d792909186019061359a565b50935093915050565b6040805160018082528183019092526060916000919060208083019080368337019050509050828160008151811061311a5761311a614142565b602090810291909101015292915050565b6001600160a01b0384163b156125115760405163f23a6e6160e01b81526001600160a01b0385169063f23a6e619061316f90899089908890889088906004016145eb565b6020604051808303816000875af19250505080156131aa575060408051601f3d908101601f191682019092526131a79181019061450c565b60015b6131b657612d97614529565b6001600160e01b0319811663f23a6e6160e01b1461256a5760405162461bcd60e51b815260206004820152600f60248201526e1513d2d15394d7d491529150d51151608a1b604482015260640161094e565b6000826001600160a01b03168260405160006040518083038185875af1925050503d8060008114613255576040519150601f19603f3d011682016040523d82523d6000602084013e61325a565b606091505b50509050806117835760405162461bcd60e51b815260206004820152601c60248201527f6e617469766520746f6b656e207472616e73666572206661696c656400000000604482015260640161094e565b816001600160a01b0316836001600160a01b031614156132ca57612631565b6001600160a01b0383163014156132ef57612ea66001600160a01b038516838361333d565b6126316001600160a01b0385168484846133b5565b60608315613313575081612919565b8251156133235782518084602001fd5b8160405162461bcd60e51b815260040161094e9190613704565b6040516001600160a01b03831660248201526044810182905261178390849063a9059cbb60e01b906064015b60408051601f198184030181529190526020810180517bffffffffffffffffffffffffffffffffffffffffffffffffffffffff166001600160e01b0319909316929092179091526133ed565b6040516001600160a01b03808516602483015283166044820152606481018290526126319085906323b872dd60e01b90608401613369565b6000613442826040518060400160405280602081526020017f5361666545524332303a206c6f772d6c6576656c2063616c6c206661696c6564815250856001600160a01b03166134bf9092919063ffffffff16565b80519091501561178357808060200190518101906134609190614623565b6117835760405162461bcd60e51b815260206004820152602a60248201527f5361666545524332303a204552433230206f7065726174696f6e20646964206e6044820152691bdd081cdd58d8d9595960b21b606482015260840161094e565b60606121a58484600085856001600160a01b0385163b6135215760405162461bcd60e51b815260206004820152601d60248201527f416464726573733a2063616c6c20746f206e6f6e2d636f6e7472616374000000604482015260640161094e565b600080866001600160a01b0316858760405161353d91906145cf565b60006040518083038185875af1925050503d806000811461357a576040519150601f19603f3d011682016040523d82523d6000602084013e61357f565b606091505b509150915061358f828286613304565b979650505050505050565b8280546135a690614041565b90600052602060002090601f0160209004810192826135c8576000855561360e565b82601f106135e157805160ff191683800117855561360e565b8280016001018555821561360e579182015b8281111561360e5782518255916020019190600101906135f3565b5061361a92915061361e565b5090565b5b8082111561361a576000815560010161361f565b80356001600160a01b038116811461364a57600080fd5b919050565b6000806040838503121561366257600080fd5b61366b83613633565b946020939093013593505050565b6001600160e01b03198116811461096057600080fd5b6000602082840312156136a157600080fd5b813561291981613679565b60005b838110156136c75781810151838201526020016136af565b838111156126315750506000910152565b600081518084526136f08160208601602086016136ac565b601f01601f19169290920160200192915050565b60208152600061291960208301846136d8565b60006020828403121561372957600080fd5b5035919050565b60006020828403121561374257600080fd5b61291982613633565b60006080828403121561375d57600080fd5b50919050565b60008060008060008060c0878903121561377c57600080fd5b8635955061378c60208801613633565b9450604087013593506137a160608801613633565b92506080870135915060a087013567ffffffffffffffff8111156137c457600080fd5b6137d089828a0161374b565b9150509295509295509295565b600080604083850312156137f057600080fd5b50508035926020909101359150565b634e487b7160e01b600052604160045260246000fd5b601f8201601f1916810167ffffffffffffffff8111828210171561383b5761383b6137ff565b6040525050565b600067ffffffffffffffff82111561385c5761385c6137ff565b5060051b60200190565b600082601f83011261387757600080fd5b8135602061388482613842565b6040516138918282613815565b83815260059390931b85018201928281019150868411156138b157600080fd5b8286015b848110156138cc57803583529183019183016138b5565b509695505050505050565b600067ffffffffffffffff8211156138f1576138f16137ff565b50601f01601f191660200190565b600061390a836138d7565b6040516139178282613815565b80925084815285858501111561392c57600080fd5b8484602083013760006020868301015250509392505050565b600082601f83011261395657600080fd5b612919838335602085016138ff565b600080600080600060a0868803121561397d57600080fd5b61398686613633565b945061399460208701613633565b9350604086013567ffffffffffffffff808211156139b157600080fd5b6139bd89838a01613866565b945060608801359150808211156139d357600080fd5b6139df89838a01613866565b935060808801359150808211156139f557600080fd5b50613a0288828901613945565b9150509295509295909350565b60008060408385031215613a2257600080fd5b823567ffffffffffffffff80821115613a3a57600080fd5b818501915085601f830112613a4e57600080fd5b81356020613a5b82613842565b604051613a688282613815565b83815260059390931b8501820192828101915089841115613a8857600080fd5b948201945b83861015613aad57613a9e86613633565b82529482019490820190613a8d565b96505086013592505080821115613ac357600080fd5b50613ad085828601613866565b9150509250929050565b600081518084526020808501945080840160005b83811015613b0a57815187529582019590820190600101613aee565b509495945050505050565b6020815260006129196020830184613ada565b600080600080600080600060e0888a031215613b4357600080fd5b613b4c88613633565b96506020880135955060408801359450613b6860608901613633565b93506080880135925060a088013567ffffffffffffffff80821115613b8c57600080fd5b613b988b838c0161374b565b935060c08a0135915080821115613bae57600080fd5b50613bbb8a828b01613945565b91505092959891949750929550565b801515811461096057600080fd5b600080600060608486031215613bed57600080fd5b83359250602084013567ffffffffffffffff811115613c0b57600080fd5b84016101008187031215613c1e57600080fd5b91506040840135613c2e81613bca565b809150509250925092565b600060208284031215613c4b57600080fd5b813567ffffffffffffffff811115613c6257600080fd5b8201601f81018413613c7357600080fd5b6121a5848235602084016138ff565b600080600060608486031215613c9757600080fd5b83359250613ca760208501613633565b9150604084013590509250925092565b60008083601f840112613cc957600080fd5b50813567ffffffffffffffff811115613ce157600080fd5b602083019150836020828501011115613cf957600080fd5b9250929050565b600080600060408486031215613d1557600080fd5b83359250602084013567ffffffffffffffff811115613d3357600080fd5b613d3f86828701613cb7565b9497909650939450505050565b60008060408385031215613d5f57600080fd5b613d6883613633565b91506020830135613d7881613bca565b809150509250929050565b60008060208385031215613d9657600080fd5b823567ffffffffffffffff80821115613dae57600080fd5b818501915085601f830112613dc257600080fd5b813581811115613dd157600080fd5b8660208260051b8501011115613de657600080fd5b60209290920196919550909350505050565b6000602080830181845280855180835260408601915060408160051b870101925083870160005b82811015613e4d57603f19888603018452613e3b8583516136d8565b94509285019290850190600101613e1f565b5092979650505050505050565b60008060408385031215613e6d57600080fd5b82359150613e7d60208401613633565b90509250929050565b600080600080600060608688031215613e9e57600080fd5b85359450602086013567ffffffffffffffff80821115613ebd57600080fd5b613ec989838a01613cb7565b90965094506040880135915080821115613ee257600080fd5b50613eef88828901613cb7565b969995985093965092949392505050565b600080600060408486031215613f1557600080fd5b833567ffffffffffffffff80821115613f2d57600080fd5b613f3987838801613945565b94506020860135915080821115613f4f57600080fd5b50613d3f86828701613cb7565b60006101008a83528960208401528860408401528760608401528660808401528560a08401526001600160a01b03851660c08401528060e0840152613fa3818401856136d8565b9b9a5050505050505050505050565b60008060408385031215613fc557600080fd5b613fce83613633565b9150613e7d60208401613633565b600080600080600060a08688031215613ff457600080fd5b613ffd86613633565b945061400b60208701613633565b93506040860135925060608601359150608086013567ffffffffffffffff81111561403557600080fd5b613a0288828901613945565b600181811c9082168061405557607f821691505b6020821081141561375d57634e487b7160e01b600052602260045260246000fd5b600082516140888184602087016136ac565b600360fc1b920191825250600101919050565b600083516140ad8184602088016136ac565b8351908301906140c18183602088016136ac565b01949350505050565b6000808335601e198436030181126140e157600080fd5b83018035915067ffffffffffffffff8211156140fc57600080fd5b6020019150600581901b3603821315613cf957600080fd5b634e487b7160e01b600052601160045260246000fd5b6000821982111561413d5761413d614114565b500190565b634e487b7160e01b600052603260045260246000fd5b600081600019048311821515161561417257614172614114565b500290565b634e487b7160e01b600052601260045260246000fd5b60008261419c5761419c614177565b500490565b60006000198214156141b5576141b5614114565b5060010190565b6000808335601e198436030181126141d357600080fd5b83018035915067ffffffffffffffff8211156141ee57600080fd5b602001915036819003821315613cf957600080fd5b81835281816020850137506000828201602090810191909152601f909101601f19169091010190565b60408152823560408201526020830135606082015260408301356080820152606083013560a0820152608083013560c082015260a083013560e0820152600061427760c08501613633565b6101006001600160a01b0382168185015260e08601359150601e198636030182126142a157600080fd5b90850190813567ffffffffffffffff8111156142bc57600080fd5b8036038713156142cb57600080fd5b816101208601526142e461014086018260208601614203565b9350505050612919602083018415159052565b6000806040838503121561430a57600080fd5b825167ffffffffffffffff81111561432157600080fd5b8301601f8101851361433257600080fd5b805161433d816138d7565b60405161434a8282613815565b82815287602084860101111561435f57600080fd5b6143708360208301602087016136ac565b6020969096015195979596505050505050565b60008551614395818460208a016136ac565b820184868237909301918252506020019392505050565b600080604083850312156143bf57600080fd5b823567ffffffffffffffff8111156143d657600080fd5b6143e285828601613945565b95602094909401359450505050565b82848237909101908152602001919050565b60008282101561441557614415614114565b500390565b60008261442957614429614177565b500690565b6040815260006144416040830185613ada565b82810360208401526144538185613ada565b95945050505050565b60408152600061446f60408301856136d8565b828103602084015261445381856136d8565b85815260606020820152600061449b606083018688614203565b82810360408401526144ae818587614203565b98975050505050505050565b60006001600160a01b03808816835280871660208401525060a060408301526144e660a0830186613ada565b82810360608401526144f88186613ada565b905082810360808401526144ae81856136d8565b60006020828403121561451e57600080fd5b815161291981613679565b600060033d11156145425760046000803e5060005160e01c5b90565b600060443d10156145535790565b6040516003193d81016004833e81513d67ffffffffffffffff816024840111818411171561458357505050505090565b828501915081518181111561459b5750505050505090565b843d87010160208285010111156145b55750505050505090565b6145c460208286010187613815565b509095945050505050565b600082516145e18184602087016136ac565b9190910192915050565b60006001600160a01b03808816835280871660208401525084604083015283606083015260a0608083015261358f60a08301846136d8565b60006020828403121561463557600080fd5b815161291981613bca56fe416464726573733a206c6f772d6c6576656c2064656c65676174652063616c6c206661696c6564a2646970667358221220287f7d8380f326e9783869b16e7576928b489b5226afda807b16f67c47036eb364736f6c634300080c0033",
  "linkReferences": {},
  "deployedLinkReferences": {}
}