{
  "_format": "hh-sol-artifact-1",
  "contractName": "ERC1155Base",
  "sourceName": "contracts/base/ERC1155Base.sol",
  "abi": [
    {
      "inputs": [
        {
          "internalType": "string",
          "name": "_name",
          "type": "string"
        },
        {
          "internalType": "string",
          "name": "_symbol",
          "type": "string"
        },
        {
          "internalType": "address",
          "name": "_royaltyRecipient",
          "type": "address"
        },
        {
          "internalType": "uint128",
          "name": "_royaltyBps",
          "type": "uint128"
        }
      ],
      "stateMutability": "nonpayable",
      "type": "constructor"
    },
    {
      "anonymous": false,
      "inputs": [
        {
          "indexed": true,
          "internalType": "address",
          "name": "_owner",
          "type": "address"
        },
        {
          "indexed": true,
          "internalType": "address",
          "name": "_operator",
          "type": "address"
        },
        {
          "indexed": false,
          "internalType": "bool",
          "name": "_approved",
          "type": "bool"
        }
      ],
      "name": "ApprovalForAll",
      "type": "event"
    },
    {
      "anonymous": false,
      "inputs": [
        {
          "indexed": false,
          "internalType": "string",
          "name": "prevURI",
          "type": "string"
        },
        {
          "indexed": false,
          "internalType": "string",
          "name": "newURI",
          "type": "string"
        }
      ],
      "name": "ContractURIUpdated",
      "type": "event"
    },
    {
      "anonymous": false,
      "inputs": [
        {
          "indexed": true,
          "internalType": "address",
          "name": "newRoyaltyRecipient",
          "type": "address"
        },
        {
          "indexed": false,
          "internalType": "uint256",
          "name": "newRoyaltyBps",
          "type": "uint256"
        }
      ],
      "name": "DefaultRoyalty",
      "type": "event"
    },
    {
      "anonymous": false,
      "inputs": [
        {
          "indexed": true,
          "internalType": "address",
          "name": "prevOwner",
          "type": "address"
        },
        {
          "indexed": true,
          "internalType": "address",
          "name": "newOwner",
          "type": "address"
        }
      ],
      "name": "OwnerUpdated",
      "type": "event"
    },
    {
      "anonymous": false,
      "inputs": [
        {
          "indexed": true,
          "internalType": "uint256",
          "name": "tokenId",
          "type": "uint256"
        },
        {
          "indexed": true,
          "internalType": "address",
          "name": "royaltyRecipient",
          "type": "address"
        },
        {
          "indexed": false,
          "internalType": "uint256",
          "name": "royaltyBps",
          "type": "uint256"
        }
      ],
      "name": "RoyaltyForToken",
      "type": "event"
    },
    {
      "anonymous": false,
      "inputs": [
        {
          "indexed": true,
          "internalType": "address",
          "name": "_operator",
          "type": "address"
        },
        {
          "indexed": true,
          "internalType": "address",
          "name": "_from",
          "type": "address"
        },
        {
          "indexed": true,
          "internalType": "address",
          "name": "_to",
          "type": "address"
        },
        {
          "indexed": false,
          "internalType": "uint256[]",
          "name": "_ids",
          "type": "uint256[]"
        },
        {
          "indexed": false,
          "internalType": "uint256[]",
          "name": "_values",
          "type": "uint256[]"
        }
      ],
      "name": "TransferBatch",
      "type": "event"
    },
    {
      "anonymous": false,
      "inputs": [
        {
          "indexed": true,
          "internalType": "address",
          "name": "_operator",
          "type": "address"
        },
        {
          "indexed": true,
          "internalType": "address",
          "name": "_from",
          "type": "address"
        },
        {
          "indexed": true,
          "internalType": "address",
          "name": "_to",
          "type": "address"
        },
        {
          "indexed": false,
          "internalType": "uint256",
          "name": "_id",
          "type": "uint256"
        },
        {
          "indexed": false,
          "internalType": "uint256",
          "name": "_value",
          "type": "uint256"
        }
      ],
      "name": "TransferSingle",
      "type": "event"
    },
    {
      "anonymous": false,
      "inputs": [
        {
          "indexed": false,
          "internalType": "string",
          "name": "_value",
          "type": "string"
        },
        {
          "indexed": true,
          "internalType": "uint256",
          "name": "_id",
          "type": "uint256"
        }
      ],
      "name": "URI",
      "type": "event"
    },
    {
      "inputs": [
        {
          "internalType": "address",
          "name": "",
          "type": "address"
        },
        {
          "internalType": "uint256",
          "name": "",
          "type": "uint256"
        }
      ],
      "name": "balanceOf",
      "outputs": [
        {
          "internalType": "uint256",
          "name": "",
          "type": "uint256"
        }
      ],
      "stateMutability": "view",
      "type": "function"
    },
    {
      "inputs": [
        {
          "internalType": "address[]",
          "name": "accounts",
          "type": "address[]"
        },
        {
          "internalType": "uint256[]",
          "name": "ids",
          "type": "uint256[]"
        }
      ],
      "name": "balanceOfBatch",
      "outputs": [
        {
          "internalType": "uint256[]",
          "name": "",
          "type": "uint256[]"
        }
      ],
      "stateMutability": "view",
      "type": "function"
    },
    {
      "inputs": [
        {
          "internalType": "address",
          "name": "_to",
          "type": "address"
        },
        {
          "internalType": "uint256[]",
          "name": "_tokenIds",
          "type": "uint256[]"
        },
        {
          "internalType": "uint256[]",
          "name": "_amounts",
          "type": "uint256[]"
        },
        {
          "internalType": "string",
          "name": "_baseURI",
          "type": "string"
        }
      ],
      "name": "batchMintTo",
      "outputs": [],
      "stateMutability": "nonpayable",
      "type": "function"
    },
    {
      "inputs": [
        {
          "internalType": "address",
          "name": "_owner",
          "type": "address"
        },
        {
          "internalType": "uint256",
          "name": "_tokenId",
          "type": "uint256"
        },
        {
          "internalType": "uint256",
          "name": "_amount",
          "type": "uint256"
        }
      ],
      "name": "burn",
      "outputs": [],
      "stateMutability": "nonpayable",
      "type": "function"
    },
    {
      "inputs": [
        {
          "internalType": "address",
          "name": "_owner",
          "type": "address"
        },
        {
          "internalType": "uint256[]",
          "name": "_tokenIds",
          "type": "uint256[]"
        },
        {
          "internalType": "uint256[]",
          "name": "_amounts",
          "type": "uint256[]"
        }
      ],
      "name": "burnBatch",
      "outputs": [],
      "stateMutability": "nonpayable",
      "type": "function"
    },
    {
      "inputs": [],
      "name": "contractURI",
      "outputs": [
        {
          "internalType": "string",
          "name": "",
          "type": "string"
        }
      ],
      "stateMutability": "view",
      "type": "function"
    },
    {
      "inputs": [],
      "name": "getBaseURICount",
      "outputs": [
        {
          "internalType": "uint256",
          "name": "",
          "type": "uint256"
        }
      ],
      "stateMutability": "view",
      "type": "function"
    },
    {
      "inputs": [
        {
          "internalType": "uint256",
          "name": "_index",
          "type": "uint256"
        }
      ],
      "name": "getBatchIdAtIndex",
      "outputs": [
        {
          "internalType": "uint256",
          "name": "",
          "type": "uint256"
        }
      ],
      "stateMutability": "view",
      "type": "function"
    },
    {
      "inputs": [],
      "name": "getDefaultRoyaltyInfo",
      "outputs": [
        {
          "internalType": "address",
          "name": "",
          "type": "address"
        },
        {
          "internalType": "uint16",
          "name": "",
          "type": "uint16"
        }
      ],
      "stateMutability": "view",
      "type": "function"
    },
    {
      "inputs": [
        {
          "internalType": "uint256",
          "name": "_tokenId",
          "type": "uint256"
        }
      ],
      "name": "getRoyaltyInfoForToken",
      "outputs": [
        {
          "internalType": "address",
          "name": "",
          "type": "address"
        },
        {
          "internalType": "uint16",
          "name": "",
          "type": "uint16"
        }
      ],
      "stateMutability": "view",
      "type": "function"
    },
    {
      "inputs": [
        {
          "internalType": "address",
          "name": "",
          "type": "address"
        },
        {
          "internalType": "address",
          "name": "",
          "type": "address"
        }
      ],
      "name": "isApprovedForAll",
      "outputs": [
        {
          "internalType": "bool",
          "name": "",
          "type": "bool"
        }
      ],
      "stateMutability": "view",
      "type": "function"
    },
    {
      "inputs": [
        {
          "internalType": "address",
          "name": "_to",
          "type": "address"
        },
        {
          "internalType": "uint256",
          "name": "_tokenId",
          "type": "uint256"
        },
        {
          "internalType": "string",
          "name": "_tokenURI",
          "type": "string"
        },
        {
          "internalType": "uint256",
          "name": "_amount",
          "type": "uint256"
        }
      ],
      "name": "mintTo",
      "outputs": [],
      "stateMutability": "nonpayable",
      "type": "function"
    },
    {
      "inputs": [
        {
          "internalType": "bytes[]",
          "name": "data",
          "type": "bytes[]"
        }
      ],
      "name": "multicall",
      "outputs": [
        {
          "internalType": "bytes[]",
          "name": "results",
          "type": "bytes[]"
        }
      ],
      "stateMutability": "nonpayable",
      "type": "function"
    },
    {
      "inputs": [],
      "name": "name",
      "outputs": [
        {
          "internalType": "string",
          "name": "",
          "type": "string"
        }
      ],
      "stateMutability": "view",
      "type": "function"
    },
    {
      "inputs": [],
      "name": "nextTokenIdToMint",
      "outputs": [
        {
          "internalType": "uint256",
          "name": "",
          "type": "uint256"
        }
      ],
      "stateMutability": "view",
      "type": "function"
    },
    {
      "inputs": [],
      "name": "owner",
      "outputs": [
        {
          "internalType": "address",
          "name": "",
          "type": "address"
        }
      ],
      "stateMutability": "view",
      "type": "function"
    },
    {
      "inputs": [
        {
          "internalType": "uint256",
          "name": "tokenId",
          "type": "uint256"
        },
        {
          "internalType": "uint256",
          "name": "salePrice",
          "type": "uint256"
        }
      ],
      "name": "royaltyInfo",
      "outputs": [
        {
          "internalType": "address",
          "name": "receiver",
          "type": "address"
        },
        {
          "internalType": "uint256",
          "name": "royaltyAmount",
          "type": "uint256"
        }
      ],
      "stateMutability": "view",
      "type": "function"
    },
    {
      "inputs": [
        {
          "internalType": "address",
          "name": "from",
          "type": "address"
        },
        {
          "internalType": "address",
          "name": "to",
          "type": "address"
        },
        {
          "internalType": "uint256[]",
          "name": "ids",
          "type": "uint256[]"
        },
        {
          "internalType": "uint256[]",
          "name": "amounts",
          "type": "uint256[]"
        },
        {
          "internalType": "bytes",
          "name": "data",
          "type": "bytes"
        }
      ],
      "name": "safeBatchTransferFrom",
      "outputs": [],
      "stateMutability": "nonpayable",
      "type": "function"
    },
    {
      "inputs": [
        {
          "internalType": "address",
          "name": "from",
          "type": "address"
        },
        {
          "internalType": "address",
          "name": "to",
          "type": "address"
        },
        {
          "internalType": "uint256",
          "name": "id",
          "type": "uint256"
        },
        {
          "internalType": "uint256",
          "name": "amount",
          "type": "uint256"
        },
        {
          "internalType": "bytes",
          "name": "data",
          "type": "bytes"
        }
      ],
      "name": "safeTransferFrom",
      "outputs": [],
      "stateMutability": "nonpayable",
      "type": "function"
    },
    {
      "inputs": [
        {
          "internalType": "address",
          "name": "operator",
          "type": "address"
        },
        {
          "internalType": "bool",
          "name": "approved",
          "type": "bool"
        }
      ],
      "name": "setApprovalForAll",
      "outputs": [],
      "stateMutability": "nonpayable",
      "type": "function"
    },
    {
      "inputs": [
        {
          "internalType": "string",
          "name": "_uri",
          "type": "string"
        }
      ],
      "name": "setContractURI",
      "outputs": [],
      "stateMutability": "nonpayable",
      "type": "function"
    },
    {
      "inputs": [
        {
          "internalType": "address",
          "name": "_royaltyRecipient",
          "type": "address"
        },
        {
          "internalType": "uint256",
          "name": "_royaltyBps",
          "type": "uint256"
        }
      ],
      "name": "setDefaultRoyaltyInfo",
      "outputs": [],
      "stateMutability": "nonpayable",
      "type": "function"
    },
    {
      "inputs": [
        {
          "internalType": "address",
          "name": "_newOwner",
          "type": "address"
        }
      ],
      "name": "setOwner",
      "outputs": [],
      "stateMutability": "nonpayable",
      "type": "function"
    },
    {
      "inputs": [
        {
          "internalType": "uint256",
          "name": "_tokenId",
          "type": "uint256"
        },
        {
          "internalType": "address",
          "name": "_recipient",
          "type": "address"
        },
        {
          "internalType": "uint256",
          "name": "_bps",
          "type": "uint256"
        }
      ],
      "name": "setRoyaltyInfoForToken",
      "outputs": [],
      "stateMutability": "nonpayable",
      "type": "function"
    },
    {
      "inputs": [
        {
          "internalType": "bytes4",
          "name": "interfaceId",
          "type": "bytes4"
        }
      ],
      "name": "supportsInterface",
      "outputs": [
        {
          "internalType": "bool",
          "name": "",
          "type": "bool"
        }
      ],
      "stateMutability": "view",
      "type": "function"
    },
    {
      "inputs": [],
      "name": "symbol",
      "outputs": [
        {
          "internalType": "string",
          "name": "",
          "type": "string"
        }
      ],
      "stateMutability": "view",
      "type": "function"
    },
    {
      "inputs": [
        {
          "internalType": "uint256",
          "name": "",
          "type": "uint256"
        }
      ],
      "name": "totalSupply",
      "outputs": [
        {
          "internalType": "uint256",
          "name": "",
          "type": "uint256"
        }
      ],
      "stateMutability": "view",
      "type": "function"
    },
    {
      "inputs": [
        {
          "internalType": "uint256",
          "name": "_tokenId",
          "type": "uint256"
        }
      ],
      "name": "uri",
      "outputs": [
        {
          "internalType": "string",
          "name": "",
          "type": "string"
        }
      ],
      "stateMutability": "view",
      "type": "function"
    }
  ],
  "bytecode": "0x60806040523480156200001157600080fd5b506040516200376a3803806200376a833981016040819052620000349162000306565b8351849084906200004d90600090602085019062000193565b5080516200006390600190602084019062000193565b50505062000077336200009660201b60201c565b6200008c826001600160801b038316620000e8565b50505050620003ef565b600680546001600160a01b038381166001600160a01b0319831681179093556040519116919082907f8292fce18fa69edf4db7b94ea2e58241df0ae57f97e0a6c9b29067028bf92d7690600090a35050565b612710811115620001315760405162461bcd60e51b815260206004820152600f60248201526e45786365656473206d61782062707360881b604482015260640160405180910390fd5b600780546001600160a01b0384166001600160b01b03199091168117600160a01b61ffff851602179091556040518281527f90d7ec04bcb8978719414f82e52e4cb651db41d0e6f8cea6118c2191e6183adb9060200160405180910390a25050565b828054620001a190620003b2565b90600052602060002090601f016020900481019282620001c5576000855562000210565b82601f10620001e057805160ff191683800117855562000210565b8280016001018555821562000210579182015b8281111562000210578251825591602001919060010190620001f3565b506200021e92915062000222565b5090565b5b808211156200021e576000815560010162000223565b634e487b7160e01b600052604160045260246000fd5b600082601f8301126200026157600080fd5b81516001600160401b03808211156200027e576200027e62000239565b604051601f8301601f19908116603f01168101908282118183101715620002a957620002a962000239565b81604052838152602092508683858801011115620002c657600080fd5b600091505b83821015620002ea5785820183015181830184015290820190620002cb565b83821115620002fc5760008385830101525b9695505050505050565b600080600080608085870312156200031d57600080fd5b84516001600160401b03808211156200033557600080fd5b62000343888389016200024f565b955060208701519150808211156200035a57600080fd5b5062000369878288016200024f565b604087015190945090506001600160a01b03811681146200038957600080fd5b60608601519092506001600160801b0381168114620003a757600080fd5b939692955090935050565b600181811c90821680620003c757607f821691505b60208210811415620003e957634e487b7160e01b600052602260045260246000fd5b50919050565b61336b80620003ff6000396000f3fe608060405234801561001057600080fd5b50600436106101c35760003560e01c80638da5cb5b116100f9578063b03f452811610097578063e8a3d48511610071578063e8a3d48514610429578063e985e9c514610431578063f242432a1461045f578063f5298aca1461047257600080fd5b8063b03f4528146103d8578063b24f2d39146103eb578063bd85b0391461040957600080fd5b806395d89b41116100d357806395d89b411461038a5780639bcf7a1514610392578063a22cb465146103a5578063ac9650d8146103b857600080fd5b80638da5cb5b14610349578063938e3d7b14610364578063949c09f71461037757600080fd5b80632eb2c2d6116101665780634e1273f4116101405780634e1273f4146102fb578063600dd5ea1461031b57806363b45e2d1461032e5780636b20c4541461033657600080fd5b80632eb2c2d6146102ab5780633b1475a7146102be5780634cc157df146102c657600080fd5b80630e89341c116101a25780630e89341c1461023e57806313af4035146102515780632419f51b146102665780632a55205a1461027957600080fd5b8062fdd58e146101c857806301ffc9a71461020657806306fdde0314610229575b600080fd5b6101f36101d63660046127cf565b600260209081526000928352604080842090915290825290205481565b6040519081526020015b60405180910390f35b61021961021436600461280f565b610485565b60405190151581526020016101fd565b6102316104f2565b6040516101fd9190612884565b61023161024c366004612897565b610580565b61026461025f3660046128b0565b61066e565b005b6101f3610274366004612897565b6106c4565b61028c6102873660046128cb565b610732565b604080516001600160a01b0390931683526020830191909152016101fd565b6102646102b9366004612a39565b61076f565b600b546101f3565b6102d96102d4366004612897565b6107fe565b604080516001600160a01b03909316835261ffff9091166020830152016101fd565b61030e610309366004612ae3565b610869565b6040516101fd9190612be9565b6102646103293660046127cf565b6109a0565b6009546101f3565b610264610344366004612bfc565b6109f3565b6006546040516001600160a01b0390911681526020016101fd565b610264610372366004612c70565b610ba9565b610264610385366004612ca5565b610bf7565b610231610e0f565b6102646103a0366004612d3e565b610e1c565b6102646103b3366004612d73565b610e71565b6103cb6103c6366004612daf565b610f2a565b6040516101fd9190612e24565b6102646103e6366004612e86565b61101f565b6007546001600160a01b03811690600160a01b900461ffff166102d9565b6101f3610417366004612897565b600c6020526000908152604090205481565b610231611119565b61021961043f366004612ee5565b600360209081526000928352604080842090915290825290205460ff1681565b61026461046d366004612f18565b611126565b610264610480366004612f7d565b6111ae565b60006301ffc9a760e01b6001600160e01b0319831614806104b65750636cdb3d1360e11b6001600160e01b03198316145b806104d157506303a24d0760e21b6001600160e01b03198316145b806104ec57506001600160e01b0319821663152a902d60e11b145b92915050565b600080546104ff90612fb0565b80601f016020809104026020016040519081016040528092919081815260200182805461052b90612fb0565b80156105785780601f1061054d57610100808354040283529160200191610578565b820191906000526020600020905b81548152906001019060200180831161055b57829003601f168201915b505050505081565b60008181526004602052604081208054606092919061059e90612fb0565b80601f01602080910402602001604051908101604052809291908181526020018280546105ca90612fb0565b80156106175780601f106105ec57610100808354040283529160200191610617565b820191906000526020600020905b8154815290600101906020018083116105fa57829003601f168201915b5050505050905060008151111561062e5792915050565b6000610639846112a9565b90508061064585611453565b604051602001610656929190612feb565b60405160208183030381529060405292505050919050565b610676611571565b6106b85760405162461bcd60e51b815260206004820152600e60248201526d139bdd08185d5d1a1bdc9a5e995960921b60448201526064015b60405180910390fd5b6106c18161159e565b50565b60006106cf60095490565b821061070d5760405162461bcd60e51b815260206004820152600d60248201526c092dcecc2d8d2c840d2dcc8caf609b1b60448201526064016106af565b600982815481106107205761072061301a565b90600052602060002001549050919050565b600080600080610741866107fe565b90945084925061ffff16905061271061075a8287613046565b610764919061307b565b925050509250929050565b6001600160a01b0385163314806107a957506001600160a01b038516600090815260036020908152604080832033845290915290205460ff165b6107ea5760405162461bcd60e51b81526020600482015260126024820152710853d5d3915497d3d497d054141493d5915160721b60448201526064016106af565b6107f785858585856115fd565b5050505050565b6000818152600860209081526040808320815180830190925280546001600160a01b031680835260019091015492820192909252829115610845578051602082015161085f565b6007546001600160a01b03811690600160a01b900461ffff165b9250925050915091565b606081518351146108ae5760405162461bcd60e51b815260206004820152600f60248201526e0988a9c8ea890be9a92a69a82a8869608b1b60448201526064016106af565b6000835167ffffffffffffffff8111156108ca576108ca6128ed565b6040519080825280602002602001820160405280156108f3578160200160208202803683370190505b50905060005b845181101561099857600260008683815181106109185761091861301a565b60200260200101516001600160a01b03166001600160a01b0316815260200190815260200160002060008583815181106109545761095461301a565b602002602001015181526020019081526020016000205482828151811061097d5761097d61301a565b60209081029190910101526109918161308f565b90506108f9565b509392505050565b6109a8611571565b6109e55760405162461bcd60e51b815260206004820152600e60248201526d139bdd08185d5d1a1bdc9a5e995960921b60448201526064016106af565b6109ef8282611814565b5050565b336001600160a01b038416811480610a3057506001600160a01b0380851660009081526003602090815260408083209385168352929052205460ff165b610a705760405162461bcd60e51b81526020600482015260116024820152702ab730b8383937bb32b21031b0b63632b960791b60448201526064016106af565b8151835114610ac15760405162461bcd60e51b815260206004820152600f60248201527f4c656e677468206d69736d61746368000000000000000000000000000000000060448201526064016106af565b60005b8351811015610b9757828181518110610adf57610adf61301a565b602002602001015160026000876001600160a01b03166001600160a01b031681526020019081526020016000206000868481518110610b2057610b2061301a565b60200260200101518152602001908152602001600020541015610b855760405162461bcd60e51b815260206004820152601760248201527f4e6f7420656e6f75676820746f6b656e73206f776e656400000000000000000060448201526064016106af565b610b906001826130aa565b9050610ac4565b50610ba38484846118c9565b50505050565b610bb1611571565b610bee5760405162461bcd60e51b815260206004820152600e60248201526d139bdd08185d5d1a1bdc9a5e995960921b60448201526064016106af565b6106c181611ac3565b610bff611571565b610c4b5760405162461bcd60e51b815260206004820152601760248201527f4e6f7420617574686f72697a656420746f206d696e742e00000000000000000060448201526064016106af565b6000825111610c9c5760405162461bcd60e51b815260206004820152601460248201527f4d696e74696e67207a65726f20746f6b656e732e00000000000000000000000060448201526064016106af565b8151835114610ced5760405162461bcd60e51b815260206004820152601060248201527f4c656e677468206d69736d617463682e0000000000000000000000000000000060448201526064016106af565b6000610cf8600b5490565b9050806000805b8651811015610dcf57600019878281518110610d1d57610d1d61301a565b60200260200101511415610d685783878281518110610d3e57610d3e61301a565b6020908102919091010152610d546001856130aa565b9350610d616001836130aa565b9150610dbd565b83878281518110610d7b57610d7b61301a565b602002602001015110610dbd5760405162461bcd60e51b815260206004820152600a6024820152691a5b9d985b1a59081a5960b21b60448201526064016106af565b610dc86001826130aa565b9050610cff565b508015610de457610de1828286611ba5565b50505b82600b81905550610e0687878760405180602001604052806000815250611c12565b50505050505050565b600180546104ff90612fb0565b610e24611571565b610e615760405162461bcd60e51b815260206004820152600e60248201526d139bdd08185d5d1a1bdc9a5e995960921b60448201526064016106af565b610e6c838383611dae565b505050565b336001600160a01b038316811415610ebc5760405162461bcd60e51b815260206004820152600e60248201526d20a8282927ab24a723afa9a2a62360911b60448201526064016106af565b6001600160a01b03818116600081815260036020908152604080832094881680845294825291829020805460ff191687151590811790915591519182527f17307eab39ab6107e8899845ad3d59bd9653f200f220920489ca2b5937696c3191015b60405180910390a3505050565b60608167ffffffffffffffff811115610f4557610f456128ed565b604051908082528060200260200182016040528015610f7857816020015b6060815260200190600190039081610f635790505b50905060005b8281101561101857610fe830858584818110610f9c57610f9c61301a565b9050602002810190610fae91906130c2565b8080601f016020809104026020016040519081016040528093929190818152602001838380828437600092019190915250611e7c92505050565b828281518110610ffa57610ffa61301a565b602002602001018190525080806110109061308f565b915050610f7e565b5092915050565b611027611571565b6110735760405162461bcd60e51b815260206004820152601760248201527f4e6f7420617574686f72697a656420746f206d696e742e00000000000000000060448201526064016106af565b60008061107f600b5490565b90506000198514156110b6578091506001600b60008282546110a191906130aa565b909155506110b190508185611ea8565b6110f6565b8085106110f25760405162461bcd60e51b815260206004820152600a6024820152691a5b9d985b1a59081a5960b21b60448201526064016106af565b8491505b61111186838560405180602001604052806000815250611ec7565b505050505050565b600580546104ff90612fb0565b6001600160a01b03851633148061116057506001600160a01b038516600090815260036020908152604080832033845290915290205460ff165b6111a15760405162461bcd60e51b81526020600482015260126024820152710853d5d3915497d3d497d054141493d5915160721b60448201526064016106af565b6107f78585858585611fbf565b336001600160a01b0384168114806111eb57506001600160a01b0380851660009081526003602090815260408083209385168352929052205460ff165b61122b5760405162461bcd60e51b81526020600482015260116024820152702ab730b8383937bb32b21031b0b63632b960791b60448201526064016106af565b6001600160a01b038416600090815260026020908152604080832086845290915290205482111561129e5760405162461bcd60e51b815260206004820152601760248201527f4e6f7420656e6f75676820746f6b656e73206f776e656400000000000000000060448201526064016106af565b610ba3848484612127565b606060006112b660095490565b90506000600980548060200260200160405190810160405280929190818152602001828054801561130657602002820191906000526020600020905b8154815260200190600101908083116112f2575b5050505050905060005b8281101561140a5781818151811061132a5761132a61301a565b60200260200101518510156113f857600a600083838151811061134f5761134f61301a565b60200260200101518152602001908152602001600020805461137090612fb0565b80601f016020809104026020016040519081016040528092919081815260200182805461139c90612fb0565b80156113e95780601f106113be576101008083540402835291602001916113e9565b820191906000526020600020905b8154815290600101906020018083116113cc57829003601f168201915b50505050509350505050919050565b6114036001826130aa565b9050611310565b5060405162461bcd60e51b815260206004820152600f60248201527f496e76616c696420746f6b656e4964000000000000000000000000000000000060448201526064016106af565b6060816114775750506040805180820190915260018152600360fc1b602082015290565b8160005b81156114a1578061148b8161308f565b915061149a9050600a8361307b565b915061147b565b60008167ffffffffffffffff8111156114bc576114bc6128ed565b6040519080825280601f01601f1916602001820160405280156114e6576020820181803683370190505b5090505b8415611569576114fb600183613110565b9150611508600a86613127565b6115139060306130aa565b60f81b8183815181106115285761152861301a565b60200101907effffffffffffffffffffffffffffffffffffffffffffffffffffffffffffff1916908160001a905350611562600a8661307b565b94506114ea565b949350505050565b60006115856006546001600160a01b031690565b6001600160a01b0316336001600160a01b031614905090565b600680546001600160a01b0383811673ffffffffffffffffffffffffffffffffffffffff19831681179093556040519116919082907f8292fce18fa69edf4db7b94ea2e58241df0ae57f97e0a6c9b29067028bf92d7690600090a35050565b81518351146116405760405162461bcd60e51b815260206004820152600f60248201526e0988a9c8ea890be9a92a69a82a8869608b1b60448201526064016106af565b6001600160a01b0384166116855760405162461bcd60e51b815260206004820152600c60248201526b2a27afad22a927afa0a2222960a11b60448201526064016106af565b3361169481878787878761226f565b60005b84518110156117ae5760008582815181106116b4576116b461301a565b6020026020010151905060008583815181106116d2576116d261301a565b6020908102919091018101516001600160a01b038b1660009081526002835260408082208683529093529190912054909150818110156117475760405162461bcd60e51b815260206004820152601060248201526f125394d551919250d251539517d0905360821b60448201526064016106af565b6001600160a01b03808b16600090815260026020818152604080842088855282528084208787039055938d168352908152828220868352905290812080548492906117939084906130aa565b92505081905550505050806117a79061308f565b9050611697565b50846001600160a01b0316866001600160a01b0316826001600160a01b03167f4a39dc06d4c0dbc64b70af90fd698a233a518aa5d07e595d983b8c0526c8f7fb87876040516117fe92919061313b565b60405180910390a461111181878787878761237b565b6127108111156118585760405162461bcd60e51b815260206004820152600f60248201526e45786365656473206d61782062707360881b60448201526064016106af565b600780546001600160a01b03841675ffffffffffffffffffffffffffffffffffffffffffff199091168117600160a01b61ffff851602179091556040518281527f90d7ec04bcb8978719414f82e52e4cb651db41d0e6f8cea6118c2191e6183adb9060200160405180910390a25050565b6001600160a01b0383166119105760405162461bcd60e51b815260206004820152600e60248201526d232927a6afad22a927afa0a2222960911b60448201526064016106af565b80518251146119535760405162461bcd60e51b815260206004820152600f60248201526e0988a9c8ea890be9a92a69a82a8869608b1b60448201526064016106af565b60003390506119768185600086866040518060200160405280600081525061226f565b60005b8351811015611a645760008482815181106119965761199661301a565b6020026020010151905060008483815181106119b4576119b461301a565b6020908102919091018101516001600160a01b0389166000908152600283526040808220868352909352919091205490915081811015611a295760405162461bcd60e51b815260206004820152601060248201526f125394d551919250d251539517d0905360821b60448201526064016106af565b6001600160a01b0388166000908152600260209081526040808320958352949052929092209103905580611a5c8161308f565b915050611979565b5060006001600160a01b0316846001600160a01b0316826001600160a01b03167f4a39dc06d4c0dbc64b70af90fd698a233a518aa5d07e595d983b8c0526c8f7fb8686604051611ab592919061313b565b60405180910390a450505050565b600060058054611ad290612fb0565b80601f0160208091040260200160405190810160405280929190818152602001828054611afe90612fb0565b8015611b4b5780601f10611b2057610100808354040283529160200191611b4b565b820191906000526020600020905b815481529060010190602001808311611b2e57829003601f168201915b50508551939450611b679360059350602087019250905061271a565b507fc9c7c3fe08b88b4df9d4d47ef47d2c43d55c025a0ba88ca442580ed9e7348a168183604051611b99929190613169565b60405180910390a15050565b600080611bb284866130aa565b60098054600181019091557f6e1540171b6c0c960b71a7020d9f60077f6af931a8bbf590da0223dacf75c7af018190556000818152600a602090815260409091208551929450849350611c0992909186019061271a565b50935093915050565b6001600160a01b038416611c575760405162461bcd60e51b815260206004820152600c60248201526b2a27afad22a927afa0a2222960a11b60448201526064016106af565b8151835114611c9a5760405162461bcd60e51b815260206004820152600f60248201526e0988a9c8ea890be9a92a69a82a8869608b1b60448201526064016106af565b33611caa8160008787878761226f565b60005b8451811015611d4657838181518110611cc857611cc861301a565b602002602001015160026000886001600160a01b03166001600160a01b031681526020019081526020016000206000878481518110611d0957611d0961301a565b602002602001015181526020019081526020016000206000828254611d2e91906130aa565b90915550819050611d3e8161308f565b915050611cad565b50846001600160a01b031660006001600160a01b0316826001600160a01b03167f4a39dc06d4c0dbc64b70af90fd698a233a518aa5d07e595d983b8c0526c8f7fb8787604051611d9792919061313b565b60405180910390a46107f78160008787878761237b565b612710811115611df25760405162461bcd60e51b815260206004820152600f60248201526e45786365656473206d61782062707360881b60448201526064016106af565b6040805180820182526001600160a01b0384811680835260208084018681526000898152600883528690209451855473ffffffffffffffffffffffffffffffffffffffff1916941693909317845591516001909301929092559151838152909185917f7365cf4122f072a3365c20d54eff9b38d73c096c28e1892ec8f5b0e403a0f12d9101610f1d565b6060611ea1838360405180606001604052806027815260200161330f602791396124dc565b9392505050565b60008281526004602090815260409091208251610e6c9284019061271a565b6001600160a01b038416611f0c5760405162461bcd60e51b815260206004820152600c60248201526b2a27afad22a927afa0a2222960a11b60448201526064016106af565b33611f2c81600087611f1d886125b9565b611f26886125b9565b8761226f565b6001600160a01b038516600090815260026020908152604080832087845290915281208054859290611f5f9084906130aa565b909155505060408051858152602081018590526001600160a01b0380881692600092918516917fc3d58168c5ae7397731d063d5bbf3d657854427343f4c083240f7aacaa2d0f62910160405180910390a46107f781600087878787612604565b6001600160a01b0384166120045760405162461bcd60e51b815260206004820152600c60248201526b2a27afad22a927afa0a2222960a11b60448201526064016106af565b33612014818787611f1d886125b9565b6001600160a01b03861660009081526002602090815260408083208784529091529020548381101561207b5760405162461bcd60e51b815260206004820152601060248201526f125394d551919250d251539517d0905360821b60448201526064016106af565b6001600160a01b0380881660009081526002602081815260408084208a855282528084208987039055938a168352908152828220888352905290812080548692906120c79084906130aa565b909155505060408051868152602081018690526001600160a01b03808916928a821692918616917fc3d58168c5ae7397731d063d5bbf3d657854427343f4c083240f7aacaa2d0f62910160405180910390a4610e06828888888888612604565b6001600160a01b03831661216e5760405162461bcd60e51b815260206004820152600e60248201526d232927a6afad22a927afa0a2222960911b60448201526064016106af565b3361219d8185600061217f876125b9565b612188876125b9565b6040518060200160405280600081525061226f565b6001600160a01b0384166000908152600260209081526040808320868452909152902054828110156122045760405162461bcd60e51b815260206004820152601060248201526f125394d551919250d251539517d0905360821b60448201526064016106af565b6001600160a01b03858116600081815260026020908152604080832089845282528083208887039055805189815291820188905291938616917fc3d58168c5ae7397731d063d5bbf3d657854427343f4c083240f7aacaa2d0f62910160405180910390a45050505050565b6001600160a01b0385166122f65760005b83518110156122f45782818151811061229b5761229b61301a565b6020026020010151600c60008684815181106122b9576122b961301a565b6020026020010151815260200190815260200160002060008282546122de91906130aa565b909155506122ed90508161308f565b9050612280565b505b6001600160a01b0384166111115760005b8351811015610e06578281815181106123225761232261301a565b6020026020010151600c60008684815181106123405761234061301a565b6020026020010151815260200190815260200160002060008282546123659190613110565b9091555061237490508161308f565b9050612307565b6001600160a01b0384163b156111115760405163bc197c8160e01b81526001600160a01b0385169063bc197c81906123bf908990899088908890889060040161318e565b6020604051808303816000875af19250505080156123fa575060408051601f3d908101601f191682019092526123f7918101906131ec565b60015b61248a57612406613209565b806308c379a01415612440575061241b613225565b806124265750612442565b8060405162461bcd60e51b81526004016106af9190612884565b505b60405162461bcd60e51b815260206004820152601060248201527f214552433131353552454345495645520000000000000000000000000000000060448201526064016106af565b6001600160e01b0319811663bc197c8160e01b14610e065760405162461bcd60e51b815260206004820152600f60248201526e1513d2d15394d7d491529150d51151608a1b60448201526064016106af565b60606001600160a01b0384163b6125445760405162461bcd60e51b815260206004820152602660248201527f416464726573733a2064656c65676174652063616c6c20746f206e6f6e2d636f6044820152651b9d1c9858dd60d21b60648201526084016106af565b600080856001600160a01b03168560405161255f91906132af565b600060405180830381855af49150503d806000811461259a576040519150601f19603f3d011682016040523d82523d6000602084013e61259f565b606091505b50915091506125af8282866126e1565b9695505050505050565b604080516001808252818301909252606091600091906020808301908036833701905050905082816000815181106125f3576125f361301a565b602090810291909101015292915050565b6001600160a01b0384163b156111115760405163f23a6e6160e01b81526001600160a01b0385169063f23a6e619061264890899089908890889088906004016132cb565b6020604051808303816000875af1925050508015612683575060408051601f3d908101601f19168201909252612680918101906131ec565b60015b61268f57612406613209565b6001600160e01b0319811663f23a6e6160e01b14610e065760405162461bcd60e51b815260206004820152600f60248201526e1513d2d15394d7d491529150d51151608a1b60448201526064016106af565b606083156126f0575081611ea1565b8251156127005782518084602001fd5b8160405162461bcd60e51b81526004016106af9190612884565b82805461272690612fb0565b90600052602060002090601f016020900481019282612748576000855561278e565b82601f1061276157805160ff191683800117855561278e565b8280016001018555821561278e579182015b8281111561278e578251825591602001919060010190612773565b5061279a92915061279e565b5090565b5b8082111561279a576000815560010161279f565b80356001600160a01b03811681146127ca57600080fd5b919050565b600080604083850312156127e257600080fd5b6127eb836127b3565b946020939093013593505050565b6001600160e01b0319811681146106c157600080fd5b60006020828403121561282157600080fd5b8135611ea1816127f9565b60005b8381101561284757818101518382015260200161282f565b83811115610ba35750506000910152565b6000815180845261287081602086016020860161282c565b601f01601f19169290920160200192915050565b602081526000611ea16020830184612858565b6000602082840312156128a957600080fd5b5035919050565b6000602082840312156128c257600080fd5b611ea1826127b3565b600080604083850312156128de57600080fd5b50508035926020909101359150565b634e487b7160e01b600052604160045260246000fd5b601f8201601f1916810167ffffffffffffffff81118282101715612929576129296128ed565b6040525050565b600067ffffffffffffffff82111561294a5761294a6128ed565b5060051b60200190565b600082601f83011261296557600080fd5b8135602061297282612930565b60405161297f8282612903565b83815260059390931b850182019282810191508684111561299f57600080fd5b8286015b848110156129ba57803583529183019183016129a3565b509695505050505050565b600082601f8301126129d657600080fd5b813567ffffffffffffffff8111156129f0576129f06128ed565b604051612a07601f8301601f191660200182612903565b818152846020838601011115612a1c57600080fd5b816020850160208301376000918101602001919091529392505050565b600080600080600060a08688031215612a5157600080fd5b612a5a866127b3565b9450612a68602087016127b3565b9350604086013567ffffffffffffffff80821115612a8557600080fd5b612a9189838a01612954565b94506060880135915080821115612aa757600080fd5b612ab389838a01612954565b93506080880135915080821115612ac957600080fd5b50612ad6888289016129c5565b9150509295509295909350565b60008060408385031215612af657600080fd5b823567ffffffffffffffff80821115612b0e57600080fd5b818501915085601f830112612b2257600080fd5b81356020612b2f82612930565b604051612b3c8282612903565b83815260059390931b8501820192828101915089841115612b5c57600080fd5b948201945b83861015612b8157612b72866127b3565b82529482019490820190612b61565b96505086013592505080821115612b9757600080fd5b50612ba485828601612954565b9150509250929050565b600081518084526020808501945080840160005b83811015612bde57815187529582019590820190600101612bc2565b509495945050505050565b602081526000611ea16020830184612bae565b600080600060608486031215612c1157600080fd5b612c1a846127b3565b9250602084013567ffffffffffffffff80821115612c3757600080fd5b612c4387838801612954565b93506040860135915080821115612c5957600080fd5b50612c6686828701612954565b9150509250925092565b600060208284031215612c8257600080fd5b813567ffffffffffffffff811115612c9957600080fd5b611569848285016129c5565b60008060008060808587031215612cbb57600080fd5b612cc4856127b3565b9350602085013567ffffffffffffffff80821115612ce157600080fd5b612ced88838901612954565b94506040870135915080821115612d0357600080fd5b612d0f88838901612954565b93506060870135915080821115612d2557600080fd5b50612d32878288016129c5565b91505092959194509250565b600080600060608486031215612d5357600080fd5b83359250612d63602085016127b3565b9150604084013590509250925092565b60008060408385031215612d8657600080fd5b612d8f836127b3565b915060208301358015158114612da457600080fd5b809150509250929050565b60008060208385031215612dc257600080fd5b823567ffffffffffffffff80821115612dda57600080fd5b818501915085601f830112612dee57600080fd5b813581811115612dfd57600080fd5b8660208260051b8501011115612e1257600080fd5b60209290920196919550909350505050565b6000602080830181845280855180835260408601915060408160051b870101925083870160005b82811015612e7957603f19888603018452612e67858351612858565b94509285019290850190600101612e4b565b5092979650505050505050565b60008060008060808587031215612e9c57600080fd5b612ea5856127b3565b935060208501359250604085013567ffffffffffffffff811115612ec857600080fd5b612ed4878288016129c5565b949793965093946060013593505050565b60008060408385031215612ef857600080fd5b612f01836127b3565b9150612f0f602084016127b3565b90509250929050565b600080600080600060a08688031215612f3057600080fd5b612f39866127b3565b9450612f47602087016127b3565b93506040860135925060608601359150608086013567ffffffffffffffff811115612f7157600080fd5b612ad6888289016129c5565b600080600060608486031215612f9257600080fd5b612f9b846127b3565b95602085013595506040909401359392505050565b600181811c90821680612fc457607f821691505b60208210811415612fe557634e487b7160e01b600052602260045260246000fd5b50919050565b60008351612ffd81846020880161282c565b83519083019061301181836020880161282c565b01949350505050565b634e487b7160e01b600052603260045260246000fd5b634e487b7160e01b600052601160045260246000fd5b600081600019048311821515161561306057613060613030565b500290565b634e487b7160e01b600052601260045260246000fd5b60008261308a5761308a613065565b500490565b60006000198214156130a3576130a3613030565b5060010190565b600082198211156130bd576130bd613030565b500190565b6000808335601e198436030181126130d957600080fd5b83018035915067ffffffffffffffff8211156130f457600080fd5b60200191503681900382131561310957600080fd5b9250929050565b60008282101561312257613122613030565b500390565b60008261313657613136613065565b500690565b60408152600061314e6040830185612bae565b82810360208401526131608185612bae565b95945050505050565b60408152600061317c6040830185612858565b82810360208401526131608185612858565b60006001600160a01b03808816835280871660208401525060a060408301526131ba60a0830186612bae565b82810360608401526131cc8186612bae565b905082810360808401526131e08185612858565b98975050505050505050565b6000602082840312156131fe57600080fd5b8151611ea1816127f9565b600060033d11156132225760046000803e5060005160e01c5b90565b600060443d10156132335790565b6040516003193d81016004833e81513d67ffffffffffffffff816024840111818411171561326357505050505090565b828501915081518181111561327b5750505050505090565b843d87010160208285010111156132955750505050505090565b6132a460208286010187612903565b509095945050505050565b600082516132c181846020870161282c565b9190910192915050565b60006001600160a01b03808816835280871660208401525084604083015283606083015260a0608083015261330360a0830184612858565b97965050505050505056fe416464726573733a206c6f772d6c6576656c2064656c65676174652063616c6c206661696c6564a2646970667358221220a8e43d41299c8e1928445cbb748b64172f11c9fc8a2e906d3c069382a57cb16964736f6c634300080c0033",
  "linkReferences": {},
  "deployedLinkReferences": {}
}