{
  "_format": "hh-sol-artifact-1",
  "contractName": "ERC20SignatureMint",
  "sourceName": "contracts/base/ERC20SignatureMint.sol",
  "abi": [
    {
      "inputs": [
        {
          "internalType": "string",
          "name": "_name",
          "type": "string"
        },
        {
          "internalType": "string",
          "name": "_symbol",
          "type": "string"
        },
        {
          "internalType": "address",
          "name": "_primarySaleRecipient",
          "type": "address"
        }
      ],
      "stateMutability": "nonpayable",
      "type": "constructor"
    },
    {
      "anonymous": false,
      "inputs": [
        {
          "indexed": true,
          "internalType": "address",
          "name": "owner",
          "type": "address"
        },
        {
          "indexed": true,
          "internalType": "address",
          "name": "spender",
          "type": "address"
        },
        {
          "indexed": false,
          "internalType": "uint256",
          "name": "value",
          "type": "uint256"
        }
      ],
      "name": "Approval",
      "type": "event"
    },
    {
      "anonymous": false,
      "inputs": [
        {
          "indexed": false,
          "internalType": "string",
          "name": "prevURI",
          "type": "string"
        },
        {
          "indexed": false,
          "internalType": "string",
          "name": "newURI",
          "type": "string"
        }
      ],
      "name": "ContractURIUpdated",
      "type": "event"
    },
    {
      "anonymous": false,
      "inputs": [
        {
          "indexed": true,
          "internalType": "address",
          "name": "prevOwner",
          "type": "address"
        },
        {
          "indexed": true,
          "internalType": "address",
          "name": "newOwner",
          "type": "address"
        }
      ],
      "name": "OwnerUpdated",
      "type": "event"
    },
    {
      "anonymous": false,
      "inputs": [
        {
          "indexed": true,
          "internalType": "address",
          "name": "recipient",
          "type": "address"
        }
      ],
      "name": "PrimarySaleRecipientUpdated",
      "type": "event"
    },
    {
      "anonymous": false,
      "inputs": [
        {
          "indexed": true,
          "internalType": "address",
          "name": "signer",
          "type": "address"
        },
        {
          "indexed": true,
          "internalType": "address",
          "name": "mintedTo",
          "type": "address"
        },
        {
          "components": [
            {
              "internalType": "address",
              "name": "to",
              "type": "address"
            },
            {
              "internalType": "address",
              "name": "primarySaleRecipient",
              "type": "address"
            },
            {
              "internalType": "uint256",
              "name": "quantity",
              "type": "uint256"
            },
            {
              "internalType": "uint256",
              "name": "pricePerToken",
              "type": "uint256"
            },
            {
              "internalType": "address",
              "name": "currency",
              "type": "address"
            },
            {
              "internalType": "uint128",
              "name": "validityStartTimestamp",
              "type": "uint128"
            },
            {
              "internalType": "uint128",
              "name": "validityEndTimestamp",
              "type": "uint128"
            },
            {
              "internalType": "bytes32",
              "name": "uid",
              "type": "bytes32"
            }
          ],
          "indexed": false,
          "internalType": "struct ISignatureMintERC20.MintRequest",
          "name": "mintRequest",
          "type": "tuple"
        }
      ],
      "name": "TokensMintedWithSignature",
      "type": "event"
    },
    {
      "anonymous": false,
      "inputs": [
        {
          "indexed": true,
          "internalType": "address",
          "name": "from",
          "type": "address"
        },
        {
          "indexed": true,
          "internalType": "address",
          "name": "to",
          "type": "address"
        },
        {
          "indexed": false,
          "internalType": "uint256",
          "name": "value",
          "type": "uint256"
        }
      ],
      "name": "Transfer",
      "type": "event"
    },
    {
      "inputs": [],
      "name": "DOMAIN_SEPARATOR",
      "outputs": [
        {
          "internalType": "bytes32",
          "name": "",
          "type": "bytes32"
        }
      ],
      "stateMutability": "view",
      "type": "function"
    },
    {
      "inputs": [
        {
          "internalType": "address",
          "name": "owner",
          "type": "address"
        },
        {
          "internalType": "address",
          "name": "spender",
          "type": "address"
        }
      ],
      "name": "allowance",
      "outputs": [
        {
          "internalType": "uint256",
          "name": "",
          "type": "uint256"
        }
      ],
      "stateMutability": "view",
      "type": "function"
    },
    {
      "inputs": [
        {
          "internalType": "address",
          "name": "spender",
          "type": "address"
        },
        {
          "internalType": "uint256",
          "name": "amount",
          "type": "uint256"
        }
      ],
      "name": "approve",
      "outputs": [
        {
          "internalType": "bool",
          "name": "",
          "type": "bool"
        }
      ],
      "stateMutability": "nonpayable",
      "type": "function"
    },
    {
      "inputs": [
        {
          "internalType": "address",
          "name": "account",
          "type": "address"
        }
      ],
      "name": "balanceOf",
      "outputs": [
        {
          "internalType": "uint256",
          "name": "",
          "type": "uint256"
        }
      ],
      "stateMutability": "view",
      "type": "function"
    },
    {
      "inputs": [
        {
          "internalType": "uint256",
          "name": "_amount",
          "type": "uint256"
        }
      ],
      "name": "burn",
      "outputs": [],
      "stateMutability": "nonpayable",
      "type": "function"
    },
    {
      "inputs": [],
      "name": "contractURI",
      "outputs": [
        {
          "internalType": "string",
          "name": "",
          "type": "string"
        }
      ],
      "stateMutability": "view",
      "type": "function"
    },
    {
      "inputs": [],
      "name": "decimals",
      "outputs": [
        {
          "internalType": "uint8",
          "name": "",
          "type": "uint8"
        }
      ],
      "stateMutability": "view",
      "type": "function"
    },
    {
      "inputs": [
        {
          "internalType": "address",
          "name": "spender",
          "type": "address"
        },
        {
          "internalType": "uint256",
          "name": "subtractedValue",
          "type": "uint256"
        }
      ],
      "name": "decreaseAllowance",
      "outputs": [
        {
          "internalType": "bool",
          "name": "",
          "type": "bool"
        }
      ],
      "stateMutability": "nonpayable",
      "type": "function"
    },
    {
      "inputs": [
        {
          "internalType": "address",
          "name": "spender",
          "type": "address"
        },
        {
          "internalType": "uint256",
          "name": "addedValue",
          "type": "uint256"
        }
      ],
      "name": "increaseAllowance",
      "outputs": [
        {
          "internalType": "bool",
          "name": "",
          "type": "bool"
        }
      ],
      "stateMutability": "nonpayable",
      "type": "function"
    },
    {
      "inputs": [
        {
          "internalType": "address",
          "name": "_to",
          "type": "address"
        },
        {
          "internalType": "uint256",
          "name": "_amount",
          "type": "uint256"
        }
      ],
      "name": "mintTo",
      "outputs": [],
      "stateMutability": "nonpayable",
      "type": "function"
    },
    {
      "inputs": [
        {
          "components": [
            {
              "internalType": "address",
              "name": "to",
              "type": "address"
            },
            {
              "internalType": "address",
              "name": "primarySaleRecipient",
              "type": "address"
            },
            {
              "internalType": "uint256",
              "name": "quantity",
              "type": "uint256"
            },
            {
              "internalType": "uint256",
              "name": "pricePerToken",
              "type": "uint256"
            },
            {
              "internalType": "address",
              "name": "currency",
              "type": "address"
            },
            {
              "internalType": "uint128",
              "name": "validityStartTimestamp",
              "type": "uint128"
            },
            {
              "internalType": "uint128",
              "name": "validityEndTimestamp",
              "type": "uint128"
            },
            {
              "internalType": "bytes32",
              "name": "uid",
              "type": "bytes32"
            }
          ],
          "internalType": "struct ISignatureMintERC20.MintRequest",
          "name": "_req",
          "type": "tuple"
        },
        {
          "internalType": "bytes",
          "name": "_signature",
          "type": "bytes"
        }
      ],
      "name": "mintWithSignature",
      "outputs": [
        {
          "internalType": "address",
          "name": "signer",
          "type": "address"
        }
      ],
      "stateMutability": "payable",
      "type": "function"
    },
    {
      "inputs": [
        {
          "internalType": "bytes[]",
          "name": "data",
          "type": "bytes[]"
        }
      ],
      "name": "multicall",
      "outputs": [
        {
          "internalType": "bytes[]",
          "name": "results",
          "type": "bytes[]"
        }
      ],
      "stateMutability": "nonpayable",
      "type": "function"
    },
    {
      "inputs": [],
      "name": "name",
      "outputs": [
        {
          "internalType": "string",
          "name": "",
          "type": "string"
        }
      ],
      "stateMutability": "view",
      "type": "function"
    },
    {
      "inputs": [
        {
          "internalType": "address",
          "name": "owner",
          "type": "address"
        }
      ],
      "name": "nonces",
      "outputs": [
        {
          "internalType": "uint256",
          "name": "",
          "type": "uint256"
        }
      ],
      "stateMutability": "view",
      "type": "function"
    },
    {
      "inputs": [],
      "name": "owner",
      "outputs": [
        {
          "internalType": "address",
          "name": "",
          "type": "address"
        }
      ],
      "stateMutability": "view",
      "type": "function"
    },
    {
      "inputs": [
        {
          "internalType": "address",
          "name": "owner",
          "type": "address"
        },
        {
          "internalType": "address",
          "name": "spender",
          "type": "address"
        },
        {
          "internalType": "uint256",
          "name": "value",
          "type": "uint256"
        },
        {
          "internalType": "uint256",
          "name": "deadline",
          "type": "uint256"
        },
        {
          "internalType": "uint8",
          "name": "v",
          "type": "uint8"
        },
        {
          "internalType": "bytes32",
          "name": "r",
          "type": "bytes32"
        },
        {
          "internalType": "bytes32",
          "name": "s",
          "type": "bytes32"
        }
      ],
      "name": "permit",
      "outputs": [],
      "stateMutability": "nonpayable",
      "type": "function"
    },
    {
      "inputs": [],
      "name": "primarySaleRecipient",
      "outputs": [
        {
          "internalType": "address",
          "name": "",
          "type": "address"
        }
      ],
      "stateMutability": "view",
      "type": "function"
    },
    {
      "inputs": [
        {
          "internalType": "string",
          "name": "_uri",
          "type": "string"
        }
      ],
      "name": "setContractURI",
      "outputs": [],
      "stateMutability": "nonpayable",
      "type": "function"
    },
    {
      "inputs": [
        {
          "internalType": "address",
          "name": "_newOwner",
          "type": "address"
        }
      ],
      "name": "setOwner",
      "outputs": [],
      "stateMutability": "nonpayable",
      "type": "function"
    },
    {
      "inputs": [
        {
          "internalType": "address",
          "name": "_saleRecipient",
          "type": "address"
        }
      ],
      "name": "setPrimarySaleRecipient",
      "outputs": [],
      "stateMutability": "nonpayable",
      "type": "function"
    },
    {
      "inputs": [],
      "name": "symbol",
      "outputs": [
        {
          "internalType": "string",
          "name": "",
          "type": "string"
        }
      ],
      "stateMutability": "view",
      "type": "function"
    },
    {
      "inputs": [],
      "name": "totalSupply",
      "outputs": [
        {
          "internalType": "uint256",
          "name": "",
          "type": "uint256"
        }
      ],
      "stateMutability": "view",
      "type": "function"
    },
    {
      "inputs": [
        {
          "internalType": "address",
          "name": "to",
          "type": "address"
        },
        {
          "internalType": "uint256",
          "name": "amount",
          "type": "uint256"
        }
      ],
      "name": "transfer",
      "outputs": [
        {
          "internalType": "bool",
          "name": "",
          "type": "bool"
        }
      ],
      "stateMutability": "nonpayable",
      "type": "function"
    },
    {
      "inputs": [
        {
          "internalType": "address",
          "name": "from",
          "type": "address"
        },
        {
          "internalType": "address",
          "name": "to",
          "type": "address"
        },
        {
          "internalType": "uint256",
          "name": "amount",
          "type": "uint256"
        }
      ],
      "name": "transferFrom",
      "outputs": [
        {
          "internalType": "bool",
          "name": "",
          "type": "bool"
        }
      ],
      "stateMutability": "nonpayable",
      "type": "function"
    },
    {
      "inputs": [
        {
          "components": [
            {
              "internalType": "address",
              "name": "to",
              "type": "address"
            },
            {
              "internalType": "address",
              "name": "primarySaleRecipient",
              "type": "address"
            },
            {
              "internalType": "uint256",
              "name": "quantity",
              "type": "uint256"
            },
            {
              "internalType": "uint256",
              "name": "pricePerToken",
              "type": "uint256"
            },
            {
              "internalType": "address",
              "name": "currency",
              "type": "address"
            },
            {
              "internalType": "uint128",
              "name": "validityStartTimestamp",
              "type": "uint128"
            },
            {
              "internalType": "uint128",
              "name": "validityEndTimestamp",
              "type": "uint128"
            },
            {
              "internalType": "bytes32",
              "name": "uid",
              "type": "bytes32"
            }
          ],
          "internalType": "struct ISignatureMintERC20.MintRequest",
          "name": "_req",
          "type": "tuple"
        },
        {
          "internalType": "bytes",
          "name": "_signature",
          "type": "bytes"
        }
      ],
      "name": "verify",
      "outputs": [
        {
          "internalType": "bool",
          "name": "success",
          "type": "bool"
        },
        {
          "internalType": "address",
          "name": "signer",
          "type": "address"
        }
      ],
      "stateMutability": "view",
      "type": "function"
    }
  ],
  "bytecode": "0x6101c06040527f6e71edae12b1b97f4d1f60370fef10105fa2faae0126114a169c64845d6126c960e0523480156200003657600080fd5b5060405162003215380380620032158339810160408190526200005991620004d5565b6040518060400160405280601281526020017105369676e61747572654d696e7445524332360741b815250604051806040016040528060018152602001603160f81b8152508484818181818160059080519060200190620000bc92919062000362565b508051620000d290600690602084019062000362565b50504660a052503060c052620000e7620001a6565b60805250620000f89050336200022c565b505081516020808401919091208251918301919091206101608290526101808190524661012052600080516020620031f58339815191526200017f8184846040805160208101859052908101839052606081018290524660808201523060a082015260009060c0016040516020818303038152906040528051906020012090509392505050565b6101005230610140526101a052506200019d9250839150506200027e565b5050506200059f565b6000600080516020620031f5833981519152620001c2620002c8565b80516020918201206040805192830193909352918101919091527fc89efdaa54c0f20c7adf612882df0950f5a951637e0307cdcb4c672f298b8bc660608201524660808201523060a082015260c00160405160208183030381529060405280519060200120905090565b600180546001600160a01b038381166001600160a01b0319831681179093556040519116919082907f8292fce18fa69edf4db7b94ea2e58241df0ae57f97e0a6c9b29067028bf92d7690600090a35050565b600880546001600160a01b0319166001600160a01b0383169081179091556040517f299d17e95023f496e0ffc4909cff1a61f74bb5eb18de6f900f4155bfa1b3b33390600090a250565b606060058054620002d99062000562565b80601f0160208091040260200160405190810160405280929190818152602001828054620003079062000562565b8015620003585780601f106200032c5761010080835404028352916020019162000358565b820191906000526020600020905b8154815290600101906020018083116200033a57829003601f168201915b5050505050905090565b828054620003709062000562565b90600052602060002090601f016020900481019282620003945760008555620003df565b82601f10620003af57805160ff1916838001178555620003df565b82800160010185558215620003df579182015b82811115620003df578251825591602001919060010190620003c2565b50620003ed929150620003f1565b5090565b5b80821115620003ed5760008155600101620003f2565b634e487b7160e01b600052604160045260246000fd5b600082601f8301126200043057600080fd5b81516001600160401b03808211156200044d576200044d62000408565b604051601f8301601f19908116603f0116810190828211818310171562000478576200047862000408565b816040528381526020925086838588010111156200049557600080fd5b600091505b83821015620004b957858201830151818301840152908201906200049a565b83821115620004cb5760008385830101525b9695505050505050565b600080600060608486031215620004eb57600080fd5b83516001600160401b03808211156200050357600080fd5b62000511878388016200041e565b945060208601519150808211156200052857600080fd5b5062000537868287016200041e565b604086015190935090506001600160a01b03811681146200055757600080fd5b809150509250925092565b600181811c908216806200057757607f821691505b602082108114156200059957634e487b7160e01b600052602260045260246000fd5b50919050565b60805160a05160c05160e05161010051610120516101405161016051610180516101a051612bda6200061b60003960006120a1015260006120f0015260006120cb015260006120240152600061204e0152600061207801526000610c20015260006106500152600061067a015260006106a40152612bda6000f3fe6080604052600436106101965760003560e01c806370a08231116100e1578063a457c2d71161008a578063c1b606e211610064578063c1b606e214610463578063d505accf146104a2578063dd62ed3e146104c2578063e8a3d4851461050857600080fd5b8063a457c2d7146103f6578063a9059cbb14610416578063ac9650d81461043657600080fd5b80638f0fefbb116100bb5780638f0fefbb146103ae578063938e3d7b146103c157806395d89b41146103e157600080fd5b806370a082311461033a5780637ecebe00146103705780638da5cb5b1461039057600080fd5b8063313ce5671161014357806342966c681161011d57806342966c68146102da578063449a52f8146102fa5780636f4f28371461031a57600080fd5b8063313ce567146102895780633644e515146102a557806339509351146102ba57600080fd5b806313af40351161017457806313af40351461022857806318160ddd1461024a57806323b872dd1461026957600080fd5b806306fdde031461019b578063079fe40e146101c6578063095ea7b3146101f8575b600080fd5b3480156101a757600080fd5b506101b061051d565b6040516101bd9190612566565b60405180910390f35b3480156101d257600080fd5b506008546001600160a01b03165b6040516001600160a01b0390911681526020016101bd565b34801561020457600080fd5b50610218610213366004612595565b6105af565b60405190151581526020016101bd565b34801561023457600080fd5b506102486102433660046125bf565b6105c7565b005b34801561025657600080fd5b506004545b6040519081526020016101bd565b34801561027557600080fd5b506102186102843660046125da565b61061d565b34801561029557600080fd5b50604051601281526020016101bd565b3480156102b157600080fd5b5061025b610643565b3480156102c657600080fd5b506102186102d5366004612595565b6106d3565b3480156102e657600080fd5b506102486102f5366004612616565b610712565b34801561030657600080fd5b50610248610315366004612595565b61077b565b34801561032657600080fd5b506102486103353660046125bf565b610821565b34801561034657600080fd5b5061025b6103553660046125bf565b6001600160a01b031660009081526002602052604090205490565b34801561037c57600080fd5b5061025b61038b3660046125bf565b61086f565b34801561039c57600080fd5b506001546001600160a01b03166101e0565b6101e06103bc36600461262f565b61088f565b3480156103cd57600080fd5b506102486103dc3660046126d2565b61098c565b3480156103ed57600080fd5b506101b06109da565b34801561040257600080fd5b50610218610411366004612595565b6109e9565b34801561042257600080fd5b50610218610431366004612595565b610a86565b34801561044257600080fd5b50610456610451366004612783565b610a94565b6040516101bd91906127f8565b34801561046f57600080fd5b5061048361047e36600461262f565b610b89565b6040805192151583526001600160a01b039091166020830152016101bd565b3480156104ae57600080fd5b506102486104bd36600461285a565b610bcc565b3480156104ce57600080fd5b5061025b6104dd3660046128cd565b6001600160a01b03918216600090815260036020908152604080832093909416825291909152205490565b34801561051457600080fd5b506101b0610d73565b60606005805461052c90612900565b80601f016020809104026020016040519081016040528092919081815260200182805461055890612900565b80156105a55780601f1061057a576101008083540402835291602001916105a5565b820191906000526020600020905b81548152906001019060200180831161058857829003601f168201915b5050505050905090565b6000336105bd818585610e01565b5060019392505050565b6105cf610f26565b6106115760405162461bcd60e51b815260206004820152600e60248201526d139bdd08185d5d1a1bdc9a5e995960921b60448201526064015b60405180910390fd5b61061a81610f53565b50565b60003361062b858285610fb2565b610636858585611044565b60019150505b9392505050565b6000306001600160a01b037f00000000000000000000000000000000000000000000000000000000000000001614801561069c57507f000000000000000000000000000000000000000000000000000000000000000046145b156106c657507f000000000000000000000000000000000000000000000000000000000000000090565b6106ce611212565b905090565b3360008181526003602090815260408083206001600160a01b03871684529091528120549091906105bd908290869061070d90879061294b565b610e01565b336000908152600260205260409020548111156107715760405162461bcd60e51b815260206004820152601260248201527f6e6f7420656e6f7567682062616c616e636500000000000000000000000000006044820152606401610608565b61061a33826112a7565b610783610f26565b6107cf5760405162461bcd60e51b815260206004820152601760248201527f4e6f7420617574686f72697a656420746f206d696e742e0000000000000000006044820152606401610608565b806108135760405162461bcd60e51b815260206004820152601460248201527326b4b73a34b733903d32b937903a37b5b2b7399760611b6044820152606401610608565b61081d82826113f2565b5050565b610829610f26565b6108665760405162461bcd60e51b815260206004820152600e60248201526d139bdd08185d5d1a1bdc9a5e995960921b6044820152606401610608565b61061a816114d1565b6001600160a01b0381166000908152600760205260408120545b92915050565b6000808460400135116108db5760405162461bcd60e51b815260206004820152601460248201527326b4b73a34b733903d32b937903a37b5b2b7399760611b6044820152606401610608565b6108e6848484611528565b905060006108f760208601866125bf565b905061092b61090c60408701602088016125bf565b604087013561092160a0890160808a016125bf565b88606001356116dc565b6109398186604001356113f2565b806001600160a01b0316826001600160a01b03167fc4d88b1adde72eb5acf63f3e219ef5b223262233acf507c3b171277c91973c678760405161097c919061297a565b60405180910390a3509392505050565b610994610f26565b6109d15760405162461bcd60e51b815260206004820152600e60248201526d139bdd08185d5d1a1bdc9a5e995960921b6044820152606401610608565b61061a81611805565b60606006805461052c90612900565b3360008181526003602090815260408083206001600160a01b038716845290915281205490919083811015610a6e5760405162461bcd60e51b815260206004820152602560248201527f45524332303a2064656372656173656420616c6c6f77616e63652062656c6f77604482015264207a65726f60d81b6064820152608401610608565b610a7b8286868403610e01565b506001949350505050565b6000336105bd818585611044565b60608167ffffffffffffffff811115610aaf57610aaf6126bc565b604051908082528060200260200182016040528015610ae257816020015b6060815260200190600190039081610acd5790505b50905060005b82811015610b8257610b5230858584818110610b0657610b06612a10565b9050602002810190610b189190612a26565b8080601f0160208091040260200160405190810160405280939291908181526020018383808284376000920191909152506118e692505050565b828281518110610b6457610b64612a10565b60200260200101819052508080610b7a90612a6d565b915050610ae8565b5092915050565b600080610b9785858561190b565b60e086013560009081526009602052604090205490915060ff16158015610bc25750610bc28161196f565b9150935093915050565b83421115610c1c5760405162461bcd60e51b815260206004820152601d60248201527f45524332305065726d69743a206578706972656420646561646c696e650000006044820152606401610608565b60007f0000000000000000000000000000000000000000000000000000000000000000888888610c4b8c61199e565b6040805160208101969096526001600160a01b0394851690860152929091166060840152608083015260a082015260c0810186905260e0016040516020818303038152906040528051906020012090506000610ce9610ca8610643565b8360405161190160f01b6020820152602281018390526042810182905260009060620160405160208183030381529060405280519060200120905092915050565b90506000610cf9828787876119c6565b9050896001600160a01b0316816001600160a01b031614610d5c5760405162461bcd60e51b815260206004820152601e60248201527f45524332305065726d69743a20696e76616c6964207369676e617475726500006044820152606401610608565b610d678a8a8a610e01565b50505050505050505050565b60008054610d8090612900565b80601f0160208091040260200160405190810160405280929190818152602001828054610dac90612900565b8015610df95780601f10610dce57610100808354040283529160200191610df9565b820191906000526020600020905b815481529060010190602001808311610ddc57829003601f168201915b505050505081565b6001600160a01b038316610e635760405162461bcd60e51b8152602060048201526024808201527f45524332303a20617070726f76652066726f6d20746865207a65726f206164646044820152637265737360e01b6064820152608401610608565b6001600160a01b038216610ec45760405162461bcd60e51b815260206004820152602260248201527f45524332303a20617070726f766520746f20746865207a65726f206164647265604482015261737360f01b6064820152608401610608565b6001600160a01b0383811660008181526003602090815260408083209487168084529482529182902085905590518481527f8c5be1e5ebec7d5bd14f71427d1e84f3dd0314c0f7b2291e5b200ac8c7c3b92591015b60405180910390a3505050565b6000610f3a6001546001600160a01b031690565b6001600160a01b0316336001600160a01b031614905090565b600180546001600160a01b0383811673ffffffffffffffffffffffffffffffffffffffff19831681179093556040519116919082907f8292fce18fa69edf4db7b94ea2e58241df0ae57f97e0a6c9b29067028bf92d7690600090a35050565b6001600160a01b03838116600090815260036020908152604080832093861683529290522054600019811461103e57818110156110315760405162461bcd60e51b815260206004820152601d60248201527f45524332303a20696e73756666696369656e7420616c6c6f77616e63650000006044820152606401610608565b61103e8484848403610e01565b50505050565b6001600160a01b0383166110a85760405162461bcd60e51b815260206004820152602560248201527f45524332303a207472616e736665722066726f6d20746865207a65726f206164604482015264647265737360d81b6064820152608401610608565b6001600160a01b03821661110a5760405162461bcd60e51b815260206004820152602360248201527f45524332303a207472616e7366657220746f20746865207a65726f206164647260448201526265737360e81b6064820152608401610608565b6001600160a01b038316600090815260026020526040902054818110156111825760405162461bcd60e51b815260206004820152602660248201527f45524332303a207472616e7366657220616d6f756e7420657863656564732062604482015265616c616e636560d01b6064820152608401610608565b6001600160a01b038085166000908152600260205260408082208585039055918516815290812080548492906111b990849061294b565b92505081905550826001600160a01b0316846001600160a01b03167fddf252ad1be2c89b69c2b068fc378daa952ba7f163c4a11628f55a4df523b3ef8460405161120591815260200190565b60405180910390a361103e565b60007f8b73c3c69bb8fe3d512ecc4cf759cc79239f7b179b0ffacaa9a75d522b39400f61123d61051d565b80516020918201206040805192830193909352918101919091527fc89efdaa54c0f20c7adf612882df0950f5a951637e0307cdcb4c672f298b8bc660608201524660808201523060a082015260c00160405160208183030381529060405280519060200120905090565b6001600160a01b0382166113075760405162461bcd60e51b815260206004820152602160248201527f45524332303a206275726e2066726f6d20746865207a65726f206164647265736044820152607360f81b6064820152608401610608565b6001600160a01b0382166000908152600260205260409020548181101561137b5760405162461bcd60e51b815260206004820152602260248201527f45524332303a206275726e20616d6f756e7420657863656564732062616c616e604482015261636560f01b6064820152608401610608565b6001600160a01b03831660009081526002602052604081208383039055600480548492906113aa908490612a88565b90915550506040518281526000906001600160a01b038516907fddf252ad1be2c89b69c2b068fc378daa952ba7f163c4a11628f55a4df523b3ef90602001610f19565b505050565b6001600160a01b0382166114485760405162461bcd60e51b815260206004820152601f60248201527f45524332303a206d696e7420746f20746865207a65726f2061646472657373006044820152606401610608565b806004600082825461145a919061294b565b90915550506001600160a01b0382166000908152600260205260408120805483929061148790849061294b565b90915550506040518181526001600160a01b038316906000907fddf252ad1be2c89b69c2b068fc378daa952ba7f163c4a11628f55a4df523b3ef9060200160405180910390a35050565b6008805473ffffffffffffffffffffffffffffffffffffffff19166001600160a01b0383169081179091556040517f299d17e95023f496e0ffc4909cff1a61f74bb5eb18de6f900f4155bfa1b3b33390600090a250565b600080611536858585610b89565b92509050806115875760405162461bcd60e51b815260206004820152600f60248201527f496e76616c6964207265717565737400000000000000000000000000000000006044820152606401610608565b4261159860c0870160a08801612a9f565b6001600160801b0316111580156115c757506115ba60e0860160c08701612a9f565b6001600160801b03164211155b6116135760405162461bcd60e51b815260206004820152600f60248201527f52657175657374206578706972656400000000000000000000000000000000006044820152606401610608565b600061162260208701876125bf565b6001600160a01b031614156116795760405162461bcd60e51b815260206004820152601360248201527f726563697069656e7420756e646566696e6564000000000000000000000000006044820152606401610608565b60008560400135116116b55760405162461bcd60e51b8152602060048201526005602482015264302071747960d81b6044820152606401610608565b5060e0909301356000908152600960205260409020805460ff191660011790555090919050565b806116e65761103e565b6000670de0b6b3a76400006116fb8386612aba565b6117059190612ad9565b9050600081116117575760405162461bcd60e51b815260206004820152601060248201527f7175616e7469747920746f6f206c6f77000000000000000000000000000000006044820152606401610608565b6001600160a01b03831673eeeeeeeeeeeeeeeeeeeeeeeeeeeeeeeeeeeeeeee14156117cb578034146117cb5760405162461bcd60e51b815260206004820152601660248201527f4d7573742073656e6420746f74616c2070726963652e000000000000000000006044820152606401610608565b60006001600160a01b038616156117e257856117ef565b6008546001600160a01b03165b90506117fd843383856119ee565b505050505050565b600080805461181390612900565b80601f016020809104026020016040519081016040528092919081815260200182805461183f90612900565b801561188c5780601f106118615761010080835404028352916020019161188c565b820191906000526020600020905b81548152906001019060200180831161186f57829003601f168201915b505085519394506118a893600093506020870192509050612475565b507fc9c7c3fe08b88b4df9d4d47ef47d2c43d55c025a0ba88ca442580ed9e7348a1681836040516118da929190612afb565b60405180910390a15050565b606061063c8383604051806060016040528060278152602001612b7e60279139611a38565b600061196783838080601f01602080910402602001604051908101604052809392919081815260200183838082843760009201919091525061196192506119559150889050611b15565b80519060200120611c09565b90611c16565b949350505050565b60006119836001546001600160a01b031690565b6001600160a01b0316826001600160a01b0316149050919050565b6001600160a01b03811660009081526007602052604090208054600181018255905b50919050565b60008060006119d787878787611c3a565b915091506119e481611d27565b5095945050505050565b806119f85761103e565b6001600160a01b03841673eeeeeeeeeeeeeeeeeeeeeeeeeeeeeeeeeeeeeeee1415611a2c57611a278282611ee2565b61103e565b61103e84848484611f85565b60606001600160a01b0384163b611aa05760405162461bcd60e51b815260206004820152602660248201527f416464726573733a2064656c65676174652063616c6c20746f206e6f6e2d636f6044820152651b9d1c9858dd60d21b6064820152608401610608565b600080856001600160a01b031685604051611abb9190612b29565b600060405180830381855af49150503d8060008114611af6576040519150601f19603f3d011682016040523d82523d6000602084013e611afb565b606091505b5091509150611b0b828286611fde565b9695505050505050565b60607fd932100bc68de71f788489cd77585effe7e2226422dc347f9d7f9c20cd7cfd0b611b4560208401846125bf565b611b5560408501602086016125bf565b60408501356060860135611b6f60a08801608089016125bf565b611b7f60c0890160a08a01612a9f565b611b8f60e08a0160c08b01612a9f565b6040805160208101999099526001600160a01b03978816908901529486166060880152608087019390935260a086019190915290921660c08401526001600160801b0391821660e0808501919091529116610100830152830135610120820152610140016040516020818303038152906040529050919050565b6000610889610ca8612017565b6000806000611c25858561213e565b91509150611c3281611d27565b509392505050565b6000807f7fffffffffffffffffffffffffffffff5d576e7357a4501ddfe92f46681b20a0831115611c715750600090506003611d1e565b8460ff16601b14158015611c8957508460ff16601c14155b15611c9a5750600090506004611d1e565b6040805160008082526020820180845289905260ff881692820192909252606081018690526080810185905260019060a0016020604051602081039080840390855afa158015611cee573d6000803e3d6000fd5b5050604051601f1901519150506001600160a01b038116611d1757600060019250925050611d1e565b9150600090505b94509492505050565b6000816004811115611d3b57611d3b612b45565b1415611d445750565b6001816004811115611d5857611d58612b45565b1415611da65760405162461bcd60e51b815260206004820152601860248201527f45434453413a20696e76616c6964207369676e617475726500000000000000006044820152606401610608565b6002816004811115611dba57611dba612b45565b1415611e085760405162461bcd60e51b815260206004820152601f60248201527f45434453413a20696e76616c6964207369676e6174757265206c656e677468006044820152606401610608565b6003816004811115611e1c57611e1c612b45565b1415611e755760405162461bcd60e51b815260206004820152602260248201527f45434453413a20696e76616c6964207369676e6174757265202773272076616c604482015261756560f01b6064820152608401610608565b6004816004811115611e8957611e89612b45565b141561061a5760405162461bcd60e51b815260206004820152602260248201527f45434453413a20696e76616c6964207369676e6174757265202776272076616c604482015261756560f01b6064820152608401610608565b6000826001600160a01b03168260405160006040518083038185875af1925050503d8060008114611f2f576040519150601f19603f3d011682016040523d82523d6000602084013e611f34565b606091505b50509050806113ed5760405162461bcd60e51b815260206004820152601c60248201527f6e617469766520746f6b656e207472616e73666572206661696c6564000000006044820152606401610608565b816001600160a01b0316836001600160a01b03161415611fa45761103e565b6001600160a01b038316301415611fc957611a276001600160a01b03851683836121ae565b61103e6001600160a01b03851684848461223e565b60608315611fed57508161063c565b825115611ffd5782518084602001fd5b8160405162461bcd60e51b81526004016106089190612566565b6000306001600160a01b037f00000000000000000000000000000000000000000000000000000000000000001614801561207057507f000000000000000000000000000000000000000000000000000000000000000046145b1561209a57507f000000000000000000000000000000000000000000000000000000000000000090565b50604080517f00000000000000000000000000000000000000000000000000000000000000006020808301919091527f0000000000000000000000000000000000000000000000000000000000000000828401527f000000000000000000000000000000000000000000000000000000000000000060608301524660808301523060a0808401919091528351808403909101815260c0909201909252805191012090565b6000808251604114156121755760208301516040840151606085015160001a61216987828585611c3a565b945094505050506121a7565b82516040141561219f5760208301516040840151612194868383612276565b9350935050506121a7565b506000905060025b9250929050565b6040516001600160a01b0383166024820152604481018290526113ed90849063a9059cbb60e01b906064015b60408051601f198184030181529190526020810180517bffffffffffffffffffffffffffffffffffffffffffffffffffffffff167fffffffff00000000000000000000000000000000000000000000000000000000909316929092179091526122c8565b6040516001600160a01b038085166024830152831660448201526064810182905261103e9085906323b872dd60e01b906084016121da565b6000807f7fffffffffffffffffffffffffffffffffffffffffffffffffffffffffffffff8316816122ac60ff86901c601b61294b565b90506122ba87828885611c3a565b935093505050935093915050565b600061231d826040518060400160405280602081526020017f5361666545524332303a206c6f772d6c6576656c2063616c6c206661696c6564815250856001600160a01b031661239a9092919063ffffffff16565b8051909150156113ed578080602001905181019061233b9190612b5b565b6113ed5760405162461bcd60e51b815260206004820152602a60248201527f5361666545524332303a204552433230206f7065726174696f6e20646964206e6044820152691bdd081cdd58d8d9595960b21b6064820152608401610608565b60606119678484600085856001600160a01b0385163b6123fc5760405162461bcd60e51b815260206004820152601d60248201527f416464726573733a2063616c6c20746f206e6f6e2d636f6e74726163740000006044820152606401610608565b600080866001600160a01b031685876040516124189190612b29565b60006040518083038185875af1925050503d8060008114612455576040519150601f19603f3d011682016040523d82523d6000602084013e61245a565b606091505b509150915061246a828286611fde565b979650505050505050565b82805461248190612900565b90600052602060002090601f0160209004810192826124a357600085556124e9565b82601f106124bc57805160ff19168380011785556124e9565b828001600101855582156124e9579182015b828111156124e95782518255916020019190600101906124ce565b506124f59291506124f9565b5090565b5b808211156124f557600081556001016124fa565b60005b83811015612529578181015183820152602001612511565b8381111561103e5750506000910152565b6000815180845261255281602086016020860161250e565b601f01601f19169290920160200192915050565b60208152600061063c602083018461253a565b80356001600160a01b038116811461259057600080fd5b919050565b600080604083850312156125a857600080fd5b6125b183612579565b946020939093013593505050565b6000602082840312156125d157600080fd5b61063c82612579565b6000806000606084860312156125ef57600080fd5b6125f884612579565b925061260660208501612579565b9150604084013590509250925092565b60006020828403121561262857600080fd5b5035919050565b600080600083850361012081121561264657600080fd5b6101008082121561265657600080fd5b859450840135905067ffffffffffffffff8082111561267457600080fd5b818601915086601f83011261268857600080fd5b81358181111561269757600080fd5b8760208285010111156126a957600080fd5b6020830194508093505050509250925092565b634e487b7160e01b600052604160045260246000fd5b6000602082840312156126e457600080fd5b813567ffffffffffffffff808211156126fc57600080fd5b818401915084601f83011261271057600080fd5b813581811115612722576127226126bc565b604051601f8201601f19908116603f0116810190838211818310171561274a5761274a6126bc565b8160405282815287602084870101111561276357600080fd5b826020860160208301376000928101602001929092525095945050505050565b6000806020838503121561279657600080fd5b823567ffffffffffffffff808211156127ae57600080fd5b818501915085601f8301126127c257600080fd5b8135818111156127d157600080fd5b8660208260051b85010111156127e657600080fd5b60209290920196919550909350505050565b6000602080830181845280855180835260408601915060408160051b870101925083870160005b8281101561284d57603f1988860301845261283b85835161253a565b9450928501929085019060010161281f565b5092979650505050505050565b600080600080600080600060e0888a03121561287557600080fd5b61287e88612579565b965061288c60208901612579565b95506040880135945060608801359350608088013560ff811681146128b057600080fd5b9699959850939692959460a0840135945060c09093013592915050565b600080604083850312156128e057600080fd5b6128e983612579565b91506128f760208401612579565b90509250929050565b600181811c9082168061291457607f821691505b602082108114156119c057634e487b7160e01b600052602260045260246000fd5b634e487b7160e01b600052601160045260246000fd5b6000821982111561295e5761295e612935565b500190565b80356001600160801b038116811461259057600080fd5b61010081016001600160a01b038061299185612579565b168352806129a160208601612579565b1660208401526040840135604084015260608401356060840152806129c860808601612579565b166080840152506129db60a08401612963565b6001600160801b0380821660a0850152806129f860c08701612963565b1660c0850152505060e083013560e083015292915050565b634e487b7160e01b600052603260045260246000fd5b6000808335601e19843603018112612a3d57600080fd5b83018035915067ffffffffffffffff821115612a5857600080fd5b6020019150368190038213156121a757600080fd5b6000600019821415612a8157612a81612935565b5060010190565b600082821015612a9a57612a9a612935565b500390565b600060208284031215612ab157600080fd5b61063c82612963565b6000816000190483118215151615612ad457612ad4612935565b500290565b600082612af657634e487b7160e01b600052601260045260246000fd5b500490565b604081526000612b0e604083018561253a565b8281036020840152612b20818561253a565b95945050505050565b60008251612b3b81846020870161250e565b9190910192915050565b634e487b7160e01b600052602160045260246000fd5b600060208284031215612b6d57600080fd5b8151801515811461063c57600080fdfe416464726573733a206c6f772d6c6576656c2064656c65676174652063616c6c206661696c6564a26469706673582212200851b6aa28e2bbab4673b60694a3314c7279c4fa1f085256d0cef0ad93281aa664736f6c634300080c00338b73c3c69bb8fe3d512ecc4cf759cc79239f7b179b0ffacaa9a75d522b39400f",
  "linkReferences": {},
  "deployedLinkReferences": {}
}