{
  "_format": "hh-sol-artifact-1",
  "contractName": "ERC20DropVote",
  "sourceName": "contracts/base/ERC20DropVote.sol",
  "abi": [
    {
      "inputs": [
        {
          "internalType": "string",
          "name": "_name",
          "type": "string"
        },
        {
          "internalType": "string",
          "name": "_symbol",
          "type": "string"
        },
        {
          "internalType": "address",
          "name": "_primarySaleRecipient",
          "type": "address"
        }
      ],
      "stateMutability": "nonpayable",
      "type": "constructor"
    },
    {
      "anonymous": false,
      "inputs": [
        {
          "indexed": true,
          "internalType": "address",
          "name": "owner",
          "type": "address"
        },
        {
          "indexed": true,
          "internalType": "address",
          "name": "spender",
          "type": "address"
        },
        {
          "indexed": false,
          "internalType": "uint256",
          "name": "value",
          "type": "uint256"
        }
      ],
      "name": "Approval",
      "type": "event"
    },
    {
      "anonymous": false,
      "inputs": [
        {
          "components": [
            {
              "internalType": "uint256",
              "name": "startTimestamp",
              "type": "uint256"
            },
            {
              "internalType": "uint256",
              "name": "maxClaimableSupply",
              "type": "uint256"
            },
            {
              "internalType": "uint256",
              "name": "supplyClaimed",
              "type": "uint256"
            },
            {
              "internalType": "uint256",
              "name": "quantityLimitPerTransaction",
              "type": "uint256"
            },
            {
              "internalType": "uint256",
              "name": "waitTimeInSecondsBetweenClaims",
              "type": "uint256"
            },
            {
              "internalType": "bytes32",
              "name": "merkleRoot",
              "type": "bytes32"
            },
            {
              "internalType": "uint256",
              "name": "pricePerToken",
              "type": "uint256"
            },
            {
              "internalType": "address",
              "name": "currency",
              "type": "address"
            }
          ],
          "indexed": false,
          "internalType": "struct IClaimCondition.ClaimCondition",
          "name": "condition",
          "type": "tuple"
        },
        {
          "indexed": false,
          "internalType": "bool",
          "name": "resetEligibility",
          "type": "bool"
        }
      ],
      "name": "ClaimConditionUpdated",
      "type": "event"
    },
    {
      "anonymous": false,
      "inputs": [
        {
          "indexed": false,
          "internalType": "string",
          "name": "prevURI",
          "type": "string"
        },
        {
          "indexed": false,
          "internalType": "string",
          "name": "newURI",
          "type": "string"
        }
      ],
      "name": "ContractURIUpdated",
      "type": "event"
    },
    {
      "anonymous": false,
      "inputs": [
        {
          "indexed": true,
          "internalType": "address",
          "name": "delegator",
          "type": "address"
        },
        {
          "indexed": true,
          "internalType": "address",
          "name": "fromDelegate",
          "type": "address"
        },
        {
          "indexed": true,
          "internalType": "address",
          "name": "toDelegate",
          "type": "address"
        }
      ],
      "name": "DelegateChanged",
      "type": "event"
    },
    {
      "anonymous": false,
      "inputs": [
        {
          "indexed": true,
          "internalType": "address",
          "name": "delegate",
          "type": "address"
        },
        {
          "indexed": false,
          "internalType": "uint256",
          "name": "previousBalance",
          "type": "uint256"
        },
        {
          "indexed": false,
          "internalType": "uint256",
          "name": "newBalance",
          "type": "uint256"
        }
      ],
      "name": "DelegateVotesChanged",
      "type": "event"
    },
    {
      "anonymous": false,
      "inputs": [
        {
          "indexed": true,
          "internalType": "address",
          "name": "prevOwner",
          "type": "address"
        },
        {
          "indexed": true,
          "internalType": "address",
          "name": "newOwner",
          "type": "address"
        }
      ],
      "name": "OwnerUpdated",
      "type": "event"
    },
    {
      "anonymous": false,
      "inputs": [
        {
          "indexed": true,
          "internalType": "address",
          "name": "recipient",
          "type": "address"
        }
      ],
      "name": "PrimarySaleRecipientUpdated",
      "type": "event"
    },
    {
      "anonymous": false,
      "inputs": [
        {
          "indexed": true,
          "internalType": "address",
          "name": "claimer",
          "type": "address"
        },
        {
          "indexed": true,
          "internalType": "address",
          "name": "receiver",
          "type": "address"
        },
        {
          "indexed": true,
          "internalType": "uint256",
          "name": "startTokenId",
          "type": "uint256"
        },
        {
          "indexed": false,
          "internalType": "uint256",
          "name": "quantityClaimed",
          "type": "uint256"
        }
      ],
      "name": "TokensClaimed",
      "type": "event"
    },
    {
      "anonymous": false,
      "inputs": [
        {
          "indexed": true,
          "internalType": "address",
          "name": "from",
          "type": "address"
        },
        {
          "indexed": true,
          "internalType": "address",
          "name": "to",
          "type": "address"
        },
        {
          "indexed": false,
          "internalType": "uint256",
          "name": "value",
          "type": "uint256"
        }
      ],
      "name": "Transfer",
      "type": "event"
    },
    {
      "inputs": [],
      "name": "DOMAIN_SEPARATOR",
      "outputs": [
        {
          "internalType": "bytes32",
          "name": "",
          "type": "bytes32"
        }
      ],
      "stateMutability": "view",
      "type": "function"
    },
    {
      "inputs": [
        {
          "internalType": "address",
          "name": "owner",
          "type": "address"
        },
        {
          "internalType": "address",
          "name": "spender",
          "type": "address"
        }
      ],
      "name": "allowance",
      "outputs": [
        {
          "internalType": "uint256",
          "name": "",
          "type": "uint256"
        }
      ],
      "stateMutability": "view",
      "type": "function"
    },
    {
      "inputs": [
        {
          "internalType": "address",
          "name": "spender",
          "type": "address"
        },
        {
          "internalType": "uint256",
          "name": "amount",
          "type": "uint256"
        }
      ],
      "name": "approve",
      "outputs": [
        {
          "internalType": "bool",
          "name": "",
          "type": "bool"
        }
      ],
      "stateMutability": "nonpayable",
      "type": "function"
    },
    {
      "inputs": [
        {
          "internalType": "address",
          "name": "account",
          "type": "address"
        }
      ],
      "name": "balanceOf",
      "outputs": [
        {
          "internalType": "uint256",
          "name": "",
          "type": "uint256"
        }
      ],
      "stateMutability": "view",
      "type": "function"
    },
    {
      "inputs": [
        {
          "internalType": "uint256",
          "name": "_amount",
          "type": "uint256"
        }
      ],
      "name": "burn",
      "outputs": [],
      "stateMutability": "nonpayable",
      "type": "function"
    },
    {
      "inputs": [
        {
          "internalType": "address",
          "name": "account",
          "type": "address"
        },
        {
          "internalType": "uint32",
          "name": "pos",
          "type": "uint32"
        }
      ],
      "name": "checkpoints",
      "outputs": [
        {
          "components": [
            {
              "internalType": "uint32",
              "name": "fromBlock",
              "type": "uint32"
            },
            {
              "internalType": "uint224",
              "name": "votes",
              "type": "uint224"
            }
          ],
          "internalType": "struct ERC20Votes.Checkpoint",
          "name": "",
          "type": "tuple"
        }
      ],
      "stateMutability": "view",
      "type": "function"
    },
    {
      "inputs": [
        {
          "internalType": "address",
          "name": "_receiver",
          "type": "address"
        },
        {
          "internalType": "uint256",
          "name": "_quantity",
          "type": "uint256"
        },
        {
          "internalType": "address",
          "name": "_currency",
          "type": "address"
        },
        {
          "internalType": "uint256",
          "name": "_pricePerToken",
          "type": "uint256"
        },
        {
          "components": [
            {
              "internalType": "bytes32[]",
              "name": "proof",
              "type": "bytes32[]"
            },
            {
              "internalType": "uint256",
              "name": "maxQuantityInAllowlist",
              "type": "uint256"
            }
          ],
          "internalType": "struct IDropSinglePhase.AllowlistProof",
          "name": "_allowlistProof",
          "type": "tuple"
        },
        {
          "internalType": "bytes",
          "name": "_data",
          "type": "bytes"
        }
      ],
      "name": "claim",
      "outputs": [],
      "stateMutability": "payable",
      "type": "function"
    },
    {
      "inputs": [],
      "name": "claimCondition",
      "outputs": [
        {
          "internalType": "uint256",
          "name": "startTimestamp",
          "type": "uint256"
        },
        {
          "internalType": "uint256",
          "name": "maxClaimableSupply",
          "type": "uint256"
        },
        {
          "internalType": "uint256",
          "name": "supplyClaimed",
          "type": "uint256"
        },
        {
          "internalType": "uint256",
          "name": "quantityLimitPerTransaction",
          "type": "uint256"
        },
        {
          "internalType": "uint256",
          "name": "waitTimeInSecondsBetweenClaims",
          "type": "uint256"
        },
        {
          "internalType": "bytes32",
          "name": "merkleRoot",
          "type": "bytes32"
        },
        {
          "internalType": "uint256",
          "name": "pricePerToken",
          "type": "uint256"
        },
        {
          "internalType": "address",
          "name": "currency",
          "type": "address"
        }
      ],
      "stateMutability": "view",
      "type": "function"
    },
    {
      "inputs": [],
      "name": "contractURI",
      "outputs": [
        {
          "internalType": "string",
          "name": "",
          "type": "string"
        }
      ],
      "stateMutability": "view",
      "type": "function"
    },
    {
      "inputs": [],
      "name": "decimals",
      "outputs": [
        {
          "internalType": "uint8",
          "name": "",
          "type": "uint8"
        }
      ],
      "stateMutability": "view",
      "type": "function"
    },
    {
      "inputs": [
        {
          "internalType": "address",
          "name": "spender",
          "type": "address"
        },
        {
          "internalType": "uint256",
          "name": "subtractedValue",
          "type": "uint256"
        }
      ],
      "name": "decreaseAllowance",
      "outputs": [
        {
          "internalType": "bool",
          "name": "",
          "type": "bool"
        }
      ],
      "stateMutability": "nonpayable",
      "type": "function"
    },
    {
      "inputs": [
        {
          "internalType": "address",
          "name": "delegatee",
          "type": "address"
        }
      ],
      "name": "delegate",
      "outputs": [],
      "stateMutability": "nonpayable",
      "type": "function"
    },
    {
      "inputs": [
        {
          "internalType": "address",
          "name": "delegatee",
          "type": "address"
        },
        {
          "internalType": "uint256",
          "name": "nonce",
          "type": "uint256"
        },
        {
          "internalType": "uint256",
          "name": "expiry",
          "type": "uint256"
        },
        {
          "internalType": "uint8",
          "name": "v",
          "type": "uint8"
        },
        {
          "internalType": "bytes32",
          "name": "r",
          "type": "bytes32"
        },
        {
          "internalType": "bytes32",
          "name": "s",
          "type": "bytes32"
        }
      ],
      "name": "delegateBySig",
      "outputs": [],
      "stateMutability": "nonpayable",
      "type": "function"
    },
    {
      "inputs": [
        {
          "internalType": "address",
          "name": "account",
          "type": "address"
        }
      ],
      "name": "delegates",
      "outputs": [
        {
          "internalType": "address",
          "name": "",
          "type": "address"
        }
      ],
      "stateMutability": "view",
      "type": "function"
    },
    {
      "inputs": [
        {
          "internalType": "address",
          "name": "_claimer",
          "type": "address"
        }
      ],
      "name": "getClaimTimestamp",
      "outputs": [
        {
          "internalType": "uint256",
          "name": "lastClaimedAt",
          "type": "uint256"
        },
        {
          "internalType": "uint256",
          "name": "nextValidClaimTimestamp",
          "type": "uint256"
        }
      ],
      "stateMutability": "view",
      "type": "function"
    },
    {
      "inputs": [
        {
          "internalType": "uint256",
          "name": "blockNumber",
          "type": "uint256"
        }
      ],
      "name": "getPastTotalSupply",
      "outputs": [
        {
          "internalType": "uint256",
          "name": "",
          "type": "uint256"
        }
      ],
      "stateMutability": "view",
      "type": "function"
    },
    {
      "inputs": [
        {
          "internalType": "address",
          "name": "account",
          "type": "address"
        },
        {
          "internalType": "uint256",
          "name": "blockNumber",
          "type": "uint256"
        }
      ],
      "name": "getPastVotes",
      "outputs": [
        {
          "internalType": "uint256",
          "name": "",
          "type": "uint256"
        }
      ],
      "stateMutability": "view",
      "type": "function"
    },
    {
      "inputs": [
        {
          "internalType": "address",
          "name": "account",
          "type": "address"
        }
      ],
      "name": "getVotes",
      "outputs": [
        {
          "internalType": "uint256",
          "name": "",
          "type": "uint256"
        }
      ],
      "stateMutability": "view",
      "type": "function"
    },
    {
      "inputs": [
        {
          "internalType": "address",
          "name": "spender",
          "type": "address"
        },
        {
          "internalType": "uint256",
          "name": "addedValue",
          "type": "uint256"
        }
      ],
      "name": "increaseAllowance",
      "outputs": [
        {
          "internalType": "bool",
          "name": "",
          "type": "bool"
        }
      ],
      "stateMutability": "nonpayable",
      "type": "function"
    },
    {
      "inputs": [
        {
          "internalType": "bytes[]",
          "name": "data",
          "type": "bytes[]"
        }
      ],
      "name": "multicall",
      "outputs": [
        {
          "internalType": "bytes[]",
          "name": "results",
          "type": "bytes[]"
        }
      ],
      "stateMutability": "nonpayable",
      "type": "function"
    },
    {
      "inputs": [],
      "name": "name",
      "outputs": [
        {
          "internalType": "string",
          "name": "",
          "type": "string"
        }
      ],
      "stateMutability": "view",
      "type": "function"
    },
    {
      "inputs": [
        {
          "internalType": "address",
          "name": "owner",
          "type": "address"
        }
      ],
      "name": "nonces",
      "outputs": [
        {
          "internalType": "uint256",
          "name": "",
          "type": "uint256"
        }
      ],
      "stateMutability": "view",
      "type": "function"
    },
    {
      "inputs": [
        {
          "internalType": "address",
          "name": "account",
          "type": "address"
        }
      ],
      "name": "numCheckpoints",
      "outputs": [
        {
          "internalType": "uint32",
          "name": "",
          "type": "uint32"
        }
      ],
      "stateMutability": "view",
      "type": "function"
    },
    {
      "inputs": [],
      "name": "owner",
      "outputs": [
        {
          "internalType": "address",
          "name": "",
          "type": "address"
        }
      ],
      "stateMutability": "view",
      "type": "function"
    },
    {
      "inputs": [
        {
          "internalType": "address",
          "name": "owner",
          "type": "address"
        },
        {
          "internalType": "address",
          "name": "spender",
          "type": "address"
        },
        {
          "internalType": "uint256",
          "name": "value",
          "type": "uint256"
        },
        {
          "internalType": "uint256",
          "name": "deadline",
          "type": "uint256"
        },
        {
          "internalType": "uint8",
          "name": "v",
          "type": "uint8"
        },
        {
          "internalType": "bytes32",
          "name": "r",
          "type": "bytes32"
        },
        {
          "internalType": "bytes32",
          "name": "s",
          "type": "bytes32"
        }
      ],
      "name": "permit",
      "outputs": [],
      "stateMutability": "nonpayable",
      "type": "function"
    },
    {
      "inputs": [],
      "name": "primarySaleRecipient",
      "outputs": [
        {
          "internalType": "address",
          "name": "",
          "type": "address"
        }
      ],
      "stateMutability": "view",
      "type": "function"
    },
    {
      "inputs": [
        {
          "components": [
            {
              "internalType": "uint256",
              "name": "startTimestamp",
              "type": "uint256"
            },
            {
              "internalType": "uint256",
              "name": "maxClaimableSupply",
              "type": "uint256"
            },
            {
              "internalType": "uint256",
              "name": "supplyClaimed",
              "type": "uint256"
            },
            {
              "internalType": "uint256",
              "name": "quantityLimitPerTransaction",
              "type": "uint256"
            },
            {
              "internalType": "uint256",
              "name": "waitTimeInSecondsBetweenClaims",
              "type": "uint256"
            },
            {
              "internalType": "bytes32",
              "name": "merkleRoot",
              "type": "bytes32"
            },
            {
              "internalType": "uint256",
              "name": "pricePerToken",
              "type": "uint256"
            },
            {
              "internalType": "address",
              "name": "currency",
              "type": "address"
            }
          ],
          "internalType": "struct IClaimCondition.ClaimCondition",
          "name": "_condition",
          "type": "tuple"
        },
        {
          "internalType": "bool",
          "name": "_resetClaimEligibility",
          "type": "bool"
        }
      ],
      "name": "setClaimConditions",
      "outputs": [],
      "stateMutability": "nonpayable",
      "type": "function"
    },
    {
      "inputs": [
        {
          "internalType": "string",
          "name": "_uri",
          "type": "string"
        }
      ],
      "name": "setContractURI",
      "outputs": [],
      "stateMutability": "nonpayable",
      "type": "function"
    },
    {
      "inputs": [
        {
          "internalType": "address",
          "name": "_newOwner",
          "type": "address"
        }
      ],
      "name": "setOwner",
      "outputs": [],
      "stateMutability": "nonpayable",
      "type": "function"
    },
    {
      "inputs": [
        {
          "internalType": "address",
          "name": "_saleRecipient",
          "type": "address"
        }
      ],
      "name": "setPrimarySaleRecipient",
      "outputs": [],
      "stateMutability": "nonpayable",
      "type": "function"
    },
    {
      "inputs": [],
      "name": "symbol",
      "outputs": [
        {
          "internalType": "string",
          "name": "",
          "type": "string"
        }
      ],
      "stateMutability": "view",
      "type": "function"
    },
    {
      "inputs": [],
      "name": "totalSupply",
      "outputs": [
        {
          "internalType": "uint256",
          "name": "",
          "type": "uint256"
        }
      ],
      "stateMutability": "view",
      "type": "function"
    },
    {
      "inputs": [
        {
          "internalType": "address",
          "name": "to",
          "type": "address"
        },
        {
          "internalType": "uint256",
          "name": "amount",
          "type": "uint256"
        }
      ],
      "name": "transfer",
      "outputs": [
        {
          "internalType": "bool",
          "name": "",
          "type": "bool"
        }
      ],
      "stateMutability": "nonpayable",
      "type": "function"
    },
    {
      "inputs": [
        {
          "internalType": "address",
          "name": "from",
          "type": "address"
        },
        {
          "internalType": "address",
          "name": "to",
          "type": "address"
        },
        {
          "internalType": "uint256",
          "name": "amount",
          "type": "uint256"
        }
      ],
      "name": "transferFrom",
      "outputs": [
        {
          "internalType": "bool",
          "name": "",
          "type": "bool"
        }
      ],
      "stateMutability": "nonpayable",
      "type": "function"
    },
    {
      "inputs": [
        {
          "internalType": "address",
          "name": "_claimer",
          "type": "address"
        },
        {
          "internalType": "uint256",
          "name": "_quantity",
          "type": "uint256"
        },
        {
          "internalType": "address",
          "name": "_currency",
          "type": "address"
        },
        {
          "internalType": "uint256",
          "name": "_pricePerToken",
          "type": "uint256"
        },
        {
          "internalType": "bool",
          "name": "verifyMaxQuantityPerTransaction",
          "type": "bool"
        }
      ],
      "name": "verifyClaim",
      "outputs": [],
      "stateMutability": "view",
      "type": "function"
    },
    {
      "inputs": [
        {
          "internalType": "address",
          "name": "_claimer",
          "type": "address"
        },
        {
          "internalType": "uint256",
          "name": "_quantity",
          "type": "uint256"
        },
        {
          "components": [
            {
              "internalType": "bytes32[]",
              "name": "proof",
              "type": "bytes32[]"
            },
            {
              "internalType": "uint256",
              "name": "maxQuantityInAllowlist",
              "type": "uint256"
            }
          ],
          "internalType": "struct IDropSinglePhase.AllowlistProof",
          "name": "_allowlistProof",
          "type": "tuple"
        }
      ],
      "name": "verifyClaimMerkleProof",
      "outputs": [
        {
          "internalType": "bool",
          "name": "validMerkleProof",
          "type": "bool"
        },
        {
          "internalType": "uint256",
          "name": "merkleProofIndex",
          "type": "uint256"
        }
      ],
      "stateMutability": "view",
      "type": "function"
    }
  ],
  "bytecode": "0x6101006040527f6e71edae12b1b97f4d1f60370fef10105fa2faae0126114a169c64845d6126c960e0523480156200003657600080fd5b5060405162003fd638038062003fd6833981016040819052620000599162000405565b8282818181600590805190602001906200007592919062000292565b5080516200008b90600690602084019062000292565b50504660a052503060c052620000a0620000c5565b60805250620000b19050336200015c565b620000bc81620001ae565b505050620004cf565b60007f8b73c3c69bb8fe3d512ecc4cf759cc79239f7b179b0ffacaa9a75d522b39400f620000f2620001f8565b80516020918201206040805192830193909352918101919091527fc89efdaa54c0f20c7adf612882df0950f5a951637e0307cdcb4c672f298b8bc660608201524660808201523060a082015260c00160405160208183030381529060405280519060200120905090565b600180546001600160a01b038381166001600160a01b0319831681179093556040519116919082907f8292fce18fa69edf4db7b94ea2e58241df0ae57f97e0a6c9b29067028bf92d7690600090a35050565b600b80546001600160a01b0319166001600160a01b0383169081179091556040517f299d17e95023f496e0ffc4909cff1a61f74bb5eb18de6f900f4155bfa1b3b33390600090a250565b606060058054620002099062000492565b80601f0160208091040260200160405190810160405280929190818152602001828054620002379062000492565b8015620002885780601f106200025c5761010080835404028352916020019162000288565b820191906000526020600020905b8154815290600101906020018083116200026a57829003601f168201915b5050505050905090565b828054620002a09062000492565b90600052602060002090601f016020900481019282620002c457600085556200030f565b82601f10620002df57805160ff19168380011785556200030f565b828001600101855582156200030f579182015b828111156200030f578251825591602001919060010190620002f2565b506200031d92915062000321565b5090565b5b808211156200031d576000815560010162000322565b634e487b7160e01b600052604160045260246000fd5b600082601f8301126200036057600080fd5b81516001600160401b03808211156200037d576200037d62000338565b604051601f8301601f19908116603f01168101908282118183101715620003a857620003a862000338565b81604052838152602092508683858801011115620003c557600080fd5b600091505b83821015620003e95785820183015181830184015290820190620003ca565b83821115620003fb5760008385830101525b9695505050505050565b6000806000606084860312156200041b57600080fd5b83516001600160401b03808211156200043357600080fd5b62000441878388016200034e565b945060208601519150808211156200045857600080fd5b5062000467868287016200034e565b604086015190935090506001600160a01b03811681146200048757600080fd5b809150509250925092565b600181811c90821680620004a757607f821691505b60208210811415620004c957634e487b7160e01b600052602260045260246000fd5b50919050565b60805160a05160c05160e051613acd62000509600039600061153c015260006108ee01526000610918015260006109420152613acd6000f3fe60806040526004361061020f5760003560e01c80637ecebe0011610118578063ac9650d8116100a0578063d637ed591161006f578063d637ed591461065f578063dd62ed3e146106df578063e8a3d48514610725578063f1127ed81461073a578063ffbb7a131461078457600080fd5b8063ac9650d8146105bd578063b67875ce146105ea578063c3cda5201461061f578063d505accf1461063f57600080fd5b806395d89b41116100e757806395d89b41146105285780639ab24eb01461053d578063a457c2d71461055d578063a72e157d1461057d578063a9059cbb1461059d57600080fd5b80637ecebe00146104aa5780638da5cb5b146104ca5780638e539e8c146104e8578063938e3d7b1461050857600080fd5b80633a46b1a81161019b5780635c19a95c1161016a5780635c19a95c146103df5780636f4f2837146103ff5780636fcfff451461041f57806370a082311461045457806377312a9e1461048a57600080fd5b80633a46b1a81461035357806342966c6814610373578063587cde1e146103935780635ab31c1a146103cc57600080fd5b806318160ddd116101e257806318160ddd146102c357806323b872dd146102e2578063313ce567146103025780633644e5151461031e578063395093511461033357600080fd5b806306fdde0314610214578063079fe40e1461023f578063095ea7b31461027157806313af4035146102a1575b600080fd5b34801561022057600080fd5b506102296107bb565b604051610236919061328f565b60405180910390f35b34801561024b57600080fd5b50600b546001600160a01b03165b6040516001600160a01b039091168152602001610236565b34801561027d57600080fd5b5061029161028c3660046132be565b61084d565b6040519015158152602001610236565b3480156102ad57600080fd5b506102c16102bc3660046132e8565b610865565b005b3480156102cf57600080fd5b506004545b604051908152602001610236565b3480156102ee57600080fd5b506102916102fd366004613303565b6108bb565b34801561030e57600080fd5b5060405160128152602001610236565b34801561032a57600080fd5b506102d46108e1565b34801561033f57600080fd5b5061029161034e3660046132be565b610971565b34801561035f57600080fd5b506102d461036e3660046132be565b6109b0565b34801561037f57600080fd5b506102c161038e36600461333f565b610a23565b34801561039f57600080fd5b506102596103ae3660046132e8565b6001600160a01b039081166000908152600860205260409020541690565b6102c16103da3660046133f6565b610a8c565b3480156103eb57600080fd5b506102c16103fa3660046132e8565b610bcc565b34801561040b57600080fd5b506102c161041a3660046132e8565b610bd6565b34801561042b57600080fd5b5061043f61043a3660046132e8565b610c24565b60405163ffffffff9091168152602001610236565b34801561046057600080fd5b506102d461046f3660046132e8565b6001600160a01b031660009081526002602052604090205490565b34801561049657600080fd5b506102c16104a53660046134af565b610c4c565b3480156104b657600080fd5b506102d46104c53660046132e8565b610e37565b3480156104d657600080fd5b506001546001600160a01b0316610259565b3480156104f457600080fd5b506102d461050336600461333f565b610e55565b34801561051457600080fd5b506102c16105233660046134f0565b610eb1565b34801561053457600080fd5b50610229610eff565b34801561054957600080fd5b506102d46105583660046132e8565b610f0e565b34801561056957600080fd5b506102916105783660046132be565b610f95565b34801561058957600080fd5b506102c1610598366004613539565b611032565b3480156105a957600080fd5b506102916105b83660046132be565b611225565b3480156105c957600080fd5b506105dd6105d8366004613594565b611233565b6040516102369190613609565b3480156105f657600080fd5b5061060a6106053660046132e8565b611328565b60408051928352602083019190915201610236565b34801561062b57600080fd5b506102c161063a36600461367c565b611365565b34801561064b57600080fd5b506102c161065a3660046136d4565b6114e8565b34801561066b57600080fd5b50600c54600d54600e54600f5460105460115460125460135461069b97969594939291906001600160a01b031688565b604080519889526020890197909752958701949094526060860192909252608085015260a084015260c08301526001600160a01b031660e082015261010001610236565b3480156106eb57600080fd5b506102d46106fa36600461373e565b6001600160a01b03918216600090815260036020908152604080832093909416825291909152205490565b34801561073157600080fd5b50610229611642565b34801561074657600080fd5b5061075a610755366004613771565b6116d0565b60408051825163ffffffff1681526020928301516001600160e01b03169281019290925201610236565b34801561079057600080fd5b506107a461079f3660046137a6565b611754565b604080519215158352602083019190915201610236565b6060600580546107ca906137fd565b80601f01602080910402602001604051908101604052809291908181526020018280546107f6906137fd565b80156108435780601f1061081857610100808354040283529160200191610843565b820191906000526020600020905b81548152906001019060200180831161082657829003601f168201915b5050505050905090565b60003361085b818585611975565b5060019392505050565b61086d611a99565b6108af5760405162461bcd60e51b815260206004820152600e60248201526d139bdd08185d5d1a1bdc9a5e995960921b60448201526064015b60405180910390fd5b6108b881611ac6565b50565b6000336108c9858285611b18565b6108d4858585611baa565b60019150505b9392505050565b6000306001600160a01b037f00000000000000000000000000000000000000000000000000000000000000001614801561093a57507f000000000000000000000000000000000000000000000000000000000000000046145b1561096457507f000000000000000000000000000000000000000000000000000000000000000090565b61096c611d7e565b905090565b3360008181526003602090815260408083206001600160a01b038716845290915281205490919061085b90829086906109ab908790613848565b611975565b6000438210610a015760405162461bcd60e51b815260206004820152601f60248201527f4552433230566f7465733a20626c6f636b206e6f7420796574206d696e65640060448201526064016108a6565b6001600160a01b03831660009081526009602052604090206108da9083611e13565b33600090815260026020526040902054811115610a825760405162461bcd60e51b815260206004820152601260248201527f6e6f7420656e6f7567682062616c616e6365000000000000000000000000000060448201526064016108a6565b6108b83382611ed0565b6014546000610a9c338886611754565b509050600060208501351580610ab25750601154155b9050610ac13389898985611032565b818015610ad2575060008560200135115b15610b2157610b2133600085815260166020908152604080832072ffffffffffffffffffffffffffffffffffffff600886901c16845290915290208054600160ff9093169290921b9091179055565b87600c6002016000828254610b369190613848565b909155505060008381526015602090815260408083203384529091528120429055610b6390898989611ef0565b6000610b6f8a8a612011565b9050806001600160a01b038b16336001600160a01b03167fff097c7d8b1957a4ff09ef1361b5fb54dcede3941ba836d0beb9d10bec725de68c604051610bb791815260200190565b60405180910390a45b50505050505050505050565b6108b83382612026565b610bde611a99565b610c1b5760405162461bcd60e51b815260206004820152600e60248201526d139bdd08185d5d1a1bdc9a5e995960921b60448201526064016108a6565b6108b8816120a0565b6001600160a01b038116600090815260096020526040812054610c46906120ea565b92915050565b610c54611a99565b610c915760405162461bcd60e51b815260206004820152600e60248201526d139bdd08185d5d1a1bdc9a5e995960921b60448201526064016108a6565b601454600e548215610ce0575060003360405160609190911b6bffffffffffffffffffffffff191660208201524360348201526054016040516020818303038152906040528051906020012091505b8360200135811115610d345760405162461bcd60e51b815260206004820152601260248201527f6d617820737570706c7920636c61696d6564000000000000000000000000000060448201526064016108a6565b604051806101000160405280856000013581526020018560200135815260200182815260200185606001358152602001856080013581526020018560a0013581526020018560c0013581526020018560e0016020810190610d9591906132e8565b6001600160a01b039081169091528151600c556020820151600d55604080830151600e556060830151600f55608083015160105560a083015160115560c083015160125560e090920151601380546001600160a01b031916919092161790556014839055517f583ecce39d40d7b7653fd2cb1cdc19aa03714482ffd00fafa242355cdcd7908090610e299086908690613860565b60405180910390a150505050565b6001600160a01b038116600090815260076020526040812054610c46565b6000438210610ea65760405162461bcd60e51b815260206004820152601f60248201527f4552433230566f7465733a20626c6f636b206e6f7420796574206d696e65640060448201526064016108a6565b610c46600a83611e13565b610eb9611a99565b610ef65760405162461bcd60e51b815260206004820152600e60248201526d139bdd08185d5d1a1bdc9a5e995960921b60448201526064016108a6565b6108b881612153565b6060600680546107ca906137fd565b6001600160a01b0381166000908152600960205260408120548015610f82576001600160a01b0383166000908152600960205260409020610f506001836138d2565b81548110610f6057610f606138e9565b60009182526020909120015464010000000090046001600160e01b0316610f85565b60005b6001600160e01b03169392505050565b3360008181526003602090815260408083206001600160a01b03871684529091528120549091908381101561101a5760405162461bcd60e51b815260206004820152602560248201527f45524332303a2064656372656173656420616c6c6f77616e63652062656c6f77604482015264207a65726f60d81b60648201526084016108a6565b6110278286868403611975565b506001949350505050565b6040805161010081018252600c548152600d546020820152600e5491810191909152600f546060820152601054608082015260115460a082015260125460c08201526013546001600160a01b0390811660e0830181905290851614158061109d57508060c001518314155b156110ea5760405162461bcd60e51b815260206004820152601960248201527f496e76616c6964207072696365206f722063757272656e63790000000000000060448201526064016108a6565b84158061110257508180156111025750806060015185115b1561114f5760405162461bcd60e51b815260206004820152601060248201527f496e76616c6964207175616e746974790000000000000000000000000000000060448201526064016108a6565b80602001518582604001516111649190613848565b11156111b25760405162461bcd60e51b815260206004820152601260248201527f65786365656473206d617820737570706c79000000000000000000000000000060448201526064016108a6565b6000806111be88611328565b9150915042836000015111806111dd575081158015906111dd57508042105b1561121b5760405162461bcd60e51b815260206004820152600e60248201526d18d85b9d0818db185a5b481e595d60921b60448201526064016108a6565b5050505050505050565b60003361085b818585611baa565b60608167ffffffffffffffff81111561124e5761124e61336a565b60405190808252806020026020018201604052801561128157816020015b606081526020019060019003908161126c5790505b50905060005b82811015611321576112f1308585848181106112a5576112a56138e9565b90506020028101906112b791906138ff565b8080601f01602080910402602001604051908101604052809392919081815260200183838082843760009201919091525061223492505050565b828281518110611303576113036138e9565b602002602001018190525080806113199061394d565b915050611287565b5092915050565b60145460009081526015602090815260408083206001600160a01b038516845290915290205460105481018181101561136057506000195b915091565b834211156113b55760405162461bcd60e51b815260206004820152601d60248201527f4552433230566f7465733a207369676e6174757265206578706972656400000060448201526064016108a6565b604080517fe48329057bfd03d55e49b547132e39cffd9c1820ad7b9d4c5307691425d15adf60208201526001600160a01b03881691810191909152606081018690526080810185905260009060a001604051602081830303815290604052805190602001209050600061146a6114296108e1565b8360405161190160f01b6020820152602281018390526042810182905260009060620160405160208183030381529060405280519060200120905092915050565b9050600061147a82878787612259565b905061148581612281565b88146114d35760405162461bcd60e51b815260206004820152601960248201527f4552433230566f7465733a20696e76616c6964206e6f6e63650000000000000060448201526064016108a6565b6114dd818a612026565b505050505050505050565b834211156115385760405162461bcd60e51b815260206004820152601d60248201527f45524332305065726d69743a206578706972656420646561646c696e6500000060448201526064016108a6565b60007f00000000000000000000000000000000000000000000000000000000000000008888886115678c612281565b6040805160208101969096526001600160a01b0394851690860152929091166060840152608083015260a082015260c0810186905260e00160405160208183030381529060405280519060200120905060006115c46114296108e1565b905060006115d482878787612259565b9050896001600160a01b0316816001600160a01b0316146116375760405162461bcd60e51b815260206004820152601e60248201527f45524332305065726d69743a20696e76616c6964207369676e6174757265000060448201526064016108a6565b610bc08a8a8a611975565b6000805461164f906137fd565b80601f016020809104026020016040519081016040528092919081815260200182805461167b906137fd565b80156116c85780601f1061169d576101008083540402835291602001916116c8565b820191906000526020600020905b8154815290600101906020018083116116ab57829003601f168201915b505050505081565b60408051808201909152600080825260208201526001600160a01b0383166000908152600960205260409020805463ffffffff8416908110611714576117146138e9565b60009182526020918290206040805180820190915291015463ffffffff8116825264010000000090046001600160e01b0316918101919091529392505050565b6040805161010081018252600c548152600d546020820152600e5491810191909152600f546060820152601054608082015260115460a0820181905260125460c08301526013546001600160a01b031660e083015260009182911561196c5761183c6117c08580613968565b8080602002602001604051908101604052809392919081815260200183836020028082843760009201919091525050505060a08301516040516bffffffffffffffffffffffff1960608b901b166020808301919091528801356034820152605401604051602081830303815290604052805190602001206122a9565b90935091508261188e5760405162461bcd60e51b815260206004820152601060248201527f6e6f7420696e20616c6c6f776c6973740000000000000000000000000000000060448201526064016108a6565b601454600090815260166020908152604080832072ffffffffffffffffffffffffffffffffffffff60088b901c168452909152902054600160ff88161b16156119095760405162461bcd60e51b815260206004820152600d60248201526c1c1c9bdbd98818db185a5b5959609a1b60448201526064016108a6565b60208401351580159061191f5750836020013585115b1561196c5760405162461bcd60e51b815260206004820152601160248201527f496e76616c6964207174792070726f6f6600000000000000000000000000000060448201526064016108a6565b50935093915050565b6001600160a01b0383166119d75760405162461bcd60e51b8152602060048201526024808201527f45524332303a20617070726f76652066726f6d20746865207a65726f206164646044820152637265737360e01b60648201526084016108a6565b6001600160a01b038216611a385760405162461bcd60e51b815260206004820152602260248201527f45524332303a20617070726f766520746f20746865207a65726f206164647265604482015261737360f01b60648201526084016108a6565b6001600160a01b0383811660008181526003602090815260408083209487168084529482529182902085905590518481527f8c5be1e5ebec7d5bd14f71427d1e84f3dd0314c0f7b2291e5b200ac8c7c3b925910160405180910390a3505050565b6000611aad6001546001600160a01b031690565b6001600160a01b0316336001600160a01b031614905090565b600180546001600160a01b038381166001600160a01b0319831681179093556040519116919082907f8292fce18fa69edf4db7b94ea2e58241df0ae57f97e0a6c9b29067028bf92d7690600090a35050565b6001600160a01b038381166000908152600360209081526040808320938616835292905220546000198114611ba45781811015611b975760405162461bcd60e51b815260206004820152601d60248201527f45524332303a20696e73756666696369656e7420616c6c6f77616e636500000060448201526064016108a6565b611ba48484848403611975565b50505050565b6001600160a01b038316611c0e5760405162461bcd60e51b815260206004820152602560248201527f45524332303a207472616e736665722066726f6d20746865207a65726f206164604482015264647265737360d81b60648201526084016108a6565b6001600160a01b038216611c705760405162461bcd60e51b815260206004820152602360248201527f45524332303a207472616e7366657220746f20746865207a65726f206164647260448201526265737360e81b60648201526084016108a6565b6001600160a01b03831660009081526002602052604090205481811015611ce85760405162461bcd60e51b815260206004820152602660248201527f45524332303a207472616e7366657220616d6f756e7420657863656564732062604482015265616c616e636560d01b60648201526084016108a6565b6001600160a01b03808516600090815260026020526040808220858503905591851681529081208054849290611d1f908490613848565b92505081905550826001600160a01b0316846001600160a01b03167fddf252ad1be2c89b69c2b068fc378daa952ba7f163c4a11628f55a4df523b3ef84604051611d6b91815260200190565b60405180910390a3611ba484848461237c565b60007f8b73c3c69bb8fe3d512ecc4cf759cc79239f7b179b0ffacaa9a75d522b39400f611da96107bb565b80516020918201206040805192830193909352918101919091527fc89efdaa54c0f20c7adf612882df0950f5a951637e0307cdcb4c672f298b8bc660608201524660808201523060a082015260c00160405160208183030381529060405280519060200120905090565b8154600090815b81811015611e77576000611e2e82846123ae565b905084868281548110611e4357611e436138e9565b60009182526020909120015463ffffffff161115611e6357809250611e71565b611e6e816001613848565b91505b50611e1a565b8115611ebb5784611e896001846138d2565b81548110611e9957611e996138e9565b60009182526020909120015464010000000090046001600160e01b0316611ebe565b60005b6001600160e01b031695945050505050565b611eda82826123c9565b611ba4600a61251e8361252a565b505050505050565b80611efa57611ba4565b6000670de0b6b3a7640000611f0f83866139b2565b611f1991906139d1565b905060008111611f6b5760405162461bcd60e51b815260206004820152601060248201527f7175616e7469747920746f6f206c6f770000000000000000000000000000000060448201526064016108a6565b6001600160a01b03831673eeeeeeeeeeeeeeeeeeeeeeeeeeeeeeeeeeeeeeee1415611fdf57803414611fdf5760405162461bcd60e51b815260206004820152601660248201527f4d7573742073656e6420746f74616c2070726963652e0000000000000000000060448201526064016108a6565b60006001600160a01b03861615611ff65785612003565b600b546001600160a01b03165b9050611ee8843383856126a2565b600061201d83836126ec565b50600092915050565b6001600160a01b03828116600081815260086020818152604080842080546002845282862054949093528787166001600160a01b03198416811790915590519190951694919391928592917f3134e8a2e6d97e929a7e54011ea5485d7d196dd5f0ba4d4ef95803e8e3fc257f9190a4611ba4828483612783565b600b80546001600160a01b0319166001600160a01b0383169081179091556040517f299d17e95023f496e0ffc4909cff1a61f74bb5eb18de6f900f4155bfa1b3b33390600090a250565b600063ffffffff82111561214f5760405162461bcd60e51b815260206004820152602660248201527f53616665436173743a2076616c756520646f65736e27742066697420696e203360448201526532206269747360d01b60648201526084016108a6565b5090565b6000808054612161906137fd565b80601f016020809104026020016040519081016040528092919081815260200182805461218d906137fd565b80156121da5780601f106121af576101008083540402835291602001916121da565b820191906000526020600020905b8154815290600101906020018083116121bd57829003601f168201915b505085519394506121f6936000935060208701925090506131a7565b507fc9c7c3fe08b88b4df9d4d47ef47d2c43d55c025a0ba88ca442580ed9e7348a1681836040516122289291906139f3565b60405180910390a15050565b60606108da8383604051806060016040528060278152602001613a71602791396128c0565b600080600061226a8787878761299d565b9150915061227781612a8a565b5095945050505050565b6001600160a01b03811660009081526007602052604090208054600181018255905b50919050565b6000808281805b875181101561236b576122c46002836139b2565b915060008882815181106122da576122da6138e9565b6020026020010151905080841161231c576040805160208101869052908101829052606001604051602081830303815290604052805190602001209350612358565b60408051602081018390529081018590526060016040516020818303038152906040528051906020012093506001836123559190613848565b92505b50806123638161394d565b9150506122b0565b50941495939450505050565b505050565b6001600160a01b0383811660009081526008602052604080822054858416835291205461237792918216911683612783565b60006123bd60028484186139d1565b6108da90848416613848565b6001600160a01b0382166124295760405162461bcd60e51b815260206004820152602160248201527f45524332303a206275726e2066726f6d20746865207a65726f206164647265736044820152607360f81b60648201526084016108a6565b6001600160a01b0382166000908152600260205260409020548181101561249d5760405162461bcd60e51b815260206004820152602260248201527f45524332303a206275726e20616d6f756e7420657863656564732062616c616e604482015261636560f01b60648201526084016108a6565b6001600160a01b03831660009081526002602052604081208383039055600480548492906124cc9084906138d2565b90915550506040518281526000906001600160a01b038516907fddf252ad1be2c89b69c2b068fc378daa952ba7f163c4a11628f55a4df523b3ef9060200160405180910390a36123778360008461237c565b60006108da82846138d2565b82546000908190801561257557856125436001836138d2565b81548110612553576125536138e9565b60009182526020909120015464010000000090046001600160e01b0316612578565b60005b6001600160e01b0316925061259183858763ffffffff16565b91506000811180156125cf575043866125ab6001846138d2565b815481106125bb576125bb6138e9565b60009182526020909120015463ffffffff16145b1561262f576125dd82612c45565b866125e96001846138d2565b815481106125f9576125f96138e9565b9060005260206000200160000160046101000a8154816001600160e01b0302191690836001600160e01b0316021790555061196c565b856040518060400160405280612644436120ea565b63ffffffff16815260200161265885612c45565b6001600160e01b0390811690915282546001810184556000938452602093849020835194909301519091166401000000000263ffffffff9093169290921791015550935093915050565b806126ac57611ba4565b6001600160a01b03841673eeeeeeeeeeeeeeeeeeeeeeeeeeeeeeeeeeeeeeee14156126e0576126db8282612cae565b611ba4565b611ba484848484612d51565b6126f68282612daa565b6004546001600160e01b0310156127755760405162461bcd60e51b815260206004820152603060248201527f4552433230566f7465733a20746f74616c20737570706c79207269736b73206f60448201527f766572666c6f77696e6720766f7465730000000000000000000000000000000060648201526084016108a6565b611ba4600a612e958361252a565b816001600160a01b0316836001600160a01b0316141580156127a55750600081115b15612377576001600160a01b03831615612833576001600160a01b038316600090815260096020526040812081906127e09061251e8561252a565b91509150846001600160a01b03167fdec2bacdd2f05b59de34da9b523dff8be42e5e38e818c82fdb0bae774387a7248383604051612828929190918252602082015260400190565b60405180910390a250505b6001600160a01b03821615612377576001600160a01b0382166000908152600960205260408120819061286990612e958561252a565b91509150836001600160a01b03167fdec2bacdd2f05b59de34da9b523dff8be42e5e38e818c82fdb0bae774387a72483836040516128b1929190918252602082015260400190565b60405180910390a25050505050565b60606001600160a01b0384163b6129285760405162461bcd60e51b815260206004820152602660248201527f416464726573733a2064656c65676174652063616c6c20746f206e6f6e2d636f6044820152651b9d1c9858dd60d21b60648201526084016108a6565b600080856001600160a01b0316856040516129439190613a21565b600060405180830381855af49150503d806000811461297e576040519150601f19603f3d011682016040523d82523d6000602084013e612983565b606091505b5091509150612993828286612ea1565b9695505050505050565b6000807f7fffffffffffffffffffffffffffffff5d576e7357a4501ddfe92f46681b20a08311156129d45750600090506003612a81565b8460ff16601b141580156129ec57508460ff16601c14155b156129fd5750600090506004612a81565b6040805160008082526020820180845289905260ff881692820192909252606081018690526080810185905260019060a0016020604051602081039080840390855afa158015612a51573d6000803e3d6000fd5b5050604051601f1901519150506001600160a01b038116612a7a57600060019250925050612a81565b9150600090505b94509492505050565b6000816004811115612a9e57612a9e613a3d565b1415612aa75750565b6001816004811115612abb57612abb613a3d565b1415612b095760405162461bcd60e51b815260206004820152601860248201527f45434453413a20696e76616c6964207369676e6174757265000000000000000060448201526064016108a6565b6002816004811115612b1d57612b1d613a3d565b1415612b6b5760405162461bcd60e51b815260206004820152601f60248201527f45434453413a20696e76616c6964207369676e6174757265206c656e6774680060448201526064016108a6565b6003816004811115612b7f57612b7f613a3d565b1415612bd85760405162461bcd60e51b815260206004820152602260248201527f45434453413a20696e76616c6964207369676e6174757265202773272076616c604482015261756560f01b60648201526084016108a6565b6004816004811115612bec57612bec613a3d565b14156108b85760405162461bcd60e51b815260206004820152602260248201527f45434453413a20696e76616c6964207369676e6174757265202776272076616c604482015261756560f01b60648201526084016108a6565b60006001600160e01b0382111561214f5760405162461bcd60e51b815260206004820152602760248201527f53616665436173743a2076616c756520646f65736e27742066697420696e20326044820152663234206269747360c81b60648201526084016108a6565b6000826001600160a01b03168260405160006040518083038185875af1925050503d8060008114612cfb576040519150601f19603f3d011682016040523d82523d6000602084013e612d00565b606091505b50509050806123775760405162461bcd60e51b815260206004820152601c60248201527f6e617469766520746f6b656e207472616e73666572206661696c65640000000060448201526064016108a6565b816001600160a01b0316836001600160a01b03161415612d7057611ba4565b6001600160a01b038316301415612d95576126db6001600160a01b0385168383612eda565b611ba46001600160a01b038516848484612f55565b6001600160a01b038216612e005760405162461bcd60e51b815260206004820152601f60248201527f45524332303a206d696e7420746f20746865207a65726f20616464726573730060448201526064016108a6565b8060046000828254612e129190613848565b90915550506001600160a01b03821660009081526002602052604081208054839290612e3f908490613848565b90915550506040518181526001600160a01b038316906000907fddf252ad1be2c89b69c2b068fc378daa952ba7f163c4a11628f55a4df523b3ef9060200160405180910390a3612e916000838361237c565b5050565b60006108da8284613848565b60608315612eb05750816108da565b825115612ec05782518084602001fd5b8160405162461bcd60e51b81526004016108a6919061328f565b6040516001600160a01b03831660248201526044810182905261237790849063a9059cbb60e01b906064015b60408051601f198184030181529190526020810180516001600160e01b03167fffffffff0000000000000000000000000000000000000000000000000000000090931692909217909152612f8d565b6040516001600160a01b0380851660248301528316604482015260648101829052611ba49085906323b872dd60e01b90608401612f06565b6000612fe2826040518060400160405280602081526020017f5361666545524332303a206c6f772d6c6576656c2063616c6c206661696c6564815250856001600160a01b031661305f9092919063ffffffff16565b80519091501561237757808060200190518101906130009190613a53565b6123775760405162461bcd60e51b815260206004820152602a60248201527f5361666545524332303a204552433230206f7065726174696f6e20646964206e6044820152691bdd081cdd58d8d9595960b21b60648201526084016108a6565b606061306e8484600085613076565b949350505050565b6060824710156130d75760405162461bcd60e51b815260206004820152602660248201527f416464726573733a20696e73756666696369656e742062616c616e636520666f6044820152651c8818d85b1b60d21b60648201526084016108a6565b6001600160a01b0385163b61312e5760405162461bcd60e51b815260206004820152601d60248201527f416464726573733a2063616c6c20746f206e6f6e2d636f6e747261637400000060448201526064016108a6565b600080866001600160a01b0316858760405161314a9190613a21565b60006040518083038185875af1925050503d8060008114613187576040519150601f19603f3d011682016040523d82523d6000602084013e61318c565b606091505b509150915061319c828286612ea1565b979650505050505050565b8280546131b3906137fd565b90600052602060002090601f0160209004810192826131d5576000855561321b565b82601f106131ee57805160ff191683800117855561321b565b8280016001018555821561321b579182015b8281111561321b578251825591602001919060010190613200565b5061214f9291505b8082111561214f5760008155600101613223565b60005b8381101561325257818101518382015260200161323a565b83811115611ba45750506000910152565b6000815180845261327b816020860160208601613237565b601f01601f19169290920160200192915050565b6020815260006108da6020830184613263565b80356001600160a01b03811681146132b957600080fd5b919050565b600080604083850312156132d157600080fd5b6132da836132a2565b946020939093013593505050565b6000602082840312156132fa57600080fd5b6108da826132a2565b60008060006060848603121561331857600080fd5b613321846132a2565b925061332f602085016132a2565b9150604084013590509250925092565b60006020828403121561335157600080fd5b5035919050565b6000604082840312156122a357600080fd5b634e487b7160e01b600052604160045260246000fd5b600067ffffffffffffffff8084111561339b5761339b61336a565b604051601f8501601f19908116603f011681019082821181831017156133c3576133c361336a565b816040528093508581528686860111156133dc57600080fd5b858560208301376000602087830101525050509392505050565b60008060008060008060c0878903121561340f57600080fd5b613418876132a2565b95506020870135945061342d604088016132a2565b935060608701359250608087013567ffffffffffffffff8082111561345157600080fd5b61345d8a838b01613358565b935060a089013591508082111561347357600080fd5b508701601f8101891361348557600080fd5b61349489823560208401613380565b9150509295509295509295565b80151581146108b857600080fd5b6000808284036101208112156134c457600080fd5b610100808212156134d457600080fd5b84935083013590506134e5816134a1565b809150509250929050565b60006020828403121561350257600080fd5b813567ffffffffffffffff81111561351957600080fd5b8201601f8101841361352a57600080fd5b61306e84823560208401613380565b600080600080600060a0868803121561355157600080fd5b61355a866132a2565b94506020860135935061356f604087016132a2565b9250606086013591506080860135613586816134a1565b809150509295509295909350565b600080602083850312156135a757600080fd5b823567ffffffffffffffff808211156135bf57600080fd5b818501915085601f8301126135d357600080fd5b8135818111156135e257600080fd5b8660208260051b85010111156135f757600080fd5b60209290920196919550909350505050565b6000602080830181845280855180835260408601915060408160051b870101925083870160005b8281101561365e57603f1988860301845261364c858351613263565b94509285019290850190600101613630565b5092979650505050505050565b803560ff811681146132b957600080fd5b60008060008060008060c0878903121561369557600080fd5b61369e876132a2565b955060208701359450604087013593506136ba6060880161366b565b92506080870135915060a087013590509295509295509295565b600080600080600080600060e0888a0312156136ef57600080fd5b6136f8886132a2565b9650613706602089016132a2565b955060408801359450606088013593506137226080890161366b565b925060a0880135915060c0880135905092959891949750929550565b6000806040838503121561375157600080fd5b61375a836132a2565b9150613768602084016132a2565b90509250929050565b6000806040838503121561378457600080fd5b61378d836132a2565b9150602083013563ffffffff811681146134e557600080fd5b6000806000606084860312156137bb57600080fd5b6137c4846132a2565b925060208401359150604084013567ffffffffffffffff8111156137e757600080fd5b6137f386828701613358565b9150509250925092565b600181811c9082168061381157607f821691505b602082108114156122a357634e487b7160e01b600052602260045260246000fd5b634e487b7160e01b600052601160045260246000fd5b6000821982111561385b5761385b613832565b500190565b600061012082019050833582526020840135602083015260408401356040830152606084013560608301526080840135608083015260a084013560a083015260c084013560c08301526001600160a01b036138bd60e086016132a2565b1660e083015291151561010090910152919050565b6000828210156138e4576138e4613832565b500390565b634e487b7160e01b600052603260045260246000fd5b6000808335601e1984360301811261391657600080fd5b83018035915067ffffffffffffffff82111561393157600080fd5b60200191503681900382131561394657600080fd5b9250929050565b600060001982141561396157613961613832565b5060010190565b6000808335601e1984360301811261397f57600080fd5b83018035915067ffffffffffffffff82111561399a57600080fd5b6020019150600581901b360382131561394657600080fd5b60008160001904831182151516156139cc576139cc613832565b500290565b6000826139ee57634e487b7160e01b600052601260045260246000fd5b500490565b604081526000613a066040830185613263565b8281036020840152613a188185613263565b95945050505050565b60008251613a33818460208701613237565b9190910192915050565b634e487b7160e01b600052602160045260246000fd5b600060208284031215613a6557600080fd5b81516108da816134a156fe416464726573733a206c6f772d6c6576656c2064656c65676174652063616c6c206661696c6564a26469706673582212203b84d078bd9b7bb4b10b12bd174a52a587dad4b3ee3f77d43389d2714174894d64736f6c634300080c0033",
  "linkReferences": {},
  "deployedLinkReferences": {}
}