{
  "_format": "hh-sol-artifact-1",
  "contractName": "ERC20SignatureMintVote",
  "sourceName": "contracts/base/ERC20SignatureMintVote.sol",
  "abi": [
    {
      "inputs": [
        {
          "internalType": "string",
          "name": "_name",
          "type": "string"
        },
        {
          "internalType": "string",
          "name": "_symbol",
          "type": "string"
        },
        {
          "internalType": "address",
          "name": "_primarySaleRecipient",
          "type": "address"
        }
      ],
      "stateMutability": "nonpayable",
      "type": "constructor"
    },
    {
      "anonymous": false,
      "inputs": [
        {
          "indexed": true,
          "internalType": "address",
          "name": "owner",
          "type": "address"
        },
        {
          "indexed": true,
          "internalType": "address",
          "name": "spender",
          "type": "address"
        },
        {
          "indexed": false,
          "internalType": "uint256",
          "name": "value",
          "type": "uint256"
        }
      ],
      "name": "Approval",
      "type": "event"
    },
    {
      "anonymous": false,
      "inputs": [
        {
          "indexed": false,
          "internalType": "string",
          "name": "prevURI",
          "type": "string"
        },
        {
          "indexed": false,
          "internalType": "string",
          "name": "newURI",
          "type": "string"
        }
      ],
      "name": "ContractURIUpdated",
      "type": "event"
    },
    {
      "anonymous": false,
      "inputs": [
        {
          "indexed": true,
          "internalType": "address",
          "name": "delegator",
          "type": "address"
        },
        {
          "indexed": true,
          "internalType": "address",
          "name": "fromDelegate",
          "type": "address"
        },
        {
          "indexed": true,
          "internalType": "address",
          "name": "toDelegate",
          "type": "address"
        }
      ],
      "name": "DelegateChanged",
      "type": "event"
    },
    {
      "anonymous": false,
      "inputs": [
        {
          "indexed": true,
          "internalType": "address",
          "name": "delegate",
          "type": "address"
        },
        {
          "indexed": false,
          "internalType": "uint256",
          "name": "previousBalance",
          "type": "uint256"
        },
        {
          "indexed": false,
          "internalType": "uint256",
          "name": "newBalance",
          "type": "uint256"
        }
      ],
      "name": "DelegateVotesChanged",
      "type": "event"
    },
    {
      "anonymous": false,
      "inputs": [
        {
          "indexed": true,
          "internalType": "address",
          "name": "prevOwner",
          "type": "address"
        },
        {
          "indexed": true,
          "internalType": "address",
          "name": "newOwner",
          "type": "address"
        }
      ],
      "name": "OwnerUpdated",
      "type": "event"
    },
    {
      "anonymous": false,
      "inputs": [
        {
          "indexed": true,
          "internalType": "address",
          "name": "recipient",
          "type": "address"
        }
      ],
      "name": "PrimarySaleRecipientUpdated",
      "type": "event"
    },
    {
      "anonymous": false,
      "inputs": [
        {
          "indexed": true,
          "internalType": "address",
          "name": "signer",
          "type": "address"
        },
        {
          "indexed": true,
          "internalType": "address",
          "name": "mintedTo",
          "type": "address"
        },
        {
          "components": [
            {
              "internalType": "address",
              "name": "to",
              "type": "address"
            },
            {
              "internalType": "address",
              "name": "primarySaleRecipient",
              "type": "address"
            },
            {
              "internalType": "uint256",
              "name": "quantity",
              "type": "uint256"
            },
            {
              "internalType": "uint256",
              "name": "pricePerToken",
              "type": "uint256"
            },
            {
              "internalType": "address",
              "name": "currency",
              "type": "address"
            },
            {
              "internalType": "uint128",
              "name": "validityStartTimestamp",
              "type": "uint128"
            },
            {
              "internalType": "uint128",
              "name": "validityEndTimestamp",
              "type": "uint128"
            },
            {
              "internalType": "bytes32",
              "name": "uid",
              "type": "bytes32"
            }
          ],
          "indexed": false,
          "internalType": "struct ISignatureMintERC20.MintRequest",
          "name": "mintRequest",
          "type": "tuple"
        }
      ],
      "name": "TokensMintedWithSignature",
      "type": "event"
    },
    {
      "anonymous": false,
      "inputs": [
        {
          "indexed": true,
          "internalType": "address",
          "name": "from",
          "type": "address"
        },
        {
          "indexed": true,
          "internalType": "address",
          "name": "to",
          "type": "address"
        },
        {
          "indexed": false,
          "internalType": "uint256",
          "name": "value",
          "type": "uint256"
        }
      ],
      "name": "Transfer",
      "type": "event"
    },
    {
      "inputs": [],
      "name": "DOMAIN_SEPARATOR",
      "outputs": [
        {
          "internalType": "bytes32",
          "name": "",
          "type": "bytes32"
        }
      ],
      "stateMutability": "view",
      "type": "function"
    },
    {
      "inputs": [
        {
          "internalType": "address",
          "name": "owner",
          "type": "address"
        },
        {
          "internalType": "address",
          "name": "spender",
          "type": "address"
        }
      ],
      "name": "allowance",
      "outputs": [
        {
          "internalType": "uint256",
          "name": "",
          "type": "uint256"
        }
      ],
      "stateMutability": "view",
      "type": "function"
    },
    {
      "inputs": [
        {
          "internalType": "address",
          "name": "spender",
          "type": "address"
        },
        {
          "internalType": "uint256",
          "name": "amount",
          "type": "uint256"
        }
      ],
      "name": "approve",
      "outputs": [
        {
          "internalType": "bool",
          "name": "",
          "type": "bool"
        }
      ],
      "stateMutability": "nonpayable",
      "type": "function"
    },
    {
      "inputs": [
        {
          "internalType": "address",
          "name": "account",
          "type": "address"
        }
      ],
      "name": "balanceOf",
      "outputs": [
        {
          "internalType": "uint256",
          "name": "",
          "type": "uint256"
        }
      ],
      "stateMutability": "view",
      "type": "function"
    },
    {
      "inputs": [
        {
          "internalType": "uint256",
          "name": "_amount",
          "type": "uint256"
        }
      ],
      "name": "burn",
      "outputs": [],
      "stateMutability": "nonpayable",
      "type": "function"
    },
    {
      "inputs": [
        {
          "internalType": "address",
          "name": "account",
          "type": "address"
        },
        {
          "internalType": "uint32",
          "name": "pos",
          "type": "uint32"
        }
      ],
      "name": "checkpoints",
      "outputs": [
        {
          "components": [
            {
              "internalType": "uint32",
              "name": "fromBlock",
              "type": "uint32"
            },
            {
              "internalType": "uint224",
              "name": "votes",
              "type": "uint224"
            }
          ],
          "internalType": "struct ERC20Votes.Checkpoint",
          "name": "",
          "type": "tuple"
        }
      ],
      "stateMutability": "view",
      "type": "function"
    },
    {
      "inputs": [],
      "name": "contractURI",
      "outputs": [
        {
          "internalType": "string",
          "name": "",
          "type": "string"
        }
      ],
      "stateMutability": "view",
      "type": "function"
    },
    {
      "inputs": [],
      "name": "decimals",
      "outputs": [
        {
          "internalType": "uint8",
          "name": "",
          "type": "uint8"
        }
      ],
      "stateMutability": "view",
      "type": "function"
    },
    {
      "inputs": [
        {
          "internalType": "address",
          "name": "spender",
          "type": "address"
        },
        {
          "internalType": "uint256",
          "name": "subtractedValue",
          "type": "uint256"
        }
      ],
      "name": "decreaseAllowance",
      "outputs": [
        {
          "internalType": "bool",
          "name": "",
          "type": "bool"
        }
      ],
      "stateMutability": "nonpayable",
      "type": "function"
    },
    {
      "inputs": [
        {
          "internalType": "address",
          "name": "delegatee",
          "type": "address"
        }
      ],
      "name": "delegate",
      "outputs": [],
      "stateMutability": "nonpayable",
      "type": "function"
    },
    {
      "inputs": [
        {
          "internalType": "address",
          "name": "delegatee",
          "type": "address"
        },
        {
          "internalType": "uint256",
          "name": "nonce",
          "type": "uint256"
        },
        {
          "internalType": "uint256",
          "name": "expiry",
          "type": "uint256"
        },
        {
          "internalType": "uint8",
          "name": "v",
          "type": "uint8"
        },
        {
          "internalType": "bytes32",
          "name": "r",
          "type": "bytes32"
        },
        {
          "internalType": "bytes32",
          "name": "s",
          "type": "bytes32"
        }
      ],
      "name": "delegateBySig",
      "outputs": [],
      "stateMutability": "nonpayable",
      "type": "function"
    },
    {
      "inputs": [
        {
          "internalType": "address",
          "name": "account",
          "type": "address"
        }
      ],
      "name": "delegates",
      "outputs": [
        {
          "internalType": "address",
          "name": "",
          "type": "address"
        }
      ],
      "stateMutability": "view",
      "type": "function"
    },
    {
      "inputs": [
        {
          "internalType": "uint256",
          "name": "blockNumber",
          "type": "uint256"
        }
      ],
      "name": "getPastTotalSupply",
      "outputs": [
        {
          "internalType": "uint256",
          "name": "",
          "type": "uint256"
        }
      ],
      "stateMutability": "view",
      "type": "function"
    },
    {
      "inputs": [
        {
          "internalType": "address",
          "name": "account",
          "type": "address"
        },
        {
          "internalType": "uint256",
          "name": "blockNumber",
          "type": "uint256"
        }
      ],
      "name": "getPastVotes",
      "outputs": [
        {
          "internalType": "uint256",
          "name": "",
          "type": "uint256"
        }
      ],
      "stateMutability": "view",
      "type": "function"
    },
    {
      "inputs": [
        {
          "internalType": "address",
          "name": "account",
          "type": "address"
        }
      ],
      "name": "getVotes",
      "outputs": [
        {
          "internalType": "uint256",
          "name": "",
          "type": "uint256"
        }
      ],
      "stateMutability": "view",
      "type": "function"
    },
    {
      "inputs": [
        {
          "internalType": "address",
          "name": "spender",
          "type": "address"
        },
        {
          "internalType": "uint256",
          "name": "addedValue",
          "type": "uint256"
        }
      ],
      "name": "increaseAllowance",
      "outputs": [
        {
          "internalType": "bool",
          "name": "",
          "type": "bool"
        }
      ],
      "stateMutability": "nonpayable",
      "type": "function"
    },
    {
      "inputs": [
        {
          "internalType": "address",
          "name": "_to",
          "type": "address"
        },
        {
          "internalType": "uint256",
          "name": "_amount",
          "type": "uint256"
        }
      ],
      "name": "mintTo",
      "outputs": [],
      "stateMutability": "nonpayable",
      "type": "function"
    },
    {
      "inputs": [
        {
          "components": [
            {
              "internalType": "address",
              "name": "to",
              "type": "address"
            },
            {
              "internalType": "address",
              "name": "primarySaleRecipient",
              "type": "address"
            },
            {
              "internalType": "uint256",
              "name": "quantity",
              "type": "uint256"
            },
            {
              "internalType": "uint256",
              "name": "pricePerToken",
              "type": "uint256"
            },
            {
              "internalType": "address",
              "name": "currency",
              "type": "address"
            },
            {
              "internalType": "uint128",
              "name": "validityStartTimestamp",
              "type": "uint128"
            },
            {
              "internalType": "uint128",
              "name": "validityEndTimestamp",
              "type": "uint128"
            },
            {
              "internalType": "bytes32",
              "name": "uid",
              "type": "bytes32"
            }
          ],
          "internalType": "struct ISignatureMintERC20.MintRequest",
          "name": "_req",
          "type": "tuple"
        },
        {
          "internalType": "bytes",
          "name": "_signature",
          "type": "bytes"
        }
      ],
      "name": "mintWithSignature",
      "outputs": [
        {
          "internalType": "address",
          "name": "signer",
          "type": "address"
        }
      ],
      "stateMutability": "payable",
      "type": "function"
    },
    {
      "inputs": [
        {
          "internalType": "bytes[]",
          "name": "data",
          "type": "bytes[]"
        }
      ],
      "name": "multicall",
      "outputs": [
        {
          "internalType": "bytes[]",
          "name": "results",
          "type": "bytes[]"
        }
      ],
      "stateMutability": "nonpayable",
      "type": "function"
    },
    {
      "inputs": [],
      "name": "name",
      "outputs": [
        {
          "internalType": "string",
          "name": "",
          "type": "string"
        }
      ],
      "stateMutability": "view",
      "type": "function"
    },
    {
      "inputs": [
        {
          "internalType": "address",
          "name": "owner",
          "type": "address"
        }
      ],
      "name": "nonces",
      "outputs": [
        {
          "internalType": "uint256",
          "name": "",
          "type": "uint256"
        }
      ],
      "stateMutability": "view",
      "type": "function"
    },
    {
      "inputs": [
        {
          "internalType": "address",
          "name": "account",
          "type": "address"
        }
      ],
      "name": "numCheckpoints",
      "outputs": [
        {
          "internalType": "uint32",
          "name": "",
          "type": "uint32"
        }
      ],
      "stateMutability": "view",
      "type": "function"
    },
    {
      "inputs": [],
      "name": "owner",
      "outputs": [
        {
          "internalType": "address",
          "name": "",
          "type": "address"
        }
      ],
      "stateMutability": "view",
      "type": "function"
    },
    {
      "inputs": [
        {
          "internalType": "address",
          "name": "owner",
          "type": "address"
        },
        {
          "internalType": "address",
          "name": "spender",
          "type": "address"
        },
        {
          "internalType": "uint256",
          "name": "value",
          "type": "uint256"
        },
        {
          "internalType": "uint256",
          "name": "deadline",
          "type": "uint256"
        },
        {
          "internalType": "uint8",
          "name": "v",
          "type": "uint8"
        },
        {
          "internalType": "bytes32",
          "name": "r",
          "type": "bytes32"
        },
        {
          "internalType": "bytes32",
          "name": "s",
          "type": "bytes32"
        }
      ],
      "name": "permit",
      "outputs": [],
      "stateMutability": "nonpayable",
      "type": "function"
    },
    {
      "inputs": [],
      "name": "primarySaleRecipient",
      "outputs": [
        {
          "internalType": "address",
          "name": "",
          "type": "address"
        }
      ],
      "stateMutability": "view",
      "type": "function"
    },
    {
      "inputs": [
        {
          "internalType": "string",
          "name": "_uri",
          "type": "string"
        }
      ],
      "name": "setContractURI",
      "outputs": [],
      "stateMutability": "nonpayable",
      "type": "function"
    },
    {
      "inputs": [
        {
          "internalType": "address",
          "name": "_newOwner",
          "type": "address"
        }
      ],
      "name": "setOwner",
      "outputs": [],
      "stateMutability": "nonpayable",
      "type": "function"
    },
    {
      "inputs": [
        {
          "internalType": "address",
          "name": "_saleRecipient",
          "type": "address"
        }
      ],
      "name": "setPrimarySaleRecipient",
      "outputs": [],
      "stateMutability": "nonpayable",
      "type": "function"
    },
    {
      "inputs": [],
      "name": "symbol",
      "outputs": [
        {
          "internalType": "string",
          "name": "",
          "type": "string"
        }
      ],
      "stateMutability": "view",
      "type": "function"
    },
    {
      "inputs": [],
      "name": "totalSupply",
      "outputs": [
        {
          "internalType": "uint256",
          "name": "",
          "type": "uint256"
        }
      ],
      "stateMutability": "view",
      "type": "function"
    },
    {
      "inputs": [
        {
          "internalType": "address",
          "name": "to",
          "type": "address"
        },
        {
          "internalType": "uint256",
          "name": "amount",
          "type": "uint256"
        }
      ],
      "name": "transfer",
      "outputs": [
        {
          "internalType": "bool",
          "name": "",
          "type": "bool"
        }
      ],
      "stateMutability": "nonpayable",
      "type": "function"
    },
    {
      "inputs": [
        {
          "internalType": "address",
          "name": "from",
          "type": "address"
        },
        {
          "internalType": "address",
          "name": "to",
          "type": "address"
        },
        {
          "internalType": "uint256",
          "name": "amount",
          "type": "uint256"
        }
      ],
      "name": "transferFrom",
      "outputs": [
        {
          "internalType": "bool",
          "name": "",
          "type": "bool"
        }
      ],
      "stateMutability": "nonpayable",
      "type": "function"
    },
    {
      "inputs": [
        {
          "components": [
            {
              "internalType": "address",
              "name": "to",
              "type": "address"
            },
            {
              "internalType": "address",
              "name": "primarySaleRecipient",
              "type": "address"
            },
            {
              "internalType": "uint256",
              "name": "quantity",
              "type": "uint256"
            },
            {
              "internalType": "uint256",
              "name": "pricePerToken",
              "type": "uint256"
            },
            {
              "internalType": "address",
              "name": "currency",
              "type": "address"
            },
            {
              "internalType": "uint128",
              "name": "validityStartTimestamp",
              "type": "uint128"
            },
            {
              "internalType": "uint128",
              "name": "validityEndTimestamp",
              "type": "uint128"
            },
            {
              "internalType": "bytes32",
              "name": "uid",
              "type": "bytes32"
            }
          ],
          "internalType": "struct ISignatureMintERC20.MintRequest",
          "name": "_req",
          "type": "tuple"
        },
        {
          "internalType": "bytes",
          "name": "_signature",
          "type": "bytes"
        }
      ],
      "name": "verify",
      "outputs": [
        {
          "internalType": "bool",
          "name": "success",
          "type": "bool"
        },
        {
          "internalType": "address",
          "name": "signer",
          "type": "address"
        }
      ],
      "stateMutability": "view",
      "type": "function"
    }
  ],
  "bytecode": "0x6101c06040527f6e71edae12b1b97f4d1f60370fef10105fa2faae0126114a169c64845d6126c960e0523480156200003657600080fd5b5060405162003d8438038062003d848339810160408190526200005991620004d5565b6040518060400160405280601281526020017105369676e61747572654d696e7445524332360741b815250604051806040016040528060018152602001603160f81b8152508484818181818160059080519060200190620000bc92919062000362565b508051620000d290600690602084019062000362565b50504660a052503060c052620000e7620001a6565b60805250620000f89050336200022c565b50508151602080840191909120825191830191909120610160829052610180819052466101205260008051602062003d648339815191526200017f8184846040805160208101859052908101839052606081018290524660808201523060a082015260009060c0016040516020818303038152906040528051906020012090509392505050565b6101005230610140526101a052506200019d9250839150506200027e565b5050506200059f565b600060008051602062003d64833981519152620001c2620002c8565b80516020918201206040805192830193909352918101919091527fc89efdaa54c0f20c7adf612882df0950f5a951637e0307cdcb4c672f298b8bc660608201524660808201523060a082015260c00160405160208183030381529060405280519060200120905090565b600180546001600160a01b038381166001600160a01b0319831681179093556040519116919082907f8292fce18fa69edf4db7b94ea2e58241df0ae57f97e0a6c9b29067028bf92d7690600090a35050565b600b80546001600160a01b0319166001600160a01b0383169081179091556040517f299d17e95023f496e0ffc4909cff1a61f74bb5eb18de6f900f4155bfa1b3b33390600090a250565b606060058054620002d99062000562565b80601f0160208091040260200160405190810160405280929190818152602001828054620003079062000562565b8015620003585780601f106200032c5761010080835404028352916020019162000358565b820191906000526020600020905b8154815290600101906020018083116200033a57829003601f168201915b5050505050905090565b828054620003709062000562565b90600052602060002090601f016020900481019282620003945760008555620003df565b82601f10620003af57805160ff1916838001178555620003df565b82800160010185558215620003df579182015b82811115620003df578251825591602001919060010190620003c2565b50620003ed929150620003f1565b5090565b5b80821115620003ed5760008155600101620003f2565b634e487b7160e01b600052604160045260246000fd5b600082601f8301126200043057600080fd5b81516001600160401b03808211156200044d576200044d62000408565b604051601f8301601f19908116603f0116810190828211818310171562000478576200047862000408565b816040528381526020925086838588010111156200049557600080fd5b600091505b83821015620004b957858201830151818301840152908201906200049a565b83821115620004cb5760008385830101525b9695505050505050565b600080600060608486031215620004eb57600080fd5b83516001600160401b03808211156200050357600080fd5b62000511878388016200041e565b945060208601519150808211156200052857600080fd5b5062000537868287016200041e565b604086015190935090506001600160a01b03811681146200055757600080fd5b809150509250925092565b600181811c908216806200057757607f821691505b602082108114156200059957634e487b7160e01b600052602260045260246000fd5b50919050565b60805160a05160c05160e05161010051610120516101405161016051610180516101a0516137496200061b6000396000612b8e01526000612bdd01526000612bb801526000612b1101526000612b3b01526000612b65015260006110f5015260006108000152600061082a0152600061085401526137496000f3fe6080604052600436106101ee5760003560e01c806370a082311161010d578063a457c2d7116100a0578063c3cda5201161006f578063c3cda520146105e8578063d505accf14610608578063dd62ed3e14610628578063e8a3d4851461066e578063f1127ed81461068357600080fd5b8063a457c2d71461053c578063a9059cbb1461055c578063ac9650d81461057c578063c1b606e2146105a957600080fd5b80638f0fefbb116100dc5780638f0fefbb146104d4578063938e3d7b146104e757806395d89b41146105075780639ab24eb01461051c57600080fd5b806370a08231146104405780637ecebe00146104765780638da5cb5b146104965780638e539e8c146104b457600080fd5b80633950935111610185578063587cde1e11610154578063587cde1e146103925780635c19a95c146103cb5780636f4f2837146103eb5780636fcfff451461040b57600080fd5b806339509351146103125780633a46b1a81461033257806342966c6814610352578063449a52f81461037257600080fd5b806318160ddd116101c157806318160ddd146102a257806323b872dd146102c1578063313ce567146102e15780633644e515146102fd57600080fd5b806306fdde03146101f3578063079fe40e1461021e578063095ea7b31461025057806313af403514610280575b600080fd5b3480156101ff57600080fd5b506102086106cd565b6040516102159190613035565b60405180910390f35b34801561022a57600080fd5b50600b546001600160a01b03165b6040516001600160a01b039091168152602001610215565b34801561025c57600080fd5b5061027061026b366004613064565b61075f565b6040519015158152602001610215565b34801561028c57600080fd5b506102a061029b36600461308e565b610777565b005b3480156102ae57600080fd5b506004545b604051908152602001610215565b3480156102cd57600080fd5b506102706102dc3660046130a9565b6107cd565b3480156102ed57600080fd5b5060405160128152602001610215565b34801561030957600080fd5b506102b36107f3565b34801561031e57600080fd5b5061027061032d366004613064565b610883565b34801561033e57600080fd5b506102b361034d366004613064565b6108c2565b34801561035e57600080fd5b506102a061036d3660046130e5565b610935565b34801561037e57600080fd5b506102a061038d366004613064565b610997565b34801561039e57600080fd5b506102386103ad36600461308e565b6001600160a01b039081166000908152600860205260409020541690565b3480156103d757600080fd5b506102a06103e636600461308e565b610a3d565b3480156103f757600080fd5b506102a061040636600461308e565b610a47565b34801561041757600080fd5b5061042b61042636600461308e565b610a95565b60405163ffffffff9091168152602001610215565b34801561044c57600080fd5b506102b361045b36600461308e565b6001600160a01b031660009081526002602052604090205490565b34801561048257600080fd5b506102b361049136600461308e565b610abd565b3480156104a257600080fd5b506001546001600160a01b0316610238565b3480156104c057600080fd5b506102b36104cf3660046130e5565b610adb565b6102386104e23660046130fe565b610b37565b3480156104f357600080fd5b506102a06105023660046131a1565b610c57565b34801561051357600080fd5b50610208610ca5565b34801561052857600080fd5b506102b361053736600461308e565b610cb4565b34801561054857600080fd5b50610270610557366004613064565b610d3b565b34801561056857600080fd5b50610270610577366004613064565b610dd8565b34801561058857600080fd5b5061059c610597366004613252565b610de6565b60405161021591906132c7565b3480156105b557600080fd5b506105c96105c43660046130fe565b610edb565b6040805192151583526001600160a01b03909116602083015201610215565b3480156105f457600080fd5b506102a061060336600461333a565b610f1e565b34801561061457600080fd5b506102a0610623366004613392565b6110a1565b34801561063457600080fd5b506102b36106433660046133fc565b6001600160a01b03918216600090815260036020908152604080832093909416825291909152205490565b34801561067a57600080fd5b50610208611207565b34801561068f57600080fd5b506106a361069e36600461342f565b611295565b60408051825163ffffffff1681526020928301516001600160e01b03169281019290925201610215565b6060600580546106dc9061346f565b80601f01602080910402602001604051908101604052809291908181526020018280546107089061346f565b80156107555780601f1061072a57610100808354040283529160200191610755565b820191906000526020600020905b81548152906001019060200180831161073857829003601f168201915b5050505050905090565b60003361076d818585611319565b5060019392505050565b61077f61143d565b6107c15760405162461bcd60e51b815260206004820152600e60248201526d139bdd08185d5d1a1bdc9a5e995960921b60448201526064015b60405180910390fd5b6107ca8161146a565b50565b6000336107db8582856114bc565b6107e685858561154e565b60019150505b9392505050565b6000306001600160a01b037f00000000000000000000000000000000000000000000000000000000000000001614801561084c57507f000000000000000000000000000000000000000000000000000000000000000046145b1561087657507f000000000000000000000000000000000000000000000000000000000000000090565b61087e611722565b905090565b3360008181526003602090815260408083206001600160a01b038716845290915281205490919061076d90829086906108bd9087906134ba565b611319565b60004382106109135760405162461bcd60e51b815260206004820152601f60248201527f4552433230566f7465733a20626c6f636b206e6f7420796574206d696e65640060448201526064016107b8565b6001600160a01b03831660009081526009602052604090206107ec90836117b7565b8061093f3361045b565b101561098d5760405162461bcd60e51b815260206004820152601260248201527f6e6f7420656e6f7567682062616c616e6365000000000000000000000000000060448201526064016107b8565b6107ca3382611874565b61099f61143d565b6109eb5760405162461bcd60e51b815260206004820152601760248201527f4e6f7420617574686f72697a656420746f206d696e742e00000000000000000060448201526064016107b8565b80610a2f5760405162461bcd60e51b815260206004820152601460248201527326b4b73a34b733903d32b937903a37b5b2b7399760611b60448201526064016107b8565b610a39828261188c565b5050565b6107ca3382611923565b610a4f61143d565b610a8c5760405162461bcd60e51b815260206004820152600e60248201526d139bdd08185d5d1a1bdc9a5e995960921b60448201526064016107b8565b6107ca8161199d565b6001600160a01b038116600090815260096020526040812054610ab7906119e7565b92915050565b6001600160a01b038116600090815260076020526040812054610ab7565b6000438210610b2c5760405162461bcd60e51b815260206004820152601f60248201527f4552433230566f7465733a20626c6f636b206e6f7420796574206d696e65640060448201526064016107b8565b610ab7600a836117b7565b600080846040013511610b835760405162461bcd60e51b815260206004820152601460248201527326b4b73a34b733903d32b937903a37b5b2b7399760611b60448201526064016107b8565b610b8e848484611a50565b9050600080610ba0602087018761308e565b6001600160a01b031614610bc057610bbb602086018661308e565b610bc2565b335b9050610bf6610bd7604087016020880161308e565b6040870135610bec60a0890160808a0161308e565b8860600135611c04565b610c0481866040013561188c565b806001600160a01b0316826001600160a01b03167fc4d88b1adde72eb5acf63f3e219ef5b223262233acf507c3b171277c91973c6787604051610c4791906134e9565b60405180910390a3509392505050565b610c5f61143d565b610c9c5760405162461bcd60e51b815260206004820152600e60248201526d139bdd08185d5d1a1bdc9a5e995960921b60448201526064016107b8565b6107ca81611d2d565b6060600680546106dc9061346f565b6001600160a01b0381166000908152600960205260408120548015610d28576001600160a01b0383166000908152600960205260409020610cf660018361357f565b81548110610d0657610d06613596565b60009182526020909120015464010000000090046001600160e01b0316610d2b565b60005b6001600160e01b03169392505050565b3360008181526003602090815260408083206001600160a01b038716845290915281205490919083811015610dc05760405162461bcd60e51b815260206004820152602560248201527f45524332303a2064656372656173656420616c6c6f77616e63652062656c6f77604482015264207a65726f60d81b60648201526084016107b8565b610dcd8286868403611319565b506001949350505050565b60003361076d81858561154e565b60608167ffffffffffffffff811115610e0157610e0161318b565b604051908082528060200260200182016040528015610e3457816020015b6060815260200190600190039081610e1f5790505b50905060005b82811015610ed457610ea430858584818110610e5857610e58613596565b9050602002810190610e6a91906135ac565b8080601f016020809104026020016040519081016040528093929190818152602001838380828437600092019190915250611e0e92505050565b828281518110610eb657610eb6613596565b60200260200101819052508080610ecc906135f3565b915050610e3a565b5092915050565b600080610ee9858585611e33565b60e08601356000908152600c602052604090205490915060ff16158015610f145750610f1481611e97565b9150935093915050565b83421115610f6e5760405162461bcd60e51b815260206004820152601d60248201527f4552433230566f7465733a207369676e6174757265206578706972656400000060448201526064016107b8565b604080517fe48329057bfd03d55e49b547132e39cffd9c1820ad7b9d4c5307691425d15adf60208201526001600160a01b03881691810191909152606081018690526080810185905260009060a0016040516020818303038152906040528051906020012090506000611023610fe26107f3565b8360405161190160f01b6020820152602281018390526042810182905260009060620160405160208183030381529060405280519060200120905092915050565b9050600061103382878787611ec6565b905061103e81611eee565b881461108c5760405162461bcd60e51b815260206004820152601960248201527f4552433230566f7465733a20696e76616c6964206e6f6e63650000000000000060448201526064016107b8565b611096818a611923565b505050505050505050565b834211156110f15760405162461bcd60e51b815260206004820152601d60248201527f45524332305065726d69743a206578706972656420646561646c696e6500000060448201526064016107b8565b60007f00000000000000000000000000000000000000000000000000000000000000008888886111208c611eee565b6040805160208101969096526001600160a01b0394851690860152929091166060840152608083015260a082015260c0810186905260e001604051602081830303815290604052805190602001209050600061117d610fe26107f3565b9050600061118d82878787611ec6565b9050896001600160a01b0316816001600160a01b0316146111f05760405162461bcd60e51b815260206004820152601e60248201527f45524332305065726d69743a20696e76616c6964207369676e6174757265000060448201526064016107b8565b6111fb8a8a8a611319565b50505050505050505050565b600080546112149061346f565b80601f01602080910402602001604051908101604052809291908181526020018280546112409061346f565b801561128d5780601f106112625761010080835404028352916020019161128d565b820191906000526020600020905b81548152906001019060200180831161127057829003601f168201915b505050505081565b60408051808201909152600080825260208201526001600160a01b0383166000908152600960205260409020805463ffffffff84169081106112d9576112d9613596565b60009182526020918290206040805180820190915291015463ffffffff8116825264010000000090046001600160e01b0316918101919091529392505050565b6001600160a01b03831661137b5760405162461bcd60e51b8152602060048201526024808201527f45524332303a20617070726f76652066726f6d20746865207a65726f206164646044820152637265737360e01b60648201526084016107b8565b6001600160a01b0382166113dc5760405162461bcd60e51b815260206004820152602260248201527f45524332303a20617070726f766520746f20746865207a65726f206164647265604482015261737360f01b60648201526084016107b8565b6001600160a01b0383811660008181526003602090815260408083209487168084529482529182902085905590518481527f8c5be1e5ebec7d5bd14f71427d1e84f3dd0314c0f7b2291e5b200ac8c7c3b925910160405180910390a3505050565b60006114516001546001600160a01b031690565b6001600160a01b0316336001600160a01b031614905090565b600180546001600160a01b038381166001600160a01b0319831681179093556040519116919082907f8292fce18fa69edf4db7b94ea2e58241df0ae57f97e0a6c9b29067028bf92d7690600090a35050565b6001600160a01b038381166000908152600360209081526040808320938616835292905220546000198114611548578181101561153b5760405162461bcd60e51b815260206004820152601d60248201527f45524332303a20696e73756666696369656e7420616c6c6f77616e636500000060448201526064016107b8565b6115488484848403611319565b50505050565b6001600160a01b0383166115b25760405162461bcd60e51b815260206004820152602560248201527f45524332303a207472616e736665722066726f6d20746865207a65726f206164604482015264647265737360d81b60648201526084016107b8565b6001600160a01b0382166116145760405162461bcd60e51b815260206004820152602360248201527f45524332303a207472616e7366657220746f20746865207a65726f206164647260448201526265737360e81b60648201526084016107b8565b6001600160a01b0383166000908152600260205260409020548181101561168c5760405162461bcd60e51b815260206004820152602660248201527f45524332303a207472616e7366657220616d6f756e7420657863656564732062604482015265616c616e636560d01b60648201526084016107b8565b6001600160a01b038085166000908152600260205260408082208585039055918516815290812080548492906116c39084906134ba565b92505081905550826001600160a01b0316846001600160a01b03167fddf252ad1be2c89b69c2b068fc378daa952ba7f163c4a11628f55a4df523b3ef8460405161170f91815260200190565b60405180910390a3611548848484611f1b565b60007f8b73c3c69bb8fe3d512ecc4cf759cc79239f7b179b0ffacaa9a75d522b39400f61174d6106cd565b80516020918201206040805192830193909352918101919091527fc89efdaa54c0f20c7adf612882df0950f5a951637e0307cdcb4c672f298b8bc660608201524660808201523060a082015260c00160405160208183030381529060405280519060200120905090565b8154600090815b8181101561181b5760006117d28284611f4d565b9050848682815481106117e7576117e7613596565b60009182526020909120015463ffffffff16111561180757809250611815565b6118128160016134ba565b91505b506117be565b811561185f578461182d60018461357f565b8154811061183d5761183d613596565b60009182526020909120015464010000000090046001600160e01b0316611862565b60005b6001600160e01b031695945050505050565b61187e8282611f68565b611548600a6120bd836120c9565b6118968282612242565b6004546001600160e01b0310156119155760405162461bcd60e51b815260206004820152603060248201527f4552433230566f7465733a20746f74616c20737570706c79207269736b73206f60448201527f766572666c6f77696e6720766f7465730000000000000000000000000000000060648201526084016107b8565b611548600a612329836120c9565b6001600160a01b03828116600081815260086020818152604080842080546002845282862054949093528787166001600160a01b03198416811790915590519190951694919391928592917f3134e8a2e6d97e929a7e54011ea5485d7d196dd5f0ba4d4ef95803e8e3fc257f9190a4611548828483612335565b600b80546001600160a01b0319166001600160a01b0383169081179091556040517f299d17e95023f496e0ffc4909cff1a61f74bb5eb18de6f900f4155bfa1b3b33390600090a250565b600063ffffffff821115611a4c5760405162461bcd60e51b815260206004820152602660248201527f53616665436173743a2076616c756520646f65736e27742066697420696e203360448201526532206269747360d01b60648201526084016107b8565b5090565b600080611a5e858585610edb565b9250905080611aaf5760405162461bcd60e51b815260206004820152600f60248201527f496e76616c69642072657175657374000000000000000000000000000000000060448201526064016107b8565b42611ac060c0870160a0880161360e565b6001600160801b031611158015611aef5750611ae260e0860160c0870161360e565b6001600160801b03164211155b611b3b5760405162461bcd60e51b815260206004820152600f60248201527f526571756573742065787069726564000000000000000000000000000000000060448201526064016107b8565b6000611b4a602087018761308e565b6001600160a01b03161415611ba15760405162461bcd60e51b815260206004820152601360248201527f726563697069656e7420756e646566696e65640000000000000000000000000060448201526064016107b8565b6000856040013511611bdd5760405162461bcd60e51b8152602060048201526005602482015264302071747960d81b60448201526064016107b8565b5060e0909301356000908152600c60205260409020805460ff191660011790555090919050565b80611c0e57611548565b6000670de0b6b3a7640000611c238386613629565b611c2d9190613648565b905060008111611c7f5760405162461bcd60e51b815260206004820152601060248201527f7175616e7469747920746f6f206c6f770000000000000000000000000000000060448201526064016107b8565b6001600160a01b03831673eeeeeeeeeeeeeeeeeeeeeeeeeeeeeeeeeeeeeeee1415611cf357803414611cf35760405162461bcd60e51b815260206004820152601660248201527f4d7573742073656e6420746f74616c2070726963652e0000000000000000000060448201526064016107b8565b60006001600160a01b03861615611d0a5785611d17565b600b546001600160a01b03165b9050611d2584338385612472565b505050505050565b6000808054611d3b9061346f565b80601f0160208091040260200160405190810160405280929190818152602001828054611d679061346f565b8015611db45780601f10611d8957610100808354040283529160200191611db4565b820191906000526020600020905b815481529060010190602001808311611d9757829003601f168201915b50508551939450611dd093600093506020870192509050612f4d565b507fc9c7c3fe08b88b4df9d4d47ef47d2c43d55c025a0ba88ca442580ed9e7348a168183604051611e0292919061366a565b60405180910390a15050565b60606107ec83836040518060600160405280602781526020016136ed602791396124bc565b6000611e8f83838080601f016020809104026020016040519081016040528093929190818152602001838380828437600092019190915250611e899250611e7d9150889050612599565b8051906020012061268d565b9061269a565b949350505050565b6000611eab6001546001600160a01b031690565b6001600160a01b0316826001600160a01b0316149050919050565b6000806000611ed7878787876126be565b91509150611ee4816127ab565b5095945050505050565b6001600160a01b03811660009081526007602052604090208054600181018255905b50919050565b505050565b6001600160a01b03838116600090815260086020526040808220548584168352912054611f1692918216911683612335565b6000611f5c6002848418613648565b6107ec908484166134ba565b6001600160a01b038216611fc85760405162461bcd60e51b815260206004820152602160248201527f45524332303a206275726e2066726f6d20746865207a65726f206164647265736044820152607360f81b60648201526084016107b8565b6001600160a01b0382166000908152600260205260409020548181101561203c5760405162461bcd60e51b815260206004820152602260248201527f45524332303a206275726e20616d6f756e7420657863656564732062616c616e604482015261636560f01b60648201526084016107b8565b6001600160a01b038316600090815260026020526040812083830390556004805484929061206b90849061357f565b90915550506040518281526000906001600160a01b038516907fddf252ad1be2c89b69c2b068fc378daa952ba7f163c4a11628f55a4df523b3ef9060200160405180910390a3611f1683600084611f1b565b60006107ec828461357f565b82546000908190801561211457856120e260018361357f565b815481106120f2576120f2613596565b60009182526020909120015464010000000090046001600160e01b0316612117565b60005b6001600160e01b0316925061213083858763ffffffff16565b915060008111801561216e5750438661214a60018461357f565b8154811061215a5761215a613596565b60009182526020909120015463ffffffff16145b156121ce5761217c82612966565b8661218860018461357f565b8154811061219857612198613596565b9060005260206000200160000160046101000a8154816001600160e01b0302191690836001600160e01b03160217905550612239565b8560405180604001604052806121e3436119e7565b63ffffffff1681526020016121f785612966565b6001600160e01b0390811690915282546001810184556000938452602093849020835194909301519091166401000000000263ffffffff909316929092179101555b50935093915050565b6001600160a01b0382166122985760405162461bcd60e51b815260206004820152601f60248201527f45524332303a206d696e7420746f20746865207a65726f20616464726573730060448201526064016107b8565b80600460008282546122aa91906134ba565b90915550506001600160a01b038216600090815260026020526040812080548392906122d79084906134ba565b90915550506040518181526001600160a01b038316906000907fddf252ad1be2c89b69c2b068fc378daa952ba7f163c4a11628f55a4df523b3ef9060200160405180910390a3610a3960008383611f1b565b60006107ec82846134ba565b816001600160a01b0316836001600160a01b0316141580156123575750600081115b15611f16576001600160a01b038316156123e5576001600160a01b03831660009081526009602052604081208190612392906120bd856120c9565b91509150846001600160a01b03167fdec2bacdd2f05b59de34da9b523dff8be42e5e38e818c82fdb0bae774387a72483836040516123da929190918252602082015260400190565b60405180910390a250505b6001600160a01b03821615611f16576001600160a01b0382166000908152600960205260408120819061241b90612329856120c9565b91509150836001600160a01b03167fdec2bacdd2f05b59de34da9b523dff8be42e5e38e818c82fdb0bae774387a7248383604051612463929190918252602082015260400190565b60405180910390a25050505050565b8061247c57611548565b6001600160a01b03841673eeeeeeeeeeeeeeeeeeeeeeeeeeeeeeeeeeeeeeee14156124b0576124ab82826129cf565b611548565b61154884848484612a72565b60606001600160a01b0384163b6125245760405162461bcd60e51b815260206004820152602660248201527f416464726573733a2064656c65676174652063616c6c20746f206e6f6e2d636f6044820152651b9d1c9858dd60d21b60648201526084016107b8565b600080856001600160a01b03168560405161253f9190613698565b600060405180830381855af49150503d806000811461257a576040519150601f19603f3d011682016040523d82523d6000602084013e61257f565b606091505b509150915061258f828286612acb565b9695505050505050565b60607fd932100bc68de71f788489cd77585effe7e2226422dc347f9d7f9c20cd7cfd0b6125c9602084018461308e565b6125d9604085016020860161308e565b604085013560608601356125f360a088016080890161308e565b61260360c0890160a08a0161360e565b61261360e08a0160c08b0161360e565b6040805160208101999099526001600160a01b03978816908901529486166060880152608087019390935260a086019190915290921660c08401526001600160801b0391821660e0808501919091529116610100830152830135610120820152610140016040516020818303038152906040529050919050565b6000610ab7610fe2612b04565b60008060006126a98585612c2b565b915091506126b6816127ab565b509392505050565b6000807f7fffffffffffffffffffffffffffffff5d576e7357a4501ddfe92f46681b20a08311156126f557506000905060036127a2565b8460ff16601b1415801561270d57508460ff16601c14155b1561271e57506000905060046127a2565b6040805160008082526020820180845289905260ff881692820192909252606081018690526080810185905260019060a0016020604051602081039080840390855afa158015612772573d6000803e3d6000fd5b5050604051601f1901519150506001600160a01b03811661279b576000600192509250506127a2565b9150600090505b94509492505050565b60008160048111156127bf576127bf6136b4565b14156127c85750565b60018160048111156127dc576127dc6136b4565b141561282a5760405162461bcd60e51b815260206004820152601860248201527f45434453413a20696e76616c6964207369676e6174757265000000000000000060448201526064016107b8565b600281600481111561283e5761283e6136b4565b141561288c5760405162461bcd60e51b815260206004820152601f60248201527f45434453413a20696e76616c6964207369676e6174757265206c656e6774680060448201526064016107b8565b60038160048111156128a0576128a06136b4565b14156128f95760405162461bcd60e51b815260206004820152602260248201527f45434453413a20696e76616c6964207369676e6174757265202773272076616c604482015261756560f01b60648201526084016107b8565b600481600481111561290d5761290d6136b4565b14156107ca5760405162461bcd60e51b815260206004820152602260248201527f45434453413a20696e76616c6964207369676e6174757265202776272076616c604482015261756560f01b60648201526084016107b8565b60006001600160e01b03821115611a4c5760405162461bcd60e51b815260206004820152602760248201527f53616665436173743a2076616c756520646f65736e27742066697420696e20326044820152663234206269747360c81b60648201526084016107b8565b6000826001600160a01b03168260405160006040518083038185875af1925050503d8060008114612a1c576040519150601f19603f3d011682016040523d82523d6000602084013e612a21565b606091505b5050905080611f165760405162461bcd60e51b815260206004820152601c60248201527f6e617469766520746f6b656e207472616e73666572206661696c65640000000060448201526064016107b8565b816001600160a01b0316836001600160a01b03161415612a9157611548565b6001600160a01b038316301415612ab6576124ab6001600160a01b0385168383612c9b565b6115486001600160a01b038516848484612d16565b60608315612ada5750816107ec565b825115612aea5782518084602001fd5b8160405162461bcd60e51b81526004016107b89190613035565b6000306001600160a01b037f000000000000000000000000000000000000000000000000000000000000000016148015612b5d57507f000000000000000000000000000000000000000000000000000000000000000046145b15612b8757507f000000000000000000000000000000000000000000000000000000000000000090565b50604080517f00000000000000000000000000000000000000000000000000000000000000006020808301919091527f0000000000000000000000000000000000000000000000000000000000000000828401527f000000000000000000000000000000000000000000000000000000000000000060608301524660808301523060a0808401919091528351808403909101815260c0909201909252805191012090565b600080825160411415612c625760208301516040840151606085015160001a612c56878285856126be565b94509450505050612c94565b825160401415612c8c5760208301516040840151612c81868383612d4e565b935093505050612c94565b506000905060025b9250929050565b6040516001600160a01b038316602482015260448101829052611f1690849063a9059cbb60e01b906064015b60408051601f198184030181529190526020810180516001600160e01b03167fffffffff0000000000000000000000000000000000000000000000000000000090931692909217909152612da0565b6040516001600160a01b03808516602483015283166044820152606481018290526115489085906323b872dd60e01b90608401612cc7565b6000807f7fffffffffffffffffffffffffffffffffffffffffffffffffffffffffffffff831681612d8460ff86901c601b6134ba565b9050612d92878288856126be565b935093505050935093915050565b6000612df5826040518060400160405280602081526020017f5361666545524332303a206c6f772d6c6576656c2063616c6c206661696c6564815250856001600160a01b0316612e729092919063ffffffff16565b805190915015611f165780806020019051810190612e1391906136ca565b611f165760405162461bcd60e51b815260206004820152602a60248201527f5361666545524332303a204552433230206f7065726174696f6e20646964206e6044820152691bdd081cdd58d8d9595960b21b60648201526084016107b8565b6060611e8f8484600085856001600160a01b0385163b612ed45760405162461bcd60e51b815260206004820152601d60248201527f416464726573733a2063616c6c20746f206e6f6e2d636f6e747261637400000060448201526064016107b8565b600080866001600160a01b03168587604051612ef09190613698565b60006040518083038185875af1925050503d8060008114612f2d576040519150601f19603f3d011682016040523d82523d6000602084013e612f32565b606091505b5091509150612f42828286612acb565b979650505050505050565b828054612f599061346f565b90600052602060002090601f016020900481019282612f7b5760008555612fc1565b82601f10612f9457805160ff1916838001178555612fc1565b82800160010185558215612fc1579182015b82811115612fc1578251825591602001919060010190612fa6565b50611a4c9291505b80821115611a4c5760008155600101612fc9565b60005b83811015612ff8578181015183820152602001612fe0565b838111156115485750506000910152565b60008151808452613021816020860160208601612fdd565b601f01601f19169290920160200192915050565b6020815260006107ec6020830184613009565b80356001600160a01b038116811461305f57600080fd5b919050565b6000806040838503121561307757600080fd5b61308083613048565b946020939093013593505050565b6000602082840312156130a057600080fd5b6107ec82613048565b6000806000606084860312156130be57600080fd5b6130c784613048565b92506130d560208501613048565b9150604084013590509250925092565b6000602082840312156130f757600080fd5b5035919050565b600080600083850361012081121561311557600080fd5b6101008082121561312557600080fd5b859450840135905067ffffffffffffffff8082111561314357600080fd5b818601915086601f83011261315757600080fd5b81358181111561316657600080fd5b87602082850101111561317857600080fd5b6020830194508093505050509250925092565b634e487b7160e01b600052604160045260246000fd5b6000602082840312156131b357600080fd5b813567ffffffffffffffff808211156131cb57600080fd5b818401915084601f8301126131df57600080fd5b8135818111156131f1576131f161318b565b604051601f8201601f19908116603f011681019083821181831017156132195761321961318b565b8160405282815287602084870101111561323257600080fd5b826020860160208301376000928101602001929092525095945050505050565b6000806020838503121561326557600080fd5b823567ffffffffffffffff8082111561327d57600080fd5b818501915085601f83011261329157600080fd5b8135818111156132a057600080fd5b8660208260051b85010111156132b557600080fd5b60209290920196919550909350505050565b6000602080830181845280855180835260408601915060408160051b870101925083870160005b8281101561331c57603f1988860301845261330a858351613009565b945092850192908501906001016132ee565b5092979650505050505050565b803560ff8116811461305f57600080fd5b60008060008060008060c0878903121561335357600080fd5b61335c87613048565b9550602087013594506040870135935061337860608801613329565b92506080870135915060a087013590509295509295509295565b600080600080600080600060e0888a0312156133ad57600080fd5b6133b688613048565b96506133c460208901613048565b955060408801359450606088013593506133e060808901613329565b925060a0880135915060c0880135905092959891949750929550565b6000806040838503121561340f57600080fd5b61341883613048565b915061342660208401613048565b90509250929050565b6000806040838503121561344257600080fd5b61344b83613048565b9150602083013563ffffffff8116811461346457600080fd5b809150509250929050565b600181811c9082168061348357607f821691505b60208210811415611f1057634e487b7160e01b600052602260045260246000fd5b634e487b7160e01b600052601160045260246000fd5b600082198211156134cd576134cd6134a4565b500190565b80356001600160801b038116811461305f57600080fd5b61010081016001600160a01b038061350085613048565b1683528061351060208601613048565b16602084015260408401356040840152606084013560608401528061353760808601613048565b1660808401525061354a60a084016134d2565b6001600160801b0380821660a08501528061356760c087016134d2565b1660c0850152505060e083013560e083015292915050565b600082821015613591576135916134a4565b500390565b634e487b7160e01b600052603260045260246000fd5b6000808335601e198436030181126135c357600080fd5b83018035915067ffffffffffffffff8211156135de57600080fd5b602001915036819003821315612c9457600080fd5b6000600019821415613607576136076134a4565b5060010190565b60006020828403121561362057600080fd5b6107ec826134d2565b6000816000190483118215151615613643576136436134a4565b500290565b60008261366557634e487b7160e01b600052601260045260246000fd5b500490565b60408152600061367d6040830185613009565b828103602084015261368f8185613009565b95945050505050565b600082516136aa818460208701612fdd565b9190910192915050565b634e487b7160e01b600052602160045260246000fd5b6000602082840312156136dc57600080fd5b815180151581146107ec57600080fdfe416464726573733a206c6f772d6c6576656c2064656c65676174652063616c6c206661696c6564a2646970667358221220b74bcb8a873c4f58707ae3d69952ccd3b128da87bc5cc9da3bfb65f7b4ba16c964736f6c634300080c00338b73c3c69bb8fe3d512ecc4cf759cc79239f7b179b0ffacaa9a75d522b39400f",
  "linkReferences": {},
  "deployedLinkReferences": {}
}