{
  "_format": "hh-sol-artifact-1",
  "contractName": "ERC20Drop",
  "sourceName": "contracts/base/ERC20Drop.sol",
  "abi": [
    {
      "inputs": [
        {
          "internalType": "string",
          "name": "_name",
          "type": "string"
        },
        {
          "internalType": "string",
          "name": "_symbol",
          "type": "string"
        },
        {
          "internalType": "address",
          "name": "_primarySaleRecipient",
          "type": "address"
        }
      ],
      "stateMutability": "nonpayable",
      "type": "constructor"
    },
    {
      "anonymous": false,
      "inputs": [
        {
          "indexed": true,
          "internalType": "address",
          "name": "owner",
          "type": "address"
        },
        {
          "indexed": true,
          "internalType": "address",
          "name": "spender",
          "type": "address"
        },
        {
          "indexed": false,
          "internalType": "uint256",
          "name": "value",
          "type": "uint256"
        }
      ],
      "name": "Approval",
      "type": "event"
    },
    {
      "anonymous": false,
      "inputs": [
        {
          "components": [
            {
              "internalType": "uint256",
              "name": "startTimestamp",
              "type": "uint256"
            },
            {
              "internalType": "uint256",
              "name": "maxClaimableSupply",
              "type": "uint256"
            },
            {
              "internalType": "uint256",
              "name": "supplyClaimed",
              "type": "uint256"
            },
            {
              "internalType": "uint256",
              "name": "quantityLimitPerTransaction",
              "type": "uint256"
            },
            {
              "internalType": "uint256",
              "name": "waitTimeInSecondsBetweenClaims",
              "type": "uint256"
            },
            {
              "internalType": "bytes32",
              "name": "merkleRoot",
              "type": "bytes32"
            },
            {
              "internalType": "uint256",
              "name": "pricePerToken",
              "type": "uint256"
            },
            {
              "internalType": "address",
              "name": "currency",
              "type": "address"
            }
          ],
          "indexed": false,
          "internalType": "struct IClaimCondition.ClaimCondition",
          "name": "condition",
          "type": "tuple"
        },
        {
          "indexed": false,
          "internalType": "bool",
          "name": "resetEligibility",
          "type": "bool"
        }
      ],
      "name": "ClaimConditionUpdated",
      "type": "event"
    },
    {
      "anonymous": false,
      "inputs": [
        {
          "indexed": false,
          "internalType": "string",
          "name": "prevURI",
          "type": "string"
        },
        {
          "indexed": false,
          "internalType": "string",
          "name": "newURI",
          "type": "string"
        }
      ],
      "name": "ContractURIUpdated",
      "type": "event"
    },
    {
      "anonymous": false,
      "inputs": [
        {
          "indexed": true,
          "internalType": "address",
          "name": "prevOwner",
          "type": "address"
        },
        {
          "indexed": true,
          "internalType": "address",
          "name": "newOwner",
          "type": "address"
        }
      ],
      "name": "OwnerUpdated",
      "type": "event"
    },
    {
      "anonymous": false,
      "inputs": [
        {
          "indexed": true,
          "internalType": "address",
          "name": "recipient",
          "type": "address"
        }
      ],
      "name": "PrimarySaleRecipientUpdated",
      "type": "event"
    },
    {
      "anonymous": false,
      "inputs": [
        {
          "indexed": true,
          "internalType": "address",
          "name": "claimer",
          "type": "address"
        },
        {
          "indexed": true,
          "internalType": "address",
          "name": "receiver",
          "type": "address"
        },
        {
          "indexed": true,
          "internalType": "uint256",
          "name": "startTokenId",
          "type": "uint256"
        },
        {
          "indexed": false,
          "internalType": "uint256",
          "name": "quantityClaimed",
          "type": "uint256"
        }
      ],
      "name": "TokensClaimed",
      "type": "event"
    },
    {
      "anonymous": false,
      "inputs": [
        {
          "indexed": true,
          "internalType": "address",
          "name": "from",
          "type": "address"
        },
        {
          "indexed": true,
          "internalType": "address",
          "name": "to",
          "type": "address"
        },
        {
          "indexed": false,
          "internalType": "uint256",
          "name": "value",
          "type": "uint256"
        }
      ],
      "name": "Transfer",
      "type": "event"
    },
    {
      "inputs": [],
      "name": "DOMAIN_SEPARATOR",
      "outputs": [
        {
          "internalType": "bytes32",
          "name": "",
          "type": "bytes32"
        }
      ],
      "stateMutability": "view",
      "type": "function"
    },
    {
      "inputs": [
        {
          "internalType": "address",
          "name": "owner",
          "type": "address"
        },
        {
          "internalType": "address",
          "name": "spender",
          "type": "address"
        }
      ],
      "name": "allowance",
      "outputs": [
        {
          "internalType": "uint256",
          "name": "",
          "type": "uint256"
        }
      ],
      "stateMutability": "view",
      "type": "function"
    },
    {
      "inputs": [
        {
          "internalType": "address",
          "name": "spender",
          "type": "address"
        },
        {
          "internalType": "uint256",
          "name": "amount",
          "type": "uint256"
        }
      ],
      "name": "approve",
      "outputs": [
        {
          "internalType": "bool",
          "name": "",
          "type": "bool"
        }
      ],
      "stateMutability": "nonpayable",
      "type": "function"
    },
    {
      "inputs": [
        {
          "internalType": "address",
          "name": "account",
          "type": "address"
        }
      ],
      "name": "balanceOf",
      "outputs": [
        {
          "internalType": "uint256",
          "name": "",
          "type": "uint256"
        }
      ],
      "stateMutability": "view",
      "type": "function"
    },
    {
      "inputs": [
        {
          "internalType": "uint256",
          "name": "_amount",
          "type": "uint256"
        }
      ],
      "name": "burn",
      "outputs": [],
      "stateMutability": "nonpayable",
      "type": "function"
    },
    {
      "inputs": [
        {
          "internalType": "address",
          "name": "_receiver",
          "type": "address"
        },
        {
          "internalType": "uint256",
          "name": "_quantity",
          "type": "uint256"
        },
        {
          "internalType": "address",
          "name": "_currency",
          "type": "address"
        },
        {
          "internalType": "uint256",
          "name": "_pricePerToken",
          "type": "uint256"
        },
        {
          "components": [
            {
              "internalType": "bytes32[]",
              "name": "proof",
              "type": "bytes32[]"
            },
            {
              "internalType": "uint256",
              "name": "maxQuantityInAllowlist",
              "type": "uint256"
            }
          ],
          "internalType": "struct IDropSinglePhase.AllowlistProof",
          "name": "_allowlistProof",
          "type": "tuple"
        },
        {
          "internalType": "bytes",
          "name": "_data",
          "type": "bytes"
        }
      ],
      "name": "claim",
      "outputs": [],
      "stateMutability": "payable",
      "type": "function"
    },
    {
      "inputs": [],
      "name": "claimCondition",
      "outputs": [
        {
          "internalType": "uint256",
          "name": "startTimestamp",
          "type": "uint256"
        },
        {
          "internalType": "uint256",
          "name": "maxClaimableSupply",
          "type": "uint256"
        },
        {
          "internalType": "uint256",
          "name": "supplyClaimed",
          "type": "uint256"
        },
        {
          "internalType": "uint256",
          "name": "quantityLimitPerTransaction",
          "type": "uint256"
        },
        {
          "internalType": "uint256",
          "name": "waitTimeInSecondsBetweenClaims",
          "type": "uint256"
        },
        {
          "internalType": "bytes32",
          "name": "merkleRoot",
          "type": "bytes32"
        },
        {
          "internalType": "uint256",
          "name": "pricePerToken",
          "type": "uint256"
        },
        {
          "internalType": "address",
          "name": "currency",
          "type": "address"
        }
      ],
      "stateMutability": "view",
      "type": "function"
    },
    {
      "inputs": [],
      "name": "contractURI",
      "outputs": [
        {
          "internalType": "string",
          "name": "",
          "type": "string"
        }
      ],
      "stateMutability": "view",
      "type": "function"
    },
    {
      "inputs": [],
      "name": "decimals",
      "outputs": [
        {
          "internalType": "uint8",
          "name": "",
          "type": "uint8"
        }
      ],
      "stateMutability": "view",
      "type": "function"
    },
    {
      "inputs": [
        {
          "internalType": "address",
          "name": "spender",
          "type": "address"
        },
        {
          "internalType": "uint256",
          "name": "subtractedValue",
          "type": "uint256"
        }
      ],
      "name": "decreaseAllowance",
      "outputs": [
        {
          "internalType": "bool",
          "name": "",
          "type": "bool"
        }
      ],
      "stateMutability": "nonpayable",
      "type": "function"
    },
    {
      "inputs": [
        {
          "internalType": "address",
          "name": "_claimer",
          "type": "address"
        }
      ],
      "name": "getClaimTimestamp",
      "outputs": [
        {
          "internalType": "uint256",
          "name": "lastClaimedAt",
          "type": "uint256"
        },
        {
          "internalType": "uint256",
          "name": "nextValidClaimTimestamp",
          "type": "uint256"
        }
      ],
      "stateMutability": "view",
      "type": "function"
    },
    {
      "inputs": [
        {
          "internalType": "address",
          "name": "spender",
          "type": "address"
        },
        {
          "internalType": "uint256",
          "name": "addedValue",
          "type": "uint256"
        }
      ],
      "name": "increaseAllowance",
      "outputs": [
        {
          "internalType": "bool",
          "name": "",
          "type": "bool"
        }
      ],
      "stateMutability": "nonpayable",
      "type": "function"
    },
    {
      "inputs": [
        {
          "internalType": "bytes[]",
          "name": "data",
          "type": "bytes[]"
        }
      ],
      "name": "multicall",
      "outputs": [
        {
          "internalType": "bytes[]",
          "name": "results",
          "type": "bytes[]"
        }
      ],
      "stateMutability": "nonpayable",
      "type": "function"
    },
    {
      "inputs": [],
      "name": "name",
      "outputs": [
        {
          "internalType": "string",
          "name": "",
          "type": "string"
        }
      ],
      "stateMutability": "view",
      "type": "function"
    },
    {
      "inputs": [
        {
          "internalType": "address",
          "name": "owner",
          "type": "address"
        }
      ],
      "name": "nonces",
      "outputs": [
        {
          "internalType": "uint256",
          "name": "",
          "type": "uint256"
        }
      ],
      "stateMutability": "view",
      "type": "function"
    },
    {
      "inputs": [],
      "name": "owner",
      "outputs": [
        {
          "internalType": "address",
          "name": "",
          "type": "address"
        }
      ],
      "stateMutability": "view",
      "type": "function"
    },
    {
      "inputs": [
        {
          "internalType": "address",
          "name": "owner",
          "type": "address"
        },
        {
          "internalType": "address",
          "name": "spender",
          "type": "address"
        },
        {
          "internalType": "uint256",
          "name": "value",
          "type": "uint256"
        },
        {
          "internalType": "uint256",
          "name": "deadline",
          "type": "uint256"
        },
        {
          "internalType": "uint8",
          "name": "v",
          "type": "uint8"
        },
        {
          "internalType": "bytes32",
          "name": "r",
          "type": "bytes32"
        },
        {
          "internalType": "bytes32",
          "name": "s",
          "type": "bytes32"
        }
      ],
      "name": "permit",
      "outputs": [],
      "stateMutability": "nonpayable",
      "type": "function"
    },
    {
      "inputs": [],
      "name": "primarySaleRecipient",
      "outputs": [
        {
          "internalType": "address",
          "name": "",
          "type": "address"
        }
      ],
      "stateMutability": "view",
      "type": "function"
    },
    {
      "inputs": [
        {
          "components": [
            {
              "internalType": "uint256",
              "name": "startTimestamp",
              "type": "uint256"
            },
            {
              "internalType": "uint256",
              "name": "maxClaimableSupply",
              "type": "uint256"
            },
            {
              "internalType": "uint256",
              "name": "supplyClaimed",
              "type": "uint256"
            },
            {
              "internalType": "uint256",
              "name": "quantityLimitPerTransaction",
              "type": "uint256"
            },
            {
              "internalType": "uint256",
              "name": "waitTimeInSecondsBetweenClaims",
              "type": "uint256"
            },
            {
              "internalType": "bytes32",
              "name": "merkleRoot",
              "type": "bytes32"
            },
            {
              "internalType": "uint256",
              "name": "pricePerToken",
              "type": "uint256"
            },
            {
              "internalType": "address",
              "name": "currency",
              "type": "address"
            }
          ],
          "internalType": "struct IClaimCondition.ClaimCondition",
          "name": "_condition",
          "type": "tuple"
        },
        {
          "internalType": "bool",
          "name": "_resetClaimEligibility",
          "type": "bool"
        }
      ],
      "name": "setClaimConditions",
      "outputs": [],
      "stateMutability": "nonpayable",
      "type": "function"
    },
    {
      "inputs": [
        {
          "internalType": "string",
          "name": "_uri",
          "type": "string"
        }
      ],
      "name": "setContractURI",
      "outputs": [],
      "stateMutability": "nonpayable",
      "type": "function"
    },
    {
      "inputs": [
        {
          "internalType": "address",
          "name": "_newOwner",
          "type": "address"
        }
      ],
      "name": "setOwner",
      "outputs": [],
      "stateMutability": "nonpayable",
      "type": "function"
    },
    {
      "inputs": [
        {
          "internalType": "address",
          "name": "_saleRecipient",
          "type": "address"
        }
      ],
      "name": "setPrimarySaleRecipient",
      "outputs": [],
      "stateMutability": "nonpayable",
      "type": "function"
    },
    {
      "inputs": [],
      "name": "symbol",
      "outputs": [
        {
          "internalType": "string",
          "name": "",
          "type": "string"
        }
      ],
      "stateMutability": "view",
      "type": "function"
    },
    {
      "inputs": [],
      "name": "totalSupply",
      "outputs": [
        {
          "internalType": "uint256",
          "name": "",
          "type": "uint256"
        }
      ],
      "stateMutability": "view",
      "type": "function"
    },
    {
      "inputs": [
        {
          "internalType": "address",
          "name": "to",
          "type": "address"
        },
        {
          "internalType": "uint256",
          "name": "amount",
          "type": "uint256"
        }
      ],
      "name": "transfer",
      "outputs": [
        {
          "internalType": "bool",
          "name": "",
          "type": "bool"
        }
      ],
      "stateMutability": "nonpayable",
      "type": "function"
    },
    {
      "inputs": [
        {
          "internalType": "address",
          "name": "from",
          "type": "address"
        },
        {
          "internalType": "address",
          "name": "to",
          "type": "address"
        },
        {
          "internalType": "uint256",
          "name": "amount",
          "type": "uint256"
        }
      ],
      "name": "transferFrom",
      "outputs": [
        {
          "internalType": "bool",
          "name": "",
          "type": "bool"
        }
      ],
      "stateMutability": "nonpayable",
      "type": "function"
    },
    {
      "inputs": [
        {
          "internalType": "address",
          "name": "_claimer",
          "type": "address"
        },
        {
          "internalType": "uint256",
          "name": "_quantity",
          "type": "uint256"
        },
        {
          "internalType": "address",
          "name": "_currency",
          "type": "address"
        },
        {
          "internalType": "uint256",
          "name": "_pricePerToken",
          "type": "uint256"
        },
        {
          "internalType": "bool",
          "name": "verifyMaxQuantityPerTransaction",
          "type": "bool"
        }
      ],
      "name": "verifyClaim",
      "outputs": [],
      "stateMutability": "view",
      "type": "function"
    },
    {
      "inputs": [
        {
          "internalType": "address",
          "name": "_claimer",
          "type": "address"
        },
        {
          "internalType": "uint256",
          "name": "_quantity",
          "type": "uint256"
        },
        {
          "components": [
            {
              "internalType": "bytes32[]",
              "name": "proof",
              "type": "bytes32[]"
            },
            {
              "internalType": "uint256",
              "name": "maxQuantityInAllowlist",
              "type": "uint256"
            }
          ],
          "internalType": "struct IDropSinglePhase.AllowlistProof",
          "name": "_allowlistProof",
          "type": "tuple"
        }
      ],
      "name": "verifyClaimMerkleProof",
      "outputs": [
        {
          "internalType": "bool",
          "name": "validMerkleProof",
          "type": "bool"
        },
        {
          "internalType": "uint256",
          "name": "merkleProofIndex",
          "type": "uint256"
        }
      ],
      "stateMutability": "view",
      "type": "function"
    }
  ],
  "bytecode": "0x6101006040527f6e71edae12b1b97f4d1f60370fef10105fa2faae0126114a169c64845d6126c960e0523480156200003657600080fd5b506040516200346738038062003467833981016040819052620000599162000405565b8282818181600590805190602001906200007592919062000292565b5080516200008b90600690602084019062000292565b50504660a052503060c052620000a0620000c5565b60805250620000b19050336200015c565b620000bc81620001ae565b505050620004cf565b60007f8b73c3c69bb8fe3d512ecc4cf759cc79239f7b179b0ffacaa9a75d522b39400f620000f2620001f8565b80516020918201206040805192830193909352918101919091527fc89efdaa54c0f20c7adf612882df0950f5a951637e0307cdcb4c672f298b8bc660608201524660808201523060a082015260c00160405160208183030381529060405280519060200120905090565b600180546001600160a01b038381166001600160a01b0319831681179093556040519116919082907f8292fce18fa69edf4db7b94ea2e58241df0ae57f97e0a6c9b29067028bf92d7690600090a35050565b600880546001600160a01b0319166001600160a01b0383169081179091556040517f299d17e95023f496e0ffc4909cff1a61f74bb5eb18de6f900f4155bfa1b3b33390600090a250565b606060058054620002099062000492565b80601f0160208091040260200160405190810160405280929190818152602001828054620002379062000492565b8015620002885780601f106200025c5761010080835404028352916020019162000288565b820191906000526020600020905b8154815290600101906020018083116200026a57829003601f168201915b5050505050905090565b828054620002a09062000492565b90600052602060002090601f016020900481019282620002c457600085556200030f565b82601f10620002df57805160ff19168380011785556200030f565b828001600101855582156200030f579182015b828111156200030f578251825591602001919060010190620002f2565b506200031d92915062000321565b5090565b5b808211156200031d576000815560010162000322565b634e487b7160e01b600052604160045260246000fd5b600082601f8301126200036057600080fd5b81516001600160401b03808211156200037d576200037d62000338565b604051601f8301601f19908116603f01168101908282118183101715620003a857620003a862000338565b81604052838152602092508683858801011115620003c557600080fd5b600091505b83821015620003e95785820183015181830184015290820190620003ca565b83821115620003fb5760008385830101525b9695505050505050565b6000806000606084860312156200041b57600080fd5b83516001600160401b03808211156200043357600080fd5b62000441878388016200034e565b945060208601519150808211156200045857600080fd5b5062000467868287016200034e565b604086015190935090506001600160a01b03811681146200048757600080fd5b809150509250925092565b600181811c90821680620004a757607f821691505b60208210811415620004c957634e487b7160e01b600052602260045260246000fd5b50919050565b60805160a05160c05160e051612f5e620005096000396000611079015260006107540152600061077e015260006107a80152612f5e6000f3fe6080604052600436106101b75760003560e01c80637ecebe00116100ec578063ac9650d81161008a578063d637ed5911610064578063d637ed591461050f578063dd62ed3e1461058f578063e8a3d485146105d5578063ffbb7a13146105ea57600080fd5b8063ac9650d81461048d578063b67875ce146104ba578063d505accf146104ef57600080fd5b806395d89b41116100c657806395d89b4114610418578063a457c2d71461042d578063a72e157d1461044d578063a9059cbb1461046d57600080fd5b80637ecebe00146103a45780638da5cb5b146103da578063938e3d7b146103f857600080fd5b80633644e515116101595780635ab31c1a116101335780635ab31c1a1461031b5780636f4f28371461032e57806370a082311461034e57806377312a9e1461038457600080fd5b80633644e515146102c657806339509351146102db57806342966c68146102fb57600080fd5b806313af40351161019557806313af40351461024957806318160ddd1461026b57806323b872dd1461028a578063313ce567146102aa57600080fd5b806306fdde03146101bc578063079fe40e146101e7578063095ea7b314610219575b600080fd5b3480156101c857600080fd5b506101d1610621565b6040516101de91906127b5565b60405180910390f35b3480156101f357600080fd5b506008546001600160a01b03165b6040516001600160a01b0390911681526020016101de565b34801561022557600080fd5b506102396102343660046127e4565b6106b3565b60405190151581526020016101de565b34801561025557600080fd5b5061026961026436600461280e565b6106cb565b005b34801561027757600080fd5b506004545b6040519081526020016101de565b34801561029657600080fd5b506102396102a5366004612829565b610721565b3480156102b657600080fd5b50604051601281526020016101de565b3480156102d257600080fd5b5061027c610747565b3480156102e757600080fd5b506102396102f63660046127e4565b6107d7565b34801561030757600080fd5b50610269610316366004612865565b610816565b61026961032936600461291c565b61087f565b34801561033a57600080fd5b5061026961034936600461280e565b6109bf565b34801561035a57600080fd5b5061027c61036936600461280e565b6001600160a01b031660009081526002602052604090205490565b34801561039057600080fd5b5061026961039f3660046129d5565b610a0d565b3480156103b057600080fd5b5061027c6103bf36600461280e565b6001600160a01b031660009081526007602052604090205490565b3480156103e657600080fd5b506001546001600160a01b0316610201565b34801561040457600080fd5b50610269610413366004612a16565b610bf8565b34801561042457600080fd5b506101d1610c46565b34801561043957600080fd5b506102396104483660046127e4565b610c55565b34801561045957600080fd5b50610269610468366004612a5f565b610cf2565b34801561047957600080fd5b506102396104883660046127e4565b610ee5565b34801561049957600080fd5b506104ad6104a8366004612aba565b610ef3565b6040516101de9190612b2f565b3480156104c657600080fd5b506104da6104d536600461280e565b610fe8565b604080519283526020830191909152016101de565b3480156104fb57600080fd5b5061026961050a366004612b91565b611025565b34801561051b57600080fd5b50600954600a54600b54600c54600d54600e54600f5460105461054b97969594939291906001600160a01b031688565b604080519889526020890197909752958701949094526060860192909252608085015260a084015260c08301526001600160a01b031660e0820152610100016101de565b34801561059b57600080fd5b5061027c6105aa366004612c04565b6001600160a01b03918216600090815260036020908152604080832093909416825291909152205490565b3480156105e157600080fd5b506101d16111c0565b3480156105f657600080fd5b5061060a610605366004612c37565b61124e565b6040805192151583526020830191909152016101de565b60606005805461063090612c8e565b80601f016020809104026020016040519081016040528092919081815260200182805461065c90612c8e565b80156106a95780601f1061067e576101008083540402835291602001916106a9565b820191906000526020600020905b81548152906001019060200180831161068c57829003601f168201915b5050505050905090565b6000336106c181858561146f565b5060019392505050565b6106d3611594565b6107155760405162461bcd60e51b815260206004820152600e60248201526d139bdd08185d5d1a1bdc9a5e995960921b60448201526064015b60405180910390fd5b61071e816115c1565b50565b60003361072f858285611613565b61073a8585856116a5565b60019150505b9392505050565b6000306001600160a01b037f0000000000000000000000000000000000000000000000000000000000000000161480156107a057507f000000000000000000000000000000000000000000000000000000000000000046145b156107ca57507f000000000000000000000000000000000000000000000000000000000000000090565b6107d2611873565b905090565b3360008181526003602090815260408083206001600160a01b03871684529091528120549091906106c19082908690610811908790612cd9565b61146f565b336000908152600260205260409020548111156108755760405162461bcd60e51b815260206004820152601260248201527f6e6f7420656e6f7567682062616c616e63650000000000000000000000000000604482015260640161070c565b61071e3382611908565b601154600061088f33888661124e565b5090506000602085013515806108a55750600e54155b90506108b43389898985610cf2565b8180156108c5575060008560200135115b156109145761091433600085815260136020908152604080832072ffffffffffffffffffffffffffffffffffffff600886901c16845290915290208054600160ff9093169290921b9091179055565b87600960020160008282546109299190612cd9565b90915550506000838152601260209081526040808320338452909152812042905561095690898989611a5b565b60006109628a8a611b7c565b9050806001600160a01b038b16336001600160a01b03167fff097c7d8b1957a4ff09ef1361b5fb54dcede3941ba836d0beb9d10bec725de68c6040516109aa91815260200190565b60405180910390a45b50505050505050505050565b6109c7611594565b610a045760405162461bcd60e51b815260206004820152600e60248201526d139bdd08185d5d1a1bdc9a5e995960921b604482015260640161070c565b61071e81611b91565b610a15611594565b610a525760405162461bcd60e51b815260206004820152600e60248201526d139bdd08185d5d1a1bdc9a5e995960921b604482015260640161070c565b601154600b548215610aa1575060003360405160609190911b6bffffffffffffffffffffffff191660208201524360348201526054016040516020818303038152906040528051906020012091505b8360200135811115610af55760405162461bcd60e51b815260206004820152601260248201527f6d617820737570706c7920636c61696d65640000000000000000000000000000604482015260640161070c565b604051806101000160405280856000013581526020018560200135815260200182815260200185606001358152602001856080013581526020018560a0013581526020018560c0013581526020018560e0016020810190610b56919061280e565b6001600160a01b0390811690915281516009556020820151600a55604080830151600b556060830151600c556080830151600d5560a0830151600e5560c0830151600f5560e090920151601080546001600160a01b031916919092161790556011839055517f583ecce39d40d7b7653fd2cb1cdc19aa03714482ffd00fafa242355cdcd7908090610bea9086908690612cf1565b60405180910390a150505050565b610c00611594565b610c3d5760405162461bcd60e51b815260206004820152600e60248201526d139bdd08185d5d1a1bdc9a5e995960921b604482015260640161070c565b61071e81611bdb565b60606006805461063090612c8e565b3360008181526003602090815260408083206001600160a01b038716845290915281205490919083811015610cda5760405162461bcd60e51b815260206004820152602560248201527f45524332303a2064656372656173656420616c6c6f77616e63652062656c6f77604482015264207a65726f60d81b606482015260840161070c565b610ce7828686840361146f565b506001949350505050565b60408051610100810182526009548152600a546020820152600b5491810191909152600c546060820152600d546080820152600e5460a0820152600f5460c08201526010546001600160a01b0390811660e08301819052908516141580610d5d57508060c001518314155b15610daa5760405162461bcd60e51b815260206004820152601960248201527f496e76616c6964207072696365206f722063757272656e637900000000000000604482015260640161070c565b841580610dc25750818015610dc25750806060015185115b15610e0f5760405162461bcd60e51b815260206004820152601060248201527f496e76616c6964207175616e7469747900000000000000000000000000000000604482015260640161070c565b8060200151858260400151610e249190612cd9565b1115610e725760405162461bcd60e51b815260206004820152601260248201527f65786365656473206d617820737570706c790000000000000000000000000000604482015260640161070c565b600080610e7e88610fe8565b915091504283600001511180610e9d57508115801590610e9d57508042105b15610edb5760405162461bcd60e51b815260206004820152600e60248201526d18d85b9d0818db185a5b481e595d60921b604482015260640161070c565b5050505050505050565b6000336106c18185856116a5565b60608167ffffffffffffffff811115610f0e57610f0e612890565b604051908082528060200260200182016040528015610f4157816020015b6060815260200190600190039081610f2c5790505b50905060005b82811015610fe157610fb130858584818110610f6557610f65612d63565b9050602002810190610f779190612d79565b8080601f016020809104026020016040519081016040528093929190818152602001838380828437600092019190915250611cbc92505050565b828281518110610fc357610fc3612d63565b60200260200101819052508080610fd990612dc7565b915050610f47565b5092915050565b60115460009081526012602090815260408083206001600160a01b0385168452909152902054600d5481018181101561102057506000195b915091565b834211156110755760405162461bcd60e51b815260206004820152601d60248201527f45524332305065726d69743a206578706972656420646561646c696e65000000604482015260640161070c565b60007f00000000000000000000000000000000000000000000000000000000000000008888886110a48c611ce1565b6040805160208101969096526001600160a01b0394851690860152929091166060840152608083015260a082015260c0810186905260e0016040516020818303038152906040528051906020012090506000611142611101610747565b8360405161190160f01b6020820152602281018390526042810182905260009060620160405160208183030381529060405280519060200120905092915050565b9050600061115282878787611d09565b9050896001600160a01b0316816001600160a01b0316146111b55760405162461bcd60e51b815260206004820152601e60248201527f45524332305065726d69743a20696e76616c6964207369676e61747572650000604482015260640161070c565b6109b38a8a8a61146f565b600080546111cd90612c8e565b80601f01602080910402602001604051908101604052809291908181526020018280546111f990612c8e565b80156112465780601f1061121b57610100808354040283529160200191611246565b820191906000526020600020905b81548152906001019060200180831161122957829003601f168201915b505050505081565b60408051610100810182526009548152600a546020820152600b5491810191909152600c546060820152600d546080820152600e5460a08201819052600f5460c08301526010546001600160a01b031660e0830152600091829115611466576113366112ba8580612de2565b8080602002602001604051908101604052809392919081815260200183836020028082843760009201919091525050505060a08301516040516bffffffffffffffffffffffff1960608b901b16602080830191909152880135603482015260540160405160208183030381529060405280519060200120611d31565b9093509150826113885760405162461bcd60e51b815260206004820152601060248201527f6e6f7420696e20616c6c6f776c69737400000000000000000000000000000000604482015260640161070c565b601154600090815260136020908152604080832072ffffffffffffffffffffffffffffffffffffff60088b901c168452909152902054600160ff88161b16156114035760405162461bcd60e51b815260206004820152600d60248201526c1c1c9bdbd98818db185a5b5959609a1b604482015260640161070c565b6020840135158015906114195750836020013585115b156114665760405162461bcd60e51b815260206004820152601160248201527f496e76616c6964207174792070726f6f66000000000000000000000000000000604482015260640161070c565b50935093915050565b6001600160a01b0383166114d15760405162461bcd60e51b8152602060048201526024808201527f45524332303a20617070726f76652066726f6d20746865207a65726f206164646044820152637265737360e01b606482015260840161070c565b6001600160a01b0382166115325760405162461bcd60e51b815260206004820152602260248201527f45524332303a20617070726f766520746f20746865207a65726f206164647265604482015261737360f01b606482015260840161070c565b6001600160a01b0383811660008181526003602090815260408083209487168084529482529182902085905590518481527f8c5be1e5ebec7d5bd14f71427d1e84f3dd0314c0f7b2291e5b200ac8c7c3b92591015b60405180910390a3505050565b60006115a86001546001600160a01b031690565b6001600160a01b0316336001600160a01b031614905090565b600180546001600160a01b038381166001600160a01b0319831681179093556040519116919082907f8292fce18fa69edf4db7b94ea2e58241df0ae57f97e0a6c9b29067028bf92d7690600090a35050565b6001600160a01b03838116600090815260036020908152604080832093861683529290522054600019811461169f57818110156116925760405162461bcd60e51b815260206004820152601d60248201527f45524332303a20696e73756666696369656e7420616c6c6f77616e6365000000604482015260640161070c565b61169f848484840361146f565b50505050565b6001600160a01b0383166117095760405162461bcd60e51b815260206004820152602560248201527f45524332303a207472616e736665722066726f6d20746865207a65726f206164604482015264647265737360d81b606482015260840161070c565b6001600160a01b03821661176b5760405162461bcd60e51b815260206004820152602360248201527f45524332303a207472616e7366657220746f20746865207a65726f206164647260448201526265737360e81b606482015260840161070c565b6001600160a01b038316600090815260026020526040902054818110156117e35760405162461bcd60e51b815260206004820152602660248201527f45524332303a207472616e7366657220616d6f756e7420657863656564732062604482015265616c616e636560d01b606482015260840161070c565b6001600160a01b0380851660009081526002602052604080822085850390559185168152908120805484929061181a908490612cd9565b92505081905550826001600160a01b0316846001600160a01b03167fddf252ad1be2c89b69c2b068fc378daa952ba7f163c4a11628f55a4df523b3ef8460405161186691815260200190565b60405180910390a361169f565b60007f8b73c3c69bb8fe3d512ecc4cf759cc79239f7b179b0ffacaa9a75d522b39400f61189e610621565b80516020918201206040805192830193909352918101919091527fc89efdaa54c0f20c7adf612882df0950f5a951637e0307cdcb4c672f298b8bc660608201524660808201523060a082015260c00160405160208183030381529060405280519060200120905090565b6001600160a01b0382166119685760405162461bcd60e51b815260206004820152602160248201527f45524332303a206275726e2066726f6d20746865207a65726f206164647265736044820152607360f81b606482015260840161070c565b6001600160a01b038216600090815260026020526040902054818110156119dc5760405162461bcd60e51b815260206004820152602260248201527f45524332303a206275726e20616d6f756e7420657863656564732062616c616e604482015261636560f01b606482015260840161070c565b6001600160a01b0383166000908152600260205260408120838303905560048054849290611a0b908490612e2c565b90915550506040518281526000906001600160a01b038516907fddf252ad1be2c89b69c2b068fc378daa952ba7f163c4a11628f55a4df523b3ef90602001611587565b505050565b505050505050565b80611a655761169f565b6000670de0b6b3a7640000611a7a8386612e43565b611a849190612e62565b905060008111611ad65760405162461bcd60e51b815260206004820152601060248201527f7175616e7469747920746f6f206c6f7700000000000000000000000000000000604482015260640161070c565b6001600160a01b03831673eeeeeeeeeeeeeeeeeeeeeeeeeeeeeeeeeeeeeeee1415611b4a57803414611b4a5760405162461bcd60e51b815260206004820152601660248201527f4d7573742073656e6420746f74616c2070726963652e00000000000000000000604482015260640161070c565b60006001600160a01b03861615611b615785611b6e565b6008546001600160a01b03165b9050611a5384338385611dff565b6000611b888383611e49565b50600092915050565b600880546001600160a01b0319166001600160a01b0383169081179091556040517f299d17e95023f496e0ffc4909cff1a61f74bb5eb18de6f900f4155bfa1b3b33390600090a250565b6000808054611be990612c8e565b80601f0160208091040260200160405190810160405280929190818152602001828054611c1590612c8e565b8015611c625780601f10611c3757610100808354040283529160200191611c62565b820191906000526020600020905b815481529060010190602001808311611c4557829003601f168201915b50508551939450611c7e936000935060208701925090506126c4565b507fc9c7c3fe08b88b4df9d4d47ef47d2c43d55c025a0ba88ca442580ed9e7348a168183604051611cb0929190612e84565b60405180910390a15050565b60606107408383604051806060016040528060278152602001612f0260279139611f28565b6001600160a01b03811660009081526007602052604090208054600181018255905b50919050565b6000806000611d1a87878787612005565b91509150611d27816120f2565b5095945050505050565b6000808281805b8751811015611df357611d4c600283612e43565b91506000888281518110611d6257611d62612d63565b60200260200101519050808411611da4576040805160208101869052908101829052606001604051602081830303815290604052805190602001209350611de0565b6040805160208101839052908101859052606001604051602081830303815290604052805190602001209350600183611ddd9190612cd9565b92505b5080611deb81612dc7565b915050611d38565b50941495939450505050565b80611e095761169f565b6001600160a01b03841673eeeeeeeeeeeeeeeeeeeeeeeeeeeeeeeeeeeeeeee1415611e3d57611e3882826122ad565b61169f565b61169f84848484612350565b6001600160a01b038216611e9f5760405162461bcd60e51b815260206004820152601f60248201527f45524332303a206d696e7420746f20746865207a65726f206164647265737300604482015260640161070c565b8060046000828254611eb19190612cd9565b90915550506001600160a01b03821660009081526002602052604081208054839290611ede908490612cd9565b90915550506040518181526001600160a01b038316906000907fddf252ad1be2c89b69c2b068fc378daa952ba7f163c4a11628f55a4df523b3ef9060200160405180910390a35050565b60606001600160a01b0384163b611f905760405162461bcd60e51b815260206004820152602660248201527f416464726573733a2064656c65676174652063616c6c20746f206e6f6e2d636f6044820152651b9d1c9858dd60d21b606482015260840161070c565b600080856001600160a01b031685604051611fab9190612eb2565b600060405180830381855af49150503d8060008114611fe6576040519150601f19603f3d011682016040523d82523d6000602084013e611feb565b606091505b5091509150611ffb8282866123a9565b9695505050505050565b6000807f7fffffffffffffffffffffffffffffff5d576e7357a4501ddfe92f46681b20a083111561203c57506000905060036120e9565b8460ff16601b1415801561205457508460ff16601c14155b1561206557506000905060046120e9565b6040805160008082526020820180845289905260ff881692820192909252606081018690526080810185905260019060a0016020604051602081039080840390855afa1580156120b9573d6000803e3d6000fd5b5050604051601f1901519150506001600160a01b0381166120e2576000600192509250506120e9565b9150600090505b94509492505050565b600081600481111561210657612106612ece565b141561210f5750565b600181600481111561212357612123612ece565b14156121715760405162461bcd60e51b815260206004820152601860248201527f45434453413a20696e76616c6964207369676e61747572650000000000000000604482015260640161070c565b600281600481111561218557612185612ece565b14156121d35760405162461bcd60e51b815260206004820152601f60248201527f45434453413a20696e76616c6964207369676e6174757265206c656e67746800604482015260640161070c565b60038160048111156121e7576121e7612ece565b14156122405760405162461bcd60e51b815260206004820152602260248201527f45434453413a20696e76616c6964207369676e6174757265202773272076616c604482015261756560f01b606482015260840161070c565b600481600481111561225457612254612ece565b141561071e5760405162461bcd60e51b815260206004820152602260248201527f45434453413a20696e76616c6964207369676e6174757265202776272076616c604482015261756560f01b606482015260840161070c565b6000826001600160a01b03168260405160006040518083038185875af1925050503d80600081146122fa576040519150601f19603f3d011682016040523d82523d6000602084013e6122ff565b606091505b5050905080611a4e5760405162461bcd60e51b815260206004820152601c60248201527f6e617469766520746f6b656e207472616e73666572206661696c656400000000604482015260640161070c565b816001600160a01b0316836001600160a01b0316141561236f5761169f565b6001600160a01b03831630141561239457611e386001600160a01b03851683836123e2565b61169f6001600160a01b038516848484612472565b606083156123b8575081610740565b8251156123c85782518084602001fd5b8160405162461bcd60e51b815260040161070c91906127b5565b6040516001600160a01b038316602482015260448101829052611a4e90849063a9059cbb60e01b906064015b60408051601f198184030181529190526020810180517bffffffffffffffffffffffffffffffffffffffffffffffffffffffff167fffffffff00000000000000000000000000000000000000000000000000000000909316929092179091526124aa565b6040516001600160a01b038085166024830152831660448201526064810182905261169f9085906323b872dd60e01b9060840161240e565b60006124ff826040518060400160405280602081526020017f5361666545524332303a206c6f772d6c6576656c2063616c6c206661696c6564815250856001600160a01b031661257c9092919063ffffffff16565b805190915015611a4e578080602001905181019061251d9190612ee4565b611a4e5760405162461bcd60e51b815260206004820152602a60248201527f5361666545524332303a204552433230206f7065726174696f6e20646964206e6044820152691bdd081cdd58d8d9595960b21b606482015260840161070c565b606061258b8484600085612593565b949350505050565b6060824710156125f45760405162461bcd60e51b815260206004820152602660248201527f416464726573733a20696e73756666696369656e742062616c616e636520666f6044820152651c8818d85b1b60d21b606482015260840161070c565b6001600160a01b0385163b61264b5760405162461bcd60e51b815260206004820152601d60248201527f416464726573733a2063616c6c20746f206e6f6e2d636f6e7472616374000000604482015260640161070c565b600080866001600160a01b031685876040516126679190612eb2565b60006040518083038185875af1925050503d80600081146126a4576040519150601f19603f3d011682016040523d82523d6000602084013e6126a9565b606091505b50915091506126b98282866123a9565b979650505050505050565b8280546126d090612c8e565b90600052602060002090601f0160209004810192826126f25760008555612738565b82601f1061270b57805160ff1916838001178555612738565b82800160010185558215612738579182015b8281111561273857825182559160200191906001019061271d565b50612744929150612748565b5090565b5b808211156127445760008155600101612749565b60005b83811015612778578181015183820152602001612760565b8381111561169f5750506000910152565b600081518084526127a181602086016020860161275d565b601f01601f19169290920160200192915050565b6020815260006107406020830184612789565b80356001600160a01b03811681146127df57600080fd5b919050565b600080604083850312156127f757600080fd5b612800836127c8565b946020939093013593505050565b60006020828403121561282057600080fd5b610740826127c8565b60008060006060848603121561283e57600080fd5b612847846127c8565b9250612855602085016127c8565b9150604084013590509250925092565b60006020828403121561287757600080fd5b5035919050565b600060408284031215611d0357600080fd5b634e487b7160e01b600052604160045260246000fd5b600067ffffffffffffffff808411156128c1576128c1612890565b604051601f8501601f19908116603f011681019082821181831017156128e9576128e9612890565b8160405280935085815286868601111561290257600080fd5b858560208301376000602087830101525050509392505050565b60008060008060008060c0878903121561293557600080fd5b61293e876127c8565b955060208701359450612953604088016127c8565b935060608701359250608087013567ffffffffffffffff8082111561297757600080fd5b6129838a838b0161287e565b935060a089013591508082111561299957600080fd5b508701601f810189136129ab57600080fd5b6129ba898235602084016128a6565b9150509295509295509295565b801515811461071e57600080fd5b6000808284036101208112156129ea57600080fd5b610100808212156129fa57600080fd5b8493508301359050612a0b816129c7565b809150509250929050565b600060208284031215612a2857600080fd5b813567ffffffffffffffff811115612a3f57600080fd5b8201601f81018413612a5057600080fd5b61258b848235602084016128a6565b600080600080600060a08688031215612a7757600080fd5b612a80866127c8565b945060208601359350612a95604087016127c8565b9250606086013591506080860135612aac816129c7565b809150509295509295909350565b60008060208385031215612acd57600080fd5b823567ffffffffffffffff80821115612ae557600080fd5b818501915085601f830112612af957600080fd5b813581811115612b0857600080fd5b8660208260051b8501011115612b1d57600080fd5b60209290920196919550909350505050565b6000602080830181845280855180835260408601915060408160051b870101925083870160005b82811015612b8457603f19888603018452612b72858351612789565b94509285019290850190600101612b56565b5092979650505050505050565b600080600080600080600060e0888a031215612bac57600080fd5b612bb5886127c8565b9650612bc3602089016127c8565b95506040880135945060608801359350608088013560ff81168114612be757600080fd5b9699959850939692959460a0840135945060c09093013592915050565b60008060408385031215612c1757600080fd5b612c20836127c8565b9150612c2e602084016127c8565b90509250929050565b600080600060608486031215612c4c57600080fd5b612c55846127c8565b925060208401359150604084013567ffffffffffffffff811115612c7857600080fd5b612c848682870161287e565b9150509250925092565b600181811c90821680612ca257607f821691505b60208210811415611d0357634e487b7160e01b600052602260045260246000fd5b634e487b7160e01b600052601160045260246000fd5b60008219821115612cec57612cec612cc3565b500190565b600061012082019050833582526020840135602083015260408401356040830152606084013560608301526080840135608083015260a084013560a083015260c084013560c08301526001600160a01b03612d4e60e086016127c8565b1660e083015291151561010090910152919050565b634e487b7160e01b600052603260045260246000fd5b6000808335601e19843603018112612d9057600080fd5b83018035915067ffffffffffffffff821115612dab57600080fd5b602001915036819003821315612dc057600080fd5b9250929050565b6000600019821415612ddb57612ddb612cc3565b5060010190565b6000808335601e19843603018112612df957600080fd5b83018035915067ffffffffffffffff821115612e1457600080fd5b6020019150600581901b3603821315612dc057600080fd5b600082821015612e3e57612e3e612cc3565b500390565b6000816000190483118215151615612e5d57612e5d612cc3565b500290565b600082612e7f57634e487b7160e01b600052601260045260246000fd5b500490565b604081526000612e976040830185612789565b8281036020840152612ea98185612789565b95945050505050565b60008251612ec481846020870161275d565b9190910192915050565b634e487b7160e01b600052602160045260246000fd5b600060208284031215612ef657600080fd5b8151610740816129c756fe416464726573733a206c6f772d6c6576656c2064656c65676174652063616c6c206661696c6564a26469706673582212206c1f46523afe2c14ed6a5eaf5265a9dd38fe7866203cc57532d1b0004f903b4564736f6c634300080c0033",
  "linkReferences": {},
  "deployedLinkReferences": {}
}