{
  "_format": "hh-sol-artifact-1",
  "contractName": "ERC20Vote",
  "sourceName": "contracts/base/ERC20Vote.sol",
  "abi": [
    {
      "inputs": [
        {
          "internalType": "string",
          "name": "_name",
          "type": "string"
        },
        {
          "internalType": "string",
          "name": "_symbol",
          "type": "string"
        }
      ],
      "stateMutability": "nonpayable",
      "type": "constructor"
    },
    {
      "anonymous": false,
      "inputs": [
        {
          "indexed": true,
          "internalType": "address",
          "name": "owner",
          "type": "address"
        },
        {
          "indexed": true,
          "internalType": "address",
          "name": "spender",
          "type": "address"
        },
        {
          "indexed": false,
          "internalType": "uint256",
          "name": "value",
          "type": "uint256"
        }
      ],
      "name": "Approval",
      "type": "event"
    },
    {
      "anonymous": false,
      "inputs": [
        {
          "indexed": false,
          "internalType": "string",
          "name": "prevURI",
          "type": "string"
        },
        {
          "indexed": false,
          "internalType": "string",
          "name": "newURI",
          "type": "string"
        }
      ],
      "name": "ContractURIUpdated",
      "type": "event"
    },
    {
      "anonymous": false,
      "inputs": [
        {
          "indexed": true,
          "internalType": "address",
          "name": "delegator",
          "type": "address"
        },
        {
          "indexed": true,
          "internalType": "address",
          "name": "fromDelegate",
          "type": "address"
        },
        {
          "indexed": true,
          "internalType": "address",
          "name": "toDelegate",
          "type": "address"
        }
      ],
      "name": "DelegateChanged",
      "type": "event"
    },
    {
      "anonymous": false,
      "inputs": [
        {
          "indexed": true,
          "internalType": "address",
          "name": "delegate",
          "type": "address"
        },
        {
          "indexed": false,
          "internalType": "uint256",
          "name": "previousBalance",
          "type": "uint256"
        },
        {
          "indexed": false,
          "internalType": "uint256",
          "name": "newBalance",
          "type": "uint256"
        }
      ],
      "name": "DelegateVotesChanged",
      "type": "event"
    },
    {
      "anonymous": false,
      "inputs": [
        {
          "indexed": true,
          "internalType": "address",
          "name": "prevOwner",
          "type": "address"
        },
        {
          "indexed": true,
          "internalType": "address",
          "name": "newOwner",
          "type": "address"
        }
      ],
      "name": "OwnerUpdated",
      "type": "event"
    },
    {
      "anonymous": false,
      "inputs": [
        {
          "indexed": true,
          "internalType": "address",
          "name": "from",
          "type": "address"
        },
        {
          "indexed": true,
          "internalType": "address",
          "name": "to",
          "type": "address"
        },
        {
          "indexed": false,
          "internalType": "uint256",
          "name": "value",
          "type": "uint256"
        }
      ],
      "name": "Transfer",
      "type": "event"
    },
    {
      "inputs": [],
      "name": "DOMAIN_SEPARATOR",
      "outputs": [
        {
          "internalType": "bytes32",
          "name": "",
          "type": "bytes32"
        }
      ],
      "stateMutability": "view",
      "type": "function"
    },
    {
      "inputs": [
        {
          "internalType": "address",
          "name": "owner",
          "type": "address"
        },
        {
          "internalType": "address",
          "name": "spender",
          "type": "address"
        }
      ],
      "name": "allowance",
      "outputs": [
        {
          "internalType": "uint256",
          "name": "",
          "type": "uint256"
        }
      ],
      "stateMutability": "view",
      "type": "function"
    },
    {
      "inputs": [
        {
          "internalType": "address",
          "name": "spender",
          "type": "address"
        },
        {
          "internalType": "uint256",
          "name": "amount",
          "type": "uint256"
        }
      ],
      "name": "approve",
      "outputs": [
        {
          "internalType": "bool",
          "name": "",
          "type": "bool"
        }
      ],
      "stateMutability": "nonpayable",
      "type": "function"
    },
    {
      "inputs": [
        {
          "internalType": "address",
          "name": "account",
          "type": "address"
        }
      ],
      "name": "balanceOf",
      "outputs": [
        {
          "internalType": "uint256",
          "name": "",
          "type": "uint256"
        }
      ],
      "stateMutability": "view",
      "type": "function"
    },
    {
      "inputs": [
        {
          "internalType": "uint256",
          "name": "_amount",
          "type": "uint256"
        }
      ],
      "name": "burn",
      "outputs": [],
      "stateMutability": "nonpayable",
      "type": "function"
    },
    {
      "inputs": [
        {
          "internalType": "address",
          "name": "account",
          "type": "address"
        },
        {
          "internalType": "uint32",
          "name": "pos",
          "type": "uint32"
        }
      ],
      "name": "checkpoints",
      "outputs": [
        {
          "components": [
            {
              "internalType": "uint32",
              "name": "fromBlock",
              "type": "uint32"
            },
            {
              "internalType": "uint224",
              "name": "votes",
              "type": "uint224"
            }
          ],
          "internalType": "struct ERC20Votes.Checkpoint",
          "name": "",
          "type": "tuple"
        }
      ],
      "stateMutability": "view",
      "type": "function"
    },
    {
      "inputs": [],
      "name": "contractURI",
      "outputs": [
        {
          "internalType": "string",
          "name": "",
          "type": "string"
        }
      ],
      "stateMutability": "view",
      "type": "function"
    },
    {
      "inputs": [],
      "name": "decimals",
      "outputs": [
        {
          "internalType": "uint8",
          "name": "",
          "type": "uint8"
        }
      ],
      "stateMutability": "view",
      "type": "function"
    },
    {
      "inputs": [
        {
          "internalType": "address",
          "name": "spender",
          "type": "address"
        },
        {
          "internalType": "uint256",
          "name": "subtractedValue",
          "type": "uint256"
        }
      ],
      "name": "decreaseAllowance",
      "outputs": [
        {
          "internalType": "bool",
          "name": "",
          "type": "bool"
        }
      ],
      "stateMutability": "nonpayable",
      "type": "function"
    },
    {
      "inputs": [
        {
          "internalType": "address",
          "name": "delegatee",
          "type": "address"
        }
      ],
      "name": "delegate",
      "outputs": [],
      "stateMutability": "nonpayable",
      "type": "function"
    },
    {
      "inputs": [
        {
          "internalType": "address",
          "name": "delegatee",
          "type": "address"
        },
        {
          "internalType": "uint256",
          "name": "nonce",
          "type": "uint256"
        },
        {
          "internalType": "uint256",
          "name": "expiry",
          "type": "uint256"
        },
        {
          "internalType": "uint8",
          "name": "v",
          "type": "uint8"
        },
        {
          "internalType": "bytes32",
          "name": "r",
          "type": "bytes32"
        },
        {
          "internalType": "bytes32",
          "name": "s",
          "type": "bytes32"
        }
      ],
      "name": "delegateBySig",
      "outputs": [],
      "stateMutability": "nonpayable",
      "type": "function"
    },
    {
      "inputs": [
        {
          "internalType": "address",
          "name": "account",
          "type": "address"
        }
      ],
      "name": "delegates",
      "outputs": [
        {
          "internalType": "address",
          "name": "",
          "type": "address"
        }
      ],
      "stateMutability": "view",
      "type": "function"
    },
    {
      "inputs": [
        {
          "internalType": "uint256",
          "name": "blockNumber",
          "type": "uint256"
        }
      ],
      "name": "getPastTotalSupply",
      "outputs": [
        {
          "internalType": "uint256",
          "name": "",
          "type": "uint256"
        }
      ],
      "stateMutability": "view",
      "type": "function"
    },
    {
      "inputs": [
        {
          "internalType": "address",
          "name": "account",
          "type": "address"
        },
        {
          "internalType": "uint256",
          "name": "blockNumber",
          "type": "uint256"
        }
      ],
      "name": "getPastVotes",
      "outputs": [
        {
          "internalType": "uint256",
          "name": "",
          "type": "uint256"
        }
      ],
      "stateMutability": "view",
      "type": "function"
    },
    {
      "inputs": [
        {
          "internalType": "address",
          "name": "account",
          "type": "address"
        }
      ],
      "name": "getVotes",
      "outputs": [
        {
          "internalType": "uint256",
          "name": "",
          "type": "uint256"
        }
      ],
      "stateMutability": "view",
      "type": "function"
    },
    {
      "inputs": [
        {
          "internalType": "address",
          "name": "spender",
          "type": "address"
        },
        {
          "internalType": "uint256",
          "name": "addedValue",
          "type": "uint256"
        }
      ],
      "name": "increaseAllowance",
      "outputs": [
        {
          "internalType": "bool",
          "name": "",
          "type": "bool"
        }
      ],
      "stateMutability": "nonpayable",
      "type": "function"
    },
    {
      "inputs": [
        {
          "internalType": "address",
          "name": "_to",
          "type": "address"
        },
        {
          "internalType": "uint256",
          "name": "_amount",
          "type": "uint256"
        }
      ],
      "name": "mintTo",
      "outputs": [],
      "stateMutability": "nonpayable",
      "type": "function"
    },
    {
      "inputs": [
        {
          "internalType": "bytes[]",
          "name": "data",
          "type": "bytes[]"
        }
      ],
      "name": "multicall",
      "outputs": [
        {
          "internalType": "bytes[]",
          "name": "results",
          "type": "bytes[]"
        }
      ],
      "stateMutability": "nonpayable",
      "type": "function"
    },
    {
      "inputs": [],
      "name": "name",
      "outputs": [
        {
          "internalType": "string",
          "name": "",
          "type": "string"
        }
      ],
      "stateMutability": "view",
      "type": "function"
    },
    {
      "inputs": [
        {
          "internalType": "address",
          "name": "owner",
          "type": "address"
        }
      ],
      "name": "nonces",
      "outputs": [
        {
          "internalType": "uint256",
          "name": "",
          "type": "uint256"
        }
      ],
      "stateMutability": "view",
      "type": "function"
    },
    {
      "inputs": [
        {
          "internalType": "address",
          "name": "account",
          "type": "address"
        }
      ],
      "name": "numCheckpoints",
      "outputs": [
        {
          "internalType": "uint32",
          "name": "",
          "type": "uint32"
        }
      ],
      "stateMutability": "view",
      "type": "function"
    },
    {
      "inputs": [],
      "name": "owner",
      "outputs": [
        {
          "internalType": "address",
          "name": "",
          "type": "address"
        }
      ],
      "stateMutability": "view",
      "type": "function"
    },
    {
      "inputs": [
        {
          "internalType": "address",
          "name": "owner",
          "type": "address"
        },
        {
          "internalType": "address",
          "name": "spender",
          "type": "address"
        },
        {
          "internalType": "uint256",
          "name": "value",
          "type": "uint256"
        },
        {
          "internalType": "uint256",
          "name": "deadline",
          "type": "uint256"
        },
        {
          "internalType": "uint8",
          "name": "v",
          "type": "uint8"
        },
        {
          "internalType": "bytes32",
          "name": "r",
          "type": "bytes32"
        },
        {
          "internalType": "bytes32",
          "name": "s",
          "type": "bytes32"
        }
      ],
      "name": "permit",
      "outputs": [],
      "stateMutability": "nonpayable",
      "type": "function"
    },
    {
      "inputs": [
        {
          "internalType": "string",
          "name": "_uri",
          "type": "string"
        }
      ],
      "name": "setContractURI",
      "outputs": [],
      "stateMutability": "nonpayable",
      "type": "function"
    },
    {
      "inputs": [
        {
          "internalType": "address",
          "name": "_newOwner",
          "type": "address"
        }
      ],
      "name": "setOwner",
      "outputs": [],
      "stateMutability": "nonpayable",
      "type": "function"
    },
    {
      "inputs": [],
      "name": "symbol",
      "outputs": [
        {
          "internalType": "string",
          "name": "",
          "type": "string"
        }
      ],
      "stateMutability": "view",
      "type": "function"
    },
    {
      "inputs": [],
      "name": "totalSupply",
      "outputs": [
        {
          "internalType": "uint256",
          "name": "",
          "type": "uint256"
        }
      ],
      "stateMutability": "view",
      "type": "function"
    },
    {
      "inputs": [
        {
          "internalType": "address",
          "name": "to",
          "type": "address"
        },
        {
          "internalType": "uint256",
          "name": "amount",
          "type": "uint256"
        }
      ],
      "name": "transfer",
      "outputs": [
        {
          "internalType": "bool",
          "name": "",
          "type": "bool"
        }
      ],
      "stateMutability": "nonpayable",
      "type": "function"
    },
    {
      "inputs": [
        {
          "internalType": "address",
          "name": "from",
          "type": "address"
        },
        {
          "internalType": "address",
          "name": "to",
          "type": "address"
        },
        {
          "internalType": "uint256",
          "name": "amount",
          "type": "uint256"
        }
      ],
      "name": "transferFrom",
      "outputs": [
        {
          "internalType": "bool",
          "name": "",
          "type": "bool"
        }
      ],
      "stateMutability": "nonpayable",
      "type": "function"
    }
  ],
  "bytecode": "0x6101006040527f6e71edae12b1b97f4d1f60370fef10105fa2faae0126114a169c64845d6126c960e0523480156200003657600080fd5b5060405162002c2a38038062002c2a8339810160408190526200005991620003af565b818181818160059080519060200190620000759291906200023c565b5080516200008b9060069060208401906200023c565b50504660a052503060c052620000a0620000b9565b60805250620000b190503362000150565b505062000456565b60007f8b73c3c69bb8fe3d512ecc4cf759cc79239f7b179b0ffacaa9a75d522b39400f620000e6620001a2565b80516020918201206040805192830193909352918101919091527fc89efdaa54c0f20c7adf612882df0950f5a951637e0307cdcb4c672f298b8bc660608201524660808201523060a082015260c00160405160208183030381529060405280519060200120905090565b600180546001600160a01b038381166001600160a01b0319831681179093556040519116919082907f8292fce18fa69edf4db7b94ea2e58241df0ae57f97e0a6c9b29067028bf92d7690600090a35050565b606060058054620001b39062000419565b80601f0160208091040260200160405190810160405280929190818152602001828054620001e19062000419565b8015620002325780601f10620002065761010080835404028352916020019162000232565b820191906000526020600020905b8154815290600101906020018083116200021457829003601f168201915b5050505050905090565b8280546200024a9062000419565b90600052602060002090601f0160209004810192826200026e5760008555620002b9565b82601f106200028957805160ff1916838001178555620002b9565b82800160010185558215620002b9579182015b82811115620002b95782518255916020019190600101906200029c565b50620002c7929150620002cb565b5090565b5b80821115620002c75760008155600101620002cc565b634e487b7160e01b600052604160045260246000fd5b600082601f8301126200030a57600080fd5b81516001600160401b0380821115620003275762000327620002e2565b604051601f8301601f19908116603f01168101908282118183101715620003525762000352620002e2565b816040528381526020925086838588010111156200036f57600080fd5b600091505b8382101562000393578582018301518183018401529082019062000374565b83821115620003a55760008385830101525b9695505050505050565b60008060408385031215620003c357600080fd5b82516001600160401b0380821115620003db57600080fd5b620003e986838701620002f8565b935060208501519150808211156200040057600080fd5b506200040f85828601620002f8565b9150509250929050565b600181811c908216806200042e57607f821691505b602082108114156200045057634e487b7160e01b600052602260045260246000fd5b50919050565b60805160a05160c05160e05161279a620004906000396000610d29015260006105dc0152600061060601526000610630015261279a6000f3fe608060405234801561001057600080fd5b50600436106101cf5760003560e01c806370a0823111610104578063a457c2d7116100a2578063d505accf11610071578063d505accf14610418578063dd62ed3e1461042b578063e8a3d48514610464578063f1127ed81461046c57600080fd5b8063a457c2d7146103bf578063a9059cbb146103d2578063ac9650d8146103e5578063c3cda5201461040557600080fd5b80638e539e8c116100de5780638e539e8c1461037e578063938e3d7b1461039157806395d89b41146103a45780639ab24eb0146103ac57600080fd5b806370a08231146103315780637ecebe001461035a5780638da5cb5b1461036d57600080fd5b80633950935111610171578063449a52f81161014b578063449a52f81461029f578063587cde1e146102b25780635c19a95c146102f65780636fcfff451461030957600080fd5b806339509351146102665780633a46b1a81461027957806342966c681461028c57600080fd5b806318160ddd116101ad57806318160ddd1461022a57806323b872dd1461023c578063313ce5671461024f5780633644e5151461025e57600080fd5b806306fdde03146101d4578063095ea7b3146101f257806313af403514610215575b600080fd5b6101dc6104a9565b6040516101e99190612215565b60405180910390f35b610205610200366004612244565b61053b565b60405190151581526020016101e9565b61022861022336600461226e565b610553565b005b6004545b6040519081526020016101e9565b61020561024a366004612289565b6105a9565b604051601281526020016101e9565b61022e6105cf565b610205610274366004612244565b61065f565b61022e610287366004612244565b61069e565b61022861029a3660046122c5565b610711565b6102286102ad366004612244565b610773565b6102de6102c036600461226e565b6001600160a01b039081166000908152600860205260409020541690565b6040516001600160a01b0390911681526020016101e9565b61022861030436600461226e565b610822565b61031c61031736600461226e565b61082c565b60405163ffffffff90911681526020016101e9565b61022e61033f36600461226e565b6001600160a01b031660009081526002602052604090205490565b61022e61036836600461226e565b610854565b6001546001600160a01b03166102de565b61022e61038c3660046122c5565b610872565b61022861039f3660046122f4565b6108ce565b6101dc61091c565b61022e6103ba36600461226e565b61092b565b6102056103cd366004612244565b6109b2565b6102056103e0366004612244565b610a4f565b6103f86103f33660046123a5565b610a5d565b6040516101e9919061241a565b61022861041336600461248d565b610b52565b6102286104263660046124e5565b610cd5565b61022e61043936600461254f565b6001600160a01b03918216600090815260036020908152604080832093909416825291909152205490565b6101dc610e3b565b61047f61047a366004612582565b610ec9565b60408051825163ffffffff1681526020928301516001600160e01b031692810192909252016101e9565b6060600580546104b8906125c2565b80601f01602080910402602001604051908101604052809291908181526020018280546104e4906125c2565b80156105315780601f1061050657610100808354040283529160200191610531565b820191906000526020600020905b81548152906001019060200180831161051457829003601f168201915b5050505050905090565b600033610549818585610f4d565b5060019392505050565b61055b611071565b61059d5760405162461bcd60e51b815260206004820152600e60248201526d139bdd08185d5d1a1bdc9a5e995960921b60448201526064015b60405180910390fd5b6105a68161109e565b50565b6000336105b78582856110fd565b6105c285858561118f565b60019150505b9392505050565b6000306001600160a01b037f00000000000000000000000000000000000000000000000000000000000000001614801561062857507f000000000000000000000000000000000000000000000000000000000000000046145b1561065257507f000000000000000000000000000000000000000000000000000000000000000090565b61065a611363565b905090565b3360008181526003602090815260408083206001600160a01b0387168452909152812054909190610549908290869061069990879061260d565b610f4d565b60004382106106ef5760405162461bcd60e51b815260206004820152601f60248201527f4552433230566f7465733a20626c6f636b206e6f7420796574206d696e6564006044820152606401610594565b6001600160a01b03831660009081526009602052604090206105c890836113f8565b8061071b3361033f565b10156107695760405162461bcd60e51b815260206004820152601260248201527f6e6f7420656e6f7567682062616c616e636500000000000000000000000000006044820152606401610594565b6105a633826114b5565b61077b611071565b6107c75760405162461bcd60e51b815260206004820152601760248201527f4e6f7420617574686f72697a656420746f206d696e742e0000000000000000006044820152606401610594565b806108145760405162461bcd60e51b815260206004820152601460248201527f4d696e74696e67207a65726f20746f6b656e732e0000000000000000000000006044820152606401610594565b61081e82826114cd565b5050565b6105a63382611564565b6001600160a01b03811660009081526009602052604081205461084e906115eb565b92915050565b6001600160a01b03811660009081526007602052604081205461084e565b60004382106108c35760405162461bcd60e51b815260206004820152601f60248201527f4552433230566f7465733a20626c6f636b206e6f7420796574206d696e6564006044820152606401610594565b61084e600a836113f8565b6108d6611071565b6109135760405162461bcd60e51b815260206004820152600e60248201526d139bdd08185d5d1a1bdc9a5e995960921b6044820152606401610594565b6105a681611654565b6060600680546104b8906125c2565b6001600160a01b038116600090815260096020526040812054801561099f576001600160a01b038316600090815260096020526040902061096d600183612625565b8154811061097d5761097d61263c565b60009182526020909120015464010000000090046001600160e01b03166109a2565b60005b6001600160e01b03169392505050565b3360008181526003602090815260408083206001600160a01b038716845290915281205490919083811015610a375760405162461bcd60e51b815260206004820152602560248201527f45524332303a2064656372656173656420616c6c6f77616e63652062656c6f77604482015264207a65726f60d81b6064820152608401610594565b610a448286868403610f4d565b506001949350505050565b60003361054981858561118f565b60608167ffffffffffffffff811115610a7857610a786122de565b604051908082528060200260200182016040528015610aab57816020015b6060815260200190600190039081610a965790505b50905060005b82811015610b4b57610b1b30858584818110610acf57610acf61263c565b9050602002810190610ae19190612652565b8080601f01602080910402602001604051908101604052809392919081815260200183838082843760009201919091525061173592505050565b828281518110610b2d57610b2d61263c565b60200260200101819052508080610b43906126a0565b915050610ab1565b5092915050565b83421115610ba25760405162461bcd60e51b815260206004820152601d60248201527f4552433230566f7465733a207369676e617475726520657870697265640000006044820152606401610594565b604080517fe48329057bfd03d55e49b547132e39cffd9c1820ad7b9d4c5307691425d15adf60208201526001600160a01b03881691810191909152606081018690526080810185905260009060a0016040516020818303038152906040528051906020012090506000610c57610c166105cf565b8360405161190160f01b6020820152602281018390526042810182905260009060620160405160208183030381529060405280519060200120905092915050565b90506000610c678287878761175a565b9050610c7281611782565b8814610cc05760405162461bcd60e51b815260206004820152601960248201527f4552433230566f7465733a20696e76616c6964206e6f6e6365000000000000006044820152606401610594565b610cca818a611564565b505050505050505050565b83421115610d255760405162461bcd60e51b815260206004820152601d60248201527f45524332305065726d69743a206578706972656420646561646c696e650000006044820152606401610594565b60007f0000000000000000000000000000000000000000000000000000000000000000888888610d548c611782565b6040805160208101969096526001600160a01b0394851690860152929091166060840152608083015260a082015260c0810186905260e0016040516020818303038152906040528051906020012090506000610db1610c166105cf565b90506000610dc18287878761175a565b9050896001600160a01b0316816001600160a01b031614610e245760405162461bcd60e51b815260206004820152601e60248201527f45524332305065726d69743a20696e76616c6964207369676e617475726500006044820152606401610594565b610e2f8a8a8a610f4d565b50505050505050505050565b60008054610e48906125c2565b80601f0160208091040260200160405190810160405280929190818152602001828054610e74906125c2565b8015610ec15780601f10610e9657610100808354040283529160200191610ec1565b820191906000526020600020905b815481529060010190602001808311610ea457829003601f168201915b505050505081565b60408051808201909152600080825260208201526001600160a01b0383166000908152600960205260409020805463ffffffff8416908110610f0d57610f0d61263c565b60009182526020918290206040805180820190915291015463ffffffff8116825264010000000090046001600160e01b0316918101919091529392505050565b6001600160a01b038316610faf5760405162461bcd60e51b8152602060048201526024808201527f45524332303a20617070726f76652066726f6d20746865207a65726f206164646044820152637265737360e01b6064820152608401610594565b6001600160a01b0382166110105760405162461bcd60e51b815260206004820152602260248201527f45524332303a20617070726f766520746f20746865207a65726f206164647265604482015261737360f01b6064820152608401610594565b6001600160a01b0383811660008181526003602090815260408083209487168084529482529182902085905590518481527f8c5be1e5ebec7d5bd14f71427d1e84f3dd0314c0f7b2291e5b200ac8c7c3b925910160405180910390a3505050565b60006110856001546001600160a01b031690565b6001600160a01b0316336001600160a01b031614905090565b600180546001600160a01b0383811673ffffffffffffffffffffffffffffffffffffffff19831681179093556040519116919082907f8292fce18fa69edf4db7b94ea2e58241df0ae57f97e0a6c9b29067028bf92d7690600090a35050565b6001600160a01b038381166000908152600360209081526040808320938616835292905220546000198114611189578181101561117c5760405162461bcd60e51b815260206004820152601d60248201527f45524332303a20696e73756666696369656e7420616c6c6f77616e63650000006044820152606401610594565b6111898484848403610f4d565b50505050565b6001600160a01b0383166111f35760405162461bcd60e51b815260206004820152602560248201527f45524332303a207472616e736665722066726f6d20746865207a65726f206164604482015264647265737360d81b6064820152608401610594565b6001600160a01b0382166112555760405162461bcd60e51b815260206004820152602360248201527f45524332303a207472616e7366657220746f20746865207a65726f206164647260448201526265737360e81b6064820152608401610594565b6001600160a01b038316600090815260026020526040902054818110156112cd5760405162461bcd60e51b815260206004820152602660248201527f45524332303a207472616e7366657220616d6f756e7420657863656564732062604482015265616c616e636560d01b6064820152608401610594565b6001600160a01b0380851660009081526002602052604080822085850390559185168152908120805484929061130490849061260d565b92505081905550826001600160a01b0316846001600160a01b03167fddf252ad1be2c89b69c2b068fc378daa952ba7f163c4a11628f55a4df523b3ef8460405161135091815260200190565b60405180910390a36111898484846117af565b60007f8b73c3c69bb8fe3d512ecc4cf759cc79239f7b179b0ffacaa9a75d522b39400f61138e6104a9565b80516020918201206040805192830193909352918101919091527fc89efdaa54c0f20c7adf612882df0950f5a951637e0307cdcb4c672f298b8bc660608201524660808201523060a082015260c00160405160208183030381529060405280519060200120905090565b8154600090815b8181101561145c57600061141382846117e1565b9050848682815481106114285761142861263c565b60009182526020909120015463ffffffff16111561144857809250611456565b61145381600161260d565b91505b506113ff565b81156114a0578461146e600184612625565b8154811061147e5761147e61263c565b60009182526020909120015464010000000090046001600160e01b03166114a3565b60005b6001600160e01b031695945050505050565b6114bf82826117fc565b611189600a6119518361195d565b6114d78282611ad6565b6004546001600160e01b0310156115565760405162461bcd60e51b815260206004820152603060248201527f4552433230566f7465733a20746f74616c20737570706c79207269736b73206f60448201527f766572666c6f77696e6720766f746573000000000000000000000000000000006064820152608401610594565b611189600a611bbd8361195d565b6001600160a01b038281166000818152600860208181526040808420805460028452828620549490935287871673ffffffffffffffffffffffffffffffffffffffff198416811790915590519190951694919391928592917f3134e8a2e6d97e929a7e54011ea5485d7d196dd5f0ba4d4ef95803e8e3fc257f9190a4611189828483611bc9565b600063ffffffff8211156116505760405162461bcd60e51b815260206004820152602660248201527f53616665436173743a2076616c756520646f65736e27742066697420696e203360448201526532206269747360d01b6064820152608401610594565b5090565b6000808054611662906125c2565b80601f016020809104026020016040519081016040528092919081815260200182805461168e906125c2565b80156116db5780601f106116b0576101008083540402835291602001916116db565b820191906000526020600020905b8154815290600101906020018083116116be57829003601f168201915b505085519394506116f79360009350602087019250905061212d565b507fc9c7c3fe08b88b4df9d4d47ef47d2c43d55c025a0ba88ca442580ed9e7348a1681836040516117299291906126bb565b60405180910390a15050565b60606105c8838360405180606001604052806027815260200161273e60279139611d06565b600080600061176b87878787611de3565b9150915061177881611ed0565b5095945050505050565b6001600160a01b03811660009081526007602052604090208054600181018255905b50919050565b505050565b6001600160a01b038381166000908152600860205260408082205485841683529120546117aa92918216911683611bc9565b60006117f060028484186126e9565b6105c89084841661260d565b6001600160a01b03821661185c5760405162461bcd60e51b815260206004820152602160248201527f45524332303a206275726e2066726f6d20746865207a65726f206164647265736044820152607360f81b6064820152608401610594565b6001600160a01b038216600090815260026020526040902054818110156118d05760405162461bcd60e51b815260206004820152602260248201527f45524332303a206275726e20616d6f756e7420657863656564732062616c616e604482015261636560f01b6064820152608401610594565b6001600160a01b03831660009081526002602052604081208383039055600480548492906118ff908490612625565b90915550506040518281526000906001600160a01b038516907fddf252ad1be2c89b69c2b068fc378daa952ba7f163c4a11628f55a4df523b3ef9060200160405180910390a36117aa836000846117af565b60006105c88284612625565b8254600090819080156119a85785611976600183612625565b815481106119865761198661263c565b60009182526020909120015464010000000090046001600160e01b03166119ab565b60005b6001600160e01b031692506119c483858763ffffffff16565b9150600081118015611a02575043866119de600184612625565b815481106119ee576119ee61263c565b60009182526020909120015463ffffffff16145b15611a6257611a108261208b565b86611a1c600184612625565b81548110611a2c57611a2c61263c565b9060005260206000200160000160046101000a8154816001600160e01b0302191690836001600160e01b03160217905550611acd565b856040518060400160405280611a77436115eb565b63ffffffff168152602001611a8b8561208b565b6001600160e01b0390811690915282546001810184556000938452602093849020835194909301519091166401000000000263ffffffff909316929092179101555b50935093915050565b6001600160a01b038216611b2c5760405162461bcd60e51b815260206004820152601f60248201527f45524332303a206d696e7420746f20746865207a65726f2061646472657373006044820152606401610594565b8060046000828254611b3e919061260d565b90915550506001600160a01b03821660009081526002602052604081208054839290611b6b90849061260d565b90915550506040518181526001600160a01b038316906000907fddf252ad1be2c89b69c2b068fc378daa952ba7f163c4a11628f55a4df523b3ef9060200160405180910390a361081e600083836117af565b60006105c8828461260d565b816001600160a01b0316836001600160a01b031614158015611beb5750600081115b156117aa576001600160a01b03831615611c79576001600160a01b03831660009081526009602052604081208190611c26906119518561195d565b91509150846001600160a01b03167fdec2bacdd2f05b59de34da9b523dff8be42e5e38e818c82fdb0bae774387a7248383604051611c6e929190918252602082015260400190565b60405180910390a250505b6001600160a01b038216156117aa576001600160a01b03821660009081526009602052604081208190611caf90611bbd8561195d565b91509150836001600160a01b03167fdec2bacdd2f05b59de34da9b523dff8be42e5e38e818c82fdb0bae774387a7248383604051611cf7929190918252602082015260400190565b60405180910390a25050505050565b60606001600160a01b0384163b611d6e5760405162461bcd60e51b815260206004820152602660248201527f416464726573733a2064656c65676174652063616c6c20746f206e6f6e2d636f6044820152651b9d1c9858dd60d21b6064820152608401610594565b600080856001600160a01b031685604051611d89919061270b565b600060405180830381855af49150503d8060008114611dc4576040519150601f19603f3d011682016040523d82523d6000602084013e611dc9565b606091505b5091509150611dd98282866120f4565b9695505050505050565b6000807f7fffffffffffffffffffffffffffffff5d576e7357a4501ddfe92f46681b20a0831115611e1a5750600090506003611ec7565b8460ff16601b14158015611e3257508460ff16601c14155b15611e435750600090506004611ec7565b6040805160008082526020820180845289905260ff881692820192909252606081018690526080810185905260019060a0016020604051602081039080840390855afa158015611e97573d6000803e3d6000fd5b5050604051601f1901519150506001600160a01b038116611ec057600060019250925050611ec7565b9150600090505b94509492505050565b6000816004811115611ee457611ee4612727565b1415611eed5750565b6001816004811115611f0157611f01612727565b1415611f4f5760405162461bcd60e51b815260206004820152601860248201527f45434453413a20696e76616c6964207369676e617475726500000000000000006044820152606401610594565b6002816004811115611f6357611f63612727565b1415611fb15760405162461bcd60e51b815260206004820152601f60248201527f45434453413a20696e76616c6964207369676e6174757265206c656e677468006044820152606401610594565b6003816004811115611fc557611fc5612727565b141561201e5760405162461bcd60e51b815260206004820152602260248201527f45434453413a20696e76616c6964207369676e6174757265202773272076616c604482015261756560f01b6064820152608401610594565b600481600481111561203257612032612727565b14156105a65760405162461bcd60e51b815260206004820152602260248201527f45434453413a20696e76616c6964207369676e6174757265202776272076616c604482015261756560f01b6064820152608401610594565b60006001600160e01b038211156116505760405162461bcd60e51b815260206004820152602760248201527f53616665436173743a2076616c756520646f65736e27742066697420696e20326044820152663234206269747360c81b6064820152608401610594565b606083156121035750816105c8565b8251156121135782518084602001fd5b8160405162461bcd60e51b81526004016105949190612215565b828054612139906125c2565b90600052602060002090601f01602090048101928261215b57600085556121a1565b82601f1061217457805160ff19168380011785556121a1565b828001600101855582156121a1579182015b828111156121a1578251825591602001919060010190612186565b506116509291505b8082111561165057600081556001016121a9565b60005b838110156121d85781810151838201526020016121c0565b838111156111895750506000910152565b600081518084526122018160208601602086016121bd565b601f01601f19169290920160200192915050565b6020815260006105c860208301846121e9565b80356001600160a01b038116811461223f57600080fd5b919050565b6000806040838503121561225757600080fd5b61226083612228565b946020939093013593505050565b60006020828403121561228057600080fd5b6105c882612228565b60008060006060848603121561229e57600080fd5b6122a784612228565b92506122b560208501612228565b9150604084013590509250925092565b6000602082840312156122d757600080fd5b5035919050565b634e487b7160e01b600052604160045260246000fd5b60006020828403121561230657600080fd5b813567ffffffffffffffff8082111561231e57600080fd5b818401915084601f83011261233257600080fd5b813581811115612344576123446122de565b604051601f8201601f19908116603f0116810190838211818310171561236c5761236c6122de565b8160405282815287602084870101111561238557600080fd5b826020860160208301376000928101602001929092525095945050505050565b600080602083850312156123b857600080fd5b823567ffffffffffffffff808211156123d057600080fd5b818501915085601f8301126123e457600080fd5b8135818111156123f357600080fd5b8660208260051b850101111561240857600080fd5b60209290920196919550909350505050565b6000602080830181845280855180835260408601915060408160051b870101925083870160005b8281101561246f57603f1988860301845261245d8583516121e9565b94509285019290850190600101612441565b5092979650505050505050565b803560ff8116811461223f57600080fd5b60008060008060008060c087890312156124a657600080fd5b6124af87612228565b955060208701359450604087013593506124cb6060880161247c565b92506080870135915060a087013590509295509295509295565b600080600080600080600060e0888a03121561250057600080fd5b61250988612228565b965061251760208901612228565b955060408801359450606088013593506125336080890161247c565b925060a0880135915060c0880135905092959891949750929550565b6000806040838503121561256257600080fd5b61256b83612228565b915061257960208401612228565b90509250929050565b6000806040838503121561259557600080fd5b61259e83612228565b9150602083013563ffffffff811681146125b757600080fd5b809150509250929050565b600181811c908216806125d657607f821691505b602082108114156117a457634e487b7160e01b600052602260045260246000fd5b634e487b7160e01b600052601160045260246000fd5b60008219821115612620576126206125f7565b500190565b600082821015612637576126376125f7565b500390565b634e487b7160e01b600052603260045260246000fd5b6000808335601e1984360301811261266957600080fd5b83018035915067ffffffffffffffff82111561268457600080fd5b60200191503681900382131561269957600080fd5b9250929050565b60006000198214156126b4576126b46125f7565b5060010190565b6040815260006126ce60408301856121e9565b82810360208401526126e081856121e9565b95945050505050565b60008261270657634e487b7160e01b600052601260045260246000fd5b500490565b6000825161271d8184602087016121bd565b9190910192915050565b634e487b7160e01b600052602160045260246000fdfe416464726573733a206c6f772d6c6576656c2064656c65676174652063616c6c206661696c6564a2646970667358221220003c2b5f8e5bcc361d0d84a0ff01e8caf94386745ea71c8b7875bf671d6e327f64736f6c634300080c0033",
  "linkReferences": {},
  "deployedLinkReferences": {}
}