{
  "_format": "hh-sol-artifact-1",
  "contractName": "ERC721LazyMint",
  "sourceName": "contracts/base/ERC721LazyMint.sol",
  "abi": [
    {
      "inputs": [
        {
          "internalType": "string",
          "name": "_name",
          "type": "string"
        },
        {
          "internalType": "string",
          "name": "_symbol",
          "type": "string"
        },
        {
          "internalType": "address",
          "name": "_royaltyRecipient",
          "type": "address"
        },
        {
          "internalType": "uint128",
          "name": "_royaltyBps",
          "type": "uint128"
        }
      ],
      "stateMutability": "nonpayable",
      "type": "constructor"
    },
    {
      "inputs": [],
      "name": "ApprovalCallerNotOwnerNorApproved",
      "type": "error"
    },
    {
      "inputs": [],
      "name": "ApprovalQueryForNonexistentToken",
      "type": "error"
    },
    {
      "inputs": [],
      "name": "ApprovalToCurrentOwner",
      "type": "error"
    },
    {
      "inputs": [],
      "name": "ApproveToCaller",
      "type": "error"
    },
    {
      "inputs": [],
      "name": "BalanceQueryForZeroAddress",
      "type": "error"
    },
    {
      "inputs": [],
      "name": "MintToZeroAddress",
      "type": "error"
    },
    {
      "inputs": [],
      "name": "MintZeroQuantity",
      "type": "error"
    },
    {
      "inputs": [],
      "name": "OwnerQueryForNonexistentToken",
      "type": "error"
    },
    {
      "inputs": [],
      "name": "TransferCallerNotOwnerNorApproved",
      "type": "error"
    },
    {
      "inputs": [],
      "name": "TransferFromIncorrectOwner",
      "type": "error"
    },
    {
      "inputs": [],
      "name": "TransferToNonERC721ReceiverImplementer",
      "type": "error"
    },
    {
      "inputs": [],
      "name": "TransferToZeroAddress",
      "type": "error"
    },
    {
      "inputs": [],
      "name": "URIQueryForNonexistentToken",
      "type": "error"
    },
    {
      "anonymous": false,
      "inputs": [
        {
          "indexed": true,
          "internalType": "address",
          "name": "owner",
          "type": "address"
        },
        {
          "indexed": true,
          "internalType": "address",
          "name": "approved",
          "type": "address"
        },
        {
          "indexed": true,
          "internalType": "uint256",
          "name": "tokenId",
          "type": "uint256"
        }
      ],
      "name": "Approval",
      "type": "event"
    },
    {
      "anonymous": false,
      "inputs": [
        {
          "indexed": true,
          "internalType": "address",
          "name": "owner",
          "type": "address"
        },
        {
          "indexed": true,
          "internalType": "address",
          "name": "operator",
          "type": "address"
        },
        {
          "indexed": false,
          "internalType": "bool",
          "name": "approved",
          "type": "bool"
        }
      ],
      "name": "ApprovalForAll",
      "type": "event"
    },
    {
      "anonymous": false,
      "inputs": [
        {
          "indexed": false,
          "internalType": "string",
          "name": "prevURI",
          "type": "string"
        },
        {
          "indexed": false,
          "internalType": "string",
          "name": "newURI",
          "type": "string"
        }
      ],
      "name": "ContractURIUpdated",
      "type": "event"
    },
    {
      "anonymous": false,
      "inputs": [
        {
          "indexed": true,
          "internalType": "address",
          "name": "newRoyaltyRecipient",
          "type": "address"
        },
        {
          "indexed": false,
          "internalType": "uint256",
          "name": "newRoyaltyBps",
          "type": "uint256"
        }
      ],
      "name": "DefaultRoyalty",
      "type": "event"
    },
    {
      "anonymous": false,
      "inputs": [
        {
          "indexed": true,
          "internalType": "address",
          "name": "prevOwner",
          "type": "address"
        },
        {
          "indexed": true,
          "internalType": "address",
          "name": "newOwner",
          "type": "address"
        }
      ],
      "name": "OwnerUpdated",
      "type": "event"
    },
    {
      "anonymous": false,
      "inputs": [
        {
          "indexed": true,
          "internalType": "uint256",
          "name": "tokenId",
          "type": "uint256"
        },
        {
          "indexed": true,
          "internalType": "address",
          "name": "royaltyRecipient",
          "type": "address"
        },
        {
          "indexed": false,
          "internalType": "uint256",
          "name": "royaltyBps",
          "type": "uint256"
        }
      ],
      "name": "RoyaltyForToken",
      "type": "event"
    },
    {
      "anonymous": false,
      "inputs": [
        {
          "indexed": true,
          "internalType": "address",
          "name": "claimer",
          "type": "address"
        },
        {
          "indexed": true,
          "internalType": "address",
          "name": "receiver",
          "type": "address"
        },
        {
          "indexed": true,
          "internalType": "uint256",
          "name": "startTokenId",
          "type": "uint256"
        },
        {
          "indexed": false,
          "internalType": "uint256",
          "name": "quantityClaimed",
          "type": "uint256"
        }
      ],
      "name": "TokensClaimed",
      "type": "event"
    },
    {
      "anonymous": false,
      "inputs": [
        {
          "indexed": true,
          "internalType": "uint256",
          "name": "startTokenId",
          "type": "uint256"
        },
        {
          "indexed": false,
          "internalType": "uint256",
          "name": "endTokenId",
          "type": "uint256"
        },
        {
          "indexed": false,
          "internalType": "string",
          "name": "baseURI",
          "type": "string"
        },
        {
          "indexed": false,
          "internalType": "bytes",
          "name": "encryptedBaseURI",
          "type": "bytes"
        }
      ],
      "name": "TokensLazyMinted",
      "type": "event"
    },
    {
      "anonymous": false,
      "inputs": [
        {
          "indexed": true,
          "internalType": "address",
          "name": "from",
          "type": "address"
        },
        {
          "indexed": true,
          "internalType": "address",
          "name": "to",
          "type": "address"
        },
        {
          "indexed": true,
          "internalType": "uint256",
          "name": "tokenId",
          "type": "uint256"
        }
      ],
      "name": "Transfer",
      "type": "event"
    },
    {
      "inputs": [
        {
          "internalType": "address",
          "name": "to",
          "type": "address"
        },
        {
          "internalType": "uint256",
          "name": "tokenId",
          "type": "uint256"
        }
      ],
      "name": "approve",
      "outputs": [],
      "stateMutability": "nonpayable",
      "type": "function"
    },
    {
      "inputs": [
        {
          "internalType": "address",
          "name": "owner",
          "type": "address"
        }
      ],
      "name": "balanceOf",
      "outputs": [
        {
          "internalType": "uint256",
          "name": "",
          "type": "uint256"
        }
      ],
      "stateMutability": "view",
      "type": "function"
    },
    {
      "inputs": [
        {
          "internalType": "uint256",
          "name": "_tokenId",
          "type": "uint256"
        }
      ],
      "name": "burn",
      "outputs": [],
      "stateMutability": "nonpayable",
      "type": "function"
    },
    {
      "inputs": [
        {
          "internalType": "address",
          "name": "_receiver",
          "type": "address"
        },
        {
          "internalType": "uint256",
          "name": "_quantity",
          "type": "uint256"
        }
      ],
      "name": "claim",
      "outputs": [],
      "stateMutability": "payable",
      "type": "function"
    },
    {
      "inputs": [],
      "name": "contractURI",
      "outputs": [
        {
          "internalType": "string",
          "name": "",
          "type": "string"
        }
      ],
      "stateMutability": "view",
      "type": "function"
    },
    {
      "inputs": [
        {
          "internalType": "uint256",
          "name": "tokenId",
          "type": "uint256"
        }
      ],
      "name": "getApproved",
      "outputs": [
        {
          "internalType": "address",
          "name": "",
          "type": "address"
        }
      ],
      "stateMutability": "view",
      "type": "function"
    },
    {
      "inputs": [],
      "name": "getBaseURICount",
      "outputs": [
        {
          "internalType": "uint256",
          "name": "",
          "type": "uint256"
        }
      ],
      "stateMutability": "view",
      "type": "function"
    },
    {
      "inputs": [
        {
          "internalType": "uint256",
          "name": "_index",
          "type": "uint256"
        }
      ],
      "name": "getBatchIdAtIndex",
      "outputs": [
        {
          "internalType": "uint256",
          "name": "",
          "type": "uint256"
        }
      ],
      "stateMutability": "view",
      "type": "function"
    },
    {
      "inputs": [],
      "name": "getDefaultRoyaltyInfo",
      "outputs": [
        {
          "internalType": "address",
          "name": "",
          "type": "address"
        },
        {
          "internalType": "uint16",
          "name": "",
          "type": "uint16"
        }
      ],
      "stateMutability": "view",
      "type": "function"
    },
    {
      "inputs": [
        {
          "internalType": "uint256",
          "name": "_tokenId",
          "type": "uint256"
        }
      ],
      "name": "getRoyaltyInfoForToken",
      "outputs": [
        {
          "internalType": "address",
          "name": "",
          "type": "address"
        },
        {
          "internalType": "uint16",
          "name": "",
          "type": "uint16"
        }
      ],
      "stateMutability": "view",
      "type": "function"
    },
    {
      "inputs": [
        {
          "internalType": "address",
          "name": "owner",
          "type": "address"
        },
        {
          "internalType": "address",
          "name": "operator",
          "type": "address"
        }
      ],
      "name": "isApprovedForAll",
      "outputs": [
        {
          "internalType": "bool",
          "name": "",
          "type": "bool"
        }
      ],
      "stateMutability": "view",
      "type": "function"
    },
    {
      "inputs": [
        {
          "internalType": "uint256",
          "name": "_amount",
          "type": "uint256"
        },
        {
          "internalType": "string",
          "name": "_baseURIForTokens",
          "type": "string"
        },
        {
          "internalType": "bytes",
          "name": "_data",
          "type": "bytes"
        }
      ],
      "name": "lazyMint",
      "outputs": [
        {
          "internalType": "uint256",
          "name": "batchId",
          "type": "uint256"
        }
      ],
      "stateMutability": "nonpayable",
      "type": "function"
    },
    {
      "inputs": [
        {
          "internalType": "bytes[]",
          "name": "data",
          "type": "bytes[]"
        }
      ],
      "name": "multicall",
      "outputs": [
        {
          "internalType": "bytes[]",
          "name": "results",
          "type": "bytes[]"
        }
      ],
      "stateMutability": "nonpayable",
      "type": "function"
    },
    {
      "inputs": [],
      "name": "name",
      "outputs": [
        {
          "internalType": "string",
          "name": "",
          "type": "string"
        }
      ],
      "stateMutability": "view",
      "type": "function"
    },
    {
      "inputs": [],
      "name": "nextTokenIdToClaim",
      "outputs": [
        {
          "internalType": "uint256",
          "name": "",
          "type": "uint256"
        }
      ],
      "stateMutability": "view",
      "type": "function"
    },
    {
      "inputs": [],
      "name": "nextTokenIdToMint",
      "outputs": [
        {
          "internalType": "uint256",
          "name": "",
          "type": "uint256"
        }
      ],
      "stateMutability": "view",
      "type": "function"
    },
    {
      "inputs": [],
      "name": "owner",
      "outputs": [
        {
          "internalType": "address",
          "name": "",
          "type": "address"
        }
      ],
      "stateMutability": "view",
      "type": "function"
    },
    {
      "inputs": [
        {
          "internalType": "uint256",
          "name": "tokenId",
          "type": "uint256"
        }
      ],
      "name": "ownerOf",
      "outputs": [
        {
          "internalType": "address",
          "name": "",
          "type": "address"
        }
      ],
      "stateMutability": "view",
      "type": "function"
    },
    {
      "inputs": [
        {
          "internalType": "uint256",
          "name": "tokenId",
          "type": "uint256"
        },
        {
          "internalType": "uint256",
          "name": "salePrice",
          "type": "uint256"
        }
      ],
      "name": "royaltyInfo",
      "outputs": [
        {
          "internalType": "address",
          "name": "receiver",
          "type": "address"
        },
        {
          "internalType": "uint256",
          "name": "royaltyAmount",
          "type": "uint256"
        }
      ],
      "stateMutability": "view",
      "type": "function"
    },
    {
      "inputs": [
        {
          "internalType": "address",
          "name": "from",
          "type": "address"
        },
        {
          "internalType": "address",
          "name": "to",
          "type": "address"
        },
        {
          "internalType": "uint256",
          "name": "tokenId",
          "type": "uint256"
        }
      ],
      "name": "safeTransferFrom",
      "outputs": [],
      "stateMutability": "nonpayable",
      "type": "function"
    },
    {
      "inputs": [
        {
          "internalType": "address",
          "name": "from",
          "type": "address"
        },
        {
          "internalType": "address",
          "name": "to",
          "type": "address"
        },
        {
          "internalType": "uint256",
          "name": "tokenId",
          "type": "uint256"
        },
        {
          "internalType": "bytes",
          "name": "_data",
          "type": "bytes"
        }
      ],
      "name": "safeTransferFrom",
      "outputs": [],
      "stateMutability": "nonpayable",
      "type": "function"
    },
    {
      "inputs": [
        {
          "internalType": "address",
          "name": "operator",
          "type": "address"
        },
        {
          "internalType": "bool",
          "name": "approved",
          "type": "bool"
        }
      ],
      "name": "setApprovalForAll",
      "outputs": [],
      "stateMutability": "nonpayable",
      "type": "function"
    },
    {
      "inputs": [
        {
          "internalType": "string",
          "name": "_uri",
          "type": "string"
        }
      ],
      "name": "setContractURI",
      "outputs": [],
      "stateMutability": "nonpayable",
      "type": "function"
    },
    {
      "inputs": [
        {
          "internalType": "address",
          "name": "_royaltyRecipient",
          "type": "address"
        },
        {
          "internalType": "uint256",
          "name": "_royaltyBps",
          "type": "uint256"
        }
      ],
      "name": "setDefaultRoyaltyInfo",
      "outputs": [],
      "stateMutability": "nonpayable",
      "type": "function"
    },
    {
      "inputs": [
        {
          "internalType": "address",
          "name": "_newOwner",
          "type": "address"
        }
      ],
      "name": "setOwner",
      "outputs": [],
      "stateMutability": "nonpayable",
      "type": "function"
    },
    {
      "inputs": [
        {
          "internalType": "uint256",
          "name": "_tokenId",
          "type": "uint256"
        },
        {
          "internalType": "address",
          "name": "_recipient",
          "type": "address"
        },
        {
          "internalType": "uint256",
          "name": "_bps",
          "type": "uint256"
        }
      ],
      "name": "setRoyaltyInfoForToken",
      "outputs": [],
      "stateMutability": "nonpayable",
      "type": "function"
    },
    {
      "inputs": [
        {
          "internalType": "bytes4",
          "name": "interfaceId",
          "type": "bytes4"
        }
      ],
      "name": "supportsInterface",
      "outputs": [
        {
          "internalType": "bool",
          "name": "",
          "type": "bool"
        }
      ],
      "stateMutability": "view",
      "type": "function"
    },
    {
      "inputs": [],
      "name": "symbol",
      "outputs": [
        {
          "internalType": "string",
          "name": "",
          "type": "string"
        }
      ],
      "stateMutability": "view",
      "type": "function"
    },
    {
      "inputs": [
        {
          "internalType": "uint256",
          "name": "_tokenId",
          "type": "uint256"
        }
      ],
      "name": "tokenURI",
      "outputs": [
        {
          "internalType": "string",
          "name": "",
          "type": "string"
        }
      ],
      "stateMutability": "view",
      "type": "function"
    },
    {
      "inputs": [],
      "name": "totalSupply",
      "outputs": [
        {
          "internalType": "uint256",
          "name": "",
          "type": "uint256"
        }
      ],
      "stateMutability": "view",
      "type": "function"
    },
    {
      "inputs": [
        {
          "internalType": "address",
          "name": "from",
          "type": "address"
        },
        {
          "internalType": "address",
          "name": "to",
          "type": "address"
        },
        {
          "internalType": "uint256",
          "name": "tokenId",
          "type": "uint256"
        }
      ],
      "name": "transferFrom",
      "outputs": [],
      "stateMutability": "nonpayable",
      "type": "function"
    },
    {
      "inputs": [
        {
          "internalType": "address",
          "name": "_claimer",
          "type": "address"
        },
        {
          "internalType": "uint256",
          "name": "_quantity",
          "type": "uint256"
        }
      ],
      "name": "verifyClaim",
      "outputs": [],
      "stateMutability": "view",
      "type": "function"
    }
  ],
  "bytecode": "0x60806040523480156200001157600080fd5b5060405162002c0338038062002c03833981016040819052620000349162000309565b8351849084906200004d90600290602085019062000196565b5080516200006390600390602084019062000196565b506000805550506001600f556200007a3362000099565b6200008f826001600160801b038316620000eb565b50505050620003f2565b600980546001600160a01b038381166001600160a01b0319831681179093556040519116919082907f8292fce18fa69edf4db7b94ea2e58241df0ae57f97e0a6c9b29067028bf92d7690600090a35050565b612710811115620001345760405162461bcd60e51b815260206004820152600f60248201526e45786365656473206d61782062707360881b604482015260640160405180910390fd5b600a80546001600160a01b0384166001600160b01b03199091168117600160a01b61ffff851602179091556040518281527f90d7ec04bcb8978719414f82e52e4cb651db41d0e6f8cea6118c2191e6183adb9060200160405180910390a25050565b828054620001a490620003b5565b90600052602060002090601f016020900481019282620001c8576000855562000213565b82601f10620001e357805160ff191683800117855562000213565b8280016001018555821562000213579182015b8281111562000213578251825591602001919060010190620001f6565b506200022192915062000225565b5090565b5b8082111562000221576000815560010162000226565b634e487b7160e01b600052604160045260246000fd5b600082601f8301126200026457600080fd5b81516001600160401b03808211156200028157620002816200023c565b604051601f8301601f19908116603f01168101908282118183101715620002ac57620002ac6200023c565b81604052838152602092508683858801011115620002c957600080fd5b600091505b83821015620002ed5785820183015181830184015290820190620002ce565b83821115620002ff5760008385830101525b9695505050505050565b600080600080608085870312156200032057600080fd5b84516001600160401b03808211156200033857600080fd5b620003468883890162000252565b955060208701519150808211156200035d57600080fd5b506200036c8782880162000252565b604087015190945090506001600160a01b03811681146200038c57600080fd5b60608601519092506001600160801b0381168114620003aa57600080fd5b939692955090935050565b600181811c90821680620003ca57607f821691505b60208210811415620003ec57634e487b7160e01b600052602260045260246000fd5b50919050565b61280180620004026000396000f3fe6080604052600436106101e35760003560e01c806363b45e2d11610102578063ac9650d811610095578063c87b56dd11610064578063c87b56dd146105b9578063d37c353b146105d9578063e8a3d485146105f9578063e985e9c51461060e57600080fd5b8063ac9650d81461052c578063acd083f814610559578063b24f2d391461056e578063b88d4fde1461059957600080fd5b806395d89b41116100d157806395d89b41146104c45780639bcf7a15146104d9578063a22cb465146104f9578063aad3ec961461051957600080fd5b806363b45e2d1461045157806370a08231146104665780638da5cb5b14610486578063938e3d7b146104a457600080fd5b80632a55205a1161017a57806342966c681161014957806342966c68146103af5780634cc157df146103cf578063600dd5ea146104115780636352211e1461043157600080fd5b80632a55205a1461031c5780632f92023a1461035b5780633b1475a71461037a57806342842e0e1461038f57600080fd5b806313af4035116101b657806313af40351461029957806318160ddd146102b957806323b872dd146102dc5780632419f51b146102fc57600080fd5b806301ffc9a7146101e857806306fdde031461021d578063081812fc1461023f578063095ea7b314610277575b600080fd5b3480156101f457600080fd5b50610208610203366004612046565b610657565b60405190151581526020015b60405180910390f35b34801561022957600080fd5b506102326106c4565b60405161021491906120bb565b34801561024b57600080fd5b5061025f61025a3660046120ce565b610756565b6040516001600160a01b039091168152602001610214565b34801561028357600080fd5b50610297610292366004612103565b61079a565b005b3480156102a557600080fd5b506102976102b436600461212d565b610821565b3480156102c557600080fd5b50600154600054035b604051908152602001610214565b3480156102e857600080fd5b506102976102f7366004612148565b610877565b34801561030857600080fd5b506102ce6103173660046120ce565b610882565b34801561032857600080fd5b5061033c610337366004612184565b6108f0565b604080516001600160a01b039093168352602083019190915201610214565b34801561036757600080fd5b50610297610376366004612103565b5050565b34801561038657600080fd5b50600e546102ce565b34801561039b57600080fd5b506102976103aa366004612148565b61092d565b3480156103bb57600080fd5b506102976103ca3660046120ce565b610948565b3480156103db57600080fd5b506103ef6103ea3660046120ce565b610953565b604080516001600160a01b03909316835261ffff909116602083015201610214565b34801561041d57600080fd5b5061029761042c366004612103565b6109be565b34801561043d57600080fd5b5061025f61044c3660046120ce565b610a0d565b34801561045d57600080fd5b50600c546102ce565b34801561047257600080fd5b506102ce61048136600461212d565b610a1f565b34801561049257600080fd5b506009546001600160a01b031661025f565b3480156104b057600080fd5b506102976104bf366004612232565b610a6e565b3480156104d057600080fd5b50610232610abc565b3480156104e557600080fd5b506102976104f436600461227b565b610acb565b34801561050557600080fd5b506102976105143660046122a0565b610b1b565b610297610527366004612103565b610bb1565b34801561053857600080fd5b5061054c6105473660046122dc565b610cce565b6040516102149190612351565b34801561056557600080fd5b506000546102ce565b34801561057a57600080fd5b50600a546001600160a01b03811690600160a01b900461ffff166103ef565b3480156105a557600080fd5b506102976105b43660046123b3565b610dc3565b3480156105c557600080fd5b506102326105d43660046120ce565b610e0d565b3480156105e557600080fd5b506102ce6105f4366004612478565b610e4e565b34801561060557600080fd5b50610232610f79565b34801561061a57600080fd5b506102086106293660046124f2565b6001600160a01b03918216600090815260076020908152604080832093909416825291909152205460ff1690565b60006301ffc9a760e01b6001600160e01b03198316148061068857506380ac58cd60e01b6001600160e01b03198316145b806106a35750635b5e139f60e01b6001600160e01b03198316145b806106be57506001600160e01b0319821663152a902d60e11b145b92915050565b6060600280546106d390612525565b80601f01602080910402602001604051908101604052809291908181526020018280546106ff90612525565b801561074c5780601f106107215761010080835404028352916020019161074c565b820191906000526020600020905b81548152906001019060200180831161072f57829003601f168201915b5050505050905090565b600061076182611007565b61077e576040516333d1c03960e21b815260040160405180910390fd5b506000908152600660205260409020546001600160a01b031690565b60006107a582610a0d565b9050806001600160a01b0316836001600160a01b031614156107da5760405163250fdee360e21b815260040160405180910390fd5b336001600160a01b03821614610811576107f48133610629565b610811576040516367d9dca160e11b815260040160405180910390fd5b61081c838383611032565b505050565b61082961108e565b61086b5760405162461bcd60e51b815260206004820152600e60248201526d139bdd08185d5d1a1bdc9a5e995960921b60448201526064015b60405180910390fd5b610874816110bb565b50565b61081c83838361110d565b600061088d600c5490565b82106108cb5760405162461bcd60e51b815260206004820152600d60248201526c092dcecc2d8d2c840d2dcc8caf609b1b6044820152606401610862565b600c82815481106108de576108de612560565b90600052602060002001549050919050565b6000806000806108ff86610953565b90945084925061ffff169050612710610918828761258c565b61092291906125c1565b925050509250929050565b61081c83838360405180602001604052806000815250610dc3565b6108748160016112fc565b6000818152600b60209081526040808320815180830190925280546001600160a01b03168083526001909101549282019290925282911561099a57805160208201516109b4565b600a546001600160a01b03811690600160a01b900461ffff165b9250925050915091565b6109c661108e565b610a035760405162461bcd60e51b815260206004820152600e60248201526d139bdd08185d5d1a1bdc9a5e995960921b6044820152606401610862565b61037682826114d7565b6000610a188261158c565b5192915050565b60006001600160a01b038216610a48576040516323d3ad8160e21b815260040160405180910390fd5b506001600160a01b031660009081526005602052604090205467ffffffffffffffff1690565b610a7661108e565b610ab35760405162461bcd60e51b815260206004820152600e60248201526d139bdd08185d5d1a1bdc9a5e995960921b6044820152606401610862565b610874816116a8565b6060600380546106d390612525565b610ad361108e565b610b105760405162461bcd60e51b815260206004820152600e60248201526d139bdd08185d5d1a1bdc9a5e995960921b6044820152606401610862565b61081c83838361178a565b6001600160a01b038216331415610b455760405163b06307db60e01b815260040160405180910390fd5b3360008181526007602090815260408083206001600160a01b03871680855290835292819020805460ff191686151590811790915590519081529192917f17307eab39ab6107e8899845ad3d59bd9653f200f220920489ca2b5937696c31910160405180910390a35050565b6002600f541415610c045760405162461bcd60e51b815260206004820152601f60248201527f5265656e7472616e637947756172643a207265656e7472616e742063616c6c006044820152606401610862565b6002600f55600e54600054610c1a9083906125d5565b1115610c685760405162461bcd60e51b815260206004820152601e60248201527f4e6f7420656e6f756768206c617a79206d696e74656420746f6b656e732e00006044820152606401610862565b6000610c748383611853565b905080836001600160a01b0316336001600160a01b03167fff097c7d8b1957a4ff09ef1361b5fb54dcede3941ba836d0beb9d10bec725de685604051610cbc91815260200190565b60405180910390a450506001600f5550565b60608167ffffffffffffffff811115610ce957610ce96121a6565b604051908082528060200260200182016040528015610d1c57816020015b6060815260200190600190039081610d075790505b50905060005b82811015610dbc57610d8c30858584818110610d4057610d40612560565b9050602002810190610d5291906125ed565b8080601f01602080910402602001604051908101604052809392919081815260200183838082843760009201919091525061186092505050565b828281518110610d9e57610d9e612560565b60200260200101819052508080610db490612634565b915050610d22565b5092915050565b610dce84848461110d565b6001600160a01b0383163b15610e0757610dea8484848461188c565b610e07576040516368d2bf6b60e11b815260040160405180910390fd5b50505050565b60606000610e1a83611975565b905080610e2684611b1f565b604051602001610e3792919061264f565b604051602081830303815290604052915050919050565b6000610e5861108e565b610e955760405162461bcd60e51b815260206004820152600e60248201526d139bdd08185d5d1a1bdc9a5e995960921b6044820152606401610862565b85610eca5760405162461bcd60e51b81526020600482015260056024820152640c08185b5d60da1b6044820152606401610862565b6000600e549050610f12818888888080601f016020809104026020016040519081016040528093929190818152602001838380828437600092019190915250611c3592505050565b600e919091559150807f2a0365091ef1a40953c670dce28177e37520648a6fdc91506bffac0ab045570d6001610f488a846125d5565b610f52919061267e565b88888888604051610f679594939291906126be565b60405180910390a25095945050505050565b60088054610f8690612525565b80601f0160208091040260200160405190810160405280929190818152602001828054610fb290612525565b8015610fff5780601f10610fd457610100808354040283529160200191610fff565b820191906000526020600020905b815481529060010190602001808311610fe257829003601f168201915b505050505081565b60008054821080156106be575050600090815260046020526040902054600160e01b900460ff161590565b60008281526006602052604080822080546001600160a01b0319166001600160a01b0387811691821790925591518593918516917f8c5be1e5ebec7d5bd14f71427d1e84f3dd0314c0f7b2291e5b200ac8c7c3b92591a4505050565b60006110a26009546001600160a01b031690565b6001600160a01b0316336001600160a01b031614905090565b600980546001600160a01b038381166001600160a01b0319831681179093556040519116919082907f8292fce18fa69edf4db7b94ea2e58241df0ae57f97e0a6c9b29067028bf92d7690600090a35050565b60006111188261158c565b9050836001600160a01b031681600001516001600160a01b03161461114f5760405162a1148160e81b815260040160405180910390fd5b6000336001600160a01b038616148061116d575061116d8533610629565b8061118857503361117d84610756565b6001600160a01b0316145b9050806111a857604051632ce44b5f60e11b815260040160405180910390fd5b6001600160a01b0384166111cf57604051633a954ecd60e21b815260040160405180910390fd5b6111db60008487611032565b6001600160a01b038581166000908152600560209081526040808320805467ffffffffffffffff1980821667ffffffffffffffff92831660001901831617909255898616808652838620805493841693831660019081018416949094179055898652600490945282852080546001600160e01b031916909417600160a01b429092169190910217835587018084529220805491939091166112b15760005482146112b1578054602086015167ffffffffffffffff16600160a01b026001600160e01b03199091166001600160a01b038a16171781555b50505082846001600160a01b0316866001600160a01b03167fddf252ad1be2c89b69c2b068fc378daa952ba7f163c4a11628f55a4df523b3ef60405160405180910390a45050505050565b60006113078361158c565b8051909150821561136d576000336001600160a01b038316148061133057506113308233610629565b8061134b57503361134086610756565b6001600160a01b0316145b90508061136b57604051632ce44b5f60e11b815260040160405180910390fd5b505b61137960008583611032565b6001600160a01b038082166000818152600560209081526040808320805470010000000000000000000000000000000060001967ffffffffffffffff80841691909101811667ffffffffffffffff19841681178390048216600190810183169093027fffffffffffffffff0000000000000000ffffffffffffffff0000000000000000909416179290921783558b86526004909452828520805460ff60e01b1942909316600160a01b026001600160e01b03199091169097179690961716600160e01b17855591890180845292208054919490911661148d57600054821461148d578054602087015167ffffffffffffffff16600160a01b026001600160e01b03199091166001600160a01b038716171781555b5050604051869250600091506001600160a01b038416907fddf252ad1be2c89b69c2b068fc378daa952ba7f163c4a11628f55a4df523b3ef908390a4505060018054810190555050565b61271081111561151b5760405162461bcd60e51b815260206004820152600f60248201526e45786365656473206d61782062707360881b6044820152606401610862565b600a80546001600160a01b03841675ffffffffffffffffffffffffffffffffffffffffffff199091168117600160a01b61ffff851602179091556040518281527f90d7ec04bcb8978719414f82e52e4cb651db41d0e6f8cea6118c2191e6183adb9060200160405180910390a25050565b60408051606081018252600080825260208201819052918101919091528160005481101561168f57600081815260046020908152604091829020825160608101845290546001600160a01b0381168252600160a01b810467ffffffffffffffff1692820192909252600160e01b90910460ff1615159181018290529061168d5780516001600160a01b031615611623579392505050565b5060001901600081815260046020908152604091829020825160608101845290546001600160a01b038116808352600160a01b820467ffffffffffffffff1693830193909352600160e01b900460ff1615159281019290925215611688579392505050565b611623565b505b604051636f96cda160e11b815260040160405180910390fd5b6000600880546116b790612525565b80601f01602080910402602001604051908101604052809291908181526020018280546116e390612525565b80156117305780601f1061170557610100808354040283529160200191611730565b820191906000526020600020905b81548152906001019060200180831161171357829003601f168201915b5050855193945061174c93600893506020870192509050611f97565b507fc9c7c3fe08b88b4df9d4d47ef47d2c43d55c025a0ba88ca442580ed9e7348a16818360405161177e9291906126f7565b60405180910390a15050565b6127108111156117ce5760405162461bcd60e51b815260206004820152600f60248201526e45786365656473206d61782062707360881b6044820152606401610862565b6040805180820182526001600160a01b0384811680835260208084018681526000898152600b8352869020945185546001600160a01b031916941693909317845591516001909301929092559151838152909185917f7365cf4122f072a3365c20d54eff9b38d73c096c28e1892ec8f5b0e403a0f12d910160405180910390a3505050565b6000546106be8383611ca2565b606061188583836040518060600160405280602781526020016127a560279139611cbc565b9392505050565b604051630a85bd0160e11b81526000906001600160a01b0385169063150b7a02906118c1903390899088908890600401612725565b6020604051808303816000875af19250505080156118fc575060408051601f3d908101601f191682019092526118f991810190612757565b60015b611957573d80801561192a576040519150601f19603f3d011682016040523d82523d6000602084013e61192f565b606091505b50805161194f576040516368d2bf6b60e11b815260040160405180910390fd5b805181602001fd5b6001600160e01b031916630a85bd0160e11b1490505b949350505050565b60606000611982600c5490565b90506000600c8054806020026020016040519081016040528092919081815260200182805480156119d257602002820191906000526020600020905b8154815260200190600101908083116119be575b5050505050905060005b82811015611ad6578181815181106119f6576119f6612560565b6020026020010151851015611ac457600d6000838381518110611a1b57611a1b612560565b602002602001015181526020019081526020016000208054611a3c90612525565b80601f0160208091040260200160405190810160405280929190818152602001828054611a6890612525565b8015611ab55780601f10611a8a57610100808354040283529160200191611ab5565b820191906000526020600020905b815481529060010190602001808311611a9857829003601f168201915b50505050509350505050919050565b611acf6001826125d5565b90506119dc565b5060405162461bcd60e51b815260206004820152600f60248201527f496e76616c696420746f6b656e496400000000000000000000000000000000006044820152606401610862565b606081611b435750506040805180820190915260018152600360fc1b602082015290565b8160005b8115611b6d5780611b5781612634565b9150611b669050600a836125c1565b9150611b47565b60008167ffffffffffffffff811115611b8857611b886121a6565b6040519080825280601f01601f191660200182016040528015611bb2576020820181803683370190505b5090505b841561196d57611bc760018361267e565b9150611bd4600a86612774565b611bdf9060306125d5565b60f81b818381518110611bf457611bf4612560565b60200101907effffffffffffffffffffffffffffffffffffffffffffffffffffffffffffff1916908160001a905350611c2e600a866125c1565b9450611bb6565b600080611c4284866125d5565b600c8054600181019091557fdf6966c971051c3d54ec59162606531493a51404a002842f56009d7e5cf4a8c7018190556000818152600d602090815260409091208551929450849350611c99929091860190611f97565b50935093915050565b610376828260405180602001604052806000815250611d99565b60606001600160a01b0384163b611d245760405162461bcd60e51b815260206004820152602660248201527f416464726573733a2064656c65676174652063616c6c20746f206e6f6e2d636f6044820152651b9d1c9858dd60d21b6064820152608401610862565b600080856001600160a01b031685604051611d3f9190612788565b600060405180830381855af49150503d8060008114611d7a576040519150601f19603f3d011682016040523d82523d6000602084013e611d7f565b606091505b5091509150611d8f828286611f5e565b9695505050505050565b6000546001600160a01b038416611dc257604051622e076360e81b815260040160405180910390fd5b82611de05760405163b562e8dd60e01b815260040160405180910390fd5b6001600160a01b038416600081815260056020908152604080832080546fffffffffffffffffffffffffffffffff19811667ffffffffffffffff8083168b0181169182176801000000000000000067ffffffffffffffff1990941690921783900481168b01811690920217909155858452600490925290912080546001600160e01b0319168317600160a01b42909316929092029190911790558190818501903b15611f09575b60405182906001600160a01b038816906000907fddf252ad1be2c89b69c2b068fc378daa952ba7f163c4a11628f55a4df523b3ef908290a4611ed2600087848060010195508761188c565b611eef576040516368d2bf6b60e11b815260040160405180910390fd5b808210611e87578260005414611f0457600080fd5b611f4e565b5b6040516001830192906001600160a01b038816906000907fddf252ad1be2c89b69c2b068fc378daa952ba7f163c4a11628f55a4df523b3ef908290a4808210611f0a575b506000908155610e079085838684565b60608315611f6d575081611885565b825115611f7d5782518084602001fd5b8160405162461bcd60e51b815260040161086291906120bb565b828054611fa390612525565b90600052602060002090601f016020900481019282611fc5576000855561200b565b82601f10611fde57805160ff191683800117855561200b565b8280016001018555821561200b579182015b8281111561200b578251825591602001919060010190611ff0565b5061201792915061201b565b5090565b5b80821115612017576000815560010161201c565b6001600160e01b03198116811461087457600080fd5b60006020828403121561205857600080fd5b813561188581612030565b60005b8381101561207e578181015183820152602001612066565b83811115610e075750506000910152565b600081518084526120a7816020860160208601612063565b601f01601f19169290920160200192915050565b602081526000611885602083018461208f565b6000602082840312156120e057600080fd5b5035919050565b80356001600160a01b03811681146120fe57600080fd5b919050565b6000806040838503121561211657600080fd5b61211f836120e7565b946020939093013593505050565b60006020828403121561213f57600080fd5b611885826120e7565b60008060006060848603121561215d57600080fd5b612166846120e7565b9250612174602085016120e7565b9150604084013590509250925092565b6000806040838503121561219757600080fd5b50508035926020909101359150565b634e487b7160e01b600052604160045260246000fd5b600067ffffffffffffffff808411156121d7576121d76121a6565b604051601f8501601f19908116603f011681019082821181831017156121ff576121ff6121a6565b8160405280935085815286868601111561221857600080fd5b858560208301376000602087830101525050509392505050565b60006020828403121561224457600080fd5b813567ffffffffffffffff81111561225b57600080fd5b8201601f8101841361226c57600080fd5b61196d848235602084016121bc565b60008060006060848603121561229057600080fd5b83359250612174602085016120e7565b600080604083850312156122b357600080fd5b6122bc836120e7565b9150602083013580151581146122d157600080fd5b809150509250929050565b600080602083850312156122ef57600080fd5b823567ffffffffffffffff8082111561230757600080fd5b818501915085601f83011261231b57600080fd5b81358181111561232a57600080fd5b8660208260051b850101111561233f57600080fd5b60209290920196919550909350505050565b6000602080830181845280855180835260408601915060408160051b870101925083870160005b828110156123a657603f1988860301845261239485835161208f565b94509285019290850190600101612378565b5092979650505050505050565b600080600080608085870312156123c957600080fd5b6123d2856120e7565b93506123e0602086016120e7565b925060408501359150606085013567ffffffffffffffff81111561240357600080fd5b8501601f8101871361241457600080fd5b612423878235602084016121bc565b91505092959194509250565b60008083601f84011261244157600080fd5b50813567ffffffffffffffff81111561245957600080fd5b60208301915083602082850101111561247157600080fd5b9250929050565b60008060008060006060868803121561249057600080fd5b85359450602086013567ffffffffffffffff808211156124af57600080fd5b6124bb89838a0161242f565b909650945060408801359150808211156124d457600080fd5b506124e18882890161242f565b969995985093965092949392505050565b6000806040838503121561250557600080fd5b61250e836120e7565b915061251c602084016120e7565b90509250929050565b600181811c9082168061253957607f821691505b6020821081141561255a57634e487b7160e01b600052602260045260246000fd5b50919050565b634e487b7160e01b600052603260045260246000fd5b634e487b7160e01b600052601160045260246000fd5b60008160001904831182151516156125a6576125a6612576565b500290565b634e487b7160e01b600052601260045260246000fd5b6000826125d0576125d06125ab565b500490565b600082198211156125e8576125e8612576565b500190565b6000808335601e1984360301811261260457600080fd5b83018035915067ffffffffffffffff82111561261f57600080fd5b60200191503681900382131561247157600080fd5b600060001982141561264857612648612576565b5060010190565b60008351612661818460208801612063565b835190830190612675818360208801612063565b01949350505050565b60008282101561269057612690612576565b500390565b81835281816020850137506000828201602090810191909152601f909101601f19169091010190565b8581526060602082015260006126d8606083018688612695565b82810360408401526126eb818587612695565b98975050505050505050565b60408152600061270a604083018561208f565b828103602084015261271c818561208f565b95945050505050565b60006001600160a01b03808716835280861660208401525083604083015260806060830152611d8f608083018461208f565b60006020828403121561276957600080fd5b815161188581612030565b600082612783576127836125ab565b500690565b6000825161279a818460208701612063565b919091019291505056fe416464726573733a206c6f772d6c6576656c2064656c65676174652063616c6c206661696c6564a2646970667358221220443e6c379aca1b99b5b4bf857446c45da72cb38c955fde2bc71ec89f2a59e72164736f6c634300080c0033",
  "linkReferences": {},
  "deployedLinkReferences": {}
}