{
  "_format": "hh-sol-artifact-1",
  "contractName": "ERC721DelayedReveal",
  "sourceName": "contracts/base/ERC721DelayedReveal.sol",
  "abi": [
    {
      "inputs": [
        {
          "internalType": "string",
          "name": "_name",
          "type": "string"
        },
        {
          "internalType": "string",
          "name": "_symbol",
          "type": "string"
        },
        {
          "internalType": "address",
          "name": "_royaltyRecipient",
          "type": "address"
        },
        {
          "internalType": "uint128",
          "name": "_royaltyBps",
          "type": "uint128"
        }
      ],
      "stateMutability": "nonpayable",
      "type": "constructor"
    },
    {
      "inputs": [],
      "name": "ApprovalCallerNotOwnerNorApproved",
      "type": "error"
    },
    {
      "inputs": [],
      "name": "ApprovalQueryForNonexistentToken",
      "type": "error"
    },
    {
      "inputs": [],
      "name": "ApprovalToCurrentOwner",
      "type": "error"
    },
    {
      "inputs": [],
      "name": "ApproveToCaller",
      "type": "error"
    },
    {
      "inputs": [],
      "name": "BalanceQueryForZeroAddress",
      "type": "error"
    },
    {
      "inputs": [],
      "name": "MintToZeroAddress",
      "type": "error"
    },
    {
      "inputs": [],
      "name": "MintZeroQuantity",
      "type": "error"
    },
    {
      "inputs": [],
      "name": "OwnerQueryForNonexistentToken",
      "type": "error"
    },
    {
      "inputs": [],
      "name": "TransferCallerNotOwnerNorApproved",
      "type": "error"
    },
    {
      "inputs": [],
      "name": "TransferFromIncorrectOwner",
      "type": "error"
    },
    {
      "inputs": [],
      "name": "TransferToNonERC721ReceiverImplementer",
      "type": "error"
    },
    {
      "inputs": [],
      "name": "TransferToZeroAddress",
      "type": "error"
    },
    {
      "inputs": [],
      "name": "URIQueryForNonexistentToken",
      "type": "error"
    },
    {
      "anonymous": false,
      "inputs": [
        {
          "indexed": true,
          "internalType": "address",
          "name": "owner",
          "type": "address"
        },
        {
          "indexed": true,
          "internalType": "address",
          "name": "approved",
          "type": "address"
        },
        {
          "indexed": true,
          "internalType": "uint256",
          "name": "tokenId",
          "type": "uint256"
        }
      ],
      "name": "Approval",
      "type": "event"
    },
    {
      "anonymous": false,
      "inputs": [
        {
          "indexed": true,
          "internalType": "address",
          "name": "owner",
          "type": "address"
        },
        {
          "indexed": true,
          "internalType": "address",
          "name": "operator",
          "type": "address"
        },
        {
          "indexed": false,
          "internalType": "bool",
          "name": "approved",
          "type": "bool"
        }
      ],
      "name": "ApprovalForAll",
      "type": "event"
    },
    {
      "anonymous": false,
      "inputs": [
        {
          "indexed": false,
          "internalType": "string",
          "name": "prevURI",
          "type": "string"
        },
        {
          "indexed": false,
          "internalType": "string",
          "name": "newURI",
          "type": "string"
        }
      ],
      "name": "ContractURIUpdated",
      "type": "event"
    },
    {
      "anonymous": false,
      "inputs": [
        {
          "indexed": true,
          "internalType": "address",
          "name": "newRoyaltyRecipient",
          "type": "address"
        },
        {
          "indexed": false,
          "internalType": "uint256",
          "name": "newRoyaltyBps",
          "type": "uint256"
        }
      ],
      "name": "DefaultRoyalty",
      "type": "event"
    },
    {
      "anonymous": false,
      "inputs": [
        {
          "indexed": true,
          "internalType": "address",
          "name": "prevOwner",
          "type": "address"
        },
        {
          "indexed": true,
          "internalType": "address",
          "name": "newOwner",
          "type": "address"
        }
      ],
      "name": "OwnerUpdated",
      "type": "event"
    },
    {
      "anonymous": false,
      "inputs": [
        {
          "indexed": true,
          "internalType": "uint256",
          "name": "tokenId",
          "type": "uint256"
        },
        {
          "indexed": true,
          "internalType": "address",
          "name": "royaltyRecipient",
          "type": "address"
        },
        {
          "indexed": false,
          "internalType": "uint256",
          "name": "royaltyBps",
          "type": "uint256"
        }
      ],
      "name": "RoyaltyForToken",
      "type": "event"
    },
    {
      "anonymous": false,
      "inputs": [
        {
          "indexed": true,
          "internalType": "uint256",
          "name": "index",
          "type": "uint256"
        },
        {
          "indexed": false,
          "internalType": "string",
          "name": "revealedURI",
          "type": "string"
        }
      ],
      "name": "TokenURIRevealed",
      "type": "event"
    },
    {
      "anonymous": false,
      "inputs": [
        {
          "indexed": true,
          "internalType": "address",
          "name": "claimer",
          "type": "address"
        },
        {
          "indexed": true,
          "internalType": "address",
          "name": "receiver",
          "type": "address"
        },
        {
          "indexed": true,
          "internalType": "uint256",
          "name": "startTokenId",
          "type": "uint256"
        },
        {
          "indexed": false,
          "internalType": "uint256",
          "name": "quantityClaimed",
          "type": "uint256"
        }
      ],
      "name": "TokensClaimed",
      "type": "event"
    },
    {
      "anonymous": false,
      "inputs": [
        {
          "indexed": true,
          "internalType": "uint256",
          "name": "startTokenId",
          "type": "uint256"
        },
        {
          "indexed": false,
          "internalType": "uint256",
          "name": "endTokenId",
          "type": "uint256"
        },
        {
          "indexed": false,
          "internalType": "string",
          "name": "baseURI",
          "type": "string"
        },
        {
          "indexed": false,
          "internalType": "bytes",
          "name": "encryptedBaseURI",
          "type": "bytes"
        }
      ],
      "name": "TokensLazyMinted",
      "type": "event"
    },
    {
      "anonymous": false,
      "inputs": [
        {
          "indexed": true,
          "internalType": "address",
          "name": "from",
          "type": "address"
        },
        {
          "indexed": true,
          "internalType": "address",
          "name": "to",
          "type": "address"
        },
        {
          "indexed": true,
          "internalType": "uint256",
          "name": "tokenId",
          "type": "uint256"
        }
      ],
      "name": "Transfer",
      "type": "event"
    },
    {
      "inputs": [
        {
          "internalType": "address",
          "name": "to",
          "type": "address"
        },
        {
          "internalType": "uint256",
          "name": "tokenId",
          "type": "uint256"
        }
      ],
      "name": "approve",
      "outputs": [],
      "stateMutability": "nonpayable",
      "type": "function"
    },
    {
      "inputs": [
        {
          "internalType": "address",
          "name": "owner",
          "type": "address"
        }
      ],
      "name": "balanceOf",
      "outputs": [
        {
          "internalType": "uint256",
          "name": "",
          "type": "uint256"
        }
      ],
      "stateMutability": "view",
      "type": "function"
    },
    {
      "inputs": [
        {
          "internalType": "uint256",
          "name": "_tokenId",
          "type": "uint256"
        }
      ],
      "name": "burn",
      "outputs": [],
      "stateMutability": "nonpayable",
      "type": "function"
    },
    {
      "inputs": [
        {
          "internalType": "address",
          "name": "_receiver",
          "type": "address"
        },
        {
          "internalType": "uint256",
          "name": "_quantity",
          "type": "uint256"
        }
      ],
      "name": "claim",
      "outputs": [],
      "stateMutability": "payable",
      "type": "function"
    },
    {
      "inputs": [],
      "name": "contractURI",
      "outputs": [
        {
          "internalType": "string",
          "name": "",
          "type": "string"
        }
      ],
      "stateMutability": "view",
      "type": "function"
    },
    {
      "inputs": [
        {
          "internalType": "bytes",
          "name": "data",
          "type": "bytes"
        },
        {
          "internalType": "bytes",
          "name": "key",
          "type": "bytes"
        }
      ],
      "name": "encryptDecrypt",
      "outputs": [
        {
          "internalType": "bytes",
          "name": "result",
          "type": "bytes"
        }
      ],
      "stateMutability": "pure",
      "type": "function"
    },
    {
      "inputs": [
        {
          "internalType": "uint256",
          "name": "",
          "type": "uint256"
        }
      ],
      "name": "encryptedData",
      "outputs": [
        {
          "internalType": "bytes",
          "name": "",
          "type": "bytes"
        }
      ],
      "stateMutability": "view",
      "type": "function"
    },
    {
      "inputs": [
        {
          "internalType": "uint256",
          "name": "tokenId",
          "type": "uint256"
        }
      ],
      "name": "getApproved",
      "outputs": [
        {
          "internalType": "address",
          "name": "",
          "type": "address"
        }
      ],
      "stateMutability": "view",
      "type": "function"
    },
    {
      "inputs": [],
      "name": "getBaseURICount",
      "outputs": [
        {
          "internalType": "uint256",
          "name": "",
          "type": "uint256"
        }
      ],
      "stateMutability": "view",
      "type": "function"
    },
    {
      "inputs": [
        {
          "internalType": "uint256",
          "name": "_index",
          "type": "uint256"
        }
      ],
      "name": "getBatchIdAtIndex",
      "outputs": [
        {
          "internalType": "uint256",
          "name": "",
          "type": "uint256"
        }
      ],
      "stateMutability": "view",
      "type": "function"
    },
    {
      "inputs": [],
      "name": "getDefaultRoyaltyInfo",
      "outputs": [
        {
          "internalType": "address",
          "name": "",
          "type": "address"
        },
        {
          "internalType": "uint16",
          "name": "",
          "type": "uint16"
        }
      ],
      "stateMutability": "view",
      "type": "function"
    },
    {
      "inputs": [
        {
          "internalType": "uint256",
          "name": "_batchId",
          "type": "uint256"
        },
        {
          "internalType": "bytes",
          "name": "_key",
          "type": "bytes"
        }
      ],
      "name": "getRevealURI",
      "outputs": [
        {
          "internalType": "string",
          "name": "revealedURI",
          "type": "string"
        }
      ],
      "stateMutability": "view",
      "type": "function"
    },
    {
      "inputs": [
        {
          "internalType": "uint256",
          "name": "_tokenId",
          "type": "uint256"
        }
      ],
      "name": "getRoyaltyInfoForToken",
      "outputs": [
        {
          "internalType": "address",
          "name": "",
          "type": "address"
        },
        {
          "internalType": "uint16",
          "name": "",
          "type": "uint16"
        }
      ],
      "stateMutability": "view",
      "type": "function"
    },
    {
      "inputs": [
        {
          "internalType": "address",
          "name": "owner",
          "type": "address"
        },
        {
          "internalType": "address",
          "name": "operator",
          "type": "address"
        }
      ],
      "name": "isApprovedForAll",
      "outputs": [
        {
          "internalType": "bool",
          "name": "",
          "type": "bool"
        }
      ],
      "stateMutability": "view",
      "type": "function"
    },
    {
      "inputs": [
        {
          "internalType": "uint256",
          "name": "_batchId",
          "type": "uint256"
        }
      ],
      "name": "isEncryptedBatch",
      "outputs": [
        {
          "internalType": "bool",
          "name": "",
          "type": "bool"
        }
      ],
      "stateMutability": "view",
      "type": "function"
    },
    {
      "inputs": [
        {
          "internalType": "uint256",
          "name": "_amount",
          "type": "uint256"
        },
        {
          "internalType": "string",
          "name": "_baseURIForTokens",
          "type": "string"
        },
        {
          "internalType": "bytes",
          "name": "_data",
          "type": "bytes"
        }
      ],
      "name": "lazyMint",
      "outputs": [
        {
          "internalType": "uint256",
          "name": "batchId",
          "type": "uint256"
        }
      ],
      "stateMutability": "nonpayable",
      "type": "function"
    },
    {
      "inputs": [
        {
          "internalType": "bytes[]",
          "name": "data",
          "type": "bytes[]"
        }
      ],
      "name": "multicall",
      "outputs": [
        {
          "internalType": "bytes[]",
          "name": "results",
          "type": "bytes[]"
        }
      ],
      "stateMutability": "nonpayable",
      "type": "function"
    },
    {
      "inputs": [],
      "name": "name",
      "outputs": [
        {
          "internalType": "string",
          "name": "",
          "type": "string"
        }
      ],
      "stateMutability": "view",
      "type": "function"
    },
    {
      "inputs": [],
      "name": "nextTokenIdToClaim",
      "outputs": [
        {
          "internalType": "uint256",
          "name": "",
          "type": "uint256"
        }
      ],
      "stateMutability": "view",
      "type": "function"
    },
    {
      "inputs": [],
      "name": "nextTokenIdToMint",
      "outputs": [
        {
          "internalType": "uint256",
          "name": "",
          "type": "uint256"
        }
      ],
      "stateMutability": "view",
      "type": "function"
    },
    {
      "inputs": [],
      "name": "owner",
      "outputs": [
        {
          "internalType": "address",
          "name": "",
          "type": "address"
        }
      ],
      "stateMutability": "view",
      "type": "function"
    },
    {
      "inputs": [
        {
          "internalType": "uint256",
          "name": "tokenId",
          "type": "uint256"
        }
      ],
      "name": "ownerOf",
      "outputs": [
        {
          "internalType": "address",
          "name": "",
          "type": "address"
        }
      ],
      "stateMutability": "view",
      "type": "function"
    },
    {
      "inputs": [
        {
          "internalType": "uint256",
          "name": "_index",
          "type": "uint256"
        },
        {
          "internalType": "bytes",
          "name": "_key",
          "type": "bytes"
        }
      ],
      "name": "reveal",
      "outputs": [
        {
          "internalType": "string",
          "name": "revealedURI",
          "type": "string"
        }
      ],
      "stateMutability": "nonpayable",
      "type": "function"
    },
    {
      "inputs": [
        {
          "internalType": "uint256",
          "name": "tokenId",
          "type": "uint256"
        },
        {
          "internalType": "uint256",
          "name": "salePrice",
          "type": "uint256"
        }
      ],
      "name": "royaltyInfo",
      "outputs": [
        {
          "internalType": "address",
          "name": "receiver",
          "type": "address"
        },
        {
          "internalType": "uint256",
          "name": "royaltyAmount",
          "type": "uint256"
        }
      ],
      "stateMutability": "view",
      "type": "function"
    },
    {
      "inputs": [
        {
          "internalType": "address",
          "name": "from",
          "type": "address"
        },
        {
          "internalType": "address",
          "name": "to",
          "type": "address"
        },
        {
          "internalType": "uint256",
          "name": "tokenId",
          "type": "uint256"
        }
      ],
      "name": "safeTransferFrom",
      "outputs": [],
      "stateMutability": "nonpayable",
      "type": "function"
    },
    {
      "inputs": [
        {
          "internalType": "address",
          "name": "from",
          "type": "address"
        },
        {
          "internalType": "address",
          "name": "to",
          "type": "address"
        },
        {
          "internalType": "uint256",
          "name": "tokenId",
          "type": "uint256"
        },
        {
          "internalType": "bytes",
          "name": "_data",
          "type": "bytes"
        }
      ],
      "name": "safeTransferFrom",
      "outputs": [],
      "stateMutability": "nonpayable",
      "type": "function"
    },
    {
      "inputs": [
        {
          "internalType": "address",
          "name": "operator",
          "type": "address"
        },
        {
          "internalType": "bool",
          "name": "approved",
          "type": "bool"
        }
      ],
      "name": "setApprovalForAll",
      "outputs": [],
      "stateMutability": "nonpayable",
      "type": "function"
    },
    {
      "inputs": [
        {
          "internalType": "string",
          "name": "_uri",
          "type": "string"
        }
      ],
      "name": "setContractURI",
      "outputs": [],
      "stateMutability": "nonpayable",
      "type": "function"
    },
    {
      "inputs": [
        {
          "internalType": "address",
          "name": "_royaltyRecipient",
          "type": "address"
        },
        {
          "internalType": "uint256",
          "name": "_royaltyBps",
          "type": "uint256"
        }
      ],
      "name": "setDefaultRoyaltyInfo",
      "outputs": [],
      "stateMutability": "nonpayable",
      "type": "function"
    },
    {
      "inputs": [
        {
          "internalType": "address",
          "name": "_newOwner",
          "type": "address"
        }
      ],
      "name": "setOwner",
      "outputs": [],
      "stateMutability": "nonpayable",
      "type": "function"
    },
    {
      "inputs": [
        {
          "internalType": "uint256",
          "name": "_tokenId",
          "type": "uint256"
        },
        {
          "internalType": "address",
          "name": "_recipient",
          "type": "address"
        },
        {
          "internalType": "uint256",
          "name": "_bps",
          "type": "uint256"
        }
      ],
      "name": "setRoyaltyInfoForToken",
      "outputs": [],
      "stateMutability": "nonpayable",
      "type": "function"
    },
    {
      "inputs": [
        {
          "internalType": "bytes4",
          "name": "interfaceId",
          "type": "bytes4"
        }
      ],
      "name": "supportsInterface",
      "outputs": [
        {
          "internalType": "bool",
          "name": "",
          "type": "bool"
        }
      ],
      "stateMutability": "view",
      "type": "function"
    },
    {
      "inputs": [],
      "name": "symbol",
      "outputs": [
        {
          "internalType": "string",
          "name": "",
          "type": "string"
        }
      ],
      "stateMutability": "view",
      "type": "function"
    },
    {
      "inputs": [
        {
          "internalType": "uint256",
          "name": "_tokenId",
          "type": "uint256"
        }
      ],
      "name": "tokenURI",
      "outputs": [
        {
          "internalType": "string",
          "name": "",
          "type": "string"
        }
      ],
      "stateMutability": "view",
      "type": "function"
    },
    {
      "inputs": [],
      "name": "totalSupply",
      "outputs": [
        {
          "internalType": "uint256",
          "name": "",
          "type": "uint256"
        }
      ],
      "stateMutability": "view",
      "type": "function"
    },
    {
      "inputs": [
        {
          "internalType": "address",
          "name": "from",
          "type": "address"
        },
        {
          "internalType": "address",
          "name": "to",
          "type": "address"
        },
        {
          "internalType": "uint256",
          "name": "tokenId",
          "type": "uint256"
        }
      ],
      "name": "transferFrom",
      "outputs": [],
      "stateMutability": "nonpayable",
      "type": "function"
    },
    {
      "inputs": [
        {
          "internalType": "address",
          "name": "_claimer",
          "type": "address"
        },
        {
          "internalType": "uint256",
          "name": "_quantity",
          "type": "uint256"
        }
      ],
      "name": "verifyClaim",
      "outputs": [],
      "stateMutability": "view",
      "type": "function"
    }
  ],
  "bytecode": "0x60806040523480156200001157600080fd5b50604051620033a7380380620033a7833981016040819052620000349162000312565b8383838383838160029080519060200190620000529291906200019f565b508051620000689060039060208401906200019f565b506000805550506001600f556200007f33620000a2565b62000094826001600160801b038316620000f4565b5050505050505050620003fb565b600980546001600160a01b038381166001600160a01b0319831681179093556040519116919082907f8292fce18fa69edf4db7b94ea2e58241df0ae57f97e0a6c9b29067028bf92d7690600090a35050565b6127108111156200013d5760405162461bcd60e51b815260206004820152600f60248201526e45786365656473206d61782062707360881b604482015260640160405180910390fd5b600a80546001600160a01b0384166001600160b01b03199091168117600160a01b61ffff851602179091556040518281527f90d7ec04bcb8978719414f82e52e4cb651db41d0e6f8cea6118c2191e6183adb9060200160405180910390a25050565b828054620001ad90620003be565b90600052602060002090601f016020900481019282620001d157600085556200021c565b82601f10620001ec57805160ff19168380011785556200021c565b828001600101855582156200021c579182015b828111156200021c578251825591602001919060010190620001ff565b506200022a9291506200022e565b5090565b5b808211156200022a57600081556001016200022f565b634e487b7160e01b600052604160045260246000fd5b600082601f8301126200026d57600080fd5b81516001600160401b03808211156200028a576200028a62000245565b604051601f8301601f19908116603f01168101908282118183101715620002b557620002b562000245565b81604052838152602092508683858801011115620002d257600080fd5b600091505b83821015620002f65785820183015181830184015290820190620002d7565b83821115620003085760008385830101525b9695505050505050565b600080600080608085870312156200032957600080fd5b84516001600160401b03808211156200034157600080fd5b6200034f888389016200025b565b955060208701519150808211156200036657600080fd5b5062000375878288016200025b565b604087015190945090506001600160a01b03811681146200039557600080fd5b60608601519092506001600160801b0381168114620003b357600080fd5b939692955090935050565b600181811c90821680620003d357607f821691505b60208210811415620003f557634e487b7160e01b600052602260045260246000fd5b50919050565b612f9c806200040b6000396000f3fe60806040526004361061021a5760003560e01c806370a0823111610123578063ac9650d8116100ab578063ce8056421161006f578063ce80564214610670578063d37c353b14610690578063e7150322146106b0578063e8a3d485146106d0578063e985e9c5146106e557600080fd5b8063ac9650d8146105c3578063acd083f8146105f0578063b24f2d3914610605578063b88d4fde14610630578063c87b56dd1461065057600080fd5b80639bcf7a15116100f25780639bcf7a15146105305780639fc4d68f14610550578063a05112fc14610570578063a22cb46514610590578063aad3ec96146105b057600080fd5b806370a08231146104bd5780638da5cb5b146104dd578063938e3d7b146104fb57806395d89b411461051b57600080fd5b80632f92023a116101a6578063492e224b11610175578063492e224b146104065780634cc157df14610426578063600dd5ea146104685780636352211e1461048857806363b45e2d146104a857600080fd5b80632f92023a146103925780633b1475a7146103b157806342842e0e146103c657806342966c68146103e657600080fd5b806313af4035116101ed57806313af4035146102d057806318160ddd146102f057806323b872dd146103135780632419f51b146103335780632a55205a1461035357600080fd5b806301ffc9a71461021f57806306fdde0314610254578063081812fc14610276578063095ea7b3146102ae575b600080fd5b34801561022b57600080fd5b5061023f61023a3660046125e6565b61072e565b60405190151581526020015b60405180910390f35b34801561026057600080fd5b5061026961079b565b60405161024b919061265b565b34801561028257600080fd5b5061029661029136600461266e565b61082d565b6040516001600160a01b03909116815260200161024b565b3480156102ba57600080fd5b506102ce6102c93660046126a3565b610871565b005b3480156102dc57600080fd5b506102ce6102eb3660046126cd565b6108f8565b3480156102fc57600080fd5b50600154600054035b60405190815260200161024b565b34801561031f57600080fd5b506102ce61032e3660046126e8565b61094e565b34801561033f57600080fd5b5061030561034e36600461266e565b610959565b34801561035f57600080fd5b5061037361036e366004612724565b6109c7565b604080516001600160a01b03909316835260208301919091520161024b565b34801561039e57600080fd5b506102ce6103ad3660046126a3565b5050565b3480156103bd57600080fd5b50600e54610305565b3480156103d257600080fd5b506102ce6103e13660046126e8565b610a04565b3480156103f257600080fd5b506102ce61040136600461266e565b610a1f565b34801561041257600080fd5b5061023f61042136600461266e565b610a2a565b34801561043257600080fd5b5061044661044136600461266e565b610a50565b604080516001600160a01b03909316835261ffff90911660208301520161024b565b34801561047457600080fd5b506102ce6104833660046126a3565b610abb565b34801561049457600080fd5b506102966104a336600461266e565b610b0a565b3480156104b457600080fd5b50600c54610305565b3480156104c957600080fd5b506103056104d83660046126cd565b610b1c565b3480156104e957600080fd5b506009546001600160a01b0316610296565b34801561050757600080fd5b506102ce6105163660046127f3565b610b6b565b34801561052757600080fd5b50610269610bb9565b34801561053c57600080fd5b506102ce61054b36600461283c565b610bc8565b34801561055c57600080fd5b5061026961056b3660046128aa565b610c18565b34801561057c57600080fd5b5061026961058b36600461266e565b610da5565b34801561059c57600080fd5b506102ce6105ab3660046128f6565b610e3f565b6102ce6105be3660046126a3565b610ed5565b3480156105cf57600080fd5b506105e36105de366004612932565b610ff2565b60405161024b91906129a7565b3480156105fc57600080fd5b50600054610305565b34801561061157600080fd5b50600a546001600160a01b03811690600160a01b900461ffff16610446565b34801561063c57600080fd5b506102ce61064b366004612a29565b6110e7565b34801561065c57600080fd5b5061026961066b36600461266e565b611131565b34801561067c57600080fd5b5061026961068b3660046128aa565b6111a0565b34801561069c57600080fd5b506103056106ab366004612a91565b611264565b3480156106bc57600080fd5b506102696106cb366004612b0b565b6112fc565b3480156106dc57600080fd5b50610269611371565b3480156106f157600080fd5b5061023f610700366004612b67565b6001600160a01b03918216600090815260076020908152604080832093909416825291909152205460ff1690565b60006301ffc9a760e01b6001600160e01b03198316148061075f57506380ac58cd60e01b6001600160e01b03198316145b8061077a5750635b5e139f60e01b6001600160e01b03198316145b8061079557506001600160e01b0319821663152a902d60e11b145b92915050565b6060600280546107aa90612b9a565b80601f01602080910402602001604051908101604052809291908181526020018280546107d690612b9a565b80156108235780601f106107f857610100808354040283529160200191610823565b820191906000526020600020905b81548152906001019060200180831161080657829003601f168201915b5050505050905090565b60006108388261137e565b610855576040516333d1c03960e21b815260040160405180910390fd5b506000908152600660205260409020546001600160a01b031690565b600061087c82610b0a565b9050806001600160a01b0316836001600160a01b031614156108b15760405163250fdee360e21b815260040160405180910390fd5b336001600160a01b038216146108e8576108cb8133610700565b6108e8576040516367d9dca160e11b815260040160405180910390fd5b6108f38383836113a9565b505050565b610900611405565b6109425760405162461bcd60e51b815260206004820152600e60248201526d139bdd08185d5d1a1bdc9a5e995960921b60448201526064015b60405180910390fd5b61094b81611432565b50565b6108f3838383611484565b6000610964600c5490565b82106109a25760405162461bcd60e51b815260206004820152600d60248201526c092dcecc2d8d2c840d2dcc8caf609b1b6044820152606401610939565b600c82815481106109b5576109b5612bd5565b90600052602060002001549050919050565b6000806000806109d686610a50565b90945084925061ffff1690506127106109ef8287612c01565b6109f99190612c36565b925050509250929050565b6108f3838383604051806020016040528060008152506110e7565b61094b816001611673565b60008181526010602052604081208054829190610a4690612b9a565b9050119050919050565b6000818152600b60209081526040808320815180830190925280546001600160a01b031680835260019091015492820192909252829115610a975780516020820151610ab1565b600a546001600160a01b03811690600160a01b900461ffff165b9250925050915091565b610ac3611405565b610b005760405162461bcd60e51b815260206004820152600e60248201526d139bdd08185d5d1a1bdc9a5e995960921b6044820152606401610939565b6103ad828261184e565b6000610b1582611903565b5192915050565b60006001600160a01b038216610b45576040516323d3ad8160e21b815260040160405180910390fd5b506001600160a01b031660009081526005602052604090205467ffffffffffffffff1690565b610b73611405565b610bb05760405162461bcd60e51b815260206004820152600e60248201526d139bdd08185d5d1a1bdc9a5e995960921b6044820152606401610939565b61094b81611a1f565b6060600380546107aa90612b9a565b610bd0611405565b610c0d5760405162461bcd60e51b815260206004820152600e60248201526d139bdd08185d5d1a1bdc9a5e995960921b6044820152606401610939565b6108f3838383611b01565b600083815260106020526040812080546060929190610c3690612b9a565b80601f0160208091040260200160405190810160405280929190818152602001828054610c6290612b9a565b8015610caf5780601f10610c8457610100808354040283529160200191610caf565b820191906000526020600020905b815481529060010190602001808311610c9257829003601f168201915b50505050509050805160001415610d085760405162461bcd60e51b815260206004820152601160248201527f4e6f7468696e6720746f2072657665616c0000000000000000000000000000006044820152606401610939565b60008082806020019051810190610d1f9190612c4a565b91509150610d2e8287876112fc565b93508084878746604051602001610d489493929190612ccb565b6040516020818303038152906040528051906020012014610d9b5760405162461bcd60e51b815260206004820152600d60248201526c496e636f7272656374206b657960981b6044820152606401610939565b5050509392505050565b60106020526000908152604090208054610dbe90612b9a565b80601f0160208091040260200160405190810160405280929190818152602001828054610dea90612b9a565b8015610e375780601f10610e0c57610100808354040283529160200191610e37565b820191906000526020600020905b815481529060010190602001808311610e1a57829003601f168201915b505050505081565b6001600160a01b038216331415610e695760405163b06307db60e01b815260040160405180910390fd5b3360008181526007602090815260408083206001600160a01b03871680855290835292819020805460ff191686151590811790915590519081529192917f17307eab39ab6107e8899845ad3d59bd9653f200f220920489ca2b5937696c31910160405180910390a35050565b6002600f541415610f285760405162461bcd60e51b815260206004820152601f60248201527f5265656e7472616e637947756172643a207265656e7472616e742063616c6c006044820152606401610939565b6002600f55600e54600054610f3e908390612cf4565b1115610f8c5760405162461bcd60e51b815260206004820152601e60248201527f4e6f7420656e6f756768206c617a79206d696e74656420746f6b656e732e00006044820152606401610939565b6000610f988383611bca565b905080836001600160a01b0316336001600160a01b03167fff097c7d8b1957a4ff09ef1361b5fb54dcede3941ba836d0beb9d10bec725de685604051610fe091815260200190565b60405180910390a450506001600f5550565b60608167ffffffffffffffff81111561100d5761100d612746565b60405190808252806020026020018201604052801561104057816020015b606081526020019060019003908161102b5790505b50905060005b828110156110e0576110b03085858481811061106457611064612bd5565b90506020028101906110769190612d0c565b8080601f016020809104026020016040519081016040528093929190818152602001838380828437600092019190915250611bd792505050565b8282815181106110c2576110c2612bd5565b602002602001018190525080806110d890612d53565b915050611046565b5092915050565b6110f2848484611484565b6001600160a01b0383163b1561112b5761110e84848484611c03565b61112b576040516368d2bf6b60e11b815260040160405180910390fd5b50505050565b6060600061113e83611cec565b509050600061114c84611dff565b905061115782610a2a565b15611185578060405160200161116d9190612d6e565b60405160208183030381529060405292505050919050565b8061118f85611f60565b60405160200161116d929190612d93565b60606111aa611405565b6111e75760405162461bcd60e51b815260206004820152600e60248201526d139bdd08185d5d1a1bdc9a5e995960921b6044820152606401610939565b60006111f285610959565b90506111ff818585610c18565b915061121a8160405180602001604052806000815250612076565b6112248183612095565b847f6df1d8db2a036436ffe0b2d1833f2c5f1e624818dfce2578c0faa4b83ef9998d83604051611254919061265b565b60405180910390a2509392505050565b600081156112e55760008061127b84860186612dc2565b91509150815160001415801561129057508015155b156112e2576112e288600e546112a69190612cf4565b86868080601f01602080910402602001604051908101604052809392919081815260200183838082843760009201919091525061207692505050565b50505b6112f286868686866120b4565b9695505050505050565b8251604080518083016020019091528181529060005b8181101561136857600085858360405160200161133193929190612e07565b60408051601f19818403018152919052805160209182012088840182015118858401820152611361915082612cf4565b9050611312565b50509392505050565b60088054610dbe90612b9a565b6000805482108015610795575050600090815260046020526040902054600160e01b900460ff161590565b60008281526006602052604080822080546001600160a01b0319166001600160a01b0387811691821790925591518593918516917f8c5be1e5ebec7d5bd14f71427d1e84f3dd0314c0f7b2291e5b200ac8c7c3b92591a4505050565b60006114196009546001600160a01b031690565b6001600160a01b0316336001600160a01b031614905090565b600980546001600160a01b038381166001600160a01b0319831681179093556040519116919082907f8292fce18fa69edf4db7b94ea2e58241df0ae57f97e0a6c9b29067028bf92d7690600090a35050565b600061148f82611903565b9050836001600160a01b031681600001516001600160a01b0316146114c65760405162a1148160e81b815260040160405180910390fd5b6000336001600160a01b03861614806114e457506114e48533610700565b806114ff5750336114f48461082d565b6001600160a01b0316145b90508061151f57604051632ce44b5f60e11b815260040160405180910390fd5b6001600160a01b03841661154657604051633a954ecd60e21b815260040160405180910390fd5b611552600084876113a9565b6001600160a01b038581166000908152600560209081526040808320805467ffffffffffffffff1980821667ffffffffffffffff92831660001901831617909255898616808652838620805493841693831660019081018416949094179055898652600490945282852080546001600160e01b031916909417600160a01b42909216919091021783558701808452922080549193909116611628576000548214611628578054602086015167ffffffffffffffff16600160a01b026001600160e01b03199091166001600160a01b038a16171781555b50505082846001600160a01b0316866001600160a01b03167fddf252ad1be2c89b69c2b068fc378daa952ba7f163c4a11628f55a4df523b3ef60405160405180910390a45050505050565b600061167e83611903565b805190915082156116e4576000336001600160a01b03831614806116a757506116a78233610700565b806116c25750336116b78661082d565b6001600160a01b0316145b9050806116e257604051632ce44b5f60e11b815260040160405180910390fd5b505b6116f0600085836113a9565b6001600160a01b038082166000818152600560209081526040808320805470010000000000000000000000000000000060001967ffffffffffffffff80841691909101811667ffffffffffffffff19841681178390048216600190810183169093027fffffffffffffffff0000000000000000ffffffffffffffff0000000000000000909416179290921783558b86526004909452828520805460ff60e01b1942909316600160a01b026001600160e01b03199091169097179690961716600160e01b178555918901808452922080549194909116611804576000548214611804578054602087015167ffffffffffffffff16600160a01b026001600160e01b03199091166001600160a01b038716171781555b5050604051869250600091506001600160a01b038416907fddf252ad1be2c89b69c2b068fc378daa952ba7f163c4a11628f55a4df523b3ef908390a4505060018054810190555050565b6127108111156118925760405162461bcd60e51b815260206004820152600f60248201526e45786365656473206d61782062707360881b6044820152606401610939565b600a80546001600160a01b03841675ffffffffffffffffffffffffffffffffffffffffffff199091168117600160a01b61ffff851602179091556040518281527f90d7ec04bcb8978719414f82e52e4cb651db41d0e6f8cea6118c2191e6183adb9060200160405180910390a25050565b604080516060810182526000808252602082018190529181019190915281600054811015611a0657600081815260046020908152604091829020825160608101845290546001600160a01b0381168252600160a01b810467ffffffffffffffff1692820192909252600160e01b90910460ff16151591810182905290611a045780516001600160a01b03161561199a579392505050565b5060001901600081815260046020908152604091829020825160608101845290546001600160a01b038116808352600160a01b820467ffffffffffffffff1693830193909352600160e01b900460ff16151592810192909252156119ff579392505050565b61199a565b505b604051636f96cda160e11b815260040160405180910390fd5b600060088054611a2e90612b9a565b80601f0160208091040260200160405190810160405280929190818152602001828054611a5a90612b9a565b8015611aa75780601f10611a7c57610100808354040283529160200191611aa7565b820191906000526020600020905b815481529060010190602001808311611a8a57829003601f168201915b50508551939450611ac393600893506020870192509050612537565b507fc9c7c3fe08b88b4df9d4d47ef47d2c43d55c025a0ba88ca442580ed9e7348a168183604051611af5929190612e19565b60405180910390a15050565b612710811115611b455760405162461bcd60e51b815260206004820152600f60248201526e45786365656473206d61782062707360881b6044820152606401610939565b6040805180820182526001600160a01b0384811680835260208084018681526000898152600b8352869020945185546001600160a01b031916941693909317845591516001909301929092559151838152909185917f7365cf4122f072a3365c20d54eff9b38d73c096c28e1892ec8f5b0e403a0f12d910160405180910390a3505050565b60005461079583836121df565b6060611bfc8383604051806060016040528060278152602001612f40602791396121f9565b9392505050565b604051630a85bd0160e11b81526000906001600160a01b0385169063150b7a0290611c38903390899088908890600401612e47565b6020604051808303816000875af1925050508015611c73575060408051601f3d908101601f19168201909252611c7091810190612e79565b60015b611cce573d808015611ca1576040519150601f19603f3d011682016040523d82523d6000602084013e611ca6565b606091505b508051611cc6576040516368d2bf6b60e11b815260040160405180910390fd5b805181602001fd5b6001600160e01b031916630a85bd0160e11b1490505b949350505050565b6000806000611cfa600c5490565b90506000600c805480602002602001604051908101604052809291908181526020018280548015611d4a57602002820191906000526020600020905b815481526020019060010190808311611d36575b5050505050905060005b82811015611db657818181518110611d6e57611d6e612bd5565b6020026020010151861015611da457809350818181518110611d9257611d92612bd5565b60200260200101519450505050915091565b611daf600182612cf4565b9050611d54565b5060405162461bcd60e51b815260206004820152600f60248201527f496e76616c696420746f6b656e496400000000000000000000000000000000006044820152606401610939565b60606000611e0c600c5490565b90506000600c805480602002602001604051908101604052809291908181526020018280548015611e5c57602002820191906000526020600020905b815481526020019060010190808311611e48575b5050505050905060005b82811015611db657818181518110611e8057611e80612bd5565b6020026020010151851015611f4e57600d6000838381518110611ea557611ea5612bd5565b602002602001015181526020019081526020016000208054611ec690612b9a565b80601f0160208091040260200160405190810160405280929190818152602001828054611ef290612b9a565b8015611f3f5780601f10611f1457610100808354040283529160200191611f3f565b820191906000526020600020905b815481529060010190602001808311611f2257829003601f168201915b50505050509350505050919050565b611f59600182612cf4565b9050611e66565b606081611f845750506040805180820190915260018152600360fc1b602082015290565b8160005b8115611fae5780611f9881612d53565b9150611fa79050600a83612c36565b9150611f88565b60008167ffffffffffffffff811115611fc957611fc9612746565b6040519080825280601f01601f191660200182016040528015611ff3576020820181803683370190505b5090505b8415611ce457612008600183612e96565b9150612015600a86612ead565b612020906030612cf4565b60f81b81838151811061203557612035612bd5565b60200101907effffffffffffffffffffffffffffffffffffffffffffffffffffffffffffff1916908160001a90535061206f600a86612c36565b9450611ff7565b600082815260106020908152604090912082516108f392840190612537565b6000828152600d6020908152604090912082516108f392840190612537565b60006120be611405565b6120fb5760405162461bcd60e51b815260206004820152600e60248201526d139bdd08185d5d1a1bdc9a5e995960921b6044820152606401610939565b856121305760405162461bcd60e51b81526020600482015260056024820152640c08185b5d60da1b6044820152606401610939565b6000600e549050612178818888888080601f0160208091040260200160405190810160405280939291908181526020018383808284376000920191909152506122cc92505050565b600e919091559150807f2a0365091ef1a40953c670dce28177e37520648a6fdc91506bffac0ab045570d60016121ae8a84612cf4565b6121b89190612e96565b888888886040516121cd959493929190612eea565b60405180910390a25095945050505050565b6103ad828260405180602001604052806000815250612339565b60606001600160a01b0384163b6122615760405162461bcd60e51b815260206004820152602660248201527f416464726573733a2064656c65676174652063616c6c20746f206e6f6e2d636f6044820152651b9d1c9858dd60d21b6064820152608401610939565b600080856001600160a01b03168560405161227c9190612f23565b600060405180830381855af49150503d80600081146122b7576040519150601f19603f3d011682016040523d82523d6000602084013e6122bc565b606091505b50915091506112f28282866124fe565b6000806122d98486612cf4565b600c8054600181019091557fdf6966c971051c3d54ec59162606531493a51404a002842f56009d7e5cf4a8c7018190556000818152600d602090815260409091208551929450849350612330929091860190612537565b50935093915050565b6000546001600160a01b03841661236257604051622e076360e81b815260040160405180910390fd5b826123805760405163b562e8dd60e01b815260040160405180910390fd5b6001600160a01b038416600081815260056020908152604080832080546fffffffffffffffffffffffffffffffff19811667ffffffffffffffff8083168b0181169182176801000000000000000067ffffffffffffffff1990941690921783900481168b01811690920217909155858452600490925290912080546001600160e01b0319168317600160a01b42909316929092029190911790558190818501903b156124a9575b60405182906001600160a01b038816906000907fddf252ad1be2c89b69c2b068fc378daa952ba7f163c4a11628f55a4df523b3ef908290a46124726000878480600101955087611c03565b61248f576040516368d2bf6b60e11b815260040160405180910390fd5b8082106124275782600054146124a457600080fd5b6124ee565b5b6040516001830192906001600160a01b038816906000907fddf252ad1be2c89b69c2b068fc378daa952ba7f163c4a11628f55a4df523b3ef908290a48082106124aa575b50600090815561112b9085838684565b6060831561250d575081611bfc565b82511561251d5782518084602001fd5b8160405162461bcd60e51b8152600401610939919061265b565b82805461254390612b9a565b90600052602060002090601f01602090048101928261256557600085556125ab565b82601f1061257e57805160ff19168380011785556125ab565b828001600101855582156125ab579182015b828111156125ab578251825591602001919060010190612590565b506125b79291506125bb565b5090565b5b808211156125b757600081556001016125bc565b6001600160e01b03198116811461094b57600080fd5b6000602082840312156125f857600080fd5b8135611bfc816125d0565b60005b8381101561261e578181015183820152602001612606565b8381111561112b5750506000910152565b60008151808452612647816020860160208601612603565b601f01601f19169290920160200192915050565b602081526000611bfc602083018461262f565b60006020828403121561268057600080fd5b5035919050565b80356001600160a01b038116811461269e57600080fd5b919050565b600080604083850312156126b657600080fd5b6126bf83612687565b946020939093013593505050565b6000602082840312156126df57600080fd5b611bfc82612687565b6000806000606084860312156126fd57600080fd5b61270684612687565b925061271460208501612687565b9150604084013590509250925092565b6000806040838503121561273757600080fd5b50508035926020909101359150565b634e487b7160e01b600052604160045260246000fd5b604051601f8201601f1916810167ffffffffffffffff8111828210171561278557612785612746565b604052919050565b600067ffffffffffffffff8211156127a7576127a7612746565b50601f01601f191660200190565b60006127c86127c38461278d565b61275c565b90508281528383830111156127dc57600080fd5b828260208301376000602084830101529392505050565b60006020828403121561280557600080fd5b813567ffffffffffffffff81111561281c57600080fd5b8201601f8101841361282d57600080fd5b611ce4848235602084016127b5565b60008060006060848603121561285157600080fd5b8335925061271460208501612687565b60008083601f84011261287357600080fd5b50813567ffffffffffffffff81111561288b57600080fd5b6020830191508360208285010111156128a357600080fd5b9250929050565b6000806000604084860312156128bf57600080fd5b83359250602084013567ffffffffffffffff8111156128dd57600080fd5b6128e986828701612861565b9497909650939450505050565b6000806040838503121561290957600080fd5b61291283612687565b91506020830135801515811461292757600080fd5b809150509250929050565b6000806020838503121561294557600080fd5b823567ffffffffffffffff8082111561295d57600080fd5b818501915085601f83011261297157600080fd5b81358181111561298057600080fd5b8660208260051b850101111561299557600080fd5b60209290920196919550909350505050565b6000602080830181845280855180835260408601915060408160051b870101925083870160005b828110156129fc57603f198886030184526129ea85835161262f565b945092850192908501906001016129ce565b5092979650505050505050565b600082601f830112612a1a57600080fd5b611bfc838335602085016127b5565b60008060008060808587031215612a3f57600080fd5b612a4885612687565b9350612a5660208601612687565b925060408501359150606085013567ffffffffffffffff811115612a7957600080fd5b612a8587828801612a09565b91505092959194509250565b600080600080600060608688031215612aa957600080fd5b85359450602086013567ffffffffffffffff80821115612ac857600080fd5b612ad489838a01612861565b90965094506040880135915080821115612aed57600080fd5b50612afa88828901612861565b969995985093965092949392505050565b600080600060408486031215612b2057600080fd5b833567ffffffffffffffff80821115612b3857600080fd5b612b4487838801612a09565b94506020860135915080821115612b5a57600080fd5b506128e986828701612861565b60008060408385031215612b7a57600080fd5b612b8383612687565b9150612b9160208401612687565b90509250929050565b600181811c90821680612bae57607f821691505b60208210811415612bcf57634e487b7160e01b600052602260045260246000fd5b50919050565b634e487b7160e01b600052603260045260246000fd5b634e487b7160e01b600052601160045260246000fd5b6000816000190483118215151615612c1b57612c1b612beb565b500290565b634e487b7160e01b600052601260045260246000fd5b600082612c4557612c45612c20565b500490565b60008060408385031215612c5d57600080fd5b825167ffffffffffffffff811115612c7457600080fd5b8301601f81018513612c8557600080fd5b8051612c936127c38261278d565b818152866020838501011115612ca857600080fd5b612cb9826020830160208601612603565b60209590950151949694955050505050565b60008551612cdd818460208a01612603565b820184868237909301918252506020019392505050565b60008219821115612d0757612d07612beb565b500190565b6000808335601e19843603018112612d2357600080fd5b83018035915067ffffffffffffffff821115612d3e57600080fd5b6020019150368190038213156128a357600080fd5b6000600019821415612d6757612d67612beb565b5060010190565b60008251612d80818460208701612603565b600360fc1b920191825250600101919050565b60008351612da5818460208801612603565b835190830190612db9818360208801612603565b01949350505050565b60008060408385031215612dd557600080fd5b823567ffffffffffffffff811115612dec57600080fd5b612df885828601612a09565b95602094909401359450505050565b82848237909101908152602001919050565b604081526000612e2c604083018561262f565b8281036020840152612e3e818561262f565b95945050505050565b60006001600160a01b038087168352808616602084015250836040830152608060608301526112f2608083018461262f565b600060208284031215612e8b57600080fd5b8151611bfc816125d0565b600082821015612ea857612ea8612beb565b500390565b600082612ebc57612ebc612c20565b500690565b81835281816020850137506000828201602090810191909152601f909101601f19169091010190565b858152606060208201526000612f04606083018688612ec1565b8281036040840152612f17818587612ec1565b98975050505050505050565b60008251612f35818460208701612603565b919091019291505056fe416464726573733a206c6f772d6c6576656c2064656c65676174652063616c6c206661696c6564a2646970667358221220fe30aa6aac9b5d0c0030d8fa8956a95a1cdffe396121cbdfdb63a67861d37e2264736f6c634300080c0033",
  "linkReferences": {},
  "deployedLinkReferences": {}
}