{
  "_format": "hh-sol-artifact-1",
  "contractName": "ERC721Multiwrap",
  "sourceName": "contracts/base/ERC721Multiwrap.sol",
  "abi": [
    {
      "inputs": [
        {
          "internalType": "string",
          "name": "_name",
          "type": "string"
        },
        {
          "internalType": "string",
          "name": "_symbol",
          "type": "string"
        },
        {
          "internalType": "address",
          "name": "_royaltyRecipient",
          "type": "address"
        },
        {
          "internalType": "uint128",
          "name": "_royaltyBps",
          "type": "uint128"
        },
        {
          "internalType": "address",
          "name": "_nativeTokenWrapper",
          "type": "address"
        }
      ],
      "stateMutability": "nonpayable",
      "type": "constructor"
    },
    {
      "inputs": [],
      "name": "ApprovalCallerNotOwnerNorApproved",
      "type": "error"
    },
    {
      "inputs": [],
      "name": "ApprovalQueryForNonexistentToken",
      "type": "error"
    },
    {
      "inputs": [],
      "name": "ApprovalToCurrentOwner",
      "type": "error"
    },
    {
      "inputs": [],
      "name": "ApproveToCaller",
      "type": "error"
    },
    {
      "inputs": [],
      "name": "BalanceQueryForZeroAddress",
      "type": "error"
    },
    {
      "inputs": [],
      "name": "MintToZeroAddress",
      "type": "error"
    },
    {
      "inputs": [],
      "name": "MintZeroQuantity",
      "type": "error"
    },
    {
      "inputs": [],
      "name": "OwnerQueryForNonexistentToken",
      "type": "error"
    },
    {
      "inputs": [],
      "name": "TransferCallerNotOwnerNorApproved",
      "type": "error"
    },
    {
      "inputs": [],
      "name": "TransferFromIncorrectOwner",
      "type": "error"
    },
    {
      "inputs": [],
      "name": "TransferToNonERC721ReceiverImplementer",
      "type": "error"
    },
    {
      "inputs": [],
      "name": "TransferToZeroAddress",
      "type": "error"
    },
    {
      "inputs": [],
      "name": "URIQueryForNonexistentToken",
      "type": "error"
    },
    {
      "anonymous": false,
      "inputs": [
        {
          "indexed": true,
          "internalType": "address",
          "name": "owner",
          "type": "address"
        },
        {
          "indexed": true,
          "internalType": "address",
          "name": "approved",
          "type": "address"
        },
        {
          "indexed": true,
          "internalType": "uint256",
          "name": "tokenId",
          "type": "uint256"
        }
      ],
      "name": "Approval",
      "type": "event"
    },
    {
      "anonymous": false,
      "inputs": [
        {
          "indexed": true,
          "internalType": "address",
          "name": "owner",
          "type": "address"
        },
        {
          "indexed": true,
          "internalType": "address",
          "name": "operator",
          "type": "address"
        },
        {
          "indexed": false,
          "internalType": "bool",
          "name": "approved",
          "type": "bool"
        }
      ],
      "name": "ApprovalForAll",
      "type": "event"
    },
    {
      "anonymous": false,
      "inputs": [
        {
          "indexed": false,
          "internalType": "string",
          "name": "prevURI",
          "type": "string"
        },
        {
          "indexed": false,
          "internalType": "string",
          "name": "newURI",
          "type": "string"
        }
      ],
      "name": "ContractURIUpdated",
      "type": "event"
    },
    {
      "anonymous": false,
      "inputs": [
        {
          "indexed": true,
          "internalType": "address",
          "name": "newRoyaltyRecipient",
          "type": "address"
        },
        {
          "indexed": false,
          "internalType": "uint256",
          "name": "newRoyaltyBps",
          "type": "uint256"
        }
      ],
      "name": "DefaultRoyalty",
      "type": "event"
    },
    {
      "anonymous": false,
      "inputs": [
        {
          "indexed": true,
          "internalType": "address",
          "name": "prevOwner",
          "type": "address"
        },
        {
          "indexed": true,
          "internalType": "address",
          "name": "newOwner",
          "type": "address"
        }
      ],
      "name": "OwnerUpdated",
      "type": "event"
    },
    {
      "anonymous": false,
      "inputs": [
        {
          "indexed": true,
          "internalType": "bytes32",
          "name": "role",
          "type": "bytes32"
        },
        {
          "indexed": true,
          "internalType": "bytes32",
          "name": "previousAdminRole",
          "type": "bytes32"
        },
        {
          "indexed": true,
          "internalType": "bytes32",
          "name": "newAdminRole",
          "type": "bytes32"
        }
      ],
      "name": "RoleAdminChanged",
      "type": "event"
    },
    {
      "anonymous": false,
      "inputs": [
        {
          "indexed": true,
          "internalType": "bytes32",
          "name": "role",
          "type": "bytes32"
        },
        {
          "indexed": true,
          "internalType": "address",
          "name": "account",
          "type": "address"
        },
        {
          "indexed": true,
          "internalType": "address",
          "name": "sender",
          "type": "address"
        }
      ],
      "name": "RoleGranted",
      "type": "event"
    },
    {
      "anonymous": false,
      "inputs": [
        {
          "indexed": true,
          "internalType": "bytes32",
          "name": "role",
          "type": "bytes32"
        },
        {
          "indexed": true,
          "internalType": "address",
          "name": "account",
          "type": "address"
        },
        {
          "indexed": true,
          "internalType": "address",
          "name": "sender",
          "type": "address"
        }
      ],
      "name": "RoleRevoked",
      "type": "event"
    },
    {
      "anonymous": false,
      "inputs": [
        {
          "indexed": true,
          "internalType": "uint256",
          "name": "tokenId",
          "type": "uint256"
        },
        {
          "indexed": true,
          "internalType": "address",
          "name": "royaltyRecipient",
          "type": "address"
        },
        {
          "indexed": false,
          "internalType": "uint256",
          "name": "royaltyBps",
          "type": "uint256"
        }
      ],
      "name": "RoyaltyForToken",
      "type": "event"
    },
    {
      "anonymous": false,
      "inputs": [
        {
          "indexed": true,
          "internalType": "address",
          "name": "unwrapper",
          "type": "address"
        },
        {
          "indexed": true,
          "internalType": "address",
          "name": "recipientOfWrappedContents",
          "type": "address"
        },
        {
          "indexed": true,
          "internalType": "uint256",
          "name": "tokenIdOfWrappedToken",
          "type": "uint256"
        }
      ],
      "name": "TokensUnwrapped",
      "type": "event"
    },
    {
      "anonymous": false,
      "inputs": [
        {
          "indexed": true,
          "internalType": "address",
          "name": "wrapper",
          "type": "address"
        },
        {
          "indexed": true,
          "internalType": "address",
          "name": "recipientOfWrappedToken",
          "type": "address"
        },
        {
          "indexed": true,
          "internalType": "uint256",
          "name": "tokenIdOfWrappedToken",
          "type": "uint256"
        },
        {
          "components": [
            {
              "internalType": "address",
              "name": "assetContract",
              "type": "address"
            },
            {
              "internalType": "enum ITokenBundle.TokenType",
              "name": "tokenType",
              "type": "uint8"
            },
            {
              "internalType": "uint256",
              "name": "tokenId",
              "type": "uint256"
            },
            {
              "internalType": "uint256",
              "name": "totalAmount",
              "type": "uint256"
            }
          ],
          "indexed": false,
          "internalType": "struct ITokenBundle.Token[]",
          "name": "wrappedContents",
          "type": "tuple[]"
        }
      ],
      "name": "TokensWrapped",
      "type": "event"
    },
    {
      "anonymous": false,
      "inputs": [
        {
          "indexed": true,
          "internalType": "address",
          "name": "from",
          "type": "address"
        },
        {
          "indexed": true,
          "internalType": "address",
          "name": "to",
          "type": "address"
        },
        {
          "indexed": true,
          "internalType": "uint256",
          "name": "tokenId",
          "type": "uint256"
        }
      ],
      "name": "Transfer",
      "type": "event"
    },
    {
      "anonymous": false,
      "inputs": [
        {
          "indexed": false,
          "internalType": "bool",
          "name": "isRestricted",
          "type": "bool"
        }
      ],
      "name": "TransfersRestricted",
      "type": "event"
    },
    {
      "inputs": [],
      "name": "DEFAULT_ADMIN_ROLE",
      "outputs": [
        {
          "internalType": "bytes32",
          "name": "",
          "type": "bytes32"
        }
      ],
      "stateMutability": "view",
      "type": "function"
    },
    {
      "inputs": [],
      "name": "TRANSFER_ROLE",
      "outputs": [
        {
          "internalType": "bytes32",
          "name": "",
          "type": "bytes32"
        }
      ],
      "stateMutability": "view",
      "type": "function"
    },
    {
      "inputs": [
        {
          "internalType": "address",
          "name": "to",
          "type": "address"
        },
        {
          "internalType": "uint256",
          "name": "tokenId",
          "type": "uint256"
        }
      ],
      "name": "approve",
      "outputs": [],
      "stateMutability": "nonpayable",
      "type": "function"
    },
    {
      "inputs": [
        {
          "internalType": "address",
          "name": "owner",
          "type": "address"
        }
      ],
      "name": "balanceOf",
      "outputs": [
        {
          "internalType": "uint256",
          "name": "",
          "type": "uint256"
        }
      ],
      "stateMutability": "view",
      "type": "function"
    },
    {
      "inputs": [],
      "name": "contractURI",
      "outputs": [
        {
          "internalType": "string",
          "name": "",
          "type": "string"
        }
      ],
      "stateMutability": "view",
      "type": "function"
    },
    {
      "inputs": [
        {
          "internalType": "uint256",
          "name": "tokenId",
          "type": "uint256"
        }
      ],
      "name": "getApproved",
      "outputs": [
        {
          "internalType": "address",
          "name": "",
          "type": "address"
        }
      ],
      "stateMutability": "view",
      "type": "function"
    },
    {
      "inputs": [],
      "name": "getDefaultRoyaltyInfo",
      "outputs": [
        {
          "internalType": "address",
          "name": "",
          "type": "address"
        },
        {
          "internalType": "uint16",
          "name": "",
          "type": "uint16"
        }
      ],
      "stateMutability": "view",
      "type": "function"
    },
    {
      "inputs": [
        {
          "internalType": "bytes32",
          "name": "role",
          "type": "bytes32"
        }
      ],
      "name": "getRoleAdmin",
      "outputs": [
        {
          "internalType": "bytes32",
          "name": "",
          "type": "bytes32"
        }
      ],
      "stateMutability": "view",
      "type": "function"
    },
    {
      "inputs": [
        {
          "internalType": "bytes32",
          "name": "role",
          "type": "bytes32"
        },
        {
          "internalType": "uint256",
          "name": "index",
          "type": "uint256"
        }
      ],
      "name": "getRoleMember",
      "outputs": [
        {
          "internalType": "address",
          "name": "member",
          "type": "address"
        }
      ],
      "stateMutability": "view",
      "type": "function"
    },
    {
      "inputs": [
        {
          "internalType": "bytes32",
          "name": "role",
          "type": "bytes32"
        }
      ],
      "name": "getRoleMemberCount",
      "outputs": [
        {
          "internalType": "uint256",
          "name": "count",
          "type": "uint256"
        }
      ],
      "stateMutability": "view",
      "type": "function"
    },
    {
      "inputs": [
        {
          "internalType": "uint256",
          "name": "_tokenId",
          "type": "uint256"
        }
      ],
      "name": "getRoyaltyInfoForToken",
      "outputs": [
        {
          "internalType": "address",
          "name": "",
          "type": "address"
        },
        {
          "internalType": "uint16",
          "name": "",
          "type": "uint16"
        }
      ],
      "stateMutability": "view",
      "type": "function"
    },
    {
      "inputs": [
        {
          "internalType": "uint256",
          "name": "_bundleId",
          "type": "uint256"
        }
      ],
      "name": "getTokenCountOfBundle",
      "outputs": [
        {
          "internalType": "uint256",
          "name": "",
          "type": "uint256"
        }
      ],
      "stateMutability": "view",
      "type": "function"
    },
    {
      "inputs": [
        {
          "internalType": "uint256",
          "name": "_bundleId",
          "type": "uint256"
        },
        {
          "internalType": "uint256",
          "name": "index",
          "type": "uint256"
        }
      ],
      "name": "getTokenOfBundle",
      "outputs": [
        {
          "components": [
            {
              "internalType": "address",
              "name": "assetContract",
              "type": "address"
            },
            {
              "internalType": "enum ITokenBundle.TokenType",
              "name": "tokenType",
              "type": "uint8"
            },
            {
              "internalType": "uint256",
              "name": "tokenId",
              "type": "uint256"
            },
            {
              "internalType": "uint256",
              "name": "totalAmount",
              "type": "uint256"
            }
          ],
          "internalType": "struct ITokenBundle.Token",
          "name": "",
          "type": "tuple"
        }
      ],
      "stateMutability": "view",
      "type": "function"
    },
    {
      "inputs": [
        {
          "internalType": "uint256",
          "name": "_bundleId",
          "type": "uint256"
        }
      ],
      "name": "getUriOfBundle",
      "outputs": [
        {
          "internalType": "string",
          "name": "",
          "type": "string"
        }
      ],
      "stateMutability": "view",
      "type": "function"
    },
    {
      "inputs": [
        {
          "internalType": "bytes32",
          "name": "role",
          "type": "bytes32"
        },
        {
          "internalType": "address",
          "name": "account",
          "type": "address"
        }
      ],
      "name": "grantRole",
      "outputs": [],
      "stateMutability": "nonpayable",
      "type": "function"
    },
    {
      "inputs": [
        {
          "internalType": "bytes32",
          "name": "role",
          "type": "bytes32"
        },
        {
          "internalType": "address",
          "name": "account",
          "type": "address"
        }
      ],
      "name": "hasRole",
      "outputs": [
        {
          "internalType": "bool",
          "name": "",
          "type": "bool"
        }
      ],
      "stateMutability": "view",
      "type": "function"
    },
    {
      "inputs": [
        {
          "internalType": "bytes32",
          "name": "role",
          "type": "bytes32"
        },
        {
          "internalType": "address",
          "name": "account",
          "type": "address"
        }
      ],
      "name": "hasRoleWithSwitch",
      "outputs": [
        {
          "internalType": "bool",
          "name": "",
          "type": "bool"
        }
      ],
      "stateMutability": "view",
      "type": "function"
    },
    {
      "inputs": [
        {
          "internalType": "address",
          "name": "owner",
          "type": "address"
        },
        {
          "internalType": "address",
          "name": "operator",
          "type": "address"
        }
      ],
      "name": "isApprovedForAll",
      "outputs": [
        {
          "internalType": "bool",
          "name": "",
          "type": "bool"
        }
      ],
      "stateMutability": "view",
      "type": "function"
    },
    {
      "inputs": [
        {
          "internalType": "address",
          "name": "_operator",
          "type": "address"
        },
        {
          "internalType": "uint256",
          "name": "_tokenId",
          "type": "uint256"
        }
      ],
      "name": "isApprovedOrOwner",
      "outputs": [
        {
          "internalType": "bool",
          "name": "isApprovedOrOwnerOf",
          "type": "bool"
        }
      ],
      "stateMutability": "view",
      "type": "function"
    },
    {
      "inputs": [
        {
          "internalType": "bytes[]",
          "name": "data",
          "type": "bytes[]"
        }
      ],
      "name": "multicall",
      "outputs": [
        {
          "internalType": "bytes[]",
          "name": "results",
          "type": "bytes[]"
        }
      ],
      "stateMutability": "nonpayable",
      "type": "function"
    },
    {
      "inputs": [],
      "name": "name",
      "outputs": [
        {
          "internalType": "string",
          "name": "",
          "type": "string"
        }
      ],
      "stateMutability": "view",
      "type": "function"
    },
    {
      "inputs": [],
      "name": "nextTokenIdToMint",
      "outputs": [
        {
          "internalType": "uint256",
          "name": "",
          "type": "uint256"
        }
      ],
      "stateMutability": "view",
      "type": "function"
    },
    {
      "inputs": [
        {
          "internalType": "address",
          "name": "",
          "type": "address"
        },
        {
          "internalType": "address",
          "name": "",
          "type": "address"
        },
        {
          "internalType": "uint256[]",
          "name": "",
          "type": "uint256[]"
        },
        {
          "internalType": "uint256[]",
          "name": "",
          "type": "uint256[]"
        },
        {
          "internalType": "bytes",
          "name": "",
          "type": "bytes"
        }
      ],
      "name": "onERC1155BatchReceived",
      "outputs": [
        {
          "internalType": "bytes4",
          "name": "",
          "type": "bytes4"
        }
      ],
      "stateMutability": "nonpayable",
      "type": "function"
    },
    {
      "inputs": [
        {
          "internalType": "address",
          "name": "",
          "type": "address"
        },
        {
          "internalType": "address",
          "name": "",
          "type": "address"
        },
        {
          "internalType": "uint256",
          "name": "",
          "type": "uint256"
        },
        {
          "internalType": "uint256",
          "name": "",
          "type": "uint256"
        },
        {
          "internalType": "bytes",
          "name": "",
          "type": "bytes"
        }
      ],
      "name": "onERC1155Received",
      "outputs": [
        {
          "internalType": "bytes4",
          "name": "",
          "type": "bytes4"
        }
      ],
      "stateMutability": "nonpayable",
      "type": "function"
    },
    {
      "inputs": [
        {
          "internalType": "address",
          "name": "",
          "type": "address"
        },
        {
          "internalType": "address",
          "name": "",
          "type": "address"
        },
        {
          "internalType": "uint256",
          "name": "",
          "type": "uint256"
        },
        {
          "internalType": "bytes",
          "name": "",
          "type": "bytes"
        }
      ],
      "name": "onERC721Received",
      "outputs": [
        {
          "internalType": "bytes4",
          "name": "",
          "type": "bytes4"
        }
      ],
      "stateMutability": "nonpayable",
      "type": "function"
    },
    {
      "inputs": [],
      "name": "owner",
      "outputs": [
        {
          "internalType": "address",
          "name": "",
          "type": "address"
        }
      ],
      "stateMutability": "view",
      "type": "function"
    },
    {
      "inputs": [
        {
          "internalType": "uint256",
          "name": "tokenId",
          "type": "uint256"
        }
      ],
      "name": "ownerOf",
      "outputs": [
        {
          "internalType": "address",
          "name": "",
          "type": "address"
        }
      ],
      "stateMutability": "view",
      "type": "function"
    },
    {
      "inputs": [
        {
          "internalType": "bytes32",
          "name": "role",
          "type": "bytes32"
        },
        {
          "internalType": "address",
          "name": "account",
          "type": "address"
        }
      ],
      "name": "renounceRole",
      "outputs": [],
      "stateMutability": "nonpayable",
      "type": "function"
    },
    {
      "inputs": [
        {
          "internalType": "bool",
          "name": "_toRestrict",
          "type": "bool"
        }
      ],
      "name": "restrictTransfers",
      "outputs": [],
      "stateMutability": "nonpayable",
      "type": "function"
    },
    {
      "inputs": [
        {
          "internalType": "bytes32",
          "name": "role",
          "type": "bytes32"
        },
        {
          "internalType": "address",
          "name": "account",
          "type": "address"
        }
      ],
      "name": "revokeRole",
      "outputs": [],
      "stateMutability": "nonpayable",
      "type": "function"
    },
    {
      "inputs": [
        {
          "internalType": "uint256",
          "name": "tokenId",
          "type": "uint256"
        },
        {
          "internalType": "uint256",
          "name": "salePrice",
          "type": "uint256"
        }
      ],
      "name": "royaltyInfo",
      "outputs": [
        {
          "internalType": "address",
          "name": "receiver",
          "type": "address"
        },
        {
          "internalType": "uint256",
          "name": "royaltyAmount",
          "type": "uint256"
        }
      ],
      "stateMutability": "view",
      "type": "function"
    },
    {
      "inputs": [
        {
          "internalType": "address",
          "name": "from",
          "type": "address"
        },
        {
          "internalType": "address",
          "name": "to",
          "type": "address"
        },
        {
          "internalType": "uint256",
          "name": "tokenId",
          "type": "uint256"
        }
      ],
      "name": "safeTransferFrom",
      "outputs": [],
      "stateMutability": "nonpayable",
      "type": "function"
    },
    {
      "inputs": [
        {
          "internalType": "address",
          "name": "from",
          "type": "address"
        },
        {
          "internalType": "address",
          "name": "to",
          "type": "address"
        },
        {
          "internalType": "uint256",
          "name": "tokenId",
          "type": "uint256"
        },
        {
          "internalType": "bytes",
          "name": "_data",
          "type": "bytes"
        }
      ],
      "name": "safeTransferFrom",
      "outputs": [],
      "stateMutability": "nonpayable",
      "type": "function"
    },
    {
      "inputs": [
        {
          "internalType": "address",
          "name": "operator",
          "type": "address"
        },
        {
          "internalType": "bool",
          "name": "approved",
          "type": "bool"
        }
      ],
      "name": "setApprovalForAll",
      "outputs": [],
      "stateMutability": "nonpayable",
      "type": "function"
    },
    {
      "inputs": [
        {
          "internalType": "string",
          "name": "_uri",
          "type": "string"
        }
      ],
      "name": "setContractURI",
      "outputs": [],
      "stateMutability": "nonpayable",
      "type": "function"
    },
    {
      "inputs": [
        {
          "internalType": "address",
          "name": "_royaltyRecipient",
          "type": "address"
        },
        {
          "internalType": "uint256",
          "name": "_royaltyBps",
          "type": "uint256"
        }
      ],
      "name": "setDefaultRoyaltyInfo",
      "outputs": [],
      "stateMutability": "nonpayable",
      "type": "function"
    },
    {
      "inputs": [
        {
          "internalType": "address",
          "name": "_newOwner",
          "type": "address"
        }
      ],
      "name": "setOwner",
      "outputs": [],
      "stateMutability": "nonpayable",
      "type": "function"
    },
    {
      "inputs": [
        {
          "internalType": "uint256",
          "name": "_tokenId",
          "type": "uint256"
        },
        {
          "internalType": "address",
          "name": "_recipient",
          "type": "address"
        },
        {
          "internalType": "uint256",
          "name": "_bps",
          "type": "uint256"
        }
      ],
      "name": "setRoyaltyInfoForToken",
      "outputs": [],
      "stateMutability": "nonpayable",
      "type": "function"
    },
    {
      "inputs": [
        {
          "internalType": "bytes4",
          "name": "interfaceId",
          "type": "bytes4"
        }
      ],
      "name": "supportsInterface",
      "outputs": [
        {
          "internalType": "bool",
          "name": "",
          "type": "bool"
        }
      ],
      "stateMutability": "view",
      "type": "function"
    },
    {
      "inputs": [],
      "name": "symbol",
      "outputs": [
        {
          "internalType": "string",
          "name": "",
          "type": "string"
        }
      ],
      "stateMutability": "view",
      "type": "function"
    },
    {
      "inputs": [
        {
          "internalType": "uint256",
          "name": "_tokenId",
          "type": "uint256"
        }
      ],
      "name": "tokenURI",
      "outputs": [
        {
          "internalType": "string",
          "name": "",
          "type": "string"
        }
      ],
      "stateMutability": "view",
      "type": "function"
    },
    {
      "inputs": [],
      "name": "totalSupply",
      "outputs": [
        {
          "internalType": "uint256",
          "name": "",
          "type": "uint256"
        }
      ],
      "stateMutability": "view",
      "type": "function"
    },
    {
      "inputs": [
        {
          "internalType": "address",
          "name": "from",
          "type": "address"
        },
        {
          "internalType": "address",
          "name": "to",
          "type": "address"
        },
        {
          "internalType": "uint256",
          "name": "tokenId",
          "type": "uint256"
        }
      ],
      "name": "transferFrom",
      "outputs": [],
      "stateMutability": "nonpayable",
      "type": "function"
    },
    {
      "inputs": [
        {
          "internalType": "uint256",
          "name": "_tokenId",
          "type": "uint256"
        },
        {
          "internalType": "address",
          "name": "_recipient",
          "type": "address"
        }
      ],
      "name": "unwrap",
      "outputs": [],
      "stateMutability": "nonpayable",
      "type": "function"
    },
    {
      "inputs": [
        {
          "components": [
            {
              "internalType": "address",
              "name": "assetContract",
              "type": "address"
            },
            {
              "internalType": "enum ITokenBundle.TokenType",
              "name": "tokenType",
              "type": "uint8"
            },
            {
              "internalType": "uint256",
              "name": "tokenId",
              "type": "uint256"
            },
            {
              "internalType": "uint256",
              "name": "totalAmount",
              "type": "uint256"
            }
          ],
          "internalType": "struct ITokenBundle.Token[]",
          "name": "_tokensToWrap",
          "type": "tuple[]"
        },
        {
          "internalType": "string",
          "name": "_uriForWrappedToken",
          "type": "string"
        },
        {
          "internalType": "address",
          "name": "_recipient",
          "type": "address"
        }
      ],
      "name": "wrap",
      "outputs": [
        {
          "internalType": "uint256",
          "name": "tokenId",
          "type": "uint256"
        }
      ],
      "stateMutability": "payable",
      "type": "function"
    }
  ],
  "bytecode": "0x60a06040523480156200001157600080fd5b506040516200506138038062005061833981016040819052620000349162000852565b6001600160a01b0381166080528451859085906200005a906006906020850190620006b5565b50805162000070906007906020840190620006b5565b505060006004555062000083336200015d565b62000098836001600160801b038416620001af565b620000a56000336200025b565b620000d17f9f2df0fed2c77648de5860a4cc508cd0818c85b8b8a1ab4ceeef8d981c8956a6336200025b565b620000ec60008051602062005041833981519152336200025b565b620001197f86d5cf0a6bdc8d859ba3bdc97043337c82a0e609035f378e419298b6a3e00ae660006200025b565b620001467fba050530e9007d7ef162f72906a6658584aefb35f0e9fefd3c413cec269f054360006200025b565b62000152600062000282565b505050505062000a70565b600d80546001600160a01b038381166001600160a01b0319831681179093556040519116919082907f8292fce18fa69edf4db7b94ea2e58241df0ae57f97e0a6c9b29067028bf92d7690600090a35050565b612710811115620001f95760405162461bcd60e51b815260206004820152600f60248201526e45786365656473206d61782062707360881b60448201526064015b60405180910390fd5b600e80546001600160a01b0384166001600160b01b03199091168117600160a01b61ffff851602179091556040518281527f90d7ec04bcb8978719414f82e52e4cb651db41d0e6f8cea6118c2191e6183adb9060200160405180910390a25050565b620002728282620002c460201b620018681760201c565b6200027e828262000321565b5050565b8015620002a857620002a560008051602062005041833981519152600062000390565b50565b620002a56000805160206200504183398151915260006200025b565b60008281526001602081815260408084206001600160a01b0386168086529252808420805460ff19169093179092559051339285917f2f8788117e7eff1d82e926ec794901d17c78024a50270940304540a733656f0d9190a45050565b60008281526003602052604081208054916001919062000342838562000918565b9091555050600092835260036020908152604080852083865260018101835281862080546001600160a01b039096166001600160a01b03199096168617905593855260029093019052912055565b620003a78282620003f460201b620018c51760201c565b60008281526003602090815260408083206001600160a01b03851680855260028201808552838620805487526001909301855292852080546001600160a01b031916905584529152555050565b62000400828262000458565b60008281526001602090815260408083206001600160a01b0385168085529252808320805460ff1916905551339285917ff6391f5c32d9c69d2a47ea670b442974b53935d1edc7fd64eb21e047a839171b9190a45050565b60008281526001602090815260408083206001600160a01b038516845290915290205460ff166200027e57620004a4816001600160a01b03166014620004f560201b620019271760201c565b620004ba83602062001927620004f5821b17811c565b604051602001620004cd92919062000933565b60408051601f198184030181529082905262461bcd60e51b8252620001f091600401620009ac565b6060600062000506836002620009e1565b6200051390600262000918565b6001600160401b038111156200052d576200052d6200075b565b6040519080825280601f01601f19166020018201604052801562000558576020820181803683370190505b509050600360fc1b8160008151811062000576576200057662000a03565b60200101906001600160f81b031916908160001a905350600f60fb1b81600181518110620005a857620005a862000a03565b60200101906001600160f81b031916908160001a9053506000620005ce846002620009e1565b620005db90600162000918565b90505b60018111156200065d576f181899199a1a9b1b9c1cb0b131b232b360811b85600f166010811062000613576200061362000a03565b1a60f81b8282815181106200062c576200062c62000a03565b60200101906001600160f81b031916908160001a90535060049490941c93620006558162000a19565b9050620005de565b508315620006ae5760405162461bcd60e51b815260206004820181905260248201527f537472696e67733a20686578206c656e67746820696e73756666696369656e746044820152606401620001f0565b9392505050565b828054620006c39062000a33565b90600052602060002090601f016020900481019282620006e7576000855562000732565b82601f106200070257805160ff191683800117855562000732565b8280016001018555821562000732579182015b828111156200073257825182559160200191906001019062000715565b506200074092915062000744565b5090565b5b8082111562000740576000815560010162000745565b634e487b7160e01b600052604160045260246000fd5b60005b838110156200078e57818101518382015260200162000774565b838111156200079e576000848401525b50505050565b600082601f830112620007b657600080fd5b81516001600160401b0380821115620007d357620007d36200075b565b604051601f8301601f19908116603f01168101908282118183101715620007fe57620007fe6200075b565b816040528381528660208588010111156200081857600080fd5b6200082b84602083016020890162000771565b9695505050505050565b80516001600160a01b03811681146200084d57600080fd5b919050565b600080600080600060a086880312156200086b57600080fd5b85516001600160401b03808211156200088357600080fd5b6200089189838a01620007a4565b96506020880151915080821115620008a857600080fd5b50620008b788828901620007a4565b945050620008c86040870162000835565b60608701519093506001600160801b0381168114620008e657600080fd5b9150620008f66080870162000835565b90509295509295909350565b634e487b7160e01b600052601160045260246000fd5b600082198211156200092e576200092e62000902565b500190565b7f5065726d697373696f6e733a206163636f756e742000000000000000000000008152600083516200096d81601585016020880162000771565b7001034b99036b4b9b9b4b733903937b6329607d1b6015918401918201528351620009a081602684016020880162000771565b01602601949350505050565b6020815260008251806020840152620009cd81604085016020870162000771565b601f01601f19169190910160400192915050565b6000816000190483118215151615620009fe57620009fe62000902565b500290565b634e487b7160e01b600052603260045260246000fd5b60008162000a2b5762000a2b62000902565b506000190190565b600181811c9082168062000a4857607f821691505b6020821081141562000a6a57634e487b7160e01b600052602260045260246000fd5b50919050565b6080516145b562000a8c60003960006131ef01526145b56000f3fe6080604052600436106102c25760003560e01c806370a082311161017f578063a32fa5b3116100e1578063ca15c8731161008a578063e8a3d48511610064578063e8a3d485146108ea578063e985e9c5146108ff578063f23a6e611461094857600080fd5b8063ca15c8731461087d578063d0d2fe251461089d578063d547741f146108ca57600080fd5b8063b88d4fde116100bb578063b88d4fde14610811578063bc197c8114610831578063c87b56dd1461085d57600080fd5b8063a32fa5b314610799578063ac9650d8146107b9578063b24f2d39146107e657600080fd5b806391d14854116101435780639bcf7a151161011d5780639bcf7a1514610744578063a217fddf14610764578063a22cb4651461077957600080fd5b806391d14854146106c9578063938e3d7b1461070f57806395d89b411461072f57600080fd5b806370a082311461062b57806373fa563f1461064b5780637647691d1461066b5780638da5cb5b1461068b5780639010d07c146106a957600080fd5b806329e471dd1161022857806342842e0e116101ec578063600dd5ea116101c6578063600dd5ea146105cb57806361195e94146105eb5780636352211e1461060b57600080fd5b806342842e0e14610549578063430c2081146105695780634cc157df1461058957600080fd5b806329e471dd146104a25780632a55205a146104b55780632f2ff15d146104f457806336568abe146105145780633b1475a71461053457600080fd5b8063150b7a021161028a578063206b60f911610264578063206b60f91461042157806323b872dd14610455578063248a9ca31461047557600080fd5b8063150b7a021461039857806318160ddd146103d15780631da799c9146103f457600080fd5b806301ffc9a7146102c757806306fdde03146102fc578063081812fc1461031e578063095ea7b31461035657806313af403514610378575b600080fd5b3480156102d357600080fd5b506102e76102e236600461390a565b610974565b60405190151581526020015b60405180910390f35b34801561030857600080fd5b50610311610a0c565b6040516102f3919061397f565b34801561032a57600080fd5b5061033e610339366004613992565b610a9e565b6040516001600160a01b0390911681526020016102f3565b34801561036257600080fd5b506103766103713660046139d0565b610ae2565b005b34801561038457600080fd5b506103766103933660046139fc565b610b69565b3480156103a457600080fd5b506103b86103b3366004613ada565b610bbf565b6040516001600160e01b031990911681526020016102f3565b3480156103dd57600080fd5b50600554600454035b6040519081526020016102f3565b34801561040057600080fd5b5061041461040f366004613b46565b610bd0565b6040516102f39190613ba0565b34801561042d57600080fd5b506103e67f8502233096d909befbda0999bb8ea2f3a6be3c138b9fbf003752a4c8bce86f6c81565b34801561046157600080fd5b50610376610470366004613bdf565b610c81565b34801561048157600080fd5b506103e6610490366004613992565b60009081526002602052604090205490565b6103e66104b0366004613c69565b610c8c565b3480156104c157600080fd5b506104d56104d0366004613b46565b610e26565b604080516001600160a01b0390931683526020830191909152016102f3565b34801561050057600080fd5b5061037661050f366004613d18565b610e63565b34801561052057600080fd5b5061037661052f366004613d18565b610efd565b34801561054057600080fd5b506004546103e6565b34801561055557600080fd5b50610376610564366004613bdf565b610f5f565b34801561057557600080fd5b506102e76105843660046139d0565b610f7a565b34801561059557600080fd5b506105a96105a4366004613992565b610ff8565b604080516001600160a01b03909316835261ffff9091166020830152016102f3565b3480156105d757600080fd5b506103766105e63660046139d0565b611063565b3480156105f757600080fd5b50610311610606366004613992565b6110b2565b34801561061757600080fd5b5061033e610626366004613992565b611157565b34801561063757600080fd5b506103e66106463660046139fc565b611169565b34801561065757600080fd5b50610376610666366004613d56565b6111b8565b34801561067757600080fd5b50610376610686366004613d18565b611214565b34801561069757600080fd5b50600d546001600160a01b031661033e565b3480156106b557600080fd5b5061033e6106c4366004613b46565b611342565b3480156106d557600080fd5b506102e76106e4366004613d18565b60009182526001602090815260408084206001600160a01b0393909316845291905290205460ff1690565b34801561071b57600080fd5b5061037661072a366004613d73565b611443565b34801561073b57600080fd5b50610311611491565b34801561075057600080fd5b5061037661075f366004613dbc565b6114a0565b34801561077057600080fd5b506103e6600081565b34801561078557600080fd5b50610376610794366004613de3565b6114f0565b3480156107a557600080fd5b506102e76107b4366004613d18565b611586565b3480156107c557600080fd5b506107d96107d4366004613e11565b6115dc565b6040516102f39190613e86565b3480156107f257600080fd5b50600e546001600160a01b03811690600160a01b900461ffff166105a9565b34801561081d57600080fd5b5061037661082c366004613ada565b6116d1565b34801561083d57600080fd5b506103b861084c366004613f69565b63bc197c8160e01b95945050505050565b34801561086957600080fd5b50610311610878366004613992565b61171b565b34801561088957600080fd5b506103e6610898366004613992565b611726565b3480156108a957600080fd5b506103e66108b8366004613992565b60009081526020819052604090205490565b3480156108d657600080fd5b506103766108e5366004613d18565b6117c1565b3480156108f657600080fd5b506103116117da565b34801561090b57600080fd5b506102e761091a366004614017565b6001600160a01b039182166000908152600b6020908152604080832093909416825291909152205460ff1690565b34801561095457600080fd5b506103b8610963366004614045565b63f23a6e6160e01b95945050505050565b600061097f82611ad7565b8061099a57506301ffc9a760e01b6001600160e01b03198316145b806109b557506380ac58cd60e01b6001600160e01b03198316145b806109d05750635b5e139f60e01b6001600160e01b03198316145b806109eb57506001600160e01b0319821663152a902d60e11b145b80610a0657506001600160e01b03198216630271189760e51b145b92915050565b606060068054610a1b906140ae565b80601f0160208091040260200160405190810160405280929190818152602001828054610a47906140ae565b8015610a945780601f10610a6957610100808354040283529160200191610a94565b820191906000526020600020905b815481529060010190602001808311610a7757829003601f168201915b5050505050905090565b6000610aa982611b17565b610ac6576040516333d1c03960e21b815260040160405180910390fd5b506000908152600a60205260409020546001600160a01b031690565b6000610aed82611157565b9050806001600160a01b0316836001600160a01b03161415610b225760405163250fdee360e21b815260040160405180910390fd5b336001600160a01b03821614610b5957610b3c813361091a565b610b59576040516367d9dca160e11b815260040160405180910390fd5b610b64838383611b43565b505050565b610b71611b9f565b610bb35760405162461bcd60e51b815260206004820152600e60248201526d139bdd08185d5d1a1bdc9a5e995960921b60448201526064015b60405180910390fd5b610bbc81611bcc565b50565b630a85bd0160e11b5b949350505050565b610bfc604080516080810190915260008082526020820190815260200160008152602001600081525090565b600083815260208181526040808320858452600290810183529281902081516080810190925280546001600160a01b038116835291939092840191600160a01b900460ff1690811115610c5157610c51613b68565b6002811115610c6257610c62613b68565b8152600182015460208201526002909101546040909101529392505050565b610b64838383611c1e565b60007f9f2df0fed2c77648de5860a4cc508cd0818c85b8b8a1ab4ceeef8d981c8956a6610cb98133611e1b565b600080527f346c4f190839153011f05e3303eb90337ec4c4f31ecdb57d16125aab8f785c066020527f88979a97b3806029b64494535f79a42a86ed43bf2b828db6a097c922d405c9765460ff16610d7a5760005b86811015610d7857610d667f86d5cf0a6bdc8d859ba3bdc97043337c82a0e609035f378e419298b6a3e00ae6898984818110610d4b57610d4b6140e3565b610d6192602060809092020190810191506139fc565b611e7f565b610d7160018261410f565b9050610d0d565b505b6004549150610dc333888888888080601f016020809104026020016040519081016040528093929190818152602001838380828437600092019190915250899250611ebd915050565b610dce836001611f2f565b81836001600160a01b0316336001600160a01b03167fd37c0c0e6fd9c0d30d0b9fba1aa4f1123dedc7e681bb5b2c2d96298650032d4c8a8a604051610e14929190614134565b60405180910390a45095945050505050565b600080600080610e3586610ff8565b90945084925061ffff169050612710610e4e82876141b3565b610e5891906141d2565b925050509250929050565b600082815260026020526040902054610e7c9033611e7f565b60008281526001602090815260408083206001600160a01b038516845290915290205460ff1615610eef5760405162461bcd60e51b815260206004820152601d60248201527f43616e206f6e6c79206772616e7420746f206e6f6e20686f6c646572730000006044820152606401610baa565b610ef98282611f49565b5050565b336001600160a01b03821614610f555760405162461bcd60e51b815260206004820152601a60248201527f43616e206f6e6c792072656e6f756e636520666f722073656c660000000000006044820152606401610baa565b610ef98282611f5d565b610b64838383604051806020016040528060008152506116d1565b600080610f8683611157565b9050806001600160a01b0316846001600160a01b03161480610fcd57506001600160a01b038082166000908152600b602090815260408083209388168352929052205460ff165b80610bc85750836001600160a01b0316610fe684610a9e565b6001600160a01b031614949350505050565b6000818152600f60209081526040808320815180830190925280546001600160a01b03168083526001909101549282019290925282911561103f5780516020820151611059565b600e546001600160a01b03811690600160a01b900461ffff165b9250925050915091565b61106b611b9f565b6110a85760405162461bcd60e51b815260206004820152600e60248201526d139bdd08185d5d1a1bdc9a5e995960921b6044820152606401610baa565b610ef98282611fb4565b60008181526020819052604090206001018054606091906110d2906140ae565b80601f01602080910402602001604051908101604052809291908181526020018280546110fe906140ae565b801561114b5780601f106111205761010080835404028352916020019161114b565b820191906000526020600020905b81548152906001019060200180831161112e57829003601f168201915b50505050509050919050565b600061116282612069565b5192915050565b60006001600160a01b038216611192576040516323d3ad8160e21b815260040160405180910390fd5b506001600160a01b031660009081526009602052604090205467ffffffffffffffff1690565b80156111e957610bbc7f8502233096d909befbda0999bb8ea2f3a6be3c138b9fbf003752a4c8bce86f6c6000611f5d565b610bbc7f8502233096d909befbda0999bb8ea2f3a6be3c138b9fbf003752a4c8bce86f6c6000611f49565b7fba050530e9007d7ef162f72906a6658584aefb35f0e9fefd3c413cec269f054361123f8133611e1b565b60045483106112905760405162461bcd60e51b815260206004820152601060248201527f77726170706564204e465420444e452e000000000000000000000000000000006044820152606401610baa565b61129a3384610f7a565b6112f25760405162461bcd60e51b815260206004820152602360248201527f63616c6c6572206e6f7420617070726f76656420666f7220756e77726170706960448201526237339760e91b6064820152608401610baa565b6112fb83612185565b6113058284612190565b60405183906001600160a01b0384169033907fe9a1b206a63887b7a73ef37983c4105047ae75c9ac0920a1a256eea52f264a7390600090a4505050565b60008281526003602052604081205481805b8281101561143a5760008681526003602090815260408083208484526001019091529020546001600160a01b0316156113d157848214156113bf5760008681526003602090815260408083209383526001909301905220546001600160a01b03169250610a06915050565b6113ca60018361410f565b9150611428565b600086815260016020908152604080832083805290915290205460ff1680156114155750600086815260036020908152604080832083805260020190915290205481145b156114285761142560018361410f565b91505b61143360018261410f565b9050611354565b50505092915050565b61144b611b9f565b6114885760405162461bcd60e51b815260206004820152600e60248201526d139bdd08185d5d1a1bdc9a5e995960921b6044820152606401610baa565b610bbc81612272565b606060078054610a1b906140ae565b6114a8611b9f565b6114e55760405162461bcd60e51b815260206004820152600e60248201526d139bdd08185d5d1a1bdc9a5e995960921b6044820152606401610baa565b610b64838383612354565b6001600160a01b03821633141561151a5760405163b06307db60e01b815260040160405180910390fd5b336000818152600b602090815260408083206001600160a01b03871680855290835292819020805460ff191686151590811790915590519081529192917f17307eab39ab6107e8899845ad3d59bd9653f200f220920489ca2b5937696c31910160405180910390a35050565b600082815260016020908152604080832083805290915281205460ff166115d3575060008281526001602090815260408083206001600160a01b038516845290915290205460ff16610a06565b50600192915050565b60608167ffffffffffffffff8111156115f7576115f7613a19565b60405190808252806020026020018201604052801561162a57816020015b60608152602001906001900390816116155790505b50905060005b828110156116ca5761169a3085858481811061164e5761164e6140e3565b905060200281019061166091906141f4565b8080601f01602080910402602001604051908101604052809392919081815260200183838082843760009201919091525061241d92505050565b8282815181106116ac576116ac6140e3565b602002602001018190525080806116c29061423b565b915050611630565b5092915050565b6116dc848484611c1e565b6001600160a01b0383163b15611715576116f884848484612442565b611715576040516368d2bf6b60e11b815260040160405180910390fd5b50505050565b6060610a06826110b2565b600081815260036020526040812054815b8181101561178a5760008481526003602090815260408083208484526001019091529020546001600160a01b0316156117785761177560018461410f565b92505b61178360018261410f565b9050611737565b50600083815260016020908152604080832083805290915290205460ff16156117bb576117b860018361410f565b91505b50919050565b600082815260026020526040902054610f559033611e7f565b600c80546117e7906140ae565b80601f0160208091040260200160405190810160405280929190818152602001828054611813906140ae565b80156118605780601f1061183557610100808354040283529160200191611860565b820191906000526020600020905b81548152906001019060200180831161184357829003601f168201915b505050505081565b60008281526001602081815260408084206001600160a01b0386168086529252808420805460ff19169093179092559051339285917f2f8788117e7eff1d82e926ec794901d17c78024a50270940304540a733656f0d9190a45050565b6118cf8282611e7f565b60008281526001602090815260408083206001600160a01b0385168085529252808320805460ff1916905551339285917ff6391f5c32d9c69d2a47ea670b442974b53935d1edc7fd64eb21e047a839171b9190a45050565b606060006119368360026141b3565b61194190600261410f565b67ffffffffffffffff81111561195957611959613a19565b6040519080825280601f01601f191660200182016040528015611983576020820181803683370190505b509050600360fc1b8160008151811061199e5761199e6140e3565b60200101906001600160f81b031916908160001a905350600f60fb1b816001815181106119cd576119cd6140e3565b60200101906001600160f81b031916908160001a90535060006119f18460026141b3565b6119fc90600161410f565b90505b6001811115611a81577f303132333435363738396162636465660000000000000000000000000000000085600f1660108110611a3d57611a3d6140e3565b1a60f81b828281518110611a5357611a536140e3565b60200101906001600160f81b031916908160001a90535060049490941c93611a7a81614256565b90506119ff565b508315611ad05760405162461bcd60e51b815260206004820181905260248201527f537472696e67733a20686578206c656e67746820696e73756666696369656e746044820152606401610baa565b9392505050565b60006001600160e01b031982166380ac58cd60e01b1480611b0857506001600160e01b03198216635b5e139f60e01b145b80610a065750610a0682612527565b600060045482108015610a06575050600090815260086020526040902054600160e01b900460ff161590565b6000828152600a602052604080822080546001600160a01b0319166001600160a01b0387811691821790925591518593918516917f8c5be1e5ebec7d5bd14f71427d1e84f3dd0314c0f7b2291e5b200ac8c7c3b92591a4505050565b6000611bb3600d546001600160a01b031690565b6001600160a01b0316336001600160a01b031614905090565b600d80546001600160a01b038381166001600160a01b0319831681179093556040519116919082907f8292fce18fa69edf4db7b94ea2e58241df0ae57f97e0a6c9b29067028bf92d7690600090a35050565b6000611c2982612069565b9050836001600160a01b031681600001516001600160a01b031614611c605760405162a1148160e81b815260040160405180910390fd5b6000336001600160a01b0386161480611c7e5750611c7e853361091a565b80611c99575033611c8e84610a9e565b6001600160a01b0316145b905080611cb957604051632ce44b5f60e11b815260040160405180910390fd5b6001600160a01b038416611ce057604051633a954ecd60e21b815260040160405180910390fd5b611ced858585600161255c565b611cf960008487611b43565b6001600160a01b038581166000908152600960209081526040808320805467ffffffffffffffff1980821667ffffffffffffffff92831660001901831617909255898616808652838620805493841693831660019081018416949094179055898652600890945282852080546001600160e01b031916909417600160a01b42909216919091021783558701808452922080549193909116611dcf576004548214611dcf578054602086015167ffffffffffffffff16600160a01b026001600160e01b03199091166001600160a01b038a16171781555b50505082846001600160a01b0316866001600160a01b03167fddf252ad1be2c89b69c2b068fc378daa952ba7f163c4a11628f55a4df523b3ef60405160405180910390a45b5050505050565b611e258282611586565b610ef957611e3d816001600160a01b03166014611927565b611e48836020611927565b604051602001611e5992919061426d565b60408051601f198184030181529082905262461bcd60e51b8252610baa9160040161397f565b60008281526001602090815260408083206001600160a01b038516845290915290205460ff16610ef957611e3d816001600160a01b03166014611927565b611ec8848483612568565b611ed2828261268f565b611e1485308686808060200260200160405190810160405280939291908181526020016000905b82821015611f2557611f16608083028601368190038101906142ee565b81526020019060010190611ef9565b50505050506126b2565b610ef98282604051806020016040528060008152506127ce565b611f538282611868565b610ef9828261299f565b611f6782826118c5565b60008281526003602090815260408083206001600160a01b03851680855260028201808552838620805487526001909301855292852080546001600160a01b031916905584529152555050565b612710811115611ff85760405162461bcd60e51b815260206004820152600f60248201526e45786365656473206d61782062707360881b6044820152606401610baa565b600e80546001600160a01b03841675ffffffffffffffffffffffffffffffffffffffffffff199091168117600160a01b61ffff851602179091556040518281527f90d7ec04bcb8978719414f82e52e4cb651db41d0e6f8cea6118c2191e6183adb9060200160405180910390a25050565b60408051606081018252600080825260208201819052918101919091528160045481101561216c57600081815260086020908152604091829020825160608101845290546001600160a01b0381168252600160a01b810467ffffffffffffffff1692820192909252600160e01b90910460ff1615159181018290529061216a5780516001600160a01b031615612100579392505050565b5060001901600081815260086020908152604091829020825160608101845290546001600160a01b038116808352600160a01b820467ffffffffffffffff1693830193909352600160e01b900460ff1615159281019290925215612165579392505050565b612100565b505b604051636f96cda160e11b815260040160405180910390fd5b610bbc816000612a0c565b600081815260208190526040812054908167ffffffffffffffff8111156121b9576121b9613a19565b60405190808252806020026020018201604052801561221657816020015b612203604080516080810190915260008082526020820190815260200160008152602001600081525090565b8152602001906001900390816121d75790505b50905060005b8281101561225d5761222e8482610bd0565b828281518110612240576122406140e3565b602090810291909101015261225660018261410f565b905061221c565b5061226783612bf6565b6117153085836126b2565b6000600c8054612281906140ae565b80601f01602080910402602001604051908101604052809291908181526020018280546122ad906140ae565b80156122fa5780601f106122cf576101008083540402835291602001916122fa565b820191906000526020600020905b8154815290600101906020018083116122dd57829003601f168201915b5050855193945061231693600c9350602087019250905061385b565b507fc9c7c3fe08b88b4df9d4d47ef47d2c43d55c025a0ba88ca442580ed9e7348a168183604051612348929190614363565b60405180910390a15050565b6127108111156123985760405162461bcd60e51b815260206004820152600f60248201526e45786365656473206d61782062707360881b6044820152606401610baa565b6040805180820182526001600160a01b0384811680835260208084018681526000898152600f8352869020945185546001600160a01b031916941693909317845591516001909301929092559151838152909185917f7365cf4122f072a3365c20d54eff9b38d73c096c28e1892ec8f5b0e403a0f12d910160405180910390a3505050565b6060611ad0838360405180606001604052806027815260200161455960279139612c78565b604051630a85bd0160e11b81526000906001600160a01b0385169063150b7a0290612477903390899088908890600401614391565b6020604051808303816000875af19250505080156124b2575060408051601f3d908101601f191682019092526124af918101906143c3565b60015b61250d573d8080156124e0576040519150601f19603f3d011682016040523d82523d6000602084013e6124e5565b606091505b508051612505576040516368d2bf6b60e11b815260040160405180910390fd5b805181602001fd5b6001600160e01b031916630a85bd0160e11b149050610bc8565b60006001600160e01b03198216630271189760e51b1480610a0657506301ffc9a760e01b6001600160e01b0319831614610a06565b61171584848484612d55565b81806125a05760405162461bcd60e51b815260206004820152600760248201526621546f6b656e7360c81b6044820152606401610baa565b600082815260208190526040902054156125e85760405162461bcd60e51b815260206004820152600960248201526869642065786973747360b81b6044820152606401610baa565b60005b8181101561267a57612623858583818110612608576126086140e3565b90506080020180360381019061261e91906142ee565b612e8e565b848482818110612635576126356140e3565b600086815260208181526040808320878452600201909152902060809091029290920191905061266582826143e0565b50612673905060018261410f565b90506125eb565b50600091825260208290526040909120555050565b6000818152602081815260409091208351610b649260019092019185019061385b565b6000805b82518110156127845773eeeeeeeeeeeeeeeeeeeeeeeeeeeeeeeeeeeeeeee6001600160a01b03168382815181106126ef576126ef6140e3565b6020026020010151600001516001600160a01b031614801561271957506001600160a01b03841630145b1561274e57828181518110612730576127306140e3565b60200260200101516060015182612747919061410f565b9150612772565b6127728585858481518110612765576127656140e3565b60200260200101516131c0565b61277d60018261410f565b90506126b6565b508015611715576040805160808101825273eeeeeeeeeeeeeeeeeeeeeeeeeeeeeeeeeeeeeeee81526000602082018190529181019190915260608101829052611e148585836131c0565b6004546001600160a01b0384166127f757604051622e076360e81b815260040160405180910390fd5b826128155760405163b562e8dd60e01b815260040160405180910390fd5b612822600085838661255c565b6001600160a01b038416600081815260096020908152604080832080546fffffffffffffffffffffffffffffffff19811667ffffffffffffffff8083168b0181169182176801000000000000000067ffffffffffffffff1990941690921783900481168b01811690920217909155858452600890925290912080546001600160e01b0319168317600160a01b42909316929092029190911790558190818501903b1561294b575b60405182906001600160a01b038816906000907fddf252ad1be2c89b69c2b068fc378daa952ba7f163c4a11628f55a4df523b3ef908290a46129146000878480600101955087612442565b612931576040516368d2bf6b60e11b815260040160405180910390fd5b8082106128c957826004541461294657600080fd5b612990565b5b6040516001830192906001600160a01b038816906000907fddf252ad1be2c89b69c2b068fc378daa952ba7f163c4a11628f55a4df523b3ef908290a480821061294c575b50600455611715600085838684565b6000828152600360205260408120805491600191906129be838561410f565b9091555050600092835260036020908152604080852083865260018101835281862080546001600160a01b039096166001600160a01b03199096168617905593855260029093019052912055565b6000612a1783612069565b80519091508215612a7d576000336001600160a01b0383161480612a405750612a40823361091a565b80612a5b575033612a5086610a9e565b6001600160a01b0316145b905080612a7b57604051632ce44b5f60e11b815260040160405180910390fd5b505b612a8b81600086600161255c565b612a9760008583611b43565b6001600160a01b038082166000818152600960209081526040808320805470010000000000000000000000000000000060001967ffffffffffffffff80841691909101811667ffffffffffffffff19841681178390048216600190810183169093027fffffffffffffffff0000000000000000ffffffffffffffff0000000000000000909416179290921783558b86526008909452828520805460ff60e01b1942909316600160a01b026001600160e01b03199091169097179690961716600160e01b178555918901808452922080549194909116612bab576004548214612bab578054602087015167ffffffffffffffff16600160a01b026001600160e01b03199091166001600160a01b038716171781555b5050604051869250600091506001600160a01b038416907fddf252ad1be2c89b69c2b068fc378daa952ba7f163c4a11628f55a4df523b3ef908390a450506005805460010190555050565b60005b600082815260208190526040902054811015612c665760008281526020818152604080832084845260029081019092528220805474ffffffffffffffffffffffffffffffffffffffffff191681556001808201849055910191909155612c5f908261410f565b9050612bf9565b50600090815260208190526040812055565b60606001600160a01b0384163b612ce05760405162461bcd60e51b815260206004820152602660248201527f416464726573733a2064656c65676174652063616c6c20746f206e6f6e2d636f6044820152651b9d1c9858dd60d21b6064820152608401610baa565b600080856001600160a01b031685604051612cfb9190614479565b600060405180830381855af49150503d8060008114612d36576040519150601f19603f3d011682016040523d82523d6000602084013e612d3b565b606091505b5091509150612d4b828286613328565b9695505050505050565b600080527fb151427231bae116c8693b1238f4211d58160e513f6308308bda019a54cc1cf26020527fbd804545ead23efb7d5b28440b21730564c17471d735e89d80124f9d85f06ece5460ff16158015612db757506001600160a01b03841615155b8015612dcb57506001600160a01b03831615155b15611715576001600160a01b03841660009081527fb151427231bae116c8693b1238f4211d58160e513f6308308bda019a54cc1cf2602052604090205460ff16158015612e5057506001600160a01b03831660009081527fb151427231bae116c8693b1238f4211d58160e513f6308308bda019a54cc1cf2602052604090205460ff16155b156117155760405162461bcd60e51b815260206004820152600e60248201526d215452414e534645525f524f4c4560901b6044820152606401610baa565b600181602001516002811115612ea657612ea6613b68565b1415612f8a5780516040516301ffc9a760e01b81526380ac58cd60e01b60048201526001600160a01b03909116906301ffc9a7906024015b602060405180830381865afa925050508015612f17575060408051601f3d908101601f19168201909252612f1491810190614495565b60015b612f505760405162461bcd60e51b815260206004820152600a60248201526921546f6b656e5479706560b01b6044820152606401610baa565b80610ef95760405162461bcd60e51b815260206004820152600a60248201526921546f6b656e5479706560b01b6044820152606401610baa565b600281602001516002811115612fa257612fa2613b68565b1415612fde5780516040516301ffc9a760e01b8152636cdb3d1360e11b60048201526001600160a01b03909116906301ffc9a790602401612ede565b600081602001516002811115612ff657612ff6613b68565b1415610bbc5780516001600160a01b031673eeeeeeeeeeeeeeeeeeeeeeeeeeeeeeeeeeeeeeee14610bbc5780516040516301ffc9a760e01b81526380ac58cd60e01b60048201526001600160a01b03909116906301ffc9a790602401602060405180830381865afa92505050801561308b575060408051601f3d908101601f1916820190925261308891810190614495565b60015b6130b5576130976144b2565b806308c379a01415610ef957506130ac6144ce565b80610ef9575050565b80156130f05760405162461bcd60e51b815260206004820152600a60248201526921546f6b656e5479706560b01b6044820152606401610baa565b81516040516301ffc9a760e01b8152636cdb3d1360e11b60048201526001600160a01b03909116906301ffc9a790602401602060405180830381865afa92505050801561315a575060408051601f3d908101601f1916820190925261315791810190614495565b60015b613185576131666144b2565b806308c379a01415610b64575061317b6144ce565b80610b6457505050565b8015610b645760405162461bcd60e51b815260206004820152600a60248201526921546f6b656e5479706560b01b6044820152606401610baa565b6000816020015160028111156131d8576131d8613b68565b141561321357610b648160000151848484606001517f0000000000000000000000000000000000000000000000000000000000000000613361565b60018160200151600281111561322b5761322b613b68565b14156132a95780516040808301519051632142170760e11b81526001600160a01b038681166004830152858116602483015260448201929092529116906342842e0e906064015b600060405180830381600087803b15801561328c57600080fd5b505af11580156132a0573d6000803e3d6000fd5b50505050505050565b6002816020015160028111156132c1576132c1613b68565b1415610b6457805160408083015160608401519151637921219560e11b81526001600160a01b03878116600483015286811660248301526044820192909252606481019290925260a06084830152600060a48301529091169063f242432a9060c401613272565b60608315613337575081611ad0565b8251156133475782518084602001fd5b8160405162461bcd60e51b8152600401610baa919061397f565b8161336b57611e14565b6001600160a01b03851673eeeeeeeeeeeeeeeeeeeeeeeeeeeeeeeeeeeeeeee14156134cf576001600160a01b03841630141561340b57604051632e1a7d4d60e01b8152600481018390526001600160a01b03821690632e1a7d4d90602401600060405180830381600087803b1580156133e357600080fd5b505af11580156133f7573d6000803e3d6000fd5b505050506134068383836134db565b611e14565b6001600160a01b0383163014156134c45734821461346b5760405162461bcd60e51b815260206004820152601360248201527f6d73672e76616c756520213d20616d6f756e74000000000000000000000000006044820152606401610baa565b806001600160a01b031663d0e30db0836040518263ffffffff1660e01b81526004016000604051808303818588803b1580156134a657600080fd5b505af11580156134ba573d6000803e3d6000fd5b5050505050611e14565b6134068383836134db565b611e14858585856135a0565b6000836001600160a01b03168360405160006040518083038185875af1925050503d8060008114613528576040519150601f19603f3d011682016040523d82523d6000602084013e61352d565b606091505b505090508061171557816001600160a01b031663d0e30db0846040518263ffffffff1660e01b81526004016000604051808303818588803b15801561357157600080fd5b505af1158015613585573d6000803e3d6000fd5b50611715935050506001600160a01b038416905085856135fe565b816001600160a01b0316836001600160a01b031614156135bf57611715565b6001600160a01b0383163014156135e9576135e46001600160a01b03851683836135fe565b611715565b6117156001600160a01b038516848484613676565b6040516001600160a01b038316602482015260448101829052610b6490849063a9059cbb60e01b906064015b60408051601f198184030181529190526020810180517bffffffffffffffffffffffffffffffffffffffffffffffffffffffff166001600160e01b0319909316929092179091526136ae565b6040516001600160a01b03808516602483015283166044820152606481018290526117159085906323b872dd60e01b9060840161362a565b6000613703826040518060400160405280602081526020017f5361666545524332303a206c6f772d6c6576656c2063616c6c206661696c6564815250856001600160a01b03166137809092919063ffffffff16565b805190915015610b6457808060200190518101906137219190614495565b610b645760405162461bcd60e51b815260206004820152602a60248201527f5361666545524332303a204552433230206f7065726174696f6e20646964206e6044820152691bdd081cdd58d8d9595960b21b6064820152608401610baa565b6060610bc88484600085856001600160a01b0385163b6137e25760405162461bcd60e51b815260206004820152601d60248201527f416464726573733a2063616c6c20746f206e6f6e2d636f6e74726163740000006044820152606401610baa565b600080866001600160a01b031685876040516137fe9190614479565b60006040518083038185875af1925050503d806000811461383b576040519150601f19603f3d011682016040523d82523d6000602084013e613840565b606091505b5091509150613850828286613328565b979650505050505050565b828054613867906140ae565b90600052602060002090601f01602090048101928261388957600085556138cf565b82601f106138a257805160ff19168380011785556138cf565b828001600101855582156138cf579182015b828111156138cf5782518255916020019190600101906138b4565b506138db9291506138df565b5090565b5b808211156138db57600081556001016138e0565b6001600160e01b031981168114610bbc57600080fd5b60006020828403121561391c57600080fd5b8135611ad0816138f4565b60005b8381101561394257818101518382015260200161392a565b838111156117155750506000910152565b6000815180845261396b816020860160208601613927565b601f01601f19169290920160200192915050565b602081526000611ad06020830184613953565b6000602082840312156139a457600080fd5b5035919050565b6001600160a01b0381168114610bbc57600080fd5b80356139cb816139ab565b919050565b600080604083850312156139e357600080fd5b82356139ee816139ab565b946020939093013593505050565b600060208284031215613a0e57600080fd5b8135611ad0816139ab565b634e487b7160e01b600052604160045260246000fd5b601f8201601f1916810167ffffffffffffffff81118282101715613a5557613a55613a19565b6040525050565b600067ffffffffffffffff831115613a7657613a76613a19565b604051613a8d601f8501601f191660200182613a2f565b809150838152848484011115613aa257600080fd5b83836020830137600060208583010152509392505050565b600082601f830112613acb57600080fd5b611ad083833560208501613a5c565b60008060008060808587031215613af057600080fd5b8435613afb816139ab565b93506020850135613b0b816139ab565b925060408501359150606085013567ffffffffffffffff811115613b2e57600080fd5b613b3a87828801613aba565b91505092959194509250565b60008060408385031215613b5957600080fd5b50508035926020909101359150565b634e487b7160e01b600052602160045260246000fd5b60038110613b9c57634e487b7160e01b600052602160045260246000fd5b9052565b81516001600160a01b031681526020808301516080830191613bc490840182613b7e565b50604083015160408301526060830151606083015292915050565b600080600060608486031215613bf457600080fd5b8335613bff816139ab565b92506020840135613c0f816139ab565b929592945050506040919091013590565b60008083601f840112613c3257600080fd5b50813567ffffffffffffffff811115613c4a57600080fd5b602083019150836020828501011115613c6257600080fd5b9250929050565b600080600080600060608688031215613c8157600080fd5b853567ffffffffffffffff80821115613c9957600080fd5b818801915088601f830112613cad57600080fd5b813581811115613cbc57600080fd5b8960208260071b8501011115613cd157600080fd5b602092830197509550908701359080821115613cec57600080fd5b50613cf988828901613c20565b9094509250613d0c9050604087016139c0565b90509295509295909350565b60008060408385031215613d2b57600080fd5b823591506020830135613d3d816139ab565b809150509250929050565b8015158114610bbc57600080fd5b600060208284031215613d6857600080fd5b8135611ad081613d48565b600060208284031215613d8557600080fd5b813567ffffffffffffffff811115613d9c57600080fd5b8201601f81018413613dad57600080fd5b610bc884823560208401613a5c565b600080600060608486031215613dd157600080fd5b833592506020840135613c0f816139ab565b60008060408385031215613df657600080fd5b8235613e01816139ab565b91506020830135613d3d81613d48565b60008060208385031215613e2457600080fd5b823567ffffffffffffffff80821115613e3c57600080fd5b818501915085601f830112613e5057600080fd5b813581811115613e5f57600080fd5b8660208260051b8501011115613e7457600080fd5b60209290920196919550909350505050565b6000602080830181845280855180835260408601915060408160051b870101925083870160005b82811015613edb57603f19888603018452613ec9858351613953565b94509285019290850190600101613ead565b5092979650505050505050565b600082601f830112613ef957600080fd5b8135602067ffffffffffffffff821115613f1557613f15613a19565b8160051b604051613f2883830182613a2f565b92835284810182019282810187851115613f4157600080fd5b83870192505b84831015613f5e5782358152918301918301613f47565b509695505050505050565b600080600080600060a08688031215613f8157600080fd5b8535613f8c816139ab565b94506020860135613f9c816139ab565b9350604086013567ffffffffffffffff80821115613fb957600080fd5b613fc589838a01613ee8565b94506060880135915080821115613fdb57600080fd5b613fe789838a01613ee8565b93506080880135915080821115613ffd57600080fd5b5061400a88828901613aba565b9150509295509295909350565b6000806040838503121561402a57600080fd5b8235614035816139ab565b91506020830135613d3d816139ab565b600080600080600060a0868803121561405d57600080fd5b8535614068816139ab565b94506020860135614078816139ab565b93506040860135925060608601359150608086013567ffffffffffffffff8111156140a257600080fd5b61400a88828901613aba565b600181811c908216806140c257607f821691505b602082108114156117bb57634e487b7160e01b600052602260045260246000fd5b634e487b7160e01b600052603260045260246000fd5b634e487b7160e01b600052601160045260246000fd5b60008219821115614122576141226140f9565b500190565b60038110610bbc57600080fd5b6020808252818101839052600090604080840186845b878110156141a657813561415d816139ab565b6001600160a01b031683528185013561417581614127565b61418186850182613b7e565b508184013583850152606080830135908401526080928301929091019060010161414a565b5090979650505050505050565b60008160001904831182151516156141cd576141cd6140f9565b500290565b6000826141ef57634e487b7160e01b600052601260045260246000fd5b500490565b6000808335601e1984360301811261420b57600080fd5b83018035915067ffffffffffffffff82111561422657600080fd5b602001915036819003821315613c6257600080fd5b600060001982141561424f5761424f6140f9565b5060010190565b600081614265576142656140f9565b506000190190565b7f5065726d697373696f6e733a206163636f756e742000000000000000000000008152600083516142a5816015850160208801613927565b7f206973206d697373696e6720726f6c652000000000000000000000000000000060159184019182015283516142e2816026840160208801613927565b01602601949350505050565b60006080828403121561430057600080fd5b6040516080810181811067ffffffffffffffff8211171561432357614323613a19565b6040528235614331816139ab565b8152602083013561434181614127565b6020820152604083810135908201526060928301359281019290925250919050565b6040815260006143766040830185613953565b82810360208401526143888185613953565b95945050505050565b60006001600160a01b03808716835280861660208401525083604083015260806060830152612d4b6080830184613953565b6000602082840312156143d557600080fd5b8151611ad0816138f4565b81356143eb816139ab565b6001600160a01b03811690508154816001600160a01b03198216178355602084013561441681614127565b6003811061443457634e487b7160e01b600052602160045260246000fd5b74ffffffffffffffffffffffffffffffffffffffffff199190911690911760a09190911b60ff60a01b1617815560408201356001820155606090910135600290910155565b6000825161448b818460208701613927565b9190910192915050565b6000602082840312156144a757600080fd5b8151611ad081613d48565b600060033d11156144cb5760046000803e5060005160e01c5b90565b600060443d10156144dc5790565b6040516003193d81016004833e81513d67ffffffffffffffff816024840111818411171561450c57505050505090565b82850191508151818111156145245750505050505090565b843d870101602082850101111561453e5750505050505090565b61454d60208286010187613a2f565b50909594505050505056fe416464726573733a206c6f772d6c6576656c2064656c65676174652063616c6c206661696c6564a26469706673582212206330ff3e9af1b8e3f56e9a06ef95196d9452ea3635fa0e71deedd1a6af5ab86c64736f6c634300080c00338502233096d909befbda0999bb8ea2f3a6be3c138b9fbf003752a4c8bce86f6c",
  "linkReferences": {},
  "deployedLinkReferences": {}
}