{
  "_format": "hh-sol-artifact-1",
  "contractName": "Mock",
  "sourceName": "contracts/mock/Mock.sol",
  "abi": [
    {
      "inputs": [],
      "name": "erc1155",
      "outputs": [
        {
          "internalType": "contract IERC1155",
          "name": "",
          "type": "address"
        }
      ],
      "stateMutability": "view",
      "type": "function"
    },
    {
      "inputs": [],
      "name": "erc20",
      "outputs": [
        {
          "internalType": "contract IERC20",
          "name": "",
          "type": "address"
        }
      ],
      "stateMutability": "view",
      "type": "function"
    },
    {
      "inputs": [],
      "name": "erc721",
      "outputs": [
        {
          "internalType": "contract IERC721",
          "name": "",
          "type": "address"
        }
      ],
      "stateMutability": "view",
      "type": "function"
    }
  ],
  "bytecode": "0x608060405234801561001057600080fd5b5060c98061001f6000396000f3fe6080604052348015600f57600080fd5b5060043610603c5760003560e01c8063785e9e86146041578063bca6ce6414606f578063d56022d7146081575b600080fd5b6000546053906001600160a01b031681565b6040516001600160a01b03909116815260200160405180910390f35b6001546053906001600160a01b031681565b6002546053906001600160a01b03168156fea26469706673582212208775e943b51c8a1f0e9e586e5983d9495dfe03f7ede13c55445aa8cf674c983064736f6c634300080c0033",
  "linkReferences": {},
  "deployedLinkReferences": {}
}