{
  "_format": "hh-sol-artifact-1",
  "contractName": "MockContractPublisher",
  "sourceName": "contracts/mock/MockContractPublisher.sol",
  "abi": [
    {
      "anonymous": false,
      "inputs": [
        {
          "indexed": true,
          "internalType": "address",
          "name": "operator",
          "type": "address"
        },
        {
          "indexed": true,
          "internalType": "address",
          "name": "publisher",
          "type": "address"
        },
        {
          "components": [
            {
              "internalType": "string",
              "name": "contractId",
              "type": "string"
            },
            {
              "internalType": "uint256",
              "name": "publishTimestamp",
              "type": "uint256"
            },
            {
              "internalType": "string",
              "name": "publishMetadataUri",
              "type": "string"
            },
            {
              "internalType": "bytes32",
              "name": "bytecodeHash",
              "type": "bytes32"
            },
            {
              "internalType": "address",
              "name": "implementation",
              "type": "address"
            }
          ],
          "indexed": false,
          "internalType": "struct IContractPublisher.CustomContractInstance",
          "name": "publishedContract",
          "type": "tuple"
        }
      ],
      "name": "ContractPublished",
      "type": "event"
    },
    {
      "anonymous": false,
      "inputs": [
        {
          "indexed": true,
          "internalType": "address",
          "name": "operator",
          "type": "address"
        },
        {
          "indexed": true,
          "internalType": "address",
          "name": "publisher",
          "type": "address"
        },
        {
          "indexed": true,
          "internalType": "string",
          "name": "contractId",
          "type": "string"
        }
      ],
      "name": "ContractUnpublished",
      "type": "event"
    },
    {
      "anonymous": false,
      "inputs": [
        {
          "indexed": false,
          "internalType": "bool",
          "name": "isPaused",
          "type": "bool"
        }
      ],
      "name": "Paused",
      "type": "event"
    },
    {
      "anonymous": false,
      "inputs": [
        {
          "indexed": true,
          "internalType": "address",
          "name": "publisher",
          "type": "address"
        },
        {
          "indexed": false,
          "internalType": "string",
          "name": "prevURI",
          "type": "string"
        },
        {
          "indexed": false,
          "internalType": "string",
          "name": "newURI",
          "type": "string"
        }
      ],
      "name": "PublisherProfileUpdated",
      "type": "event"
    },
    {
      "inputs": [
        {
          "internalType": "address",
          "name": "",
          "type": "address"
        }
      ],
      "name": "getAllPublishedContracts",
      "outputs": [
        {
          "components": [
            {
              "internalType": "string",
              "name": "contractId",
              "type": "string"
            },
            {
              "internalType": "uint256",
              "name": "publishTimestamp",
              "type": "uint256"
            },
            {
              "internalType": "string",
              "name": "publishMetadataUri",
              "type": "string"
            },
            {
              "internalType": "bytes32",
              "name": "bytecodeHash",
              "type": "bytes32"
            },
            {
              "internalType": "address",
              "name": "implementation",
              "type": "address"
            }
          ],
          "internalType": "struct IContractPublisher.CustomContractInstance[]",
          "name": "published",
          "type": "tuple[]"
        }
      ],
      "stateMutability": "pure",
      "type": "function"
    },
    {
      "inputs": [
        {
          "internalType": "address",
          "name": "",
          "type": "address"
        },
        {
          "internalType": "string",
          "name": "",
          "type": "string"
        }
      ],
      "name": "getPublishedContract",
      "outputs": [
        {
          "components": [
            {
              "internalType": "string",
              "name": "contractId",
              "type": "string"
            },
            {
              "internalType": "uint256",
              "name": "publishTimestamp",
              "type": "uint256"
            },
            {
              "internalType": "string",
              "name": "publishMetadataUri",
              "type": "string"
            },
            {
              "internalType": "bytes32",
              "name": "bytecodeHash",
              "type": "bytes32"
            },
            {
              "internalType": "address",
              "name": "implementation",
              "type": "address"
            }
          ],
          "internalType": "struct IContractPublisher.CustomContractInstance",
          "name": "published",
          "type": "tuple"
        }
      ],
      "stateMutability": "pure",
      "type": "function"
    },
    {
      "inputs": [
        {
          "internalType": "address",
          "name": "",
          "type": "address"
        },
        {
          "internalType": "string",
          "name": "",
          "type": "string"
        }
      ],
      "name": "getPublishedContractVersions",
      "outputs": [
        {
          "components": [
            {
              "internalType": "string",
              "name": "contractId",
              "type": "string"
            },
            {
              "internalType": "uint256",
              "name": "publishTimestamp",
              "type": "uint256"
            },
            {
              "internalType": "string",
              "name": "publishMetadataUri",
              "type": "string"
            },
            {
              "internalType": "bytes32",
              "name": "bytecodeHash",
              "type": "bytes32"
            },
            {
              "internalType": "address",
              "name": "implementation",
              "type": "address"
            }
          ],
          "internalType": "struct IContractPublisher.CustomContractInstance[]",
          "name": "published",
          "type": "tuple[]"
        }
      ],
      "stateMutability": "pure",
      "type": "function"
    },
    {
      "inputs": [
        {
          "internalType": "string",
          "name": "",
          "type": "string"
        }
      ],
      "name": "getPublishedUriFromCompilerUri",
      "outputs": [
        {
          "internalType": "string[]",
          "name": "publishedMetadataUris",
          "type": "string[]"
        }
      ],
      "stateMutability": "pure",
      "type": "function"
    },
    {
      "inputs": [
        {
          "internalType": "address",
          "name": "",
          "type": "address"
        }
      ],
      "name": "getPublisherProfileUri",
      "outputs": [
        {
          "internalType": "string",
          "name": "uri",
          "type": "string"
        }
      ],
      "stateMutability": "pure",
      "type": "function"
    },
    {
      "inputs": [
        {
          "internalType": "address",
          "name": "publisher",
          "type": "address"
        },
        {
          "internalType": "string",
          "name": "contractId",
          "type": "string"
        },
        {
          "internalType": "string",
          "name": "publishMetadataUri",
          "type": "string"
        },
        {
          "internalType": "string",
          "name": "compilerMetadataUri",
          "type": "string"
        },
        {
          "internalType": "bytes32",
          "name": "bytecodeHash",
          "type": "bytes32"
        },
        {
          "internalType": "address",
          "name": "implementation",
          "type": "address"
        }
      ],
      "name": "publishContract",
      "outputs": [],
      "stateMutability": "nonpayable",
      "type": "function"
    },
    {
      "inputs": [
        {
          "internalType": "address",
          "name": "",
          "type": "address"
        },
        {
          "internalType": "string",
          "name": "",
          "type": "string"
        }
      ],
      "name": "setPublisherProfileUri",
      "outputs": [],
      "stateMutability": "nonpayable",
      "type": "function"
    },
    {
      "inputs": [
        {
          "internalType": "address",
          "name": "publisher",
          "type": "address"
        },
        {
          "internalType": "string",
          "name": "contractId",
          "type": "string"
        }
      ],
      "name": "unpublishContract",
      "outputs": [],
      "stateMutability": "nonpayable",
      "type": "function"
    }
  ],
  "bytecode": "0x608060405234801561001057600080fd5b50610742806100206000396000f3fe608060405234801561001057600080fd5b50600436106100885760003560e01c806380251dac1161005b57806380251dac14610159578063819e992f14610179578063af8db69014610199578063d50299e6146101ac57600080fd5b806306eb56cc1461008d5780634f781675146100a15780636e578e541461008d5780637ec047fa146100d8575b600080fd5b61009f61009b36600461040b565b5050565b005b6100c26100af366004610459565b5060408051602081019091526000815290565b6040516100cf91906104c8565b60405180910390f35b61014c6100e636600461040b565b50506040805160a080820183526060808352600060208085018290528486018390528285018290526080948501829052855160c0810187529384018281528452838101829052855190810186528181529483019490945281018390529081019190915290565b6040516100cf919061053d565b61016c61016736600461040b565b6101c2565b6040516100cf9190610550565b61018c6101873660046105b2565b61021e565b6040516100cf91906105ef565b61016c6101a7366004610459565b610252565b61009f6101ba366004610644565b505050505050565b60408051600080825260208201909252606091610216565b6040805160a081018252606080825260006020808401829052938301829052908201819052608082015282526000199092019101816101da5790505b509392505050565b6040805160008082526020820190925260609161024b565b60608152602001906001900390816102365790505b5092915050565b60408051600180825281830190925260609160009190816020015b6040805160a0810182526060808252600060208084018290529383018290529082018190526080820152825260001990920191018161026d5790505090506040518060a001604052806040518060400160405280600c81526020016b135bd8dad0dbdb9d1c9858dd60a21b8152508152602001607b81526020016040518060400160405280600b81526020016a697066733a2f2f6d6f636b60a81b8152508152602001600160001b815260200160006001600160a01b03168152508160008151811061033b5761033b6106f6565b602090810291909101015292915050565b80356001600160a01b038116811461036357600080fd5b919050565b634e487b7160e01b600052604160045260246000fd5b600082601f83011261038f57600080fd5b813567ffffffffffffffff808211156103aa576103aa610368565b604051601f8301601f19908116603f011681019082821181831017156103d2576103d2610368565b816040528381528660208588010111156103eb57600080fd5b836020870160208301376000602085830101528094505050505092915050565b6000806040838503121561041e57600080fd5b6104278361034c565b9150602083013567ffffffffffffffff81111561044357600080fd5b61044f8582860161037e565b9150509250929050565b60006020828403121561046b57600080fd5b6104748261034c565b9392505050565b6000815180845260005b818110156104a157602081850181015186830182015201610485565b818111156104b3576000602083870101525b50601f01601f19169290920160200192915050565b602081526000610474602083018461047b565b6000815160a084526104f060a085018261047b565b90506020830151602085015260408301518482036040860152610513828261047b565b915050606083015160608501526001600160a01b0360808401511660808501528091505092915050565b60208152600061047460208301846104db565b6000602080830181845280855180835260408601915060408160051b870101925083870160005b828110156105a557603f198886030184526105938583516104db565b94509285019290850190600101610577565b5092979650505050505050565b6000602082840312156105c457600080fd5b813567ffffffffffffffff8111156105db57600080fd5b6105e78482850161037e565b949350505050565b6000602080830181845280855180835260408601915060408160051b870101925083870160005b828110156105a557603f1988860301845261063285835161047b565b94509285019290850190600101610616565b60008060008060008060c0878903121561065d57600080fd5b6106668761034c565b9550602087013567ffffffffffffffff8082111561068357600080fd5b61068f8a838b0161037e565b965060408901359150808211156106a557600080fd5b6106b18a838b0161037e565b955060608901359150808211156106c757600080fd5b506106d489828a0161037e565b935050608087013591506106ea60a0880161034c565b90509295509295509295565b634e487b7160e01b600052603260045260246000fdfea26469706673582212203f245a233b4804074fe633ff88800154178c3cc9bbf98ac8c64e5ac025ae8ed664736f6c634300080c0033",
  "linkReferences": {},
  "deployedLinkReferences": {}
}