{
  "_format": "hh-sol-artifact-1",
  "contractName": "Multiwrap",
  "sourceName": "contracts/multiwrap/Multiwrap.sol",
  "abi": [
    {
      "inputs": [
        {
          "internalType": "address",
          "name": "_nativeTokenWrapper",
          "type": "address"
        }
      ],
      "stateMutability": "nonpayable",
      "type": "constructor"
    },
    {
      "anonymous": false,
      "inputs": [
        {
          "indexed": true,
          "internalType": "address",
          "name": "owner",
          "type": "address"
        },
        {
          "indexed": true,
          "internalType": "address",
          "name": "approved",
          "type": "address"
        },
        {
          "indexed": true,
          "internalType": "uint256",
          "name": "tokenId",
          "type": "uint256"
        }
      ],
      "name": "Approval",
      "type": "event"
    },
    {
      "anonymous": false,
      "inputs": [
        {
          "indexed": true,
          "internalType": "address",
          "name": "owner",
          "type": "address"
        },
        {
          "indexed": true,
          "internalType": "address",
          "name": "operator",
          "type": "address"
        },
        {
          "indexed": false,
          "internalType": "bool",
          "name": "approved",
          "type": "bool"
        }
      ],
      "name": "ApprovalForAll",
      "type": "event"
    },
    {
      "anonymous": false,
      "inputs": [
        {
          "indexed": false,
          "internalType": "string",
          "name": "prevURI",
          "type": "string"
        },
        {
          "indexed": false,
          "internalType": "string",
          "name": "newURI",
          "type": "string"
        }
      ],
      "name": "ContractURIUpdated",
      "type": "event"
    },
    {
      "anonymous": false,
      "inputs": [
        {
          "indexed": true,
          "internalType": "address",
          "name": "newRoyaltyRecipient",
          "type": "address"
        },
        {
          "indexed": false,
          "internalType": "uint256",
          "name": "newRoyaltyBps",
          "type": "uint256"
        }
      ],
      "name": "DefaultRoyalty",
      "type": "event"
    },
    {
      "anonymous": false,
      "inputs": [
        {
          "indexed": false,
          "internalType": "uint8",
          "name": "version",
          "type": "uint8"
        }
      ],
      "name": "Initialized",
      "type": "event"
    },
    {
      "anonymous": false,
      "inputs": [
        {
          "indexed": true,
          "internalType": "address",
          "name": "prevOwner",
          "type": "address"
        },
        {
          "indexed": true,
          "internalType": "address",
          "name": "newOwner",
          "type": "address"
        }
      ],
      "name": "OwnerUpdated",
      "type": "event"
    },
    {
      "anonymous": false,
      "inputs": [
        {
          "indexed": true,
          "internalType": "bytes32",
          "name": "role",
          "type": "bytes32"
        },
        {
          "indexed": true,
          "internalType": "bytes32",
          "name": "previousAdminRole",
          "type": "bytes32"
        },
        {
          "indexed": true,
          "internalType": "bytes32",
          "name": "newAdminRole",
          "type": "bytes32"
        }
      ],
      "name": "RoleAdminChanged",
      "type": "event"
    },
    {
      "anonymous": false,
      "inputs": [
        {
          "indexed": true,
          "internalType": "bytes32",
          "name": "role",
          "type": "bytes32"
        },
        {
          "indexed": true,
          "internalType": "address",
          "name": "account",
          "type": "address"
        },
        {
          "indexed": true,
          "internalType": "address",
          "name": "sender",
          "type": "address"
        }
      ],
      "name": "RoleGranted",
      "type": "event"
    },
    {
      "anonymous": false,
      "inputs": [
        {
          "indexed": true,
          "internalType": "bytes32",
          "name": "role",
          "type": "bytes32"
        },
        {
          "indexed": true,
          "internalType": "address",
          "name": "account",
          "type": "address"
        },
        {
          "indexed": true,
          "internalType": "address",
          "name": "sender",
          "type": "address"
        }
      ],
      "name": "RoleRevoked",
      "type": "event"
    },
    {
      "anonymous": false,
      "inputs": [
        {
          "indexed": true,
          "internalType": "uint256",
          "name": "tokenId",
          "type": "uint256"
        },
        {
          "indexed": true,
          "internalType": "address",
          "name": "royaltyRecipient",
          "type": "address"
        },
        {
          "indexed": false,
          "internalType": "uint256",
          "name": "royaltyBps",
          "type": "uint256"
        }
      ],
      "name": "RoyaltyForToken",
      "type": "event"
    },
    {
      "anonymous": false,
      "inputs": [
        {
          "indexed": true,
          "internalType": "address",
          "name": "unwrapper",
          "type": "address"
        },
        {
          "indexed": true,
          "internalType": "address",
          "name": "recipientOfWrappedContents",
          "type": "address"
        },
        {
          "indexed": true,
          "internalType": "uint256",
          "name": "tokenIdOfWrappedToken",
          "type": "uint256"
        }
      ],
      "name": "TokensUnwrapped",
      "type": "event"
    },
    {
      "anonymous": false,
      "inputs": [
        {
          "indexed": true,
          "internalType": "address",
          "name": "wrapper",
          "type": "address"
        },
        {
          "indexed": true,
          "internalType": "address",
          "name": "recipientOfWrappedToken",
          "type": "address"
        },
        {
          "indexed": true,
          "internalType": "uint256",
          "name": "tokenIdOfWrappedToken",
          "type": "uint256"
        },
        {
          "components": [
            {
              "internalType": "address",
              "name": "assetContract",
              "type": "address"
            },
            {
              "internalType": "enum ITokenBundle.TokenType",
              "name": "tokenType",
              "type": "uint8"
            },
            {
              "internalType": "uint256",
              "name": "tokenId",
              "type": "uint256"
            },
            {
              "internalType": "uint256",
              "name": "totalAmount",
              "type": "uint256"
            }
          ],
          "indexed": false,
          "internalType": "struct ITokenBundle.Token[]",
          "name": "wrappedContents",
          "type": "tuple[]"
        }
      ],
      "name": "TokensWrapped",
      "type": "event"
    },
    {
      "anonymous": false,
      "inputs": [
        {
          "indexed": true,
          "internalType": "address",
          "name": "from",
          "type": "address"
        },
        {
          "indexed": true,
          "internalType": "address",
          "name": "to",
          "type": "address"
        },
        {
          "indexed": true,
          "internalType": "uint256",
          "name": "tokenId",
          "type": "uint256"
        }
      ],
      "name": "Transfer",
      "type": "event"
    },
    {
      "inputs": [],
      "name": "DEFAULT_ADMIN_ROLE",
      "outputs": [
        {
          "internalType": "bytes32",
          "name": "",
          "type": "bytes32"
        }
      ],
      "stateMutability": "view",
      "type": "function"
    },
    {
      "inputs": [
        {
          "internalType": "address",
          "name": "to",
          "type": "address"
        },
        {
          "internalType": "uint256",
          "name": "tokenId",
          "type": "uint256"
        }
      ],
      "name": "approve",
      "outputs": [],
      "stateMutability": "nonpayable",
      "type": "function"
    },
    {
      "inputs": [
        {
          "internalType": "address",
          "name": "owner",
          "type": "address"
        }
      ],
      "name": "balanceOf",
      "outputs": [
        {
          "internalType": "uint256",
          "name": "",
          "type": "uint256"
        }
      ],
      "stateMutability": "view",
      "type": "function"
    },
    {
      "inputs": [],
      "name": "contractType",
      "outputs": [
        {
          "internalType": "bytes32",
          "name": "",
          "type": "bytes32"
        }
      ],
      "stateMutability": "pure",
      "type": "function"
    },
    {
      "inputs": [],
      "name": "contractURI",
      "outputs": [
        {
          "internalType": "string",
          "name": "",
          "type": "string"
        }
      ],
      "stateMutability": "view",
      "type": "function"
    },
    {
      "inputs": [],
      "name": "contractVersion",
      "outputs": [
        {
          "internalType": "uint8",
          "name": "",
          "type": "uint8"
        }
      ],
      "stateMutability": "pure",
      "type": "function"
    },
    {
      "inputs": [
        {
          "internalType": "uint256",
          "name": "tokenId",
          "type": "uint256"
        }
      ],
      "name": "getApproved",
      "outputs": [
        {
          "internalType": "address",
          "name": "",
          "type": "address"
        }
      ],
      "stateMutability": "view",
      "type": "function"
    },
    {
      "inputs": [],
      "name": "getDefaultRoyaltyInfo",
      "outputs": [
        {
          "internalType": "address",
          "name": "",
          "type": "address"
        },
        {
          "internalType": "uint16",
          "name": "",
          "type": "uint16"
        }
      ],
      "stateMutability": "view",
      "type": "function"
    },
    {
      "inputs": [
        {
          "internalType": "bytes32",
          "name": "role",
          "type": "bytes32"
        }
      ],
      "name": "getRoleAdmin",
      "outputs": [
        {
          "internalType": "bytes32",
          "name": "",
          "type": "bytes32"
        }
      ],
      "stateMutability": "view",
      "type": "function"
    },
    {
      "inputs": [
        {
          "internalType": "bytes32",
          "name": "role",
          "type": "bytes32"
        },
        {
          "internalType": "uint256",
          "name": "index",
          "type": "uint256"
        }
      ],
      "name": "getRoleMember",
      "outputs": [
        {
          "internalType": "address",
          "name": "member",
          "type": "address"
        }
      ],
      "stateMutability": "view",
      "type": "function"
    },
    {
      "inputs": [
        {
          "internalType": "bytes32",
          "name": "role",
          "type": "bytes32"
        }
      ],
      "name": "getRoleMemberCount",
      "outputs": [
        {
          "internalType": "uint256",
          "name": "count",
          "type": "uint256"
        }
      ],
      "stateMutability": "view",
      "type": "function"
    },
    {
      "inputs": [
        {
          "internalType": "uint256",
          "name": "_tokenId",
          "type": "uint256"
        }
      ],
      "name": "getRoyaltyInfoForToken",
      "outputs": [
        {
          "internalType": "address",
          "name": "",
          "type": "address"
        },
        {
          "internalType": "uint16",
          "name": "",
          "type": "uint16"
        }
      ],
      "stateMutability": "view",
      "type": "function"
    },
    {
      "inputs": [
        {
          "internalType": "uint256",
          "name": "_bundleId",
          "type": "uint256"
        }
      ],
      "name": "getTokenCountOfBundle",
      "outputs": [
        {
          "internalType": "uint256",
          "name": "",
          "type": "uint256"
        }
      ],
      "stateMutability": "view",
      "type": "function"
    },
    {
      "inputs": [
        {
          "internalType": "uint256",
          "name": "_bundleId",
          "type": "uint256"
        },
        {
          "internalType": "uint256",
          "name": "index",
          "type": "uint256"
        }
      ],
      "name": "getTokenOfBundle",
      "outputs": [
        {
          "components": [
            {
              "internalType": "address",
              "name": "assetContract",
              "type": "address"
            },
            {
              "internalType": "enum ITokenBundle.TokenType",
              "name": "tokenType",
              "type": "uint8"
            },
            {
              "internalType": "uint256",
              "name": "tokenId",
              "type": "uint256"
            },
            {
              "internalType": "uint256",
              "name": "totalAmount",
              "type": "uint256"
            }
          ],
          "internalType": "struct ITokenBundle.Token",
          "name": "",
          "type": "tuple"
        }
      ],
      "stateMutability": "view",
      "type": "function"
    },
    {
      "inputs": [
        {
          "internalType": "uint256",
          "name": "_bundleId",
          "type": "uint256"
        }
      ],
      "name": "getUriOfBundle",
      "outputs": [
        {
          "internalType": "string",
          "name": "",
          "type": "string"
        }
      ],
      "stateMutability": "view",
      "type": "function"
    },
    {
      "inputs": [
        {
          "internalType": "uint256",
          "name": "_tokenId",
          "type": "uint256"
        }
      ],
      "name": "getWrappedContents",
      "outputs": [
        {
          "components": [
            {
              "internalType": "address",
              "name": "assetContract",
              "type": "address"
            },
            {
              "internalType": "enum ITokenBundle.TokenType",
              "name": "tokenType",
              "type": "uint8"
            },
            {
              "internalType": "uint256",
              "name": "tokenId",
              "type": "uint256"
            },
            {
              "internalType": "uint256",
              "name": "totalAmount",
              "type": "uint256"
            }
          ],
          "internalType": "struct ITokenBundle.Token[]",
          "name": "contents",
          "type": "tuple[]"
        }
      ],
      "stateMutability": "view",
      "type": "function"
    },
    {
      "inputs": [
        {
          "internalType": "bytes32",
          "name": "role",
          "type": "bytes32"
        },
        {
          "internalType": "address",
          "name": "account",
          "type": "address"
        }
      ],
      "name": "grantRole",
      "outputs": [],
      "stateMutability": "nonpayable",
      "type": "function"
    },
    {
      "inputs": [
        {
          "internalType": "bytes32",
          "name": "role",
          "type": "bytes32"
        },
        {
          "internalType": "address",
          "name": "account",
          "type": "address"
        }
      ],
      "name": "hasRole",
      "outputs": [
        {
          "internalType": "bool",
          "name": "",
          "type": "bool"
        }
      ],
      "stateMutability": "view",
      "type": "function"
    },
    {
      "inputs": [
        {
          "internalType": "bytes32",
          "name": "role",
          "type": "bytes32"
        },
        {
          "internalType": "address",
          "name": "account",
          "type": "address"
        }
      ],
      "name": "hasRoleWithSwitch",
      "outputs": [
        {
          "internalType": "bool",
          "name": "",
          "type": "bool"
        }
      ],
      "stateMutability": "view",
      "type": "function"
    },
    {
      "inputs": [
        {
          "internalType": "address",
          "name": "_defaultAdmin",
          "type": "address"
        },
        {
          "internalType": "string",
          "name": "_name",
          "type": "string"
        },
        {
          "internalType": "string",
          "name": "_symbol",
          "type": "string"
        },
        {
          "internalType": "string",
          "name": "_contractURI",
          "type": "string"
        },
        {
          "internalType": "address[]",
          "name": "_trustedForwarders",
          "type": "address[]"
        },
        {
          "internalType": "address",
          "name": "_royaltyRecipient",
          "type": "address"
        },
        {
          "internalType": "uint256",
          "name": "_royaltyBps",
          "type": "uint256"
        }
      ],
      "name": "initialize",
      "outputs": [],
      "stateMutability": "nonpayable",
      "type": "function"
    },
    {
      "inputs": [
        {
          "internalType": "address",
          "name": "owner",
          "type": "address"
        },
        {
          "internalType": "address",
          "name": "operator",
          "type": "address"
        }
      ],
      "name": "isApprovedForAll",
      "outputs": [
        {
          "internalType": "bool",
          "name": "",
          "type": "bool"
        }
      ],
      "stateMutability": "view",
      "type": "function"
    },
    {
      "inputs": [
        {
          "internalType": "address",
          "name": "forwarder",
          "type": "address"
        }
      ],
      "name": "isTrustedForwarder",
      "outputs": [
        {
          "internalType": "bool",
          "name": "",
          "type": "bool"
        }
      ],
      "stateMutability": "view",
      "type": "function"
    },
    {
      "inputs": [
        {
          "internalType": "bytes[]",
          "name": "data",
          "type": "bytes[]"
        }
      ],
      "name": "multicall",
      "outputs": [
        {
          "internalType": "bytes[]",
          "name": "results",
          "type": "bytes[]"
        }
      ],
      "stateMutability": "nonpayable",
      "type": "function"
    },
    {
      "inputs": [],
      "name": "name",
      "outputs": [
        {
          "internalType": "string",
          "name": "",
          "type": "string"
        }
      ],
      "stateMutability": "view",
      "type": "function"
    },
    {
      "inputs": [],
      "name": "nextTokenIdToMint",
      "outputs": [
        {
          "internalType": "uint256",
          "name": "",
          "type": "uint256"
        }
      ],
      "stateMutability": "view",
      "type": "function"
    },
    {
      "inputs": [
        {
          "internalType": "address",
          "name": "",
          "type": "address"
        },
        {
          "internalType": "address",
          "name": "",
          "type": "address"
        },
        {
          "internalType": "uint256[]",
          "name": "",
          "type": "uint256[]"
        },
        {
          "internalType": "uint256[]",
          "name": "",
          "type": "uint256[]"
        },
        {
          "internalType": "bytes",
          "name": "",
          "type": "bytes"
        }
      ],
      "name": "onERC1155BatchReceived",
      "outputs": [
        {
          "internalType": "bytes4",
          "name": "",
          "type": "bytes4"
        }
      ],
      "stateMutability": "nonpayable",
      "type": "function"
    },
    {
      "inputs": [
        {
          "internalType": "address",
          "name": "",
          "type": "address"
        },
        {
          "internalType": "address",
          "name": "",
          "type": "address"
        },
        {
          "internalType": "uint256",
          "name": "",
          "type": "uint256"
        },
        {
          "internalType": "uint256",
          "name": "",
          "type": "uint256"
        },
        {
          "internalType": "bytes",
          "name": "",
          "type": "bytes"
        }
      ],
      "name": "onERC1155Received",
      "outputs": [
        {
          "internalType": "bytes4",
          "name": "",
          "type": "bytes4"
        }
      ],
      "stateMutability": "nonpayable",
      "type": "function"
    },
    {
      "inputs": [
        {
          "internalType": "address",
          "name": "",
          "type": "address"
        },
        {
          "internalType": "address",
          "name": "",
          "type": "address"
        },
        {
          "internalType": "uint256",
          "name": "",
          "type": "uint256"
        },
        {
          "internalType": "bytes",
          "name": "",
          "type": "bytes"
        }
      ],
      "name": "onERC721Received",
      "outputs": [
        {
          "internalType": "bytes4",
          "name": "",
          "type": "bytes4"
        }
      ],
      "stateMutability": "nonpayable",
      "type": "function"
    },
    {
      "inputs": [],
      "name": "owner",
      "outputs": [
        {
          "internalType": "address",
          "name": "",
          "type": "address"
        }
      ],
      "stateMutability": "view",
      "type": "function"
    },
    {
      "inputs": [
        {
          "internalType": "uint256",
          "name": "tokenId",
          "type": "uint256"
        }
      ],
      "name": "ownerOf",
      "outputs": [
        {
          "internalType": "address",
          "name": "",
          "type": "address"
        }
      ],
      "stateMutability": "view",
      "type": "function"
    },
    {
      "inputs": [
        {
          "internalType": "bytes32",
          "name": "role",
          "type": "bytes32"
        },
        {
          "internalType": "address",
          "name": "account",
          "type": "address"
        }
      ],
      "name": "renounceRole",
      "outputs": [],
      "stateMutability": "nonpayable",
      "type": "function"
    },
    {
      "inputs": [
        {
          "internalType": "bytes32",
          "name": "role",
          "type": "bytes32"
        },
        {
          "internalType": "address",
          "name": "account",
          "type": "address"
        }
      ],
      "name": "revokeRole",
      "outputs": [],
      "stateMutability": "nonpayable",
      "type": "function"
    },
    {
      "inputs": [
        {
          "internalType": "uint256",
          "name": "tokenId",
          "type": "uint256"
        },
        {
          "internalType": "uint256",
          "name": "salePrice",
          "type": "uint256"
        }
      ],
      "name": "royaltyInfo",
      "outputs": [
        {
          "internalType": "address",
          "name": "receiver",
          "type": "address"
        },
        {
          "internalType": "uint256",
          "name": "royaltyAmount",
          "type": "uint256"
        }
      ],
      "stateMutability": "view",
      "type": "function"
    },
    {
      "inputs": [
        {
          "internalType": "address",
          "name": "from",
          "type": "address"
        },
        {
          "internalType": "address",
          "name": "to",
          "type": "address"
        },
        {
          "internalType": "uint256",
          "name": "tokenId",
          "type": "uint256"
        }
      ],
      "name": "safeTransferFrom",
      "outputs": [],
      "stateMutability": "nonpayable",
      "type": "function"
    },
    {
      "inputs": [
        {
          "internalType": "address",
          "name": "from",
          "type": "address"
        },
        {
          "internalType": "address",
          "name": "to",
          "type": "address"
        },
        {
          "internalType": "uint256",
          "name": "tokenId",
          "type": "uint256"
        },
        {
          "internalType": "bytes",
          "name": "data",
          "type": "bytes"
        }
      ],
      "name": "safeTransferFrom",
      "outputs": [],
      "stateMutability": "nonpayable",
      "type": "function"
    },
    {
      "inputs": [
        {
          "internalType": "address",
          "name": "operator",
          "type": "address"
        },
        {
          "internalType": "bool",
          "name": "approved",
          "type": "bool"
        }
      ],
      "name": "setApprovalForAll",
      "outputs": [],
      "stateMutability": "nonpayable",
      "type": "function"
    },
    {
      "inputs": [
        {
          "internalType": "string",
          "name": "_uri",
          "type": "string"
        }
      ],
      "name": "setContractURI",
      "outputs": [],
      "stateMutability": "nonpayable",
      "type": "function"
    },
    {
      "inputs": [
        {
          "internalType": "address",
          "name": "_royaltyRecipient",
          "type": "address"
        },
        {
          "internalType": "uint256",
          "name": "_royaltyBps",
          "type": "uint256"
        }
      ],
      "name": "setDefaultRoyaltyInfo",
      "outputs": [],
      "stateMutability": "nonpayable",
      "type": "function"
    },
    {
      "inputs": [
        {
          "internalType": "address",
          "name": "_newOwner",
          "type": "address"
        }
      ],
      "name": "setOwner",
      "outputs": [],
      "stateMutability": "nonpayable",
      "type": "function"
    },
    {
      "inputs": [
        {
          "internalType": "uint256",
          "name": "_tokenId",
          "type": "uint256"
        },
        {
          "internalType": "address",
          "name": "_recipient",
          "type": "address"
        },
        {
          "internalType": "uint256",
          "name": "_bps",
          "type": "uint256"
        }
      ],
      "name": "setRoyaltyInfoForToken",
      "outputs": [],
      "stateMutability": "nonpayable",
      "type": "function"
    },
    {
      "inputs": [
        {
          "internalType": "bytes4",
          "name": "interfaceId",
          "type": "bytes4"
        }
      ],
      "name": "supportsInterface",
      "outputs": [
        {
          "internalType": "bool",
          "name": "",
          "type": "bool"
        }
      ],
      "stateMutability": "view",
      "type": "function"
    },
    {
      "inputs": [],
      "name": "symbol",
      "outputs": [
        {
          "internalType": "string",
          "name": "",
          "type": "string"
        }
      ],
      "stateMutability": "view",
      "type": "function"
    },
    {
      "inputs": [
        {
          "internalType": "uint256",
          "name": "_tokenId",
          "type": "uint256"
        }
      ],
      "name": "tokenURI",
      "outputs": [
        {
          "internalType": "string",
          "name": "",
          "type": "string"
        }
      ],
      "stateMutability": "view",
      "type": "function"
    },
    {
      "inputs": [
        {
          "internalType": "address",
          "name": "from",
          "type": "address"
        },
        {
          "internalType": "address",
          "name": "to",
          "type": "address"
        },
        {
          "internalType": "uint256",
          "name": "tokenId",
          "type": "uint256"
        }
      ],
      "name": "transferFrom",
      "outputs": [],
      "stateMutability": "nonpayable",
      "type": "function"
    },
    {
      "inputs": [
        {
          "internalType": "uint256",
          "name": "_tokenId",
          "type": "uint256"
        },
        {
          "internalType": "address",
          "name": "_recipient",
          "type": "address"
        }
      ],
      "name": "unwrap",
      "outputs": [],
      "stateMutability": "nonpayable",
      "type": "function"
    },
    {
      "inputs": [
        {
          "components": [
            {
              "internalType": "address",
              "name": "assetContract",
              "type": "address"
            },
            {
              "internalType": "enum ITokenBundle.TokenType",
              "name": "tokenType",
              "type": "uint8"
            },
            {
              "internalType": "uint256",
              "name": "tokenId",
              "type": "uint256"
            },
            {
              "internalType": "uint256",
              "name": "totalAmount",
              "type": "uint256"
            }
          ],
          "internalType": "struct ITokenBundle.Token[]",
          "name": "_tokensToWrap",
          "type": "tuple[]"
        },
        {
          "internalType": "string",
          "name": "_uriForWrappedToken",
          "type": "string"
        },
        {
          "internalType": "address",
          "name": "_recipient",
          "type": "address"
        }
      ],
      "name": "wrap",
      "outputs": [
        {
          "internalType": "uint256",
          "name": "tokenId",
          "type": "uint256"
        }
      ],
      "stateMutability": "payable",
      "type": "function"
    },
    {
      "stateMutability": "payable",
      "type": "receive"
    }
  ],
  "bytecode": "0x60a06040523480156200001157600080fd5b5060405162004fd638038062004fd683398101604081905262000034916200017c565b6001600160a01b038116608052600054610100900460ff1615808015620000625750600054600160ff909116105b806200009257506200007f306200016d60201b62001d691760201c565b15801562000092575060005460ff166001145b620000fa5760405162461bcd60e51b815260206004820152602e60248201527f496e697469616c697a61626c653a20636f6e747261637420697320616c72656160448201526d191e481a5b9a5d1a585b1a5e995960921b606482015260840160405180910390fd5b6000805460ff1916600117905580156200011e576000805461ff0019166101001790555b801562000165576000805461ff0019169055604051600181527f7f26b83ff96e1f2b6a682f133852f6798a09c465da95921460cefb38474024989060200160405180910390a15b5050620001ae565b6001600160a01b03163b151590565b6000602082840312156200018f57600080fd5b81516001600160a01b0381168114620001a757600080fd5b9392505050565b608051614e05620001d1600039600081816102f101526137530152614e056000f3fe6080604052600436106102e15760003560e01c80638da5cb5b1161017f578063b24f2d39116100e1578063d0d2fe251161008a578063e8a3d48511610064578063e8a3d485146109c5578063e985e9c5146109da578063f23a6e6114610a2457600080fd5b8063d0d2fe251461094b578063d547741f14610978578063d5576d261461099857600080fd5b8063c87b56dd116100bb578063c87b56dd146108ec578063ca15c8731461090c578063cb2ef6f71461092c57600080fd5b8063b24f2d3914610875578063b88d4fde146108a0578063bc197c81146108c057600080fd5b80639bcf7a1511610143578063a22cb4651161011d578063a22cb46514610808578063a32fa5b314610828578063ac9650d81461084857600080fd5b80639bcf7a15146107b7578063a0a8e460146107d7578063a217fddf146107f357600080fd5b80638da5cb5b146106fe5780639010d07c1461071c57806391d148541461073c578063938e3d7b1461078257806395d89b41146107a257600080fd5b80632f2ff15d11610243578063600dd5ea116101ec57806370a08231116101c657806370a082311461069e578063754b8fe7146106be5780637647691d146106de57600080fd5b8063600dd5ea1461063e57806361195e941461065e5780636352211e1461067e57600080fd5b806342842e0e1161021d57806342842e0e146105a35780634cc157df146105c3578063572b6c051461060557600080fd5b80632f2ff15d1461054c57806336568abe1461056c5780633b1475a71461058c57600080fd5b8063150b7a02116102a5578063248a9ca31161027f578063248a9ca3146104bf57806329e471dd146104fa5780632a55205a1461050d57600080fd5b8063150b7a02146104395780631da799c91461047257806323b872dd1461049f57600080fd5b806301ffc9a71461036a57806306fdde031461039f578063081812fc146103c1578063095ea7b3146103f957806313af40351461041957600080fd5b3661036557336001600160a01b037f000000000000000000000000000000000000000000000000000000000000000016146103635760405162461bcd60e51b815260206004820181905260248201527f63616c6c6572206e6f74206e617469766520746f6b656e20777261707065722e60448201526064015b60405180910390fd5b005b600080fd5b34801561037657600080fd5b5061038a610385366004613f86565b610a50565b60405190151581526020015b60405180910390f35b3480156103ab57600080fd5b506103b4610ab2565b6040516103969190613ffb565b3480156103cd57600080fd5b506103e16103dc36600461400e565b610b45565b6040516001600160a01b039091168152602001610396565b34801561040557600080fd5b5061036361041436600461404c565b610b6d565b34801561042557600080fd5b50610363610434366004614078565b610c95565b34801561044557600080fd5b5061045961045436600461414c565b610ce6565b6040516001600160e01b03199091168152602001610396565b34801561047e57600080fd5b5061049261048d3660046141b8565b610cf7565b6040516103969190614247565b3480156104ab57600080fd5b506103636104ba366004614255565b610da7565b3480156104cb57600080fd5b506104ec6104da36600461400e565b60009081526007602052604090205490565b604051908152602001610396565b6104ec6105083660046142df565b610e26565b34801561051957600080fd5b5061052d6105283660046141b8565b611048565b604080516001600160a01b039093168352602083019190915201610396565b34801561055857600080fd5b5061036361056736600461438e565b611085565b34801561057857600080fd5b5061036361058736600461438e565b61111f565b34801561059857600080fd5b506104ec6101355481565b3480156105af57600080fd5b506103636105be366004614255565b611181565b3480156105cf57600080fd5b506105e36105de36600461400e565b61119c565b604080516001600160a01b03909316835261ffff909116602083015201610396565b34801561061157600080fd5b5061038a610620366004614078565b6001600160a01b03166000908152606d602052604090205460ff1690565b34801561064a57600080fd5b5061036361065936600461404c565b611207565b34801561066a57600080fd5b506103b461067936600461400e565b611256565b34801561068a57600080fd5b506103e161069936600461400e565b6112fb565b3480156106aa57600080fd5b506104ec6106b9366004614078565b611361565b3480156106ca57600080fd5b506103636106d936600461445c565b6113e8565b3480156106ea57600080fd5b506103636106f936600461438e565b61160f565b34801561070a57600080fd5b506005546001600160a01b03166103e1565b34801561072857600080fd5b506103e16107373660046141b8565b6117b4565b34801561074857600080fd5b5061038a61075736600461438e565b60009182526006602090815260408084206001600160a01b0393909316845291905290205460ff1690565b34801561078e57600080fd5b5061036361079d366004614534565b6118b5565b3480156107ae57600080fd5b506103b4611903565b3480156107c357600080fd5b506103636107d2366004614569565b611913565b3480156107e357600080fd5b5060405160018152602001610396565b3480156107ff57600080fd5b506104ec600081565b34801561081457600080fd5b5061036361082336600461459e565b611963565b34801561083457600080fd5b5061038a61084336600461438e565b611975565b34801561085457600080fd5b506108686108633660046145cc565b6119cb565b6040516103969190614641565b34801561088157600080fd5b506003546001600160a01b03811690600160a01b900461ffff166105e3565b3480156108ac57600080fd5b506103636108bb36600461414c565b611ac0565b3480156108cc57600080fd5b506104596108db366004614709565b63bc197c8160e01b95945050505050565b3480156108f857600080fd5b506103b461090736600461400e565b611b46565b34801561091857600080fd5b506104ec61092736600461400e565b611b51565b34801561093857600080fd5b506804d756c7469777261760bc1b6104ec565b34801561095757600080fd5b506104ec61096636600461400e565b60009081526002602052604090205490565b34801561098457600080fd5b5061036361099336600461438e565b611bec565b3480156109a457600080fd5b506109b86109b336600461400e565b611c05565b60405161039691906147b7565b3480156109d157600080fd5b506103b4611cdb565b3480156109e657600080fd5b5061038a6109f5366004614805565b6001600160a01b0391821660009081526101086020908152604080832093909416825291909152205460ff1690565b348015610a3057600080fd5b50610459610a3f366004614833565b63f23a6e6160e01b95945050505050565b6000610a5b82611d78565b80610a7657506001600160e01b031982166380ac58cd60e01b145b80610a9157506001600160e01b03198216630271189760e51b145b80610aac57506001600160e01b0319821663152a902d60e11b145b92915050565b60606101038054610ac29061489c565b80601f0160208091040260200160405190810160405280929190818152602001828054610aee9061489c565b8015610b3b5780601f10610b1057610100808354040283529160200191610b3b565b820191906000526020600020905b815481529060010190602001808311610b1e57829003601f168201915b5050505050905090565b6000610b5082611dc8565b50600090815261010760205260409020546001600160a01b031690565b6000610b78826112fb565b9050806001600160a01b0316836001600160a01b03161415610be65760405162461bcd60e51b815260206004820152602160248201527f4552433732313a20617070726f76616c20746f2063757272656e74206f776e656044820152603960f91b606482015260840161035a565b806001600160a01b0316610bf8611e2d565b6001600160a01b03161480610c145750610c14816109f5611e2d565b610c865760405162461bcd60e51b815260206004820152603e60248201527f4552433732313a20617070726f76652063616c6c6572206973206e6f7420746f60448201527f6b656e206f776e6572206e6f7220617070726f76656420666f7220616c6c0000606482015260840161035a565b610c908383611e3c565b505050565b610c9d611eab565b610cda5760405162461bcd60e51b815260206004820152600e60248201526d139bdd08185d5d1a1bdc9a5e995960921b604482015260640161035a565b610ce381611eb9565b50565b630a85bd0160e11b5b949350505050565b610d23604080516080810190915260008082526020820190815260200160008152602001600081525090565b6000838152600260208181526040808420868552830182529283902083516080810190945280546001600160a01b0381168552909291840191600160a01b90910460ff1690811115610d7757610d776141da565b6002811115610d8857610d886141da565b8152600182015460208201526002909101546040909101529392505050565b610db8610db2611e2d565b82611f0b565b610e1b5760405162461bcd60e51b815260206004820152602e60248201527f4552433732313a2063616c6c6572206973206e6f7420746f6b656e206f776e6560448201526d1c881b9bdc88185c1c1c9bdd995960921b606482015260840161035a565b610c90838383611f8a565b600060026009541415610e7b5760405162461bcd60e51b815260206004820152601f60248201527f5265656e7472616e637947756172643a207265656e7472616e742063616c6c00604482015260640161035a565b60026009557f9f2df0fed2c77648de5860a4cc508cd0818c85b8b8a1ab4ceeef8d981c8956a6610eb281610ead611e2d565b612134565b600080527faca7f1b263d353d89f9f08643076a3fadf7ba4bc8bdd03fd6d65f8ce261e1d706020527facd2d1f79ea57903f9de3a9ec49cdb6f9628bcc83e4432dd97992cfb958fcc625460ff16610f735760005b86811015610f7157610f5f7f86d5cf0a6bdc8d859ba3bdc97043337c82a0e609035f378e419298b6a3e00ae6898984818110610f4457610f446148d1565b610f5a9260206080909202019081019150614078565b612198565b610f6a6001826148fd565b9050610f06565b505b610135805492506001906000610f8983866148fd565b90915550610fda9050610f9a611e2d565b888888888080601f0160208091040260200160405190810160405280939291908181526020018383808284376000920191909152508992506121d6915050565b610fe4838361224f565b81836001600160a01b0316610ff7611e2d565b6001600160a01b03167fd37c0c0e6fd9c0d30d0b9fba1aa4f1123dedc7e681bb5b2c2d96298650032d4c8a8a604051611031929190614922565b60405180910390a450600160095595945050505050565b6000806000806110578661119c565b90945084925061ffff16905061271061107082876149a1565b61107a91906149c0565b925050509250929050565b60008281526007602052604090205461109e9033612198565b60008281526006602090815260408083206001600160a01b038516845290915290205460ff16156111115760405162461bcd60e51b815260206004820152601d60248201527f43616e206f6e6c79206772616e7420746f206e6f6e20686f6c64657273000000604482015260640161035a565b61111b8282612269565b5050565b336001600160a01b038216146111775760405162461bcd60e51b815260206004820152601a60248201527f43616e206f6e6c792072656e6f756e636520666f722073656c66000000000000604482015260640161035a565b61111b828261227d565b610c9083838360405180602001604052806000815250611ac0565b6000818152600460209081526040808320815180830190925280546001600160a01b0316808352600190910154928201929092528291156111e357805160208201516111fd565b6003546001600160a01b03811690600160a01b900461ffff165b9250925050915091565b61120f611eab565b61124c5760405162461bcd60e51b815260206004820152600e60248201526d139bdd08185d5d1a1bdc9a5e995960921b604482015260640161035a565b61111b82826122d4565b60008181526002602052604090206001018054606091906112769061489c565b80601f01602080910402602001604051908101604052809291908181526020018280546112a29061489c565b80156112ef5780601f106112c4576101008083540402835291602001916112ef565b820191906000526020600020905b8154815290600101906020018083116112d257829003601f168201915b50505050509050919050565b600081815261010560205260408120546001600160a01b031680610aac5760405162461bcd60e51b815260206004820152601860248201527f4552433732313a20696e76616c696420746f6b656e2049440000000000000000604482015260640161035a565b60006001600160a01b0382166113cb5760405162461bcd60e51b815260206004820152602960248201527f4552433732313a2061646472657373207a65726f206973206e6f7420612076616044820152683634b21037bbb732b960b91b606482015260840161035a565b506001600160a01b03166000908152610106602052604090205490565b600054610100900460ff16158080156114085750600054600160ff909116105b806114225750303b158015611422575060005460ff166001145b6114855760405162461bcd60e51b815260206004820152602e60248201527f496e697469616c697a61626c653a20636f6e747261637420697320616c72656160448201526d191e481a5b9a5d1a585b1a5e995960921b606482015260840161035a565b6000805460ff1916600117905580156114a8576000805461ff0019166101001790555b6114b0612389565b6114b9846123ba565b6114c387876123f2565b6114cd83836122d4565b6114d688611eb9565b6114df85612423565b6114ea600089612269565b6115147f9f2df0fed2c77648de5860a4cc508cd0818c85b8b8a1ab4ceeef8d981c8956a689612269565b61153e7f8502233096d909befbda0999bb8ea2f3a6be3c138b9fbf003752a4c8bce86f6c89612269565b6115697f8502233096d909befbda0999bb8ea2f3a6be3c138b9fbf003752a4c8bce86f6c6000612269565b6115947fba050530e9007d7ef162f72906a6658584aefb35f0e9fefd3c413cec269f05436000612269565b6115bf7f86d5cf0a6bdc8d859ba3bdc97043337c82a0e609035f378e419298b6a3e00ae66000612269565b8015611605576000805461ff0019169055604051600181527f7f26b83ff96e1f2b6a682f133852f6798a09c465da95921460cefb38474024989060200160405180910390a15b5050505050505050565b600260095414156116625760405162461bcd60e51b815260206004820152601f60248201527f5265656e7472616e637947756172643a207265656e7472616e742063616c6c00604482015260640161035a565b60026009557fba050530e9007d7ef162f72906a6658584aefb35f0e9fefd3c413cec269f054361169481610ead611e2d565b6101355483106116e65760405162461bcd60e51b815260206004820152601060248201527f77726170706564204e465420444e452e00000000000000000000000000000000604482015260640161035a565b6116f76116f1611e2d565b84611f0b565b61174f5760405162461bcd60e51b815260206004820152602360248201527f63616c6c6572206e6f7420617070726f76656420666f7220756e77726170706960448201526237339760e91b606482015260840161035a565b61175883612505565b61176282846125ae565b82826001600160a01b0316611775611e2d565b6001600160a01b03167fe9a1b206a63887b7a73ef37983c4105047ae75c9ac0920a1a256eea52f264a7360405160405180910390a45050600160095550565b60008281526008602052604081205481805b828110156118ac5760008681526008602090815260408083208484526001019091529020546001600160a01b03161561184357848214156118315760008681526008602090815260408083209383526001909301905220546001600160a01b03169250610aac915050565b61183c6001836148fd565b915061189a565b600086815260066020908152604080832083805290915290205460ff1680156118875750600086815260086020908152604080832083805260020190915290205481145b1561189a576118976001836148fd565b91505b6118a56001826148fd565b90506117c6565b50505092915050565b6118bd611eab565b6118fa5760405162461bcd60e51b815260206004820152600e60248201526d139bdd08185d5d1a1bdc9a5e995960921b604482015260640161035a565b610ce381612423565b60606101048054610ac29061489c565b61191b611eab565b6119585760405162461bcd60e51b815260206004820152600e60248201526d139bdd08185d5d1a1bdc9a5e995960921b604482015260640161035a565b610c90838383612690565b61111b61196e611e2d565b838361275a565b600082815260066020908152604080832083805290915281205460ff166119c2575060008281526006602090815260408083206001600160a01b038516845290915290205460ff16610aac565b50600192915050565b60608167ffffffffffffffff8111156119e6576119e6614095565b604051908082528060200260200182016040528015611a1957816020015b6060815260200190600190039081611a045790505b50905060005b82811015611ab957611a8930858584818110611a3d57611a3d6148d1565b9050602002810190611a4f91906149e2565b8080601f01602080910402602001604051908101604052809392919081815260200183838082843760009201919091525061282292505050565b828281518110611a9b57611a9b6148d1565b60200260200101819052508080611ab190614a29565b915050611a1f565b5092915050565b611ad1611acb611e2d565b83611f0b565b611b345760405162461bcd60e51b815260206004820152602e60248201527f4552433732313a2063616c6c6572206973206e6f7420746f6b656e206f776e6560448201526d1c881b9bdc88185c1c1c9bdd995960921b606482015260840161035a565b611b4084848484612916565b50505050565b6060610aac82611256565b600081815260086020526040812054815b81811015611bb55760008481526008602090815260408083208484526001019091529020546001600160a01b031615611ba357611ba06001846148fd565b92505b611bae6001826148fd565b9050611b62565b50600083815260066020908152604080832083805290915290205460ff1615611be657611be36001836148fd565b91505b50919050565b6000828152600760205260409020546111779033612198565b6000818152600260205260409020546060908067ffffffffffffffff811115611c3057611c30614095565b604051908082528060200260200182016040528015611c8d57816020015b611c7a604080516080810190915260008082526020820190815260200160008152602001600081525090565b815260200190600190039081611c4e5790505b50915060005b81811015611cd457611ca58482610cf7565b838281518110611cb757611cb76148d1565b6020908102919091010152611ccd6001826148fd565b9050611c93565b5050919050565b60018054611ce89061489c565b80601f0160208091040260200160405190810160405280929190818152602001828054611d149061489c565b8015611d615780601f10611d3657610100808354040283529160200191611d61565b820191906000526020600020905b815481529060010190602001808311611d4457829003601f168201915b505050505081565b6001600160a01b03163b151590565b60006001600160e01b031982166380ac58cd60e01b1480611da957506001600160e01b03198216635b5e139f60e01b145b80610aac57506301ffc9a760e01b6001600160e01b0319831614610aac565b600081815261010560205260409020546001600160a01b0316610ce35760405162461bcd60e51b815260206004820152601860248201527f4552433732313a20696e76616c696420746f6b656e2049440000000000000000604482015260640161035a565b6000611e37612994565b905090565b60008181526101076020526040902080546001600160a01b0319166001600160a01b0384169081179091558190611e72826112fb565b6001600160a01b03167f8c5be1e5ebec7d5bd14f71427d1e84f3dd0314c0f7b2291e5b200ac8c7c3b92560405160405180910390a45050565b6000611e3781610757611e2d565b600580546001600160a01b038381166001600160a01b0319831681179093556040519116919082907f8292fce18fa69edf4db7b94ea2e58241df0ae57f97e0a6c9b29067028bf92d7690600090a35050565b600080611f17836112fb565b9050806001600160a01b0316846001600160a01b03161480611f5f57506001600160a01b038082166000908152610108602090815260408083209388168352929052205460ff165b80610cef5750836001600160a01b0316611f7884610b45565b6001600160a01b031614949350505050565b826001600160a01b0316611f9d826112fb565b6001600160a01b0316146120015760405162461bcd60e51b815260206004820152602560248201527f4552433732313a207472616e736665722066726f6d20696e636f72726563742060448201526437bbb732b960d91b606482015260840161035a565b6001600160a01b0382166120635760405162461bcd60e51b8152602060048201526024808201527f4552433732313a207472616e7366657220746f20746865207a65726f206164646044820152637265737360e01b606482015260840161035a565b61206e8383836129c1565b612079600082611e3c565b6001600160a01b0383166000908152610106602052604081208054600192906120a3908490614a44565b90915550506001600160a01b0382166000908152610106602052604081208054600192906120d29084906148fd565b90915550506000818152610105602052604080822080546001600160a01b0319166001600160a01b0386811691821790925591518493918716917fddf252ad1be2c89b69c2b068fc378daa952ba7f163c4a11628f55a4df523b3ef91a4505050565b61213e8282611975565b61111b57612156816001600160a01b03166014612af6565b612161836020612af6565b604051602001612172929190614a5b565b60408051601f198184030181529082905262461bcd60e51b825261035a91600401613ffb565b60008281526006602090815260408083206001600160a01b038516845290915290205460ff1661111b57612156816001600160a01b03166014612af6565b6121e1848483612ca6565b6121eb8282612dce565b61224885308686808060200260200160405190810160405280939291908181526020016000905b8282101561223e5761222f60808302860136819003810190614adc565b81526020019060010190612212565b5050505050612df3565b5050505050565b61111b828260405180602001604052806000815250612f0f565b6122738282612f8d565b61111b8282612fe8565b6122878282613055565b60008281526008602090815260408083206001600160a01b03851680855260028201808552838620805487526001909301855292852080546001600160a01b031916905584529152555050565b6127108111156123185760405162461bcd60e51b815260206004820152600f60248201526e45786365656473206d61782062707360881b604482015260640161035a565b600380546001600160a01b03841675ffffffffffffffffffffffffffffffffffffffffffff199091168117600160a01b61ffff851602179091556040518281527f90d7ec04bcb8978719414f82e52e4cb651db41d0e6f8cea6118c2191e6183adb9060200160405180910390a25050565b600054610100900460ff166123b05760405162461bcd60e51b815260040161035a90614b51565b6123b86130b7565b565b600054610100900460ff166123e15760405162461bcd60e51b815260040161035a90614b51565b6123e96130e5565b610ce38161310c565b600054610100900460ff166124195760405162461bcd60e51b815260040161035a90614b51565b61111b828261319b565b6000600180546124329061489c565b80601f016020809104026020016040519081016040528092919081815260200182805461245e9061489c565b80156124ab5780601f10612480576101008083540402835291602001916124ab565b820191906000526020600020905b81548152906001019060200180831161248e57829003601f168201915b505085519394506124c793600193506020870192509050613ed7565b507fc9c7c3fe08b88b4df9d4d47ef47d2c43d55c025a0ba88ca442580ed9e7348a1681836040516124f9929190614b9c565b60405180910390a15050565b6000612510826112fb565b905061251e816000846129c1565b612529600083611e3c565b6001600160a01b038116600090815261010660205260408120805460019290612553908490614a44565b90915550506000828152610105602052604080822080546001600160a01b0319169055518391906001600160a01b038416907fddf252ad1be2c89b69c2b068fc378daa952ba7f163c4a11628f55a4df523b3ef908390a45050565b600081815260026020526040812054908167ffffffffffffffff8111156125d7576125d7614095565b60405190808252806020026020018201604052801561263457816020015b612621604080516080810190915260008082526020820190815260200160008152602001600081525090565b8152602001906001900390816125f55790505b50905060005b8281101561267b5761264c8482610cf7565b82828151811061265e5761265e6148d1565b60209081029190910101526126746001826148fd565b905061263a565b50612685836131eb565b611b40308583612df3565b6127108111156126d45760405162461bcd60e51b815260206004820152600f60248201526e45786365656473206d61782062707360881b604482015260640161035a565b6040805180820182526001600160a01b038481168083526020808401868152600089815260048352869020945185546001600160a01b031916941693909317845591516001909301929092559151838152909185917f7365cf4122f072a3365c20d54eff9b38d73c096c28e1892ec8f5b0e403a0f12d91015b60405180910390a3505050565b816001600160a01b0316836001600160a01b031614156127bc5760405162461bcd60e51b815260206004820152601960248201527f4552433732313a20617070726f766520746f2063616c6c657200000000000000604482015260640161035a565b6001600160a01b0383811660008181526101086020908152604080832094871680845294825291829020805460ff191686151590811790915591519182527f17307eab39ab6107e8899845ad3d59bd9653f200f220920489ca2b5937696c31910161274d565b60606001600160a01b0383163b61288a5760405162461bcd60e51b815260206004820152602660248201527f416464726573733a2064656c65676174652063616c6c20746f206e6f6e2d636f6044820152651b9d1c9858dd60d21b606482015260840161035a565b600080846001600160a01b0316846040516128a59190614bc1565b600060405180830381855af49150503d80600081146128e0576040519150601f19603f3d011682016040523d82523d6000602084013e6128e5565b606091505b509150915061290d8282604051806060016040528060278152602001614da96027913961326c565b95945050505050565b612921848484611f8a565b61292d848484846132a5565b611b405760405162461bcd60e51b815260206004820152603260248201527f4552433732313a207472616e7366657220746f206e6f6e20455243373231526560448201527131b2b4bb32b91034b6b83632b6b2b73a32b960711b606482015260840161035a565b336000908152606d602052604081205460ff16156129b9575060131936013560601c90565b503390565b90565b600080527f90c276c67a19c282c7de40a6de63b141616931e213f9fd4b4a9325f19a097e466020527f228e6bd055da8b5bd44a542f2af2439f4656c6693ef9de5d469824e27eb37b745460ff16158015612a2357506001600160a01b03831615155b8015612a3757506001600160a01b03821615155b15610c90576001600160a01b03831660009081527f90c276c67a19c282c7de40a6de63b141616931e213f9fd4b4a9325f19a097e46602052604090205460ff1680612ab957506001600160a01b03821660009081527f90c276c67a19c282c7de40a6de63b141616931e213f9fd4b4a9325f19a097e46602052604090205460ff165b610c905760405162461bcd60e51b815260206004820152600e60248201526d215452414e534645525f524f4c4560901b604482015260640161035a565b60606000612b058360026149a1565b612b109060026148fd565b67ffffffffffffffff811115612b2857612b28614095565b6040519080825280601f01601f191660200182016040528015612b52576020820181803683370190505b509050600360fc1b81600081518110612b6d57612b6d6148d1565b60200101906001600160f81b031916908160001a905350600f60fb1b81600181518110612b9c57612b9c6148d1565b60200101906001600160f81b031916908160001a9053506000612bc08460026149a1565b612bcb9060016148fd565b90505b6001811115612c50577f303132333435363738396162636465660000000000000000000000000000000085600f1660108110612c0c57612c0c6148d1565b1a60f81b828281518110612c2257612c226148d1565b60200101906001600160f81b031916908160001a90535060049490941c93612c4981614bdd565b9050612bce565b508315612c9f5760405162461bcd60e51b815260206004820181905260248201527f537472696e67733a20686578206c656e67746820696e73756666696369656e74604482015260640161035a565b9392505050565b8180612cde5760405162461bcd60e51b815260206004820152600760248201526621546f6b656e7360c81b604482015260640161035a565b60008281526002602052604090205415612d265760405162461bcd60e51b815260206004820152600960248201526869642065786973747360b81b604482015260640161035a565b60005b81811015612db957612d61858583818110612d4657612d466148d1565b905060800201803603810190612d5c9190614adc565b6133f2565b848482818110612d7357612d736148d1565b600086815260026020818152604080842088855290920190529020608090910292909201919050612da48282614bf4565b50612db290506001826148fd565b9050612d29565b50600091825260026020526040909120555050565b60008181526002602090815260409091208351610c9092600190920191850190613ed7565b6000805b8251811015612ec55773eeeeeeeeeeeeeeeeeeeeeeeeeeeeeeeeeeeeeeee6001600160a01b0316838281518110612e3057612e306148d1565b6020026020010151600001516001600160a01b0316148015612e5a57506001600160a01b03841630145b15612e8f57828181518110612e7157612e716148d1565b60200260200101516060015182612e8891906148fd565b9150612eb3565b612eb38585858481518110612ea657612ea66148d1565b6020026020010151613724565b612ebe6001826148fd565b9050612df7565b508015611b40576040805160808101825273eeeeeeeeeeeeeeeeeeeeeeeeeeeeeeeeeeeeeeee81526000602082018190529181019190915260608101829052612248858583613724565b612f19838361388c565b612f2660008484846132a5565b610c905760405162461bcd60e51b815260206004820152603260248201527f4552433732313a207472616e7366657220746f206e6f6e20455243373231526560448201527131b2b4bb32b91034b6b83632b6b2b73a32b960711b606482015260840161035a565b60008281526006602090815260408083206001600160a01b0385168085529252808320805460ff1916600117905551339285917f2f8788117e7eff1d82e926ec794901d17c78024a50270940304540a733656f0d9190a45050565b60008281526008602052604081208054916001919061300783856148fd565b9091555050600092835260086020908152604080852083865260018101835281862080546001600160a01b039096166001600160a01b03199096168617905593855260029093019052912055565b61305f8282612198565b60008281526006602090815260408083206001600160a01b0385168085529252808320805460ff1916905551339285917ff6391f5c32d9c69d2a47ea670b442974b53935d1edc7fd64eb21e047a839171b9190a45050565b600054610100900460ff166130de5760405162461bcd60e51b815260040161035a90614b51565b6001600955565b600054610100900460ff166123b85760405162461bcd60e51b815260040161035a90614b51565b600054610100900460ff166131335760405162461bcd60e51b815260040161035a90614b51565b60005b815181101561111b576001606d6000848481518110613157576131576148d1565b6020908102919091018101516001600160a01b03168252810191909152604001600020805460ff19169115159190911790558061319381614a29565b915050613136565b600054610100900460ff166131c25760405162461bcd60e51b815260040161035a90614b51565b81516131d690610103906020850190613ed7565b508051610c9090610104906020840190613ed7565b60005b60008281526002602052604090205481101561325a57600082815260026020818152604080842085855283019091528220805474ffffffffffffffffffffffffffffffffffffffffff19168155600180820184905591019190915561325390826148fd565b90506131ee565b50600090815260026020526040812055565b6060831561327b575081612c9f565b82511561328b5782518084602001fd5b8160405162461bcd60e51b815260040161035a9190613ffb565b60006001600160a01b0384163b156133ea57836001600160a01b031663150b7a026132ce611e2d565b8786866040518563ffffffff1660e01b81526004016132f09493929190614c8d565b6020604051808303816000875af192505050801561332b575060408051601f3d908101601f1916820190925261332891810190614cc9565b60015b6133d0573d808015613359576040519150601f19603f3d011682016040523d82523d6000602084013e61335e565b606091505b5080516133c85760405162461bcd60e51b815260206004820152603260248201527f4552433732313a207472616e7366657220746f206e6f6e20455243373231526560448201527131b2b4bb32b91034b6b83632b6b2b73a32b960711b606482015260840161035a565b805181602001fd5b6001600160e01b031916630a85bd0160e11b149050610cef565b506001610cef565b60018160200151600281111561340a5761340a6141da565b14156134ee5780516040516301ffc9a760e01b81526380ac58cd60e01b60048201526001600160a01b03909116906301ffc9a7906024015b602060405180830381865afa92505050801561347b575060408051601f3d908101601f1916820190925261347891810190614ce6565b60015b6134b45760405162461bcd60e51b815260206004820152600a60248201526921546f6b656e5479706560b01b604482015260640161035a565b8061111b5760405162461bcd60e51b815260206004820152600a60248201526921546f6b656e5479706560b01b604482015260640161035a565b600281602001516002811115613506576135066141da565b14156135425780516040516301ffc9a760e01b8152636cdb3d1360e11b60048201526001600160a01b03909116906301ffc9a790602401613442565b60008160200151600281111561355a5761355a6141da565b1415610ce35780516001600160a01b031673eeeeeeeeeeeeeeeeeeeeeeeeeeeeeeeeeeeeeeee14610ce35780516040516301ffc9a760e01b81526380ac58cd60e01b60048201526001600160a01b03909116906301ffc9a790602401602060405180830381865afa9250505080156135ef575060408051601f3d908101601f191682019092526135ec91810190614ce6565b60015b613619576135fb614d03565b806308c379a0141561111b5750613610614d1e565b8061111b575050565b80156136545760405162461bcd60e51b815260206004820152600a60248201526921546f6b656e5479706560b01b604482015260640161035a565b81516040516301ffc9a760e01b8152636cdb3d1360e11b60048201526001600160a01b03909116906301ffc9a790602401602060405180830381865afa9250505080156136be575060408051601f3d908101601f191682019092526136bb91810190614ce6565b60015b6136e9576136ca614d03565b806308c379a01415610c9057506136df614d1e565b80610c9057505050565b8015610c905760405162461bcd60e51b815260206004820152600a60248201526921546f6b656e5479706560b01b604482015260640161035a565b60008160200151600281111561373c5761373c6141da565b141561377757610c908160000151848484606001517f00000000000000000000000000000000000000000000000000000000000000006139dd565b60018160200151600281111561378f5761378f6141da565b141561380d5780516040808301519051632142170760e11b81526001600160a01b038681166004830152858116602483015260448201929092529116906342842e0e906064015b600060405180830381600087803b1580156137f057600080fd5b505af1158015613804573d6000803e3d6000fd5b50505050505050565b600281602001516002811115613825576138256141da565b1415610c9057805160408083015160608401519151637921219560e11b81526001600160a01b03878116600483015286811660248301526044820192909252606481019290925260a06084830152600060a48301529091169063f242432a9060c4016137d6565b6001600160a01b0382166138e25760405162461bcd60e51b815260206004820181905260248201527f4552433732313a206d696e7420746f20746865207a65726f2061646472657373604482015260640161035a565b600081815261010560205260409020546001600160a01b0316156139485760405162461bcd60e51b815260206004820152601c60248201527f4552433732313a20746f6b656e20616c7265616479206d696e74656400000000604482015260640161035a565b613954600083836129c1565b6001600160a01b03821660009081526101066020526040812080546001929061397e9084906148fd565b90915550506000818152610105602052604080822080546001600160a01b0319166001600160a01b03861690811790915590518392907fddf252ad1be2c89b69c2b068fc378daa952ba7f163c4a11628f55a4df523b3ef908290a45050565b816139e757612248565b6001600160a01b03851673eeeeeeeeeeeeeeeeeeeeeeeeeeeeeeeeeeeeeeee1415613b4b576001600160a01b038416301415613a8757604051632e1a7d4d60e01b8152600481018390526001600160a01b03821690632e1a7d4d90602401600060405180830381600087803b158015613a5f57600080fd5b505af1158015613a73573d6000803e3d6000fd5b50505050613a82838383613b57565b612248565b6001600160a01b038316301415613b4057348214613ae75760405162461bcd60e51b815260206004820152601360248201527f6d73672e76616c756520213d20616d6f756e7400000000000000000000000000604482015260640161035a565b806001600160a01b031663d0e30db0836040518263ffffffff1660e01b81526004016000604051808303818588803b158015613b2257600080fd5b505af1158015613b36573d6000803e3d6000fd5b5050505050612248565b613a82838383613b57565b61224885858585613c1c565b6000836001600160a01b03168360405160006040518083038185875af1925050503d8060008114613ba4576040519150601f19603f3d011682016040523d82523d6000602084013e613ba9565b606091505b5050905080611b4057816001600160a01b031663d0e30db0846040518263ffffffff1660e01b81526004016000604051808303818588803b158015613bed57600080fd5b505af1158015613c01573d6000803e3d6000fd5b50611b40935050506001600160a01b03841690508585613c7a565b816001600160a01b0316836001600160a01b03161415613c3b57611b40565b6001600160a01b038316301415613c6557613c606001600160a01b0385168383613c7a565b611b40565b611b406001600160a01b038516848484613cf2565b6040516001600160a01b038316602482015260448101829052610c9090849063a9059cbb60e01b906064015b60408051601f198184030181529190526020810180517bffffffffffffffffffffffffffffffffffffffffffffffffffffffff166001600160e01b031990931692909217909152613d2a565b6040516001600160a01b0380851660248301528316604482015260648101829052611b409085906323b872dd60e01b90608401613ca6565b6000613d7f826040518060400160405280602081526020017f5361666545524332303a206c6f772d6c6576656c2063616c6c206661696c6564815250856001600160a01b0316613dfc9092919063ffffffff16565b805190915015610c905780806020019051810190613d9d9190614ce6565b610c905760405162461bcd60e51b815260206004820152602a60248201527f5361666545524332303a204552433230206f7065726174696f6e20646964206e6044820152691bdd081cdd58d8d9595960b21b606482015260840161035a565b6060610cef8484600085856001600160a01b0385163b613e5e5760405162461bcd60e51b815260206004820152601d60248201527f416464726573733a2063616c6c20746f206e6f6e2d636f6e7472616374000000604482015260640161035a565b600080866001600160a01b03168587604051613e7a9190614bc1565b60006040518083038185875af1925050503d8060008114613eb7576040519150601f19603f3d011682016040523d82523d6000602084013e613ebc565b606091505b5091509150613ecc82828661326c565b979650505050505050565b828054613ee39061489c565b90600052602060002090601f016020900481019282613f055760008555613f4b565b82601f10613f1e57805160ff1916838001178555613f4b565b82800160010185558215613f4b579182015b82811115613f4b578251825591602001919060010190613f30565b50613f57929150613f5b565b5090565b5b80821115613f575760008155600101613f5c565b6001600160e01b031981168114610ce357600080fd5b600060208284031215613f9857600080fd5b8135612c9f81613f70565b60005b83811015613fbe578181015183820152602001613fa6565b83811115611b405750506000910152565b60008151808452613fe7816020860160208601613fa3565b601f01601f19169290920160200192915050565b602081526000612c9f6020830184613fcf565b60006020828403121561402057600080fd5b5035919050565b6001600160a01b0381168114610ce357600080fd5b803561404781614027565b919050565b6000806040838503121561405f57600080fd5b823561406a81614027565b946020939093013593505050565b60006020828403121561408a57600080fd5b8135612c9f81614027565b634e487b7160e01b600052604160045260246000fd5b601f8201601f1916810167ffffffffffffffff811182821017156140d1576140d1614095565b6040525050565b600082601f8301126140e957600080fd5b813567ffffffffffffffff81111561410357614103614095565b60405161411a601f8301601f1916602001826140ab565b81815284602083860101111561412f57600080fd5b816020850160208301376000918101602001919091529392505050565b6000806000806080858703121561416257600080fd5b843561416d81614027565b9350602085013561417d81614027565b925060408501359150606085013567ffffffffffffffff8111156141a057600080fd5b6141ac878288016140d8565b91505092959194509250565b600080604083850312156141cb57600080fd5b50508035926020909101359150565b634e487b7160e01b600052602160045260246000fd5b6003811061420e57634e487b7160e01b600052602160045260246000fd5b9052565b6001600160a01b038151168252602081015161423160208401826141f0565b5060408181015190830152606090810151910152565b60808101610aac8284614212565b60008060006060848603121561426a57600080fd5b833561427581614027565b9250602084013561428581614027565b929592945050506040919091013590565b60008083601f8401126142a857600080fd5b50813567ffffffffffffffff8111156142c057600080fd5b6020830191508360208285010111156142d857600080fd5b9250929050565b6000806000806000606086880312156142f757600080fd5b853567ffffffffffffffff8082111561430f57600080fd5b818801915088601f83011261432357600080fd5b81358181111561433257600080fd5b8960208260071b850101111561434757600080fd5b60209283019750955090870135908082111561436257600080fd5b5061436f88828901614296565b909450925061438290506040870161403c565b90509295509295909350565b600080604083850312156143a157600080fd5b8235915060208301356143b381614027565b809150509250929050565b600067ffffffffffffffff8211156143d8576143d8614095565b5060051b60200190565b600082601f8301126143f357600080fd5b81356020614400826143be565b60405161440d82826140ab565b83815260059390931b850182019282810191508684111561442d57600080fd5b8286015b8481101561445157803561444481614027565b8352918301918301614431565b509695505050505050565b600080600080600080600060e0888a03121561447757600080fd5b6144808861403c565b9650602088013567ffffffffffffffff8082111561449d57600080fd5b6144a98b838c016140d8565b975060408a01359150808211156144bf57600080fd5b6144cb8b838c016140d8565b965060608a01359150808211156144e157600080fd5b6144ed8b838c016140d8565b955060808a013591508082111561450357600080fd5b506145108a828b016143e2565b93505061451f60a0890161403c565b915060c0880135905092959891949750929550565b60006020828403121561454657600080fd5b813567ffffffffffffffff81111561455d57600080fd5b610cef848285016140d8565b60008060006060848603121561457e57600080fd5b83359250602084013561428581614027565b8015158114610ce357600080fd5b600080604083850312156145b157600080fd5b82356145bc81614027565b915060208301356143b381614590565b600080602083850312156145df57600080fd5b823567ffffffffffffffff808211156145f757600080fd5b818501915085601f83011261460b57600080fd5b81358181111561461a57600080fd5b8660208260051b850101111561462f57600080fd5b60209290920196919550909350505050565b6000602080830181845280855180835260408601915060408160051b870101925083870160005b8281101561469657603f19888603018452614684858351613fcf565b94509285019290850190600101614668565b5092979650505050505050565b600082601f8301126146b457600080fd5b813560206146c1826143be565b6040516146ce82826140ab565b83815260059390931b85018201928281019150868411156146ee57600080fd5b8286015b8481101561445157803583529183019183016146f2565b600080600080600060a0868803121561472157600080fd5b853561472c81614027565b9450602086013561473c81614027565b9350604086013567ffffffffffffffff8082111561475957600080fd5b61476589838a016146a3565b9450606088013591508082111561477b57600080fd5b61478789838a016146a3565b9350608088013591508082111561479d57600080fd5b506147aa888289016140d8565b9150509295509295909350565b6020808252825182820181905260009190848201906040850190845b818110156147f9576147e6838551614212565b92840192608092909201916001016147d3565b50909695505050505050565b6000806040838503121561481857600080fd5b823561482381614027565b915060208301356143b381614027565b600080600080600060a0868803121561484b57600080fd5b853561485681614027565b9450602086013561486681614027565b93506040860135925060608601359150608086013567ffffffffffffffff81111561489057600080fd5b6147aa888289016140d8565b600181811c908216806148b057607f821691505b60208210811415611be657634e487b7160e01b600052602260045260246000fd5b634e487b7160e01b600052603260045260246000fd5b634e487b7160e01b600052601160045260246000fd5b60008219821115614910576149106148e7565b500190565b60038110610ce357600080fd5b6020808252818101839052600090604080840186845b8781101561499457813561494b81614027565b6001600160a01b031683528185013561496381614915565b61496f868501826141f0565b5081840135838501526060808301359084015260809283019290910190600101614938565b5090979650505050505050565b60008160001904831182151516156149bb576149bb6148e7565b500290565b6000826149dd57634e487b7160e01b600052601260045260246000fd5b500490565b6000808335601e198436030181126149f957600080fd5b83018035915067ffffffffffffffff821115614a1457600080fd5b6020019150368190038213156142d857600080fd5b6000600019821415614a3d57614a3d6148e7565b5060010190565b600082821015614a5657614a566148e7565b500390565b7f5065726d697373696f6e733a206163636f756e74200000000000000000000000815260008351614a93816015850160208801613fa3565b7f206973206d697373696e6720726f6c65200000000000000000000000000000006015918401918201528351614ad0816026840160208801613fa3565b01602601949350505050565b600060808284031215614aee57600080fd5b6040516080810181811067ffffffffffffffff82111715614b1157614b11614095565b6040528235614b1f81614027565b81526020830135614b2f81614915565b6020820152604083810135908201526060928301359281019290925250919050565b6020808252602b908201527f496e697469616c697a61626c653a20636f6e7472616374206973206e6f74206960408201526a6e697469616c697a696e6760a81b606082015260800190565b604081526000614baf6040830185613fcf565b828103602084015261290d8185613fcf565b60008251614bd3818460208701613fa3565b9190910192915050565b600081614bec57614bec6148e7565b506000190190565b8135614bff81614027565b6001600160a01b03811690508154816001600160a01b031982161783556020840135614c2a81614915565b60038110614c4857634e487b7160e01b600052602160045260246000fd5b74ffffffffffffffffffffffffffffffffffffffffff199190911690911760a09190911b60ff60a01b1617815560408201356001820155606090910135600290910155565b60006001600160a01b03808716835280861660208401525083604083015260806060830152614cbf6080830184613fcf565b9695505050505050565b600060208284031215614cdb57600080fd5b8151612c9f81613f70565b600060208284031215614cf857600080fd5b8151612c9f81614590565b600060033d11156129be5760046000803e5060005160e01c90565b600060443d1015614d2c5790565b6040516003193d81016004833e81513d67ffffffffffffffff8160248401118184111715614d5c57505050505090565b8285019150815181811115614d745750505050505090565b843d8701016020828501011115614d8e5750505050505090565b614d9d602082860101876140ab565b50909594505050505056fe416464726573733a206c6f772d6c6576656c2064656c65676174652063616c6c206661696c6564a2646970667358221220a5398eb349120941be32aadf84c606645f6d4e6f3f364ac1309e20bd0dc7120f64736f6c634300080c0033",
  "linkReferences": {},
  "deployedLinkReferences": {}
}