{
  "_format": "hh-sol-artifact-1",
  "contractName": "Multicall",
  "sourceName": "contracts/extension/Multicall.sol",
  "abi": [
    {
      "inputs": [
        {
          "internalType": "bytes[]",
          "name": "data",
          "type": "bytes[]"
        }
      ],
      "name": "multicall",
      "outputs": [
        {
          "internalType": "bytes[]",
          "name": "results",
          "type": "bytes[]"
        }
      ],
      "stateMutability": "nonpayable",
      "type": "function"
    }
  ],
  "bytecode": "0x608060405234801561001057600080fd5b50610511806100206000396000f3fe608060405234801561001057600080fd5b506004361061002b5760003560e01c8063ac9650d814610030575b600080fd5b61004361003e3660046102af565b610059565b6040516100509190610380565b60405180910390f35b60608167ffffffffffffffff811115610074576100746103e2565b6040519080825280602002602001820160405280156100a757816020015b60608152602001906001900390816100925790505b50905060005b8281101561014757610117308585848181106100cb576100cb6103f8565b90506020028101906100dd919061040e565b8080601f01602080910402602001604051908101604052809392919081815260200183838082843760009201919091525061014e92505050565b828281518110610129576101296103f8565b6020026020010181905250808061013f9061045c565b9150506100ad565b5092915050565b606061017383836040518060600160405280602781526020016104b56027913961017a565b9392505050565b606073ffffffffffffffffffffffffffffffffffffffff84163b6101f45760405162461bcd60e51b815260206004820152602660248201527f416464726573733a2064656c65676174652063616c6c20746f206e6f6e2d636f6044820152651b9d1c9858dd60d21b60648201526084015b60405180910390fd5b6000808573ffffffffffffffffffffffffffffffffffffffff168560405161021c9190610485565b600060405180830381855af49150503d8060008114610257576040519150601f19603f3d011682016040523d82523d6000602084013e61025c565b606091505b509150915061026c828286610276565b9695505050505050565b60608315610285575081610173565b8251156102955782518084602001fd5b8160405162461bcd60e51b81526004016101eb91906104a1565b600080602083850312156102c257600080fd5b823567ffffffffffffffff808211156102da57600080fd5b818501915085601f8301126102ee57600080fd5b8135818111156102fd57600080fd5b8660208260051b850101111561031257600080fd5b60209290920196919550909350505050565b60005b8381101561033f578181015183820152602001610327565b8381111561034e576000848401525b50505050565b6000815180845261036c816020860160208601610324565b601f01601f19169290920160200192915050565b6000602080830181845280855180835260408601915060408160051b870101925083870160005b828110156103d557603f198886030184526103c3858351610354565b945092850192908501906001016103a7565b5092979650505050505050565b634e487b7160e01b600052604160045260246000fd5b634e487b7160e01b600052603260045260246000fd5b6000808335601e1984360301811261042557600080fd5b83018035915067ffffffffffffffff82111561044057600080fd5b60200191503681900382131561045557600080fd5b9250929050565b600060001982141561047e57634e487b7160e01b600052601160045260246000fd5b5060010190565b60008251610497818460208701610324565b9190910192915050565b602081526000610173602083018461035456fe416464726573733a206c6f772d6c6576656c2064656c65676174652063616c6c206661696c6564a2646970667358221220c86293a218cf990fe88f29b178408639b3109f01ae15259e183cf059e5ec30f464736f6c634300080c0033",
  "linkReferences": {},
  "deployedLinkReferences": {}
}