{
  "_format": "hh-sol-artifact-1",
  "contractName": "PaymentSplitterUpgradeable",
  "sourceName": "contracts/openzeppelin-presets/finance/PaymentSplitterUpgradeable.sol",
  "abi": [
    {
      "anonymous": false,
      "inputs": [
        {
          "indexed": true,
          "internalType": "contract IERC20Upgradeable",
          "name": "token",
          "type": "address"
        },
        {
          "indexed": false,
          "internalType": "address",
          "name": "to",
          "type": "address"
        },
        {
          "indexed": false,
          "internalType": "uint256",
          "name": "amount",
          "type": "uint256"
        }
      ],
      "name": "ERC20PaymentReleased",
      "type": "event"
    },
    {
      "anonymous": false,
      "inputs": [
        {
          "indexed": false,
          "internalType": "uint8",
          "name": "version",
          "type": "uint8"
        }
      ],
      "name": "Initialized",
      "type": "event"
    },
    {
      "anonymous": false,
      "inputs": [
        {
          "indexed": false,
          "internalType": "address",
          "name": "account",
          "type": "address"
        },
        {
          "indexed": false,
          "internalType": "uint256",
          "name": "shares",
          "type": "uint256"
        }
      ],
      "name": "PayeeAdded",
      "type": "event"
    },
    {
      "anonymous": false,
      "inputs": [
        {
          "indexed": false,
          "internalType": "address",
          "name": "from",
          "type": "address"
        },
        {
          "indexed": false,
          "internalType": "uint256",
          "name": "amount",
          "type": "uint256"
        }
      ],
      "name": "PaymentReceived",
      "type": "event"
    },
    {
      "anonymous": false,
      "inputs": [
        {
          "indexed": false,
          "internalType": "address",
          "name": "to",
          "type": "address"
        },
        {
          "indexed": false,
          "internalType": "uint256",
          "name": "amount",
          "type": "uint256"
        }
      ],
      "name": "PaymentReleased",
      "type": "event"
    },
    {
      "inputs": [
        {
          "internalType": "uint256",
          "name": "index",
          "type": "uint256"
        }
      ],
      "name": "payee",
      "outputs": [
        {
          "internalType": "address",
          "name": "",
          "type": "address"
        }
      ],
      "stateMutability": "view",
      "type": "function"
    },
    {
      "inputs": [],
      "name": "payeeCount",
      "outputs": [
        {
          "internalType": "uint256",
          "name": "",
          "type": "uint256"
        }
      ],
      "stateMutability": "view",
      "type": "function"
    },
    {
      "inputs": [
        {
          "internalType": "address",
          "name": "account",
          "type": "address"
        }
      ],
      "name": "releasable",
      "outputs": [
        {
          "internalType": "uint256",
          "name": "",
          "type": "uint256"
        }
      ],
      "stateMutability": "view",
      "type": "function"
    },
    {
      "inputs": [
        {
          "internalType": "contract IERC20Upgradeable",
          "name": "token",
          "type": "address"
        },
        {
          "internalType": "address",
          "name": "account",
          "type": "address"
        }
      ],
      "name": "releasable",
      "outputs": [
        {
          "internalType": "uint256",
          "name": "",
          "type": "uint256"
        }
      ],
      "stateMutability": "view",
      "type": "function"
    },
    {
      "inputs": [
        {
          "internalType": "address payable",
          "name": "account",
          "type": "address"
        }
      ],
      "name": "release",
      "outputs": [],
      "stateMutability": "nonpayable",
      "type": "function"
    },
    {
      "inputs": [
        {
          "internalType": "contract IERC20Upgradeable",
          "name": "token",
          "type": "address"
        },
        {
          "internalType": "address",
          "name": "account",
          "type": "address"
        }
      ],
      "name": "release",
      "outputs": [],
      "stateMutability": "nonpayable",
      "type": "function"
    },
    {
      "inputs": [
        {
          "internalType": "contract IERC20Upgradeable",
          "name": "token",
          "type": "address"
        },
        {
          "internalType": "address",
          "name": "account",
          "type": "address"
        }
      ],
      "name": "released",
      "outputs": [
        {
          "internalType": "uint256",
          "name": "",
          "type": "uint256"
        }
      ],
      "stateMutability": "view",
      "type": "function"
    },
    {
      "inputs": [
        {
          "internalType": "address",
          "name": "account",
          "type": "address"
        }
      ],
      "name": "released",
      "outputs": [
        {
          "internalType": "uint256",
          "name": "",
          "type": "uint256"
        }
      ],
      "stateMutability": "view",
      "type": "function"
    },
    {
      "inputs": [
        {
          "internalType": "address",
          "name": "account",
          "type": "address"
        }
      ],
      "name": "shares",
      "outputs": [
        {
          "internalType": "uint256",
          "name": "",
          "type": "uint256"
        }
      ],
      "stateMutability": "view",
      "type": "function"
    },
    {
      "inputs": [
        {
          "internalType": "contract IERC20Upgradeable",
          "name": "token",
          "type": "address"
        }
      ],
      "name": "totalReleased",
      "outputs": [
        {
          "internalType": "uint256",
          "name": "",
          "type": "uint256"
        }
      ],
      "stateMutability": "view",
      "type": "function"
    },
    {
      "inputs": [],
      "name": "totalReleased",
      "outputs": [
        {
          "internalType": "uint256",
          "name": "",
          "type": "uint256"
        }
      ],
      "stateMutability": "view",
      "type": "function"
    },
    {
      "inputs": [],
      "name": "totalShares",
      "outputs": [
        {
          "internalType": "uint256",
          "name": "",
          "type": "uint256"
        }
      ],
      "stateMutability": "view",
      "type": "function"
    },
    {
      "stateMutability": "payable",
      "type": "receive"
    }
  ],
  "bytecode": "0x608060405234801561001057600080fd5b50610d28806100206000396000f3fe6080604052600436106100ca5760003560e01c80639852595c11610074578063ce7c2ac21161004e578063ce7c2ac214610287578063d79779b2146102bd578063e33b7de3146102f357600080fd5b80639852595c14610211578063a3f8eace14610247578063c45ac0501461026757600080fd5b8063406072a9116100a5578063406072a91461017357806348b75044146101b95780638b83209b146101d957600080fd5b8062dbe10914610118578063191655871461013c5780633a98ef391461015e57600080fd5b36610113577f6ef95f06320e7a25a04a175ca677b7052bdd97131872c2192525a629f51be77033604080516001600160a01b0390921682523460208301520160405180910390a1005b600080fd5b34801561012457600080fd5b506037545b6040519081526020015b60405180910390f35b34801561014857600080fd5b5061015c610157366004610b2d565b610308565b005b34801561016a57600080fd5b50603354610129565b34801561017f57600080fd5b5061012961018e366004610b4a565b6001600160a01b03918216600090815260396020908152604080832093909416825291909152205490565b3480156101c557600080fd5b5061015c6101d4366004610b4a565b610486565b3480156101e557600080fd5b506101f96101f4366004610b83565b610629565b6040516001600160a01b039091168152602001610133565b34801561021d57600080fd5b5061012961022c366004610b2d565b6001600160a01b031660009081526036602052604090205490565b34801561025357600080fd5b50610129610262366004610b2d565b610659565b34801561027357600080fd5b50610129610282366004610b4a565b6106a1565b34801561029357600080fd5b506101296102a2366004610b2d565b6001600160a01b031660009081526035602052604090205490565b3480156102c957600080fd5b506101296102d8366004610b2d565b6001600160a01b031660009081526038602052604090205490565b3480156102ff57600080fd5b50603454610129565b6001600160a01b0381166000908152603560205260409020546103815760405162461bcd60e51b815260206004820152602660248201527f5061796d656e7453706c69747465723a206163636f756e7420686173206e6f2060448201526573686172657360d01b60648201526084015b60405180910390fd5b600061038c82610659565b9050806103ef5760405162461bcd60e51b815260206004820152602b60248201527f5061796d656e7453706c69747465723a206163636f756e74206973206e6f742060448201526a191d59481c185e5b595b9d60aa1b6064820152608401610378565b6001600160a01b03821660009081526036602052604081208054839290610417908490610bb2565b9250508190555080603460008282546104309190610bb2565b909155506104409050828261076c565b604080516001600160a01b0384168152602081018390527fdf20fd1e76bc69d672e4814fafb2c449bba3a5369d8359adf9e05e6fde87b056910160405180910390a15050565b6001600160a01b0381166000908152603560205260409020546104fa5760405162461bcd60e51b815260206004820152602660248201527f5061796d656e7453706c69747465723a206163636f756e7420686173206e6f2060448201526573686172657360d01b6064820152608401610378565b600061050683836106a1565b9050806105695760405162461bcd60e51b815260206004820152602b60248201527f5061796d656e7453706c69747465723a206163636f756e74206973206e6f742060448201526a191d59481c185e5b595b9d60aa1b6064820152608401610378565b6001600160a01b038084166000908152603960209081526040808320938616835292905290812080548392906105a0908490610bb2565b90915550506001600160a01b038316600090815260386020526040812080548392906105cd908490610bb2565b909155506105de905083838361088a565b604080516001600160a01b038481168252602082018490528516917f3be5b7a71e84ed12875d241991c70855ac5817d847039e17a9d895c1ceb0f18a910160405180910390a2505050565b60006037828154811061063e5761063e610bca565b6000918252602090912001546001600160a01b031692915050565b60008061066560345490565b61066f9047610bb2565b905061069a8382610695866001600160a01b031660009081526036602052604090205490565b6108f1565b9392505050565b6001600160a01b03821660009081526038602052604081205481906040516370a0823160e01b81523060048201526001600160a01b038616906370a0823190602401602060405180830381865afa158015610700573d6000803e3d6000fd5b505050506040513d601f19601f820116820180604052508101906107249190610be0565b61072e9190610bb2565b6001600160a01b0380861660009081526039602090815260408083209388168352929052205490915061076490849083906108f1565b949350505050565b804710156107bc5760405162461bcd60e51b815260206004820152601d60248201527f416464726573733a20696e73756666696369656e742062616c616e63650000006044820152606401610378565b6000826001600160a01b03168260405160006040518083038185875af1925050503d8060008114610809576040519150601f19603f3d011682016040523d82523d6000602084013e61080e565b606091505b50509050806108855760405162461bcd60e51b815260206004820152603a60248201527f416464726573733a20756e61626c6520746f2073656e642076616c75652c207260448201527f6563697069656e74206d617920686176652072657665727465640000000000006064820152608401610378565b505050565b604080516001600160a01b038416602482015260448082018490528251808303909101815260649091019091526020810180517bffffffffffffffffffffffffffffffffffffffffffffffffffffffff1663a9059cbb60e01b17905261088590849061092f565b6033546001600160a01b0384166000908152603560205260408120549091839161091b9086610bf9565b6109259190610c18565b6107649190610c3a565b6000610984826040518060400160405280602081526020017f5361666545524332303a206c6f772d6c6576656c2063616c6c206661696c6564815250856001600160a01b0316610a019092919063ffffffff16565b80519091501561088557808060200190518101906109a29190610c51565b6108855760405162461bcd60e51b815260206004820152602a60248201527f5361666545524332303a204552433230206f7065726174696f6e20646964206e6044820152691bdd081cdd58d8d9595960b21b6064820152608401610378565b60606107648484600085856001600160a01b0385163b610a635760405162461bcd60e51b815260206004820152601d60248201527f416464726573733a2063616c6c20746f206e6f6e2d636f6e74726163740000006044820152606401610378565b600080866001600160a01b03168587604051610a7f9190610ca3565b60006040518083038185875af1925050503d8060008114610abc576040519150601f19603f3d011682016040523d82523d6000602084013e610ac1565b606091505b5091509150610ad1828286610adc565b979650505050505050565b60608315610aeb57508161069a565b825115610afb5782518084602001fd5b8160405162461bcd60e51b81526004016103789190610cbf565b6001600160a01b0381168114610b2a57600080fd5b50565b600060208284031215610b3f57600080fd5b813561069a81610b15565b60008060408385031215610b5d57600080fd5b8235610b6881610b15565b91506020830135610b7881610b15565b809150509250929050565b600060208284031215610b9557600080fd5b5035919050565b634e487b7160e01b600052601160045260246000fd5b60008219821115610bc557610bc5610b9c565b500190565b634e487b7160e01b600052603260045260246000fd5b600060208284031215610bf257600080fd5b5051919050565b6000816000190483118215151615610c1357610c13610b9c565b500290565b600082610c3557634e487b7160e01b600052601260045260246000fd5b500490565b600082821015610c4c57610c4c610b9c565b500390565b600060208284031215610c6357600080fd5b8151801515811461069a57600080fd5b60005b83811015610c8e578181015183820152602001610c76565b83811115610c9d576000848401525b50505050565b60008251610cb5818460208701610c73565b9190910192915050565b6020815260008251806020840152610cde816040850160208701610c73565b601f01601f1916919091016040019291505056fea26469706673582212208c261052b1132d54beacaa5b6585527ff5963ad2d8639021df2a73f159c84e7364736f6c634300080c0033",
  "linkReferences": {},
  "deployedLinkReferences": {}
}