{
  "_format": "hh-sol-artifact-1",
  "contractName": "PermissionsEnumerable",
  "sourceName": "contracts/extension/PermissionsEnumerable.sol",
  "abi": [
    {
      "anonymous": false,
      "inputs": [
        {
          "indexed": true,
          "internalType": "bytes32",
          "name": "role",
          "type": "bytes32"
        },
        {
          "indexed": true,
          "internalType": "bytes32",
          "name": "previousAdminRole",
          "type": "bytes32"
        },
        {
          "indexed": true,
          "internalType": "bytes32",
          "name": "newAdminRole",
          "type": "bytes32"
        }
      ],
      "name": "RoleAdminChanged",
      "type": "event"
    },
    {
      "anonymous": false,
      "inputs": [
        {
          "indexed": true,
          "internalType": "bytes32",
          "name": "role",
          "type": "bytes32"
        },
        {
          "indexed": true,
          "internalType": "address",
          "name": "account",
          "type": "address"
        },
        {
          "indexed": true,
          "internalType": "address",
          "name": "sender",
          "type": "address"
        }
      ],
      "name": "RoleGranted",
      "type": "event"
    },
    {
      "anonymous": false,
      "inputs": [
        {
          "indexed": true,
          "internalType": "bytes32",
          "name": "role",
          "type": "bytes32"
        },
        {
          "indexed": true,
          "internalType": "address",
          "name": "account",
          "type": "address"
        },
        {
          "indexed": true,
          "internalType": "address",
          "name": "sender",
          "type": "address"
        }
      ],
      "name": "RoleRevoked",
      "type": "event"
    },
    {
      "inputs": [],
      "name": "DEFAULT_ADMIN_ROLE",
      "outputs": [
        {
          "internalType": "bytes32",
          "name": "",
          "type": "bytes32"
        }
      ],
      "stateMutability": "view",
      "type": "function"
    },
    {
      "inputs": [
        {
          "internalType": "bytes32",
          "name": "role",
          "type": "bytes32"
        }
      ],
      "name": "getRoleAdmin",
      "outputs": [
        {
          "internalType": "bytes32",
          "name": "",
          "type": "bytes32"
        }
      ],
      "stateMutability": "view",
      "type": "function"
    },
    {
      "inputs": [
        {
          "internalType": "bytes32",
          "name": "role",
          "type": "bytes32"
        },
        {
          "internalType": "uint256",
          "name": "index",
          "type": "uint256"
        }
      ],
      "name": "getRoleMember",
      "outputs": [
        {
          "internalType": "address",
          "name": "member",
          "type": "address"
        }
      ],
      "stateMutability": "view",
      "type": "function"
    },
    {
      "inputs": [
        {
          "internalType": "bytes32",
          "name": "role",
          "type": "bytes32"
        }
      ],
      "name": "getRoleMemberCount",
      "outputs": [
        {
          "internalType": "uint256",
          "name": "count",
          "type": "uint256"
        }
      ],
      "stateMutability": "view",
      "type": "function"
    },
    {
      "inputs": [
        {
          "internalType": "bytes32",
          "name": "role",
          "type": "bytes32"
        },
        {
          "internalType": "address",
          "name": "account",
          "type": "address"
        }
      ],
      "name": "grantRole",
      "outputs": [],
      "stateMutability": "nonpayable",
      "type": "function"
    },
    {
      "inputs": [
        {
          "internalType": "bytes32",
          "name": "role",
          "type": "bytes32"
        },
        {
          "internalType": "address",
          "name": "account",
          "type": "address"
        }
      ],
      "name": "hasRole",
      "outputs": [
        {
          "internalType": "bool",
          "name": "",
          "type": "bool"
        }
      ],
      "stateMutability": "view",
      "type": "function"
    },
    {
      "inputs": [
        {
          "internalType": "bytes32",
          "name": "role",
          "type": "bytes32"
        },
        {
          "internalType": "address",
          "name": "account",
          "type": "address"
        }
      ],
      "name": "hasRoleWithSwitch",
      "outputs": [
        {
          "internalType": "bool",
          "name": "",
          "type": "bool"
        }
      ],
      "stateMutability": "view",
      "type": "function"
    },
    {
      "inputs": [
        {
          "internalType": "bytes32",
          "name": "role",
          "type": "bytes32"
        },
        {
          "internalType": "address",
          "name": "account",
          "type": "address"
        }
      ],
      "name": "renounceRole",
      "outputs": [],
      "stateMutability": "nonpayable",
      "type": "function"
    },
    {
      "inputs": [
        {
          "internalType": "bytes32",
          "name": "role",
          "type": "bytes32"
        },
        {
          "internalType": "address",
          "name": "account",
          "type": "address"
        }
      ],
      "name": "revokeRole",
      "outputs": [],
      "stateMutability": "nonpayable",
      "type": "function"
    }
  ],
  "bytecode": "0x608060405234801561001057600080fd5b50610a9c806100206000396000f3fe608060405234801561001057600080fd5b50600436106100935760003560e01c806391d148541161006657806391d148541461011e578063a217fddf14610165578063a32fa5b31461016d578063ca15c87314610180578063d547741f1461019357600080fd5b8063248a9ca3146100985780632f2ff15d146100cb57806336568abe146100e05780639010d07c146100f3575b600080fd5b6100b86100a636600461087b565b60009081526001602052604090205490565b6040519081526020015b60405180910390f35b6100de6100d9366004610894565b6101a6565b005b6100de6100ee366004610894565b610243565b6101066101013660046108d0565b6102a5565b6040516001600160a01b0390911681526020016100c2565b61015561012c366004610894565b6000918252602082815260408084206001600160a01b0393909316845291905290205460ff1690565b60405190151581526020016100c2565b6100b8600081565b61015561017b366004610894565b6103a4565b6100b861018e36600461087b565b6103f6565b6100de6101a1366004610894565b61048f565b6000828152600160205260409020546101bf90336104a4565b6000828152602081815260408083206001600160a01b038516845290915290205460ff16156102355760405162461bcd60e51b815260206004820152601d60248201527f43616e206f6e6c79206772616e7420746f206e6f6e20686f6c6465727300000060448201526064015b60405180910390fd5b61023f8282610522565b5050565b336001600160a01b0382161461029b5760405162461bcd60e51b815260206004820152601a60248201527f43616e206f6e6c792072656e6f756e636520666f722073656c66000000000000604482015260640161022c565b61023f8282610536565b60008281526002602052604081205481805b8281101561039a5760008681526002602090815260408083208484526001019091529020546001600160a01b03161561033457848214156103225760008681526002602090815260408083209383526001909301905220546001600160a01b0316925061039e915050565b61032d600183610908565b9150610388565b60008681526020818152604080832083805290915290205460ff16801561037557506000868152600260208181526040808420848052909201905290205481145b1561038857610385600183610908565b91505b610393600182610908565b90506102b7565b5050505b92915050565b60008281526020818152604080832083805290915281205460ff166103ed57506000828152602081815260408083206001600160a01b038516845290915290205460ff1661039e565b50600192915050565b600081815260026020526040812054815b8181101561045a5760008481526002602090815260408083208484526001019091529020546001600160a01b03161561044857610445600184610908565b92505b610453600182610908565b9050610407565b5060008381526020818152604080832083805290915290205460ff161561048957610486600183610908565b91505b50919050565b60008281526001602052604090205461029b90335b6000828152602081815260408083206001600160a01b038516845290915290205460ff1661023f576104e0816001600160a01b03166014610599565b6104eb836020610599565b6040516020016104fc929190610950565b60408051601f198184030181529082905262461bcd60e51b825261022c916004016109d1565b61052c8282610749565b61023f82826107a2565b610540828261081b565b60009182526002602081815260408085206001600160a01b03949094168086529284018083528186208054875260019095018352908520805473ffffffffffffffffffffffffffffffffffffffff191690559184525255565b606060006105a8836002610a04565b6105b3906002610908565b67ffffffffffffffff8111156105cb576105cb610a23565b6040519080825280601f01601f1916602001820160405280156105f5576020820181803683370190505b509050600360fc1b8160008151811061061057610610610a39565b60200101906001600160f81b031916908160001a905350600f60fb1b8160018151811061063f5761063f610a39565b60200101906001600160f81b031916908160001a9053506000610663846002610a04565b61066e906001610908565b90505b60018111156106f3577f303132333435363738396162636465660000000000000000000000000000000085600f16601081106106af576106af610a39565b1a60f81b8282815181106106c5576106c5610a39565b60200101906001600160f81b031916908160001a90535060049490941c936106ec81610a4f565b9050610671565b5083156107425760405162461bcd60e51b815260206004820181905260248201527f537472696e67733a20686578206c656e67746820696e73756666696369656e74604482015260640161022c565b9392505050565b6000828152602081815260408083206001600160a01b0385168085529252808320805460ff1916600117905551339285917f2f8788117e7eff1d82e926ec794901d17c78024a50270940304540a733656f0d9190a45050565b6000828152600260205260408120805491600191906107c18385610908565b9091555050600092835260026020818152604080862084875260018101835281872080546001600160a01b0390971673ffffffffffffffffffffffffffffffffffffffff1990971687179055948652939091019052912055565b61082582826104a4565b6000828152602081815260408083206001600160a01b0385168085529252808320805460ff1916905551339285917ff6391f5c32d9c69d2a47ea670b442974b53935d1edc7fd64eb21e047a839171b9190a45050565b60006020828403121561088d57600080fd5b5035919050565b600080604083850312156108a757600080fd5b8235915060208301356001600160a01b03811681146108c557600080fd5b809150509250929050565b600080604083850312156108e357600080fd5b50508035926020909101359150565b634e487b7160e01b600052601160045260246000fd5b6000821982111561091b5761091b6108f2565b500190565b60005b8381101561093b578181015183820152602001610923565b8381111561094a576000848401525b50505050565b7f5065726d697373696f6e733a206163636f756e74200000000000000000000000815260008351610988816015850160208801610920565b7f206973206d697373696e6720726f6c652000000000000000000000000000000060159184019182015283516109c5816026840160208801610920565b01602601949350505050565b60208152600082518060208401526109f0816040850160208701610920565b601f01601f19169190910160400192915050565b6000816000190483118215151615610a1e57610a1e6108f2565b500290565b634e487b7160e01b600052604160045260246000fd5b634e487b7160e01b600052603260045260246000fd5b600081610a5e57610a5e6108f2565b50600019019056fea264697066735822122031bd3659cb552a91114530910dd849022d57bf837ada2c9a190b1446eab6268b64736f6c634300080c0033",
  "linkReferences": {},
  "deployedLinkReferences": {}
}