{
  "_format": "hh-sol-artifact-1",
  "contractName": "SignatureDrop",
  "sourceName": "contracts/signature-drop/SignatureDrop.sol",
  "abi": [
    {
      "inputs": [],
      "name": "ApprovalCallerNotOwnerNorApproved",
      "type": "error"
    },
    {
      "inputs": [],
      "name": "ApprovalQueryForNonexistentToken",
      "type": "error"
    },
    {
      "inputs": [],
      "name": "ApprovalToCurrentOwner",
      "type": "error"
    },
    {
      "inputs": [],
      "name": "ApproveToCaller",
      "type": "error"
    },
    {
      "inputs": [],
      "name": "BalanceQueryForZeroAddress",
      "type": "error"
    },
    {
      "inputs": [],
      "name": "MintToZeroAddress",
      "type": "error"
    },
    {
      "inputs": [],
      "name": "MintZeroQuantity",
      "type": "error"
    },
    {
      "inputs": [],
      "name": "OwnerQueryForNonexistentToken",
      "type": "error"
    },
    {
      "inputs": [],
      "name": "TransferCallerNotOwnerNorApproved",
      "type": "error"
    },
    {
      "inputs": [],
      "name": "TransferFromIncorrectOwner",
      "type": "error"
    },
    {
      "inputs": [],
      "name": "TransferToNonERC721ReceiverImplementer",
      "type": "error"
    },
    {
      "inputs": [],
      "name": "TransferToZeroAddress",
      "type": "error"
    },
    {
      "inputs": [],
      "name": "URIQueryForNonexistentToken",
      "type": "error"
    },
    {
      "anonymous": false,
      "inputs": [
        {
          "indexed": true,
          "internalType": "address",
          "name": "owner",
          "type": "address"
        },
        {
          "indexed": true,
          "internalType": "address",
          "name": "approved",
          "type": "address"
        },
        {
          "indexed": true,
          "internalType": "uint256",
          "name": "tokenId",
          "type": "uint256"
        }
      ],
      "name": "Approval",
      "type": "event"
    },
    {
      "anonymous": false,
      "inputs": [
        {
          "indexed": true,
          "internalType": "address",
          "name": "owner",
          "type": "address"
        },
        {
          "indexed": true,
          "internalType": "address",
          "name": "operator",
          "type": "address"
        },
        {
          "indexed": false,
          "internalType": "bool",
          "name": "approved",
          "type": "bool"
        }
      ],
      "name": "ApprovalForAll",
      "type": "event"
    },
    {
      "anonymous": false,
      "inputs": [
        {
          "components": [
            {
              "internalType": "uint256",
              "name": "startTimestamp",
              "type": "uint256"
            },
            {
              "internalType": "uint256",
              "name": "maxClaimableSupply",
              "type": "uint256"
            },
            {
              "internalType": "uint256",
              "name": "supplyClaimed",
              "type": "uint256"
            },
            {
              "internalType": "uint256",
              "name": "quantityLimitPerTransaction",
              "type": "uint256"
            },
            {
              "internalType": "uint256",
              "name": "waitTimeInSecondsBetweenClaims",
              "type": "uint256"
            },
            {
              "internalType": "bytes32",
              "name": "merkleRoot",
              "type": "bytes32"
            },
            {
              "internalType": "uint256",
              "name": "pricePerToken",
              "type": "uint256"
            },
            {
              "internalType": "address",
              "name": "currency",
              "type": "address"
            }
          ],
          "indexed": false,
          "internalType": "struct IClaimCondition.ClaimCondition",
          "name": "condition",
          "type": "tuple"
        },
        {
          "indexed": false,
          "internalType": "bool",
          "name": "resetEligibility",
          "type": "bool"
        }
      ],
      "name": "ClaimConditionUpdated",
      "type": "event"
    },
    {
      "anonymous": false,
      "inputs": [
        {
          "indexed": false,
          "internalType": "string",
          "name": "prevURI",
          "type": "string"
        },
        {
          "indexed": false,
          "internalType": "string",
          "name": "newURI",
          "type": "string"
        }
      ],
      "name": "ContractURIUpdated",
      "type": "event"
    },
    {
      "anonymous": false,
      "inputs": [
        {
          "indexed": true,
          "internalType": "address",
          "name": "newRoyaltyRecipient",
          "type": "address"
        },
        {
          "indexed": false,
          "internalType": "uint256",
          "name": "newRoyaltyBps",
          "type": "uint256"
        }
      ],
      "name": "DefaultRoyalty",
      "type": "event"
    },
    {
      "anonymous": false,
      "inputs": [
        {
          "indexed": false,
          "internalType": "uint8",
          "name": "version",
          "type": "uint8"
        }
      ],
      "name": "Initialized",
      "type": "event"
    },
    {
      "anonymous": false,
      "inputs": [
        {
          "indexed": true,
          "internalType": "address",
          "name": "prevOwner",
          "type": "address"
        },
        {
          "indexed": true,
          "internalType": "address",
          "name": "newOwner",
          "type": "address"
        }
      ],
      "name": "OwnerUpdated",
      "type": "event"
    },
    {
      "anonymous": false,
      "inputs": [
        {
          "indexed": true,
          "internalType": "address",
          "name": "platformFeeRecipient",
          "type": "address"
        },
        {
          "indexed": false,
          "internalType": "uint256",
          "name": "platformFeeBps",
          "type": "uint256"
        }
      ],
      "name": "PlatformFeeInfoUpdated",
      "type": "event"
    },
    {
      "anonymous": false,
      "inputs": [
        {
          "indexed": true,
          "internalType": "address",
          "name": "recipient",
          "type": "address"
        }
      ],
      "name": "PrimarySaleRecipientUpdated",
      "type": "event"
    },
    {
      "anonymous": false,
      "inputs": [
        {
          "indexed": true,
          "internalType": "bytes32",
          "name": "role",
          "type": "bytes32"
        },
        {
          "indexed": true,
          "internalType": "bytes32",
          "name": "previousAdminRole",
          "type": "bytes32"
        },
        {
          "indexed": true,
          "internalType": "bytes32",
          "name": "newAdminRole",
          "type": "bytes32"
        }
      ],
      "name": "RoleAdminChanged",
      "type": "event"
    },
    {
      "anonymous": false,
      "inputs": [
        {
          "indexed": true,
          "internalType": "bytes32",
          "name": "role",
          "type": "bytes32"
        },
        {
          "indexed": true,
          "internalType": "address",
          "name": "account",
          "type": "address"
        },
        {
          "indexed": true,
          "internalType": "address",
          "name": "sender",
          "type": "address"
        }
      ],
      "name": "RoleGranted",
      "type": "event"
    },
    {
      "anonymous": false,
      "inputs": [
        {
          "indexed": true,
          "internalType": "bytes32",
          "name": "role",
          "type": "bytes32"
        },
        {
          "indexed": true,
          "internalType": "address",
          "name": "account",
          "type": "address"
        },
        {
          "indexed": true,
          "internalType": "address",
          "name": "sender",
          "type": "address"
        }
      ],
      "name": "RoleRevoked",
      "type": "event"
    },
    {
      "anonymous": false,
      "inputs": [
        {
          "indexed": true,
          "internalType": "uint256",
          "name": "tokenId",
          "type": "uint256"
        },
        {
          "indexed": true,
          "internalType": "address",
          "name": "royaltyRecipient",
          "type": "address"
        },
        {
          "indexed": false,
          "internalType": "uint256",
          "name": "royaltyBps",
          "type": "uint256"
        }
      ],
      "name": "RoyaltyForToken",
      "type": "event"
    },
    {
      "anonymous": false,
      "inputs": [
        {
          "indexed": true,
          "internalType": "uint256",
          "name": "index",
          "type": "uint256"
        },
        {
          "indexed": false,
          "internalType": "string",
          "name": "revealedURI",
          "type": "string"
        }
      ],
      "name": "TokenURIRevealed",
      "type": "event"
    },
    {
      "anonymous": false,
      "inputs": [
        {
          "indexed": true,
          "internalType": "address",
          "name": "claimer",
          "type": "address"
        },
        {
          "indexed": true,
          "internalType": "address",
          "name": "receiver",
          "type": "address"
        },
        {
          "indexed": true,
          "internalType": "uint256",
          "name": "startTokenId",
          "type": "uint256"
        },
        {
          "indexed": false,
          "internalType": "uint256",
          "name": "quantityClaimed",
          "type": "uint256"
        }
      ],
      "name": "TokensClaimed",
      "type": "event"
    },
    {
      "anonymous": false,
      "inputs": [
        {
          "indexed": true,
          "internalType": "uint256",
          "name": "startTokenId",
          "type": "uint256"
        },
        {
          "indexed": false,
          "internalType": "uint256",
          "name": "endTokenId",
          "type": "uint256"
        },
        {
          "indexed": false,
          "internalType": "string",
          "name": "baseURI",
          "type": "string"
        },
        {
          "indexed": false,
          "internalType": "bytes",
          "name": "encryptedBaseURI",
          "type": "bytes"
        }
      ],
      "name": "TokensLazyMinted",
      "type": "event"
    },
    {
      "anonymous": false,
      "inputs": [
        {
          "indexed": true,
          "internalType": "address",
          "name": "signer",
          "type": "address"
        },
        {
          "indexed": true,
          "internalType": "address",
          "name": "mintedTo",
          "type": "address"
        },
        {
          "indexed": true,
          "internalType": "uint256",
          "name": "tokenIdMinted",
          "type": "uint256"
        },
        {
          "components": [
            {
              "internalType": "address",
              "name": "to",
              "type": "address"
            },
            {
              "internalType": "address",
              "name": "royaltyRecipient",
              "type": "address"
            },
            {
              "internalType": "uint256",
              "name": "royaltyBps",
              "type": "uint256"
            },
            {
              "internalType": "address",
              "name": "primarySaleRecipient",
              "type": "address"
            },
            {
              "internalType": "string",
              "name": "uri",
              "type": "string"
            },
            {
              "internalType": "uint256",
              "name": "quantity",
              "type": "uint256"
            },
            {
              "internalType": "uint256",
              "name": "pricePerToken",
              "type": "uint256"
            },
            {
              "internalType": "address",
              "name": "currency",
              "type": "address"
            },
            {
              "internalType": "uint128",
              "name": "validityStartTimestamp",
              "type": "uint128"
            },
            {
              "internalType": "uint128",
              "name": "validityEndTimestamp",
              "type": "uint128"
            },
            {
              "internalType": "bytes32",
              "name": "uid",
              "type": "bytes32"
            }
          ],
          "indexed": false,
          "internalType": "struct ISignatureMintERC721.MintRequest",
          "name": "mintRequest",
          "type": "tuple"
        }
      ],
      "name": "TokensMintedWithSignature",
      "type": "event"
    },
    {
      "anonymous": false,
      "inputs": [
        {
          "indexed": true,
          "internalType": "address",
          "name": "from",
          "type": "address"
        },
        {
          "indexed": true,
          "internalType": "address",
          "name": "to",
          "type": "address"
        },
        {
          "indexed": true,
          "internalType": "uint256",
          "name": "tokenId",
          "type": "uint256"
        }
      ],
      "name": "Transfer",
      "type": "event"
    },
    {
      "inputs": [],
      "name": "DEFAULT_ADMIN_ROLE",
      "outputs": [
        {
          "internalType": "bytes32",
          "name": "",
          "type": "bytes32"
        }
      ],
      "stateMutability": "view",
      "type": "function"
    },
    {
      "inputs": [
        {
          "internalType": "address",
          "name": "to",
          "type": "address"
        },
        {
          "internalType": "uint256",
          "name": "tokenId",
          "type": "uint256"
        }
      ],
      "name": "approve",
      "outputs": [],
      "stateMutability": "nonpayable",
      "type": "function"
    },
    {
      "inputs": [
        {
          "internalType": "address",
          "name": "owner",
          "type": "address"
        }
      ],
      "name": "balanceOf",
      "outputs": [
        {
          "internalType": "uint256",
          "name": "",
          "type": "uint256"
        }
      ],
      "stateMutability": "view",
      "type": "function"
    },
    {
      "inputs": [
        {
          "internalType": "uint256",
          "name": "tokenId",
          "type": "uint256"
        }
      ],
      "name": "burn",
      "outputs": [],
      "stateMutability": "nonpayable",
      "type": "function"
    },
    {
      "inputs": [
        {
          "internalType": "address",
          "name": "_receiver",
          "type": "address"
        },
        {
          "internalType": "uint256",
          "name": "_quantity",
          "type": "uint256"
        },
        {
          "internalType": "address",
          "name": "_currency",
          "type": "address"
        },
        {
          "internalType": "uint256",
          "name": "_pricePerToken",
          "type": "uint256"
        },
        {
          "components": [
            {
              "internalType": "bytes32[]",
              "name": "proof",
              "type": "bytes32[]"
            },
            {
              "internalType": "uint256",
              "name": "maxQuantityInAllowlist",
              "type": "uint256"
            }
          ],
          "internalType": "struct IDropSinglePhase.AllowlistProof",
          "name": "_allowlistProof",
          "type": "tuple"
        },
        {
          "internalType": "bytes",
          "name": "_data",
          "type": "bytes"
        }
      ],
      "name": "claim",
      "outputs": [],
      "stateMutability": "payable",
      "type": "function"
    },
    {
      "inputs": [],
      "name": "claimCondition",
      "outputs": [
        {
          "internalType": "uint256",
          "name": "startTimestamp",
          "type": "uint256"
        },
        {
          "internalType": "uint256",
          "name": "maxClaimableSupply",
          "type": "uint256"
        },
        {
          "internalType": "uint256",
          "name": "supplyClaimed",
          "type": "uint256"
        },
        {
          "internalType": "uint256",
          "name": "quantityLimitPerTransaction",
          "type": "uint256"
        },
        {
          "internalType": "uint256",
          "name": "waitTimeInSecondsBetweenClaims",
          "type": "uint256"
        },
        {
          "internalType": "bytes32",
          "name": "merkleRoot",
          "type": "bytes32"
        },
        {
          "internalType": "uint256",
          "name": "pricePerToken",
          "type": "uint256"
        },
        {
          "internalType": "address",
          "name": "currency",
          "type": "address"
        }
      ],
      "stateMutability": "view",
      "type": "function"
    },
    {
      "inputs": [],
      "name": "contractType",
      "outputs": [
        {
          "internalType": "bytes32",
          "name": "",
          "type": "bytes32"
        }
      ],
      "stateMutability": "pure",
      "type": "function"
    },
    {
      "inputs": [],
      "name": "contractURI",
      "outputs": [
        {
          "internalType": "string",
          "name": "",
          "type": "string"
        }
      ],
      "stateMutability": "view",
      "type": "function"
    },
    {
      "inputs": [],
      "name": "contractVersion",
      "outputs": [
        {
          "internalType": "uint8",
          "name": "",
          "type": "uint8"
        }
      ],
      "stateMutability": "pure",
      "type": "function"
    },
    {
      "inputs": [
        {
          "internalType": "bytes",
          "name": "data",
          "type": "bytes"
        },
        {
          "internalType": "bytes",
          "name": "key",
          "type": "bytes"
        }
      ],
      "name": "encryptDecrypt",
      "outputs": [
        {
          "internalType": "bytes",
          "name": "result",
          "type": "bytes"
        }
      ],
      "stateMutability": "pure",
      "type": "function"
    },
    {
      "inputs": [
        {
          "internalType": "uint256",
          "name": "",
          "type": "uint256"
        }
      ],
      "name": "encryptedData",
      "outputs": [
        {
          "internalType": "bytes",
          "name": "",
          "type": "bytes"
        }
      ],
      "stateMutability": "view",
      "type": "function"
    },
    {
      "inputs": [
        {
          "internalType": "uint256",
          "name": "tokenId",
          "type": "uint256"
        }
      ],
      "name": "getApproved",
      "outputs": [
        {
          "internalType": "address",
          "name": "",
          "type": "address"
        }
      ],
      "stateMutability": "view",
      "type": "function"
    },
    {
      "inputs": [],
      "name": "getBaseURICount",
      "outputs": [
        {
          "internalType": "uint256",
          "name": "",
          "type": "uint256"
        }
      ],
      "stateMutability": "view",
      "type": "function"
    },
    {
      "inputs": [
        {
          "internalType": "uint256",
          "name": "_index",
          "type": "uint256"
        }
      ],
      "name": "getBatchIdAtIndex",
      "outputs": [
        {
          "internalType": "uint256",
          "name": "",
          "type": "uint256"
        }
      ],
      "stateMutability": "view",
      "type": "function"
    },
    {
      "inputs": [
        {
          "internalType": "address",
          "name": "_claimer",
          "type": "address"
        }
      ],
      "name": "getClaimTimestamp",
      "outputs": [
        {
          "internalType": "uint256",
          "name": "lastClaimedAt",
          "type": "uint256"
        },
        {
          "internalType": "uint256",
          "name": "nextValidClaimTimestamp",
          "type": "uint256"
        }
      ],
      "stateMutability": "view",
      "type": "function"
    },
    {
      "inputs": [],
      "name": "getDefaultRoyaltyInfo",
      "outputs": [
        {
          "internalType": "address",
          "name": "",
          "type": "address"
        },
        {
          "internalType": "uint16",
          "name": "",
          "type": "uint16"
        }
      ],
      "stateMutability": "view",
      "type": "function"
    },
    {
      "inputs": [],
      "name": "getPlatformFeeInfo",
      "outputs": [
        {
          "internalType": "address",
          "name": "",
          "type": "address"
        },
        {
          "internalType": "uint16",
          "name": "",
          "type": "uint16"
        }
      ],
      "stateMutability": "view",
      "type": "function"
    },
    {
      "inputs": [
        {
          "internalType": "uint256",
          "name": "_batchId",
          "type": "uint256"
        },
        {
          "internalType": "bytes",
          "name": "_key",
          "type": "bytes"
        }
      ],
      "name": "getRevealURI",
      "outputs": [
        {
          "internalType": "string",
          "name": "revealedURI",
          "type": "string"
        }
      ],
      "stateMutability": "view",
      "type": "function"
    },
    {
      "inputs": [
        {
          "internalType": "bytes32",
          "name": "role",
          "type": "bytes32"
        }
      ],
      "name": "getRoleAdmin",
      "outputs": [
        {
          "internalType": "bytes32",
          "name": "",
          "type": "bytes32"
        }
      ],
      "stateMutability": "view",
      "type": "function"
    },
    {
      "inputs": [
        {
          "internalType": "bytes32",
          "name": "role",
          "type": "bytes32"
        },
        {
          "internalType": "uint256",
          "name": "index",
          "type": "uint256"
        }
      ],
      "name": "getRoleMember",
      "outputs": [
        {
          "internalType": "address",
          "name": "member",
          "type": "address"
        }
      ],
      "stateMutability": "view",
      "type": "function"
    },
    {
      "inputs": [
        {
          "internalType": "bytes32",
          "name": "role",
          "type": "bytes32"
        }
      ],
      "name": "getRoleMemberCount",
      "outputs": [
        {
          "internalType": "uint256",
          "name": "count",
          "type": "uint256"
        }
      ],
      "stateMutability": "view",
      "type": "function"
    },
    {
      "inputs": [
        {
          "internalType": "uint256",
          "name": "_tokenId",
          "type": "uint256"
        }
      ],
      "name": "getRoyaltyInfoForToken",
      "outputs": [
        {
          "internalType": "address",
          "name": "",
          "type": "address"
        },
        {
          "internalType": "uint16",
          "name": "",
          "type": "uint16"
        }
      ],
      "stateMutability": "view",
      "type": "function"
    },
    {
      "inputs": [
        {
          "internalType": "bytes32",
          "name": "role",
          "type": "bytes32"
        },
        {
          "internalType": "address",
          "name": "account",
          "type": "address"
        }
      ],
      "name": "grantRole",
      "outputs": [],
      "stateMutability": "nonpayable",
      "type": "function"
    },
    {
      "inputs": [
        {
          "internalType": "bytes32",
          "name": "role",
          "type": "bytes32"
        },
        {
          "internalType": "address",
          "name": "account",
          "type": "address"
        }
      ],
      "name": "hasRole",
      "outputs": [
        {
          "internalType": "bool",
          "name": "",
          "type": "bool"
        }
      ],
      "stateMutability": "view",
      "type": "function"
    },
    {
      "inputs": [
        {
          "internalType": "bytes32",
          "name": "role",
          "type": "bytes32"
        },
        {
          "internalType": "address",
          "name": "account",
          "type": "address"
        }
      ],
      "name": "hasRoleWithSwitch",
      "outputs": [
        {
          "internalType": "bool",
          "name": "",
          "type": "bool"
        }
      ],
      "stateMutability": "view",
      "type": "function"
    },
    {
      "inputs": [
        {
          "internalType": "address",
          "name": "_defaultAdmin",
          "type": "address"
        },
        {
          "internalType": "string",
          "name": "_name",
          "type": "string"
        },
        {
          "internalType": "string",
          "name": "_symbol",
          "type": "string"
        },
        {
          "internalType": "string",
          "name": "_contractURI",
          "type": "string"
        },
        {
          "internalType": "address[]",
          "name": "_trustedForwarders",
          "type": "address[]"
        },
        {
          "internalType": "address",
          "name": "_saleRecipient",
          "type": "address"
        },
        {
          "internalType": "address",
          "name": "_royaltyRecipient",
          "type": "address"
        },
        {
          "internalType": "uint128",
          "name": "_royaltyBps",
          "type": "uint128"
        },
        {
          "internalType": "uint128",
          "name": "_platformFeeBps",
          "type": "uint128"
        },
        {
          "internalType": "address",
          "name": "_platformFeeRecipient",
          "type": "address"
        }
      ],
      "name": "initialize",
      "outputs": [],
      "stateMutability": "nonpayable",
      "type": "function"
    },
    {
      "inputs": [
        {
          "internalType": "address",
          "name": "owner",
          "type": "address"
        },
        {
          "internalType": "address",
          "name": "operator",
          "type": "address"
        }
      ],
      "name": "isApprovedForAll",
      "outputs": [
        {
          "internalType": "bool",
          "name": "",
          "type": "bool"
        }
      ],
      "stateMutability": "view",
      "type": "function"
    },
    {
      "inputs": [
        {
          "internalType": "uint256",
          "name": "_batchId",
          "type": "uint256"
        }
      ],
      "name": "isEncryptedBatch",
      "outputs": [
        {
          "internalType": "bool",
          "name": "",
          "type": "bool"
        }
      ],
      "stateMutability": "view",
      "type": "function"
    },
    {
      "inputs": [
        {
          "internalType": "address",
          "name": "forwarder",
          "type": "address"
        }
      ],
      "name": "isTrustedForwarder",
      "outputs": [
        {
          "internalType": "bool",
          "name": "",
          "type": "bool"
        }
      ],
      "stateMutability": "view",
      "type": "function"
    },
    {
      "inputs": [
        {
          "internalType": "uint256",
          "name": "_amount",
          "type": "uint256"
        },
        {
          "internalType": "string",
          "name": "_baseURIForTokens",
          "type": "string"
        },
        {
          "internalType": "bytes",
          "name": "_data",
          "type": "bytes"
        }
      ],
      "name": "lazyMint",
      "outputs": [
        {
          "internalType": "uint256",
          "name": "batchId",
          "type": "uint256"
        }
      ],
      "stateMutability": "nonpayable",
      "type": "function"
    },
    {
      "inputs": [
        {
          "components": [
            {
              "internalType": "address",
              "name": "to",
              "type": "address"
            },
            {
              "internalType": "address",
              "name": "royaltyRecipient",
              "type": "address"
            },
            {
              "internalType": "uint256",
              "name": "royaltyBps",
              "type": "uint256"
            },
            {
              "internalType": "address",
              "name": "primarySaleRecipient",
              "type": "address"
            },
            {
              "internalType": "string",
              "name": "uri",
              "type": "string"
            },
            {
              "internalType": "uint256",
              "name": "quantity",
              "type": "uint256"
            },
            {
              "internalType": "uint256",
              "name": "pricePerToken",
              "type": "uint256"
            },
            {
              "internalType": "address",
              "name": "currency",
              "type": "address"
            },
            {
              "internalType": "uint128",
              "name": "validityStartTimestamp",
              "type": "uint128"
            },
            {
              "internalType": "uint128",
              "name": "validityEndTimestamp",
              "type": "uint128"
            },
            {
              "internalType": "bytes32",
              "name": "uid",
              "type": "bytes32"
            }
          ],
          "internalType": "struct ISignatureMintERC721.MintRequest",
          "name": "_req",
          "type": "tuple"
        },
        {
          "internalType": "bytes",
          "name": "_signature",
          "type": "bytes"
        }
      ],
      "name": "mintWithSignature",
      "outputs": [
        {
          "internalType": "address",
          "name": "signer",
          "type": "address"
        }
      ],
      "stateMutability": "payable",
      "type": "function"
    },
    {
      "inputs": [
        {
          "internalType": "bytes[]",
          "name": "data",
          "type": "bytes[]"
        }
      ],
      "name": "multicall",
      "outputs": [
        {
          "internalType": "bytes[]",
          "name": "results",
          "type": "bytes[]"
        }
      ],
      "stateMutability": "nonpayable",
      "type": "function"
    },
    {
      "inputs": [],
      "name": "name",
      "outputs": [
        {
          "internalType": "string",
          "name": "",
          "type": "string"
        }
      ],
      "stateMutability": "view",
      "type": "function"
    },
    {
      "inputs": [],
      "name": "nextTokenIdToMint",
      "outputs": [
        {
          "internalType": "uint256",
          "name": "",
          "type": "uint256"
        }
      ],
      "stateMutability": "view",
      "type": "function"
    },
    {
      "inputs": [],
      "name": "owner",
      "outputs": [
        {
          "internalType": "address",
          "name": "",
          "type": "address"
        }
      ],
      "stateMutability": "view",
      "type": "function"
    },
    {
      "inputs": [
        {
          "internalType": "uint256",
          "name": "tokenId",
          "type": "uint256"
        }
      ],
      "name": "ownerOf",
      "outputs": [
        {
          "internalType": "address",
          "name": "",
          "type": "address"
        }
      ],
      "stateMutability": "view",
      "type": "function"
    },
    {
      "inputs": [],
      "name": "primarySaleRecipient",
      "outputs": [
        {
          "internalType": "address",
          "name": "",
          "type": "address"
        }
      ],
      "stateMutability": "view",
      "type": "function"
    },
    {
      "inputs": [
        {
          "internalType": "bytes32",
          "name": "role",
          "type": "bytes32"
        },
        {
          "internalType": "address",
          "name": "account",
          "type": "address"
        }
      ],
      "name": "renounceRole",
      "outputs": [],
      "stateMutability": "nonpayable",
      "type": "function"
    },
    {
      "inputs": [
        {
          "internalType": "uint256",
          "name": "_index",
          "type": "uint256"
        },
        {
          "internalType": "bytes",
          "name": "_key",
          "type": "bytes"
        }
      ],
      "name": "reveal",
      "outputs": [
        {
          "internalType": "string",
          "name": "revealedURI",
          "type": "string"
        }
      ],
      "stateMutability": "nonpayable",
      "type": "function"
    },
    {
      "inputs": [
        {
          "internalType": "bytes32",
          "name": "role",
          "type": "bytes32"
        },
        {
          "internalType": "address",
          "name": "account",
          "type": "address"
        }
      ],
      "name": "revokeRole",
      "outputs": [],
      "stateMutability": "nonpayable",
      "type": "function"
    },
    {
      "inputs": [
        {
          "internalType": "uint256",
          "name": "tokenId",
          "type": "uint256"
        },
        {
          "internalType": "uint256",
          "name": "salePrice",
          "type": "uint256"
        }
      ],
      "name": "royaltyInfo",
      "outputs": [
        {
          "internalType": "address",
          "name": "receiver",
          "type": "address"
        },
        {
          "internalType": "uint256",
          "name": "royaltyAmount",
          "type": "uint256"
        }
      ],
      "stateMutability": "view",
      "type": "function"
    },
    {
      "inputs": [
        {
          "internalType": "address",
          "name": "from",
          "type": "address"
        },
        {
          "internalType": "address",
          "name": "to",
          "type": "address"
        },
        {
          "internalType": "uint256",
          "name": "tokenId",
          "type": "uint256"
        }
      ],
      "name": "safeTransferFrom",
      "outputs": [],
      "stateMutability": "nonpayable",
      "type": "function"
    },
    {
      "inputs": [
        {
          "internalType": "address",
          "name": "from",
          "type": "address"
        },
        {
          "internalType": "address",
          "name": "to",
          "type": "address"
        },
        {
          "internalType": "uint256",
          "name": "tokenId",
          "type": "uint256"
        },
        {
          "internalType": "bytes",
          "name": "_data",
          "type": "bytes"
        }
      ],
      "name": "safeTransferFrom",
      "outputs": [],
      "stateMutability": "nonpayable",
      "type": "function"
    },
    {
      "inputs": [
        {
          "internalType": "address",
          "name": "operator",
          "type": "address"
        },
        {
          "internalType": "bool",
          "name": "approved",
          "type": "bool"
        }
      ],
      "name": "setApprovalForAll",
      "outputs": [],
      "stateMutability": "nonpayable",
      "type": "function"
    },
    {
      "inputs": [
        {
          "components": [
            {
              "internalType": "uint256",
              "name": "startTimestamp",
              "type": "uint256"
            },
            {
              "internalType": "uint256",
              "name": "maxClaimableSupply",
              "type": "uint256"
            },
            {
              "internalType": "uint256",
              "name": "supplyClaimed",
              "type": "uint256"
            },
            {
              "internalType": "uint256",
              "name": "quantityLimitPerTransaction",
              "type": "uint256"
            },
            {
              "internalType": "uint256",
              "name": "waitTimeInSecondsBetweenClaims",
              "type": "uint256"
            },
            {
              "internalType": "bytes32",
              "name": "merkleRoot",
              "type": "bytes32"
            },
            {
              "internalType": "uint256",
              "name": "pricePerToken",
              "type": "uint256"
            },
            {
              "internalType": "address",
              "name": "currency",
              "type": "address"
            }
          ],
          "internalType": "struct IClaimCondition.ClaimCondition",
          "name": "_condition",
          "type": "tuple"
        },
        {
          "internalType": "bool",
          "name": "_resetClaimEligibility",
          "type": "bool"
        }
      ],
      "name": "setClaimConditions",
      "outputs": [],
      "stateMutability": "nonpayable",
      "type": "function"
    },
    {
      "inputs": [
        {
          "internalType": "string",
          "name": "_uri",
          "type": "string"
        }
      ],
      "name": "setContractURI",
      "outputs": [],
      "stateMutability": "nonpayable",
      "type": "function"
    },
    {
      "inputs": [
        {
          "internalType": "address",
          "name": "_royaltyRecipient",
          "type": "address"
        },
        {
          "internalType": "uint256",
          "name": "_royaltyBps",
          "type": "uint256"
        }
      ],
      "name": "setDefaultRoyaltyInfo",
      "outputs": [],
      "stateMutability": "nonpayable",
      "type": "function"
    },
    {
      "inputs": [
        {
          "internalType": "address",
          "name": "_newOwner",
          "type": "address"
        }
      ],
      "name": "setOwner",
      "outputs": [],
      "stateMutability": "nonpayable",
      "type": "function"
    },
    {
      "inputs": [
        {
          "internalType": "address",
          "name": "_platformFeeRecipient",
          "type": "address"
        },
        {
          "internalType": "uint256",
          "name": "_platformFeeBps",
          "type": "uint256"
        }
      ],
      "name": "setPlatformFeeInfo",
      "outputs": [],
      "stateMutability": "nonpayable",
      "type": "function"
    },
    {
      "inputs": [
        {
          "internalType": "address",
          "name": "_saleRecipient",
          "type": "address"
        }
      ],
      "name": "setPrimarySaleRecipient",
      "outputs": [],
      "stateMutability": "nonpayable",
      "type": "function"
    },
    {
      "inputs": [
        {
          "internalType": "uint256",
          "name": "_tokenId",
          "type": "uint256"
        },
        {
          "internalType": "address",
          "name": "_recipient",
          "type": "address"
        },
        {
          "internalType": "uint256",
          "name": "_bps",
          "type": "uint256"
        }
      ],
      "name": "setRoyaltyInfoForToken",
      "outputs": [],
      "stateMutability": "nonpayable",
      "type": "function"
    },
    {
      "inputs": [
        {
          "internalType": "bytes4",
          "name": "interfaceId",
          "type": "bytes4"
        }
      ],
      "name": "supportsInterface",
      "outputs": [
        {
          "internalType": "bool",
          "name": "",
          "type": "bool"
        }
      ],
      "stateMutability": "view",
      "type": "function"
    },
    {
      "inputs": [],
      "name": "symbol",
      "outputs": [
        {
          "internalType": "string",
          "name": "",
          "type": "string"
        }
      ],
      "stateMutability": "view",
      "type": "function"
    },
    {
      "inputs": [
        {
          "internalType": "uint256",
          "name": "_tokenId",
          "type": "uint256"
        }
      ],
      "name": "tokenURI",
      "outputs": [
        {
          "internalType": "string",
          "name": "",
          "type": "string"
        }
      ],
      "stateMutability": "view",
      "type": "function"
    },
    {
      "inputs": [],
      "name": "totalMinted",
      "outputs": [
        {
          "internalType": "uint256",
          "name": "",
          "type": "uint256"
        }
      ],
      "stateMutability": "view",
      "type": "function"
    },
    {
      "inputs": [],
      "name": "totalSupply",
      "outputs": [
        {
          "internalType": "uint256",
          "name": "",
          "type": "uint256"
        }
      ],
      "stateMutability": "view",
      "type": "function"
    },
    {
      "inputs": [
        {
          "internalType": "address",
          "name": "from",
          "type": "address"
        },
        {
          "internalType": "address",
          "name": "to",
          "type": "address"
        },
        {
          "internalType": "uint256",
          "name": "tokenId",
          "type": "uint256"
        }
      ],
      "name": "transferFrom",
      "outputs": [],
      "stateMutability": "nonpayable",
      "type": "function"
    },
    {
      "inputs": [
        {
          "components": [
            {
              "internalType": "address",
              "name": "to",
              "type": "address"
            },
            {
              "internalType": "address",
              "name": "royaltyRecipient",
              "type": "address"
            },
            {
              "internalType": "uint256",
              "name": "royaltyBps",
              "type": "uint256"
            },
            {
              "internalType": "address",
              "name": "primarySaleRecipient",
              "type": "address"
            },
            {
              "internalType": "string",
              "name": "uri",
              "type": "string"
            },
            {
              "internalType": "uint256",
              "name": "quantity",
              "type": "uint256"
            },
            {
              "internalType": "uint256",
              "name": "pricePerToken",
              "type": "uint256"
            },
            {
              "internalType": "address",
              "name": "currency",
              "type": "address"
            },
            {
              "internalType": "uint128",
              "name": "validityStartTimestamp",
              "type": "uint128"
            },
            {
              "internalType": "uint128",
              "name": "validityEndTimestamp",
              "type": "uint128"
            },
            {
              "internalType": "bytes32",
              "name": "uid",
              "type": "bytes32"
            }
          ],
          "internalType": "struct ISignatureMintERC721.MintRequest",
          "name": "_req",
          "type": "tuple"
        },
        {
          "internalType": "bytes",
          "name": "_signature",
          "type": "bytes"
        }
      ],
      "name": "verify",
      "outputs": [
        {
          "internalType": "bool",
          "name": "success",
          "type": "bool"
        },
        {
          "internalType": "address",
          "name": "signer",
          "type": "address"
        }
      ],
      "stateMutability": "view",
      "type": "function"
    },
    {
      "inputs": [
        {
          "internalType": "address",
          "name": "_claimer",
          "type": "address"
        },
        {
          "internalType": "uint256",
          "name": "_quantity",
          "type": "uint256"
        },
        {
          "internalType": "address",
          "name": "_currency",
          "type": "address"
        },
        {
          "internalType": "uint256",
          "name": "_pricePerToken",
          "type": "uint256"
        },
        {
          "internalType": "bool",
          "name": "verifyMaxQuantityPerTransaction",
          "type": "bool"
        }
      ],
      "name": "verifyClaim",
      "outputs": [],
      "stateMutability": "view",
      "type": "function"
    },
    {
      "inputs": [
        {
          "internalType": "address",
          "name": "_claimer",
          "type": "address"
        },
        {
          "internalType": "uint256",
          "name": "_quantity",
          "type": "uint256"
        },
        {
          "components": [
            {
              "internalType": "bytes32[]",
              "name": "proof",
              "type": "bytes32[]"
            },
            {
              "internalType": "uint256",
              "name": "maxQuantityInAllowlist",
              "type": "uint256"
            }
          ],
          "internalType": "struct IDropSinglePhase.AllowlistProof",
          "name": "_allowlistProof",
          "type": "tuple"
        }
      ],
      "name": "verifyClaimMerkleProof",
      "outputs": [
        {
          "internalType": "bool",
          "name": "validMerkleProof",
          "type": "bool"
        },
        {
          "internalType": "uint256",
          "name": "merkleProofIndex",
          "type": "uint256"
        }
      ],
      "stateMutability": "view",
      "type": "function"
    }
  ],
  "bytecode": "0x608060405234801561001057600080fd5b50615ffa80620000216000396000f3fe6080604052600436106103975760003560e01c80639010d07c116101dc578063b67875ce11610102578063d45573f6116100a0578063e71503221161006f578063e715032214610bbd578063e8a3d48514610bdd578063e985e9c514610bf2578063ffbb7a1314610c3c57600080fd5b8063d45573f614610ad2578063d547741f14610afd578063d637ed5914610b1d578063e159163414610b9d57600080fd5b8063ca15c873116100dc578063ca15c87314610a4f578063cb2ef6f714610a6f578063ce80564214610a92578063d37c353b14610ab257600080fd5b8063b67875ce146109da578063b88d4fde14610a0f578063c87b56dd14610a2f57600080fd5b8063a0a8e4601161017a578063a32fa5b311610149578063a32fa5b314610942578063a72e157d14610962578063ac9650d814610982578063b24f2d39146109af57600080fd5b8063a0a8e460146108db578063a217fddf146108f7578063a22cb4651461090c578063a2309ff81461092c57600080fd5b806395d89b41116101b657806395d89b41146108665780639bcf7a151461087b5780639fc4d68f1461089b578063a05112fc146108bb57600080fd5b80639010d07c146107e057806391d1485414610800578063938e3d7b1461084657600080fd5b80633b1475a7116102c15780635ab31c1a1161025f5780636f4f28371161022e5780636f4f28371461076257806370a082311461078257806377312a9e146107a25780638da5cb5b146107c257600080fd5b80635ab31c1a146106fa578063600dd5ea1461070d5780636352211e1461072d57806363b45e2d1461074d57600080fd5b8063439c7be51161029b578063439c7be51461064c578063492e224b1461065f5780634cc157df1461067f578063572b6c05146106c157600080fd5b80633b1475a7146105f757806342842e0e1461060c57806342966c681461062c57600080fd5b80631e7ac48811610339578063252e82e811610308578063252e82e8146105395780632a55205a146105785780632f2ff15d146105b757806336568abe146105d757600080fd5b80631e7ac488146104ac57806323b872dd146104cc5780632419f51b146104ec578063248a9ca31461050c57600080fd5b8063081812fc11610375578063081812fc14610425578063095ea7b31461044557806313af40351461046757806318160ddd1461048757600080fd5b806301ffc9a71461039c57806306fdde03146103d1578063079fe40e146103f3575b600080fd5b3480156103a857600080fd5b506103bc6103b7366004614f69565b610c73565b60405190151581526020015b60405180910390f35b3480156103dd57600080fd5b506103e6610c9f565b6040516103c89190614fde565b3480156103ff57600080fd5b506005546001600160a01b03165b6040516001600160a01b0390911681526020016103c8565b34801561043157600080fd5b5061040d610440366004614ff1565b610d32565b34801561045157600080fd5b50610465610460366004615026565b610d77565b005b34801561047357600080fd5b50610465610482366004615050565b610e10565b34801561049357600080fd5b506101175461011654035b6040519081526020016103c8565b3480156104b857600080fd5b506104656104c7366004615026565b610e66565b3480156104d857600080fd5b506104656104e736600461506b565b610eb9565b3480156104f857600080fd5b5061049e610507366004614ff1565b610ec4565b34801561051857600080fd5b5061049e610527366004614ff1565b6000908152600c602052604090205490565b34801561054557600080fd5b506105596105543660046150e8565b610f32565b6040805192151583526001600160a01b039091166020830152016103c8565b34801561058457600080fd5b50610598610593366004615159565b610f76565b604080516001600160a01b0390931683526020830191909152016103c8565b3480156105c357600080fd5b506104656105d236600461517b565b610fb3565b3480156105e357600080fd5b506104656105f236600461517b565b611049565b34801561060357600080fd5b50600a5461049e565b34801561061857600080fd5b5061046561062736600461506b565b6110ab565b34801561063857600080fd5b50610465610647366004614ff1565b6110c6565b61040d61065a3660046150e8565b6110d1565b34801561066b57600080fd5b506103bc61067a366004614ff1565b61122f565b34801561068b57600080fd5b5061069f61069a366004614ff1565b611255565b604080516001600160a01b03909316835261ffff9091166020830152016103c8565b3480156106cd57600080fd5b506103bc6106dc366004615050565b6001600160a01b031660009081526080602052604090205460ff1690565b61046561070836600461527c565b6112c0565b34801561071957600080fd5b50610465610728366004615026565b61144a565b34801561073957600080fd5b5061040d610748366004614ff1565b611499565b34801561075957600080fd5b5060085461049e565b34801561076e57600080fd5b5061046561077d366004615050565b6114ab565b34801561078e57600080fd5b5061049e61079d366004615050565b6114f9565b3480156107ae57600080fd5b506104656107bd366004615320565b611548565b3480156107ce57600080fd5b506006546001600160a01b031661040d565b3480156107ec57600080fd5b5061040d6107fb366004615159565b61173a565b34801561080c57600080fd5b506103bc61081b36600461517b565b6000918252600b602090815260408084206001600160a01b0393909316845291905290205460ff1690565b34801561085257600080fd5b50610465610861366004615361565b61183b565b34801561087257600080fd5b506103e6611889565b34801561088757600080fd5b50610465610896366004615395565b611899565b3480156108a757600080fd5b506103e66108b63660046153ba565b6118e9565b3480156108c757600080fd5b506103e66108d6366004614ff1565b611a76565b3480156108e757600080fd5b50604051600481526020016103c8565b34801561090357600080fd5b5061049e600081565b34801561091857600080fd5b506104656109273660046153f8565b611b10565b34801561093857600080fd5b506101165461049e565b34801561094e57600080fd5b506103bc61095d36600461517b565b611be4565b34801561096e57600080fd5b5061046561097d366004615424565b611c3a565b34801561098e57600080fd5b506109a261099d36600461547f565b611e2d565b6040516103c891906154f3565b3480156109bb57600080fd5b506003546001600160a01b03811690600160a01b900461ffff1661069f565b3480156109e657600080fd5b506109fa6109f5366004615050565b611f21565b604080519283526020830191909152016103c8565b348015610a1b57600080fd5b50610465610a2a366004615555565b611f5e565b348015610a3b57600080fd5b506103e6610a4a366004614ff1565b611fa8565b348015610a5b57600080fd5b5061049e610a6a366004614ff1565b612017565b348015610a7b57600080fd5b506c05369676e617475726544726f7609c1b61049e565b348015610a9e57600080fd5b506103e6610aad3660046153ba565b6120b2565b348015610abe57600080fd5b5061049e610acd3660046155bc565b612140565b348015610ade57600080fd5b506002546001600160a01b03811690600160a01b900461ffff1661069f565b348015610b0957600080fd5b50610465610b1836600461517b565b6121d8565b348015610b2957600080fd5b50600e54600f54601054601154601254601354601454601554610b5997969594939291906001600160a01b031688565b604080519889526020890197909752958701949094526060860192909252608085015260a084015260c08301526001600160a01b031660e0820152610100016103c8565b348015610ba957600080fd5b50610465610bb83660046156c7565b6121f1565b348015610bc957600080fd5b506103e6610bd83660046157d9565b6123dd565b348015610be957600080fd5b506103e6612452565b348015610bfe57600080fd5b506103bc610c0d366004615827565b6001600160a01b03918216600090815261011d6020908152604080832093909416825291909152205460ff1690565b348015610c4857600080fd5b50610c5c610c57366004615851565b61245f565b6040805192151583526020830191909152016103c8565b6000610c7e82612680565b80610c99575063152a902d60e11b6001600160e01b03198316145b92915050565b60606101188054610caf906158a7565b80601f0160208091040260200160405190810160405280929190818152602001828054610cdb906158a7565b8015610d285780601f10610cfd57610100808354040283529160200191610d28565b820191906000526020600020905b815481529060010190602001808311610d0b57829003601f168201915b5050505050905090565b6000610d3d826126d0565b610d5a576040516333d1c03960e21b815260040160405180910390fd5b50600090815261011c60205260409020546001600160a01b031690565b6000610d8282611499565b9050806001600160a01b0316836001600160a01b03161415610db75760405163250fdee360e21b815260040160405180910390fd5b806001600160a01b0316610dc96126fe565b6001600160a01b031614610e0057610de381610c0d6126fe565b610e00576040516367d9dca160e11b815260040160405180910390fd5b610e0b83838361270d565b505050565b610e1861276a565b610e5a5760405162461bcd60e51b815260206004820152600e60248201526d139bdd08185d5d1a1bdc9a5e995960921b60448201526064015b60405180910390fd5b610e6381612778565b50565b610e6e61276a565b610eab5760405162461bcd60e51b815260206004820152600e60248201526d139bdd08185d5d1a1bdc9a5e995960921b6044820152606401610e51565b610eb582826127ca565b5050565b610e0b83838361287a565b6000610ecf60085490565b8210610f0d5760405162461bcd60e51b815260206004820152600d60248201526c092dcecc2d8d2c840d2dcc8caf609b1b6044820152606401610e51565b60088281548110610f2057610f206158dc565b90600052602060002001549050919050565b600080610f40858585612a99565b6101408601356000908152604d602052604090205490915060ff16158015610f6c5750610f6c81612aff565b9150935093915050565b600080600080610f8586611255565b90945084925061ffff169050612710610f9e8287615908565b610fa8919061593d565b925050509250929050565b6000828152600c6020526040902054610fcc9033612b2e565b6000828152600b602090815260408083206001600160a01b038516845290915290205460ff161561103f5760405162461bcd60e51b815260206004820152601d60248201527f43616e206f6e6c79206772616e7420746f206e6f6e20686f6c646572730000006044820152606401610e51565b610eb58282612bae565b336001600160a01b038216146110a15760405162461bcd60e51b815260206004820152601a60248201527f43616e206f6e6c792072656e6f756e636520666f722073656c660000000000006044820152606401610e51565b610eb58282612bc2565b610e0b83838360405180602001604052806000815250611f5e565b610e63816001612c19565b61011654600a54600091906110ea60a087013583615951565b111561112c5760405162461bcd60e51b81526020600482015260116024820152704e6f7420656e6f75676820746f6b656e7360781b6044820152606401610e51565b611137858585612e27565b915060006111486020870187615050565b905061117d61115d6080880160608901615050565b60a08801356111736101008a0160e08b01615050565b8960c00135612fba565b600061118f6040880160208901615050565b6001600160a01b0316141580156111a95750604086013515155b156111cc576111cc826111c26040890160208a01615050565b88604001356130d9565b6111da818760a001356131a2565b81816001600160a01b0316846001600160a01b03167fee0cf9c3e87795b1932d13f80f892f620f567b4465e768ced5d64aa44ca1d64c8960405161121e91906159d7565b60405180910390a450509392505050565b6000818152600760205260408120805482919061124b906158a7565b9050119050919050565b6000818152600460209081526040808320815180830190925280546001600160a01b03168083526001909101549282019290925282911561129c57805160208201516112b6565b6003546001600160a01b03811690600160a01b900461ffff165b9250925050915091565b6112ce8686868686866131bc565b60165460006112e56112de61327b565b888661245f565b5090506000602085013515806112fb5750601354155b905061131161130861327b565b89898985611c3a565b818015611322575060008560200135115b156113785761137861133261327b565b600085815260186020908152604080832072ffffffffffffffffffffffffffffffffffffff600886901c16845290915290208054600160ff9093169290921b9091179055565b87600e600201600082825461138d9190615951565b9091555050600083815260176020526040812042916113aa61327b565b6001600160a01b03166001600160a01b03168152602001908152602001600020819055506113db6000898989612fba565b60006113e78a8a613285565b9050808a6001600160a01b03166113fc61327b565b6001600160a01b03167fff097c7d8b1957a4ff09ef1361b5fb54dcede3941ba836d0beb9d10bec725de68c60405161143691815260200190565b60405180910390a450505050505050505050565b61145261276a565b61148f5760405162461bcd60e51b815260206004820152600e60248201526d139bdd08185d5d1a1bdc9a5e995960921b6044820152606401610e51565b610eb58282613293565b60006114a482613332565b5192915050565b6114b361276a565b6114f05760405162461bcd60e51b815260206004820152600e60248201526d139bdd08185d5d1a1bdc9a5e995960921b6044820152606401610e51565b610e638161344f565b60006001600160a01b038216611522576040516323d3ad8160e21b815260040160405180910390fd5b506001600160a01b0316600090815261011b60205260409020546001600160401b031690565b61155061276a565b61158d5760405162461bcd60e51b815260206004820152600e60248201526d139bdd08185d5d1a1bdc9a5e995960921b6044820152606401610e51565b60165460105482156115e3575060006115a461327b565b60405160609190911b6bffffffffffffffffffffffff191660208201524360348201526054016040516020818303038152906040528051906020012091505b83602001358111156116375760405162461bcd60e51b815260206004820152601260248201527f6d617820737570706c7920636c61696d656400000000000000000000000000006044820152606401610e51565b604051806101000160405280856000013581526020018560200135815260200182815260200185606001358152602001856080013581526020018560a0013581526020018560c0013581526020018560e00160208101906116989190615050565b6001600160a01b039081169091528151600e556020820151600f556040808301516010556060830151601155608083015160125560a083015160135560c083015160145560e090920151601580546001600160a01b031916919092161790556016839055517f583ecce39d40d7b7653fd2cb1cdc19aa03714482ffd00fafa242355cdcd790809061172c9086908690615af9565b60405180910390a150505050565b6000828152600d602052604081205481805b82811015611832576000868152600d602090815260408083208484526001019091529020546001600160a01b0316156117c957848214156117b7576000868152600d602090815260408083209383526001909301905220546001600160a01b03169250610c99915050565b6117c2600183615951565b9150611820565b6000868152600b6020908152604080832083805290915290205460ff16801561180d57506000868152600d6020908152604080832083805260020190915290205481145b156118205761181d600183615951565b91505b61182b600182615951565b905061174c565b50505092915050565b61184361276a565b6118805760405162461bcd60e51b815260206004820152600e60248201526d139bdd08185d5d1a1bdc9a5e995960921b6044820152606401610e51565b610e6381613499565b60606101198054610caf906158a7565b6118a161276a565b6118de5760405162461bcd60e51b815260206004820152600e60248201526d139bdd08185d5d1a1bdc9a5e995960921b6044820152606401610e51565b610e0b8383836130d9565b600083815260076020526040812080546060929190611907906158a7565b80601f0160208091040260200160405190810160405280929190818152602001828054611933906158a7565b80156119805780601f1061195557610100808354040283529160200191611980565b820191906000526020600020905b81548152906001019060200180831161196357829003601f168201915b505050505090508051600014156119d95760405162461bcd60e51b815260206004820152601160248201527f4e6f7468696e6720746f2072657665616c0000000000000000000000000000006044820152606401610e51565b600080828060200190518101906119f09190615b6b565b915091506119ff8287876123dd565b93508084878746604051602001611a199493929190615beb565b6040516020818303038152906040528051906020012014611a6c5760405162461bcd60e51b815260206004820152600d60248201526c496e636f7272656374206b657960981b6044820152606401610e51565b5050509392505050565b60076020526000908152604090208054611a8f906158a7565b80601f0160208091040260200160405190810160405280929190818152602001828054611abb906158a7565b8015611b085780601f10611add57610100808354040283529160200191611b08565b820191906000526020600020905b815481529060010190602001808311611aeb57829003601f168201915b505050505081565b611b186126fe565b6001600160a01b0316826001600160a01b03161415611b4a5760405163b06307db60e01b815260040160405180910390fd5b8061011d6000611b586126fe565b6001600160a01b03908116825260208083019390935260409182016000908120918716808252919093529120805460ff191692151592909217909155611b9c6126fe565b6001600160a01b03167f17307eab39ab6107e8899845ad3d59bd9653f200f220920489ca2b5937696c3183604051611bd8911515815260200190565b60405180910390a35050565b6000828152600b6020908152604080832083805290915281205460ff16611c3157506000828152600b602090815260408083206001600160a01b038516845290915290205460ff16610c99565b50600192915050565b6040805161010081018252600e548152600f546020820152601054918101919091526011546060820152601254608082015260135460a082015260145460c08201526015546001600160a01b0390811660e08301819052908516141580611ca557508060c001518314155b15611cf25760405162461bcd60e51b815260206004820152601960248201527f496e76616c6964207072696365206f722063757272656e6379000000000000006044820152606401610e51565b841580611d0a5750818015611d0a5750806060015185115b15611d575760405162461bcd60e51b815260206004820152601060248201527f496e76616c6964207175616e74697479000000000000000000000000000000006044820152606401610e51565b8060200151858260400151611d6c9190615951565b1115611dba5760405162461bcd60e51b815260206004820152601260248201527f65786365656473206d617820737570706c7900000000000000000000000000006044820152606401610e51565b600080611dc688611f21565b915091504283600001511180611de557508115801590611de557508042105b15611e235760405162461bcd60e51b815260206004820152600e60248201526d18d85b9d0818db185a5b481e595d60921b6044820152606401610e51565b5050505050505050565b6060816001600160401b03811115611e4757611e476151b9565b604051908082528060200260200182016040528015611e7a57816020015b6060815260200190600190039081611e655790505b50905060005b82811015611f1a57611eea30858584818110611e9e57611e9e6158dc565b9050602002810190611eb09190615c14565b8080601f01602080910402602001604051908101604052809392919081815260200183838082843760009201919091525061357b92505050565b828281518110611efc57611efc6158dc565b60200260200101819052508080611f1290615c5a565b915050611e80565b5092915050565b60165460009081526017602090815260408083206001600160a01b0385168452909152902054601254810181811015611f5957506000195b915091565b611f6984848461287a565b6001600160a01b0383163b15611fa257611f858484848461366f565b611fa2576040516368d2bf6b60e11b815260040160405180910390fd5b50505050565b60606000611fb58361375e565b5090506000611fc384613871565b9050611fce8261122f565b15611ffc5780604051602001611fe49190615c75565b60405160208183030381529060405292505050919050565b80612006856139d2565b604051602001611fe4929190615c9a565b6000818152600d6020526040812054815b8181101561207b576000848152600d602090815260408083208484526001019091529020546001600160a01b03161561206957612066600184615951565b92505b612074600182615951565b9050612028565b506000838152600b6020908152604080832083805290915290205460ff16156120ac576120a9600183615951565b91505b50919050565b6060610149546120c28133612b2e565b60006120cd86610ec4565b90506120da8186866118e9565b92506120f58160405180602001604052806000815250613acf565b6120ff8184613aee565b857f6df1d8db2a036436ffe0b2d1833f2c5f1e624818dfce2578c0faa4b83ef9998d8460405161212f9190614fde565b60405180910390a250509392505050565b600081156121c15760008061215784860186615cc9565b91509150815160001415801561216c57508015155b156121be576121be88600a546121829190615951565b86868080601f016020809104026020016040519081016040528093929190818152602001838380828437600092019190915250613acf92505050565b50505b6121ce8686868686613b0d565b9695505050505050565b6000828152600c60205260409020546110a19033612b2e565b600054610100900460ff16158080156122115750600054600160ff909116105b8061222b5750303b15801561222b575060005460ff166001145b61228e5760405162461bcd60e51b815260206004820152602e60248201527f496e697469616c697a61626c653a20636f6e747261637420697320616c72656160448201526d191e481a5b9a5d1a585b1a5e995960921b6064820152608401610e51565b6000805460ff1916600117905580156122b1576000805461ff0019166101001790555b7f8502233096d909befbda0999bb8ea2f3a6be3c138b9fbf003752a4c8bce86f6c610148557f9f2df0fed2c77648de5860a4cc508cd0818c85b8b8a1ab4ceeef8d981c8956a66101495561230487613c50565b61230e8a8a613c88565b612316613cb9565b61231f88613499565b6123288b612778565b61233360008c612bae565b612340610149548c612bae565b61234d610148548c612bae565b61235b610148546000612bae565b61236e82846001600160801b03166127ca565b61238185856001600160801b0316613293565b61238a8661344f565b80156123d0576000805461ff0019169055604051600181527f7f26b83ff96e1f2b6a682f133852f6798a09c465da95921460cefb38474024989060200160405180910390a15b5050505050505050505050565b8251604080518083016020019091528181529060005b8181101561244957600085858360405160200161241293929190615d0d565b60408051601f19818403018152919052805160209182012088840182015118858401820152612442915082615951565b90506123f3565b50509392505050565b60018054611a8f906158a7565b6040805161010081018252600e548152600f546020820152601054918101919091526011546060820152601254608082015260135460a0820181905260145460c08301526015546001600160a01b031660e0830152600091829115612677576125476124cb8580615d1f565b8080602002602001604051908101604052809392919081815260200183836020028082843760009201919091525050505060a08301516040516bffffffffffffffffffffffff1960608b901b16602080830191909152880135603482015260540160405160208183030381529060405280519060200120613d3a565b9093509150826125995760405162461bcd60e51b815260206004820152601060248201527f6e6f7420696e20616c6c6f776c697374000000000000000000000000000000006044820152606401610e51565b601654600090815260186020908152604080832072ffffffffffffffffffffffffffffffffffffff60088b901c168452909152902054600160ff88161b16156126145760405162461bcd60e51b815260206004820152600d60248201526c1c1c9bdbd98818db185a5b5959609a1b6044820152606401610e51565b60208401351580159061262a5750836020013585115b156126775760405162461bcd60e51b815260206004820152601160248201527f496e76616c6964207174792070726f6f660000000000000000000000000000006044820152606401610e51565b50935093915050565b60006001600160e01b031982166380ac58cd60e01b14806126b157506001600160e01b03198216635b5e139f60e01b145b80610c9957506301ffc9a760e01b6001600160e01b0319831614610c99565b60006101165482108015610c99575050600090815261011a6020526040902054600160e01b900460ff161590565b6000612708613e08565b905090565b600082815261011c602052604080822080546001600160a01b0319166001600160a01b0387811691821790925591518593918516917f8c5be1e5ebec7d5bd14f71427d1e84f3dd0314c0f7b2291e5b200ac8c7c3b92591a4505050565b60006127088161081b6126fe565b600680546001600160a01b038381166001600160a01b0319831681179093556040519116919082907f8292fce18fa69edf4db7b94ea2e58241df0ae57f97e0a6c9b29067028bf92d7690600090a35050565b61271081111561280e5760405162461bcd60e51b815260206004820152600f60248201526e45786365656473206d61782062707360881b6044820152606401610e51565b600280546001600160b01b031916600160a01b61ffff8416026001600160a01b031916176001600160a01b0384169081179091556040518281527fe2497bd806ec41a6e0dd992c29a72efc0ef8fec9092d1978fd4a1e00b2f18304906020015b60405180910390a25050565b600061288582613332565b9050836001600160a01b031681600001516001600160a01b0316146128bc5760405162a1148160e81b815260040160405180910390fd5b6000846001600160a01b03166128d06126fe565b6001600160a01b031614806128ec57506128ec85610c0d6126fe565b8061291757506128fa6126fe565b6001600160a01b031661290c84610d32565b6001600160a01b0316145b90508061293757604051632ce44b5f60e11b815260040160405180910390fd5b6001600160a01b03841661295e57604051633a954ecd60e21b815260040160405180910390fd5b61296b8585856001613e32565b6129776000848761270d565b6001600160a01b03858116600090815261011b60209081526040808320805467ffffffffffffffff198082166001600160401b039283166000190183161790925589861680865283862080549384169383166001908101841694909417905589865261011a90945282852080546001600160e01b031916909417600160a01b42909216919091021783558701808452922080549193909116612a4e57610116548214612a4e57805460208601516001600160401b0316600160a01b026001600160e01b03199091166001600160a01b038a16171781555b50505082846001600160a01b0316866001600160a01b03167fddf252ad1be2c89b69c2b068fc378daa952ba7f163c4a11628f55a4df523b3ef60405160405180910390a45050505050565b6000612af583838080601f016020809104026020016040519081016040528093929190818152602001838380828437600092019190915250612aef9250612ae39150889050613f1d565b80519060200120614064565b906140b2565b90505b9392505050565b610149546000908152600b602090815260408083206001600160a01b038516845290915281205460ff16610c99565b6000828152600b602090815260408083206001600160a01b038516845290915290205460ff16610eb557612b6c816001600160a01b031660146140d6565b612b778360206140d6565b604051602001612b88929190615d68565b60408051601f198184030181529082905262461bcd60e51b8252610e5191600401614fde565b612bb8828261427e565b610eb582826142d9565b612bcc8282614346565b6000828152600d602090815260408083206001600160a01b03851680855260028201808552838620805487526001909301855292852080546001600160a01b031916905584529152555050565b6000612c2483613332565b80519091508215612cac576000816001600160a01b0316612c436126fe565b6001600160a01b03161480612c5f5750612c5f82610c0d6126fe565b80612c8a5750612c6d6126fe565b6001600160a01b0316612c7f86610d32565b6001600160a01b0316145b905080612caa57604051632ce44b5f60e11b815260040160405180910390fd5b505b612cba816000866001613e32565b612cc66000858361270d565b6001600160a01b03808216600081815261011b6020908152604080832080547001000000000000000000000000000000006000196001600160401b0380841691909101811667ffffffffffffffff19841681178390048216600190810183169093027fffffffffffffffff0000000000000000ffffffffffffffff0000000000000000909416179290921783558b865261011a909452828520805460ff60e01b1942909316600160a01b026001600160e01b03199091169097179690961716600160e01b178555918901808452922080549194909116612ddb57610116548214612ddb57805460208701516001600160401b0316600160a01b026001600160e01b03199091166001600160a01b038716171781555b5050604051869250600091506001600160a01b038416907fddf252ad1be2c89b69c2b068fc378daa952ba7f163c4a11628f55a4df523b3ef908390a45050610117805460010190555050565b600080612e35858585610f32565b9250905080612e745760405162461bcd60e51b815260206004820152600b60248201526a496e76616c69642072657160a81b6044820152606401610e51565b42612e8761012087016101008801615de9565b6001600160801b03161180612eb55750612ea961014086016101208701615de9565b6001600160801b031642115b15612ef05760405162461bcd60e51b815260206004820152600b60248201526a14995c48195e1c1a5c995960aa1b6044820152606401610e51565b6000612eff6020870187615050565b6001600160a01b03161415612f565760405162461bcd60e51b815260206004820152601360248201527f726563697069656e7420756e646566696e6564000000000000000000000000006044820152606401610e51565b60008560a0013511612f925760405162461bcd60e51b8152602060048201526005602482015264302071747960d81b6044820152606401610e51565b50610140909301356000908152604d60205260409020805460ff191660011790555090919050565b80612fc457611fa2565b6002546001600160a01b0380821691600160a01b900461ffff1690600090871615612fef5786612ffc565b6005546001600160a01b03165b9050600061300a8588615908565b9050600061271061301f61ffff861684615908565b613029919061593d565b90506001600160a01b03871673eeeeeeeeeeeeeeeeeeeeeeeeeeeeeeeeeeeeeeee141561309f5781341461309f5760405162461bcd60e51b815260206004820152601560248201527f4d7573742073656e6420746f74616c20707269636500000000000000000000006044820152606401610e51565b6130b2876130ab6126fe565b87846143a8565b6130ce876130be6126fe565b856130c98587615e04565b6143a8565b505050505050505050565b61271081111561311d5760405162461bcd60e51b815260206004820152600f60248201526e45786365656473206d61782062707360881b6044820152606401610e51565b6040805180820182526001600160a01b038481168083526020808401868152600089815260048352869020945185546001600160a01b031916941693909317845591516001909301929092559151838152909185917f7365cf4122f072a3365c20d54eff9b38d73c096c28e1892ec8f5b0e403a0f12d910160405180910390a3505050565b610eb58282604051806020016040528060008152506143f2565b3360009081526080602052604081205460ff16806131e95750326131de6126fe565b6001600160a01b0316145b90508061321e5760405162461bcd60e51b81526020600482015260036024820152621093d560ea1b6044820152606401610e51565b600a5486610116546132309190615951565b11156132725760405162461bcd60e51b81526020600482015260116024820152704e6f7420656e6f75676820746f6b656e7360781b6044820152606401610e51565b50505050505050565b60006127086126fe565b61011654610c9983836131a2565b6127108111156132d75760405162461bcd60e51b815260206004820152600f60248201526e45786365656473206d61782062707360881b6044820152606401610e51565b600380546001600160a01b0384166001600160b01b03199091168117600160a01b61ffff851602179091556040518281527f90d7ec04bcb8978719414f82e52e4cb651db41d0e6f8cea6118c2191e6183adb9060200161286e565b6040805160608101825260008082526020820181905291810191909152816101165481101561343657600081815261011a6020908152604091829020825160608101845290546001600160a01b0381168252600160a01b81046001600160401b031692820192909252600160e01b90910460ff161515918101829052906134345780516001600160a01b0316156133ca579392505050565b5060001901600081815261011a6020908152604091829020825160608101845290546001600160a01b038116808352600160a01b82046001600160401b031693830193909352600160e01b900460ff161515928101929092521561342f579392505050565b6133ca565b505b604051636f96cda160e11b815260040160405180910390fd5b600580546001600160a01b0319166001600160a01b0383169081179091556040517f299d17e95023f496e0ffc4909cff1a61f74bb5eb18de6f900f4155bfa1b3b33390600090a250565b6000600180546134a8906158a7565b80601f01602080910402602001604051908101604052809291908181526020018280546134d4906158a7565b80156135215780601f106134f657610100808354040283529160200191613521565b820191906000526020600020905b81548152906001019060200180831161350457829003601f168201915b5050855193945061353d93600193506020870192509050614eba565b507fc9c7c3fe08b88b4df9d4d47ef47d2c43d55c025a0ba88ca442580ed9e7348a16818360405161356f929190615e1b565b60405180910390a15050565b60606001600160a01b0383163b6135e35760405162461bcd60e51b815260206004820152602660248201527f416464726573733a2064656c65676174652063616c6c20746f206e6f6e2d636f6044820152651b9d1c9858dd60d21b6064820152608401610e51565b600080846001600160a01b0316846040516135fe9190615e40565b600060405180830381855af49150503d8060008114613639576040519150601f19603f3d011682016040523d82523d6000602084013e61363e565b606091505b50915091506136668282604051806060016040528060278152602001615f9e602791396145c7565b95945050505050565b6000836001600160a01b031663150b7a026136886126fe565b8786866040518563ffffffff1660e01b81526004016136aa9493929190615e5c565b6020604051808303816000875af19250505080156136e5575060408051601f3d908101601f191682019092526136e291810190615e8e565b60015b613740573d808015613713576040519150601f19603f3d011682016040523d82523d6000602084013e613718565b606091505b508051613738576040516368d2bf6b60e11b815260040160405180910390fd5b805181602001fd5b6001600160e01b031916630a85bd0160e11b1490505b949350505050565b600080600061376c60085490565b9050600060088054806020026020016040519081016040528092919081815260200182805480156137bc57602002820191906000526020600020905b8154815260200190600101908083116137a8575b5050505050905060005b82811015613828578181815181106137e0576137e06158dc565b602002602001015186101561381657809350818181518110613804576138046158dc565b60200260200101519450505050915091565b613821600182615951565b90506137c6565b5060405162461bcd60e51b815260206004820152600f60248201527f496e76616c696420746f6b656e496400000000000000000000000000000000006044820152606401610e51565b6060600061387e60085490565b9050600060088054806020026020016040519081016040528092919081815260200182805480156138ce57602002820191906000526020600020905b8154815260200190600101908083116138ba575b5050505050905060005b82811015613828578181815181106138f2576138f26158dc565b60200260200101518510156139c05760096000838381518110613917576139176158dc565b602002602001015181526020019081526020016000208054613938906158a7565b80601f0160208091040260200160405190810160405280929190818152602001828054613964906158a7565b80156139b15780601f10613986576101008083540402835291602001916139b1565b820191906000526020600020905b81548152906001019060200180831161399457829003601f168201915b50505050509350505050919050565b6139cb600182615951565b90506138d8565b6060816139f65750506040805180820190915260018152600360fc1b602082015290565b8160005b8115613a205780613a0a81615c5a565b9150613a199050600a8361593d565b91506139fa565b6000816001600160401b03811115613a3a57613a3a6151b9565b6040519080825280601f01601f191660200182016040528015613a64576020820181803683370190505b5090505b841561375657613a79600183615e04565b9150613a86600a86615eab565b613a91906030615951565b60f81b818381518110613aa657613aa66158dc565b60200101906001600160f81b031916908160001a905350613ac8600a8661593d565b9450613a68565b60008281526007602090815260409091208251610e0b92840190614eba565b60008281526009602090815260409091208251610e0b92840190614eba565b6000613b17614600565b613b545760405162461bcd60e51b815260206004820152600e60248201526d139bdd08185d5d1a1bdc9a5e995960921b6044820152606401610e51565b85613ba15760405162461bcd60e51b815260206004820152601060248201527f4d696e74696e67203020746f6b656e73000000000000000000000000000000006044820152606401610e51565b6000600a549050613be9818888888080601f01602080910402602001604051908101604052809392919081815260200183838082843760009201919091525061461192505050565b600a919091559150807f2a0365091ef1a40953c670dce28177e37520648a6fdc91506bffac0ab045570d6001613c1f8a84615951565b613c299190615e04565b88888888604051613c3e959493929190615ebf565b60405180910390a25095945050505050565b600054610100900460ff16613c775760405162461bcd60e51b8152600401610e5190615ef8565b613c7f614675565b610e638161469c565b600054610100900460ff16613caf5760405162461bcd60e51b8152600401610e5190615ef8565b610eb5828261472b565b600054610100900460ff16613ce05760405162461bcd60e51b8152600401610e5190615ef8565b613d386040518060400160405280601381526020017f5369676e61747572654d696e7445524337323100000000000000000000000000815250604051806040016040528060018152602001603160f81b815250614786565b565b6000808281805b8751811015613dfc57613d55600283615908565b91506000888281518110613d6b57613d6b6158dc565b60200260200101519050808411613dad576040805160208101869052908101829052606001604051602081830303815290604052805190602001209350613de9565b6040805160208101839052908101859052606001604051602081830303815290604052805190602001209350600183613de69190615951565b92505b5080613df481615c5a565b915050613d41565b50941495939450505050565b3360009081526080602052604081205460ff1615613e2d575060131936013560601c90565b503390565b610148546000908152600b6020908152604080832083805290915290205460ff16158015613e6857506001600160a01b03841615155b8015613e7c57506001600160a01b03831615155b15611fa257610148546000908152600b602090815260408083206001600160a01b038816845290915290205460ff16158015613edf5750610148546000908152600b602090815260408083206001600160a01b038716845290915290205460ff16155b15611fa25760405162461bcd60e51b815260206004820152600e60248201526d215472616e736665722d526f6c6560901b6044820152606401610e51565b60607fef2a0374db4a48b74209fd1a525c32d62e54c4185cbabd807193b07a40081d44613f4d6020840184615050565b613f5d6040850160208601615050565b6040850135613f726080870160608801615050565b613f7f6080880188615c14565b604051613f8d929190615f43565b60405190819003902060a088013560c0890135613fb16101008b0160e08c01615050565b613fc36101208c016101008d01615de9565b613fd56101408d016101208e01615de9565b60408051602081019c909c526001600160a01b039a8b16908c015297891660608b015260808a019690965293871660a089015260c088019290925260e08701526101008601529092166101208401526001600160801b039182166101408085019190915291166101608301528301356101808201526101a0016040516020818303038152906040529050919050565b6000610c996140716147b7565b8360405161190160f01b6020820152602281018390526042810182905260009060620160405160208183030381529060405280519060200120905092915050565b60008060006140c18585614832565b915091506140ce81614878565b509392505050565b606060006140e5836002615908565b6140f0906002615951565b6001600160401b03811115614107576141076151b9565b6040519080825280601f01601f191660200182016040528015614131576020820181803683370190505b509050600360fc1b8160008151811061414c5761414c6158dc565b60200101906001600160f81b031916908160001a905350600f60fb1b8160018151811061417b5761417b6158dc565b60200101906001600160f81b031916908160001a905350600061419f846002615908565b6141aa906001615951565b90505b600181111561422f577f303132333435363738396162636465660000000000000000000000000000000085600f16601081106141eb576141eb6158dc565b1a60f81b828281518110614201576142016158dc565b60200101906001600160f81b031916908160001a90535060049490941c9361422881615f53565b90506141ad565b508315612af85760405162461bcd60e51b815260206004820181905260248201527f537472696e67733a20686578206c656e67746820696e73756666696369656e746044820152606401610e51565b6000828152600b602090815260408083206001600160a01b0385168085529252808320805460ff1916600117905551339285917f2f8788117e7eff1d82e926ec794901d17c78024a50270940304540a733656f0d9190a45050565b6000828152600d60205260408120805491600191906142f88385615951565b90915550506000928352600d6020908152604080852083865260018101835281862080546001600160a01b039096166001600160a01b03199096168617905593855260029093019052912055565b6143508282612b2e565b6000828152600b602090815260408083206001600160a01b0385168085529252808320805460ff1916905551339285917ff6391f5c32d9c69d2a47ea670b442974b53935d1edc7fd64eb21e047a839171b9190a45050565b806143b257611fa2565b6001600160a01b03841673eeeeeeeeeeeeeeeeeeeeeeeeeeeeeeeeeeeeeeee14156143e6576143e18282614a33565b611fa2565b611fa284848484614ad6565b610116546001600160a01b03841661441c57604051622e076360e81b815260040160405180910390fd5b8261443a5760405163b562e8dd60e01b815260040160405180910390fd5b6144476000858386613e32565b6001600160a01b038416600081815261011b6020908152604080832080546fffffffffffffffffffffffffffffffff1981166001600160401b038083168b0181169182176801000000000000000067ffffffffffffffff1990941690921783900481168b0181169092021790915585845261011a90925290912080546001600160e01b0319168317600160a01b42909316929092029190911790558190818501903b15614572575b60405182906001600160a01b038816906000907fddf252ad1be2c89b69c2b068fc378daa952ba7f163c4a11628f55a4df523b3ef908290a461453a600087848060010195508761366f565b614557576040516368d2bf6b60e11b815260040160405180910390fd5b8082106144ef5782610116541461456d57600080fd5b6145b7565b5b6040516001830192906001600160a01b038816906000907fddf252ad1be2c89b69c2b068fc378daa952ba7f163c4a11628f55a4df523b3ef908290a4808210614573575b5061011655611fa2600085838684565b606083156145d6575081612af8565b8251156145e65782518084602001fd5b8160405162461bcd60e51b8152600401610e519190614fde565b60006127086101495461081b6126fe565b60008061461e8486615951565b60088054600181019091557ff3f7a9fe364faab93b216da50a3214154f22a0a2b415b23a84c8169e8b636ee30181905560008181526009602090815260409091208551929450849350612677929091860190614eba565b600054610100900460ff16613d385760405162461bcd60e51b8152600401610e5190615ef8565b600054610100900460ff166146c35760405162461bcd60e51b8152600401610e5190615ef8565b60005b8151811015610eb5576001608060008484815181106146e7576146e76158dc565b6020908102919091018101516001600160a01b03168252810191909152604001600020805460ff19169115159190911790558061472381615c5a565b9150506146c6565b600054610100900460ff166147525760405162461bcd60e51b8152600401610e5190615ef8565b815161476690610118906020850190614eba565b50805161477b90610119906020840190614eba565b506000610116555050565b600054610100900460ff166147ad5760405162461bcd60e51b8152600401610e5190615ef8565b610eb58282614b2f565b60006127087f8b73c3c69bb8fe3d512ecc4cf759cc79239f7b179b0ffacaa9a75d522b39400f6147e660195490565b601a546040805160208101859052908101839052606081018290524660808201523060a082015260009060c0016040516020818303038152906040528051906020012090509392505050565b6000808251604114156148695760208301516040840151606085015160001a61485d87828585614b70565b94509450505050614871565b506000905060025b9250929050565b600081600481111561488c5761488c615f6a565b14156148955750565b60018160048111156148a9576148a9615f6a565b14156148f75760405162461bcd60e51b815260206004820152601860248201527f45434453413a20696e76616c6964207369676e617475726500000000000000006044820152606401610e51565b600281600481111561490b5761490b615f6a565b14156149595760405162461bcd60e51b815260206004820152601f60248201527f45434453413a20696e76616c6964207369676e6174757265206c656e677468006044820152606401610e51565b600381600481111561496d5761496d615f6a565b14156149c65760405162461bcd60e51b815260206004820152602260248201527f45434453413a20696e76616c6964207369676e6174757265202773272076616c604482015261756560f01b6064820152608401610e51565b60048160048111156149da576149da615f6a565b1415610e635760405162461bcd60e51b815260206004820152602260248201527f45434453413a20696e76616c6964207369676e6174757265202776272076616c604482015261756560f01b6064820152608401610e51565b6000826001600160a01b03168260405160006040518083038185875af1925050503d8060008114614a80576040519150601f19603f3d011682016040523d82523d6000602084013e614a85565b606091505b5050905080610e0b5760405162461bcd60e51b815260206004820152601c60248201527f6e617469766520746f6b656e207472616e73666572206661696c6564000000006044820152606401610e51565b816001600160a01b0316836001600160a01b03161415614af557611fa2565b6001600160a01b038316301415614b1a576143e16001600160a01b0385168383614c5d565b611fa26001600160a01b038516848484614cd5565b600054610100900460ff16614b565760405162461bcd60e51b8152600401610e5190615ef8565b815160209283012081519190920120601991909155601a55565b6000807f7fffffffffffffffffffffffffffffff5d576e7357a4501ddfe92f46681b20a0831115614ba75750600090506003614c54565b8460ff16601b14158015614bbf57508460ff16601c14155b15614bd05750600090506004614c54565b6040805160008082526020820180845289905260ff881692820192909252606081018690526080810185905260019060a0016020604051602081039080840390855afa158015614c24573d6000803e3d6000fd5b5050604051601f1901519150506001600160a01b038116614c4d57600060019250925050614c54565b9150600090505b94509492505050565b6040516001600160a01b038316602482015260448101829052610e0b90849063a9059cbb60e01b906064015b60408051601f198184030181529190526020810180517bffffffffffffffffffffffffffffffffffffffffffffffffffffffff166001600160e01b031990931692909217909152614d0d565b6040516001600160a01b0380851660248301528316604482015260648101829052611fa29085906323b872dd60e01b90608401614c89565b6000614d62826040518060400160405280602081526020017f5361666545524332303a206c6f772d6c6576656c2063616c6c206661696c6564815250856001600160a01b0316614ddf9092919063ffffffff16565b805190915015610e0b5780806020019051810190614d809190615f80565b610e0b5760405162461bcd60e51b815260206004820152602a60248201527f5361666545524332303a204552433230206f7065726174696f6e20646964206e6044820152691bdd081cdd58d8d9595960b21b6064820152608401610e51565b6060612af58484600085856001600160a01b0385163b614e415760405162461bcd60e51b815260206004820152601d60248201527f416464726573733a2063616c6c20746f206e6f6e2d636f6e74726163740000006044820152606401610e51565b600080866001600160a01b03168587604051614e5d9190615e40565b60006040518083038185875af1925050503d8060008114614e9a576040519150601f19603f3d011682016040523d82523d6000602084013e614e9f565b606091505b5091509150614eaf8282866145c7565b979650505050505050565b828054614ec6906158a7565b90600052602060002090601f016020900481019282614ee85760008555614f2e565b82601f10614f0157805160ff1916838001178555614f2e565b82800160010185558215614f2e579182015b82811115614f2e578251825591602001919060010190614f13565b50614f3a929150614f3e565b5090565b5b80821115614f3a5760008155600101614f3f565b6001600160e01b031981168114610e6357600080fd5b600060208284031215614f7b57600080fd5b8135612af881614f53565b60005b83811015614fa1578181015183820152602001614f89565b83811115611fa25750506000910152565b60008151808452614fca816020860160208601614f86565b601f01601f19169290920160200192915050565b602081526000612af86020830184614fb2565b60006020828403121561500357600080fd5b5035919050565b80356001600160a01b038116811461502157600080fd5b919050565b6000806040838503121561503957600080fd5b6150428361500a565b946020939093013593505050565b60006020828403121561506257600080fd5b612af88261500a565b60008060006060848603121561508057600080fd5b6150898461500a565b92506150976020850161500a565b9150604084013590509250925092565b60008083601f8401126150b957600080fd5b5081356001600160401b038111156150d057600080fd5b60208301915083602082850101111561487157600080fd5b6000806000604084860312156150fd57600080fd5b83356001600160401b038082111561511457600080fd5b90850190610160828803121561512957600080fd5b9093506020850135908082111561513f57600080fd5b5061514c868287016150a7565b9497909650939450505050565b6000806040838503121561516c57600080fd5b50508035926020909101359150565b6000806040838503121561518e57600080fd5b8235915061519e6020840161500a565b90509250929050565b6000604082840312156120ac57600080fd5b634e487b7160e01b600052604160045260246000fd5b604051601f8201601f191681016001600160401b03811182821017156151f7576151f76151b9565b604052919050565b60006001600160401b03821115615218576152186151b9565b50601f01601f191660200190565b600082601f83011261523757600080fd5b813561524a615245826151ff565b6151cf565b81815284602083860101111561525f57600080fd5b816020850160208301376000918101602001919091529392505050565b60008060008060008060c0878903121561529557600080fd5b61529e8761500a565b9550602087013594506152b36040880161500a565b93506060870135925060808701356001600160401b03808211156152d657600080fd5b6152e28a838b016151a7565b935060a08901359150808211156152f857600080fd5b5061530589828a01615226565b9150509295509295509295565b8015158114610e6357600080fd5b60008082840361012081121561533557600080fd5b6101008082121561534557600080fd5b849350830135905061535681615312565b809150509250929050565b60006020828403121561537357600080fd5b81356001600160401b0381111561538957600080fd5b61375684828501615226565b6000806000606084860312156153aa57600080fd5b833592506150976020850161500a565b6000806000604084860312156153cf57600080fd5b8335925060208401356001600160401b038111156153ec57600080fd5b61514c868287016150a7565b6000806040838503121561540b57600080fd5b6154148361500a565b9150602083013561535681615312565b600080600080600060a0868803121561543c57600080fd5b6154458661500a565b94506020860135935061545a6040870161500a565b925060608601359150608086013561547181615312565b809150509295509295909350565b6000806020838503121561549257600080fd5b82356001600160401b03808211156154a957600080fd5b818501915085601f8301126154bd57600080fd5b8135818111156154cc57600080fd5b8660208260051b85010111156154e157600080fd5b60209290920196919550909350505050565b6000602080830181845280855180835260408601915060408160051b870101925083870160005b8281101561554857603f19888603018452615536858351614fb2565b9450928501929085019060010161551a565b5092979650505050505050565b6000806000806080858703121561556b57600080fd5b6155748561500a565b93506155826020860161500a565b92506040850135915060608501356001600160401b038111156155a457600080fd5b6155b087828801615226565b91505092959194509250565b6000806000806000606086880312156155d457600080fd5b8535945060208601356001600160401b03808211156155f257600080fd5b6155fe89838a016150a7565b9096509450604088013591508082111561561757600080fd5b50615624888289016150a7565b969995985093965092949392505050565b600082601f83011261564657600080fd5b813560206001600160401b03821115615661576156616151b9565b8160051b6156708282016151cf565b928352848101820192828101908785111561568a57600080fd5b83870192505b84831015614eaf576156a18361500a565b82529183019190830190615690565b80356001600160801b038116811461502157600080fd5b6000806000806000806000806000806101408b8d0312156156e757600080fd5b6156f08b61500a565b995060208b01356001600160401b038082111561570c57600080fd5b6157188e838f01615226565b9a5060408d013591508082111561572e57600080fd5b61573a8e838f01615226565b995060608d013591508082111561575057600080fd5b61575c8e838f01615226565b985060808d013591508082111561577257600080fd5b5061577f8d828e01615635565b96505061578e60a08c0161500a565b945061579c60c08c0161500a565b93506157aa60e08c016156b0565b92506157b96101008c016156b0565b91506157c86101208c0161500a565b90509295989b9194979a5092959850565b6000806000604084860312156157ee57600080fd5b83356001600160401b038082111561580557600080fd5b61581187838801615226565b9450602086013591508082111561513f57600080fd5b6000806040838503121561583a57600080fd5b6158438361500a565b915061519e6020840161500a565b60008060006060848603121561586657600080fd5b61586f8461500a565b92506020840135915060408401356001600160401b0381111561589157600080fd5b61589d868287016151a7565b9150509250925092565b600181811c908216806158bb57607f821691505b602082108114156120ac57634e487b7160e01b600052602260045260246000fd5b634e487b7160e01b600052603260045260246000fd5b634e487b7160e01b600052601160045260246000fd5b6000816000190483118215151615615922576159226158f2565b500290565b634e487b7160e01b600052601260045260246000fd5b60008261594c5761594c615927565b500490565b60008219821115615964576159646158f2565b500190565b6000808335601e1984360301811261598057600080fd5b83016020810192503590506001600160401b0381111561599f57600080fd5b80360383131561487157600080fd5b81835281816020850137506000828201602090810191909152601f909101601f19169091010190565b602081526159f8602082016159eb8461500a565b6001600160a01b03169052565b6000615a066020840161500a565b6001600160a01b03811660408401525060408301356060830152615a2c6060840161500a565b6001600160a01b038116608084015250615a496080840184615969565b6101608060a0860152615a61610180860183856159ae565b925060a086013560c086015260c086013560e0860152615a8360e0870161500a565b9150610100615a9c818701846001600160a01b03169052565b615aa78188016156b0565b925050610120615ac1818701846001600160801b03169052565b615acc8188016156b0565b925050610140615ae6818701846001600160801b03169052565b9590950135939094019290925250919050565b600061012082019050833582526020840135602083015260408401356040830152606084013560608301526080840135608083015260a084013560a083015260c084013560c08301526001600160a01b03615b5660e0860161500a565b1660e083015291151561010090910152919050565b60008060408385031215615b7e57600080fd5b82516001600160401b03811115615b9457600080fd5b8301601f81018513615ba557600080fd5b8051615bb3615245826151ff565b818152866020838501011115615bc857600080fd5b615bd9826020830160208601614f86565b60209590950151949694955050505050565b60008551615bfd818460208a01614f86565b820184868237909301918252506020019392505050565b6000808335601e19843603018112615c2b57600080fd5b8301803591506001600160401b03821115615c4557600080fd5b60200191503681900382131561487157600080fd5b6000600019821415615c6e57615c6e6158f2565b5060010190565b60008251615c87818460208701614f86565b600360fc1b920191825250600101919050565b60008351615cac818460208801614f86565b835190830190615cc0818360208801614f86565b01949350505050565b60008060408385031215615cdc57600080fd5b82356001600160401b03811115615cf257600080fd5b615cfe85828601615226565b95602094909401359450505050565b82848237909101908152602001919050565b6000808335601e19843603018112615d3657600080fd5b8301803591506001600160401b03821115615d5057600080fd5b6020019150600581901b360382131561487157600080fd5b7f5065726d697373696f6e733a206163636f756e74200000000000000000000000815260008351615da0816015850160208801614f86565b7f206973206d697373696e6720726f6c65200000000000000000000000000000006015918401918201528351615ddd816026840160208801614f86565b01602601949350505050565b600060208284031215615dfb57600080fd5b612af8826156b0565b600082821015615e1657615e166158f2565b500390565b604081526000615e2e6040830185614fb2565b82810360208401526136668185614fb2565b60008251615e52818460208701614f86565b9190910192915050565b60006001600160a01b038087168352808616602084015250836040830152608060608301526121ce6080830184614fb2565b600060208284031215615ea057600080fd5b8151612af881614f53565b600082615eba57615eba615927565b500690565b858152606060208201526000615ed96060830186886159ae565b8281036040840152615eec8185876159ae565b98975050505050505050565b6020808252602b908201527f496e697469616c697a61626c653a20636f6e7472616374206973206e6f74206960408201526a6e697469616c697a696e6760a81b606082015260800190565b8183823760009101908152919050565b600081615f6257615f626158f2565b506000190190565b634e487b7160e01b600052602160045260246000fd5b600060208284031215615f9257600080fd5b8151612af88161531256fe416464726573733a206c6f772d6c6576656c2064656c65676174652063616c6c206661696c6564a2646970667358221220aac3a4a4779dc76d9bd2a3d3defad815938872f50575d9f5c630e17cd55dfea764736f6c634300080c0033",
  "linkReferences": {},
  "deployedLinkReferences": {}
}