{
  "_format": "hh-sol-artifact-1",
  "contractName": "TokenERC1155",
  "sourceName": "contracts/token/TokenERC1155.sol",
  "abi": [
    {
      "inputs": [],
      "stateMutability": "nonpayable",
      "type": "constructor"
    },
    {
      "anonymous": false,
      "inputs": [
        {
          "indexed": true,
          "internalType": "address",
          "name": "account",
          "type": "address"
        },
        {
          "indexed": true,
          "internalType": "address",
          "name": "operator",
          "type": "address"
        },
        {
          "indexed": false,
          "internalType": "bool",
          "name": "approved",
          "type": "bool"
        }
      ],
      "name": "ApprovalForAll",
      "type": "event"
    },
    {
      "anonymous": false,
      "inputs": [
        {
          "indexed": true,
          "internalType": "address",
          "name": "newRoyaltyRecipient",
          "type": "address"
        },
        {
          "indexed": false,
          "internalType": "uint256",
          "name": "newRoyaltyBps",
          "type": "uint256"
        }
      ],
      "name": "DefaultRoyalty",
      "type": "event"
    },
    {
      "anonymous": false,
      "inputs": [
        {
          "indexed": false,
          "internalType": "uint8",
          "name": "version",
          "type": "uint8"
        }
      ],
      "name": "Initialized",
      "type": "event"
    },
    {
      "anonymous": false,
      "inputs": [
        {
          "indexed": true,
          "internalType": "address",
          "name": "prevOwner",
          "type": "address"
        },
        {
          "indexed": true,
          "internalType": "address",
          "name": "newOwner",
          "type": "address"
        }
      ],
      "name": "OwnerUpdated",
      "type": "event"
    },
    {
      "anonymous": false,
      "inputs": [
        {
          "indexed": true,
          "internalType": "address",
          "name": "platformFeeRecipient",
          "type": "address"
        },
        {
          "indexed": false,
          "internalType": "uint256",
          "name": "platformFeeBps",
          "type": "uint256"
        }
      ],
      "name": "PlatformFeeInfoUpdated",
      "type": "event"
    },
    {
      "anonymous": false,
      "inputs": [
        {
          "indexed": true,
          "internalType": "address",
          "name": "recipient",
          "type": "address"
        }
      ],
      "name": "PrimarySaleRecipientUpdated",
      "type": "event"
    },
    {
      "anonymous": false,
      "inputs": [
        {
          "indexed": true,
          "internalType": "bytes32",
          "name": "role",
          "type": "bytes32"
        },
        {
          "indexed": true,
          "internalType": "bytes32",
          "name": "previousAdminRole",
          "type": "bytes32"
        },
        {
          "indexed": true,
          "internalType": "bytes32",
          "name": "newAdminRole",
          "type": "bytes32"
        }
      ],
      "name": "RoleAdminChanged",
      "type": "event"
    },
    {
      "anonymous": false,
      "inputs": [
        {
          "indexed": true,
          "internalType": "bytes32",
          "name": "role",
          "type": "bytes32"
        },
        {
          "indexed": true,
          "internalType": "address",
          "name": "account",
          "type": "address"
        },
        {
          "indexed": true,
          "internalType": "address",
          "name": "sender",
          "type": "address"
        }
      ],
      "name": "RoleGranted",
      "type": "event"
    },
    {
      "anonymous": false,
      "inputs": [
        {
          "indexed": true,
          "internalType": "bytes32",
          "name": "role",
          "type": "bytes32"
        },
        {
          "indexed": true,
          "internalType": "address",
          "name": "account",
          "type": "address"
        },
        {
          "indexed": true,
          "internalType": "address",
          "name": "sender",
          "type": "address"
        }
      ],
      "name": "RoleRevoked",
      "type": "event"
    },
    {
      "anonymous": false,
      "inputs": [
        {
          "indexed": true,
          "internalType": "uint256",
          "name": "tokenId",
          "type": "uint256"
        },
        {
          "indexed": true,
          "internalType": "address",
          "name": "royaltyRecipient",
          "type": "address"
        },
        {
          "indexed": false,
          "internalType": "uint256",
          "name": "royaltyBps",
          "type": "uint256"
        }
      ],
      "name": "RoyaltyForToken",
      "type": "event"
    },
    {
      "anonymous": false,
      "inputs": [
        {
          "indexed": true,
          "internalType": "address",
          "name": "mintedTo",
          "type": "address"
        },
        {
          "indexed": true,
          "internalType": "uint256",
          "name": "tokenIdMinted",
          "type": "uint256"
        },
        {
          "indexed": false,
          "internalType": "string",
          "name": "uri",
          "type": "string"
        },
        {
          "indexed": false,
          "internalType": "uint256",
          "name": "quantityMinted",
          "type": "uint256"
        }
      ],
      "name": "TokensMinted",
      "type": "event"
    },
    {
      "anonymous": false,
      "inputs": [
        {
          "indexed": true,
          "internalType": "address",
          "name": "signer",
          "type": "address"
        },
        {
          "indexed": true,
          "internalType": "address",
          "name": "mintedTo",
          "type": "address"
        },
        {
          "indexed": true,
          "internalType": "uint256",
          "name": "tokenIdMinted",
          "type": "uint256"
        },
        {
          "components": [
            {
              "internalType": "address",
              "name": "to",
              "type": "address"
            },
            {
              "internalType": "address",
              "name": "royaltyRecipient",
              "type": "address"
            },
            {
              "internalType": "uint256",
              "name": "royaltyBps",
              "type": "uint256"
            },
            {
              "internalType": "address",
              "name": "primarySaleRecipient",
              "type": "address"
            },
            {
              "internalType": "uint256",
              "name": "tokenId",
              "type": "uint256"
            },
            {
              "internalType": "string",
              "name": "uri",
              "type": "string"
            },
            {
              "internalType": "uint256",
              "name": "quantity",
              "type": "uint256"
            },
            {
              "internalType": "uint256",
              "name": "pricePerToken",
              "type": "uint256"
            },
            {
              "internalType": "address",
              "name": "currency",
              "type": "address"
            },
            {
              "internalType": "uint128",
              "name": "validityStartTimestamp",
              "type": "uint128"
            },
            {
              "internalType": "uint128",
              "name": "validityEndTimestamp",
              "type": "uint128"
            },
            {
              "internalType": "bytes32",
              "name": "uid",
              "type": "bytes32"
            }
          ],
          "indexed": false,
          "internalType": "struct ITokenERC1155.MintRequest",
          "name": "mintRequest",
          "type": "tuple"
        }
      ],
      "name": "TokensMintedWithSignature",
      "type": "event"
    },
    {
      "anonymous": false,
      "inputs": [
        {
          "indexed": true,
          "internalType": "address",
          "name": "operator",
          "type": "address"
        },
        {
          "indexed": true,
          "internalType": "address",
          "name": "from",
          "type": "address"
        },
        {
          "indexed": true,
          "internalType": "address",
          "name": "to",
          "type": "address"
        },
        {
          "indexed": false,
          "internalType": "uint256[]",
          "name": "ids",
          "type": "uint256[]"
        },
        {
          "indexed": false,
          "internalType": "uint256[]",
          "name": "values",
          "type": "uint256[]"
        }
      ],
      "name": "TransferBatch",
      "type": "event"
    },
    {
      "anonymous": false,
      "inputs": [
        {
          "indexed": true,
          "internalType": "address",
          "name": "operator",
          "type": "address"
        },
        {
          "indexed": true,
          "internalType": "address",
          "name": "from",
          "type": "address"
        },
        {
          "indexed": true,
          "internalType": "address",
          "name": "to",
          "type": "address"
        },
        {
          "indexed": false,
          "internalType": "uint256",
          "name": "id",
          "type": "uint256"
        },
        {
          "indexed": false,
          "internalType": "uint256",
          "name": "value",
          "type": "uint256"
        }
      ],
      "name": "TransferSingle",
      "type": "event"
    },
    {
      "anonymous": false,
      "inputs": [
        {
          "indexed": false,
          "internalType": "string",
          "name": "value",
          "type": "string"
        },
        {
          "indexed": true,
          "internalType": "uint256",
          "name": "id",
          "type": "uint256"
        }
      ],
      "name": "URI",
      "type": "event"
    },
    {
      "inputs": [],
      "name": "DEFAULT_ADMIN_ROLE",
      "outputs": [
        {
          "internalType": "bytes32",
          "name": "",
          "type": "bytes32"
        }
      ],
      "stateMutability": "view",
      "type": "function"
    },
    {
      "inputs": [
        {
          "internalType": "address",
          "name": "account",
          "type": "address"
        },
        {
          "internalType": "uint256",
          "name": "id",
          "type": "uint256"
        }
      ],
      "name": "balanceOf",
      "outputs": [
        {
          "internalType": "uint256",
          "name": "",
          "type": "uint256"
        }
      ],
      "stateMutability": "view",
      "type": "function"
    },
    {
      "inputs": [
        {
          "internalType": "address[]",
          "name": "accounts",
          "type": "address[]"
        },
        {
          "internalType": "uint256[]",
          "name": "ids",
          "type": "uint256[]"
        }
      ],
      "name": "balanceOfBatch",
      "outputs": [
        {
          "internalType": "uint256[]",
          "name": "",
          "type": "uint256[]"
        }
      ],
      "stateMutability": "view",
      "type": "function"
    },
    {
      "inputs": [
        {
          "internalType": "address",
          "name": "account",
          "type": "address"
        },
        {
          "internalType": "uint256",
          "name": "id",
          "type": "uint256"
        },
        {
          "internalType": "uint256",
          "name": "value",
          "type": "uint256"
        }
      ],
      "name": "burn",
      "outputs": [],
      "stateMutability": "nonpayable",
      "type": "function"
    },
    {
      "inputs": [
        {
          "internalType": "address",
          "name": "account",
          "type": "address"
        },
        {
          "internalType": "uint256[]",
          "name": "ids",
          "type": "uint256[]"
        },
        {
          "internalType": "uint256[]",
          "name": "values",
          "type": "uint256[]"
        }
      ],
      "name": "burnBatch",
      "outputs": [],
      "stateMutability": "nonpayable",
      "type": "function"
    },
    {
      "inputs": [],
      "name": "contractType",
      "outputs": [
        {
          "internalType": "bytes32",
          "name": "",
          "type": "bytes32"
        }
      ],
      "stateMutability": "pure",
      "type": "function"
    },
    {
      "inputs": [],
      "name": "contractURI",
      "outputs": [
        {
          "internalType": "string",
          "name": "",
          "type": "string"
        }
      ],
      "stateMutability": "view",
      "type": "function"
    },
    {
      "inputs": [],
      "name": "contractVersion",
      "outputs": [
        {
          "internalType": "uint8",
          "name": "",
          "type": "uint8"
        }
      ],
      "stateMutability": "pure",
      "type": "function"
    },
    {
      "inputs": [],
      "name": "getDefaultRoyaltyInfo",
      "outputs": [
        {
          "internalType": "address",
          "name": "",
          "type": "address"
        },
        {
          "internalType": "uint16",
          "name": "",
          "type": "uint16"
        }
      ],
      "stateMutability": "view",
      "type": "function"
    },
    {
      "inputs": [],
      "name": "getPlatformFeeInfo",
      "outputs": [
        {
          "internalType": "address",
          "name": "",
          "type": "address"
        },
        {
          "internalType": "uint16",
          "name": "",
          "type": "uint16"
        }
      ],
      "stateMutability": "view",
      "type": "function"
    },
    {
      "inputs": [
        {
          "internalType": "bytes32",
          "name": "role",
          "type": "bytes32"
        }
      ],
      "name": "getRoleAdmin",
      "outputs": [
        {
          "internalType": "bytes32",
          "name": "",
          "type": "bytes32"
        }
      ],
      "stateMutability": "view",
      "type": "function"
    },
    {
      "inputs": [
        {
          "internalType": "bytes32",
          "name": "role",
          "type": "bytes32"
        },
        {
          "internalType": "uint256",
          "name": "index",
          "type": "uint256"
        }
      ],
      "name": "getRoleMember",
      "outputs": [
        {
          "internalType": "address",
          "name": "",
          "type": "address"
        }
      ],
      "stateMutability": "view",
      "type": "function"
    },
    {
      "inputs": [
        {
          "internalType": "bytes32",
          "name": "role",
          "type": "bytes32"
        }
      ],
      "name": "getRoleMemberCount",
      "outputs": [
        {
          "internalType": "uint256",
          "name": "",
          "type": "uint256"
        }
      ],
      "stateMutability": "view",
      "type": "function"
    },
    {
      "inputs": [
        {
          "internalType": "uint256",
          "name": "_tokenId",
          "type": "uint256"
        }
      ],
      "name": "getRoyaltyInfoForToken",
      "outputs": [
        {
          "internalType": "address",
          "name": "",
          "type": "address"
        },
        {
          "internalType": "uint16",
          "name": "",
          "type": "uint16"
        }
      ],
      "stateMutability": "view",
      "type": "function"
    },
    {
      "inputs": [
        {
          "internalType": "bytes32",
          "name": "role",
          "type": "bytes32"
        },
        {
          "internalType": "address",
          "name": "account",
          "type": "address"
        }
      ],
      "name": "grantRole",
      "outputs": [],
      "stateMutability": "nonpayable",
      "type": "function"
    },
    {
      "inputs": [
        {
          "internalType": "bytes32",
          "name": "role",
          "type": "bytes32"
        },
        {
          "internalType": "address",
          "name": "account",
          "type": "address"
        }
      ],
      "name": "hasRole",
      "outputs": [
        {
          "internalType": "bool",
          "name": "",
          "type": "bool"
        }
      ],
      "stateMutability": "view",
      "type": "function"
    },
    {
      "inputs": [
        {
          "internalType": "address",
          "name": "_defaultAdmin",
          "type": "address"
        },
        {
          "internalType": "string",
          "name": "_name",
          "type": "string"
        },
        {
          "internalType": "string",
          "name": "_symbol",
          "type": "string"
        },
        {
          "internalType": "string",
          "name": "_contractURI",
          "type": "string"
        },
        {
          "internalType": "address[]",
          "name": "_trustedForwarders",
          "type": "address[]"
        },
        {
          "internalType": "address",
          "name": "_primarySaleRecipient",
          "type": "address"
        },
        {
          "internalType": "address",
          "name": "_royaltyRecipient",
          "type": "address"
        },
        {
          "internalType": "uint128",
          "name": "_royaltyBps",
          "type": "uint128"
        },
        {
          "internalType": "uint128",
          "name": "_platformFeeBps",
          "type": "uint128"
        },
        {
          "internalType": "address",
          "name": "_platformFeeRecipient",
          "type": "address"
        }
      ],
      "name": "initialize",
      "outputs": [],
      "stateMutability": "nonpayable",
      "type": "function"
    },
    {
      "inputs": [
        {
          "internalType": "address",
          "name": "account",
          "type": "address"
        },
        {
          "internalType": "address",
          "name": "operator",
          "type": "address"
        }
      ],
      "name": "isApprovedForAll",
      "outputs": [
        {
          "internalType": "bool",
          "name": "",
          "type": "bool"
        }
      ],
      "stateMutability": "view",
      "type": "function"
    },
    {
      "inputs": [
        {
          "internalType": "address",
          "name": "forwarder",
          "type": "address"
        }
      ],
      "name": "isTrustedForwarder",
      "outputs": [
        {
          "internalType": "bool",
          "name": "",
          "type": "bool"
        }
      ],
      "stateMutability": "view",
      "type": "function"
    },
    {
      "inputs": [
        {
          "internalType": "address",
          "name": "_to",
          "type": "address"
        },
        {
          "internalType": "uint256",
          "name": "_tokenId",
          "type": "uint256"
        },
        {
          "internalType": "string",
          "name": "_uri",
          "type": "string"
        },
        {
          "internalType": "uint256",
          "name": "_amount",
          "type": "uint256"
        }
      ],
      "name": "mintTo",
      "outputs": [],
      "stateMutability": "nonpayable",
      "type": "function"
    },
    {
      "inputs": [
        {
          "components": [
            {
              "internalType": "address",
              "name": "to",
              "type": "address"
            },
            {
              "internalType": "address",
              "name": "royaltyRecipient",
              "type": "address"
            },
            {
              "internalType": "uint256",
              "name": "royaltyBps",
              "type": "uint256"
            },
            {
              "internalType": "address",
              "name": "primarySaleRecipient",
              "type": "address"
            },
            {
              "internalType": "uint256",
              "name": "tokenId",
              "type": "uint256"
            },
            {
              "internalType": "string",
              "name": "uri",
              "type": "string"
            },
            {
              "internalType": "uint256",
              "name": "quantity",
              "type": "uint256"
            },
            {
              "internalType": "uint256",
              "name": "pricePerToken",
              "type": "uint256"
            },
            {
              "internalType": "address",
              "name": "currency",
              "type": "address"
            },
            {
              "internalType": "uint128",
              "name": "validityStartTimestamp",
              "type": "uint128"
            },
            {
              "internalType": "uint128",
              "name": "validityEndTimestamp",
              "type": "uint128"
            },
            {
              "internalType": "bytes32",
              "name": "uid",
              "type": "bytes32"
            }
          ],
          "internalType": "struct ITokenERC1155.MintRequest",
          "name": "_req",
          "type": "tuple"
        },
        {
          "internalType": "bytes",
          "name": "_signature",
          "type": "bytes"
        }
      ],
      "name": "mintWithSignature",
      "outputs": [],
      "stateMutability": "payable",
      "type": "function"
    },
    {
      "inputs": [
        {
          "internalType": "bytes[]",
          "name": "data",
          "type": "bytes[]"
        }
      ],
      "name": "multicall",
      "outputs": [
        {
          "internalType": "bytes[]",
          "name": "results",
          "type": "bytes[]"
        }
      ],
      "stateMutability": "nonpayable",
      "type": "function"
    },
    {
      "inputs": [],
      "name": "name",
      "outputs": [
        {
          "internalType": "string",
          "name": "",
          "type": "string"
        }
      ],
      "stateMutability": "view",
      "type": "function"
    },
    {
      "inputs": [],
      "name": "nextTokenIdToMint",
      "outputs": [
        {
          "internalType": "uint256",
          "name": "",
          "type": "uint256"
        }
      ],
      "stateMutability": "view",
      "type": "function"
    },
    {
      "inputs": [],
      "name": "owner",
      "outputs": [
        {
          "internalType": "address",
          "name": "",
          "type": "address"
        }
      ],
      "stateMutability": "view",
      "type": "function"
    },
    {
      "inputs": [],
      "name": "platformFeeRecipient",
      "outputs": [
        {
          "internalType": "address",
          "name": "",
          "type": "address"
        }
      ],
      "stateMutability": "view",
      "type": "function"
    },
    {
      "inputs": [],
      "name": "primarySaleRecipient",
      "outputs": [
        {
          "internalType": "address",
          "name": "",
          "type": "address"
        }
      ],
      "stateMutability": "view",
      "type": "function"
    },
    {
      "inputs": [
        {
          "internalType": "bytes32",
          "name": "role",
          "type": "bytes32"
        },
        {
          "internalType": "address",
          "name": "account",
          "type": "address"
        }
      ],
      "name": "renounceRole",
      "outputs": [],
      "stateMutability": "nonpayable",
      "type": "function"
    },
    {
      "inputs": [
        {
          "internalType": "bytes32",
          "name": "role",
          "type": "bytes32"
        },
        {
          "internalType": "address",
          "name": "account",
          "type": "address"
        }
      ],
      "name": "revokeRole",
      "outputs": [],
      "stateMutability": "nonpayable",
      "type": "function"
    },
    {
      "inputs": [
        {
          "internalType": "uint256",
          "name": "tokenId",
          "type": "uint256"
        },
        {
          "internalType": "uint256",
          "name": "salePrice",
          "type": "uint256"
        }
      ],
      "name": "royaltyInfo",
      "outputs": [
        {
          "internalType": "address",
          "name": "receiver",
          "type": "address"
        },
        {
          "internalType": "uint256",
          "name": "royaltyAmount",
          "type": "uint256"
        }
      ],
      "stateMutability": "view",
      "type": "function"
    },
    {
      "inputs": [
        {
          "internalType": "address",
          "name": "from",
          "type": "address"
        },
        {
          "internalType": "address",
          "name": "to",
          "type": "address"
        },
        {
          "internalType": "uint256[]",
          "name": "ids",
          "type": "uint256[]"
        },
        {
          "internalType": "uint256[]",
          "name": "amounts",
          "type": "uint256[]"
        },
        {
          "internalType": "bytes",
          "name": "data",
          "type": "bytes"
        }
      ],
      "name": "safeBatchTransferFrom",
      "outputs": [],
      "stateMutability": "nonpayable",
      "type": "function"
    },
    {
      "inputs": [
        {
          "internalType": "address",
          "name": "from",
          "type": "address"
        },
        {
          "internalType": "address",
          "name": "to",
          "type": "address"
        },
        {
          "internalType": "uint256",
          "name": "id",
          "type": "uint256"
        },
        {
          "internalType": "uint256",
          "name": "amount",
          "type": "uint256"
        },
        {
          "internalType": "bytes",
          "name": "data",
          "type": "bytes"
        }
      ],
      "name": "safeTransferFrom",
      "outputs": [],
      "stateMutability": "nonpayable",
      "type": "function"
    },
    {
      "inputs": [
        {
          "internalType": "uint256",
          "name": "",
          "type": "uint256"
        }
      ],
      "name": "saleRecipientForToken",
      "outputs": [
        {
          "internalType": "address",
          "name": "",
          "type": "address"
        }
      ],
      "stateMutability": "view",
      "type": "function"
    },
    {
      "inputs": [
        {
          "internalType": "address",
          "name": "operator",
          "type": "address"
        },
        {
          "internalType": "bool",
          "name": "approved",
          "type": "bool"
        }
      ],
      "name": "setApprovalForAll",
      "outputs": [],
      "stateMutability": "nonpayable",
      "type": "function"
    },
    {
      "inputs": [
        {
          "internalType": "string",
          "name": "_uri",
          "type": "string"
        }
      ],
      "name": "setContractURI",
      "outputs": [],
      "stateMutability": "nonpayable",
      "type": "function"
    },
    {
      "inputs": [
        {
          "internalType": "address",
          "name": "_royaltyRecipient",
          "type": "address"
        },
        {
          "internalType": "uint256",
          "name": "_royaltyBps",
          "type": "uint256"
        }
      ],
      "name": "setDefaultRoyaltyInfo",
      "outputs": [],
      "stateMutability": "nonpayable",
      "type": "function"
    },
    {
      "inputs": [
        {
          "internalType": "address",
          "name": "_newOwner",
          "type": "address"
        }
      ],
      "name": "setOwner",
      "outputs": [],
      "stateMutability": "nonpayable",
      "type": "function"
    },
    {
      "inputs": [
        {
          "internalType": "address",
          "name": "_platformFeeRecipient",
          "type": "address"
        },
        {
          "internalType": "uint256",
          "name": "_platformFeeBps",
          "type": "uint256"
        }
      ],
      "name": "setPlatformFeeInfo",
      "outputs": [],
      "stateMutability": "nonpayable",
      "type": "function"
    },
    {
      "inputs": [
        {
          "internalType": "address",
          "name": "_saleRecipient",
          "type": "address"
        }
      ],
      "name": "setPrimarySaleRecipient",
      "outputs": [],
      "stateMutability": "nonpayable",
      "type": "function"
    },
    {
      "inputs": [
        {
          "internalType": "uint256",
          "name": "_tokenId",
          "type": "uint256"
        },
        {
          "internalType": "address",
          "name": "_recipient",
          "type": "address"
        },
        {
          "internalType": "uint256",
          "name": "_bps",
          "type": "uint256"
        }
      ],
      "name": "setRoyaltyInfoForToken",
      "outputs": [],
      "stateMutability": "nonpayable",
      "type": "function"
    },
    {
      "inputs": [
        {
          "internalType": "bytes4",
          "name": "interfaceId",
          "type": "bytes4"
        }
      ],
      "name": "supportsInterface",
      "outputs": [
        {
          "internalType": "bool",
          "name": "",
          "type": "bool"
        }
      ],
      "stateMutability": "view",
      "type": "function"
    },
    {
      "inputs": [],
      "name": "symbol",
      "outputs": [
        {
          "internalType": "string",
          "name": "",
          "type": "string"
        }
      ],
      "stateMutability": "view",
      "type": "function"
    },
    {
      "inputs": [
        {
          "internalType": "uint256",
          "name": "",
          "type": "uint256"
        }
      ],
      "name": "totalSupply",
      "outputs": [
        {
          "internalType": "uint256",
          "name": "",
          "type": "uint256"
        }
      ],
      "stateMutability": "view",
      "type": "function"
    },
    {
      "inputs": [
        {
          "internalType": "uint256",
          "name": "_tokenId",
          "type": "uint256"
        }
      ],
      "name": "uri",
      "outputs": [
        {
          "internalType": "string",
          "name": "",
          "type": "string"
        }
      ],
      "stateMutability": "view",
      "type": "function"
    },
    {
      "inputs": [
        {
          "components": [
            {
              "internalType": "address",
              "name": "to",
              "type": "address"
            },
            {
              "internalType": "address",
              "name": "royaltyRecipient",
              "type": "address"
            },
            {
              "internalType": "uint256",
              "name": "royaltyBps",
              "type": "uint256"
            },
            {
              "internalType": "address",
              "name": "primarySaleRecipient",
              "type": "address"
            },
            {
              "internalType": "uint256",
              "name": "tokenId",
              "type": "uint256"
            },
            {
              "internalType": "string",
              "name": "uri",
              "type": "string"
            },
            {
              "internalType": "uint256",
              "name": "quantity",
              "type": "uint256"
            },
            {
              "internalType": "uint256",
              "name": "pricePerToken",
              "type": "uint256"
            },
            {
              "internalType": "address",
              "name": "currency",
              "type": "address"
            },
            {
              "internalType": "uint128",
              "name": "validityStartTimestamp",
              "type": "uint128"
            },
            {
              "internalType": "uint128",
              "name": "validityEndTimestamp",
              "type": "uint128"
            },
            {
              "internalType": "bytes32",
              "name": "uid",
              "type": "bytes32"
            }
          ],
          "internalType": "struct ITokenERC1155.MintRequest",
          "name": "_req",
          "type": "tuple"
        },
        {
          "internalType": "bytes",
          "name": "_signature",
          "type": "bytes"
        }
      ],
      "name": "verify",
      "outputs": [
        {
          "internalType": "bool",
          "name": "",
          "type": "bool"
        },
        {
          "internalType": "address",
          "name": "",
          "type": "address"
        }
      ],
      "stateMutability": "view",
      "type": "function"
    }
  ],
  "bytecode": "0x60806040523480156200001157600080fd5b50600054610100900460ff1615808015620000335750600054600160ff909116105b8062000063575062000050306200013d60201b62001cbd1760201c565b15801562000063575060005460ff166001145b620000cb5760405162461bcd60e51b815260206004820152602e60248201527f496e697469616c697a61626c653a20636f6e747261637420697320616c72656160448201526d191e481a5b9a5d1a585b1a5e995960921b606482015260840160405180910390fd5b6000805460ff191660011790558015620000ef576000805461ff0019166101001790555b801562000136576000805461ff0019169055604051600181527f7f26b83ff96e1f2b6a682f133852f6798a09c465da95921460cefb38474024989060200160405180910390a15b506200014c565b6001600160a01b03163b151590565b615536806200015c6000396000f3fe6080604052600436106102c15760003560e01c8063938e3d7b1161017f578063bd85b039116100e1578063e8a3d4851161008a578063eb13554f11610064578063eb13554f14610941578063f242432a14610962578063f5298aca1461098257600080fd5b8063e8a3d485146108ab578063e985e9c5146108c0578063ea500d691461090a57600080fd5b8063d45573f6116100bb578063d45573f614610835578063d547741f1461086b578063e15916341461088b57600080fd5b8063bd85b039146107c5578063ca15c873146107f3578063cb2ef6f71461081357600080fd5b8063a217fddf11610143578063b03f45281161011d578063b03f452814610737578063b17cd86f14610757578063b24f2d391461079657600080fd5b8063a217fddf146106d5578063a22cb465146106ea578063ac9650d81461070a57600080fd5b8063938e3d7b1461065157806395d89b411461067157806398a6e993146106865780639bcf7a1514610699578063a0a8e460146106b957600080fd5b806336568abe11610228578063600dd5ea116101ec5780638da5cb5b116101c65780638da5cb5b146105d55780639010d07c146105ea57806391d148541461060a57600080fd5b8063600dd5ea146105755780636b20c454146105955780636f4f2837146105b557600080fd5b806336568abe146104965780633b1475a7146104b65780634cc157df146104cd5780634e1273f41461050f578063572b6c051461053c57600080fd5b806313af40351161028a5780632a55205a116102645780632a55205a146104175780632eb2c2d6146104565780632f2ff15d1461047657600080fd5b806313af4035146103a45780631e7ac488146103c6578063248a9ca3146103e657600080fd5b8062fdd58e146102c657806301ffc9a7146102f957806306fdde0314610329578063079fe40e1461034b5780630e89341c14610384575b600080fd5b3480156102d257600080fd5b506102e66102e13660046144fa565b6109a2565b6040519081526020015b60405180910390f35b34801561030557600080fd5b5061031961031436600461453a565b610a3e565b60405190151581526020016102f0565b34801561033557600080fd5b5061033e610a84565b6040516102f091906145af565b34801561035757600080fd5b506101c95461036c906001600160a01b031681565b6040516001600160a01b0390911681526020016102f0565b34801561039057600080fd5b5061033e61039f3660046145c2565b610b13565b3480156103b057600080fd5b506103c46103bf3660046145db565b610bb6565b005b3480156103d257600080fd5b506103c46103e13660046144fa565b610c9c565b3480156103f257600080fd5b506102e66104013660046145c2565b600090815261012f602052604090206001015490565b34801561042357600080fd5b506104376104323660046145f6565b610d65565b604080516001600160a01b0390931683526020830191909152016102f0565b34801561046257600080fd5b506103c4610471366004614764565b610da2565b34801561048257600080fd5b506103c461049136600461480e565b610e48565b3480156104a257600080fd5b506103c46104b136600461480e565b610e73565b3480156104c257600080fd5b506102e66101c85481565b3480156104d957600080fd5b506104ed6104e83660046145c2565b610f0f565b604080516001600160a01b03909316835261ffff9091166020830152016102f0565b34801561051b57600080fd5b5061052f61052a3660046148a7565b610f7f565b6040516102f09190614946565b34801561054857600080fd5b506103196105573660046145db565b6001600160a01b031660009081526099602052604090205460ff1690565b34801561058157600080fd5b506103c46105903660046144fa565b6110a9565b3480156105a157600080fd5b506103c46105b0366004614959565b61116f565b3480156105c157600080fd5b506103c46105d03660046145db565b611207565b3480156105e157600080fd5b5061036c61125e565b3480156105f657600080fd5b5061036c6106053660046145f6565b6112b9565b34801561061657600080fd5b5061031961062536600461480e565b600091825261012f602090815260408084206001600160a01b0393909316845291905290205460ff1690565b34801561065d57600080fd5b506103c461066c366004614a0f565b6112d9565b34801561067d57600080fd5b5061033e6112f7565b6103c4610694366004614a51565b611305565b3480156106a557600080fd5b506103c46106b4366004614ac3565b6114f8565b3480156106c557600080fd5b50604051600181526020016102f0565b3480156106e157600080fd5b506102e6600081565b3480156106f657600080fd5b506103c4610705366004614b06565b6115d1565b34801561071657600080fd5b5061072a610725366004614b3d565b6115e3565b6040516102f09190614bb2565b34801561074357600080fd5b506103c4610752366004614c14565b6116d8565b34801561076357600080fd5b50610777610772366004614a51565b611787565b6040805192151583526001600160a01b039091166020830152016102f0565b3480156107a257600080fd5b506101cb546101cc546001600160a01b03909116906001600160801b03166104ed565b3480156107d157600080fd5b506102e66107e03660046145c2565b6101d06020526000908152604090205481565b3480156107ff57600080fd5b506102e661080e3660046145c2565b611802565b34801561081f57600080fd5b506b546f6b656e4552433131353560a01b6102e6565b34801561084157600080fd5b506101ca546101cc546001600160a01b0390911690600160801b90046001600160801b03166104ed565b34801561087757600080fd5b506103c461088636600461480e565b61181a565b34801561089757600080fd5b506103c46108a6366004614c8d565b611840565b3480156108b757600080fd5b5061033e611b78565b3480156108cc57600080fd5b506103196108db366004614da0565b6001600160a01b0391821660009081526101946020908152604080832093909416825291909152205460ff1690565b34801561091657600080fd5b5061036c6109253660046145c2565b6101d1602052600090815260409020546001600160a01b031681565b34801561094d57600080fd5b506101ca5461036c906001600160a01b031681565b34801561096e57600080fd5b506103c461097d366004614dca565b611b86565b34801561098e57600080fd5b506103c461099d366004614e2f565b611c25565b60006001600160a01b038316610a125760405162461bcd60e51b815260206004820152602a60248201527f455243313135353a2061646472657373207a65726f206973206e6f742061207660448201526930b634b21037bbb732b960b11b60648201526084015b60405180910390fd5b506000818152610193602090815260408083206001600160a01b03861684529091529020545b92915050565b6000610a4982611ccc565b80610a6457506001600160e01b03198216636cdb3d1360e11b145b80610a3857506001600160e01b0319821663152a902d60e11b1492915050565b6101c58054610a9290614e62565b80601f0160208091040260200160405190810160405280929190818152602001828054610abe90614e62565b8015610b0b5780601f10610ae057610100808354040283529160200191610b0b565b820191906000526020600020905b815481529060010190602001808311610aee57829003601f168201915b505050505081565b60008181526101cf60205260409020805460609190610b3190614e62565b80601f0160208091040260200160405190810160405280929190818152602001828054610b5d90614e62565b8015610baa5780601f10610b7f57610100808354040283529160200191610baa565b820191906000526020600020905b815481529060010190602001808311610b8d57829003601f168201915b50505050509050919050565b6000610bc181611d0c565b6001600160a01b03821660009081527fe9104285c6851efcbc5e0e70440200efbdcab556a1c8784776780f8bb44f2931602052604090205460ff16610c485760405162461bcd60e51b815260206004820152601b60248201527f6e6577206f776e6572206e6f74206d6f64756c652061646d696e2e00000000006044820152606401610a09565b6101c780546001600160a01b038481166001600160a01b0319831681179093556040519116919082907f8292fce18fa69edf4db7b94ea2e58241df0ae57f97e0a6c9b29067028bf92d7690600090a3505050565b6000610ca781611d0c565b612710821115610ceb5760405162461bcd60e51b815260206004820152600f60248201526e65786365656473204d41585f42505360881b6044820152606401610a09565b6101cc80546001600160801b031667ffffffffffffffff8416600160801b021790556101ca80546001600160a01b0319166001600160a01b0385169081179091556040518381527fe2497bd806ec41a6e0dd992c29a72efc0ef8fec9092d1978fd4a1e00b2f18304906020015b60405180910390a2505050565b600080600080610d7486610f0f565b90945084925061ffff169050612710610d8d8287614eb3565b610d979190614ed2565b925050509250929050565b610daa611d20565b6001600160a01b0316856001600160a01b03161480610dd05750610dd0856108db611d20565b610e345760405162461bcd60e51b815260206004820152602f60248201527f455243313135353a2063616c6c6572206973206e6f7420746f6b656e206f776e60448201526e195c881b9bdc88185c1c1c9bdd9959608a1b6064820152608401610a09565b610e418585858585611d2a565b5050505050565b600082815261012f6020526040902060010154610e6481611d0c565b610e6e8383611fa6565b505050565b610e7b611d20565b6001600160a01b0316816001600160a01b031614610f015760405162461bcd60e51b815260206004820152602f60248201527f416363657373436f6e74726f6c3a2063616e206f6e6c792072656e6f756e636560448201527f20726f6c657320666f722073656c6600000000000000000000000000000000006064820152608401610a09565b610f0b8282611fc9565b5050565b60008181526101d260209081526040808320815180830190925280546001600160a01b031680835260019091015492820192909252829115610f575780516020820151610f75565b6101cb546101cc546001600160a01b03909116906001600160801b03165b9250925050915091565b60608151835114610fe45760405162461bcd60e51b815260206004820152602960248201527f455243313135353a206163636f756e747320616e6420696473206c656e677468604482015268040dad2e6dac2e8c6d60bb1b6064820152608401610a09565b6000835167ffffffffffffffff81111561100057611000614618565b604051908082528060200260200182016040528015611029578160200160208202803683370190505b50905060005b84518110156110a15761107485828151811061104d5761104d614ef4565b602002602001015185838151811061106757611067614ef4565b60200260200101516109a2565b82828151811061108657611086614ef4565b602090810291909101015261109a81614f0a565b905061102f565b509392505050565b60006110b481611d0c565b6127108211156110fb5760405162461bcd60e51b815260206004820152601260248201527165786365656420726f79616c74792062707360701b6044820152606401610a09565b6101cb80546001600160a01b0319166001600160a01b0385169081179091556101cc80546fffffffffffffffffffffffffffffffff19166001600160801b0385161790556040518381527f90d7ec04bcb8978719414f82e52e4cb651db41d0e6f8cea6118c2191e6183adb90602001610d58565b611177611d20565b6001600160a01b0316836001600160a01b0316148061119d575061119d836108db611d20565b6111fc5760405162461bcd60e51b815260206004820152602a60248201527f455243313135353a2063616c6c6572206973206e6f74206f776e6572206e6f726044820152691030b8383937bb32b21760b11b6064820152608401610a09565b610e6e838383611fec565b600061121281611d0c565b6101c980546001600160a01b0319166001600160a01b0384169081179091556040517f299d17e95023f496e0ffc4909cff1a61f74bb5eb18de6f900f4155bfa1b3b33390600090a25050565b6101c7546001600160a01b031660009081527fe9104285c6851efcbc5e0e70440200efbdcab556a1c8784776780f8bb44f2931602052604081205460ff166112a65750600090565b6101c7546001600160a01b03165b905090565b6000828152610161602052604081206112d2908361224d565b9392505050565b60006112e481611d0c565b6112f16101cd84846143d1565b50505050565b6101c68054610a9290614e62565b600260355414156113585760405162461bcd60e51b815260206004820152601f60248201527f5265656e7472616e637947756172643a207265656e7472616e742063616c6c006044820152606401610a09565b6002603555600061136a848484612259565b9050600061137b60208601866145db565b90506000600019866080013514156113ae57506101c880549060019060006113a38385614f25565b909155506113f89050565b6101c8548660800135106113f15760405162461bcd60e51b815260206004820152600a6024820152691a5b9d985b1a59081a5960b21b6044820152606401610a09565b5060808501355b600061140a60408801602089016145db565b6001600160a01b03161461147a57604051806040016040528087602001602081019061143691906145db565b6001600160a01b03908116825260408981013560209384015260008581526101d2845220835181546001600160a01b03191692169190911781559101516001909101555b6114968261148b60a0890189614f3d565b848a60c0013561241e565b61149f8661250f565b80826001600160a01b0316846001600160a01b03167f0b35afaf155daeef41cc46df86f058df2855c57d30ab134647a6b587e7cc8c39896040516114e39190614ff3565b60405180910390a45050600160355550505050565b600061150381611d0c565b61271082111561154a5760405162461bcd60e51b815260206004820152601260248201527165786365656420726f79616c74792062707360701b6044820152606401610a09565b6040805180820182526001600160a01b03858116808352602080840187815260008a81526101d28352869020945185546001600160a01b031916941693909317845591516001909301929092559151848152909186917f7365cf4122f072a3365c20d54eff9b38d73c096c28e1892ec8f5b0e403a0f12d910160405180910390a350505050565b610f0b6115dc611d20565b83836126de565b60608167ffffffffffffffff8111156115fe576115fe614618565b60405190808252806020026020018201604052801561163157816020015b606081526020019060019003908161161c5790505b50905060005b828110156116d1576116a13085858481811061165557611655614ef4565b90506020028101906116679190614f3d565b8080601f0160208091040260200160405190810160405280939291908181526020018383808284376000920191909152506127c092505050565b8282815181106116b3576116b3614ef4565b602002602001018190525080806116c990614f0a565b915050611637565b5092915050565b7f9f2df0fed2c77648de5860a4cc508cd0818c85b8b8a1ab4ceeef8d981c8956a661170281611d0c565b600060001986141561172f57506101c880549060019060006117248385614f25565b909155506117719050565b6101c854861061176e5760405162461bcd60e51b815260206004820152600a6024820152691a5b9d985b1a59081a5960b21b6044820152606401610a09565b50845b61177e878686848761241e565b50505050505050565b60008060006117978686866128b4565b61016087013560009081526101ce602052604090205490915060ff161580156117f757506001600160a01b03811660009081527fa2a71de801f4f5af590dd1e71778408c512ca00170a88b45ca00ba943b31e98e602052604090205460ff165b969095509350505050565b600081815261016160205260408120610a3890612918565b600082815261012f602052604090206001015461183681611d0c565b610e6e8383611fc9565b600054610100900460ff16158080156118605750600054600160ff909116105b8061187a5750303b15801561187a575060005460ff166001145b6118dd5760405162461bcd60e51b815260206004820152602e60248201527f496e697469616c697a61626c653a20636f6e747261637420697320616c72656160448201526d191e481a5b9a5d1a585b1a5e995960921b6064820152608401610a09565b6000805460ff191660011790558015611900576000805461ff0019166101001790555b611908612922565b61194f6040518060400160405280600c81526020016b546f6b656e4552433131353560a01b815250604051806040016040528060018152602001603160f81b815250612953565b61195887612984565b611970604051806020016040528060008152506129bc565b8951611984906101c59060208d0190614455565b508851611999906101c69060208c0190614455565b506101cb80546001600160a01b03199081166001600160a01b03888116919091179092556101cc80546fffffffffffffffffffffffffffffffff19166001600160801b0388161790556101ca805482168584161790556101c980549091169188169190911790558751611a14906101cd9060208b0190614455565b50612710836001600160801b03161115611a625760405162461bcd60e51b815260206004820152600f60248201526e65786365656473204d41585f42505360881b6044820152606401610a09565b6101cc80546001600160801b03808616600160801b0291161790556101c780546001600160a01b038d166001600160a01b0319909116179055611aa660008c6129ec565b611ad07f9f2df0fed2c77648de5860a4cc508cd0818c85b8b8a1ab4ceeef8d981c8956a68c6129ec565b611afa7f8502233096d909befbda0999bb8ea2f3a6be3c138b9fbf003752a4c8bce86f6c8c6129ec565b611b257f8502233096d909befbda0999bb8ea2f3a6be3c138b9fbf003752a4c8bce86f6c60006129ec565b8015611b6b576000805461ff0019169055604051600181527f7f26b83ff96e1f2b6a682f133852f6798a09c465da95921460cefb38474024989060200160405180910390a15b5050505050505050505050565b6101cd8054610a9290614e62565b611b8e611d20565b6001600160a01b0316856001600160a01b03161480611bb45750611bb4856108db611d20565b611c185760405162461bcd60e51b815260206004820152602f60248201527f455243313135353a2063616c6c6572206973206e6f7420746f6b656e206f776e60448201526e195c881b9bdc88185c1c1c9bdd9959608a1b6064820152608401610a09565b610e4185858585856129f6565b611c2d611d20565b6001600160a01b0316836001600160a01b03161480611c535750611c53836108db611d20565b611cb25760405162461bcd60e51b815260206004820152602a60248201527f455243313135353a2063616c6c6572206973206e6f74206f776e6572206e6f726044820152691030b8383937bb32b21760b11b6064820152608401610a09565b610e6e838383612bc0565b6001600160a01b03163b151590565b60006001600160e01b03198216636cdb3d1360e11b1480611cfd57506001600160e01b031982166303a24d0760e21b145b80610a385750610a3882612d61565b611d1d81611d18611d20565b612d86565b50565b60006112b4612e07565b8151835114611d8c5760405162461bcd60e51b815260206004820152602860248201527f455243313135353a2069647320616e6420616d6f756e7473206c656e677468206044820152670dad2e6dac2e8c6d60c31b6064820152608401610a09565b6001600160a01b038416611df05760405162461bcd60e51b815260206004820152602560248201527f455243313135353a207472616e7366657220746f20746865207a65726f206164604482015264647265737360d81b6064820152608401610a09565b6000611dfa611d20565b9050611e0a818787878787612e34565b60005b8451811015611f38576000858281518110611e2a57611e2a614ef4565b602002602001015190506000858381518110611e4857611e48614ef4565b6020908102919091018101516000848152610193835260408082206001600160a01b038e168352909352919091205490915081811015611edd5760405162461bcd60e51b815260206004820152602a60248201527f455243313135353a20696e73756666696369656e742062616c616e636520666f60448201526939103a3930b739b332b960b11b6064820152608401610a09565b6000838152610193602090815260408083206001600160a01b038e8116855292528083208585039055908b16825281208054849290611f1d908490614f25565b9250508190555050505080611f3190614f0a565b9050611e0d565b50846001600160a01b0316866001600160a01b0316826001600160a01b03167f4a39dc06d4c0dbc64b70af90fd698a233a518aa5d07e595d983b8c0526c8f7fb8787604051611f88929190615122565b60405180910390a4611f9e818787878787613092565b505050505050565b611fb08282613238565b600082815261016160205260409020610e6e90826132dd565b611fd382826132f2565b600082815261016160205260409020610e6e9082613395565b6001600160a01b03831661204e5760405162461bcd60e51b815260206004820152602360248201527f455243313135353a206275726e2066726f6d20746865207a65726f206164647260448201526265737360e81b6064820152608401610a09565b80518251146120b05760405162461bcd60e51b815260206004820152602860248201527f455243313135353a2069647320616e6420616d6f756e7473206c656e677468206044820152670dad2e6dac2e8c6d60c31b6064820152608401610a09565b60006120ba611d20565b90506120da81856000868660405180602001604052806000815250612e34565b60005b83518110156121e05760008482815181106120fa576120fa614ef4565b60200260200101519050600084838151811061211857612118614ef4565b6020908102919091018101516000848152610193835260408082206001600160a01b038c1683529093529190912054909150818110156121a65760405162461bcd60e51b8152602060048201526024808201527f455243313135353a206275726e20616d6f756e7420657863656564732062616c604482015263616e636560e01b6064820152608401610a09565b6000928352610193602090815260408085206001600160a01b038b16865290915290922091039055806121d881614f0a565b9150506120dd565b5060006001600160a01b0316846001600160a01b0316826001600160a01b03167f4a39dc06d4c0dbc64b70af90fd698a233a518aa5d07e595d983b8c0526c8f7fb8686604051612231929190615122565b60405180910390a46040805160208101909152600090526112f1565b60006112d283836133aa565b6000806000612269868686611787565b91509150816122ba5760405162461bcd60e51b815260206004820152601160248201527f696e76616c6964207369676e61747572650000000000000000000000000000006044820152606401610a09565b426122cd61014088016101208901615147565b6001600160801b0316111580156122fe5750426122f261016088016101408901615147565b6001600160801b031610155b61234a5760405162461bcd60e51b815260206004820152600f60248201527f72657175657374206578706972656400000000000000000000000000000000006044820152606401610a09565b600061235960208801886145db565b6001600160a01b031614156123b05760405162461bcd60e51b815260206004820152601360248201527f726563697069656e7420756e646566696e6564000000000000000000000000006044820152606401610a09565b60008660c00135116123f45760405162461bcd60e51b815260206004820152600d60248201526c7a65726f207175616e7469747960981b6044820152606401610a09565b61016086013560009081526101ce60205260409020805460ff191660011790559150509392505050565b60008281526101cf60205260409020805461243890614e62565b15159050612496578261247a5760405162461bcd60e51b815260206004820152600a60248201526932b6b83a3c903ab9349760b11b6044820152606401610a09565b60008281526101cf602052604090206124949085856143d1565b505b6124b1858383604051806020016040528060008152506133d4565b81856001600160a01b03167f04133ee4cb027e1c5fce5e3481289278a93bd16a65a3b65b428a6d239e706bfb6101cf600086815260200190815260200160002084604051612500929190615162565b60405180910390a35050505050565b60e081013561251b5750565b600061252f60c083013560e0840135614eb3565b6101cc549091506000906127109061255790600160801b90046001600160801b031684614eb3565b6125619190614ed2565b905073eeeeeeeeeeeeeeeeeeeeeeeeeeeeeeeeeeeeeeee61258a610120850161010086016145db565b6001600160a01b031614156125ed578134146125e85760405162461bcd60e51b815260206004820152601660248201527f6d7573742073656e6420746f74616c2070726963652e000000000000000000006044820152606401610a09565b61263b565b341561263b5760405162461bcd60e51b815260206004820152601260248201527f6d73672076616c7565206e6f74207a65726f00000000000000000000000000006044820152606401610a09565b60008061264e60808601606087016145db565b6001600160a01b0316146126715761266c60808501606086016145db565b61267f565b6101c9546001600160a01b03165b90506126b1612696610120860161010087016145db565b61269e611d20565b6101ca546001600160a01b0316856134fc565b6112f16126c6610120860161010087016145db565b6126ce611d20565b836126d98688615212565b6134fc565b816001600160a01b0316836001600160a01b031614156127525760405162461bcd60e51b815260206004820152602960248201527f455243313135353a2073657474696e6720617070726f76616c20737461747573604482015268103337b91039b2b63360b91b6064820152608401610a09565b6001600160a01b0383811660008181526101946020908152604080832094871680845294825291829020805460ff191686151590811790915591519182527f17307eab39ab6107e8899845ad3d59bd9653f200f220920489ca2b5937696c31910160405180910390a3505050565b60606001600160a01b0383163b6128285760405162461bcd60e51b815260206004820152602660248201527f416464726573733a2064656c65676174652063616c6c20746f206e6f6e2d636f6044820152651b9d1c9858dd60d21b6064820152608401610a09565b600080846001600160a01b0316846040516128439190615229565b600060405180830381855af49150503d806000811461287e576040519150601f19603f3d011682016040523d82523d6000602084013e612883565b606091505b50915091506128ab82826040518060600160405280602781526020016154da60279139613546565b95945050505050565b600061291083838080601f01602080910402602001604051908101604052809392919081815260200183838082843760009201919091525061290a92506128fe915088905061357f565b805190602001206136d5565b90613723565b949350505050565b6000610a38825490565b600054610100900460ff166129495760405162461bcd60e51b8152600401610a0990615245565b61295161373f565b565b600054610100900460ff1661297a5760405162461bcd60e51b8152600401610a0990615245565b610f0b828261376d565b600054610100900460ff166129ab5760405162461bcd60e51b8152600401610a0990615245565b6129b36137ae565b611d1d816137d5565b600054610100900460ff166129e35760405162461bcd60e51b8152600401610a0990615245565b611d1d81613864565b610f0b8282611fa6565b6001600160a01b038416612a5a5760405162461bcd60e51b815260206004820152602560248201527f455243313135353a207472616e7366657220746f20746865207a65726f206164604482015264647265737360d81b6064820152608401610a09565b6000612a64611d20565b90506000612a7185613894565b90506000612a7e85613894565b9050612a8e838989858589612e34565b6000868152610193602090815260408083206001600160a01b038c16845290915290205485811015612b155760405162461bcd60e51b815260206004820152602a60248201527f455243313135353a20696e73756666696369656e742062616c616e636520666f60448201526939103a3930b739b332b960b11b6064820152608401610a09565b6000878152610193602090815260408083206001600160a01b038d8116855292528083208985039055908a16825281208054889290612b55908490614f25565b909155505060408051888152602081018890526001600160a01b03808b16928c821692918816917fc3d58168c5ae7397731d063d5bbf3d657854427343f4c083240f7aacaa2d0f62910160405180910390a4612bb5848a8a8a8a8a6138df565b505050505050505050565b6001600160a01b038316612c225760405162461bcd60e51b815260206004820152602360248201527f455243313135353a206275726e2066726f6d20746865207a65726f206164647260448201526265737360e81b6064820152608401610a09565b6000612c2c611d20565b90506000612c3984613894565b90506000612c4684613894565b9050612c6683876000858560405180602001604052806000815250612e34565b6000858152610193602090815260408083206001600160a01b038a16845290915290205484811015612ce65760405162461bcd60e51b8152602060048201526024808201527f455243313135353a206275726e20616d6f756e7420657863656564732062616c604482015263616e636560e01b6064820152608401610a09565b6000868152610193602090815260408083206001600160a01b038b81168086529184528285208a8703905582518b81529384018a90529092908816917fc3d58168c5ae7397731d063d5bbf3d657854427343f4c083240f7aacaa2d0f62910160405180910390a460408051602081019091526000905261177e565b60006001600160e01b03198216635a05180f60e01b1480610a385750610a38826139db565b600082815261012f602090815260408083206001600160a01b038516845290915290205460ff16610f0b57612dc5816001600160a01b03166014613a10565b612dd0836020613a10565b604051602001612de1929190615290565b60408051601f198184030181529082905262461bcd60e51b8252610a09916004016145af565b3360009081526099602052604081205460ff1615612e2c575060131936013560601c90565b503390565b90565b600080527fdf45e191c6a8bff7d5b2484d5c1deccbd5b2abc06a2abf694394baf9d01cb5e56020527f2b85be2befc2dd713b2f771c3d841437400c04e85bacc15958c6dcadb2aa5c045460ff16158015612e9657506001600160a01b03851615155b8015612eaa57506001600160a01b03841615155b15612f84576001600160a01b03851660009081527fdf45e191c6a8bff7d5b2484d5c1deccbd5b2abc06a2abf694394baf9d01cb5e5602052604090205460ff1680612f2c57506001600160a01b03841660009081527fdf45e191c6a8bff7d5b2484d5c1deccbd5b2abc06a2abf694394baf9d01cb5e5602052604090205460ff165b612f845760405162461bcd60e51b8152602060048201526024808201527f7265737472696374656420746f205452414e534645525f524f4c4520686f6c6460448201526332b9399760e11b6064820152608401610a09565b6001600160a01b03851661300c5760005b835181101561300a57828181518110612fb057612fb0614ef4565b60200260200101516101d06000868481518110612fcf57612fcf614ef4565b602002602001015181526020019081526020016000206000828254612ff49190614f25565b90915550613003905081614f0a565b9050612f95565b505b6001600160a01b038416611f9e5760005b835181101561177e5782818151811061303857613038614ef4565b60200260200101516101d0600086848151811061305757613057614ef4565b60200260200101518152602001908152602001600020600082825461307c9190615212565b9091555061308b905081614f0a565b905061301d565b6001600160a01b0384163b15611f9e5760405163bc197c8160e01b81526001600160a01b0385169063bc197c81906130d69089908990889088908890600401615311565b6020604051808303816000875af1925050508015613111575060408051601f3d908101601f1916820190925261310e9181019061536f565b60015b6131c75761311d61538c565b806308c379a0141561315757506131326153a7565b8061313d5750613159565b8060405162461bcd60e51b8152600401610a0991906145af565b505b60405162461bcd60e51b815260206004820152603460248201527f455243313135353a207472616e7366657220746f206e6f6e204552433131353560448201527f526563656976657220696d706c656d656e7465720000000000000000000000006064820152608401610a09565b6001600160e01b0319811663bc197c8160e01b1461177e5760405162461bcd60e51b815260206004820152602860248201527f455243313135353a204552433131353552656365697665722072656a656374656044820152676420746f6b656e7360c01b6064820152608401610a09565b600082815261012f602090815260408083206001600160a01b038516845290915290205460ff16610f0b57600082815261012f602090815260408083206001600160a01b03851684529091529020805460ff19166001179055613299611d20565b6001600160a01b0316816001600160a01b0316837f2f8788117e7eff1d82e926ec794901d17c78024a50270940304540a733656f0d60405160405180910390a45050565b60006112d2836001600160a01b038416613bb9565b600082815261012f602090815260408083206001600160a01b038516845290915290205460ff1615610f0b57600082815261012f602090815260408083206001600160a01b03851684529091529020805460ff19169055613351611d20565b6001600160a01b0316816001600160a01b0316837ff6391f5c32d9c69d2a47ea670b442974b53935d1edc7fd64eb21e047a839171b60405160405180910390a45050565b60006112d2836001600160a01b038416613c08565b60008260000182815481106133c1576133c1614ef4565b9060005260206000200154905092915050565b6001600160a01b0384166134345760405162461bcd60e51b815260206004820152602160248201527f455243313135353a206d696e7420746f20746865207a65726f206164647265736044820152607360f81b6064820152608401610a09565b600061343e611d20565b9050600061344b85613894565b9050600061345885613894565b905061346983600089858589612e34565b6000868152610193602090815260408083206001600160a01b038b1684529091528120805487929061349c908490614f25565b909155505060408051878152602081018790526001600160a01b03808a1692600092918716917fc3d58168c5ae7397731d063d5bbf3d657854427343f4c083240f7aacaa2d0f62910160405180910390a461177e836000898989896138df565b80613506576112f1565b6001600160a01b03841673eeeeeeeeeeeeeeeeeeeeeeeeeeeeeeeeeeeeeeee141561353a576135358282613cfb565b6112f1565b6112f184848484613d9e565b606083156135555750816112d2565b8251156135655782518084602001fd5b8160405162461bcd60e51b8152600401610a0991906145af565b60607fc7a95ef88f83fa833ccfce325157b7111633b181b6a27181b86415d8d501134d6135af60208401846145db565b6135bf60408501602086016145db565b60408501356135d460808701606088016145db565b60808701356135e660a0890189614f3d565b6040516135f4929190615431565b60405190819003902060c089013560e08a01356136196101208c016101008d016145db565b61362b6101408d016101208e01615147565b61363d6101608e016101408f01615147565b60408051602081019d909d526001600160a01b039b8c16908d0152988a1660608c015260808b019790975294881660a08a015260c089019390935260e08801919091526101008701526101208601529092166101408401526001600160801b039182166101608085019190915291166101808301528301356101a08201526101c0016040516020818303038152906040529050919050565b6000610a386136e2613df7565b8360405161190160f01b6020820152602281018390526042810182905260009060620160405160208183030381529060405280519060200120905092915050565b60008060006137328585613e72565b915091506110a181613eb8565b600054610100900460ff166137665760405162461bcd60e51b8152600401610a0990615245565b6001603555565b600054610100900460ff166137945760405162461bcd60e51b8152600401610a0990615245565b815160209283012081519190920120600191909155600255565b600054610100900460ff166129515760405162461bcd60e51b8152600401610a0990615245565b600054610100900460ff166137fc5760405162461bcd60e51b8152600401610a0990615245565b60005b8151811015610f0b5760016099600084848151811061382057613820614ef4565b6020908102919091018101516001600160a01b03168252810191909152604001600020805460ff19169115159190911790558061385c81614f0a565b9150506137ff565b600054610100900460ff1661388b5760405162461bcd60e51b8152600401610a0990615245565b611d1d81614073565b604080516001808252818301909252606091600091906020808301908036833701905050905082816000815181106138ce576138ce614ef4565b602090810291909101015292915050565b6001600160a01b0384163b15611f9e5760405163f23a6e6160e01b81526001600160a01b0385169063f23a6e61906139239089908990889088908890600401615441565b6020604051808303816000875af192505050801561395e575060408051601f3d908101601f1916820190925261395b9181019061536f565b60015b61396a5761311d61538c565b6001600160e01b0319811663f23a6e6160e01b1461177e5760405162461bcd60e51b815260206004820152602860248201527f455243313135353a204552433131353552656365697665722072656a656374656044820152676420746f6b656e7360c01b6064820152608401610a09565b60006001600160e01b03198216637965db0b60e01b1480610a3857506301ffc9a760e01b6001600160e01b0319831614610a38565b60606000613a1f836002614eb3565b613a2a906002614f25565b67ffffffffffffffff811115613a4257613a42614618565b6040519080825280601f01601f191660200182016040528015613a6c576020820181803683370190505b509050600360fc1b81600081518110613a8757613a87614ef4565b60200101906001600160f81b031916908160001a905350600f60fb1b81600181518110613ab657613ab6614ef4565b60200101906001600160f81b031916908160001a9053506000613ada846002614eb3565b613ae5906001614f25565b90505b6001811115613b6a577f303132333435363738396162636465660000000000000000000000000000000085600f1660108110613b2657613b26614ef4565b1a60f81b828281518110613b3c57613b3c614ef4565b60200101906001600160f81b031916908160001a90535060049490941c93613b6381615479565b9050613ae8565b5083156112d25760405162461bcd60e51b815260206004820181905260248201527f537472696e67733a20686578206c656e67746820696e73756666696369656e746044820152606401610a09565b6000818152600183016020526040812054613c0057508154600181810184556000848152602080822090930184905584548482528286019093526040902091909155610a38565b506000610a38565b60008181526001830160205260408120548015613cf1576000613c2c600183615212565b8554909150600090613c4090600190615212565b9050818114613ca5576000866000018281548110613c6057613c60614ef4565b9060005260206000200154905080876000018481548110613c8357613c83614ef4565b6000918252602080832090910192909255918252600188019052604090208390555b8554869080613cb657613cb6615490565b600190038181906000526020600020016000905590558560010160008681526020019081526020016000206000905560019350505050610a38565b6000915050610a38565b6000826001600160a01b03168260405160006040518083038185875af1925050503d8060008114613d48576040519150601f19603f3d011682016040523d82523d6000602084013e613d4d565b606091505b5050905080610e6e5760405162461bcd60e51b815260206004820152601c60248201527f6e617469766520746f6b656e207472616e73666572206661696c6564000000006044820152606401610a09565b816001600160a01b0316836001600160a01b03161415613dbd576112f1565b6001600160a01b038316301415613de2576135356001600160a01b0385168383614087565b6112f16001600160a01b0385168484846140ff565b60006112b47f8b73c3c69bb8fe3d512ecc4cf759cc79239f7b179b0ffacaa9a75d522b39400f613e2660015490565b6002546040805160208101859052908101839052606081018290524660808201523060a082015260009060c0016040516020818303038152906040528051906020012090509392505050565b600080825160411415613ea95760208301516040840151606085015160001a613e9d87828585614137565b94509450505050613eb1565b506000905060025b9250929050565b6000816004811115613ecc57613ecc6154a6565b1415613ed55750565b6001816004811115613ee957613ee96154a6565b1415613f375760405162461bcd60e51b815260206004820152601860248201527f45434453413a20696e76616c6964207369676e617475726500000000000000006044820152606401610a09565b6002816004811115613f4b57613f4b6154a6565b1415613f995760405162461bcd60e51b815260206004820152601f60248201527f45434453413a20696e76616c6964207369676e6174757265206c656e677468006044820152606401610a09565b6003816004811115613fad57613fad6154a6565b14156140065760405162461bcd60e51b815260206004820152602260248201527f45434453413a20696e76616c6964207369676e6174757265202773272076616c604482015261756560f01b6064820152608401610a09565b600481600481111561401a5761401a6154a6565b1415611d1d5760405162461bcd60e51b815260206004820152602260248201527f45434453413a20696e76616c6964207369676e6174757265202776272076616c604482015261756560f01b6064820152608401610a09565b8051610f0b90610195906020840190614455565b6040516001600160a01b038316602482015260448101829052610e6e90849063a9059cbb60e01b906064015b60408051601f198184030181529190526020810180517bffffffffffffffffffffffffffffffffffffffffffffffffffffffff166001600160e01b031990931692909217909152614224565b6040516001600160a01b03808516602483015283166044820152606481018290526112f19085906323b872dd60e01b906084016140b3565b6000807f7fffffffffffffffffffffffffffffff5d576e7357a4501ddfe92f46681b20a083111561416e575060009050600361421b565b8460ff16601b1415801561418657508460ff16601c14155b15614197575060009050600461421b565b6040805160008082526020820180845289905260ff881692820192909252606081018690526080810185905260019060a0016020604051602081039080840390855afa1580156141eb573d6000803e3d6000fd5b5050604051601f1901519150506001600160a01b0381166142145760006001925092505061421b565b9150600090505b94509492505050565b6000614279826040518060400160405280602081526020017f5361666545524332303a206c6f772d6c6576656c2063616c6c206661696c6564815250856001600160a01b03166142f69092919063ffffffff16565b805190915015610e6e578080602001905181019061429791906154bc565b610e6e5760405162461bcd60e51b815260206004820152602a60248201527f5361666545524332303a204552433230206f7065726174696f6e20646964206e6044820152691bdd081cdd58d8d9595960b21b6064820152608401610a09565b60606129108484600085856001600160a01b0385163b6143585760405162461bcd60e51b815260206004820152601d60248201527f416464726573733a2063616c6c20746f206e6f6e2d636f6e74726163740000006044820152606401610a09565b600080866001600160a01b031685876040516143749190615229565b60006040518083038185875af1925050503d80600081146143b1576040519150601f19603f3d011682016040523d82523d6000602084013e6143b6565b606091505b50915091506143c6828286613546565b979650505050505050565b8280546143dd90614e62565b90600052602060002090601f0160209004810192826143ff5760008555614445565b82601f106144185782800160ff19823516178555614445565b82800160010185558215614445579182015b8281111561444557823582559160200191906001019061442a565b506144519291506144c9565b5090565b82805461446190614e62565b90600052602060002090601f0160209004810192826144835760008555614445565b82601f1061449c57805160ff1916838001178555614445565b82800160010185558215614445579182015b828111156144455782518255916020019190600101906144ae565b5b8082111561445157600081556001016144ca565b80356001600160a01b03811681146144f557600080fd5b919050565b6000806040838503121561450d57600080fd5b614516836144de565b946020939093013593505050565b6001600160e01b031981168114611d1d57600080fd5b60006020828403121561454c57600080fd5b81356112d281614524565b60005b8381101561457257818101518382015260200161455a565b838111156112f15750506000910152565b6000815180845261459b816020860160208601614557565b601f01601f19169290920160200192915050565b6020815260006112d26020830184614583565b6000602082840312156145d457600080fd5b5035919050565b6000602082840312156145ed57600080fd5b6112d2826144de565b6000806040838503121561460957600080fd5b50508035926020909101359150565b634e487b7160e01b600052604160045260246000fd5b601f8201601f1916810167ffffffffffffffff8111828210171561465457614654614618565b6040525050565b600067ffffffffffffffff82111561467557614675614618565b5060051b60200190565b600082601f83011261469057600080fd5b8135602061469d8261465b565b6040516146aa828261462e565b83815260059390931b85018201928281019150868411156146ca57600080fd5b8286015b848110156146e557803583529183019183016146ce565b509695505050505050565b600082601f83011261470157600080fd5b813567ffffffffffffffff81111561471b5761471b614618565b604051614732601f8301601f19166020018261462e565b81815284602083860101111561474757600080fd5b816020850160208301376000918101602001919091529392505050565b600080600080600060a0868803121561477c57600080fd5b614785866144de565b9450614793602087016144de565b9350604086013567ffffffffffffffff808211156147b057600080fd5b6147bc89838a0161467f565b945060608801359150808211156147d257600080fd5b6147de89838a0161467f565b935060808801359150808211156147f457600080fd5b50614801888289016146f0565b9150509295509295909350565b6000806040838503121561482157600080fd5b82359150614831602084016144de565b90509250929050565b600082601f83011261484b57600080fd5b813560206148588261465b565b604051614865828261462e565b83815260059390931b850182019282810191508684111561488557600080fd5b8286015b848110156146e55761489a816144de565b8352918301918301614889565b600080604083850312156148ba57600080fd5b823567ffffffffffffffff808211156148d257600080fd5b6148de8683870161483a565b935060208501359150808211156148f457600080fd5b506149018582860161467f565b9150509250929050565b600081518084526020808501945080840160005b8381101561493b5781518752958201959082019060010161491f565b509495945050505050565b6020815260006112d2602083018461490b565b60008060006060848603121561496e57600080fd5b614977846144de565b9250602084013567ffffffffffffffff8082111561499457600080fd5b6149a08783880161467f565b935060408601359150808211156149b657600080fd5b506149c38682870161467f565b9150509250925092565b60008083601f8401126149df57600080fd5b50813567ffffffffffffffff8111156149f757600080fd5b602083019150836020828501011115613eb157600080fd5b60008060208385031215614a2257600080fd5b823567ffffffffffffffff811115614a3957600080fd5b614a45858286016149cd565b90969095509350505050565b600080600060408486031215614a6657600080fd5b833567ffffffffffffffff80821115614a7e57600080fd5b908501906101808288031215614a9357600080fd5b90935060208501359080821115614aa957600080fd5b50614ab6868287016149cd565b9497909650939450505050565b600080600060608486031215614ad857600080fd5b83359250614ae8602085016144de565b9150604084013590509250925092565b8015158114611d1d57600080fd5b60008060408385031215614b1957600080fd5b614b22836144de565b91506020830135614b3281614af8565b809150509250929050565b60008060208385031215614b5057600080fd5b823567ffffffffffffffff80821115614b6857600080fd5b818501915085601f830112614b7c57600080fd5b813581811115614b8b57600080fd5b8660208260051b8501011115614ba057600080fd5b60209290920196919550909350505050565b6000602080830181845280855180835260408601915060408160051b870101925083870160005b82811015614c0757603f19888603018452614bf5858351614583565b94509285019290850190600101614bd9565b5092979650505050505050565b600080600080600060808688031215614c2c57600080fd5b614c35866144de565b945060208601359350604086013567ffffffffffffffff811115614c5857600080fd5b614c64888289016149cd565b96999598509660600135949350505050565b80356001600160801b03811681146144f557600080fd5b6000806000806000806000806000806101408b8d031215614cad57600080fd5b614cb68b6144de565b995060208b013567ffffffffffffffff80821115614cd357600080fd5b614cdf8e838f016146f0565b9a5060408d0135915080821115614cf557600080fd5b614d018e838f016146f0565b995060608d0135915080821115614d1757600080fd5b614d238e838f016146f0565b985060808d0135915080821115614d3957600080fd5b50614d468d828e0161483a565b965050614d5560a08c016144de565b9450614d6360c08c016144de565b9350614d7160e08c01614c76565b9250614d806101008c01614c76565b9150614d8f6101208c016144de565b90509295989b9194979a5092959850565b60008060408385031215614db357600080fd5b614dbc836144de565b9150614831602084016144de565b600080600080600060a08688031215614de257600080fd5b614deb866144de565b9450614df9602087016144de565b93506040860135925060608601359150608086013567ffffffffffffffff811115614e2357600080fd5b614801888289016146f0565b600080600060608486031215614e4457600080fd5b614e4d846144de565b95602085013595506040909401359392505050565b600181811c90821680614e7657607f821691505b60208210811415614e9757634e487b7160e01b600052602260045260246000fd5b50919050565b634e487b7160e01b600052601160045260246000fd5b6000816000190483118215151615614ecd57614ecd614e9d565b500290565b600082614eef57634e487b7160e01b600052601260045260246000fd5b500490565b634e487b7160e01b600052603260045260246000fd5b6000600019821415614f1e57614f1e614e9d565b5060010190565b60008219821115614f3857614f38614e9d565b500190565b6000808335601e19843603018112614f5457600080fd5b83018035915067ffffffffffffffff821115614f6f57600080fd5b602001915036819003821315613eb157600080fd5b6000808335601e19843603018112614f9b57600080fd5b830160208101925035905067ffffffffffffffff811115614fbb57600080fd5b803603831315613eb157600080fd5b81835281816020850137506000828201602090810191909152601f909101601f19169091010190565b6020815261501460208201615007846144de565b6001600160a01b03169052565b6000615022602084016144de565b6001600160a01b03811660408401525060408301356060830152615048606084016144de565b6001600160a01b038116608084015250608083013560a083015261506f60a0840184614f84565b6101808060c08601526150876101a086018385614fca565b925060c086013560e0860152610100915060e0860135828601526150ac8287016144de565b91506101206150c5818701846001600160a01b03169052565b6150d0818801614c76565b9250506101406150ea818701846001600160801b03169052565b6150f5818801614c76565b92505061016061510f818701846001600160801b03169052565b9590950135939094019290925250919050565b604081526000615135604083018561490b565b82810360208401526128ab818561490b565b60006020828403121561515957600080fd5b6112d282614c76565b60408152600080845481600182811c91508083168061518257607f831692505b60208084108214156151a257634e487b7160e01b86526022600452602486fd5b60408801849052606088018280156151c157600181146151d2576151fd565b60ff198716825282820197506151fd565b60008c81526020902060005b878110156151f7578154848201529086019084016151de565b83019850505b50509690960196909652509095945050505050565b60008282101561522457615224614e9d565b500390565b6000825161523b818460208701614557565b9190910192915050565b6020808252602b908201527f496e697469616c697a61626c653a20636f6e7472616374206973206e6f74206960408201526a6e697469616c697a696e6760a81b606082015260800190565b7f416363657373436f6e74726f6c3a206163636f756e74200000000000000000008152600083516152c8816017850160208801614557565b7f206973206d697373696e6720726f6c65200000000000000000000000000000006017918401918201528351615305816028840160208801614557565b01602801949350505050565b60006001600160a01b03808816835280871660208401525060a0604083015261533d60a083018661490b565b828103606084015261534f818661490b565b905082810360808401526153638185614583565b98975050505050505050565b60006020828403121561538157600080fd5b81516112d281614524565b600060033d1115612e315760046000803e5060005160e01c90565b600060443d10156153b55790565b6040516003193d81016004833e81513d67ffffffffffffffff81602484011181841117156153e557505050505090565b82850191508151818111156153fd5750505050505090565b843d87010160208285010111156154175750505050505090565b6154266020828601018761462e565b509095945050505050565b8183823760009101908152919050565b60006001600160a01b03808816835280871660208401525084604083015283606083015260a060808301526143c660a0830184614583565b60008161548857615488614e9d565b506000190190565b634e487b7160e01b600052603160045260246000fd5b634e487b7160e01b600052602160045260246000fd5b6000602082840312156154ce57600080fd5b81516112d281614af856fe416464726573733a206c6f772d6c6576656c2064656c65676174652063616c6c206661696c6564a2646970667358221220e43b56d25958c46ffb0c1b51c840c8c788aefe4397b4c7b6ba0c558e8aefec3264736f6c634300080c0033",
  "linkReferences": {},
  "deployedLinkReferences": {}
}