{
  "_format": "hh-sol-artifact-1",
  "contractName": "TWFactory",
  "sourceName": "contracts/TWFactory.sol",
  "abi": [
    {
      "inputs": [
        {
          "internalType": "address",
          "name": "_trustedForwarder",
          "type": "address"
        },
        {
          "internalType": "address",
          "name": "_registry",
          "type": "address"
        }
      ],
      "stateMutability": "nonpayable",
      "type": "constructor"
    },
    {
      "anonymous": false,
      "inputs": [
        {
          "indexed": false,
          "internalType": "address",
          "name": "implementation",
          "type": "address"
        },
        {
          "indexed": true,
          "internalType": "bytes32",
          "name": "contractType",
          "type": "bytes32"
        },
        {
          "indexed": false,
          "internalType": "uint256",
          "name": "version",
          "type": "uint256"
        }
      ],
      "name": "ImplementationAdded",
      "type": "event"
    },
    {
      "anonymous": false,
      "inputs": [
        {
          "indexed": false,
          "internalType": "address",
          "name": "implementation",
          "type": "address"
        },
        {
          "indexed": false,
          "internalType": "bool",
          "name": "isApproved",
          "type": "bool"
        }
      ],
      "name": "ImplementationApproved",
      "type": "event"
    },
    {
      "anonymous": false,
      "inputs": [
        {
          "indexed": true,
          "internalType": "address",
          "name": "implementation",
          "type": "address"
        },
        {
          "indexed": false,
          "internalType": "address",
          "name": "proxy",
          "type": "address"
        },
        {
          "indexed": true,
          "internalType": "address",
          "name": "deployer",
          "type": "address"
        }
      ],
      "name": "ProxyDeployed",
      "type": "event"
    },
    {
      "anonymous": false,
      "inputs": [
        {
          "indexed": true,
          "internalType": "bytes32",
          "name": "role",
          "type": "bytes32"
        },
        {
          "indexed": true,
          "internalType": "bytes32",
          "name": "previousAdminRole",
          "type": "bytes32"
        },
        {
          "indexed": true,
          "internalType": "bytes32",
          "name": "newAdminRole",
          "type": "bytes32"
        }
      ],
      "name": "RoleAdminChanged",
      "type": "event"
    },
    {
      "anonymous": false,
      "inputs": [
        {
          "indexed": true,
          "internalType": "bytes32",
          "name": "role",
          "type": "bytes32"
        },
        {
          "indexed": true,
          "internalType": "address",
          "name": "account",
          "type": "address"
        },
        {
          "indexed": true,
          "internalType": "address",
          "name": "sender",
          "type": "address"
        }
      ],
      "name": "RoleGranted",
      "type": "event"
    },
    {
      "anonymous": false,
      "inputs": [
        {
          "indexed": true,
          "internalType": "bytes32",
          "name": "role",
          "type": "bytes32"
        },
        {
          "indexed": true,
          "internalType": "address",
          "name": "account",
          "type": "address"
        },
        {
          "indexed": true,
          "internalType": "address",
          "name": "sender",
          "type": "address"
        }
      ],
      "name": "RoleRevoked",
      "type": "event"
    },
    {
      "inputs": [],
      "name": "DEFAULT_ADMIN_ROLE",
      "outputs": [
        {
          "internalType": "bytes32",
          "name": "",
          "type": "bytes32"
        }
      ],
      "stateMutability": "view",
      "type": "function"
    },
    {
      "inputs": [],
      "name": "FACTORY_ROLE",
      "outputs": [
        {
          "internalType": "bytes32",
          "name": "",
          "type": "bytes32"
        }
      ],
      "stateMutability": "view",
      "type": "function"
    },
    {
      "inputs": [
        {
          "internalType": "address",
          "name": "_implementation",
          "type": "address"
        }
      ],
      "name": "addImplementation",
      "outputs": [],
      "stateMutability": "nonpayable",
      "type": "function"
    },
    {
      "inputs": [
        {
          "internalType": "address",
          "name": "",
          "type": "address"
        }
      ],
      "name": "approval",
      "outputs": [
        {
          "internalType": "bool",
          "name": "",
          "type": "bool"
        }
      ],
      "stateMutability": "view",
      "type": "function"
    },
    {
      "inputs": [
        {
          "internalType": "address",
          "name": "_implementation",
          "type": "address"
        },
        {
          "internalType": "bool",
          "name": "_toApprove",
          "type": "bool"
        }
      ],
      "name": "approveImplementation",
      "outputs": [],
      "stateMutability": "nonpayable",
      "type": "function"
    },
    {
      "inputs": [
        {
          "internalType": "bytes32",
          "name": "",
          "type": "bytes32"
        }
      ],
      "name": "currentVersion",
      "outputs": [
        {
          "internalType": "uint256",
          "name": "",
          "type": "uint256"
        }
      ],
      "stateMutability": "view",
      "type": "function"
    },
    {
      "inputs": [
        {
          "internalType": "bytes32",
          "name": "_type",
          "type": "bytes32"
        },
        {
          "internalType": "bytes",
          "name": "_data",
          "type": "bytes"
        }
      ],
      "name": "deployProxy",
      "outputs": [
        {
          "internalType": "address",
          "name": "",
          "type": "address"
        }
      ],
      "stateMutability": "nonpayable",
      "type": "function"
    },
    {
      "inputs": [
        {
          "internalType": "address",
          "name": "_implementation",
          "type": "address"
        },
        {
          "internalType": "bytes",
          "name": "_data",
          "type": "bytes"
        },
        {
          "internalType": "bytes32",
          "name": "_salt",
          "type": "bytes32"
        }
      ],
      "name": "deployProxyByImplementation",
      "outputs": [
        {
          "internalType": "address",
          "name": "deployedProxy",
          "type": "address"
        }
      ],
      "stateMutability": "nonpayable",
      "type": "function"
    },
    {
      "inputs": [
        {
          "internalType": "bytes32",
          "name": "_type",
          "type": "bytes32"
        },
        {
          "internalType": "bytes",
          "name": "_data",
          "type": "bytes"
        },
        {
          "internalType": "bytes32",
          "name": "_salt",
          "type": "bytes32"
        }
      ],
      "name": "deployProxyDeterministic",
      "outputs": [
        {
          "internalType": "address",
          "name": "",
          "type": "address"
        }
      ],
      "stateMutability": "nonpayable",
      "type": "function"
    },
    {
      "inputs": [
        {
          "internalType": "address",
          "name": "",
          "type": "address"
        }
      ],
      "name": "deployer",
      "outputs": [
        {
          "internalType": "address",
          "name": "",
          "type": "address"
        }
      ],
      "stateMutability": "view",
      "type": "function"
    },
    {
      "inputs": [
        {
          "internalType": "bytes32",
          "name": "_type",
          "type": "bytes32"
        },
        {
          "internalType": "uint256",
          "name": "_version",
          "type": "uint256"
        }
      ],
      "name": "getImplementation",
      "outputs": [
        {
          "internalType": "address",
          "name": "",
          "type": "address"
        }
      ],
      "stateMutability": "view",
      "type": "function"
    },
    {
      "inputs": [
        {
          "internalType": "bytes32",
          "name": "_type",
          "type": "bytes32"
        }
      ],
      "name": "getLatestImplementation",
      "outputs": [
        {
          "internalType": "address",
          "name": "",
          "type": "address"
        }
      ],
      "stateMutability": "view",
      "type": "function"
    },
    {
      "inputs": [
        {
          "internalType": "bytes32",
          "name": "role",
          "type": "bytes32"
        }
      ],
      "name": "getRoleAdmin",
      "outputs": [
        {
          "internalType": "bytes32",
          "name": "",
          "type": "bytes32"
        }
      ],
      "stateMutability": "view",
      "type": "function"
    },
    {
      "inputs": [
        {
          "internalType": "bytes32",
          "name": "role",
          "type": "bytes32"
        },
        {
          "internalType": "uint256",
          "name": "index",
          "type": "uint256"
        }
      ],
      "name": "getRoleMember",
      "outputs": [
        {
          "internalType": "address",
          "name": "",
          "type": "address"
        }
      ],
      "stateMutability": "view",
      "type": "function"
    },
    {
      "inputs": [
        {
          "internalType": "bytes32",
          "name": "role",
          "type": "bytes32"
        }
      ],
      "name": "getRoleMemberCount",
      "outputs": [
        {
          "internalType": "uint256",
          "name": "",
          "type": "uint256"
        }
      ],
      "stateMutability": "view",
      "type": "function"
    },
    {
      "inputs": [
        {
          "internalType": "bytes32",
          "name": "role",
          "type": "bytes32"
        },
        {
          "internalType": "address",
          "name": "account",
          "type": "address"
        }
      ],
      "name": "grantRole",
      "outputs": [],
      "stateMutability": "nonpayable",
      "type": "function"
    },
    {
      "inputs": [
        {
          "internalType": "bytes32",
          "name": "role",
          "type": "bytes32"
        },
        {
          "internalType": "address",
          "name": "account",
          "type": "address"
        }
      ],
      "name": "hasRole",
      "outputs": [
        {
          "internalType": "bool",
          "name": "",
          "type": "bool"
        }
      ],
      "stateMutability": "view",
      "type": "function"
    },
    {
      "inputs": [
        {
          "internalType": "bytes32",
          "name": "",
          "type": "bytes32"
        },
        {
          "internalType": "uint256",
          "name": "",
          "type": "uint256"
        }
      ],
      "name": "implementation",
      "outputs": [
        {
          "internalType": "address",
          "name": "",
          "type": "address"
        }
      ],
      "stateMutability": "view",
      "type": "function"
    },
    {
      "inputs": [
        {
          "internalType": "address",
          "name": "forwarder",
          "type": "address"
        }
      ],
      "name": "isTrustedForwarder",
      "outputs": [
        {
          "internalType": "bool",
          "name": "",
          "type": "bool"
        }
      ],
      "stateMutability": "view",
      "type": "function"
    },
    {
      "inputs": [
        {
          "internalType": "bytes[]",
          "name": "data",
          "type": "bytes[]"
        }
      ],
      "name": "multicall",
      "outputs": [
        {
          "internalType": "bytes[]",
          "name": "results",
          "type": "bytes[]"
        }
      ],
      "stateMutability": "nonpayable",
      "type": "function"
    },
    {
      "inputs": [],
      "name": "registry",
      "outputs": [
        {
          "internalType": "contract TWRegistry",
          "name": "",
          "type": "address"
        }
      ],
      "stateMutability": "view",
      "type": "function"
    },
    {
      "inputs": [
        {
          "internalType": "bytes32",
          "name": "role",
          "type": "bytes32"
        },
        {
          "internalType": "address",
          "name": "account",
          "type": "address"
        }
      ],
      "name": "renounceRole",
      "outputs": [],
      "stateMutability": "nonpayable",
      "type": "function"
    },
    {
      "inputs": [
        {
          "internalType": "bytes32",
          "name": "role",
          "type": "bytes32"
        },
        {
          "internalType": "address",
          "name": "account",
          "type": "address"
        }
      ],
      "name": "revokeRole",
      "outputs": [],
      "stateMutability": "nonpayable",
      "type": "function"
    },
    {
      "inputs": [
        {
          "internalType": "bytes4",
          "name": "interfaceId",
          "type": "bytes4"
        }
      ],
      "name": "supportsInterface",
      "outputs": [
        {
          "internalType": "bool",
          "name": "",
          "type": "bool"
        }
      ],
      "stateMutability": "view",
      "type": "function"
    }
  ],
  "bytecode": "0x60c06040523480156200001157600080fd5b5060405162001f6b38038062001f6b833981016040819052620000349162000276565b6001600160a01b0382166080526200005760006200005162000099565b620000b5565b620000867fdfbefbf47cfe66b701d8cfdbce1de81c821590819cb07e71cb01b6602fb0ee276200005162000099565b6001600160a01b031660a05250620002ae565b6000620000b0620000c560201b62000d161760201c565b905090565b620000c18282620000fe565b5050565b6080516000906001600160a01b0316331415620000e9575060131936013560601c90565b620000b06200014160201b62000d601760201c565b6200011582826200014560201b62000d641760201c565b60008281526001602090815260409091206200013c91839062000e03620001e7821b17901c565b505050565b3390565b6000828152602081815260408083206001600160a01b038516845290915290205460ff16620000c1576000828152602081815260408083206001600160a01b03851684529091529020805460ff19166001179055620001a362000099565b6001600160a01b0316816001600160a01b0316837f2f8788117e7eff1d82e926ec794901d17c78024a50270940304540a733656f0d60405160405180910390a45050565b6000620001fe836001600160a01b03841662000207565b90505b92915050565b6000818152600183016020526040812054620002505750815460018181018455600084815260208082209093018490558454848252828601909352604090209190915562000201565b50600062000201565b80516001600160a01b03811681146200027157600080fd5b919050565b600080604083850312156200028a57600080fd5b620002958362000259565b9150620002a56020840162000259565b90509250929050565b60805160a051611c82620002e960003960008181610336015281816106510152610c640152600081816103010152610d1a0152611c826000f3fe608060405234801561001057600080fd5b50600436106101985760003560e01c80639010d07c116100e3578063c6e2a4001161008c578063dd47595a11610066578063dd47595a1461044f578063e92016a414610483578063ec54d72f146104b757600080fd5b8063c6e2a40014610416578063ca15c87314610429578063d547741f1461043c57600080fd5b8063a217fddf116100bd578063a217fddf146103c5578063ac9650d8146103cd578063b9caf9d9146103ed57600080fd5b80639010d07c1461035857806391d148541461036b5780639430b496146103a257600080fd5b806336568abe1161014557806356fb09581161011f57806356fb0958146102de578063572b6c05146102f15780637b1039991461033157600080fd5b806336568abe146102705780633b426d3f1461028357806344ab6680146102a357600080fd5b80631e5e1e99116101765780631e5e1e9914610225578063248a9ca3146102385780632f2ff15d1461025b57600080fd5b806301ffc9a71461019d57806304a0fb17146101c557806311b804ab146101fa575b600080fd5b6101b06101ab36600461167e565b6104ca565b60405190151581526020015b60405180910390f35b6101ec7fdfbefbf47cfe66b701d8cfdbce1de81c821590819cb07e71cb01b6602fb0ee2781565b6040519081526020016101bc565b61020d610208366004611767565b6104f5565b6040516001600160a01b0390911681526020016101bc565b61020d6102333660046117be565b610705565b6101ec6102463660046117f1565b60009081526020819052604090206001015490565b61026e61026936600461180a565b610745565b005b61026e61027e36600461180a565b61076f565b6101ec6102913660046117f1565b60036020526000908152604090205481565b61020d6102b13660046117f1565b6000908152600460209081526040808320600383528184205484529091529020546001600160a01b031690565b61026e6102ec366004611836565b61080b565b6101b06102ff366004611872565b7f00000000000000000000000000000000000000000000000000000000000000006001600160a01b0390811691161490565b61020d7f000000000000000000000000000000000000000000000000000000000000000081565b61020d61036636600461188d565b6108d3565b6101b061037936600461180a565b6000918252602082815260408084206001600160a01b0393909316845291905290205460ff1690565b6101b06103b0366004611872565b60026020526000908152604090205460ff1681565b6101ec600081565b6103e06103db3660046118af565b6108eb565b6040516101bc9190611980565b61020d6103fb366004611872565b6005602052600090815260409020546001600160a01b031681565b61026e610424366004611872565b6109e0565b6101ec6104373660046117f1565b610c23565b61026e61044a36600461180a565b610c3a565b61020d61045d36600461188d565b60009182526004602090815260408084209284529190529020546001600160a01b031690565b61020d61049136600461188d565b60046020908152600092835260408084209091529082529020546001600160a01b031681565b61020d6104c53660046119e2565b610c5f565b60006001600160e01b03198216635a05180f60e01b14806104ef57506104ef82610e18565b92915050565b6001600160a01b03831660009081526002602052604081205460ff166105625760405162461bcd60e51b815260206004820152601b60248201527f696d706c656d656e746174696f6e206e6f7420617070726f766564000000000060448201526064015b60405180910390fd5b600061056c610e4d565b8360405160200161059b92919060609290921b6bffffffffffffffffffffffff19168252601482015260340190565b6040516020818303038152906040528051906020012090506105bd8582610e57565b91506105c7610e4d565b6001600160a01b038381166000908152600560205260409020805473ffffffffffffffffffffffffffffffffffffffff19169290911691909117905561060b610e4d565b6040516001600160a01b038481168252918216918716907f9e0862c4ebff2150fbbfd3f8547483f55bdec0c34fd977d3fccaa55d6c4ce7849060200160405180910390a37f00000000000000000000000000000000000000000000000000000000000000006001600160a01b03166352c28fab610686610e4d565b6040516001600160e01b031960e084901b1681526001600160a01b0391821660048201529085166024820152604401600060405180830381600087803b1580156106cf57600080fd5b505af11580156106e3573d6000803e3d6000fd5b505050506000845111156106fd576106fb8285610f0e565b505b509392505050565b6000838152600460209081526040808320600383528184205484529091528120546001600160a01b031661073a8185856104f5565b9150505b9392505050565b60008281526020819052604090206001015461076081610f50565b61076a8383610f64565b505050565b610777610e4d565b6001600160a01b0316816001600160a01b0316146107fd5760405162461bcd60e51b815260206004820152602f60248201527f416363657373436f6e74726f6c3a2063616e206f6e6c792072656e6f756e636560448201527f20726f6c657320666f722073656c6600000000000000000000000000000000006064820152608401610559565b6108078282610f86565b5050565b6108377fdfbefbf47cfe66b701d8cfdbce1de81c821590819cb07e71cb01b6602fb0ee27610379610e4d565b6108705760405162461bcd60e51b815260206004820152600a6024820152693737ba1030b236b4b71760b11b6044820152606401610559565b6001600160a01b038216600081815260026020908152604091829020805460ff19168515159081179091558251938452908301527f46c2f0868ef35772e9324a42eb6fa484490cca8494538a909cf05c897d7d4108910160405180910390a15050565b600082815260016020526040812061073e9083610fa8565b60608167ffffffffffffffff811115610906576109066116c4565b60405190808252806020026020018201604052801561093957816020015b60608152602001906001900390816109245790505b50905060005b828110156109d9576109a93085858481811061095d5761095d611a29565b905060200281019061096f9190611a3f565b8080601f016020809104026020016040519081016040528093929190818152602001838380828437600092019190915250610fb492505050565b8282815181106109bb576109bb611a29565b602002602001018190525080806109d190611aa3565b91505061093f565b5092915050565b610a0c7fdfbefbf47cfe66b701d8cfdbce1de81c821590819cb07e71cb01b6602fb0ee27610379610e4d565b610a455760405162461bcd60e51b815260206004820152600a6024820152693737ba1030b236b4b71760b11b6044820152606401610559565b60008190506000816001600160a01b031663cb2ef6f76040518163ffffffff1660e01b8152600401602060405180830381865afa158015610a8a573d6000803e3d6000fd5b505050506040513d601f19601f82011682018060405250810190610aae9190611abe565b90506000826001600160a01b031663a0a8e4606040518163ffffffff1660e01b8152600401602060405180830381865afa158015610af0573d6000803e3d6000fd5b505050506040513d601f19601f82011682018060405250810190610b149190611ad7565b60008381526003602052604090205490915060ff8082169083161015610b7c5760405162461bcd60e51b815260206004820152601460248201527f77726f6e67206d6f64756c652076657273696f6e0000000000000000000000006044820152606401610559565b600083815260036020908152604080832060ff861690819055600483528184208185528352818420805473ffffffffffffffffffffffffffffffffffffffff19166001600160a01b038b169081179091558085526002845293829020805460ff1916600117905581519384529183019190915284917fc39db2d47bafbb20367a9c840abffa57a2bc243c1f1e67c939ea0e89e59ed01a910160405180910390a25050505050565b60008181526001602052604081206104ef90610fd9565b600082815260208190526040902060010154610c5581610f50565b61076a8383610f86565b6000807f00000000000000000000000000000000000000000000000000000000000000006001600160a01b03166305d85eda610c99610e4d565b6040516001600160e01b031960e084901b1681526001600160a01b039091166004820152602401602060405180830381865afa158015610cdd573d6000803e3d6000fd5b505050506040513d601f19601f82011682018060405250810190610d019190611abe565b9050610d0e848483610705565b949350505050565b60007f00000000000000000000000000000000000000000000000000000000000000006001600160a01b0316331415610d56575060131936013560601c90565b503390565b905090565b3390565b6000828152602081815260408083206001600160a01b038516845290915290205460ff16610807576000828152602081815260408083206001600160a01b03851684529091529020805460ff19166001179055610dbf610e4d565b6001600160a01b0316816001600160a01b0316837f2f8788117e7eff1d82e926ec794901d17c78024a50270940304540a733656f0d60405160405180910390a45050565b600061073e836001600160a01b038416610fe3565b60006001600160e01b03198216637965db0b60e01b14806104ef57506301ffc9a760e01b6001600160e01b03198316146104ef565b6000610d5b610d16565b60006040517f3d602d80600a3d3981f3363d3d373d3d3d363d7300000000000000000000000081528360601b60148201527f5af43d82803e903d91602b57fd5bf300000000000000000000000000000000006028820152826037826000f59150506001600160a01b0381166104ef5760405162461bcd60e51b815260206004820152601760248201527f455243313136373a2063726561746532206661696c65640000000000000000006044820152606401610559565b606061073e83836040518060400160405280601e81526020017f416464726573733a206c6f772d6c6576656c2063616c6c206661696c65640000815250611032565b610f6181610f5c610e4d565b611041565b50565b610f6e8282610d64565b600082815260016020526040902061076a9082610e03565b610f9082826110bf565b600082815260016020526040902061076a908261115c565b600061073e8383611171565b606061073e8383604051806060016040528060278152602001611c266027913961119b565b60006104ef825490565b600081815260018301602052604081205461102a575081546001818101845560008481526020808220909301849055845484825282860190935260409020919091556104ef565b5060006104ef565b6060610d0e8484600085611278565b6000828152602081815260408083206001600160a01b038516845290915290205460ff166108075761107d816001600160a01b031660146113a9565b6110888360206113a9565b604051602001611099929190611afa565b60408051601f198184030181529082905262461bcd60e51b825261055991600401611b7b565b6000828152602081815260408083206001600160a01b038516845290915290205460ff1615610807576000828152602081815260408083206001600160a01b03851684529091529020805460ff19169055611118610e4d565b6001600160a01b0316816001600160a01b0316837ff6391f5c32d9c69d2a47ea670b442974b53935d1edc7fd64eb21e047a839171b60405160405180910390a45050565b600061073e836001600160a01b038416611552565b600082600001828154811061118857611188611a29565b9060005260206000200154905092915050565b60606001600160a01b0384163b6112035760405162461bcd60e51b815260206004820152602660248201527f416464726573733a2064656c65676174652063616c6c20746f206e6f6e2d636f6044820152651b9d1c9858dd60d21b6064820152608401610559565b600080856001600160a01b03168560405161121e9190611b8e565b600060405180830381855af49150503d8060008114611259576040519150601f19603f3d011682016040523d82523d6000602084013e61125e565b606091505b509150915061126e828286611645565b9695505050505050565b6060824710156112d95760405162461bcd60e51b815260206004820152602660248201527f416464726573733a20696e73756666696369656e742062616c616e636520666f6044820152651c8818d85b1b60d21b6064820152608401610559565b6001600160a01b0385163b6113305760405162461bcd60e51b815260206004820152601d60248201527f416464726573733a2063616c6c20746f206e6f6e2d636f6e74726163740000006044820152606401610559565b600080866001600160a01b0316858760405161134c9190611b8e565b60006040518083038185875af1925050503d8060008114611389576040519150601f19603f3d011682016040523d82523d6000602084013e61138e565b606091505b509150915061139e828286611645565b979650505050505050565b606060006113b8836002611baa565b6113c3906002611bc9565b67ffffffffffffffff8111156113db576113db6116c4565b6040519080825280601f01601f191660200182016040528015611405576020820181803683370190505b509050600360fc1b8160008151811061142057611420611a29565b60200101906001600160f81b031916908160001a905350600f60fb1b8160018151811061144f5761144f611a29565b60200101906001600160f81b031916908160001a9053506000611473846002611baa565b61147e906001611bc9565b90505b6001811115611503577f303132333435363738396162636465660000000000000000000000000000000085600f16601081106114bf576114bf611a29565b1a60f81b8282815181106114d5576114d5611a29565b60200101906001600160f81b031916908160001a90535060049490941c936114fc81611be1565b9050611481565b50831561073e5760405162461bcd60e51b815260206004820181905260248201527f537472696e67733a20686578206c656e67746820696e73756666696369656e746044820152606401610559565b6000818152600183016020526040812054801561163b576000611576600183611bf8565b855490915060009061158a90600190611bf8565b90508181146115ef5760008660000182815481106115aa576115aa611a29565b90600052602060002001549050808760000184815481106115cd576115cd611a29565b6000918252602080832090910192909255918252600188019052604090208390555b855486908061160057611600611c0f565b6001900381819060005260206000200160009055905585600101600086815260200190815260200160002060009055600193505050506104ef565b60009150506104ef565b6060831561165457508161073e565b8251156116645782518084602001fd5b8160405162461bcd60e51b81526004016105599190611b7b565b60006020828403121561169057600080fd5b81356001600160e01b03198116811461073e57600080fd5b80356001600160a01b03811681146116bf57600080fd5b919050565b634e487b7160e01b600052604160045260246000fd5b600082601f8301126116eb57600080fd5b813567ffffffffffffffff80821115611706576117066116c4565b604051601f8301601f19908116603f0116810190828211818310171561172e5761172e6116c4565b8160405283815286602085880101111561174757600080fd5b836020870160208301376000602085830101528094505050505092915050565b60008060006060848603121561177c57600080fd5b611785846116a8565b9250602084013567ffffffffffffffff8111156117a157600080fd5b6117ad868287016116da565b925050604084013590509250925092565b6000806000606084860312156117d357600080fd5b83359250602084013567ffffffffffffffff8111156117a157600080fd5b60006020828403121561180357600080fd5b5035919050565b6000806040838503121561181d57600080fd5b8235915061182d602084016116a8565b90509250929050565b6000806040838503121561184957600080fd5b611852836116a8565b91506020830135801515811461186757600080fd5b809150509250929050565b60006020828403121561188457600080fd5b61073e826116a8565b600080604083850312156118a057600080fd5b50508035926020909101359150565b600080602083850312156118c257600080fd5b823567ffffffffffffffff808211156118da57600080fd5b818501915085601f8301126118ee57600080fd5b8135818111156118fd57600080fd5b8660208260051b850101111561191257600080fd5b60209290920196919550909350505050565b60005b8381101561193f578181015183820152602001611927565b8381111561194e576000848401525b50505050565b6000815180845261196c816020860160208601611924565b601f01601f19169290920160200192915050565b6000602080830181845280855180835260408601915060408160051b870101925083870160005b828110156119d557603f198886030184526119c3858351611954565b945092850192908501906001016119a7565b5092979650505050505050565b600080604083850312156119f557600080fd5b82359150602083013567ffffffffffffffff811115611a1357600080fd5b611a1f858286016116da565b9150509250929050565b634e487b7160e01b600052603260045260246000fd5b6000808335601e19843603018112611a5657600080fd5b83018035915067ffffffffffffffff821115611a7157600080fd5b602001915036819003821315611a8657600080fd5b9250929050565b634e487b7160e01b600052601160045260246000fd5b6000600019821415611ab757611ab7611a8d565b5060010190565b600060208284031215611ad057600080fd5b5051919050565b600060208284031215611ae957600080fd5b815160ff8116811461073e57600080fd5b7f416363657373436f6e74726f6c3a206163636f756e7420000000000000000000815260008351611b32816017850160208801611924565b7f206973206d697373696e6720726f6c65200000000000000000000000000000006017918401918201528351611b6f816028840160208801611924565b01602801949350505050565b60208152600061073e6020830184611954565b60008251611ba0818460208701611924565b9190910192915050565b6000816000190483118215151615611bc457611bc4611a8d565b500290565b60008219821115611bdc57611bdc611a8d565b500190565b600081611bf057611bf0611a8d565b506000190190565b600082821015611c0a57611c0a611a8d565b500390565b634e487b7160e01b600052603160045260246000fdfe416464726573733a206c6f772d6c6576656c2064656c65676174652063616c6c206661696c6564a264697066735822122010747fb4cebd9d37cdc4899debcc90036c595d5aca0168b838b372b68194f4ec64736f6c634300080c0033",
  "linkReferences": {},
  "deployedLinkReferences": {}
}