{
  "_format": "hh-sol-artifact-1",
  "contractName": "TWFactory",
  "sourceName": "contracts/TWFactory.sol",
  "abi": [
    {
      "inputs": [
        {
          "internalType": "address",
          "name": "_trustedForwarder",
          "type": "address"
        },
        {
          "internalType": "address",
          "name": "_registry",
          "type": "address"
        }
      ],
      "stateMutability": "nonpayable",
      "type": "constructor"
    },
    {
      "anonymous": false,
      "inputs": [
        {
          "indexed": false,
          "internalType": "address",
          "name": "implementation",
          "type": "address"
        },
        {
          "indexed": true,
          "internalType": "bytes32",
          "name": "contractType",
          "type": "bytes32"
        },
        {
          "indexed": false,
          "internalType": "uint256",
          "name": "version",
          "type": "uint256"
        }
      ],
      "name": "ImplementationAdded",
      "type": "event"
    },
    {
      "anonymous": false,
      "inputs": [
        {
          "indexed": false,
          "internalType": "address",
          "name": "implementation",
          "type": "address"
        },
        {
          "indexed": false,
          "internalType": "bool",
          "name": "isApproved",
          "type": "bool"
        }
      ],
      "name": "ImplementationApproved",
      "type": "event"
    },
    {
      "anonymous": false,
      "inputs": [
        {
          "indexed": true,
          "internalType": "address",
          "name": "implementation",
          "type": "address"
        },
        {
          "indexed": false,
          "internalType": "address",
          "name": "proxy",
          "type": "address"
        },
        {
          "indexed": true,
          "internalType": "address",
          "name": "deployer",
          "type": "address"
        }
      ],
      "name": "ProxyDeployed",
      "type": "event"
    },
    {
      "anonymous": false,
      "inputs": [
        {
          "indexed": true,
          "internalType": "bytes32",
          "name": "role",
          "type": "bytes32"
        },
        {
          "indexed": true,
          "internalType": "bytes32",
          "name": "previousAdminRole",
          "type": "bytes32"
        },
        {
          "indexed": true,
          "internalType": "bytes32",
          "name": "newAdminRole",
          "type": "bytes32"
        }
      ],
      "name": "RoleAdminChanged",
      "type": "event"
    },
    {
      "anonymous": false,
      "inputs": [
        {
          "indexed": true,
          "internalType": "bytes32",
          "name": "role",
          "type": "bytes32"
        },
        {
          "indexed": true,
          "internalType": "address",
          "name": "account",
          "type": "address"
        },
        {
          "indexed": true,
          "internalType": "address",
          "name": "sender",
          "type": "address"
        }
      ],
      "name": "RoleGranted",
      "type": "event"
    },
    {
      "anonymous": false,
      "inputs": [
        {
          "indexed": true,
          "internalType": "bytes32",
          "name": "role",
          "type": "bytes32"
        },
        {
          "indexed": true,
          "internalType": "address",
          "name": "account",
          "type": "address"
        },
        {
          "indexed": true,
          "internalType": "address",
          "name": "sender",
          "type": "address"
        }
      ],
      "name": "RoleRevoked",
      "type": "event"
    },
    {
      "inputs": [],
      "name": "DEFAULT_ADMIN_ROLE",
      "outputs": [
        {
          "internalType": "bytes32",
          "name": "",
          "type": "bytes32"
        }
      ],
      "stateMutability": "view",
      "type": "function"
    },
    {
      "inputs": [],
      "name": "FACTORY_ROLE",
      "outputs": [
        {
          "internalType": "bytes32",
          "name": "",
          "type": "bytes32"
        }
      ],
      "stateMutability": "view",
      "type": "function"
    },
    {
      "inputs": [
        {
          "internalType": "address",
          "name": "_implementation",
          "type": "address"
        }
      ],
      "name": "addImplementation",
      "outputs": [],
      "stateMutability": "nonpayable",
      "type": "function"
    },
    {
      "inputs": [
        {
          "internalType": "address",
          "name": "",
          "type": "address"
        }
      ],
      "name": "approval",
      "outputs": [
        {
          "internalType": "bool",
          "name": "",
          "type": "bool"
        }
      ],
      "stateMutability": "view",
      "type": "function"
    },
    {
      "inputs": [
        {
          "internalType": "address",
          "name": "_implementation",
          "type": "address"
        },
        {
          "internalType": "bool",
          "name": "_toApprove",
          "type": "bool"
        }
      ],
      "name": "approveImplementation",
      "outputs": [],
      "stateMutability": "nonpayable",
      "type": "function"
    },
    {
      "inputs": [
        {
          "internalType": "bytes32",
          "name": "",
          "type": "bytes32"
        }
      ],
      "name": "currentVersion",
      "outputs": [
        {
          "internalType": "uint256",
          "name": "",
          "type": "uint256"
        }
      ],
      "stateMutability": "view",
      "type": "function"
    },
    {
      "inputs": [
        {
          "internalType": "bytes32",
          "name": "_type",
          "type": "bytes32"
        },
        {
          "internalType": "bytes",
          "name": "_data",
          "type": "bytes"
        }
      ],
      "name": "deployProxy",
      "outputs": [
        {
          "internalType": "address",
          "name": "",
          "type": "address"
        }
      ],
      "stateMutability": "nonpayable",
      "type": "function"
    },
    {
      "inputs": [
        {
          "internalType": "address",
          "name": "_implementation",
          "type": "address"
        },
        {
          "internalType": "bytes",
          "name": "_data",
          "type": "bytes"
        },
        {
          "internalType": "bytes32",
          "name": "_salt",
          "type": "bytes32"
        }
      ],
      "name": "deployProxyByImplementation",
      "outputs": [
        {
          "internalType": "address",
          "name": "deployedProxy",
          "type": "address"
        }
      ],
      "stateMutability": "nonpayable",
      "type": "function"
    },
    {
      "inputs": [
        {
          "internalType": "bytes32",
          "name": "_type",
          "type": "bytes32"
        },
        {
          "internalType": "bytes",
          "name": "_data",
          "type": "bytes"
        },
        {
          "internalType": "bytes32",
          "name": "_salt",
          "type": "bytes32"
        }
      ],
      "name": "deployProxyDeterministic",
      "outputs": [
        {
          "internalType": "address",
          "name": "",
          "type": "address"
        }
      ],
      "stateMutability": "nonpayable",
      "type": "function"
    },
    {
      "inputs": [
        {
          "internalType": "address",
          "name": "",
          "type": "address"
        }
      ],
      "name": "deployer",
      "outputs": [
        {
          "internalType": "address",
          "name": "",
          "type": "address"
        }
      ],
      "stateMutability": "view",
      "type": "function"
    },
    {
      "inputs": [
        {
          "internalType": "bytes32",
          "name": "_type",
          "type": "bytes32"
        },
        {
          "internalType": "uint256",
          "name": "_version",
          "type": "uint256"
        }
      ],
      "name": "getImplementation",
      "outputs": [
        {
          "internalType": "address",
          "name": "",
          "type": "address"
        }
      ],
      "stateMutability": "view",
      "type": "function"
    },
    {
      "inputs": [
        {
          "internalType": "bytes32",
          "name": "_type",
          "type": "bytes32"
        }
      ],
      "name": "getLatestImplementation",
      "outputs": [
        {
          "internalType": "address",
          "name": "",
          "type": "address"
        }
      ],
      "stateMutability": "view",
      "type": "function"
    },
    {
      "inputs": [
        {
          "internalType": "bytes32",
          "name": "role",
          "type": "bytes32"
        }
      ],
      "name": "getRoleAdmin",
      "outputs": [
        {
          "internalType": "bytes32",
          "name": "",
          "type": "bytes32"
        }
      ],
      "stateMutability": "view",
      "type": "function"
    },
    {
      "inputs": [
        {
          "internalType": "bytes32",
          "name": "role",
          "type": "bytes32"
        },
        {
          "internalType": "uint256",
          "name": "index",
          "type": "uint256"
        }
      ],
      "name": "getRoleMember",
      "outputs": [
        {
          "internalType": "address",
          "name": "",
          "type": "address"
        }
      ],
      "stateMutability": "view",
      "type": "function"
    },
    {
      "inputs": [
        {
          "internalType": "bytes32",
          "name": "role",
          "type": "bytes32"
        }
      ],
      "name": "getRoleMemberCount",
      "outputs": [
        {
          "internalType": "uint256",
          "name": "",
          "type": "uint256"
        }
      ],
      "stateMutability": "view",
      "type": "function"
    },
    {
      "inputs": [
        {
          "internalType": "bytes32",
          "name": "role",
          "type": "bytes32"
        },
        {
          "internalType": "address",
          "name": "account",
          "type": "address"
        }
      ],
      "name": "grantRole",
      "outputs": [],
      "stateMutability": "nonpayable",
      "type": "function"
    },
    {
      "inputs": [
        {
          "internalType": "bytes32",
          "name": "role",
          "type": "bytes32"
        },
        {
          "internalType": "address",
          "name": "account",
          "type": "address"
        }
      ],
      "name": "hasRole",
      "outputs": [
        {
          "internalType": "bool",
          "name": "",
          "type": "bool"
        }
      ],
      "stateMutability": "view",
      "type": "function"
    },
    {
      "inputs": [
        {
          "internalType": "bytes32",
          "name": "",
          "type": "bytes32"
        },
        {
          "internalType": "uint256",
          "name": "",
          "type": "uint256"
        }
      ],
      "name": "implementation",
      "outputs": [
        {
          "internalType": "address",
          "name": "",
          "type": "address"
        }
      ],
      "stateMutability": "view",
      "type": "function"
    },
    {
      "inputs": [
        {
          "internalType": "address",
          "name": "forwarder",
          "type": "address"
        }
      ],
      "name": "isTrustedForwarder",
      "outputs": [
        {
          "internalType": "bool",
          "name": "",
          "type": "bool"
        }
      ],
      "stateMutability": "view",
      "type": "function"
    },
    {
      "inputs": [
        {
          "internalType": "bytes[]",
          "name": "data",
          "type": "bytes[]"
        }
      ],
      "name": "multicall",
      "outputs": [
        {
          "internalType": "bytes[]",
          "name": "results",
          "type": "bytes[]"
        }
      ],
      "stateMutability": "nonpayable",
      "type": "function"
    },
    {
      "inputs": [],
      "name": "registry",
      "outputs": [
        {
          "internalType": "contract TWRegistry",
          "name": "",
          "type": "address"
        }
      ],
      "stateMutability": "view",
      "type": "function"
    },
    {
      "inputs": [
        {
          "internalType": "bytes32",
          "name": "role",
          "type": "bytes32"
        },
        {
          "internalType": "address",
          "name": "account",
          "type": "address"
        }
      ],
      "name": "renounceRole",
      "outputs": [],
      "stateMutability": "nonpayable",
      "type": "function"
    },
    {
      "inputs": [
        {
          "internalType": "bytes32",
          "name": "role",
          "type": "bytes32"
        },
        {
          "internalType": "address",
          "name": "account",
          "type": "address"
        }
      ],
      "name": "revokeRole",
      "outputs": [],
      "stateMutability": "nonpayable",
      "type": "function"
    },
    {
      "inputs": [
        {
          "internalType": "bytes4",
          "name": "interfaceId",
          "type": "bytes4"
        }
      ],
      "name": "supportsInterface",
      "outputs": [
        {
          "internalType": "bool",
          "name": "",
          "type": "bool"
        }
      ],
      "stateMutability": "view",
      "type": "function"
    }
  ],
  "bytecode": "0x60c06040523480156200001157600080fd5b5060405162001f7f38038062001f7f833981016040819052620000349162000276565b6001600160a01b0382166080526200005760006200005162000099565b620000b5565b620000867fdfbefbf47cfe66b701d8cfdbce1de81c821590819cb07e71cb01b6602fb0ee276200005162000099565b6001600160a01b031660a05250620002ae565b6000620000b0620000c560201b62000d2a1760201c565b905090565b620000c18282620000fe565b5050565b6080516000906001600160a01b0316331415620000e9575060131936013560601c90565b620000b06200014160201b62000d741760201c565b6200011582826200014560201b62000d781760201c565b60008281526001602090815260409091206200013c91839062000e17620001e7821b17901c565b505050565b3390565b6000828152602081815260408083206001600160a01b038516845290915290205460ff16620000c1576000828152602081815260408083206001600160a01b03851684529091529020805460ff19166001179055620001a362000099565b6001600160a01b0316816001600160a01b0316837f2f8788117e7eff1d82e926ec794901d17c78024a50270940304540a733656f0d60405160405180910390a45050565b6000620001fe836001600160a01b03841662000207565b90505b92915050565b6000818152600183016020526040812054620002505750815460018181018455600084815260208082209093018490558454848252828601909352604090209190915562000201565b50600062000201565b80516001600160a01b03811681146200027157600080fd5b919050565b600080604083850312156200028a57600080fd5b620002958362000259565b9150620002a56020840162000259565b90509250929050565b60805160a051611c96620002e960003960008181610336015281816106510152610c780152600081816103010152610d2e0152611c966000f3fe608060405234801561001057600080fd5b50600436106101985760003560e01c80639010d07c116100e3578063c6e2a4001161008c578063dd47595a11610066578063dd47595a1461044f578063e92016a414610483578063ec54d72f146104b757600080fd5b8063c6e2a40014610416578063ca15c87314610429578063d547741f1461043c57600080fd5b8063a217fddf116100bd578063a217fddf146103c5578063ac9650d8146103cd578063b9caf9d9146103ed57600080fd5b80639010d07c1461035857806391d148541461036b5780639430b496146103a257600080fd5b806336568abe1161014557806356fb09581161011f57806356fb0958146102de578063572b6c05146102f15780637b1039991461033157600080fd5b806336568abe146102705780633b426d3f1461028357806344ab6680146102a357600080fd5b80631e5e1e99116101765780631e5e1e9914610225578063248a9ca3146102385780632f2ff15d1461025b57600080fd5b806301ffc9a71461019d57806304a0fb17146101c557806311b804ab146101fa575b600080fd5b6101b06101ab366004611692565b6104ca565b60405190151581526020015b60405180910390f35b6101ec7fdfbefbf47cfe66b701d8cfdbce1de81c821590819cb07e71cb01b6602fb0ee2781565b6040519081526020016101bc565b61020d61020836600461177b565b6104f5565b6040516001600160a01b0390911681526020016101bc565b61020d6102333660046117d2565b610719565b6101ec610246366004611805565b60009081526020819052604090206001015490565b61026e61026936600461181e565b610759565b005b61026e61027e36600461181e565b610783565b6101ec610291366004611805565b60036020526000908152604090205481565b61020d6102b1366004611805565b6000908152600460209081526040808320600383528184205484529091529020546001600160a01b031690565b61026e6102ec36600461184a565b61081f565b6101b06102ff366004611886565b7f00000000000000000000000000000000000000000000000000000000000000006001600160a01b0390811691161490565b61020d7f000000000000000000000000000000000000000000000000000000000000000081565b61020d6103663660046118a1565b6108e7565b6101b061037936600461181e565b6000918252602082815260408084206001600160a01b0393909316845291905290205460ff1690565b6101b06103b0366004611886565b60026020526000908152604090205460ff1681565b6101ec600081565b6103e06103db3660046118c3565b6108ff565b6040516101bc9190611994565b61020d6103fb366004611886565b6005602052600090815260409020546001600160a01b031681565b61026e610424366004611886565b6109f4565b6101ec610437366004611805565b610c37565b61026e61044a36600461181e565b610c4e565b61020d61045d3660046118a1565b60009182526004602090815260408084209284529190529020546001600160a01b031690565b61020d6104913660046118a1565b60046020908152600092835260408084209091529082529020546001600160a01b031681565b61020d6104c53660046119f6565b610c73565b60006001600160e01b03198216635a05180f60e01b14806104ef57506104ef82610e2c565b92915050565b6001600160a01b03831660009081526002602052604081205460ff166105625760405162461bcd60e51b815260206004820152601b60248201527f696d706c656d656e746174696f6e206e6f7420617070726f766564000000000060448201526064015b60405180910390fd5b600061056c610e61565b8360405160200161059b92919060609290921b6bffffffffffffffffffffffff19168252601482015260340190565b6040516020818303038152906040528051906020012090506105bd8582610e6b565b91506105c7610e61565b6001600160a01b038381166000908152600560205260409020805473ffffffffffffffffffffffffffffffffffffffff19169290911691909117905561060b610e61565b6040516001600160a01b038481168252918216918716907f9e0862c4ebff2150fbbfd3f8547483f55bdec0c34fd977d3fccaa55d6c4ce7849060200160405180910390a37f00000000000000000000000000000000000000000000000000000000000000006001600160a01b03166326c5b516610686610e61565b6040516001600160e01b031960e084901b1681526001600160a01b0391821660048201529085166024820152466044820152608060648201526000608482015260a401600060405180830381600087803b1580156106e357600080fd5b505af11580156106f7573d6000803e3d6000fd5b505050506000845111156107115761070f8285610f22565b505b509392505050565b6000838152600460209081526040808320600383528184205484529091528120546001600160a01b031661074e8185856104f5565b9150505b9392505050565b60008281526020819052604090206001015461077481610f64565b61077e8383610f78565b505050565b61078b610e61565b6001600160a01b0316816001600160a01b0316146108115760405162461bcd60e51b815260206004820152602f60248201527f416363657373436f6e74726f6c3a2063616e206f6e6c792072656e6f756e636560448201527f20726f6c657320666f722073656c6600000000000000000000000000000000006064820152608401610559565b61081b8282610f9a565b5050565b61084b7fdfbefbf47cfe66b701d8cfdbce1de81c821590819cb07e71cb01b6602fb0ee27610379610e61565b6108845760405162461bcd60e51b815260206004820152600a6024820152693737ba1030b236b4b71760b11b6044820152606401610559565b6001600160a01b038216600081815260026020908152604091829020805460ff19168515159081179091558251938452908301527f46c2f0868ef35772e9324a42eb6fa484490cca8494538a909cf05c897d7d4108910160405180910390a15050565b60008281526001602052604081206107529083610fbc565b60608167ffffffffffffffff81111561091a5761091a6116d8565b60405190808252806020026020018201604052801561094d57816020015b60608152602001906001900390816109385790505b50905060005b828110156109ed576109bd3085858481811061097157610971611a3d565b90506020028101906109839190611a53565b8080601f016020809104026020016040519081016040528093929190818152602001838380828437600092019190915250610fc892505050565b8282815181106109cf576109cf611a3d565b602002602001018190525080806109e590611ab7565b915050610953565b5092915050565b610a207fdfbefbf47cfe66b701d8cfdbce1de81c821590819cb07e71cb01b6602fb0ee27610379610e61565b610a595760405162461bcd60e51b815260206004820152600a6024820152693737ba1030b236b4b71760b11b6044820152606401610559565b60008190506000816001600160a01b031663cb2ef6f76040518163ffffffff1660e01b8152600401602060405180830381865afa158015610a9e573d6000803e3d6000fd5b505050506040513d601f19601f82011682018060405250810190610ac29190611ad2565b90506000826001600160a01b031663a0a8e4606040518163ffffffff1660e01b8152600401602060405180830381865afa158015610b04573d6000803e3d6000fd5b505050506040513d601f19601f82011682018060405250810190610b289190611aeb565b60008381526003602052604090205490915060ff8082169083161015610b905760405162461bcd60e51b815260206004820152601460248201527f77726f6e67206d6f64756c652076657273696f6e0000000000000000000000006044820152606401610559565b600083815260036020908152604080832060ff861690819055600483528184208185528352818420805473ffffffffffffffffffffffffffffffffffffffff19166001600160a01b038b169081179091558085526002845293829020805460ff1916600117905581519384529183019190915284917fc39db2d47bafbb20367a9c840abffa57a2bc243c1f1e67c939ea0e89e59ed01a910160405180910390a25050505050565b60008181526001602052604081206104ef90610fed565b600082815260208190526040902060010154610c6981610f64565b61077e8383610f9a565b6000807f00000000000000000000000000000000000000000000000000000000000000006001600160a01b03166305d85eda610cad610e61565b6040516001600160e01b031960e084901b1681526001600160a01b039091166004820152602401602060405180830381865afa158015610cf1573d6000803e3d6000fd5b505050506040513d601f19601f82011682018060405250810190610d159190611ad2565b9050610d22848483610719565b949350505050565b60007f00000000000000000000000000000000000000000000000000000000000000006001600160a01b0316331415610d6a575060131936013560601c90565b503390565b905090565b3390565b6000828152602081815260408083206001600160a01b038516845290915290205460ff1661081b576000828152602081815260408083206001600160a01b03851684529091529020805460ff19166001179055610dd3610e61565b6001600160a01b0316816001600160a01b0316837f2f8788117e7eff1d82e926ec794901d17c78024a50270940304540a733656f0d60405160405180910390a45050565b6000610752836001600160a01b038416610ff7565b60006001600160e01b03198216637965db0b60e01b14806104ef57506301ffc9a760e01b6001600160e01b03198316146104ef565b6000610d6f610d2a565b60006040517f3d602d80600a3d3981f3363d3d373d3d3d363d7300000000000000000000000081528360601b60148201527f5af43d82803e903d91602b57fd5bf300000000000000000000000000000000006028820152826037826000f59150506001600160a01b0381166104ef5760405162461bcd60e51b815260206004820152601760248201527f455243313136373a2063726561746532206661696c65640000000000000000006044820152606401610559565b606061075283836040518060400160405280601e81526020017f416464726573733a206c6f772d6c6576656c2063616c6c206661696c65640000815250611046565b610f7581610f70610e61565b611055565b50565b610f828282610d78565b600082815260016020526040902061077e9082610e17565b610fa482826110d3565b600082815260016020526040902061077e9082611170565b60006107528383611185565b60606107528383604051806060016040528060278152602001611c3a602791396111af565b60006104ef825490565b600081815260018301602052604081205461103e575081546001818101845560008481526020808220909301849055845484825282860190935260409020919091556104ef565b5060006104ef565b6060610d22848460008561128c565b6000828152602081815260408083206001600160a01b038516845290915290205460ff1661081b57611091816001600160a01b031660146113bd565b61109c8360206113bd565b6040516020016110ad929190611b0e565b60408051601f198184030181529082905262461bcd60e51b825261055991600401611b8f565b6000828152602081815260408083206001600160a01b038516845290915290205460ff161561081b576000828152602081815260408083206001600160a01b03851684529091529020805460ff1916905561112c610e61565b6001600160a01b0316816001600160a01b0316837ff6391f5c32d9c69d2a47ea670b442974b53935d1edc7fd64eb21e047a839171b60405160405180910390a45050565b6000610752836001600160a01b038416611566565b600082600001828154811061119c5761119c611a3d565b9060005260206000200154905092915050565b60606001600160a01b0384163b6112175760405162461bcd60e51b815260206004820152602660248201527f416464726573733a2064656c65676174652063616c6c20746f206e6f6e2d636f6044820152651b9d1c9858dd60d21b6064820152608401610559565b600080856001600160a01b0316856040516112329190611ba2565b600060405180830381855af49150503d806000811461126d576040519150601f19603f3d011682016040523d82523d6000602084013e611272565b606091505b5091509150611282828286611659565b9695505050505050565b6060824710156112ed5760405162461bcd60e51b815260206004820152602660248201527f416464726573733a20696e73756666696369656e742062616c616e636520666f6044820152651c8818d85b1b60d21b6064820152608401610559565b6001600160a01b0385163b6113445760405162461bcd60e51b815260206004820152601d60248201527f416464726573733a2063616c6c20746f206e6f6e2d636f6e74726163740000006044820152606401610559565b600080866001600160a01b031685876040516113609190611ba2565b60006040518083038185875af1925050503d806000811461139d576040519150601f19603f3d011682016040523d82523d6000602084013e6113a2565b606091505b50915091506113b2828286611659565b979650505050505050565b606060006113cc836002611bbe565b6113d7906002611bdd565b67ffffffffffffffff8111156113ef576113ef6116d8565b6040519080825280601f01601f191660200182016040528015611419576020820181803683370190505b509050600360fc1b8160008151811061143457611434611a3d565b60200101906001600160f81b031916908160001a905350600f60fb1b8160018151811061146357611463611a3d565b60200101906001600160f81b031916908160001a9053506000611487846002611bbe565b611492906001611bdd565b90505b6001811115611517577f303132333435363738396162636465660000000000000000000000000000000085600f16601081106114d3576114d3611a3d565b1a60f81b8282815181106114e9576114e9611a3d565b60200101906001600160f81b031916908160001a90535060049490941c9361151081611bf5565b9050611495565b5083156107525760405162461bcd60e51b815260206004820181905260248201527f537472696e67733a20686578206c656e67746820696e73756666696369656e746044820152606401610559565b6000818152600183016020526040812054801561164f57600061158a600183611c0c565b855490915060009061159e90600190611c0c565b90508181146116035760008660000182815481106115be576115be611a3d565b90600052602060002001549050808760000184815481106115e1576115e1611a3d565b6000918252602080832090910192909255918252600188019052604090208390555b855486908061161457611614611c23565b6001900381819060005260206000200160009055905585600101600086815260200190815260200160002060009055600193505050506104ef565b60009150506104ef565b60608315611668575081610752565b8251156116785782518084602001fd5b8160405162461bcd60e51b81526004016105599190611b8f565b6000602082840312156116a457600080fd5b81356001600160e01b03198116811461075257600080fd5b80356001600160a01b03811681146116d357600080fd5b919050565b634e487b7160e01b600052604160045260246000fd5b600082601f8301126116ff57600080fd5b813567ffffffffffffffff8082111561171a5761171a6116d8565b604051601f8301601f19908116603f01168101908282118183101715611742576117426116d8565b8160405283815286602085880101111561175b57600080fd5b836020870160208301376000602085830101528094505050505092915050565b60008060006060848603121561179057600080fd5b611799846116bc565b9250602084013567ffffffffffffffff8111156117b557600080fd5b6117c1868287016116ee565b925050604084013590509250925092565b6000806000606084860312156117e757600080fd5b83359250602084013567ffffffffffffffff8111156117b557600080fd5b60006020828403121561181757600080fd5b5035919050565b6000806040838503121561183157600080fd5b82359150611841602084016116bc565b90509250929050565b6000806040838503121561185d57600080fd5b611866836116bc565b91506020830135801515811461187b57600080fd5b809150509250929050565b60006020828403121561189857600080fd5b610752826116bc565b600080604083850312156118b457600080fd5b50508035926020909101359150565b600080602083850312156118d657600080fd5b823567ffffffffffffffff808211156118ee57600080fd5b818501915085601f83011261190257600080fd5b81358181111561191157600080fd5b8660208260051b850101111561192657600080fd5b60209290920196919550909350505050565b60005b8381101561195357818101518382015260200161193b565b83811115611962576000848401525b50505050565b60008151808452611980816020860160208601611938565b601f01601f19169290920160200192915050565b6000602080830181845280855180835260408601915060408160051b870101925083870160005b828110156119e957603f198886030184526119d7858351611968565b945092850192908501906001016119bb565b5092979650505050505050565b60008060408385031215611a0957600080fd5b82359150602083013567ffffffffffffffff811115611a2757600080fd5b611a33858286016116ee565b9150509250929050565b634e487b7160e01b600052603260045260246000fd5b6000808335601e19843603018112611a6a57600080fd5b83018035915067ffffffffffffffff821115611a8557600080fd5b602001915036819003821315611a9a57600080fd5b9250929050565b634e487b7160e01b600052601160045260246000fd5b6000600019821415611acb57611acb611aa1565b5060010190565b600060208284031215611ae457600080fd5b5051919050565b600060208284031215611afd57600080fd5b815160ff8116811461075257600080fd5b7f416363657373436f6e74726f6c3a206163636f756e7420000000000000000000815260008351611b46816017850160208801611938565b7f206973206d697373696e6720726f6c65200000000000000000000000000000006017918401918201528351611b83816028840160208801611938565b01602801949350505050565b6020815260006107526020830184611968565b60008251611bb4818460208701611938565b9190910192915050565b6000816000190483118215151615611bd857611bd8611aa1565b500290565b60008219821115611bf057611bf0611aa1565b500190565b600081611c0457611c04611aa1565b506000190190565b600082821015611c1e57611c1e611aa1565b500390565b634e487b7160e01b600052603160045260246000fdfe416464726573733a206c6f772d6c6576656c2064656c65676174652063616c6c206661696c6564a26469706673582212200b56f7ad8e765e69d37d395d5a4affc59361a9bf4b71f807e599d2c1ab354c8564736f6c634300080c0033",
  "linkReferences": {},
  "deployedLinkReferences": {}
}