{
  "_format": "hh-sol-artifact-1",
  "contractName": "TWFee",
  "sourceName": "contracts/TWFee.sol",
  "abi": [
    {
      "inputs": [
        {
          "internalType": "address",
          "name": "_trustedForwarder",
          "type": "address"
        },
        {
          "internalType": "address",
          "name": "_factory",
          "type": "address"
        }
      ],
      "stateMutability": "nonpayable",
      "type": "constructor"
    },
    {
      "anonymous": false,
      "inputs": [
        {
          "indexed": true,
          "internalType": "uint256",
          "name": "tierId",
          "type": "uint256"
        },
        {
          "indexed": true,
          "internalType": "uint256",
          "name": "feeType",
          "type": "uint256"
        },
        {
          "indexed": false,
          "internalType": "address",
          "name": "recipient",
          "type": "address"
        },
        {
          "indexed": false,
          "internalType": "uint256",
          "name": "bps",
          "type": "uint256"
        }
      ],
      "name": "FeeTierUpdated",
      "type": "event"
    },
    {
      "anonymous": false,
      "inputs": [
        {
          "indexed": true,
          "internalType": "bytes32",
          "name": "role",
          "type": "bytes32"
        },
        {
          "indexed": true,
          "internalType": "bytes32",
          "name": "previousAdminRole",
          "type": "bytes32"
        },
        {
          "indexed": true,
          "internalType": "bytes32",
          "name": "newAdminRole",
          "type": "bytes32"
        }
      ],
      "name": "RoleAdminChanged",
      "type": "event"
    },
    {
      "anonymous": false,
      "inputs": [
        {
          "indexed": true,
          "internalType": "bytes32",
          "name": "role",
          "type": "bytes32"
        },
        {
          "indexed": true,
          "internalType": "address",
          "name": "account",
          "type": "address"
        },
        {
          "indexed": true,
          "internalType": "address",
          "name": "sender",
          "type": "address"
        }
      ],
      "name": "RoleGranted",
      "type": "event"
    },
    {
      "anonymous": false,
      "inputs": [
        {
          "indexed": true,
          "internalType": "bytes32",
          "name": "role",
          "type": "bytes32"
        },
        {
          "indexed": true,
          "internalType": "address",
          "name": "account",
          "type": "address"
        },
        {
          "indexed": true,
          "internalType": "address",
          "name": "sender",
          "type": "address"
        }
      ],
      "name": "RoleRevoked",
      "type": "event"
    },
    {
      "anonymous": false,
      "inputs": [
        {
          "indexed": true,
          "internalType": "address",
          "name": "proxyOrDeployer",
          "type": "address"
        },
        {
          "indexed": false,
          "internalType": "uint256",
          "name": "tierId",
          "type": "uint256"
        },
        {
          "indexed": false,
          "internalType": "uint256",
          "name": "validUntilTimestamp",
          "type": "uint256"
        }
      ],
      "name": "TierUpdated",
      "type": "event"
    },
    {
      "inputs": [],
      "name": "DEFAULT_ADMIN_ROLE",
      "outputs": [
        {
          "internalType": "bytes32",
          "name": "",
          "type": "bytes32"
        }
      ],
      "stateMutability": "view",
      "type": "function"
    },
    {
      "inputs": [],
      "name": "MAX_FEE_BPS",
      "outputs": [
        {
          "internalType": "uint256",
          "name": "",
          "type": "uint256"
        }
      ],
      "stateMutability": "view",
      "type": "function"
    },
    {
      "inputs": [],
      "name": "factory",
      "outputs": [
        {
          "internalType": "contract TWFactory",
          "name": "",
          "type": "address"
        }
      ],
      "stateMutability": "view",
      "type": "function"
    },
    {
      "inputs": [
        {
          "internalType": "uint256",
          "name": "",
          "type": "uint256"
        },
        {
          "internalType": "uint256",
          "name": "",
          "type": "uint256"
        }
      ],
      "name": "feeInfo",
      "outputs": [
        {
          "internalType": "uint256",
          "name": "bps",
          "type": "uint256"
        },
        {
          "internalType": "address",
          "name": "recipient",
          "type": "address"
        }
      ],
      "stateMutability": "view",
      "type": "function"
    },
    {
      "inputs": [
        {
          "internalType": "address",
          "name": "_proxy",
          "type": "address"
        },
        {
          "internalType": "uint256",
          "name": "_feeType",
          "type": "uint256"
        }
      ],
      "name": "getFeeInfo",
      "outputs": [
        {
          "internalType": "address",
          "name": "recipient",
          "type": "address"
        },
        {
          "internalType": "uint256",
          "name": "bps",
          "type": "uint256"
        }
      ],
      "stateMutability": "view",
      "type": "function"
    },
    {
      "inputs": [
        {
          "internalType": "address",
          "name": "_deployer",
          "type": "address"
        },
        {
          "internalType": "address",
          "name": "_proxy",
          "type": "address"
        }
      ],
      "name": "getFeeTier",
      "outputs": [
        {
          "internalType": "uint128",
          "name": "tierId",
          "type": "uint128"
        },
        {
          "internalType": "uint128",
          "name": "validUntilTimestamp",
          "type": "uint128"
        }
      ],
      "stateMutability": "view",
      "type": "function"
    },
    {
      "inputs": [
        {
          "internalType": "bytes32",
          "name": "role",
          "type": "bytes32"
        }
      ],
      "name": "getRoleAdmin",
      "outputs": [
        {
          "internalType": "bytes32",
          "name": "",
          "type": "bytes32"
        }
      ],
      "stateMutability": "view",
      "type": "function"
    },
    {
      "inputs": [
        {
          "internalType": "bytes32",
          "name": "role",
          "type": "bytes32"
        },
        {
          "internalType": "uint256",
          "name": "index",
          "type": "uint256"
        }
      ],
      "name": "getRoleMember",
      "outputs": [
        {
          "internalType": "address",
          "name": "",
          "type": "address"
        }
      ],
      "stateMutability": "view",
      "type": "function"
    },
    {
      "inputs": [
        {
          "internalType": "bytes32",
          "name": "role",
          "type": "bytes32"
        }
      ],
      "name": "getRoleMemberCount",
      "outputs": [
        {
          "internalType": "uint256",
          "name": "",
          "type": "uint256"
        }
      ],
      "stateMutability": "view",
      "type": "function"
    },
    {
      "inputs": [
        {
          "internalType": "bytes32",
          "name": "role",
          "type": "bytes32"
        },
        {
          "internalType": "address",
          "name": "account",
          "type": "address"
        }
      ],
      "name": "grantRole",
      "outputs": [],
      "stateMutability": "nonpayable",
      "type": "function"
    },
    {
      "inputs": [
        {
          "internalType": "bytes32",
          "name": "role",
          "type": "bytes32"
        },
        {
          "internalType": "address",
          "name": "account",
          "type": "address"
        }
      ],
      "name": "hasRole",
      "outputs": [
        {
          "internalType": "bool",
          "name": "",
          "type": "bool"
        }
      ],
      "stateMutability": "view",
      "type": "function"
    },
    {
      "inputs": [
        {
          "internalType": "address",
          "name": "forwarder",
          "type": "address"
        }
      ],
      "name": "isTrustedForwarder",
      "outputs": [
        {
          "internalType": "bool",
          "name": "",
          "type": "bool"
        }
      ],
      "stateMutability": "view",
      "type": "function"
    },
    {
      "inputs": [
        {
          "internalType": "bytes[]",
          "name": "data",
          "type": "bytes[]"
        }
      ],
      "name": "multicall",
      "outputs": [
        {
          "internalType": "bytes[]",
          "name": "results",
          "type": "bytes[]"
        }
      ],
      "stateMutability": "nonpayable",
      "type": "function"
    },
    {
      "inputs": [
        {
          "internalType": "bytes32",
          "name": "role",
          "type": "bytes32"
        },
        {
          "internalType": "address",
          "name": "account",
          "type": "address"
        }
      ],
      "name": "renounceRole",
      "outputs": [],
      "stateMutability": "nonpayable",
      "type": "function"
    },
    {
      "inputs": [
        {
          "internalType": "bytes32",
          "name": "role",
          "type": "bytes32"
        },
        {
          "internalType": "address",
          "name": "account",
          "type": "address"
        }
      ],
      "name": "revokeRole",
      "outputs": [],
      "stateMutability": "nonpayable",
      "type": "function"
    },
    {
      "inputs": [
        {
          "internalType": "uint256",
          "name": "_tierId",
          "type": "uint256"
        },
        {
          "internalType": "uint256",
          "name": "_feeBps",
          "type": "uint256"
        },
        {
          "internalType": "address",
          "name": "_feeRecipient",
          "type": "address"
        },
        {
          "internalType": "uint256",
          "name": "_feeType",
          "type": "uint256"
        }
      ],
      "name": "setFeeInfoForTier",
      "outputs": [],
      "stateMutability": "nonpayable",
      "type": "function"
    },
    {
      "inputs": [
        {
          "internalType": "address",
          "name": "_extension",
          "type": "address"
        }
      ],
      "name": "setFeeTierPlacementExtension",
      "outputs": [],
      "stateMutability": "nonpayable",
      "type": "function"
    },
    {
      "inputs": [
        {
          "internalType": "address",
          "name": "_proxyOrDeployer",
          "type": "address"
        },
        {
          "internalType": "uint128",
          "name": "_tierId",
          "type": "uint128"
        },
        {
          "internalType": "uint128",
          "name": "_validUntilTimestamp",
          "type": "uint128"
        }
      ],
      "name": "setTier",
      "outputs": [],
      "stateMutability": "nonpayable",
      "type": "function"
    },
    {
      "inputs": [
        {
          "internalType": "bytes4",
          "name": "interfaceId",
          "type": "bytes4"
        }
      ],
      "name": "supportsInterface",
      "outputs": [
        {
          "internalType": "bool",
          "name": "",
          "type": "bool"
        }
      ],
      "stateMutability": "view",
      "type": "function"
    },
    {
      "inputs": [],
      "name": "tierPlacementExtension",
      "outputs": [
        {
          "internalType": "contract IFeeTierPlacementExtension",
          "name": "",
          "type": "address"
        }
      ],
      "stateMutability": "view",
      "type": "function"
    }
  ],
  "bytecode": "0x60c06040523480156200001157600080fd5b5060405162001a6638038062001a668339810160408190526200003491620002a0565b6001600160a01b03808316608052811660a0526200005d600062000057620000c3565b620000df565b6200008c7f4ff1b29862215be122f4c8c8cc8572cede47eb1fdef6a4089fe228921d02432162000057620000c3565b620000bb7fb4cd4a1d3ca8894bcf03d193b5333b5567916dea2b3ce79ec3dfda4cf2470d1c62000057620000c3565b5050620002d8565b6000620000da620000ef60201b62000ab91760201c565b905090565b620000eb828262000128565b5050565b6080516000906001600160a01b031633141562000113575060131936013560601c90565b620000da6200016b60201b62000b031760201c565b6200013f82826200016f60201b62000b071760201c565b60008281526001602090815260409091206200016691839062000ba662000211821b17901c565b505050565b3390565b6000828152602081815260408083206001600160a01b038516845290915290205460ff16620000eb576000828152602081815260408083206001600160a01b03851684529091529020805460ff19166001179055620001cd620000c3565b6001600160a01b0316816001600160a01b0316837f2f8788117e7eff1d82e926ec794901d17c78024a50270940304540a733656f0d60405160405180910390a45050565b600062000228836001600160a01b03841662000231565b90505b92915050565b60008181526001830160205260408120546200027a575081546001818101845560008481526020808220909301849055845484825282860190935260409020919091556200022b565b5060006200022b565b80516001600160a01b03811681146200029b57600080fd5b919050565b60008060408385031215620002b457600080fd5b620002bf8362000283565b9150620002cf6020840162000283565b90509250929050565b60805160a05161175a6200030c6000396000818161033201526106200152600081816101ed0152610abd015261175a6000f3fe608060405234801561001057600080fd5b506004361061012c5760003560e01c806391d14854116100ad578063c45a015511610071578063c45a01551461032d578063ca15c87314610354578063d547741f14610367578063d55be8c61461037a578063de7e3fa41461038257600080fd5b806391d14854146102a8578063934d520a146102df5780639b433d3a146102f2578063a217fddf14610305578063ac9650d81461030d57600080fd5b8063572b6c05116100f4578063572b6c05146101dd57806357efce361461021d578063818f83491461023057806385b49ad0146102635780639010d07c1461029557600080fd5b806301ffc9a714610131578063248a9ca3146101595780632b3ea9501461018a5780632f2ff15d146101b557806336568abe146101ca575b600080fd5b61014461013f3660046111e8565b6103da565b60405190151581526020015b60405180910390f35b61017c610167366004611212565b60009081526020819052604090206001015490565b604051908152602001610150565b60045461019d906001600160a01b031681565b6040516001600160a01b039091168152602001610150565b6101c86101c3366004611240565b610405565b005b6101c86101d8366004611240565b61042f565b6101446101eb366004611270565b7f00000000000000000000000000000000000000000000000000000000000000006001600160a01b0390811691161490565b6101c861022b366004611270565b6104d0565b61024361023e36600461128d565b61050b565b604080516001600160801b03938416815292909116602083015201610150565b6102766102713660046112bb565b6105fa565b604080516001600160a01b039093168352602083019190915201610150565b61019d6102a33660046112e7565b6107a7565b6101446102b6366004611240565b6000918252602082815260408084206001600160a01b0393909316845291905290205460ff1690565b6101c86102ed36600461131e565b6107c6565b6101c8610300366004611369565b61087a565b61017c600081565b61032061031b3660046113a8565b610988565b6040516101509190611479565b61019d7f000000000000000000000000000000000000000000000000000000000000000081565b61017c610362366004611212565b610a7d565b6101c8610375366004611240565b610a94565b61017c606481565b6103bd6103903660046112e7565b6003602090815260009283526040808420909152908252902080546001909101546001600160a01b031682565b604080519283526001600160a01b03909116602083015201610150565b60006001600160e01b03198216635a05180f60e01b14806103ff57506103ff82610bbb565b92915050565b60008281526020819052604090206001015461042081610bf0565b61042a8383610c04565b505050565b610437610c26565b6001600160a01b0316816001600160a01b0316146104c25760405162461bcd60e51b815260206004820152602f60248201527f416363657373436f6e74726f6c3a2063616e206f6e6c792072656e6f756e636560448201527f20726f6c657320666f722073656c66000000000000000000000000000000000060648201526084015b60405180910390fd5b6104cc8282610c30565b5050565b60006104db81610bf0565b506004805473ffffffffffffffffffffffffffffffffffffffff19166001600160a01b0392909216919091179055565b6001600160a01b03811660009081526002602090815260408083208151808301909252546001600160801b038082168352600160801b90910416918101829052829142116105645780516020820151909350915061056d565b60009250600091505b6001600160801b03831615801561058b57506001600160801b038216155b156105f257506001600160a01b0384166000908152600260209081526040918290208251808401909352546001600160801b038082168452600160801b9091041690820181905242116105e9578051602082015190935091506105f2565b60009250600091505b509250929050565b60405163b9caf9d960e01b81526001600160a01b038381166004830152600091829182917f00000000000000000000000000000000000000000000000000000000000000009091169063b9caf9d990602401602060405180830381865afa158015610669573d6000803e3d6000fd5b505050506040513d601f19601f8201168201806040525081019061068d91906114db565b60045490915060009081906001600160a01b031615610724576004805460405163818f834960e01b81526001600160a01b0386811693820193909352898316602482015291169063818f8349906044016040805180830381865afa925050508015610715575060408051601f3d908101601f19168201909252610712918101906114f8565b60015b61071e57610724565b90925090505b6001600160801b03821615801561074257506001600160801b038116155b1561075557610751838861050b565b5091505b506001600160801b0316600090815260036020908152604080832096835295815290859020855180870190965280548087526001909101546001600160a01b0316959091018590529395939450505050565b60008281526001602052604081206107bf9083610c52565b9392505050565b7fb4cd4a1d3ca8894bcf03d193b5333b5567916dea2b3ce79ec3dfda4cf2470d1c6107f081610bf0565b6040805180820182526001600160801b0385811680835285821660208085018281526001600160a01b038b16600081815260028452889020965191518616600160801b029190951617909455845191825292810192909252917ff406c17c43e8510021f8e9d634aca0c743b8343139c1e9b0ff49314654be0049910160405180910390a250505050565b7f4ff1b29862215be122f4c8c8cc8572cede47eb1fdef6a4089fe228921d0243216108a481610bf0565b60648411156108e55760405162461bcd60e51b815260206004820152600d60248201526c3332b2903a37b7903434b3b41760991b60448201526064016104b9565b6040805180820182528581526001600160a01b03858116602080840182815260008b81526003835286812089825283528690208551815590516001909101805473ffffffffffffffffffffffffffffffffffffffff1916919094161790925583519081529081018790529091849188917fa65b5a8bef4b203b2d60b65273c1bbc861636c8b012f265f43406696466e6f89910160405180910390a3505050505050565b60608167ffffffffffffffff8111156109a3576109a3611527565b6040519080825280602002602001820160405280156109d657816020015b60608152602001906001900390816109c15790505b50905060005b82811015610a7657610a46308585848181106109fa576109fa61153d565b9050602002810190610a0c9190611553565b8080601f016020809104026020016040519081016040528093929190818152602001838380828437600092019190915250610c5e92505050565b828281518110610a5857610a5861153d565b60200260200101819052508080610a6e906115b7565b9150506109dc565b5092915050565b60008181526001602052604081206103ff90610c83565b600082815260208190526040902060010154610aaf81610bf0565b61042a8383610c30565b60007f00000000000000000000000000000000000000000000000000000000000000006001600160a01b0316331415610af9575060131936013560601c90565b503390565b905090565b3390565b6000828152602081815260408083206001600160a01b038516845290915290205460ff166104cc576000828152602081815260408083206001600160a01b03851684529091529020805460ff19166001179055610b62610c26565b6001600160a01b0316816001600160a01b0316837f2f8788117e7eff1d82e926ec794901d17c78024a50270940304540a733656f0d60405160405180910390a45050565b60006107bf836001600160a01b038416610c8d565b60006001600160e01b03198216637965db0b60e01b14806103ff57506301ffc9a760e01b6001600160e01b03198316146103ff565b610c0181610bfc610c26565b610cdc565b50565b610c0e8282610b07565b600082815260016020526040902061042a9082610ba6565b6000610afe610ab9565b610c3a8282610d5a565b600082815260016020526040902061042a9082610df7565b60006107bf8383610e0c565b60606107bf83836040518060600160405280602781526020016116fe60279139610e36565b60006103ff825490565b6000818152600183016020526040812054610cd4575081546001818101845560008481526020808220909301849055845484825282860190935260409020919091556103ff565b5060006103ff565b6000828152602081815260408083206001600160a01b038516845290915290205460ff166104cc57610d18816001600160a01b03166014610f13565b610d23836020610f13565b604051602001610d349291906115d2565b60408051601f198184030181529082905262461bcd60e51b82526104b991600401611653565b6000828152602081815260408083206001600160a01b038516845290915290205460ff16156104cc576000828152602081815260408083206001600160a01b03851684529091529020805460ff19169055610db3610c26565b6001600160a01b0316816001600160a01b0316837ff6391f5c32d9c69d2a47ea670b442974b53935d1edc7fd64eb21e047a839171b60405160405180910390a45050565b60006107bf836001600160a01b0384166110bc565b6000826000018281548110610e2357610e2361153d565b9060005260206000200154905092915050565b60606001600160a01b0384163b610e9e5760405162461bcd60e51b815260206004820152602660248201527f416464726573733a2064656c65676174652063616c6c20746f206e6f6e2d636f6044820152651b9d1c9858dd60d21b60648201526084016104b9565b600080856001600160a01b031685604051610eb99190611666565b600060405180830381855af49150503d8060008114610ef4576040519150601f19603f3d011682016040523d82523d6000602084013e610ef9565b606091505b5091509150610f098282866111af565b9695505050505050565b60606000610f22836002611682565b610f2d9060026116a1565b67ffffffffffffffff811115610f4557610f45611527565b6040519080825280601f01601f191660200182016040528015610f6f576020820181803683370190505b509050600360fc1b81600081518110610f8a57610f8a61153d565b60200101906001600160f81b031916908160001a905350600f60fb1b81600181518110610fb957610fb961153d565b60200101906001600160f81b031916908160001a9053506000610fdd846002611682565b610fe89060016116a1565b90505b600181111561106d577f303132333435363738396162636465660000000000000000000000000000000085600f16601081106110295761102961153d565b1a60f81b82828151811061103f5761103f61153d565b60200101906001600160f81b031916908160001a90535060049490941c93611066816116b9565b9050610feb565b5083156107bf5760405162461bcd60e51b815260206004820181905260248201527f537472696e67733a20686578206c656e67746820696e73756666696369656e7460448201526064016104b9565b600081815260018301602052604081205480156111a55760006110e06001836116d0565b85549091506000906110f4906001906116d0565b90508181146111595760008660000182815481106111145761111461153d565b90600052602060002001549050808760000184815481106111375761113761153d565b6000918252602080832090910192909255918252600188019052604090208390555b855486908061116a5761116a6116e7565b6001900381819060005260206000200160009055905585600101600086815260200190815260200160002060009055600193505050506103ff565b60009150506103ff565b606083156111be5750816107bf565b8251156111ce5782518084602001fd5b8160405162461bcd60e51b81526004016104b99190611653565b6000602082840312156111fa57600080fd5b81356001600160e01b0319811681146107bf57600080fd5b60006020828403121561122457600080fd5b5035919050565b6001600160a01b0381168114610c0157600080fd5b6000806040838503121561125357600080fd5b8235915060208301356112658161122b565b809150509250929050565b60006020828403121561128257600080fd5b81356107bf8161122b565b600080604083850312156112a057600080fd5b82356112ab8161122b565b915060208301356112658161122b565b600080604083850312156112ce57600080fd5b82356112d98161122b565b946020939093013593505050565b600080604083850312156112fa57600080fd5b50508035926020909101359150565b6001600160801b0381168114610c0157600080fd5b60008060006060848603121561133357600080fd5b833561133e8161122b565b9250602084013561134e81611309565b9150604084013561135e81611309565b809150509250925092565b6000806000806080858703121561137f57600080fd5b843593506020850135925060408501356113988161122b565b9396929550929360600135925050565b600080602083850312156113bb57600080fd5b823567ffffffffffffffff808211156113d357600080fd5b818501915085601f8301126113e757600080fd5b8135818111156113f657600080fd5b8660208260051b850101111561140b57600080fd5b60209290920196919550909350505050565b60005b83811015611438578181015183820152602001611420565b83811115611447576000848401525b50505050565b6000815180845261146581602086016020860161141d565b601f01601f19169290920160200192915050565b6000602080830181845280855180835260408601915060408160051b870101925083870160005b828110156114ce57603f198886030184526114bc85835161144d565b945092850192908501906001016114a0565b5092979650505050505050565b6000602082840312156114ed57600080fd5b81516107bf8161122b565b6000806040838503121561150b57600080fd5b825161151681611309565b602084015190925061126581611309565b634e487b7160e01b600052604160045260246000fd5b634e487b7160e01b600052603260045260246000fd5b6000808335601e1984360301811261156a57600080fd5b83018035915067ffffffffffffffff82111561158557600080fd5b60200191503681900382131561159a57600080fd5b9250929050565b634e487b7160e01b600052601160045260246000fd5b60006000198214156115cb576115cb6115a1565b5060010190565b7f416363657373436f6e74726f6c3a206163636f756e742000000000000000000081526000835161160a81601785016020880161141d565b7f206973206d697373696e6720726f6c6520000000000000000000000000000000601791840191820152835161164781602884016020880161141d565b01602801949350505050565b6020815260006107bf602083018461144d565b6000825161167881846020870161141d565b9190910192915050565b600081600019048311821515161561169c5761169c6115a1565b500290565b600082198211156116b4576116b46115a1565b500190565b6000816116c8576116c86115a1565b506000190190565b6000828210156116e2576116e26115a1565b500390565b634e487b7160e01b600052603160045260246000fdfe416464726573733a206c6f772d6c6576656c2064656c65676174652063616c6c206661696c6564a2646970667358221220d07e1f6198cc07cfac6989225c8b4de498aaf65f5588f6fa9b6c41ca0f579fb064736f6c634300080c0033",
  "linkReferences": {},
  "deployedLinkReferences": {}
}