{
  "_format": "hh-sol-artifact-1",
  "contractName": "TWRegistry",
  "sourceName": "contracts/TWRegistry.sol",
  "abi": [
    {
      "inputs": [
        {
          "internalType": "address",
          "name": "_trustedForwarder",
          "type": "address"
        }
      ],
      "stateMutability": "nonpayable",
      "type": "constructor"
    },
    {
      "anonymous": false,
      "inputs": [
        {
          "indexed": true,
          "internalType": "address",
          "name": "deployer",
          "type": "address"
        },
        {
          "indexed": true,
          "internalType": "address",
          "name": "deployment",
          "type": "address"
        }
      ],
      "name": "Added",
      "type": "event"
    },
    {
      "anonymous": false,
      "inputs": [
        {
          "indexed": true,
          "internalType": "address",
          "name": "deployer",
          "type": "address"
        },
        {
          "indexed": true,
          "internalType": "address",
          "name": "deployment",
          "type": "address"
        }
      ],
      "name": "Deleted",
      "type": "event"
    },
    {
      "anonymous": false,
      "inputs": [
        {
          "indexed": true,
          "internalType": "bytes32",
          "name": "role",
          "type": "bytes32"
        },
        {
          "indexed": true,
          "internalType": "bytes32",
          "name": "previousAdminRole",
          "type": "bytes32"
        },
        {
          "indexed": true,
          "internalType": "bytes32",
          "name": "newAdminRole",
          "type": "bytes32"
        }
      ],
      "name": "RoleAdminChanged",
      "type": "event"
    },
    {
      "anonymous": false,
      "inputs": [
        {
          "indexed": true,
          "internalType": "bytes32",
          "name": "role",
          "type": "bytes32"
        },
        {
          "indexed": true,
          "internalType": "address",
          "name": "account",
          "type": "address"
        },
        {
          "indexed": true,
          "internalType": "address",
          "name": "sender",
          "type": "address"
        }
      ],
      "name": "RoleGranted",
      "type": "event"
    },
    {
      "anonymous": false,
      "inputs": [
        {
          "indexed": true,
          "internalType": "bytes32",
          "name": "role",
          "type": "bytes32"
        },
        {
          "indexed": true,
          "internalType": "address",
          "name": "account",
          "type": "address"
        },
        {
          "indexed": true,
          "internalType": "address",
          "name": "sender",
          "type": "address"
        }
      ],
      "name": "RoleRevoked",
      "type": "event"
    },
    {
      "inputs": [],
      "name": "DEFAULT_ADMIN_ROLE",
      "outputs": [
        {
          "internalType": "bytes32",
          "name": "",
          "type": "bytes32"
        }
      ],
      "stateMutability": "view",
      "type": "function"
    },
    {
      "inputs": [],
      "name": "OPERATOR_ROLE",
      "outputs": [
        {
          "internalType": "bytes32",
          "name": "",
          "type": "bytes32"
        }
      ],
      "stateMutability": "view",
      "type": "function"
    },
    {
      "inputs": [
        {
          "internalType": "address",
          "name": "_deployer",
          "type": "address"
        },
        {
          "internalType": "address",
          "name": "_deployment",
          "type": "address"
        }
      ],
      "name": "add",
      "outputs": [],
      "stateMutability": "nonpayable",
      "type": "function"
    },
    {
      "inputs": [
        {
          "internalType": "address",
          "name": "_deployer",
          "type": "address"
        }
      ],
      "name": "count",
      "outputs": [
        {
          "internalType": "uint256",
          "name": "",
          "type": "uint256"
        }
      ],
      "stateMutability": "view",
      "type": "function"
    },
    {
      "inputs": [
        {
          "internalType": "address",
          "name": "_deployer",
          "type": "address"
        }
      ],
      "name": "getAll",
      "outputs": [
        {
          "internalType": "address[]",
          "name": "",
          "type": "address[]"
        }
      ],
      "stateMutability": "view",
      "type": "function"
    },
    {
      "inputs": [
        {
          "internalType": "bytes32",
          "name": "role",
          "type": "bytes32"
        }
      ],
      "name": "getRoleAdmin",
      "outputs": [
        {
          "internalType": "bytes32",
          "name": "",
          "type": "bytes32"
        }
      ],
      "stateMutability": "view",
      "type": "function"
    },
    {
      "inputs": [
        {
          "internalType": "bytes32",
          "name": "role",
          "type": "bytes32"
        },
        {
          "internalType": "uint256",
          "name": "index",
          "type": "uint256"
        }
      ],
      "name": "getRoleMember",
      "outputs": [
        {
          "internalType": "address",
          "name": "",
          "type": "address"
        }
      ],
      "stateMutability": "view",
      "type": "function"
    },
    {
      "inputs": [
        {
          "internalType": "bytes32",
          "name": "role",
          "type": "bytes32"
        }
      ],
      "name": "getRoleMemberCount",
      "outputs": [
        {
          "internalType": "uint256",
          "name": "",
          "type": "uint256"
        }
      ],
      "stateMutability": "view",
      "type": "function"
    },
    {
      "inputs": [
        {
          "internalType": "bytes32",
          "name": "role",
          "type": "bytes32"
        },
        {
          "internalType": "address",
          "name": "account",
          "type": "address"
        }
      ],
      "name": "grantRole",
      "outputs": [],
      "stateMutability": "nonpayable",
      "type": "function"
    },
    {
      "inputs": [
        {
          "internalType": "bytes32",
          "name": "role",
          "type": "bytes32"
        },
        {
          "internalType": "address",
          "name": "account",
          "type": "address"
        }
      ],
      "name": "hasRole",
      "outputs": [
        {
          "internalType": "bool",
          "name": "",
          "type": "bool"
        }
      ],
      "stateMutability": "view",
      "type": "function"
    },
    {
      "inputs": [
        {
          "internalType": "address",
          "name": "forwarder",
          "type": "address"
        }
      ],
      "name": "isTrustedForwarder",
      "outputs": [
        {
          "internalType": "bool",
          "name": "",
          "type": "bool"
        }
      ],
      "stateMutability": "view",
      "type": "function"
    },
    {
      "inputs": [
        {
          "internalType": "bytes[]",
          "name": "data",
          "type": "bytes[]"
        }
      ],
      "name": "multicall",
      "outputs": [
        {
          "internalType": "bytes[]",
          "name": "results",
          "type": "bytes[]"
        }
      ],
      "stateMutability": "nonpayable",
      "type": "function"
    },
    {
      "inputs": [
        {
          "internalType": "address",
          "name": "_deployer",
          "type": "address"
        },
        {
          "internalType": "address",
          "name": "_deployment",
          "type": "address"
        }
      ],
      "name": "remove",
      "outputs": [],
      "stateMutability": "nonpayable",
      "type": "function"
    },
    {
      "inputs": [
        {
          "internalType": "bytes32",
          "name": "role",
          "type": "bytes32"
        },
        {
          "internalType": "address",
          "name": "account",
          "type": "address"
        }
      ],
      "name": "renounceRole",
      "outputs": [],
      "stateMutability": "nonpayable",
      "type": "function"
    },
    {
      "inputs": [
        {
          "internalType": "bytes32",
          "name": "role",
          "type": "bytes32"
        },
        {
          "internalType": "address",
          "name": "account",
          "type": "address"
        }
      ],
      "name": "revokeRole",
      "outputs": [],
      "stateMutability": "nonpayable",
      "type": "function"
    },
    {
      "inputs": [
        {
          "internalType": "bytes4",
          "name": "interfaceId",
          "type": "bytes4"
        }
      ],
      "name": "supportsInterface",
      "outputs": [
        {
          "internalType": "bool",
          "name": "",
          "type": "bool"
        }
      ],
      "stateMutability": "view",
      "type": "function"
    }
  ],
  "bytecode": "0x60a06040523480156200001157600080fd5b50604051620016bf380380620016bf83398101604081905262000034916200021e565b6001600160a01b038116608052620000576000620000516200005e565b6200007a565b5062000250565b6000620000756200008a60201b620008131760201c565b905090565b620000868282620000c3565b5050565b6080516000906001600160a01b0316331415620000ae575060131936013560601c90565b620000756200010660201b6200085d1760201c565b620000da82826200010a60201b620008611760201c565b60008281526001602090815260409091206200010191839062000900620001ac821b17901c565b505050565b3390565b6000828152602081815260408083206001600160a01b038516845290915290205460ff1662000086576000828152602081815260408083206001600160a01b03851684529091529020805460ff19166001179055620001686200005e565b6001600160a01b0316816001600160a01b0316837f2f8788117e7eff1d82e926ec794901d17c78024a50270940304540a733656f0d60405160405180910390a45050565b6000620001c3836001600160a01b038416620001cc565b90505b92915050565b60008181526001830160205260408120546200021557508154600181810184556000848152602080822090930184905584548482528286019093526040902091909155620001c6565b506000620001c6565b6000602082840312156200023157600080fd5b81516001600160a01b03811681146200024957600080fd5b9392505050565b60805161144c62000273600039600081816101bc0152610817015261144c6000f3fe608060405234801561001057600080fd5b50600436106101005760003560e01c80639010d07c11610097578063ca15c87311610066578063ca15c87314610289578063d547741f1461029c578063eb077342146102af578063f5b541a6146102cf57600080fd5b80639010d07c146101ff57806391d148541461022a578063a217fddf14610261578063ac9650d81461026957600080fd5b806336568abe116100d357806336568abe1461018657806352c28fab14610199578063572b6c05146101ac5780637f7c1491146101ec57600080fd5b806301ffc9a71461010557806305d85eda1461012d578063248a9ca31461014e5780632f2ff15d14610171575b600080fd5b610118610113366004610fa7565b6102f6565b60405190151581526020015b60405180910390f35b61014061013b366004610fed565b610321565b604051908152602001610124565b61014061015c366004611008565b60009081526020819052604090206001015490565b61018461017f366004611021565b610342565b005b610184610194366004611021565b61036c565b6101846101a736600461104d565b61040d565b6101186101ba366004610fed565b7f00000000000000000000000000000000000000000000000000000000000000006001600160a01b0390811691161490565b6101846101fa36600461104d565b61054e565b61021261020d366004611077565b61069f565b6040516001600160a01b039091168152602001610124565b610118610238366004611021565b6000918252602082815260408084206001600160a01b0393909316845291905290205460ff1690565b610140600081565b61027c610277366004611099565b6106be565b604051610124919061116a565b610140610297366004611008565b6107b3565b6101846102aa366004611021565b6107ca565b6102c26102bd366004610fed565b6107ef565b60405161012491906111cc565b6101407f97667070c54ef182b0f5858b034beac1b6f3089aa2d3188bb1e8929f4fa9b92981565b60006001600160e01b03198216635a05180f60e01b148061031b575061031b82610915565b92915050565b6001600160a01b038116600090815260026020526040812061031b9061094a565b60008281526020819052604090206001015461035d81610954565b6103678383610968565b505050565b61037461098a565b6001600160a01b0316816001600160a01b0316146103ff5760405162461bcd60e51b815260206004820152602f60248201527f416363657373436f6e74726f6c3a2063616e206f6e6c792072656e6f756e636560448201527f20726f6c657320666f722073656c66000000000000000000000000000000000060648201526084015b60405180910390fd5b6104098282610994565b5050565b6104397f97667070c54ef182b0f5858b034beac1b6f3089aa2d3188bb1e8929f4fa9b92961023861098a565b8061045c575061044761098a565b6001600160a01b0316826001600160a01b0316145b6104a85760405162461bcd60e51b815260206004820152601960248201527f6e6f74206f70657261746f72206f72206465706c6f7965722e0000000000000060448201526064016103f6565b6001600160a01b03821660009081526002602052604081206104ca9083610900565b9050806105095760405162461bcd60e51b815260206004820152600d60248201526c19985a5b1959081d1bc8185919609a1b60448201526064016103f6565b816001600160a01b0316836001600160a01b03167f938c63ac3d228b23f6bee7618fefc6790522e338ac202c958a2ea9eb9706c5d160405160405180910390a3505050565b61057a7f97667070c54ef182b0f5858b034beac1b6f3089aa2d3188bb1e8929f4fa9b92961023861098a565b8061059d575061058861098a565b6001600160a01b0316826001600160a01b0316145b6105e95760405162461bcd60e51b815260206004820152601960248201527f6e6f74206f70657261746f72206f72206465706c6f7965722e0000000000000060448201526064016103f6565b6001600160a01b038216600090815260026020526040812061060b90836109b2565b90508061065a5760405162461bcd60e51b815260206004820152601060248201527f6661696c656420746f2072656d6f76650000000000000000000000000000000060448201526064016103f6565b816001600160a01b0316836001600160a01b03167ffc5ffe2160301e6b21a86f66febb30fe4e9e6932ac1afc0348fb2fd5daa18b1360405160405180910390a3505050565b60008281526001602052604081206106b790836109c7565b9392505050565b60608167ffffffffffffffff8111156106d9576106d9611219565b60405190808252806020026020018201604052801561070c57816020015b60608152602001906001900390816106f75790505b50905060005b828110156107ac5761077c308585848181106107305761073061122f565b90506020028101906107429190611245565b8080601f0160208091040260200160405190810160405280939291908181526020018383808284376000920191909152506109d392505050565b82828151811061078e5761078e61122f565b602002602001018190525080806107a4906112a9565b915050610712565b5092915050565b600081815260016020526040812061031b9061094a565b6000828152602081905260409020600101546107e581610954565b6103678383610994565b6001600160a01b038116600090815260026020526040902060609061031b906109f8565b60007f00000000000000000000000000000000000000000000000000000000000000006001600160a01b0316331415610853575060131936013560601c90565b503390565b905090565b3390565b6000828152602081815260408083206001600160a01b038516845290915290205460ff16610409576000828152602081815260408083206001600160a01b03851684529091529020805460ff191660011790556108bc61098a565b6001600160a01b0316816001600160a01b0316837f2f8788117e7eff1d82e926ec794901d17c78024a50270940304540a733656f0d60405160405180910390a45050565b60006106b7836001600160a01b038416610a05565b60006001600160e01b03198216637965db0b60e01b148061031b57506301ffc9a760e01b6001600160e01b031983161461031b565b600061031b825490565b6109658161096061098a565b610a54565b50565b6109728282610861565b60008281526001602052604090206103679082610900565b6000610858610813565b61099e8282610ad2565b600082815260016020526040902061036790825b60006106b7836001600160a01b038416610b6f565b60006106b78383610c62565b60606106b783836040518060600160405280602781526020016113f060279139610c8c565b606060006106b783610d69565b6000818152600183016020526040812054610a4c5750815460018181018455600084815260208082209093018490558454848252828601909352604090209190915561031b565b50600061031b565b6000828152602081815260408083206001600160a01b038516845290915290205460ff1661040957610a90816001600160a01b03166014610dc5565b610a9b836020610dc5565b604051602001610aac9291906112c4565b60408051601f198184030181529082905262461bcd60e51b82526103f691600401611345565b6000828152602081815260408083206001600160a01b038516845290915290205460ff1615610409576000828152602081815260408083206001600160a01b03851684529091529020805460ff19169055610b2b61098a565b6001600160a01b0316816001600160a01b0316837ff6391f5c32d9c69d2a47ea670b442974b53935d1edc7fd64eb21e047a839171b60405160405180910390a45050565b60008181526001830160205260408120548015610c58576000610b93600183611358565b8554909150600090610ba790600190611358565b9050818114610c0c576000866000018281548110610bc757610bc761122f565b9060005260206000200154905080876000018481548110610bea57610bea61122f565b6000918252602080832090910192909255918252600188019052604090208390555b8554869080610c1d57610c1d61136f565b60019003818190600052602060002001600090559055856001016000868152602001908152602001600020600090556001935050505061031b565b600091505061031b565b6000826000018281548110610c7957610c7961122f565b9060005260206000200154905092915050565b60606001600160a01b0384163b610cf45760405162461bcd60e51b815260206004820152602660248201527f416464726573733a2064656c65676174652063616c6c20746f206e6f6e2d636f6044820152651b9d1c9858dd60d21b60648201526084016103f6565b600080856001600160a01b031685604051610d0f9190611385565b600060405180830381855af49150503d8060008114610d4a576040519150601f19603f3d011682016040523d82523d6000602084013e610d4f565b606091505b5091509150610d5f828286610f6e565b9695505050505050565b606081600001805480602002602001604051908101604052809291908181526020018280548015610db957602002820191906000526020600020905b815481526020019060010190808311610da5575b50505050509050919050565b60606000610dd48360026113a1565b610ddf9060026113c0565b67ffffffffffffffff811115610df757610df7611219565b6040519080825280601f01601f191660200182016040528015610e21576020820181803683370190505b509050600360fc1b81600081518110610e3c57610e3c61122f565b60200101906001600160f81b031916908160001a905350600f60fb1b81600181518110610e6b57610e6b61122f565b60200101906001600160f81b031916908160001a9053506000610e8f8460026113a1565b610e9a9060016113c0565b90505b6001811115610f1f577f303132333435363738396162636465660000000000000000000000000000000085600f1660108110610edb57610edb61122f565b1a60f81b828281518110610ef157610ef161122f565b60200101906001600160f81b031916908160001a90535060049490941c93610f18816113d8565b9050610e9d565b5083156106b75760405162461bcd60e51b815260206004820181905260248201527f537472696e67733a20686578206c656e67746820696e73756666696369656e7460448201526064016103f6565b60608315610f7d5750816106b7565b825115610f8d5782518084602001fd5b8160405162461bcd60e51b81526004016103f69190611345565b600060208284031215610fb957600080fd5b81356001600160e01b0319811681146106b757600080fd5b80356001600160a01b0381168114610fe857600080fd5b919050565b600060208284031215610fff57600080fd5b6106b782610fd1565b60006020828403121561101a57600080fd5b5035919050565b6000806040838503121561103457600080fd5b8235915061104460208401610fd1565b90509250929050565b6000806040838503121561106057600080fd5b61106983610fd1565b915061104460208401610fd1565b6000806040838503121561108a57600080fd5b50508035926020909101359150565b600080602083850312156110ac57600080fd5b823567ffffffffffffffff808211156110c457600080fd5b818501915085601f8301126110d857600080fd5b8135818111156110e757600080fd5b8660208260051b85010111156110fc57600080fd5b60209290920196919550909350505050565b60005b83811015611129578181015183820152602001611111565b83811115611138576000848401525b50505050565b6000815180845261115681602086016020860161110e565b601f01601f19169290920160200192915050565b6000602080830181845280855180835260408601915060408160051b870101925083870160005b828110156111bf57603f198886030184526111ad85835161113e565b94509285019290850190600101611191565b5092979650505050505050565b6020808252825182820181905260009190848201906040850190845b8181101561120d5783516001600160a01b0316835292840192918401916001016111e8565b50909695505050505050565b634e487b7160e01b600052604160045260246000fd5b634e487b7160e01b600052603260045260246000fd5b6000808335601e1984360301811261125c57600080fd5b83018035915067ffffffffffffffff82111561127757600080fd5b60200191503681900382131561128c57600080fd5b9250929050565b634e487b7160e01b600052601160045260246000fd5b60006000198214156112bd576112bd611293565b5060010190565b7f416363657373436f6e74726f6c3a206163636f756e74200000000000000000008152600083516112fc81601785016020880161110e565b7f206973206d697373696e6720726f6c6520000000000000000000000000000000601791840191820152835161133981602884016020880161110e565b01602801949350505050565b6020815260006106b7602083018461113e565b60008282101561136a5761136a611293565b500390565b634e487b7160e01b600052603160045260246000fd5b6000825161139781846020870161110e565b9190910192915050565b60008160001904831182151516156113bb576113bb611293565b500290565b600082198211156113d3576113d3611293565b500190565b6000816113e7576113e7611293565b50600019019056fe416464726573733a206c6f772d6c6576656c2064656c65676174652063616c6c206661696c6564a2646970667358221220eb2ca8c53a297df066ebc0e31a659d931510ef7bd1cff9c9ebde7e0ca772cfc064736f6c634300080c0033",
  "linkReferences": {},
  "deployedLinkReferences": {}
}