{
  "abi": [
    {
      "inputs": [
        {
          "internalType": "contract IEntryPoint",
          "name": "_entrypoint",
          "type": "address"
        }
      ],
      "stateMutability": "nonpayable",
      "type": "constructor"
    },
    {
      "anonymous": false,
      "inputs": [
        {
          "indexed": true,
          "internalType": "address",
          "name": "account",
          "type": "address"
        },
        {
          "indexed": true,
          "internalType": "address",
          "name": "accountAdmin",
          "type": "address"
        }
      ],
      "name": "AccountCreated",
      "type": "event"
    },
    {
      "anonymous": false,
      "inputs": [
        {
          "indexed": false,
          "internalType": "string",
          "name": "prevURI",
          "type": "string"
        },
        {
          "indexed": false,
          "internalType": "string",
          "name": "newURI",
          "type": "string"
        }
      ],
      "name": "ContractURIUpdated",
      "type": "event"
    },
    {
      "anonymous": false,
      "inputs": [
        {
          "indexed": true,
          "internalType": "bytes32",
          "name": "role",
          "type": "bytes32"
        },
        {
          "indexed": true,
          "internalType": "bytes32",
          "name": "previousAdminRole",
          "type": "bytes32"
        },
        {
          "indexed": true,
          "internalType": "bytes32",
          "name": "newAdminRole",
          "type": "bytes32"
        }
      ],
      "name": "RoleAdminChanged",
      "type": "event"
    },
    {
      "anonymous": false,
      "inputs": [
        {
          "indexed": true,
          "internalType": "bytes32",
          "name": "role",
          "type": "bytes32"
        },
        {
          "indexed": true,
          "internalType": "address",
          "name": "account",
          "type": "address"
        },
        {
          "indexed": true,
          "internalType": "address",
          "name": "sender",
          "type": "address"
        }
      ],
      "name": "RoleGranted",
      "type": "event"
    },
    {
      "anonymous": false,
      "inputs": [
        {
          "indexed": true,
          "internalType": "bytes32",
          "name": "role",
          "type": "bytes32"
        },
        {
          "indexed": true,
          "internalType": "address",
          "name": "account",
          "type": "address"
        },
        {
          "indexed": true,
          "internalType": "address",
          "name": "sender",
          "type": "address"
        }
      ],
      "name": "RoleRevoked",
      "type": "event"
    },
    {
      "anonymous": false,
      "inputs": [
        {
          "indexed": true,
          "internalType": "address",
          "name": "account",
          "type": "address"
        },
        {
          "indexed": true,
          "internalType": "address",
          "name": "signer",
          "type": "address"
        }
      ],
      "name": "SignerAdded",
      "type": "event"
    },
    {
      "anonymous": false,
      "inputs": [
        {
          "indexed": true,
          "internalType": "address",
          "name": "account",
          "type": "address"
        },
        {
          "indexed": true,
          "internalType": "address",
          "name": "signer",
          "type": "address"
        }
      ],
      "name": "SignerRemoved",
      "type": "event"
    },
    {
      "inputs": [],
      "name": "DEFAULT_ADMIN_ROLE",
      "outputs": [
        {
          "internalType": "bytes32",
          "name": "",
          "type": "bytes32"
        }
      ],
      "stateMutability": "view",
      "type": "function"
    },
    {
      "inputs": [],
      "name": "accountImplementation",
      "outputs": [
        {
          "internalType": "address",
          "name": "",
          "type": "address"
        }
      ],
      "stateMutability": "view",
      "type": "function"
    },
    {
      "inputs": [],
      "name": "contractURI",
      "outputs": [
        {
          "internalType": "string",
          "name": "",
          "type": "string"
        }
      ],
      "stateMutability": "view",
      "type": "function"
    },
    {
      "inputs": [
        {
          "internalType": "address",
          "name": "_admin",
          "type": "address"
        },
        {
          "internalType": "bytes",
          "name": "_data",
          "type": "bytes"
        }
      ],
      "name": "createAccount",
      "outputs": [
        {
          "internalType": "address",
          "name": "",
          "type": "address"
        }
      ],
      "stateMutability": "nonpayable",
      "type": "function"
    },
    {
      "inputs": [],
      "name": "entrypoint",
      "outputs": [
        {
          "internalType": "address",
          "name": "",
          "type": "address"
        }
      ],
      "stateMutability": "view",
      "type": "function"
    },
    {
      "inputs": [
        {
          "internalType": "address",
          "name": "signer",
          "type": "address"
        }
      ],
      "name": "getAccountsOfSigner",
      "outputs": [
        {
          "internalType": "address[]",
          "name": "accounts",
          "type": "address[]"
        }
      ],
      "stateMutability": "view",
      "type": "function"
    },
    {
      "inputs": [
        {
          "internalType": "address",
          "name": "_adminSigner",
          "type": "address"
        },
        {
          "internalType": "bytes",
          "name": "_data",
          "type": "bytes"
        }
      ],
      "name": "getAddress",
      "outputs": [
        {
          "internalType": "address",
          "name": "",
          "type": "address"
        }
      ],
      "stateMutability": "view",
      "type": "function"
    },
    {
      "inputs": [],
      "name": "getAllAccounts",
      "outputs": [
        {
          "internalType": "address[]",
          "name": "",
          "type": "address[]"
        }
      ],
      "stateMutability": "view",
      "type": "function"
    },
    {
      "inputs": [
        {
          "internalType": "bytes32",
          "name": "role",
          "type": "bytes32"
        }
      ],
      "name": "getRoleAdmin",
      "outputs": [
        {
          "internalType": "bytes32",
          "name": "",
          "type": "bytes32"
        }
      ],
      "stateMutability": "view",
      "type": "function"
    },
    {
      "inputs": [
        {
          "internalType": "bytes32",
          "name": "role",
          "type": "bytes32"
        },
        {
          "internalType": "uint256",
          "name": "index",
          "type": "uint256"
        }
      ],
      "name": "getRoleMember",
      "outputs": [
        {
          "internalType": "address",
          "name": "member",
          "type": "address"
        }
      ],
      "stateMutability": "view",
      "type": "function"
    },
    {
      "inputs": [
        {
          "internalType": "bytes32",
          "name": "role",
          "type": "bytes32"
        }
      ],
      "name": "getRoleMemberCount",
      "outputs": [
        {
          "internalType": "uint256",
          "name": "count",
          "type": "uint256"
        }
      ],
      "stateMutability": "view",
      "type": "function"
    },
    {
      "inputs": [
        {
          "internalType": "bytes32",
          "name": "role",
          "type": "bytes32"
        },
        {
          "internalType": "address",
          "name": "account",
          "type": "address"
        }
      ],
      "name": "grantRole",
      "outputs": [],
      "stateMutability": "nonpayable",
      "type": "function"
    },
    {
      "inputs": [
        {
          "internalType": "bytes32",
          "name": "role",
          "type": "bytes32"
        },
        {
          "internalType": "address",
          "name": "account",
          "type": "address"
        }
      ],
      "name": "hasRole",
      "outputs": [
        {
          "internalType": "bool",
          "name": "",
          "type": "bool"
        }
      ],
      "stateMutability": "view",
      "type": "function"
    },
    {
      "inputs": [
        {
          "internalType": "bytes32",
          "name": "role",
          "type": "bytes32"
        },
        {
          "internalType": "address",
          "name": "account",
          "type": "address"
        }
      ],
      "name": "hasRoleWithSwitch",
      "outputs": [
        {
          "internalType": "bool",
          "name": "",
          "type": "bool"
        }
      ],
      "stateMutability": "view",
      "type": "function"
    },
    {
      "inputs": [
        {
          "internalType": "address",
          "name": "_account",
          "type": "address"
        }
      ],
      "name": "isRegistered",
      "outputs": [
        {
          "internalType": "bool",
          "name": "",
          "type": "bool"
        }
      ],
      "stateMutability": "view",
      "type": "function"
    },
    {
      "inputs": [
        {
          "internalType": "bytes[]",
          "name": "data",
          "type": "bytes[]"
        }
      ],
      "name": "multicall",
      "outputs": [
        {
          "internalType": "bytes[]",
          "name": "results",
          "type": "bytes[]"
        }
      ],
      "stateMutability": "nonpayable",
      "type": "function"
    },
    {
      "inputs": [],
      "name": "onRegister",
      "outputs": [],
      "stateMutability": "nonpayable",
      "type": "function"
    },
    {
      "inputs": [
        {
          "internalType": "address",
          "name": "_signer",
          "type": "address"
        }
      ],
      "name": "onSignerAdded",
      "outputs": [],
      "stateMutability": "nonpayable",
      "type": "function"
    },
    {
      "inputs": [
        {
          "internalType": "address",
          "name": "_signer",
          "type": "address"
        }
      ],
      "name": "onSignerRemoved",
      "outputs": [],
      "stateMutability": "nonpayable",
      "type": "function"
    },
    {
      "inputs": [
        {
          "internalType": "bytes32",
          "name": "role",
          "type": "bytes32"
        },
        {
          "internalType": "address",
          "name": "account",
          "type": "address"
        }
      ],
      "name": "renounceRole",
      "outputs": [],
      "stateMutability": "nonpayable",
      "type": "function"
    },
    {
      "inputs": [
        {
          "internalType": "bytes32",
          "name": "role",
          "type": "bytes32"
        },
        {
          "internalType": "address",
          "name": "account",
          "type": "address"
        }
      ],
      "name": "revokeRole",
      "outputs": [],
      "stateMutability": "nonpayable",
      "type": "function"
    },
    {
      "inputs": [
        {
          "internalType": "string",
          "name": "_uri",
          "type": "string"
        }
      ],
      "name": "setContractURI",
      "outputs": [],
      "stateMutability": "nonpayable",
      "type": "function"
    }
  ],
  "bytecode": {
    "object": "0x60c06040523480156200001157600080fd5b5060405162005f8c38038062005f8c833981016040819052620000349162000234565b8030604051620000449062000226565b6001600160a01b03928316815291166020820152604001604051809103906000f08015801562000078573d6000803e3d6000fd5b506001600160a01b03908116608052811660a05262000099600033620000a0565b506200028d565b620000b78282620000c760201b62000b951760201c565b620000c3828262000158565b5050565b6000620000de620001de60201b62000c181760201c565b6000848152602082815260408083206001600160a01b03871684529091529020805460ff191660011790559050620001133390565b6001600160a01b0316826001600160a01b0316847f2f8788117e7eff1d82e926ec794901d17c78024a50270940304540a733656f0d60405160405180910390a4505050565b60006200016f6200020260201b62000c3c1760201c565b6000848152602082905260408120805492935060019162000191838562000266565b909155505060009384526020918252604080852082865260018101845281862080546001600160a01b039096166001600160a01b0319909616861790559385526002909301909152912055565b7fd0ebebe8e6445c62babf8fef767eb39f1002bb957bb5b83258275a4e46428ed590565b7f0c4ba382c0009cf238e4c1ca1a52f51c61e6248a70bdfb34e5ed49d5578a5c0c90565b613ec480620020c883390190565b6000602082840312156200024757600080fd5b81516001600160a01b03811681146200025f57600080fd5b9392505050565b600082198211156200028857634e487b7160e01b600052601160045260246000fd5b500190565b60805160a051611df9620002cf60003960008181610241015261092801526000818161014d01528181610492015281816108bc0152610f140152611df96000f3fe608060405234801561001057600080fd5b50600436106101125760003560e01c806308e93d0a146101175780630e6254fd1461013557806311464fbe14610148578063248a9ca31461017c5780632f2ff15d1461019d57806336568abe146101b25780638878ed33146101c55780639010d07c146101d857806391d14854146101eb578063938e3d7b1461020e578063a217fddf14610221578063a32fa5b314610229578063a65d69d41461023c578063ac9650d814610263578063c3c5a54714610283578063c7b90cc314610296578063ca15c8731461029e578063d547741f146102b1578063d8fd8f44146102c4578063e8a3d485146102d7578063ed9e4b7d146102ec578063eed89d72146102ff575b600080fd5b61011f610312565b60405161012c9190611757565b60405180910390f35b61011f6101433660046117c0565b610323565b61016f7f000000000000000000000000000000000000000000000000000000000000000081565b60405161012c91906117db565b61018f61018a3660046117ef565b61034d565b60405190815260200161012c565b6101b06101ab366004611808565b61036d565b005b6101b06101c0366004611808565b61041a565b61016f6101d3366004611834565b61047d565b61016f6101e63660046118b6565b6104c2565b6101fe6101f9366004611808565b6105bc565b604051901515815260200161012c565b6101b061021c3660046118ee565b6105f2565b61018f600081565b6101fe610237366004611808565b610643565b61016f7f000000000000000000000000000000000000000000000000000000000000000081565b61027661027136600461199e565b6106a4565b60405161012c9190611a6e565b6101fe6102913660046117c0565b610798565b6101b06107a4565b61018f6102ac3660046117ef565b6107f1565b6101b06102bf366004611808565b610886565b61016f6102d2366004611834565b6108b8565b6102df6109ca565b60405161012c9190611ad0565b6101b06102fa3660046117c0565b610a6b565b6101b061030d3660046117c0565b610b00565b606061031e6000610c60565b905090565b6001600160a01b038116600090815260026020526040902060609061034790610c60565b92915050565b600080610358610c18565b60009384526001016020525050604090205490565b6000610377610c18565b60008481526001820160205260409020549091506103959033610c6d565b6000838152602082815260408083206001600160a01b038616845290915290205460ff161561040b5760405162461bcd60e51b815260206004820152601d60248201527f43616e206f6e6c79206772616e7420746f206e6f6e20686f6c6465727300000060448201526064015b60405180910390fd5b6104158383610cf8565b505050565b336001600160a01b0382161461046f5760405162461bcd60e51b815260206004820152601a60248201527921b0b71037b7363c903932b737bab731b2903337b91039b2b63360311b6044820152606401610402565b6104798282610d0c565b5050565b60008061048b858585610d20565b90506104b77f000000000000000000000000000000000000000000000000000000000000000082610d52565b9150505b9392505050565b6000806104cd610c3c565b600085815260208290526040812054919250805b828110156105b2576000878152602085815260408083208484526001019091529020546001600160a01b03161561055d578582141561054b576000878152602094855260408082209282526001909201909452909220546001600160a01b03169250610347915050565b610556600183611af9565b91506105a0565b6105688760006105bc565b801561058d575060008781526020858152604080832083805260020190915290205481145b156105a05761059d600183611af9565b91505b6105ab600182611af9565b90506104e1565b5050505092915050565b6000806105c7610c18565b6000948552602090815260408086206001600160a01b03959095168652939052505090205460ff1690565b6105fa610dac565b6106375760405162461bcd60e51b815260206004820152600e60248201526d139bdd08185d5d1a1bdc9a5e995960921b6044820152606401610402565b61064081610db8565b50565b60008061064e610c18565b60008581526020828152604080832083805290915290205490915060ff1661069a576000848152602091825260408082206001600160a01b0386168352909252205460ff169050610347565b5060019392505050565b6060816001600160401b038111156106be576106be6118d8565b6040519080825280602002602001820160405280156106f157816020015b60608152602001906001900390816106dc5790505b50905060005b82811015610791576107613085858481811061071557610715611b11565b90506020028101906107279190611b27565b8080601f016020809104026020016040519081016040528093929190818152602001838380828437600092019190915250610ea892505050565b82828151811061077357610773611b11565b6020026020010181905250808061078990611b74565b9150506106f7565b5092915050565b60006103478183610ecd565b336107ae81610eef565b6107ca5760405162461bcd60e51b815260040161040290611b8f565b6107d5600082610f4e565b6106405760405162461bcd60e51b815260040161040290611bc6565b6000806107fc610c3c565b6000848152602082905260408120549192505b81811015610860576000858152602084815260408083208484526001019091529020546001600160a01b03161561084e5761084b600185611af9565b93505b610859600182611af9565b905061080f565b5061086c8460006105bc565b1561087f5761087c600184611af9565b92505b5050919050565b6000610890610c18565b60008481526001820160205260409020549091506108ae9033610c6d565b6104158383610d0c565b60007f0000000000000000000000000000000000000000000000000000000000000000816108e7868686610d20565b905060006108f58383610d52565b90506001600160a01b0381163b156109115792506104bb915050565b61091b8383610f63565b9050336001600160a01b037f0000000000000000000000000000000000000000000000000000000000000000161461097457610958600082610f4e565b6109745760405162461bcd60e51b815260040161040290611bc6565b61098081888888610ffa565b866001600160a01b0316816001600160a01b03167fac631f3001b55ea1509cf3d7e74898f85392a61a76e8149181ae1259622dabc860405160405180910390a39695505050505050565b606060006109d6611062565b90508060000180546109e790611c10565b80601f0160208091040260200160405190810160405280929190818152602001828054610a1390611c10565b8015610a605780601f10610a3557610100808354040283529160200191610a60565b820191906000526020600020905b815481529060010190602001808311610a4357829003601f168201915b505050505091505090565b33610a7581610eef565b610a915760405162461bcd60e51b815260040161040290611b8f565b6001600160a01b0382166000908152600260205260408120610ab39083610f4e565b9050801561041557826001600160a01b0316826001600160a01b03167f12146497b3b826918ec47f0cac7272a09ed06b30c16c030e99ec48ff5dd60b4760405160405180910390a3505050565b33610b0a81610eef565b610b265760405162461bcd60e51b815260040161040290611b8f565b6001600160a01b0382166000908152600260205260408120610b489083611086565b9050801561041557826001600160a01b0316826001600160a01b03167f98d1ebbe00ae92a5de96a0f49742a8afa89f42363592bc2e7cfaaed68b45e7a660405160405180910390a3505050565b6000610b9f610c18565b6000848152602082815260408083206001600160a01b03871684529091529020805460ff191660011790559050610bd33390565b6001600160a01b0316826001600160a01b0316847f2f8788117e7eff1d82e926ec794901d17c78024a50270940304540a733656f0d60405160405180910390a4505050565b7fd0ebebe8e6445c62babf8fef767eb39f1002bb957bb5b83258275a4e46428ed590565b7f0c4ba382c0009cf238e4c1ca1a52f51c61e6248a70bdfb34e5ed49d5578a5c0c90565b606060006104bb8361109b565b6000610c77610c18565b6000848152602082815260408083206001600160a01b038716845290915290205490915060ff1661041557610cb6826001600160a01b031660146110f7565b610cc18460206110f7565b604051602001610cd2929190611c4b565b60408051601f198184030181529082905262461bcd60e51b825261040291600401611ad0565b610d028282610b95565b6104798282611292565b610d168282611309565b6104798282611376565b600083604051602001610d3391906117db565b6040516020818303038152906040528051906020012090509392505050565b6040513060388201526f5af43d82803e903d91602b57fd5bf3ff60248201526014810192909252733d602d80600a3d3981f3363d3d373d3d3d363d73825260588201526037600c8201206078820152605560439091012090565b600061031e81336105bc565b6000610dc2611062565b90506000816000018054610dd590611c10565b80601f0160208091040260200160405190810160405280929190818152602001828054610e0190611c10565b8015610e4e5780601f10610e2357610100808354040283529160200191610e4e565b820191906000526020600020905b815481529060010190602001808311610e3157829003601f168201915b50508651939450610e699386935060208801925090506116be565b507fc9c7c3fe08b88b4df9d4d47ef47d2c43d55c025a0ba88ca442580ed9e7348a168184604051610e9b929190611cb8565b60405180910390a1505050565b60606104bb8383604051806060016040528060278152602001611d9d602791396113cb565b6001600160a01b038116600090815260018301602052604081205415156104bb565b600080610efb836114a8565b90506000836001600160a01b03163b1180156104bb57507f00000000000000000000000000000000000000000000000000000000000000006001600160a01b0316816001600160a01b0316149392505050565b60006104bb836001600160a01b0384166114de565b6000763d602d80600a3d3981f3363d3d373d3d3d363d730000008360601b60e81c176000526e5af43d82803e903d91602b57fd5bf38360781b1760205281603760096000f590506001600160a01b0381166103475760405162461bcd60e51b8152602060048201526017602482015276115490cc4c4d8dce8818dc99585d194c8819985a5b1959604a1b6044820152606401610402565b60405163347d5e2560e21b81526001600160a01b0385169063d1f578949061102a90869086908690600401611cdd565b600060405180830381600087803b15801561104457600080fd5b505af1158015611058573d6000803e3d6000fd5b5050505050505050565b7fa7d40346e44ca145e94a946aa34a7d4a67245577dc18699a626fe0ffc6ce328190565b60006104bb836001600160a01b03841661152d565b6060816000018054806020026020016040519081016040528092919081815260200182805480156110eb57602002820191906000526020600020905b8154815260200190600101908083116110d7575b50505050509050919050565b60606000611106836002611d1d565b611111906002611af9565b6001600160401b03811115611128576111286118d8565b6040519080825280601f01601f191660200182016040528015611152576020820181803683370190505b509050600360fc1b8160008151811061116d5761116d611b11565b60200101906001600160f81b031916908160001a905350600f60fb1b8160018151811061119c5761119c611b11565b60200101906001600160f81b031916908160001a90535060006111c0846002611d1d565b6111cb906001611af9565b90505b6001811115611243576f181899199a1a9b1b9c1cb0b131b232b360811b85600f16601081106111ff576111ff611b11565b1a60f81b82828151811061121557611215611b11565b60200101906001600160f81b031916908160001a90535060049490941c9361123c81611d3c565b90506111ce565b5083156104bb5760405162461bcd60e51b815260206004820181905260248201527f537472696e67733a20686578206c656e67746820696e73756666696369656e746044820152606401610402565b600061129c610c3c565b600084815260208290526040812080549293506001916112bc8385611af9565b909155505060009384526020918252604080852082865260018101845281862080546001600160a01b039096166001600160a01b0319909616861790559385526002909301909152912055565b6000611313610c18565b905061131f8383610c6d565b6000838152602082815260408083206001600160a01b0386168085529252808320805460ff1916905551339286917ff6391f5c32d9c69d2a47ea670b442974b53935d1edc7fd64eb21e047a839171b9190a4505050565b6000611380610c3c565b6000938452602090815260408085206001600160a01b0390941680865260028501808452828720805488526001909601845291862080546001600160a01b0319169055855290525055565b60606001600160a01b0384163b6114335760405162461bcd60e51b815260206004820152602660248201527f416464726573733a2064656c65676174652063616c6c20746f206e6f6e2d636f6044820152651b9d1c9858dd60d21b6064820152608401610402565b600080856001600160a01b03168560405161144e9190611d53565b600060405180830381855af49150503d8060008114611489576040519150601f19603f3d011682016040523d82523d6000602084013e61148e565b606091505b509150915061149e828286611620565b9695505050505050565b600080826001600160a01b0316803b806020016040519081016040528181526000908060200190933c90506104bb81600a611659565b600081815260018301602052604081205461152557508154600181810184556000848152602080822090930184905584548482528286019093526040902091909155610347565b506000610347565b60008181526001830160205260408120548015611616576000611551600183611d6f565b855490915060009061156590600190611d6f565b90508181146115ca57600086600001828154811061158557611585611b11565b90600052602060002001549050808760000184815481106115a8576115a8611b11565b6000918252602080832090910192909255918252600188019052604090208390555b85548690806115db576115db611d86565b600190038181906000526020600020016000905590558560010160008681526020019081526020016000206000905560019350505050610347565b6000915050610347565b6060831561162f5750816104bb565b82511561163f5782518084602001fd5b8160405162461bcd60e51b81526004016104029190611ad0565b6000611666826014611af9565b835110156116ae5760405162461bcd60e51b8152602060048201526015602482015274746f416464726573735f6f75744f66426f756e647360581b6044820152606401610402565b500160200151600160601b900490565b8280546116ca90611c10565b90600052602060002090601f0160209004810192826116ec5760008555611732565b82601f1061170557805160ff1916838001178555611732565b82800160010185558215611732579182015b82811115611732578251825591602001919060010190611717565b5061173e929150611742565b5090565b5b8082111561173e5760008155600101611743565b6020808252825182820181905260009190848201906040850190845b818110156117985783516001600160a01b031683529284019291840191600101611773565b50909695505050505050565b80356001600160a01b03811681146117bb57600080fd5b919050565b6000602082840312156117d257600080fd5b6104bb826117a4565b6001600160a01b0391909116815260200190565b60006020828403121561180157600080fd5b5035919050565b6000806040838503121561181b57600080fd5b8235915061182b602084016117a4565b90509250929050565b60008060006040848603121561184957600080fd5b611852846117a4565b925060208401356001600160401b038082111561186e57600080fd5b818601915086601f83011261188257600080fd5b81358181111561189157600080fd5b8760208285010111156118a357600080fd5b6020830194508093505050509250925092565b600080604083850312156118c957600080fd5b50508035926020909101359150565b634e487b7160e01b600052604160045260246000fd5b60006020828403121561190057600080fd5b81356001600160401b038082111561191757600080fd5b818401915084601f83011261192b57600080fd5b81358181111561193d5761193d6118d8565b604051601f8201601f19908116603f01168101908382118183101715611965576119656118d8565b8160405282815287602084870101111561197e57600080fd5b826020860160208301376000928101602001929092525095945050505050565b600080602083850312156119b157600080fd5b82356001600160401b03808211156119c857600080fd5b818501915085601f8301126119dc57600080fd5b8135818111156119eb57600080fd5b8660208260051b8501011115611a0057600080fd5b60209290920196919550909350505050565b60005b83811015611a2d578181015183820152602001611a15565b83811115611a3c576000848401525b50505050565b60008151808452611a5a816020860160208601611a12565b601f01601f19169290920160200192915050565b6000602080830181845280855180835260408601915060408160051b870101925083870160005b82811015611ac357603f19888603018452611ab1858351611a42565b94509285019290850190600101611a95565b5092979650505050505050565b6020815260006104bb6020830184611a42565b634e487b7160e01b600052601160045260246000fd5b60008219821115611b0c57611b0c611ae3565b500190565b634e487b7160e01b600052603260045260246000fd5b6000808335601e19843603018112611b3e57600080fd5b8301803591506001600160401b03821115611b5857600080fd5b602001915036819003821315611b6d57600080fd5b9250929050565b6000600019821415611b8857611b88611ae3565b5060010190565b6020808252601f908201527f4163636f756e74466163746f72793a206e6f7420616e206163636f756e742e00604082015260600190565b6020808252602a908201527f4163636f756e74466163746f72793a206163636f756e7420616c7265616479206040820152691c9959da5cdd195c995960b21b606082015260800190565b600181811c90821680611c2457607f821691505b60208210811415611c4557634e487b7160e01b600052602260045260246000fd5b50919050565b7402832b936b4b9b9b4b7b7399d1030b1b1b7bab73a1605d1b815260008351611c7b816015850160208801611a12565b7001034b99036b4b9b9b4b733903937b6329607d1b6015918401918201528351611cac816026840160208801611a12565b01602601949350505050565b604081526000611ccb6040830185611a42565b82810360208401526104b78185611a42565b6001600160a01b03841681526040602082018190528101829052818360608301376000818301606090810191909152601f909201601f1916010192915050565b6000816000190483118215151615611d3757611d37611ae3565b500290565b600081611d4b57611d4b611ae3565b506000190190565b60008251611d65818460208701611a12565b9190910192915050565b600082821015611d8157611d81611ae3565b500390565b634e487b7160e01b600052603160045260246000fdfe416464726573733a206c6f772d6c6576656c2064656c65676174652063616c6c206661696c6564a2646970667358221220004a010ca591c24df30e68fe919e17c196c1c433b31d6a406fb58e178baa3adb64736f6c634300080c00336101806040523480156200001257600080fd5b5060405162003ec438038062003ec4833981016040819052620000359162000261565b60408051808201825260078152661058d8dbdd5b9d60ca1b6020808301918252835180850190945260018452603160f81b908401528151902060e08190527fc89efdaa54c0f20c7adf612882df0950f5a951637e0307cdcb4c672f298b8bc66101008190524660a0529192917f8b73c3c69bb8fe3d512ecc4cf759cc79239f7b179b0ffacaa9a75d522b39400f620001128184846040805160208101859052908101839052606081018290524660808201523060a082015260009060c0016040516020818303038152906040528051906020012090509392505050565b6080523060c05261012052506200012d925050620001479050565b6001600160a01b03908116610140521661016052620002a0565b60006200015e6200022460201b62001a421760201c565b805490915060ff808216916101009004168015620001d25760405162461bcd60e51b815260206004820152602760248201527f496e697469616c697a61626c653a20636f6e747261637420697320696e697469604482015266616c697a696e6760c81b606482015260840160405180910390fd5b60ff82811610156200021f57825460ff191660ff90811784556040519081527f7f26b83ff96e1f2b6a682f133852f6798a09c465da95921460cefb38474024989060200160405180910390a15b505050565b7f627d6cbb4eb558f37de3c2ec08b04710e54e06be936a302f087f7bfb80f39ae090565b6001600160a01b03811681146200025e57600080fd5b50565b600080604083850312156200027557600080fd5b8251620002828162000248565b6020840151909250620002958162000248565b809150509250929050565b60805160a05160c05160e05161010051610120516101405161016051613b866200033e60003960008181610d42015281816114a401526114d101526000818161044b01528181611d9601528181611dc601528181611e3d01528181611f8101528181611fc40152612010015260006129380152600061298701526000612962015260006128bb015260006128e50152600061290f0152613b866000f3fe60806040526004361061014b5760003560e01c806301ffc9a714610157578063150b7a021461018c5780631626ba7e146101d05780631dd756c5146101f057806324d7806c146102105780633a871cdd1461023057806340053da61461025e57806347e1da2a146102805780634a58db19146102a05780634b0bddd2146102a85780634d44560d146102c857806373e925d6146102e85780637dff5a79146103275780638b52d72314610347578063938e3d7b14610369578063ac9650d814610389578063b0d691fe146103b6578063b61d27f6146103d8578063bc197c81146103f8578063c399ec8814610424578063c45a015514610439578063d087d2881461046d578063d1f5789414610482578063d42f2f35146104a2578063e8a3d485146104b7578063e9523c97146104d9578063f15d424e146104fb578063f23a6e611461052857600080fd5b3661015257005b600080fd5b34801561016357600080fd5b50610177610172366004612af1565b610554565b60405190151581526020015b60405180910390f35b34801561019857600080fd5b506101b76101a7366004612bed565b630a85bd0160e11b949350505050565b6040516001600160e01b03199091168152602001610183565b3480156101dc57600080fd5b506101b76101eb366004612c58565b61059a565b3480156101fc57600080fd5b5061017761020b366004612cb7565b6105d8565b34801561021c57600080fd5b5061017761022b366004612cfc565b61090f565b34801561023c57600080fd5b5061025061024b366004612d19565b61093f565b604051908152602001610183565b34801561026a57600080fd5b5061027e610279366004612da7565b610965565b005b34801561028c57600080fd5b5061027e61029b366004612e5c565b610d37565b61027e610eb8565b3480156102b457600080fd5b5061027e6102c3366004612f03565b610f20565b3480156102d457600080fd5b5061027e6102e3366004612f3c565b610f53565b3480156102f457600080fd5b50610308610303366004612da7565b610fe9565b6040805192151583526001600160a01b03909116602083015201610183565b34801561033357600080fd5b50610177610342366004612cfc565b61103b565b34801561035357600080fd5b5061035c6110ea565b604051610183919061300a565b34801561037557600080fd5b5061027e61038436600461306c565b611364565b34801561039557600080fd5b506103a96103a43660046130b4565b6113b5565b6040516101839190613151565b3480156103c257600080fd5b506103cb6114a2565b60405161018391906131a6565b3480156103e457600080fd5b5061027e6103f33660046131ba565b6114c6565b34801561040457600080fd5b506101b76104133660046132a3565b63bc197c8160e01b95945050505050565b34801561043057600080fd5b50610250611566565b34801561044557600080fd5b506103cb7f000000000000000000000000000000000000000000000000000000000000000081565b34801561047957600080fd5b506102506115e1565b34801561048e57600080fd5b5061027e61049d366004613350565b611620565b3480156104ae57600080fd5b5061035c611745565b3480156104c357600080fd5b506104cc6118c3565b6040516101839190613397565b3480156104e557600080fd5b506104ee611964565b60405161018391906133aa565b34801561050757600080fd5b5061051b610516366004612cfc565b611981565b60405161018391906133f7565b34801561053457600080fd5b506101b761054336600461340a565b63f23a6e6160e01b95945050505050565b60006001600160e01b03198216630271189760e51b148061058557506001600160e01b03198216630a85bd0160e11b145b80610594575061059482611a66565b92915050565b6000806105a78484611a9b565b90506105b28161090f565b806105c157506105c18161103b565b156105d157630b135d3f60e11b91505b5092915050565b6000806105e3611abf565b6001600160a01b038516600090815260048201602052604090205490915060ff1615610613576001915050610594565b6001600160a01b03841660009081526005820160209081526040918290208251606081018452815481526001909101546001600160801b03808216938301849052600160801b9091041692810192909252421080159061067f575080604001516001600160801b031642105b80156106ab57506001600160a01b038516600090815260068301602052604081206106a990611ae3565b115b6106fc5760405162461bcd60e51b815260206004820152601f60248201527f4163636f756e743a206e6f20616374697665207065726d697373696f6e732e0060448201526064015b60405180910390fd5b600061071361070e6060870187613472565b611aed565b90506001600160e01b03198116635b0e93fb60e11b14156107b5576000806107466107416060890189613472565b611b27565b91509150808460000151101561076e5760405162461bcd60e51b81526004016106f3906134b8565b6001600160a01b038816600090815260068601602052604090206107929083611b8c565b6107ae5760405162461bcd60e51b81526004016106f3906134ea565b5050610903565b6001600160e01b031981166323f0ed1560e11b14156108bc576000806107e66107e16060890189613472565b611bae565b509150915060005b82518110156108b45781818151811061080957610809613521565b6020026020010151856000015110156108345760405162461bcd60e51b81526004016106f3906134b8565b61088683828151811061084957610849613521565b60200260200101518760060160008c6001600160a01b03166001600160a01b03168152602001908152602001600020611b8c90919063ffffffff16565b6108a25760405162461bcd60e51b81526004016106f3906134ea565b806108ac8161354d565b9150506107ee565b505050610903565b60405162461bcd60e51b815260206004820152601c60248201527b20b1b1b7bab73a1d1031b0b63634b7339034b73b30b634b21033371760211b60448201526064016106f3565b50600195945050505050565b60008061091a611abf565b6001600160a01b03909316600090815260049093016020525050604090205460ff1690565b6000610949611bfb565b6109538484611c64565b905061095e82611d08565b9392505050565b60006109746020850185612cfc565b905061097f8161090f565b156109e35760405162461bcd60e51b815260206004820152602e60248201527f4163636f756e745065726d697373696f6e733a207369676e657220697320616c60448201526d3932b0b23c9030b71030b236b4b760911b60648201526084016106f3565b426109f460c0860160a08701613584565b6001600160801b031611158015610a225750610a1660e0850160c08601613584565b6001600160801b031642105b610a8a5760405162461bcd60e51b815260206004820152603360248201527f4163636f756e745065726d697373696f6e733a20696e76616c69642072657175604482015272195cdd081d985b1a591a5d1e481c195c9a5bd9606a1b60648201526084016106f3565b600080610a98868686610fe9565b9150915081610af75760405162461bcd60e51b815260206004820152602560248201527f4163636f756e745065726d697373696f6e733a20696e76616c6964207369676e604482015264617475726560d81b60648201526084016106f3565b6000610b01611abf565b9050610b106002820185611d55565b5060e08701356000908152600782016020908152604091829020805460ff19166001179055815160608082018452928a013581529190820190610b599060808b01908b01613584565b6001600160801b03168152602001610b7760a08a0160808b01613584565b6001600160801b039081169091526001600160a01b038616600090815260058401602090815260408083208551815585830151958201518516600160801b02959094169490941760019093019290925560068401909152908120610bda90611d6a565b805190915060005b81811015610c4f57610c3c838281518110610bff57610bff613521565b60200260200101518560060160008a6001600160a01b03166001600160a01b03168152602001908152602001600020611d7790919063ffffffff16565b50610c4860018261359f565b9050610be2565b506000610c5f60208b018b6135b7565b9050905060005b81811015610cd657610cc3610c7e60208d018d6135b7565b83818110610c8e57610c8e613521565b9050602002016020810190610ca39190612cfc565b6001600160a01b038a166000908152600688016020526040902090611d55565b50610ccf60018261359f565b9050610c66565b50610ce08a611d8c565b866001600160a01b0316856001600160a01b03167f09ac2cdf09c127af4eedd5aab0a6ca1224c4ae5586d5339657f7fa675d079b948c604051610d239190613691565b60405180910390a350505050505050505050565b336001600160a01b037f0000000000000000000000000000000000000000000000000000000000000000161480610d725750610d723361090f565b610d8e5760405162461bcd60e51b81526004016106f390613765565b610d96611e2e565b8481148015610da457508483145b610df05760405162461bcd60e51b815260206004820152601d60248201527f4163636f756e743a2077726f6e67206172726179206c656e677468732e00000060448201526064016106f3565b60005b85811015610eaf57610e9c878783818110610e1057610e10613521565b9050602002016020810190610e259190612cfc565b868684818110610e3757610e37613521565b90506020020135858585818110610e5057610e50613521565b9050602002810190610e629190613472565b8080601f016020809104026020016040519081016040528093929190818152602001838380828437600092019190915250611efc92505050565b5080610ea78161354d565b915050610df3565b50505050505050565b610ec06114a2565b6001600160a01b031663b760faf934306040518363ffffffff1660e01b8152600401610eec91906131a6565b6000604051808303818588803b158015610f0557600080fd5b505af1158015610f19573d6000803e3d6000fd5b5050505050565b610f293361090f565b610f455760405162461bcd60e51b81526004016106f3906137a6565b610f4f8282611f6d565b5050565b610f5c3361090f565b610f785760405162461bcd60e51b81526004016106f3906137a6565b610f806114a2565b60405163040b850f60e31b81526001600160a01b03848116600483015260248201849052919091169063205c2878906044015b600060405180830381600087803b158015610fcd57600080fd5b505af1158015610fe1573d6000803e3d6000fd5b505050505050565b6000806000610ff6611abf565b9050611003868686612045565b60e0870135600090815260078301602052604090205490925060ff1615801561103057506110308261090f565b925050935093915050565b600080611046611abf565b6001600160a01b03841660009081526005820160209081526040918290208251606081018452815481526001909101546001600160801b03808216938301849052600160801b90910416928101929092529192509042108015906110b6575080604001516001600160801b031642105b80156110e257506001600160a01b038416600090815260068301602052604081206110e090611ae3565b115b949350505050565b606060006110f6611abf565b9050600061110682600201611d6a565b8051909150600080826001600160401b0381111561112657611126612b30565b60405190808252806020026020018201604052801561114f578160200160208202803683370190505b50905060005b838110156111d457600085828151811061117157611171613521565b6020026020010151905060006111868261103b565b90508084848151811061119b5761119b613521565b9115156020928302919091019091015280156111bf57846111bb8161354d565b9550505b506111cd905060018261359f565b9050611155565b50816001600160401b038111156111ed576111ed612b30565b60405190808252806020026020018201604052801561122657816020015b611213612a0e565b81526020019060019003908161120b5790505b5095506000805b8481101561135a5782818151811061124757611247613521565b602002602001015161125857611348565b600086828151811061126c5761126c613521565b6020908102919091018101516001600160a01b038116600081815260058c01845260408082208151606081018352815481526001909101546001600160801b0380821683890152600160801b9091041681830152815160a08101835284815293835260068e0186529120929450929091908201906112e990611d6a565b81526020018260000151815260200182602001516001600160801b0316815260200182604001516001600160801b03168152508a85806113289061354d565b96508151811061133a5761133a613521565b602002602001018190525050505b61135360018261359f565b905061122d565b5050505050505090565b61136c6120a1565b6113a95760405162461bcd60e51b815260206004820152600e60248201526d139bdd08185d5d1a1bdc9a5e995960921b60448201526064016106f3565b6113b2816120ac565b50565b6060816001600160401b038111156113cf576113cf612b30565b60405190808252806020026020018201604052801561140257816020015b60608152602001906001900390816113ed5790505b50905060005b828110156105d1576114723085858481811061142657611426613521565b90506020028101906114389190613472565b8080601f01602080910402602001604051908101604052809392919081815260200183838082843760009201919091525061219c92505050565b82828151811061148457611484613521565b6020026020010181905250808061149a9061354d565b915050611408565b7f000000000000000000000000000000000000000000000000000000000000000090565b336001600160a01b037f000000000000000000000000000000000000000000000000000000000000000016148061150157506115013361090f565b61151d5760405162461bcd60e51b81526004016106f390613765565b611525611e2e565b610f19848484848080601f016020809104026020016040519081016040528093929190818152602001838380828437600092019190915250611efc92505050565b60006115706114a2565b6001600160a01b03166370a08231306040518263ffffffff1660e01b815260040161159b91906131a6565b602060405180830381865afa1580156115b8573d6000803e3d6000fd5b505050506040513d601f19601f820116820180604052508101906115dc91906137f0565b905090565b60006115eb6114a2565b604051631aab3f0d60e11b8152306004820152600060248201526001600160a01b0391909116906335567e1a9060440161159b565b600061162a611a42565b805490915060ff80821691610100900416801580801561164d575060018360ff16105b8061166c575061165c306121c1565b15801561166c57508260ff166001145b6116cf5760405162461bcd60e51b815260206004820152602e60248201527f496e697469616c697a61626c653a20636f6e747261637420697320616c72656160448201526d191e481a5b9a5d1a585b1a5e995960921b60648201526084016106f3565b835460ff1916600117845580156116ee57835461ff0019166101001784555b6116f9876001611f6d565b8015610eaf57835461ff0019168455604051600181527f7f26b83ff96e1f2b6a682f133852f6798a09c465da95921460cefb38474024989060200160405180910390a150505050505050565b60606000611751611abf565b9050600061176182600201611d6a565b8051909150806001600160401b0381111561177e5761177e612b30565b6040519080825280602002602001820160405280156117b757816020015b6117a4612a0e565b81526020019060019003908161179c5790505b50935060005b818110156118bc5760008382815181106117d9576117d9613521565b6020908102919091018101516001600160a01b038116600081815260058901845260408082208151606081018352815481526001909101546001600160801b0380821683890152600160801b9091041681830152815160a08101835284815293835260068b01865291209294509290919082019061185690611d6a565b81526020018260000151815260200182602001516001600160801b0316815260200182604001516001600160801b031681525087848151811061189b5761189b613521565b602002602001018190525050506001816118b5919061359f565b90506117bd565b5050505090565b606060006118cf6121d0565b90508060000180546118e090613809565b80601f016020809104026020016040519081016040528092919081815260200182805461190c90613809565b80156119595780601f1061192e57610100808354040283529160200191611959565b820191906000526020600020905b81548152906001019060200180831161193c57829003601f168201915b505050505091505090565b60606000611970611abf565b905061197b81611d6a565b91505090565b611989612a0e565b6000611993611abf565b6001600160a01b038416600081815260058301602090815260408083208151606081018352815481526001909101546001600160801b0380821683860152600160801b9091041681830152815160a0810183528581529484526006860183529220939450909290820190611a0690611d6a565b81526020018260000151815260200182602001516001600160801b0316815260200182604001516001600160801b031681525092505050919050565b7f627d6cbb4eb558f37de3c2ec08b04710e54e06be936a302f087f7bfb80f39ae090565b60006001600160e01b03198216630271189760e51b148061059457506301ffc9a760e01b6001600160e01b0319831614610594565b6000806000611aaa85856121f4565b91509150611ab78161223a565b509392505050565b7ff2776159535489b2c8217c06dac58993e45cb245272f968642d4d3ef6aa7615090565b6000610594825490565b60006004821015611b105760405162461bcd60e51b81526004016106f39061383e565b611b1e600460008486613866565b61095e91613890565b6000806044831015611b4b5760405162461bcd60e51b81526004016106f39061383e565b611b59602460048587613866565b810190611b669190612cfc565b9150611b76604460248587613866565b810190611b8391906138c0565b90509250929050565b6001600160a01b0381166000908152600183016020526040812054151561095e565b606080806064841015611bd35760405162461bcd60e51b81526004016106f39061383e565b611be08460048188613866565b810190611bed9190613958565b919790965090945092505050565b611c036114a2565b6001600160a01b0316336001600160a01b031614611c625760405162461bcd60e51b815260206004820152601c60248201527b1858d8dbdd5b9d0e881b9bdd08199c9bdb48115b9d1c9e541bda5b9d60221b60448201526064016106f3565b565b7b0ca2ba3432b932bab69029b4b3b732b21026b2b9b9b0b3b29d05199960211b6000908152601c829052603c81206000611ce2611ca5610140870187613472565b8080601f0160208091040260200160405190810160405280939291908181526020018383808284376000920191909152508693925050611a9b9050565b9050611cee81866105d8565b611cfd57600192505050610594565b506000949350505050565b80156113b257604051600090339060001990849084818181858888f193505050503d8060008114610f19576040519150601f19603f3d011682016040523d82523d6000602084013e610f19565b600061095e836001600160a01b038416612383565b6060600061095e836123d2565b600061095e836001600160a01b03841661242e565b6001600160a01b037f0000000000000000000000000000000000000000000000000000000000000000163b156113b2576001600160a01b037f00000000000000000000000000000000000000000000000000000000000000001663ed9e4b7d611df86020840184612cfc565b6040518263ffffffff1660e01b8152600401611e1491906131a6565b600060405180830381600087803b158015610f0557600080fd5b60405163c3c5a54760e01b81527f0000000000000000000000000000000000000000000000000000000000000000906001600160a01b0382169063c3c5a54790611e7c9030906004016131a6565b602060405180830381865afa158015611e99573d6000803e3d6000fd5b505050506040513d601f19601f82011682018060405250810190611ebd9190613a3d565b6113b257806001600160a01b031663c7b90cc36040518163ffffffff1660e01b8152600401600060405180830381600087803b158015610f0557600080fd5b60606000846001600160a01b03168484604051611f199190613a5a565b60006040518083038185875af1925050503d8060008114611f56576040519150601f19603f3d011682016040523d82523d6000602084013e611f5b565b606091505b509250905080611ab757815160208301fd5b611f778282612521565b6001600160a01b037f0000000000000000000000000000000000000000000000000000000000000000163b15610f4f578015611ff95760405163ed9e4b7d60e01b81526001600160a01b037f0000000000000000000000000000000000000000000000000000000000000000169063ed9e4b7d90610fb39085906004016131a6565b60405163776c4eb960e11b81526001600160a01b037f0000000000000000000000000000000000000000000000000000000000000000169063eed89d7290610fb39085906004016131a6565b60006110e283838080601f01602080910402602001604051908101604052809392919081815260200183838082843760009201919091525061209b925061208f91508890506125c3565b805190602001206126ec565b90611a9b565b60006115dc3361090f565b60006120b66121d0565b905060008160000180546120c990613809565b80601f01602080910402602001604051908101604052809291908181526020018280546120f590613809565b80156121425780601f1061211757610100808354040283529160200191612142565b820191906000526020600020905b81548152906001019060200180831161212557829003601f168201915b5050865193945061215d938693506020880192509050612a58565b507fc9c7c3fe08b88b4df9d4d47ef47d2c43d55c025a0ba88ca442580ed9e7348a16818460405161218f929190613a76565b60405180910390a1505050565b606061095e8383604051806060016040528060278152602001613b2a60279139612719565b6001600160a01b03163b151590565b7fa7d40346e44ca145e94a946aa34a7d4a67245577dc18699a626fe0ffc6ce328190565b60008082516041141561222b5760208301516040840151606085015160001a61221f878285856127f4565b94509450505050612233565b506000905060025b9250929050565b600081600481111561224e5761224e613aa4565b14156122575750565b600181600481111561226b5761226b613aa4565b14156122b45760405162461bcd60e51b815260206004820152601860248201527745434453413a20696e76616c6964207369676e617475726560401b60448201526064016106f3565b60028160048111156122c8576122c8613aa4565b14156123165760405162461bcd60e51b815260206004820152601f60248201527f45434453413a20696e76616c6964207369676e6174757265206c656e6774680060448201526064016106f3565b600381600481111561232a5761232a613aa4565b14156113b25760405162461bcd60e51b815260206004820152602260248201527f45434453413a20696e76616c6964207369676e6174757265202773272076616c604482015261756560f01b60648201526084016106f3565b60008181526001830160205260408120546123ca57508154600181810184556000848152602080822090930184905584548482528286019093526040902091909155610594565b506000610594565b60608160000180548060200260200160405190810160405280929190818152602001828054801561242257602002820191906000526020600020905b81548152602001906001019080831161240e575b50505050509050919050565b60008181526001830160205260408120548015612517576000612452600183613aba565b855490915060009061246690600190613aba565b90508181146124cb57600086600001828154811061248657612486613521565b90600052602060002001549050808760000184815481106124a9576124a9613521565b6000918252602080832090910192909255918252600188019052604090208390555b85548690806124dc576124dc613ad1565b600190038181906000526020600020016000905590558560010160008681526020019081526020016000206000905560019350505050610594565b6000915050610594565b600061252b611abf565b6001600160a01b03841660009081526004820160205260409020805460ff1916841580159190911790915590915061256d576125678184611d55565b50612579565b6125778184611d77565b505b826001600160a01b03167f235bc17e7930760029e9f4d860a2a8089976de5b381cf8380fc11c1d88a11133836040516125b6911515815260200190565b60405180910390a2505050565b60607f1652558f82172f3162b9e179c9f4ce0654bac7c4802d6326a2868cc56afae2026125f36020840184612cfc565b61260060208501856135b7565b604051602001612611929190613ae7565b60405160208183030381529060405280519060200120846040013585606001602081019061263f9190613584565b61264f60a0880160808901613584565b61265f60c0890160a08a01613584565b61266f60e08a0160c08b01613584565b6040805160208101999099526001600160a01b0390971696880196909652606087019490945260808601929092526001600160801b0390811660a086015290811660c085015290811660e0848101919091529116610100830152830135610120820152610140016040516020818303038152906040529050919050565b60006105946126f96128ae565b8360405161190160f01b8152600281019290925260228201526042902090565b6060612724846121c1565b61277f5760405162461bcd60e51b815260206004820152602660248201527f416464726573733a2064656c65676174652063616c6c20746f206e6f6e2d636f6044820152651b9d1c9858dd60d21b60648201526084016106f3565b600080856001600160a01b03168560405161279a9190613a5a565b600060405180830381855af49150503d80600081146127d5576040519150601f19603f3d011682016040523d82523d6000602084013e6127da565b606091505b50915091506127ea8282866129d5565b9695505050505050565b6000806fa2a8918ca85bafe22016d0b997e4df60600160ff1b0383111561282157506000905060036128a5565b6040805160008082526020820180845289905260ff881692820192909252606081018690526080810185905260019060a0016020604051602081039080840390855afa158015612875573d6000803e3d6000fd5b5050604051601f1901519150506001600160a01b03811661289e576000600192509250506128a5565b9150600090505b94509492505050565b6000306001600160a01b037f00000000000000000000000000000000000000000000000000000000000000001614801561290757507f000000000000000000000000000000000000000000000000000000000000000046145b1561293157507f000000000000000000000000000000000000000000000000000000000000000090565b50604080517f00000000000000000000000000000000000000000000000000000000000000006020808301919091527f0000000000000000000000000000000000000000000000000000000000000000828401527f000000000000000000000000000000000000000000000000000000000000000060608301524660808301523060a0808401919091528351808403909101815260c0909201909252805191012090565b606083156129e457508161095e565b8251156129f45782518084602001fd5b8160405162461bcd60e51b81526004016106f39190613397565b6040518060a0016040528060006001600160a01b03168152602001606081526020016000815260200160006001600160801b0316815260200160006001600160801b031681525090565b828054612a6490613809565b90600052602060002090601f016020900481019282612a865760008555612acc565b82601f10612a9f57805160ff1916838001178555612acc565b82800160010185558215612acc579182015b82811115612acc578251825591602001919060010190612ab1565b50612ad8929150612adc565b5090565b5b80821115612ad85760008155600101612add565b600060208284031215612b0357600080fd5b81356001600160e01b03198116811461095e57600080fd5b6001600160a01b03811681146113b257600080fd5b634e487b7160e01b600052604160045260246000fd5b604051601f8201601f191681016001600160401b0381118282101715612b6e57612b6e612b30565b604052919050565b60006001600160401b03831115612b8f57612b8f612b30565b612ba2601f8401601f1916602001612b46565b9050828152838383011115612bb657600080fd5b828260208301376000602084830101529392505050565b600082601f830112612bde57600080fd5b61095e83833560208501612b76565b60008060008060808587031215612c0357600080fd5b8435612c0e81612b1b565b93506020850135612c1e81612b1b565b92506040850135915060608501356001600160401b03811115612c4057600080fd5b612c4c87828801612bcd565b91505092959194509250565b60008060408385031215612c6b57600080fd5b8235915060208301356001600160401b03811115612c8857600080fd5b612c9485828601612bcd565b9150509250929050565b60006101608284031215612cb157600080fd5b50919050565b60008060408385031215612cca57600080fd5b8235612cd581612b1b565b915060208301356001600160401b03811115612cf057600080fd5b612c9485828601612c9e565b600060208284031215612d0e57600080fd5b813561095e81612b1b565b600080600060608486031215612d2e57600080fd5b83356001600160401b03811115612d4457600080fd5b612d5086828701612c9e565b9660208601359650604090950135949350505050565b60008083601f840112612d7857600080fd5b5081356001600160401b03811115612d8f57600080fd5b60208301915083602082850101111561223357600080fd5b600080600060408486031215612dbc57600080fd5b83356001600160401b0380821115612dd357600080fd5b908501906101008288031215612de857600080fd5b90935060208501359080821115612dfe57600080fd5b50612e0b86828701612d66565b9497909650939450505050565b60008083601f840112612e2a57600080fd5b5081356001600160401b03811115612e4157600080fd5b6020830191508360208260051b850101111561223357600080fd5b60008060008060008060608789031215612e7557600080fd5b86356001600160401b0380821115612e8c57600080fd5b612e988a838b01612e18565b90985096506020890135915080821115612eb157600080fd5b612ebd8a838b01612e18565b90965094506040890135915080821115612ed657600080fd5b50612ee389828a01612e18565b979a9699509497509295939492505050565b80151581146113b257600080fd5b60008060408385031215612f1657600080fd5b8235612f2181612b1b565b91506020830135612f3181612ef5565b809150509250929050565b60008060408385031215612f4f57600080fd5b8235612f5a81612b1b565b946020939093013593505050565b6001600160801b03169052565b80516001600160a01b03908116835260208083015160a082860181905281519086018190526000939183019290849060c08801905b80831015612fcc57855185168252948301946001929092019190830190612faa565b506040870151604089015260608701519450612feb6060890186612f68565b60808701519450612fff6080890186612f68565b979650505050505050565b6000602080830181845280855180835260408601915060408160051b870101925083870160005b8281101561305f57603f1988860301845261304d858351612f75565b94509285019290850190600101613031565b5092979650505050505050565b60006020828403121561307e57600080fd5b81356001600160401b0381111561309457600080fd5b8201601f810184136130a557600080fd5b6110e284823560208401612b76565b600080602083850312156130c757600080fd5b82356001600160401b038111156130dd57600080fd5b6130e985828601612e18565b90969095509350505050565b60005b838110156131105781810151838201526020016130f8565b8381111561311f576000848401525b50505050565b6000815180845261313d8160208601602086016130f5565b601f01601f19169290920160200192915050565b6000602080830181845280855180835260408601915060408160051b870101925083870160005b8281101561305f57603f19888603018452613194858351613125565b94509285019290850190600101613178565b6001600160a01b0391909116815260200190565b600080600080606085870312156131d057600080fd5b84356131db81612b1b565b93506020850135925060408501356001600160401b038111156131fd57600080fd5b61320987828801612d66565b95989497509550505050565b60006001600160401b0382111561322e5761322e612b30565b5060051b60200190565b600082601f83011261324957600080fd5b8135602061325e61325983613215565b612b46565b82815260059290921b8401810191818101908684111561327d57600080fd5b8286015b848110156132985780358352918301918301613281565b509695505050505050565b600080600080600060a086880312156132bb57600080fd5b85356132c681612b1b565b945060208601356132d681612b1b565b935060408601356001600160401b03808211156132f257600080fd5b6132fe89838a01613238565b9450606088013591508082111561331457600080fd5b61332089838a01613238565b9350608088013591508082111561333657600080fd5b5061334388828901612bcd565b9150509295509295909350565b60008060006040848603121561336557600080fd5b833561337081612b1b565b925060208401356001600160401b0381111561338b57600080fd5b612e0b86828701612d66565b60208152600061095e6020830184613125565b6020808252825182820181905260009190848201906040850190845b818110156133eb5783516001600160a01b0316835292840192918401916001016133c6565b50909695505050505050565b60208152600061095e6020830184612f75565b600080600080600060a0868803121561342257600080fd5b853561342d81612b1b565b9450602086013561343d81612b1b565b9350604086013592506060860135915060808601356001600160401b0381111561346657600080fd5b61334388828901612bcd565b6000808335601e1984360301811261348957600080fd5b8301803591506001600160401b038211156134a357600080fd5b60200191503681900382131561223357600080fd5b60208082526018908201527720b1b1b7bab73a1d103b30b63ab2903a37b7903434b3b41760411b604082015260600190565b6020808252601d908201527f4163636f756e743a20746172676574206e6f7420617070726f7665642e000000604082015260600190565b634e487b7160e01b600052603260045260246000fd5b634e487b7160e01b600052601160045260246000fd5b600060001982141561356157613561613537565b5060010190565b80356001600160801b038116811461357f57600080fd5b919050565b60006020828403121561359657600080fd5b61095e82613568565b600082198211156135b2576135b2613537565b500190565b6000808335601e198436030181126135ce57600080fd5b8301803591506001600160401b038211156135e857600080fd5b6020019150600581901b360382131561223357600080fd5b6000808335601e1984360301811261361757600080fd5b83016020810192503590506001600160401b0381111561363657600080fd5b8060051b360383131561223357600080fd5b8183526000602080850194508260005b8581101561368657813561366b81612b1b565b6001600160a01b031687529582019590820190600101613658565b509495945050505050565b60208152600082356136a281612b1b565b6001600160a01b03166020838101919091526136c090840184613600565b6101008060408601526136d861012086018385613648565b9250604086013560608601526136f060608701613568565b91506136ff6080860183612f68565b61370b60808701613568565b915061371a60a0860183612f68565b61372660a08701613568565b915061373560c0860183612f68565b61374160c08701613568565b915061375060e0860183612f68565b60e08601358186015250508091505092915050565b60208082526021908201527f4163636f756e743a206e6f742061646d696e206f7220456e747279506f696e746040820152601760f91b606082015260800190565b6020808252602a908201527f4163636f756e745065726d697373696f6e733a2063616c6c6572206973206e6f6040820152693a1030b71030b236b4b760b11b606082015260800190565b60006020828403121561380257600080fd5b5051919050565b600181811c9082168061381d57607f821691505b60208210811415612cb157634e487b7160e01b600052602260045260246000fd5b6020808252600e908201526d11185d18481d1bdbc81cda1bdc9d60921b604082015260600190565b6000808585111561387657600080fd5b8386111561388357600080fd5b5050820193919092039150565b6001600160e01b031981358181169160048510156138b85780818660040360031b1b83161692505b505092915050565b6000602082840312156138d257600080fd5b5035919050565b600082601f8301126138ea57600080fd5b813560206138fa61325983613215565b82815260059290921b8401810191818101908684111561391957600080fd5b8286015b848110156132985780356001600160401b0381111561393c5760008081fd5b61394a8986838b0101612bcd565b84525091830191830161391d565b60008060006060848603121561396d57600080fd5b83356001600160401b038082111561398457600080fd5b818601915086601f83011261399857600080fd5b813560206139a861325983613215565b82815260059290921b8401810191818101908a8411156139c757600080fd5b948201945b838610156139ee5785356139df81612b1b565b825294820194908201906139cc565b97505087013592505080821115613a0457600080fd5b613a1087838801613238565b93506040860135915080821115613a2657600080fd5b50613a33868287016138d9565b9150509250925092565b600060208284031215613a4f57600080fd5b815161095e81612ef5565b60008251613a6c8184602087016130f5565b9190910192915050565b604081526000613a896040830185613125565b8281036020840152613a9b8185613125565b95945050505050565b634e487b7160e01b600052602160045260246000fd5b600082821015613acc57613acc613537565b500390565b634e487b7160e01b600052603160045260246000fd5b60008184825b85811015613b1e578135613b0081612b1b565b6001600160a01b031683526020928301929190910190600101613aed565b50909594505050505056fe416464726573733a206c6f772d6c6576656c2064656c65676174652063616c6c206661696c6564a264697066735822122029fde4f9f0a821089a66e7727d59c130bb18e3d7e2d757420c9a5cbae6b4b51c64736f6c634300080c0033",
    "linkReferences": {}
  },
  "methodIdentifiers": {
    "DEFAULT_ADMIN_ROLE()": "a217fddf",
    "accountImplementation()": "11464fbe",
    "contractURI()": "e8a3d485",
    "createAccount(address,bytes)": "d8fd8f44",
    "entrypoint()": "a65d69d4",
    "getAccountsOfSigner(address)": "0e6254fd",
    "getAddress(address,bytes)": "8878ed33",
    "getAllAccounts()": "08e93d0a",
    "getRoleAdmin(bytes32)": "248a9ca3",
    "getRoleMember(bytes32,uint256)": "9010d07c",
    "getRoleMemberCount(bytes32)": "ca15c873",
    "grantRole(bytes32,address)": "2f2ff15d",
    "hasRole(bytes32,address)": "91d14854",
    "hasRoleWithSwitch(bytes32,address)": "a32fa5b3",
    "isRegistered(address)": "c3c5a547",
    "multicall(bytes[])": "ac9650d8",
    "onRegister()": "c7b90cc3",
    "onSignerAdded(address)": "ed9e4b7d",
    "onSignerRemoved(address)": "eed89d72",
    "renounceRole(bytes32,address)": "36568abe",
    "revokeRole(bytes32,address)": "d547741f",
    "setContractURI(string)": "938e3d7b"
  },
  "id": 343
}