{
  "abi": [
    {
      "inputs": [
        {
          "internalType": "uint256",
          "name": "preOpGas",
          "type": "uint256"
        },
        {
          "internalType": "uint256",
          "name": "paid",
          "type": "uint256"
        },
        {
          "internalType": "uint48",
          "name": "validAfter",
          "type": "uint48"
        },
        {
          "internalType": "uint48",
          "name": "validUntil",
          "type": "uint48"
        },
        {
          "internalType": "bool",
          "name": "targetSuccess",
          "type": "bool"
        },
        {
          "internalType": "bytes",
          "name": "targetResult",
          "type": "bytes"
        }
      ],
      "name": "ExecutionResult",
      "type": "error"
    },
    {
      "inputs": [
        {
          "internalType": "uint256",
          "name": "opIndex",
          "type": "uint256"
        },
        {
          "internalType": "string",
          "name": "reason",
          "type": "string"
        }
      ],
      "name": "FailedOp",
      "type": "error"
    },
    {
      "inputs": [
        {
          "internalType": "address",
          "name": "sender",
          "type": "address"
        }
      ],
      "name": "SenderAddressResult",
      "type": "error"
    },
    {
      "inputs": [
        {
          "internalType": "address",
          "name": "aggregator",
          "type": "address"
        }
      ],
      "name": "SignatureValidationFailed",
      "type": "error"
    },
    {
      "inputs": [
        {
          "components": [
            {
              "internalType": "uint256",
              "name": "preOpGas",
              "type": "uint256"
            },
            {
              "internalType": "uint256",
              "name": "prefund",
              "type": "uint256"
            },
            {
              "internalType": "bool",
              "name": "sigFailed",
              "type": "bool"
            },
            {
              "internalType": "uint48",
              "name": "validAfter",
              "type": "uint48"
            },
            {
              "internalType": "uint48",
              "name": "validUntil",
              "type": "uint48"
            },
            {
              "internalType": "bytes",
              "name": "paymasterContext",
              "type": "bytes"
            }
          ],
          "internalType": "struct IEntryPoint.ReturnInfo",
          "name": "returnInfo",
          "type": "tuple"
        },
        {
          "components": [
            {
              "internalType": "uint256",
              "name": "stake",
              "type": "uint256"
            },
            {
              "internalType": "uint256",
              "name": "unstakeDelaySec",
              "type": "uint256"
            }
          ],
          "internalType": "struct IStakeManager.StakeInfo",
          "name": "senderInfo",
          "type": "tuple"
        },
        {
          "components": [
            {
              "internalType": "uint256",
              "name": "stake",
              "type": "uint256"
            },
            {
              "internalType": "uint256",
              "name": "unstakeDelaySec",
              "type": "uint256"
            }
          ],
          "internalType": "struct IStakeManager.StakeInfo",
          "name": "factoryInfo",
          "type": "tuple"
        },
        {
          "components": [
            {
              "internalType": "uint256",
              "name": "stake",
              "type": "uint256"
            },
            {
              "internalType": "uint256",
              "name": "unstakeDelaySec",
              "type": "uint256"
            }
          ],
          "internalType": "struct IStakeManager.StakeInfo",
          "name": "paymasterInfo",
          "type": "tuple"
        }
      ],
      "name": "ValidationResult",
      "type": "error"
    },
    {
      "inputs": [
        {
          "components": [
            {
              "internalType": "uint256",
              "name": "preOpGas",
              "type": "uint256"
            },
            {
              "internalType": "uint256",
              "name": "prefund",
              "type": "uint256"
            },
            {
              "internalType": "bool",
              "name": "sigFailed",
              "type": "bool"
            },
            {
              "internalType": "uint48",
              "name": "validAfter",
              "type": "uint48"
            },
            {
              "internalType": "uint48",
              "name": "validUntil",
              "type": "uint48"
            },
            {
              "internalType": "bytes",
              "name": "paymasterContext",
              "type": "bytes"
            }
          ],
          "internalType": "struct IEntryPoint.ReturnInfo",
          "name": "returnInfo",
          "type": "tuple"
        },
        {
          "components": [
            {
              "internalType": "uint256",
              "name": "stake",
              "type": "uint256"
            },
            {
              "internalType": "uint256",
              "name": "unstakeDelaySec",
              "type": "uint256"
            }
          ],
          "internalType": "struct IStakeManager.StakeInfo",
          "name": "senderInfo",
          "type": "tuple"
        },
        {
          "components": [
            {
              "internalType": "uint256",
              "name": "stake",
              "type": "uint256"
            },
            {
              "internalType": "uint256",
              "name": "unstakeDelaySec",
              "type": "uint256"
            }
          ],
          "internalType": "struct IStakeManager.StakeInfo",
          "name": "factoryInfo",
          "type": "tuple"
        },
        {
          "components": [
            {
              "internalType": "uint256",
              "name": "stake",
              "type": "uint256"
            },
            {
              "internalType": "uint256",
              "name": "unstakeDelaySec",
              "type": "uint256"
            }
          ],
          "internalType": "struct IStakeManager.StakeInfo",
          "name": "paymasterInfo",
          "type": "tuple"
        },
        {
          "components": [
            {
              "internalType": "address",
              "name": "aggregator",
              "type": "address"
            },
            {
              "components": [
                {
                  "internalType": "uint256",
                  "name": "stake",
                  "type": "uint256"
                },
                {
                  "internalType": "uint256",
                  "name": "unstakeDelaySec",
                  "type": "uint256"
                }
              ],
              "internalType": "struct IStakeManager.StakeInfo",
              "name": "stakeInfo",
              "type": "tuple"
            }
          ],
          "internalType": "struct IEntryPoint.AggregatorStakeInfo",
          "name": "aggregatorInfo",
          "type": "tuple"
        }
      ],
      "name": "ValidationResultWithAggregation",
      "type": "error"
    },
    {
      "anonymous": false,
      "inputs": [
        {
          "indexed": true,
          "internalType": "bytes32",
          "name": "userOpHash",
          "type": "bytes32"
        },
        {
          "indexed": true,
          "internalType": "address",
          "name": "sender",
          "type": "address"
        },
        {
          "indexed": false,
          "internalType": "address",
          "name": "factory",
          "type": "address"
        },
        {
          "indexed": false,
          "internalType": "address",
          "name": "paymaster",
          "type": "address"
        }
      ],
      "name": "AccountDeployed",
      "type": "event"
    },
    {
      "anonymous": false,
      "inputs": [],
      "name": "BeforeExecution",
      "type": "event"
    },
    {
      "anonymous": false,
      "inputs": [
        {
          "indexed": true,
          "internalType": "address",
          "name": "account",
          "type": "address"
        },
        {
          "indexed": false,
          "internalType": "uint256",
          "name": "totalDeposit",
          "type": "uint256"
        }
      ],
      "name": "Deposited",
      "type": "event"
    },
    {
      "anonymous": false,
      "inputs": [
        {
          "indexed": true,
          "internalType": "address",
          "name": "aggregator",
          "type": "address"
        }
      ],
      "name": "SignatureAggregatorChanged",
      "type": "event"
    },
    {
      "anonymous": false,
      "inputs": [
        {
          "indexed": true,
          "internalType": "address",
          "name": "account",
          "type": "address"
        },
        {
          "indexed": false,
          "internalType": "uint256",
          "name": "totalStaked",
          "type": "uint256"
        },
        {
          "indexed": false,
          "internalType": "uint256",
          "name": "unstakeDelaySec",
          "type": "uint256"
        }
      ],
      "name": "StakeLocked",
      "type": "event"
    },
    {
      "anonymous": false,
      "inputs": [
        {
          "indexed": true,
          "internalType": "address",
          "name": "account",
          "type": "address"
        },
        {
          "indexed": false,
          "internalType": "uint256",
          "name": "withdrawTime",
          "type": "uint256"
        }
      ],
      "name": "StakeUnlocked",
      "type": "event"
    },
    {
      "anonymous": false,
      "inputs": [
        {
          "indexed": true,
          "internalType": "address",
          "name": "account",
          "type": "address"
        },
        {
          "indexed": false,
          "internalType": "address",
          "name": "withdrawAddress",
          "type": "address"
        },
        {
          "indexed": false,
          "internalType": "uint256",
          "name": "amount",
          "type": "uint256"
        }
      ],
      "name": "StakeWithdrawn",
      "type": "event"
    },
    {
      "anonymous": false,
      "inputs": [
        {
          "indexed": true,
          "internalType": "bytes32",
          "name": "userOpHash",
          "type": "bytes32"
        },
        {
          "indexed": true,
          "internalType": "address",
          "name": "sender",
          "type": "address"
        },
        {
          "indexed": true,
          "internalType": "address",
          "name": "paymaster",
          "type": "address"
        },
        {
          "indexed": false,
          "internalType": "uint256",
          "name": "nonce",
          "type": "uint256"
        },
        {
          "indexed": false,
          "internalType": "bool",
          "name": "success",
          "type": "bool"
        },
        {
          "indexed": false,
          "internalType": "uint256",
          "name": "actualGasCost",
          "type": "uint256"
        },
        {
          "indexed": false,
          "internalType": "uint256",
          "name": "actualGasUsed",
          "type": "uint256"
        }
      ],
      "name": "UserOperationEvent",
      "type": "event"
    },
    {
      "anonymous": false,
      "inputs": [
        {
          "indexed": true,
          "internalType": "bytes32",
          "name": "userOpHash",
          "type": "bytes32"
        },
        {
          "indexed": true,
          "internalType": "address",
          "name": "sender",
          "type": "address"
        },
        {
          "indexed": false,
          "internalType": "uint256",
          "name": "nonce",
          "type": "uint256"
        },
        {
          "indexed": false,
          "internalType": "bytes",
          "name": "revertReason",
          "type": "bytes"
        }
      ],
      "name": "UserOperationRevertReason",
      "type": "event"
    },
    {
      "anonymous": false,
      "inputs": [
        {
          "indexed": true,
          "internalType": "address",
          "name": "account",
          "type": "address"
        },
        {
          "indexed": false,
          "internalType": "address",
          "name": "withdrawAddress",
          "type": "address"
        },
        {
          "indexed": false,
          "internalType": "uint256",
          "name": "amount",
          "type": "uint256"
        }
      ],
      "name": "Withdrawn",
      "type": "event"
    },
    {
      "inputs": [],
      "name": "SIG_VALIDATION_FAILED",
      "outputs": [
        {
          "internalType": "uint256",
          "name": "",
          "type": "uint256"
        }
      ],
      "stateMutability": "view",
      "type": "function"
    },
    {
      "inputs": [
        {
          "internalType": "bytes",
          "name": "initCode",
          "type": "bytes"
        },
        {
          "internalType": "address",
          "name": "sender",
          "type": "address"
        },
        {
          "internalType": "bytes",
          "name": "paymasterAndData",
          "type": "bytes"
        }
      ],
      "name": "_validateSenderAndPaymaster",
      "outputs": [],
      "stateMutability": "view",
      "type": "function"
    },
    {
      "inputs": [
        {
          "internalType": "uint32",
          "name": "unstakeDelaySec",
          "type": "uint32"
        }
      ],
      "name": "addStake",
      "outputs": [],
      "stateMutability": "payable",
      "type": "function"
    },
    {
      "inputs": [
        {
          "internalType": "address",
          "name": "account",
          "type": "address"
        }
      ],
      "name": "balanceOf",
      "outputs": [
        {
          "internalType": "uint256",
          "name": "",
          "type": "uint256"
        }
      ],
      "stateMutability": "view",
      "type": "function"
    },
    {
      "inputs": [
        {
          "internalType": "address",
          "name": "account",
          "type": "address"
        }
      ],
      "name": "depositTo",
      "outputs": [],
      "stateMutability": "payable",
      "type": "function"
    },
    {
      "inputs": [
        {
          "internalType": "address",
          "name": "",
          "type": "address"
        }
      ],
      "name": "deposits",
      "outputs": [
        {
          "internalType": "uint112",
          "name": "deposit",
          "type": "uint112"
        },
        {
          "internalType": "bool",
          "name": "staked",
          "type": "bool"
        },
        {
          "internalType": "uint112",
          "name": "stake",
          "type": "uint112"
        },
        {
          "internalType": "uint32",
          "name": "unstakeDelaySec",
          "type": "uint32"
        },
        {
          "internalType": "uint48",
          "name": "withdrawTime",
          "type": "uint48"
        }
      ],
      "stateMutability": "view",
      "type": "function"
    },
    {
      "inputs": [
        {
          "internalType": "address",
          "name": "account",
          "type": "address"
        }
      ],
      "name": "getDepositInfo",
      "outputs": [
        {
          "components": [
            {
              "internalType": "uint112",
              "name": "deposit",
              "type": "uint112"
            },
            {
              "internalType": "bool",
              "name": "staked",
              "type": "bool"
            },
            {
              "internalType": "uint112",
              "name": "stake",
              "type": "uint112"
            },
            {
              "internalType": "uint32",
              "name": "unstakeDelaySec",
              "type": "uint32"
            },
            {
              "internalType": "uint48",
              "name": "withdrawTime",
              "type": "uint48"
            }
          ],
          "internalType": "struct IStakeManager.DepositInfo",
          "name": "info",
          "type": "tuple"
        }
      ],
      "stateMutability": "view",
      "type": "function"
    },
    {
      "inputs": [
        {
          "internalType": "address",
          "name": "sender",
          "type": "address"
        },
        {
          "internalType": "uint192",
          "name": "key",
          "type": "uint192"
        }
      ],
      "name": "getNonce",
      "outputs": [
        {
          "internalType": "uint256",
          "name": "nonce",
          "type": "uint256"
        }
      ],
      "stateMutability": "view",
      "type": "function"
    },
    {
      "inputs": [
        {
          "internalType": "bytes",
          "name": "initCode",
          "type": "bytes"
        }
      ],
      "name": "getSenderAddress",
      "outputs": [],
      "stateMutability": "nonpayable",
      "type": "function"
    },
    {
      "inputs": [
        {
          "components": [
            {
              "internalType": "address",
              "name": "sender",
              "type": "address"
            },
            {
              "internalType": "uint256",
              "name": "nonce",
              "type": "uint256"
            },
            {
              "internalType": "bytes",
              "name": "initCode",
              "type": "bytes"
            },
            {
              "internalType": "bytes",
              "name": "callData",
              "type": "bytes"
            },
            {
              "internalType": "uint256",
              "name": "callGasLimit",
              "type": "uint256"
            },
            {
              "internalType": "uint256",
              "name": "verificationGasLimit",
              "type": "uint256"
            },
            {
              "internalType": "uint256",
              "name": "preVerificationGas",
              "type": "uint256"
            },
            {
              "internalType": "uint256",
              "name": "maxFeePerGas",
              "type": "uint256"
            },
            {
              "internalType": "uint256",
              "name": "maxPriorityFeePerGas",
              "type": "uint256"
            },
            {
              "internalType": "bytes",
              "name": "paymasterAndData",
              "type": "bytes"
            },
            {
              "internalType": "bytes",
              "name": "signature",
              "type": "bytes"
            }
          ],
          "internalType": "struct UserOperation",
          "name": "userOp",
          "type": "tuple"
        }
      ],
      "name": "getUserOpHash",
      "outputs": [
        {
          "internalType": "bytes32",
          "name": "",
          "type": "bytes32"
        }
      ],
      "stateMutability": "view",
      "type": "function"
    },
    {
      "inputs": [
        {
          "components": [
            {
              "components": [
                {
                  "internalType": "address",
                  "name": "sender",
                  "type": "address"
                },
                {
                  "internalType": "uint256",
                  "name": "nonce",
                  "type": "uint256"
                },
                {
                  "internalType": "bytes",
                  "name": "initCode",
                  "type": "bytes"
                },
                {
                  "internalType": "bytes",
                  "name": "callData",
                  "type": "bytes"
                },
                {
                  "internalType": "uint256",
                  "name": "callGasLimit",
                  "type": "uint256"
                },
                {
                  "internalType": "uint256",
                  "name": "verificationGasLimit",
                  "type": "uint256"
                },
                {
                  "internalType": "uint256",
                  "name": "preVerificationGas",
                  "type": "uint256"
                },
                {
                  "internalType": "uint256",
                  "name": "maxFeePerGas",
                  "type": "uint256"
                },
                {
                  "internalType": "uint256",
                  "name": "maxPriorityFeePerGas",
                  "type": "uint256"
                },
                {
                  "internalType": "bytes",
                  "name": "paymasterAndData",
                  "type": "bytes"
                },
                {
                  "internalType": "bytes",
                  "name": "signature",
                  "type": "bytes"
                }
              ],
              "internalType": "struct UserOperation[]",
              "name": "userOps",
              "type": "tuple[]"
            },
            {
              "internalType": "contract IAggregator",
              "name": "aggregator",
              "type": "address"
            },
            {
              "internalType": "bytes",
              "name": "signature",
              "type": "bytes"
            }
          ],
          "internalType": "struct IEntryPoint.UserOpsPerAggregator[]",
          "name": "opsPerAggregator",
          "type": "tuple[]"
        },
        {
          "internalType": "address payable",
          "name": "beneficiary",
          "type": "address"
        }
      ],
      "name": "handleAggregatedOps",
      "outputs": [],
      "stateMutability": "nonpayable",
      "type": "function"
    },
    {
      "inputs": [
        {
          "components": [
            {
              "internalType": "address",
              "name": "sender",
              "type": "address"
            },
            {
              "internalType": "uint256",
              "name": "nonce",
              "type": "uint256"
            },
            {
              "internalType": "bytes",
              "name": "initCode",
              "type": "bytes"
            },
            {
              "internalType": "bytes",
              "name": "callData",
              "type": "bytes"
            },
            {
              "internalType": "uint256",
              "name": "callGasLimit",
              "type": "uint256"
            },
            {
              "internalType": "uint256",
              "name": "verificationGasLimit",
              "type": "uint256"
            },
            {
              "internalType": "uint256",
              "name": "preVerificationGas",
              "type": "uint256"
            },
            {
              "internalType": "uint256",
              "name": "maxFeePerGas",
              "type": "uint256"
            },
            {
              "internalType": "uint256",
              "name": "maxPriorityFeePerGas",
              "type": "uint256"
            },
            {
              "internalType": "bytes",
              "name": "paymasterAndData",
              "type": "bytes"
            },
            {
              "internalType": "bytes",
              "name": "signature",
              "type": "bytes"
            }
          ],
          "internalType": "struct UserOperation[]",
          "name": "ops",
          "type": "tuple[]"
        },
        {
          "internalType": "address payable",
          "name": "beneficiary",
          "type": "address"
        }
      ],
      "name": "handleOps",
      "outputs": [],
      "stateMutability": "nonpayable",
      "type": "function"
    },
    {
      "inputs": [
        {
          "internalType": "uint192",
          "name": "key",
          "type": "uint192"
        }
      ],
      "name": "incrementNonce",
      "outputs": [],
      "stateMutability": "nonpayable",
      "type": "function"
    },
    {
      "inputs": [
        {
          "internalType": "bytes",
          "name": "callData",
          "type": "bytes"
        },
        {
          "components": [
            {
              "components": [
                {
                  "internalType": "address",
                  "name": "sender",
                  "type": "address"
                },
                {
                  "internalType": "uint256",
                  "name": "nonce",
                  "type": "uint256"
                },
                {
                  "internalType": "uint256",
                  "name": "callGasLimit",
                  "type": "uint256"
                },
                {
                  "internalType": "uint256",
                  "name": "verificationGasLimit",
                  "type": "uint256"
                },
                {
                  "internalType": "uint256",
                  "name": "preVerificationGas",
                  "type": "uint256"
                },
                {
                  "internalType": "address",
                  "name": "paymaster",
                  "type": "address"
                },
                {
                  "internalType": "uint256",
                  "name": "maxFeePerGas",
                  "type": "uint256"
                },
                {
                  "internalType": "uint256",
                  "name": "maxPriorityFeePerGas",
                  "type": "uint256"
                }
              ],
              "internalType": "struct EntryPoint.MemoryUserOp",
              "name": "mUserOp",
              "type": "tuple"
            },
            {
              "internalType": "bytes32",
              "name": "userOpHash",
              "type": "bytes32"
            },
            {
              "internalType": "uint256",
              "name": "prefund",
              "type": "uint256"
            },
            {
              "internalType": "uint256",
              "name": "contextOffset",
              "type": "uint256"
            },
            {
              "internalType": "uint256",
              "name": "preOpGas",
              "type": "uint256"
            }
          ],
          "internalType": "struct EntryPoint.UserOpInfo",
          "name": "opInfo",
          "type": "tuple"
        },
        {
          "internalType": "bytes",
          "name": "context",
          "type": "bytes"
        }
      ],
      "name": "innerHandleOp",
      "outputs": [
        {
          "internalType": "uint256",
          "name": "actualGasCost",
          "type": "uint256"
        }
      ],
      "stateMutability": "nonpayable",
      "type": "function"
    },
    {
      "inputs": [
        {
          "internalType": "address",
          "name": "",
          "type": "address"
        },
        {
          "internalType": "uint192",
          "name": "",
          "type": "uint192"
        }
      ],
      "name": "nonceSequenceNumber",
      "outputs": [
        {
          "internalType": "uint256",
          "name": "",
          "type": "uint256"
        }
      ],
      "stateMutability": "view",
      "type": "function"
    },
    {
      "inputs": [
        {
          "components": [
            {
              "internalType": "address",
              "name": "sender",
              "type": "address"
            },
            {
              "internalType": "uint256",
              "name": "nonce",
              "type": "uint256"
            },
            {
              "internalType": "bytes",
              "name": "initCode",
              "type": "bytes"
            },
            {
              "internalType": "bytes",
              "name": "callData",
              "type": "bytes"
            },
            {
              "internalType": "uint256",
              "name": "callGasLimit",
              "type": "uint256"
            },
            {
              "internalType": "uint256",
              "name": "verificationGasLimit",
              "type": "uint256"
            },
            {
              "internalType": "uint256",
              "name": "preVerificationGas",
              "type": "uint256"
            },
            {
              "internalType": "uint256",
              "name": "maxFeePerGas",
              "type": "uint256"
            },
            {
              "internalType": "uint256",
              "name": "maxPriorityFeePerGas",
              "type": "uint256"
            },
            {
              "internalType": "bytes",
              "name": "paymasterAndData",
              "type": "bytes"
            },
            {
              "internalType": "bytes",
              "name": "signature",
              "type": "bytes"
            }
          ],
          "internalType": "struct UserOperation",
          "name": "op",
          "type": "tuple"
        },
        {
          "internalType": "address",
          "name": "target",
          "type": "address"
        },
        {
          "internalType": "bytes",
          "name": "targetCallData",
          "type": "bytes"
        }
      ],
      "name": "simulateHandleOp",
      "outputs": [],
      "stateMutability": "nonpayable",
      "type": "function"
    },
    {
      "inputs": [
        {
          "components": [
            {
              "internalType": "address",
              "name": "sender",
              "type": "address"
            },
            {
              "internalType": "uint256",
              "name": "nonce",
              "type": "uint256"
            },
            {
              "internalType": "bytes",
              "name": "initCode",
              "type": "bytes"
            },
            {
              "internalType": "bytes",
              "name": "callData",
              "type": "bytes"
            },
            {
              "internalType": "uint256",
              "name": "callGasLimit",
              "type": "uint256"
            },
            {
              "internalType": "uint256",
              "name": "verificationGasLimit",
              "type": "uint256"
            },
            {
              "internalType": "uint256",
              "name": "preVerificationGas",
              "type": "uint256"
            },
            {
              "internalType": "uint256",
              "name": "maxFeePerGas",
              "type": "uint256"
            },
            {
              "internalType": "uint256",
              "name": "maxPriorityFeePerGas",
              "type": "uint256"
            },
            {
              "internalType": "bytes",
              "name": "paymasterAndData",
              "type": "bytes"
            },
            {
              "internalType": "bytes",
              "name": "signature",
              "type": "bytes"
            }
          ],
          "internalType": "struct UserOperation",
          "name": "userOp",
          "type": "tuple"
        }
      ],
      "name": "simulateValidation",
      "outputs": [],
      "stateMutability": "nonpayable",
      "type": "function"
    },
    {
      "inputs": [],
      "name": "unlockStake",
      "outputs": [],
      "stateMutability": "nonpayable",
      "type": "function"
    },
    {
      "inputs": [
        {
          "internalType": "address payable",
          "name": "withdrawAddress",
          "type": "address"
        }
      ],
      "name": "withdrawStake",
      "outputs": [],
      "stateMutability": "nonpayable",
      "type": "function"
    },
    {
      "inputs": [
        {
          "internalType": "address payable",
          "name": "withdrawAddress",
          "type": "address"
        },
        {
          "internalType": "uint256",
          "name": "withdrawAmount",
          "type": "uint256"
        }
      ],
      "name": "withdrawTo",
      "outputs": [],
      "stateMutability": "nonpayable",
      "type": "function"
    },
    {
      "stateMutability": "payable",
      "type": "receive"
    }
  ],
  "bytecode": {
    "object": "0x60a0604052604051620000129062000055565b604051809103906000f0801580156200002f573d6000803e3d6000fd5b506001600160a01b03166080523480156200004957600080fd5b50600160025562000063565b6102538062003f8b83390190565b608051613f0562000086600039600081816112640152612cc80152613f056000f3fe6080604052600436106100f35760003560e01c80630396cb60146101085780630bd28e3b1461011b5780631b2e01b81461013b5780631d732756146101865780631fad948c146101a6578063205c2878146101c657806335567e1a146101e65780634b1d7cf5146102445780635287ce121461026457806370a08231146103805780638f41ec5a146103a0578063957122ab146103b55780639b249f69146103d5578063a6193531146103f5578063b760faf914610415578063bb9fe6bf14610428578063c23a5cea1461043d578063d6383f941461045d578063ee2194231461047d578063fc7e286d1461049d57600080fd5b366101035761010133610551565b005b600080fd5b610101610116366004612fd0565b6105b8565b34801561012757600080fd5b50610101610136366004613012565b610837565b34801561014757600080fd5b5061017361015636600461304d565b600160209081526000928352604080842090915290825290205481565b6040519081526020015b60405180910390f35b34801561019257600080fd5b506101736101a1366004613247565b61086e565b3480156101b257600080fd5b506101016101c1366004613350565b6109db565b3480156101d257600080fd5b506101016101e13660046133a6565b610b70565b3480156101f257600080fd5b5061017361020136600461304d565b6001600160a01b039190911660009081526001602090815260408083206001600160c01b0385168452909152908190205491901b67ffffffffffffffff19161790565b34801561025057600080fd5b5061010161025f366004613350565b610ce0565b34801561027057600080fd5b5061032861027f3660046133d2565b6040805160a081018252600080825260208201819052918101829052606081018290526080810191909152506001600160a01b031660009081526020818152604091829020825160a08101845281546001600160701b038082168352600160701b820460ff16151594830194909452600160781b90049092169282019290925260019091015463ffffffff81166060830152600160201b900465ffffffffffff16608082015290565b6040805182516001600160701b03908116825260208085015115159083015283830151169181019190915260608083015163ffffffff169082015260809182015165ffffffffffff169181019190915260a00161017d565b34801561038c57600080fd5b5061017361039b3660046133d2565b611132565b3480156103ac57600080fd5b50610173600181565b3480156103c157600080fd5b506101016103d03660046133ef565b611156565b3480156103e157600080fd5b506101016103f0366004613473565b61124a565b34801561040157600080fd5b506101736104103660046134cd565b6112fb565b6101016104233660046133d2565b610551565b34801561043457600080fd5b5061010161133d565b34801561044957600080fd5b506101016104583660046133d2565b61145e565b34801561046957600080fd5b50610101610478366004613501565b611682565b34801561048957600080fd5b506101016104983660046134cd565b61177d565b3480156104a957600080fd5b5061050b6104b83660046133d2565b600060208190529081526040902080546001909101546001600160701b0380831692600160701b810460ff1692600160781b9091049091169063ffffffff811690600160201b900465ffffffffffff1685565b604080516001600160701b0396871681529415156020860152929094169183019190915263ffffffff16606082015265ffffffffffff909116608082015260a00161017d565b61055b8134611944565b6001600160a01b03811660008181526020818152604091829020805492516001600160701b03909316835292917f2da466a7b24304f47e87fa2e1e5a81b9831ce54fec19055ce277ca2f39ba42c491015b60405180910390a25050565b33600090815260208190526040902063ffffffff821661061c5760405162461bcd60e51b815260206004820152601a6024820152796d757374207370656369667920756e7374616b652064656c617960301b60448201526064015b60405180910390fd5b600181015463ffffffff90811690831610156106795760405162461bcd60e51b815260206004820152601c60248201527b63616e6e6f7420646563726561736520756e7374616b652074696d6560201b6044820152606401610613565b8054600090610699903490600160781b90046001600160701b0316613578565b9050600081116106e05760405162461bcd60e51b81526020600482015260126024820152711b9bc81cdd185ad9481cdc1958da599a595960721b6044820152606401610613565b6001600160701b038111156107285760405162461bcd60e51b815260206004820152600e60248201526d7374616b65206f766572666c6f7760901b6044820152606401610613565b6040805160a08101825283546001600160701b0390811682526001602080840182815286841685870190815263ffffffff808b16606088019081526000608089018181523380835296829052908a902098518954955194518916600160781b02600160781b600160e81b0319951515600160701b026001600160781b03199097169190991617949094179290921695909517865551949092018054925165ffffffffffff16600160201b026001600160501b0319909316949093169390931717905590517fa5ae833d0bb1dcd632d98a8b70973e8516812898e19bf27b70071ebc8dc52c019061082a908490879091825263ffffffff16602082015260400190565b60405180910390a2505050565b3360009081526001602090815260408083206001600160c01b0385168452909152812080549161086683613590565b919050555050565b6000805a90503330146108bd5760405162461bcd60e51b81526020600482015260176024820152764141393220696e7465726e616c2063616c6c206f6e6c7960481b6044820152606401610613565b8451604081015160608201518101611388015a10156108e75763deaddead60e01b60005260206000fd5b87516000901561097b576000610904846000015160008c866119e0565b9050806109795760006109186108006119f8565b8051909150156109735784600001516001600160a01b03168a602001517f1c4fada7374c0a9ee8841fc38afe82932dc0f8e69012e927f061a8bae611a20187602001518460405161096a929190613603565b60405180910390a35b60019250505b505b600088608001515a86030190506109cd6000838b8b8b8080601f016020809104026020016040519081016040528093929190818152602001838380828437600092019190915250889250611a24915050565b9a9950505050505050505050565b6002805414156109fd5760405162461bcd60e51b81526004016106139061361c565b60028055816000816001600160401b03811115610a1c57610a1c613082565b604051908082528060200260200182016040528015610a5557816020015b610a42612f0c565b815260200190600190039081610a3a5790505b50905060005b82811015610ace576000828281518110610a7757610a77613653565b60200260200101519050600080610ab2848a8a87818110610a9a57610a9a613653565b9050602002810190610aac9190613669565b85611d1c565b91509150610ac38483836000611ef7565b505050600101610a5b565b506040516000907fbb47ee3e183a558b1a2ff0874b079f3fc5478b7454eacf2bfc5af2ff5878f972908290a160005b83811015610b5857610b4c81888884818110610b1b57610b1b613653565b9050602002810190610b2d9190613669565b858481518110610b3f57610b3f613653565b602002602001015161208d565b90910190600101610afd565b50610b6384826121b5565b5050600160025550505050565b33600090815260208190526040902080546001600160701b0316821115610bd55760405162461bcd60e51b8152602060048201526019602482015278576974686472617720616d6f756e7420746f6f206c6172676560381b6044820152606401610613565b8054610beb9083906001600160701b031661368a565b81546001600160701b0319166001600160701b039190911617815560405133907fd1c19fbcd4551a5edfb66d43d2e337c04837afda3482b42bdf569a8fccdae5fb90610c3a90869086906136a1565b60405180910390a26000836001600160a01b03168360405160006040518083038185875af1925050503d8060008114610c8f576040519150601f19603f3d011682016040523d82523d6000602084013e610c94565b606091505b5050905080610cda5760405162461bcd60e51b81526020600482015260126024820152716661696c656420746f20776974686472617760701b6044820152606401610613565b50505050565b600280541415610d025760405162461bcd60e51b81526004016106139061361c565b60028055816000805b82811015610e6b5736868683818110610d2657610d26613653565b9050602002810190610d3891906136ba565b9050366000610d4783806136d0565b90925090506000610d5e60408501602086016133d2565b90506001600160a01b03811660011415610db45760405162461bcd60e51b815260206004820152601760248201527620a09c9b1034b73b30b634b21030b3b3b932b3b0ba37b960491b6044820152606401610613565b6001600160a01b03811615610e48576001600160a01b03811663e3563a4f8484610de16040890189613719565b6040518563ffffffff1660e01b8152600401610e0094939291906138c4565b60006040518083038186803b158015610e1857600080fd5b505afa925050508015610e29575060015b610e48578060405163086a9f7560e41b81526004016106139190613941565b610e528287613578565b9550505050508080610e6390613590565b915050610d0b565b506000816001600160401b03811115610e8657610e86613082565b604051908082528060200260200182016040528015610ebf57816020015b610eac612f0c565b815260200190600190039081610ea45790505b506040519091507fbb47ee3e183a558b1a2ff0874b079f3fc5478b7454eacf2bfc5af2ff5878f97290600090a16000805b84811015610fd45736888883818110610f0b57610f0b613653565b9050602002810190610f1d91906136ba565b9050366000610f2c83806136d0565b90925090506000610f4360408501602086016133d2565b90508160005b81811015610fbb576000898981518110610f6557610f65613653565b60200260200101519050600080610f888b898987818110610a9a57610a9a613653565b91509150610f9884838389611ef7565b8a610fa281613590565b9b50505050508080610fb390613590565b915050610f49565b5050505050508080610fcc90613590565b915050610ef0565b50600080915060005b858110156110ed5736898983818110610ff857610ff8613653565b905060200281019061100a91906136ba565b905061101c60408201602083016133d2565b6001600160a01b03167f575ff3acadd5ab348fe1855e217e0f3678f8d767d7494c9f9fefbee2e17cca4d60405160405180910390a236600061105e83806136d0565b90925090508060005b818110156110d5576110a98885858481811061108557611085613653565b90506020028101906110979190613669565b8b8b81518110610b3f57610b3f613653565b6110b39088613578565b9650876110bf81613590565b98505080806110cd90613590565b915050611067565b505050505080806110e590613590565b915050610fdd565b506040516000907f575ff3acadd5ab348fe1855e217e0f3678f8d767d7494c9f9fefbee2e17cca4d908290a261112386826121b5565b50506001600255505050505050565b6001600160a01b03166000908152602081905260409020546001600160701b031690565b8315801561116c57506001600160a01b0383163b155b156111b55760405162461bcd60e51b815260206004820152601960248201527810504c8c081858d8dbdd5b9d081b9bdd0819195c1b1bde5959603a1b6044820152606401610613565b601481106112285760006111cc6014828486613955565b6111d59161397f565b60601c9050803b6112265760405162461bcd60e51b815260206004820152601b60248201527a10504ccc081c185e5b585cdd195c881b9bdd0819195c1b1bde5959602a1b6044820152606401610613565b505b60405162461bcd60e51b81526020600482015260006024820152604401610613565b604051632b870d1b60e11b81526000906001600160a01b037f0000000000000000000000000000000000000000000000000000000000000000169063570e1a369061129b90869086906004016139af565b6020604051808303816000875af11580156112ba573d6000803e3d6000fd5b505050506040513d601f19601f820116820180604052508101906112de91906139c3565b905080604051633653dc0360e11b81526004016106139190613941565b6000611306826122ae565b6040805160208101929092523090820152466060820152608001604051602081830303815290604052805190602001209050919050565b336000908152602081905260409020600181015463ffffffff166113905760405162461bcd60e51b815260206004820152600a6024820152691b9bdd081cdd185ad95960b21b6044820152606401610613565b8054600160701b900460ff166113dc5760405162461bcd60e51b8152602060048201526011602482015270616c726561647920756e7374616b696e6760781b6044820152606401610613565b60018101546000906113f49063ffffffff16426139e0565b60018301805465ffffffffffff60201b1916600160201b65ffffffffffff841690810291909117909155835460ff60701b1916845560405190815290915033907ffa9b3c14cc825c412c9ed81b3ba365a5b459439403f18829e572ed53a4180f0a906020016105ac565b3360009081526020819052604090208054600160781b90046001600160701b0316806114c35760405162461bcd60e51b81526020600482015260146024820152734e6f207374616b6520746f20776974686472617760601b6044820152606401610613565b6001820154600160201b900465ffffffffffff166115235760405162461bcd60e51b815260206004820152601d60248201527f6d7573742063616c6c20756e6c6f636b5374616b6528292066697273740000006044820152606401610613565b600182015442600160201b90910465ffffffffffff1611156115855760405162461bcd60e51b815260206004820152601b60248201527a5374616b65207769746864726177616c206973206e6f742064756560281b6044820152606401610613565b6001820180546001600160501b03191690558154600160781b600160e81b031916825560405133907fb7c918e0e249f999e965cafeb6c664271b3f4317d296461500e71da39f0cbda3906115dc90869085906136a1565b60405180910390a26000836001600160a01b03168260405160006040518083038185875af1925050503d8060008114611631576040519150601f19603f3d011682016040523d82523d6000602084013e611636565b606091505b5050905080610cda5760405162461bcd60e51b81526020600482015260186024820152776661696c656420746f207769746864726177207374616b6560401b6044820152606401610613565b61168a612f0c565b611693856122c7565b6000806116a260008885611d1c565b9150915060006116b283836123a2565b90506116bd43600052565b60006116cb60008a8761208d565b90506116d643600052565b600060606001600160a01b038a161561174c57896001600160a01b03168989604051611703929190613a0a565b6000604051808303816000865af19150503d8060008114611740576040519150601f19603f3d011682016040523d82523d6000602084013e611745565b606091505b5090925090505b866080015183856020015186604001518585604051630116f59360e71b815260040161061396959493929190613a1a565b611785612f0c565b61178e826122c7565b60008061179d60008585611d1c565b9150915060006117b4846000015160a0015161245b565b8451519091506000906117c69061245b565b90506117d0612f96565b3660006117e060408a018a613719565b9092509050600060148210156117f7576000611812565b611805601460008486613955565b61180e9161397f565b60601c5b905061181d8161245b565b9350505050600061182e86866123a2565b9050600081600001519050600060016001600160a01b0316826001600160a01b031614905060006040518060c001604052808b6080015181526020018b6040015181526020018315158152602001856020015165ffffffffffff168152602001856040015165ffffffffffff1681526020016118ab8c6060015190565b905290506001600160a01b038316158015906118d157506001600160a01b038316600114155b156119235760006040518060400160405280856001600160a01b031681526020016118fb8661245b565b81525090508187878a84604051633ebb2d3960e21b8152600401610613959493929190613acb565b8086868960405163e0cff05f60e01b81526004016106139493929190613b37565b6001600160a01b038216600090815260208190526040812080549091906119759084906001600160701b0316613578565b90506001600160701b038111156119c15760405162461bcd60e51b815260206004820152601060248201526f6465706f736974206f766572666c6f7760801b6044820152606401610613565b81546001600160701b0319166001600160701b03919091161790555050565b6000806000845160208601878987f195945050505050565b60603d82811115611a065750815b604051602082018101604052818152816000602083013e9392505050565b6000805a855190915060009081611a3a826124a3565b60a08301519091506001600160a01b038116611a595782519350611c01565b809350600088511115611c0157868202955060028a6002811115611a7f57611a7f613b7c565b14611af157606083015160405163a9a2340960e01b81526001600160a01b0383169163a9a2340991611ab9908e908d908c90600401613b92565b600060405180830381600088803b158015611ad357600080fd5b5087f1158015611ae7573d6000803e3d6000fd5b5050505050611c01565b606083015160405163a9a2340960e01b81526001600160a01b0383169163a9a2340991611b26908e908d908c90600401613b92565b600060405180830381600088803b158015611b4057600080fd5b5087f193505050508015611b52575060015b611c0157611b5e613bd9565b806308c379a01415611bb85750611b73613bf5565b80611b7e5750611bba565b8b81604051602001611b909190613c7e565b60408051601f1981840301815290829052631101335b60e11b82526106139291600401613603565b505b8a604051631101335b60e11b81526004016106139181526040602082018190526012908201527110504d4c081c1bdcdd13dc081c995d995c9d60721b606082015260800190565b5a85038701965081870295508589604001511015611c6a578a604051631101335b60e11b815260040161061391815260406020808301829052908201527f414135312070726566756e642062656c6f772061637475616c476173436f7374606082015260800190565b6040890151869003611c7c8582611944565b6000808c6002811115611c9157611c91613b7c565b1490508460a001516001600160a01b031685600001516001600160a01b03168c602001517f49628fd1471006c1482da88028e9ce4dbb080b815c9b0344d39e5a8e6ec1419f8860200151858d8f604051611d04949392919093845291151560208401526040830152606082015260800190565b60405180910390a45050505050505095945050505050565b60008060005a8451909150611d3186826124d4565b611d3a866112fb565b6020860152604081015160608201516080830151171760e087013517610100870135176001600160781b03811115611daf5760405162461bcd60e51b815260206004820152601860248201527741413934206761732076616c756573206f766572666c6f7760401b6044820152606401610613565b600080611dbb846125cd565b9050611dc98a8a8a8461261a565b85516020870151919950919350611de09190612838565b611e335789604051631101335b60e11b8152600401610613918152604060208201819052601a90820152794141323520696e76616c6964206163636f756e74206e6f6e636560301b606082015260800190565b611e3c43600052565b60a08401516060906001600160a01b031615611e6457611e5f8b8b8b8587612885565b975090505b60005a87039050808b60a001351015611ec9578b604051631101335b60e11b8152600401610613918152604060208201819052601e908201527f41413430206f76657220766572696669636174696f6e4761734c696d69740000606082015260800190565b60408a018390528160608b015260c08b01355a8803018a608001818152505050505050505050935093915050565b600080611f0385612aa9565b91509150816001600160a01b0316836001600160a01b031614611f695785604051631101335b60e11b81526004016106139181526040602082018190526014908201527320a0991a1039b4b3b730ba3ab9329032b93937b960611b606082015260800190565b8015611fbb5785604051631101335b60e11b815260040161061391815260406020820181905260179082015276414132322065787069726564206f72206e6f742064756560481b606082015260800190565b6000611fc685612aa9565b925090506001600160a01b038116156120225786604051631101335b60e11b81526004016106139181526040602082018190526014908201527320a0999a1039b4b3b730ba3ab9329032b93937b960611b606082015260800190565b81156120845786604051631101335b60e11b81526004016106139181526040602082018190526021908201527f41413332207061796d61737465722065787069726564206f72206e6f742064756060820152606560f81b608082015260a00190565b50505050505050565b6000805a905060006120a0846060015190565b905030631d7327566120b56060880188613719565b87856040518563ffffffff1660e01b81526004016120d69493929190613cbc565b6020604051808303816000875af1925050508015612111575060408051601f3d908101601f1916820190925261210e91810190613d6f565b60015b6121a957600060206000803e5060005163deaddead60e01b8114156121745786604051631101335b60e11b8152600401610613918152604060208201819052600f908201526e41413935206f7574206f662067617360881b606082015260800190565b600085608001515a612186908661368a565b6121909190613578565b90506121a0886002888685611a24565b945050506121ac565b92505b50509392505050565b6001600160a01b0382166122065760405162461bcd60e51b81526020600482015260186024820152774141393020696e76616c69642062656e656669636961727960401b6044820152606401610613565b6000826001600160a01b03168260405160006040518083038185875af1925050503d8060008114612253576040519150601f19603f3d011682016040523d82523d6000602084013e612258565b606091505b50509050806122a95760405162461bcd60e51b815260206004820152601f60248201527f41413931206661696c65642073656e6420746f2062656e6566696369617279006044820152606401610613565b505050565b60006122b982612af9565b805190602001209050919050565b3063957122ab6122da6040840184613719565b6122e760208601866133d2565b6122f5610120870187613719565b6040518663ffffffff1660e01b8152600401612315959493929190613d88565b60006040518083038186803b15801561232d57600080fd5b505afa92505050801561233e575060015b61239f5761234a613bd9565b806308c379a01415612393575061235f613bf5565b8061236a5750612395565b80511561238f57600081604051631101335b60e11b8152600401610613929190613603565b5050565b505b3d6000803e3d6000fd5b50565b6123aa612fb0565b60006123b584612bcc565b905060006123c284612bcc565b82519091506001600160a01b0381166123d9575080515b602080840151604080860151928501519085015191929165ffffffffffff8083169085161015612407578193505b8065ffffffffffff168365ffffffffffff161115612423578092505b5050604080516060810182526001600160a01b03909416845265ffffffffffff92831660208501529116908201529250505092915050565b612463612f96565b6001600160a01b0390911660009081526020818152604090912080546001600160701b03600160781b9091041683526001015463ffffffff169082015290565b60c081015160e082015160009190808214156124c0575092915050565b6124cc82488301612c25565b949350505050565b6124e160208301836133d2565b6001600160a01b0316815260208083013590820152608080830135604083015260a0830135606083015260c0808401359183019190915260e0808401359183019190915261010083013590820152366000612540610120850185613719565b909250905080156125c057601481101561259c5760405162461bcd60e51b815260206004820152601d60248201527f4141393320696e76616c6964207061796d6173746572416e64446174610000006044820152606401610613565b6125aa601460008385613955565b6125b39161397f565b60601c60a0840152610cda565b600060a084015250505050565b60a081015160009081906001600160a01b03166125eb5760016125ee565b60035b60ff16905060008360800151828560600151028560400151010190508360c00151810292505050919050565b60008060005a855180519192509061263f898861263a60408c018c613719565b612c3d565b60a082015161264d43600052565b60006001600160a01b03821661268057600061266884611132565b90508881116126795780890361267c565b60005b9150505b606084015160208a0151604051633a871cdd60e01b81526001600160a01b03861692633a871cdd9290916126ba918f918790600401613dbe565b60206040518083038160008887f1935050505080156126f6575060408051601f3d908101601f191682019092526126f391810190613d6f565b60015b61278157612702613bd9565b806308c379a014156127345750612717613bf5565b806127225750612736565b8b81604051602001611b909190613de3565b505b8a604051631101335b60e11b8152600401610613918152604060208201819052601690820152754141323320726576657274656420286f72204f4f472960501b606082015260800190565b95506001600160a01b038216612825576001600160a01b038316600090815260208190526040902080546001600160701b0316808a1115612808578c604051631101335b60e11b81526004016106139181526040602082018190526017908201527610504c8c48191a591b89dd081c185e481c1c99599d5b99604a1b606082015260800190565b81546001600160701b031916908a90036001600160701b03161790555b5a85039650505050505094509492505050565b6001600160a01b038216600090815260016020908152604080832084821c80855292528220805484916001600160401b03831691908561287783613590565b909155501495945050505050565b825160608181015190916000918481116128e15760405162461bcd60e51b815260206004820152601f60248201527f4141343120746f6f206c6974746c6520766572696669636174696f6e476173006044820152606401610613565b60a08201516001600160a01b038116600090815260208190526040902080548784039291906001600160701b031689811015612969578c604051631101335b60e11b8152600401610613918152604060208201819052601e908201527f41413331207061796d6173746572206465706f73697420746f6f206c6f770000606082015260800190565b8981038260000160006101000a8154816001600160701b0302191690836001600160701b03160217905550826001600160a01b031663f465c77e858e8e602001518e6040518563ffffffff1660e01b81526004016129c993929190613dbe565b60006040518083038160008887f193505050508015612a0a57506040513d6000823e601f3d908101601f19168201604052612a079190810190613e1a565b60015b612a9557612a16613bd9565b806308c379a01415612a485750612a2b613bf5565b80612a365750612a4a565b8d81604051602001611b909190613ea5565b505b8c604051631101335b60e11b8152600401610613918152604060208201819052601690820152754141333320726576657274656420286f72204f4f472960501b606082015260800190565b909e909d509b505050505050505050505050565b60008082612abc57506000928392509050565b6000612ac784612bcc565b9050806040015165ffffffffffff16421180612aee5750806020015165ffffffffffff1642105b905194909350915050565b6060813560208301356000612b19612b146040870187613719565b612ef9565b90506000612b2d612b146060880188613719565b9050608086013560a087013560c088013560e08901356101008a01356000612b5c612b146101208e018e613719565b604080516001600160a01b039c909c1660208d01528b81019a909a5260608b019890985250608089019590955260a088019390935260c087019190915260e08601526101008501526101208401526101408084019190915281518084039091018152610160909201905292915050565b612bd4612fb0565b8160a081901c65ffffffffffff8116612bf0575065ffffffffffff5b604080516060810182526001600160a01b03909316835260d09490941c602083015265ffffffffffff16928101929092525090565b6000818310612c345781612c36565b825b9392505050565b8015610cda578251516001600160a01b0381163b15612ca85784604051631101335b60e11b8152600401610613918152604060208201819052601f908201527f414131302073656e64657220616c726561647920636f6e737472756374656400606082015260800190565b835160600151604051632b870d1b60e11b81526000916001600160a01b037f0000000000000000000000000000000000000000000000000000000000000000169163570e1a369190612d0090889088906004016139af565b60206040518083038160008887f1158015612d1f573d6000803e3d6000fd5b50505050506040513d601f19601f82011682018060405250810190612d4491906139c3565b90506001600160a01b038116612da45785604051631101335b60e11b8152600401610613918152604060208201819052601b908201527a4141313320696e6974436f6465206661696c6564206f72204f4f4760281b606082015260800190565b816001600160a01b0316816001600160a01b031614612e0e5785604051631101335b60e11b815260040161061391815260406020808301829052908201527f4141313420696e6974436f6465206d7573742072657475726e2073656e646572606082015260800190565b6001600160a01b0381163b612e6e5785604051631101335b60e11b815260040161061391815260406020808301829052908201527f4141313520696e6974436f6465206d757374206372656174652073656e646572606082015260800190565b6000612e7d6014828688613955565b612e869161397f565b60601c9050826001600160a01b031686602001517fd51a9c61267aa6196961883ecf5ff2da6619c37dac0fa92122513fb32c032d2d83896000015160a00151604051612ee89291906001600160a01b0392831681529116602082015260400190565b60405180910390a350505050505050565b6000604051828085833790209392505050565b6040518060a00160405280612f7160405180610100016040528060006001600160a01b031681526020016000815260200160008152602001600081526020016000815260200160006001600160a01b0316815260200160008152602001600081525090565b8152602001600080191681526020016000815260200160008152602001600081525090565b604051806040016040528060008152602001600081525090565b604080516060810182526000808252602082018190529181019190915290565b600060208284031215612fe257600080fd5b813563ffffffff81168114612c3657600080fd5b80356001600160c01b038116811461300d57600080fd5b919050565b60006020828403121561302457600080fd5b612c3682612ff6565b6001600160a01b038116811461239f57600080fd5b803561300d8161302d565b6000806040838503121561306057600080fd5b823561306b8161302d565b915061307960208401612ff6565b90509250929050565b634e487b7160e01b600052604160045260246000fd5b60a081018181106001600160401b03821117156130b7576130b7613082565b60405250565b61010081018181106001600160401b03821117156130b7576130b7613082565b601f8201601f191681016001600160401b038111828210171561310257613102613082565b6040525050565b60006001600160401b0382111561312257613122613082565b50601f01601f191660200190565b600081830361018081121561314457600080fd5b60405161315081613098565b8092506101008083121561316357600080fd5b6040519250613171836130bd565b61317a85613042565b8352602085013560208401526040850135604084015260608501356060840152608085013560808401526131b060a08601613042565b60a084015260c085013560c084015260e085013560e084015282825280850135602083015250610120840135604082015261014084013560608201526101608401356080820152505092915050565b60008083601f84011261321157600080fd5b5081356001600160401b0381111561322857600080fd5b60208301915083602082850101111561324057600080fd5b9250929050565b6000806000806101c0858703121561325e57600080fd5b84356001600160401b038082111561327557600080fd5b818701915087601f83011261328957600080fd5b813561329481613109565b6040516132a182826130dd565b8281528a60208487010111156132b657600080fd5b826020860160208301376000602084830101528098505050506132dc8860208901613130565b94506101a08701359150808211156132f357600080fd5b50613300878288016131ff565b95989497509550505050565b60008083601f84011261331e57600080fd5b5081356001600160401b0381111561333557600080fd5b6020830191508360208260051b850101111561324057600080fd5b60008060006040848603121561336557600080fd5b83356001600160401b0381111561337b57600080fd5b6133878682870161330c565b909450925050602084013561339b8161302d565b809150509250925092565b600080604083850312156133b957600080fd5b82356133c48161302d565b946020939093013593505050565b6000602082840312156133e457600080fd5b8135612c368161302d565b60008060008060006060868803121561340757600080fd5b85356001600160401b038082111561341e57600080fd5b61342a89838a016131ff565b90975095506020880135915061343f8261302d565b9093506040870135908082111561345557600080fd5b50613462888289016131ff565b969995985093965092949392505050565b6000806020838503121561348657600080fd5b82356001600160401b0381111561349c57600080fd5b6134a8858286016131ff565b90969095509350505050565b600061016082840312156134c757600080fd5b50919050565b6000602082840312156134df57600080fd5b81356001600160401b038111156134f557600080fd5b6124cc848285016134b4565b6000806000806060858703121561351757600080fd5b84356001600160401b038082111561352e57600080fd5b61353a888389016134b4565b95506020870135915061354c8261302d565b909350604086013590808211156132f357600080fd5b634e487b7160e01b600052601160045260246000fd5b6000821982111561358b5761358b613562565b500190565b60006000198214156135a4576135a4613562565b5060010190565b60005b838110156135c65781810151838201526020016135ae565b83811115610cda5750506000910152565b600081518084526135ef8160208601602086016135ab565b601f01601f19169290920160200192915050565b8281526040602082015260006124cc60408301846135d7565b6020808252601f908201527f5265656e7472616e637947756172643a207265656e7472616e742063616c6c00604082015260600190565b634e487b7160e01b600052603260045260246000fd5b6000823561015e1983360301811261368057600080fd5b9190910192915050565b60008282101561369c5761369c613562565b500390565b6001600160a01b03929092168252602082015260400190565b60008235605e1983360301811261368057600080fd5b6000808335601e198436030181126136e757600080fd5b8301803591506001600160401b0382111561370157600080fd5b6020019150600581901b360382131561324057600080fd5b6000808335601e1984360301811261373057600080fd5b8301803591506001600160401b0382111561374a57600080fd5b60200191503681900382131561324057600080fd5b6000808335601e1984360301811261377657600080fd5b83016020810192503590506001600160401b0381111561379557600080fd5b80360383131561324057600080fd5b81835281816020850137506000828201602090810191909152601f909101601f19169091010190565b60006101606137ec846137df85613042565b6001600160a01b03169052565b60208301356020850152613803604084018461375f565b82604087015261381683870182846137a4565b92505050613827606084018461375f565b858303606087015261383a8382846137a4565b925050506080830135608085015260a083013560a085015260c083013560c085015260e083013560e08501526101008084013581860152506101206138818185018561375f565b868403838801526138938482846137a4565b93505050506101406138a78185018561375f565b868403838801526138b98482846137a4565b979650505050505050565b6040808252810184905260006060600586901b830181019083018783805b8981101561392a57868503605f190184528235368c900361015e19018112613908578283fd5b613914868d83016137cd565b95505060209384019392909201916001016138e2565b5050505082810360208401526138b98185876137a4565b6001600160a01b0391909116815260200190565b6000808585111561396557600080fd5b8386111561397257600080fd5b5050820193919092039150565b6001600160601b031981358181169160148510156139a75780818660140360031b1b83161692505b505092915050565b6020815260006124cc6020830184866137a4565b6000602082840312156139d557600080fd5b8151612c368161302d565b600065ffffffffffff808316818516808303821115613a0157613a01613562565b01949350505050565b8183823760009101908152919050565b868152856020820152600065ffffffffffff8087166040840152808616606084015250831515608083015260c060a0830152613a5960c08301846135d7565b98975050505050505050565b80518252602081015160208301526040810151151560408301526000606082015165ffffffffffff8082166060860152806080850151166080860152505060a082015160c060a08501526124cc60c08501826135d7565b80518252602090810151910152565b6000610140808352613adf81840189613a65565b915050613aef6020830187613abc565b613afc6060830186613abc565b613b0960a0830185613abc565b82516001600160a01b031660e08301526020830151613b2c610100840182613abc565b509695505050505050565b60e081526000613b4a60e0830187613a65565b9050613b596020830186613abc565b613b666060830185613abc565b613b7360a0830184613abc565b95945050505050565b634e487b7160e01b600052602160045260246000fd5b600060038510613bb257634e487b7160e01b600052602160045260246000fd5b84825260606020830152613bc960608301856135d7565b9050826040830152949350505050565b600060033d1115613bf25760046000803e5060005160e01c5b90565b600060443d1015613c035790565b6040516003193d81016004833e81513d6001600160401b038160248401118184111715613c3257505050505090565b8285019150815181811115613c4a5750505050505090565b843d8701016020828501011115613c645750505050505090565b613c73602082860101876130dd565b509095945050505050565b75020a09a98103837b9ba27b8103932bb32b93a32b21d160551b815260008251613caf8160168501602087016135ab565b9190910160160192915050565b60006101c0808352613cd181840187896137a4565b9050845160018060a01b03808251166020860152602082015160408601526040820151606086015260608201516080860152608082015160a08601528060a08301511660c08601525060c081015160e085015260e08101516101008501525060208501516101208401526040850151610140840152606085015161016084015260808501516101808401528281036101a08401526138b981856135d7565b600060208284031215613d8157600080fd5b5051919050565b606081526000613d9c6060830187896137a4565b6001600160a01b03861660208401528281036040840152613a598185876137a4565b606081526000613dd160608301866137cd565b60208301949094525060400152919050565b6e020a09919903932bb32b93a32b21d1608d1b815260008251613e0d81600f8501602087016135ab565b91909101600f0192915050565b60008060408385031215613e2d57600080fd5b82516001600160401b03811115613e4357600080fd5b8301601f81018513613e5457600080fd5b8051613e5f81613109565b604051613e6c82826130dd565b828152876020848601011115613e8157600080fd5b613e928360208301602087016135ab565b6020969096015195979596505050505050565b6e020a09999903932bb32b93a32b21d1608d1b815260008251613e0d81600f8501602087016135ab56fea2646970667358221220fc6399cea548814beaa1099b37cbe528c52aeaeacfe059ccfef3e79b9d26e12b64736f6c634300080c0033608060405234801561001057600080fd5b50610233806100206000396000f3fe608060405234801561001057600080fd5b506004361061002b5760003560e01c8063570e1a3614610030575b600080fd5b61004361003e36600461011d565b610059565b604051610050919061018f565b60405180910390f35b60008061006960148285876101a3565b610072916101cd565b60601c90507f69164a0df9992ad714a1743f4bb075b0dcea5cd42298cf7d5abfc8e17799cf1a816040516100a6919061018f565b60405180910390a160006100bd84601481886101a3565b8080601f016020809104026020016040519081016040528093929190818152602001838380828437600092018290525084519495509360209350849250905082850182875af1905060005193508061011457600093505b50505092915050565b6000806020838503121561013057600080fd5b823567ffffffffffffffff8082111561014857600080fd5b818501915085601f83011261015c57600080fd5b81358181111561016b57600080fd5b86602082850101111561017d57600080fd5b60209290920196919550909350505050565b6001600160a01b0391909116815260200190565b600080858511156101b357600080fd5b838611156101c057600080fd5b5050820193919092039150565b6001600160601b031981358181169160148510156101f55780818660140360031b1b83161692505b50509291505056fea26469706673582212207ec8aa3e9f120a44d1e4955d628a4022b534d3b9e4b82cff1c21b6d9bc1170c564736f6c634300080c0033",
    "linkReferences": {}
  },
  "methodIdentifiers": {
    "SIG_VALIDATION_FAILED()": "8f41ec5a",
    "_validateSenderAndPaymaster(bytes,address,bytes)": "957122ab",
    "addStake(uint32)": "0396cb60",
    "balanceOf(address)": "70a08231",
    "depositTo(address)": "b760faf9",
    "deposits(address)": "fc7e286d",
    "getDepositInfo(address)": "5287ce12",
    "getNonce(address,uint192)": "35567e1a",
    "getSenderAddress(bytes)": "9b249f69",
    "getUserOpHash((address,uint256,bytes,bytes,uint256,uint256,uint256,uint256,uint256,bytes,bytes))": "a6193531",
    "handleAggregatedOps(((address,uint256,bytes,bytes,uint256,uint256,uint256,uint256,uint256,bytes,bytes)[],address,bytes)[],address)": "4b1d7cf5",
    "handleOps((address,uint256,bytes,bytes,uint256,uint256,uint256,uint256,uint256,bytes,bytes)[],address)": "1fad948c",
    "incrementNonce(uint192)": "0bd28e3b",
    "innerHandleOp(bytes,((address,uint256,uint256,uint256,uint256,address,uint256,uint256),bytes32,uint256,uint256,uint256),bytes)": "1d732756",
    "nonceSequenceNumber(address,uint192)": "1b2e01b8",
    "simulateHandleOp((address,uint256,bytes,bytes,uint256,uint256,uint256,uint256,uint256,bytes,bytes),address,bytes)": "d6383f94",
    "simulateValidation((address,uint256,bytes,bytes,uint256,uint256,uint256,uint256,uint256,bytes,bytes))": "ee219423",
    "unlockStake()": "bb9fe6bf",
    "withdrawStake(address)": "c23a5cea",
    "withdrawTo(address,uint256)": "205c2878"
  },
  "id": 308
}