{
  "contracts/ConstructorParams.sol": {
    "ConstructorParams": {
      "abi": [
        {
          "inputs": [
            {
              "internalType": "address",
              "name": "someAddress",
              "type": "address"
            },
            {
              "internalType": "bytes32",
              "name": "uri",
              "type": "bytes32"
            },
            {
              "internalType": "uint256",
              "name": "someId",
              "type": "uint256"
            },
            {
              "internalType": "address[]",
              "name": "someAddresses",
              "type": "address[]"
            },
            {
              "internalType": "uint256[]",
              "name": "someIds",
              "type": "uint256[]"
            }
          ],
          "stateMutability": "nonpayable",
          "type": "constructor"
        },
        {
          "anonymous": false,
          "inputs": [
            {
              "indexed": false,
              "internalType": "address",
              "name": "prevOwner",
              "type": "address"
            },
            {
              "indexed": false,
              "internalType": "address",
              "name": "newOwner",
              "type": "address"
            }
          ],
          "name": "OwnerUpdated",
          "type": "event"
        },
        {
          "inputs": [],
          "name": "contractUri",
          "outputs": [
            {
              "internalType": "bytes32",
              "name": "",
              "type": "bytes32"
            }
          ],
          "stateMutability": "view",
          "type": "function"
        },
        {
          "inputs": [],
          "name": "owner",
          "outputs": [
            {
              "internalType": "address",
              "name": "",
              "type": "address"
            }
          ],
          "stateMutability": "view",
          "type": "function"
        },
        {
          "inputs": [
            {
              "internalType": "address",
              "name": "_newOwner",
              "type": "address"
            }
          ],
          "name": "setOwner",
          "outputs": [],
          "stateMutability": "nonpayable",
          "type": "function"
        },
        {
          "inputs": [
            {
              "internalType": "address",
              "name": "deployer",
              "type": "address"
            }
          ],
          "name": "tw_initializeOwner",
          "outputs": [],
          "stateMutability": "nonpayable",
          "type": "function"
        }
      ],
      "evm": {
        "bytecode": {
          "linkReferences": {},
          "object": "60a06040523480156200001157600080fd5b5060405162000aba38038062000aba83398181016040528101906200003791906200034d565b83608081815250508260028190555084600360006101000a81548173ffffffffffffffffffffffffffffffffffffffff021916908373ffffffffffffffffffffffffffffffffffffffff16021790555081600490805190602001906200009f929190620000c4565b508060059080519060200190620000b892919062000153565b50505050505062000594565b82805482825590600052602060002090810192821562000140579160200282015b828111156200013f5782518260006101000a81548173ffffffffffffffffffffffffffffffffffffffff021916908373ffffffffffffffffffffffffffffffffffffffff16021790555091602001919060010190620000e5565b5b5090506200014f9190620001a5565b5090565b82805482825590600052602060002090810192821562000192579160200282015b828111156200019157825182559160200191906001019062000174565b5b509050620001a19190620001a5565b5090565b5b80821115620001c0576000816000905550600101620001a6565b5090565b6000620001db620001d5846200042a565b62000401565b90508083825260208201905082856020860282011115620001fb57600080fd5b60005b858110156200022f5781620002148882620002ae565b845260208401935060208301925050600181019050620001fe565b5050509392505050565b6000620002506200024a8462000459565b62000401565b905080838252602082019050828560208602820111156200027057600080fd5b60005b85811015620002a4578162000289888262000336565b84526020840193506020830192505060018101905062000273565b5050509392505050565b600081519050620002bf8162000546565b92915050565b600082601f830112620002d757600080fd5b8151620002e9848260208601620001c4565b91505092915050565b600082601f8301126200030457600080fd5b81516200031684826020860162000239565b91505092915050565b600081519050620003308162000560565b92915050565b60008151905062000347816200057a565b92915050565b600080600080600060a086880312156200036657600080fd5b60006200037688828901620002ae565b955050602062000389888289016200031f565b94505060406200039c8882890162000336565b935050606086015167ffffffffffffffff811115620003ba57600080fd5b620003c888828901620002c5565b925050608086015167ffffffffffffffff811115620003e657600080fd5b620003f488828901620002f2565b9150509295509295909350565b60006200040d62000420565b90506200041b8282620004d0565b919050565b6000604051905090565b600067ffffffffffffffff82111562000448576200044762000506565b5b602082029050602081019050919050565b600067ffffffffffffffff82111562000477576200047662000506565b5b602082029050602081019050919050565b60006200049582620004a6565b9050919050565b6000819050919050565b600073ffffffffffffffffffffffffffffffffffffffff82169050919050565b6000819050919050565b620004db8262000535565b810181811067ffffffffffffffff82111715620004fd57620004fc62000506565b5b80604052505050565b7f4e487b7100000000000000000000000000000000000000000000000000000000600052604160045260246000fd5b6000601f19601f8301169050919050565b620005518162000488565b81146200055d57600080fd5b50565b6200056b816200049c565b81146200057757600080fd5b50565b6200058581620004c6565b81146200059157600080fd5b50565b60805161050a620005b06000396000610264015261050a6000f3fe608060405234801561001057600080fd5b506004361061004c5760003560e01c806310ce19a41461005157806313af40351461006d5780638da5cb5b14610089578063c0e24d5e146100a7575b600080fd5b61006b600480360381019061006691906102f2565b6100c5565b005b610087600480360381019061008291906102f2565b610154565b005b61009161023e565b60405161009e919061037f565b60405180910390f35b6100af610262565b6040516100bc91906103c3565b60405180910390f35b60006001541461010a576040517f08c379a0000000000000000000000000000000000000000000000000000000008152600401610101906103de565b60405180910390fd5b60018081905550806000806101000a81548173ffffffffffffffffffffffffffffffffffffffff021916908373ffffffffffffffffffffffffffffffffffffffff16021790555050565b61015c610286565b61019b576040517f08c379a0000000000000000000000000000000000000000000000000000000008152600401610192906103fe565b60405180910390fd5b60008060009054906101000a900473ffffffffffffffffffffffffffffffffffffffff169050816000806101000a81548173ffffffffffffffffffffffffffffffffffffffff021916908373ffffffffffffffffffffffffffffffffffffffff1602179055507f8292fce18fa69edf4db7b94ea2e58241df0ae57f97e0a6c9b29067028bf92d76818360405161023292919061039a565b60405180910390a15050565b60008054906101000a900473ffffffffffffffffffffffffffffffffffffffff1681565b7f000000000000000000000000000000000000000000000000000000000000000081565b60008060009054906101000a900473ffffffffffffffffffffffffffffffffffffffff1673ffffffffffffffffffffffffffffffffffffffff163373ffffffffffffffffffffffffffffffffffffffff1614905090565b6000813590506102ec816104bd565b92915050565b60006020828403121561030457600080fd5b6000610312848285016102dd565b91505092915050565b6103248161042f565b82525050565b61033381610441565b82525050565b600061034660198361041e565b91506103518261046b565b602082019050919050565b6000610369600e8361041e565b915061037482610494565b602082019050919050565b6000602082019050610394600083018461031b565b92915050565b60006040820190506103af600083018561031b565b6103bc602083018461031b565b9392505050565b60006020820190506103d8600083018461032a565b92915050565b600060208201905081810360008301526103f781610339565b9050919050565b600060208201905081810360008301526104178161035c565b9050919050565b600082825260208201905092915050565b600061043a8261044b565b9050919050565b6000819050919050565b600073ffffffffffffffffffffffffffffffffffffffff82169050919050565b7f4f776e657220616c726561647920696e697469616c697a656400000000000000600082015250565b7f4e6f7420617574686f72697a6564000000000000000000000000000000000000600082015250565b6104c68161042f565b81146104d157600080fd5b5056fea2646970667358221220faeb980a9afee31bb03d85b6baadc2afe695ca61dcd4a5242defb6458d18f1c764736f6c63430008040033",
          "opcodes": "PUSH1 0xA0 PUSH1 0x40 MSTORE CALLVALUE DUP1 ISZERO PUSH3 0x11 JUMPI PUSH1 0x0 DUP1 REVERT JUMPDEST POP PUSH1 0x40 MLOAD PUSH3 0xABA CODESIZE SUB DUP1 PUSH3 0xABA DUP4 CODECOPY DUP2 DUP2 ADD PUSH1 0x40 MSTORE DUP2 ADD SWAP1 PUSH3 0x37 SWAP2 SWAP1 PUSH3 0x34D JUMP JUMPDEST DUP4 PUSH1 0x80 DUP2 DUP2 MSTORE POP POP DUP3 PUSH1 0x2 DUP2 SWAP1 SSTORE POP DUP5 PUSH1 0x3 PUSH1 0x0 PUSH2 0x100 EXP DUP2 SLOAD DUP2 PUSH20 0xFFFFFFFFFFFFFFFFFFFFFFFFFFFFFFFFFFFFFFFF MUL NOT AND SWAP1 DUP4 PUSH20 0xFFFFFFFFFFFFFFFFFFFFFFFFFFFFFFFFFFFFFFFF AND MUL OR SWAP1 SSTORE POP DUP2 PUSH1 0x4 SWAP1 DUP1 MLOAD SWAP1 PUSH1 0x20 ADD SWAP1 PUSH3 0x9F SWAP3 SWAP2 SWAP1 PUSH3 0xC4 JUMP JUMPDEST POP DUP1 PUSH1 0x5 SWAP1 DUP1 MLOAD SWAP1 PUSH1 0x20 ADD SWAP1 PUSH3 0xB8 SWAP3 SWAP2 SWAP1 PUSH3 0x153 JUMP JUMPDEST POP POP POP POP POP POP PUSH3 0x594 JUMP JUMPDEST DUP3 DUP1 SLOAD DUP3 DUP3 SSTORE SWAP1 PUSH1 0x0 MSTORE PUSH1 0x20 PUSH1 0x0 KECCAK256 SWAP1 DUP2 ADD SWAP3 DUP3 ISZERO PUSH3 0x140 JUMPI SWAP2 PUSH1 0x20 MUL DUP3 ADD JUMPDEST DUP3 DUP2 GT ISZERO PUSH3 0x13F JUMPI DUP3 MLOAD DUP3 PUSH1 0x0 PUSH2 0x100 EXP DUP2 SLOAD DUP2 PUSH20 0xFFFFFFFFFFFFFFFFFFFFFFFFFFFFFFFFFFFFFFFF MUL NOT AND SWAP1 DUP4 PUSH20 0xFFFFFFFFFFFFFFFFFFFFFFFFFFFFFFFFFFFFFFFF AND MUL OR SWAP1 SSTORE POP SWAP2 PUSH1 0x20 ADD SWAP2 SWAP1 PUSH1 0x1 ADD SWAP1 PUSH3 0xE5 JUMP JUMPDEST JUMPDEST POP SWAP1 POP PUSH3 0x14F SWAP2 SWAP1 PUSH3 0x1A5 JUMP JUMPDEST POP SWAP1 JUMP JUMPDEST DUP3 DUP1 SLOAD DUP3 DUP3 SSTORE SWAP1 PUSH1 0x0 MSTORE PUSH1 0x20 PUSH1 0x0 KECCAK256 SWAP1 DUP2 ADD SWAP3 DUP3 ISZERO PUSH3 0x192 JUMPI SWAP2 PUSH1 0x20 MUL DUP3 ADD JUMPDEST DUP3 DUP2 GT ISZERO PUSH3 0x191 JUMPI DUP3 MLOAD DUP3 SSTORE SWAP2 PUSH1 0x20 ADD SWAP2 SWAP1 PUSH1 0x1 ADD SWAP1 PUSH3 0x174 JUMP JUMPDEST JUMPDEST POP SWAP1 POP PUSH3 0x1A1 SWAP2 SWAP1 PUSH3 0x1A5 JUMP JUMPDEST POP SWAP1 JUMP JUMPDEST JUMPDEST DUP1 DUP3 GT ISZERO PUSH3 0x1C0 JUMPI PUSH1 0x0 DUP2 PUSH1 0x0 SWAP1 SSTORE POP PUSH1 0x1 ADD PUSH3 0x1A6 JUMP JUMPDEST POP SWAP1 JUMP JUMPDEST PUSH1 0x0 PUSH3 0x1DB PUSH3 0x1D5 DUP5 PUSH3 0x42A JUMP JUMPDEST PUSH3 0x401 JUMP JUMPDEST SWAP1 POP DUP1 DUP4 DUP3 MSTORE PUSH1 0x20 DUP3 ADD SWAP1 POP DUP3 DUP6 PUSH1 0x20 DUP7 MUL DUP3 ADD GT ISZERO PUSH3 0x1FB JUMPI PUSH1 0x0 DUP1 REVERT JUMPDEST PUSH1 0x0 JUMPDEST DUP6 DUP2 LT ISZERO PUSH3 0x22F JUMPI DUP2 PUSH3 0x214 DUP9 DUP3 PUSH3 0x2AE JUMP JUMPDEST DUP5 MSTORE PUSH1 0x20 DUP5 ADD SWAP4 POP PUSH1 0x20 DUP4 ADD SWAP3 POP POP PUSH1 0x1 DUP2 ADD SWAP1 POP PUSH3 0x1FE JUMP JUMPDEST POP POP POP SWAP4 SWAP3 POP POP POP JUMP JUMPDEST PUSH1 0x0 PUSH3 0x250 PUSH3 0x24A DUP5 PUSH3 0x459 JUMP JUMPDEST PUSH3 0x401 JUMP JUMPDEST SWAP1 POP DUP1 DUP4 DUP3 MSTORE PUSH1 0x20 DUP3 ADD SWAP1 POP DUP3 DUP6 PUSH1 0x20 DUP7 MUL DUP3 ADD GT ISZERO PUSH3 0x270 JUMPI PUSH1 0x0 DUP1 REVERT JUMPDEST PUSH1 0x0 JUMPDEST DUP6 DUP2 LT ISZERO PUSH3 0x2A4 JUMPI DUP2 PUSH3 0x289 DUP9 DUP3 PUSH3 0x336 JUMP JUMPDEST DUP5 MSTORE PUSH1 0x20 DUP5 ADD SWAP4 POP PUSH1 0x20 DUP4 ADD SWAP3 POP POP PUSH1 0x1 DUP2 ADD SWAP1 POP PUSH3 0x273 JUMP JUMPDEST POP POP POP SWAP4 SWAP3 POP POP POP JUMP JUMPDEST PUSH1 0x0 DUP2 MLOAD SWAP1 POP PUSH3 0x2BF DUP2 PUSH3 0x546 JUMP JUMPDEST SWAP3 SWAP2 POP POP JUMP JUMPDEST PUSH1 0x0 DUP3 PUSH1 0x1F DUP4 ADD SLT PUSH3 0x2D7 JUMPI PUSH1 0x0 DUP1 REVERT JUMPDEST DUP2 MLOAD PUSH3 0x2E9 DUP5 DUP3 PUSH1 0x20 DUP7 ADD PUSH3 0x1C4 JUMP JUMPDEST SWAP2 POP POP SWAP3 SWAP2 POP POP JUMP JUMPDEST PUSH1 0x0 DUP3 PUSH1 0x1F DUP4 ADD SLT PUSH3 0x304 JUMPI PUSH1 0x0 DUP1 REVERT JUMPDEST DUP2 MLOAD PUSH3 0x316 DUP5 DUP3 PUSH1 0x20 DUP7 ADD PUSH3 0x239 JUMP JUMPDEST SWAP2 POP POP SWAP3 SWAP2 POP POP JUMP JUMPDEST PUSH1 0x0 DUP2 MLOAD SWAP1 POP PUSH3 0x330 DUP2 PUSH3 0x560 JUMP JUMPDEST SWAP3 SWAP2 POP POP JUMP JUMPDEST PUSH1 0x0 DUP2 MLOAD SWAP1 POP PUSH3 0x347 DUP2 PUSH3 0x57A JUMP JUMPDEST SWAP3 SWAP2 POP POP JUMP JUMPDEST PUSH1 0x0 DUP1 PUSH1 0x0 DUP1 PUSH1 0x0 PUSH1 0xA0 DUP7 DUP9 SUB SLT ISZERO PUSH3 0x366 JUMPI PUSH1 0x0 DUP1 REVERT JUMPDEST PUSH1 0x0 PUSH3 0x376 DUP9 DUP3 DUP10 ADD PUSH3 0x2AE JUMP JUMPDEST SWAP6 POP POP PUSH1 0x20 PUSH3 0x389 DUP9 DUP3 DUP10 ADD PUSH3 0x31F JUMP JUMPDEST SWAP5 POP POP PUSH1 0x40 PUSH3 0x39C DUP9 DUP3 DUP10 ADD PUSH3 0x336 JUMP JUMPDEST SWAP4 POP POP PUSH1 0x60 DUP7 ADD MLOAD PUSH8 0xFFFFFFFFFFFFFFFF DUP2 GT ISZERO PUSH3 0x3BA JUMPI PUSH1 0x0 DUP1 REVERT JUMPDEST PUSH3 0x3C8 DUP9 DUP3 DUP10 ADD PUSH3 0x2C5 JUMP JUMPDEST SWAP3 POP POP PUSH1 0x80 DUP7 ADD MLOAD PUSH8 0xFFFFFFFFFFFFFFFF DUP2 GT ISZERO PUSH3 0x3E6 JUMPI PUSH1 0x0 DUP1 REVERT JUMPDEST PUSH3 0x3F4 DUP9 DUP3 DUP10 ADD PUSH3 0x2F2 JUMP JUMPDEST SWAP2 POP POP SWAP3 SWAP6 POP SWAP3 SWAP6 SWAP1 SWAP4 POP JUMP JUMPDEST PUSH1 0x0 PUSH3 0x40D PUSH3 0x420 JUMP JUMPDEST SWAP1 POP PUSH3 0x41B DUP3 DUP3 PUSH3 0x4D0 JUMP JUMPDEST SWAP2 SWAP1 POP JUMP JUMPDEST PUSH1 0x0 PUSH1 0x40 MLOAD SWAP1 POP SWAP1 JUMP JUMPDEST PUSH1 0x0 PUSH8 0xFFFFFFFFFFFFFFFF DUP3 GT ISZERO PUSH3 0x448 JUMPI PUSH3 0x447 PUSH3 0x506 JUMP JUMPDEST JUMPDEST PUSH1 0x20 DUP3 MUL SWAP1 POP PUSH1 0x20 DUP2 ADD SWAP1 POP SWAP2 SWAP1 POP JUMP JUMPDEST PUSH1 0x0 PUSH8 0xFFFFFFFFFFFFFFFF DUP3 GT ISZERO PUSH3 0x477 JUMPI PUSH3 0x476 PUSH3 0x506 JUMP JUMPDEST JUMPDEST PUSH1 0x20 DUP3 MUL SWAP1 POP PUSH1 0x20 DUP2 ADD SWAP1 POP SWAP2 SWAP1 POP JUMP JUMPDEST PUSH1 0x0 PUSH3 0x495 DUP3 PUSH3 0x4A6 JUMP JUMPDEST SWAP1 POP SWAP2 SWAP1 POP JUMP JUMPDEST PUSH1 0x0 DUP2 SWAP1 POP SWAP2 SWAP1 POP JUMP JUMPDEST PUSH1 0x0 PUSH20 0xFFFFFFFFFFFFFFFFFFFFFFFFFFFFFFFFFFFFFFFF DUP3 AND SWAP1 POP SWAP2 SWAP1 POP JUMP JUMPDEST PUSH1 0x0 DUP2 SWAP1 POP SWAP2 SWAP1 POP JUMP JUMPDEST PUSH3 0x4DB DUP3 PUSH3 0x535 JUMP JUMPDEST DUP2 ADD DUP2 DUP2 LT PUSH8 0xFFFFFFFFFFFFFFFF DUP3 GT OR ISZERO PUSH3 0x4FD JUMPI PUSH3 0x4FC PUSH3 0x506 JUMP JUMPDEST JUMPDEST DUP1 PUSH1 0x40 MSTORE POP POP POP JUMP JUMPDEST PUSH32 0x4E487B7100000000000000000000000000000000000000000000000000000000 PUSH1 0x0 MSTORE PUSH1 0x41 PUSH1 0x4 MSTORE PUSH1 0x24 PUSH1 0x0 REVERT JUMPDEST PUSH1 0x0 PUSH1 0x1F NOT PUSH1 0x1F DUP4 ADD AND SWAP1 POP SWAP2 SWAP1 POP JUMP JUMPDEST PUSH3 0x551 DUP2 PUSH3 0x488 JUMP JUMPDEST DUP2 EQ PUSH3 0x55D JUMPI PUSH1 0x0 DUP1 REVERT JUMPDEST POP JUMP JUMPDEST PUSH3 0x56B DUP2 PUSH3 0x49C JUMP JUMPDEST DUP2 EQ PUSH3 0x577 JUMPI PUSH1 0x0 DUP1 REVERT JUMPDEST POP JUMP JUMPDEST PUSH3 0x585 DUP2 PUSH3 0x4C6 JUMP JUMPDEST DUP2 EQ PUSH3 0x591 JUMPI PUSH1 0x0 DUP1 REVERT JUMPDEST POP JUMP JUMPDEST PUSH1 0x80 MLOAD PUSH2 0x50A PUSH3 0x5B0 PUSH1 0x0 CODECOPY PUSH1 0x0 PUSH2 0x264 ADD MSTORE PUSH2 0x50A PUSH1 0x0 RETURN INVALID PUSH1 0x80 PUSH1 0x40 MSTORE CALLVALUE DUP1 ISZERO PUSH2 0x10 JUMPI PUSH1 0x0 DUP1 REVERT JUMPDEST POP PUSH1 0x4 CALLDATASIZE LT PUSH2 0x4C JUMPI PUSH1 0x0 CALLDATALOAD PUSH1 0xE0 SHR DUP1 PUSH4 0x10CE19A4 EQ PUSH2 0x51 JUMPI DUP1 PUSH4 0x13AF4035 EQ PUSH2 0x6D JUMPI DUP1 PUSH4 0x8DA5CB5B EQ PUSH2 0x89 JUMPI DUP1 PUSH4 0xC0E24D5E EQ PUSH2 0xA7 JUMPI JUMPDEST PUSH1 0x0 DUP1 REVERT JUMPDEST PUSH2 0x6B PUSH1 0x4 DUP1 CALLDATASIZE SUB DUP2 ADD SWAP1 PUSH2 0x66 SWAP2 SWAP1 PUSH2 0x2F2 JUMP JUMPDEST PUSH2 0xC5 JUMP JUMPDEST STOP JUMPDEST PUSH2 0x87 PUSH1 0x4 DUP1 CALLDATASIZE SUB DUP2 ADD SWAP1 PUSH2 0x82 SWAP2 SWAP1 PUSH2 0x2F2 JUMP JUMPDEST PUSH2 0x154 JUMP JUMPDEST STOP JUMPDEST PUSH2 0x91 PUSH2 0x23E JUMP JUMPDEST PUSH1 0x40 MLOAD PUSH2 0x9E SWAP2 SWAP1 PUSH2 0x37F JUMP JUMPDEST PUSH1 0x40 MLOAD DUP1 SWAP2 SUB SWAP1 RETURN JUMPDEST PUSH2 0xAF PUSH2 0x262 JUMP JUMPDEST PUSH1 0x40 MLOAD PUSH2 0xBC SWAP2 SWAP1 PUSH2 0x3C3 JUMP JUMPDEST PUSH1 0x40 MLOAD DUP1 SWAP2 SUB SWAP1 RETURN JUMPDEST PUSH1 0x0 PUSH1 0x1 SLOAD EQ PUSH2 0x10A JUMPI PUSH1 0x40 MLOAD PUSH32 0x8C379A000000000000000000000000000000000000000000000000000000000 DUP2 MSTORE PUSH1 0x4 ADD PUSH2 0x101 SWAP1 PUSH2 0x3DE JUMP JUMPDEST PUSH1 0x40 MLOAD DUP1 SWAP2 SUB SWAP1 REVERT JUMPDEST PUSH1 0x1 DUP1 DUP2 SWAP1 SSTORE POP DUP1 PUSH1 0x0 DUP1 PUSH2 0x100 EXP DUP2 SLOAD DUP2 PUSH20 0xFFFFFFFFFFFFFFFFFFFFFFFFFFFFFFFFFFFFFFFF MUL NOT AND SWAP1 DUP4 PUSH20 0xFFFFFFFFFFFFFFFFFFFFFFFFFFFFFFFFFFFFFFFF AND MUL OR SWAP1 SSTORE POP POP JUMP JUMPDEST PUSH2 0x15C PUSH2 0x286 JUMP JUMPDEST PUSH2 0x19B JUMPI PUSH1 0x40 MLOAD PUSH32 0x8C379A000000000000000000000000000000000000000000000000000000000 DUP2 MSTORE PUSH1 0x4 ADD PUSH2 0x192 SWAP1 PUSH2 0x3FE JUMP JUMPDEST PUSH1 0x40 MLOAD DUP1 SWAP2 SUB SWAP1 REVERT JUMPDEST PUSH1 0x0 DUP1 PUSH1 0x0 SWAP1 SLOAD SWAP1 PUSH2 0x100 EXP SWAP1 DIV PUSH20 0xFFFFFFFFFFFFFFFFFFFFFFFFFFFFFFFFFFFFFFFF AND SWAP1 POP DUP2 PUSH1 0x0 DUP1 PUSH2 0x100 EXP DUP2 SLOAD DUP2 PUSH20 0xFFFFFFFFFFFFFFFFFFFFFFFFFFFFFFFFFFFFFFFF MUL NOT AND SWAP1 DUP4 PUSH20 0xFFFFFFFFFFFFFFFFFFFFFFFFFFFFFFFFFFFFFFFF AND MUL OR SWAP1 SSTORE POP PUSH32 0x8292FCE18FA69EDF4DB7B94EA2E58241DF0AE57F97E0A6C9B29067028BF92D76 DUP2 DUP4 PUSH1 0x40 MLOAD PUSH2 0x232 SWAP3 SWAP2 SWAP1 PUSH2 0x39A JUMP JUMPDEST PUSH1 0x40 MLOAD DUP1 SWAP2 SUB SWAP1 LOG1 POP POP JUMP JUMPDEST PUSH1 0x0 DUP1 SLOAD SWAP1 PUSH2 0x100 EXP SWAP1 DIV PUSH20 0xFFFFFFFFFFFFFFFFFFFFFFFFFFFFFFFFFFFFFFFF AND DUP2 JUMP JUMPDEST PUSH32 0x0 DUP2 JUMP JUMPDEST PUSH1 0x0 DUP1 PUSH1 0x0 SWAP1 SLOAD SWAP1 PUSH2 0x100 EXP SWAP1 DIV PUSH20 0xFFFFFFFFFFFFFFFFFFFFFFFFFFFFFFFFFFFFFFFF AND PUSH20 0xFFFFFFFFFFFFFFFFFFFFFFFFFFFFFFFFFFFFFFFF AND CALLER PUSH20 0xFFFFFFFFFFFFFFFFFFFFFFFFFFFFFFFFFFFFFFFF AND EQ SWAP1 POP SWAP1 JUMP JUMPDEST PUSH1 0x0 DUP2 CALLDATALOAD SWAP1 POP PUSH2 0x2EC DUP2 PUSH2 0x4BD JUMP JUMPDEST SWAP3 SWAP2 POP POP JUMP JUMPDEST PUSH1 0x0 PUSH1 0x20 DUP3 DUP5 SUB SLT ISZERO PUSH2 0x304 JUMPI PUSH1 0x0 DUP1 REVERT JUMPDEST PUSH1 0x0 PUSH2 0x312 DUP5 DUP3 DUP6 ADD PUSH2 0x2DD JUMP JUMPDEST SWAP2 POP POP SWAP3 SWAP2 POP POP JUMP JUMPDEST PUSH2 0x324 DUP2 PUSH2 0x42F JUMP JUMPDEST DUP3 MSTORE POP POP JUMP JUMPDEST PUSH2 0x333 DUP2 PUSH2 0x441 JUMP JUMPDEST DUP3 MSTORE POP POP JUMP JUMPDEST PUSH1 0x0 PUSH2 0x346 PUSH1 0x19 DUP4 PUSH2 0x41E JUMP JUMPDEST SWAP2 POP PUSH2 0x351 DUP3 PUSH2 0x46B JUMP JUMPDEST PUSH1 0x20 DUP3 ADD SWAP1 POP SWAP2 SWAP1 POP JUMP JUMPDEST PUSH1 0x0 PUSH2 0x369 PUSH1 0xE DUP4 PUSH2 0x41E JUMP JUMPDEST SWAP2 POP PUSH2 0x374 DUP3 PUSH2 0x494 JUMP JUMPDEST PUSH1 0x20 DUP3 ADD SWAP1 POP SWAP2 SWAP1 POP JUMP JUMPDEST PUSH1 0x0 PUSH1 0x20 DUP3 ADD SWAP1 POP PUSH2 0x394 PUSH1 0x0 DUP4 ADD DUP5 PUSH2 0x31B JUMP JUMPDEST SWAP3 SWAP2 POP POP JUMP JUMPDEST PUSH1 0x0 PUSH1 0x40 DUP3 ADD SWAP1 POP PUSH2 0x3AF PUSH1 0x0 DUP4 ADD DUP6 PUSH2 0x31B JUMP JUMPDEST PUSH2 0x3BC PUSH1 0x20 DUP4 ADD DUP5 PUSH2 0x31B JUMP JUMPDEST SWAP4 SWAP3 POP POP POP JUMP JUMPDEST PUSH1 0x0 PUSH1 0x20 DUP3 ADD SWAP1 POP PUSH2 0x3D8 PUSH1 0x0 DUP4 ADD DUP5 PUSH2 0x32A JUMP JUMPDEST SWAP3 SWAP2 POP POP JUMP JUMPDEST PUSH1 0x0 PUSH1 0x20 DUP3 ADD SWAP1 POP DUP2 DUP2 SUB PUSH1 0x0 DUP4 ADD MSTORE PUSH2 0x3F7 DUP2 PUSH2 0x339 JUMP JUMPDEST SWAP1 POP SWAP2 SWAP1 POP JUMP JUMPDEST PUSH1 0x0 PUSH1 0x20 DUP3 ADD SWAP1 POP DUP2 DUP2 SUB PUSH1 0x0 DUP4 ADD MSTORE PUSH2 0x417 DUP2 PUSH2 0x35C JUMP JUMPDEST SWAP1 POP SWAP2 SWAP1 POP JUMP JUMPDEST PUSH1 0x0 DUP3 DUP3 MSTORE PUSH1 0x20 DUP3 ADD SWAP1 POP SWAP3 SWAP2 POP POP JUMP JUMPDEST PUSH1 0x0 PUSH2 0x43A DUP3 PUSH2 0x44B JUMP JUMPDEST SWAP1 POP SWAP2 SWAP1 POP JUMP JUMPDEST PUSH1 0x0 DUP2 SWAP1 POP SWAP2 SWAP1 POP JUMP JUMPDEST PUSH1 0x0 PUSH20 0xFFFFFFFFFFFFFFFFFFFFFFFFFFFFFFFFFFFFFFFF DUP3 AND SWAP1 POP SWAP2 SWAP1 POP JUMP JUMPDEST PUSH32 0x4F776E657220616C726561647920696E697469616C697A656400000000000000 PUSH1 0x0 DUP3 ADD MSTORE POP JUMP JUMPDEST PUSH32 0x4E6F7420617574686F72697A6564000000000000000000000000000000000000 PUSH1 0x0 DUP3 ADD MSTORE POP JUMP JUMPDEST PUSH2 0x4C6 DUP2 PUSH2 0x42F JUMP JUMPDEST DUP2 EQ PUSH2 0x4D1 JUMPI PUSH1 0x0 DUP1 REVERT JUMPDEST POP JUMP INVALID LOG2 PUSH5 0x6970667358 0x22 SLT KECCAK256 STATICCALL 0xEB SWAP9 EXP SWAP11 INVALID 0xE3 SHL 0xB0 RETURNDATASIZE DUP6 0xB6 0xBA 0xAD 0xC2 0xAF 0xE6 SWAP6 0xCA PUSH2 0xDCD4 0xA5 0x24 0x2D 0xEF 0xB6 GASLIMIT DUP14 XOR CALL 0xC7 PUSH5 0x736F6C6343 STOP ADDMOD DIV STOP CALLER "
        },
        "methodIdentifiers": {
          "contractUri()": "c0e24d5e",
          "owner()": "8da5cb5b",
          "setOwner(address)": "13af4035",
          "tw_initializeOwner(address)": "10ce19a4"
        }
      }
    }
  }
}